{"abi":[{"inputs":[{"internalType":"address","name":"_owner","type":"address"},{"components":[{"components":[{"internalType":"address","name":"vaultAddress","type":"address"},{"internalType":"uint256","name":"initialWeight","type":"uint256"},{"internalType":"uint256","name":"targetWeight","type":"uint256"}],"internalType":"struct DataTypes.VaultWeightConfiguration[]","name":"vaults","type":"tuple[]"},{"internalType":"uint256","name":"startsAt","type":"uint256"},{"internalType":"uint256","name":"endsAt","type":"uint256"}],"internalType":"struct DataTypes.VaultWeightSchedule","name":"initialSchedule","type":"tuple"}],"stateMutability":"nonpayable","type":"constructor","name":"constructor"},{"inputs":[{"internalType":"address","name":"vault","type":"address"}],"name":"DuplicatedVault","type":"error"},{"inputs":[{"internalType":"uint256","name":"totalWeight","type":"uint256"}],"name":"InvalidTotalWeight","type":"error"},{"inputs":[{"internalType":"address","name":"actual","type":"address"},{"internalType":"address","name":"expected","type":"address"}],"name":"NotAuthorized","type":"error"},{"inputs":[{"components":[{"internalType":"address","name":"vaultAddress","type":"address"},{"internalType":"uint256","name":"votingPower","type":"uint256"}],"internalType":"struct DataTypes.VaultVotingPower[]","name":"vaultVotingPowers","type":"tuple[]"}],"name":"calculateWeightedPowerPct","outputs":[{"internalType":"uint256","name":"","type":"uint256"}],"stateMutability":"view","type":"function"},{"inputs":[],"name":"createVaultsSnapshot","outputs":[{"components":[{"internalType":"address","name":"vaultAddress","type":"address"},{"internalType":"uint256","name":"weight","type":"uint256"},{"internalType":"uint256","name":"totalVotingPower","type":"uint256"}],"internalType":"struct DataTypes.VaultSnapshot[]","name":"snapshots","type":"tuple[]"}],"stateMutability":"view","type":"function"},{"inputs":[{"internalType":"address","name":"vault","type":"address"}],"name":"getVaultWeight","outputs":[{"internalType":"uint256","name":"","type":"uint256"}],"stateMutability":"view","type":"function"},{"inputs":[{"internalType":"address","name":"account","type":"address"},{"internalType":"uint256","name":"timestamp","type":"uint256"}],"name":"getVotingPower","outputs":[{"components":[{"internalType":"address","name":"vaultAddress","type":"address"},{"internalType":"uint256","name":"votingPower","type":"uint256"}],"internalType":"struct DataTypes.VaultVotingPower[]","name":"","type":"tuple[]"}],"stateMutability":"view","type":"function"},{"inputs":[{"internalType":"address","name":"account","type":"address"},{"internalType":"uint256","name":"timestamp","type":"uint256"},{"internalType":"address[]","name":"vaults","type":"address[]"}],"name":"getVotingPower","outputs":[{"components":[{"internalType":"address","name":"vaultAddress","type":"address"},{"internalType":"uint256","name":"votingPower","type":"uint256"}],"internalType":"struct DataTypes.VaultVotingPower[]","name":"","type":"tuple[]"}],"stateMutability":"view","type":"function"},{"inputs":[],"name":"listVaults","outputs":[{"components":[{"internalType":"address","name":"vaultAddress","type":"address"},{"internalType":"uint256","name":"currentWeight","type":"uint256"},{"internalType":"uint256","name":"initialWeight","type":"uint256"},{"internalType":"uint256","name":"targetWeight","type":"uint256"}],"internalType":"struct DataTypes.VaultWeight[]","name":"","type":"tuple[]"}],"stateMutability":"view","type":"function"},{"inputs":[],"name":"owner","outputs":[{"internalType":"address","name":"","type":"address"}],"stateMutability":"view","type":"function"},{"inputs":[],"name":"scheduleEndsAt","outputs":[{"internalType":"uint256","name":"","type":"uint256"}],"stateMutability":"view","type":"function"},{"inputs":[],"name":"scheduleStartsAt","outputs":[{"internalType":"uint256","name":"","type":"uint256"}],"stateMutability":"view","type":"function"},{"inputs":[{"components":[{"components":[{"internalType":"address","name":"vaultAddress","type":"address"},{"internalType":"uint256","name":"initialWeight","type":"uint256"},{"internalType":"uint256","name":"targetWeight","type":"uint256"}],"internalType":"struct DataTypes.VaultWeightConfiguration[]","name":"vaults","type":"tuple[]"},{"internalType":"uint256","name":"startsAt","type":"uint256"},{"internalType":"uint256","name":"endsAt","type":"uint256"}],"internalType":"struct DataTypes.VaultWeightSchedule","name":"schedule","type":"tuple"}],"name":"setSchedule","outputs":[],"stateMutability":"nonpayable","type":"function"}],"bytecode":"60a06040523480156200001157600080fd5b5060405162001b3e38038062001b3e83398101604081905262000034916200055e565b6001600160a01b0382166080526200004c8162000054565b50506200072a565b8060200151816040015111620000bb5760405162461bcd60e51b815260206004820152602160248201527f7363686564756c65206d75737420656e6420616674657220697420626567696e6044820152607360f81b60648201526084015b60405180910390fd5b60208101516003556040810151600455620000d5620001ba565b60008060005b8351518110156200015a57600084600001518281518110620001015762000101620006a0565b602002602001015190506200011c816200026560201b60201c565b60208101516200012d9085620006cc565b9350806040015183620001419190620006cc565b92505080806200015190620006e2565b915050620000db565b50670de0b6b3a764000082146200018857604051635943317f60e01b815260048101839052602401620000b2565b670de0b6b3a76400008114620001b557604051635943317f60e01b815260048101829052602401620000b2565b505050565b6000620001d36000620002f660201b620008f81760201c565b905060005b8181101562000261576000620001fe6000806200030760201b620009021790919060201c565b90506200021b8160006200031c60201b6200090e1790919060201c565b506001600160a01b03166000908152600260208190526040822080546001600160a01b0319168155600181018390550155806200025881620006e2565b915050620001d8565b5050565b62000284816000015160006200033360201b620009231790919060201c565b620002b15780516040516374f3271b60e01b81526001600160a01b039091166004820152602401620000b2565b80516001600160a01b03908116600090815260026020818152604092839020855181546001600160a01b03191695169490941784558401516001840155920151910155565b600062000301825490565b92915050565b60006200031583836200034a565b9392505050565b600062000315836001600160a01b03841662000377565b600062000315836001600160a01b0384166200047b565b6000826000018281548110620003645762000364620006a0565b9060005260206000200154905092915050565b60008181526001830160205260408120548015620004705760006200039e600183620006fe565b8554909150600090620003b490600190620006fe565b905081811462000420576000866000018281548110620003d857620003d8620006a0565b9060005260206000200154905080876000018481548110620003fe57620003fe620006a0565b6000918252602080832090910192909255918252600188019052604090208390555b855486908062000434576200043462000714565b60019003818190600052602060002001600090559055856001016000868152602001908152602001600020600090556001935050505062000301565b600091505062000301565b6000818152600183016020526040812054620004c45750815460018181018455600084815260208082209093018490558454848252828601909352604090209190915562000301565b50600062000301565b80516001600160a01b0381168114620004e557600080fd5b919050565b634e487b7160e01b600052604160045260246000fd5b604051606081016001600160401b0381118282101715620005255762000525620004ea565b60405290565b604051601f8201601f191681016001600160401b0381118282101715620005565762000556620004ea565b604052919050565b60008060408084860312156200057357600080fd5b6200057e84620004cd565b602085810151919450906001600160401b03808211156200059e57600080fd5b8187019150606080838a031215620005b557600080fd5b620005bf62000500565b835183811115620005cf57600080fd5b8401601f81018b13620005e157600080fd5b805184811115620005f657620005f6620004ea565b62000606878260051b016200052b565b818152878101955090840282018701908c8211156200062457600080fd5b918701915b818310156200067a5784838e031215620006435760008081fd5b6200064d62000500565b6200065884620004cd565b81528389015189820152898401518a8201528652948701949184019162000629565b808452505050848401518582015285840151868201528096505050505050509250929050565b634e487b7160e01b600052603260045260246000fd5b634e487b7160e01b600052601160045260246000fd5b80820180821115620003015762000301620006b6565b600060018201620006f757620006f7620006b6565b5060010190565b81810381811115620003015762000301620006b6565b634e487b7160e01b600052603160045260246000fd5b6080516113ea620007546000396000818161011a0152818161028b01526102cd01526113ea6000f3fe608060405234801561001057600080fd5b506004361061009e5760003560e01c80638da5cb5b116100665780638da5cb5b146101155780638ff400f414610154578063a10202fc14610174578063ac8047d214610187578063c3481ecf1461019a57600080fd5b8063151f92d3146100a357806318272019146100c15780633bef7abb146100d65780634732a361146100f757806350cc258e14610100575b600080fd5b6100ab6101a3565b6040516100b89190610e3e565b60405180910390f35b6100d46100cf366004610ea0565b610280565b005b6100e96100e4366004610edb565b610313565b6040519081526020016100b8565b6100e960035481565b61010861041c565b6040516100b89190610f50565b61013c7f000000000000000000000000000000000000000000000000000000000000000081565b6040516001600160a01b0390911681526020016100b8565b610167610162366004610fcc565b610662565b6040516100b89190610ff6565b6101676101823660046110d5565b61067a565b6100e961019536600461118e565b6107dd565b6100e960045481565b606060006101b160006108f8565b90508067ffffffffffffffff8111156101cc576101cc611041565b60405190808252806020026020018201604052801561022a57816020015b610217604051806060016040528060006001600160a01b0316815260200160008152602001600081525090565b8152602001906001900390816101ea5790505b50915060005b8181101561027b5761024b610246600083610902565b610938565b83828151811061025d5761025d6111a9565b60200260200101819052508080610273906111d5565b915050610230565b505090565b336001600160a01b037f000000000000000000000000000000000000000000000000000000000000000016146102ff5760405163c55ddc9760e01b81523360048201526001600160a01b037f00000000000000000000000000000000000000000000000000000000000000001660248201526044015b60405180910390fd5b61031061030b826111ee565b6109f7565b50565b60008060005b83811015610412576000858583818110610335576103356111a9565b90506040020180360381019061034b91906112cf565b9050600061035c82600001516107dd565b905080156103fd57600082600001516001600160a01b031663344ff1d06040518163ffffffff1660e01b8152600401602060405180830381865afa1580156103a8573d6000803e3d6000fd5b505050506040513d601f19601f820116820180604052508101906103cc9190611326565b90506103ef826103e9838660200151610b3e90919063ffffffff16565b90610b5d565b6103f9908661133f565b9450505b5050808061040a906111d5565b915050610319565b5090505b92915050565b6060600061042a60006108f8565b905060008167ffffffffffffffff81111561044757610447611041565b6040519080825280602002602001820160405280156104ac57816020015b610499604051806080016040528060006001600160a01b031681526020016000815260200160008152602001600081525090565b8152602001906001900390816104655790505b5090506000805b838110156105eb5760006002816104ca8185610902565b6001600160a01b03908116825260208083019390935260409182016000208251606081018452815490921680835260018201549483019490945260020154918101919091528551909250859084908110610526576105266111a9565b6020026020010151600001906001600160a01b031690816001600160a01b0316815250508060200151848381518110610561576105616111a9565b602002602001015160400181815250508060400151848381518110610588576105886111a9565b6020026020010151606001818152505060006105a782600001516107dd565b9050808584815181106105bc576105bc6111a9565b60209081029190910181015101526105d4818561133f565b9350505080806105e3906111d5565b9150506104b3565b5060005b83811015610659576106278284838151811061060d5761060d6111a9565b602002602001015160200151610b3e90919063ffffffff16565b838281518110610639576106396111a9565b602090810291909101810151015280610651816111d5565b9150506105ef565b50909392505050565b606061067383836101826000610b72565b9392505050565b60606000825167ffffffffffffffff81111561069857610698611041565b6040519080825280602002602001820160405280156106dd57816020015b60408051808201909152600080825260208201528152602001906001900390816106b65790505b50905060005b83518110156107d4576000848281518110610700576107006111a9565b602090810291909101015160405163de1ec40360e01b81526001600160a01b0389811660048301526024820189905291925060009183169063de1ec40390604401602060405180830381865afa15801561075e573d6000803e3d6000fd5b505050506040513d601f19601f820116820180604052508101906107829190611326565b90506040518060400160405280836001600160a01b03168152602001828152508484815181106107b4576107b46111a9565b6020026020010181905250505080806107cc906111d5565b9150506106e3565b50949350505050565b6001600160a01b03818116600090815260026020818152604080842081516060810183528154909616865260018101549286019290925291015490830152600454909190421115610832576040015192915050565b600354421015610846576020015192915050565b600061086e60035460045461085b9190611352565b6003546108689042611352565b90610b3e565b905060008260200151836040015111156108bb576000836020015184604001516108989190611352565b90506108a48184610b5d565b84602001516108b3919061133f565b9150506108f0565b6000836040015184602001516108d19190611352565b90506108dd8184610b5d565b84602001516108ec9190611352565b9150505b949350505050565b6000610416825490565b60006106738383610b7f565b6000610673836001600160a01b038416610ba9565b6000610673836001600160a01b038416610c9c565b610965604051806060016040528060006001600160a01b0316815260200160008152602001600081525090565b6040518060600160405280836001600160a01b03168152602001610988846107dd565b8152602001836001600160a01b031663344ff1d06040518163ffffffff1660e01b8152600401602060405180830381865afa1580156109cb573d6000803e3d6000fd5b505050506040513d601f19601f820116820180604052508101906109ef9190611326565b905292915050565b8060200151816040015111610a585760405162461bcd60e51b815260206004820152602160248201527f7363686564756c65206d75737420656e6420616674657220697420626567696e6044820152607360f81b60648201526084016102f6565b60208101516003556040810151600455610a70610ceb565b60008060005b835151811015610ae257600084600001518281518110610a9857610a986111a9565b60200260200101519050610aab81610d64565b6020810151610aba908561133f565b9350806040015183610acc919061133f565b9250508080610ada906111d5565b915050610a76565b50670de0b6b3a76400008214610b0e57604051635943317f60e01b8152600481018390526024016102f6565b670de0b6b3a76400008114610b3957604051635943317f60e01b8152600481018290526024016102f6565b505050565b600081610b53670de0b6b3a764000085611365565b610673919061137c565b6000670de0b6b3a7640000610b538385611365565b6060600061067383610de2565b6000826000018281548110610b9657610b966111a9565b9060005260206000200154905092915050565b60008181526001830160205260408120548015610c92576000610bcd600183611352565b8554909150600090610be190600190611352565b9050818114610c46576000866000018281548110610c0157610c016111a9565b9060005260206000200154905080876000018481548110610c2457610c246111a9565b6000918252602080832090910192909255918252600188019052604090208390555b8554869080610c5757610c5761139e565b600190038181906000526020600020016000905590558560010160008681526020019081526020016000206000905560019350505050610416565b6000915050610416565b6000818152600183016020526040812054610ce357508154600181810184556000848152602080822090930184905584548482528286019093526040902091909155610416565b506000610416565b6000610cf760006108f8565b905060005b81811015610d60576000610d108180610902565b9050610d1d60008261090e565b506001600160a01b03166000908152600260208190526040822080546001600160a01b031916815560018101839055015580610d58816111d5565b915050610cfc565b5050565b8051610d7290600090610923565b610d9d5780516040516374f3271b60e01b81526001600160a01b0390911660048201526024016102f6565b80516001600160a01b03908116600090815260026020818152604092839020855181546001600160a01b03191695169490941784558401516001840155920151910155565b606081600001805480602002602001604051908101604052809291908181526020018280548015610e3257602002820191906000526020600020905b815481526020019060010190808311610e1e575b50505050509050919050565b602080825282518282018190526000919060409081850190868401855b82811015610e9357815180516001600160a01b0316855286810151878601528501518585015260609093019290850190600101610e5b565b5091979650505050505050565b600060208284031215610eb257600080fd5b813567ffffffffffffffff811115610ec957600080fd5b82016060818503121561067357600080fd5b60008060208385031215610eee57600080fd5b823567ffffffffffffffff80821115610f0657600080fd5b818501915085601f830112610f1a57600080fd5b813581811115610f2957600080fd5b8660208260061b8501011115610f3e57600080fd5b60209290920196919550909350505050565b602080825282518282018190526000919060409081850190868401855b82811015610e9357815180516001600160a01b03168552868101518786015285810151868601526060908101519085015260809093019290850190600101610f6d565b80356001600160a01b0381168114610fc757600080fd5b919050565b60008060408385031215610fdf57600080fd5b610fe883610fb0565b946020939093013593505050565b602080825282518282018190526000919060409081850190868401855b82811015610e9357815180516001600160a01b03168552860151868501529284019290850190600101611013565b634e487b7160e01b600052604160045260246000fd5b6040516060810167ffffffffffffffff8111828210171561107a5761107a611041565b60405290565b604051601f8201601f1916810167ffffffffffffffff811182821017156110a9576110a9611041565b604052919050565b600067ffffffffffffffff8211156110cb576110cb611041565b5060051b60200190565b6000806000606084860312156110ea57600080fd5b6110f384610fb0565b92506020808501359250604085013567ffffffffffffffff81111561111757600080fd5b8501601f8101871361112857600080fd5b803561113b611136826110b1565b611080565b81815260059190911b8201830190838101908983111561115a57600080fd5b928401925b8284101561117f5761117084610fb0565b8252928401929084019061115f565b80955050505050509250925092565b6000602082840312156111a057600080fd5b61067382610fb0565b634e487b7160e01b600052603260045260246000fd5b634e487b7160e01b600052601160045260246000fd5b6000600182016111e7576111e76111bf565b5060010190565b6000606080833603121561120157600080fd5b611209611057565b833567ffffffffffffffff81111561122057600080fd5b840136601f82011261123157600080fd5b80356020611241611136836110b1565b8281529185028301810191818101903684111561125d57600080fd5b938201935b838510156112ae5786853603121561127a5760008081fd5b611282611057565b61128b86610fb0565b815285840135848201526040808701359082015282529386019390820190611262565b85525086810135908401525050604093840135938101939093525090919050565b6000604082840312156112e157600080fd5b6040516040810181811067ffffffffffffffff8211171561130457611304611041565b60405261131083610fb0565b8152602083013560208201528091505092915050565b60006020828403121561133857600080fd5b5051919050565b80820180821115610416576104166111bf565b81810381811115610416576104166111bf565b8082028115828204841417610416576104166111bf565b60008261139957634e487b7160e01b600052601260045260246000fd5b500490565b634e487b7160e01b600052603160045260246000fdfea26469706673582212209e74f9cb9b007aa1876e5ccf56c9d6e376304ad71415bc170c09916e1df79ba864736f6c63430008110033","bytecodeSha1":"feffd6ed11c5749b46a9a14a4bf3e69abcf086b0","compiler":{"evm_version":"istanbul","optimizer":{"enabled":true,"runs":200},"version":"0.8.17+commit.8df45f5f"},"contractName":"VotingPowerAggregator","language":"Solidity","natspec":{"kind":"dev","methods":{},"version":1},"opcodes":"PUSH1 0x80 PUSH1 0x40 MSTORE CALLVALUE DUP1 ISZERO PUSH2 0x10 JUMPI PUSH1 0x0 DUP1 REVERT JUMPDEST POP PUSH1 0x4 CALLDATASIZE LT PUSH2 0x9E JUMPI PUSH1 0x0 CALLDATALOAD PUSH1 0xE0 SHR DUP1 PUSH4 0x8DA5CB5B GT PUSH2 0x66 JUMPI DUP1 PUSH4 0x8DA5CB5B EQ PUSH2 0x115 JUMPI DUP1 PUSH4 0x8FF400F4 EQ PUSH2 0x154 JUMPI DUP1 PUSH4 0xA10202FC EQ PUSH2 0x174 JUMPI DUP1 PUSH4 0xAC8047D2 EQ PUSH2 0x187 JUMPI DUP1 PUSH4 0xC3481ECF EQ PUSH2 0x19A JUMPI PUSH1 0x0 DUP1 REVERT JUMPDEST DUP1 PUSH4 0x151F92D3 EQ PUSH2 0xA3 JUMPI DUP1 PUSH4 0x18272019 EQ PUSH2 0xC1 JUMPI DUP1 PUSH4 0x3BEF7ABB EQ PUSH2 0xD6 JUMPI DUP1 PUSH4 0x4732A361 EQ PUSH2 0xF7 JUMPI DUP1 PUSH4 0x50CC258E EQ PUSH2 0x100 JUMPI JUMPDEST PUSH1 0x0 DUP1 REVERT JUMPDEST PUSH2 0xAB PUSH2 0x1A3 JUMP JUMPDEST PUSH1 0x40 MLOAD PUSH2 0xB8 SWAP2 SWAP1 PUSH2 0xE3E JUMP JUMPDEST PUSH1 0x40 MLOAD DUP1 SWAP2 SUB SWAP1 RETURN JUMPDEST PUSH2 0xD4 PUSH2 0xCF CALLDATASIZE PUSH1 0x4 PUSH2 0xEA0 JUMP JUMPDEST PUSH2 0x280 JUMP JUMPDEST STOP JUMPDEST PUSH2 0xE9 PUSH2 0xE4 CALLDATASIZE PUSH1 0x4 PUSH2 0xEDB JUMP JUMPDEST PUSH2 0x313 JUMP JUMPDEST PUSH1 0x40 MLOAD SWAP1 DUP2 MSTORE PUSH1 0x20 ADD PUSH2 0xB8 JUMP JUMPDEST PUSH2 0xE9 PUSH1 0x3 SLOAD DUP2 JUMP JUMPDEST PUSH2 0x108 PUSH2 0x41C JUMP JUMPDEST PUSH1 0x40 MLOAD PUSH2 0xB8 SWAP2 SWAP1 PUSH2 0xF50 JUMP JUMPDEST PUSH2 0x13C PUSH32 0x0 DUP2 JUMP JUMPDEST PUSH1 0x40 MLOAD PUSH1 0x1 PUSH1 0x1 PUSH1 0xA0 SHL SUB SWAP1 SWAP2 AND DUP2 MSTORE PUSH1 0x20 ADD PUSH2 0xB8 JUMP JUMPDEST PUSH2 0x167 PUSH2 0x162 CALLDATASIZE PUSH1 0x4 PUSH2 0xFCC JUMP JUMPDEST PUSH2 0x662 JUMP JUMPDEST PUSH1 0x40 MLOAD PUSH2 0xB8 SWAP2 SWAP1 PUSH2 0xFF6 JUMP JUMPDEST PUSH2 0x167 PUSH2 0x182 CALLDATASIZE PUSH1 0x4 PUSH2 0x10D5 JUMP JUMPDEST PUSH2 0x67A JUMP JUMPDEST PUSH2 0xE9 PUSH2 0x195 CALLDATASIZE PUSH1 0x4 PUSH2 0x118E JUMP JUMPDEST PUSH2 0x7DD JUMP JUMPDEST PUSH2 0xE9 PUSH1 0x4 SLOAD DUP2 JUMP JUMPDEST PUSH1 0x60 PUSH1 0x0 PUSH2 0x1B1 PUSH1 0x0 PUSH2 0x8F8 JUMP JUMPDEST SWAP1 POP DUP1 PUSH8 0xFFFFFFFFFFFFFFFF DUP2 GT ISZERO PUSH2 0x1CC JUMPI PUSH2 0x1CC PUSH2 0x1041 JUMP JUMPDEST PUSH1 0x40 MLOAD SWAP1 DUP1 DUP3 MSTORE DUP1 PUSH1 0x20 MUL PUSH1 0x20 ADD DUP3 ADD PUSH1 0x40 MSTORE DUP1 ISZERO PUSH2 0x22A JUMPI DUP2 PUSH1 0x20 ADD JUMPDEST PUSH2 0x217 PUSH1 0x40 MLOAD DUP1 PUSH1 0x60 ADD PUSH1 0x40 MSTORE DUP1 PUSH1 0x0 PUSH1 0x1 PUSH1 0x1 PUSH1 0xA0 SHL SUB AND DUP2 MSTORE PUSH1 0x20 ADD PUSH1 0x0 DUP2 MSTORE PUSH1 0x20 ADD PUSH1 0x0 DUP2 MSTORE POP SWAP1 JUMP JUMPDEST DUP2 MSTORE PUSH1 0x20 ADD SWAP1 PUSH1 0x1 SWAP1 SUB SWAP1 DUP2 PUSH2 0x1EA JUMPI SWAP1 POP JUMPDEST POP SWAP2 POP PUSH1 0x0 JUMPDEST DUP2 DUP2 LT ISZERO PUSH2 0x27B JUMPI PUSH2 0x24B PUSH2 0x246 PUSH1 0x0 DUP4 PUSH2 0x902 JUMP JUMPDEST PUSH2 0x938 JUMP JUMPDEST DUP4 DUP3 DUP2 MLOAD DUP2 LT PUSH2 0x25D JUMPI PUSH2 0x25D PUSH2 0x11A9 JUMP JUMPDEST PUSH1 0x20 MUL PUSH1 0x20 ADD ADD DUP2 SWAP1 MSTORE POP DUP1 DUP1 PUSH2 0x273 SWAP1 PUSH2 0x11D5 JUMP JUMPDEST SWAP2 POP POP PUSH2 0x230 JUMP JUMPDEST POP POP SWAP1 JUMP JUMPDEST CALLER PUSH1 0x1 PUSH1 0x1 PUSH1 0xA0 SHL SUB PUSH32 0x0 AND EQ PUSH2 0x2FF JUMPI PUSH1 0x40 MLOAD PUSH4 0xC55DDC97 PUSH1 0xE0 SHL DUP2 MSTORE CALLER PUSH1 0x4 DUP3 ADD MSTORE PUSH1 0x1 PUSH1 0x1 PUSH1 0xA0 SHL SUB PUSH32 0x0 AND PUSH1 0x24 DUP3 ADD MSTORE PUSH1 0x44 ADD JUMPDEST PUSH1 0x40 MLOAD DUP1 SWAP2 SUB SWAP1 REVERT JUMPDEST PUSH2 0x310 PUSH2 0x30B DUP3 PUSH2 0x11EE JUMP JUMPDEST PUSH2 0x9F7 JUMP JUMPDEST POP JUMP JUMPDEST PUSH1 0x0 DUP1 PUSH1 0x0 JUMPDEST DUP4 DUP2 LT ISZERO PUSH2 0x412 JUMPI PUSH1 0x0 DUP6 DUP6 DUP4 DUP2 DUP2 LT PUSH2 0x335 JUMPI PUSH2 0x335 PUSH2 0x11A9 JUMP JUMPDEST SWAP1 POP PUSH1 0x40 MUL ADD DUP1 CALLDATASIZE SUB DUP2 ADD SWAP1 PUSH2 0x34B SWAP2 SWAP1 PUSH2 0x12CF JUMP JUMPDEST SWAP1 POP PUSH1 0x0 PUSH2 0x35C DUP3 PUSH1 0x0 ADD MLOAD PUSH2 0x7DD JUMP JUMPDEST SWAP1 POP DUP1 ISZERO PUSH2 0x3FD JUMPI PUSH1 0x0 DUP3 PUSH1 0x0 ADD MLOAD PUSH1 0x1 PUSH1 0x1 PUSH1 0xA0 SHL SUB AND PUSH4 0x344FF1D0 PUSH1 0x40 MLOAD DUP2 PUSH4 0xFFFFFFFF AND PUSH1 0xE0 SHL DUP2 MSTORE PUSH1 0x4 ADD PUSH1 0x20 PUSH1 0x40 MLOAD DUP1 DUP4 SUB DUP2 DUP7 GAS STATICCALL ISZERO DUP1 ISZERO PUSH2 0x3A8 JUMPI RETURNDATASIZE PUSH1 0x0 DUP1 RETURNDATACOPY RETURNDATASIZE PUSH1 0x0 REVERT JUMPDEST POP POP POP POP PUSH1 0x40 MLOAD RETURNDATASIZE PUSH1 0x1F NOT PUSH1 0x1F DUP3 ADD AND DUP3 ADD DUP1 PUSH1 0x40 MSTORE POP DUP2 ADD SWAP1 PUSH2 0x3CC SWAP2 SWAP1 PUSH2 0x1326 JUMP JUMPDEST SWAP1 POP PUSH2 0x3EF DUP3 PUSH2 0x3E9 DUP4 DUP7 PUSH1 0x20 ADD MLOAD PUSH2 0xB3E SWAP1 SWAP2 SWAP1 PUSH4 0xFFFFFFFF AND JUMP JUMPDEST SWAP1 PUSH2 0xB5D JUMP JUMPDEST PUSH2 0x3F9 SWAP1 DUP7 PUSH2 0x133F JUMP JUMPDEST SWAP5 POP POP JUMPDEST POP POP DUP1 DUP1 PUSH2 0x40A SWAP1 PUSH2 0x11D5 JUMP JUMPDEST SWAP2 POP POP PUSH2 0x319 JUMP JUMPDEST POP SWAP1 POP JUMPDEST SWAP3 SWAP2 POP POP JUMP JUMPDEST PUSH1 0x60 PUSH1 0x0 PUSH2 0x42A PUSH1 0x0 PUSH2 0x8F8 JUMP JUMPDEST SWAP1 POP PUSH1 0x0 DUP2 PUSH8 0xFFFFFFFFFFFFFFFF DUP2 GT ISZERO PUSH2 0x447 JUMPI PUSH2 0x447 PUSH2 0x1041 JUMP JUMPDEST PUSH1 0x40 MLOAD SWAP1 DUP1 DUP3 MSTORE DUP1 PUSH1 0x20 MUL PUSH1 0x20 ADD DUP3 ADD PUSH1 0x40 MSTORE DUP1 ISZERO PUSH2 0x4AC JUMPI DUP2 PUSH1 0x20 ADD JUMPDEST PUSH2 0x499 PUSH1 0x40 MLOAD DUP1 PUSH1 0x80 ADD PUSH1 0x40 MSTORE DUP1 PUSH1 0x0 PUSH1 0x1 PUSH1 0x1 PUSH1 0xA0 SHL SUB AND DUP2 MSTORE PUSH1 0x20 ADD PUSH1 0x0 DUP2 MSTORE PUSH1 0x20 ADD PUSH1 0x0 DUP2 MSTORE PUSH1 0x20 ADD PUSH1 0x0 DUP2 MSTORE POP SWAP1 JUMP JUMPDEST DUP2 MSTORE PUSH1 0x20 ADD SWAP1 PUSH1 0x1 SWAP1 SUB SWAP1 DUP2 PUSH2 0x465 JUMPI SWAP1 POP JUMPDEST POP SWAP1 POP PUSH1 0x0 DUP1 JUMPDEST DUP4 DUP2 LT ISZERO PUSH2 0x5EB JUMPI PUSH1 0x0 PUSH1 0x2 DUP2 PUSH2 0x4CA DUP2 DUP6 PUSH2 0x902 JUMP JUMPDEST PUSH1 0x1 PUSH1 0x1 PUSH1 0xA0 SHL SUB SWAP1 DUP2 AND DUP3 MSTORE PUSH1 0x20 DUP1 DUP4 ADD SWAP4 SWAP1 SWAP4 MSTORE PUSH1 0x40 SWAP2 DUP3 ADD PUSH1 0x0 KECCAK256 DUP3 MLOAD PUSH1 0x60 DUP2 ADD DUP5 MSTORE DUP2 SLOAD SWAP1 SWAP3 AND DUP1 DUP4 MSTORE PUSH1 0x1 DUP3 ADD SLOAD SWAP5 DUP4 ADD SWAP5 SWAP1 SWAP5 MSTORE PUSH1 0x2 ADD SLOAD SWAP2 DUP2 ADD SWAP2 SWAP1 SWAP2 MSTORE DUP6 MLOAD SWAP1 SWAP3 POP DUP6 SWAP1 DUP5 SWAP1 DUP2 LT PUSH2 0x526 JUMPI PUSH2 0x526 PUSH2 0x11A9 JUMP JUMPDEST PUSH1 0x20 MUL PUSH1 0x20 ADD ADD MLOAD PUSH1 0x0 ADD SWAP1 PUSH1 0x1 PUSH1 0x1 PUSH1 0xA0 SHL SUB AND SWAP1 DUP2 PUSH1 0x1 PUSH1 0x1 PUSH1 0xA0 SHL SUB AND DUP2 MSTORE POP POP DUP1 PUSH1 0x20 ADD MLOAD DUP5 DUP4 DUP2 MLOAD DUP2 LT PUSH2 0x561 JUMPI PUSH2 0x561 PUSH2 0x11A9 JUMP JUMPDEST PUSH1 0x20 MUL PUSH1 0x20 ADD ADD MLOAD PUSH1 0x40 ADD DUP2 DUP2 MSTORE POP POP DUP1 PUSH1 0x40 ADD MLOAD DUP5 DUP4 DUP2 MLOAD DUP2 LT PUSH2 0x588 JUMPI PUSH2 0x588 PUSH2 0x11A9 JUMP JUMPDEST PUSH1 0x20 MUL PUSH1 0x20 ADD ADD MLOAD PUSH1 0x60 ADD DUP2 DUP2 MSTORE POP POP PUSH1 0x0 PUSH2 0x5A7 DUP3 PUSH1 0x0 ADD MLOAD PUSH2 0x7DD JUMP JUMPDEST SWAP1 POP DUP1 DUP6 DUP5 DUP2 MLOAD DUP2 LT PUSH2 0x5BC JUMPI PUSH2 0x5BC PUSH2 0x11A9 JUMP JUMPDEST PUSH1 0x20 SWAP1 DUP2 MUL SWAP2 SWAP1 SWAP2 ADD DUP2 ADD MLOAD ADD MSTORE PUSH2 0x5D4 DUP2 DUP6 PUSH2 0x133F JUMP JUMPDEST SWAP4 POP POP POP DUP1 DUP1 PUSH2 0x5E3 SWAP1 PUSH2 0x11D5 JUMP JUMPDEST SWAP2 POP POP PUSH2 0x4B3 JUMP JUMPDEST POP PUSH1 0x0 JUMPDEST DUP4 DUP2 LT ISZERO PUSH2 0x659 JUMPI PUSH2 0x627 DUP3 DUP5 DUP4 DUP2 MLOAD DUP2 LT PUSH2 0x60D JUMPI PUSH2 0x60D PUSH2 0x11A9 JUMP JUMPDEST PUSH1 0x20 MUL PUSH1 0x20 ADD ADD MLOAD PUSH1 0x20 ADD MLOAD PUSH2 0xB3E SWAP1 SWAP2 SWAP1 PUSH4 0xFFFFFFFF AND JUMP JUMPDEST DUP4 DUP3 DUP2 MLOAD DUP2 LT PUSH2 0x639 JUMPI PUSH2 0x639 PUSH2 0x11A9 JUMP JUMPDEST PUSH1 0x20 SWAP1 DUP2 MUL SWAP2 SWAP1 SWAP2 ADD DUP2 ADD MLOAD ADD MSTORE DUP1 PUSH2 0x651 DUP2 PUSH2 0x11D5 JUMP JUMPDEST SWAP2 POP POP PUSH2 0x5EF JUMP JUMPDEST POP SWAP1 SWAP4 SWAP3 POP POP POP JUMP JUMPDEST PUSH1 0x60 PUSH2 0x673 DUP4 DUP4 PUSH2 0x182 PUSH1 0x0 PUSH2 0xB72 JUMP JUMPDEST SWAP4 SWAP3 POP POP POP JUMP JUMPDEST PUSH1 0x60 PUSH1 0x0 DUP3 MLOAD PUSH8 0xFFFFFFFFFFFFFFFF DUP2 GT ISZERO PUSH2 0x698 JUMPI PUSH2 0x698 PUSH2 0x1041 JUMP JUMPDEST PUSH1 0x40 MLOAD SWAP1 DUP1 DUP3 MSTORE DUP1 PUSH1 0x20 MUL PUSH1 0x20 ADD DUP3 ADD PUSH1 0x40 MSTORE DUP1 ISZERO PUSH2 0x6DD JUMPI DUP2 PUSH1 0x20 ADD JUMPDEST PUSH1 0x40 DUP1 MLOAD DUP1 DUP3 ADD SWAP1 SWAP2 MSTORE PUSH1 0x0 DUP1 DUP3 MSTORE PUSH1 0x20 DUP3 ADD MSTORE DUP2 MSTORE PUSH1 0x20 ADD SWAP1 PUSH1 0x1 SWAP1 SUB SWAP1 DUP2 PUSH2 0x6B6 JUMPI SWAP1 POP JUMPDEST POP SWAP1 POP PUSH1 0x0 JUMPDEST DUP4 MLOAD DUP2 LT ISZERO PUSH2 0x7D4 JUMPI PUSH1 0x0 DUP5 DUP3 DUP2 MLOAD DUP2 LT PUSH2 0x700 JUMPI PUSH2 0x700 PUSH2 0x11A9 JUMP JUMPDEST PUSH1 0x20 SWAP1 DUP2 MUL SWAP2 SWAP1 SWAP2 ADD ADD MLOAD PUSH1 0x40 MLOAD PUSH4 0xDE1EC403 PUSH1 0xE0 SHL DUP2 MSTORE PUSH1 0x1 PUSH1 0x1 PUSH1 0xA0 SHL SUB DUP10 DUP2 AND PUSH1 0x4 DUP4 ADD MSTORE PUSH1 0x24 DUP3 ADD DUP10 SWAP1 MSTORE SWAP2 SWAP3 POP PUSH1 0x0 SWAP2 DUP4 AND SWAP1 PUSH4 0xDE1EC403 SWAP1 PUSH1 0x44 ADD PUSH1 0x20 PUSH1 0x40 MLOAD DUP1 DUP4 SUB DUP2 DUP7 GAS STATICCALL ISZERO DUP1 ISZERO PUSH2 0x75E JUMPI RETURNDATASIZE PUSH1 0x0 DUP1 RETURNDATACOPY RETURNDATASIZE PUSH1 0x0 REVERT JUMPDEST POP POP POP POP PUSH1 0x40 MLOAD RETURNDATASIZE PUSH1 0x1F NOT PUSH1 0x1F DUP3 ADD AND DUP3 ADD DUP1 PUSH1 0x40 MSTORE POP DUP2 ADD SWAP1 PUSH2 0x782 SWAP2 SWAP1 PUSH2 0x1326 JUMP JUMPDEST SWAP1 POP PUSH1 0x40 MLOAD DUP1 PUSH1 0x40 ADD PUSH1 0x40 MSTORE DUP1 DUP4 PUSH1 0x1 PUSH1 0x1 PUSH1 0xA0 SHL SUB AND DUP2 MSTORE PUSH1 0x20 ADD DUP3 DUP2 MSTORE POP DUP5 DUP5 DUP2 MLOAD DUP2 LT PUSH2 0x7B4 JUMPI PUSH2 0x7B4 PUSH2 0x11A9 JUMP JUMPDEST PUSH1 0x20 MUL PUSH1 0x20 ADD ADD DUP2 SWAP1 MSTORE POP POP POP DUP1 DUP1 PUSH2 0x7CC SWAP1 PUSH2 0x11D5 JUMP JUMPDEST SWAP2 POP POP PUSH2 0x6E3 JUMP JUMPDEST POP SWAP5 SWAP4 POP POP POP POP JUMP JUMPDEST PUSH1 0x1 PUSH1 0x1 PUSH1 0xA0 SHL SUB DUP2 DUP2 AND PUSH1 0x0 SWAP1 DUP2 MSTORE PUSH1 0x2 PUSH1 0x20 DUP2 DUP2 MSTORE PUSH1 0x40 DUP1 DUP5 KECCAK256 DUP2 MLOAD PUSH1 0x60 DUP2 ADD DUP4 MSTORE DUP2 SLOAD SWAP1 SWAP7 AND DUP7 MSTORE PUSH1 0x1 DUP2 ADD SLOAD SWAP3 DUP7 ADD SWAP3 SWAP1 SWAP3 MSTORE SWAP2 ADD SLOAD SWAP1 DUP4 ADD MSTORE PUSH1 0x4 SLOAD SWAP1 SWAP2 SWAP1 TIMESTAMP GT ISZERO PUSH2 0x832 JUMPI PUSH1 0x40 ADD MLOAD SWAP3 SWAP2 POP POP JUMP JUMPDEST PUSH1 0x3 SLOAD TIMESTAMP LT ISZERO PUSH2 0x846 JUMPI PUSH1 0x20 ADD MLOAD SWAP3 SWAP2 POP POP JUMP JUMPDEST PUSH1 0x0 PUSH2 0x86E PUSH1 0x3 SLOAD PUSH1 0x4 SLOAD PUSH2 0x85B SWAP2 SWAP1 PUSH2 0x1352 JUMP JUMPDEST PUSH1 0x3 SLOAD PUSH2 0x868 SWAP1 TIMESTAMP PUSH2 0x1352 JUMP JUMPDEST SWAP1 PUSH2 0xB3E JUMP JUMPDEST SWAP1 POP PUSH1 0x0 DUP3 PUSH1 0x20 ADD MLOAD DUP4 PUSH1 0x40 ADD MLOAD GT ISZERO PUSH2 0x8BB JUMPI PUSH1 0x0 DUP4 PUSH1 0x20 ADD MLOAD DUP5 PUSH1 0x40 ADD MLOAD PUSH2 0x898 SWAP2 SWAP1 PUSH2 0x1352 JUMP JUMPDEST SWAP1 POP PUSH2 0x8A4 DUP2 DUP5 PUSH2 0xB5D JUMP JUMPDEST DUP5 PUSH1 0x20 ADD MLOAD PUSH2 0x8B3 SWAP2 SWAP1 PUSH2 0x133F JUMP JUMPDEST SWAP2 POP POP PUSH2 0x8F0 JUMP JUMPDEST PUSH1 0x0 DUP4 PUSH1 0x40 ADD MLOAD DUP5 PUSH1 0x20 ADD MLOAD PUSH2 0x8D1 SWAP2 SWAP1 PUSH2 0x1352 JUMP JUMPDEST SWAP1 POP PUSH2 0x8DD DUP2 DUP5 PUSH2 0xB5D JUMP JUMPDEST DUP5 PUSH1 0x20 ADD MLOAD PUSH2 0x8EC SWAP2 SWAP1 PUSH2 0x1352 JUMP JUMPDEST SWAP2 POP POP JUMPDEST SWAP5 SWAP4 POP POP POP POP JUMP JUMPDEST PUSH1 0x0 PUSH2 0x416 DUP3 SLOAD SWAP1 JUMP JUMPDEST PUSH1 0x0 PUSH2 0x673 DUP4 DUP4 PUSH2 0xB7F JUMP JUMPDEST PUSH1 0x0 PUSH2 0x673 DUP4 PUSH1 0x1 PUSH1 0x1 PUSH1 0xA0 SHL SUB DUP5 AND PUSH2 0xBA9 JUMP JUMPDEST PUSH1 0x0 PUSH2 0x673 DUP4 PUSH1 0x1 PUSH1 0x1 PUSH1 0xA0 SHL SUB DUP5 AND PUSH2 0xC9C JUMP JUMPDEST PUSH2 0x965 PUSH1 0x40 MLOAD DUP1 PUSH1 0x60 ADD PUSH1 0x40 MSTORE DUP1 PUSH1 0x0 PUSH1 0x1 PUSH1 0x1 PUSH1 0xA0 SHL SUB AND DUP2 MSTORE PUSH1 0x20 ADD PUSH1 0x0 DUP2 MSTORE PUSH1 0x20 ADD PUSH1 0x0 DUP2 MSTORE POP SWAP1 JUMP JUMPDEST PUSH1 0x40 MLOAD DUP1 PUSH1 0x60 ADD PUSH1 0x40 MSTORE DUP1 DUP4 PUSH1 0x1 PUSH1 0x1 PUSH1 0xA0 SHL SUB AND DUP2 MSTORE PUSH1 0x20 ADD PUSH2 0x988 DUP5 PUSH2 0x7DD JUMP JUMPDEST DUP2 MSTORE PUSH1 0x20 ADD DUP4 PUSH1 0x1 PUSH1 0x1 PUSH1 0xA0 SHL SUB AND PUSH4 0x344FF1D0 PUSH1 0x40 MLOAD DUP2 PUSH4 0xFFFFFFFF AND PUSH1 0xE0 SHL DUP2 MSTORE PUSH1 0x4 ADD PUSH1 0x20 PUSH1 0x40 MLOAD DUP1 DUP4 SUB DUP2 DUP7 GAS STATICCALL ISZERO DUP1 ISZERO PUSH2 0x9CB JUMPI RETURNDATASIZE PUSH1 0x0 DUP1 RETURNDATACOPY RETURNDATASIZE PUSH1 0x0 REVERT JUMPDEST POP POP POP POP PUSH1 0x40 MLOAD RETURNDATASIZE PUSH1 0x1F NOT PUSH1 0x1F DUP3 ADD AND DUP3 ADD DUP1 PUSH1 0x40 MSTORE POP DUP2 ADD SWAP1 PUSH2 0x9EF SWAP2 SWAP1 PUSH2 0x1326 JUMP JUMPDEST SWAP1 MSTORE SWAP3 SWAP2 POP POP JUMP JUMPDEST DUP1 PUSH1 0x20 ADD MLOAD DUP2 PUSH1 0x40 ADD MLOAD GT PUSH2 0xA58 JUMPI PUSH1 0x40 MLOAD PUSH3 0x461BCD PUSH1 0xE5 SHL DUP2 MSTORE PUSH1 0x20 PUSH1 0x4 DUP3 ADD MSTORE PUSH1 0x21 PUSH1 0x24 DUP3 ADD MSTORE PUSH32 0x7363686564756C65206D75737420656E6420616674657220697420626567696E PUSH1 0x44 DUP3 ADD MSTORE PUSH1 0x73 PUSH1 0xF8 SHL PUSH1 0x64 DUP3 ADD MSTORE PUSH1 0x84 ADD PUSH2 0x2F6 JUMP JUMPDEST PUSH1 0x20 DUP2 ADD MLOAD PUSH1 0x3 SSTORE PUSH1 0x40 DUP2 ADD MLOAD PUSH1 0x4 SSTORE PUSH2 0xA70 PUSH2 0xCEB JUMP JUMPDEST PUSH1 0x0 DUP1 PUSH1 0x0 JUMPDEST DUP4 MLOAD MLOAD DUP2 LT ISZERO PUSH2 0xAE2 JUMPI PUSH1 0x0 DUP5 PUSH1 0x0 ADD MLOAD DUP3 DUP2 MLOAD DUP2 LT PUSH2 0xA98 JUMPI PUSH2 0xA98 PUSH2 0x11A9 JUMP JUMPDEST PUSH1 0x20 MUL PUSH1 0x20 ADD ADD MLOAD SWAP1 POP PUSH2 0xAAB DUP2 PUSH2 0xD64 JUMP JUMPDEST PUSH1 0x20 DUP2 ADD MLOAD PUSH2 0xABA SWAP1 DUP6 PUSH2 0x133F JUMP JUMPDEST SWAP4 POP DUP1 PUSH1 0x40 ADD MLOAD DUP4 PUSH2 0xACC SWAP2 SWAP1 PUSH2 0x133F JUMP JUMPDEST SWAP3 POP POP DUP1 DUP1 PUSH2 0xADA SWAP1 PUSH2 0x11D5 JUMP JUMPDEST SWAP2 POP POP PUSH2 0xA76 JUMP JUMPDEST POP PUSH8 0xDE0B6B3A7640000 DUP3 EQ PUSH2 0xB0E JUMPI PUSH1 0x40 MLOAD PUSH4 0x5943317F PUSH1 0xE0 SHL DUP2 MSTORE PUSH1 0x4 DUP2 ADD DUP4 SWAP1 MSTORE PUSH1 0x24 ADD PUSH2 0x2F6 JUMP JUMPDEST PUSH8 0xDE0B6B3A7640000 DUP2 EQ PUSH2 0xB39 JUMPI PUSH1 0x40 MLOAD PUSH4 0x5943317F PUSH1 0xE0 SHL DUP2 MSTORE PUSH1 0x4 DUP2 ADD DUP3 SWAP1 MSTORE PUSH1 0x24 ADD PUSH2 0x2F6 JUMP JUMPDEST POP POP POP JUMP JUMPDEST PUSH1 0x0 DUP2 PUSH2 0xB53 PUSH8 0xDE0B6B3A7640000 DUP6 PUSH2 0x1365 JUMP JUMPDEST PUSH2 0x673 SWAP2 SWAP1 PUSH2 0x137C JUMP JUMPDEST PUSH1 0x0 PUSH8 0xDE0B6B3A7640000 PUSH2 0xB53 DUP4 DUP6 PUSH2 0x1365 JUMP JUMPDEST PUSH1 0x60 PUSH1 0x0 PUSH2 0x673 DUP4 PUSH2 0xDE2 JUMP JUMPDEST PUSH1 0x0 DUP3 PUSH1 0x0 ADD DUP3 DUP2 SLOAD DUP2 LT PUSH2 0xB96 JUMPI PUSH2 0xB96 PUSH2 0x11A9 JUMP JUMPDEST SWAP1 PUSH1 0x0 MSTORE PUSH1 0x20 PUSH1 0x0 KECCAK256 ADD SLOAD SWAP1 POP SWAP3 SWAP2 POP POP JUMP JUMPDEST PUSH1 0x0 DUP2 DUP2 MSTORE PUSH1 0x1 DUP4 ADD PUSH1 0x20 MSTORE PUSH1 0x40 DUP2 KECCAK256 SLOAD DUP1 ISZERO PUSH2 0xC92 JUMPI PUSH1 0x0 PUSH2 0xBCD PUSH1 0x1 DUP4 PUSH2 0x1352 JUMP JUMPDEST DUP6 SLOAD SWAP1 SWAP2 POP PUSH1 0x0 SWAP1 PUSH2 0xBE1 SWAP1 PUSH1 0x1 SWAP1 PUSH2 0x1352 JUMP JUMPDEST SWAP1 POP DUP2 DUP2 EQ PUSH2 0xC46 JUMPI PUSH1 0x0 DUP7 PUSH1 0x0 ADD DUP3 DUP2 SLOAD DUP2 LT PUSH2 0xC01 JUMPI PUSH2 0xC01 PUSH2 0x11A9 JUMP JUMPDEST SWAP1 PUSH1 0x0 MSTORE PUSH1 0x20 PUSH1 0x0 KECCAK256 ADD SLOAD SWAP1 POP DUP1 DUP8 PUSH1 0x0 ADD DUP5 DUP2 SLOAD DUP2 LT PUSH2 0xC24 JUMPI PUSH2 0xC24 PUSH2 0x11A9 JUMP JUMPDEST PUSH1 0x0 SWAP2 DUP3 MSTORE PUSH1 0x20 DUP1 DUP4 KECCAK256 SWAP1 SWAP2 ADD SWAP3 SWAP1 SWAP3 SSTORE SWAP2 DUP3 MSTORE PUSH1 0x1 DUP9 ADD SWAP1 MSTORE PUSH1 0x40 SWAP1 KECCAK256 DUP4 SWAP1 SSTORE JUMPDEST DUP6 SLOAD DUP7 SWAP1 DUP1 PUSH2 0xC57 JUMPI PUSH2 0xC57 PUSH2 0x139E JUMP JUMPDEST PUSH1 0x1 SWAP1 SUB DUP2 DUP2 SWAP1 PUSH1 0x0 MSTORE PUSH1 0x20 PUSH1 0x0 KECCAK256 ADD PUSH1 0x0 SWAP1 SSTORE SWAP1 SSTORE DUP6 PUSH1 0x1 ADD PUSH1 0x0 DUP7 DUP2 MSTORE PUSH1 0x20 ADD SWAP1 DUP2 MSTORE PUSH1 0x20 ADD PUSH1 0x0 KECCAK256 PUSH1 0x0 SWAP1 SSTORE PUSH1 0x1 SWAP4 POP POP POP POP PUSH2 0x416 JUMP JUMPDEST PUSH1 0x0 SWAP2 POP POP PUSH2 0x416 JUMP JUMPDEST PUSH1 0x0 DUP2 DUP2 MSTORE PUSH1 0x1 DUP4 ADD PUSH1 0x20 MSTORE PUSH1 0x40 DUP2 KECCAK256 SLOAD PUSH2 0xCE3 JUMPI POP DUP2 SLOAD PUSH1 0x1 DUP2 DUP2 ADD DUP5 SSTORE PUSH1 0x0 DUP5 DUP2 MSTORE PUSH1 0x20 DUP1 DUP3 KECCAK256 SWAP1 SWAP4 ADD DUP5 SWAP1 SSTORE DUP5 SLOAD DUP5 DUP3 MSTORE DUP3 DUP7 ADD SWAP1 SWAP4 MSTORE PUSH1 0x40 SWAP1 KECCAK256 SWAP2 SWAP1 SWAP2 SSTORE PUSH2 0x416 JUMP JUMPDEST POP PUSH1 0x0 PUSH2 0x416 JUMP JUMPDEST PUSH1 0x0 PUSH2 0xCF7 PUSH1 0x0 PUSH2 0x8F8 JUMP JUMPDEST SWAP1 POP PUSH1 0x0 JUMPDEST DUP2 DUP2 LT ISZERO PUSH2 0xD60 JUMPI PUSH1 0x0 PUSH2 0xD10 DUP2 DUP1 PUSH2 0x902 JUMP JUMPDEST SWAP1 POP PUSH2 0xD1D PUSH1 0x0 DUP3 PUSH2 0x90E JUMP JUMPDEST POP PUSH1 0x1 PUSH1 0x1 PUSH1 0xA0 SHL SUB AND PUSH1 0x0 SWAP1 DUP2 MSTORE PUSH1 0x2 PUSH1 0x20 DUP2 SWAP1 MSTORE PUSH1 0x40 DUP3 KECCAK256 DUP1 SLOAD PUSH1 0x1 PUSH1 0x1 PUSH1 0xA0 SHL SUB NOT AND DUP2 SSTORE PUSH1 0x1 DUP2 ADD DUP4 SWAP1 SSTORE ADD SSTORE DUP1 PUSH2 0xD58 DUP2 PUSH2 0x11D5 JUMP JUMPDEST SWAP2 POP POP PUSH2 0xCFC JUMP JUMPDEST POP POP JUMP JUMPDEST DUP1 MLOAD PUSH2 0xD72 SWAP1 PUSH1 0x0 SWAP1 PUSH2 0x923 JUMP JUMPDEST PUSH2 0xD9D JUMPI DUP1 MLOAD PUSH1 0x40 MLOAD PUSH4 0x74F3271B PUSH1 0xE0 SHL DUP2 MSTORE PUSH1 0x1 PUSH1 0x1 PUSH1 0xA0 SHL SUB SWAP1 SWAP2 AND PUSH1 0x4 DUP3 ADD MSTORE PUSH1 0x24 ADD PUSH2 0x2F6 JUMP JUMPDEST DUP1 MLOAD PUSH1 0x1 PUSH1 0x1 PUSH1 0xA0 SHL SUB SWAP1 DUP2 AND PUSH1 0x0 SWAP1 DUP2 MSTORE PUSH1 0x2 PUSH1 0x20 DUP2 DUP2 MSTORE PUSH1 0x40 SWAP3 DUP4 SWAP1 KECCAK256 DUP6 MLOAD DUP2 SLOAD PUSH1 0x1 PUSH1 0x1 PUSH1 0xA0 SHL SUB NOT AND SWAP6 AND SWAP5 SWAP1 SWAP5 OR DUP5 SSTORE DUP5 ADD MLOAD PUSH1 0x1 DUP5 ADD SSTORE SWAP3 ADD MLOAD SWAP2 ADD SSTORE JUMP JUMPDEST PUSH1 0x60 DUP2 PUSH1 0x0 ADD DUP1 SLOAD DUP1 PUSH1 0x20 MUL PUSH1 0x20 ADD PUSH1 0x40 MLOAD SWAP1 DUP2 ADD PUSH1 0x40 MSTORE DUP1 SWAP3 SWAP2 SWAP1 DUP2 DUP2 MSTORE PUSH1 0x20 ADD DUP3 DUP1 SLOAD DUP1 ISZERO PUSH2 0xE32 JUMPI PUSH1 0x20 MUL DUP3 ADD SWAP2 SWAP1 PUSH1 0x0 MSTORE PUSH1 0x20 PUSH1 0x0 KECCAK256 SWAP1 JUMPDEST DUP2 SLOAD DUP2 MSTORE PUSH1 0x20 ADD SWAP1 PUSH1 0x1 ADD SWAP1 DUP1 DUP4 GT PUSH2 0xE1E JUMPI JUMPDEST POP POP POP POP POP SWAP1 POP SWAP2 SWAP1 POP JUMP JUMPDEST PUSH1 0x20 DUP1 DUP3 MSTORE DUP3 MLOAD DUP3 DUP3 ADD DUP2 SWAP1 MSTORE PUSH1 0x0 SWAP2 SWAP1 PUSH1 0x40 SWAP1 DUP2 DUP6 ADD SWAP1 DUP7 DUP5 ADD DUP6 JUMPDEST DUP3 DUP2 LT ISZERO PUSH2 0xE93 JUMPI DUP2 MLOAD DUP1 MLOAD PUSH1 0x1 PUSH1 0x1 PUSH1 0xA0 SHL SUB AND DUP6 MSTORE DUP7 DUP2 ADD MLOAD DUP8 DUP7 ADD MSTORE DUP6 ADD MLOAD DUP6 DUP6 ADD MSTORE PUSH1 0x60 SWAP1 SWAP4 ADD SWAP3 SWAP1 DUP6 ADD SWAP1 PUSH1 0x1 ADD PUSH2 0xE5B JUMP JUMPDEST POP SWAP2 SWAP8 SWAP7 POP POP POP POP POP POP POP JUMP JUMPDEST PUSH1 0x0 PUSH1 0x20 DUP3 DUP5 SUB SLT ISZERO PUSH2 0xEB2 JUMPI PUSH1 0x0 DUP1 REVERT JUMPDEST DUP2 CALLDATALOAD PUSH8 0xFFFFFFFFFFFFFFFF DUP2 GT ISZERO PUSH2 0xEC9 JUMPI PUSH1 0x0 DUP1 REVERT JUMPDEST DUP3 ADD PUSH1 0x60 DUP2 DUP6 SUB SLT ISZERO PUSH2 0x673 JUMPI PUSH1 0x0 DUP1 REVERT JUMPDEST PUSH1 0x0 DUP1 PUSH1 0x20 DUP4 DUP6 SUB SLT ISZERO PUSH2 0xEEE JUMPI PUSH1 0x0 DUP1 REVERT JUMPDEST DUP3 CALLDATALOAD PUSH8 0xFFFFFFFFFFFFFFFF DUP1 DUP3 GT ISZERO PUSH2 0xF06 JUMPI PUSH1 0x0 DUP1 REVERT JUMPDEST DUP2 DUP6 ADD SWAP2 POP DUP6 PUSH1 0x1F DUP4 ADD SLT PUSH2 0xF1A JUMPI PUSH1 0x0 DUP1 REVERT JUMPDEST DUP2 CALLDATALOAD DUP2 DUP2 GT ISZERO PUSH2 0xF29 JUMPI PUSH1 0x0 DUP1 REVERT JUMPDEST DUP7 PUSH1 0x20 DUP3 PUSH1 0x6 SHL DUP6 ADD ADD GT ISZERO PUSH2 0xF3E JUMPI PUSH1 0x0 DUP1 REVERT JUMPDEST PUSH1 0x20 SWAP3 SWAP1 SWAP3 ADD SWAP7 SWAP2 SWAP6 POP SWAP1 SWAP4 POP POP POP POP JUMP JUMPDEST PUSH1 0x20 DUP1 DUP3 MSTORE DUP3 MLOAD DUP3 DUP3 ADD DUP2 SWAP1 MSTORE PUSH1 0x0 SWAP2 SWAP1 PUSH1 0x40 SWAP1 DUP2 DUP6 ADD SWAP1 DUP7 DUP5 ADD DUP6 JUMPDEST DUP3 DUP2 LT ISZERO PUSH2 0xE93 JUMPI DUP2 MLOAD DUP1 MLOAD PUSH1 0x1 PUSH1 0x1 PUSH1 0xA0 SHL SUB AND DUP6 MSTORE DUP7 DUP2 ADD MLOAD DUP8 DUP7 ADD MSTORE DUP6 DUP2 ADD MLOAD DUP7 DUP7 ADD MSTORE PUSH1 0x60 SWAP1 DUP2 ADD MLOAD SWAP1 DUP6 ADD MSTORE PUSH1 0x80 SWAP1 SWAP4 ADD SWAP3 SWAP1 DUP6 ADD SWAP1 PUSH1 0x1 ADD PUSH2 0xF6D JUMP JUMPDEST DUP1 CALLDATALOAD PUSH1 0x1 PUSH1 0x1 PUSH1 0xA0 SHL SUB DUP2 AND DUP2 EQ PUSH2 0xFC7 JUMPI PUSH1 0x0 DUP1 REVERT JUMPDEST SWAP2 SWAP1 POP JUMP JUMPDEST PUSH1 0x0 DUP1 PUSH1 0x40 DUP4 DUP6 SUB SLT ISZERO PUSH2 0xFDF JUMPI PUSH1 0x0 DUP1 REVERT JUMPDEST PUSH2 0xFE8 DUP4 PUSH2 0xFB0 JUMP JUMPDEST SWAP5 PUSH1 0x20 SWAP4 SWAP1 SWAP4 ADD CALLDATALOAD SWAP4 POP POP POP JUMP JUMPDEST PUSH1 0x20 DUP1 DUP3 MSTORE DUP3 MLOAD DUP3 DUP3 ADD DUP2 SWAP1 MSTORE PUSH1 0x0 SWAP2 SWAP1 PUSH1 0x40 SWAP1 DUP2 DUP6 ADD SWAP1 DUP7 DUP5 ADD DUP6 JUMPDEST DUP3 DUP2 LT ISZERO PUSH2 0xE93 JUMPI DUP2 MLOAD DUP1 MLOAD PUSH1 0x1 PUSH1 0x1 PUSH1 0xA0 SHL SUB AND DUP6 MSTORE DUP7 ADD MLOAD DUP7 DUP6 ADD MSTORE SWAP3 DUP5 ADD SWAP3 SWAP1 DUP6 ADD SWAP1 PUSH1 0x1 ADD PUSH2 0x1013 JUMP JUMPDEST PUSH4 0x4E487B71 PUSH1 0xE0 SHL PUSH1 0x0 MSTORE PUSH1 0x41 PUSH1 0x4 MSTORE PUSH1 0x24 PUSH1 0x0 REVERT JUMPDEST PUSH1 0x40 MLOAD PUSH1 0x60 DUP2 ADD PUSH8 0xFFFFFFFFFFFFFFFF DUP2 GT DUP3 DUP3 LT OR ISZERO PUSH2 0x107A JUMPI PUSH2 0x107A PUSH2 0x1041 JUMP JUMPDEST PUSH1 0x40 MSTORE SWAP1 JUMP JUMPDEST PUSH1 0x40 MLOAD PUSH1 0x1F DUP3 ADD PUSH1 0x1F NOT AND DUP2 ADD PUSH8 0xFFFFFFFFFFFFFFFF DUP2 GT DUP3 DUP3 LT OR ISZERO PUSH2 0x10A9 JUMPI PUSH2 0x10A9 PUSH2 0x1041 JUMP JUMPDEST PUSH1 0x40 MSTORE SWAP2 SWAP1 POP JUMP JUMPDEST PUSH1 0x0 PUSH8 0xFFFFFFFFFFFFFFFF DUP3 GT ISZERO PUSH2 0x10CB JUMPI PUSH2 0x10CB PUSH2 0x1041 JUMP JUMPDEST POP PUSH1 0x5 SHL PUSH1 0x20 ADD SWAP1 JUMP JUMPDEST PUSH1 0x0 DUP1 PUSH1 0x0 PUSH1 0x60 DUP5 DUP7 SUB SLT ISZERO PUSH2 0x10EA JUMPI PUSH1 0x0 DUP1 REVERT JUMPDEST PUSH2 0x10F3 DUP5 PUSH2 0xFB0 JUMP JUMPDEST SWAP3 POP PUSH1 0x20 DUP1 DUP6 ADD CALLDATALOAD SWAP3 POP PUSH1 0x40 DUP6 ADD CALLDATALOAD PUSH8 0xFFFFFFFFFFFFFFFF DUP2 GT ISZERO PUSH2 0x1117 JUMPI PUSH1 0x0 DUP1 REVERT JUMPDEST DUP6 ADD PUSH1 0x1F DUP2 ADD DUP8 SGT PUSH2 0x1128 JUMPI PUSH1 0x0 DUP1 REVERT JUMPDEST DUP1 CALLDATALOAD PUSH2 0x113B PUSH2 0x1136 DUP3 PUSH2 0x10B1 JUMP JUMPDEST PUSH2 0x1080 JUMP JUMPDEST DUP2 DUP2 MSTORE PUSH1 0x5 SWAP2 SWAP1 SWAP2 SHL DUP3 ADD DUP4 ADD SWAP1 DUP4 DUP2 ADD SWAP1 DUP10 DUP4 GT ISZERO PUSH2 0x115A JUMPI PUSH1 0x0 DUP1 REVERT JUMPDEST SWAP3 DUP5 ADD SWAP3 JUMPDEST DUP3 DUP5 LT ISZERO PUSH2 0x117F JUMPI PUSH2 0x1170 DUP5 PUSH2 0xFB0 JUMP JUMPDEST DUP3 MSTORE SWAP3 DUP5 ADD SWAP3 SWAP1 DUP5 ADD SWAP1 PUSH2 0x115F JUMP JUMPDEST DUP1 SWAP6 POP POP POP POP POP POP SWAP3 POP SWAP3 POP SWAP3 JUMP JUMPDEST PUSH1 0x0 PUSH1 0x20 DUP3 DUP5 SUB SLT ISZERO PUSH2 0x11A0 JUMPI PUSH1 0x0 DUP1 REVERT JUMPDEST PUSH2 0x673 DUP3 PUSH2 0xFB0 JUMP JUMPDEST PUSH4 0x4E487B71 PUSH1 0xE0 SHL PUSH1 0x0 MSTORE PUSH1 0x32 PUSH1 0x4 MSTORE PUSH1 0x24 PUSH1 0x0 REVERT JUMPDEST PUSH4 0x4E487B71 PUSH1 0xE0 SHL PUSH1 0x0 MSTORE PUSH1 0x11 PUSH1 0x4 MSTORE PUSH1 0x24 PUSH1 0x0 REVERT JUMPDEST PUSH1 0x0 PUSH1 0x1 DUP3 ADD PUSH2 0x11E7 JUMPI PUSH2 0x11E7 PUSH2 0x11BF JUMP JUMPDEST POP PUSH1 0x1 ADD SWAP1 JUMP JUMPDEST PUSH1 0x0 PUSH1 0x60 DUP1 DUP4 CALLDATASIZE SUB SLT ISZERO PUSH2 0x1201 JUMPI PUSH1 0x0 DUP1 REVERT JUMPDEST PUSH2 0x1209 PUSH2 0x1057 JUMP JUMPDEST DUP4 CALLDATALOAD PUSH8 0xFFFFFFFFFFFFFFFF DUP2 GT ISZERO PUSH2 0x1220 JUMPI PUSH1 0x0 DUP1 REVERT JUMPDEST DUP5 ADD CALLDATASIZE PUSH1 0x1F DUP3 ADD SLT PUSH2 0x1231 JUMPI PUSH1 0x0 DUP1 REVERT JUMPDEST DUP1 CALLDATALOAD PUSH1 0x20 PUSH2 0x1241 PUSH2 0x1136 DUP4 PUSH2 0x10B1 JUMP JUMPDEST DUP3 DUP2 MSTORE SWAP2 DUP6 MUL DUP4 ADD DUP2 ADD SWAP2 DUP2 DUP2 ADD SWAP1 CALLDATASIZE DUP5 GT ISZERO PUSH2 0x125D JUMPI PUSH1 0x0 DUP1 REVERT JUMPDEST SWAP4 DUP3 ADD SWAP4 JUMPDEST DUP4 DUP6 LT ISZERO PUSH2 0x12AE JUMPI DUP7 DUP6 CALLDATASIZE SUB SLT ISZERO PUSH2 0x127A JUMPI PUSH1 0x0 DUP1 DUP2 REVERT JUMPDEST PUSH2 0x1282 PUSH2 0x1057 JUMP JUMPDEST PUSH2 0x128B DUP7 PUSH2 0xFB0 JUMP JUMPDEST DUP2 MSTORE DUP6 DUP5 ADD CALLDATALOAD DUP5 DUP3 ADD MSTORE PUSH1 0x40 DUP1 DUP8 ADD CALLDATALOAD SWAP1 DUP3 ADD MSTORE DUP3 MSTORE SWAP4 DUP7 ADD SWAP4 SWAP1 DUP3 ADD SWAP1 PUSH2 0x1262 JUMP JUMPDEST DUP6 MSTORE POP DUP7 DUP2 ADD CALLDATALOAD SWAP1 DUP5 ADD MSTORE POP POP PUSH1 0x40 SWAP4 DUP5 ADD CALLDATALOAD SWAP4 DUP2 ADD SWAP4 SWAP1 SWAP4 MSTORE POP SWAP1 SWAP2 SWAP1 POP JUMP JUMPDEST PUSH1 0x0 PUSH1 0x40 DUP3 DUP5 SUB SLT ISZERO PUSH2 0x12E1 JUMPI PUSH1 0x0 DUP1 REVERT JUMPDEST PUSH1 0x40 MLOAD PUSH1 0x40 DUP2 ADD DUP2 DUP2 LT PUSH8 0xFFFFFFFFFFFFFFFF DUP3 GT OR ISZERO PUSH2 0x1304 JUMPI PUSH2 0x1304 PUSH2 0x1041 JUMP JUMPDEST PUSH1 0x40 MSTORE PUSH2 0x1310 DUP4 PUSH2 0xFB0 JUMP JUMPDEST DUP2 MSTORE PUSH1 0x20 DUP4 ADD CALLDATALOAD PUSH1 0x20 DUP3 ADD MSTORE DUP1 SWAP2 POP POP SWAP3 SWAP2 POP POP JUMP JUMPDEST PUSH1 0x0 PUSH1 0x20 DUP3 DUP5 SUB SLT ISZERO PUSH2 0x1338 JUMPI PUSH1 0x0 DUP1 REVERT JUMPDEST POP MLOAD SWAP2 SWAP1 POP JUMP JUMPDEST DUP1 DUP3 ADD DUP1 DUP3 GT ISZERO PUSH2 0x416 JUMPI PUSH2 0x416 PUSH2 0x11BF JUMP JUMPDEST DUP2 DUP2 SUB DUP2 DUP2 GT ISZERO PUSH2 0x416 JUMPI PUSH2 0x416 PUSH2 0x11BF JUMP JUMPDEST DUP1 DUP3 MUL DUP2 ISZERO DUP3 DUP3 DIV DUP5 EQ OR PUSH2 0x416 JUMPI PUSH2 0x416 PUSH2 0x11BF JUMP JUMPDEST PUSH1 0x0 DUP3 PUSH2 0x1399 JUMPI PUSH4 0x4E487B71 PUSH1 0xE0 SHL PUSH1 0x0 MSTORE PUSH1 0x12 PUSH1 0x4 MSTORE PUSH1 0x24 PUSH1 0x0 REVERT JUMPDEST POP DIV SWAP1 JUMP JUMPDEST PUSH4 0x4E487B71 PUSH1 0xE0 SHL PUSH1 0x0 MSTORE PUSH1 0x31 PUSH1 0x4 MSTORE PUSH1 0x24 PUSH1 0x0 REVERT INVALID LOG2 PUSH5 0x6970667358 0x22 SLT KECCAK256 SWAP15 PUSH21 0xF9CB9B007AA1876E5CCF56C9D6E376304AD71415BC OR 0xC MULMOD SWAP2 PUSH15 0x1DF79BA864736F6C63430008110033 ","sha1":"da7d4584c64e6eade9944064c29ecec61e097289","source":"// SPDX-License-Identifier: Unlicensed\npragma solidity ^0.8.17;\n\nimport \"@openzeppelin/contracts/utils/structs/EnumerableSet.sol\";\n\nimport \"./access/ImmutableOwner.sol\";\n\nimport \"../libraries/Errors.sol\";\nimport \"../libraries/ScaledMath.sol\";\n\nimport \"../interfaces/IVotingPowerAggregator.sol\";\nimport \"../interfaces/IVault.sol\";\n\ncontract VotingPowerAggregator is IVotingPowerAggregator, ImmutableOwner {\n    using ScaledMath for uint256;\n    using EnumerableSet for EnumerableSet.AddressSet;\n\n    EnumerableSet.AddressSet internal _vaultAddresses;\n    mapping(address => DataTypes.VaultWeightConfiguration) internal _vaults;\n\n    uint256 public scheduleStartsAt;\n    uint256 public scheduleEndsAt;\n\n    constructor(\n        address _owner,\n        DataTypes.VaultWeightSchedule memory initialSchedule\n    ) ImmutableOwner(_owner) {\n        _setSchedule(initialSchedule);\n    }\n\n    function createVaultsSnapshot()\n        external\n        view\n        returns (DataTypes.VaultSnapshot[] memory snapshots)\n    {\n        uint256 len = _vaultAddresses.length();\n        snapshots = new DataTypes.VaultSnapshot[](len);\n        for (uint256 i = 0; i < len; i++) {\n            snapshots[i] = _makeVaultSnapshot(_vaultAddresses.at(i));\n        }\n    }\n\n    function _makeVaultSnapshot(\n        address vaultAddress\n    ) internal view returns (DataTypes.VaultSnapshot memory) {\n        return\n            DataTypes.VaultSnapshot({\n                vaultAddress: vaultAddress,\n                weight: getVaultWeight(vaultAddress),\n                totalVotingPower: IVault(vaultAddress).getTotalRawVotingPower()\n            });\n    }\n\n    function getVotingPower(\n        address account,\n        uint256 timestamp\n    ) external view returns (DataTypes.VaultVotingPower[] memory) {\n        return getVotingPower(account, timestamp, _vaultAddresses.values());\n    }\n\n    function getVotingPower(\n        address account,\n        uint256 timestamp,\n        address[] memory vaults\n    ) public view returns (DataTypes.VaultVotingPower[] memory) {\n        DataTypes.VaultVotingPower[]\n            memory userVotingPower = new DataTypes.VaultVotingPower[](\n                vaults.length\n            );\n        for (uint256 i; i < vaults.length; i++) {\n            IVault vault = IVault(vaults[i]);\n            uint256 userRawVotingPower = vault.getRawVotingPower(\n                account,\n                timestamp\n            );\n            userVotingPower[i] = DataTypes.VaultVotingPower({\n                vaultAddress: address(vault),\n                votingPower: userRawVotingPower\n            });\n        }\n\n        return userVotingPower;\n    }\n\n    function calculateWeightedPowerPct(\n        DataTypes.VaultVotingPower[] calldata vaultVotingPowers\n    ) external view returns (uint256) {\n        uint256 votingPowerPct;\n\n        for (uint256 i; i < vaultVotingPowers.length; i++) {\n            DataTypes.VaultVotingPower memory vaultVP = vaultVotingPowers[i];\n            uint256 vaultWeight = getVaultWeight(vaultVP.vaultAddress);\n            if (vaultWeight > 0) {\n                uint256 tvp = IVault(vaultVP.vaultAddress)\n                    .getTotalRawVotingPower();\n                votingPowerPct += vaultVP.votingPower.divDown(tvp).mulDown(\n                    vaultWeight\n                );\n            }\n        }\n\n        return votingPowerPct;\n    }\n\n    function listVaults()\n        external\n        view\n        returns (DataTypes.VaultWeight[] memory)\n    {\n        uint256 length = _vaultAddresses.length();\n        DataTypes.VaultWeight[] memory vaults = new DataTypes.VaultWeight[](\n            length\n        );\n        uint256 totalWeight;\n        for (uint256 i; i < length; i++) {\n            DataTypes.VaultWeightConfiguration memory conf = _vaults[\n                _vaultAddresses.at(i)\n            ];\n            vaults[i].vaultAddress = conf.vaultAddress;\n            vaults[i].initialWeight = conf.initialWeight;\n            vaults[i].targetWeight = conf.targetWeight;\n\n            uint256 vaultWeight = getVaultWeight(conf.vaultAddress);\n            vaults[i].currentWeight = vaultWeight;\n\n            totalWeight += vaultWeight;\n        }\n\n        // Normalize\n        for (uint256 i; i < length; i++) {\n            vaults[i].currentWeight = vaults[i].currentWeight.divDown(\n                totalWeight\n            );\n        }\n\n        return vaults;\n    }\n\n    function blockTimestamp() internal view virtual returns (uint256) {\n        return block.timestamp;\n    }\n\n    function getVaultWeight(address vault) public view returns (uint256) {\n        DataTypes.VaultWeightConfiguration memory vaultWeight = _vaults[vault];\n\n        if (blockTimestamp() > scheduleEndsAt) {\n            return vaultWeight.targetWeight;\n        }\n\n        if (blockTimestamp() < scheduleStartsAt) {\n            return vaultWeight.initialWeight;\n        }\n\n        uint256 scheduleElapsedPct = (blockTimestamp() - scheduleStartsAt)\n            .divDown(scheduleEndsAt - scheduleStartsAt);\n\n        uint256 currentWeight;\n        if (vaultWeight.targetWeight > vaultWeight.initialWeight) {\n            uint256 absWeightChange = vaultWeight.targetWeight -\n                vaultWeight.initialWeight;\n            currentWeight =\n                vaultWeight.initialWeight +\n                absWeightChange.mulDown(scheduleElapsedPct);\n        } else {\n            uint256 absWeightChange = vaultWeight.initialWeight -\n                vaultWeight.targetWeight;\n            currentWeight =\n                vaultWeight.initialWeight -\n                absWeightChange.mulDown(scheduleElapsedPct);\n        }\n        return currentWeight;\n    }\n\n    function setSchedule(\n        DataTypes.VaultWeightSchedule calldata schedule\n    ) external onlyOwner {\n        _setSchedule(schedule);\n    }\n\n    function _setSchedule(\n        DataTypes.VaultWeightSchedule memory schedule\n    ) internal {\n        require(\n            schedule.endsAt > schedule.startsAt,\n            \"schedule must end after it begins\"\n        );\n\n        scheduleStartsAt = schedule.startsAt;\n        scheduleEndsAt = schedule.endsAt;\n\n        _removeAllVaults();\n\n        uint256 totalInitialWeight;\n        uint256 totalTargetWeight;\n\n        for (uint256 i; i < schedule.vaults.length; i++) {\n            DataTypes.VaultWeightConfiguration memory vault = schedule.vaults[\n                i\n            ];\n            _addVault(vault);\n            totalInitialWeight += vault.initialWeight;\n            totalTargetWeight += vault.targetWeight;\n        }\n\n        if (totalInitialWeight != ScaledMath.ONE)\n            revert Errors.InvalidTotalWeight(totalInitialWeight);\n\n        if (totalTargetWeight != ScaledMath.ONE)\n            revert Errors.InvalidTotalWeight(totalTargetWeight);\n    }\n\n    function _addVault(\n        DataTypes.VaultWeightConfiguration memory vault\n    ) internal {\n        if (!_vaultAddresses.add(vault.vaultAddress))\n            revert Errors.DuplicatedVault(vault.vaultAddress);\n        _vaults[vault.vaultAddress] = vault;\n    }\n\n    function _removeAllVaults() internal {\n        uint256 length = _vaultAddresses.length();\n        for (uint256 i; i < length; i++) {\n            address vaultAddress = _vaultAddresses.at(0);\n            _vaultAddresses.remove(vaultAddress);\n            delete _vaults[vaultAddress];\n        }\n    }\n}\n","sourcePath":"contracts/VotingPowerAggregator.sol","type":"contract","deployment":{"address":"0xe982E462b094850F12AF94d21D470e21bE9D0E9C","chainid":"1337","blockHeight":8}}