{"abi":[{"inputs":[{"internalType":"address","name":"_governance","type":"address"},{"components":[{"internalType":"uint64","name":"quorum","type":"uint64"},{"internalType":"uint64","name":"proposalThreshold","type":"uint64"},{"internalType":"uint64","name":"voteThreshold","type":"uint64"},{"internalType":"uint32","name":"timeLockDuration","type":"uint32"},{"internalType":"uint32","name":"proposalLength","type":"uint32"},{"internalType":"uint8","name":"actionLevel","type":"uint8"}],"internalType":"struct DataTypes.Tier","name":"_tier","type":"tuple"}],"stateMutability":"nonpayable","type":"constructor","name":"constructor"},{"inputs":[{"internalType":"bytes","name":"","type":"bytes"}],"name":"getTier","outputs":[{"components":[{"internalType":"uint64","name":"quorum","type":"uint64"},{"internalType":"uint64","name":"proposalThreshold","type":"uint64"},{"internalType":"uint64","name":"voteThreshold","type":"uint64"},{"internalType":"uint32","name":"timeLockDuration","type":"uint32"},{"internalType":"uint32","name":"proposalLength","type":"uint32"},{"internalType":"uint8","name":"actionLevel","type":"uint8"}],"internalType":"struct DataTypes.Tier","name":"","type":"tuple"}],"stateMutability":"view","type":"function"},{"inputs":[],"name":"governance","outputs":[{"internalType":"address","name":"","type":"address"}],"stateMutability":"view","type":"function"},{"inputs":[],"name":"tier","outputs":[{"internalType":"uint64","name":"quorum","type":"uint64"},{"internalType":"uint64","name":"proposalThreshold","type":"uint64"},{"internalType":"uint64","name":"voteThreshold","type":"uint64"},{"internalType":"uint32","name":"timeLockDuration","type":"uint32"},{"internalType":"uint32","name":"proposalLength","type":"uint32"},{"internalType":"uint8","name":"actionLevel","type":"uint8"}],"stateMutability":"view","type":"function"}],"bytecode":"60a060405234801561001057600080fd5b5060405161051138038061051183398101604081905261002f91610136565b6001600160a01b03919091166080908152815160008054602085015160408601516060870151958701516001600160401b039586166001600160801b031990941693909317680100000000000000009286169290920291909117600160801b600160e01b031916600160801b949091169390930263ffffffff60c01b191692909217600160c01b63ffffffff94851602176001600160e01b0316600160e01b939092169290920217905560a001516001805460ff191660ff909216919091179055610217565b80516001600160401b038116811461010c57600080fd5b919050565b805163ffffffff8116811461010c57600080fd5b805160ff8116811461010c57600080fd5b60008082840360e081121561014a57600080fd5b83516001600160a01b038116811461016157600080fd5b925060c0601f198201121561017557600080fd5b5060405160c081016001600160401b03811182821017156101a657634e487b7160e01b600052604160045260246000fd5b6040526101b5602085016100f5565b81526101c3604085016100f5565b60208201526101d4606085016100f5565b60408201526101e560808501610111565b60608201526101f660a08501610111565b608082015261020760c08501610125565b60a0820152809150509250929050565b6080516102df61023260003960006101fd01526102df6000f3fe608060405234801561001057600080fd5b50600436106100415760003560e01c806316f4d02214610046578063321fe94c146100e05780635aa6e675146101f8575b600080fd5b6000546001546100919167ffffffffffffffff80821692600160401b8304821692600160801b81049092169163ffffffff600160c01b8204811692600160e01b909204169060ff1686565b6040805167ffffffffffffffff97881681529587166020870152939095169284019290925263ffffffff908116606084015216608082015260ff90911660a082015260c0015b60405180910390f35b61018d6100ee366004610237565b6040805160c081018252600080825260208201819052918101829052606081018290526080810182905260a0810191909152506040805160c08101825260005467ffffffffffffffff8082168352600160401b820481166020840152600160801b8204169282019290925263ffffffff600160c01b830481166060830152600160e01b909204909116608082015260015460ff1660a082015292915050565b6040516100d79190600060c08201905067ffffffffffffffff80845116835280602085015116602084015280604085015116604084015250606083015163ffffffff8082166060850152806080860151166080850152505060ff60a08401511660a083015292915050565b61021f7f000000000000000000000000000000000000000000000000000000000000000081565b6040516001600160a01b0390911681526020016100d7565b6000806020838503121561024a57600080fd5b823567ffffffffffffffff8082111561026257600080fd5b818501915085601f83011261027657600080fd5b81358181111561028557600080fd5b86602082850101111561029757600080fd5b6020929092019691955090935050505056fea264697066735822122072ba27d0ed570fc31560e3a3e2c09500c38de9a3bd367f5748a7d0a126ced8e464736f6c63430008110033","bytecodeSha1":"7ac2cea4df951678239c5ca52335377e6d9e8ff7","compiler":{"evm_version":"istanbul","optimizer":{"enabled":true,"runs":200},"version":"0.8.17+commit.8df45f5f"},"contractName":"StaticTierStrategy","language":"Solidity","natspec":{"kind":"dev","methods":{},"version":1},"opcodes":"PUSH1 0x80 PUSH1 0x40 MSTORE CALLVALUE DUP1 ISZERO PUSH2 0x10 JUMPI PUSH1 0x0 DUP1 REVERT JUMPDEST POP PUSH1 0x4 CALLDATASIZE LT PUSH2 0x41 JUMPI PUSH1 0x0 CALLDATALOAD PUSH1 0xE0 SHR DUP1 PUSH4 0x16F4D022 EQ PUSH2 0x46 JUMPI DUP1 PUSH4 0x321FE94C EQ PUSH2 0xE0 JUMPI DUP1 PUSH4 0x5AA6E675 EQ PUSH2 0x1F8 JUMPI JUMPDEST PUSH1 0x0 DUP1 REVERT JUMPDEST PUSH1 0x0 SLOAD PUSH1 0x1 SLOAD PUSH2 0x91 SWAP2 PUSH8 0xFFFFFFFFFFFFFFFF DUP1 DUP3 AND SWAP3 PUSH1 0x1 PUSH1 0x40 SHL DUP4 DIV DUP3 AND SWAP3 PUSH1 0x1 PUSH1 0x80 SHL DUP2 DIV SWAP1 SWAP3 AND SWAP2 PUSH4 0xFFFFFFFF PUSH1 0x1 PUSH1 0xC0 SHL DUP3 DIV DUP2 AND SWAP3 PUSH1 0x1 PUSH1 0xE0 SHL SWAP1 SWAP3 DIV AND SWAP1 PUSH1 0xFF AND DUP7 JUMP JUMPDEST PUSH1 0x40 DUP1 MLOAD PUSH8 0xFFFFFFFFFFFFFFFF SWAP8 DUP9 AND DUP2 MSTORE SWAP6 DUP8 AND PUSH1 0x20 DUP8 ADD MSTORE SWAP4 SWAP1 SWAP6 AND SWAP3 DUP5 ADD SWAP3 SWAP1 SWAP3 MSTORE PUSH4 0xFFFFFFFF SWAP1 DUP2 AND PUSH1 0x60 DUP5 ADD MSTORE AND PUSH1 0x80 DUP3 ADD MSTORE PUSH1 0xFF SWAP1 SWAP2 AND PUSH1 0xA0 DUP3 ADD MSTORE PUSH1 0xC0 ADD JUMPDEST PUSH1 0x40 MLOAD DUP1 SWAP2 SUB SWAP1 RETURN JUMPDEST PUSH2 0x18D PUSH2 0xEE CALLDATASIZE PUSH1 0x4 PUSH2 0x237 JUMP JUMPDEST PUSH1 0x40 DUP1 MLOAD PUSH1 0xC0 DUP2 ADD DUP3 MSTORE PUSH1 0x0 DUP1 DUP3 MSTORE PUSH1 0x20 DUP3 ADD DUP2 SWAP1 MSTORE SWAP2 DUP2 ADD DUP3 SWAP1 MSTORE PUSH1 0x60 DUP2 ADD DUP3 SWAP1 MSTORE PUSH1 0x80 DUP2 ADD DUP3 SWAP1 MSTORE PUSH1 0xA0 DUP2 ADD SWAP2 SWAP1 SWAP2 MSTORE POP PUSH1 0x40 DUP1 MLOAD PUSH1 0xC0 DUP2 ADD DUP3 MSTORE PUSH1 0x0 SLOAD PUSH8 0xFFFFFFFFFFFFFFFF DUP1 DUP3 AND DUP4 MSTORE PUSH1 0x1 PUSH1 0x40 SHL DUP3 DIV DUP2 AND PUSH1 0x20 DUP5 ADD MSTORE PUSH1 0x1 PUSH1 0x80 SHL DUP3 DIV AND SWAP3 DUP3 ADD SWAP3 SWAP1 SWAP3 MSTORE PUSH4 0xFFFFFFFF PUSH1 0x1 PUSH1 0xC0 SHL DUP4 DIV DUP2 AND PUSH1 0x60 DUP4 ADD MSTORE PUSH1 0x1 PUSH1 0xE0 SHL SWAP1 SWAP3 DIV SWAP1 SWAP2 AND PUSH1 0x80 DUP3 ADD MSTORE PUSH1 0x1 SLOAD PUSH1 0xFF AND PUSH1 0xA0 DUP3 ADD MSTORE SWAP3 SWAP2 POP POP JUMP JUMPDEST PUSH1 0x40 MLOAD PUSH2 0xD7 SWAP2 SWAP1 PUSH1 0x0 PUSH1 0xC0 DUP3 ADD SWAP1 POP PUSH8 0xFFFFFFFFFFFFFFFF DUP1 DUP5 MLOAD AND DUP4 MSTORE DUP1 PUSH1 0x20 DUP6 ADD MLOAD AND PUSH1 0x20 DUP5 ADD MSTORE DUP1 PUSH1 0x40 DUP6 ADD MLOAD AND PUSH1 0x40 DUP5 ADD MSTORE POP PUSH1 0x60 DUP4 ADD MLOAD PUSH4 0xFFFFFFFF DUP1 DUP3 AND PUSH1 0x60 DUP6 ADD MSTORE DUP1 PUSH1 0x80 DUP7 ADD MLOAD AND PUSH1 0x80 DUP6 ADD MSTORE POP POP PUSH1 0xFF PUSH1 0xA0 DUP5 ADD MLOAD AND PUSH1 0xA0 DUP4 ADD MSTORE SWAP3 SWAP2 POP POP JUMP JUMPDEST PUSH2 0x21F PUSH32 0x0 DUP2 JUMP JUMPDEST PUSH1 0x40 MLOAD PUSH1 0x1 PUSH1 0x1 PUSH1 0xA0 SHL SUB SWAP1 SWAP2 AND DUP2 MSTORE PUSH1 0x20 ADD PUSH2 0xD7 JUMP JUMPDEST PUSH1 0x0 DUP1 PUSH1 0x20 DUP4 DUP6 SUB SLT ISZERO PUSH2 0x24A JUMPI PUSH1 0x0 DUP1 REVERT JUMPDEST DUP3 CALLDATALOAD PUSH8 0xFFFFFFFFFFFFFFFF DUP1 DUP3 GT ISZERO PUSH2 0x262 JUMPI PUSH1 0x0 DUP1 REVERT JUMPDEST DUP2 DUP6 ADD SWAP2 POP DUP6 PUSH1 0x1F DUP4 ADD SLT PUSH2 0x276 JUMPI PUSH1 0x0 DUP1 REVERT JUMPDEST DUP2 CALLDATALOAD DUP2 DUP2 GT ISZERO PUSH2 0x285 JUMPI PUSH1 0x0 DUP1 REVERT JUMPDEST DUP7 PUSH1 0x20 DUP3 DUP6 ADD ADD GT ISZERO PUSH2 0x297 JUMPI PUSH1 0x0 DUP1 REVERT JUMPDEST PUSH1 0x20 SWAP3 SWAP1 SWAP3 ADD SWAP7 SWAP2 SWAP6 POP SWAP1 SWAP4 POP POP POP POP JUMP INVALID LOG2 PUSH5 0x6970667358 0x22 SLT KECCAK256 PUSH19 0xBA27D0ED570FC31560E3A3E2C09500C38DE9A3 0xBD CALLDATASIZE PUSH32 0x5748A7D0A126CED8E464736F6C63430008110033000000000000000000000000 ","sha1":"bf0120a9cc94b4a996ec32ea417028e1dbf306dc","source":"// SPDX-License-Identifier: GPL-3.0-or-later\npragma solidity ^0.8.17;\n\nimport \"../access/GovernanceOnly.sol\";\nimport \"../../libraries/DataTypes.sol\";\nimport \"../../interfaces/ITierStrategy.sol\";\n\ncontract StaticTierStrategy is ITierStrategy, GovernanceOnly {\n    DataTypes.Tier public tier;\n\n    constructor(\n        address _governance,\n        DataTypes.Tier memory _tier\n    ) GovernanceOnly(_governance) {\n        tier = _tier;\n    }\n\n    function getTier(\n        bytes calldata\n    ) external view returns (DataTypes.Tier memory) {\n        return tier;\n    }\n}\n","sourcePath":"contracts/tier_strategies/StaticTierStrategy.sol","type":"contract","deployment":{"address":"0x0B4237b829c34507EEdDB67006Db6061D3D60edF","chainid":"1","blockHeight":18344289}}