{"abi":[{"inputs":[{"internalType":"address","name":"_multisig","type":"address"},{"internalType":"contract IVotingPowerAggregator","name":"_votingPowerAggregator","type":"address"},{"internalType":"contract ITierer","name":"_tierer","type":"address"}],"stateMutability":"nonpayable","type":"constructor","name":"constructor"},{"inputs":[],"name":"MultisigSunset","type":"error"},{"inputs":[{"internalType":"address","name":"actual","type":"address"},{"internalType":"address","name":"expected","type":"address"}],"name":"NotAuthorized","type":"error"},{"anonymous":false,"inputs":[{"indexed":false,"internalType":"uint8","name":"version","type":"uint8"}],"name":"Initialized","type":"event"},{"anonymous":false,"inputs":[],"name":"MultisigSunset","type":"event"},{"anonymous":false,"inputs":[{"indexed":true,"internalType":"uint16","name":"id","type":"uint16"},{"indexed":false,"internalType":"address","name":"proposer","type":"address"},{"components":[{"internalType":"address","name":"target","type":"address"},{"internalType":"bytes","name":"data","type":"bytes"}],"indexed":false,"internalType":"struct DataTypes.ProposalAction[]","name":"actions","type":"tuple[]"}],"name":"ProposalCreated","type":"event"},{"anonymous":false,"inputs":[{"indexed":true,"internalType":"uint16","name":"proposalId","type":"uint16"}],"name":"ProposalExecuted","type":"event"},{"anonymous":false,"inputs":[{"indexed":true,"internalType":"uint16","name":"proposalId","type":"uint16"},{"indexed":false,"internalType":"enum DataTypes.Status","name":"status","type":"uint8"},{"indexed":false,"internalType":"enum DataTypes.ProposalOutcome","name":"outcome","type":"uint8"}],"name":"ProposalTallied","type":"event"},{"anonymous":false,"inputs":[{"indexed":true,"internalType":"uint16","name":"proposalId","type":"uint16"}],"name":"ProposalVetoed","type":"event"},{"anonymous":false,"inputs":[{"indexed":true,"internalType":"uint16","name":"proposalId","type":"uint16"},{"indexed":false,"internalType":"address","name":"voter","type":"address"},{"indexed":false,"internalType":"enum DataTypes.Ballot","name":"vote","type":"uint8"}],"name":"VoteCast","type":"event"},{"inputs":[],"name":"bGYD","outputs":[{"internalType":"contract IBoundedERC20WithEMA","name":"","type":"address"}],"stateMutability":"view","type":"function"},{"inputs":[{"components":[{"internalType":"address","name":"target","type":"address"},{"internalType":"bytes","name":"data","type":"bytes"}],"internalType":"struct DataTypes.ProposalAction[]","name":"actions","type":"tuple[]"}],"name":"createAndExecuteProposal","outputs":[],"stateMutability":"nonpayable","type":"function"},{"inputs":[{"components":[{"internalType":"address","name":"target","type":"address"},{"internalType":"bytes","name":"data","type":"bytes"}],"internalType":"struct DataTypes.ProposalAction[]","name":"actions","type":"tuple[]"}],"name":"createProposal","outputs":[],"stateMutability":"nonpayable","type":"function"},{"inputs":[{"internalType":"uint16","name":"proposalId","type":"uint16"}],"name":"executeProposal","outputs":[],"stateMutability":"nonpayable","type":"function"},{"inputs":[{"internalType":"address","name":"voter","type":"address"},{"internalType":"uint16","name":"proposalId","type":"uint16"}],"name":"getBallot","outputs":[{"internalType":"enum DataTypes.Ballot","name":"","type":"uint8"}],"stateMutability":"view","type":"function"},{"inputs":[{"internalType":"uint16","name":"proposalId","type":"uint16"}],"name":"getCurrentPercentages","outputs":[{"internalType":"uint256","name":"for_","type":"uint256"},{"internalType":"uint256","name":"against","type":"uint256"},{"internalType":"uint256","name":"abstain","type":"uint256"}],"stateMutability":"view","type":"function"},{"inputs":[{"internalType":"uint16","name":"proposalId","type":"uint16"}],"name":"getProposal","outputs":[{"components":[{"internalType":"uint64","name":"createdAt","type":"uint64"},{"internalType":"uint64","name":"executableAt","type":"uint64"},{"internalType":"uint64","name":"votingEndsAt","type":"uint64"},{"internalType":"uint64","name":"voteThreshold","type":"uint64"},{"internalType":"uint64","name":"quorum","type":"uint64"},{"internalType":"uint16","name":"id","type":"uint16"},{"internalType":"uint8","name":"actionLevel","type":"uint8"},{"internalType":"address","name":"proposer","type":"address"},{"internalType":"enum DataTypes.Status","name":"status","type":"uint8"},{"components":[{"internalType":"address","name":"target","type":"address"},{"internalType":"bytes","name":"data","type":"bytes"}],"internalType":"struct DataTypes.ProposalAction[]","name":"actions","type":"tuple[]"}],"internalType":"struct DataTypes.Proposal","name":"","type":"tuple"}],"stateMutability":"view","type":"function"},{"inputs":[{"internalType":"uint16","name":"proposalId","type":"uint16"}],"name":"getVoteTotals","outputs":[{"components":[{"components":[{"internalType":"address","name":"vaultAddress","type":"address"},{"internalType":"uint256","name":"votingPower","type":"uint256"}],"internalType":"struct DataTypes.VaultVotingPower[]","name":"_for","type":"tuple[]"},{"components":[{"internalType":"address","name":"vaultAddress","type":"address"},{"internalType":"uint256","name":"votingPower","type":"uint256"}],"internalType":"struct DataTypes.VaultVotingPower[]","name":"against","type":"tuple[]"},{"components":[{"internalType":"address","name":"vaultAddress","type":"address"},{"internalType":"uint256","name":"votingPower","type":"uint256"}],"internalType":"struct DataTypes.VaultVotingPower[]","name":"abstentions","type":"tuple[]"}],"internalType":"struct DataTypes.VoteTotals","name":"","type":"tuple"}],"stateMutability":"view","type":"function"},{"inputs":[{"internalType":"contract IBoundedERC20WithEMA","name":"_bGYD","type":"address"},{"components":[{"internalType":"uint8","name":"actionLevelThreshold","type":"uint8"},{"internalType":"uint256","name":"emaThreshold","type":"uint256"},{"internalType":"uint256","name":"minBGYDSupply","type":"uint256"},{"internalType":"contract ITierStrategy","name":"tierStrategy","type":"address"}],"internalType":"struct DataTypes.LimitUpgradeabilityParameters","name":"_params","type":"tuple"}],"name":"initialize","outputs":[],"stateMutability":"nonpayable","type":"function"},{"inputs":[],"name":"limitUpgradeabilityParams","outputs":[{"internalType":"uint8","name":"actionLevelThreshold","type":"uint8"},{"internalType":"uint256","name":"emaThreshold","type":"uint256"},{"internalType":"uint256","name":"minBGYDSupply","type":"uint256"},{"internalType":"contract ITierStrategy","name":"tierStrategy","type":"address"}],"stateMutability":"view","type":"function"},{"inputs":[],"name":"listActiveProposals","outputs":[{"components":[{"internalType":"uint64","name":"createdAt","type":"uint64"},{"internalType":"uint64","name":"executableAt","type":"uint64"},{"internalType":"uint64","name":"votingEndsAt","type":"uint64"},{"internalType":"uint64","name":"voteThreshold","type":"uint64"},{"internalType":"uint64","name":"quorum","type":"uint64"},{"internalType":"uint16","name":"id","type":"uint16"},{"internalType":"uint8","name":"actionLevel","type":"uint8"},{"internalType":"address","name":"proposer","type":"address"},{"internalType":"enum DataTypes.Status","name":"status","type":"uint8"},{"components":[{"internalType":"address","name":"target","type":"address"},{"internalType":"bytes","name":"data","type":"bytes"}],"internalType":"struct DataTypes.ProposalAction[]","name":"actions","type":"tuple[]"}],"internalType":"struct DataTypes.Proposal[]","name":"","type":"tuple[]"}],"stateMutability":"view","type":"function"},{"inputs":[],"name":"listTimelockedProposals","outputs":[{"components":[{"internalType":"uint64","name":"createdAt","type":"uint64"},{"internalType":"uint64","name":"executableAt","type":"uint64"},{"internalType":"uint64","name":"votingEndsAt","type":"uint64"},{"internalType":"uint64","name":"voteThreshold","type":"uint64"},{"internalType":"uint64","name":"quorum","type":"uint64"},{"internalType":"uint16","name":"id","type":"uint16"},{"internalType":"uint8","name":"actionLevel","type":"uint8"},{"internalType":"address","name":"proposer","type":"address"},{"internalType":"enum DataTypes.Status","name":"status","type":"uint8"},{"components":[{"internalType":"address","name":"target","type":"address"},{"internalType":"bytes","name":"data","type":"bytes"}],"internalType":"struct DataTypes.ProposalAction[]","name":"actions","type":"tuple[]"}],"internalType":"struct DataTypes.Proposal[]","name":"","type":"tuple[]"}],"stateMutability":"view","type":"function"},{"inputs":[],"name":"multisig","outputs":[{"internalType":"address","name":"","type":"address"}],"stateMutability":"view","type":"function"},{"inputs":[],"name":"multisigSunsetAt","outputs":[{"internalType":"uint256","name":"","type":"uint256"}],"stateMutability":"view","type":"function"},{"inputs":[],"name":"proposalsCount","outputs":[{"internalType":"uint16","name":"","type":"uint16"}],"stateMutability":"view","type":"function"},{"inputs":[],"name":"sunsetMultisig","outputs":[],"stateMutability":"nonpayable","type":"function"},{"inputs":[{"internalType":"uint16","name":"proposalId","type":"uint16"}],"name":"tallyVote","outputs":[],"stateMutability":"nonpayable","type":"function"},{"inputs":[],"name":"tierer","outputs":[{"internalType":"contract ITierer","name":"","type":"address"}],"stateMutability":"view","type":"function"},{"inputs":[{"components":[{"internalType":"uint8","name":"actionLevelThreshold","type":"uint8"},{"internalType":"uint256","name":"emaThreshold","type":"uint256"},{"internalType":"uint256","name":"minBGYDSupply","type":"uint256"},{"internalType":"contract ITierStrategy","name":"tierStrategy","type":"address"}],"internalType":"struct DataTypes.LimitUpgradeabilityParameters","name":"_params","type":"tuple"}],"name":"updateLimitUpgradeabilityParams","outputs":[],"stateMutability":"nonpayable","type":"function"},{"inputs":[{"internalType":"uint16","name":"proposalId","type":"uint16"}],"name":"vetoProposal","outputs":[],"stateMutability":"nonpayable","type":"function"},{"inputs":[{"internalType":"uint16","name":"proposalId","type":"uint16"},{"internalType":"enum DataTypes.Ballot","name":"ballot","type":"uint8"}],"name":"vote","outputs":[],"stateMutability":"nonpayable","type":"function"},{"inputs":[],"name":"votingPowerAggregator","outputs":[{"internalType":"contract IVotingPowerAggregator","name":"","type":"address"}],"stateMutability":"view","type":"function"}],"bytecode":"60e06040523480156200001157600080fd5b5060405162003f0f38038062003f0f83398101604081905262000034916200006b565b6001600160a01b0392831660805290821660a0521660c052620000bf565b6001600160a01b03811681146200006857600080fd5b50565b6000806000606084860312156200008157600080fd5b83516200008e8162000052565b6020850151909350620000a18162000052565b6040850151909250620000b48162000052565b809150509250925092565b60805160a05160c051613dda62000135600039600081816102fa015281816125c6015261266d01526000818161034b01528181610d400152818161190a015281816119b20152611cc001526000818161024601528181610914015281816109560152818161131501526113570152613dda6000f3fe608060405234801561001057600080fd5b50600436106101425760003560e01c80634c620631116100b85780637b5f78bd1161007c5780637b5f78bd14610333578063c1ab52cd14610346578063c36a4ad21461036d578063c3955c7b146103bc578063cc7d76ce146103d1578063e14ff108146103e457600080fd5b80634c6206311461026857806352e5c19c146102b45780635552005e146102c7578063595d53c3146102f5578063627759171461031c57600080fd5b806333f1cddf1161010a57806333f1cddf146101d557806334e2c0a3146101e85780633ef8a9d5146101f05780634333aea91461020357806344ba3430146102165780634783c35b1461024157600080fd5b806305a71743146101475780630a9f46ad1461015c578063179d4250146101825780631b64a010146101a25780632f6675e4146101b5575b600080fd5b61015a610155366004612e3a565b6103ec565b005b60075461016a9061ffff1681565b60405161ffff90911681526020015b60405180910390f35b610195610190366004612e3a565b610721565b604051610179919061303f565b61015a6101b0366004612e3a565b610909565b6101c86101c3366004612e3a565b610aeb565b60405161017991906130a4565b61015a6101e3366004613105565b610b31565b61015a611027565b61015a6101fe366004612e3a565b61107e565b61015a610211366004613140565b61130a565b600254610229906001600160a01b031681565b6040516001600160a01b039091168152602001610179565b6102297f000000000000000000000000000000000000000000000000000000000000000081565b6102a76102763660046131cc565b6001600160a01b0382166000908152600e6020908152604080832061ffff8516845290915290205460ff1692915050565b6040516101799190613211565b61015a6102c236600461333b565b611618565b6102da6102d5366004612e3a565b61168a565b60408051938452602084019290925290820152606001610179565b6102297f000000000000000000000000000000000000000000000000000000000000000081565b61032560015481565b604051908152602001610179565b61015a610341366004613357565b6116e1565b6102297f000000000000000000000000000000000000000000000000000000000000000081565b60035460045460055460065461038f9360ff169291906001600160a01b031684565b6040805160ff90951685526020850193909352918301526001600160a01b03166060820152608001610179565b6103c4611854565b6040516101799190613384565b61015a6103df366004613140565b61186d565b6103c4611dee565b61ffff81166000908152600c60205260408120805490916001600160401b0390911690036104355760405162461bcd60e51b815260040161042c906133e6565b60405180910390fd5b600180820154600160f81b900460ff16600581111561045657610456612e55565b14801561046d575061046d600861ffff8416611dfd565b6104b95760405162461bcd60e51b815260206004820181905260248201527f70726f706f73616c206973206e6f742063757272656e746c7920616374697665604482015260640161042c565b80546001600160401b03600160801b9091048116429091161161052a5760405162461bcd60e51b815260206004820152602360248201527f766f74696e67206973206f6e676f696e6720666f7220746869732070726f706f6044820152621cd85b60ea1b606482015260840161042c565b600080600061053884611e18565b6001870154875493965091945092506001600160401b0380821692600160c01b9004169061056f90600160501b900460ff16611f32565b1561059857600061057e61204f565b80516040909101516001600160401b039182169450169150505b6000836105a58688613433565b6105af9190613433565b90508281101561063a576001870180546001600160f81b0316600160f91b1790556105df600861ffff8a166120f5565b508761ffff167fadb6bd5b3af9aa1786cc943a70a5c9652675feaa93103347576f7f654aeb150588600101601f9054906101000a900460ff166001604051610628929190613446565b60405180910390a25050505050505050565b6000806106478789613433565b11156106645761066161065a8789613433565b8890612101565b90505b600083821061069c57506001880180546001600160f81b0316600360f81b1790556003610696600a61ffff8c16612120565b506106b7565b506001880180546001600160f81b0316600160f91b17905560025b6106c6600861ffff8c166120f5565b50600189015460405161ffff8c16917fadb6bd5b3af9aa1786cc943a70a5c9652675feaa93103347576f7f654aeb15059161070d91600160f81b900460ff16908590613446565b60405180910390a250505050505050505050565b610729612dcf565b61ffff8083166000908152600c602090815260409182902082516101408101845281546001600160401b038082168352600160401b808304821695840195909552600160801b8204811695830195909552600160c01b9004841660608201526001820154938416608082015291830490931660a082015260ff600160501b8304811660c08301526001600160a01b03600160581b84041660e0830152909291610100840191600160f81b9091041660058111156107e8576107e8612e55565b60058111156107f9576107f9612e55565b815260200160028201805480602002602001604051908101604052809291908181526020016000905b828210156108fb576000848152602090819020604080518082019091526002850290910180546001600160a01b03168252600181018054929391929184019161086a9061346a565b80601f01602080910402602001604051908101604052809291908181526020018280546108969061346a565b80156108e35780601f106108b8576101008083540402835291602001916108e3565b820191906000526020600020905b8154815290600101906020018083116108c657829003601f168201915b50505050508152505081526020019060010190610822565b505050915250909392505050565b336001600160a01b037f000000000000000000000000000000000000000000000000000000000000000016146109835760405163c55ddc9760e01b81523360048201526001600160a01b037f000000000000000000000000000000000000000000000000000000000000000016602482015260440161042c565b60015442106109a557604051637db668c960e11b815260040160405180910390fd5b61ffff81166000908152600c6020526040902080546001600160401b03166109df5760405162461bcd60e51b815260040161042c906133e6565b600180820154600160f81b900460ff166005811115610a0057610a00612e55565b1480610a2b575060036001820154600160f81b900460ff166005811115610a2957610a29612e55565b145b610a815760405162461bcd60e51b815260206004820152602160248201527f70726f706f73616c206d75737420626520616374697665206f722071756575656044820152601960fa1b606482015260840161042c565b6001810180546001600160f81b0316600560f81b179055610aa7600861ffff84166120f5565b50610ab7600a61ffff84166120f5565b5060405161ffff8316907fb9016057e49c23c7ed1248a5f032d78553a8fd91d47430235ad549ff2e4c4c0190600090a25050565b610b0f60405180606001604052806060815260200160608152602001606081525090565b61ffff82166000908152600f60205260409020610b2b9061212c565b92915050565b61ffff82166000908152600c60205260408120805490916001600160401b039091169003610b715760405162461bcd60e51b815260040161042c906133e6565b80546001600160401b03164211610bc35760405162461bcd60e51b81526020600482015260166024820152751d9bdd1a5b99c81a185cc81b9bdd081cdd185c9d195960521b604482015260640161042c565b80546001600160401b03428116600160801b9092041611610c305760405162461bcd60e51b815260206004820152602160248201527f766f74696e6720697320636c6f736564206f6e20746869732070726f706f73616044820152601b60fa1b606482015260840161042c565b6000826003811115610c4457610c44612e55565b03610ca65760405162461bcd60e51b815260206004820152602c60248201527f62616c6c6f74206d757374206265206361737420466f722c20416761696e737460448201526b161037b91020b139ba30b4b760a11b606482015260840161042c565b61ffff83166000908152600d6020908152604080832080548251818502810185019093528083529192909190849084015b82821015610d2c576000848152602090819020604080516060810182526003860290920180546001600160a01b0316835260018082015484860152600290910154918301919091529083529092019101610cd7565b505084549293506000926001600160a01b037f000000000000000000000000000000000000000000000000000000000000000016925063a10202fc915033906001600160401b0316610d7d866121c9565b6040518463ffffffff1660e01b8152600401610d9b939291906134a4565b600060405180830381865afa158015610db8573d6000803e3d6000fd5b505050506040513d6000823e601f3d908101601f19168201604052610de09190810190613531565b336000908152600e6020908152604080832061ffff8a16845290915281205491925060ff9091169080826003811115610e1b57610e1b612e55565b14905060005b8351811015610f9f576000848281518110610e3e57610e3e6135e9565b6020026020010151905082610f1a57805161ffff8a166000908152600f602052604081209091610ea89183886003811115610e7b57610e7b612e55565b6003811115610e8c57610e8c612e55565b815260200190815260200160002061228190919063ffffffff16565b915050610f178260000151836020015183610ec391906135ff565b61ffff8d166000908152600f6020526040812090896003811115610ee957610ee9612e55565b6003811115610efa57610efa612e55565b81526020019081526020016000206122a89092919063ffffffff16565b50505b805161ffff8a166000908152600f602052604081209091610f4891838c6003811115610e7b57610e7b612e55565b915050610f898260000151836020015183610f639190613433565b61ffff8d166000908152600f60205260408120908d6003811115610ee957610ee9612e55565b5050508080610f9790613612565b915050610e21565b50336000908152600e6020908152604080832061ffff8b1684529091529020805487919060ff19166001836003811115610fdb57610fdb612e55565b02179055508661ffff167f813d5173493e8596afc161a427c2269fc55fef4bf9d9ba4fff5e095d569a2ddc338860405161101692919061362b565b60405180910390a250505050505050565b33301461104f5760405163c55ddc9760e01b815233600482015230602482015260440161042c565b426001556040517ffb6cd192ba87532aa2e092fc504eb1973196d5f6e0b909ad70eb28810a51a49990600090a1565b61ffff81166000908152600c6020526040902080546001600160401b03166110b85760405162461bcd60e51b815260040161042c906133e6565b60036001820154600160f81b900460ff1660058111156110da576110da612e55565b1480156110f157506110f1600a61ffff8416611dfd565b8015611112575080546001600160401b03600160401b909104811642909116115b6111735760405162461bcd60e51b815260206004820152602c60248201527f70726f706f73616c206d7573742062652071756575656420616e64207265616460448201526b7920746f206578656375746560a01b606482015260840161042c565b60005b60028201548110156112af5761129c82600201828154811061119a5761119a6135e9565b906000526020600020906002020160010180546111b69061346a565b80601f01602080910402602001604051908101604052809291908181526020018280546111e29061346a565b801561122f5780601f106112045761010080835404028352916020019161122f565b820191906000526020600020905b81548152906001019060200180831161121257829003601f168201915b5050505050604051806040016040528060198152602001781c1c9bdc1bdcd85b08195e1958dd5d1a5bdb8819985a5b1959603a1b81525084600201848154811061127b5761127b6135e9565b60009182526020909120600290910201546001600160a01b031691906122c6565b50806112a781613612565b915050611176565b506001810180546001600160f81b0316600160fa1b1790556112d6600a61ffff84166120f5565b5060405161ffff8316907f92a8e27a614d1092a0e536cf3db1df4965fd891fe65492c53cca79dffb5419a890600090a25050565b336001600160a01b037f000000000000000000000000000000000000000000000000000000000000000016146113845760405163c55ddc9760e01b81523360048201526001600160a01b037f000000000000000000000000000000000000000000000000000000000000000016602482015260440161042c565b60015442106113a657604051637db668c960e11b815260040160405180910390fd5b6007805460009161ffff90911690826113be83613644565b82546101009290920a61ffff81810219909316918316021790915581166000818152600c6020526040902060018101805462ff000160401b600160f81b031916600160401b938402600160581b600160f81b0319161733600160581b0217808255825477ffffffffffffffff0000000000000000ffffffffffffffff1916426001600160401b0316908117600160801b82021767ffffffffffffffff60401b19169402939093178255929350916004916001600160f81b0316600160f81b83021790555060018101805467ffffffffffffffff1916905580546001600160c01b0316815560005b838110156115a25760008585838181106114c1576114c16135e9565b90506020028101906114d39190613665565b6114dc90613735565b6002848101805460018082018355600092835260209283902085519290940290930180546001600160a01b0319166001600160a01b039092169190911781559083015192935083929091820190611533908261378f565b50505061158d8160200151604051806040016040528060198152602001781c1c9bdc1bdcd85b08195e1958dd5d1a5bdb8819985a5b1959603a1b81525083600001516001600160a01b03166122c69092919063ffffffff16565b5050808061159a90613612565b9150506114a5565b508161ffff167f54f76ba363ce9b1888f218ed79d176b3564d604adcdca9ec308a7266c164af343386866040516115db9392919061384e565b60405180910390a260405161ffff8316907f92a8e27a614d1092a0e536cf3db1df4965fd891fe65492c53cca79dffb5419a890600090a250505050565b3330146116405760405163c55ddc9760e01b815233600482015230602482015260440161042c565b80516003805460ff191660ff9092169190911790556020810151600455604081015160055560600151600680546001600160a01b0319166001600160a01b03909216919091179055565b61ffff81166000908152600c602052604081208054829182916001600160401b031682036116ca5760405162461bcd60e51b815260040161042c906133e6565b6116d381611e18565b935093509350509193909250565b600054610100900460ff16158080156117015750600054600160ff909116105b8061171b5750303b15801561171b575060005460ff166001145b61177e5760405162461bcd60e51b815260206004820152602e60248201527f496e697469616c697a61626c653a20636f6e747261637420697320616c72656160448201526d191e481a5b9a5d1a585b1a5e995960921b606482015260840161042c565b6000805460ff1916600117905580156117a1576000805461ff0019166101001790555b600280546001600160a01b038086166001600160a01b03199283161790925583516003805460ff90921660ff19909216919091179055602084015160045560408401516005556060840151600680549190931691161790556118066276a70042613433565b600155801561184f576000805461ff0019169055604051600181527f7f26b83ff96e1f2b6a682f133852f6798a09c465da95921460cefb38474024989060200160405180910390a15b505050565b6060611868611863600a6122d5565b6122e2565b905090565b806118cb5760405162461bcd60e51b815260206004820152602860248201527f63616e6e6f742063726561746520612070726f706f73616c2077697468206e6f60448201526720616374696f6e7360c01b606482015260840161042c565b60006118df6118da838561393e565b612573565b90506118ee8160a00151611f32565b156118fe576118fb61204f565b90505b60006001600160a01b037f000000000000000000000000000000000000000000000000000000000000000016638ff400f43361193b6001426135ff565b6040516001600160e01b031960e085901b1681526001600160a01b0390921660048301526024820152604401600060405180830381865afa158015611984573d6000803e3d6000fd5b505050506040513d6000823e601f3d908101601f191682016040526119ac9190810190613531565b905060007f00000000000000000000000000000000000000000000000000000000000000006001600160a01b0316633bef7abb836040518263ffffffff1660e01b81526004016119fc91906139b1565b602060405180830381865afa158015611a19573d6000803e3d6000fd5b505050506040513d601f19601f82011682018060405250810190611a3d9190613a0c565b905082602001516001600160401b03168111611ac3576040805162461bcd60e51b81526020600482015260248101919091527f70726f706f73657220646f65736e2774206861766520656e6f75676820766f7460448201527f696e6720706f77657220746f2070726f706f7365207468697320616374696f6e606482015260840161042c565b60808301514290600090611add9063ffffffff1683613a25565b90506000856060015163ffffffff1682611af79190613a25565b60075461ffff166000818152600c6020526040902060018082018054835460a08d015162ff000160401b600160f81b0319909216600160401b968702600160581b600160f81b0319161733600160581b021760ff60501b198116600160501b60ff9094169390930292831784556001600160401b038b811677ffffffffffffffff0000000000000000ffffffffffffffff1990931692909217600160801b8b8416021767ffffffffffffffff60401b1916918816909602178455949550919390926aff00000000000000000001600160f81b03166001600160f81b0390911617600160f81b830217905550865160018201805467ffffffffffffffff19166001600160401b03928316179055604088015182546001600160c01b0316600160c01b919092160217815560005b88811015611c8a57816002018a8a83818110611c4157611c416135e9565b9050602002810190611c539190613665565b815460018101835560009283526020909220909160020201611c758282613a45565b50508080611c8290613612565b915050611c23565b506001810154600160401b900461ffff166000908152600d6020526040808220815163151f92d360e01b81529151611d3c9391927f00000000000000000000000000000000000000000000000000000000000000006001600160a01b03169263151f92d3926004808401938290030181865afa158015611d0e573d6000803e3d6000fd5b505050506040513d6000823e601f3d908101601f19168201604052611d369190810190613b60565b9061276a565b8060010160089054906101000a900461ffff166001611d5b9190613c26565b6007805461ffff191661ffff9283161790556001820154611d8691600891600160401b900416612120565b506001810154604051600160401b820461ffff16917f54f76ba363ce9b1888f218ed79d176b3564d604adcdca9ec308a7266c164af3491611ddb91600160581b90046001600160a01b0316908d908d9061384e565b60405180910390a2505050505050505050565b606061186861186360086122d5565b600081815260018301602052604081205415155b9392505050565b6001810154600160401b900461ffff166000908152600d60209081526040808320805482518185028101850190935280835284938493849390929091849084015b82821015611eae576000848152602090819020604080516060810182526003860290920180546001600160a01b0316835260018082015484860152600290910154918301919091529083529092019101611e59565b50505060018088015461ffff600160401b909104166000908152600f60205260408120939450611f0a925083915b6003811115611eed57611eed612e55565b81526020019081526020016000208361283c90919063ffffffff16565b9450611f198160006002611edc565b9350611f288160006003611edc565b9496939550505050565b6002546000906001600160a01b031615801590611fbe5750600554600254604080516318160ddd60e01b815290516001600160a01b03909216916318160ddd916004808201926020929091908290030181865afa158015611f97573d6000803e3d6000fd5b505050506040513d601f19601f82011682018060405250810190611fbb9190613a0c565b10155b80156120385750600480546002546040805163f91bde1f60e01b8152905192936001600160a01b039092169263f91bde1f928281019260209291908290030181865afa158015612012573d6000803e3d6000fd5b505050506040513d601f19601f820116820180604052508101906120369190613a0c565b115b8015610b2b57505060035460ff9081169116101590565b6040805160c081018252600080825260208201819052918101829052606081018290526080810182905260a0810191909152600654604051630c87fa5360e21b815260206004820152600060248201526001600160a01b039091169063321fe94c9060440160c060405180830381865afa1580156120d1573d6000803e3d6000fd5b505050506040513d601f19601f820116820180604052508101906118689190613c6c565b6000611e1183836128d0565b600081612116670de0b6b3a764000085613d0c565b611e119190613d23565b6000611e1183836129c3565b61215060405180606001604052806060815260200160608152602001606081525090565b600160009081526020839052604081209061216a82612a12565b6002600090815260208690526040812091925061218682612a12565b600360009081526020889052604081209192506121a282612a12565b60408051606081018252968752602087019490945292850192909252509195945050505050565b80516060906000816001600160401b038111156121e8576121e8613224565b604051908082528060200260200182016040528015612211578160200160208202803683370190505b50905060005b8281101561227957848181518110612231576122316135e9565b60200260200101516000015182828151811061224f5761224f6135e9565b6001600160a01b03909216602092830291909101909101528061227181613612565b915050612217565b509392505050565b6000808080612299866001600160a01b038716612af2565b909450925050505b9250929050565b60006122be846001600160a01b03851684612b2c565b949350505050565b60606122be8484600085612b49565b60606000611e1183612c24565b80516060906000816001600160401b0381111561230157612301613224565b60405190808252806020026020018201604052801561233a57816020015b612327612dcf565b81526020019060019003908161231f5790505b50905060005b8281101561227957600c600086838151811061235e5761235e6135e9565b60209081029190910181015161ffff908116835282820193909352604091820160002082516101408101845281546001600160401b038082168352600160401b808304821695840195909552600160801b8204811695830195909552600160c01b9004841660608201526001820154938416608082015291830490931660a082015260ff600160501b8304811660c08301526001600160a01b03600160581b84041660e0830152909291610100840191600160f81b90910416600581111561242857612428612e55565b600581111561243957612439612e55565b815260200160028201805480602002602001604051908101604052809291908181526020016000905b8282101561253b576000848152602090819020604080518082019091526002850290910180546001600160a01b0316825260018101805492939192918401916124aa9061346a565b80601f01602080910402602001604051908101604052809291908181526020018280546124d69061346a565b80156125235780601f106124f857610100808354040283529160200191612523565b820191906000526020600020905b81548152906001019060200180831161250657829003601f168201915b50505050508152505081526020019060010190612462565b5050505081525050828281518110612555576125556135e9565b6020026020010181905250808061256b90613612565b915050612340565b6040805160c081018252600080825260208201819052918101829052606081018290526080810182905260a08101919091526000826000815181106125ba576125ba6135e9565b602002602001015190507f00000000000000000000000000000000000000000000000000000000000000006001600160a01b031663feb52af5826000015183602001516040518363ffffffff1660e01b815260040161261a929190613d45565b60c060405180830381865afa158015612637573d6000803e3d6000fd5b505050506040513d601f19601f8201168201806040525081019061265b9190613c6c565b915060015b83518110156127635760007f00000000000000000000000000000000000000000000000000000000000000006001600160a01b031663feb52af58684815181106126ac576126ac6135e9565b6020026020010151600001518785815181106126ca576126ca6135e9565b6020026020010151602001516040518363ffffffff1660e01b81526004016126f3929190613d45565b60c060405180830381865afa158015612710573d6000803e3d6000fd5b505050506040513d601f19601f820116820180604052508101906127349190613c6c565b90508360a0015160ff168160a0015160ff161115612750578093505b508061275b81613612565b915050612660565b5050919050565b8054156127b15760405162461bcd60e51b815260206004820152601560248201527439ba37b930b3b29036bab9ba1031329031b632b0b760591b604482015260640161042c565b60005b825181101561184f57818382815181106127d0576127d06135e9565b602090810291909101810151825460018082018555600094855293839020825160039092020180546001600160a01b0319166001600160a01b0390921691909117815591810151928201929092556040909101516002909101558061283481613612565b9150506127b4565b6000805b83518110156128c957600084828151811061285d5761285d6135e9565b60200260200101519050600061288082600001518661228190919063ffffffff16565b9150506128a882602001516128a284604001518461210190919063ffffffff16565b90612c80565b6128b29085613433565b9350505080806128c190613612565b915050612840565b5092915050565b600081815260018301602052604081205480156129b95760006128f46001836135ff565b8554909150600090612908906001906135ff565b905081811461296d576000866000018281548110612928576129286135e9565b906000526020600020015490508087600001848154811061294b5761294b6135e9565b6000918252602080832090910192909255918252600188019052604090208390555b855486908061297e5761297e613d69565b600190038181906000526020600020016000905590558560010160008681526020019081526020016000206000905560019350505050610b2b565b6000915050610b2b565b6000818152600183016020526040812054612a0a57508154600181810184556000848152602080822090930184905584548482528286019093526040902091909155610b2b565b506000610b2b565b60606000612a1f83612c95565b6001600160401b03811115612a3657612a36613224565b604051908082528060200260200182016040528015612a7b57816020015b6040805180820190915260008082526020820152815260200190600190039081612a545790505b50905060005b612a8a84612c95565b8110156128c957600080612a9e8684612ca0565b915091506040518060400160405280836001600160a01b0316815260200182815250848481518110612ad257612ad26135e9565b602002602001018190525050508080612aea90613612565b915050612a81565b6000818152600283016020526040812054819080612b2157612b148585612caf565b9250600091506122a19050565b6001925090506122a1565b600082815260028401602052604081208290556122be8484612120565b606082471015612baa5760405162461bcd60e51b815260206004820152602660248201527f416464726573733a20696e73756666696369656e742062616c616e636520666f6044820152651c8818d85b1b60d21b606482015260840161042c565b600080866001600160a01b03168587604051612bc69190613d7f565b60006040518083038185875af1925050503d8060008114612c03576040519150601f19603f3d011682016040523d82523d6000602084013e612c08565b606091505b5091509150612c1987838387612cbb565b979650505050505050565b606081600001805480602002602001604051908101604052809291908181526020018280548015612c7457602002820191906000526020600020905b815481526020019060010190808311612c60575b50505050509050919050565b6000670de0b6b3a76400006121168385613d0c565b6000610b2b82612d34565b60008080806122998686612d3f565b6000611e118383611dfd565b60608315612d2a578251600003612d23576001600160a01b0385163b612d235760405162461bcd60e51b815260206004820152601d60248201527f416464726573733a2063616c6c20746f206e6f6e2d636f6e7472616374000000604482015260640161042c565b50816122be565b6122be8383612d6a565b6000610b2b82612d94565b60008080612d4d8585612d9e565b600081815260029690960160205260409095205494959350505050565b815115612d7a5781518083602001fd5b8060405162461bcd60e51b815260040161042c9190613d91565b6000610b2b825490565b6000611e1183836000826000018281548110612dbc57612dbc6135e9565b9060005260206000200154905092915050565b6040805161014081018252600080825260208201819052918101829052606081018290526080810182905260a0810182905260c0810182905260e08101829052906101008201908152602001606081525090565b803561ffff81168114612e3557600080fd5b919050565b600060208284031215612e4c57600080fd5b611e1182612e23565b634e487b7160e01b600052602160045260246000fd5b60068110612e7b57612e7b612e55565b9052565b60005b83811015612e9a578181015183820152602001612e82565b50506000910152565b60008151808452612ebb816020860160208601612e7f565b601f01601f19169290920160200192915050565b600082825180855260208086019550808260051b84010181860160005b84811015612f3757858303601f19018952815180516001600160a01b031684528401516040858501819052612f2381860183612ea3565b9a86019a9450505090830190600101612eec565b5090979650505050505050565b80516001600160401b0316825260006101406020830151612f7060208601826001600160401b03169052565b506040830151612f8b60408601826001600160401b03169052565b506060830151612fa660608601826001600160401b03169052565b506080830151612fc160808601826001600160401b03169052565b5060a0830151612fd760a086018261ffff169052565b5060c0830151612fec60c086018260ff169052565b5060e083015161300760e08601826001600160a01b03169052565b506101008084015161301b82870182612e6b565b505061012080840151828287015261303583870182612ecf565b9695505050505050565b602081526000611e116020830184612f44565b600081518084526020808501945080840160005b8381101561309957815180516001600160a01b031688526020908101519088015260408701965090820190600101613066565b509495945050505050565b6020815260008251606060208401526130c06080840182613052565b90506020840151601f19808584030160408601526130de8383613052565b92506040860151915080858403016060860152506130fc8282613052565b95945050505050565b6000806040838503121561311857600080fd5b61312183612e23565b915060208301356004811061313557600080fd5b809150509250929050565b6000806020838503121561315357600080fd5b82356001600160401b038082111561316a57600080fd5b818501915085601f83011261317e57600080fd5b81358181111561318d57600080fd5b8660208260051b85010111156131a257600080fd5b60209290920196919550909350505050565b6001600160a01b03811681146131c957600080fd5b50565b600080604083850312156131df57600080fd5b82356131ea816131b4565b91506131f860208401612e23565b90509250929050565b600481106131c9576131c9612e55565b6020810161321e83613201565b91905290565b634e487b7160e01b600052604160045260246000fd5b604080519081016001600160401b038111828210171561325c5761325c613224565b60405290565b604051606081016001600160401b038111828210171561325c5761325c613224565b604051601f8201601f191681016001600160401b03811182821017156132ac576132ac613224565b604052919050565b60ff811681146131c957600080fd5b6000608082840312156132d557600080fd5b604051608081018181106001600160401b03821117156132f7576132f7613224565b6040529050808235613308816132b4565b808252506020830135602082015260408301356040820152606083013561332e816131b4565b6060919091015292915050565b60006080828403121561334d57600080fd5b611e1183836132c3565b60008060a0838503121561336a57600080fd5b8235613375816131b4565b91506131f884602085016132c3565b6000602080830181845280855180835260408601915060408160051b870101925083870160005b828110156133d957603f198886030184526133c7858351612f44565b945092850192908501906001016133ab565b5092979650505050505050565b60208082526017908201527f70726f706f73616c20646f6573206e6f74206578697374000000000000000000604082015260600190565b634e487b7160e01b600052601160045260246000fd5b80820180821115610b2b57610b2b61341d565b604081016134548285612e6b565b61345d83613201565b8260208301529392505050565b600181811c9082168061347e57607f821691505b60208210810361349e57634e487b7160e01b600052602260045260246000fd5b50919050565b60006060820160018060a01b03808716845260206001600160401b0387168186015260606040860152828651808552608087019150828801945060005b818110156134ff5785518516835294830194918301916001016134e1565b50909998505050505050505050565b60006001600160401b0382111561352757613527613224565b5060051b60200190565b6000602080838503121561354457600080fd5b82516001600160401b0381111561355a57600080fd5b8301601f8101851361356b57600080fd5b805161357e6135798261350e565b613284565b81815260069190911b8201830190838101908783111561359d57600080fd5b928401925b82841015612c1957604084890312156135bb5760008081fd5b6135c361323a565b84516135ce816131b4565b815284860151868201528252604090930192908401906135a2565b634e487b7160e01b600052603260045260246000fd5b81810381811115610b2b57610b2b61341d565b6000600182016136245761362461341d565b5060010190565b6001600160a01b03831681526040810161345d83613201565b600061ffff80831681810361365b5761365b61341d565b6001019392505050565b60008235603e1983360301811261367b57600080fd5b9190910192915050565b60006040828403121561369757600080fd5b61369f61323a565b905081356136ac816131b4565b81526020828101356001600160401b03808211156136c957600080fd5b818501915085601f8301126136dd57600080fd5b8135818111156136ef576136ef613224565b613701601f8201601f19168501613284565b9150808252868482850101111561371757600080fd5b80848401858401376000908201840152918301919091525092915050565b6000610b2b3683613685565b601f82111561184f57600081815260208120601f850160051c810160208610156137685750805b601f850160051c820191505b8181101561378757828155600101613774565b505050505050565b81516001600160401b038111156137a8576137a8613224565b6137bc816137b6845461346a565b84613741565b602080601f8311600181146137f157600084156137d95750858301515b600019600386901b1c1916600185901b178555613787565b600085815260208120601f198616915b8281101561382057888601518255948401946001909101908401613801565b508582101561383e5787850151600019600388901b60f8161c191681555b5050505050600190811b01905550565b6001600160a01b03848116825260406020808401829052838201859052600092606091828601600588901b8701840189875b8a81101561392d57898303605f190184528135368d9003603e190181126138a657600080fd5b8c0180356138b3816131b4565b871684528086013536829003601e190181126138ce57600080fd5b0185810190356001600160401b038111156138e857600080fd5b8036038213156138f757600080fd5b8987860152808a86015280828a87013760008582018a015294860194601f01601f19169093018701925090840190600101613880565b50909b9a5050505050505050505050565b600061394c6135798461350e565b80848252602080830192508560051b85013681111561396a57600080fd5b855b818110156139a55780356001600160401b0381111561398b5760008081fd5b61399736828a01613685565b86525093820193820161396c565b50919695505050505050565b6020808252825182820181905260009190848201906040850190845b81811015613a0057835180516001600160a01b0316845260209081015190840152604083019385019392506001016139cd565b50909695505050505050565b600060208284031215613a1e57600080fd5b5051919050565b6001600160401b038181168382160190808211156128c9576128c961341d565b8135613a50816131b4565b81546001600160a01b0319166001600160a01b0391909116178155600181810160208481013536869003601e19018112613a8957600080fd5b850180356001600160401b03811115613aa157600080fd5b8036038383011315613ab257600080fd5b613ac681613ac0865461346a565b86613741565b6000601f821160018114613afc5760008315613ae457508382018501355b600019600385901b1c1916600184901b178655613b55565b600086815260209020601f19841690835b82811015613b2c57868501880135825593870193908901908701613b0d565b5084821015613b4b5760001960f88660031b161c198785880101351681555b50508683881b0186555b505050505050505050565b60006020808385031215613b7357600080fd5b82516001600160401b03811115613b8957600080fd5b8301601f81018513613b9a57600080fd5b8051613ba86135798261350e565b81815260609182028301840191848201919088841115613bc757600080fd5b938501935b83851015613c1a5780858a031215613be45760008081fd5b613bec613262565b8551613bf7816131b4565b815285870151878201526040808701519082015283529384019391850191613bcc565b50979650505050505050565b61ffff8181168382160190808211156128c9576128c961341d565b80516001600160401b0381168114612e3557600080fd5b805163ffffffff81168114612e3557600080fd5b600060c08284031215613c7e57600080fd5b60405160c081018181106001600160401b0382111715613ca057613ca0613224565b604052613cac83613c41565b8152613cba60208401613c41565b6020820152613ccb60408401613c41565b6040820152613cdc60608401613c58565b6060820152613ced60808401613c58565b608082015260a0830151613d00816132b4565b60a08201529392505050565b8082028115828204841417610b2b57610b2b61341d565b600082613d4057634e487b7160e01b600052601260045260246000fd5b500490565b6001600160a01b03831681526040602082018190526000906122be90830184612ea3565b634e487b7160e01b600052603160045260246000fd5b6000825161367b818460208701612e7f565b602081526000611e116020830184612ea356fea2646970667358221220ba39ff6003aba54b1a48e19064318c1a2b8d3ba44699934c7191db06903c2d7164736f6c63430008110033","bytecodeSha1":"e4b6a38b53bfb834202c99545c35cb7d729acfaf","compiler":{"evm_version":"istanbul","optimizer":{"enabled":true,"runs":200},"version":"0.8.17+commit.8df45f5f"},"contractName":"GovernanceManager","language":"Solidity","natspec":{"kind":"dev","methods":{},"version":1},"opcodes":"PUSH1 0x80 PUSH1 0x40 MSTORE CALLVALUE DUP1 ISZERO PUSH2 0x10 JUMPI PUSH1 0x0 DUP1 REVERT JUMPDEST POP PUSH1 0x4 CALLDATASIZE LT PUSH2 0x142 JUMPI PUSH1 0x0 CALLDATALOAD PUSH1 0xE0 SHR DUP1 PUSH4 0x4C620631 GT PUSH2 0xB8 JUMPI DUP1 PUSH4 0x7B5F78BD GT PUSH2 0x7C JUMPI DUP1 PUSH4 0x7B5F78BD EQ PUSH2 0x333 JUMPI DUP1 PUSH4 0xC1AB52CD EQ PUSH2 0x346 JUMPI DUP1 PUSH4 0xC36A4AD2 EQ PUSH2 0x36D JUMPI DUP1 PUSH4 0xC3955C7B EQ PUSH2 0x3BC JUMPI DUP1 PUSH4 0xCC7D76CE EQ PUSH2 0x3D1 JUMPI DUP1 PUSH4 0xE14FF108 EQ PUSH2 0x3E4 JUMPI PUSH1 0x0 DUP1 REVERT JUMPDEST DUP1 PUSH4 0x4C620631 EQ PUSH2 0x268 JUMPI DUP1 PUSH4 0x52E5C19C EQ PUSH2 0x2B4 JUMPI DUP1 PUSH4 0x5552005E EQ PUSH2 0x2C7 JUMPI DUP1 PUSH4 0x595D53C3 EQ PUSH2 0x2F5 JUMPI DUP1 PUSH4 0x62775917 EQ PUSH2 0x31C JUMPI PUSH1 0x0 DUP1 REVERT JUMPDEST DUP1 PUSH4 0x33F1CDDF GT PUSH2 0x10A JUMPI DUP1 PUSH4 0x33F1CDDF EQ PUSH2 0x1D5 JUMPI DUP1 PUSH4 0x34E2C0A3 EQ PUSH2 0x1E8 JUMPI DUP1 PUSH4 0x3EF8A9D5 EQ PUSH2 0x1F0 JUMPI DUP1 PUSH4 0x4333AEA9 EQ PUSH2 0x203 JUMPI DUP1 PUSH4 0x44BA3430 EQ PUSH2 0x216 JUMPI DUP1 PUSH4 0x4783C35B EQ PUSH2 0x241 JUMPI PUSH1 0x0 DUP1 REVERT JUMPDEST DUP1 PUSH4 0x5A71743 EQ PUSH2 0x147 JUMPI DUP1 PUSH4 0xA9F46AD EQ PUSH2 0x15C JUMPI DUP1 PUSH4 0x179D4250 EQ PUSH2 0x182 JUMPI DUP1 PUSH4 0x1B64A010 EQ PUSH2 0x1A2 JUMPI DUP1 PUSH4 0x2F6675E4 EQ PUSH2 0x1B5 JUMPI JUMPDEST PUSH1 0x0 DUP1 REVERT JUMPDEST PUSH2 0x15A PUSH2 0x155 CALLDATASIZE PUSH1 0x4 PUSH2 0x2E3A JUMP JUMPDEST PUSH2 0x3EC JUMP JUMPDEST STOP JUMPDEST PUSH1 0x7 SLOAD PUSH2 0x16A SWAP1 PUSH2 0xFFFF AND DUP2 JUMP JUMPDEST PUSH1 0x40 MLOAD PUSH2 0xFFFF SWAP1 SWAP2 AND DUP2 MSTORE PUSH1 0x20 ADD JUMPDEST PUSH1 0x40 MLOAD DUP1 SWAP2 SUB SWAP1 RETURN JUMPDEST PUSH2 0x195 PUSH2 0x190 CALLDATASIZE PUSH1 0x4 PUSH2 0x2E3A JUMP JUMPDEST PUSH2 0x721 JUMP JUMPDEST PUSH1 0x40 MLOAD PUSH2 0x179 SWAP2 SWAP1 PUSH2 0x303F JUMP JUMPDEST PUSH2 0x15A PUSH2 0x1B0 CALLDATASIZE PUSH1 0x4 PUSH2 0x2E3A JUMP JUMPDEST PUSH2 0x909 JUMP JUMPDEST PUSH2 0x1C8 PUSH2 0x1C3 CALLDATASIZE PUSH1 0x4 PUSH2 0x2E3A JUMP JUMPDEST PUSH2 0xAEB JUMP JUMPDEST PUSH1 0x40 MLOAD PUSH2 0x179 SWAP2 SWAP1 PUSH2 0x30A4 JUMP JUMPDEST PUSH2 0x15A PUSH2 0x1E3 CALLDATASIZE PUSH1 0x4 PUSH2 0x3105 JUMP JUMPDEST PUSH2 0xB31 JUMP JUMPDEST PUSH2 0x15A PUSH2 0x1027 JUMP JUMPDEST PUSH2 0x15A PUSH2 0x1FE CALLDATASIZE PUSH1 0x4 PUSH2 0x2E3A JUMP JUMPDEST PUSH2 0x107E JUMP JUMPDEST PUSH2 0x15A PUSH2 0x211 CALLDATASIZE PUSH1 0x4 PUSH2 0x3140 JUMP JUMPDEST PUSH2 0x130A JUMP JUMPDEST PUSH1 0x2 SLOAD PUSH2 0x229 SWAP1 PUSH1 0x1 PUSH1 0x1 PUSH1 0xA0 SHL SUB AND DUP2 JUMP JUMPDEST PUSH1 0x40 MLOAD PUSH1 0x1 PUSH1 0x1 PUSH1 0xA0 SHL SUB SWAP1 SWAP2 AND DUP2 MSTORE PUSH1 0x20 ADD PUSH2 0x179 JUMP JUMPDEST PUSH2 0x229 PUSH32 0x0 DUP2 JUMP JUMPDEST PUSH2 0x2A7 PUSH2 0x276 CALLDATASIZE PUSH1 0x4 PUSH2 0x31CC JUMP JUMPDEST PUSH1 0x1 PUSH1 0x1 PUSH1 0xA0 SHL SUB DUP3 AND PUSH1 0x0 SWAP1 DUP2 MSTORE PUSH1 0xE PUSH1 0x20 SWAP1 DUP2 MSTORE PUSH1 0x40 DUP1 DUP4 KECCAK256 PUSH2 0xFFFF DUP6 AND DUP5 MSTORE SWAP1 SWAP2 MSTORE SWAP1 KECCAK256 SLOAD PUSH1 0xFF AND SWAP3 SWAP2 POP POP JUMP JUMPDEST PUSH1 0x40 MLOAD PUSH2 0x179 SWAP2 SWAP1 PUSH2 0x3211 JUMP JUMPDEST PUSH2 0x15A PUSH2 0x2C2 CALLDATASIZE PUSH1 0x4 PUSH2 0x333B JUMP JUMPDEST PUSH2 0x1618 JUMP JUMPDEST PUSH2 0x2DA PUSH2 0x2D5 CALLDATASIZE PUSH1 0x4 PUSH2 0x2E3A JUMP JUMPDEST PUSH2 0x168A JUMP JUMPDEST PUSH1 0x40 DUP1 MLOAD SWAP4 DUP5 MSTORE PUSH1 0x20 DUP5 ADD SWAP3 SWAP1 SWAP3 MSTORE SWAP1 DUP3 ADD MSTORE PUSH1 0x60 ADD PUSH2 0x179 JUMP JUMPDEST PUSH2 0x229 PUSH32 0x0 DUP2 JUMP JUMPDEST PUSH2 0x325 PUSH1 0x1 SLOAD DUP2 JUMP JUMPDEST PUSH1 0x40 MLOAD SWAP1 DUP2 MSTORE PUSH1 0x20 ADD PUSH2 0x179 JUMP JUMPDEST PUSH2 0x15A PUSH2 0x341 CALLDATASIZE PUSH1 0x4 PUSH2 0x3357 JUMP JUMPDEST PUSH2 0x16E1 JUMP JUMPDEST PUSH2 0x229 PUSH32 0x0 DUP2 JUMP JUMPDEST PUSH1 0x3 SLOAD PUSH1 0x4 SLOAD PUSH1 0x5 SLOAD PUSH1 0x6 SLOAD PUSH2 0x38F SWAP4 PUSH1 0xFF AND SWAP3 SWAP2 SWAP1 PUSH1 0x1 PUSH1 0x1 PUSH1 0xA0 SHL SUB AND DUP5 JUMP JUMPDEST PUSH1 0x40 DUP1 MLOAD PUSH1 0xFF SWAP1 SWAP6 AND DUP6 MSTORE PUSH1 0x20 DUP6 ADD SWAP4 SWAP1 SWAP4 MSTORE SWAP2 DUP4 ADD MSTORE PUSH1 0x1 PUSH1 0x1 PUSH1 0xA0 SHL SUB AND PUSH1 0x60 DUP3 ADD MSTORE PUSH1 0x80 ADD PUSH2 0x179 JUMP JUMPDEST PUSH2 0x3C4 PUSH2 0x1854 JUMP JUMPDEST PUSH1 0x40 MLOAD PUSH2 0x179 SWAP2 SWAP1 PUSH2 0x3384 JUMP JUMPDEST PUSH2 0x15A PUSH2 0x3DF CALLDATASIZE PUSH1 0x4 PUSH2 0x3140 JUMP JUMPDEST PUSH2 0x186D JUMP JUMPDEST PUSH2 0x3C4 PUSH2 0x1DEE JUMP JUMPDEST PUSH2 0xFFFF DUP2 AND PUSH1 0x0 SWAP1 DUP2 MSTORE PUSH1 0xC PUSH1 0x20 MSTORE PUSH1 0x40 DUP2 KECCAK256 DUP1 SLOAD SWAP1 SWAP2 PUSH1 0x1 PUSH1 0x1 PUSH1 0x40 SHL SUB SWAP1 SWAP2 AND SWAP1 SUB PUSH2 0x435 JUMPI PUSH1 0x40 MLOAD PUSH3 0x461BCD PUSH1 0xE5 SHL DUP2 MSTORE PUSH1 0x4 ADD PUSH2 0x42C SWAP1 PUSH2 0x33E6 JUMP JUMPDEST PUSH1 0x40 MLOAD DUP1 SWAP2 SUB SWAP1 REVERT JUMPDEST PUSH1 0x1 DUP1 DUP3 ADD SLOAD PUSH1 0x1 PUSH1 0xF8 SHL SWAP1 DIV PUSH1 0xFF AND PUSH1 0x5 DUP2 GT ISZERO PUSH2 0x456 JUMPI PUSH2 0x456 PUSH2 0x2E55 JUMP JUMPDEST EQ DUP1 ISZERO PUSH2 0x46D JUMPI POP PUSH2 0x46D PUSH1 0x8 PUSH2 0xFFFF DUP5 AND PUSH2 0x1DFD JUMP JUMPDEST PUSH2 0x4B9 JUMPI PUSH1 0x40 MLOAD PUSH3 0x461BCD PUSH1 0xE5 SHL DUP2 MSTORE PUSH1 0x20 PUSH1 0x4 DUP3 ADD DUP2 SWAP1 MSTORE PUSH1 0x24 DUP3 ADD MSTORE PUSH32 0x70726F706F73616C206973206E6F742063757272656E746C7920616374697665 PUSH1 0x44 DUP3 ADD MSTORE PUSH1 0x64 ADD PUSH2 0x42C JUMP JUMPDEST DUP1 SLOAD PUSH1 0x1 PUSH1 0x1 PUSH1 0x40 SHL SUB PUSH1 0x1 PUSH1 0x80 SHL SWAP1 SWAP2 DIV DUP2 AND TIMESTAMP SWAP1 SWAP2 AND GT PUSH2 0x52A JUMPI PUSH1 0x40 MLOAD PUSH3 0x461BCD PUSH1 0xE5 SHL DUP2 MSTORE PUSH1 0x20 PUSH1 0x4 DUP3 ADD MSTORE PUSH1 0x23 PUSH1 0x24 DUP3 ADD MSTORE PUSH32 0x766F74696E67206973206F6E676F696E6720666F7220746869732070726F706F PUSH1 0x44 DUP3 ADD MSTORE PUSH3 0x1CD85B PUSH1 0xEA SHL PUSH1 0x64 DUP3 ADD MSTORE PUSH1 0x84 ADD PUSH2 0x42C JUMP JUMPDEST PUSH1 0x0 DUP1 PUSH1 0x0 PUSH2 0x538 DUP5 PUSH2 0x1E18 JUMP JUMPDEST PUSH1 0x1 DUP8 ADD SLOAD DUP8 SLOAD SWAP4 SWAP7 POP SWAP2 SWAP5 POP SWAP3 POP PUSH1 0x1 PUSH1 0x1 PUSH1 0x40 SHL SUB DUP1 DUP3 AND SWAP3 PUSH1 0x1 PUSH1 0xC0 SHL SWAP1 DIV AND SWAP1 PUSH2 0x56F SWAP1 PUSH1 0x1 PUSH1 0x50 SHL SWAP1 DIV PUSH1 0xFF AND PUSH2 0x1F32 JUMP JUMPDEST ISZERO PUSH2 0x598 JUMPI PUSH1 0x0 PUSH2 0x57E PUSH2 0x204F JUMP JUMPDEST DUP1 MLOAD PUSH1 0x40 SWAP1 SWAP2 ADD MLOAD PUSH1 0x1 PUSH1 0x1 PUSH1 0x40 SHL SUB SWAP2 DUP3 AND SWAP5 POP AND SWAP2 POP POP JUMPDEST PUSH1 0x0 DUP4 PUSH2 0x5A5 DUP7 DUP9 PUSH2 0x3433 JUMP JUMPDEST PUSH2 0x5AF SWAP2 SWAP1 PUSH2 0x3433 JUMP JUMPDEST SWAP1 POP DUP3 DUP2 LT ISZERO PUSH2 0x63A JUMPI PUSH1 0x1 DUP8 ADD DUP1 SLOAD PUSH1 0x1 PUSH1 0x1 PUSH1 0xF8 SHL SUB AND PUSH1 0x1 PUSH1 0xF9 SHL OR SWAP1 SSTORE PUSH2 0x5DF PUSH1 0x8 PUSH2 0xFFFF DUP11 AND PUSH2 0x20F5 JUMP JUMPDEST POP DUP8 PUSH2 0xFFFF AND PUSH32 0xADB6BD5B3AF9AA1786CC943A70A5C9652675FEAA93103347576F7F654AEB1505 DUP9 PUSH1 0x1 ADD PUSH1 0x1F SWAP1 SLOAD SWAP1 PUSH2 0x100 EXP SWAP1 DIV PUSH1 0xFF AND PUSH1 0x1 PUSH1 0x40 MLOAD PUSH2 0x628 SWAP3 SWAP2 SWAP1 PUSH2 0x3446 JUMP JUMPDEST PUSH1 0x40 MLOAD DUP1 SWAP2 SUB SWAP1 LOG2 POP POP POP POP POP POP POP POP JUMP JUMPDEST PUSH1 0x0 DUP1 PUSH2 0x647 DUP8 DUP10 PUSH2 0x3433 JUMP JUMPDEST GT ISZERO PUSH2 0x664 JUMPI PUSH2 0x661 PUSH2 0x65A DUP8 DUP10 PUSH2 0x3433 JUMP JUMPDEST DUP9 SWAP1 PUSH2 0x2101 JUMP JUMPDEST SWAP1 POP JUMPDEST PUSH1 0x0 DUP4 DUP3 LT PUSH2 0x69C JUMPI POP PUSH1 0x1 DUP9 ADD DUP1 SLOAD PUSH1 0x1 PUSH1 0x1 PUSH1 0xF8 SHL SUB AND PUSH1 0x3 PUSH1 0xF8 SHL OR SWAP1 SSTORE PUSH1 0x3 PUSH2 0x696 PUSH1 0xA PUSH2 0xFFFF DUP13 AND PUSH2 0x2120 JUMP JUMPDEST POP PUSH2 0x6B7 JUMP JUMPDEST POP PUSH1 0x1 DUP9 ADD DUP1 SLOAD PUSH1 0x1 PUSH1 0x1 PUSH1 0xF8 SHL SUB AND PUSH1 0x1 PUSH1 0xF9 SHL OR SWAP1 SSTORE PUSH1 0x2 JUMPDEST PUSH2 0x6C6 PUSH1 0x8 PUSH2 0xFFFF DUP13 AND PUSH2 0x20F5 JUMP JUMPDEST POP PUSH1 0x1 DUP10 ADD SLOAD PUSH1 0x40 MLOAD PUSH2 0xFFFF DUP13 AND SWAP2 PUSH32 0xADB6BD5B3AF9AA1786CC943A70A5C9652675FEAA93103347576F7F654AEB1505 SWAP2 PUSH2 0x70D SWAP2 PUSH1 0x1 PUSH1 0xF8 SHL SWAP1 DIV PUSH1 0xFF AND SWAP1 DUP6 SWAP1 PUSH2 0x3446 JUMP JUMPDEST PUSH1 0x40 MLOAD DUP1 SWAP2 SUB SWAP1 LOG2 POP POP POP POP POP POP POP POP POP POP JUMP JUMPDEST PUSH2 0x729 PUSH2 0x2DCF JUMP JUMPDEST PUSH2 0xFFFF DUP1 DUP4 AND PUSH1 0x0 SWAP1 DUP2 MSTORE PUSH1 0xC PUSH1 0x20 SWAP1 DUP2 MSTORE PUSH1 0x40 SWAP2 DUP3 SWAP1 KECCAK256 DUP3 MLOAD PUSH2 0x140 DUP2 ADD DUP5 MSTORE DUP2 SLOAD PUSH1 0x1 PUSH1 0x1 PUSH1 0x40 SHL SUB DUP1 DUP3 AND DUP4 MSTORE PUSH1 0x1 PUSH1 0x40 SHL DUP1 DUP4 DIV DUP3 AND SWAP6 DUP5 ADD SWAP6 SWAP1 SWAP6 MSTORE PUSH1 0x1 PUSH1 0x80 SHL DUP3 DIV DUP2 AND SWAP6 DUP4 ADD SWAP6 SWAP1 SWAP6 MSTORE PUSH1 0x1 PUSH1 0xC0 SHL SWAP1 DIV DUP5 AND PUSH1 0x60 DUP3 ADD MSTORE PUSH1 0x1 DUP3 ADD SLOAD SWAP4 DUP5 AND PUSH1 0x80 DUP3 ADD MSTORE SWAP2 DUP4 DIV SWAP1 SWAP4 AND PUSH1 0xA0 DUP3 ADD MSTORE PUSH1 0xFF PUSH1 0x1 PUSH1 0x50 SHL DUP4 DIV DUP2 AND PUSH1 0xC0 DUP4 ADD MSTORE PUSH1 0x1 PUSH1 0x1 PUSH1 0xA0 SHL SUB PUSH1 0x1 PUSH1 0x58 SHL DUP5 DIV AND PUSH1 0xE0 DUP4 ADD MSTORE SWAP1 SWAP3 SWAP2 PUSH2 0x100 DUP5 ADD SWAP2 PUSH1 0x1 PUSH1 0xF8 SHL SWAP1 SWAP2 DIV AND PUSH1 0x5 DUP2 GT ISZERO PUSH2 0x7E8 JUMPI PUSH2 0x7E8 PUSH2 0x2E55 JUMP JUMPDEST PUSH1 0x5 DUP2 GT ISZERO PUSH2 0x7F9 JUMPI PUSH2 0x7F9 PUSH2 0x2E55 JUMP JUMPDEST DUP2 MSTORE PUSH1 0x20 ADD PUSH1 0x2 DUP3 ADD DUP1 SLOAD DUP1 PUSH1 0x20 MUL PUSH1 0x20 ADD PUSH1 0x40 MLOAD SWAP1 DUP2 ADD PUSH1 0x40 MSTORE DUP1 SWAP3 SWAP2 SWAP1 DUP2 DUP2 MSTORE PUSH1 0x20 ADD PUSH1 0x0 SWAP1 JUMPDEST DUP3 DUP3 LT ISZERO PUSH2 0x8FB JUMPI PUSH1 0x0 DUP5 DUP2 MSTORE PUSH1 0x20 SWAP1 DUP2 SWAP1 KECCAK256 PUSH1 0x40 DUP1 MLOAD DUP1 DUP3 ADD SWAP1 SWAP2 MSTORE PUSH1 0x2 DUP6 MUL SWAP1 SWAP2 ADD DUP1 SLOAD PUSH1 0x1 PUSH1 0x1 PUSH1 0xA0 SHL SUB AND DUP3 MSTORE PUSH1 0x1 DUP2 ADD DUP1 SLOAD SWAP3 SWAP4 SWAP2 SWAP3 SWAP2 DUP5 ADD SWAP2 PUSH2 0x86A SWAP1 PUSH2 0x346A JUMP JUMPDEST DUP1 PUSH1 0x1F ADD PUSH1 0x20 DUP1 SWAP2 DIV MUL PUSH1 0x20 ADD PUSH1 0x40 MLOAD SWAP1 DUP2 ADD PUSH1 0x40 MSTORE DUP1 SWAP3 SWAP2 SWAP1 DUP2 DUP2 MSTORE PUSH1 0x20 ADD DUP3 DUP1 SLOAD PUSH2 0x896 SWAP1 PUSH2 0x346A JUMP JUMPDEST DUP1 ISZERO PUSH2 0x8E3 JUMPI DUP1 PUSH1 0x1F LT PUSH2 0x8B8 JUMPI PUSH2 0x100 DUP1 DUP4 SLOAD DIV MUL DUP4 MSTORE SWAP2 PUSH1 0x20 ADD SWAP2 PUSH2 0x8E3 JUMP JUMPDEST DUP3 ADD SWAP2 SWAP1 PUSH1 0x0 MSTORE PUSH1 0x20 PUSH1 0x0 KECCAK256 SWAP1 JUMPDEST DUP2 SLOAD DUP2 MSTORE SWAP1 PUSH1 0x1 ADD SWAP1 PUSH1 0x20 ADD DUP1 DUP4 GT PUSH2 0x8C6 JUMPI DUP3 SWAP1 SUB PUSH1 0x1F AND DUP3 ADD SWAP2 JUMPDEST POP POP POP POP POP DUP2 MSTORE POP POP DUP2 MSTORE PUSH1 0x20 ADD SWAP1 PUSH1 0x1 ADD SWAP1 PUSH2 0x822 JUMP JUMPDEST POP POP POP SWAP2 MSTORE POP SWAP1 SWAP4 SWAP3 POP POP POP JUMP JUMPDEST CALLER PUSH1 0x1 PUSH1 0x1 PUSH1 0xA0 SHL SUB PUSH32 0x0 AND EQ PUSH2 0x983 JUMPI PUSH1 0x40 MLOAD PUSH4 0xC55DDC97 PUSH1 0xE0 SHL DUP2 MSTORE CALLER PUSH1 0x4 DUP3 ADD MSTORE PUSH1 0x1 PUSH1 0x1 PUSH1 0xA0 SHL SUB PUSH32 0x0 AND PUSH1 0x24 DUP3 ADD MSTORE PUSH1 0x44 ADD PUSH2 0x42C JUMP JUMPDEST PUSH1 0x1 SLOAD TIMESTAMP LT PUSH2 0x9A5 JUMPI PUSH1 0x40 MLOAD PUSH4 0x7DB668C9 PUSH1 0xE1 SHL DUP2 MSTORE PUSH1 0x4 ADD PUSH1 0x40 MLOAD DUP1 SWAP2 SUB SWAP1 REVERT JUMPDEST PUSH2 0xFFFF DUP2 AND PUSH1 0x0 SWAP1 DUP2 MSTORE PUSH1 0xC PUSH1 0x20 MSTORE PUSH1 0x40 SWAP1 KECCAK256 DUP1 SLOAD PUSH1 0x1 PUSH1 0x1 PUSH1 0x40 SHL SUB AND PUSH2 0x9DF JUMPI PUSH1 0x40 MLOAD PUSH3 0x461BCD PUSH1 0xE5 SHL DUP2 MSTORE PUSH1 0x4 ADD PUSH2 0x42C SWAP1 PUSH2 0x33E6 JUMP JUMPDEST PUSH1 0x1 DUP1 DUP3 ADD SLOAD PUSH1 0x1 PUSH1 0xF8 SHL SWAP1 DIV PUSH1 0xFF AND PUSH1 0x5 DUP2 GT ISZERO PUSH2 0xA00 JUMPI PUSH2 0xA00 PUSH2 0x2E55 JUMP JUMPDEST EQ DUP1 PUSH2 0xA2B JUMPI POP PUSH1 0x3 PUSH1 0x1 DUP3 ADD SLOAD PUSH1 0x1 PUSH1 0xF8 SHL SWAP1 DIV PUSH1 0xFF AND PUSH1 0x5 DUP2 GT ISZERO PUSH2 0xA29 JUMPI PUSH2 0xA29 PUSH2 0x2E55 JUMP JUMPDEST EQ JUMPDEST PUSH2 0xA81 JUMPI PUSH1 0x40 MLOAD PUSH3 0x461BCD PUSH1 0xE5 SHL DUP2 MSTORE PUSH1 0x20 PUSH1 0x4 DUP3 ADD MSTORE PUSH1 0x21 PUSH1 0x24 DUP3 ADD MSTORE PUSH32 0x70726F706F73616C206D75737420626520616374697665206F72207175657565 PUSH1 0x44 DUP3 ADD MSTORE PUSH1 0x19 PUSH1 0xFA SHL PUSH1 0x64 DUP3 ADD MSTORE PUSH1 0x84 ADD PUSH2 0x42C JUMP JUMPDEST PUSH1 0x1 DUP2 ADD DUP1 SLOAD PUSH1 0x1 PUSH1 0x1 PUSH1 0xF8 SHL SUB AND PUSH1 0x5 PUSH1 0xF8 SHL OR SWAP1 SSTORE PUSH2 0xAA7 PUSH1 0x8 PUSH2 0xFFFF DUP5 AND PUSH2 0x20F5 JUMP JUMPDEST POP PUSH2 0xAB7 PUSH1 0xA PUSH2 0xFFFF DUP5 AND PUSH2 0x20F5 JUMP JUMPDEST POP PUSH1 0x40 MLOAD PUSH2 0xFFFF DUP4 AND SWAP1 PUSH32 0xB9016057E49C23C7ED1248A5F032D78553A8FD91D47430235AD549FF2E4C4C01 SWAP1 PUSH1 0x0 SWAP1 LOG2 POP POP JUMP JUMPDEST PUSH2 0xB0F PUSH1 0x40 MLOAD DUP1 PUSH1 0x60 ADD PUSH1 0x40 MSTORE DUP1 PUSH1 0x60 DUP2 MSTORE PUSH1 0x20 ADD PUSH1 0x60 DUP2 MSTORE PUSH1 0x20 ADD PUSH1 0x60 DUP2 MSTORE POP SWAP1 JUMP JUMPDEST PUSH2 0xFFFF DUP3 AND PUSH1 0x0 SWAP1 DUP2 MSTORE PUSH1 0xF PUSH1 0x20 MSTORE PUSH1 0x40 SWAP1 KECCAK256 PUSH2 0xB2B SWAP1 PUSH2 0x212C JUMP JUMPDEST SWAP3 SWAP2 POP POP JUMP JUMPDEST PUSH2 0xFFFF DUP3 AND PUSH1 0x0 SWAP1 DUP2 MSTORE PUSH1 0xC PUSH1 0x20 MSTORE PUSH1 0x40 DUP2 KECCAK256 DUP1 SLOAD SWAP1 SWAP2 PUSH1 0x1 PUSH1 0x1 PUSH1 0x40 SHL SUB SWAP1 SWAP2 AND SWAP1 SUB PUSH2 0xB71 JUMPI PUSH1 0x40 MLOAD PUSH3 0x461BCD PUSH1 0xE5 SHL DUP2 MSTORE PUSH1 0x4 ADD PUSH2 0x42C SWAP1 PUSH2 0x33E6 JUMP JUMPDEST DUP1 SLOAD PUSH1 0x1 PUSH1 0x1 PUSH1 0x40 SHL SUB AND TIMESTAMP GT PUSH2 0xBC3 JUMPI PUSH1 0x40 MLOAD PUSH3 0x461BCD PUSH1 0xE5 SHL DUP2 MSTORE PUSH1 0x20 PUSH1 0x4 DUP3 ADD MSTORE PUSH1 0x16 PUSH1 0x24 DUP3 ADD MSTORE PUSH22 0x1D9BDD1A5B99C81A185CC81B9BDD081CDD185C9D1959 PUSH1 0x52 SHL PUSH1 0x44 DUP3 ADD MSTORE PUSH1 0x64 ADD PUSH2 0x42C JUMP JUMPDEST DUP1 SLOAD PUSH1 0x1 PUSH1 0x1 PUSH1 0x40 SHL SUB TIMESTAMP DUP2 AND PUSH1 0x1 PUSH1 0x80 SHL SWAP1 SWAP3 DIV AND GT PUSH2 0xC30 JUMPI PUSH1 0x40 MLOAD PUSH3 0x461BCD PUSH1 0xE5 SHL DUP2 MSTORE PUSH1 0x20 PUSH1 0x4 DUP3 ADD MSTORE PUSH1 0x21 PUSH1 0x24 DUP3 ADD MSTORE PUSH32 0x766F74696E6720697320636C6F736564206F6E20746869732070726F706F7361 PUSH1 0x44 DUP3 ADD MSTORE PUSH1 0x1B PUSH1 0xFA SHL PUSH1 0x64 DUP3 ADD MSTORE PUSH1 0x84 ADD PUSH2 0x42C JUMP JUMPDEST PUSH1 0x0 DUP3 PUSH1 0x3 DUP2 GT ISZERO PUSH2 0xC44 JUMPI PUSH2 0xC44 PUSH2 0x2E55 JUMP JUMPDEST SUB PUSH2 0xCA6 JUMPI PUSH1 0x40 MLOAD PUSH3 0x461BCD PUSH1 0xE5 SHL DUP2 MSTORE PUSH1 0x20 PUSH1 0x4 DUP3 ADD MSTORE PUSH1 0x2C PUSH1 0x24 DUP3 ADD MSTORE PUSH32 0x62616C6C6F74206D757374206265206361737420466F722C20416761696E7374 PUSH1 0x44 DUP3 ADD MSTORE PUSH12 0x161037B91020B139BA30B4B7 PUSH1 0xA1 SHL PUSH1 0x64 DUP3 ADD MSTORE PUSH1 0x84 ADD PUSH2 0x42C JUMP JUMPDEST PUSH2 0xFFFF DUP4 AND PUSH1 0x0 SWAP1 DUP2 MSTORE PUSH1 0xD PUSH1 0x20 SWAP1 DUP2 MSTORE PUSH1 0x40 DUP1 DUP4 KECCAK256 DUP1 SLOAD DUP3 MLOAD DUP2 DUP6 MUL DUP2 ADD DUP6 ADD SWAP1 SWAP4 MSTORE DUP1 DUP4 MSTORE SWAP2 SWAP3 SWAP1 SWAP2 SWAP1 DUP5 SWAP1 DUP5 ADD JUMPDEST DUP3 DUP3 LT ISZERO PUSH2 0xD2C JUMPI PUSH1 0x0 DUP5 DUP2 MSTORE PUSH1 0x20 SWAP1 DUP2 SWAP1 KECCAK256 PUSH1 0x40 DUP1 MLOAD PUSH1 0x60 DUP2 ADD DUP3 MSTORE PUSH1 0x3 DUP7 MUL SWAP1 SWAP3 ADD DUP1 SLOAD PUSH1 0x1 PUSH1 0x1 PUSH1 0xA0 SHL SUB AND DUP4 MSTORE PUSH1 0x1 DUP1 DUP3 ADD SLOAD DUP5 DUP7 ADD MSTORE PUSH1 0x2 SWAP1 SWAP2 ADD SLOAD SWAP2 DUP4 ADD SWAP2 SWAP1 SWAP2 MSTORE SWAP1 DUP4 MSTORE SWAP1 SWAP3 ADD SWAP2 ADD PUSH2 0xCD7 JUMP JUMPDEST POP POP DUP5 SLOAD SWAP3 SWAP4 POP PUSH1 0x0 SWAP3 PUSH1 0x1 PUSH1 0x1 PUSH1 0xA0 SHL SUB PUSH32 0x0 AND SWAP3 POP PUSH4 0xA10202FC SWAP2 POP CALLER SWAP1 PUSH1 0x1 PUSH1 0x1 PUSH1 0x40 SHL SUB AND PUSH2 0xD7D DUP7 PUSH2 0x21C9 JUMP JUMPDEST PUSH1 0x40 MLOAD DUP5 PUSH4 0xFFFFFFFF AND PUSH1 0xE0 SHL DUP2 MSTORE PUSH1 0x4 ADD PUSH2 0xD9B SWAP4 SWAP3 SWAP2 SWAP1 PUSH2 0x34A4 JUMP JUMPDEST PUSH1 0x0 PUSH1 0x40 MLOAD DUP1 DUP4 SUB DUP2 DUP7 GAS STATICCALL ISZERO DUP1 ISZERO PUSH2 0xDB8 JUMPI RETURNDATASIZE PUSH1 0x0 DUP1 RETURNDATACOPY RETURNDATASIZE PUSH1 0x0 REVERT JUMPDEST POP POP POP POP PUSH1 0x40 MLOAD RETURNDATASIZE PUSH1 0x0 DUP3 RETURNDATACOPY PUSH1 0x1F RETURNDATASIZE SWAP1 DUP2 ADD PUSH1 0x1F NOT AND DUP3 ADD PUSH1 0x40 MSTORE PUSH2 0xDE0 SWAP2 SWAP1 DUP2 ADD SWAP1 PUSH2 0x3531 JUMP JUMPDEST CALLER PUSH1 0x0 SWAP1 DUP2 MSTORE PUSH1 0xE PUSH1 0x20 SWAP1 DUP2 MSTORE PUSH1 0x40 DUP1 DUP4 KECCAK256 PUSH2 0xFFFF DUP11 AND DUP5 MSTORE SWAP1 SWAP2 MSTORE DUP2 KECCAK256 SLOAD SWAP2 SWAP3 POP PUSH1 0xFF SWAP1 SWAP2 AND SWAP1 DUP1 DUP3 PUSH1 0x3 DUP2 GT ISZERO PUSH2 0xE1B JUMPI PUSH2 0xE1B PUSH2 0x2E55 JUMP JUMPDEST EQ SWAP1 POP PUSH1 0x0 JUMPDEST DUP4 MLOAD DUP2 LT ISZERO PUSH2 0xF9F JUMPI PUSH1 0x0 DUP5 DUP3 DUP2 MLOAD DUP2 LT PUSH2 0xE3E JUMPI PUSH2 0xE3E PUSH2 0x35E9 JUMP JUMPDEST PUSH1 0x20 MUL PUSH1 0x20 ADD ADD MLOAD SWAP1 POP DUP3 PUSH2 0xF1A JUMPI DUP1 MLOAD PUSH2 0xFFFF DUP11 AND PUSH1 0x0 SWAP1 DUP2 MSTORE PUSH1 0xF PUSH1 0x20 MSTORE PUSH1 0x40 DUP2 KECCAK256 SWAP1 SWAP2 PUSH2 0xEA8 SWAP2 DUP4 DUP9 PUSH1 0x3 DUP2 GT ISZERO PUSH2 0xE7B JUMPI PUSH2 0xE7B PUSH2 0x2E55 JUMP JUMPDEST PUSH1 0x3 DUP2 GT ISZERO PUSH2 0xE8C JUMPI PUSH2 0xE8C PUSH2 0x2E55 JUMP JUMPDEST DUP2 MSTORE PUSH1 0x20 ADD SWAP1 DUP2 MSTORE PUSH1 0x20 ADD PUSH1 0x0 KECCAK256 PUSH2 0x2281 SWAP1 SWAP2 SWAP1 PUSH4 0xFFFFFFFF AND JUMP JUMPDEST SWAP2 POP POP PUSH2 0xF17 DUP3 PUSH1 0x0 ADD MLOAD DUP4 PUSH1 0x20 ADD MLOAD DUP4 PUSH2 0xEC3 SWAP2 SWAP1 PUSH2 0x35FF JUMP JUMPDEST PUSH2 0xFFFF DUP14 AND PUSH1 0x0 SWAP1 DUP2 MSTORE PUSH1 0xF PUSH1 0x20 MSTORE PUSH1 0x40 DUP2 KECCAK256 SWAP1 DUP10 PUSH1 0x3 DUP2 GT ISZERO PUSH2 0xEE9 JUMPI PUSH2 0xEE9 PUSH2 0x2E55 JUMP JUMPDEST PUSH1 0x3 DUP2 GT ISZERO PUSH2 0xEFA JUMPI PUSH2 0xEFA PUSH2 0x2E55 JUMP JUMPDEST DUP2 MSTORE PUSH1 0x20 ADD SWAP1 DUP2 MSTORE PUSH1 0x20 ADD PUSH1 0x0 KECCAK256 PUSH2 0x22A8 SWAP1 SWAP3 SWAP2 SWAP1 PUSH4 0xFFFFFFFF AND JUMP JUMPDEST POP POP JUMPDEST DUP1 MLOAD PUSH2 0xFFFF DUP11 AND PUSH1 0x0 SWAP1 DUP2 MSTORE PUSH1 0xF PUSH1 0x20 MSTORE PUSH1 0x40 DUP2 KECCAK256 SWAP1 SWAP2 PUSH2 0xF48 SWAP2 DUP4 DUP13 PUSH1 0x3 DUP2 GT ISZERO PUSH2 0xE7B JUMPI PUSH2 0xE7B PUSH2 0x2E55 JUMP JUMPDEST SWAP2 POP POP PUSH2 0xF89 DUP3 PUSH1 0x0 ADD MLOAD DUP4 PUSH1 0x20 ADD MLOAD DUP4 PUSH2 0xF63 SWAP2 SWAP1 PUSH2 0x3433 JUMP JUMPDEST PUSH2 0xFFFF DUP14 AND PUSH1 0x0 SWAP1 DUP2 MSTORE PUSH1 0xF PUSH1 0x20 MSTORE PUSH1 0x40 DUP2 KECCAK256 SWAP1 DUP14 PUSH1 0x3 DUP2 GT ISZERO PUSH2 0xEE9 JUMPI PUSH2 0xEE9 PUSH2 0x2E55 JUMP JUMPDEST POP POP POP DUP1 DUP1 PUSH2 0xF97 SWAP1 PUSH2 0x3612 JUMP JUMPDEST SWAP2 POP POP PUSH2 0xE21 JUMP JUMPDEST POP CALLER PUSH1 0x0 SWAP1 DUP2 MSTORE PUSH1 0xE PUSH1 0x20 SWAP1 DUP2 MSTORE PUSH1 0x40 DUP1 DUP4 KECCAK256 PUSH2 0xFFFF DUP12 AND DUP5 MSTORE SWAP1 SWAP2 MSTORE SWAP1 KECCAK256 DUP1 SLOAD DUP8 SWAP2 SWAP1 PUSH1 0xFF NOT AND PUSH1 0x1 DUP4 PUSH1 0x3 DUP2 GT ISZERO PUSH2 0xFDB JUMPI PUSH2 0xFDB PUSH2 0x2E55 JUMP JUMPDEST MUL OR SWAP1 SSTORE POP DUP7 PUSH2 0xFFFF AND PUSH32 0x813D5173493E8596AFC161A427C2269FC55FEF4BF9D9BA4FFF5E095D569A2DDC CALLER DUP9 PUSH1 0x40 MLOAD PUSH2 0x1016 SWAP3 SWAP2 SWAP1 PUSH2 0x362B JUMP JUMPDEST PUSH1 0x40 MLOAD DUP1 SWAP2 SUB SWAP1 LOG2 POP POP POP POP POP POP POP JUMP JUMPDEST CALLER ADDRESS EQ PUSH2 0x104F JUMPI PUSH1 0x40 MLOAD PUSH4 0xC55DDC97 PUSH1 0xE0 SHL DUP2 MSTORE CALLER PUSH1 0x4 DUP3 ADD MSTORE ADDRESS PUSH1 0x24 DUP3 ADD MSTORE PUSH1 0x44 ADD PUSH2 0x42C JUMP JUMPDEST TIMESTAMP PUSH1 0x1 SSTORE PUSH1 0x40 MLOAD PUSH32 0xFB6CD192BA87532AA2E092FC504EB1973196D5F6E0B909AD70EB28810A51A499 SWAP1 PUSH1 0x0 SWAP1 LOG1 JUMP JUMPDEST PUSH2 0xFFFF DUP2 AND PUSH1 0x0 SWAP1 DUP2 MSTORE PUSH1 0xC PUSH1 0x20 MSTORE PUSH1 0x40 SWAP1 KECCAK256 DUP1 SLOAD PUSH1 0x1 PUSH1 0x1 PUSH1 0x40 SHL SUB AND PUSH2 0x10B8 JUMPI PUSH1 0x40 MLOAD PUSH3 0x461BCD PUSH1 0xE5 SHL DUP2 MSTORE PUSH1 0x4 ADD PUSH2 0x42C SWAP1 PUSH2 0x33E6 JUMP JUMPDEST PUSH1 0x3 PUSH1 0x1 DUP3 ADD SLOAD PUSH1 0x1 PUSH1 0xF8 SHL SWAP1 DIV PUSH1 0xFF AND PUSH1 0x5 DUP2 GT ISZERO PUSH2 0x10DA JUMPI PUSH2 0x10DA PUSH2 0x2E55 JUMP JUMPDEST EQ DUP1 ISZERO PUSH2 0x10F1 JUMPI POP PUSH2 0x10F1 PUSH1 0xA PUSH2 0xFFFF DUP5 AND PUSH2 0x1DFD JUMP JUMPDEST DUP1 ISZERO PUSH2 0x1112 JUMPI POP DUP1 SLOAD PUSH1 0x1 PUSH1 0x1 PUSH1 0x40 SHL SUB PUSH1 0x1 PUSH1 0x40 SHL SWAP1 SWAP2 DIV DUP2 AND TIMESTAMP SWAP1 SWAP2 AND GT JUMPDEST PUSH2 0x1173 JUMPI PUSH1 0x40 MLOAD PUSH3 0x461BCD PUSH1 0xE5 SHL DUP2 MSTORE PUSH1 0x20 PUSH1 0x4 DUP3 ADD MSTORE PUSH1 0x2C PUSH1 0x24 DUP3 ADD MSTORE PUSH32 0x70726F706F73616C206D7573742062652071756575656420616E642072656164 PUSH1 0x44 DUP3 ADD MSTORE PUSH12 0x7920746F2065786563757465 PUSH1 0xA0 SHL PUSH1 0x64 DUP3 ADD MSTORE PUSH1 0x84 ADD PUSH2 0x42C JUMP JUMPDEST PUSH1 0x0 JUMPDEST PUSH1 0x2 DUP3 ADD SLOAD DUP2 LT ISZERO PUSH2 0x12AF JUMPI PUSH2 0x129C DUP3 PUSH1 0x2 ADD DUP3 DUP2 SLOAD DUP2 LT PUSH2 0x119A JUMPI PUSH2 0x119A PUSH2 0x35E9 JUMP JUMPDEST SWAP1 PUSH1 0x0 MSTORE PUSH1 0x20 PUSH1 0x0 KECCAK256 SWAP1 PUSH1 0x2 MUL ADD PUSH1 0x1 ADD DUP1 SLOAD PUSH2 0x11B6 SWAP1 PUSH2 0x346A JUMP JUMPDEST DUP1 PUSH1 0x1F ADD PUSH1 0x20 DUP1 SWAP2 DIV MUL PUSH1 0x20 ADD PUSH1 0x40 MLOAD SWAP1 DUP2 ADD PUSH1 0x40 MSTORE DUP1 SWAP3 SWAP2 SWAP1 DUP2 DUP2 MSTORE PUSH1 0x20 ADD DUP3 DUP1 SLOAD PUSH2 0x11E2 SWAP1 PUSH2 0x346A JUMP JUMPDEST DUP1 ISZERO PUSH2 0x122F JUMPI DUP1 PUSH1 0x1F LT PUSH2 0x1204 JUMPI PUSH2 0x100 DUP1 DUP4 SLOAD DIV MUL DUP4 MSTORE SWAP2 PUSH1 0x20 ADD SWAP2 PUSH2 0x122F JUMP JUMPDEST DUP3 ADD SWAP2 SWAP1 PUSH1 0x0 MSTORE PUSH1 0x20 PUSH1 0x0 KECCAK256 SWAP1 JUMPDEST DUP2 SLOAD DUP2 MSTORE SWAP1 PUSH1 0x1 ADD SWAP1 PUSH1 0x20 ADD DUP1 DUP4 GT PUSH2 0x1212 JUMPI DUP3 SWAP1 SUB PUSH1 0x1F AND DUP3 ADD SWAP2 JUMPDEST POP POP POP POP POP PUSH1 0x40 MLOAD DUP1 PUSH1 0x40 ADD PUSH1 0x40 MSTORE DUP1 PUSH1 0x19 DUP2 MSTORE PUSH1 0x20 ADD PUSH25 0x1C1C9BDC1BDCD85B08195E1958DD5D1A5BDB8819985A5B1959 PUSH1 0x3A SHL DUP2 MSTORE POP DUP5 PUSH1 0x2 ADD DUP5 DUP2 SLOAD DUP2 LT PUSH2 0x127B JUMPI PUSH2 0x127B PUSH2 0x35E9 JUMP JUMPDEST PUSH1 0x0 SWAP2 DUP3 MSTORE PUSH1 0x20 SWAP1 SWAP2 KECCAK256 PUSH1 0x2 SWAP1 SWAP2 MUL ADD SLOAD PUSH1 0x1 PUSH1 0x1 PUSH1 0xA0 SHL SUB AND SWAP2 SWAP1 PUSH2 0x22C6 JUMP JUMPDEST POP DUP1 PUSH2 0x12A7 DUP2 PUSH2 0x3612 JUMP JUMPDEST SWAP2 POP POP PUSH2 0x1176 JUMP JUMPDEST POP PUSH1 0x1 DUP2 ADD DUP1 SLOAD PUSH1 0x1 PUSH1 0x1 PUSH1 0xF8 SHL SUB AND PUSH1 0x1 PUSH1 0xFA SHL OR SWAP1 SSTORE PUSH2 0x12D6 PUSH1 0xA PUSH2 0xFFFF DUP5 AND PUSH2 0x20F5 JUMP JUMPDEST POP PUSH1 0x40 MLOAD PUSH2 0xFFFF DUP4 AND SWAP1 PUSH32 0x92A8E27A614D1092A0E536CF3DB1DF4965FD891FE65492C53CCA79DFFB5419A8 SWAP1 PUSH1 0x0 SWAP1 LOG2 POP POP JUMP JUMPDEST CALLER PUSH1 0x1 PUSH1 0x1 PUSH1 0xA0 SHL SUB PUSH32 0x0 AND EQ PUSH2 0x1384 JUMPI PUSH1 0x40 MLOAD PUSH4 0xC55DDC97 PUSH1 0xE0 SHL DUP2 MSTORE CALLER PUSH1 0x4 DUP3 ADD MSTORE PUSH1 0x1 PUSH1 0x1 PUSH1 0xA0 SHL SUB PUSH32 0x0 AND PUSH1 0x24 DUP3 ADD MSTORE PUSH1 0x44 ADD PUSH2 0x42C JUMP JUMPDEST PUSH1 0x1 SLOAD TIMESTAMP LT PUSH2 0x13A6 JUMPI PUSH1 0x40 MLOAD PUSH4 0x7DB668C9 PUSH1 0xE1 SHL DUP2 MSTORE PUSH1 0x4 ADD PUSH1 0x40 MLOAD DUP1 SWAP2 SUB SWAP1 REVERT JUMPDEST PUSH1 0x7 DUP1 SLOAD PUSH1 0x0 SWAP2 PUSH2 0xFFFF SWAP1 SWAP2 AND SWAP1 DUP3 PUSH2 0x13BE DUP4 PUSH2 0x3644 JUMP JUMPDEST DUP3 SLOAD PUSH2 0x100 SWAP3 SWAP1 SWAP3 EXP PUSH2 0xFFFF DUP2 DUP2 MUL NOT SWAP1 SWAP4 AND SWAP2 DUP4 AND MUL OR SWAP1 SWAP2 SSTORE DUP2 AND PUSH1 0x0 DUP2 DUP2 MSTORE PUSH1 0xC PUSH1 0x20 MSTORE PUSH1 0x40 SWAP1 KECCAK256 PUSH1 0x1 DUP2 ADD DUP1 SLOAD PUSH3 0xFF0001 PUSH1 0x40 SHL PUSH1 0x1 PUSH1 0xF8 SHL SUB NOT AND PUSH1 0x1 PUSH1 0x40 SHL SWAP4 DUP5 MUL PUSH1 0x1 PUSH1 0x58 SHL PUSH1 0x1 PUSH1 0xF8 SHL SUB NOT AND OR CALLER PUSH1 0x1 PUSH1 0x58 SHL MUL OR DUP1 DUP3 SSTORE DUP3 SLOAD PUSH24 0xFFFFFFFFFFFFFFFF0000000000000000FFFFFFFFFFFFFFFF NOT AND TIMESTAMP PUSH1 0x1 PUSH1 0x1 PUSH1 0x40 SHL SUB AND SWAP1 DUP2 OR PUSH1 0x1 PUSH1 0x80 SHL DUP3 MUL OR PUSH8 0xFFFFFFFFFFFFFFFF PUSH1 0x40 SHL NOT AND SWAP5 MUL SWAP4 SWAP1 SWAP4 OR DUP3 SSTORE SWAP3 SWAP4 POP SWAP2 PUSH1 0x4 SWAP2 PUSH1 0x1 PUSH1 0x1 PUSH1 0xF8 SHL SUB AND PUSH1 0x1 PUSH1 0xF8 SHL DUP4 MUL OR SWAP1 SSTORE POP PUSH1 0x1 DUP2 ADD DUP1 SLOAD PUSH8 0xFFFFFFFFFFFFFFFF NOT AND SWAP1 SSTORE DUP1 SLOAD PUSH1 0x1 PUSH1 0x1 PUSH1 0xC0 SHL SUB AND DUP2 SSTORE PUSH1 0x0 JUMPDEST DUP4 DUP2 LT ISZERO PUSH2 0x15A2 JUMPI PUSH1 0x0 DUP6 DUP6 DUP4 DUP2 DUP2 LT PUSH2 0x14C1 JUMPI PUSH2 0x14C1 PUSH2 0x35E9 JUMP JUMPDEST SWAP1 POP PUSH1 0x20 MUL DUP2 ADD SWAP1 PUSH2 0x14D3 SWAP2 SWAP1 PUSH2 0x3665 JUMP JUMPDEST PUSH2 0x14DC SWAP1 PUSH2 0x3735 JUMP JUMPDEST PUSH1 0x2 DUP5 DUP2 ADD DUP1 SLOAD PUSH1 0x1 DUP1 DUP3 ADD DUP4 SSTORE PUSH1 0x0 SWAP3 DUP4 MSTORE PUSH1 0x20 SWAP3 DUP4 SWAP1 KECCAK256 DUP6 MLOAD SWAP3 SWAP1 SWAP5 MUL SWAP1 SWAP4 ADD DUP1 SLOAD PUSH1 0x1 PUSH1 0x1 PUSH1 0xA0 SHL SUB NOT AND PUSH1 0x1 PUSH1 0x1 PUSH1 0xA0 SHL SUB SWAP1 SWAP3 AND SWAP2 SWAP1 SWAP2 OR DUP2 SSTORE SWAP1 DUP4 ADD MLOAD SWAP3 SWAP4 POP DUP4 SWAP3 SWAP1 SWAP2 DUP3 ADD SWAP1 PUSH2 0x1533 SWAP1 DUP3 PUSH2 0x378F JUMP JUMPDEST POP POP POP PUSH2 0x158D DUP2 PUSH1 0x20 ADD MLOAD PUSH1 0x40 MLOAD DUP1 PUSH1 0x40 ADD PUSH1 0x40 MSTORE DUP1 PUSH1 0x19 DUP2 MSTORE PUSH1 0x20 ADD PUSH25 0x1C1C9BDC1BDCD85B08195E1958DD5D1A5BDB8819985A5B1959 PUSH1 0x3A SHL DUP2 MSTORE POP DUP4 PUSH1 0x0 ADD MLOAD PUSH1 0x1 PUSH1 0x1 PUSH1 0xA0 SHL SUB AND PUSH2 0x22C6 SWAP1 SWAP3 SWAP2 SWAP1 PUSH4 0xFFFFFFFF AND JUMP JUMPDEST POP POP DUP1 DUP1 PUSH2 0x159A SWAP1 PUSH2 0x3612 JUMP JUMPDEST SWAP2 POP POP PUSH2 0x14A5 JUMP JUMPDEST POP DUP2 PUSH2 0xFFFF AND PUSH32 0x54F76BA363CE9B1888F218ED79D176B3564D604ADCDCA9EC308A7266C164AF34 CALLER DUP7 DUP7 PUSH1 0x40 MLOAD PUSH2 0x15DB SWAP4 SWAP3 SWAP2 SWAP1 PUSH2 0x384E JUMP JUMPDEST PUSH1 0x40 MLOAD DUP1 SWAP2 SUB SWAP1 LOG2 PUSH1 0x40 MLOAD PUSH2 0xFFFF DUP4 AND SWAP1 PUSH32 0x92A8E27A614D1092A0E536CF3DB1DF4965FD891FE65492C53CCA79DFFB5419A8 SWAP1 PUSH1 0x0 SWAP1 LOG2 POP POP POP POP JUMP JUMPDEST CALLER ADDRESS EQ PUSH2 0x1640 JUMPI PUSH1 0x40 MLOAD PUSH4 0xC55DDC97 PUSH1 0xE0 SHL DUP2 MSTORE CALLER PUSH1 0x4 DUP3 ADD MSTORE ADDRESS PUSH1 0x24 DUP3 ADD MSTORE PUSH1 0x44 ADD PUSH2 0x42C JUMP JUMPDEST DUP1 MLOAD PUSH1 0x3 DUP1 SLOAD PUSH1 0xFF NOT AND PUSH1 0xFF SWAP1 SWAP3 AND SWAP2 SWAP1 SWAP2 OR SWAP1 SSTORE PUSH1 0x20 DUP2 ADD MLOAD PUSH1 0x4 SSTORE PUSH1 0x40 DUP2 ADD MLOAD PUSH1 0x5 SSTORE PUSH1 0x60 ADD MLOAD PUSH1 0x6 DUP1 SLOAD PUSH1 0x1 PUSH1 0x1 PUSH1 0xA0 SHL SUB NOT AND PUSH1 0x1 PUSH1 0x1 PUSH1 0xA0 SHL SUB SWAP1 SWAP3 AND SWAP2 SWAP1 SWAP2 OR SWAP1 SSTORE JUMP JUMPDEST PUSH2 0xFFFF DUP2 AND PUSH1 0x0 SWAP1 DUP2 MSTORE PUSH1 0xC PUSH1 0x20 MSTORE PUSH1 0x40 DUP2 KECCAK256 DUP1 SLOAD DUP3 SWAP2 DUP3 SWAP2 PUSH1 0x1 PUSH1 0x1 PUSH1 0x40 SHL SUB AND DUP3 SUB PUSH2 0x16CA JUMPI PUSH1 0x40 MLOAD PUSH3 0x461BCD PUSH1 0xE5 SHL DUP2 MSTORE PUSH1 0x4 ADD PUSH2 0x42C SWAP1 PUSH2 0x33E6 JUMP JUMPDEST PUSH2 0x16D3 DUP2 PUSH2 0x1E18 JUMP JUMPDEST SWAP4 POP SWAP4 POP SWAP4 POP POP SWAP2 SWAP4 SWAP1 SWAP3 POP JUMP JUMPDEST PUSH1 0x0 SLOAD PUSH2 0x100 SWAP1 DIV PUSH1 0xFF AND ISZERO DUP1 DUP1 ISZERO PUSH2 0x1701 JUMPI POP PUSH1 0x0 SLOAD PUSH1 0x1 PUSH1 0xFF SWAP1 SWAP2 AND LT JUMPDEST DUP1 PUSH2 0x171B JUMPI POP ADDRESS EXTCODESIZE ISZERO DUP1 ISZERO PUSH2 0x171B JUMPI POP PUSH1 0x0 SLOAD PUSH1 0xFF AND PUSH1 0x1 EQ JUMPDEST PUSH2 0x177E JUMPI PUSH1 0x40 MLOAD PUSH3 0x461BCD PUSH1 0xE5 SHL DUP2 MSTORE PUSH1 0x20 PUSH1 0x4 DUP3 ADD MSTORE PUSH1 0x2E PUSH1 0x24 DUP3 ADD MSTORE PUSH32 0x496E697469616C697A61626C653A20636F6E747261637420697320616C726561 PUSH1 0x44 DUP3 ADD MSTORE PUSH14 0x191E481A5B9A5D1A585B1A5E9959 PUSH1 0x92 SHL PUSH1 0x64 DUP3 ADD MSTORE PUSH1 0x84 ADD PUSH2 0x42C JUMP JUMPDEST PUSH1 0x0 DUP1 SLOAD PUSH1 0xFF NOT AND PUSH1 0x1 OR SWAP1 SSTORE DUP1 ISZERO PUSH2 0x17A1 JUMPI PUSH1 0x0 DUP1 SLOAD PUSH2 0xFF00 NOT AND PUSH2 0x100 OR SWAP1 SSTORE JUMPDEST PUSH1 0x2 DUP1 SLOAD PUSH1 0x1 PUSH1 0x1 PUSH1 0xA0 SHL SUB DUP1 DUP7 AND PUSH1 0x1 PUSH1 0x1 PUSH1 0xA0 SHL SUB NOT SWAP3 DUP4 AND OR SWAP1 SWAP3 SSTORE DUP4 MLOAD PUSH1 0x3 DUP1 SLOAD PUSH1 0xFF SWAP1 SWAP3 AND PUSH1 0xFF NOT SWAP1 SWAP3 AND SWAP2 SWAP1 SWAP2 OR SWAP1 SSTORE PUSH1 0x20 DUP5 ADD MLOAD PUSH1 0x4 SSTORE PUSH1 0x40 DUP5 ADD MLOAD PUSH1 0x5 SSTORE PUSH1 0x60 DUP5 ADD MLOAD PUSH1 0x6 DUP1 SLOAD SWAP2 SWAP1 SWAP4 AND SWAP2 AND OR SWAP1 SSTORE PUSH2 0x1806 PUSH3 0x76A700 TIMESTAMP PUSH2 0x3433 JUMP JUMPDEST PUSH1 0x1 SSTORE DUP1 ISZERO PUSH2 0x184F JUMPI PUSH1 0x0 DUP1 SLOAD PUSH2 0xFF00 NOT AND SWAP1 SSTORE PUSH1 0x40 MLOAD PUSH1 0x1 DUP2 MSTORE PUSH32 0x7F26B83FF96E1F2B6A682F133852F6798A09C465DA95921460CEFB3847402498 SWAP1 PUSH1 0x20 ADD PUSH1 0x40 MLOAD DUP1 SWAP2 SUB SWAP1 LOG1 JUMPDEST POP POP POP JUMP JUMPDEST PUSH1 0x60 PUSH2 0x1868 PUSH2 0x1863 PUSH1 0xA PUSH2 0x22D5 JUMP JUMPDEST PUSH2 0x22E2 JUMP JUMPDEST SWAP1 POP SWAP1 JUMP JUMPDEST DUP1 PUSH2 0x18CB JUMPI PUSH1 0x40 MLOAD PUSH3 0x461BCD PUSH1 0xE5 SHL DUP2 MSTORE PUSH1 0x20 PUSH1 0x4 DUP3 ADD MSTORE PUSH1 0x28 PUSH1 0x24 DUP3 ADD MSTORE PUSH32 0x63616E6E6F742063726561746520612070726F706F73616C2077697468206E6F PUSH1 0x44 DUP3 ADD MSTORE PUSH8 0x20616374696F6E73 PUSH1 0xC0 SHL PUSH1 0x64 DUP3 ADD MSTORE PUSH1 0x84 ADD PUSH2 0x42C JUMP JUMPDEST PUSH1 0x0 PUSH2 0x18DF PUSH2 0x18DA DUP4 DUP6 PUSH2 0x393E JUMP JUMPDEST PUSH2 0x2573 JUMP JUMPDEST SWAP1 POP PUSH2 0x18EE DUP2 PUSH1 0xA0 ADD MLOAD PUSH2 0x1F32 JUMP JUMPDEST ISZERO PUSH2 0x18FE JUMPI PUSH2 0x18FB PUSH2 0x204F JUMP JUMPDEST SWAP1 POP JUMPDEST PUSH1 0x0 PUSH1 0x1 PUSH1 0x1 PUSH1 0xA0 SHL SUB PUSH32 0x0 AND PUSH4 0x8FF400F4 CALLER PUSH2 0x193B PUSH1 0x1 TIMESTAMP PUSH2 0x35FF JUMP JUMPDEST PUSH1 0x40 MLOAD PUSH1 0x1 PUSH1 0x1 PUSH1 0xE0 SHL SUB NOT PUSH1 0xE0 DUP6 SWAP1 SHL AND DUP2 MSTORE PUSH1 0x1 PUSH1 0x1 PUSH1 0xA0 SHL SUB SWAP1 SWAP3 AND PUSH1 0x4 DUP4 ADD MSTORE PUSH1 0x24 DUP3 ADD MSTORE PUSH1 0x44 ADD PUSH1 0x0 PUSH1 0x40 MLOAD DUP1 DUP4 SUB DUP2 DUP7 GAS STATICCALL ISZERO DUP1 ISZERO PUSH2 0x1984 JUMPI RETURNDATASIZE PUSH1 0x0 DUP1 RETURNDATACOPY RETURNDATASIZE PUSH1 0x0 REVERT JUMPDEST POP POP POP POP PUSH1 0x40 MLOAD RETURNDATASIZE PUSH1 0x0 DUP3 RETURNDATACOPY PUSH1 0x1F RETURNDATASIZE SWAP1 DUP2 ADD PUSH1 0x1F NOT AND DUP3 ADD PUSH1 0x40 MSTORE PUSH2 0x19AC SWAP2 SWAP1 DUP2 ADD SWAP1 PUSH2 0x3531 JUMP JUMPDEST SWAP1 POP PUSH1 0x0 PUSH32 0x0 PUSH1 0x1 PUSH1 0x1 PUSH1 0xA0 SHL SUB AND PUSH4 0x3BEF7ABB DUP4 PUSH1 0x40 MLOAD DUP3 PUSH4 0xFFFFFFFF AND PUSH1 0xE0 SHL DUP2 MSTORE PUSH1 0x4 ADD PUSH2 0x19FC SWAP2 SWAP1 PUSH2 0x39B1 JUMP JUMPDEST PUSH1 0x20 PUSH1 0x40 MLOAD DUP1 DUP4 SUB DUP2 DUP7 GAS STATICCALL ISZERO DUP1 ISZERO PUSH2 0x1A19 JUMPI RETURNDATASIZE PUSH1 0x0 DUP1 RETURNDATACOPY RETURNDATASIZE PUSH1 0x0 REVERT JUMPDEST POP POP POP POP PUSH1 0x40 MLOAD RETURNDATASIZE PUSH1 0x1F NOT PUSH1 0x1F DUP3 ADD AND DUP3 ADD DUP1 PUSH1 0x40 MSTORE POP DUP2 ADD SWAP1 PUSH2 0x1A3D SWAP2 SWAP1 PUSH2 0x3A0C JUMP JUMPDEST SWAP1 POP DUP3 PUSH1 0x20 ADD MLOAD PUSH1 0x1 PUSH1 0x1 PUSH1 0x40 SHL SUB AND DUP2 GT PUSH2 0x1AC3 JUMPI PUSH1 0x40 DUP1 MLOAD PUSH3 0x461BCD PUSH1 0xE5 SHL DUP2 MSTORE PUSH1 0x20 PUSH1 0x4 DUP3 ADD MSTORE PUSH1 0x24 DUP2 ADD SWAP2 SWAP1 SWAP2 MSTORE PUSH32 0x70726F706F73657220646F65736E2774206861766520656E6F75676820766F74 PUSH1 0x44 DUP3 ADD MSTORE PUSH32 0x696E6720706F77657220746F2070726F706F7365207468697320616374696F6E PUSH1 0x64 DUP3 ADD MSTORE PUSH1 0x84 ADD PUSH2 0x42C JUMP JUMPDEST PUSH1 0x80 DUP4 ADD MLOAD TIMESTAMP SWAP1 PUSH1 0x0 SWAP1 PUSH2 0x1ADD SWAP1 PUSH4 0xFFFFFFFF AND DUP4 PUSH2 0x3A25 JUMP JUMPDEST SWAP1 POP PUSH1 0x0 DUP6 PUSH1 0x60 ADD MLOAD PUSH4 0xFFFFFFFF AND DUP3 PUSH2 0x1AF7 SWAP2 SWAP1 PUSH2 0x3A25 JUMP JUMPDEST PUSH1 0x7 SLOAD PUSH2 0xFFFF AND PUSH1 0x0 DUP2 DUP2 MSTORE PUSH1 0xC PUSH1 0x20 MSTORE PUSH1 0x40 SWAP1 KECCAK256 PUSH1 0x1 DUP1 DUP3 ADD DUP1 SLOAD DUP4 SLOAD PUSH1 0xA0 DUP14 ADD MLOAD PUSH3 0xFF0001 PUSH1 0x40 SHL PUSH1 0x1 PUSH1 0xF8 SHL SUB NOT SWAP1 SWAP3 AND PUSH1 0x1 PUSH1 0x40 SHL SWAP7 DUP8 MUL PUSH1 0x1 PUSH1 0x58 SHL PUSH1 0x1 PUSH1 0xF8 SHL SUB NOT AND OR CALLER PUSH1 0x1 PUSH1 0x58 SHL MUL OR PUSH1 0xFF PUSH1 0x50 SHL NOT DUP2 AND PUSH1 0x1 PUSH1 0x50 SHL PUSH1 0xFF SWAP1 SWAP5 AND SWAP4 SWAP1 SWAP4 MUL SWAP3 DUP4 OR DUP5 SSTORE PUSH1 0x1 PUSH1 0x1 PUSH1 0x40 SHL SUB DUP12 DUP2 AND PUSH24 0xFFFFFFFFFFFFFFFF0000000000000000FFFFFFFFFFFFFFFF NOT SWAP1 SWAP4 AND SWAP3 SWAP1 SWAP3 OR PUSH1 0x1 PUSH1 0x80 SHL DUP12 DUP5 AND MUL OR PUSH8 0xFFFFFFFFFFFFFFFF PUSH1 0x40 SHL NOT AND SWAP2 DUP9 AND SWAP1 SWAP7 MUL OR DUP5 SSTORE SWAP5 SWAP6 POP SWAP2 SWAP4 SWAP1 SWAP3 PUSH11 0xFF00000000000000000001 PUSH1 0x1 PUSH1 0xF8 SHL SUB AND PUSH1 0x1 PUSH1 0x1 PUSH1 0xF8 SHL SUB SWAP1 SWAP2 AND OR PUSH1 0x1 PUSH1 0xF8 SHL DUP4 MUL OR SWAP1 SSTORE POP DUP7 MLOAD PUSH1 0x1 DUP3 ADD DUP1 SLOAD PUSH8 0xFFFFFFFFFFFFFFFF NOT AND PUSH1 0x1 PUSH1 0x1 PUSH1 0x40 SHL SUB SWAP3 DUP4 AND OR SWAP1 SSTORE PUSH1 0x40 DUP9 ADD MLOAD DUP3 SLOAD PUSH1 0x1 PUSH1 0x1 PUSH1 0xC0 SHL SUB AND PUSH1 0x1 PUSH1 0xC0 SHL SWAP2 SWAP1 SWAP3 AND MUL OR DUP2 SSTORE PUSH1 0x0 JUMPDEST DUP9 DUP2 LT ISZERO PUSH2 0x1C8A JUMPI DUP2 PUSH1 0x2 ADD DUP11 DUP11 DUP4 DUP2 DUP2 LT PUSH2 0x1C41 JUMPI PUSH2 0x1C41 PUSH2 0x35E9 JUMP JUMPDEST SWAP1 POP PUSH1 0x20 MUL DUP2 ADD SWAP1 PUSH2 0x1C53 SWAP2 SWAP1 PUSH2 0x3665 JUMP JUMPDEST DUP2 SLOAD PUSH1 0x1 DUP2 ADD DUP4 SSTORE PUSH1 0x0 SWAP3 DUP4 MSTORE PUSH1 0x20 SWAP1 SWAP3 KECCAK256 SWAP1 SWAP2 PUSH1 0x2 MUL ADD PUSH2 0x1C75 DUP3 DUP3 PUSH2 0x3A45 JUMP JUMPDEST POP POP DUP1 DUP1 PUSH2 0x1C82 SWAP1 PUSH2 0x3612 JUMP JUMPDEST SWAP2 POP POP PUSH2 0x1C23 JUMP JUMPDEST POP PUSH1 0x1 DUP2 ADD SLOAD PUSH1 0x1 PUSH1 0x40 SHL SWAP1 DIV PUSH2 0xFFFF AND PUSH1 0x0 SWAP1 DUP2 MSTORE PUSH1 0xD PUSH1 0x20 MSTORE PUSH1 0x40 DUP1 DUP3 KECCAK256 DUP2 MLOAD PUSH4 0x151F92D3 PUSH1 0xE0 SHL DUP2 MSTORE SWAP2 MLOAD PUSH2 0x1D3C SWAP4 SWAP2 SWAP3 PUSH32 0x0 PUSH1 0x1 PUSH1 0x1 PUSH1 0xA0 SHL SUB AND SWAP3 PUSH4 0x151F92D3 SWAP3 PUSH1 0x4 DUP1 DUP5 ADD SWAP4 DUP3 SWAP1 SUB ADD DUP2 DUP7 GAS STATICCALL ISZERO DUP1 ISZERO PUSH2 0x1D0E JUMPI RETURNDATASIZE PUSH1 0x0 DUP1 RETURNDATACOPY RETURNDATASIZE PUSH1 0x0 REVERT JUMPDEST POP POP POP POP PUSH1 0x40 MLOAD RETURNDATASIZE PUSH1 0x0 DUP3 RETURNDATACOPY PUSH1 0x1F RETURNDATASIZE SWAP1 DUP2 ADD PUSH1 0x1F NOT AND DUP3 ADD PUSH1 0x40 MSTORE PUSH2 0x1D36 SWAP2 SWAP1 DUP2 ADD SWAP1 PUSH2 0x3B60 JUMP JUMPDEST SWAP1 PUSH2 0x276A JUMP JUMPDEST DUP1 PUSH1 0x1 ADD PUSH1 0x8 SWAP1 SLOAD SWAP1 PUSH2 0x100 EXP SWAP1 DIV PUSH2 0xFFFF AND PUSH1 0x1 PUSH2 0x1D5B SWAP2 SWAP1 PUSH2 0x3C26 JUMP JUMPDEST PUSH1 0x7 DUP1 SLOAD PUSH2 0xFFFF NOT AND PUSH2 0xFFFF SWAP3 DUP4 AND OR SWAP1 SSTORE PUSH1 0x1 DUP3 ADD SLOAD PUSH2 0x1D86 SWAP2 PUSH1 0x8 SWAP2 PUSH1 0x1 PUSH1 0x40 SHL SWAP1 DIV AND PUSH2 0x2120 JUMP JUMPDEST POP PUSH1 0x1 DUP2 ADD SLOAD PUSH1 0x40 MLOAD PUSH1 0x1 PUSH1 0x40 SHL DUP3 DIV PUSH2 0xFFFF AND SWAP2 PUSH32 0x54F76BA363CE9B1888F218ED79D176B3564D604ADCDCA9EC308A7266C164AF34 SWAP2 PUSH2 0x1DDB SWAP2 PUSH1 0x1 PUSH1 0x58 SHL SWAP1 DIV PUSH1 0x1 PUSH1 0x1 PUSH1 0xA0 SHL SUB AND SWAP1 DUP14 SWAP1 DUP14 SWAP1 PUSH2 0x384E JUMP JUMPDEST PUSH1 0x40 MLOAD DUP1 SWAP2 SUB SWAP1 LOG2 POP POP POP POP POP POP POP POP POP JUMP JUMPDEST PUSH1 0x60 PUSH2 0x1868 PUSH2 0x1863 PUSH1 0x8 PUSH2 0x22D5 JUMP JUMPDEST PUSH1 0x0 DUP2 DUP2 MSTORE PUSH1 0x1 DUP4 ADD PUSH1 0x20 MSTORE PUSH1 0x40 DUP2 KECCAK256 SLOAD ISZERO ISZERO JUMPDEST SWAP4 SWAP3 POP POP POP JUMP JUMPDEST PUSH1 0x1 DUP2 ADD SLOAD PUSH1 0x1 PUSH1 0x40 SHL SWAP1 DIV PUSH2 0xFFFF AND PUSH1 0x0 SWAP1 DUP2 MSTORE PUSH1 0xD PUSH1 0x20 SWAP1 DUP2 MSTORE PUSH1 0x40 DUP1 DUP4 KECCAK256 DUP1 SLOAD DUP3 MLOAD DUP2 DUP6 MUL DUP2 ADD DUP6 ADD SWAP1 SWAP4 MSTORE DUP1 DUP4 MSTORE DUP5 SWAP4 DUP5 SWAP4 DUP5 SWAP4 SWAP1 SWAP3 SWAP1 SWAP2 DUP5 SWAP1 DUP5 ADD JUMPDEST DUP3 DUP3 LT ISZERO PUSH2 0x1EAE JUMPI PUSH1 0x0 DUP5 DUP2 MSTORE PUSH1 0x20 SWAP1 DUP2 SWAP1 KECCAK256 PUSH1 0x40 DUP1 MLOAD PUSH1 0x60 DUP2 ADD DUP3 MSTORE PUSH1 0x3 DUP7 MUL SWAP1 SWAP3 ADD DUP1 SLOAD PUSH1 0x1 PUSH1 0x1 PUSH1 0xA0 SHL SUB AND DUP4 MSTORE PUSH1 0x1 DUP1 DUP3 ADD SLOAD DUP5 DUP7 ADD MSTORE PUSH1 0x2 SWAP1 SWAP2 ADD SLOAD SWAP2 DUP4 ADD SWAP2 SWAP1 SWAP2 MSTORE SWAP1 DUP4 MSTORE SWAP1 SWAP3 ADD SWAP2 ADD PUSH2 0x1E59 JUMP JUMPDEST POP POP POP PUSH1 0x1 DUP1 DUP9 ADD SLOAD PUSH2 0xFFFF PUSH1 0x1 PUSH1 0x40 SHL SWAP1 SWAP2 DIV AND PUSH1 0x0 SWAP1 DUP2 MSTORE PUSH1 0xF PUSH1 0x20 MSTORE PUSH1 0x40 DUP2 KECCAK256 SWAP4 SWAP5 POP PUSH2 0x1F0A SWAP3 POP DUP4 SWAP2 JUMPDEST PUSH1 0x3 DUP2 GT ISZERO PUSH2 0x1EED JUMPI PUSH2 0x1EED PUSH2 0x2E55 JUMP JUMPDEST DUP2 MSTORE PUSH1 0x20 ADD SWAP1 DUP2 MSTORE PUSH1 0x20 ADD PUSH1 0x0 KECCAK256 DUP4 PUSH2 0x283C SWAP1 SWAP2 SWAP1 PUSH4 0xFFFFFFFF AND JUMP JUMPDEST SWAP5 POP PUSH2 0x1F19 DUP2 PUSH1 0x0 PUSH1 0x2 PUSH2 0x1EDC JUMP JUMPDEST SWAP4 POP PUSH2 0x1F28 DUP2 PUSH1 0x0 PUSH1 0x3 PUSH2 0x1EDC JUMP JUMPDEST SWAP5 SWAP7 SWAP4 SWAP6 POP POP POP POP JUMP JUMPDEST PUSH1 0x2 SLOAD PUSH1 0x0 SWAP1 PUSH1 0x1 PUSH1 0x1 PUSH1 0xA0 SHL SUB AND ISZERO DUP1 ISZERO SWAP1 PUSH2 0x1FBE JUMPI POP PUSH1 0x5 SLOAD PUSH1 0x2 SLOAD PUSH1 0x40 DUP1 MLOAD PUSH4 0x18160DDD PUSH1 0xE0 SHL DUP2 MSTORE SWAP1 MLOAD PUSH1 0x1 PUSH1 0x1 PUSH1 0xA0 SHL SUB SWAP1 SWAP3 AND SWAP2 PUSH4 0x18160DDD SWAP2 PUSH1 0x4 DUP1 DUP3 ADD SWAP3 PUSH1 0x20 SWAP3 SWAP1 SWAP2 SWAP1 DUP3 SWAP1 SUB ADD DUP2 DUP7 GAS STATICCALL ISZERO DUP1 ISZERO PUSH2 0x1F97 JUMPI RETURNDATASIZE PUSH1 0x0 DUP1 RETURNDATACOPY RETURNDATASIZE PUSH1 0x0 REVERT JUMPDEST POP POP POP POP PUSH1 0x40 MLOAD RETURNDATASIZE PUSH1 0x1F NOT PUSH1 0x1F DUP3 ADD AND DUP3 ADD DUP1 PUSH1 0x40 MSTORE POP DUP2 ADD SWAP1 PUSH2 0x1FBB SWAP2 SWAP1 PUSH2 0x3A0C JUMP JUMPDEST LT ISZERO JUMPDEST DUP1 ISZERO PUSH2 0x2038 JUMPI POP PUSH1 0x4 DUP1 SLOAD PUSH1 0x2 SLOAD PUSH1 0x40 DUP1 MLOAD PUSH4 0xF91BDE1F PUSH1 0xE0 SHL DUP2 MSTORE SWAP1 MLOAD SWAP3 SWAP4 PUSH1 0x1 PUSH1 0x1 PUSH1 0xA0 SHL SUB SWAP1 SWAP3 AND SWAP3 PUSH4 0xF91BDE1F SWAP3 DUP3 DUP2 ADD SWAP3 PUSH1 0x20 SWAP3 SWAP2 SWAP1 DUP3 SWAP1 SUB ADD DUP2 DUP7 GAS STATICCALL ISZERO DUP1 ISZERO PUSH2 0x2012 JUMPI RETURNDATASIZE PUSH1 0x0 DUP1 RETURNDATACOPY RETURNDATASIZE PUSH1 0x0 REVERT JUMPDEST POP POP POP POP PUSH1 0x40 MLOAD RETURNDATASIZE PUSH1 0x1F NOT PUSH1 0x1F DUP3 ADD AND DUP3 ADD DUP1 PUSH1 0x40 MSTORE POP DUP2 ADD SWAP1 PUSH2 0x2036 SWAP2 SWAP1 PUSH2 0x3A0C JUMP JUMPDEST GT JUMPDEST DUP1 ISZERO PUSH2 0xB2B JUMPI POP POP PUSH1 0x3 SLOAD PUSH1 0xFF SWAP1 DUP2 AND SWAP2 AND LT ISZERO SWAP1 JUMP JUMPDEST PUSH1 0x40 DUP1 MLOAD PUSH1 0xC0 DUP2 ADD DUP3 MSTORE PUSH1 0x0 DUP1 DUP3 MSTORE PUSH1 0x20 DUP3 ADD DUP2 SWAP1 MSTORE SWAP2 DUP2 ADD DUP3 SWAP1 MSTORE PUSH1 0x60 DUP2 ADD DUP3 SWAP1 MSTORE PUSH1 0x80 DUP2 ADD DUP3 SWAP1 MSTORE PUSH1 0xA0 DUP2 ADD SWAP2 SWAP1 SWAP2 MSTORE PUSH1 0x6 SLOAD PUSH1 0x40 MLOAD PUSH4 0xC87FA53 PUSH1 0xE2 SHL DUP2 MSTORE PUSH1 0x20 PUSH1 0x4 DUP3 ADD MSTORE PUSH1 0x0 PUSH1 0x24 DUP3 ADD MSTORE PUSH1 0x1 PUSH1 0x1 PUSH1 0xA0 SHL SUB SWAP1 SWAP2 AND SWAP1 PUSH4 0x321FE94C SWAP1 PUSH1 0x44 ADD PUSH1 0xC0 PUSH1 0x40 MLOAD DUP1 DUP4 SUB DUP2 DUP7 GAS STATICCALL ISZERO DUP1 ISZERO PUSH2 0x20D1 JUMPI RETURNDATASIZE PUSH1 0x0 DUP1 RETURNDATACOPY RETURNDATASIZE PUSH1 0x0 REVERT JUMPDEST POP POP POP POP PUSH1 0x40 MLOAD RETURNDATASIZE PUSH1 0x1F NOT PUSH1 0x1F DUP3 ADD AND DUP3 ADD DUP1 PUSH1 0x40 MSTORE POP DUP2 ADD SWAP1 PUSH2 0x1868 SWAP2 SWAP1 PUSH2 0x3C6C JUMP JUMPDEST PUSH1 0x0 PUSH2 0x1E11 DUP4 DUP4 PUSH2 0x28D0 JUMP JUMPDEST PUSH1 0x0 DUP2 PUSH2 0x2116 PUSH8 0xDE0B6B3A7640000 DUP6 PUSH2 0x3D0C JUMP JUMPDEST PUSH2 0x1E11 SWAP2 SWAP1 PUSH2 0x3D23 JUMP JUMPDEST PUSH1 0x0 PUSH2 0x1E11 DUP4 DUP4 PUSH2 0x29C3 JUMP JUMPDEST PUSH2 0x2150 PUSH1 0x40 MLOAD DUP1 PUSH1 0x60 ADD PUSH1 0x40 MSTORE DUP1 PUSH1 0x60 DUP2 MSTORE PUSH1 0x20 ADD PUSH1 0x60 DUP2 MSTORE PUSH1 0x20 ADD PUSH1 0x60 DUP2 MSTORE POP SWAP1 JUMP JUMPDEST PUSH1 0x1 PUSH1 0x0 SWAP1 DUP2 MSTORE PUSH1 0x20 DUP4 SWAP1 MSTORE PUSH1 0x40 DUP2 KECCAK256 SWAP1 PUSH2 0x216A DUP3 PUSH2 0x2A12 JUMP JUMPDEST PUSH1 0x2 PUSH1 0x0 SWAP1 DUP2 MSTORE PUSH1 0x20 DUP7 SWAP1 MSTORE PUSH1 0x40 DUP2 KECCAK256 SWAP2 SWAP3 POP PUSH2 0x2186 DUP3 PUSH2 0x2A12 JUMP JUMPDEST PUSH1 0x3 PUSH1 0x0 SWAP1 DUP2 MSTORE PUSH1 0x20 DUP9 SWAP1 MSTORE PUSH1 0x40 DUP2 KECCAK256 SWAP2 SWAP3 POP PUSH2 0x21A2 DUP3 PUSH2 0x2A12 JUMP JUMPDEST PUSH1 0x40 DUP1 MLOAD PUSH1 0x60 DUP2 ADD DUP3 MSTORE SWAP7 DUP8 MSTORE PUSH1 0x20 DUP8 ADD SWAP5 SWAP1 SWAP5 MSTORE SWAP3 DUP6 ADD SWAP3 SWAP1 SWAP3 MSTORE POP SWAP2 SWAP6 SWAP5 POP POP POP POP POP JUMP JUMPDEST DUP1 MLOAD PUSH1 0x60 SWAP1 PUSH1 0x0 DUP2 PUSH1 0x1 PUSH1 0x1 PUSH1 0x40 SHL SUB DUP2 GT ISZERO PUSH2 0x21E8 JUMPI PUSH2 0x21E8 PUSH2 0x3224 JUMP JUMPDEST PUSH1 0x40 MLOAD SWAP1 DUP1 DUP3 MSTORE DUP1 PUSH1 0x20 MUL PUSH1 0x20 ADD DUP3 ADD PUSH1 0x40 MSTORE DUP1 ISZERO PUSH2 0x2211 JUMPI DUP2 PUSH1 0x20 ADD PUSH1 0x20 DUP3 MUL DUP1 CALLDATASIZE DUP4 CALLDATACOPY ADD SWAP1 POP JUMPDEST POP SWAP1 POP PUSH1 0x0 JUMPDEST DUP3 DUP2 LT ISZERO PUSH2 0x2279 JUMPI DUP5 DUP2 DUP2 MLOAD DUP2 LT PUSH2 0x2231 JUMPI PUSH2 0x2231 PUSH2 0x35E9 JUMP JUMPDEST PUSH1 0x20 MUL PUSH1 0x20 ADD ADD MLOAD PUSH1 0x0 ADD MLOAD DUP3 DUP3 DUP2 MLOAD DUP2 LT PUSH2 0x224F JUMPI PUSH2 0x224F PUSH2 0x35E9 JUMP JUMPDEST PUSH1 0x1 PUSH1 0x1 PUSH1 0xA0 SHL SUB SWAP1 SWAP3 AND PUSH1 0x20 SWAP3 DUP4 MUL SWAP2 SWAP1 SWAP2 ADD SWAP1 SWAP2 ADD MSTORE DUP1 PUSH2 0x2271 DUP2 PUSH2 0x3612 JUMP JUMPDEST SWAP2 POP POP PUSH2 0x2217 JUMP JUMPDEST POP SWAP4 SWAP3 POP POP POP JUMP JUMPDEST PUSH1 0x0 DUP1 DUP1 DUP1 PUSH2 0x2299 DUP7 PUSH1 0x1 PUSH1 0x1 PUSH1 0xA0 SHL SUB DUP8 AND PUSH2 0x2AF2 JUMP JUMPDEST SWAP1 SWAP5 POP SWAP3 POP POP POP JUMPDEST SWAP3 POP SWAP3 SWAP1 POP JUMP JUMPDEST PUSH1 0x0 PUSH2 0x22BE DUP5 PUSH1 0x1 PUSH1 0x1 PUSH1 0xA0 SHL SUB DUP6 AND DUP5 PUSH2 0x2B2C JUMP JUMPDEST SWAP5 SWAP4 POP POP POP POP JUMP JUMPDEST PUSH1 0x60 PUSH2 0x22BE DUP5 DUP5 PUSH1 0x0 DUP6 PUSH2 0x2B49 JUMP JUMPDEST PUSH1 0x60 PUSH1 0x0 PUSH2 0x1E11 DUP4 PUSH2 0x2C24 JUMP JUMPDEST DUP1 MLOAD PUSH1 0x60 SWAP1 PUSH1 0x0 DUP2 PUSH1 0x1 PUSH1 0x1 PUSH1 0x40 SHL SUB DUP2 GT ISZERO PUSH2 0x2301 JUMPI PUSH2 0x2301 PUSH2 0x3224 JUMP JUMPDEST PUSH1 0x40 MLOAD SWAP1 DUP1 DUP3 MSTORE DUP1 PUSH1 0x20 MUL PUSH1 0x20 ADD DUP3 ADD PUSH1 0x40 MSTORE DUP1 ISZERO PUSH2 0x233A JUMPI DUP2 PUSH1 0x20 ADD JUMPDEST PUSH2 0x2327 PUSH2 0x2DCF JUMP JUMPDEST DUP2 MSTORE PUSH1 0x20 ADD SWAP1 PUSH1 0x1 SWAP1 SUB SWAP1 DUP2 PUSH2 0x231F JUMPI SWAP1 POP JUMPDEST POP SWAP1 POP PUSH1 0x0 JUMPDEST DUP3 DUP2 LT ISZERO PUSH2 0x2279 JUMPI PUSH1 0xC PUSH1 0x0 DUP7 DUP4 DUP2 MLOAD DUP2 LT PUSH2 0x235E JUMPI PUSH2 0x235E PUSH2 0x35E9 JUMP JUMPDEST PUSH1 0x20 SWAP1 DUP2 MUL SWAP2 SWAP1 SWAP2 ADD DUP2 ADD MLOAD PUSH2 0xFFFF SWAP1 DUP2 AND DUP4 MSTORE DUP3 DUP3 ADD SWAP4 SWAP1 SWAP4 MSTORE PUSH1 0x40 SWAP2 DUP3 ADD PUSH1 0x0 KECCAK256 DUP3 MLOAD PUSH2 0x140 DUP2 ADD DUP5 MSTORE DUP2 SLOAD PUSH1 0x1 PUSH1 0x1 PUSH1 0x40 SHL SUB DUP1 DUP3 AND DUP4 MSTORE PUSH1 0x1 PUSH1 0x40 SHL DUP1 DUP4 DIV DUP3 AND SWAP6 DUP5 ADD SWAP6 SWAP1 SWAP6 MSTORE PUSH1 0x1 PUSH1 0x80 SHL DUP3 DIV DUP2 AND SWAP6 DUP4 ADD SWAP6 SWAP1 SWAP6 MSTORE PUSH1 0x1 PUSH1 0xC0 SHL SWAP1 DIV DUP5 AND PUSH1 0x60 DUP3 ADD MSTORE PUSH1 0x1 DUP3 ADD SLOAD SWAP4 DUP5 AND PUSH1 0x80 DUP3 ADD MSTORE SWAP2 DUP4 DIV SWAP1 SWAP4 AND PUSH1 0xA0 DUP3 ADD MSTORE PUSH1 0xFF PUSH1 0x1 PUSH1 0x50 SHL DUP4 DIV DUP2 AND PUSH1 0xC0 DUP4 ADD MSTORE PUSH1 0x1 PUSH1 0x1 PUSH1 0xA0 SHL SUB PUSH1 0x1 PUSH1 0x58 SHL DUP5 DIV AND PUSH1 0xE0 DUP4 ADD MSTORE SWAP1 SWAP3 SWAP2 PUSH2 0x100 DUP5 ADD SWAP2 PUSH1 0x1 PUSH1 0xF8 SHL SWAP1 SWAP2 DIV AND PUSH1 0x5 DUP2 GT ISZERO PUSH2 0x2428 JUMPI PUSH2 0x2428 PUSH2 0x2E55 JUMP JUMPDEST PUSH1 0x5 DUP2 GT ISZERO PUSH2 0x2439 JUMPI PUSH2 0x2439 PUSH2 0x2E55 JUMP JUMPDEST DUP2 MSTORE PUSH1 0x20 ADD PUSH1 0x2 DUP3 ADD DUP1 SLOAD DUP1 PUSH1 0x20 MUL PUSH1 0x20 ADD PUSH1 0x40 MLOAD SWAP1 DUP2 ADD PUSH1 0x40 MSTORE DUP1 SWAP3 SWAP2 SWAP1 DUP2 DUP2 MSTORE PUSH1 0x20 ADD PUSH1 0x0 SWAP1 JUMPDEST DUP3 DUP3 LT ISZERO PUSH2 0x253B JUMPI PUSH1 0x0 DUP5 DUP2 MSTORE PUSH1 0x20 SWAP1 DUP2 SWAP1 KECCAK256 PUSH1 0x40 DUP1 MLOAD DUP1 DUP3 ADD SWAP1 SWAP2 MSTORE PUSH1 0x2 DUP6 MUL SWAP1 SWAP2 ADD DUP1 SLOAD PUSH1 0x1 PUSH1 0x1 PUSH1 0xA0 SHL SUB AND DUP3 MSTORE PUSH1 0x1 DUP2 ADD DUP1 SLOAD SWAP3 SWAP4 SWAP2 SWAP3 SWAP2 DUP5 ADD SWAP2 PUSH2 0x24AA SWAP1 PUSH2 0x346A JUMP JUMPDEST DUP1 PUSH1 0x1F ADD PUSH1 0x20 DUP1 SWAP2 DIV MUL PUSH1 0x20 ADD PUSH1 0x40 MLOAD SWAP1 DUP2 ADD PUSH1 0x40 MSTORE DUP1 SWAP3 SWAP2 SWAP1 DUP2 DUP2 MSTORE PUSH1 0x20 ADD DUP3 DUP1 SLOAD PUSH2 0x24D6 SWAP1 PUSH2 0x346A JUMP JUMPDEST DUP1 ISZERO PUSH2 0x2523 JUMPI DUP1 PUSH1 0x1F LT PUSH2 0x24F8 JUMPI PUSH2 0x100 DUP1 DUP4 SLOAD DIV MUL DUP4 MSTORE SWAP2 PUSH1 0x20 ADD SWAP2 PUSH2 0x2523 JUMP JUMPDEST DUP3 ADD SWAP2 SWAP1 PUSH1 0x0 MSTORE PUSH1 0x20 PUSH1 0x0 KECCAK256 SWAP1 JUMPDEST DUP2 SLOAD DUP2 MSTORE SWAP1 PUSH1 0x1 ADD SWAP1 PUSH1 0x20 ADD DUP1 DUP4 GT PUSH2 0x2506 JUMPI DUP3 SWAP1 SUB PUSH1 0x1F AND DUP3 ADD SWAP2 JUMPDEST POP POP POP POP POP DUP2 MSTORE POP POP DUP2 MSTORE PUSH1 0x20 ADD SWAP1 PUSH1 0x1 ADD SWAP1 PUSH2 0x2462 JUMP JUMPDEST POP POP POP POP DUP2 MSTORE POP POP DUP3 DUP3 DUP2 MLOAD DUP2 LT PUSH2 0x2555 JUMPI PUSH2 0x2555 PUSH2 0x35E9 JUMP JUMPDEST PUSH1 0x20 MUL PUSH1 0x20 ADD ADD DUP2 SWAP1 MSTORE POP DUP1 DUP1 PUSH2 0x256B SWAP1 PUSH2 0x3612 JUMP JUMPDEST SWAP2 POP POP PUSH2 0x2340 JUMP JUMPDEST PUSH1 0x40 DUP1 MLOAD PUSH1 0xC0 DUP2 ADD DUP3 MSTORE PUSH1 0x0 DUP1 DUP3 MSTORE PUSH1 0x20 DUP3 ADD DUP2 SWAP1 MSTORE SWAP2 DUP2 ADD DUP3 SWAP1 MSTORE PUSH1 0x60 DUP2 ADD DUP3 SWAP1 MSTORE PUSH1 0x80 DUP2 ADD DUP3 SWAP1 MSTORE PUSH1 0xA0 DUP2 ADD SWAP2 SWAP1 SWAP2 MSTORE PUSH1 0x0 DUP3 PUSH1 0x0 DUP2 MLOAD DUP2 LT PUSH2 0x25BA JUMPI PUSH2 0x25BA PUSH2 0x35E9 JUMP JUMPDEST PUSH1 0x20 MUL PUSH1 0x20 ADD ADD MLOAD SWAP1 POP PUSH32 0x0 PUSH1 0x1 PUSH1 0x1 PUSH1 0xA0 SHL SUB AND PUSH4 0xFEB52AF5 DUP3 PUSH1 0x0 ADD MLOAD DUP4 PUSH1 0x20 ADD MLOAD PUSH1 0x40 MLOAD DUP4 PUSH4 0xFFFFFFFF AND PUSH1 0xE0 SHL DUP2 MSTORE PUSH1 0x4 ADD PUSH2 0x261A SWAP3 SWAP2 SWAP1 PUSH2 0x3D45 JUMP JUMPDEST PUSH1 0xC0 PUSH1 0x40 MLOAD DUP1 DUP4 SUB DUP2 DUP7 GAS STATICCALL ISZERO DUP1 ISZERO PUSH2 0x2637 JUMPI RETURNDATASIZE PUSH1 0x0 DUP1 RETURNDATACOPY RETURNDATASIZE PUSH1 0x0 REVERT JUMPDEST POP POP POP POP PUSH1 0x40 MLOAD RETURNDATASIZE PUSH1 0x1F NOT PUSH1 0x1F DUP3 ADD AND DUP3 ADD DUP1 PUSH1 0x40 MSTORE POP DUP2 ADD SWAP1 PUSH2 0x265B SWAP2 SWAP1 PUSH2 0x3C6C JUMP JUMPDEST SWAP2 POP PUSH1 0x1 JUMPDEST DUP4 MLOAD DUP2 LT ISZERO PUSH2 0x2763 JUMPI PUSH1 0x0 PUSH32 0x0 PUSH1 0x1 PUSH1 0x1 PUSH1 0xA0 SHL SUB AND PUSH4 0xFEB52AF5 DUP7 DUP5 DUP2 MLOAD DUP2 LT PUSH2 0x26AC JUMPI PUSH2 0x26AC PUSH2 0x35E9 JUMP JUMPDEST PUSH1 0x20 MUL PUSH1 0x20 ADD ADD MLOAD PUSH1 0x0 ADD MLOAD DUP8 DUP6 DUP2 MLOAD DUP2 LT PUSH2 0x26CA JUMPI PUSH2 0x26CA PUSH2 0x35E9 JUMP JUMPDEST PUSH1 0x20 MUL PUSH1 0x20 ADD ADD MLOAD PUSH1 0x20 ADD MLOAD PUSH1 0x40 MLOAD DUP4 PUSH4 0xFFFFFFFF AND PUSH1 0xE0 SHL DUP2 MSTORE PUSH1 0x4 ADD PUSH2 0x26F3 SWAP3 SWAP2 SWAP1 PUSH2 0x3D45 JUMP JUMPDEST PUSH1 0xC0 PUSH1 0x40 MLOAD DUP1 DUP4 SUB DUP2 DUP7 GAS STATICCALL ISZERO DUP1 ISZERO PUSH2 0x2710 JUMPI RETURNDATASIZE PUSH1 0x0 DUP1 RETURNDATACOPY RETURNDATASIZE PUSH1 0x0 REVERT JUMPDEST POP POP POP POP PUSH1 0x40 MLOAD RETURNDATASIZE PUSH1 0x1F NOT PUSH1 0x1F DUP3 ADD AND DUP3 ADD DUP1 PUSH1 0x40 MSTORE POP DUP2 ADD SWAP1 PUSH2 0x2734 SWAP2 SWAP1 PUSH2 0x3C6C JUMP JUMPDEST SWAP1 POP DUP4 PUSH1 0xA0 ADD MLOAD PUSH1 0xFF AND DUP2 PUSH1 0xA0 ADD MLOAD PUSH1 0xFF AND GT ISZERO PUSH2 0x2750 JUMPI DUP1 SWAP4 POP JUMPDEST POP DUP1 PUSH2 0x275B DUP2 PUSH2 0x3612 JUMP JUMPDEST SWAP2 POP POP PUSH2 0x2660 JUMP JUMPDEST POP POP SWAP2 SWAP1 POP JUMP JUMPDEST DUP1 SLOAD ISZERO PUSH2 0x27B1 JUMPI PUSH1 0x40 MLOAD PUSH3 0x461BCD PUSH1 0xE5 SHL DUP2 MSTORE PUSH1 0x20 PUSH1 0x4 DUP3 ADD MSTORE PUSH1 0x15 PUSH1 0x24 DUP3 ADD MSTORE PUSH21 0x39BA37B930B3B29036BAB9BA1031329031B632B0B7 PUSH1 0x59 SHL PUSH1 0x44 DUP3 ADD MSTORE PUSH1 0x64 ADD PUSH2 0x42C JUMP JUMPDEST PUSH1 0x0 JUMPDEST DUP3 MLOAD DUP2 LT ISZERO PUSH2 0x184F JUMPI DUP2 DUP4 DUP3 DUP2 MLOAD DUP2 LT PUSH2 0x27D0 JUMPI PUSH2 0x27D0 PUSH2 0x35E9 JUMP JUMPDEST PUSH1 0x20 SWAP1 DUP2 MUL SWAP2 SWAP1 SWAP2 ADD DUP2 ADD MLOAD DUP3 SLOAD PUSH1 0x1 DUP1 DUP3 ADD DUP6 SSTORE PUSH1 0x0 SWAP5 DUP6 MSTORE SWAP4 DUP4 SWAP1 KECCAK256 DUP3 MLOAD PUSH1 0x3 SWAP1 SWAP3 MUL ADD DUP1 SLOAD PUSH1 0x1 PUSH1 0x1 PUSH1 0xA0 SHL SUB NOT AND PUSH1 0x1 PUSH1 0x1 PUSH1 0xA0 SHL SUB SWAP1 SWAP3 AND SWAP2 SWAP1 SWAP2 OR DUP2 SSTORE SWAP2 DUP2 ADD MLOAD SWAP3 DUP3 ADD SWAP3 SWAP1 SWAP3 SSTORE PUSH1 0x40 SWAP1 SWAP2 ADD MLOAD PUSH1 0x2 SWAP1 SWAP2 ADD SSTORE DUP1 PUSH2 0x2834 DUP2 PUSH2 0x3612 JUMP JUMPDEST SWAP2 POP POP PUSH2 0x27B4 JUMP JUMPDEST PUSH1 0x0 DUP1 JUMPDEST DUP4 MLOAD DUP2 LT ISZERO PUSH2 0x28C9 JUMPI PUSH1 0x0 DUP5 DUP3 DUP2 MLOAD DUP2 LT PUSH2 0x285D JUMPI PUSH2 0x285D PUSH2 0x35E9 JUMP JUMPDEST PUSH1 0x20 MUL PUSH1 0x20 ADD ADD MLOAD SWAP1 POP PUSH1 0x0 PUSH2 0x2880 DUP3 PUSH1 0x0 ADD MLOAD DUP7 PUSH2 0x2281 SWAP1 SWAP2 SWAP1 PUSH4 0xFFFFFFFF AND JUMP JUMPDEST SWAP2 POP POP PUSH2 0x28A8 DUP3 PUSH1 0x20 ADD MLOAD PUSH2 0x28A2 DUP5 PUSH1 0x40 ADD MLOAD DUP5 PUSH2 0x2101 SWAP1 SWAP2 SWAP1 PUSH4 0xFFFFFFFF AND JUMP JUMPDEST SWAP1 PUSH2 0x2C80 JUMP JUMPDEST PUSH2 0x28B2 SWAP1 DUP6 PUSH2 0x3433 JUMP JUMPDEST SWAP4 POP POP POP DUP1 DUP1 PUSH2 0x28C1 SWAP1 PUSH2 0x3612 JUMP JUMPDEST SWAP2 POP POP PUSH2 0x2840 JUMP JUMPDEST POP SWAP3 SWAP2 POP POP JUMP JUMPDEST PUSH1 0x0 DUP2 DUP2 MSTORE PUSH1 0x1 DUP4 ADD PUSH1 0x20 MSTORE PUSH1 0x40 DUP2 KECCAK256 SLOAD DUP1 ISZERO PUSH2 0x29B9 JUMPI PUSH1 0x0 PUSH2 0x28F4 PUSH1 0x1 DUP4 PUSH2 0x35FF JUMP JUMPDEST DUP6 SLOAD SWAP1 SWAP2 POP PUSH1 0x0 SWAP1 PUSH2 0x2908 SWAP1 PUSH1 0x1 SWAP1 PUSH2 0x35FF JUMP JUMPDEST SWAP1 POP DUP2 DUP2 EQ PUSH2 0x296D JUMPI PUSH1 0x0 DUP7 PUSH1 0x0 ADD DUP3 DUP2 SLOAD DUP2 LT PUSH2 0x2928 JUMPI PUSH2 0x2928 PUSH2 0x35E9 JUMP JUMPDEST SWAP1 PUSH1 0x0 MSTORE PUSH1 0x20 PUSH1 0x0 KECCAK256 ADD SLOAD SWAP1 POP DUP1 DUP8 PUSH1 0x0 ADD DUP5 DUP2 SLOAD DUP2 LT PUSH2 0x294B JUMPI PUSH2 0x294B PUSH2 0x35E9 JUMP JUMPDEST PUSH1 0x0 SWAP2 DUP3 MSTORE PUSH1 0x20 DUP1 DUP4 KECCAK256 SWAP1 SWAP2 ADD SWAP3 SWAP1 SWAP3 SSTORE SWAP2 DUP3 MSTORE PUSH1 0x1 DUP9 ADD SWAP1 MSTORE PUSH1 0x40 SWAP1 KECCAK256 DUP4 SWAP1 SSTORE JUMPDEST DUP6 SLOAD DUP7 SWAP1 DUP1 PUSH2 0x297E JUMPI PUSH2 0x297E PUSH2 0x3D69 JUMP JUMPDEST PUSH1 0x1 SWAP1 SUB DUP2 DUP2 SWAP1 PUSH1 0x0 MSTORE PUSH1 0x20 PUSH1 0x0 KECCAK256 ADD PUSH1 0x0 SWAP1 SSTORE SWAP1 SSTORE DUP6 PUSH1 0x1 ADD PUSH1 0x0 DUP7 DUP2 MSTORE PUSH1 0x20 ADD SWAP1 DUP2 MSTORE PUSH1 0x20 ADD PUSH1 0x0 KECCAK256 PUSH1 0x0 SWAP1 SSTORE PUSH1 0x1 SWAP4 POP POP POP POP PUSH2 0xB2B JUMP JUMPDEST PUSH1 0x0 SWAP2 POP POP PUSH2 0xB2B JUMP JUMPDEST PUSH1 0x0 DUP2 DUP2 MSTORE PUSH1 0x1 DUP4 ADD PUSH1 0x20 MSTORE PUSH1 0x40 DUP2 KECCAK256 SLOAD PUSH2 0x2A0A JUMPI POP DUP2 SLOAD PUSH1 0x1 DUP2 DUP2 ADD DUP5 SSTORE PUSH1 0x0 DUP5 DUP2 MSTORE PUSH1 0x20 DUP1 DUP3 KECCAK256 SWAP1 SWAP4 ADD DUP5 SWAP1 SSTORE DUP5 SLOAD DUP5 DUP3 MSTORE DUP3 DUP7 ADD SWAP1 SWAP4 MSTORE PUSH1 0x40 SWAP1 KECCAK256 SWAP2 SWAP1 SWAP2 SSTORE PUSH2 0xB2B JUMP JUMPDEST POP PUSH1 0x0 PUSH2 0xB2B JUMP JUMPDEST PUSH1 0x60 PUSH1 0x0 PUSH2 0x2A1F DUP4 PUSH2 0x2C95 JUMP JUMPDEST PUSH1 0x1 PUSH1 0x1 PUSH1 0x40 SHL SUB DUP2 GT ISZERO PUSH2 0x2A36 JUMPI PUSH2 0x2A36 PUSH2 0x3224 JUMP JUMPDEST PUSH1 0x40 MLOAD SWAP1 DUP1 DUP3 MSTORE DUP1 PUSH1 0x20 MUL PUSH1 0x20 ADD DUP3 ADD PUSH1 0x40 MSTORE DUP1 ISZERO PUSH2 0x2A7B JUMPI DUP2 PUSH1 0x20 ADD JUMPDEST PUSH1 0x40 DUP1 MLOAD DUP1 DUP3 ADD SWAP1 SWAP2 MSTORE PUSH1 0x0 DUP1 DUP3 MSTORE PUSH1 0x20 DUP3 ADD MSTORE DUP2 MSTORE PUSH1 0x20 ADD SWAP1 PUSH1 0x1 SWAP1 SUB SWAP1 DUP2 PUSH2 0x2A54 JUMPI SWAP1 POP JUMPDEST POP SWAP1 POP PUSH1 0x0 JUMPDEST PUSH2 0x2A8A DUP5 PUSH2 0x2C95 JUMP JUMPDEST DUP2 LT ISZERO PUSH2 0x28C9 JUMPI PUSH1 0x0 DUP1 PUSH2 0x2A9E DUP7 DUP5 PUSH2 0x2CA0 JUMP JUMPDEST SWAP2 POP SWAP2 POP PUSH1 0x40 MLOAD DUP1 PUSH1 0x40 ADD PUSH1 0x40 MSTORE DUP1 DUP4 PUSH1 0x1 PUSH1 0x1 PUSH1 0xA0 SHL SUB AND DUP2 MSTORE PUSH1 0x20 ADD DUP3 DUP2 MSTORE POP DUP5 DUP5 DUP2 MLOAD DUP2 LT PUSH2 0x2AD2 JUMPI PUSH2 0x2AD2 PUSH2 0x35E9 JUMP JUMPDEST PUSH1 0x20 MUL PUSH1 0x20 ADD ADD DUP2 SWAP1 MSTORE POP POP POP DUP1 DUP1 PUSH2 0x2AEA SWAP1 PUSH2 0x3612 JUMP JUMPDEST SWAP2 POP POP PUSH2 0x2A81 JUMP JUMPDEST PUSH1 0x0 DUP2 DUP2 MSTORE PUSH1 0x2 DUP4 ADD PUSH1 0x20 MSTORE PUSH1 0x40 DUP2 KECCAK256 SLOAD DUP2 SWAP1 DUP1 PUSH2 0x2B21 JUMPI PUSH2 0x2B14 DUP6 DUP6 PUSH2 0x2CAF JUMP JUMPDEST SWAP3 POP PUSH1 0x0 SWAP2 POP PUSH2 0x22A1 SWAP1 POP JUMP JUMPDEST PUSH1 0x1 SWAP3 POP SWAP1 POP PUSH2 0x22A1 JUMP JUMPDEST PUSH1 0x0 DUP3 DUP2 MSTORE PUSH1 0x2 DUP5 ADD PUSH1 0x20 MSTORE PUSH1 0x40 DUP2 KECCAK256 DUP3 SWAP1 SSTORE PUSH2 0x22BE DUP5 DUP5 PUSH2 0x2120 JUMP JUMPDEST PUSH1 0x60 DUP3 SELFBALANCE LT ISZERO PUSH2 0x2BAA JUMPI PUSH1 0x40 MLOAD PUSH3 0x461BCD PUSH1 0xE5 SHL DUP2 MSTORE PUSH1 0x20 PUSH1 0x4 DUP3 ADD MSTORE PUSH1 0x26 PUSH1 0x24 DUP3 ADD MSTORE PUSH32 0x416464726573733A20696E73756666696369656E742062616C616E636520666F PUSH1 0x44 DUP3 ADD MSTORE PUSH6 0x1C8818D85B1B PUSH1 0xD2 SHL PUSH1 0x64 DUP3 ADD MSTORE PUSH1 0x84 ADD PUSH2 0x42C JUMP JUMPDEST PUSH1 0x0 DUP1 DUP7 PUSH1 0x1 PUSH1 0x1 PUSH1 0xA0 SHL SUB AND DUP6 DUP8 PUSH1 0x40 MLOAD PUSH2 0x2BC6 SWAP2 SWAP1 PUSH2 0x3D7F JUMP JUMPDEST PUSH1 0x0 PUSH1 0x40 MLOAD DUP1 DUP4 SUB DUP2 DUP6 DUP8 GAS CALL SWAP3 POP POP POP RETURNDATASIZE DUP1 PUSH1 0x0 DUP2 EQ PUSH2 0x2C03 JUMPI PUSH1 0x40 MLOAD SWAP2 POP PUSH1 0x1F NOT PUSH1 0x3F RETURNDATASIZE ADD AND DUP3 ADD PUSH1 0x40 MSTORE RETURNDATASIZE DUP3 MSTORE RETURNDATASIZE PUSH1 0x0 PUSH1 0x20 DUP5 ADD RETURNDATACOPY PUSH2 0x2C08 JUMP JUMPDEST PUSH1 0x60 SWAP2 POP JUMPDEST POP SWAP2 POP SWAP2 POP PUSH2 0x2C19 DUP8 DUP4 DUP4 DUP8 PUSH2 0x2CBB JUMP JUMPDEST SWAP8 SWAP7 POP POP POP POP POP POP POP JUMP JUMPDEST PUSH1 0x60 DUP2 PUSH1 0x0 ADD DUP1 SLOAD DUP1 PUSH1 0x20 MUL PUSH1 0x20 ADD PUSH1 0x40 MLOAD SWAP1 DUP2 ADD PUSH1 0x40 MSTORE DUP1 SWAP3 SWAP2 SWAP1 DUP2 DUP2 MSTORE PUSH1 0x20 ADD DUP3 DUP1 SLOAD DUP1 ISZERO PUSH2 0x2C74 JUMPI PUSH1 0x20 MUL DUP3 ADD SWAP2 SWAP1 PUSH1 0x0 MSTORE PUSH1 0x20 PUSH1 0x0 KECCAK256 SWAP1 JUMPDEST DUP2 SLOAD DUP2 MSTORE PUSH1 0x20 ADD SWAP1 PUSH1 0x1 ADD SWAP1 DUP1 DUP4 GT PUSH2 0x2C60 JUMPI JUMPDEST POP POP POP POP POP SWAP1 POP SWAP2 SWAP1 POP JUMP JUMPDEST PUSH1 0x0 PUSH8 0xDE0B6B3A7640000 PUSH2 0x2116 DUP4 DUP6 PUSH2 0x3D0C JUMP JUMPDEST PUSH1 0x0 PUSH2 0xB2B DUP3 PUSH2 0x2D34 JUMP JUMPDEST PUSH1 0x0 DUP1 DUP1 DUP1 PUSH2 0x2299 DUP7 DUP7 PUSH2 0x2D3F JUMP JUMPDEST PUSH1 0x0 PUSH2 0x1E11 DUP4 DUP4 PUSH2 0x1DFD JUMP JUMPDEST PUSH1 0x60 DUP4 ISZERO PUSH2 0x2D2A JUMPI DUP3 MLOAD PUSH1 0x0 SUB PUSH2 0x2D23 JUMPI PUSH1 0x1 PUSH1 0x1 PUSH1 0xA0 SHL SUB DUP6 AND EXTCODESIZE PUSH2 0x2D23 JUMPI PUSH1 0x40 MLOAD PUSH3 0x461BCD PUSH1 0xE5 SHL DUP2 MSTORE PUSH1 0x20 PUSH1 0x4 DUP3 ADD MSTORE PUSH1 0x1D PUSH1 0x24 DUP3 ADD MSTORE PUSH32 0x416464726573733A2063616C6C20746F206E6F6E2D636F6E7472616374000000 PUSH1 0x44 DUP3 ADD MSTORE PUSH1 0x64 ADD PUSH2 0x42C JUMP JUMPDEST POP DUP2 PUSH2 0x22BE JUMP JUMPDEST PUSH2 0x22BE DUP4 DUP4 PUSH2 0x2D6A JUMP JUMPDEST PUSH1 0x0 PUSH2 0xB2B DUP3 PUSH2 0x2D94 JUMP JUMPDEST PUSH1 0x0 DUP1 DUP1 PUSH2 0x2D4D DUP6 DUP6 PUSH2 0x2D9E JUMP JUMPDEST PUSH1 0x0 DUP2 DUP2 MSTORE PUSH1 0x2 SWAP7 SWAP1 SWAP7 ADD PUSH1 0x20 MSTORE PUSH1 0x40 SWAP1 SWAP6 KECCAK256 SLOAD SWAP5 SWAP6 SWAP4 POP POP POP POP JUMP JUMPDEST DUP2 MLOAD ISZERO PUSH2 0x2D7A JUMPI DUP2 MLOAD DUP1 DUP4 PUSH1 0x20 ADD REVERT JUMPDEST DUP1 PUSH1 0x40 MLOAD PUSH3 0x461BCD PUSH1 0xE5 SHL DUP2 MSTORE PUSH1 0x4 ADD PUSH2 0x42C SWAP2 SWAP1 PUSH2 0x3D91 JUMP JUMPDEST PUSH1 0x0 PUSH2 0xB2B DUP3 SLOAD SWAP1 JUMP JUMPDEST PUSH1 0x0 PUSH2 0x1E11 DUP4 DUP4 PUSH1 0x0 DUP3 PUSH1 0x0 ADD DUP3 DUP2 SLOAD DUP2 LT PUSH2 0x2DBC JUMPI PUSH2 0x2DBC PUSH2 0x35E9 JUMP JUMPDEST SWAP1 PUSH1 0x0 MSTORE PUSH1 0x20 PUSH1 0x0 KECCAK256 ADD SLOAD SWAP1 POP SWAP3 SWAP2 POP POP JUMP JUMPDEST PUSH1 0x40 DUP1 MLOAD PUSH2 0x140 DUP2 ADD DUP3 MSTORE PUSH1 0x0 DUP1 DUP3 MSTORE PUSH1 0x20 DUP3 ADD DUP2 SWAP1 MSTORE SWAP2 DUP2 ADD DUP3 SWAP1 MSTORE PUSH1 0x60 DUP2 ADD DUP3 SWAP1 MSTORE PUSH1 0x80 DUP2 ADD DUP3 SWAP1 MSTORE PUSH1 0xA0 DUP2 ADD DUP3 SWAP1 MSTORE PUSH1 0xC0 DUP2 ADD DUP3 SWAP1 MSTORE PUSH1 0xE0 DUP2 ADD DUP3 SWAP1 MSTORE SWAP1 PUSH2 0x100 DUP3 ADD SWAP1 DUP2 MSTORE PUSH1 0x20 ADD PUSH1 0x60 DUP2 MSTORE POP SWAP1 JUMP JUMPDEST DUP1 CALLDATALOAD PUSH2 0xFFFF DUP2 AND DUP2 EQ PUSH2 0x2E35 JUMPI PUSH1 0x0 DUP1 REVERT JUMPDEST SWAP2 SWAP1 POP JUMP JUMPDEST PUSH1 0x0 PUSH1 0x20 DUP3 DUP5 SUB SLT ISZERO PUSH2 0x2E4C JUMPI PUSH1 0x0 DUP1 REVERT JUMPDEST PUSH2 0x1E11 DUP3 PUSH2 0x2E23 JUMP JUMPDEST PUSH4 0x4E487B71 PUSH1 0xE0 SHL PUSH1 0x0 MSTORE PUSH1 0x21 PUSH1 0x4 MSTORE PUSH1 0x24 PUSH1 0x0 REVERT JUMPDEST PUSH1 0x6 DUP2 LT PUSH2 0x2E7B JUMPI PUSH2 0x2E7B PUSH2 0x2E55 JUMP JUMPDEST SWAP1 MSTORE JUMP JUMPDEST PUSH1 0x0 JUMPDEST DUP4 DUP2 LT ISZERO PUSH2 0x2E9A JUMPI DUP2 DUP2 ADD MLOAD DUP4 DUP3 ADD MSTORE PUSH1 0x20 ADD PUSH2 0x2E82 JUMP JUMPDEST POP POP PUSH1 0x0 SWAP2 ADD MSTORE JUMP JUMPDEST PUSH1 0x0 DUP2 MLOAD DUP1 DUP5 MSTORE PUSH2 0x2EBB DUP2 PUSH1 0x20 DUP7 ADD PUSH1 0x20 DUP7 ADD PUSH2 0x2E7F JUMP JUMPDEST PUSH1 0x1F ADD PUSH1 0x1F NOT AND SWAP3 SWAP1 SWAP3 ADD PUSH1 0x20 ADD SWAP3 SWAP2 POP POP JUMP JUMPDEST PUSH1 0x0 DUP3 DUP3 MLOAD DUP1 DUP6 MSTORE PUSH1 0x20 DUP1 DUP7 ADD SWAP6 POP DUP1 DUP3 PUSH1 0x5 SHL DUP5 ADD ADD DUP2 DUP7 ADD PUSH1 0x0 JUMPDEST DUP5 DUP2 LT ISZERO PUSH2 0x2F37 JUMPI DUP6 DUP4 SUB PUSH1 0x1F NOT ADD DUP10 MSTORE DUP2 MLOAD DUP1 MLOAD PUSH1 0x1 PUSH1 0x1 PUSH1 0xA0 SHL SUB AND DUP5 MSTORE DUP5 ADD MLOAD PUSH1 0x40 DUP6 DUP6 ADD DUP2 SWAP1 MSTORE PUSH2 0x2F23 DUP2 DUP7 ADD DUP4 PUSH2 0x2EA3 JUMP JUMPDEST SWAP11 DUP7 ADD SWAP11 SWAP5 POP POP POP SWAP1 DUP4 ADD SWAP1 PUSH1 0x1 ADD PUSH2 0x2EEC JUMP JUMPDEST POP SWAP1 SWAP8 SWAP7 POP POP POP POP POP POP POP JUMP JUMPDEST DUP1 MLOAD PUSH1 0x1 PUSH1 0x1 PUSH1 0x40 SHL SUB AND DUP3 MSTORE PUSH1 0x0 PUSH2 0x140 PUSH1 0x20 DUP4 ADD MLOAD PUSH2 0x2F70 PUSH1 0x20 DUP7 ADD DUP3 PUSH1 0x1 PUSH1 0x1 PUSH1 0x40 SHL SUB AND SWAP1 MSTORE JUMP JUMPDEST POP PUSH1 0x40 DUP4 ADD MLOAD PUSH2 0x2F8B PUSH1 0x40 DUP7 ADD DUP3 PUSH1 0x1 PUSH1 0x1 PUSH1 0x40 SHL SUB AND SWAP1 MSTORE JUMP JUMPDEST POP PUSH1 0x60 DUP4 ADD MLOAD PUSH2 0x2FA6 PUSH1 0x60 DUP7 ADD DUP3 PUSH1 0x1 PUSH1 0x1 PUSH1 0x40 SHL SUB AND SWAP1 MSTORE JUMP JUMPDEST POP PUSH1 0x80 DUP4 ADD MLOAD PUSH2 0x2FC1 PUSH1 0x80 DUP7 ADD DUP3 PUSH1 0x1 PUSH1 0x1 PUSH1 0x40 SHL SUB AND SWAP1 MSTORE JUMP JUMPDEST POP PUSH1 0xA0 DUP4 ADD MLOAD PUSH2 0x2FD7 PUSH1 0xA0 DUP7 ADD DUP3 PUSH2 0xFFFF AND SWAP1 MSTORE JUMP JUMPDEST POP PUSH1 0xC0 DUP4 ADD MLOAD PUSH2 0x2FEC PUSH1 0xC0 DUP7 ADD DUP3 PUSH1 0xFF AND SWAP1 MSTORE JUMP JUMPDEST POP PUSH1 0xE0 DUP4 ADD MLOAD PUSH2 0x3007 PUSH1 0xE0 DUP7 ADD DUP3 PUSH1 0x1 PUSH1 0x1 PUSH1 0xA0 SHL SUB AND SWAP1 MSTORE JUMP JUMPDEST POP PUSH2 0x100 DUP1 DUP5 ADD MLOAD PUSH2 0x301B DUP3 DUP8 ADD DUP3 PUSH2 0x2E6B JUMP JUMPDEST POP POP PUSH2 0x120 DUP1 DUP5 ADD MLOAD DUP3 DUP3 DUP8 ADD MSTORE PUSH2 0x3035 DUP4 DUP8 ADD DUP3 PUSH2 0x2ECF JUMP JUMPDEST SWAP7 SWAP6 POP POP POP POP POP POP JUMP JUMPDEST PUSH1 0x20 DUP2 MSTORE PUSH1 0x0 PUSH2 0x1E11 PUSH1 0x20 DUP4 ADD DUP5 PUSH2 0x2F44 JUMP JUMPDEST PUSH1 0x0 DUP2 MLOAD DUP1 DUP5 MSTORE PUSH1 0x20 DUP1 DUP6 ADD SWAP5 POP DUP1 DUP5 ADD PUSH1 0x0 JUMPDEST DUP4 DUP2 LT ISZERO PUSH2 0x3099 JUMPI DUP2 MLOAD DUP1 MLOAD PUSH1 0x1 PUSH1 0x1 PUSH1 0xA0 SHL SUB AND DUP9 MSTORE PUSH1 0x20 SWAP1 DUP2 ADD MLOAD SWAP1 DUP9 ADD MSTORE PUSH1 0x40 DUP8 ADD SWAP7 POP SWAP1 DUP3 ADD SWAP1 PUSH1 0x1 ADD PUSH2 0x3066 JUMP JUMPDEST POP SWAP5 SWAP6 SWAP5 POP POP POP POP POP JUMP JUMPDEST PUSH1 0x20 DUP2 MSTORE PUSH1 0x0 DUP3 MLOAD PUSH1 0x60 PUSH1 0x20 DUP5 ADD MSTORE PUSH2 0x30C0 PUSH1 0x80 DUP5 ADD DUP3 PUSH2 0x3052 JUMP JUMPDEST SWAP1 POP PUSH1 0x20 DUP5 ADD MLOAD PUSH1 0x1F NOT DUP1 DUP6 DUP5 SUB ADD PUSH1 0x40 DUP7 ADD MSTORE PUSH2 0x30DE DUP4 DUP4 PUSH2 0x3052 JUMP JUMPDEST SWAP3 POP PUSH1 0x40 DUP7 ADD MLOAD SWAP2 POP DUP1 DUP6 DUP5 SUB ADD PUSH1 0x60 DUP7 ADD MSTORE POP PUSH2 0x30FC DUP3 DUP3 PUSH2 0x3052 JUMP JUMPDEST SWAP6 SWAP5 POP POP POP POP POP JUMP JUMPDEST PUSH1 0x0 DUP1 PUSH1 0x40 DUP4 DUP6 SUB SLT ISZERO PUSH2 0x3118 JUMPI PUSH1 0x0 DUP1 REVERT JUMPDEST PUSH2 0x3121 DUP4 PUSH2 0x2E23 JUMP JUMPDEST SWAP2 POP PUSH1 0x20 DUP4 ADD CALLDATALOAD PUSH1 0x4 DUP2 LT PUSH2 0x3135 JUMPI PUSH1 0x0 DUP1 REVERT JUMPDEST DUP1 SWAP2 POP POP SWAP3 POP SWAP3 SWAP1 POP JUMP JUMPDEST PUSH1 0x0 DUP1 PUSH1 0x20 DUP4 DUP6 SUB SLT ISZERO PUSH2 0x3153 JUMPI PUSH1 0x0 DUP1 REVERT JUMPDEST DUP3 CALLDATALOAD PUSH1 0x1 PUSH1 0x1 PUSH1 0x40 SHL SUB DUP1 DUP3 GT ISZERO PUSH2 0x316A JUMPI PUSH1 0x0 DUP1 REVERT JUMPDEST DUP2 DUP6 ADD SWAP2 POP DUP6 PUSH1 0x1F DUP4 ADD SLT PUSH2 0x317E JUMPI PUSH1 0x0 DUP1 REVERT JUMPDEST DUP2 CALLDATALOAD DUP2 DUP2 GT ISZERO PUSH2 0x318D JUMPI PUSH1 0x0 DUP1 REVERT JUMPDEST DUP7 PUSH1 0x20 DUP3 PUSH1 0x5 SHL DUP6 ADD ADD GT ISZERO PUSH2 0x31A2 JUMPI PUSH1 0x0 DUP1 REVERT JUMPDEST PUSH1 0x20 SWAP3 SWAP1 SWAP3 ADD SWAP7 SWAP2 SWAP6 POP SWAP1 SWAP4 POP POP POP POP JUMP JUMPDEST PUSH1 0x1 PUSH1 0x1 PUSH1 0xA0 SHL SUB DUP2 AND DUP2 EQ PUSH2 0x31C9 JUMPI PUSH1 0x0 DUP1 REVERT JUMPDEST POP JUMP JUMPDEST PUSH1 0x0 DUP1 PUSH1 0x40 DUP4 DUP6 SUB SLT ISZERO PUSH2 0x31DF JUMPI PUSH1 0x0 DUP1 REVERT JUMPDEST DUP3 CALLDATALOAD PUSH2 0x31EA DUP2 PUSH2 0x31B4 JUMP JUMPDEST SWAP2 POP PUSH2 0x31F8 PUSH1 0x20 DUP5 ADD PUSH2 0x2E23 JUMP JUMPDEST SWAP1 POP SWAP3 POP SWAP3 SWAP1 POP JUMP JUMPDEST PUSH1 0x4 DUP2 LT PUSH2 0x31C9 JUMPI PUSH2 0x31C9 PUSH2 0x2E55 JUMP JUMPDEST PUSH1 0x20 DUP2 ADD PUSH2 0x321E DUP4 PUSH2 0x3201 JUMP JUMPDEST SWAP2 SWAP1 MSTORE SWAP1 JUMP JUMPDEST PUSH4 0x4E487B71 PUSH1 0xE0 SHL PUSH1 0x0 MSTORE PUSH1 0x41 PUSH1 0x4 MSTORE PUSH1 0x24 PUSH1 0x0 REVERT JUMPDEST PUSH1 0x40 DUP1 MLOAD SWAP1 DUP2 ADD PUSH1 0x1 PUSH1 0x1 PUSH1 0x40 SHL SUB DUP2 GT DUP3 DUP3 LT OR ISZERO PUSH2 0x325C JUMPI PUSH2 0x325C PUSH2 0x3224 JUMP JUMPDEST PUSH1 0x40 MSTORE SWAP1 JUMP JUMPDEST PUSH1 0x40 MLOAD PUSH1 0x60 DUP2 ADD PUSH1 0x1 PUSH1 0x1 PUSH1 0x40 SHL SUB DUP2 GT DUP3 DUP3 LT OR ISZERO PUSH2 0x325C JUMPI PUSH2 0x325C PUSH2 0x3224 JUMP JUMPDEST PUSH1 0x40 MLOAD PUSH1 0x1F DUP3 ADD PUSH1 0x1F NOT AND DUP2 ADD PUSH1 0x1 PUSH1 0x1 PUSH1 0x40 SHL SUB DUP2 GT DUP3 DUP3 LT OR ISZERO PUSH2 0x32AC JUMPI PUSH2 0x32AC PUSH2 0x3224 JUMP JUMPDEST PUSH1 0x40 MSTORE SWAP2 SWAP1 POP JUMP JUMPDEST PUSH1 0xFF DUP2 AND DUP2 EQ PUSH2 0x31C9 JUMPI PUSH1 0x0 DUP1 REVERT JUMPDEST PUSH1 0x0 PUSH1 0x80 DUP3 DUP5 SUB SLT ISZERO PUSH2 0x32D5 JUMPI PUSH1 0x0 DUP1 REVERT JUMPDEST PUSH1 0x40 MLOAD PUSH1 0x80 DUP2 ADD DUP2 DUP2 LT PUSH1 0x1 PUSH1 0x1 PUSH1 0x40 SHL SUB DUP3 GT OR ISZERO PUSH2 0x32F7 JUMPI PUSH2 0x32F7 PUSH2 0x3224 JUMP JUMPDEST PUSH1 0x40 MSTORE SWAP1 POP DUP1 DUP3 CALLDATALOAD PUSH2 0x3308 DUP2 PUSH2 0x32B4 JUMP JUMPDEST DUP1 DUP3 MSTORE POP PUSH1 0x20 DUP4 ADD CALLDATALOAD PUSH1 0x20 DUP3 ADD MSTORE PUSH1 0x40 DUP4 ADD CALLDATALOAD PUSH1 0x40 DUP3 ADD MSTORE PUSH1 0x60 DUP4 ADD CALLDATALOAD PUSH2 0x332E DUP2 PUSH2 0x31B4 JUMP JUMPDEST PUSH1 0x60 SWAP2 SWAP1 SWAP2 ADD MSTORE SWAP3 SWAP2 POP POP JUMP JUMPDEST PUSH1 0x0 PUSH1 0x80 DUP3 DUP5 SUB SLT ISZERO PUSH2 0x334D JUMPI PUSH1 0x0 DUP1 REVERT JUMPDEST PUSH2 0x1E11 DUP4 DUP4 PUSH2 0x32C3 JUMP JUMPDEST PUSH1 0x0 DUP1 PUSH1 0xA0 DUP4 DUP6 SUB SLT ISZERO PUSH2 0x336A JUMPI PUSH1 0x0 DUP1 REVERT JUMPDEST DUP3 CALLDATALOAD PUSH2 0x3375 DUP2 PUSH2 0x31B4 JUMP JUMPDEST SWAP2 POP PUSH2 0x31F8 DUP5 PUSH1 0x20 DUP6 ADD PUSH2 0x32C3 JUMP JUMPDEST PUSH1 0x0 PUSH1 0x20 DUP1 DUP4 ADD DUP2 DUP5 MSTORE DUP1 DUP6 MLOAD DUP1 DUP4 MSTORE PUSH1 0x40 DUP7 ADD SWAP2 POP PUSH1 0x40 DUP2 PUSH1 0x5 SHL DUP8 ADD ADD SWAP3 POP DUP4 DUP8 ADD PUSH1 0x0 JUMPDEST DUP3 DUP2 LT ISZERO PUSH2 0x33D9 JUMPI PUSH1 0x3F NOT DUP9 DUP7 SUB ADD DUP5 MSTORE PUSH2 0x33C7 DUP6 DUP4 MLOAD PUSH2 0x2F44 JUMP JUMPDEST SWAP5 POP SWAP3 DUP6 ADD SWAP3 SWAP1 DUP6 ADD SWAP1 PUSH1 0x1 ADD PUSH2 0x33AB JUMP JUMPDEST POP SWAP3 SWAP8 SWAP7 POP POP POP POP POP POP POP JUMP JUMPDEST PUSH1 0x20 DUP1 DUP3 MSTORE PUSH1 0x17 SWAP1 DUP3 ADD MSTORE PUSH32 0x70726F706F73616C20646F6573206E6F74206578697374000000000000000000 PUSH1 0x40 DUP3 ADD MSTORE PUSH1 0x60 ADD SWAP1 JUMP JUMPDEST PUSH4 0x4E487B71 PUSH1 0xE0 SHL PUSH1 0x0 MSTORE PUSH1 0x11 PUSH1 0x4 MSTORE PUSH1 0x24 PUSH1 0x0 REVERT JUMPDEST DUP1 DUP3 ADD DUP1 DUP3 GT ISZERO PUSH2 0xB2B JUMPI PUSH2 0xB2B PUSH2 0x341D JUMP JUMPDEST PUSH1 0x40 DUP2 ADD PUSH2 0x3454 DUP3 DUP6 PUSH2 0x2E6B JUMP JUMPDEST PUSH2 0x345D DUP4 PUSH2 0x3201 JUMP JUMPDEST DUP3 PUSH1 0x20 DUP4 ADD MSTORE SWAP4 SWAP3 POP POP POP JUMP JUMPDEST PUSH1 0x1 DUP2 DUP2 SHR SWAP1 DUP3 AND DUP1 PUSH2 0x347E JUMPI PUSH1 0x7F DUP3 AND SWAP2 POP JUMPDEST PUSH1 0x20 DUP3 LT DUP2 SUB PUSH2 0x349E JUMPI PUSH4 0x4E487B71 PUSH1 0xE0 SHL PUSH1 0x0 MSTORE PUSH1 0x22 PUSH1 0x4 MSTORE PUSH1 0x24 PUSH1 0x0 REVERT JUMPDEST POP SWAP2 SWAP1 POP JUMP JUMPDEST PUSH1 0x0 PUSH1 0x60 DUP3 ADD PUSH1 0x1 DUP1 PUSH1 0xA0 SHL SUB DUP1 DUP8 AND DUP5 MSTORE PUSH1 0x20 PUSH1 0x1 PUSH1 0x1 PUSH1 0x40 SHL SUB DUP8 AND DUP2 DUP7 ADD MSTORE PUSH1 0x60 PUSH1 0x40 DUP7 ADD MSTORE DUP3 DUP7 MLOAD DUP1 DUP6 MSTORE PUSH1 0x80 DUP8 ADD SWAP2 POP DUP3 DUP9 ADD SWAP5 POP PUSH1 0x0 JUMPDEST DUP2 DUP2 LT ISZERO PUSH2 0x34FF JUMPI DUP6 MLOAD DUP6 AND DUP4 MSTORE SWAP5 DUP4 ADD SWAP5 SWAP2 DUP4 ADD SWAP2 PUSH1 0x1 ADD PUSH2 0x34E1 JUMP JUMPDEST POP SWAP1 SWAP10 SWAP9 POP POP POP POP POP POP POP POP POP JUMP JUMPDEST PUSH1 0x0 PUSH1 0x1 PUSH1 0x1 PUSH1 0x40 SHL SUB DUP3 GT ISZERO PUSH2 0x3527 JUMPI PUSH2 0x3527 PUSH2 0x3224 JUMP JUMPDEST POP PUSH1 0x5 SHL PUSH1 0x20 ADD SWAP1 JUMP JUMPDEST PUSH1 0x0 PUSH1 0x20 DUP1 DUP4 DUP6 SUB SLT ISZERO PUSH2 0x3544 JUMPI PUSH1 0x0 DUP1 REVERT JUMPDEST DUP3 MLOAD PUSH1 0x1 PUSH1 0x1 PUSH1 0x40 SHL SUB DUP2 GT ISZERO PUSH2 0x355A JUMPI PUSH1 0x0 DUP1 REVERT JUMPDEST DUP4 ADD PUSH1 0x1F DUP2 ADD DUP6 SGT PUSH2 0x356B JUMPI PUSH1 0x0 DUP1 REVERT JUMPDEST DUP1 MLOAD PUSH2 0x357E PUSH2 0x3579 DUP3 PUSH2 0x350E JUMP JUMPDEST PUSH2 0x3284 JUMP JUMPDEST DUP2 DUP2 MSTORE PUSH1 0x6 SWAP2 SWAP1 SWAP2 SHL DUP3 ADD DUP4 ADD SWAP1 DUP4 DUP2 ADD SWAP1 DUP8 DUP4 GT ISZERO PUSH2 0x359D JUMPI PUSH1 0x0 DUP1 REVERT JUMPDEST SWAP3 DUP5 ADD SWAP3 JUMPDEST DUP3 DUP5 LT ISZERO PUSH2 0x2C19 JUMPI PUSH1 0x40 DUP5 DUP10 SUB SLT ISZERO PUSH2 0x35BB JUMPI PUSH1 0x0 DUP1 DUP2 REVERT JUMPDEST PUSH2 0x35C3 PUSH2 0x323A JUMP JUMPDEST DUP5 MLOAD PUSH2 0x35CE DUP2 PUSH2 0x31B4 JUMP JUMPDEST DUP2 MSTORE DUP5 DUP7 ADD MLOAD DUP7 DUP3 ADD MSTORE DUP3 MSTORE PUSH1 0x40 SWAP1 SWAP4 ADD SWAP3 SWAP1 DUP5 ADD SWAP1 PUSH2 0x35A2 JUMP JUMPDEST PUSH4 0x4E487B71 PUSH1 0xE0 SHL PUSH1 0x0 MSTORE PUSH1 0x32 PUSH1 0x4 MSTORE PUSH1 0x24 PUSH1 0x0 REVERT JUMPDEST DUP2 DUP2 SUB DUP2 DUP2 GT ISZERO PUSH2 0xB2B JUMPI PUSH2 0xB2B PUSH2 0x341D JUMP JUMPDEST PUSH1 0x0 PUSH1 0x1 DUP3 ADD PUSH2 0x3624 JUMPI PUSH2 0x3624 PUSH2 0x341D JUMP JUMPDEST POP PUSH1 0x1 ADD SWAP1 JUMP JUMPDEST PUSH1 0x1 PUSH1 0x1 PUSH1 0xA0 SHL SUB DUP4 AND DUP2 MSTORE PUSH1 0x40 DUP2 ADD PUSH2 0x345D DUP4 PUSH2 0x3201 JUMP JUMPDEST PUSH1 0x0 PUSH2 0xFFFF DUP1 DUP4 AND DUP2 DUP2 SUB PUSH2 0x365B JUMPI PUSH2 0x365B PUSH2 0x341D JUMP JUMPDEST PUSH1 0x1 ADD SWAP4 SWAP3 POP POP POP JUMP JUMPDEST PUSH1 0x0 DUP3 CALLDATALOAD PUSH1 0x3E NOT DUP4 CALLDATASIZE SUB ADD DUP2 SLT PUSH2 0x367B JUMPI PUSH1 0x0 DUP1 REVERT JUMPDEST SWAP2 SWAP1 SWAP2 ADD SWAP3 SWAP2 POP POP JUMP JUMPDEST PUSH1 0x0 PUSH1 0x40 DUP3 DUP5 SUB SLT ISZERO PUSH2 0x3697 JUMPI PUSH1 0x0 DUP1 REVERT JUMPDEST PUSH2 0x369F PUSH2 0x323A JUMP JUMPDEST SWAP1 POP DUP2 CALLDATALOAD PUSH2 0x36AC DUP2 PUSH2 0x31B4 JUMP JUMPDEST DUP2 MSTORE PUSH1 0x20 DUP3 DUP2 ADD CALLDATALOAD PUSH1 0x1 PUSH1 0x1 PUSH1 0x40 SHL SUB DUP1 DUP3 GT ISZERO PUSH2 0x36C9 JUMPI PUSH1 0x0 DUP1 REVERT JUMPDEST DUP2 DUP6 ADD SWAP2 POP DUP6 PUSH1 0x1F DUP4 ADD SLT PUSH2 0x36DD JUMPI PUSH1 0x0 DUP1 REVERT JUMPDEST DUP2 CALLDATALOAD DUP2 DUP2 GT ISZERO PUSH2 0x36EF JUMPI PUSH2 0x36EF PUSH2 0x3224 JUMP JUMPDEST PUSH2 0x3701 PUSH1 0x1F DUP3 ADD PUSH1 0x1F NOT AND DUP6 ADD PUSH2 0x3284 JUMP JUMPDEST SWAP2 POP DUP1 DUP3 MSTORE DUP7 DUP5 DUP3 DUP6 ADD ADD GT ISZERO PUSH2 0x3717 JUMPI PUSH1 0x0 DUP1 REVERT JUMPDEST DUP1 DUP5 DUP5 ADD DUP6 DUP5 ADD CALLDATACOPY PUSH1 0x0 SWAP1 DUP3 ADD DUP5 ADD MSTORE SWAP2 DUP4 ADD SWAP2 SWAP1 SWAP2 MSTORE POP SWAP3 SWAP2 POP POP JUMP JUMPDEST PUSH1 0x0 PUSH2 0xB2B CALLDATASIZE DUP4 PUSH2 0x3685 JUMP JUMPDEST PUSH1 0x1F DUP3 GT ISZERO PUSH2 0x184F JUMPI PUSH1 0x0 DUP2 DUP2 MSTORE PUSH1 0x20 DUP2 KECCAK256 PUSH1 0x1F DUP6 ADD PUSH1 0x5 SHR DUP2 ADD PUSH1 0x20 DUP7 LT ISZERO PUSH2 0x3768 JUMPI POP DUP1 JUMPDEST PUSH1 0x1F DUP6 ADD PUSH1 0x5 SHR DUP3 ADD SWAP2 POP JUMPDEST DUP2 DUP2 LT ISZERO PUSH2 0x3787 JUMPI DUP3 DUP2 SSTORE PUSH1 0x1 ADD PUSH2 0x3774 JUMP JUMPDEST POP POP POP POP POP POP JUMP JUMPDEST DUP2 MLOAD PUSH1 0x1 PUSH1 0x1 PUSH1 0x40 SHL SUB DUP2 GT ISZERO PUSH2 0x37A8 JUMPI PUSH2 0x37A8 PUSH2 0x3224 JUMP JUMPDEST PUSH2 0x37BC DUP2 PUSH2 0x37B6 DUP5 SLOAD PUSH2 0x346A JUMP JUMPDEST DUP5 PUSH2 0x3741 JUMP JUMPDEST PUSH1 0x20 DUP1 PUSH1 0x1F DUP4 GT PUSH1 0x1 DUP2 EQ PUSH2 0x37F1 JUMPI PUSH1 0x0 DUP5 ISZERO PUSH2 0x37D9 JUMPI POP DUP6 DUP4 ADD MLOAD JUMPDEST PUSH1 0x0 NOT PUSH1 0x3 DUP7 SWAP1 SHL SHR NOT AND PUSH1 0x1 DUP6 SWAP1 SHL OR DUP6 SSTORE PUSH2 0x3787 JUMP JUMPDEST PUSH1 0x0 DUP6 DUP2 MSTORE PUSH1 0x20 DUP2 KECCAK256 PUSH1 0x1F NOT DUP7 AND SWAP2 JUMPDEST DUP3 DUP2 LT ISZERO PUSH2 0x3820 JUMPI DUP9 DUP7 ADD MLOAD DUP3 SSTORE SWAP5 DUP5 ADD SWAP5 PUSH1 0x1 SWAP1 SWAP2 ADD SWAP1 DUP5 ADD PUSH2 0x3801 JUMP JUMPDEST POP DUP6 DUP3 LT ISZERO PUSH2 0x383E JUMPI DUP8 DUP6 ADD MLOAD PUSH1 0x0 NOT PUSH1 0x3 DUP9 SWAP1 SHL PUSH1 0xF8 AND SHR NOT AND DUP2 SSTORE JUMPDEST POP POP POP POP POP PUSH1 0x1 SWAP1 DUP2 SHL ADD SWAP1 SSTORE POP JUMP JUMPDEST PUSH1 0x1 PUSH1 0x1 PUSH1 0xA0 SHL SUB DUP5 DUP2 AND DUP3 MSTORE PUSH1 0x40 PUSH1 0x20 DUP1 DUP5 ADD DUP3 SWAP1 MSTORE DUP4 DUP3 ADD DUP6 SWAP1 MSTORE PUSH1 0x0 SWAP3 PUSH1 0x60 SWAP2 DUP3 DUP7 ADD PUSH1 0x5 DUP9 SWAP1 SHL DUP8 ADD DUP5 ADD DUP10 DUP8 JUMPDEST DUP11 DUP2 LT ISZERO PUSH2 0x392D JUMPI DUP10 DUP4 SUB PUSH1 0x5F NOT ADD DUP5 MSTORE DUP2 CALLDATALOAD CALLDATASIZE DUP14 SWAP1 SUB PUSH1 0x3E NOT ADD DUP2 SLT PUSH2 0x38A6 JUMPI PUSH1 0x0 DUP1 REVERT JUMPDEST DUP13 ADD DUP1 CALLDATALOAD PUSH2 0x38B3 DUP2 PUSH2 0x31B4 JUMP JUMPDEST DUP8 AND DUP5 MSTORE DUP1 DUP7 ADD CALLDATALOAD CALLDATASIZE DUP3 SWAP1 SUB PUSH1 0x1E NOT ADD DUP2 SLT PUSH2 0x38CE JUMPI PUSH1 0x0 DUP1 REVERT JUMPDEST ADD DUP6 DUP2 ADD SWAP1 CALLDATALOAD PUSH1 0x1 PUSH1 0x1 PUSH1 0x40 SHL SUB DUP2 GT ISZERO PUSH2 0x38E8 JUMPI PUSH1 0x0 DUP1 REVERT JUMPDEST DUP1 CALLDATASIZE SUB DUP3 SGT ISZERO PUSH2 0x38F7 JUMPI PUSH1 0x0 DUP1 REVERT JUMPDEST DUP10 DUP8 DUP7 ADD MSTORE DUP1 DUP11 DUP7 ADD MSTORE DUP1 DUP3 DUP11 DUP8 ADD CALLDATACOPY PUSH1 0x0 DUP6 DUP3 ADD DUP11 ADD MSTORE SWAP5 DUP7 ADD SWAP5 PUSH1 0x1F ADD PUSH1 0x1F NOT AND SWAP1 SWAP4 ADD DUP8 ADD SWAP3 POP SWAP1 DUP5 ADD SWAP1 PUSH1 0x1 ADD PUSH2 0x3880 JUMP JUMPDEST POP SWAP1 SWAP12 SWAP11 POP POP POP POP POP POP POP POP POP POP POP JUMP JUMPDEST PUSH1 0x0 PUSH2 0x394C PUSH2 0x3579 DUP5 PUSH2 0x350E JUMP JUMPDEST DUP1 DUP5 DUP3 MSTORE PUSH1 0x20 DUP1 DUP4 ADD SWAP3 POP DUP6 PUSH1 0x5 SHL DUP6 ADD CALLDATASIZE DUP2 GT ISZERO PUSH2 0x396A JUMPI PUSH1 0x0 DUP1 REVERT JUMPDEST DUP6 JUMPDEST DUP2 DUP2 LT ISZERO PUSH2 0x39A5 JUMPI DUP1 CALLDATALOAD PUSH1 0x1 PUSH1 0x1 PUSH1 0x40 SHL SUB DUP2 GT ISZERO PUSH2 0x398B JUMPI PUSH1 0x0 DUP1 DUP2 REVERT JUMPDEST PUSH2 0x3997 CALLDATASIZE DUP3 DUP11 ADD PUSH2 0x3685 JUMP JUMPDEST DUP7 MSTORE POP SWAP4 DUP3 ADD SWAP4 DUP3 ADD PUSH2 0x396C JUMP JUMPDEST POP SWAP2 SWAP7 SWAP6 POP POP POP POP POP POP JUMP JUMPDEST PUSH1 0x20 DUP1 DUP3 MSTORE DUP3 MLOAD DUP3 DUP3 ADD DUP2 SWAP1 MSTORE PUSH1 0x0 SWAP2 SWAP1 DUP5 DUP3 ADD SWAP1 PUSH1 0x40 DUP6 ADD SWAP1 DUP5 JUMPDEST DUP2 DUP2 LT ISZERO PUSH2 0x3A00 JUMPI DUP4 MLOAD DUP1 MLOAD PUSH1 0x1 PUSH1 0x1 PUSH1 0xA0 SHL SUB AND DUP5 MSTORE PUSH1 0x20 SWAP1 DUP2 ADD MLOAD SWAP1 DUP5 ADD MSTORE PUSH1 0x40 DUP4 ADD SWAP4 DUP6 ADD SWAP4 SWAP3 POP PUSH1 0x1 ADD PUSH2 0x39CD JUMP JUMPDEST POP SWAP1 SWAP7 SWAP6 POP POP POP POP POP POP JUMP JUMPDEST PUSH1 0x0 PUSH1 0x20 DUP3 DUP5 SUB SLT ISZERO PUSH2 0x3A1E JUMPI PUSH1 0x0 DUP1 REVERT JUMPDEST POP MLOAD SWAP2 SWAP1 POP JUMP JUMPDEST PUSH1 0x1 PUSH1 0x1 PUSH1 0x40 SHL SUB DUP2 DUP2 AND DUP4 DUP3 AND ADD SWAP1 DUP1 DUP3 GT ISZERO PUSH2 0x28C9 JUMPI PUSH2 0x28C9 PUSH2 0x341D JUMP JUMPDEST DUP2 CALLDATALOAD PUSH2 0x3A50 DUP2 PUSH2 0x31B4 JUMP JUMPDEST DUP2 SLOAD PUSH1 0x1 PUSH1 0x1 PUSH1 0xA0 SHL SUB NOT AND PUSH1 0x1 PUSH1 0x1 PUSH1 0xA0 SHL SUB SWAP2 SWAP1 SWAP2 AND OR DUP2 SSTORE PUSH1 0x1 DUP2 DUP2 ADD PUSH1 0x20 DUP5 DUP2 ADD CALLDATALOAD CALLDATASIZE DUP7 SWAP1 SUB PUSH1 0x1E NOT ADD DUP2 SLT PUSH2 0x3A89 JUMPI PUSH1 0x0 DUP1 REVERT JUMPDEST DUP6 ADD DUP1 CALLDATALOAD PUSH1 0x1 PUSH1 0x1 PUSH1 0x40 SHL SUB DUP2 GT ISZERO PUSH2 0x3AA1 JUMPI PUSH1 0x0 DUP1 REVERT JUMPDEST DUP1 CALLDATASIZE SUB DUP4 DUP4 ADD SGT ISZERO PUSH2 0x3AB2 JUMPI PUSH1 0x0 DUP1 REVERT JUMPDEST PUSH2 0x3AC6 DUP2 PUSH2 0x3AC0 DUP7 SLOAD PUSH2 0x346A JUMP JUMPDEST DUP7 PUSH2 0x3741 JUMP JUMPDEST PUSH1 0x0 PUSH1 0x1F DUP3 GT PUSH1 0x1 DUP2 EQ PUSH2 0x3AFC JUMPI PUSH1 0x0 DUP4 ISZERO PUSH2 0x3AE4 JUMPI POP DUP4 DUP3 ADD DUP6 ADD CALLDATALOAD JUMPDEST PUSH1 0x0 NOT PUSH1 0x3 DUP6 SWAP1 SHL SHR NOT AND PUSH1 0x1 DUP5 SWAP1 SHL OR DUP7 SSTORE PUSH2 0x3B55 JUMP JUMPDEST PUSH1 0x0 DUP7 DUP2 MSTORE PUSH1 0x20 SWAP1 KECCAK256 PUSH1 0x1F NOT DUP5 AND SWAP1 DUP4 JUMPDEST DUP3 DUP2 LT ISZERO PUSH2 0x3B2C JUMPI DUP7 DUP6 ADD DUP9 ADD CALLDATALOAD DUP3 SSTORE SWAP4 DUP8 ADD SWAP4 SWAP1 DUP10 ADD SWAP1 DUP8 ADD PUSH2 0x3B0D JUMP JUMPDEST POP DUP5 DUP3 LT ISZERO PUSH2 0x3B4B JUMPI PUSH1 0x0 NOT PUSH1 0xF8 DUP7 PUSH1 0x3 SHL AND SHR NOT DUP8 DUP6 DUP9 ADD ADD CALLDATALOAD AND DUP2 SSTORE JUMPDEST POP POP DUP7 DUP4 DUP9 SHL ADD DUP7 SSTORE JUMPDEST POP POP POP POP POP POP POP POP POP JUMP JUMPDEST PUSH1 0x0 PUSH1 0x20 DUP1 DUP4 DUP6 SUB SLT ISZERO PUSH2 0x3B73 JUMPI PUSH1 0x0 DUP1 REVERT JUMPDEST DUP3 MLOAD PUSH1 0x1 PUSH1 0x1 PUSH1 0x40 SHL SUB DUP2 GT ISZERO PUSH2 0x3B89 JUMPI PUSH1 0x0 DUP1 REVERT JUMPDEST DUP4 ADD PUSH1 0x1F DUP2 ADD DUP6 SGT PUSH2 0x3B9A JUMPI PUSH1 0x0 DUP1 REVERT JUMPDEST DUP1 MLOAD PUSH2 0x3BA8 PUSH2 0x3579 DUP3 PUSH2 0x350E JUMP JUMPDEST DUP2 DUP2 MSTORE PUSH1 0x60 SWAP2 DUP3 MUL DUP4 ADD DUP5 ADD SWAP2 DUP5 DUP3 ADD SWAP2 SWAP1 DUP9 DUP5 GT ISZERO PUSH2 0x3BC7 JUMPI PUSH1 0x0 DUP1 REVERT JUMPDEST SWAP4 DUP6 ADD SWAP4 JUMPDEST DUP4 DUP6 LT ISZERO PUSH2 0x3C1A JUMPI DUP1 DUP6 DUP11 SUB SLT ISZERO PUSH2 0x3BE4 JUMPI PUSH1 0x0 DUP1 DUP2 REVERT JUMPDEST PUSH2 0x3BEC PUSH2 0x3262 JUMP JUMPDEST DUP6 MLOAD PUSH2 0x3BF7 DUP2 PUSH2 0x31B4 JUMP JUMPDEST DUP2 MSTORE DUP6 DUP8 ADD MLOAD DUP8 DUP3 ADD MSTORE PUSH1 0x40 DUP1 DUP8 ADD MLOAD SWAP1 DUP3 ADD MSTORE DUP4 MSTORE SWAP4 DUP5 ADD SWAP4 SWAP2 DUP6 ADD SWAP2 PUSH2 0x3BCC JUMP JUMPDEST POP SWAP8 SWAP7 POP POP POP POP POP POP POP JUMP JUMPDEST PUSH2 0xFFFF DUP2 DUP2 AND DUP4 DUP3 AND ADD SWAP1 DUP1 DUP3 GT ISZERO PUSH2 0x28C9 JUMPI PUSH2 0x28C9 PUSH2 0x341D JUMP JUMPDEST DUP1 MLOAD PUSH1 0x1 PUSH1 0x1 PUSH1 0x40 SHL SUB DUP2 AND DUP2 EQ PUSH2 0x2E35 JUMPI PUSH1 0x0 DUP1 REVERT JUMPDEST DUP1 MLOAD PUSH4 0xFFFFFFFF DUP2 AND DUP2 EQ PUSH2 0x2E35 JUMPI PUSH1 0x0 DUP1 REVERT JUMPDEST PUSH1 0x0 PUSH1 0xC0 DUP3 DUP5 SUB SLT ISZERO PUSH2 0x3C7E JUMPI PUSH1 0x0 DUP1 REVERT JUMPDEST PUSH1 0x40 MLOAD PUSH1 0xC0 DUP2 ADD DUP2 DUP2 LT PUSH1 0x1 PUSH1 0x1 PUSH1 0x40 SHL SUB DUP3 GT OR ISZERO PUSH2 0x3CA0 JUMPI PUSH2 0x3CA0 PUSH2 0x3224 JUMP JUMPDEST PUSH1 0x40 MSTORE PUSH2 0x3CAC DUP4 PUSH2 0x3C41 JUMP JUMPDEST DUP2 MSTORE PUSH2 0x3CBA PUSH1 0x20 DUP5 ADD PUSH2 0x3C41 JUMP JUMPDEST PUSH1 0x20 DUP3 ADD MSTORE PUSH2 0x3CCB PUSH1 0x40 DUP5 ADD PUSH2 0x3C41 JUMP JUMPDEST PUSH1 0x40 DUP3 ADD MSTORE PUSH2 0x3CDC PUSH1 0x60 DUP5 ADD PUSH2 0x3C58 JUMP JUMPDEST PUSH1 0x60 DUP3 ADD MSTORE PUSH2 0x3CED PUSH1 0x80 DUP5 ADD PUSH2 0x3C58 JUMP JUMPDEST PUSH1 0x80 DUP3 ADD MSTORE PUSH1 0xA0 DUP4 ADD MLOAD PUSH2 0x3D00 DUP2 PUSH2 0x32B4 JUMP JUMPDEST PUSH1 0xA0 DUP3 ADD MSTORE SWAP4 SWAP3 POP POP POP JUMP JUMPDEST DUP1 DUP3 MUL DUP2 ISZERO DUP3 DUP3 DIV DUP5 EQ OR PUSH2 0xB2B JUMPI PUSH2 0xB2B PUSH2 0x341D JUMP JUMPDEST PUSH1 0x0 DUP3 PUSH2 0x3D40 JUMPI PUSH4 0x4E487B71 PUSH1 0xE0 SHL PUSH1 0x0 MSTORE PUSH1 0x12 PUSH1 0x4 MSTORE PUSH1 0x24 PUSH1 0x0 REVERT JUMPDEST POP DIV SWAP1 JUMP JUMPDEST PUSH1 0x1 PUSH1 0x1 PUSH1 0xA0 SHL SUB DUP4 AND DUP2 MSTORE PUSH1 0x40 PUSH1 0x20 DUP3 ADD DUP2 SWAP1 MSTORE PUSH1 0x0 SWAP1 PUSH2 0x22BE SWAP1 DUP4 ADD DUP5 PUSH2 0x2EA3 JUMP JUMPDEST PUSH4 0x4E487B71 PUSH1 0xE0 SHL PUSH1 0x0 MSTORE PUSH1 0x31 PUSH1 0x4 MSTORE PUSH1 0x24 PUSH1 0x0 REVERT JUMPDEST PUSH1 0x0 DUP3 MLOAD PUSH2 0x367B DUP2 DUP5 PUSH1 0x20 DUP8 ADD PUSH2 0x2E7F JUMP JUMPDEST PUSH1 0x20 DUP2 MSTORE PUSH1 0x0 PUSH2 0x1E11 PUSH1 0x20 DUP4 ADD DUP5 PUSH2 0x2EA3 JUMP INVALID LOG2 PUSH5 0x6970667358 0x22 SLT KECCAK256 0xBA CODECOPY SELFDESTRUCT PUSH1 0x3 0xAB 0xA5 0x4B BYTE BASEFEE 0xE1 SWAP1 PUSH5 0x318C1A2B8D EXTCODESIZE LOG4 CHAINID SWAP10 SWAP4 0x4C PUSH18 0x91DB06903C2D7164736F6C63430008110033 ","sha1":"505f607401e612b83d1272acd34035731a230162","source":"// SPDX-License-Identifier: GPL-3.0-or-later\npragma solidity ^0.8.17;\n\nimport \"@openzeppelin/contracts/utils/Address.sol\";\nimport \"@openzeppelin/contracts/utils/structs/EnumerableSet.sol\";\nimport \"@openzeppelin/contracts/utils/structs/EnumerableMap.sol\";\nimport \"@openzeppelin/contracts/proxy/utils/Initializable.sol\";\n\nimport \"../libraries/DataTypes.sol\";\nimport \"../libraries/ScaledMath.sol\";\nimport \"../libraries/VaultsSnapshot.sol\";\nimport \"../libraries/Errors.sol\";\n\nimport \"../interfaces/IVault.sol\";\nimport \"../interfaces/IGovernanceManager.sol\";\nimport \"../interfaces/IVotingPowerAggregator.sol\";\nimport \"../interfaces/ITierer.sol\";\nimport \"../interfaces/ITierStrategy.sol\";\nimport \"../interfaces/IBoundedERC20WithEMA.sol\";\n\ncontract GovernanceManager is IGovernanceManager, Initializable {\n    using Address for address;\n    using ScaledMath for uint256;\n    using EnumerableSet for EnumerableSet.UintSet;\n    using EnumerableMap for EnumerableMap.AddressToUintMap;\n    using VaultsSnapshot for DataTypes.VaultSnapshot[];\n\n    uint256 internal constant _MULTISIG_SUNSET_PERIOD = 90 days;\n\n    address public immutable multisig;\n    IVotingPowerAggregator public immutable votingPowerAggregator;\n    ITierer public immutable tierer;\n\n    uint256 public multisigSunsetAt;\n    IBoundedERC20WithEMA public bGYD;\n    DataTypes.LimitUpgradeabilityParameters public limitUpgradeabilityParams;\n\n    uint16 public proposalsCount;\n\n    EnumerableSet.UintSet internal _activeProposals;\n    EnumerableSet.UintSet internal _timelockedProposals;\n    mapping(uint16 => DataTypes.Proposal) internal _proposals;\n    mapping(uint16 => DataTypes.VaultSnapshot[]) internal _vaultSnapshots;\n\n    mapping(address => mapping(uint16 => DataTypes.Ballot)) internal _votes;\n    mapping(uint16 => mapping(DataTypes.Ballot => EnumerableMap.AddressToUintMap))\n        internal _totals;\n\n    modifier onlySelf() {\n        if (msg.sender != address(this))\n            revert Errors.NotAuthorized(msg.sender, address(this));\n        _;\n    }\n\n    modifier onlyMultisig() {\n        if (msg.sender != multisig)\n            revert Errors.NotAuthorized(msg.sender, multisig);\n        if (block.timestamp >= multisigSunsetAt) revert Errors.MultisigSunset();\n        _;\n    }\n\n    constructor(\n        address _multisig,\n        IVotingPowerAggregator _votingPowerAggregator,\n        ITierer _tierer\n    ) {\n        multisig = _multisig;\n        votingPowerAggregator = _votingPowerAggregator;\n        tierer = _tierer;\n    }\n\n    function initialize(\n        IBoundedERC20WithEMA _bGYD,\n        DataTypes.LimitUpgradeabilityParameters memory _params\n    ) external initializer {\n        bGYD = _bGYD;\n        limitUpgradeabilityParams = _params;\n        multisigSunsetAt = block.timestamp + _MULTISIG_SUNSET_PERIOD;\n    }\n\n    event ProposalCreated(\n        uint16 indexed id,\n        address proposer,\n        DataTypes.ProposalAction[] actions\n    );\n\n    function createProposal(\n        DataTypes.ProposalAction[] calldata actions\n    ) external override {\n        require(actions.length > 0, \"cannot create a proposal with no actions\");\n\n        DataTypes.Tier memory tier = _getTier(actions);\n\n        // If a sufficiently large amount of GYD is bounded, this signifies that holders\n        // are happy with the system and are against further high-level upgrades.\n        // As a result, we should apply a higher tier if the proposed action has big impacts.\n        if (_isUpgradeabilityLimited(tier.actionLevel)) {\n            tier = _getLimitUpgradeabilityTier();\n        }\n\n        DataTypes.VaultVotingPower[] memory rawPower = votingPowerAggregator\n            .getVotingPower(msg.sender, block.timestamp - 1);\n        uint256 votingPowerPct = votingPowerAggregator\n            .calculateWeightedPowerPct(rawPower);\n        require(\n            votingPowerPct > tier.proposalThreshold,\n            \"proposer doesn't have enough voting power to propose this action\"\n        );\n\n        uint64 createdAt = uint64(block.timestamp);\n        uint64 votingEndsAt = createdAt + tier.proposalLength;\n        uint64 executableAt = votingEndsAt + tier.timeLockDuration;\n\n        DataTypes.Proposal storage p = _proposals[proposalsCount];\n        p.id = proposalsCount;\n        p.proposer = msg.sender;\n        p.createdAt = createdAt;\n        p.actionLevel = tier.actionLevel;\n        p.votingEndsAt = votingEndsAt;\n        p.executableAt = executableAt;\n        p.status = DataTypes.Status.Active;\n        p.quorum = tier.quorum;\n        p.voteThreshold = tier.voteThreshold;\n\n        for (uint256 i = 0; i < actions.length; i++) {\n            p.actions.push(actions[i]);\n        }\n\n        votingPowerAggregator.createVaultsSnapshot().persist(\n            _vaultSnapshots[p.id]\n        );\n\n        proposalsCount = p.id + 1;\n        _activeProposals.add(uint256(p.id));\n\n        emit ProposalCreated(p.id, p.proposer, actions);\n    }\n\n    event VoteCast(\n        uint16 indexed proposalId,\n        address voter,\n        DataTypes.Ballot vote\n    );\n\n    function vote(\n        uint16 proposalId,\n        DataTypes.Ballot ballot\n    ) external override {\n        DataTypes.Proposal storage proposal = _proposals[proposalId];\n        require(proposal.createdAt != 0, \"proposal does not exist\");\n        require(block.timestamp > proposal.createdAt, \"voting has not started\");\n\n        require(\n            proposal.votingEndsAt > uint64(block.timestamp),\n            \"voting is closed on this proposal\"\n        );\n\n        require(\n            ballot != DataTypes.Ballot.Undefined,\n            \"ballot must be cast For, Against, or Abstain\"\n        );\n\n        DataTypes.VaultSnapshot[] memory vaultSnapshots = _vaultSnapshots[\n            proposalId\n        ];\n\n        DataTypes.VaultVotingPower[] memory uvp = votingPowerAggregator\n            .getVotingPower(\n                msg.sender,\n                proposal.createdAt,\n                _vaultAddresses(vaultSnapshots)\n            );\n\n        DataTypes.Ballot existingVote = _votes[msg.sender][proposalId];\n\n        bool isNewVote = existingVote == DataTypes.Ballot.Undefined;\n        for (uint256 i = 0; i < uvp.length; i++) {\n            DataTypes.VaultVotingPower memory vvp = uvp[i];\n\n            // cancel out the previous vote if it was cast\n            if (!isNewVote) {\n                (, uint256 prevBallotTotal) = _totals[proposalId][existingVote]\n                    .tryGet(vvp.vaultAddress);\n                _totals[proposalId][existingVote].set(\n                    vvp.vaultAddress,\n                    prevBallotTotal - vvp.votingPower\n                );\n            }\n\n            (, uint256 newBallotTotal) = _totals[proposalId][ballot].tryGet(\n                vvp.vaultAddress\n            );\n            _totals[proposalId][ballot].set(\n                vvp.vaultAddress,\n                newBallotTotal + vvp.votingPower\n            );\n        }\n\n        // Then update the record of this user's vote to the latest ballot and voting power\n        _votes[msg.sender][proposalId] = ballot;\n\n        emit VoteCast(proposalId, msg.sender, ballot);\n    }\n\n    function getVoteTotals(\n        uint16 proposalId\n    ) external view override returns (DataTypes.VoteTotals memory) {\n        return _toVoteTotals(_totals[proposalId]);\n    }\n\n    function _toVoteTotals(\n        mapping(DataTypes.Ballot => EnumerableMap.AddressToUintMap)\n            storage totals\n    ) internal view returns (DataTypes.VoteTotals memory) {\n        EnumerableMap.AddressToUintMap storage forVotingPower = totals[\n            DataTypes.Ballot.For\n        ];\n        DataTypes.VaultVotingPower[] memory forTotals = _toVotingPowers(\n            forVotingPower\n        );\n\n        EnumerableMap.AddressToUintMap storage againstVotingPower = totals[\n            DataTypes.Ballot.Against\n        ];\n        DataTypes.VaultVotingPower[] memory againstTotals = _toVotingPowers(\n            againstVotingPower\n        );\n\n        EnumerableMap.AddressToUintMap storage abstentionsVotingPower = totals[\n            DataTypes.Ballot.Abstain\n        ];\n        DataTypes.VaultVotingPower[] memory abstentionsTotals = _toVotingPowers(\n            abstentionsVotingPower\n        );\n\n        return\n            DataTypes.VoteTotals({\n                _for: forTotals,\n                against: againstTotals,\n                abstentions: abstentionsTotals\n            });\n    }\n\n    event ProposalTallied(\n        uint16 indexed proposalId,\n        DataTypes.Status status,\n        DataTypes.ProposalOutcome outcome\n    );\n\n    function tallyVote(uint16 proposalId) external override {\n        DataTypes.Proposal storage proposal = _proposals[proposalId];\n        require(proposal.createdAt != 0, \"proposal does not exist\");\n\n        require(\n            proposal.status == DataTypes.Status.Active &&\n                _activeProposals.contains(uint256(proposalId)),\n            \"proposal is not currently active\"\n        );\n\n        require(\n            uint64(block.timestamp) > proposal.votingEndsAt,\n            \"voting is ongoing for this proposal\"\n        );\n\n        (\n            uint256 forTotalPct,\n            uint256 againstTotalPct,\n            uint256 abstentionsTotalPct\n        ) = _getCurrentPercentages(proposal);\n\n        uint256 quorum = proposal.quorum;\n        uint256 voteThreshold = proposal.voteThreshold;\n        if (_isUpgradeabilityLimited(proposal.actionLevel)) {\n            DataTypes.Tier memory tier = _getLimitUpgradeabilityTier();\n            quorum = tier.quorum;\n            voteThreshold = tier.voteThreshold;\n        }\n\n        uint256 combinedPct = forTotalPct +\n            againstTotalPct +\n            abstentionsTotalPct;\n        if (combinedPct < quorum) {\n            proposal.status = DataTypes.Status.Rejected;\n            _activeProposals.remove(uint256(proposalId));\n            emit ProposalTallied(\n                proposalId,\n                proposal.status,\n                DataTypes.ProposalOutcome.QuorumNotMet\n            );\n            return;\n        }\n\n        uint256 result = 0;\n        if (forTotalPct + againstTotalPct > 0) {\n            result = forTotalPct.divDown(forTotalPct + againstTotalPct);\n        }\n        DataTypes.ProposalOutcome outcome = DataTypes.ProposalOutcome.Undefined;\n        if (result >= voteThreshold) {\n            proposal.status = DataTypes.Status.Queued;\n            outcome = DataTypes.ProposalOutcome.Successful;\n            _timelockedProposals.add(uint256(proposalId));\n        } else {\n            proposal.status = DataTypes.Status.Rejected;\n            outcome = DataTypes.ProposalOutcome.ThresholdNotMet;\n        }\n        _activeProposals.remove(uint256(proposalId));\n        emit ProposalTallied(proposalId, proposal.status, outcome);\n    }\n\n    function getCurrentPercentages(\n        uint16 proposalId\n    )\n        external\n        view\n        override\n        returns (uint256 for_, uint256 against, uint256 abstain)\n    {\n        DataTypes.Proposal storage proposal = _proposals[proposalId];\n        require(proposal.createdAt != 0, \"proposal does not exist\");\n        return _getCurrentPercentages(proposal);\n    }\n\n    function _getCurrentPercentages(\n        DataTypes.Proposal storage proposal\n    ) internal view returns (uint256 for_, uint256 against, uint256 abstain) {\n        DataTypes.VaultSnapshot[] memory snapshot = _vaultSnapshots[\n            proposal.id\n        ];\n        mapping(DataTypes.Ballot => EnumerableMap.AddressToUintMap)\n            storage propTotals = _totals[proposal.id];\n        for_ = snapshot.getBallotPercentage(propTotals[DataTypes.Ballot.For]);\n        against = snapshot.getBallotPercentage(\n            propTotals[DataTypes.Ballot.Against]\n        );\n        abstain = snapshot.getBallotPercentage(\n            propTotals[DataTypes.Ballot.Abstain]\n        );\n    }\n\n    function _toVotingPowers(\n        EnumerableMap.AddressToUintMap storage map\n    ) internal view returns (DataTypes.VaultVotingPower[] memory) {\n        DataTypes.VaultVotingPower[]\n            memory vvps = new DataTypes.VaultVotingPower[](map.length());\n        for (uint256 i = 0; i < map.length(); i++) {\n            (address key, uint256 value) = map.at(i);\n            vvps[i] = DataTypes.VaultVotingPower({\n                vaultAddress: key,\n                votingPower: value\n            });\n        }\n\n        return vvps;\n    }\n\n    event ProposalExecuted(uint16 indexed proposalId);\n\n    function executeProposal(uint16 proposalId) external override {\n        DataTypes.Proposal storage proposal = _proposals[proposalId];\n        if (proposal.createdAt == uint64(0)) {\n            revert(\"proposal does not exist\");\n        }\n\n        require(\n            proposal.status == DataTypes.Status.Queued &&\n                _timelockedProposals.contains(uint256(proposalId)) &&\n                uint64(block.timestamp) > proposal.executableAt,\n            \"proposal must be queued and ready to execute\"\n        );\n\n        for (uint256 i = 0; i < proposal.actions.length; i++) {\n            proposal.actions[i].target.functionCall(\n                proposal.actions[i].data,\n                \"proposal execution failed\"\n            );\n        }\n        proposal.status = DataTypes.Status.Executed;\n        _timelockedProposals.remove(uint256(proposalId));\n        emit ProposalExecuted(proposalId);\n    }\n\n    function createAndExecuteProposal(\n        DataTypes.ProposalAction[] calldata actions\n    ) external onlyMultisig {\n        uint16 proposalId = proposalsCount++;\n        DataTypes.Proposal storage p = _proposals[proposalId];\n        p.id = proposalId;\n        p.proposer = msg.sender;\n        p.createdAt = uint64(block.timestamp);\n        p.votingEndsAt = uint64(block.timestamp);\n        p.executableAt = uint64(block.timestamp);\n        p.status = DataTypes.Status.Executed;\n        p.quorum = 0;\n        p.voteThreshold = 0;\n\n        for (uint256 i = 0; i < actions.length; i++) {\n            DataTypes.ProposalAction memory action = actions[i];\n            p.actions.push(action);\n            action.target.functionCall(\n                action.data,\n                \"proposal execution failed\"\n            );\n        }\n        emit ProposalCreated(proposalId, msg.sender, actions);\n        emit ProposalExecuted(proposalId);\n    }\n\n    event ProposalVetoed(uint16 indexed proposalId);\n\n    function vetoProposal(uint16 proposalId) external onlyMultisig {\n        DataTypes.Proposal storage proposal = _proposals[proposalId];\n        require(proposal.createdAt > 0, \"proposal does not exist\");\n\n        require(\n            proposal.status == DataTypes.Status.Active ||\n                proposal.status == DataTypes.Status.Queued,\n            \"proposal must be active or queued\"\n        );\n\n        proposal.status = DataTypes.Status.Vetoed;\n        _activeProposals.remove(uint256(proposalId));\n        _timelockedProposals.remove(uint256(proposalId));\n\n        emit ProposalVetoed(proposalId);\n    }\n\n    event MultisigSunset();\n\n    function sunsetMultisig() external onlySelf {\n        multisigSunsetAt = block.timestamp;\n        emit MultisigSunset();\n    }\n\n    function getBallot(\n        address voter,\n        uint16 proposalId\n    ) external view returns (DataTypes.Ballot) {\n        return _votes[voter][proposalId];\n    }\n\n    function getProposal(\n        uint16 proposalId\n    ) external view returns (DataTypes.Proposal memory) {\n        return _proposals[proposalId];\n    }\n\n    function updateLimitUpgradeabilityParams(\n        DataTypes.LimitUpgradeabilityParameters memory _params\n    ) external onlySelf {\n        limitUpgradeabilityParams = _params;\n    }\n\n    function listActiveProposals()\n        external\n        view\n        returns (DataTypes.Proposal[] memory)\n    {\n        return _listProposals(_activeProposals.values());\n    }\n\n    function listTimelockedProposals()\n        external\n        view\n        returns (DataTypes.Proposal[] memory)\n    {\n        return _listProposals(_timelockedProposals.values());\n    }\n\n    function _listProposals(\n        uint256[] memory ids\n    ) internal view returns (DataTypes.Proposal[] memory) {\n        uint256 len = ids.length;\n        DataTypes.Proposal[] memory proposals = new DataTypes.Proposal[](len);\n        for (uint256 i = 0; i < len; i++) {\n            proposals[i] = _proposals[uint16(ids[i])];\n        }\n        return proposals;\n    }\n\n    function _vaultAddresses(\n        DataTypes.VaultSnapshot[] memory vaultSnapshots\n    ) internal pure returns (address[] memory) {\n        uint256 len = vaultSnapshots.length;\n        address[] memory vaultAddresses = new address[](len);\n        for (uint256 i = 0; i < len; i++) {\n            vaultAddresses[i] = vaultSnapshots[i].vaultAddress;\n        }\n        return vaultAddresses;\n    }\n\n    function _getTier(\n        DataTypes.ProposalAction[] memory actions\n    ) internal view returns (DataTypes.Tier memory tier) {\n        // Determine the tier associated with this proposal by taking the tier of the most impactful\n        // action, determined by the tier's actionLevel parameter.\n        DataTypes.ProposalAction memory action = actions[0];\n        tier = tierer.getTier(action.target, action.data);\n        for (uint256 i = 1; i < actions.length; i++) {\n            DataTypes.Tier memory currentTier = tierer.getTier(\n                actions[i].target,\n                actions[i].data\n            );\n            if (currentTier.actionLevel > tier.actionLevel) {\n                tier = currentTier;\n            }\n        }\n    }\n\n    function _isUpgradeabilityLimited(\n        uint8 actionLevel\n    ) internal view returns (bool) {\n        return\n            address(bGYD) != address(0) &&\n            bGYD.totalSupply() >= limitUpgradeabilityParams.minBGYDSupply &&\n            bGYD.boundedPctEMA() > limitUpgradeabilityParams.emaThreshold &&\n            actionLevel >= limitUpgradeabilityParams.actionLevelThreshold;\n    }\n\n    function _getLimitUpgradeabilityTier()\n        internal\n        view\n        returns (DataTypes.Tier memory)\n    {\n        // NOTE: tierStrategy is always static, so the calldata is unused\n        return limitUpgradeabilityParams.tierStrategy.getTier(\"\");\n    }\n}\n","sourcePath":"contracts/GovernanceManager.sol","type":"contract","deployment":{"address":"0x0EE0A55548aE92102aBe195015694F0f3EA8403A","chainid":"1","blockHeight":18363955}}