{"abi":[{"inputs":[{"internalType":"address","name":"_owner","type":"address"},{"internalType":"address","name":"_underlying","type":"address"},{"internalType":"address","name":"_rewardsToken","type":"address"},{"internalType":"uint256","name":"_threshold","type":"uint256"},{"internalType":"address","name":"_daoTreasury","type":"address"}],"stateMutability":"nonpayable","type":"constructor","name":"constructor"},{"inputs":[{"internalType":"address","name":"actual","type":"address"},{"internalType":"address","name":"expected","type":"address"}],"name":"NotAuthorized","type":"error"},{"inputs":[],"name":"ZeroDivision","type":"error"},{"anonymous":false,"inputs":[{"indexed":true,"internalType":"address","name":"beneficiary","type":"address"},{"indexed":false,"internalType":"uint256","name":"amount","type":"uint256"}],"name":"Claim","type":"event"},{"anonymous":false,"inputs":[{"indexed":true,"internalType":"address","name":"from","type":"address"},{"indexed":true,"internalType":"address","name":"delegate","type":"address"},{"indexed":false,"internalType":"uint256","name":"amount","type":"uint256"}],"name":"Deposit","type":"event"},{"anonymous":false,"inputs":[{"indexed":false,"internalType":"uint8","name":"version","type":"uint8"}],"name":"Initialized","type":"event"},{"anonymous":false,"inputs":[{"indexed":true,"internalType":"address","name":"account","type":"address"},{"indexed":false,"internalType":"uint256","name":"amount","type":"uint256"}],"name":"Stake","type":"event"},{"anonymous":false,"inputs":[{"indexed":false,"internalType":"uint256","name":"amount","type":"uint256"},{"indexed":false,"internalType":"uint256","name":"endTime","type":"uint256"}],"name":"StartMining","type":"event"},{"anonymous":false,"inputs":[],"name":"StopMining","type":"event"},{"anonymous":false,"inputs":[{"indexed":false,"internalType":"uint256","name":"threshold","type":"uint256"}],"name":"ThresholdSet","type":"event"},{"anonymous":false,"inputs":[{"indexed":true,"internalType":"address","name":"account","type":"address"},{"indexed":false,"internalType":"uint256","name":"amount","type":"uint256"}],"name":"Unstake","type":"event"},{"anonymous":false,"inputs":[{"indexed":false,"internalType":"address","name":"delegator","type":"address"},{"indexed":false,"internalType":"address","name":"delegate","type":"address"},{"indexed":false,"internalType":"uint256","name":"amount","type":"uint256"}],"name":"VotesDelegated","type":"event"},{"anonymous":false,"inputs":[{"indexed":false,"internalType":"address","name":"delegator","type":"address"},{"indexed":false,"internalType":"address","name":"delegate","type":"address"},{"indexed":false,"internalType":"uint256","name":"amount","type":"uint256"}],"name":"VotesUndelegated","type":"event"},{"anonymous":false,"inputs":[{"indexed":true,"internalType":"uint256","name":"id","type":"uint256"},{"indexed":true,"internalType":"address","name":"to","type":"address"},{"indexed":false,"internalType":"uint256","name":"amount","type":"uint256"}],"name":"WithdrawalCompleted","type":"event"},{"anonymous":false,"inputs":[{"indexed":true,"internalType":"uint256","name":"id","type":"uint256"},{"indexed":true,"internalType":"address","name":"to","type":"address"},{"indexed":true,"internalType":"address","name":"delegate","type":"address"},{"indexed":false,"internalType":"uint256","name":"withdrawalAt","type":"uint256"},{"indexed":false,"internalType":"uint256","name":"amount","type":"uint256"}],"name":"WithdrawalQueued","type":"event"},{"inputs":[{"internalType":"address","name":"_oldDelegate","type":"address"},{"internalType":"address","name":"_newDelegate","type":"address"},{"internalType":"uint256","name":"_amount","type":"uint256"}],"name":"changeDelegate","outputs":[],"stateMutability":"nonpayable","type":"function"},{"inputs":[],"name":"claimRewards","outputs":[{"internalType":"uint256","name":"","type":"uint256"}],"stateMutability":"nonpayable","type":"function"},{"inputs":[{"internalType":"address","name":"beneficiary","type":"address"}],"name":"claimableRewards","outputs":[{"internalType":"uint256","name":"","type":"uint256"}],"stateMutability":"view","type":"function"},{"inputs":[],"name":"daoTreasury","outputs":[{"internalType":"address","name":"","type":"address"}],"stateMutability":"view","type":"function"},{"inputs":[{"internalType":"address","name":"_delegate","type":"address"},{"internalType":"uint256","name":"_amount","type":"uint256"}],"name":"delegateVote","outputs":[],"stateMutability":"nonpayable","type":"function"},{"inputs":[{"internalType":"uint256","name":"_tokenAmount","type":"uint256"},{"internalType":"address","name":"_delegate","type":"address"}],"name":"deposit","outputs":[],"stateMutability":"nonpayable","type":"function"},{"inputs":[{"internalType":"uint256","name":"_amount","type":"uint256"}],"name":"deposit","outputs":[],"stateMutability":"nonpayable","type":"function"},{"inputs":[{"internalType":"address","name":"account","type":"address"}],"name":"getCurrentRecord","outputs":[{"components":[{"internalType":"uint256","name":"at","type":"uint256"},{"internalType":"uint256","name":"baseVotingPower","type":"uint256"},{"internalType":"uint256","name":"multiplier","type":"uint256"},{"internalType":"int256","name":"netDelegatedVotes","type":"int256"}],"internalType":"struct VotingPowerHistory.Record","name":"","type":"tuple"}],"stateMutability":"view","type":"function"},{"inputs":[{"internalType":"address","name":"account","type":"address"}],"name":"getDelegations","outputs":[{"components":[{"internalType":"address","name":"delegate","type":"address"},{"internalType":"uint256","name":"amount","type":"uint256"}],"internalType":"struct DataTypes.Delegation[]","name":"delegations","type":"tuple[]"}],"stateMutability":"view","type":"function"},{"inputs":[{"internalType":"address","name":"account","type":"address"}],"name":"getRawVotingPower","outputs":[{"internalType":"uint256","name":"","type":"uint256"}],"stateMutability":"view","type":"function"},{"inputs":[{"internalType":"address","name":"_user","type":"address"},{"internalType":"uint256","name":"timestamp","type":"uint256"}],"name":"getRawVotingPower","outputs":[{"internalType":"uint256","name":"","type":"uint256"}],"stateMutability":"view","type":"function"},{"inputs":[],"name":"getTotalRawVotingPower","outputs":[{"internalType":"uint256","name":"","type":"uint256"}],"stateMutability":"view","type":"function"},{"inputs":[],"name":"getVaultType","outputs":[{"internalType":"string","name":"","type":"string"}],"stateMutability":"pure","type":"function"},{"inputs":[],"name":"globalCheckpoint","outputs":[],"stateMutability":"nonpayable","type":"function"},{"inputs":[{"internalType":"uint256","name":"_withdrawalWaitDuration","type":"uint256"}],"name":"initialize","outputs":[],"stateMutability":"nonpayable","type":"function"},{"inputs":[{"internalType":"uint256","name":"_vaultTokenAmount","type":"uint256"},{"internalType":"address","name":"_delegate","type":"address"}],"name":"initiateWithdrawal","outputs":[{"internalType":"uint256","name":"","type":"uint256"}],"stateMutability":"nonpayable","type":"function"},{"inputs":[{"internalType":"address","name":"_user","type":"address"}],"name":"listPendingWithdrawals","outputs":[{"components":[{"internalType":"uint256","name":"id","type":"uint256"},{"internalType":"uint256","name":"withdrawableAt","type":"uint256"},{"internalType":"uint256","name":"amount","type":"uint256"},{"internalType":"address","name":"to","type":"address"},{"internalType":"address","name":"delegate","type":"address"}],"internalType":"struct DataTypes.PendingWithdrawal[]","name":"","type":"tuple[]"}],"stateMutability":"view","type":"function"},{"inputs":[],"name":"owner","outputs":[{"internalType":"address","name":"","type":"address"}],"stateMutability":"view","type":"function"},{"inputs":[],"name":"rewardToken","outputs":[{"internalType":"contract IERC20","name":"","type":"address"}],"stateMutability":"view","type":"function"},{"inputs":[],"name":"rewardsEmissionEndTime","outputs":[{"internalType":"uint256","name":"","type":"uint256"}],"stateMutability":"view","type":"function"},{"inputs":[],"name":"rewardsEmissionRate","outputs":[{"internalType":"uint256","name":"","type":"uint256"}],"stateMutability":"view","type":"function"},{"inputs":[{"internalType":"uint256","name":"_threshold","type":"uint256"}],"name":"setThreshold","outputs":[],"stateMutability":"nonpayable","type":"function"},{"inputs":[{"internalType":"uint256","name":"_duration","type":"uint256"}],"name":"setWithdrawalWaitDuration","outputs":[],"stateMutability":"nonpayable","type":"function"},{"inputs":[{"internalType":"address","name":"account","type":"address"}],"name":"stakedBalanceOf","outputs":[{"internalType":"uint256","name":"","type":"uint256"}],"stateMutability":"view","type":"function"},{"inputs":[{"internalType":"address","name":"rewardsFrom","type":"address"},{"internalType":"uint256","name":"amount","type":"uint256"},{"internalType":"uint256","name":"endTime","type":"uint256"}],"name":"startMining","outputs":[],"stateMutability":"nonpayable","type":"function"},{"inputs":[],"name":"stopMining","outputs":[],"stateMutability":"nonpayable","type":"function"},{"inputs":[],"name":"threshold","outputs":[{"internalType":"uint256","name":"","type":"uint256"}],"stateMutability":"view","type":"function"},{"inputs":[],"name":"totalStaked","outputs":[{"internalType":"uint256","name":"","type":"uint256"}],"stateMutability":"view","type":"function"},{"inputs":[],"name":"totalSupply","outputs":[{"internalType":"uint256","name":"","type":"uint256"}],"stateMutability":"view","type":"function"},{"inputs":[{"internalType":"address","name":"_delegate","type":"address"},{"internalType":"uint256","name":"_amount","type":"uint256"}],"name":"undelegateVote","outputs":[],"stateMutability":"nonpayable","type":"function"},{"inputs":[],"name":"underlying","outputs":[{"internalType":"contract IERC20","name":"","type":"address"}],"stateMutability":"view","type":"function"},{"inputs":[{"internalType":"address","name":"account","type":"address"}],"name":"userCheckpoint","outputs":[],"stateMutability":"nonpayable","type":"function"},{"inputs":[{"internalType":"uint256","name":"withdrawalId","type":"uint256"}],"name":"withdraw","outputs":[],"stateMutability":"nonpayable","type":"function"}],"bytecode":"6101206040523480156200001257600080fd5b5060405162003061380380620030618339810160408190526200003591620000fd565b6001600160a01b038086166080524260085580841660a05280821660c052841660e08190526040805163313ce56760e01b8152905187928792879286929163313ce5679160048083019260209291908290030181865afa1580156200009e573d6000803e3d6000fd5b505050506040513d601f19601f82011682018060405250810190620000c4919062000164565b60ff166101005250505060149290925550620001909350505050565b80516001600160a01b0381168114620000f857600080fd5b919050565b600080600080600060a086880312156200011657600080fd5b6200012186620000e0565b94506200013160208701620000e0565b93506200014160408701620000e0565b9250606086015191506200015860808701620000e0565b90509295509295909350565b6000602082840312156200017757600080fd5b815160ff811681146200018957600080fd5b9392505050565b60805160a05160c05160e05161010051612e2a62000237600039600081816106dd0152610e33015260008181610328015281816107300152610d9d0152600081816103940152611c2e0152600081816104d901528181611689015281816116cb01528181611b880152611c0c0152600081816103c401528181610a1501528181610a57015281816111a9015281816111eb015281816112fd015261133f0152612e2a6000f3fe608060405234801561001057600080fd5b50600436106101fb5760003560e01c8063817b1cd21161011a578063c24ab3bb116100ad578063de1ec4031161007c578063de1ec4031461049b578063e2fcf550146104ae578063e9314c73146104c1578063f7c618c1146104d4578063fe4b84df146104fb57600080fd5b8063c24ab3bb1461044d578063cead04811461046d578063da40867914610480578063dc01f60d1461048857600080fd5b806397a04d5a116100e957806397a04d5a1461040c5780639f1acf0814610414578063b07b709b14610427578063b6b55f251461043a57600080fd5b8063817b1cd2146103b65780638da5cb5b146103bf578063926f7327146103e6578063960bfe04146103f957600080fd5b806342cde4e8116101925780636e553f65116101615780636e553f65146103105780636f307dc31461032357806375baf37f1461036257806379022a9f1461038f57600080fd5b806342cde4e8146102d85780634a62c9fb146102e15780634ba9699e146102ea57806354438127146102fd57600080fd5b80632e1a7d4d116101ce5780632e1a7d4d1461029557806331cc13ba146102a8578063344ff1d0146102c8578063372500ab146102d057600080fd5b8063167653911461020057806318160ddd1461023c57806319ad0eba146102455780631ac40e661461028b575b600080fd5b61022961020e366004612961565b6001600160a01b03166000908152600c602052604090205490565b6040519081526020015b60405180910390f35b61022960135481565b610258610253366004612961565b61050e565b60405161023391908151815260208083015190820152604080830151908201526060918201519181019190915260800190565b61029361054a565b005b6102936102a336600461297c565b6105bf565b6102bb6102b6366004612961565b610854565b6040516102339190612995565b61022961094f565b61022961096b565b61022960145481565b610229600e5481565b6102936102f83660046129ed565b610a0a565b61022961030b366004612a20565b610a94565b61029361031e366004612a20565b610ceb565b61034a7f000000000000000000000000000000000000000000000000000000000000000081565b6040516001600160a01b039091168152602001610233565b604080518082018252600b81526a131bd8dad95915985d5b1d60aa1b602082015290516102339190612a70565b61034a7f000000000000000000000000000000000000000000000000000000000000000081565b61022960065481565b61034a7f000000000000000000000000000000000000000000000000000000000000000081565b6102936103f4366004612aa3565b610f0a565b61029361040736600461297c565b610f19565b610229610f54565b610229610422366004612961565b610f6d565b610293610435366004612961565b610f79565b61029361044836600461297c565b611014565b61046061045b366004612961565b611021565b6040516102339190612acd565b61029361047b366004612b3d565b611188565b61029361119e565b610229610496366004612961565b611222565b6102296104a9366004612aa3565b6112d9565b6102936104bc366004612aa3565b6112e7565b6102936104cf36600461297c565b6112f2565b61034a7f000000000000000000000000000000000000000000000000000000000000000081565b61029361050936600461297c565b611371565b6105396040518060800160405280600081526020016000815260200160008152602001600081525090565b610544600183611487565b92915050565b60065480156105b8576000600854426105639190612b8f565b9050600081610570610f54565b61057a9190612ba2565b90506105868184611595565b600760008282546105979190612bb9565b9250508190555080600960008282546105b09190612bb9565b909155505050505b5042600855565b600081815260116020908152604091829020825160a0810184528154815260018201549281019290925260028101549282019290925260038201546001600160a01b03908116606083018190526004909301541660808201529033146106775760405162461bcd60e51b815260206004820152602260248201527f6d61746368696e67207769746864726177616c20646f6573206e6f74206578696044820152611cdd60f21b60648201526084015b60405180910390fd5b42816020015111156106cb5760405162461bcd60e51b815260206004820152601b60248201527f6e6f2076616c69642070656e64696e67207769746864726177616c0000000000604482015260640161066e565b604081015160009061070290601260ff7f0000000000000000000000000000000000000000000000000000000000000000166115e8565b606083015160405163a9059cbb60e01b81526001600160a01b039182166004820152602481018390529192507f0000000000000000000000000000000000000000000000000000000000000000169063a9059cbb906044016020604051808303816000875af1158015610779573d6000803e3d6000fd5b505050506040513d601f19601f8201168201806040525081019061079d9190612bcc565b50600083815260116020908152604080832083815560018101849055600281018490556003810180546001600160a01b031990811690915560049091018054909116905560608501516001600160a01b03168352601090915290206108029084611645565b5081606001516001600160a01b0316837f096793b0307a8bedd30923ee6c6a84d492646dd968c25a0c714296a68c74aceb846040015160405161084791815260200190565b60405180910390a3505050565b6001600160a01b038116600090815260056020526040812060609161087882611651565b90508067ffffffffffffffff81111561089357610893612bee565b6040519080825280602002602001820160405280156108d857816020015b60408051808201909152600080825260208201528152602001906001900390816108b15790505b50925060005b81811015610947576000806108f3858461165c565b915091506040518060400160405280836001600160a01b031681526020018281525086848151811061092757610927612c04565b60200260200101819052505050808061093f90612c1a565b9150506108de565b505050919050565b60006014546013541015610964575060145490565b5060135490565b600061097633610f79565b336000908152600b60205260408120549081900361099657600091505090565b336000818152600b602052604080822091909155517f47cee97cb7acd717b3c0aa1435d004cd5b3c8c57d70dbceb4e4458bbd60e39d4906109da9084815260200190565b60405180910390a280600960008282546109f49190612b8f565b90915550610a049050338261167a565b91505090565b336001600160a01b037f00000000000000000000000000000000000000000000000000000000000000001614610a845760405163c55ddc9760e01b81523360048201526001600160a01b037f000000000000000000000000000000000000000000000000000000000000000016602482015260440161066e565b610a8f8383836116b6565b505050565b600080610aa2600133611487565b905060006001600160a01b03841615801590610ac757506001600160a01b0384163314155b905084826020015110158015610b0357508080610b0357503360009081526003602052604090205485908360200151610b009190612b8f565b10155b610b4f5760405162461bcd60e51b815260206004820152601860248201527f6e6f7420656e6f75676820746f20756e64656c65676174650000000000000000604482015260640161066e565b610b7833868460200151610b639190612b8f565b6040850151606086015160019392919061174d565b508015610b8a57610b8a338587611891565b8460136000828254610b9c9190612b8f565b90915550610bac90503386611926565b60006040518060a001604052806012548152602001600f5442610bcf9190612bb9565b815260208082018990523360408084018290526001600160a01b038a811660609586015285516000908152601185528281208751808255888701516001830155888501516002830155968801516003820180549185166001600160a01b031992831617905560808901516004909201805492909416911617909155918252601090925220919250610c6091906119b8565b5060128054906000610c7183612c1a565b919050555080608001516001600160a01b031681606001516001600160a01b031682600001517f20849eb8a3d11461c2f45d1330d7cdfdcf0359148aaa26d84af32b9596e32b9484602001518560400151604051610cd9929190918252602082015260400190565b60405180910390a45195945050505050565b6001600160a01b038116610d365760405162461bcd60e51b815260206004820152601260248201527106e6f2064656c65676174696f6e20746f20360741b604482015260640161066e565b60008211610d865760405162461bcd60e51b815260206004820152601a60248201527f63616e6e6f74206465706f736974207a65726f20616d6f756e74000000000000604482015260640161066e565b6040516323b872dd60e01b81526001600160a01b037f000000000000000000000000000000000000000000000000000000000000000016906323b872dd90610dd690339030908790600401612c33565b6020604051808303816000875af1158015610df5573d6000803e3d6000fd5b505050506040513d601f19601f82011682018060405250810190610e199190612bcc565b506000610e27600133611487565b90506000610e5a8460ff7f00000000000000000000000000000000000000000000000000000000000000001660126115e8565b9050610e7033828460200151610b639190612bb9565b506001600160a01b03831615801590610e9257506001600160a01b0383163314155b15610ea257610ea23384836119c4565b8060136000828254610eb49190612bb9565b90915550610ec490503382611a95565b6040518481526001600160a01b0384169033907f5548c837ab068cf56a2c2479df0882a4922fd203edb7517321831d95078c5f629060200160405180910390a350505050565b610f153383836119c4565b5050565b60148190556040518181527f6e8a187d7944998085dbd1f16b84c51c903bb727536cdba86962439aded2cfd79060200160405180910390a150565b6000600e54421115610f665750600090565b50600d5490565b600061054482426112d9565b610f8161054a565b6007546001600160a01b0382166000908152600a6020526040902054610fcb90610fab9083612b8f565b6001600160a01b0384166000908152600c60205260409020545b90611b1d565b6001600160a01b0383166000908152600b602052604081208054909190610ff3908490612bb9565b90915550506001600160a01b039091166000908152600a6020526040902055565b61101e8133610ceb565b50565b6001600160a01b038116600090815260106020526040812060609161104582611b46565b67ffffffffffffffff81111561105d5761105d612bee565b6040519080825280602002602001820160405280156110d257816020015b6110bf6040518060a0016040528060008152602001600081526020016000815260200160006001600160a01b0316815260200160006001600160a01b031681525090565b81526020019060019003908161107b5790505b50905060005b6110e183611b46565b81101561118057601160006110f68584611b50565b81526020808201929092526040908101600020815160a0810183528154815260018201549381019390935260028101549183019190915260038101546001600160a01b039081166060840152600490910154166080820152825183908390811061116257611162612c04565b6020026020010181905250808061117890612c1a565b9150506110d8565b509392505050565b611193338483611891565b610a8f3383836119c4565b336001600160a01b037f000000000000000000000000000000000000000000000000000000000000000016146112185760405163c55ddc9760e01b81523360048201526001600160a01b037f000000000000000000000000000000000000000000000000000000000000000016602482015260440161066e565b611220611b5c565b565b600754600654600091901561126a5761125d600654600854426112459190612b8f565b61124d610f54565b6112579190612ba2565b90611595565b6112679082612bb9565b90505b6001600160a01b0383166000908152600a60205260409020546112af906112919083612b8f565b6001600160a01b0385166000908152600c6020526040902054610fc5565b6001600160a01b0384166000908152600b60205260409020546112d29190612bb9565b9392505050565b60006112d260018484611c84565b610f15338383611891565b336001600160a01b037f0000000000000000000000000000000000000000000000000000000000000000161461136c5760405163c55ddc9760e01b81523360048201526001600160a01b037f000000000000000000000000000000000000000000000000000000000000000016602482015260440161066e565b600f55565b600054610100900460ff16158080156113915750600054600160ff909116105b806113ab5750303b1580156113ab575060005460ff166001145b61140e5760405162461bcd60e51b815260206004820152602e60248201527f496e697469616c697a61626c653a20636f6e747261637420697320616c72656160448201526d191e481a5b9a5d1a585b1a5e995960921b606482015260840161066e565b6000805460ff191660011790558015611431576000805461ff0019166101001790555b600f82905561143e61054a565b8015610f15576000805461ff0019169055604051600181527f7f26b83ff96e1f2b6a682f133852f6798a09c465da95921460cefb38474024989060200160405180910390a15050565b6114b26040518060800160405280600081526020016000815260200160008152602001600081525090565b6001600160a01b03821660009081526020848152604080832080548251818502810185019093528083529192909190849084015b828210156115405783829060005260206000209060040201604051806080016040529081600082015481526020016001820154815260200160028201548152602001600382015481525050815260200190600101906114e6565b505050509050805160000361155f57611557611d35565b915050610544565b806001825161156e9190612b8f565b8151811061157e5761157e612c04565b6020026020010151915050610544565b5092915050565b6000816000036115b857604051630a0c22c760e01b815260040160405180910390fd5b826000036115c857506000610544565b60006115dc670de0b6b3a764000085612ba2565b90506115578382612c57565b60008183036115f85750826112d2565b818310156116265761160a8383612b8f565b61161590600a612d55565b61161f9085612ba2565b90506112d2565b6116308284612b8f565b61163b90600a612d55565b61161f9085612c57565b60006112d28383611d91565b600061054482611e84565b600080808061166b8686611e8f565b909450925050505b9250929050565b60006116b06001600160a01b037f0000000000000000000000000000000000000000000000000000000000000000168484611eba565b50919050565b6116be61054a565b6116f36001600160a01b037f000000000000000000000000000000000000000000000000000000000000000016843085611f1d565b6116fd4282612b8f565b6117079083612c57565b600d55600e81905560408051838152602081018390527f76554fac4477e8876b3de3af392cf374cf4e9de02ae78fbade2373107381fe50910160405180910390a1505050565b6117786040518060800160405280600081526020016000815260200160008152602001600081525090565b6001600160a01b038516600090815260208781526040808320815160808101835242815292830188905290820186905260608201859052916117ba8989611487565b8051909150421480156117cd5750825415155b15611832578254829084906117e490600190612b8f565b815481106117f4576117f4612c04565b906000526020600020906004020160008201518160000155602082015181600101556040820151816002015560608201518160030155905050611885565b6001600160a01b038816600090815260208a815260408083208054600181810183559185529383902086516004909502019384559185015191830191909155830151600282015560608301516003909101555b50979650505050505050565b61189e6001848484611f3e565b6001600160a01b03831660009081526005602052604081206118c0908461211b565b90508181036118f1576001600160a01b03841660009081526005602052604090206118eb9084612130565b50611920565b61191e836118ff8484612b8f565b6001600160a01b03871660009081526005602052604090209190612145565b505b50505050565b61192f82610f79565b6001600160a01b0382166000908152600c602052604081208054839290611957908490612b8f565b9250508190555080600660008282546119709190612b8f565b90915550506040518181526001600160a01b038316907f85082129d87b2fe11527cb1b3b7a520aeb5aa6913f88a3d8757fe40d1db02fdd906020015b60405180910390a25050565b60006112d2838361215b565b6001600160a01b038216611a1a5760405162461bcd60e51b815260206004820152601c60248201527f63616e6e6f742064656c656761746520746f2030206164647265737300000000604482015260640161066e565b611a2760018484846121aa565b6001600160a01b03831660009081526005602052604081208190611a4b908561237b565b91509150600082611a5c5783611a66565b611a668483612bb9565b6001600160a01b0387166000908152600560205260409020909150611a8c908683612145565b50505050505050565b611a9e82610f79565b8060066000828254611ab09190612bb9565b90915550506001600160a01b0382166000908152600c602052604081208054839290611add908490612bb9565b90915550506040518181526001600160a01b038316907febedb8b3c678666e7f36970bc8f57abf6d8fa2e828c0da91ea5b75bf68ed101a906020016119ac565b600080611b2a8385612ba2565b9050611b3e670de0b6b3a764000082612c57565b949350505050565b6000610544825490565b60006112d28383612393565b611b6461054a565b6009546040516370a0823160e01b8152306004820152600091906001600160a01b037f000000000000000000000000000000000000000000000000000000000000000016906370a0823190602401602060405180830381865afa158015611bcf573d6000803e3d6000fd5b505050506040513d601f19601f82011682018060405250810190611bf39190612d61565b611bfd9190612b8f565b9050611c536001600160a01b037f0000000000000000000000000000000000000000000000000000000000000000167f000000000000000000000000000000000000000000000000000000000000000083611eba565b6000600e8190556040517fe5a0e15e63edb96a15ed99a9c2a3674e2e0bd1b10b65d0223cce19a6b54e7fb19190a150565b6001600160a01b03821660009081526020848152604080832080548251818502810185019093528083528493611d2093929190859084015b82821015611d16578382906000526020600020906004020160405180608001604052908160008201548152602001600182015481526020016002820154815260200160038201548152505081526020019060010190611cbc565b50505050846123bd565b915050611d2c81612403565b95945050505050565b611d606040518060800160405280600081526020016000815260200160008152602001600081525090565b60405180608001604052806000815260200160008152602001670de0b6b3a764000081526020016000815250905090565b60008181526001830160205260408120548015611e7a576000611db5600183612b8f565b8554909150600090611dc990600190612b8f565b9050818114611e2e576000866000018281548110611de957611de9612c04565b9060005260206000200154905080876000018481548110611e0c57611e0c612c04565b6000918252602080832090910192909255918252600188019052604090208390555b8554869080611e3f57611e3f612d7a565b600190038181906000526020600020016000905590558560010160008681526020019081526020016000206000905560019350505050610544565b6000915050610544565b600061054482611b46565b60008080611e9d8585611b50565b600081815260029690960160205260409095205494959350505050565b6040516001600160a01b038316602482015260448101829052610a8f90849063a9059cbb60e01b906064015b60408051601f198184030181529190526020810180516001600160e01b03166001600160e01b03199093169290921790915261242f565b611920846323b872dd60e01b858585604051602401611ee693929190612c33565b6001600160a01b038084166000908152600186016020908152604080832093861683529290522054811115611fc75760405162461bcd60e51b815260206004820152602960248201527f7573657220686173206e6f742064656c65676174656420656e6f75676820746f6044820152682064656c656761746560b81b606482015260840161066e565b6001600160a01b038216600090815260038501602052604081208054839290611ff1908490612b8f565b90915550506001600160a01b038316600090815260028501602052604081208054839290612020908490612b8f565b90915550506001600160a01b03808416600090815260018601602090815260408083209386168352929052908120805483929061205e908490612b8f565b90915550600090506120708585611487565b905061209d8482602001518360400151612093888a61250190919063ffffffff16565b899392919061174d565b5060006120aa8685611487565b90506120d784826020015183604001516120cd888b61250190919063ffffffff16565b8a9392919061174d565b507fde5aa493a93d4351631c1991a0aeecfd52d6b51cf1b61f1a3c48f97e2680865385858560405161210b93929190612c33565b60405180910390a1505050505050565b60006112d2836001600160a01b038416612533565b60006112d2836001600160a01b0384166125a3565b6000611b3e846001600160a01b038516846125c0565b60008181526001830160205260408120546121a257508154600181810184556000848152602080822090930184905584548482528286019093526040902091909155610544565b506000610544565b60006121b68585611487565b6001600160a01b0385166000908152600287016020908152604080832054908401519184015193945091926121ea916125dd565b6121f49190612b8f565b9050828110156122465760405162461bcd60e51b815260206004820181905260248201527f696e73756666696369656e742062616c616e636520746f2064656c6567617465604482015260640161066e565b6001600160a01b038416600090815260038701602052604081208054859290612270908490612bb9565b90915550506001600160a01b03851660009081526002870160205260408120805485929061229f908490612bb9565b90915550506001600160a01b0380861660009081526001880160209081526040808320938816835292905290812080548592906122dd908490612bb9565b9091555050602082015160408301516122fc9187916120cd8a84612501565b5060006123098786611487565b9050612336858260200151836040015161232c898c61250190919063ffffffff16565b8b9392919061174d565b507fff825f9424124effc5ce1d9f4803d58ede8a2bda4da2324810f74834715c4c5986868660405161236a93929190612c33565b60405180910390a150505050505050565b600080808061166b866001600160a01b0387166125fc565b60008260000182815481106123aa576123aa612c04565b9060005260206000200154905092915050565b60006123ea6040518060800160405280600081526020016000815260200160008152602001600081525090565b6123f884846000875161263e565b915091509250929050565b60008160600151612425836040015184602001516125dd90919063ffffffff16565b6105449190612d90565b6000612484826040518060400160405280602081526020017f5361666545524332303a206c6f772d6c6576656c2063616c6c206661696c6564815250856001600160a01b03166127999092919063ffffffff16565b805190915015610a8f57808060200190518101906124a29190612bcc565b610a8f5760405162461bcd60e51b815260206004820152602a60248201527f5361666545524332303a204552433230206f7065726174696f6e20646964206e6044820152691bdd081cdd58d8d9595960b21b606482015260840161066e565b6001600160a01b0381166000908152600283016020908152604080832054600386019092528220546112d29190612db8565b600081815260028301602052604081205480151580612557575061255784846127a8565b6112d25760405162461bcd60e51b815260206004820152601e60248201527f456e756d657261626c654d61703a206e6f6e6578697374656e74206b65790000604482015260640161066e565b600081815260028301602052604081208190556112d28383611645565b60008281526002840160205260408120829055611b3e84846119b8565b6000670de0b6b3a76400006125f28385612ba2565b6112d29190612c57565b600081815260028301602052604081205481908061262b5761261e85856127a8565b9250600091506116739050565b600192509050611673565b509250929050565b600061266b6040518060800160405280600081526020016000815260200160008152602001600081525090565b82841061268557600061267c611d35565b91509150612790565b61268f8484612b8f565b6001036126dd5760008685815181106126aa576126aa612c04565b6020026020010151905085816000015111156126cf5760006126ca611d35565b6126d3565b6001815b9250925050612790565b600060026126eb8686612bb9565b6126f59190612c57565b9050600087612705600184612b8f565b8151811061271557612715612c04565b60200260200101519050600088838151811061273357612733612c04565b60200260200101519050878260000151111580156127515750805188105b1561276457506001935091506127909050565b80518810612784576127788989858961263e565b94509450505050612790565b6127788989898661263e565b94509492505050565b6060611b3e84846000856127b4565b60006112d2838361288f565b6060824710156128155760405162461bcd60e51b815260206004820152602660248201527f416464726573733a20696e73756666696369656e742062616c616e636520666f6044820152651c8818d85b1b60d21b606482015260840161066e565b600080866001600160a01b031685876040516128319190612dd8565b60006040518083038185875af1925050503d806000811461286e576040519150601f19603f3d011682016040523d82523d6000602084013e612873565b606091505b5091509150612884878383876128a7565b979650505050505050565b600081815260018301602052604081205415156112d2565b6060831561291657825160000361290f576001600160a01b0385163b61290f5760405162461bcd60e51b815260206004820152601d60248201527f416464726573733a2063616c6c20746f206e6f6e2d636f6e7472616374000000604482015260640161066e565b5081611b3e565b611b3e838381511561292b5781518083602001fd5b8060405162461bcd60e51b815260040161066e9190612a70565b80356001600160a01b038116811461295c57600080fd5b919050565b60006020828403121561297357600080fd5b6112d282612945565b60006020828403121561298e57600080fd5b5035919050565b602080825282518282018190526000919060409081850190868401855b828110156129e057815180516001600160a01b031685528601518685015292840192908501906001016129b2565b5091979650505050505050565b600080600060608486031215612a0257600080fd5b612a0b84612945565b95602085013595506040909401359392505050565b60008060408385031215612a3357600080fd5b82359150612a4360208401612945565b90509250929050565b60005b83811015612a67578181015183820152602001612a4f565b50506000910152565b6020815260008251806020840152612a8f816040850160208701612a4c565b601f01601f19169190910160400192915050565b60008060408385031215612ab657600080fd5b612abf83612945565b946020939093013593505050565b602080825282518282018190526000919060409081850190868401855b828110156129e057815180518552868101518786015285810151868601526060808201516001600160a01b0390811691870191909152608091820151169085015260a09093019290850190600101612aea565b600080600060608486031215612b5257600080fd5b612b5b84612945565b9250612b6960208501612945565b9150604084013590509250925092565b634e487b7160e01b600052601160045260246000fd5b8181038181111561054457610544612b79565b808202811582820484141761054457610544612b79565b8082018082111561054457610544612b79565b600060208284031215612bde57600080fd5b815180151581146112d257600080fd5b634e487b7160e01b600052604160045260246000fd5b634e487b7160e01b600052603260045260246000fd5b600060018201612c2c57612c2c612b79565b5060010190565b6001600160a01b039384168152919092166020820152604081019190915260600190565b600082612c7457634e487b7160e01b600052601260045260246000fd5b500490565b600181815b80851115612636578160001904821115612c9a57612c9a612b79565b80851615612ca757918102915b93841c9390800290612c7e565b600082612cc357506001610544565b81612cd057506000610544565b8160018114612ce65760028114612cf057612d0c565b6001915050610544565b60ff841115612d0157612d01612b79565b50506001821b610544565b5060208310610133831016604e8410600b8410161715612d2f575081810a610544565b612d398383612c79565b8060001904821115612d4d57612d4d612b79565b029392505050565b60006112d28383612cb4565b600060208284031215612d7357600080fd5b5051919050565b634e487b7160e01b600052603160045260246000fd5b8082018281126000831280158216821582161715612db057612db0612b79565b505092915050565b818103600083128015838313168383128216171561158e5761158e612b79565b60008251612dea818460208701612a4c565b919091019291505056fea264697066735822122040f45880e04d655d49c72fe2c5cebe07a2a0a35215d76ec03ea38c997709c39a64736f6c63430008110033","bytecodeSha1":"91f4531fdd091dcfaf347c9851fc147e1e5072fd","compiler":{"evm_version":"istanbul","optimizer":{"enabled":true,"runs":200},"version":"0.8.17+commit.8df45f5f"},"contractName":"LockedVaultWithThreshold","language":"Solidity","natspec":{"kind":"dev","methods":{"claimRewards()":{"notice":"claims rewards for caller"},"claimableRewards(address)":{"notice":"returns the amount of claimable rewards by `beneficiary`"},"globalCheckpoint()":{"details":"these functions will be called internally but can typically be called by anyone to update the internal tracking state of the contract"},"rewardsEmissionEndTime()":{"notice":"time when rewards emission ends"},"rewardsEmissionRate()":{"notice":"returns the number of rewards token that will be given per second for the contract This emission will be given to all stakers in the contract proportionally to their stake"},"stakedBalanceOf(address)":{"notice":"the amount of tokens staked by `account`"},"startMining(address,uint256,uint256)":{"notice":"Deposit `amount` of the reward token from `rewardsFrom` and enable rewards until `endTime`. Typically governanceOnly. `amount` is spread evenly over the time period."},"stopMining()":{"notice":"Stop liquidity mining early and reimburse leftover rewards to the DAO treasury. This may also be needed after the mining period has ended when we had `totalStaked() == 0` for a while, where no rewards accrue."},"totalStaked()":{"notice":"the total amount of tokens staked in the contract"}},"version":1},"opcodes":"PUSH1 0x80 PUSH1 0x40 MSTORE CALLVALUE DUP1 ISZERO PUSH2 0x10 JUMPI PUSH1 0x0 DUP1 REVERT JUMPDEST POP PUSH1 0x4 CALLDATASIZE LT PUSH2 0x1FB JUMPI PUSH1 0x0 CALLDATALOAD PUSH1 0xE0 SHR DUP1 PUSH4 0x817B1CD2 GT PUSH2 0x11A JUMPI DUP1 PUSH4 0xC24AB3BB GT PUSH2 0xAD JUMPI DUP1 PUSH4 0xDE1EC403 GT PUSH2 0x7C JUMPI DUP1 PUSH4 0xDE1EC403 EQ PUSH2 0x49B JUMPI DUP1 PUSH4 0xE2FCF550 EQ PUSH2 0x4AE JUMPI DUP1 PUSH4 0xE9314C73 EQ PUSH2 0x4C1 JUMPI DUP1 PUSH4 0xF7C618C1 EQ PUSH2 0x4D4 JUMPI DUP1 PUSH4 0xFE4B84DF EQ PUSH2 0x4FB JUMPI PUSH1 0x0 DUP1 REVERT JUMPDEST DUP1 PUSH4 0xC24AB3BB EQ PUSH2 0x44D JUMPI DUP1 PUSH4 0xCEAD0481 EQ PUSH2 0x46D JUMPI DUP1 PUSH4 0xDA408679 EQ PUSH2 0x480 JUMPI DUP1 PUSH4 0xDC01F60D EQ PUSH2 0x488 JUMPI PUSH1 0x0 DUP1 REVERT JUMPDEST DUP1 PUSH4 0x97A04D5A GT PUSH2 0xE9 JUMPI DUP1 PUSH4 0x97A04D5A EQ PUSH2 0x40C JUMPI DUP1 PUSH4 0x9F1ACF08 EQ PUSH2 0x414 JUMPI DUP1 PUSH4 0xB07B709B EQ PUSH2 0x427 JUMPI DUP1 PUSH4 0xB6B55F25 EQ PUSH2 0x43A JUMPI PUSH1 0x0 DUP1 REVERT JUMPDEST DUP1 PUSH4 0x817B1CD2 EQ PUSH2 0x3B6 JUMPI DUP1 PUSH4 0x8DA5CB5B EQ PUSH2 0x3BF JUMPI DUP1 PUSH4 0x926F7327 EQ PUSH2 0x3E6 JUMPI DUP1 PUSH4 0x960BFE04 EQ PUSH2 0x3F9 JUMPI PUSH1 0x0 DUP1 REVERT JUMPDEST DUP1 PUSH4 0x42CDE4E8 GT PUSH2 0x192 JUMPI DUP1 PUSH4 0x6E553F65 GT PUSH2 0x161 JUMPI DUP1 PUSH4 0x6E553F65 EQ PUSH2 0x310 JUMPI DUP1 PUSH4 0x6F307DC3 EQ PUSH2 0x323 JUMPI DUP1 PUSH4 0x75BAF37F EQ PUSH2 0x362 JUMPI DUP1 PUSH4 0x79022A9F EQ PUSH2 0x38F JUMPI PUSH1 0x0 DUP1 REVERT JUMPDEST DUP1 PUSH4 0x42CDE4E8 EQ PUSH2 0x2D8 JUMPI DUP1 PUSH4 0x4A62C9FB EQ PUSH2 0x2E1 JUMPI DUP1 PUSH4 0x4BA9699E EQ PUSH2 0x2EA JUMPI DUP1 PUSH4 0x54438127 EQ PUSH2 0x2FD JUMPI PUSH1 0x0 DUP1 REVERT JUMPDEST DUP1 PUSH4 0x2E1A7D4D GT PUSH2 0x1CE JUMPI DUP1 PUSH4 0x2E1A7D4D EQ PUSH2 0x295 JUMPI DUP1 PUSH4 0x31CC13BA EQ PUSH2 0x2A8 JUMPI DUP1 PUSH4 0x344FF1D0 EQ PUSH2 0x2C8 JUMPI DUP1 PUSH4 0x372500AB EQ PUSH2 0x2D0 JUMPI PUSH1 0x0 DUP1 REVERT JUMPDEST DUP1 PUSH4 0x16765391 EQ PUSH2 0x200 JUMPI DUP1 PUSH4 0x18160DDD EQ PUSH2 0x23C JUMPI DUP1 PUSH4 0x19AD0EBA EQ PUSH2 0x245 JUMPI DUP1 PUSH4 0x1AC40E66 EQ PUSH2 0x28B JUMPI JUMPDEST PUSH1 0x0 DUP1 REVERT JUMPDEST PUSH2 0x229 PUSH2 0x20E CALLDATASIZE PUSH1 0x4 PUSH2 0x2961 JUMP JUMPDEST PUSH1 0x1 PUSH1 0x1 PUSH1 0xA0 SHL SUB AND PUSH1 0x0 SWAP1 DUP2 MSTORE PUSH1 0xC PUSH1 0x20 MSTORE PUSH1 0x40 SWAP1 KECCAK256 SLOAD SWAP1 JUMP JUMPDEST PUSH1 0x40 MLOAD SWAP1 DUP2 MSTORE PUSH1 0x20 ADD JUMPDEST PUSH1 0x40 MLOAD DUP1 SWAP2 SUB SWAP1 RETURN JUMPDEST PUSH2 0x229 PUSH1 0x13 SLOAD DUP2 JUMP JUMPDEST PUSH2 0x258 PUSH2 0x253 CALLDATASIZE PUSH1 0x4 PUSH2 0x2961 JUMP JUMPDEST PUSH2 0x50E JUMP JUMPDEST PUSH1 0x40 MLOAD PUSH2 0x233 SWAP2 SWAP1 DUP2 MLOAD DUP2 MSTORE PUSH1 0x20 DUP1 DUP4 ADD MLOAD SWAP1 DUP3 ADD MSTORE PUSH1 0x40 DUP1 DUP4 ADD MLOAD SWAP1 DUP3 ADD MSTORE PUSH1 0x60 SWAP2 DUP3 ADD MLOAD SWAP2 DUP2 ADD SWAP2 SWAP1 SWAP2 MSTORE PUSH1 0x80 ADD SWAP1 JUMP JUMPDEST PUSH2 0x293 PUSH2 0x54A JUMP JUMPDEST STOP JUMPDEST PUSH2 0x293 PUSH2 0x2A3 CALLDATASIZE PUSH1 0x4 PUSH2 0x297C JUMP JUMPDEST PUSH2 0x5BF JUMP JUMPDEST PUSH2 0x2BB PUSH2 0x2B6 CALLDATASIZE PUSH1 0x4 PUSH2 0x2961 JUMP JUMPDEST PUSH2 0x854 JUMP JUMPDEST PUSH1 0x40 MLOAD PUSH2 0x233 SWAP2 SWAP1 PUSH2 0x2995 JUMP JUMPDEST PUSH2 0x229 PUSH2 0x94F JUMP JUMPDEST PUSH2 0x229 PUSH2 0x96B JUMP JUMPDEST PUSH2 0x229 PUSH1 0x14 SLOAD DUP2 JUMP JUMPDEST PUSH2 0x229 PUSH1 0xE SLOAD DUP2 JUMP JUMPDEST PUSH2 0x293 PUSH2 0x2F8 CALLDATASIZE PUSH1 0x4 PUSH2 0x29ED JUMP JUMPDEST PUSH2 0xA0A JUMP JUMPDEST PUSH2 0x229 PUSH2 0x30B CALLDATASIZE PUSH1 0x4 PUSH2 0x2A20 JUMP JUMPDEST PUSH2 0xA94 JUMP JUMPDEST PUSH2 0x293 PUSH2 0x31E CALLDATASIZE PUSH1 0x4 PUSH2 0x2A20 JUMP JUMPDEST PUSH2 0xCEB JUMP JUMPDEST PUSH2 0x34A PUSH32 0x0 DUP2 JUMP JUMPDEST PUSH1 0x40 MLOAD PUSH1 0x1 PUSH1 0x1 PUSH1 0xA0 SHL SUB SWAP1 SWAP2 AND DUP2 MSTORE PUSH1 0x20 ADD PUSH2 0x233 JUMP JUMPDEST PUSH1 0x40 DUP1 MLOAD DUP1 DUP3 ADD DUP3 MSTORE PUSH1 0xB DUP2 MSTORE PUSH11 0x131BD8DAD95915985D5B1D PUSH1 0xAA SHL PUSH1 0x20 DUP3 ADD MSTORE SWAP1 MLOAD PUSH2 0x233 SWAP2 SWAP1 PUSH2 0x2A70 JUMP JUMPDEST PUSH2 0x34A PUSH32 0x0 DUP2 JUMP JUMPDEST PUSH2 0x229 PUSH1 0x6 SLOAD DUP2 JUMP JUMPDEST PUSH2 0x34A PUSH32 0x0 DUP2 JUMP JUMPDEST PUSH2 0x293 PUSH2 0x3F4 CALLDATASIZE PUSH1 0x4 PUSH2 0x2AA3 JUMP JUMPDEST PUSH2 0xF0A JUMP JUMPDEST PUSH2 0x293 PUSH2 0x407 CALLDATASIZE PUSH1 0x4 PUSH2 0x297C JUMP JUMPDEST PUSH2 0xF19 JUMP JUMPDEST PUSH2 0x229 PUSH2 0xF54 JUMP JUMPDEST PUSH2 0x229 PUSH2 0x422 CALLDATASIZE PUSH1 0x4 PUSH2 0x2961 JUMP JUMPDEST PUSH2 0xF6D JUMP JUMPDEST PUSH2 0x293 PUSH2 0x435 CALLDATASIZE PUSH1 0x4 PUSH2 0x2961 JUMP JUMPDEST PUSH2 0xF79 JUMP JUMPDEST PUSH2 0x293 PUSH2 0x448 CALLDATASIZE PUSH1 0x4 PUSH2 0x297C JUMP JUMPDEST PUSH2 0x1014 JUMP JUMPDEST PUSH2 0x460 PUSH2 0x45B CALLDATASIZE PUSH1 0x4 PUSH2 0x2961 JUMP JUMPDEST PUSH2 0x1021 JUMP JUMPDEST PUSH1 0x40 MLOAD PUSH2 0x233 SWAP2 SWAP1 PUSH2 0x2ACD JUMP JUMPDEST PUSH2 0x293 PUSH2 0x47B CALLDATASIZE PUSH1 0x4 PUSH2 0x2B3D JUMP JUMPDEST PUSH2 0x1188 JUMP JUMPDEST PUSH2 0x293 PUSH2 0x119E JUMP JUMPDEST PUSH2 0x229 PUSH2 0x496 CALLDATASIZE PUSH1 0x4 PUSH2 0x2961 JUMP JUMPDEST PUSH2 0x1222 JUMP JUMPDEST PUSH2 0x229 PUSH2 0x4A9 CALLDATASIZE PUSH1 0x4 PUSH2 0x2AA3 JUMP JUMPDEST PUSH2 0x12D9 JUMP JUMPDEST PUSH2 0x293 PUSH2 0x4BC CALLDATASIZE PUSH1 0x4 PUSH2 0x2AA3 JUMP JUMPDEST PUSH2 0x12E7 JUMP JUMPDEST PUSH2 0x293 PUSH2 0x4CF CALLDATASIZE PUSH1 0x4 PUSH2 0x297C JUMP JUMPDEST PUSH2 0x12F2 JUMP JUMPDEST PUSH2 0x34A PUSH32 0x0 DUP2 JUMP JUMPDEST PUSH2 0x293 PUSH2 0x509 CALLDATASIZE PUSH1 0x4 PUSH2 0x297C JUMP JUMPDEST PUSH2 0x1371 JUMP JUMPDEST PUSH2 0x539 PUSH1 0x40 MLOAD DUP1 PUSH1 0x80 ADD PUSH1 0x40 MSTORE DUP1 PUSH1 0x0 DUP2 MSTORE PUSH1 0x20 ADD PUSH1 0x0 DUP2 MSTORE PUSH1 0x20 ADD PUSH1 0x0 DUP2 MSTORE PUSH1 0x20 ADD PUSH1 0x0 DUP2 MSTORE POP SWAP1 JUMP JUMPDEST PUSH2 0x544 PUSH1 0x1 DUP4 PUSH2 0x1487 JUMP JUMPDEST SWAP3 SWAP2 POP POP JUMP JUMPDEST PUSH1 0x6 SLOAD DUP1 ISZERO PUSH2 0x5B8 JUMPI PUSH1 0x0 PUSH1 0x8 SLOAD TIMESTAMP PUSH2 0x563 SWAP2 SWAP1 PUSH2 0x2B8F JUMP JUMPDEST SWAP1 POP PUSH1 0x0 DUP2 PUSH2 0x570 PUSH2 0xF54 JUMP JUMPDEST PUSH2 0x57A SWAP2 SWAP1 PUSH2 0x2BA2 JUMP JUMPDEST SWAP1 POP PUSH2 0x586 DUP2 DUP5 PUSH2 0x1595 JUMP JUMPDEST PUSH1 0x7 PUSH1 0x0 DUP3 DUP3 SLOAD PUSH2 0x597 SWAP2 SWAP1 PUSH2 0x2BB9 JUMP JUMPDEST SWAP3 POP POP DUP2 SWAP1 SSTORE POP DUP1 PUSH1 0x9 PUSH1 0x0 DUP3 DUP3 SLOAD PUSH2 0x5B0 SWAP2 SWAP1 PUSH2 0x2BB9 JUMP JUMPDEST SWAP1 SWAP2 SSTORE POP POP POP POP JUMPDEST POP TIMESTAMP PUSH1 0x8 SSTORE JUMP JUMPDEST PUSH1 0x0 DUP2 DUP2 MSTORE PUSH1 0x11 PUSH1 0x20 SWAP1 DUP2 MSTORE PUSH1 0x40 SWAP2 DUP3 SWAP1 KECCAK256 DUP3 MLOAD PUSH1 0xA0 DUP2 ADD DUP5 MSTORE DUP2 SLOAD DUP2 MSTORE PUSH1 0x1 DUP3 ADD SLOAD SWAP3 DUP2 ADD SWAP3 SWAP1 SWAP3 MSTORE PUSH1 0x2 DUP2 ADD SLOAD SWAP3 DUP3 ADD SWAP3 SWAP1 SWAP3 MSTORE PUSH1 0x3 DUP3 ADD SLOAD PUSH1 0x1 PUSH1 0x1 PUSH1 0xA0 SHL SUB SWAP1 DUP2 AND PUSH1 0x60 DUP4 ADD DUP2 SWAP1 MSTORE PUSH1 0x4 SWAP1 SWAP4 ADD SLOAD AND PUSH1 0x80 DUP3 ADD MSTORE SWAP1 CALLER EQ PUSH2 0x677 JUMPI PUSH1 0x40 MLOAD PUSH3 0x461BCD PUSH1 0xE5 SHL DUP2 MSTORE PUSH1 0x20 PUSH1 0x4 DUP3 ADD MSTORE PUSH1 0x22 PUSH1 0x24 DUP3 ADD MSTORE PUSH32 0x6D61746368696E67207769746864726177616C20646F6573206E6F7420657869 PUSH1 0x44 DUP3 ADD MSTORE PUSH2 0x1CDD PUSH1 0xF2 SHL PUSH1 0x64 DUP3 ADD MSTORE PUSH1 0x84 ADD JUMPDEST PUSH1 0x40 MLOAD DUP1 SWAP2 SUB SWAP1 REVERT JUMPDEST TIMESTAMP DUP2 PUSH1 0x20 ADD MLOAD GT ISZERO PUSH2 0x6CB JUMPI PUSH1 0x40 MLOAD PUSH3 0x461BCD PUSH1 0xE5 SHL DUP2 MSTORE PUSH1 0x20 PUSH1 0x4 DUP3 ADD MSTORE PUSH1 0x1B PUSH1 0x24 DUP3 ADD MSTORE PUSH32 0x6E6F2076616C69642070656E64696E67207769746864726177616C0000000000 PUSH1 0x44 DUP3 ADD MSTORE PUSH1 0x64 ADD PUSH2 0x66E JUMP JUMPDEST PUSH1 0x40 DUP2 ADD MLOAD PUSH1 0x0 SWAP1 PUSH2 0x702 SWAP1 PUSH1 0x12 PUSH1 0xFF PUSH32 0x0 AND PUSH2 0x15E8 JUMP JUMPDEST PUSH1 0x60 DUP4 ADD MLOAD PUSH1 0x40 MLOAD PUSH4 0xA9059CBB PUSH1 0xE0 SHL DUP2 MSTORE PUSH1 0x1 PUSH1 0x1 PUSH1 0xA0 SHL SUB SWAP2 DUP3 AND PUSH1 0x4 DUP3 ADD MSTORE PUSH1 0x24 DUP2 ADD DUP4 SWAP1 MSTORE SWAP2 SWAP3 POP PUSH32 0x0 AND SWAP1 PUSH4 0xA9059CBB SWAP1 PUSH1 0x44 ADD PUSH1 0x20 PUSH1 0x40 MLOAD DUP1 DUP4 SUB DUP2 PUSH1 0x0 DUP8 GAS CALL ISZERO DUP1 ISZERO PUSH2 0x779 JUMPI RETURNDATASIZE PUSH1 0x0 DUP1 RETURNDATACOPY RETURNDATASIZE PUSH1 0x0 REVERT JUMPDEST POP POP POP POP PUSH1 0x40 MLOAD RETURNDATASIZE PUSH1 0x1F NOT PUSH1 0x1F DUP3 ADD AND DUP3 ADD DUP1 PUSH1 0x40 MSTORE POP DUP2 ADD SWAP1 PUSH2 0x79D SWAP2 SWAP1 PUSH2 0x2BCC JUMP JUMPDEST POP PUSH1 0x0 DUP4 DUP2 MSTORE PUSH1 0x11 PUSH1 0x20 SWAP1 DUP2 MSTORE PUSH1 0x40 DUP1 DUP4 KECCAK256 DUP4 DUP2 SSTORE PUSH1 0x1 DUP2 ADD DUP5 SWAP1 SSTORE PUSH1 0x2 DUP2 ADD DUP5 SWAP1 SSTORE PUSH1 0x3 DUP2 ADD DUP1 SLOAD PUSH1 0x1 PUSH1 0x1 PUSH1 0xA0 SHL SUB NOT SWAP1 DUP2 AND SWAP1 SWAP2 SSTORE PUSH1 0x4 SWAP1 SWAP2 ADD DUP1 SLOAD SWAP1 SWAP2 AND SWAP1 SSTORE PUSH1 0x60 DUP6 ADD MLOAD PUSH1 0x1 PUSH1 0x1 PUSH1 0xA0 SHL SUB AND DUP4 MSTORE PUSH1 0x10 SWAP1 SWAP2 MSTORE SWAP1 KECCAK256 PUSH2 0x802 SWAP1 DUP5 PUSH2 0x1645 JUMP JUMPDEST POP DUP2 PUSH1 0x60 ADD MLOAD PUSH1 0x1 PUSH1 0x1 PUSH1 0xA0 SHL SUB AND DUP4 PUSH32 0x96793B0307A8BEDD30923EE6C6A84D492646DD968C25A0C714296A68C74ACEB DUP5 PUSH1 0x40 ADD MLOAD PUSH1 0x40 MLOAD PUSH2 0x847 SWAP2 DUP2 MSTORE PUSH1 0x20 ADD SWAP1 JUMP JUMPDEST PUSH1 0x40 MLOAD DUP1 SWAP2 SUB SWAP1 LOG3 POP POP POP JUMP JUMPDEST PUSH1 0x1 PUSH1 0x1 PUSH1 0xA0 SHL SUB DUP2 AND PUSH1 0x0 SWAP1 DUP2 MSTORE PUSH1 0x5 PUSH1 0x20 MSTORE PUSH1 0x40 DUP2 KECCAK256 PUSH1 0x60 SWAP2 PUSH2 0x878 DUP3 PUSH2 0x1651 JUMP JUMPDEST SWAP1 POP DUP1 PUSH8 0xFFFFFFFFFFFFFFFF DUP2 GT ISZERO PUSH2 0x893 JUMPI PUSH2 0x893 PUSH2 0x2BEE JUMP JUMPDEST PUSH1 0x40 MLOAD SWAP1 DUP1 DUP3 MSTORE DUP1 PUSH1 0x20 MUL PUSH1 0x20 ADD DUP3 ADD PUSH1 0x40 MSTORE DUP1 ISZERO PUSH2 0x8D8 JUMPI DUP2 PUSH1 0x20 ADD JUMPDEST PUSH1 0x40 DUP1 MLOAD DUP1 DUP3 ADD SWAP1 SWAP2 MSTORE PUSH1 0x0 DUP1 DUP3 MSTORE PUSH1 0x20 DUP3 ADD MSTORE DUP2 MSTORE PUSH1 0x20 ADD SWAP1 PUSH1 0x1 SWAP1 SUB SWAP1 DUP2 PUSH2 0x8B1 JUMPI SWAP1 POP JUMPDEST POP SWAP3 POP PUSH1 0x0 JUMPDEST DUP2 DUP2 LT ISZERO PUSH2 0x947 JUMPI PUSH1 0x0 DUP1 PUSH2 0x8F3 DUP6 DUP5 PUSH2 0x165C JUMP JUMPDEST SWAP2 POP SWAP2 POP PUSH1 0x40 MLOAD DUP1 PUSH1 0x40 ADD PUSH1 0x40 MSTORE DUP1 DUP4 PUSH1 0x1 PUSH1 0x1 PUSH1 0xA0 SHL SUB AND DUP2 MSTORE PUSH1 0x20 ADD DUP3 DUP2 MSTORE POP DUP7 DUP5 DUP2 MLOAD DUP2 LT PUSH2 0x927 JUMPI PUSH2 0x927 PUSH2 0x2C04 JUMP JUMPDEST PUSH1 0x20 MUL PUSH1 0x20 ADD ADD DUP2 SWAP1 MSTORE POP POP POP DUP1 DUP1 PUSH2 0x93F SWAP1 PUSH2 0x2C1A JUMP JUMPDEST SWAP2 POP POP PUSH2 0x8DE JUMP JUMPDEST POP POP POP SWAP2 SWAP1 POP JUMP JUMPDEST PUSH1 0x0 PUSH1 0x14 SLOAD PUSH1 0x13 SLOAD LT ISZERO PUSH2 0x964 JUMPI POP PUSH1 0x14 SLOAD SWAP1 JUMP JUMPDEST POP PUSH1 0x13 SLOAD SWAP1 JUMP JUMPDEST PUSH1 0x0 PUSH2 0x976 CALLER PUSH2 0xF79 JUMP JUMPDEST CALLER PUSH1 0x0 SWAP1 DUP2 MSTORE PUSH1 0xB PUSH1 0x20 MSTORE PUSH1 0x40 DUP2 KECCAK256 SLOAD SWAP1 DUP2 SWAP1 SUB PUSH2 0x996 JUMPI PUSH1 0x0 SWAP2 POP POP SWAP1 JUMP JUMPDEST CALLER PUSH1 0x0 DUP2 DUP2 MSTORE PUSH1 0xB PUSH1 0x20 MSTORE PUSH1 0x40 DUP1 DUP3 KECCAK256 SWAP2 SWAP1 SWAP2 SSTORE MLOAD PUSH32 0x47CEE97CB7ACD717B3C0AA1435D004CD5B3C8C57D70DBCEB4E4458BBD60E39D4 SWAP1 PUSH2 0x9DA SWAP1 DUP5 DUP2 MSTORE PUSH1 0x20 ADD SWAP1 JUMP JUMPDEST PUSH1 0x40 MLOAD DUP1 SWAP2 SUB SWAP1 LOG2 DUP1 PUSH1 0x9 PUSH1 0x0 DUP3 DUP3 SLOAD PUSH2 0x9F4 SWAP2 SWAP1 PUSH2 0x2B8F JUMP JUMPDEST SWAP1 SWAP2 SSTORE POP PUSH2 0xA04 SWAP1 POP CALLER DUP3 PUSH2 0x167A JUMP JUMPDEST SWAP2 POP POP SWAP1 JUMP JUMPDEST CALLER PUSH1 0x1 PUSH1 0x1 PUSH1 0xA0 SHL SUB PUSH32 0x0 AND EQ PUSH2 0xA84 JUMPI PUSH1 0x40 MLOAD PUSH4 0xC55DDC97 PUSH1 0xE0 SHL DUP2 MSTORE CALLER PUSH1 0x4 DUP3 ADD MSTORE PUSH1 0x1 PUSH1 0x1 PUSH1 0xA0 SHL SUB PUSH32 0x0 AND PUSH1 0x24 DUP3 ADD MSTORE PUSH1 0x44 ADD PUSH2 0x66E JUMP JUMPDEST PUSH2 0xA8F DUP4 DUP4 DUP4 PUSH2 0x16B6 JUMP JUMPDEST POP POP POP JUMP JUMPDEST PUSH1 0x0 DUP1 PUSH2 0xAA2 PUSH1 0x1 CALLER PUSH2 0x1487 JUMP JUMPDEST SWAP1 POP PUSH1 0x0 PUSH1 0x1 PUSH1 0x1 PUSH1 0xA0 SHL SUB DUP5 AND ISZERO DUP1 ISZERO SWAP1 PUSH2 0xAC7 JUMPI POP PUSH1 0x1 PUSH1 0x1 PUSH1 0xA0 SHL SUB DUP5 AND CALLER EQ ISZERO JUMPDEST SWAP1 POP DUP5 DUP3 PUSH1 0x20 ADD MLOAD LT ISZERO DUP1 ISZERO PUSH2 0xB03 JUMPI POP DUP1 DUP1 PUSH2 0xB03 JUMPI POP CALLER PUSH1 0x0 SWAP1 DUP2 MSTORE PUSH1 0x3 PUSH1 0x20 MSTORE PUSH1 0x40 SWAP1 KECCAK256 SLOAD DUP6 SWAP1 DUP4 PUSH1 0x20 ADD MLOAD PUSH2 0xB00 SWAP2 SWAP1 PUSH2 0x2B8F JUMP JUMPDEST LT ISZERO JUMPDEST PUSH2 0xB4F JUMPI PUSH1 0x40 MLOAD PUSH3 0x461BCD PUSH1 0xE5 SHL DUP2 MSTORE PUSH1 0x20 PUSH1 0x4 DUP3 ADD MSTORE PUSH1 0x18 PUSH1 0x24 DUP3 ADD MSTORE PUSH32 0x6E6F7420656E6F75676820746F20756E64656C65676174650000000000000000 PUSH1 0x44 DUP3 ADD MSTORE PUSH1 0x64 ADD PUSH2 0x66E JUMP JUMPDEST PUSH2 0xB78 CALLER DUP7 DUP5 PUSH1 0x20 ADD MLOAD PUSH2 0xB63 SWAP2 SWAP1 PUSH2 0x2B8F JUMP JUMPDEST PUSH1 0x40 DUP6 ADD MLOAD PUSH1 0x60 DUP7 ADD MLOAD PUSH1 0x1 SWAP4 SWAP3 SWAP2 SWAP1 PUSH2 0x174D JUMP JUMPDEST POP DUP1 ISZERO PUSH2 0xB8A JUMPI PUSH2 0xB8A CALLER DUP6 DUP8 PUSH2 0x1891 JUMP JUMPDEST DUP5 PUSH1 0x13 PUSH1 0x0 DUP3 DUP3 SLOAD PUSH2 0xB9C SWAP2 SWAP1 PUSH2 0x2B8F JUMP JUMPDEST SWAP1 SWAP2 SSTORE POP PUSH2 0xBAC SWAP1 POP CALLER DUP7 PUSH2 0x1926 JUMP JUMPDEST PUSH1 0x0 PUSH1 0x40 MLOAD DUP1 PUSH1 0xA0 ADD PUSH1 0x40 MSTORE DUP1 PUSH1 0x12 SLOAD DUP2 MSTORE PUSH1 0x20 ADD PUSH1 0xF SLOAD TIMESTAMP PUSH2 0xBCF SWAP2 SWAP1 PUSH2 0x2BB9 JUMP JUMPDEST DUP2 MSTORE PUSH1 0x20 DUP1 DUP3 ADD DUP10 SWAP1 MSTORE CALLER PUSH1 0x40 DUP1 DUP5 ADD DUP3 SWAP1 MSTORE PUSH1 0x1 PUSH1 0x1 PUSH1 0xA0 SHL SUB DUP11 DUP2 AND PUSH1 0x60 SWAP6 DUP7 ADD MSTORE DUP6 MLOAD PUSH1 0x0 SWAP1 DUP2 MSTORE PUSH1 0x11 DUP6 MSTORE DUP3 DUP2 KECCAK256 DUP8 MLOAD DUP1 DUP3 SSTORE DUP9 DUP8 ADD MLOAD PUSH1 0x1 DUP4 ADD SSTORE DUP9 DUP6 ADD MLOAD PUSH1 0x2 DUP4 ADD SSTORE SWAP7 DUP9 ADD MLOAD PUSH1 0x3 DUP3 ADD DUP1 SLOAD SWAP2 DUP6 AND PUSH1 0x1 PUSH1 0x1 PUSH1 0xA0 SHL SUB NOT SWAP3 DUP4 AND OR SWAP1 SSTORE PUSH1 0x80 DUP10 ADD MLOAD PUSH1 0x4 SWAP1 SWAP3 ADD DUP1 SLOAD SWAP3 SWAP1 SWAP5 AND SWAP2 AND OR SWAP1 SWAP2 SSTORE SWAP2 DUP3 MSTORE PUSH1 0x10 SWAP1 SWAP3 MSTORE KECCAK256 SWAP2 SWAP3 POP PUSH2 0xC60 SWAP2 SWAP1 PUSH2 0x19B8 JUMP JUMPDEST POP PUSH1 0x12 DUP1 SLOAD SWAP1 PUSH1 0x0 PUSH2 0xC71 DUP4 PUSH2 0x2C1A JUMP JUMPDEST SWAP2 SWAP1 POP SSTORE POP DUP1 PUSH1 0x80 ADD MLOAD PUSH1 0x1 PUSH1 0x1 PUSH1 0xA0 SHL SUB AND DUP2 PUSH1 0x60 ADD MLOAD PUSH1 0x1 PUSH1 0x1 PUSH1 0xA0 SHL SUB AND DUP3 PUSH1 0x0 ADD MLOAD PUSH32 0x20849EB8A3D11461C2F45D1330D7CDFDCF0359148AAA26D84AF32B9596E32B94 DUP5 PUSH1 0x20 ADD MLOAD DUP6 PUSH1 0x40 ADD MLOAD PUSH1 0x40 MLOAD PUSH2 0xCD9 SWAP3 SWAP2 SWAP1 SWAP2 DUP3 MSTORE PUSH1 0x20 DUP3 ADD MSTORE PUSH1 0x40 ADD SWAP1 JUMP JUMPDEST PUSH1 0x40 MLOAD DUP1 SWAP2 SUB SWAP1 LOG4 MLOAD SWAP6 SWAP5 POP POP POP POP POP JUMP JUMPDEST PUSH1 0x1 PUSH1 0x1 PUSH1 0xA0 SHL SUB DUP2 AND PUSH2 0xD36 JUMPI PUSH1 0x40 MLOAD PUSH3 0x461BCD PUSH1 0xE5 SHL DUP2 MSTORE PUSH1 0x20 PUSH1 0x4 DUP3 ADD MSTORE PUSH1 0x12 PUSH1 0x24 DUP3 ADD MSTORE PUSH18 0x6E6F2064656C65676174696F6E20746F203 PUSH1 0x74 SHL PUSH1 0x44 DUP3 ADD MSTORE PUSH1 0x64 ADD PUSH2 0x66E JUMP JUMPDEST PUSH1 0x0 DUP3 GT PUSH2 0xD86 JUMPI PUSH1 0x40 MLOAD PUSH3 0x461BCD PUSH1 0xE5 SHL DUP2 MSTORE PUSH1 0x20 PUSH1 0x4 DUP3 ADD MSTORE PUSH1 0x1A PUSH1 0x24 DUP3 ADD MSTORE PUSH32 0x63616E6E6F74206465706F736974207A65726F20616D6F756E74000000000000 PUSH1 0x44 DUP3 ADD MSTORE PUSH1 0x64 ADD PUSH2 0x66E JUMP JUMPDEST PUSH1 0x40 MLOAD PUSH4 0x23B872DD PUSH1 0xE0 SHL DUP2 MSTORE PUSH1 0x1 PUSH1 0x1 PUSH1 0xA0 SHL SUB PUSH32 0x0 AND SWAP1 PUSH4 0x23B872DD SWAP1 PUSH2 0xDD6 SWAP1 CALLER SWAP1 ADDRESS SWAP1 DUP8 SWAP1 PUSH1 0x4 ADD PUSH2 0x2C33 JUMP JUMPDEST PUSH1 0x20 PUSH1 0x40 MLOAD DUP1 DUP4 SUB DUP2 PUSH1 0x0 DUP8 GAS CALL ISZERO DUP1 ISZERO PUSH2 0xDF5 JUMPI RETURNDATASIZE PUSH1 0x0 DUP1 RETURNDATACOPY RETURNDATASIZE PUSH1 0x0 REVERT JUMPDEST POP POP POP POP PUSH1 0x40 MLOAD RETURNDATASIZE PUSH1 0x1F NOT PUSH1 0x1F DUP3 ADD AND DUP3 ADD DUP1 PUSH1 0x40 MSTORE POP DUP2 ADD SWAP1 PUSH2 0xE19 SWAP2 SWAP1 PUSH2 0x2BCC JUMP JUMPDEST POP PUSH1 0x0 PUSH2 0xE27 PUSH1 0x1 CALLER PUSH2 0x1487 JUMP JUMPDEST SWAP1 POP PUSH1 0x0 PUSH2 0xE5A DUP5 PUSH1 0xFF PUSH32 0x0 AND PUSH1 0x12 PUSH2 0x15E8 JUMP JUMPDEST SWAP1 POP PUSH2 0xE70 CALLER DUP3 DUP5 PUSH1 0x20 ADD MLOAD PUSH2 0xB63 SWAP2 SWAP1 PUSH2 0x2BB9 JUMP JUMPDEST POP PUSH1 0x1 PUSH1 0x1 PUSH1 0xA0 SHL SUB DUP4 AND ISZERO DUP1 ISZERO SWAP1 PUSH2 0xE92 JUMPI POP PUSH1 0x1 PUSH1 0x1 PUSH1 0xA0 SHL SUB DUP4 AND CALLER EQ ISZERO JUMPDEST ISZERO PUSH2 0xEA2 JUMPI PUSH2 0xEA2 CALLER DUP5 DUP4 PUSH2 0x19C4 JUMP JUMPDEST DUP1 PUSH1 0x13 PUSH1 0x0 DUP3 DUP3 SLOAD PUSH2 0xEB4 SWAP2 SWAP1 PUSH2 0x2BB9 JUMP JUMPDEST SWAP1 SWAP2 SSTORE POP PUSH2 0xEC4 SWAP1 POP CALLER DUP3 PUSH2 0x1A95 JUMP JUMPDEST PUSH1 0x40 MLOAD DUP5 DUP2 MSTORE PUSH1 0x1 PUSH1 0x1 PUSH1 0xA0 SHL SUB DUP5 AND SWAP1 CALLER SWAP1 PUSH32 0x5548C837AB068CF56A2C2479DF0882A4922FD203EDB7517321831D95078C5F62 SWAP1 PUSH1 0x20 ADD PUSH1 0x40 MLOAD DUP1 SWAP2 SUB SWAP1 LOG3 POP POP POP POP JUMP JUMPDEST PUSH2 0xF15 CALLER DUP4 DUP4 PUSH2 0x19C4 JUMP JUMPDEST POP POP JUMP JUMPDEST PUSH1 0x14 DUP2 SWAP1 SSTORE PUSH1 0x40 MLOAD DUP2 DUP2 MSTORE PUSH32 0x6E8A187D7944998085DBD1F16B84C51C903BB727536CDBA86962439ADED2CFD7 SWAP1 PUSH1 0x20 ADD PUSH1 0x40 MLOAD DUP1 SWAP2 SUB SWAP1 LOG1 POP JUMP JUMPDEST PUSH1 0x0 PUSH1 0xE SLOAD TIMESTAMP GT ISZERO PUSH2 0xF66 JUMPI POP PUSH1 0x0 SWAP1 JUMP JUMPDEST POP PUSH1 0xD SLOAD SWAP1 JUMP JUMPDEST PUSH1 0x0 PUSH2 0x544 DUP3 TIMESTAMP PUSH2 0x12D9 JUMP JUMPDEST PUSH2 0xF81 PUSH2 0x54A JUMP JUMPDEST PUSH1 0x7 SLOAD PUSH1 0x1 PUSH1 0x1 PUSH1 0xA0 SHL SUB DUP3 AND PUSH1 0x0 SWAP1 DUP2 MSTORE PUSH1 0xA PUSH1 0x20 MSTORE PUSH1 0x40 SWAP1 KECCAK256 SLOAD PUSH2 0xFCB SWAP1 PUSH2 0xFAB SWAP1 DUP4 PUSH2 0x2B8F JUMP JUMPDEST PUSH1 0x1 PUSH1 0x1 PUSH1 0xA0 SHL SUB DUP5 AND PUSH1 0x0 SWAP1 DUP2 MSTORE PUSH1 0xC PUSH1 0x20 MSTORE PUSH1 0x40 SWAP1 KECCAK256 SLOAD JUMPDEST SWAP1 PUSH2 0x1B1D JUMP JUMPDEST PUSH1 0x1 PUSH1 0x1 PUSH1 0xA0 SHL SUB DUP4 AND PUSH1 0x0 SWAP1 DUP2 MSTORE PUSH1 0xB PUSH1 0x20 MSTORE PUSH1 0x40 DUP2 KECCAK256 DUP1 SLOAD SWAP1 SWAP2 SWAP1 PUSH2 0xFF3 SWAP1 DUP5 SWAP1 PUSH2 0x2BB9 JUMP JUMPDEST SWAP1 SWAP2 SSTORE POP POP PUSH1 0x1 PUSH1 0x1 PUSH1 0xA0 SHL SUB SWAP1 SWAP2 AND PUSH1 0x0 SWAP1 DUP2 MSTORE PUSH1 0xA PUSH1 0x20 MSTORE PUSH1 0x40 SWAP1 KECCAK256 SSTORE JUMP JUMPDEST PUSH2 0x101E DUP2 CALLER PUSH2 0xCEB JUMP JUMPDEST POP JUMP JUMPDEST PUSH1 0x1 PUSH1 0x1 PUSH1 0xA0 SHL SUB DUP2 AND PUSH1 0x0 SWAP1 DUP2 MSTORE PUSH1 0x10 PUSH1 0x20 MSTORE PUSH1 0x40 DUP2 KECCAK256 PUSH1 0x60 SWAP2 PUSH2 0x1045 DUP3 PUSH2 0x1B46 JUMP JUMPDEST PUSH8 0xFFFFFFFFFFFFFFFF DUP2 GT ISZERO PUSH2 0x105D JUMPI PUSH2 0x105D PUSH2 0x2BEE JUMP JUMPDEST PUSH1 0x40 MLOAD SWAP1 DUP1 DUP3 MSTORE DUP1 PUSH1 0x20 MUL PUSH1 0x20 ADD DUP3 ADD PUSH1 0x40 MSTORE DUP1 ISZERO PUSH2 0x10D2 JUMPI DUP2 PUSH1 0x20 ADD JUMPDEST PUSH2 0x10BF PUSH1 0x40 MLOAD DUP1 PUSH1 0xA0 ADD PUSH1 0x40 MSTORE DUP1 PUSH1 0x0 DUP2 MSTORE PUSH1 0x20 ADD PUSH1 0x0 DUP2 MSTORE PUSH1 0x20 ADD PUSH1 0x0 DUP2 MSTORE PUSH1 0x20 ADD PUSH1 0x0 PUSH1 0x1 PUSH1 0x1 PUSH1 0xA0 SHL SUB AND DUP2 MSTORE PUSH1 0x20 ADD PUSH1 0x0 PUSH1 0x1 PUSH1 0x1 PUSH1 0xA0 SHL SUB AND DUP2 MSTORE POP SWAP1 JUMP JUMPDEST DUP2 MSTORE PUSH1 0x20 ADD SWAP1 PUSH1 0x1 SWAP1 SUB SWAP1 DUP2 PUSH2 0x107B JUMPI SWAP1 POP JUMPDEST POP SWAP1 POP PUSH1 0x0 JUMPDEST PUSH2 0x10E1 DUP4 PUSH2 0x1B46 JUMP JUMPDEST DUP2 LT ISZERO PUSH2 0x1180 JUMPI PUSH1 0x11 PUSH1 0x0 PUSH2 0x10F6 DUP6 DUP5 PUSH2 0x1B50 JUMP JUMPDEST DUP2 MSTORE PUSH1 0x20 DUP1 DUP3 ADD SWAP3 SWAP1 SWAP3 MSTORE PUSH1 0x40 SWAP1 DUP2 ADD PUSH1 0x0 KECCAK256 DUP2 MLOAD PUSH1 0xA0 DUP2 ADD DUP4 MSTORE DUP2 SLOAD DUP2 MSTORE PUSH1 0x1 DUP3 ADD SLOAD SWAP4 DUP2 ADD SWAP4 SWAP1 SWAP4 MSTORE PUSH1 0x2 DUP2 ADD SLOAD SWAP2 DUP4 ADD SWAP2 SWAP1 SWAP2 MSTORE PUSH1 0x3 DUP2 ADD SLOAD PUSH1 0x1 PUSH1 0x1 PUSH1 0xA0 SHL SUB SWAP1 DUP2 AND PUSH1 0x60 DUP5 ADD MSTORE PUSH1 0x4 SWAP1 SWAP2 ADD SLOAD AND PUSH1 0x80 DUP3 ADD MSTORE DUP3 MLOAD DUP4 SWAP1 DUP4 SWAP1 DUP2 LT PUSH2 0x1162 JUMPI PUSH2 0x1162 PUSH2 0x2C04 JUMP JUMPDEST PUSH1 0x20 MUL PUSH1 0x20 ADD ADD DUP2 SWAP1 MSTORE POP DUP1 DUP1 PUSH2 0x1178 SWAP1 PUSH2 0x2C1A JUMP JUMPDEST SWAP2 POP POP PUSH2 0x10D8 JUMP JUMPDEST POP SWAP4 SWAP3 POP POP POP JUMP JUMPDEST PUSH2 0x1193 CALLER DUP5 DUP4 PUSH2 0x1891 JUMP JUMPDEST PUSH2 0xA8F CALLER DUP4 DUP4 PUSH2 0x19C4 JUMP JUMPDEST CALLER PUSH1 0x1 PUSH1 0x1 PUSH1 0xA0 SHL SUB PUSH32 0x0 AND EQ PUSH2 0x1218 JUMPI PUSH1 0x40 MLOAD PUSH4 0xC55DDC97 PUSH1 0xE0 SHL DUP2 MSTORE CALLER PUSH1 0x4 DUP3 ADD MSTORE PUSH1 0x1 PUSH1 0x1 PUSH1 0xA0 SHL SUB PUSH32 0x0 AND PUSH1 0x24 DUP3 ADD MSTORE PUSH1 0x44 ADD PUSH2 0x66E JUMP JUMPDEST PUSH2 0x1220 PUSH2 0x1B5C JUMP JUMPDEST JUMP JUMPDEST PUSH1 0x7 SLOAD PUSH1 0x6 SLOAD PUSH1 0x0 SWAP2 SWAP1 ISZERO PUSH2 0x126A JUMPI PUSH2 0x125D PUSH1 0x6 SLOAD PUSH1 0x8 SLOAD TIMESTAMP PUSH2 0x1245 SWAP2 SWAP1 PUSH2 0x2B8F JUMP JUMPDEST PUSH2 0x124D PUSH2 0xF54 JUMP JUMPDEST PUSH2 0x1257 SWAP2 SWAP1 PUSH2 0x2BA2 JUMP JUMPDEST SWAP1 PUSH2 0x1595 JUMP JUMPDEST PUSH2 0x1267 SWAP1 DUP3 PUSH2 0x2BB9 JUMP JUMPDEST SWAP1 POP JUMPDEST PUSH1 0x1 PUSH1 0x1 PUSH1 0xA0 SHL SUB DUP4 AND PUSH1 0x0 SWAP1 DUP2 MSTORE PUSH1 0xA PUSH1 0x20 MSTORE PUSH1 0x40 SWAP1 KECCAK256 SLOAD PUSH2 0x12AF SWAP1 PUSH2 0x1291 SWAP1 DUP4 PUSH2 0x2B8F JUMP JUMPDEST PUSH1 0x1 PUSH1 0x1 PUSH1 0xA0 SHL SUB DUP6 AND PUSH1 0x0 SWAP1 DUP2 MSTORE PUSH1 0xC PUSH1 0x20 MSTORE PUSH1 0x40 SWAP1 KECCAK256 SLOAD PUSH2 0xFC5 JUMP JUMPDEST PUSH1 0x1 PUSH1 0x1 PUSH1 0xA0 SHL SUB DUP5 AND PUSH1 0x0 SWAP1 DUP2 MSTORE PUSH1 0xB PUSH1 0x20 MSTORE PUSH1 0x40 SWAP1 KECCAK256 SLOAD PUSH2 0x12D2 SWAP2 SWAP1 PUSH2 0x2BB9 JUMP JUMPDEST SWAP4 SWAP3 POP POP POP JUMP JUMPDEST PUSH1 0x0 PUSH2 0x12D2 PUSH1 0x1 DUP5 DUP5 PUSH2 0x1C84 JUMP JUMPDEST PUSH2 0xF15 CALLER DUP4 DUP4 PUSH2 0x1891 JUMP JUMPDEST CALLER PUSH1 0x1 PUSH1 0x1 PUSH1 0xA0 SHL SUB PUSH32 0x0 AND EQ PUSH2 0x136C JUMPI PUSH1 0x40 MLOAD PUSH4 0xC55DDC97 PUSH1 0xE0 SHL DUP2 MSTORE CALLER PUSH1 0x4 DUP3 ADD MSTORE PUSH1 0x1 PUSH1 0x1 PUSH1 0xA0 SHL SUB PUSH32 0x0 AND PUSH1 0x24 DUP3 ADD MSTORE PUSH1 0x44 ADD PUSH2 0x66E JUMP JUMPDEST PUSH1 0xF SSTORE JUMP JUMPDEST PUSH1 0x0 SLOAD PUSH2 0x100 SWAP1 DIV PUSH1 0xFF AND ISZERO DUP1 DUP1 ISZERO PUSH2 0x1391 JUMPI POP PUSH1 0x0 SLOAD PUSH1 0x1 PUSH1 0xFF SWAP1 SWAP2 AND LT JUMPDEST DUP1 PUSH2 0x13AB JUMPI POP ADDRESS EXTCODESIZE ISZERO DUP1 ISZERO PUSH2 0x13AB JUMPI POP PUSH1 0x0 SLOAD PUSH1 0xFF AND PUSH1 0x1 EQ JUMPDEST PUSH2 0x140E JUMPI PUSH1 0x40 MLOAD PUSH3 0x461BCD PUSH1 0xE5 SHL DUP2 MSTORE PUSH1 0x20 PUSH1 0x4 DUP3 ADD MSTORE PUSH1 0x2E PUSH1 0x24 DUP3 ADD MSTORE PUSH32 0x496E697469616C697A61626C653A20636F6E747261637420697320616C726561 PUSH1 0x44 DUP3 ADD MSTORE PUSH14 0x191E481A5B9A5D1A585B1A5E9959 PUSH1 0x92 SHL PUSH1 0x64 DUP3 ADD MSTORE PUSH1 0x84 ADD PUSH2 0x66E JUMP JUMPDEST PUSH1 0x0 DUP1 SLOAD PUSH1 0xFF NOT AND PUSH1 0x1 OR SWAP1 SSTORE DUP1 ISZERO PUSH2 0x1431 JUMPI PUSH1 0x0 DUP1 SLOAD PUSH2 0xFF00 NOT AND PUSH2 0x100 OR SWAP1 SSTORE JUMPDEST PUSH1 0xF DUP3 SWAP1 SSTORE PUSH2 0x143E PUSH2 0x54A JUMP JUMPDEST DUP1 ISZERO PUSH2 0xF15 JUMPI PUSH1 0x0 DUP1 SLOAD PUSH2 0xFF00 NOT AND SWAP1 SSTORE PUSH1 0x40 MLOAD PUSH1 0x1 DUP2 MSTORE PUSH32 0x7F26B83FF96E1F2B6A682F133852F6798A09C465DA95921460CEFB3847402498 SWAP1 PUSH1 0x20 ADD PUSH1 0x40 MLOAD DUP1 SWAP2 SUB SWAP1 LOG1 POP POP JUMP JUMPDEST PUSH2 0x14B2 PUSH1 0x40 MLOAD DUP1 PUSH1 0x80 ADD PUSH1 0x40 MSTORE DUP1 PUSH1 0x0 DUP2 MSTORE PUSH1 0x20 ADD PUSH1 0x0 DUP2 MSTORE PUSH1 0x20 ADD PUSH1 0x0 DUP2 MSTORE PUSH1 0x20 ADD PUSH1 0x0 DUP2 MSTORE POP SWAP1 JUMP JUMPDEST PUSH1 0x1 PUSH1 0x1 PUSH1 0xA0 SHL SUB DUP3 AND PUSH1 0x0 SWAP1 DUP2 MSTORE PUSH1 0x20 DUP5 DUP2 MSTORE PUSH1 0x40 DUP1 DUP4 KECCAK256 DUP1 SLOAD DUP3 MLOAD DUP2 DUP6 MUL DUP2 ADD DUP6 ADD SWAP1 SWAP4 MSTORE DUP1 DUP4 MSTORE SWAP2 SWAP3 SWAP1 SWAP2 SWAP1 DUP5 SWAP1 DUP5 ADD JUMPDEST DUP3 DUP3 LT ISZERO PUSH2 0x1540 JUMPI DUP4 DUP3 SWAP1 PUSH1 0x0 MSTORE PUSH1 0x20 PUSH1 0x0 KECCAK256 SWAP1 PUSH1 0x4 MUL ADD PUSH1 0x40 MLOAD DUP1 PUSH1 0x80 ADD PUSH1 0x40 MSTORE SWAP1 DUP2 PUSH1 0x0 DUP3 ADD SLOAD DUP2 MSTORE PUSH1 0x20 ADD PUSH1 0x1 DUP3 ADD SLOAD DUP2 MSTORE PUSH1 0x20 ADD PUSH1 0x2 DUP3 ADD SLOAD DUP2 MSTORE PUSH1 0x20 ADD PUSH1 0x3 DUP3 ADD SLOAD DUP2 MSTORE POP POP DUP2 MSTORE PUSH1 0x20 ADD SWAP1 PUSH1 0x1 ADD SWAP1 PUSH2 0x14E6 JUMP JUMPDEST POP POP POP POP SWAP1 POP DUP1 MLOAD PUSH1 0x0 SUB PUSH2 0x155F JUMPI PUSH2 0x1557 PUSH2 0x1D35 JUMP JUMPDEST SWAP2 POP POP PUSH2 0x544 JUMP JUMPDEST DUP1 PUSH1 0x1 DUP3 MLOAD PUSH2 0x156E SWAP2 SWAP1 PUSH2 0x2B8F JUMP JUMPDEST DUP2 MLOAD DUP2 LT PUSH2 0x157E JUMPI PUSH2 0x157E PUSH2 0x2C04 JUMP JUMPDEST PUSH1 0x20 MUL PUSH1 0x20 ADD ADD MLOAD SWAP2 POP POP PUSH2 0x544 JUMP JUMPDEST POP SWAP3 SWAP2 POP POP JUMP JUMPDEST PUSH1 0x0 DUP2 PUSH1 0x0 SUB PUSH2 0x15B8 JUMPI PUSH1 0x40 MLOAD PUSH4 0xA0C22C7 PUSH1 0xE0 SHL DUP2 MSTORE PUSH1 0x4 ADD PUSH1 0x40 MLOAD DUP1 SWAP2 SUB SWAP1 REVERT JUMPDEST DUP3 PUSH1 0x0 SUB PUSH2 0x15C8 JUMPI POP PUSH1 0x0 PUSH2 0x544 JUMP JUMPDEST PUSH1 0x0 PUSH2 0x15DC PUSH8 0xDE0B6B3A7640000 DUP6 PUSH2 0x2BA2 JUMP JUMPDEST SWAP1 POP PUSH2 0x1557 DUP4 DUP3 PUSH2 0x2C57 JUMP JUMPDEST PUSH1 0x0 DUP2 DUP4 SUB PUSH2 0x15F8 JUMPI POP DUP3 PUSH2 0x12D2 JUMP JUMPDEST DUP2 DUP4 LT ISZERO PUSH2 0x1626 JUMPI PUSH2 0x160A DUP4 DUP4 PUSH2 0x2B8F JUMP JUMPDEST PUSH2 0x1615 SWAP1 PUSH1 0xA PUSH2 0x2D55 JUMP JUMPDEST PUSH2 0x161F SWAP1 DUP6 PUSH2 0x2BA2 JUMP JUMPDEST SWAP1 POP PUSH2 0x12D2 JUMP JUMPDEST PUSH2 0x1630 DUP3 DUP5 PUSH2 0x2B8F JUMP JUMPDEST PUSH2 0x163B SWAP1 PUSH1 0xA PUSH2 0x2D55 JUMP JUMPDEST PUSH2 0x161F SWAP1 DUP6 PUSH2 0x2C57 JUMP JUMPDEST PUSH1 0x0 PUSH2 0x12D2 DUP4 DUP4 PUSH2 0x1D91 JUMP JUMPDEST PUSH1 0x0 PUSH2 0x544 DUP3 PUSH2 0x1E84 JUMP JUMPDEST PUSH1 0x0 DUP1 DUP1 DUP1 PUSH2 0x166B DUP7 DUP7 PUSH2 0x1E8F JUMP JUMPDEST SWAP1 SWAP5 POP SWAP3 POP POP POP JUMPDEST SWAP3 POP SWAP3 SWAP1 POP JUMP JUMPDEST PUSH1 0x0 PUSH2 0x16B0 PUSH1 0x1 PUSH1 0x1 PUSH1 0xA0 SHL SUB PUSH32 0x0 AND DUP5 DUP5 PUSH2 0x1EBA JUMP JUMPDEST POP SWAP2 SWAP1 POP JUMP JUMPDEST PUSH2 0x16BE PUSH2 0x54A JUMP JUMPDEST PUSH2 0x16F3 PUSH1 0x1 PUSH1 0x1 PUSH1 0xA0 SHL SUB PUSH32 0x0 AND DUP5 ADDRESS DUP6 PUSH2 0x1F1D JUMP JUMPDEST PUSH2 0x16FD TIMESTAMP DUP3 PUSH2 0x2B8F JUMP JUMPDEST PUSH2 0x1707 SWAP1 DUP4 PUSH2 0x2C57 JUMP JUMPDEST PUSH1 0xD SSTORE PUSH1 0xE DUP2 SWAP1 SSTORE PUSH1 0x40 DUP1 MLOAD DUP4 DUP2 MSTORE PUSH1 0x20 DUP2 ADD DUP4 SWAP1 MSTORE PUSH32 0x76554FAC4477E8876B3DE3AF392CF374CF4E9DE02AE78FBADE2373107381FE50 SWAP2 ADD PUSH1 0x40 MLOAD DUP1 SWAP2 SUB SWAP1 LOG1 POP POP POP JUMP JUMPDEST PUSH2 0x1778 PUSH1 0x40 MLOAD DUP1 PUSH1 0x80 ADD PUSH1 0x40 MSTORE DUP1 PUSH1 0x0 DUP2 MSTORE PUSH1 0x20 ADD PUSH1 0x0 DUP2 MSTORE PUSH1 0x20 ADD PUSH1 0x0 DUP2 MSTORE PUSH1 0x20 ADD PUSH1 0x0 DUP2 MSTORE POP SWAP1 JUMP JUMPDEST PUSH1 0x1 PUSH1 0x1 PUSH1 0xA0 SHL SUB DUP6 AND PUSH1 0x0 SWAP1 DUP2 MSTORE PUSH1 0x20 DUP8 DUP2 MSTORE PUSH1 0x40 DUP1 DUP4 KECCAK256 DUP2 MLOAD PUSH1 0x80 DUP2 ADD DUP4 MSTORE TIMESTAMP DUP2 MSTORE SWAP3 DUP4 ADD DUP9 SWAP1 MSTORE SWAP1 DUP3 ADD DUP7 SWAP1 MSTORE PUSH1 0x60 DUP3 ADD DUP6 SWAP1 MSTORE SWAP2 PUSH2 0x17BA DUP10 DUP10 PUSH2 0x1487 JUMP JUMPDEST DUP1 MLOAD SWAP1 SWAP2 POP TIMESTAMP EQ DUP1 ISZERO PUSH2 0x17CD JUMPI POP DUP3 SLOAD ISZERO ISZERO JUMPDEST ISZERO PUSH2 0x1832 JUMPI DUP3 SLOAD DUP3 SWAP1 DUP5 SWAP1 PUSH2 0x17E4 SWAP1 PUSH1 0x1 SWAP1 PUSH2 0x2B8F JUMP JUMPDEST DUP2 SLOAD DUP2 LT PUSH2 0x17F4 JUMPI PUSH2 0x17F4 PUSH2 0x2C04 JUMP JUMPDEST SWAP1 PUSH1 0x0 MSTORE PUSH1 0x20 PUSH1 0x0 KECCAK256 SWAP1 PUSH1 0x4 MUL ADD PUSH1 0x0 DUP3 ADD MLOAD DUP2 PUSH1 0x0 ADD SSTORE PUSH1 0x20 DUP3 ADD MLOAD DUP2 PUSH1 0x1 ADD SSTORE PUSH1 0x40 DUP3 ADD MLOAD DUP2 PUSH1 0x2 ADD SSTORE PUSH1 0x60 DUP3 ADD MLOAD DUP2 PUSH1 0x3 ADD SSTORE SWAP1 POP POP PUSH2 0x1885 JUMP JUMPDEST PUSH1 0x1 PUSH1 0x1 PUSH1 0xA0 SHL SUB DUP9 AND PUSH1 0x0 SWAP1 DUP2 MSTORE PUSH1 0x20 DUP11 DUP2 MSTORE PUSH1 0x40 DUP1 DUP4 KECCAK256 DUP1 SLOAD PUSH1 0x1 DUP2 DUP2 ADD DUP4 SSTORE SWAP2 DUP6 MSTORE SWAP4 DUP4 SWAP1 KECCAK256 DUP7 MLOAD PUSH1 0x4 SWAP1 SWAP6 MUL ADD SWAP4 DUP5 SSTORE SWAP2 DUP6 ADD MLOAD SWAP2 DUP4 ADD SWAP2 SWAP1 SWAP2 SSTORE DUP4 ADD MLOAD PUSH1 0x2 DUP3 ADD SSTORE PUSH1 0x60 DUP4 ADD MLOAD PUSH1 0x3 SWAP1 SWAP2 ADD SSTORE JUMPDEST POP SWAP8 SWAP7 POP POP POP POP POP POP POP JUMP JUMPDEST PUSH2 0x189E PUSH1 0x1 DUP5 DUP5 DUP5 PUSH2 0x1F3E JUMP JUMPDEST PUSH1 0x1 PUSH1 0x1 PUSH1 0xA0 SHL SUB DUP4 AND PUSH1 0x0 SWAP1 DUP2 MSTORE PUSH1 0x5 PUSH1 0x20 MSTORE PUSH1 0x40 DUP2 KECCAK256 PUSH2 0x18C0 SWAP1 DUP5 PUSH2 0x211B JUMP JUMPDEST SWAP1 POP DUP2 DUP2 SUB PUSH2 0x18F1 JUMPI PUSH1 0x1 PUSH1 0x1 PUSH1 0xA0 SHL SUB DUP5 AND PUSH1 0x0 SWAP1 DUP2 MSTORE PUSH1 0x5 PUSH1 0x20 MSTORE PUSH1 0x40 SWAP1 KECCAK256 PUSH2 0x18EB SWAP1 DUP5 PUSH2 0x2130 JUMP JUMPDEST POP PUSH2 0x1920 JUMP JUMPDEST PUSH2 0x191E DUP4 PUSH2 0x18FF DUP5 DUP5 PUSH2 0x2B8F JUMP JUMPDEST PUSH1 0x1 PUSH1 0x1 PUSH1 0xA0 SHL SUB DUP8 AND PUSH1 0x0 SWAP1 DUP2 MSTORE PUSH1 0x5 PUSH1 0x20 MSTORE PUSH1 0x40 SWAP1 KECCAK256 SWAP2 SWAP1 PUSH2 0x2145 JUMP JUMPDEST POP JUMPDEST POP POP POP POP JUMP JUMPDEST PUSH2 0x192F DUP3 PUSH2 0xF79 JUMP JUMPDEST PUSH1 0x1 PUSH1 0x1 PUSH1 0xA0 SHL SUB DUP3 AND PUSH1 0x0 SWAP1 DUP2 MSTORE PUSH1 0xC PUSH1 0x20 MSTORE PUSH1 0x40 DUP2 KECCAK256 DUP1 SLOAD DUP4 SWAP3 SWAP1 PUSH2 0x1957 SWAP1 DUP5 SWAP1 PUSH2 0x2B8F JUMP JUMPDEST SWAP3 POP POP DUP2 SWAP1 SSTORE POP DUP1 PUSH1 0x6 PUSH1 0x0 DUP3 DUP3 SLOAD PUSH2 0x1970 SWAP2 SWAP1 PUSH2 0x2B8F JUMP JUMPDEST SWAP1 SWAP2 SSTORE POP POP PUSH1 0x40 MLOAD DUP2 DUP2 MSTORE PUSH1 0x1 PUSH1 0x1 PUSH1 0xA0 SHL SUB DUP4 AND SWAP1 PUSH32 0x85082129D87B2FE11527CB1B3B7A520AEB5AA6913F88A3D8757FE40D1DB02FDD SWAP1 PUSH1 0x20 ADD JUMPDEST PUSH1 0x40 MLOAD DUP1 SWAP2 SUB SWAP1 LOG2 POP POP JUMP JUMPDEST PUSH1 0x0 PUSH2 0x12D2 DUP4 DUP4 PUSH2 0x215B JUMP JUMPDEST PUSH1 0x1 PUSH1 0x1 PUSH1 0xA0 SHL SUB DUP3 AND PUSH2 0x1A1A JUMPI PUSH1 0x40 MLOAD PUSH3 0x461BCD PUSH1 0xE5 SHL DUP2 MSTORE PUSH1 0x20 PUSH1 0x4 DUP3 ADD MSTORE PUSH1 0x1C PUSH1 0x24 DUP3 ADD MSTORE PUSH32 0x63616E6E6F742064656C656761746520746F2030206164647265737300000000 PUSH1 0x44 DUP3 ADD MSTORE PUSH1 0x64 ADD PUSH2 0x66E JUMP JUMPDEST PUSH2 0x1A27 PUSH1 0x1 DUP5 DUP5 DUP5 PUSH2 0x21AA JUMP JUMPDEST PUSH1 0x1 PUSH1 0x1 PUSH1 0xA0 SHL SUB DUP4 AND PUSH1 0x0 SWAP1 DUP2 MSTORE PUSH1 0x5 PUSH1 0x20 MSTORE PUSH1 0x40 DUP2 KECCAK256 DUP2 SWAP1 PUSH2 0x1A4B SWAP1 DUP6 PUSH2 0x237B JUMP JUMPDEST SWAP2 POP SWAP2 POP PUSH1 0x0 DUP3 PUSH2 0x1A5C JUMPI DUP4 PUSH2 0x1A66 JUMP JUMPDEST PUSH2 0x1A66 DUP5 DUP4 PUSH2 0x2BB9 JUMP JUMPDEST PUSH1 0x1 PUSH1 0x1 PUSH1 0xA0 SHL SUB DUP8 AND PUSH1 0x0 SWAP1 DUP2 MSTORE PUSH1 0x5 PUSH1 0x20 MSTORE PUSH1 0x40 SWAP1 KECCAK256 SWAP1 SWAP2 POP PUSH2 0x1A8C SWAP1 DUP7 DUP4 PUSH2 0x2145 JUMP JUMPDEST POP POP POP POP POP POP POP JUMP JUMPDEST PUSH2 0x1A9E DUP3 PUSH2 0xF79 JUMP JUMPDEST DUP1 PUSH1 0x6 PUSH1 0x0 DUP3 DUP3 SLOAD PUSH2 0x1AB0 SWAP2 SWAP1 PUSH2 0x2BB9 JUMP JUMPDEST SWAP1 SWAP2 SSTORE POP POP PUSH1 0x1 PUSH1 0x1 PUSH1 0xA0 SHL SUB DUP3 AND PUSH1 0x0 SWAP1 DUP2 MSTORE PUSH1 0xC PUSH1 0x20 MSTORE PUSH1 0x40 DUP2 KECCAK256 DUP1 SLOAD DUP4 SWAP3 SWAP1 PUSH2 0x1ADD SWAP1 DUP5 SWAP1 PUSH2 0x2BB9 JUMP JUMPDEST SWAP1 SWAP2 SSTORE POP POP PUSH1 0x40 MLOAD DUP2 DUP2 MSTORE PUSH1 0x1 PUSH1 0x1 PUSH1 0xA0 SHL SUB DUP4 AND SWAP1 PUSH32 0xEBEDB8B3C678666E7F36970BC8F57ABF6D8FA2E828C0DA91EA5B75BF68ED101A SWAP1 PUSH1 0x20 ADD PUSH2 0x19AC JUMP JUMPDEST PUSH1 0x0 DUP1 PUSH2 0x1B2A DUP4 DUP6 PUSH2 0x2BA2 JUMP JUMPDEST SWAP1 POP PUSH2 0x1B3E PUSH8 0xDE0B6B3A7640000 DUP3 PUSH2 0x2C57 JUMP JUMPDEST SWAP5 SWAP4 POP POP POP POP JUMP JUMPDEST PUSH1 0x0 PUSH2 0x544 DUP3 SLOAD SWAP1 JUMP JUMPDEST PUSH1 0x0 PUSH2 0x12D2 DUP4 DUP4 PUSH2 0x2393 JUMP JUMPDEST PUSH2 0x1B64 PUSH2 0x54A JUMP JUMPDEST PUSH1 0x9 SLOAD PUSH1 0x40 MLOAD PUSH4 0x70A08231 PUSH1 0xE0 SHL DUP2 MSTORE ADDRESS PUSH1 0x4 DUP3 ADD MSTORE PUSH1 0x0 SWAP2 SWAP1 PUSH1 0x1 PUSH1 0x1 PUSH1 0xA0 SHL SUB PUSH32 0x0 AND SWAP1 PUSH4 0x70A08231 SWAP1 PUSH1 0x24 ADD PUSH1 0x20 PUSH1 0x40 MLOAD DUP1 DUP4 SUB DUP2 DUP7 GAS STATICCALL ISZERO DUP1 ISZERO PUSH2 0x1BCF JUMPI RETURNDATASIZE PUSH1 0x0 DUP1 RETURNDATACOPY RETURNDATASIZE PUSH1 0x0 REVERT JUMPDEST POP POP POP POP PUSH1 0x40 MLOAD RETURNDATASIZE PUSH1 0x1F NOT PUSH1 0x1F DUP3 ADD AND DUP3 ADD DUP1 PUSH1 0x40 MSTORE POP DUP2 ADD SWAP1 PUSH2 0x1BF3 SWAP2 SWAP1 PUSH2 0x2D61 JUMP JUMPDEST PUSH2 0x1BFD SWAP2 SWAP1 PUSH2 0x2B8F JUMP JUMPDEST SWAP1 POP PUSH2 0x1C53 PUSH1 0x1 PUSH1 0x1 PUSH1 0xA0 SHL SUB PUSH32 0x0 AND PUSH32 0x0 DUP4 PUSH2 0x1EBA JUMP JUMPDEST PUSH1 0x0 PUSH1 0xE DUP2 SWAP1 SSTORE PUSH1 0x40 MLOAD PUSH32 0xE5A0E15E63EDB96A15ED99A9C2A3674E2E0BD1B10B65D0223CCE19A6B54E7FB1 SWAP2 SWAP1 LOG1 POP JUMP JUMPDEST PUSH1 0x1 PUSH1 0x1 PUSH1 0xA0 SHL SUB DUP3 AND PUSH1 0x0 SWAP1 DUP2 MSTORE PUSH1 0x20 DUP5 DUP2 MSTORE PUSH1 0x40 DUP1 DUP4 KECCAK256 DUP1 SLOAD DUP3 MLOAD DUP2 DUP6 MUL DUP2 ADD DUP6 ADD SWAP1 SWAP4 MSTORE DUP1 DUP4 MSTORE DUP5 SWAP4 PUSH2 0x1D20 SWAP4 SWAP3 SWAP2 SWAP1 DUP6 SWAP1 DUP5 ADD JUMPDEST DUP3 DUP3 LT ISZERO PUSH2 0x1D16 JUMPI DUP4 DUP3 SWAP1 PUSH1 0x0 MSTORE PUSH1 0x20 PUSH1 0x0 KECCAK256 SWAP1 PUSH1 0x4 MUL ADD PUSH1 0x40 MLOAD DUP1 PUSH1 0x80 ADD PUSH1 0x40 MSTORE SWAP1 DUP2 PUSH1 0x0 DUP3 ADD SLOAD DUP2 MSTORE PUSH1 0x20 ADD PUSH1 0x1 DUP3 ADD SLOAD DUP2 MSTORE PUSH1 0x20 ADD PUSH1 0x2 DUP3 ADD SLOAD DUP2 MSTORE PUSH1 0x20 ADD PUSH1 0x3 DUP3 ADD SLOAD DUP2 MSTORE POP POP DUP2 MSTORE PUSH1 0x20 ADD SWAP1 PUSH1 0x1 ADD SWAP1 PUSH2 0x1CBC JUMP JUMPDEST POP POP POP POP DUP5 PUSH2 0x23BD JUMP JUMPDEST SWAP2 POP POP PUSH2 0x1D2C DUP2 PUSH2 0x2403 JUMP JUMPDEST SWAP6 SWAP5 POP POP POP POP POP JUMP JUMPDEST PUSH2 0x1D60 PUSH1 0x40 MLOAD DUP1 PUSH1 0x80 ADD PUSH1 0x40 MSTORE DUP1 PUSH1 0x0 DUP2 MSTORE PUSH1 0x20 ADD PUSH1 0x0 DUP2 MSTORE PUSH1 0x20 ADD PUSH1 0x0 DUP2 MSTORE PUSH1 0x20 ADD PUSH1 0x0 DUP2 MSTORE POP SWAP1 JUMP JUMPDEST PUSH1 0x40 MLOAD DUP1 PUSH1 0x80 ADD PUSH1 0x40 MSTORE DUP1 PUSH1 0x0 DUP2 MSTORE PUSH1 0x20 ADD PUSH1 0x0 DUP2 MSTORE PUSH1 0x20 ADD PUSH8 0xDE0B6B3A7640000 DUP2 MSTORE PUSH1 0x20 ADD PUSH1 0x0 DUP2 MSTORE POP SWAP1 POP SWAP1 JUMP JUMPDEST PUSH1 0x0 DUP2 DUP2 MSTORE PUSH1 0x1 DUP4 ADD PUSH1 0x20 MSTORE PUSH1 0x40 DUP2 KECCAK256 SLOAD DUP1 ISZERO PUSH2 0x1E7A JUMPI PUSH1 0x0 PUSH2 0x1DB5 PUSH1 0x1 DUP4 PUSH2 0x2B8F JUMP JUMPDEST DUP6 SLOAD SWAP1 SWAP2 POP PUSH1 0x0 SWAP1 PUSH2 0x1DC9 SWAP1 PUSH1 0x1 SWAP1 PUSH2 0x2B8F JUMP JUMPDEST SWAP1 POP DUP2 DUP2 EQ PUSH2 0x1E2E JUMPI PUSH1 0x0 DUP7 PUSH1 0x0 ADD DUP3 DUP2 SLOAD DUP2 LT PUSH2 0x1DE9 JUMPI PUSH2 0x1DE9 PUSH2 0x2C04 JUMP JUMPDEST SWAP1 PUSH1 0x0 MSTORE PUSH1 0x20 PUSH1 0x0 KECCAK256 ADD SLOAD SWAP1 POP DUP1 DUP8 PUSH1 0x0 ADD DUP5 DUP2 SLOAD DUP2 LT PUSH2 0x1E0C JUMPI PUSH2 0x1E0C PUSH2 0x2C04 JUMP JUMPDEST PUSH1 0x0 SWAP2 DUP3 MSTORE PUSH1 0x20 DUP1 DUP4 KECCAK256 SWAP1 SWAP2 ADD SWAP3 SWAP1 SWAP3 SSTORE SWAP2 DUP3 MSTORE PUSH1 0x1 DUP9 ADD SWAP1 MSTORE PUSH1 0x40 SWAP1 KECCAK256 DUP4 SWAP1 SSTORE JUMPDEST DUP6 SLOAD DUP7 SWAP1 DUP1 PUSH2 0x1E3F JUMPI PUSH2 0x1E3F PUSH2 0x2D7A JUMP JUMPDEST PUSH1 0x1 SWAP1 SUB DUP2 DUP2 SWAP1 PUSH1 0x0 MSTORE PUSH1 0x20 PUSH1 0x0 KECCAK256 ADD PUSH1 0x0 SWAP1 SSTORE SWAP1 SSTORE DUP6 PUSH1 0x1 ADD PUSH1 0x0 DUP7 DUP2 MSTORE PUSH1 0x20 ADD SWAP1 DUP2 MSTORE PUSH1 0x20 ADD PUSH1 0x0 KECCAK256 PUSH1 0x0 SWAP1 SSTORE PUSH1 0x1 SWAP4 POP POP POP POP PUSH2 0x544 JUMP JUMPDEST PUSH1 0x0 SWAP2 POP POP PUSH2 0x544 JUMP JUMPDEST PUSH1 0x0 PUSH2 0x544 DUP3 PUSH2 0x1B46 JUMP JUMPDEST PUSH1 0x0 DUP1 DUP1 PUSH2 0x1E9D DUP6 DUP6 PUSH2 0x1B50 JUMP JUMPDEST PUSH1 0x0 DUP2 DUP2 MSTORE PUSH1 0x2 SWAP7 SWAP1 SWAP7 ADD PUSH1 0x20 MSTORE PUSH1 0x40 SWAP1 SWAP6 KECCAK256 SLOAD SWAP5 SWAP6 SWAP4 POP POP POP POP JUMP JUMPDEST PUSH1 0x40 MLOAD PUSH1 0x1 PUSH1 0x1 PUSH1 0xA0 SHL SUB DUP4 AND PUSH1 0x24 DUP3 ADD MSTORE PUSH1 0x44 DUP2 ADD DUP3 SWAP1 MSTORE PUSH2 0xA8F SWAP1 DUP5 SWAP1 PUSH4 0xA9059CBB PUSH1 0xE0 SHL SWAP1 PUSH1 0x64 ADD JUMPDEST PUSH1 0x40 DUP1 MLOAD PUSH1 0x1F NOT DUP2 DUP5 SUB ADD DUP2 MSTORE SWAP2 SWAP1 MSTORE PUSH1 0x20 DUP2 ADD DUP1 MLOAD PUSH1 0x1 PUSH1 0x1 PUSH1 0xE0 SHL SUB AND PUSH1 0x1 PUSH1 0x1 PUSH1 0xE0 SHL SUB NOT SWAP1 SWAP4 AND SWAP3 SWAP1 SWAP3 OR SWAP1 SWAP2 MSTORE PUSH2 0x242F JUMP JUMPDEST PUSH2 0x1920 DUP5 PUSH4 0x23B872DD PUSH1 0xE0 SHL DUP6 DUP6 DUP6 PUSH1 0x40 MLOAD PUSH1 0x24 ADD PUSH2 0x1EE6 SWAP4 SWAP3 SWAP2 SWAP1 PUSH2 0x2C33 JUMP JUMPDEST PUSH1 0x1 PUSH1 0x1 PUSH1 0xA0 SHL SUB DUP1 DUP5 AND PUSH1 0x0 SWAP1 DUP2 MSTORE PUSH1 0x1 DUP7 ADD PUSH1 0x20 SWAP1 DUP2 MSTORE PUSH1 0x40 DUP1 DUP4 KECCAK256 SWAP4 DUP7 AND DUP4 MSTORE SWAP3 SWAP1 MSTORE KECCAK256 SLOAD DUP2 GT ISZERO PUSH2 0x1FC7 JUMPI PUSH1 0x40 MLOAD PUSH3 0x461BCD PUSH1 0xE5 SHL DUP2 MSTORE PUSH1 0x20 PUSH1 0x4 DUP3 ADD MSTORE PUSH1 0x29 PUSH1 0x24 DUP3 ADD MSTORE PUSH32 0x7573657220686173206E6F742064656C65676174656420656E6F75676820746F PUSH1 0x44 DUP3 ADD MSTORE PUSH9 0x2064656C6567617465 PUSH1 0xB8 SHL PUSH1 0x64 DUP3 ADD MSTORE PUSH1 0x84 ADD PUSH2 0x66E JUMP JUMPDEST PUSH1 0x1 PUSH1 0x1 PUSH1 0xA0 SHL SUB DUP3 AND PUSH1 0x0 SWAP1 DUP2 MSTORE PUSH1 0x3 DUP6 ADD PUSH1 0x20 MSTORE PUSH1 0x40 DUP2 KECCAK256 DUP1 SLOAD DUP4 SWAP3 SWAP1 PUSH2 0x1FF1 SWAP1 DUP5 SWAP1 PUSH2 0x2B8F JUMP JUMPDEST SWAP1 SWAP2 SSTORE POP POP PUSH1 0x1 PUSH1 0x1 PUSH1 0xA0 SHL SUB DUP4 AND PUSH1 0x0 SWAP1 DUP2 MSTORE PUSH1 0x2 DUP6 ADD PUSH1 0x20 MSTORE PUSH1 0x40 DUP2 KECCAK256 DUP1 SLOAD DUP4 SWAP3 SWAP1 PUSH2 0x2020 SWAP1 DUP5 SWAP1 PUSH2 0x2B8F JUMP JUMPDEST SWAP1 SWAP2 SSTORE POP POP PUSH1 0x1 PUSH1 0x1 PUSH1 0xA0 SHL SUB DUP1 DUP5 AND PUSH1 0x0 SWAP1 DUP2 MSTORE PUSH1 0x1 DUP7 ADD PUSH1 0x20 SWAP1 DUP2 MSTORE PUSH1 0x40 DUP1 DUP4 KECCAK256 SWAP4 DUP7 AND DUP4 MSTORE SWAP3 SWAP1 MSTORE SWAP1 DUP2 KECCAK256 DUP1 SLOAD DUP4 SWAP3 SWAP1 PUSH2 0x205E SWAP1 DUP5 SWAP1 PUSH2 0x2B8F JUMP JUMPDEST SWAP1 SWAP2 SSTORE POP PUSH1 0x0 SWAP1 POP PUSH2 0x2070 DUP6 DUP6 PUSH2 0x1487 JUMP JUMPDEST SWAP1 POP PUSH2 0x209D DUP5 DUP3 PUSH1 0x20 ADD MLOAD DUP4 PUSH1 0x40 ADD MLOAD PUSH2 0x2093 DUP9 DUP11 PUSH2 0x2501 SWAP1 SWAP2 SWAP1 PUSH4 0xFFFFFFFF AND JUMP JUMPDEST DUP10 SWAP4 SWAP3 SWAP2 SWAP1 PUSH2 0x174D JUMP JUMPDEST POP PUSH1 0x0 PUSH2 0x20AA DUP7 DUP6 PUSH2 0x1487 JUMP JUMPDEST SWAP1 POP PUSH2 0x20D7 DUP5 DUP3 PUSH1 0x20 ADD MLOAD DUP4 PUSH1 0x40 ADD MLOAD PUSH2 0x20CD DUP9 DUP12 PUSH2 0x2501 SWAP1 SWAP2 SWAP1 PUSH4 0xFFFFFFFF AND JUMP JUMPDEST DUP11 SWAP4 SWAP3 SWAP2 SWAP1 PUSH2 0x174D JUMP JUMPDEST POP PUSH32 0xDE5AA493A93D4351631C1991A0AEECFD52D6B51CF1B61F1A3C48F97E26808653 DUP6 DUP6 DUP6 PUSH1 0x40 MLOAD PUSH2 0x210B SWAP4 SWAP3 SWAP2 SWAP1 PUSH2 0x2C33 JUMP JUMPDEST PUSH1 0x40 MLOAD DUP1 SWAP2 SUB SWAP1 LOG1 POP POP POP POP POP POP JUMP JUMPDEST PUSH1 0x0 PUSH2 0x12D2 DUP4 PUSH1 0x1 PUSH1 0x1 PUSH1 0xA0 SHL SUB DUP5 AND PUSH2 0x2533 JUMP JUMPDEST PUSH1 0x0 PUSH2 0x12D2 DUP4 PUSH1 0x1 PUSH1 0x1 PUSH1 0xA0 SHL SUB DUP5 AND PUSH2 0x25A3 JUMP JUMPDEST PUSH1 0x0 PUSH2 0x1B3E DUP5 PUSH1 0x1 PUSH1 0x1 PUSH1 0xA0 SHL SUB DUP6 AND DUP5 PUSH2 0x25C0 JUMP JUMPDEST PUSH1 0x0 DUP2 DUP2 MSTORE PUSH1 0x1 DUP4 ADD PUSH1 0x20 MSTORE PUSH1 0x40 DUP2 KECCAK256 SLOAD PUSH2 0x21A2 JUMPI POP DUP2 SLOAD PUSH1 0x1 DUP2 DUP2 ADD DUP5 SSTORE PUSH1 0x0 DUP5 DUP2 MSTORE PUSH1 0x20 DUP1 DUP3 KECCAK256 SWAP1 SWAP4 ADD DUP5 SWAP1 SSTORE DUP5 SLOAD DUP5 DUP3 MSTORE DUP3 DUP7 ADD SWAP1 SWAP4 MSTORE PUSH1 0x40 SWAP1 KECCAK256 SWAP2 SWAP1 SWAP2 SSTORE PUSH2 0x544 JUMP JUMPDEST POP PUSH1 0x0 PUSH2 0x544 JUMP JUMPDEST PUSH1 0x0 PUSH2 0x21B6 DUP6 DUP6 PUSH2 0x1487 JUMP JUMPDEST PUSH1 0x1 PUSH1 0x1 PUSH1 0xA0 SHL SUB DUP6 AND PUSH1 0x0 SWAP1 DUP2 MSTORE PUSH1 0x2 DUP8 ADD PUSH1 0x20 SWAP1 DUP2 MSTORE PUSH1 0x40 DUP1 DUP4 KECCAK256 SLOAD SWAP1 DUP5 ADD MLOAD SWAP2 DUP5 ADD MLOAD SWAP4 SWAP5 POP SWAP2 SWAP3 PUSH2 0x21EA SWAP2 PUSH2 0x25DD JUMP JUMPDEST PUSH2 0x21F4 SWAP2 SWAP1 PUSH2 0x2B8F JUMP JUMPDEST SWAP1 POP DUP3 DUP2 LT ISZERO PUSH2 0x2246 JUMPI PUSH1 0x40 MLOAD PUSH3 0x461BCD PUSH1 0xE5 SHL DUP2 MSTORE PUSH1 0x20 PUSH1 0x4 DUP3 ADD DUP2 SWAP1 MSTORE PUSH1 0x24 DUP3 ADD MSTORE PUSH32 0x696E73756666696369656E742062616C616E636520746F2064656C6567617465 PUSH1 0x44 DUP3 ADD MSTORE PUSH1 0x64 ADD PUSH2 0x66E JUMP JUMPDEST PUSH1 0x1 PUSH1 0x1 PUSH1 0xA0 SHL SUB DUP5 AND PUSH1 0x0 SWAP1 DUP2 MSTORE PUSH1 0x3 DUP8 ADD PUSH1 0x20 MSTORE PUSH1 0x40 DUP2 KECCAK256 DUP1 SLOAD DUP6 SWAP3 SWAP1 PUSH2 0x2270 SWAP1 DUP5 SWAP1 PUSH2 0x2BB9 JUMP JUMPDEST SWAP1 SWAP2 SSTORE POP POP PUSH1 0x1 PUSH1 0x1 PUSH1 0xA0 SHL SUB DUP6 AND PUSH1 0x0 SWAP1 DUP2 MSTORE PUSH1 0x2 DUP8 ADD PUSH1 0x20 MSTORE PUSH1 0x40 DUP2 KECCAK256 DUP1 SLOAD DUP6 SWAP3 SWAP1 PUSH2 0x229F SWAP1 DUP5 SWAP1 PUSH2 0x2BB9 JUMP JUMPDEST SWAP1 SWAP2 SSTORE POP POP PUSH1 0x1 PUSH1 0x1 PUSH1 0xA0 SHL SUB DUP1 DUP7 AND PUSH1 0x0 SWAP1 DUP2 MSTORE PUSH1 0x1 DUP9 ADD PUSH1 0x20 SWAP1 DUP2 MSTORE PUSH1 0x40 DUP1 DUP4 KECCAK256 SWAP4 DUP9 AND DUP4 MSTORE SWAP3 SWAP1 MSTORE SWAP1 DUP2 KECCAK256 DUP1 SLOAD DUP6 SWAP3 SWAP1 PUSH2 0x22DD SWAP1 DUP5 SWAP1 PUSH2 0x2BB9 JUMP JUMPDEST SWAP1 SWAP2 SSTORE POP POP PUSH1 0x20 DUP3 ADD MLOAD PUSH1 0x40 DUP4 ADD MLOAD PUSH2 0x22FC SWAP2 DUP8 SWAP2 PUSH2 0x20CD DUP11 DUP5 PUSH2 0x2501 JUMP JUMPDEST POP PUSH1 0x0 PUSH2 0x2309 DUP8 DUP7 PUSH2 0x1487 JUMP JUMPDEST SWAP1 POP PUSH2 0x2336 DUP6 DUP3 PUSH1 0x20 ADD MLOAD DUP4 PUSH1 0x40 ADD MLOAD PUSH2 0x232C DUP10 DUP13 PUSH2 0x2501 SWAP1 SWAP2 SWAP1 PUSH4 0xFFFFFFFF AND JUMP JUMPDEST DUP12 SWAP4 SWAP3 SWAP2 SWAP1 PUSH2 0x174D JUMP JUMPDEST POP PUSH32 0xFF825F9424124EFFC5CE1D9F4803D58EDE8A2BDA4DA2324810F74834715C4C59 DUP7 DUP7 DUP7 PUSH1 0x40 MLOAD PUSH2 0x236A SWAP4 SWAP3 SWAP2 SWAP1 PUSH2 0x2C33 JUMP JUMPDEST PUSH1 0x40 MLOAD DUP1 SWAP2 SUB SWAP1 LOG1 POP POP POP POP POP POP POP JUMP JUMPDEST PUSH1 0x0 DUP1 DUP1 DUP1 PUSH2 0x166B DUP7 PUSH1 0x1 PUSH1 0x1 PUSH1 0xA0 SHL SUB DUP8 AND PUSH2 0x25FC JUMP JUMPDEST PUSH1 0x0 DUP3 PUSH1 0x0 ADD DUP3 DUP2 SLOAD DUP2 LT PUSH2 0x23AA JUMPI PUSH2 0x23AA PUSH2 0x2C04 JUMP JUMPDEST SWAP1 PUSH1 0x0 MSTORE PUSH1 0x20 PUSH1 0x0 KECCAK256 ADD SLOAD SWAP1 POP SWAP3 SWAP2 POP POP JUMP JUMPDEST PUSH1 0x0 PUSH2 0x23EA PUSH1 0x40 MLOAD DUP1 PUSH1 0x80 ADD PUSH1 0x40 MSTORE DUP1 PUSH1 0x0 DUP2 MSTORE PUSH1 0x20 ADD PUSH1 0x0 DUP2 MSTORE PUSH1 0x20 ADD PUSH1 0x0 DUP2 MSTORE PUSH1 0x20 ADD PUSH1 0x0 DUP2 MSTORE POP SWAP1 JUMP JUMPDEST PUSH2 0x23F8 DUP5 DUP5 PUSH1 0x0 DUP8 MLOAD PUSH2 0x263E JUMP JUMPDEST SWAP2 POP SWAP2 POP SWAP3 POP SWAP3 SWAP1 POP JUMP JUMPDEST PUSH1 0x0 DUP2 PUSH1 0x60 ADD MLOAD PUSH2 0x2425 DUP4 PUSH1 0x40 ADD MLOAD DUP5 PUSH1 0x20 ADD MLOAD PUSH2 0x25DD SWAP1 SWAP2 SWAP1 PUSH4 0xFFFFFFFF AND JUMP JUMPDEST PUSH2 0x544 SWAP2 SWAP1 PUSH2 0x2D90 JUMP JUMPDEST PUSH1 0x0 PUSH2 0x2484 DUP3 PUSH1 0x40 MLOAD DUP1 PUSH1 0x40 ADD PUSH1 0x40 MSTORE DUP1 PUSH1 0x20 DUP2 MSTORE PUSH1 0x20 ADD PUSH32 0x5361666545524332303A206C6F772D6C6576656C2063616C6C206661696C6564 DUP2 MSTORE POP DUP6 PUSH1 0x1 PUSH1 0x1 PUSH1 0xA0 SHL SUB AND PUSH2 0x2799 SWAP1 SWAP3 SWAP2 SWAP1 PUSH4 0xFFFFFFFF AND JUMP JUMPDEST DUP1 MLOAD SWAP1 SWAP2 POP ISZERO PUSH2 0xA8F JUMPI DUP1 DUP1 PUSH1 0x20 ADD SWAP1 MLOAD DUP2 ADD SWAP1 PUSH2 0x24A2 SWAP2 SWAP1 PUSH2 0x2BCC JUMP JUMPDEST PUSH2 0xA8F JUMPI PUSH1 0x40 MLOAD PUSH3 0x461BCD PUSH1 0xE5 SHL DUP2 MSTORE PUSH1 0x20 PUSH1 0x4 DUP3 ADD MSTORE PUSH1 0x2A PUSH1 0x24 DUP3 ADD MSTORE PUSH32 0x5361666545524332303A204552433230206F7065726174696F6E20646964206E PUSH1 0x44 DUP3 ADD MSTORE PUSH10 0x1BDD081CDD58D8D95959 PUSH1 0xB2 SHL PUSH1 0x64 DUP3 ADD MSTORE PUSH1 0x84 ADD PUSH2 0x66E JUMP JUMPDEST PUSH1 0x1 PUSH1 0x1 PUSH1 0xA0 SHL SUB DUP2 AND PUSH1 0x0 SWAP1 DUP2 MSTORE PUSH1 0x2 DUP4 ADD PUSH1 0x20 SWAP1 DUP2 MSTORE PUSH1 0x40 DUP1 DUP4 KECCAK256 SLOAD PUSH1 0x3 DUP7 ADD SWAP1 SWAP3 MSTORE DUP3 KECCAK256 SLOAD PUSH2 0x12D2 SWAP2 SWAP1 PUSH2 0x2DB8 JUMP JUMPDEST PUSH1 0x0 DUP2 DUP2 MSTORE PUSH1 0x2 DUP4 ADD PUSH1 0x20 MSTORE PUSH1 0x40 DUP2 KECCAK256 SLOAD DUP1 ISZERO ISZERO DUP1 PUSH2 0x2557 JUMPI POP PUSH2 0x2557 DUP5 DUP5 PUSH2 0x27A8 JUMP JUMPDEST PUSH2 0x12D2 JUMPI PUSH1 0x40 MLOAD PUSH3 0x461BCD PUSH1 0xE5 SHL DUP2 MSTORE PUSH1 0x20 PUSH1 0x4 DUP3 ADD MSTORE PUSH1 0x1E PUSH1 0x24 DUP3 ADD MSTORE PUSH32 0x456E756D657261626C654D61703A206E6F6E6578697374656E74206B65790000 PUSH1 0x44 DUP3 ADD MSTORE PUSH1 0x64 ADD PUSH2 0x66E JUMP JUMPDEST PUSH1 0x0 DUP2 DUP2 MSTORE PUSH1 0x2 DUP4 ADD PUSH1 0x20 MSTORE PUSH1 0x40 DUP2 KECCAK256 DUP2 SWAP1 SSTORE PUSH2 0x12D2 DUP4 DUP4 PUSH2 0x1645 JUMP JUMPDEST PUSH1 0x0 DUP3 DUP2 MSTORE PUSH1 0x2 DUP5 ADD PUSH1 0x20 MSTORE PUSH1 0x40 DUP2 KECCAK256 DUP3 SWAP1 SSTORE PUSH2 0x1B3E DUP5 DUP5 PUSH2 0x19B8 JUMP JUMPDEST PUSH1 0x0 PUSH8 0xDE0B6B3A7640000 PUSH2 0x25F2 DUP4 DUP6 PUSH2 0x2BA2 JUMP JUMPDEST PUSH2 0x12D2 SWAP2 SWAP1 PUSH2 0x2C57 JUMP JUMPDEST PUSH1 0x0 DUP2 DUP2 MSTORE PUSH1 0x2 DUP4 ADD PUSH1 0x20 MSTORE PUSH1 0x40 DUP2 KECCAK256 SLOAD DUP2 SWAP1 DUP1 PUSH2 0x262B JUMPI PUSH2 0x261E DUP6 DUP6 PUSH2 0x27A8 JUMP JUMPDEST SWAP3 POP PUSH1 0x0 SWAP2 POP PUSH2 0x1673 SWAP1 POP JUMP JUMPDEST PUSH1 0x1 SWAP3 POP SWAP1 POP PUSH2 0x1673 JUMP JUMPDEST POP SWAP3 POP SWAP3 SWAP1 POP JUMP JUMPDEST PUSH1 0x0 PUSH2 0x266B PUSH1 0x40 MLOAD DUP1 PUSH1 0x80 ADD PUSH1 0x40 MSTORE DUP1 PUSH1 0x0 DUP2 MSTORE PUSH1 0x20 ADD PUSH1 0x0 DUP2 MSTORE PUSH1 0x20 ADD PUSH1 0x0 DUP2 MSTORE PUSH1 0x20 ADD PUSH1 0x0 DUP2 MSTORE POP SWAP1 JUMP JUMPDEST DUP3 DUP5 LT PUSH2 0x2685 JUMPI PUSH1 0x0 PUSH2 0x267C PUSH2 0x1D35 JUMP JUMPDEST SWAP2 POP SWAP2 POP PUSH2 0x2790 JUMP JUMPDEST PUSH2 0x268F DUP5 DUP5 PUSH2 0x2B8F JUMP JUMPDEST PUSH1 0x1 SUB PUSH2 0x26DD JUMPI PUSH1 0x0 DUP7 DUP6 DUP2 MLOAD DUP2 LT PUSH2 0x26AA JUMPI PUSH2 0x26AA PUSH2 0x2C04 JUMP JUMPDEST PUSH1 0x20 MUL PUSH1 0x20 ADD ADD MLOAD SWAP1 POP DUP6 DUP2 PUSH1 0x0 ADD MLOAD GT ISZERO PUSH2 0x26CF JUMPI PUSH1 0x0 PUSH2 0x26CA PUSH2 0x1D35 JUMP JUMPDEST PUSH2 0x26D3 JUMP JUMPDEST PUSH1 0x1 DUP2 JUMPDEST SWAP3 POP SWAP3 POP POP PUSH2 0x2790 JUMP JUMPDEST PUSH1 0x0 PUSH1 0x2 PUSH2 0x26EB DUP7 DUP7 PUSH2 0x2BB9 JUMP JUMPDEST PUSH2 0x26F5 SWAP2 SWAP1 PUSH2 0x2C57 JUMP JUMPDEST SWAP1 POP PUSH1 0x0 DUP8 PUSH2 0x2705 PUSH1 0x1 DUP5 PUSH2 0x2B8F JUMP JUMPDEST DUP2 MLOAD DUP2 LT PUSH2 0x2715 JUMPI PUSH2 0x2715 PUSH2 0x2C04 JUMP JUMPDEST PUSH1 0x20 MUL PUSH1 0x20 ADD ADD MLOAD SWAP1 POP PUSH1 0x0 DUP9 DUP4 DUP2 MLOAD DUP2 LT PUSH2 0x2733 JUMPI PUSH2 0x2733 PUSH2 0x2C04 JUMP JUMPDEST PUSH1 0x20 MUL PUSH1 0x20 ADD ADD MLOAD SWAP1 POP DUP8 DUP3 PUSH1 0x0 ADD MLOAD GT ISZERO DUP1 ISZERO PUSH2 0x2751 JUMPI POP DUP1 MLOAD DUP9 LT JUMPDEST ISZERO PUSH2 0x2764 JUMPI POP PUSH1 0x1 SWAP4 POP SWAP2 POP PUSH2 0x2790 SWAP1 POP JUMP JUMPDEST DUP1 MLOAD DUP9 LT PUSH2 0x2784 JUMPI PUSH2 0x2778 DUP10 DUP10 DUP6 DUP10 PUSH2 0x263E JUMP JUMPDEST SWAP5 POP SWAP5 POP POP POP POP PUSH2 0x2790 JUMP JUMPDEST PUSH2 0x2778 DUP10 DUP10 DUP10 DUP7 PUSH2 0x263E JUMP JUMPDEST SWAP5 POP SWAP5 SWAP3 POP POP POP JUMP JUMPDEST PUSH1 0x60 PUSH2 0x1B3E DUP5 DUP5 PUSH1 0x0 DUP6 PUSH2 0x27B4 JUMP JUMPDEST PUSH1 0x0 PUSH2 0x12D2 DUP4 DUP4 PUSH2 0x288F JUMP JUMPDEST PUSH1 0x60 DUP3 SELFBALANCE LT ISZERO PUSH2 0x2815 JUMPI PUSH1 0x40 MLOAD PUSH3 0x461BCD PUSH1 0xE5 SHL DUP2 MSTORE PUSH1 0x20 PUSH1 0x4 DUP3 ADD MSTORE PUSH1 0x26 PUSH1 0x24 DUP3 ADD MSTORE PUSH32 0x416464726573733A20696E73756666696369656E742062616C616E636520666F PUSH1 0x44 DUP3 ADD MSTORE PUSH6 0x1C8818D85B1B PUSH1 0xD2 SHL PUSH1 0x64 DUP3 ADD MSTORE PUSH1 0x84 ADD PUSH2 0x66E JUMP JUMPDEST PUSH1 0x0 DUP1 DUP7 PUSH1 0x1 PUSH1 0x1 PUSH1 0xA0 SHL SUB AND DUP6 DUP8 PUSH1 0x40 MLOAD PUSH2 0x2831 SWAP2 SWAP1 PUSH2 0x2DD8 JUMP JUMPDEST PUSH1 0x0 PUSH1 0x40 MLOAD DUP1 DUP4 SUB DUP2 DUP6 DUP8 GAS CALL SWAP3 POP POP POP RETURNDATASIZE DUP1 PUSH1 0x0 DUP2 EQ PUSH2 0x286E JUMPI PUSH1 0x40 MLOAD SWAP2 POP PUSH1 0x1F NOT PUSH1 0x3F RETURNDATASIZE ADD AND DUP3 ADD PUSH1 0x40 MSTORE RETURNDATASIZE DUP3 MSTORE RETURNDATASIZE PUSH1 0x0 PUSH1 0x20 DUP5 ADD RETURNDATACOPY PUSH2 0x2873 JUMP JUMPDEST PUSH1 0x60 SWAP2 POP JUMPDEST POP SWAP2 POP SWAP2 POP PUSH2 0x2884 DUP8 DUP4 DUP4 DUP8 PUSH2 0x28A7 JUMP JUMPDEST SWAP8 SWAP7 POP POP POP POP POP POP POP JUMP JUMPDEST PUSH1 0x0 DUP2 DUP2 MSTORE PUSH1 0x1 DUP4 ADD PUSH1 0x20 MSTORE PUSH1 0x40 DUP2 KECCAK256 SLOAD ISZERO ISZERO PUSH2 0x12D2 JUMP JUMPDEST PUSH1 0x60 DUP4 ISZERO PUSH2 0x2916 JUMPI DUP3 MLOAD PUSH1 0x0 SUB PUSH2 0x290F JUMPI PUSH1 0x1 PUSH1 0x1 PUSH1 0xA0 SHL SUB DUP6 AND EXTCODESIZE PUSH2 0x290F JUMPI PUSH1 0x40 MLOAD PUSH3 0x461BCD PUSH1 0xE5 SHL DUP2 MSTORE PUSH1 0x20 PUSH1 0x4 DUP3 ADD MSTORE PUSH1 0x1D PUSH1 0x24 DUP3 ADD MSTORE PUSH32 0x416464726573733A2063616C6C20746F206E6F6E2D636F6E7472616374000000 PUSH1 0x44 DUP3 ADD MSTORE PUSH1 0x64 ADD PUSH2 0x66E JUMP JUMPDEST POP DUP2 PUSH2 0x1B3E JUMP JUMPDEST PUSH2 0x1B3E DUP4 DUP4 DUP2 MLOAD ISZERO PUSH2 0x292B JUMPI DUP2 MLOAD DUP1 DUP4 PUSH1 0x20 ADD REVERT JUMPDEST DUP1 PUSH1 0x40 MLOAD PUSH3 0x461BCD PUSH1 0xE5 SHL DUP2 MSTORE PUSH1 0x4 ADD PUSH2 0x66E SWAP2 SWAP1 PUSH2 0x2A70 JUMP JUMPDEST DUP1 CALLDATALOAD PUSH1 0x1 PUSH1 0x1 PUSH1 0xA0 SHL SUB DUP2 AND DUP2 EQ PUSH2 0x295C JUMPI PUSH1 0x0 DUP1 REVERT JUMPDEST SWAP2 SWAP1 POP JUMP JUMPDEST PUSH1 0x0 PUSH1 0x20 DUP3 DUP5 SUB SLT ISZERO PUSH2 0x2973 JUMPI PUSH1 0x0 DUP1 REVERT JUMPDEST PUSH2 0x12D2 DUP3 PUSH2 0x2945 JUMP JUMPDEST PUSH1 0x0 PUSH1 0x20 DUP3 DUP5 SUB SLT ISZERO PUSH2 0x298E JUMPI PUSH1 0x0 DUP1 REVERT JUMPDEST POP CALLDATALOAD SWAP2 SWAP1 POP JUMP JUMPDEST PUSH1 0x20 DUP1 DUP3 MSTORE DUP3 MLOAD DUP3 DUP3 ADD DUP2 SWAP1 MSTORE PUSH1 0x0 SWAP2 SWAP1 PUSH1 0x40 SWAP1 DUP2 DUP6 ADD SWAP1 DUP7 DUP5 ADD DUP6 JUMPDEST DUP3 DUP2 LT ISZERO PUSH2 0x29E0 JUMPI DUP2 MLOAD DUP1 MLOAD PUSH1 0x1 PUSH1 0x1 PUSH1 0xA0 SHL SUB AND DUP6 MSTORE DUP7 ADD MLOAD DUP7 DUP6 ADD MSTORE SWAP3 DUP5 ADD SWAP3 SWAP1 DUP6 ADD SWAP1 PUSH1 0x1 ADD PUSH2 0x29B2 JUMP JUMPDEST POP SWAP2 SWAP8 SWAP7 POP POP POP POP POP POP POP JUMP JUMPDEST PUSH1 0x0 DUP1 PUSH1 0x0 PUSH1 0x60 DUP5 DUP7 SUB SLT ISZERO PUSH2 0x2A02 JUMPI PUSH1 0x0 DUP1 REVERT JUMPDEST PUSH2 0x2A0B DUP5 PUSH2 0x2945 JUMP JUMPDEST SWAP6 PUSH1 0x20 DUP6 ADD CALLDATALOAD SWAP6 POP PUSH1 0x40 SWAP1 SWAP5 ADD CALLDATALOAD SWAP4 SWAP3 POP POP POP JUMP JUMPDEST PUSH1 0x0 DUP1 PUSH1 0x40 DUP4 DUP6 SUB SLT ISZERO PUSH2 0x2A33 JUMPI PUSH1 0x0 DUP1 REVERT JUMPDEST DUP3 CALLDATALOAD SWAP2 POP PUSH2 0x2A43 PUSH1 0x20 DUP5 ADD PUSH2 0x2945 JUMP JUMPDEST SWAP1 POP SWAP3 POP SWAP3 SWAP1 POP JUMP JUMPDEST PUSH1 0x0 JUMPDEST DUP4 DUP2 LT ISZERO PUSH2 0x2A67 JUMPI DUP2 DUP2 ADD MLOAD DUP4 DUP3 ADD MSTORE PUSH1 0x20 ADD PUSH2 0x2A4F JUMP JUMPDEST POP POP PUSH1 0x0 SWAP2 ADD MSTORE JUMP JUMPDEST PUSH1 0x20 DUP2 MSTORE PUSH1 0x0 DUP3 MLOAD DUP1 PUSH1 0x20 DUP5 ADD MSTORE PUSH2 0x2A8F DUP2 PUSH1 0x40 DUP6 ADD PUSH1 0x20 DUP8 ADD PUSH2 0x2A4C JUMP JUMPDEST PUSH1 0x1F ADD PUSH1 0x1F NOT AND SWAP2 SWAP1 SWAP2 ADD PUSH1 0x40 ADD SWAP3 SWAP2 POP POP JUMP JUMPDEST PUSH1 0x0 DUP1 PUSH1 0x40 DUP4 DUP6 SUB SLT ISZERO PUSH2 0x2AB6 JUMPI PUSH1 0x0 DUP1 REVERT JUMPDEST PUSH2 0x2ABF DUP4 PUSH2 0x2945 JUMP JUMPDEST SWAP5 PUSH1 0x20 SWAP4 SWAP1 SWAP4 ADD CALLDATALOAD SWAP4 POP POP POP JUMP JUMPDEST PUSH1 0x20 DUP1 DUP3 MSTORE DUP3 MLOAD DUP3 DUP3 ADD DUP2 SWAP1 MSTORE PUSH1 0x0 SWAP2 SWAP1 PUSH1 0x40 SWAP1 DUP2 DUP6 ADD SWAP1 DUP7 DUP5 ADD DUP6 JUMPDEST DUP3 DUP2 LT ISZERO PUSH2 0x29E0 JUMPI DUP2 MLOAD DUP1 MLOAD DUP6 MSTORE DUP7 DUP2 ADD MLOAD DUP8 DUP7 ADD MSTORE DUP6 DUP2 ADD MLOAD DUP7 DUP7 ADD MSTORE PUSH1 0x60 DUP1 DUP3 ADD MLOAD PUSH1 0x1 PUSH1 0x1 PUSH1 0xA0 SHL SUB SWAP1 DUP2 AND SWAP2 DUP8 ADD SWAP2 SWAP1 SWAP2 MSTORE PUSH1 0x80 SWAP2 DUP3 ADD MLOAD AND SWAP1 DUP6 ADD MSTORE PUSH1 0xA0 SWAP1 SWAP4 ADD SWAP3 SWAP1 DUP6 ADD SWAP1 PUSH1 0x1 ADD PUSH2 0x2AEA JUMP JUMPDEST PUSH1 0x0 DUP1 PUSH1 0x0 PUSH1 0x60 DUP5 DUP7 SUB SLT ISZERO PUSH2 0x2B52 JUMPI PUSH1 0x0 DUP1 REVERT JUMPDEST PUSH2 0x2B5B DUP5 PUSH2 0x2945 JUMP JUMPDEST SWAP3 POP PUSH2 0x2B69 PUSH1 0x20 DUP6 ADD PUSH2 0x2945 JUMP JUMPDEST SWAP2 POP PUSH1 0x40 DUP5 ADD CALLDATALOAD SWAP1 POP SWAP3 POP SWAP3 POP SWAP3 JUMP JUMPDEST PUSH4 0x4E487B71 PUSH1 0xE0 SHL PUSH1 0x0 MSTORE PUSH1 0x11 PUSH1 0x4 MSTORE PUSH1 0x24 PUSH1 0x0 REVERT JUMPDEST DUP2 DUP2 SUB DUP2 DUP2 GT ISZERO PUSH2 0x544 JUMPI PUSH2 0x544 PUSH2 0x2B79 JUMP JUMPDEST DUP1 DUP3 MUL DUP2 ISZERO DUP3 DUP3 DIV DUP5 EQ OR PUSH2 0x544 JUMPI PUSH2 0x544 PUSH2 0x2B79 JUMP JUMPDEST DUP1 DUP3 ADD DUP1 DUP3 GT ISZERO PUSH2 0x544 JUMPI PUSH2 0x544 PUSH2 0x2B79 JUMP JUMPDEST PUSH1 0x0 PUSH1 0x20 DUP3 DUP5 SUB SLT ISZERO PUSH2 0x2BDE JUMPI PUSH1 0x0 DUP1 REVERT JUMPDEST DUP2 MLOAD DUP1 ISZERO ISZERO DUP2 EQ PUSH2 0x12D2 JUMPI PUSH1 0x0 DUP1 REVERT JUMPDEST PUSH4 0x4E487B71 PUSH1 0xE0 SHL PUSH1 0x0 MSTORE PUSH1 0x41 PUSH1 0x4 MSTORE PUSH1 0x24 PUSH1 0x0 REVERT JUMPDEST PUSH4 0x4E487B71 PUSH1 0xE0 SHL PUSH1 0x0 MSTORE PUSH1 0x32 PUSH1 0x4 MSTORE PUSH1 0x24 PUSH1 0x0 REVERT JUMPDEST PUSH1 0x0 PUSH1 0x1 DUP3 ADD PUSH2 0x2C2C JUMPI PUSH2 0x2C2C PUSH2 0x2B79 JUMP JUMPDEST POP PUSH1 0x1 ADD SWAP1 JUMP JUMPDEST PUSH1 0x1 PUSH1 0x1 PUSH1 0xA0 SHL SUB SWAP4 DUP5 AND DUP2 MSTORE SWAP2 SWAP1 SWAP3 AND PUSH1 0x20 DUP3 ADD MSTORE PUSH1 0x40 DUP2 ADD SWAP2 SWAP1 SWAP2 MSTORE PUSH1 0x60 ADD SWAP1 JUMP JUMPDEST PUSH1 0x0 DUP3 PUSH2 0x2C74 JUMPI PUSH4 0x4E487B71 PUSH1 0xE0 SHL PUSH1 0x0 MSTORE PUSH1 0x12 PUSH1 0x4 MSTORE PUSH1 0x24 PUSH1 0x0 REVERT JUMPDEST POP DIV SWAP1 JUMP JUMPDEST PUSH1 0x1 DUP2 DUP2 JUMPDEST DUP1 DUP6 GT ISZERO PUSH2 0x2636 JUMPI DUP2 PUSH1 0x0 NOT DIV DUP3 GT ISZERO PUSH2 0x2C9A JUMPI PUSH2 0x2C9A PUSH2 0x2B79 JUMP JUMPDEST DUP1 DUP6 AND ISZERO PUSH2 0x2CA7 JUMPI SWAP2 DUP2 MUL SWAP2 JUMPDEST SWAP4 DUP5 SHR SWAP4 SWAP1 DUP1 MUL SWAP1 PUSH2 0x2C7E JUMP JUMPDEST PUSH1 0x0 DUP3 PUSH2 0x2CC3 JUMPI POP PUSH1 0x1 PUSH2 0x544 JUMP JUMPDEST DUP2 PUSH2 0x2CD0 JUMPI POP PUSH1 0x0 PUSH2 0x544 JUMP JUMPDEST DUP2 PUSH1 0x1 DUP2 EQ PUSH2 0x2CE6 JUMPI PUSH1 0x2 DUP2 EQ PUSH2 0x2CF0 JUMPI PUSH2 0x2D0C JUMP JUMPDEST PUSH1 0x1 SWAP2 POP POP PUSH2 0x544 JUMP JUMPDEST PUSH1 0xFF DUP5 GT ISZERO PUSH2 0x2D01 JUMPI PUSH2 0x2D01 PUSH2 0x2B79 JUMP JUMPDEST POP POP PUSH1 0x1 DUP3 SHL PUSH2 0x544 JUMP JUMPDEST POP PUSH1 0x20 DUP4 LT PUSH2 0x133 DUP4 LT AND PUSH1 0x4E DUP5 LT PUSH1 0xB DUP5 LT AND OR ISZERO PUSH2 0x2D2F JUMPI POP DUP2 DUP2 EXP PUSH2 0x544 JUMP JUMPDEST PUSH2 0x2D39 DUP4 DUP4 PUSH2 0x2C79 JUMP JUMPDEST DUP1 PUSH1 0x0 NOT DIV DUP3 GT ISZERO PUSH2 0x2D4D JUMPI PUSH2 0x2D4D PUSH2 0x2B79 JUMP JUMPDEST MUL SWAP4 SWAP3 POP POP POP JUMP JUMPDEST PUSH1 0x0 PUSH2 0x12D2 DUP4 DUP4 PUSH2 0x2CB4 JUMP JUMPDEST PUSH1 0x0 PUSH1 0x20 DUP3 DUP5 SUB SLT ISZERO PUSH2 0x2D73 JUMPI PUSH1 0x0 DUP1 REVERT JUMPDEST POP MLOAD SWAP2 SWAP1 POP JUMP JUMPDEST PUSH4 0x4E487B71 PUSH1 0xE0 SHL PUSH1 0x0 MSTORE PUSH1 0x31 PUSH1 0x4 MSTORE PUSH1 0x24 PUSH1 0x0 REVERT JUMPDEST DUP1 DUP3 ADD DUP3 DUP2 SLT PUSH1 0x0 DUP4 SLT DUP1 ISZERO DUP3 AND DUP3 ISZERO DUP3 AND OR ISZERO PUSH2 0x2DB0 JUMPI PUSH2 0x2DB0 PUSH2 0x2B79 JUMP JUMPDEST POP POP SWAP3 SWAP2 POP POP JUMP JUMPDEST DUP2 DUP2 SUB PUSH1 0x0 DUP4 SLT DUP1 ISZERO DUP4 DUP4 SGT AND DUP4 DUP4 SLT DUP3 AND OR ISZERO PUSH2 0x158E JUMPI PUSH2 0x158E PUSH2 0x2B79 JUMP JUMPDEST PUSH1 0x0 DUP3 MLOAD PUSH2 0x2DEA DUP2 DUP5 PUSH1 0x20 DUP8 ADD PUSH2 0x2A4C JUMP JUMPDEST SWAP2 SWAP1 SWAP2 ADD SWAP3 SWAP2 POP POP JUMP INVALID LOG2 PUSH5 0x6970667358 0x22 SLT KECCAK256 BLOCKHASH DELEGATECALL PC DUP1 0xE0 0x4D PUSH6 0x5D49C72FE2C5 0xCE 0xBE SMOD LOG2 LOG0 LOG3 MSTORE ISZERO 0xD7 PUSH15 0xC03EA38C997709C39A64736F6C6343 STOP ADDMOD GT STOP CALLER ","sha1":"f650b1bbac65b71ffd135f468cc37598417b3df1","source":"// SPDX-License-Identifier: UNLICENSED\npragma solidity ^0.8.17;\n\nimport \"./LockedVault.sol\";\nimport \"./VaultWithThreshold.sol\";\n\ncontract LockedVaultWithThreshold is LockedVault, VaultWithThreshold {\n    constructor(\n        address _owner,\n        address _underlying,\n        address _rewardsToken,\n        uint256 _threshold,\n        address _daoTreasury\n    ) LockedVault(_owner, _underlying, _rewardsToken, _daoTreasury) {\n        threshold = _threshold;\n    }\n\n    function getTotalRawVotingPower()\n        public\n        view\n        virtual\n        override\n        returns (uint256)\n    {\n        if (totalSupply < threshold) {\n            return threshold;\n        }\n        return totalSupply;\n    }\n}\n","sourcePath":"contracts/vaults/LockedVaultWithThreshold.sol","type":"contract","deployment":{"address":"0x16b13dD24977a13e9857F36eb405DB11D01AC7D1","chainid":"1","blockHeight":18721097}}