{"abi":[{"inputs":[{"internalType":"address","name":"_owner","type":"address"},{"internalType":"address","name":"_underlyingAddress","type":"address"}],"stateMutability":"nonpayable","type":"constructor","name":"constructor"},{"inputs":[{"internalType":"address","name":"actual","type":"address"},{"internalType":"address","name":"expected","type":"address"}],"name":"NotAuthorized","type":"error"},{"anonymous":false,"inputs":[{"indexed":false,"internalType":"address","name":"delegator","type":"address"},{"indexed":false,"internalType":"address","name":"delegate","type":"address"},{"indexed":false,"internalType":"uint256","name":"amount","type":"uint256"}],"name":"VotesDelegated","type":"event"},{"anonymous":false,"inputs":[{"indexed":false,"internalType":"address","name":"delegator","type":"address"},{"indexed":false,"internalType":"address","name":"delegate","type":"address"},{"indexed":false,"internalType":"uint256","name":"amount","type":"uint256"}],"name":"VotesUndelegated","type":"event"},{"inputs":[{"internalType":"address","name":"_oldDelegate","type":"address"},{"internalType":"address","name":"_newDelegate","type":"address"},{"internalType":"uint256","name":"_amount","type":"uint256"}],"name":"changeDelegate","outputs":[],"stateMutability":"nonpayable","type":"function"},{"inputs":[{"internalType":"address","name":"_delegate","type":"address"},{"internalType":"uint256","name":"_amount","type":"uint256"}],"name":"delegateVote","outputs":[],"stateMutability":"nonpayable","type":"function"},{"inputs":[{"internalType":"address","name":"account","type":"address"}],"name":"getCurrentRecord","outputs":[{"components":[{"internalType":"uint256","name":"at","type":"uint256"},{"internalType":"uint256","name":"baseVotingPower","type":"uint256"},{"internalType":"uint256","name":"multiplier","type":"uint256"},{"internalType":"int256","name":"netDelegatedVotes","type":"int256"}],"internalType":"struct VotingPowerHistory.Record","name":"","type":"tuple"}],"stateMutability":"view","type":"function"},{"inputs":[{"internalType":"address","name":"account","type":"address"}],"name":"getDelegations","outputs":[{"components":[{"internalType":"address","name":"delegate","type":"address"},{"internalType":"uint256","name":"amount","type":"uint256"}],"internalType":"struct DataTypes.Delegation[]","name":"delegations","type":"tuple[]"}],"stateMutability":"view","type":"function"},{"inputs":[{"internalType":"address","name":"account","type":"address"}],"name":"getRawVotingPower","outputs":[{"internalType":"uint256","name":"","type":"uint256"}],"stateMutability":"view","type":"function"},{"inputs":[{"internalType":"address","name":"user","type":"address"},{"internalType":"uint256","name":"timestamp","type":"uint256"}],"name":"getRawVotingPower","outputs":[{"internalType":"uint256","name":"","type":"uint256"}],"stateMutability":"view","type":"function"},{"inputs":[],"name":"getTotalRawVotingPower","outputs":[{"internalType":"uint256","name":"","type":"uint256"}],"stateMutability":"view","type":"function"},{"inputs":[],"name":"getVaultType","outputs":[{"internalType":"string","name":"","type":"string"}],"stateMutability":"pure","type":"function"},{"inputs":[],"name":"owner","outputs":[{"internalType":"address","name":"","type":"address"}],"stateMutability":"view","type":"function"},{"inputs":[{"internalType":"address","name":"_delegate","type":"address"},{"internalType":"uint256","name":"_amount","type":"uint256"}],"name":"undelegateVote","outputs":[],"stateMutability":"nonpayable","type":"function"},{"inputs":[],"name":"underlyingAddress","outputs":[{"internalType":"address","name":"","type":"address"}],"stateMutability":"view","type":"function"},{"inputs":[{"internalType":"address","name":"_user","type":"address"},{"internalType":"address","name":"_delegate","type":"address"},{"internalType":"uint128","name":"_addedCount","type":"uint128"}],"name":"updateBaseVotingPower","outputs":[],"stateMutability":"nonpayable","type":"function"},{"inputs":[{"internalType":"address[]","name":"users","type":"address[]"},{"internalType":"uint128","name":"_multiplier","type":"uint128"}],"name":"updateMultiplier","outputs":[],"stateMutability":"nonpayable","type":"function"}],"bytecode":"60c06040523480156200001157600080fd5b5060405162001ac238038062001ac28339810160408190526200003491620000d4565b6001600160a01b03808316608052811660a0819052604080516318160ddd60e01b815290516318160ddd916004808201926020929091908290030181865afa15801562000085573d6000803e3d6000fd5b505050506040513d601f19601f82011682018060405250810190620000ab91906200010c565b60055550620001269050565b80516001600160a01b0381168114620000cf57600080fd5b919050565b60008060408385031215620000e857600080fd5b620000f383620000b7565b91506200010360208401620000b7565b90509250929050565b6000602082840312156200011f57600080fd5b5051919050565b60805160a051611961620001616000396000818161013d015261027c0152600081816101f0015281816104ae01526104f001526119616000f3fe608060405234801561001057600080fd5b50600436106100cf5760003560e01c806375baf37f1161008c5780639f1acf08116100665780639f1acf0814610225578063cead048114610238578063de1ec4031461024b578063e2fcf5501461025e57600080fd5b806375baf37f146101bc5780638da5cb5b146101eb578063926f73271461021257600080fd5b806303d6a387146100d457806319ad0eba146100e95780632140ea671461013857806331cc13ba14610177578063344ff1d01461019757806371fbcca5146101a9575b600080fd5b6100e76100e236600461162e565b610271565b005b6100fc6100f7366004611671565b61036c565b60405161012f91908151815260208083015190820152604080830151908201526060918201519181019190915260800190565b60405180910390f35b61015f7f000000000000000000000000000000000000000000000000000000000000000081565b6040516001600160a01b03909116815260200161012f565b61018a610185366004611671565b6103a8565b60405161012f919061168c565b6005545b60405190815260200161012f565b6100e76101b73660046116e4565b6104a3565b604080518082018252600d81526c10dbdd5b98da5b1b1bdc939195609a1b6020820152905161012f919061175f565b61015f7f000000000000000000000000000000000000000000000000000000000000000081565b6100e76102203660046117ad565b610795565b61019b610233366004611671565b6107a4565b6100e76102463660046117d7565b6107b0565b61019b6102593660046117ad565b6107cb565b6100e761026c3660046117ad565b6107df565b336001600160a01b037f000000000000000000000000000000000000000000000000000000000000000016146102a657600080fd5b60006102b281856107ea565b905060006102bf826108f8565b905060006102f586856001600160801b031685602001516102e09190611829565b60408601516060870151600093929190610924565b905081610301826108f8565b61030b919061183c565b6005600082825461031c9190611829565b90915550506001600160a01b0385161580159061034b5750856001600160a01b0316856001600160a01b031614155b15610364576103648686866001600160801b0316610a68565b505050505050565b6103976040518060800160405280600081526020016000815260200160008152602001600081525090565b6103a26000836107ea565b92915050565b6001600160a01b03811660009081526004602052604081206060916103cc82610b39565b90508067ffffffffffffffff8111156103e7576103e761184f565b60405190808252806020026020018201604052801561042c57816020015b60408051808201909152600080825260208201528152602001906001900390816104055790505b50925060005b8181101561049b576000806104478584610b44565b915091506040518060400160405280836001600160a01b031681526020018281525086848151811061047b5761047b611865565b6020026020010181905250505080806104939061187b565b915050610432565b505050919050565b336001600160a01b037f000000000000000000000000000000000000000000000000000000000000000016146105225760405163c55ddc9760e01b81523360048201526001600160a01b037f00000000000000000000000000000000000000000000000000000000000000001660248201526044015b60405180910390fd5b670de0b6b3a7640000816001600160801b031610156105835760405162461bcd60e51b815260206004820181905260248201527f6d756c7469706c6965722063616e6e6f74206265206c657373207468616e20316044820152606401610519565b6801158e460913d00000816001600160801b031611156105ef5760405162461bcd60e51b815260206004820152602160248201527f6d756c7469706c6965722063616e6e6f74206265206d6f7265207468616e20326044820152600360fc1b6064820152608401610519565b60005b8281101561078f57600061062e85858481811061061157610611611865565b90506020020160208101906106269190611671565b6000906107ea565b9050670de0b6b3a7640000816020015110156106975760405162461bcd60e51b815260206004820152602260248201527f616c6c207573657273206d7573742068617665206174206c656173742031204e604482015261119560f21b6064820152608401610519565b826001600160801b03168160400151106106f35760405162461bcd60e51b815260206004820152601c60248201527f63616e6e6f7420646563726561736520766f74696e6720706f776572000000006044820152606401610519565b60006106fe826108f8565b9050600061074b87878681811061071757610717611865565b905060200201602081019061072c9190611671565b6020850151606086015160009291906001600160801b038a1690610924565b905081610757826108f8565b610761919061183c565b600560008282546107729190611829565b9250508190555050505080806107879061187b565b9150506105f2565b50505050565b6107a0338383610a68565b5050565b60006103a282426107cb565b6107bb338483610b62565b6107c6338383610a68565b505050565b60006107d8818484610bf6565b9392505050565b6107a0338383610b62565b6108156040518060800160405280600081526020016000815260200160008152602001600081525090565b6001600160a01b03821660009081526020848152604080832080548251818502810185019093528083529192909190849084015b828210156108a3578382906000526020600020906004020160405180608001604052908160008201548152602001600182015481526020016002820154815260200160038201548152505081526020019060010190610849565b50505050905080516000036108c2576108ba610ca7565b9150506103a2565b80600182516108d1919061183c565b815181106108e1576108e1611865565b60200260200101519150506103a2565b5092915050565b6000816060015161091a83604001518460200151610d0390919063ffffffff16565b6103a29190611894565b61094f6040518060800160405280600081526020016000815260200160008152602001600081525090565b6001600160a01b0385166000908152602087815260408083208151608081018352428152928301889052908201869052606082018590529161099189896107ea565b8051909150421480156109a45750825415155b15610a09578254829084906109bb9060019061183c565b815481106109cb576109cb611865565b906000526020600020906004020160008201518160000155602082015181600101556040820151816002015560608201518160030155905050610a5c565b6001600160a01b038816600090815260208a815260408083208054600181810183559185529383902086516004909502019384559185015191830191909155830151600282015560608301516003909101555b50979650505050505050565b6001600160a01b038216610abe5760405162461bcd60e51b815260206004820152601c60248201527f63616e6e6f742064656c656761746520746f20302061646472657373000000006044820152606401610519565b610acb6000848484610d22565b6001600160a01b03831660009081526004602052604081208190610aef9085610f0d565b91509150600082610b005783610b0a565b610b0a8483611829565b6001600160a01b0387166000908152600460205260409020909150610b30908683610f25565b50505050505050565b60006103a282610f43565b6000808080610b538686610f4e565b909450925050505b9250929050565b610b6f6000848484610f79565b6001600160a01b0383166000908152600460205260408120610b91908461115c565b9050818103610bc2576001600160a01b0384166000908152600460205260409020610bbc9084611171565b5061078f565b610bef83610bd0848461183c565b6001600160a01b03871660009081526004602052604090209190610f25565b5050505050565b6001600160a01b03821660009081526020848152604080832080548251818502810185019093528083528493610c9293929190859084015b82821015610c88578382906000526020600020906004020160405180608001604052908160008201548152602001600182015481526020016002820154815260200160038201548152505081526020019060010190610c2e565b5050505084611186565b915050610c9e816108f8565b95945050505050565b610cd26040518060800160405280600081526020016000815260200160008152602001600081525090565b60405180608001604052806000815260200160008152602001670de0b6b3a764000081526020016000815250905090565b6000670de0b6b3a7640000610d1883856118bc565b6107d891906118d3565b6000610d2e85856107ea565b6001600160a01b038516600090815260028701602090815260408083205490840151918401519394509192610d6291610d03565b610d6c919061183c565b905082811015610dbe5760405162461bcd60e51b815260206004820181905260248201527f696e73756666696369656e742062616c616e636520746f2064656c65676174656044820152606401610519565b6001600160a01b038416600090815260038701602052604081208054859290610de8908490611829565b90915550506001600160a01b038516600090815260028701602052604081208054859290610e17908490611829565b90915550506001600160a01b038086166000908152600188016020908152604080832093881683529290529081208054859290610e55908490611829565b909155505060208201516040830151610e7e918791610e748a846111cc565b8a93929190610924565b506000610e8b87866107ea565b9050610eb88582602001518360400151610eae898c6111cc90919063ffffffff16565b8b93929190610924565b50604080516001600160a01b038089168252871660208201529081018590527fff825f9424124effc5ce1d9f4803d58ede8a2bda4da2324810f74834715c4c599060600160405180910390a150505050505050565b6000808080610b53866001600160a01b0387166111fe565b6000610f3b846001600160a01b03851684611238565b949350505050565b60006103a282611255565b60008080610f5c858561125f565b600081815260029690960160205260409095205494959350505050565b6001600160a01b0380841660009081526001860160209081526040808320938616835292905220548111156110025760405162461bcd60e51b815260206004820152602960248201527f7573657220686173206e6f742064656c65676174656420656e6f75676820746f6044820152682064656c656761746560b81b6064820152608401610519565b6001600160a01b03821660009081526003850160205260408120805483929061102c90849061183c565b90915550506001600160a01b03831660009081526002850160205260408120805483929061105b90849061183c565b90915550506001600160a01b03808416600090815260018601602090815260408083209386168352929052908120805483929061109990849061183c565b90915550600090506110ab85856107ea565b90506110d884826020015183604001516110ce888a6111cc90919063ffffffff16565b8993929190610924565b5060006110e586856107ea565b90506111088482602001518360400151610e74888b6111cc90919063ffffffff16565b50604080516001600160a01b038088168252861660208201529081018490527fde5aa493a93d4351631c1991a0aeecfd52d6b51cf1b61f1a3c48f97e268086539060600160405180910390a1505050505050565b60006107d8836001600160a01b03841661126b565b60006107d8836001600160a01b0384166112db565b60006111b36040518060800160405280600081526020016000815260200160008152602001600081525090565b6111c18484600087516112f8565b915091509250929050565b6001600160a01b0381166000908152600283016020908152604080832054600386019092528220546107d891906118f5565b600081815260028301602052604081205481908061122d576112208585611453565b925060009150610b5b9050565b600192509050610b5b565b60008281526002840160205260408120829055610f3b848461145f565b60006103a2825490565b60006107d8838361146b565b60008181526002830160205260408120548015158061128f575061128f8484611453565b6107d85760405162461bcd60e51b815260206004820152601e60248201527f456e756d657261626c654d61703a206e6f6e6578697374656e74206b657900006044820152606401610519565b600081815260028301602052604081208190556107d88383611495565b60006113256040518060800160405280600081526020016000815260200160008152602001600081525090565b82841061133f576000611336610ca7565b9150915061144a565b611349848461183c565b60010361139757600086858151811061136457611364611865565b602002602001015190508581600001511115611389576000611384610ca7565b61138d565b6001815b925092505061144a565b600060026113a58686611829565b6113af91906118d3565b90506000876113bf60018461183c565b815181106113cf576113cf611865565b6020026020010151905060008883815181106113ed576113ed611865565b602002602001015190508782600001511115801561140b5750805188105b1561141e575060019350915061144a9050565b8051881061143e57611432898985896112f8565b9450945050505061144a565b611432898989866112f8565b94509492505050565b60006107d883836114a1565b60006107d883836114b9565b600082600001828154811061148257611482611865565b9060005260206000200154905092915050565b60006107d88383611508565b600081815260018301602052604081205415156107d8565b6000818152600183016020526040812054611500575081546001818101845560008481526020808220909301849055845484825282860190935260409020919091556103a2565b5060006103a2565b600081815260018301602052604081205480156115f157600061152c60018361183c565b85549091506000906115409060019061183c565b90508181146115a557600086600001828154811061156057611560611865565b906000526020600020015490508087600001848154811061158357611583611865565b6000918252602080832090910192909255918252600188019052604090208390555b85548690806115b6576115b6611915565b6001900381819060005260206000200160009055905585600101600086815260200190815260200160002060009055600193505050506103a2565b60009150506103a2565b80356001600160a01b038116811461161257600080fd5b919050565b80356001600160801b038116811461161257600080fd5b60008060006060848603121561164357600080fd5b61164c846115fb565b925061165a602085016115fb565b915061166860408501611617565b90509250925092565b60006020828403121561168357600080fd5b6107d8826115fb565b602080825282518282018190526000919060409081850190868401855b828110156116d757815180516001600160a01b031685528601518685015292840192908501906001016116a9565b5091979650505050505050565b6000806000604084860312156116f957600080fd5b833567ffffffffffffffff8082111561171157600080fd5b818601915086601f83011261172557600080fd5b81358181111561173457600080fd5b8760208260051b850101111561174957600080fd5b6020928301955093506116689186019050611617565b600060208083528351808285015260005b8181101561178c57858101830151858201604001528201611770565b506000604082860101526040601f19601f8301168501019250505092915050565b600080604083850312156117c057600080fd5b6117c9836115fb565b946020939093013593505050565b6000806000606084860312156117ec57600080fd5b6117f5846115fb565b9250611803602085016115fb565b9150604084013590509250925092565b634e487b7160e01b600052601160045260246000fd5b808201808211156103a2576103a2611813565b818103818111156103a2576103a2611813565b634e487b7160e01b600052604160045260246000fd5b634e487b7160e01b600052603260045260246000fd5b60006001820161188d5761188d611813565b5060010190565b80820182811260008312801582168215821617156118b4576118b4611813565b505092915050565b80820281158282048414176103a2576103a2611813565b6000826118f057634e487b7160e01b600052601260045260246000fd5b500490565b81810360008312801583831316838312821617156108f1576108f1611813565b634e487b7160e01b600052603160045260246000fdfea26469706673582212204cc44f22be3668040b7438397fbb027fbc7814a43f5dc2d8b266d6cc2b819af364736f6c63430008110033","bytecodeSha1":"083c2c34744e785515cfdf7ae4c10881deac174c","compiler":{"evm_version":"istanbul","optimizer":{"enabled":true,"runs":200},"version":"0.8.17+commit.8df45f5f"},"contractName":"CouncillorNFTVault","language":"Solidity","natspec":{"kind":"dev","methods":{},"version":1},"opcodes":"PUSH1 0x80 PUSH1 0x40 MSTORE CALLVALUE DUP1 ISZERO PUSH2 0x10 JUMPI PUSH1 0x0 DUP1 REVERT JUMPDEST POP PUSH1 0x4 CALLDATASIZE LT PUSH2 0xCF JUMPI PUSH1 0x0 CALLDATALOAD PUSH1 0xE0 SHR DUP1 PUSH4 0x75BAF37F GT PUSH2 0x8C JUMPI DUP1 PUSH4 0x9F1ACF08 GT PUSH2 0x66 JUMPI DUP1 PUSH4 0x9F1ACF08 EQ PUSH2 0x225 JUMPI DUP1 PUSH4 0xCEAD0481 EQ PUSH2 0x238 JUMPI DUP1 PUSH4 0xDE1EC403 EQ PUSH2 0x24B JUMPI DUP1 PUSH4 0xE2FCF550 EQ PUSH2 0x25E JUMPI PUSH1 0x0 DUP1 REVERT JUMPDEST DUP1 PUSH4 0x75BAF37F EQ PUSH2 0x1BC JUMPI DUP1 PUSH4 0x8DA5CB5B EQ PUSH2 0x1EB JUMPI DUP1 PUSH4 0x926F7327 EQ PUSH2 0x212 JUMPI PUSH1 0x0 DUP1 REVERT JUMPDEST DUP1 PUSH4 0x3D6A387 EQ PUSH2 0xD4 JUMPI DUP1 PUSH4 0x19AD0EBA EQ PUSH2 0xE9 JUMPI DUP1 PUSH4 0x2140EA67 EQ PUSH2 0x138 JUMPI DUP1 PUSH4 0x31CC13BA EQ PUSH2 0x177 JUMPI DUP1 PUSH4 0x344FF1D0 EQ PUSH2 0x197 JUMPI DUP1 PUSH4 0x71FBCCA5 EQ PUSH2 0x1A9 JUMPI JUMPDEST PUSH1 0x0 DUP1 REVERT JUMPDEST PUSH2 0xE7 PUSH2 0xE2 CALLDATASIZE PUSH1 0x4 PUSH2 0x162E JUMP JUMPDEST PUSH2 0x271 JUMP JUMPDEST STOP JUMPDEST PUSH2 0xFC PUSH2 0xF7 CALLDATASIZE PUSH1 0x4 PUSH2 0x1671 JUMP JUMPDEST PUSH2 0x36C JUMP JUMPDEST PUSH1 0x40 MLOAD PUSH2 0x12F SWAP2 SWAP1 DUP2 MLOAD DUP2 MSTORE PUSH1 0x20 DUP1 DUP4 ADD MLOAD SWAP1 DUP3 ADD MSTORE PUSH1 0x40 DUP1 DUP4 ADD MLOAD SWAP1 DUP3 ADD MSTORE PUSH1 0x60 SWAP2 DUP3 ADD MLOAD SWAP2 DUP2 ADD SWAP2 SWAP1 SWAP2 MSTORE PUSH1 0x80 ADD SWAP1 JUMP JUMPDEST PUSH1 0x40 MLOAD DUP1 SWAP2 SUB SWAP1 RETURN JUMPDEST PUSH2 0x15F PUSH32 0x0 DUP2 JUMP JUMPDEST PUSH1 0x40 MLOAD PUSH1 0x1 PUSH1 0x1 PUSH1 0xA0 SHL SUB SWAP1 SWAP2 AND DUP2 MSTORE PUSH1 0x20 ADD PUSH2 0x12F JUMP JUMPDEST PUSH2 0x18A PUSH2 0x185 CALLDATASIZE PUSH1 0x4 PUSH2 0x1671 JUMP JUMPDEST PUSH2 0x3A8 JUMP JUMPDEST PUSH1 0x40 MLOAD PUSH2 0x12F SWAP2 SWAP1 PUSH2 0x168C JUMP JUMPDEST PUSH1 0x5 SLOAD JUMPDEST PUSH1 0x40 MLOAD SWAP1 DUP2 MSTORE PUSH1 0x20 ADD PUSH2 0x12F JUMP JUMPDEST PUSH2 0xE7 PUSH2 0x1B7 CALLDATASIZE PUSH1 0x4 PUSH2 0x16E4 JUMP JUMPDEST PUSH2 0x4A3 JUMP JUMPDEST PUSH1 0x40 DUP1 MLOAD DUP1 DUP3 ADD DUP3 MSTORE PUSH1 0xD DUP2 MSTORE PUSH13 0x10DBDD5B98DA5B1B1BDC939195 PUSH1 0x9A SHL PUSH1 0x20 DUP3 ADD MSTORE SWAP1 MLOAD PUSH2 0x12F SWAP2 SWAP1 PUSH2 0x175F JUMP JUMPDEST PUSH2 0x15F PUSH32 0x0 DUP2 JUMP JUMPDEST PUSH2 0xE7 PUSH2 0x220 CALLDATASIZE PUSH1 0x4 PUSH2 0x17AD JUMP JUMPDEST PUSH2 0x795 JUMP JUMPDEST PUSH2 0x19B PUSH2 0x233 CALLDATASIZE PUSH1 0x4 PUSH2 0x1671 JUMP JUMPDEST PUSH2 0x7A4 JUMP JUMPDEST PUSH2 0xE7 PUSH2 0x246 CALLDATASIZE PUSH1 0x4 PUSH2 0x17D7 JUMP JUMPDEST PUSH2 0x7B0 JUMP JUMPDEST PUSH2 0x19B PUSH2 0x259 CALLDATASIZE PUSH1 0x4 PUSH2 0x17AD JUMP JUMPDEST PUSH2 0x7CB JUMP JUMPDEST PUSH2 0xE7 PUSH2 0x26C CALLDATASIZE PUSH1 0x4 PUSH2 0x17AD JUMP JUMPDEST PUSH2 0x7DF JUMP JUMPDEST CALLER PUSH1 0x1 PUSH1 0x1 PUSH1 0xA0 SHL SUB PUSH32 0x0 AND EQ PUSH2 0x2A6 JUMPI PUSH1 0x0 DUP1 REVERT JUMPDEST PUSH1 0x0 PUSH2 0x2B2 DUP2 DUP6 PUSH2 0x7EA JUMP JUMPDEST SWAP1 POP PUSH1 0x0 PUSH2 0x2BF DUP3 PUSH2 0x8F8 JUMP JUMPDEST SWAP1 POP PUSH1 0x0 PUSH2 0x2F5 DUP7 DUP6 PUSH1 0x1 PUSH1 0x1 PUSH1 0x80 SHL SUB AND DUP6 PUSH1 0x20 ADD MLOAD PUSH2 0x2E0 SWAP2 SWAP1 PUSH2 0x1829 JUMP JUMPDEST PUSH1 0x40 DUP7 ADD MLOAD PUSH1 0x60 DUP8 ADD MLOAD PUSH1 0x0 SWAP4 SWAP3 SWAP2 SWAP1 PUSH2 0x924 JUMP JUMPDEST SWAP1 POP DUP2 PUSH2 0x301 DUP3 PUSH2 0x8F8 JUMP JUMPDEST PUSH2 0x30B SWAP2 SWAP1 PUSH2 0x183C JUMP JUMPDEST PUSH1 0x5 PUSH1 0x0 DUP3 DUP3 SLOAD PUSH2 0x31C SWAP2 SWAP1 PUSH2 0x1829 JUMP JUMPDEST SWAP1 SWAP2 SSTORE POP POP PUSH1 0x1 PUSH1 0x1 PUSH1 0xA0 SHL SUB DUP6 AND ISZERO DUP1 ISZERO SWAP1 PUSH2 0x34B JUMPI POP DUP6 PUSH1 0x1 PUSH1 0x1 PUSH1 0xA0 SHL SUB AND DUP6 PUSH1 0x1 PUSH1 0x1 PUSH1 0xA0 SHL SUB AND EQ ISZERO JUMPDEST ISZERO PUSH2 0x364 JUMPI PUSH2 0x364 DUP7 DUP7 DUP7 PUSH1 0x1 PUSH1 0x1 PUSH1 0x80 SHL SUB AND PUSH2 0xA68 JUMP JUMPDEST POP POP POP POP POP POP JUMP JUMPDEST PUSH2 0x397 PUSH1 0x40 MLOAD DUP1 PUSH1 0x80 ADD PUSH1 0x40 MSTORE DUP1 PUSH1 0x0 DUP2 MSTORE PUSH1 0x20 ADD PUSH1 0x0 DUP2 MSTORE PUSH1 0x20 ADD PUSH1 0x0 DUP2 MSTORE PUSH1 0x20 ADD PUSH1 0x0 DUP2 MSTORE POP SWAP1 JUMP JUMPDEST PUSH2 0x3A2 PUSH1 0x0 DUP4 PUSH2 0x7EA JUMP JUMPDEST SWAP3 SWAP2 POP POP JUMP JUMPDEST PUSH1 0x1 PUSH1 0x1 PUSH1 0xA0 SHL SUB DUP2 AND PUSH1 0x0 SWAP1 DUP2 MSTORE PUSH1 0x4 PUSH1 0x20 MSTORE PUSH1 0x40 DUP2 KECCAK256 PUSH1 0x60 SWAP2 PUSH2 0x3CC DUP3 PUSH2 0xB39 JUMP JUMPDEST SWAP1 POP DUP1 PUSH8 0xFFFFFFFFFFFFFFFF DUP2 GT ISZERO PUSH2 0x3E7 JUMPI PUSH2 0x3E7 PUSH2 0x184F JUMP JUMPDEST PUSH1 0x40 MLOAD SWAP1 DUP1 DUP3 MSTORE DUP1 PUSH1 0x20 MUL PUSH1 0x20 ADD DUP3 ADD PUSH1 0x40 MSTORE DUP1 ISZERO PUSH2 0x42C JUMPI DUP2 PUSH1 0x20 ADD JUMPDEST PUSH1 0x40 DUP1 MLOAD DUP1 DUP3 ADD SWAP1 SWAP2 MSTORE PUSH1 0x0 DUP1 DUP3 MSTORE PUSH1 0x20 DUP3 ADD MSTORE DUP2 MSTORE PUSH1 0x20 ADD SWAP1 PUSH1 0x1 SWAP1 SUB SWAP1 DUP2 PUSH2 0x405 JUMPI SWAP1 POP JUMPDEST POP SWAP3 POP PUSH1 0x0 JUMPDEST DUP2 DUP2 LT ISZERO PUSH2 0x49B JUMPI PUSH1 0x0 DUP1 PUSH2 0x447 DUP6 DUP5 PUSH2 0xB44 JUMP JUMPDEST SWAP2 POP SWAP2 POP PUSH1 0x40 MLOAD DUP1 PUSH1 0x40 ADD PUSH1 0x40 MSTORE DUP1 DUP4 PUSH1 0x1 PUSH1 0x1 PUSH1 0xA0 SHL SUB AND DUP2 MSTORE PUSH1 0x20 ADD DUP3 DUP2 MSTORE POP DUP7 DUP5 DUP2 MLOAD DUP2 LT PUSH2 0x47B JUMPI PUSH2 0x47B PUSH2 0x1865 JUMP JUMPDEST PUSH1 0x20 MUL PUSH1 0x20 ADD ADD DUP2 SWAP1 MSTORE POP POP POP DUP1 DUP1 PUSH2 0x493 SWAP1 PUSH2 0x187B JUMP JUMPDEST SWAP2 POP POP PUSH2 0x432 JUMP JUMPDEST POP POP POP SWAP2 SWAP1 POP JUMP JUMPDEST CALLER PUSH1 0x1 PUSH1 0x1 PUSH1 0xA0 SHL SUB PUSH32 0x0 AND EQ PUSH2 0x522 JUMPI PUSH1 0x40 MLOAD PUSH4 0xC55DDC97 PUSH1 0xE0 SHL DUP2 MSTORE CALLER PUSH1 0x4 DUP3 ADD MSTORE PUSH1 0x1 PUSH1 0x1 PUSH1 0xA0 SHL SUB PUSH32 0x0 AND PUSH1 0x24 DUP3 ADD MSTORE PUSH1 0x44 ADD JUMPDEST PUSH1 0x40 MLOAD DUP1 SWAP2 SUB SWAP1 REVERT JUMPDEST PUSH8 0xDE0B6B3A7640000 DUP2 PUSH1 0x1 PUSH1 0x1 PUSH1 0x80 SHL SUB AND LT ISZERO PUSH2 0x583 JUMPI PUSH1 0x40 MLOAD PUSH3 0x461BCD PUSH1 0xE5 SHL DUP2 MSTORE PUSH1 0x20 PUSH1 0x4 DUP3 ADD DUP2 SWAP1 MSTORE PUSH1 0x24 DUP3 ADD MSTORE PUSH32 0x6D756C7469706C6965722063616E6E6F74206265206C657373207468616E2031 PUSH1 0x44 DUP3 ADD MSTORE PUSH1 0x64 ADD PUSH2 0x519 JUMP JUMPDEST PUSH9 0x1158E460913D00000 DUP2 PUSH1 0x1 PUSH1 0x1 PUSH1 0x80 SHL SUB AND GT ISZERO PUSH2 0x5EF JUMPI PUSH1 0x40 MLOAD PUSH3 0x461BCD PUSH1 0xE5 SHL DUP2 MSTORE PUSH1 0x20 PUSH1 0x4 DUP3 ADD MSTORE PUSH1 0x21 PUSH1 0x24 DUP3 ADD MSTORE PUSH32 0x6D756C7469706C6965722063616E6E6F74206265206D6F7265207468616E2032 PUSH1 0x44 DUP3 ADD MSTORE PUSH1 0x3 PUSH1 0xFC SHL PUSH1 0x64 DUP3 ADD MSTORE PUSH1 0x84 ADD PUSH2 0x519 JUMP JUMPDEST PUSH1 0x0 JUMPDEST DUP3 DUP2 LT ISZERO PUSH2 0x78F JUMPI PUSH1 0x0 PUSH2 0x62E DUP6 DUP6 DUP5 DUP2 DUP2 LT PUSH2 0x611 JUMPI PUSH2 0x611 PUSH2 0x1865 JUMP JUMPDEST SWAP1 POP PUSH1 0x20 MUL ADD PUSH1 0x20 DUP2 ADD SWAP1 PUSH2 0x626 SWAP2 SWAP1 PUSH2 0x1671 JUMP JUMPDEST PUSH1 0x0 SWAP1 PUSH2 0x7EA JUMP JUMPDEST SWAP1 POP PUSH8 0xDE0B6B3A7640000 DUP2 PUSH1 0x20 ADD MLOAD LT ISZERO PUSH2 0x697 JUMPI PUSH1 0x40 MLOAD PUSH3 0x461BCD PUSH1 0xE5 SHL DUP2 MSTORE PUSH1 0x20 PUSH1 0x4 DUP3 ADD MSTORE PUSH1 0x22 PUSH1 0x24 DUP3 ADD MSTORE PUSH32 0x616C6C207573657273206D7573742068617665206174206C656173742031204E PUSH1 0x44 DUP3 ADD MSTORE PUSH2 0x1195 PUSH1 0xF2 SHL PUSH1 0x64 DUP3 ADD MSTORE PUSH1 0x84 ADD PUSH2 0x519 JUMP JUMPDEST DUP3 PUSH1 0x1 PUSH1 0x1 PUSH1 0x80 SHL SUB AND DUP2 PUSH1 0x40 ADD MLOAD LT PUSH2 0x6F3 JUMPI PUSH1 0x40 MLOAD PUSH3 0x461BCD PUSH1 0xE5 SHL DUP2 MSTORE PUSH1 0x20 PUSH1 0x4 DUP3 ADD MSTORE PUSH1 0x1C PUSH1 0x24 DUP3 ADD MSTORE PUSH32 0x63616E6E6F7420646563726561736520766F74696E6720706F77657200000000 PUSH1 0x44 DUP3 ADD MSTORE PUSH1 0x64 ADD PUSH2 0x519 JUMP JUMPDEST PUSH1 0x0 PUSH2 0x6FE DUP3 PUSH2 0x8F8 JUMP JUMPDEST SWAP1 POP PUSH1 0x0 PUSH2 0x74B DUP8 DUP8 DUP7 DUP2 DUP2 LT PUSH2 0x717 JUMPI PUSH2 0x717 PUSH2 0x1865 JUMP JUMPDEST SWAP1 POP PUSH1 0x20 MUL ADD PUSH1 0x20 DUP2 ADD SWAP1 PUSH2 0x72C SWAP2 SWAP1 PUSH2 0x1671 JUMP JUMPDEST PUSH1 0x20 DUP6 ADD MLOAD PUSH1 0x60 DUP7 ADD MLOAD PUSH1 0x0 SWAP3 SWAP2 SWAP1 PUSH1 0x1 PUSH1 0x1 PUSH1 0x80 SHL SUB DUP11 AND SWAP1 PUSH2 0x924 JUMP JUMPDEST SWAP1 POP DUP2 PUSH2 0x757 DUP3 PUSH2 0x8F8 JUMP JUMPDEST PUSH2 0x761 SWAP2 SWAP1 PUSH2 0x183C JUMP JUMPDEST PUSH1 0x5 PUSH1 0x0 DUP3 DUP3 SLOAD PUSH2 0x772 SWAP2 SWAP1 PUSH2 0x1829 JUMP JUMPDEST SWAP3 POP POP DUP2 SWAP1 SSTORE POP POP POP POP DUP1 DUP1 PUSH2 0x787 SWAP1 PUSH2 0x187B JUMP JUMPDEST SWAP2 POP POP PUSH2 0x5F2 JUMP JUMPDEST POP POP POP POP JUMP JUMPDEST PUSH2 0x7A0 CALLER DUP4 DUP4 PUSH2 0xA68 JUMP JUMPDEST POP POP JUMP JUMPDEST PUSH1 0x0 PUSH2 0x3A2 DUP3 TIMESTAMP PUSH2 0x7CB JUMP JUMPDEST PUSH2 0x7BB CALLER DUP5 DUP4 PUSH2 0xB62 JUMP JUMPDEST PUSH2 0x7C6 CALLER DUP4 DUP4 PUSH2 0xA68 JUMP JUMPDEST POP POP POP JUMP JUMPDEST PUSH1 0x0 PUSH2 0x7D8 DUP2 DUP5 DUP5 PUSH2 0xBF6 JUMP JUMPDEST SWAP4 SWAP3 POP POP POP JUMP JUMPDEST PUSH2 0x7A0 CALLER DUP4 DUP4 PUSH2 0xB62 JUMP JUMPDEST PUSH2 0x815 PUSH1 0x40 MLOAD DUP1 PUSH1 0x80 ADD PUSH1 0x40 MSTORE DUP1 PUSH1 0x0 DUP2 MSTORE PUSH1 0x20 ADD PUSH1 0x0 DUP2 MSTORE PUSH1 0x20 ADD PUSH1 0x0 DUP2 MSTORE PUSH1 0x20 ADD PUSH1 0x0 DUP2 MSTORE POP SWAP1 JUMP JUMPDEST PUSH1 0x1 PUSH1 0x1 PUSH1 0xA0 SHL SUB DUP3 AND PUSH1 0x0 SWAP1 DUP2 MSTORE PUSH1 0x20 DUP5 DUP2 MSTORE PUSH1 0x40 DUP1 DUP4 KECCAK256 DUP1 SLOAD DUP3 MLOAD DUP2 DUP6 MUL DUP2 ADD DUP6 ADD SWAP1 SWAP4 MSTORE DUP1 DUP4 MSTORE SWAP2 SWAP3 SWAP1 SWAP2 SWAP1 DUP5 SWAP1 DUP5 ADD JUMPDEST DUP3 DUP3 LT ISZERO PUSH2 0x8A3 JUMPI DUP4 DUP3 SWAP1 PUSH1 0x0 MSTORE PUSH1 0x20 PUSH1 0x0 KECCAK256 SWAP1 PUSH1 0x4 MUL ADD PUSH1 0x40 MLOAD DUP1 PUSH1 0x80 ADD PUSH1 0x40 MSTORE SWAP1 DUP2 PUSH1 0x0 DUP3 ADD SLOAD DUP2 MSTORE PUSH1 0x20 ADD PUSH1 0x1 DUP3 ADD SLOAD DUP2 MSTORE PUSH1 0x20 ADD PUSH1 0x2 DUP3 ADD SLOAD DUP2 MSTORE PUSH1 0x20 ADD PUSH1 0x3 DUP3 ADD SLOAD DUP2 MSTORE POP POP DUP2 MSTORE PUSH1 0x20 ADD SWAP1 PUSH1 0x1 ADD SWAP1 PUSH2 0x849 JUMP JUMPDEST POP POP POP POP SWAP1 POP DUP1 MLOAD PUSH1 0x0 SUB PUSH2 0x8C2 JUMPI PUSH2 0x8BA PUSH2 0xCA7 JUMP JUMPDEST SWAP2 POP POP PUSH2 0x3A2 JUMP JUMPDEST DUP1 PUSH1 0x1 DUP3 MLOAD PUSH2 0x8D1 SWAP2 SWAP1 PUSH2 0x183C JUMP JUMPDEST DUP2 MLOAD DUP2 LT PUSH2 0x8E1 JUMPI PUSH2 0x8E1 PUSH2 0x1865 JUMP JUMPDEST PUSH1 0x20 MUL PUSH1 0x20 ADD ADD MLOAD SWAP2 POP POP PUSH2 0x3A2 JUMP JUMPDEST POP SWAP3 SWAP2 POP POP JUMP JUMPDEST PUSH1 0x0 DUP2 PUSH1 0x60 ADD MLOAD PUSH2 0x91A DUP4 PUSH1 0x40 ADD MLOAD DUP5 PUSH1 0x20 ADD MLOAD PUSH2 0xD03 SWAP1 SWAP2 SWAP1 PUSH4 0xFFFFFFFF AND JUMP JUMPDEST PUSH2 0x3A2 SWAP2 SWAP1 PUSH2 0x1894 JUMP JUMPDEST PUSH2 0x94F PUSH1 0x40 MLOAD DUP1 PUSH1 0x80 ADD PUSH1 0x40 MSTORE DUP1 PUSH1 0x0 DUP2 MSTORE PUSH1 0x20 ADD PUSH1 0x0 DUP2 MSTORE PUSH1 0x20 ADD PUSH1 0x0 DUP2 MSTORE PUSH1 0x20 ADD PUSH1 0x0 DUP2 MSTORE POP SWAP1 JUMP JUMPDEST PUSH1 0x1 PUSH1 0x1 PUSH1 0xA0 SHL SUB DUP6 AND PUSH1 0x0 SWAP1 DUP2 MSTORE PUSH1 0x20 DUP8 DUP2 MSTORE PUSH1 0x40 DUP1 DUP4 KECCAK256 DUP2 MLOAD PUSH1 0x80 DUP2 ADD DUP4 MSTORE TIMESTAMP DUP2 MSTORE SWAP3 DUP4 ADD DUP9 SWAP1 MSTORE SWAP1 DUP3 ADD DUP7 SWAP1 MSTORE PUSH1 0x60 DUP3 ADD DUP6 SWAP1 MSTORE SWAP2 PUSH2 0x991 DUP10 DUP10 PUSH2 0x7EA JUMP JUMPDEST DUP1 MLOAD SWAP1 SWAP2 POP TIMESTAMP EQ DUP1 ISZERO PUSH2 0x9A4 JUMPI POP DUP3 SLOAD ISZERO ISZERO JUMPDEST ISZERO PUSH2 0xA09 JUMPI DUP3 SLOAD DUP3 SWAP1 DUP5 SWAP1 PUSH2 0x9BB SWAP1 PUSH1 0x1 SWAP1 PUSH2 0x183C JUMP JUMPDEST DUP2 SLOAD DUP2 LT PUSH2 0x9CB JUMPI PUSH2 0x9CB PUSH2 0x1865 JUMP JUMPDEST SWAP1 PUSH1 0x0 MSTORE PUSH1 0x20 PUSH1 0x0 KECCAK256 SWAP1 PUSH1 0x4 MUL ADD PUSH1 0x0 DUP3 ADD MLOAD DUP2 PUSH1 0x0 ADD SSTORE PUSH1 0x20 DUP3 ADD MLOAD DUP2 PUSH1 0x1 ADD SSTORE PUSH1 0x40 DUP3 ADD MLOAD DUP2 PUSH1 0x2 ADD SSTORE PUSH1 0x60 DUP3 ADD MLOAD DUP2 PUSH1 0x3 ADD SSTORE SWAP1 POP POP PUSH2 0xA5C JUMP JUMPDEST PUSH1 0x1 PUSH1 0x1 PUSH1 0xA0 SHL SUB DUP9 AND PUSH1 0x0 SWAP1 DUP2 MSTORE PUSH1 0x20 DUP11 DUP2 MSTORE PUSH1 0x40 DUP1 DUP4 KECCAK256 DUP1 SLOAD PUSH1 0x1 DUP2 DUP2 ADD DUP4 SSTORE SWAP2 DUP6 MSTORE SWAP4 DUP4 SWAP1 KECCAK256 DUP7 MLOAD PUSH1 0x4 SWAP1 SWAP6 MUL ADD SWAP4 DUP5 SSTORE SWAP2 DUP6 ADD MLOAD SWAP2 DUP4 ADD SWAP2 SWAP1 SWAP2 SSTORE DUP4 ADD MLOAD PUSH1 0x2 DUP3 ADD SSTORE PUSH1 0x60 DUP4 ADD MLOAD PUSH1 0x3 SWAP1 SWAP2 ADD SSTORE JUMPDEST POP SWAP8 SWAP7 POP POP POP POP POP POP POP JUMP JUMPDEST PUSH1 0x1 PUSH1 0x1 PUSH1 0xA0 SHL SUB DUP3 AND PUSH2 0xABE JUMPI PUSH1 0x40 MLOAD PUSH3 0x461BCD PUSH1 0xE5 SHL DUP2 MSTORE PUSH1 0x20 PUSH1 0x4 DUP3 ADD MSTORE PUSH1 0x1C PUSH1 0x24 DUP3 ADD MSTORE PUSH32 0x63616E6E6F742064656C656761746520746F2030206164647265737300000000 PUSH1 0x44 DUP3 ADD MSTORE PUSH1 0x64 ADD PUSH2 0x519 JUMP JUMPDEST PUSH2 0xACB PUSH1 0x0 DUP5 DUP5 DUP5 PUSH2 0xD22 JUMP JUMPDEST PUSH1 0x1 PUSH1 0x1 PUSH1 0xA0 SHL SUB DUP4 AND PUSH1 0x0 SWAP1 DUP2 MSTORE PUSH1 0x4 PUSH1 0x20 MSTORE PUSH1 0x40 DUP2 KECCAK256 DUP2 SWAP1 PUSH2 0xAEF SWAP1 DUP6 PUSH2 0xF0D JUMP JUMPDEST SWAP2 POP SWAP2 POP PUSH1 0x0 DUP3 PUSH2 0xB00 JUMPI DUP4 PUSH2 0xB0A JUMP JUMPDEST PUSH2 0xB0A DUP5 DUP4 PUSH2 0x1829 JUMP JUMPDEST PUSH1 0x1 PUSH1 0x1 PUSH1 0xA0 SHL SUB DUP8 AND PUSH1 0x0 SWAP1 DUP2 MSTORE PUSH1 0x4 PUSH1 0x20 MSTORE PUSH1 0x40 SWAP1 KECCAK256 SWAP1 SWAP2 POP PUSH2 0xB30 SWAP1 DUP7 DUP4 PUSH2 0xF25 JUMP JUMPDEST POP POP POP POP POP POP POP JUMP JUMPDEST PUSH1 0x0 PUSH2 0x3A2 DUP3 PUSH2 0xF43 JUMP JUMPDEST PUSH1 0x0 DUP1 DUP1 DUP1 PUSH2 0xB53 DUP7 DUP7 PUSH2 0xF4E JUMP JUMPDEST SWAP1 SWAP5 POP SWAP3 POP POP POP JUMPDEST SWAP3 POP SWAP3 SWAP1 POP JUMP JUMPDEST PUSH2 0xB6F PUSH1 0x0 DUP5 DUP5 DUP5 PUSH2 0xF79 JUMP JUMPDEST PUSH1 0x1 PUSH1 0x1 PUSH1 0xA0 SHL SUB DUP4 AND PUSH1 0x0 SWAP1 DUP2 MSTORE PUSH1 0x4 PUSH1 0x20 MSTORE PUSH1 0x40 DUP2 KECCAK256 PUSH2 0xB91 SWAP1 DUP5 PUSH2 0x115C JUMP JUMPDEST SWAP1 POP DUP2 DUP2 SUB PUSH2 0xBC2 JUMPI PUSH1 0x1 PUSH1 0x1 PUSH1 0xA0 SHL SUB DUP5 AND PUSH1 0x0 SWAP1 DUP2 MSTORE PUSH1 0x4 PUSH1 0x20 MSTORE PUSH1 0x40 SWAP1 KECCAK256 PUSH2 0xBBC SWAP1 DUP5 PUSH2 0x1171 JUMP JUMPDEST POP PUSH2 0x78F JUMP JUMPDEST PUSH2 0xBEF DUP4 PUSH2 0xBD0 DUP5 DUP5 PUSH2 0x183C JUMP JUMPDEST PUSH1 0x1 PUSH1 0x1 PUSH1 0xA0 SHL SUB DUP8 AND PUSH1 0x0 SWAP1 DUP2 MSTORE PUSH1 0x4 PUSH1 0x20 MSTORE PUSH1 0x40 SWAP1 KECCAK256 SWAP2 SWAP1 PUSH2 0xF25 JUMP JUMPDEST POP POP POP POP POP JUMP JUMPDEST PUSH1 0x1 PUSH1 0x1 PUSH1 0xA0 SHL SUB DUP3 AND PUSH1 0x0 SWAP1 DUP2 MSTORE PUSH1 0x20 DUP5 DUP2 MSTORE PUSH1 0x40 DUP1 DUP4 KECCAK256 DUP1 SLOAD DUP3 MLOAD DUP2 DUP6 MUL DUP2 ADD DUP6 ADD SWAP1 SWAP4 MSTORE DUP1 DUP4 MSTORE DUP5 SWAP4 PUSH2 0xC92 SWAP4 SWAP3 SWAP2 SWAP1 DUP6 SWAP1 DUP5 ADD JUMPDEST DUP3 DUP3 LT ISZERO PUSH2 0xC88 JUMPI DUP4 DUP3 SWAP1 PUSH1 0x0 MSTORE PUSH1 0x20 PUSH1 0x0 KECCAK256 SWAP1 PUSH1 0x4 MUL ADD PUSH1 0x40 MLOAD DUP1 PUSH1 0x80 ADD PUSH1 0x40 MSTORE SWAP1 DUP2 PUSH1 0x0 DUP3 ADD SLOAD DUP2 MSTORE PUSH1 0x20 ADD PUSH1 0x1 DUP3 ADD SLOAD DUP2 MSTORE PUSH1 0x20 ADD PUSH1 0x2 DUP3 ADD SLOAD DUP2 MSTORE PUSH1 0x20 ADD PUSH1 0x3 DUP3 ADD SLOAD DUP2 MSTORE POP POP DUP2 MSTORE PUSH1 0x20 ADD SWAP1 PUSH1 0x1 ADD SWAP1 PUSH2 0xC2E JUMP JUMPDEST POP POP POP POP DUP5 PUSH2 0x1186 JUMP JUMPDEST SWAP2 POP POP PUSH2 0xC9E DUP2 PUSH2 0x8F8 JUMP JUMPDEST SWAP6 SWAP5 POP POP POP POP POP JUMP JUMPDEST PUSH2 0xCD2 PUSH1 0x40 MLOAD DUP1 PUSH1 0x80 ADD PUSH1 0x40 MSTORE DUP1 PUSH1 0x0 DUP2 MSTORE PUSH1 0x20 ADD PUSH1 0x0 DUP2 MSTORE PUSH1 0x20 ADD PUSH1 0x0 DUP2 MSTORE PUSH1 0x20 ADD PUSH1 0x0 DUP2 MSTORE POP SWAP1 JUMP JUMPDEST PUSH1 0x40 MLOAD DUP1 PUSH1 0x80 ADD PUSH1 0x40 MSTORE DUP1 PUSH1 0x0 DUP2 MSTORE PUSH1 0x20 ADD PUSH1 0x0 DUP2 MSTORE PUSH1 0x20 ADD PUSH8 0xDE0B6B3A7640000 DUP2 MSTORE PUSH1 0x20 ADD PUSH1 0x0 DUP2 MSTORE POP SWAP1 POP SWAP1 JUMP JUMPDEST PUSH1 0x0 PUSH8 0xDE0B6B3A7640000 PUSH2 0xD18 DUP4 DUP6 PUSH2 0x18BC JUMP JUMPDEST PUSH2 0x7D8 SWAP2 SWAP1 PUSH2 0x18D3 JUMP JUMPDEST PUSH1 0x0 PUSH2 0xD2E DUP6 DUP6 PUSH2 0x7EA JUMP JUMPDEST PUSH1 0x1 PUSH1 0x1 PUSH1 0xA0 SHL SUB DUP6 AND PUSH1 0x0 SWAP1 DUP2 MSTORE PUSH1 0x2 DUP8 ADD PUSH1 0x20 SWAP1 DUP2 MSTORE PUSH1 0x40 DUP1 DUP4 KECCAK256 SLOAD SWAP1 DUP5 ADD MLOAD SWAP2 DUP5 ADD MLOAD SWAP4 SWAP5 POP SWAP2 SWAP3 PUSH2 0xD62 SWAP2 PUSH2 0xD03 JUMP JUMPDEST PUSH2 0xD6C SWAP2 SWAP1 PUSH2 0x183C JUMP JUMPDEST SWAP1 POP DUP3 DUP2 LT ISZERO PUSH2 0xDBE JUMPI PUSH1 0x40 MLOAD PUSH3 0x461BCD PUSH1 0xE5 SHL DUP2 MSTORE PUSH1 0x20 PUSH1 0x4 DUP3 ADD DUP2 SWAP1 MSTORE PUSH1 0x24 DUP3 ADD MSTORE PUSH32 0x696E73756666696369656E742062616C616E636520746F2064656C6567617465 PUSH1 0x44 DUP3 ADD MSTORE PUSH1 0x64 ADD PUSH2 0x519 JUMP JUMPDEST PUSH1 0x1 PUSH1 0x1 PUSH1 0xA0 SHL SUB DUP5 AND PUSH1 0x0 SWAP1 DUP2 MSTORE PUSH1 0x3 DUP8 ADD PUSH1 0x20 MSTORE PUSH1 0x40 DUP2 KECCAK256 DUP1 SLOAD DUP6 SWAP3 SWAP1 PUSH2 0xDE8 SWAP1 DUP5 SWAP1 PUSH2 0x1829 JUMP JUMPDEST SWAP1 SWAP2 SSTORE POP POP PUSH1 0x1 PUSH1 0x1 PUSH1 0xA0 SHL SUB DUP6 AND PUSH1 0x0 SWAP1 DUP2 MSTORE PUSH1 0x2 DUP8 ADD PUSH1 0x20 MSTORE PUSH1 0x40 DUP2 KECCAK256 DUP1 SLOAD DUP6 SWAP3 SWAP1 PUSH2 0xE17 SWAP1 DUP5 SWAP1 PUSH2 0x1829 JUMP JUMPDEST SWAP1 SWAP2 SSTORE POP POP PUSH1 0x1 PUSH1 0x1 PUSH1 0xA0 SHL SUB DUP1 DUP7 AND PUSH1 0x0 SWAP1 DUP2 MSTORE PUSH1 0x1 DUP9 ADD PUSH1 0x20 SWAP1 DUP2 MSTORE PUSH1 0x40 DUP1 DUP4 KECCAK256 SWAP4 DUP9 AND DUP4 MSTORE SWAP3 SWAP1 MSTORE SWAP1 DUP2 KECCAK256 DUP1 SLOAD DUP6 SWAP3 SWAP1 PUSH2 0xE55 SWAP1 DUP5 SWAP1 PUSH2 0x1829 JUMP JUMPDEST SWAP1 SWAP2 SSTORE POP POP PUSH1 0x20 DUP3 ADD MLOAD PUSH1 0x40 DUP4 ADD MLOAD PUSH2 0xE7E SWAP2 DUP8 SWAP2 PUSH2 0xE74 DUP11 DUP5 PUSH2 0x11CC JUMP JUMPDEST DUP11 SWAP4 SWAP3 SWAP2 SWAP1 PUSH2 0x924 JUMP JUMPDEST POP PUSH1 0x0 PUSH2 0xE8B DUP8 DUP7 PUSH2 0x7EA JUMP JUMPDEST SWAP1 POP PUSH2 0xEB8 DUP6 DUP3 PUSH1 0x20 ADD MLOAD DUP4 PUSH1 0x40 ADD MLOAD PUSH2 0xEAE DUP10 DUP13 PUSH2 0x11CC SWAP1 SWAP2 SWAP1 PUSH4 0xFFFFFFFF AND JUMP JUMPDEST DUP12 SWAP4 SWAP3 SWAP2 SWAP1 PUSH2 0x924 JUMP JUMPDEST POP PUSH1 0x40 DUP1 MLOAD PUSH1 0x1 PUSH1 0x1 PUSH1 0xA0 SHL SUB DUP1 DUP10 AND DUP3 MSTORE DUP8 AND PUSH1 0x20 DUP3 ADD MSTORE SWAP1 DUP2 ADD DUP6 SWAP1 MSTORE PUSH32 0xFF825F9424124EFFC5CE1D9F4803D58EDE8A2BDA4DA2324810F74834715C4C59 SWAP1 PUSH1 0x60 ADD PUSH1 0x40 MLOAD DUP1 SWAP2 SUB SWAP1 LOG1 POP POP POP POP POP POP POP JUMP JUMPDEST PUSH1 0x0 DUP1 DUP1 DUP1 PUSH2 0xB53 DUP7 PUSH1 0x1 PUSH1 0x1 PUSH1 0xA0 SHL SUB DUP8 AND PUSH2 0x11FE JUMP JUMPDEST PUSH1 0x0 PUSH2 0xF3B DUP5 PUSH1 0x1 PUSH1 0x1 PUSH1 0xA0 SHL SUB DUP6 AND DUP5 PUSH2 0x1238 JUMP JUMPDEST SWAP5 SWAP4 POP POP POP POP JUMP JUMPDEST PUSH1 0x0 PUSH2 0x3A2 DUP3 PUSH2 0x1255 JUMP JUMPDEST PUSH1 0x0 DUP1 DUP1 PUSH2 0xF5C DUP6 DUP6 PUSH2 0x125F JUMP JUMPDEST PUSH1 0x0 DUP2 DUP2 MSTORE PUSH1 0x2 SWAP7 SWAP1 SWAP7 ADD PUSH1 0x20 MSTORE PUSH1 0x40 SWAP1 SWAP6 KECCAK256 SLOAD SWAP5 SWAP6 SWAP4 POP POP POP POP JUMP JUMPDEST PUSH1 0x1 PUSH1 0x1 PUSH1 0xA0 SHL SUB DUP1 DUP5 AND PUSH1 0x0 SWAP1 DUP2 MSTORE PUSH1 0x1 DUP7 ADD PUSH1 0x20 SWAP1 DUP2 MSTORE PUSH1 0x40 DUP1 DUP4 KECCAK256 SWAP4 DUP7 AND DUP4 MSTORE SWAP3 SWAP1 MSTORE KECCAK256 SLOAD DUP2 GT ISZERO PUSH2 0x1002 JUMPI PUSH1 0x40 MLOAD PUSH3 0x461BCD PUSH1 0xE5 SHL DUP2 MSTORE PUSH1 0x20 PUSH1 0x4 DUP3 ADD MSTORE PUSH1 0x29 PUSH1 0x24 DUP3 ADD MSTORE PUSH32 0x7573657220686173206E6F742064656C65676174656420656E6F75676820746F PUSH1 0x44 DUP3 ADD MSTORE PUSH9 0x2064656C6567617465 PUSH1 0xB8 SHL PUSH1 0x64 DUP3 ADD MSTORE PUSH1 0x84 ADD PUSH2 0x519 JUMP JUMPDEST PUSH1 0x1 PUSH1 0x1 PUSH1 0xA0 SHL SUB DUP3 AND PUSH1 0x0 SWAP1 DUP2 MSTORE PUSH1 0x3 DUP6 ADD PUSH1 0x20 MSTORE PUSH1 0x40 DUP2 KECCAK256 DUP1 SLOAD DUP4 SWAP3 SWAP1 PUSH2 0x102C SWAP1 DUP5 SWAP1 PUSH2 0x183C JUMP JUMPDEST SWAP1 SWAP2 SSTORE POP POP PUSH1 0x1 PUSH1 0x1 PUSH1 0xA0 SHL SUB DUP4 AND PUSH1 0x0 SWAP1 DUP2 MSTORE PUSH1 0x2 DUP6 ADD PUSH1 0x20 MSTORE PUSH1 0x40 DUP2 KECCAK256 DUP1 SLOAD DUP4 SWAP3 SWAP1 PUSH2 0x105B SWAP1 DUP5 SWAP1 PUSH2 0x183C JUMP JUMPDEST SWAP1 SWAP2 SSTORE POP POP PUSH1 0x1 PUSH1 0x1 PUSH1 0xA0 SHL SUB DUP1 DUP5 AND PUSH1 0x0 SWAP1 DUP2 MSTORE PUSH1 0x1 DUP7 ADD PUSH1 0x20 SWAP1 DUP2 MSTORE PUSH1 0x40 DUP1 DUP4 KECCAK256 SWAP4 DUP7 AND DUP4 MSTORE SWAP3 SWAP1 MSTORE SWAP1 DUP2 KECCAK256 DUP1 SLOAD DUP4 SWAP3 SWAP1 PUSH2 0x1099 SWAP1 DUP5 SWAP1 PUSH2 0x183C JUMP JUMPDEST SWAP1 SWAP2 SSTORE POP PUSH1 0x0 SWAP1 POP PUSH2 0x10AB DUP6 DUP6 PUSH2 0x7EA JUMP JUMPDEST SWAP1 POP PUSH2 0x10D8 DUP5 DUP3 PUSH1 0x20 ADD MLOAD DUP4 PUSH1 0x40 ADD MLOAD PUSH2 0x10CE DUP9 DUP11 PUSH2 0x11CC SWAP1 SWAP2 SWAP1 PUSH4 0xFFFFFFFF AND JUMP JUMPDEST DUP10 SWAP4 SWAP3 SWAP2 SWAP1 PUSH2 0x924 JUMP JUMPDEST POP PUSH1 0x0 PUSH2 0x10E5 DUP7 DUP6 PUSH2 0x7EA JUMP JUMPDEST SWAP1 POP PUSH2 0x1108 DUP5 DUP3 PUSH1 0x20 ADD MLOAD DUP4 PUSH1 0x40 ADD MLOAD PUSH2 0xE74 DUP9 DUP12 PUSH2 0x11CC SWAP1 SWAP2 SWAP1 PUSH4 0xFFFFFFFF AND JUMP JUMPDEST POP PUSH1 0x40 DUP1 MLOAD PUSH1 0x1 PUSH1 0x1 PUSH1 0xA0 SHL SUB DUP1 DUP9 AND DUP3 MSTORE DUP7 AND PUSH1 0x20 DUP3 ADD MSTORE SWAP1 DUP2 ADD DUP5 SWAP1 MSTORE PUSH32 0xDE5AA493A93D4351631C1991A0AEECFD52D6B51CF1B61F1A3C48F97E26808653 SWAP1 PUSH1 0x60 ADD PUSH1 0x40 MLOAD DUP1 SWAP2 SUB SWAP1 LOG1 POP POP POP POP POP POP JUMP JUMPDEST PUSH1 0x0 PUSH2 0x7D8 DUP4 PUSH1 0x1 PUSH1 0x1 PUSH1 0xA0 SHL SUB DUP5 AND PUSH2 0x126B JUMP JUMPDEST PUSH1 0x0 PUSH2 0x7D8 DUP4 PUSH1 0x1 PUSH1 0x1 PUSH1 0xA0 SHL SUB DUP5 AND PUSH2 0x12DB JUMP JUMPDEST PUSH1 0x0 PUSH2 0x11B3 PUSH1 0x40 MLOAD DUP1 PUSH1 0x80 ADD PUSH1 0x40 MSTORE DUP1 PUSH1 0x0 DUP2 MSTORE PUSH1 0x20 ADD PUSH1 0x0 DUP2 MSTORE PUSH1 0x20 ADD PUSH1 0x0 DUP2 MSTORE PUSH1 0x20 ADD PUSH1 0x0 DUP2 MSTORE POP SWAP1 JUMP JUMPDEST PUSH2 0x11C1 DUP5 DUP5 PUSH1 0x0 DUP8 MLOAD PUSH2 0x12F8 JUMP JUMPDEST SWAP2 POP SWAP2 POP SWAP3 POP SWAP3 SWAP1 POP JUMP JUMPDEST PUSH1 0x1 PUSH1 0x1 PUSH1 0xA0 SHL SUB DUP2 AND PUSH1 0x0 SWAP1 DUP2 MSTORE PUSH1 0x2 DUP4 ADD PUSH1 0x20 SWAP1 DUP2 MSTORE PUSH1 0x40 DUP1 DUP4 KECCAK256 SLOAD PUSH1 0x3 DUP7 ADD SWAP1 SWAP3 MSTORE DUP3 KECCAK256 SLOAD PUSH2 0x7D8 SWAP2 SWAP1 PUSH2 0x18F5 JUMP JUMPDEST PUSH1 0x0 DUP2 DUP2 MSTORE PUSH1 0x2 DUP4 ADD PUSH1 0x20 MSTORE PUSH1 0x40 DUP2 KECCAK256 SLOAD DUP2 SWAP1 DUP1 PUSH2 0x122D JUMPI PUSH2 0x1220 DUP6 DUP6 PUSH2 0x1453 JUMP JUMPDEST SWAP3 POP PUSH1 0x0 SWAP2 POP PUSH2 0xB5B SWAP1 POP JUMP JUMPDEST PUSH1 0x1 SWAP3 POP SWAP1 POP PUSH2 0xB5B JUMP JUMPDEST PUSH1 0x0 DUP3 DUP2 MSTORE PUSH1 0x2 DUP5 ADD PUSH1 0x20 MSTORE PUSH1 0x40 DUP2 KECCAK256 DUP3 SWAP1 SSTORE PUSH2 0xF3B DUP5 DUP5 PUSH2 0x145F JUMP JUMPDEST PUSH1 0x0 PUSH2 0x3A2 DUP3 SLOAD SWAP1 JUMP JUMPDEST PUSH1 0x0 PUSH2 0x7D8 DUP4 DUP4 PUSH2 0x146B JUMP JUMPDEST PUSH1 0x0 DUP2 DUP2 MSTORE PUSH1 0x2 DUP4 ADD PUSH1 0x20 MSTORE PUSH1 0x40 DUP2 KECCAK256 SLOAD DUP1 ISZERO ISZERO DUP1 PUSH2 0x128F JUMPI POP PUSH2 0x128F DUP5 DUP5 PUSH2 0x1453 JUMP JUMPDEST PUSH2 0x7D8 JUMPI PUSH1 0x40 MLOAD PUSH3 0x461BCD PUSH1 0xE5 SHL DUP2 MSTORE PUSH1 0x20 PUSH1 0x4 DUP3 ADD MSTORE PUSH1 0x1E PUSH1 0x24 DUP3 ADD MSTORE PUSH32 0x456E756D657261626C654D61703A206E6F6E6578697374656E74206B65790000 PUSH1 0x44 DUP3 ADD MSTORE PUSH1 0x64 ADD PUSH2 0x519 JUMP JUMPDEST PUSH1 0x0 DUP2 DUP2 MSTORE PUSH1 0x2 DUP4 ADD PUSH1 0x20 MSTORE PUSH1 0x40 DUP2 KECCAK256 DUP2 SWAP1 SSTORE PUSH2 0x7D8 DUP4 DUP4 PUSH2 0x1495 JUMP JUMPDEST PUSH1 0x0 PUSH2 0x1325 PUSH1 0x40 MLOAD DUP1 PUSH1 0x80 ADD PUSH1 0x40 MSTORE DUP1 PUSH1 0x0 DUP2 MSTORE PUSH1 0x20 ADD PUSH1 0x0 DUP2 MSTORE PUSH1 0x20 ADD PUSH1 0x0 DUP2 MSTORE PUSH1 0x20 ADD PUSH1 0x0 DUP2 MSTORE POP SWAP1 JUMP JUMPDEST DUP3 DUP5 LT PUSH2 0x133F JUMPI PUSH1 0x0 PUSH2 0x1336 PUSH2 0xCA7 JUMP JUMPDEST SWAP2 POP SWAP2 POP PUSH2 0x144A JUMP JUMPDEST PUSH2 0x1349 DUP5 DUP5 PUSH2 0x183C JUMP JUMPDEST PUSH1 0x1 SUB PUSH2 0x1397 JUMPI PUSH1 0x0 DUP7 DUP6 DUP2 MLOAD DUP2 LT PUSH2 0x1364 JUMPI PUSH2 0x1364 PUSH2 0x1865 JUMP JUMPDEST PUSH1 0x20 MUL PUSH1 0x20 ADD ADD MLOAD SWAP1 POP DUP6 DUP2 PUSH1 0x0 ADD MLOAD GT ISZERO PUSH2 0x1389 JUMPI PUSH1 0x0 PUSH2 0x1384 PUSH2 0xCA7 JUMP JUMPDEST PUSH2 0x138D JUMP JUMPDEST PUSH1 0x1 DUP2 JUMPDEST SWAP3 POP SWAP3 POP POP PUSH2 0x144A JUMP JUMPDEST PUSH1 0x0 PUSH1 0x2 PUSH2 0x13A5 DUP7 DUP7 PUSH2 0x1829 JUMP JUMPDEST PUSH2 0x13AF SWAP2 SWAP1 PUSH2 0x18D3 JUMP JUMPDEST SWAP1 POP PUSH1 0x0 DUP8 PUSH2 0x13BF PUSH1 0x1 DUP5 PUSH2 0x183C JUMP JUMPDEST DUP2 MLOAD DUP2 LT PUSH2 0x13CF JUMPI PUSH2 0x13CF PUSH2 0x1865 JUMP JUMPDEST PUSH1 0x20 MUL PUSH1 0x20 ADD ADD MLOAD SWAP1 POP PUSH1 0x0 DUP9 DUP4 DUP2 MLOAD DUP2 LT PUSH2 0x13ED JUMPI PUSH2 0x13ED PUSH2 0x1865 JUMP JUMPDEST PUSH1 0x20 MUL PUSH1 0x20 ADD ADD MLOAD SWAP1 POP DUP8 DUP3 PUSH1 0x0 ADD MLOAD GT ISZERO DUP1 ISZERO PUSH2 0x140B JUMPI POP DUP1 MLOAD DUP9 LT JUMPDEST ISZERO PUSH2 0x141E JUMPI POP PUSH1 0x1 SWAP4 POP SWAP2 POP PUSH2 0x144A SWAP1 POP JUMP JUMPDEST DUP1 MLOAD DUP9 LT PUSH2 0x143E JUMPI PUSH2 0x1432 DUP10 DUP10 DUP6 DUP10 PUSH2 0x12F8 JUMP JUMPDEST SWAP5 POP SWAP5 POP POP POP POP PUSH2 0x144A JUMP JUMPDEST PUSH2 0x1432 DUP10 DUP10 DUP10 DUP7 PUSH2 0x12F8 JUMP JUMPDEST SWAP5 POP SWAP5 SWAP3 POP POP POP JUMP JUMPDEST PUSH1 0x0 PUSH2 0x7D8 DUP4 DUP4 PUSH2 0x14A1 JUMP JUMPDEST PUSH1 0x0 PUSH2 0x7D8 DUP4 DUP4 PUSH2 0x14B9 JUMP JUMPDEST PUSH1 0x0 DUP3 PUSH1 0x0 ADD DUP3 DUP2 SLOAD DUP2 LT PUSH2 0x1482 JUMPI PUSH2 0x1482 PUSH2 0x1865 JUMP JUMPDEST SWAP1 PUSH1 0x0 MSTORE PUSH1 0x20 PUSH1 0x0 KECCAK256 ADD SLOAD SWAP1 POP SWAP3 SWAP2 POP POP JUMP JUMPDEST PUSH1 0x0 PUSH2 0x7D8 DUP4 DUP4 PUSH2 0x1508 JUMP JUMPDEST PUSH1 0x0 DUP2 DUP2 MSTORE PUSH1 0x1 DUP4 ADD PUSH1 0x20 MSTORE PUSH1 0x40 DUP2 KECCAK256 SLOAD ISZERO ISZERO PUSH2 0x7D8 JUMP JUMPDEST PUSH1 0x0 DUP2 DUP2 MSTORE PUSH1 0x1 DUP4 ADD PUSH1 0x20 MSTORE PUSH1 0x40 DUP2 KECCAK256 SLOAD PUSH2 0x1500 JUMPI POP DUP2 SLOAD PUSH1 0x1 DUP2 DUP2 ADD DUP5 SSTORE PUSH1 0x0 DUP5 DUP2 MSTORE PUSH1 0x20 DUP1 DUP3 KECCAK256 SWAP1 SWAP4 ADD DUP5 SWAP1 SSTORE DUP5 SLOAD DUP5 DUP3 MSTORE DUP3 DUP7 ADD SWAP1 SWAP4 MSTORE PUSH1 0x40 SWAP1 KECCAK256 SWAP2 SWAP1 SWAP2 SSTORE PUSH2 0x3A2 JUMP JUMPDEST POP PUSH1 0x0 PUSH2 0x3A2 JUMP JUMPDEST PUSH1 0x0 DUP2 DUP2 MSTORE PUSH1 0x1 DUP4 ADD PUSH1 0x20 MSTORE PUSH1 0x40 DUP2 KECCAK256 SLOAD DUP1 ISZERO PUSH2 0x15F1 JUMPI PUSH1 0x0 PUSH2 0x152C PUSH1 0x1 DUP4 PUSH2 0x183C JUMP JUMPDEST DUP6 SLOAD SWAP1 SWAP2 POP PUSH1 0x0 SWAP1 PUSH2 0x1540 SWAP1 PUSH1 0x1 SWAP1 PUSH2 0x183C JUMP JUMPDEST SWAP1 POP DUP2 DUP2 EQ PUSH2 0x15A5 JUMPI PUSH1 0x0 DUP7 PUSH1 0x0 ADD DUP3 DUP2 SLOAD DUP2 LT PUSH2 0x1560 JUMPI PUSH2 0x1560 PUSH2 0x1865 JUMP JUMPDEST SWAP1 PUSH1 0x0 MSTORE PUSH1 0x20 PUSH1 0x0 KECCAK256 ADD SLOAD SWAP1 POP DUP1 DUP8 PUSH1 0x0 ADD DUP5 DUP2 SLOAD DUP2 LT PUSH2 0x1583 JUMPI PUSH2 0x1583 PUSH2 0x1865 JUMP JUMPDEST PUSH1 0x0 SWAP2 DUP3 MSTORE PUSH1 0x20 DUP1 DUP4 KECCAK256 SWAP1 SWAP2 ADD SWAP3 SWAP1 SWAP3 SSTORE SWAP2 DUP3 MSTORE PUSH1 0x1 DUP9 ADD SWAP1 MSTORE PUSH1 0x40 SWAP1 KECCAK256 DUP4 SWAP1 SSTORE JUMPDEST DUP6 SLOAD DUP7 SWAP1 DUP1 PUSH2 0x15B6 JUMPI PUSH2 0x15B6 PUSH2 0x1915 JUMP JUMPDEST PUSH1 0x1 SWAP1 SUB DUP2 DUP2 SWAP1 PUSH1 0x0 MSTORE PUSH1 0x20 PUSH1 0x0 KECCAK256 ADD PUSH1 0x0 SWAP1 SSTORE SWAP1 SSTORE DUP6 PUSH1 0x1 ADD PUSH1 0x0 DUP7 DUP2 MSTORE PUSH1 0x20 ADD SWAP1 DUP2 MSTORE PUSH1 0x20 ADD PUSH1 0x0 KECCAK256 PUSH1 0x0 SWAP1 SSTORE PUSH1 0x1 SWAP4 POP POP POP POP PUSH2 0x3A2 JUMP JUMPDEST PUSH1 0x0 SWAP2 POP POP PUSH2 0x3A2 JUMP JUMPDEST DUP1 CALLDATALOAD PUSH1 0x1 PUSH1 0x1 PUSH1 0xA0 SHL SUB DUP2 AND DUP2 EQ PUSH2 0x1612 JUMPI PUSH1 0x0 DUP1 REVERT JUMPDEST SWAP2 SWAP1 POP JUMP JUMPDEST DUP1 CALLDATALOAD PUSH1 0x1 PUSH1 0x1 PUSH1 0x80 SHL SUB DUP2 AND DUP2 EQ PUSH2 0x1612 JUMPI PUSH1 0x0 DUP1 REVERT JUMPDEST PUSH1 0x0 DUP1 PUSH1 0x0 PUSH1 0x60 DUP5 DUP7 SUB SLT ISZERO PUSH2 0x1643 JUMPI PUSH1 0x0 DUP1 REVERT JUMPDEST PUSH2 0x164C DUP5 PUSH2 0x15FB JUMP JUMPDEST SWAP3 POP PUSH2 0x165A PUSH1 0x20 DUP6 ADD PUSH2 0x15FB JUMP JUMPDEST SWAP2 POP PUSH2 0x1668 PUSH1 0x40 DUP6 ADD PUSH2 0x1617 JUMP JUMPDEST SWAP1 POP SWAP3 POP SWAP3 POP SWAP3 JUMP JUMPDEST PUSH1 0x0 PUSH1 0x20 DUP3 DUP5 SUB SLT ISZERO PUSH2 0x1683 JUMPI PUSH1 0x0 DUP1 REVERT JUMPDEST PUSH2 0x7D8 DUP3 PUSH2 0x15FB JUMP JUMPDEST PUSH1 0x20 DUP1 DUP3 MSTORE DUP3 MLOAD DUP3 DUP3 ADD DUP2 SWAP1 MSTORE PUSH1 0x0 SWAP2 SWAP1 PUSH1 0x40 SWAP1 DUP2 DUP6 ADD SWAP1 DUP7 DUP5 ADD DUP6 JUMPDEST DUP3 DUP2 LT ISZERO PUSH2 0x16D7 JUMPI DUP2 MLOAD DUP1 MLOAD PUSH1 0x1 PUSH1 0x1 PUSH1 0xA0 SHL SUB AND DUP6 MSTORE DUP7 ADD MLOAD DUP7 DUP6 ADD MSTORE SWAP3 DUP5 ADD SWAP3 SWAP1 DUP6 ADD SWAP1 PUSH1 0x1 ADD PUSH2 0x16A9 JUMP JUMPDEST POP SWAP2 SWAP8 SWAP7 POP POP POP POP POP POP POP JUMP JUMPDEST PUSH1 0x0 DUP1 PUSH1 0x0 PUSH1 0x40 DUP5 DUP7 SUB SLT ISZERO PUSH2 0x16F9 JUMPI PUSH1 0x0 DUP1 REVERT JUMPDEST DUP4 CALLDATALOAD PUSH8 0xFFFFFFFFFFFFFFFF DUP1 DUP3 GT ISZERO PUSH2 0x1711 JUMPI PUSH1 0x0 DUP1 REVERT JUMPDEST DUP2 DUP7 ADD SWAP2 POP DUP7 PUSH1 0x1F DUP4 ADD SLT PUSH2 0x1725 JUMPI PUSH1 0x0 DUP1 REVERT JUMPDEST DUP2 CALLDATALOAD DUP2 DUP2 GT ISZERO PUSH2 0x1734 JUMPI PUSH1 0x0 DUP1 REVERT JUMPDEST DUP8 PUSH1 0x20 DUP3 PUSH1 0x5 SHL DUP6 ADD ADD GT ISZERO PUSH2 0x1749 JUMPI PUSH1 0x0 DUP1 REVERT JUMPDEST PUSH1 0x20 SWAP3 DUP4 ADD SWAP6 POP SWAP4 POP PUSH2 0x1668 SWAP2 DUP7 ADD SWAP1 POP PUSH2 0x1617 JUMP JUMPDEST PUSH1 0x0 PUSH1 0x20 DUP1 DUP4 MSTORE DUP4 MLOAD DUP1 DUP3 DUP6 ADD MSTORE PUSH1 0x0 JUMPDEST DUP2 DUP2 LT ISZERO PUSH2 0x178C JUMPI DUP6 DUP2 ADD DUP4 ADD MLOAD DUP6 DUP3 ADD PUSH1 0x40 ADD MSTORE DUP3 ADD PUSH2 0x1770 JUMP JUMPDEST POP PUSH1 0x0 PUSH1 0x40 DUP3 DUP7 ADD ADD MSTORE PUSH1 0x40 PUSH1 0x1F NOT PUSH1 0x1F DUP4 ADD AND DUP6 ADD ADD SWAP3 POP POP POP SWAP3 SWAP2 POP POP JUMP JUMPDEST PUSH1 0x0 DUP1 PUSH1 0x40 DUP4 DUP6 SUB SLT ISZERO PUSH2 0x17C0 JUMPI PUSH1 0x0 DUP1 REVERT JUMPDEST PUSH2 0x17C9 DUP4 PUSH2 0x15FB JUMP JUMPDEST SWAP5 PUSH1 0x20 SWAP4 SWAP1 SWAP4 ADD CALLDATALOAD SWAP4 POP POP POP JUMP JUMPDEST PUSH1 0x0 DUP1 PUSH1 0x0 PUSH1 0x60 DUP5 DUP7 SUB SLT ISZERO PUSH2 0x17EC JUMPI PUSH1 0x0 DUP1 REVERT JUMPDEST PUSH2 0x17F5 DUP5 PUSH2 0x15FB JUMP JUMPDEST SWAP3 POP PUSH2 0x1803 PUSH1 0x20 DUP6 ADD PUSH2 0x15FB JUMP JUMPDEST SWAP2 POP PUSH1 0x40 DUP5 ADD CALLDATALOAD SWAP1 POP SWAP3 POP SWAP3 POP SWAP3 JUMP JUMPDEST PUSH4 0x4E487B71 PUSH1 0xE0 SHL PUSH1 0x0 MSTORE PUSH1 0x11 PUSH1 0x4 MSTORE PUSH1 0x24 PUSH1 0x0 REVERT JUMPDEST DUP1 DUP3 ADD DUP1 DUP3 GT ISZERO PUSH2 0x3A2 JUMPI PUSH2 0x3A2 PUSH2 0x1813 JUMP JUMPDEST DUP2 DUP2 SUB DUP2 DUP2 GT ISZERO PUSH2 0x3A2 JUMPI PUSH2 0x3A2 PUSH2 0x1813 JUMP JUMPDEST PUSH4 0x4E487B71 PUSH1 0xE0 SHL PUSH1 0x0 MSTORE PUSH1 0x41 PUSH1 0x4 MSTORE PUSH1 0x24 PUSH1 0x0 REVERT JUMPDEST PUSH4 0x4E487B71 PUSH1 0xE0 SHL PUSH1 0x0 MSTORE PUSH1 0x32 PUSH1 0x4 MSTORE PUSH1 0x24 PUSH1 0x0 REVERT JUMPDEST PUSH1 0x0 PUSH1 0x1 DUP3 ADD PUSH2 0x188D JUMPI PUSH2 0x188D PUSH2 0x1813 JUMP JUMPDEST POP PUSH1 0x1 ADD SWAP1 JUMP JUMPDEST DUP1 DUP3 ADD DUP3 DUP2 SLT PUSH1 0x0 DUP4 SLT DUP1 ISZERO DUP3 AND DUP3 ISZERO DUP3 AND OR ISZERO PUSH2 0x18B4 JUMPI PUSH2 0x18B4 PUSH2 0x1813 JUMP JUMPDEST POP POP SWAP3 SWAP2 POP POP JUMP JUMPDEST DUP1 DUP3 MUL DUP2 ISZERO DUP3 DUP3 DIV DUP5 EQ OR PUSH2 0x3A2 JUMPI PUSH2 0x3A2 PUSH2 0x1813 JUMP JUMPDEST PUSH1 0x0 DUP3 PUSH2 0x18F0 JUMPI PUSH4 0x4E487B71 PUSH1 0xE0 SHL PUSH1 0x0 MSTORE PUSH1 0x12 PUSH1 0x4 MSTORE PUSH1 0x24 PUSH1 0x0 REVERT JUMPDEST POP DIV SWAP1 JUMP JUMPDEST DUP2 DUP2 SUB PUSH1 0x0 DUP4 SLT DUP1 ISZERO DUP4 DUP4 SGT AND DUP4 DUP4 SLT DUP3 AND OR ISZERO PUSH2 0x8F1 JUMPI PUSH2 0x8F1 PUSH2 0x1813 JUMP JUMPDEST PUSH4 0x4E487B71 PUSH1 0xE0 SHL PUSH1 0x0 MSTORE PUSH1 0x31 PUSH1 0x4 MSTORE PUSH1 0x24 PUSH1 0x0 REVERT INVALID LOG2 PUSH5 0x6970667358 0x22 SLT KECCAK256 0x4C 0xC4 0x4F 0x22 0xBE CALLDATASIZE PUSH9 0x40B7438397FBB027F 0xBC PUSH25 0x14A43F5DC2D8B266D6CC2B819AF364736F6C63430008110033 ","sha1":"c851d4b309793dde3ec58cb22b32c97ecc345a1e","source":"// SPDX-License-Identifier: GPL-3.0-or-later\npragma solidity ^0.8.17;\n\nimport \"./NFTVault.sol\";\nimport \"../../libraries/VotingPowerHistory.sol\";\nimport \"../../libraries/DataTypes.sol\";\nimport \"../../interfaces/IVotingPowersUpdater.sol\";\nimport \"@openzeppelin/contracts/token/ERC721/extensions/IERC721Enumerable.sol\";\n\ncontract CouncillorNFTVault is NFTVault, IVotingPowersUpdater {\n    using VotingPowerHistory for VotingPowerHistory.History;\n    using VotingPowerHistory for VotingPowerHistory.Record;\n\n    string internal constant _VAULT_TYPE = \"CouncillorNFT\";\n\n    address public immutable underlyingAddress;\n\n    constructor(address _owner, address _underlyingAddress) NFTVault(_owner) {\n        underlyingAddress = _underlyingAddress;\n        sumVotingPowers = IERC721Enumerable(_underlyingAddress).totalSupply();\n    }\n\n    modifier onlyUnderlying() {\n        require(msg.sender == address(underlyingAddress));\n        _;\n    }\n\n    function updateBaseVotingPower(\n        address _user,\n        address _delegate,\n        uint128 _addedCount\n    ) external onlyUnderlying {\n        VotingPowerHistory.Record memory ovp = history.currentRecord(_user);\n\n        uint256 oldTotal = ovp.total();\n        VotingPowerHistory.Record memory nvp = history.updateVotingPower(\n            _user,\n            ovp.baseVotingPower + _addedCount,\n            ovp.multiplier,\n            ovp.netDelegatedVotes\n        );\n        sumVotingPowers += (nvp.total() - oldTotal);\n        if (_delegate != address(0) && _delegate != _user) {\n            _delegateVote(_user, _delegate, _addedCount);\n        }\n    }\n\n    function getVaultType() external pure returns (string memory) {\n        return _VAULT_TYPE;\n    }\n}\n","sourcePath":"contracts/vaults/CouncillorNFTVault.sol","type":"contract","deployment":{"address":"0x339b896BafD5d3811241D607D0cd33a1C2f09404","chainid":"1","blockHeight":18721041}}