{"abi":[{"inputs":[{"internalType":"address","name":"_owner","type":"address"}],"stateMutability":"nonpayable","type":"constructor","name":"constructor"},{"inputs":[{"internalType":"uint256","name":"actualTotalPower","type":"uint256"},{"internalType":"uint256","name":"givenTotalPower","type":"uint256"}],"name":"InvalidVotingPowerUpdate","type":"error"},{"inputs":[{"internalType":"address","name":"actual","type":"address"},{"internalType":"address","name":"expected","type":"address"}],"name":"NotAuthorized","type":"error"},{"anonymous":false,"inputs":[{"indexed":false,"internalType":"address","name":"delegator","type":"address"},{"indexed":false,"internalType":"address","name":"delegate","type":"address"},{"indexed":false,"internalType":"uint256","name":"amount","type":"uint256"}],"name":"VotesDelegated","type":"event"},{"anonymous":false,"inputs":[{"indexed":false,"internalType":"address","name":"delegator","type":"address"},{"indexed":false,"internalType":"address","name":"delegate","type":"address"},{"indexed":false,"internalType":"uint256","name":"amount","type":"uint256"}],"name":"VotesUndelegated","type":"event"},{"inputs":[{"internalType":"address","name":"_oldDelegate","type":"address"},{"internalType":"address","name":"_newDelegate","type":"address"},{"internalType":"uint256","name":"_amount","type":"uint256"}],"name":"changeDelegate","outputs":[],"stateMutability":"nonpayable","type":"function"},{"inputs":[{"internalType":"address","name":"_delegate","type":"address"},{"internalType":"uint256","name":"_amount","type":"uint256"}],"name":"delegateVote","outputs":[],"stateMutability":"nonpayable","type":"function"},{"inputs":[{"internalType":"address","name":"account","type":"address"}],"name":"getCurrentRecord","outputs":[{"components":[{"internalType":"uint256","name":"at","type":"uint256"},{"internalType":"uint256","name":"baseVotingPower","type":"uint256"},{"internalType":"uint256","name":"multiplier","type":"uint256"},{"internalType":"int256","name":"netDelegatedVotes","type":"int256"}],"internalType":"struct VotingPowerHistory.Record","name":"","type":"tuple"}],"stateMutability":"view","type":"function"},{"inputs":[{"internalType":"address","name":"account","type":"address"}],"name":"getDelegations","outputs":[{"components":[{"internalType":"address","name":"delegate","type":"address"},{"internalType":"uint256","name":"amount","type":"uint256"}],"internalType":"struct DataTypes.Delegation[]","name":"delegations","type":"tuple[]"}],"stateMutability":"view","type":"function"},{"inputs":[{"internalType":"address","name":"account","type":"address"}],"name":"getRawVotingPower","outputs":[{"internalType":"uint256","name":"","type":"uint256"}],"stateMutability":"view","type":"function"},{"inputs":[{"internalType":"address","name":"account","type":"address"},{"internalType":"uint256","name":"timestamp","type":"uint256"}],"name":"getRawVotingPower","outputs":[{"internalType":"uint256","name":"","type":"uint256"}],"stateMutability":"view","type":"function"},{"inputs":[],"name":"getTotalRawVotingPower","outputs":[{"internalType":"uint256","name":"","type":"uint256"}],"stateMutability":"view","type":"function"},{"inputs":[],"name":"getVaultType","outputs":[{"internalType":"string","name":"","type":"string"}],"stateMutability":"pure","type":"function"},{"inputs":[],"name":"owner","outputs":[{"internalType":"address","name":"","type":"address"}],"stateMutability":"view","type":"function"},{"inputs":[{"internalType":"address","name":"_delegate","type":"address"},{"internalType":"uint256","name":"_amount","type":"uint256"}],"name":"undelegateVote","outputs":[],"stateMutability":"nonpayable","type":"function"},{"inputs":[{"internalType":"address","name":"dao","type":"address"},{"internalType":"uint256","name":"votingPower","type":"uint256"},{"internalType":"uint256","name":"totalVotingPower","type":"uint256"}],"name":"updateDAOAndTotalWeight","outputs":[],"stateMutability":"nonpayable","type":"function"}],"bytecode":"60a060405234801561001057600080fd5b5060405161160d38038061160d83398101604081905261002f91610040565b6001600160a01b0316608052610070565b60006020828403121561005257600080fd5b81516001600160a01b038116811461006957600080fd5b9392505050565b608051611574610099600039600081816101780152818161021c015261025e01526115746000f3fe608060405234801561001057600080fd5b50600436106100a95760003560e01c80638da5cb5b116100715780638da5cb5b14610173578063926f7327146101b25780639f1acf08146101c5578063cead0481146101d8578063de1ec403146101eb578063e2fcf550146101fe57600080fd5b8063086a7435146100ae57806319ad0eba146100c357806331cc13ba14610112578063344ff1d01461013257806375baf37f14610144575b600080fd5b6100c16100bc3660046112cc565b610211565b005b6100d66100d13660046112ff565b610353565b60405161010991908151815260208083015190820152604080830151908201526060918201519181019190915260800190565b60405180910390f35b6101256101203660046112ff565b61038f565b604051610109919061131a565b6007545b604051908152602001610109565b604080518082018252600d81526c4173736f63696174656444414f60981b602082015290516101099190611372565b61019a7f000000000000000000000000000000000000000000000000000000000000000081565b6040516001600160a01b039091168152602001610109565b6100c16101c03660046113c0565b61048a565b6101366101d33660046112ff565b610499565b6100c16101e63660046113ea565b6104a5565b6101366101f93660046113c0565b6104c0565b6100c161020c3660046113c0565b6104d4565b336001600160a01b037f000000000000000000000000000000000000000000000000000000000000000016146102905760405163c55ddc9760e01b81523360048201526001600160a01b037f00000000000000000000000000000000000000000000000000000000000000001660248201526044015b60405180910390fd5b61029b6005846104df565b5060006102a881856104f4565b90506102d08484670de0b6b3a76400008460600151600061060290949392919063ffffffff16565b5060078290556000806102e36005610746565b905060005b8181101561031f5760006102fd818942610750565b9050610309818561143c565b93505080806103179061144f565b9150506102e8565b508382111561034b5760405163d3ffa24760e01b81526004810183905260248101859052604401610287565b505050505050565b61037e6040518060800160405280600081526020016000815260200160008152602001600081525090565b6103896000836104f4565b92915050565b6001600160a01b03811660009081526004602052604081206060916103b382610801565b90508067ffffffffffffffff8111156103ce576103ce611468565b60405190808252806020026020018201604052801561041357816020015b60408051808201909152600080825260208201528152602001906001900390816103ec5790505b50925060005b818110156104825760008061042e858461080c565b915091506040518060400160405280836001600160a01b03168152602001828152508684815181106104625761046261147e565b60200260200101819052505050808061047a9061144f565b915050610419565b505050919050565b61049533838361082a565b5050565b600061038982426104c0565b6104b03384836108a5565b6104bb33838361082a565b505050565b60006104cd818484610750565b9392505050565b6104953383836108a5565b60006104cd836001600160a01b03841661093a565b61051f6040518060800160405280600081526020016000815260200160008152602001600081525090565b6001600160a01b03821660009081526020848152604080832080548251818502810185019093528083529192909190849084015b828210156105ad578382906000526020600020906004020160405180608001604052908160008201548152602001600182015481526020016002820154815260200160038201548152505081526020019060010190610553565b50505050905080516000036105cc576105c4610989565b915050610389565b80600182516105db9190611494565b815181106105eb576105eb61147e565b6020026020010151915050610389565b5092915050565b61062d6040518060800160405280600081526020016000815260200160008152602001600081525090565b6001600160a01b0385166000908152602087815260408083208151608081018352428152928301889052908201869052606082018590529161066f89896104f4565b8051909150421480156106825750825415155b156106e75782548290849061069990600190611494565b815481106106a9576106a961147e565b90600052602060002090600402016000820151816000015560208201518160010155604082015181600201556060820151816003015590505061073a565b6001600160a01b038816600090815260208a815260408083208054600181810183559185529383902086516004909502019384559185015191830191909155830151600282015560608301516003909101555b50979650505050505050565b6000610389825490565b6001600160a01b038216600090815260208481526040808320805482518185028101850190935280835284936107ec93929190859084015b828210156107e2578382906000526020600020906004020160405180608001604052908160008201548152602001600182015481526020016002820154815260200160038201548152505081526020019060010190610788565b50505050846109e5565b9150506107f881610a2b565b95945050505050565b600061038982610a57565b600080808061081b8686610a62565b909450925050505b9250929050565b6108376000848484610a8d565b6001600160a01b0383166000908152600460205260408120819061085b9085610c78565b9150915060008261086c5783610876565b610876848361143c565b6001600160a01b038716600090815260046020526040902090915061089c908683610c90565b50505050505050565b6108b26000848484610cae565b6001600160a01b03831660009081526004602052604081206108d49084610e91565b9050818103610905576001600160a01b03841660009081526004602052604090206108ff9084610ea6565b50610934565b610932836109138484611494565b6001600160a01b03871660009081526004602052604090209190610c90565b505b50505050565b600081815260018301602052604081205461098157508154600181810184556000848152602080822090930184905584548482528286019093526040902091909155610389565b506000610389565b6109b46040518060800160405280600081526020016000815260200160008152602001600081525090565b60405180608001604052806000815260200160008152602001670de0b6b3a764000081526020016000815250905090565b6000610a126040518060800160405280600081526020016000815260200160008152602001600081525090565b610a20848460008751610ebb565b915091509250929050565b60008160600151610a4d8360400151846020015161101690919063ffffffff16565b61038991906114a7565b600061038982610746565b60008080610a708585611035565b600081815260029690960160205260409095205494959350505050565b6000610a9985856104f4565b6001600160a01b038516600090815260028701602090815260408083205490840151918401519394509192610acd91611016565b610ad79190611494565b905082811015610b295760405162461bcd60e51b815260206004820181905260248201527f696e73756666696369656e742062616c616e636520746f2064656c65676174656044820152606401610287565b6001600160a01b038416600090815260038701602052604081208054859290610b5390849061143c565b90915550506001600160a01b038516600090815260028701602052604081208054859290610b8290849061143c565b90915550506001600160a01b038086166000908152600188016020908152604080832093881683529290529081208054859290610bc090849061143c565b909155505060208201516040830151610be9918791610bdf8a84611041565b8a93929190610602565b506000610bf687866104f4565b9050610c238582602001518360400151610c19898c61104190919063ffffffff16565b8b93929190610602565b50604080516001600160a01b038089168252871660208201529081018590527fff825f9424124effc5ce1d9f4803d58ede8a2bda4da2324810f74834715c4c599060600160405180910390a150505050505050565b600080808061081b866001600160a01b038716611073565b6000610ca6846001600160a01b038516846110ad565b949350505050565b6001600160a01b038084166000908152600186016020908152604080832093861683529290522054811115610d375760405162461bcd60e51b815260206004820152602960248201527f7573657220686173206e6f742064656c65676174656420656e6f75676820746f6044820152682064656c656761746560b81b6064820152608401610287565b6001600160a01b038216600090815260038501602052604081208054839290610d61908490611494565b90915550506001600160a01b038316600090815260028501602052604081208054839290610d90908490611494565b90915550506001600160a01b038084166000908152600186016020908152604080832093861683529290529081208054839290610dce908490611494565b9091555060009050610de085856104f4565b9050610e0d8482602001518360400151610e03888a61104190919063ffffffff16565b8993929190610602565b506000610e1a86856104f4565b9050610e3d8482602001518360400151610bdf888b61104190919063ffffffff16565b50604080516001600160a01b038088168252861660208201529081018490527fde5aa493a93d4351631c1991a0aeecfd52d6b51cf1b61f1a3c48f97e268086539060600160405180910390a1505050505050565b60006104cd836001600160a01b0384166110ca565b60006104cd836001600160a01b03841661113a565b6000610ee86040518060800160405280600081526020016000815260200160008152602001600081525090565b828410610f02576000610ef9610989565b9150915061100d565b610f0c8484611494565b600103610f5a576000868581518110610f2757610f2761147e565b602002602001015190508581600001511115610f4c576000610f47610989565b610f50565b6001815b925092505061100d565b60006002610f68868661143c565b610f7291906114cf565b9050600087610f82600184611494565b81518110610f9257610f9261147e565b602002602001015190506000888381518110610fb057610fb061147e565b6020026020010151905087826000015111158015610fce5750805188105b15610fe1575060019350915061100d9050565b8051881061100157610ff589898589610ebb565b9450945050505061100d565b610ff589898986610ebb565b94509492505050565b6000670de0b6b3a764000061102b83856114f1565b6104cd91906114cf565b60006104cd8383611157565b6001600160a01b0381166000908152600283016020908152604080832054600386019092528220546104cd9190611508565b60008181526002830160205260408120548190806110a2576110958585611181565b9250600091506108239050565b600192509050610823565b60008281526002840160205260408120829055610ca6848461118d565b6000818152600283016020526040812054801515806110ee57506110ee8484611181565b6104cd5760405162461bcd60e51b815260206004820152601e60248201527f456e756d657261626c654d61703a206e6f6e6578697374656e74206b657900006044820152606401610287565b600081815260028301602052604081208190556104cd8383611199565b600082600001828154811061116e5761116e61147e565b9060005260206000200154905092915050565b60006104cd83836111a5565b60006104cd838361093a565b60006104cd83836111bd565b600081815260018301602052604081205415156104cd565b600081815260018301602052604081205480156112a65760006111e1600183611494565b85549091506000906111f590600190611494565b905081811461125a5760008660000182815481106112155761121561147e565b90600052602060002001549050808760000184815481106112385761123861147e565b6000918252602080832090910192909255918252600188019052604090208390555b855486908061126b5761126b611528565b600190038181906000526020600020016000905590558560010160008681526020019081526020016000206000905560019350505050610389565b6000915050610389565b80356001600160a01b03811681146112c757600080fd5b919050565b6000806000606084860312156112e157600080fd5b6112ea846112b0565b95602085013595506040909401359392505050565b60006020828403121561131157600080fd5b6104cd826112b0565b602080825282518282018190526000919060409081850190868401855b8281101561136557815180516001600160a01b03168552860151868501529284019290850190600101611337565b5091979650505050505050565b600060208083528351808285015260005b8181101561139f57858101830151858201604001528201611383565b506000604082860101526040601f19601f8301168501019250505092915050565b600080604083850312156113d357600080fd5b6113dc836112b0565b946020939093013593505050565b6000806000606084860312156113ff57600080fd5b611408846112b0565b9250611416602085016112b0565b9150604084013590509250925092565b634e487b7160e01b600052601160045260246000fd5b8082018082111561038957610389611426565b60006001820161146157611461611426565b5060010190565b634e487b7160e01b600052604160045260246000fd5b634e487b7160e01b600052603260045260246000fd5b8181038181111561038957610389611426565b80820182811260008312801582168215821617156114c7576114c7611426565b505092915050565b6000826114ec57634e487b7160e01b600052601260045260246000fd5b500490565b808202811582820484141761038957610389611426565b81810360008312801583831316838312821617156105fb576105fb611426565b634e487b7160e01b600052603160045260246000fdfea2646970667358221220b61dc55fab1f6cfd67edc6d04fbe5fd3a31e4ba0afde6a7b94d80522c5b4dd8364736f6c63430008110033","bytecodeSha1":"fdb2c9abb2d80d7d88914f7d1c5957a82c724da1","compiler":{"evm_version":"istanbul","optimizer":{"enabled":true,"runs":200},"version":"0.8.17+commit.8df45f5f"},"contractName":"AssociatedDAOVault","language":"Solidity","natspec":{"kind":"dev","methods":{},"version":1},"opcodes":"PUSH1 0x80 PUSH1 0x40 MSTORE CALLVALUE DUP1 ISZERO PUSH2 0x10 JUMPI PUSH1 0x0 DUP1 REVERT JUMPDEST POP PUSH1 0x4 CALLDATASIZE LT PUSH2 0xA9 JUMPI PUSH1 0x0 CALLDATALOAD PUSH1 0xE0 SHR DUP1 PUSH4 0x8DA5CB5B GT PUSH2 0x71 JUMPI DUP1 PUSH4 0x8DA5CB5B EQ PUSH2 0x173 JUMPI DUP1 PUSH4 0x926F7327 EQ PUSH2 0x1B2 JUMPI DUP1 PUSH4 0x9F1ACF08 EQ PUSH2 0x1C5 JUMPI DUP1 PUSH4 0xCEAD0481 EQ PUSH2 0x1D8 JUMPI DUP1 PUSH4 0xDE1EC403 EQ PUSH2 0x1EB JUMPI DUP1 PUSH4 0xE2FCF550 EQ PUSH2 0x1FE JUMPI PUSH1 0x0 DUP1 REVERT JUMPDEST DUP1 PUSH4 0x86A7435 EQ PUSH2 0xAE JUMPI DUP1 PUSH4 0x19AD0EBA EQ PUSH2 0xC3 JUMPI DUP1 PUSH4 0x31CC13BA EQ PUSH2 0x112 JUMPI DUP1 PUSH4 0x344FF1D0 EQ PUSH2 0x132 JUMPI DUP1 PUSH4 0x75BAF37F EQ PUSH2 0x144 JUMPI JUMPDEST PUSH1 0x0 DUP1 REVERT JUMPDEST PUSH2 0xC1 PUSH2 0xBC CALLDATASIZE PUSH1 0x4 PUSH2 0x12CC JUMP JUMPDEST PUSH2 0x211 JUMP JUMPDEST STOP JUMPDEST PUSH2 0xD6 PUSH2 0xD1 CALLDATASIZE PUSH1 0x4 PUSH2 0x12FF JUMP JUMPDEST PUSH2 0x353 JUMP JUMPDEST PUSH1 0x40 MLOAD PUSH2 0x109 SWAP2 SWAP1 DUP2 MLOAD DUP2 MSTORE PUSH1 0x20 DUP1 DUP4 ADD MLOAD SWAP1 DUP3 ADD MSTORE PUSH1 0x40 DUP1 DUP4 ADD MLOAD SWAP1 DUP3 ADD MSTORE PUSH1 0x60 SWAP2 DUP3 ADD MLOAD SWAP2 DUP2 ADD SWAP2 SWAP1 SWAP2 MSTORE PUSH1 0x80 ADD SWAP1 JUMP JUMPDEST PUSH1 0x40 MLOAD DUP1 SWAP2 SUB SWAP1 RETURN JUMPDEST PUSH2 0x125 PUSH2 0x120 CALLDATASIZE PUSH1 0x4 PUSH2 0x12FF JUMP JUMPDEST PUSH2 0x38F JUMP JUMPDEST PUSH1 0x40 MLOAD PUSH2 0x109 SWAP2 SWAP1 PUSH2 0x131A JUMP JUMPDEST PUSH1 0x7 SLOAD JUMPDEST PUSH1 0x40 MLOAD SWAP1 DUP2 MSTORE PUSH1 0x20 ADD PUSH2 0x109 JUMP JUMPDEST PUSH1 0x40 DUP1 MLOAD DUP1 DUP3 ADD DUP3 MSTORE PUSH1 0xD DUP2 MSTORE PUSH13 0x4173736F63696174656444414F PUSH1 0x98 SHL PUSH1 0x20 DUP3 ADD MSTORE SWAP1 MLOAD PUSH2 0x109 SWAP2 SWAP1 PUSH2 0x1372 JUMP JUMPDEST PUSH2 0x19A PUSH32 0x0 DUP2 JUMP JUMPDEST PUSH1 0x40 MLOAD PUSH1 0x1 PUSH1 0x1 PUSH1 0xA0 SHL SUB SWAP1 SWAP2 AND DUP2 MSTORE PUSH1 0x20 ADD PUSH2 0x109 JUMP JUMPDEST PUSH2 0xC1 PUSH2 0x1C0 CALLDATASIZE PUSH1 0x4 PUSH2 0x13C0 JUMP JUMPDEST PUSH2 0x48A JUMP JUMPDEST PUSH2 0x136 PUSH2 0x1D3 CALLDATASIZE PUSH1 0x4 PUSH2 0x12FF JUMP JUMPDEST PUSH2 0x499 JUMP JUMPDEST PUSH2 0xC1 PUSH2 0x1E6 CALLDATASIZE PUSH1 0x4 PUSH2 0x13EA JUMP JUMPDEST PUSH2 0x4A5 JUMP JUMPDEST PUSH2 0x136 PUSH2 0x1F9 CALLDATASIZE PUSH1 0x4 PUSH2 0x13C0 JUMP JUMPDEST PUSH2 0x4C0 JUMP JUMPDEST PUSH2 0xC1 PUSH2 0x20C CALLDATASIZE PUSH1 0x4 PUSH2 0x13C0 JUMP JUMPDEST PUSH2 0x4D4 JUMP JUMPDEST CALLER PUSH1 0x1 PUSH1 0x1 PUSH1 0xA0 SHL SUB PUSH32 0x0 AND EQ PUSH2 0x290 JUMPI PUSH1 0x40 MLOAD PUSH4 0xC55DDC97 PUSH1 0xE0 SHL DUP2 MSTORE CALLER PUSH1 0x4 DUP3 ADD MSTORE PUSH1 0x1 PUSH1 0x1 PUSH1 0xA0 SHL SUB PUSH32 0x0 AND PUSH1 0x24 DUP3 ADD MSTORE PUSH1 0x44 ADD JUMPDEST PUSH1 0x40 MLOAD DUP1 SWAP2 SUB SWAP1 REVERT JUMPDEST PUSH2 0x29B PUSH1 0x5 DUP5 PUSH2 0x4DF JUMP JUMPDEST POP PUSH1 0x0 PUSH2 0x2A8 DUP2 DUP6 PUSH2 0x4F4 JUMP JUMPDEST SWAP1 POP PUSH2 0x2D0 DUP5 DUP5 PUSH8 0xDE0B6B3A7640000 DUP5 PUSH1 0x60 ADD MLOAD PUSH1 0x0 PUSH2 0x602 SWAP1 SWAP5 SWAP4 SWAP3 SWAP2 SWAP1 PUSH4 0xFFFFFFFF AND JUMP JUMPDEST POP PUSH1 0x7 DUP3 SWAP1 SSTORE PUSH1 0x0 DUP1 PUSH2 0x2E3 PUSH1 0x5 PUSH2 0x746 JUMP JUMPDEST SWAP1 POP PUSH1 0x0 JUMPDEST DUP2 DUP2 LT ISZERO PUSH2 0x31F JUMPI PUSH1 0x0 PUSH2 0x2FD DUP2 DUP10 TIMESTAMP PUSH2 0x750 JUMP JUMPDEST SWAP1 POP PUSH2 0x309 DUP2 DUP6 PUSH2 0x143C JUMP JUMPDEST SWAP4 POP POP DUP1 DUP1 PUSH2 0x317 SWAP1 PUSH2 0x144F JUMP JUMPDEST SWAP2 POP POP PUSH2 0x2E8 JUMP JUMPDEST POP DUP4 DUP3 GT ISZERO PUSH2 0x34B JUMPI PUSH1 0x40 MLOAD PUSH4 0xD3FFA247 PUSH1 0xE0 SHL DUP2 MSTORE PUSH1 0x4 DUP2 ADD DUP4 SWAP1 MSTORE PUSH1 0x24 DUP2 ADD DUP6 SWAP1 MSTORE PUSH1 0x44 ADD PUSH2 0x287 JUMP JUMPDEST POP POP POP POP POP POP JUMP JUMPDEST PUSH2 0x37E PUSH1 0x40 MLOAD DUP1 PUSH1 0x80 ADD PUSH1 0x40 MSTORE DUP1 PUSH1 0x0 DUP2 MSTORE PUSH1 0x20 ADD PUSH1 0x0 DUP2 MSTORE PUSH1 0x20 ADD PUSH1 0x0 DUP2 MSTORE PUSH1 0x20 ADD PUSH1 0x0 DUP2 MSTORE POP SWAP1 JUMP JUMPDEST PUSH2 0x389 PUSH1 0x0 DUP4 PUSH2 0x4F4 JUMP JUMPDEST SWAP3 SWAP2 POP POP JUMP JUMPDEST PUSH1 0x1 PUSH1 0x1 PUSH1 0xA0 SHL SUB DUP2 AND PUSH1 0x0 SWAP1 DUP2 MSTORE PUSH1 0x4 PUSH1 0x20 MSTORE PUSH1 0x40 DUP2 KECCAK256 PUSH1 0x60 SWAP2 PUSH2 0x3B3 DUP3 PUSH2 0x801 JUMP JUMPDEST SWAP1 POP DUP1 PUSH8 0xFFFFFFFFFFFFFFFF DUP2 GT ISZERO PUSH2 0x3CE JUMPI PUSH2 0x3CE PUSH2 0x1468 JUMP JUMPDEST PUSH1 0x40 MLOAD SWAP1 DUP1 DUP3 MSTORE DUP1 PUSH1 0x20 MUL PUSH1 0x20 ADD DUP3 ADD PUSH1 0x40 MSTORE DUP1 ISZERO PUSH2 0x413 JUMPI DUP2 PUSH1 0x20 ADD JUMPDEST PUSH1 0x40 DUP1 MLOAD DUP1 DUP3 ADD SWAP1 SWAP2 MSTORE PUSH1 0x0 DUP1 DUP3 MSTORE PUSH1 0x20 DUP3 ADD MSTORE DUP2 MSTORE PUSH1 0x20 ADD SWAP1 PUSH1 0x1 SWAP1 SUB SWAP1 DUP2 PUSH2 0x3EC JUMPI SWAP1 POP JUMPDEST POP SWAP3 POP PUSH1 0x0 JUMPDEST DUP2 DUP2 LT ISZERO PUSH2 0x482 JUMPI PUSH1 0x0 DUP1 PUSH2 0x42E DUP6 DUP5 PUSH2 0x80C JUMP JUMPDEST SWAP2 POP SWAP2 POP PUSH1 0x40 MLOAD DUP1 PUSH1 0x40 ADD PUSH1 0x40 MSTORE DUP1 DUP4 PUSH1 0x1 PUSH1 0x1 PUSH1 0xA0 SHL SUB AND DUP2 MSTORE PUSH1 0x20 ADD DUP3 DUP2 MSTORE POP DUP7 DUP5 DUP2 MLOAD DUP2 LT PUSH2 0x462 JUMPI PUSH2 0x462 PUSH2 0x147E JUMP JUMPDEST PUSH1 0x20 MUL PUSH1 0x20 ADD ADD DUP2 SWAP1 MSTORE POP POP POP DUP1 DUP1 PUSH2 0x47A SWAP1 PUSH2 0x144F JUMP JUMPDEST SWAP2 POP POP PUSH2 0x419 JUMP JUMPDEST POP POP POP SWAP2 SWAP1 POP JUMP JUMPDEST PUSH2 0x495 CALLER DUP4 DUP4 PUSH2 0x82A JUMP JUMPDEST POP POP JUMP JUMPDEST PUSH1 0x0 PUSH2 0x389 DUP3 TIMESTAMP PUSH2 0x4C0 JUMP JUMPDEST PUSH2 0x4B0 CALLER DUP5 DUP4 PUSH2 0x8A5 JUMP JUMPDEST PUSH2 0x4BB CALLER DUP4 DUP4 PUSH2 0x82A JUMP JUMPDEST POP POP POP JUMP JUMPDEST PUSH1 0x0 PUSH2 0x4CD DUP2 DUP5 DUP5 PUSH2 0x750 JUMP JUMPDEST SWAP4 SWAP3 POP POP POP JUMP JUMPDEST PUSH2 0x495 CALLER DUP4 DUP4 PUSH2 0x8A5 JUMP JUMPDEST PUSH1 0x0 PUSH2 0x4CD DUP4 PUSH1 0x1 PUSH1 0x1 PUSH1 0xA0 SHL SUB DUP5 AND PUSH2 0x93A JUMP JUMPDEST PUSH2 0x51F PUSH1 0x40 MLOAD DUP1 PUSH1 0x80 ADD PUSH1 0x40 MSTORE DUP1 PUSH1 0x0 DUP2 MSTORE PUSH1 0x20 ADD PUSH1 0x0 DUP2 MSTORE PUSH1 0x20 ADD PUSH1 0x0 DUP2 MSTORE PUSH1 0x20 ADD PUSH1 0x0 DUP2 MSTORE POP SWAP1 JUMP JUMPDEST PUSH1 0x1 PUSH1 0x1 PUSH1 0xA0 SHL SUB DUP3 AND PUSH1 0x0 SWAP1 DUP2 MSTORE PUSH1 0x20 DUP5 DUP2 MSTORE PUSH1 0x40 DUP1 DUP4 KECCAK256 DUP1 SLOAD DUP3 MLOAD DUP2 DUP6 MUL DUP2 ADD DUP6 ADD SWAP1 SWAP4 MSTORE DUP1 DUP4 MSTORE SWAP2 SWAP3 SWAP1 SWAP2 SWAP1 DUP5 SWAP1 DUP5 ADD JUMPDEST DUP3 DUP3 LT ISZERO PUSH2 0x5AD JUMPI DUP4 DUP3 SWAP1 PUSH1 0x0 MSTORE PUSH1 0x20 PUSH1 0x0 KECCAK256 SWAP1 PUSH1 0x4 MUL ADD PUSH1 0x40 MLOAD DUP1 PUSH1 0x80 ADD PUSH1 0x40 MSTORE SWAP1 DUP2 PUSH1 0x0 DUP3 ADD SLOAD DUP2 MSTORE PUSH1 0x20 ADD PUSH1 0x1 DUP3 ADD SLOAD DUP2 MSTORE PUSH1 0x20 ADD PUSH1 0x2 DUP3 ADD SLOAD DUP2 MSTORE PUSH1 0x20 ADD PUSH1 0x3 DUP3 ADD SLOAD DUP2 MSTORE POP POP DUP2 MSTORE PUSH1 0x20 ADD SWAP1 PUSH1 0x1 ADD SWAP1 PUSH2 0x553 JUMP JUMPDEST POP POP POP POP SWAP1 POP DUP1 MLOAD PUSH1 0x0 SUB PUSH2 0x5CC JUMPI PUSH2 0x5C4 PUSH2 0x989 JUMP JUMPDEST SWAP2 POP POP PUSH2 0x389 JUMP JUMPDEST DUP1 PUSH1 0x1 DUP3 MLOAD PUSH2 0x5DB SWAP2 SWAP1 PUSH2 0x1494 JUMP JUMPDEST DUP2 MLOAD DUP2 LT PUSH2 0x5EB JUMPI PUSH2 0x5EB PUSH2 0x147E JUMP JUMPDEST PUSH1 0x20 MUL PUSH1 0x20 ADD ADD MLOAD SWAP2 POP POP PUSH2 0x389 JUMP JUMPDEST POP SWAP3 SWAP2 POP POP JUMP JUMPDEST PUSH2 0x62D PUSH1 0x40 MLOAD DUP1 PUSH1 0x80 ADD PUSH1 0x40 MSTORE DUP1 PUSH1 0x0 DUP2 MSTORE PUSH1 0x20 ADD PUSH1 0x0 DUP2 MSTORE PUSH1 0x20 ADD PUSH1 0x0 DUP2 MSTORE PUSH1 0x20 ADD PUSH1 0x0 DUP2 MSTORE POP SWAP1 JUMP JUMPDEST PUSH1 0x1 PUSH1 0x1 PUSH1 0xA0 SHL SUB DUP6 AND PUSH1 0x0 SWAP1 DUP2 MSTORE PUSH1 0x20 DUP8 DUP2 MSTORE PUSH1 0x40 DUP1 DUP4 KECCAK256 DUP2 MLOAD PUSH1 0x80 DUP2 ADD DUP4 MSTORE TIMESTAMP DUP2 MSTORE SWAP3 DUP4 ADD DUP9 SWAP1 MSTORE SWAP1 DUP3 ADD DUP7 SWAP1 MSTORE PUSH1 0x60 DUP3 ADD DUP6 SWAP1 MSTORE SWAP2 PUSH2 0x66F DUP10 DUP10 PUSH2 0x4F4 JUMP JUMPDEST DUP1 MLOAD SWAP1 SWAP2 POP TIMESTAMP EQ DUP1 ISZERO PUSH2 0x682 JUMPI POP DUP3 SLOAD ISZERO ISZERO JUMPDEST ISZERO PUSH2 0x6E7 JUMPI DUP3 SLOAD DUP3 SWAP1 DUP5 SWAP1 PUSH2 0x699 SWAP1 PUSH1 0x1 SWAP1 PUSH2 0x1494 JUMP JUMPDEST DUP2 SLOAD DUP2 LT PUSH2 0x6A9 JUMPI PUSH2 0x6A9 PUSH2 0x147E JUMP JUMPDEST SWAP1 PUSH1 0x0 MSTORE PUSH1 0x20 PUSH1 0x0 KECCAK256 SWAP1 PUSH1 0x4 MUL ADD PUSH1 0x0 DUP3 ADD MLOAD DUP2 PUSH1 0x0 ADD SSTORE PUSH1 0x20 DUP3 ADD MLOAD DUP2 PUSH1 0x1 ADD SSTORE PUSH1 0x40 DUP3 ADD MLOAD DUP2 PUSH1 0x2 ADD SSTORE PUSH1 0x60 DUP3 ADD MLOAD DUP2 PUSH1 0x3 ADD SSTORE SWAP1 POP POP PUSH2 0x73A JUMP JUMPDEST PUSH1 0x1 PUSH1 0x1 PUSH1 0xA0 SHL SUB DUP9 AND PUSH1 0x0 SWAP1 DUP2 MSTORE PUSH1 0x20 DUP11 DUP2 MSTORE PUSH1 0x40 DUP1 DUP4 KECCAK256 DUP1 SLOAD PUSH1 0x1 DUP2 DUP2 ADD DUP4 SSTORE SWAP2 DUP6 MSTORE SWAP4 DUP4 SWAP1 KECCAK256 DUP7 MLOAD PUSH1 0x4 SWAP1 SWAP6 MUL ADD SWAP4 DUP5 SSTORE SWAP2 DUP6 ADD MLOAD SWAP2 DUP4 ADD SWAP2 SWAP1 SWAP2 SSTORE DUP4 ADD MLOAD PUSH1 0x2 DUP3 ADD SSTORE PUSH1 0x60 DUP4 ADD MLOAD PUSH1 0x3 SWAP1 SWAP2 ADD SSTORE JUMPDEST POP SWAP8 SWAP7 POP POP POP POP POP POP POP JUMP JUMPDEST PUSH1 0x0 PUSH2 0x389 DUP3 SLOAD SWAP1 JUMP JUMPDEST PUSH1 0x1 PUSH1 0x1 PUSH1 0xA0 SHL SUB DUP3 AND PUSH1 0x0 SWAP1 DUP2 MSTORE PUSH1 0x20 DUP5 DUP2 MSTORE PUSH1 0x40 DUP1 DUP4 KECCAK256 DUP1 SLOAD DUP3 MLOAD DUP2 DUP6 MUL DUP2 ADD DUP6 ADD SWAP1 SWAP4 MSTORE DUP1 DUP4 MSTORE DUP5 SWAP4 PUSH2 0x7EC SWAP4 SWAP3 SWAP2 SWAP1 DUP6 SWAP1 DUP5 ADD JUMPDEST DUP3 DUP3 LT ISZERO PUSH2 0x7E2 JUMPI DUP4 DUP3 SWAP1 PUSH1 0x0 MSTORE PUSH1 0x20 PUSH1 0x0 KECCAK256 SWAP1 PUSH1 0x4 MUL ADD PUSH1 0x40 MLOAD DUP1 PUSH1 0x80 ADD PUSH1 0x40 MSTORE SWAP1 DUP2 PUSH1 0x0 DUP3 ADD SLOAD DUP2 MSTORE PUSH1 0x20 ADD PUSH1 0x1 DUP3 ADD SLOAD DUP2 MSTORE PUSH1 0x20 ADD PUSH1 0x2 DUP3 ADD SLOAD DUP2 MSTORE PUSH1 0x20 ADD PUSH1 0x3 DUP3 ADD SLOAD DUP2 MSTORE POP POP DUP2 MSTORE PUSH1 0x20 ADD SWAP1 PUSH1 0x1 ADD SWAP1 PUSH2 0x788 JUMP JUMPDEST POP POP POP POP DUP5 PUSH2 0x9E5 JUMP JUMPDEST SWAP2 POP POP PUSH2 0x7F8 DUP2 PUSH2 0xA2B JUMP JUMPDEST SWAP6 SWAP5 POP POP POP POP POP JUMP JUMPDEST PUSH1 0x0 PUSH2 0x389 DUP3 PUSH2 0xA57 JUMP JUMPDEST PUSH1 0x0 DUP1 DUP1 DUP1 PUSH2 0x81B DUP7 DUP7 PUSH2 0xA62 JUMP JUMPDEST SWAP1 SWAP5 POP SWAP3 POP POP POP JUMPDEST SWAP3 POP SWAP3 SWAP1 POP JUMP JUMPDEST PUSH2 0x837 PUSH1 0x0 DUP5 DUP5 DUP5 PUSH2 0xA8D JUMP JUMPDEST PUSH1 0x1 PUSH1 0x1 PUSH1 0xA0 SHL SUB DUP4 AND PUSH1 0x0 SWAP1 DUP2 MSTORE PUSH1 0x4 PUSH1 0x20 MSTORE PUSH1 0x40 DUP2 KECCAK256 DUP2 SWAP1 PUSH2 0x85B SWAP1 DUP6 PUSH2 0xC78 JUMP JUMPDEST SWAP2 POP SWAP2 POP PUSH1 0x0 DUP3 PUSH2 0x86C JUMPI DUP4 PUSH2 0x876 JUMP JUMPDEST PUSH2 0x876 DUP5 DUP4 PUSH2 0x143C JUMP JUMPDEST PUSH1 0x1 PUSH1 0x1 PUSH1 0xA0 SHL SUB DUP8 AND PUSH1 0x0 SWAP1 DUP2 MSTORE PUSH1 0x4 PUSH1 0x20 MSTORE PUSH1 0x40 SWAP1 KECCAK256 SWAP1 SWAP2 POP PUSH2 0x89C SWAP1 DUP7 DUP4 PUSH2 0xC90 JUMP JUMPDEST POP POP POP POP POP POP POP JUMP JUMPDEST PUSH2 0x8B2 PUSH1 0x0 DUP5 DUP5 DUP5 PUSH2 0xCAE JUMP JUMPDEST PUSH1 0x1 PUSH1 0x1 PUSH1 0xA0 SHL SUB DUP4 AND PUSH1 0x0 SWAP1 DUP2 MSTORE PUSH1 0x4 PUSH1 0x20 MSTORE PUSH1 0x40 DUP2 KECCAK256 PUSH2 0x8D4 SWAP1 DUP5 PUSH2 0xE91 JUMP JUMPDEST SWAP1 POP DUP2 DUP2 SUB PUSH2 0x905 JUMPI PUSH1 0x1 PUSH1 0x1 PUSH1 0xA0 SHL SUB DUP5 AND PUSH1 0x0 SWAP1 DUP2 MSTORE PUSH1 0x4 PUSH1 0x20 MSTORE PUSH1 0x40 SWAP1 KECCAK256 PUSH2 0x8FF SWAP1 DUP5 PUSH2 0xEA6 JUMP JUMPDEST POP PUSH2 0x934 JUMP JUMPDEST PUSH2 0x932 DUP4 PUSH2 0x913 DUP5 DUP5 PUSH2 0x1494 JUMP JUMPDEST PUSH1 0x1 PUSH1 0x1 PUSH1 0xA0 SHL SUB DUP8 AND PUSH1 0x0 SWAP1 DUP2 MSTORE PUSH1 0x4 PUSH1 0x20 MSTORE PUSH1 0x40 SWAP1 KECCAK256 SWAP2 SWAP1 PUSH2 0xC90 JUMP JUMPDEST POP JUMPDEST POP POP POP POP JUMP JUMPDEST PUSH1 0x0 DUP2 DUP2 MSTORE PUSH1 0x1 DUP4 ADD PUSH1 0x20 MSTORE PUSH1 0x40 DUP2 KECCAK256 SLOAD PUSH2 0x981 JUMPI POP DUP2 SLOAD PUSH1 0x1 DUP2 DUP2 ADD DUP5 SSTORE PUSH1 0x0 DUP5 DUP2 MSTORE PUSH1 0x20 DUP1 DUP3 KECCAK256 SWAP1 SWAP4 ADD DUP5 SWAP1 SSTORE DUP5 SLOAD DUP5 DUP3 MSTORE DUP3 DUP7 ADD SWAP1 SWAP4 MSTORE PUSH1 0x40 SWAP1 KECCAK256 SWAP2 SWAP1 SWAP2 SSTORE PUSH2 0x389 JUMP JUMPDEST POP PUSH1 0x0 PUSH2 0x389 JUMP JUMPDEST PUSH2 0x9B4 PUSH1 0x40 MLOAD DUP1 PUSH1 0x80 ADD PUSH1 0x40 MSTORE DUP1 PUSH1 0x0 DUP2 MSTORE PUSH1 0x20 ADD PUSH1 0x0 DUP2 MSTORE PUSH1 0x20 ADD PUSH1 0x0 DUP2 MSTORE PUSH1 0x20 ADD PUSH1 0x0 DUP2 MSTORE POP SWAP1 JUMP JUMPDEST PUSH1 0x40 MLOAD DUP1 PUSH1 0x80 ADD PUSH1 0x40 MSTORE DUP1 PUSH1 0x0 DUP2 MSTORE PUSH1 0x20 ADD PUSH1 0x0 DUP2 MSTORE PUSH1 0x20 ADD PUSH8 0xDE0B6B3A7640000 DUP2 MSTORE PUSH1 0x20 ADD PUSH1 0x0 DUP2 MSTORE POP SWAP1 POP SWAP1 JUMP JUMPDEST PUSH1 0x0 PUSH2 0xA12 PUSH1 0x40 MLOAD DUP1 PUSH1 0x80 ADD PUSH1 0x40 MSTORE DUP1 PUSH1 0x0 DUP2 MSTORE PUSH1 0x20 ADD PUSH1 0x0 DUP2 MSTORE PUSH1 0x20 ADD PUSH1 0x0 DUP2 MSTORE PUSH1 0x20 ADD PUSH1 0x0 DUP2 MSTORE POP SWAP1 JUMP JUMPDEST PUSH2 0xA20 DUP5 DUP5 PUSH1 0x0 DUP8 MLOAD PUSH2 0xEBB JUMP JUMPDEST SWAP2 POP SWAP2 POP SWAP3 POP SWAP3 SWAP1 POP JUMP JUMPDEST PUSH1 0x0 DUP2 PUSH1 0x60 ADD MLOAD PUSH2 0xA4D DUP4 PUSH1 0x40 ADD MLOAD DUP5 PUSH1 0x20 ADD MLOAD PUSH2 0x1016 SWAP1 SWAP2 SWAP1 PUSH4 0xFFFFFFFF AND JUMP JUMPDEST PUSH2 0x389 SWAP2 SWAP1 PUSH2 0x14A7 JUMP JUMPDEST PUSH1 0x0 PUSH2 0x389 DUP3 PUSH2 0x746 JUMP JUMPDEST PUSH1 0x0 DUP1 DUP1 PUSH2 0xA70 DUP6 DUP6 PUSH2 0x1035 JUMP JUMPDEST PUSH1 0x0 DUP2 DUP2 MSTORE PUSH1 0x2 SWAP7 SWAP1 SWAP7 ADD PUSH1 0x20 MSTORE PUSH1 0x40 SWAP1 SWAP6 KECCAK256 SLOAD SWAP5 SWAP6 SWAP4 POP POP POP POP JUMP JUMPDEST PUSH1 0x0 PUSH2 0xA99 DUP6 DUP6 PUSH2 0x4F4 JUMP JUMPDEST PUSH1 0x1 PUSH1 0x1 PUSH1 0xA0 SHL SUB DUP6 AND PUSH1 0x0 SWAP1 DUP2 MSTORE PUSH1 0x2 DUP8 ADD PUSH1 0x20 SWAP1 DUP2 MSTORE PUSH1 0x40 DUP1 DUP4 KECCAK256 SLOAD SWAP1 DUP5 ADD MLOAD SWAP2 DUP5 ADD MLOAD SWAP4 SWAP5 POP SWAP2 SWAP3 PUSH2 0xACD SWAP2 PUSH2 0x1016 JUMP JUMPDEST PUSH2 0xAD7 SWAP2 SWAP1 PUSH2 0x1494 JUMP JUMPDEST SWAP1 POP DUP3 DUP2 LT ISZERO PUSH2 0xB29 JUMPI PUSH1 0x40 MLOAD PUSH3 0x461BCD PUSH1 0xE5 SHL DUP2 MSTORE PUSH1 0x20 PUSH1 0x4 DUP3 ADD DUP2 SWAP1 MSTORE PUSH1 0x24 DUP3 ADD MSTORE PUSH32 0x696E73756666696369656E742062616C616E636520746F2064656C6567617465 PUSH1 0x44 DUP3 ADD MSTORE PUSH1 0x64 ADD PUSH2 0x287 JUMP JUMPDEST PUSH1 0x1 PUSH1 0x1 PUSH1 0xA0 SHL SUB DUP5 AND PUSH1 0x0 SWAP1 DUP2 MSTORE PUSH1 0x3 DUP8 ADD PUSH1 0x20 MSTORE PUSH1 0x40 DUP2 KECCAK256 DUP1 SLOAD DUP6 SWAP3 SWAP1 PUSH2 0xB53 SWAP1 DUP5 SWAP1 PUSH2 0x143C JUMP JUMPDEST SWAP1 SWAP2 SSTORE POP POP PUSH1 0x1 PUSH1 0x1 PUSH1 0xA0 SHL SUB DUP6 AND PUSH1 0x0 SWAP1 DUP2 MSTORE PUSH1 0x2 DUP8 ADD PUSH1 0x20 MSTORE PUSH1 0x40 DUP2 KECCAK256 DUP1 SLOAD DUP6 SWAP3 SWAP1 PUSH2 0xB82 SWAP1 DUP5 SWAP1 PUSH2 0x143C JUMP JUMPDEST SWAP1 SWAP2 SSTORE POP POP PUSH1 0x1 PUSH1 0x1 PUSH1 0xA0 SHL SUB DUP1 DUP7 AND PUSH1 0x0 SWAP1 DUP2 MSTORE PUSH1 0x1 DUP9 ADD PUSH1 0x20 SWAP1 DUP2 MSTORE PUSH1 0x40 DUP1 DUP4 KECCAK256 SWAP4 DUP9 AND DUP4 MSTORE SWAP3 SWAP1 MSTORE SWAP1 DUP2 KECCAK256 DUP1 SLOAD DUP6 SWAP3 SWAP1 PUSH2 0xBC0 SWAP1 DUP5 SWAP1 PUSH2 0x143C JUMP JUMPDEST SWAP1 SWAP2 SSTORE POP POP PUSH1 0x20 DUP3 ADD MLOAD PUSH1 0x40 DUP4 ADD MLOAD PUSH2 0xBE9 SWAP2 DUP8 SWAP2 PUSH2 0xBDF DUP11 DUP5 PUSH2 0x1041 JUMP JUMPDEST DUP11 SWAP4 SWAP3 SWAP2 SWAP1 PUSH2 0x602 JUMP JUMPDEST POP PUSH1 0x0 PUSH2 0xBF6 DUP8 DUP7 PUSH2 0x4F4 JUMP JUMPDEST SWAP1 POP PUSH2 0xC23 DUP6 DUP3 PUSH1 0x20 ADD MLOAD DUP4 PUSH1 0x40 ADD MLOAD PUSH2 0xC19 DUP10 DUP13 PUSH2 0x1041 SWAP1 SWAP2 SWAP1 PUSH4 0xFFFFFFFF AND JUMP JUMPDEST DUP12 SWAP4 SWAP3 SWAP2 SWAP1 PUSH2 0x602 JUMP JUMPDEST POP PUSH1 0x40 DUP1 MLOAD PUSH1 0x1 PUSH1 0x1 PUSH1 0xA0 SHL SUB DUP1 DUP10 AND DUP3 MSTORE DUP8 AND PUSH1 0x20 DUP3 ADD MSTORE SWAP1 DUP2 ADD DUP6 SWAP1 MSTORE PUSH32 0xFF825F9424124EFFC5CE1D9F4803D58EDE8A2BDA4DA2324810F74834715C4C59 SWAP1 PUSH1 0x60 ADD PUSH1 0x40 MLOAD DUP1 SWAP2 SUB SWAP1 LOG1 POP POP POP POP POP POP POP JUMP JUMPDEST PUSH1 0x0 DUP1 DUP1 DUP1 PUSH2 0x81B DUP7 PUSH1 0x1 PUSH1 0x1 PUSH1 0xA0 SHL SUB DUP8 AND PUSH2 0x1073 JUMP JUMPDEST PUSH1 0x0 PUSH2 0xCA6 DUP5 PUSH1 0x1 PUSH1 0x1 PUSH1 0xA0 SHL SUB DUP6 AND DUP5 PUSH2 0x10AD JUMP JUMPDEST SWAP5 SWAP4 POP POP POP POP JUMP JUMPDEST PUSH1 0x1 PUSH1 0x1 PUSH1 0xA0 SHL SUB DUP1 DUP5 AND PUSH1 0x0 SWAP1 DUP2 MSTORE PUSH1 0x1 DUP7 ADD PUSH1 0x20 SWAP1 DUP2 MSTORE PUSH1 0x40 DUP1 DUP4 KECCAK256 SWAP4 DUP7 AND DUP4 MSTORE SWAP3 SWAP1 MSTORE KECCAK256 SLOAD DUP2 GT ISZERO PUSH2 0xD37 JUMPI PUSH1 0x40 MLOAD PUSH3 0x461BCD PUSH1 0xE5 SHL DUP2 MSTORE PUSH1 0x20 PUSH1 0x4 DUP3 ADD MSTORE PUSH1 0x29 PUSH1 0x24 DUP3 ADD MSTORE PUSH32 0x7573657220686173206E6F742064656C65676174656420656E6F75676820746F PUSH1 0x44 DUP3 ADD MSTORE PUSH9 0x2064656C6567617465 PUSH1 0xB8 SHL PUSH1 0x64 DUP3 ADD MSTORE PUSH1 0x84 ADD PUSH2 0x287 JUMP JUMPDEST PUSH1 0x1 PUSH1 0x1 PUSH1 0xA0 SHL SUB DUP3 AND PUSH1 0x0 SWAP1 DUP2 MSTORE PUSH1 0x3 DUP6 ADD PUSH1 0x20 MSTORE PUSH1 0x40 DUP2 KECCAK256 DUP1 SLOAD DUP4 SWAP3 SWAP1 PUSH2 0xD61 SWAP1 DUP5 SWAP1 PUSH2 0x1494 JUMP JUMPDEST SWAP1 SWAP2 SSTORE POP POP PUSH1 0x1 PUSH1 0x1 PUSH1 0xA0 SHL SUB DUP4 AND PUSH1 0x0 SWAP1 DUP2 MSTORE PUSH1 0x2 DUP6 ADD PUSH1 0x20 MSTORE PUSH1 0x40 DUP2 KECCAK256 DUP1 SLOAD DUP4 SWAP3 SWAP1 PUSH2 0xD90 SWAP1 DUP5 SWAP1 PUSH2 0x1494 JUMP JUMPDEST SWAP1 SWAP2 SSTORE POP POP PUSH1 0x1 PUSH1 0x1 PUSH1 0xA0 SHL SUB DUP1 DUP5 AND PUSH1 0x0 SWAP1 DUP2 MSTORE PUSH1 0x1 DUP7 ADD PUSH1 0x20 SWAP1 DUP2 MSTORE PUSH1 0x40 DUP1 DUP4 KECCAK256 SWAP4 DUP7 AND DUP4 MSTORE SWAP3 SWAP1 MSTORE SWAP1 DUP2 KECCAK256 DUP1 SLOAD DUP4 SWAP3 SWAP1 PUSH2 0xDCE SWAP1 DUP5 SWAP1 PUSH2 0x1494 JUMP JUMPDEST SWAP1 SWAP2 SSTORE POP PUSH1 0x0 SWAP1 POP PUSH2 0xDE0 DUP6 DUP6 PUSH2 0x4F4 JUMP JUMPDEST SWAP1 POP PUSH2 0xE0D DUP5 DUP3 PUSH1 0x20 ADD MLOAD DUP4 PUSH1 0x40 ADD MLOAD PUSH2 0xE03 DUP9 DUP11 PUSH2 0x1041 SWAP1 SWAP2 SWAP1 PUSH4 0xFFFFFFFF AND JUMP JUMPDEST DUP10 SWAP4 SWAP3 SWAP2 SWAP1 PUSH2 0x602 JUMP JUMPDEST POP PUSH1 0x0 PUSH2 0xE1A DUP7 DUP6 PUSH2 0x4F4 JUMP JUMPDEST SWAP1 POP PUSH2 0xE3D DUP5 DUP3 PUSH1 0x20 ADD MLOAD DUP4 PUSH1 0x40 ADD MLOAD PUSH2 0xBDF DUP9 DUP12 PUSH2 0x1041 SWAP1 SWAP2 SWAP1 PUSH4 0xFFFFFFFF AND JUMP JUMPDEST POP PUSH1 0x40 DUP1 MLOAD PUSH1 0x1 PUSH1 0x1 PUSH1 0xA0 SHL SUB DUP1 DUP9 AND DUP3 MSTORE DUP7 AND PUSH1 0x20 DUP3 ADD MSTORE SWAP1 DUP2 ADD DUP5 SWAP1 MSTORE PUSH32 0xDE5AA493A93D4351631C1991A0AEECFD52D6B51CF1B61F1A3C48F97E26808653 SWAP1 PUSH1 0x60 ADD PUSH1 0x40 MLOAD DUP1 SWAP2 SUB SWAP1 LOG1 POP POP POP POP POP POP JUMP JUMPDEST PUSH1 0x0 PUSH2 0x4CD DUP4 PUSH1 0x1 PUSH1 0x1 PUSH1 0xA0 SHL SUB DUP5 AND PUSH2 0x10CA JUMP JUMPDEST PUSH1 0x0 PUSH2 0x4CD DUP4 PUSH1 0x1 PUSH1 0x1 PUSH1 0xA0 SHL SUB DUP5 AND PUSH2 0x113A JUMP JUMPDEST PUSH1 0x0 PUSH2 0xEE8 PUSH1 0x40 MLOAD DUP1 PUSH1 0x80 ADD PUSH1 0x40 MSTORE DUP1 PUSH1 0x0 DUP2 MSTORE PUSH1 0x20 ADD PUSH1 0x0 DUP2 MSTORE PUSH1 0x20 ADD PUSH1 0x0 DUP2 MSTORE PUSH1 0x20 ADD PUSH1 0x0 DUP2 MSTORE POP SWAP1 JUMP JUMPDEST DUP3 DUP5 LT PUSH2 0xF02 JUMPI PUSH1 0x0 PUSH2 0xEF9 PUSH2 0x989 JUMP JUMPDEST SWAP2 POP SWAP2 POP PUSH2 0x100D JUMP JUMPDEST PUSH2 0xF0C DUP5 DUP5 PUSH2 0x1494 JUMP JUMPDEST PUSH1 0x1 SUB PUSH2 0xF5A JUMPI PUSH1 0x0 DUP7 DUP6 DUP2 MLOAD DUP2 LT PUSH2 0xF27 JUMPI PUSH2 0xF27 PUSH2 0x147E JUMP JUMPDEST PUSH1 0x20 MUL PUSH1 0x20 ADD ADD MLOAD SWAP1 POP DUP6 DUP2 PUSH1 0x0 ADD MLOAD GT ISZERO PUSH2 0xF4C JUMPI PUSH1 0x0 PUSH2 0xF47 PUSH2 0x989 JUMP JUMPDEST PUSH2 0xF50 JUMP JUMPDEST PUSH1 0x1 DUP2 JUMPDEST SWAP3 POP SWAP3 POP POP PUSH2 0x100D JUMP JUMPDEST PUSH1 0x0 PUSH1 0x2 PUSH2 0xF68 DUP7 DUP7 PUSH2 0x143C JUMP JUMPDEST PUSH2 0xF72 SWAP2 SWAP1 PUSH2 0x14CF JUMP JUMPDEST SWAP1 POP PUSH1 0x0 DUP8 PUSH2 0xF82 PUSH1 0x1 DUP5 PUSH2 0x1494 JUMP JUMPDEST DUP2 MLOAD DUP2 LT PUSH2 0xF92 JUMPI PUSH2 0xF92 PUSH2 0x147E JUMP JUMPDEST PUSH1 0x20 MUL PUSH1 0x20 ADD ADD MLOAD SWAP1 POP PUSH1 0x0 DUP9 DUP4 DUP2 MLOAD DUP2 LT PUSH2 0xFB0 JUMPI PUSH2 0xFB0 PUSH2 0x147E JUMP JUMPDEST PUSH1 0x20 MUL PUSH1 0x20 ADD ADD MLOAD SWAP1 POP DUP8 DUP3 PUSH1 0x0 ADD MLOAD GT ISZERO DUP1 ISZERO PUSH2 0xFCE JUMPI POP DUP1 MLOAD DUP9 LT JUMPDEST ISZERO PUSH2 0xFE1 JUMPI POP PUSH1 0x1 SWAP4 POP SWAP2 POP PUSH2 0x100D SWAP1 POP JUMP JUMPDEST DUP1 MLOAD DUP9 LT PUSH2 0x1001 JUMPI PUSH2 0xFF5 DUP10 DUP10 DUP6 DUP10 PUSH2 0xEBB JUMP JUMPDEST SWAP5 POP SWAP5 POP POP POP POP PUSH2 0x100D JUMP JUMPDEST PUSH2 0xFF5 DUP10 DUP10 DUP10 DUP7 PUSH2 0xEBB JUMP JUMPDEST SWAP5 POP SWAP5 SWAP3 POP POP POP JUMP JUMPDEST PUSH1 0x0 PUSH8 0xDE0B6B3A7640000 PUSH2 0x102B DUP4 DUP6 PUSH2 0x14F1 JUMP JUMPDEST PUSH2 0x4CD SWAP2 SWAP1 PUSH2 0x14CF JUMP JUMPDEST PUSH1 0x0 PUSH2 0x4CD DUP4 DUP4 PUSH2 0x1157 JUMP JUMPDEST PUSH1 0x1 PUSH1 0x1 PUSH1 0xA0 SHL SUB DUP2 AND PUSH1 0x0 SWAP1 DUP2 MSTORE PUSH1 0x2 DUP4 ADD PUSH1 0x20 SWAP1 DUP2 MSTORE PUSH1 0x40 DUP1 DUP4 KECCAK256 SLOAD PUSH1 0x3 DUP7 ADD SWAP1 SWAP3 MSTORE DUP3 KECCAK256 SLOAD PUSH2 0x4CD SWAP2 SWAP1 PUSH2 0x1508 JUMP JUMPDEST PUSH1 0x0 DUP2 DUP2 MSTORE PUSH1 0x2 DUP4 ADD PUSH1 0x20 MSTORE PUSH1 0x40 DUP2 KECCAK256 SLOAD DUP2 SWAP1 DUP1 PUSH2 0x10A2 JUMPI PUSH2 0x1095 DUP6 DUP6 PUSH2 0x1181 JUMP JUMPDEST SWAP3 POP PUSH1 0x0 SWAP2 POP PUSH2 0x823 SWAP1 POP JUMP JUMPDEST PUSH1 0x1 SWAP3 POP SWAP1 POP PUSH2 0x823 JUMP JUMPDEST PUSH1 0x0 DUP3 DUP2 MSTORE PUSH1 0x2 DUP5 ADD PUSH1 0x20 MSTORE PUSH1 0x40 DUP2 KECCAK256 DUP3 SWAP1 SSTORE PUSH2 0xCA6 DUP5 DUP5 PUSH2 0x118D JUMP JUMPDEST PUSH1 0x0 DUP2 DUP2 MSTORE PUSH1 0x2 DUP4 ADD PUSH1 0x20 MSTORE PUSH1 0x40 DUP2 KECCAK256 SLOAD DUP1 ISZERO ISZERO DUP1 PUSH2 0x10EE JUMPI POP PUSH2 0x10EE DUP5 DUP5 PUSH2 0x1181 JUMP JUMPDEST PUSH2 0x4CD JUMPI PUSH1 0x40 MLOAD PUSH3 0x461BCD PUSH1 0xE5 SHL DUP2 MSTORE PUSH1 0x20 PUSH1 0x4 DUP3 ADD MSTORE PUSH1 0x1E PUSH1 0x24 DUP3 ADD MSTORE PUSH32 0x456E756D657261626C654D61703A206E6F6E6578697374656E74206B65790000 PUSH1 0x44 DUP3 ADD MSTORE PUSH1 0x64 ADD PUSH2 0x287 JUMP JUMPDEST PUSH1 0x0 DUP2 DUP2 MSTORE PUSH1 0x2 DUP4 ADD PUSH1 0x20 MSTORE PUSH1 0x40 DUP2 KECCAK256 DUP2 SWAP1 SSTORE PUSH2 0x4CD DUP4 DUP4 PUSH2 0x1199 JUMP JUMPDEST PUSH1 0x0 DUP3 PUSH1 0x0 ADD DUP3 DUP2 SLOAD DUP2 LT PUSH2 0x116E JUMPI PUSH2 0x116E PUSH2 0x147E JUMP JUMPDEST SWAP1 PUSH1 0x0 MSTORE PUSH1 0x20 PUSH1 0x0 KECCAK256 ADD SLOAD SWAP1 POP SWAP3 SWAP2 POP POP JUMP JUMPDEST PUSH1 0x0 PUSH2 0x4CD DUP4 DUP4 PUSH2 0x11A5 JUMP JUMPDEST PUSH1 0x0 PUSH2 0x4CD DUP4 DUP4 PUSH2 0x93A JUMP JUMPDEST PUSH1 0x0 PUSH2 0x4CD DUP4 DUP4 PUSH2 0x11BD JUMP JUMPDEST PUSH1 0x0 DUP2 DUP2 MSTORE PUSH1 0x1 DUP4 ADD PUSH1 0x20 MSTORE PUSH1 0x40 DUP2 KECCAK256 SLOAD ISZERO ISZERO PUSH2 0x4CD JUMP JUMPDEST PUSH1 0x0 DUP2 DUP2 MSTORE PUSH1 0x1 DUP4 ADD PUSH1 0x20 MSTORE PUSH1 0x40 DUP2 KECCAK256 SLOAD DUP1 ISZERO PUSH2 0x12A6 JUMPI PUSH1 0x0 PUSH2 0x11E1 PUSH1 0x1 DUP4 PUSH2 0x1494 JUMP JUMPDEST DUP6 SLOAD SWAP1 SWAP2 POP PUSH1 0x0 SWAP1 PUSH2 0x11F5 SWAP1 PUSH1 0x1 SWAP1 PUSH2 0x1494 JUMP JUMPDEST SWAP1 POP DUP2 DUP2 EQ PUSH2 0x125A JUMPI PUSH1 0x0 DUP7 PUSH1 0x0 ADD DUP3 DUP2 SLOAD DUP2 LT PUSH2 0x1215 JUMPI PUSH2 0x1215 PUSH2 0x147E JUMP JUMPDEST SWAP1 PUSH1 0x0 MSTORE PUSH1 0x20 PUSH1 0x0 KECCAK256 ADD SLOAD SWAP1 POP DUP1 DUP8 PUSH1 0x0 ADD DUP5 DUP2 SLOAD DUP2 LT PUSH2 0x1238 JUMPI PUSH2 0x1238 PUSH2 0x147E JUMP JUMPDEST PUSH1 0x0 SWAP2 DUP3 MSTORE PUSH1 0x20 DUP1 DUP4 KECCAK256 SWAP1 SWAP2 ADD SWAP3 SWAP1 SWAP3 SSTORE SWAP2 DUP3 MSTORE PUSH1 0x1 DUP9 ADD SWAP1 MSTORE PUSH1 0x40 SWAP1 KECCAK256 DUP4 SWAP1 SSTORE JUMPDEST DUP6 SLOAD DUP7 SWAP1 DUP1 PUSH2 0x126B JUMPI PUSH2 0x126B PUSH2 0x1528 JUMP JUMPDEST PUSH1 0x1 SWAP1 SUB DUP2 DUP2 SWAP1 PUSH1 0x0 MSTORE PUSH1 0x20 PUSH1 0x0 KECCAK256 ADD PUSH1 0x0 SWAP1 SSTORE SWAP1 SSTORE DUP6 PUSH1 0x1 ADD PUSH1 0x0 DUP7 DUP2 MSTORE PUSH1 0x20 ADD SWAP1 DUP2 MSTORE PUSH1 0x20 ADD PUSH1 0x0 KECCAK256 PUSH1 0x0 SWAP1 SSTORE PUSH1 0x1 SWAP4 POP POP POP POP PUSH2 0x389 JUMP JUMPDEST PUSH1 0x0 SWAP2 POP POP PUSH2 0x389 JUMP JUMPDEST DUP1 CALLDATALOAD PUSH1 0x1 PUSH1 0x1 PUSH1 0xA0 SHL SUB DUP2 AND DUP2 EQ PUSH2 0x12C7 JUMPI PUSH1 0x0 DUP1 REVERT JUMPDEST SWAP2 SWAP1 POP JUMP JUMPDEST PUSH1 0x0 DUP1 PUSH1 0x0 PUSH1 0x60 DUP5 DUP7 SUB SLT ISZERO PUSH2 0x12E1 JUMPI PUSH1 0x0 DUP1 REVERT JUMPDEST PUSH2 0x12EA DUP5 PUSH2 0x12B0 JUMP JUMPDEST SWAP6 PUSH1 0x20 DUP6 ADD CALLDATALOAD SWAP6 POP PUSH1 0x40 SWAP1 SWAP5 ADD CALLDATALOAD SWAP4 SWAP3 POP POP POP JUMP JUMPDEST PUSH1 0x0 PUSH1 0x20 DUP3 DUP5 SUB SLT ISZERO PUSH2 0x1311 JUMPI PUSH1 0x0 DUP1 REVERT JUMPDEST PUSH2 0x4CD DUP3 PUSH2 0x12B0 JUMP JUMPDEST PUSH1 0x20 DUP1 DUP3 MSTORE DUP3 MLOAD DUP3 DUP3 ADD DUP2 SWAP1 MSTORE PUSH1 0x0 SWAP2 SWAP1 PUSH1 0x40 SWAP1 DUP2 DUP6 ADD SWAP1 DUP7 DUP5 ADD DUP6 JUMPDEST DUP3 DUP2 LT ISZERO PUSH2 0x1365 JUMPI DUP2 MLOAD DUP1 MLOAD PUSH1 0x1 PUSH1 0x1 PUSH1 0xA0 SHL SUB AND DUP6 MSTORE DUP7 ADD MLOAD DUP7 DUP6 ADD MSTORE SWAP3 DUP5 ADD SWAP3 SWAP1 DUP6 ADD SWAP1 PUSH1 0x1 ADD PUSH2 0x1337 JUMP JUMPDEST POP SWAP2 SWAP8 SWAP7 POP POP POP POP POP POP POP JUMP JUMPDEST PUSH1 0x0 PUSH1 0x20 DUP1 DUP4 MSTORE DUP4 MLOAD DUP1 DUP3 DUP6 ADD MSTORE PUSH1 0x0 JUMPDEST DUP2 DUP2 LT ISZERO PUSH2 0x139F JUMPI DUP6 DUP2 ADD DUP4 ADD MLOAD DUP6 DUP3 ADD PUSH1 0x40 ADD MSTORE DUP3 ADD PUSH2 0x1383 JUMP JUMPDEST POP PUSH1 0x0 PUSH1 0x40 DUP3 DUP7 ADD ADD MSTORE PUSH1 0x40 PUSH1 0x1F NOT PUSH1 0x1F DUP4 ADD AND DUP6 ADD ADD SWAP3 POP POP POP SWAP3 SWAP2 POP POP JUMP JUMPDEST PUSH1 0x0 DUP1 PUSH1 0x40 DUP4 DUP6 SUB SLT ISZERO PUSH2 0x13D3 JUMPI PUSH1 0x0 DUP1 REVERT JUMPDEST PUSH2 0x13DC DUP4 PUSH2 0x12B0 JUMP JUMPDEST SWAP5 PUSH1 0x20 SWAP4 SWAP1 SWAP4 ADD CALLDATALOAD SWAP4 POP POP POP JUMP JUMPDEST PUSH1 0x0 DUP1 PUSH1 0x0 PUSH1 0x60 DUP5 DUP7 SUB SLT ISZERO PUSH2 0x13FF JUMPI PUSH1 0x0 DUP1 REVERT JUMPDEST PUSH2 0x1408 DUP5 PUSH2 0x12B0 JUMP JUMPDEST SWAP3 POP PUSH2 0x1416 PUSH1 0x20 DUP6 ADD PUSH2 0x12B0 JUMP JUMPDEST SWAP2 POP PUSH1 0x40 DUP5 ADD CALLDATALOAD SWAP1 POP SWAP3 POP SWAP3 POP SWAP3 JUMP JUMPDEST PUSH4 0x4E487B71 PUSH1 0xE0 SHL PUSH1 0x0 MSTORE PUSH1 0x11 PUSH1 0x4 MSTORE PUSH1 0x24 PUSH1 0x0 REVERT JUMPDEST DUP1 DUP3 ADD DUP1 DUP3 GT ISZERO PUSH2 0x389 JUMPI PUSH2 0x389 PUSH2 0x1426 JUMP JUMPDEST PUSH1 0x0 PUSH1 0x1 DUP3 ADD PUSH2 0x1461 JUMPI PUSH2 0x1461 PUSH2 0x1426 JUMP JUMPDEST POP PUSH1 0x1 ADD SWAP1 JUMP JUMPDEST PUSH4 0x4E487B71 PUSH1 0xE0 SHL PUSH1 0x0 MSTORE PUSH1 0x41 PUSH1 0x4 MSTORE PUSH1 0x24 PUSH1 0x0 REVERT JUMPDEST PUSH4 0x4E487B71 PUSH1 0xE0 SHL PUSH1 0x0 MSTORE PUSH1 0x32 PUSH1 0x4 MSTORE PUSH1 0x24 PUSH1 0x0 REVERT JUMPDEST DUP2 DUP2 SUB DUP2 DUP2 GT ISZERO PUSH2 0x389 JUMPI PUSH2 0x389 PUSH2 0x1426 JUMP JUMPDEST DUP1 DUP3 ADD DUP3 DUP2 SLT PUSH1 0x0 DUP4 SLT DUP1 ISZERO DUP3 AND DUP3 ISZERO DUP3 AND OR ISZERO PUSH2 0x14C7 JUMPI PUSH2 0x14C7 PUSH2 0x1426 JUMP JUMPDEST POP POP SWAP3 SWAP2 POP POP JUMP JUMPDEST PUSH1 0x0 DUP3 PUSH2 0x14EC JUMPI PUSH4 0x4E487B71 PUSH1 0xE0 SHL PUSH1 0x0 MSTORE PUSH1 0x12 PUSH1 0x4 MSTORE PUSH1 0x24 PUSH1 0x0 REVERT JUMPDEST POP DIV SWAP1 JUMP JUMPDEST DUP1 DUP3 MUL DUP2 ISZERO DUP3 DUP3 DIV DUP5 EQ OR PUSH2 0x389 JUMPI PUSH2 0x389 PUSH2 0x1426 JUMP JUMPDEST DUP2 DUP2 SUB PUSH1 0x0 DUP4 SLT DUP1 ISZERO DUP4 DUP4 SGT AND DUP4 DUP4 SLT DUP3 AND OR ISZERO PUSH2 0x5FB JUMPI PUSH2 0x5FB PUSH2 0x1426 JUMP JUMPDEST PUSH4 0x4E487B71 PUSH1 0xE0 SHL PUSH1 0x0 MSTORE PUSH1 0x31 PUSH1 0x4 MSTORE PUSH1 0x24 PUSH1 0x0 REVERT INVALID LOG2 PUSH5 0x6970667358 0x22 SLT KECCAK256 0xB6 SAR 0xC5 0x5F 0xAB 0x1F PUSH13 0xFD67EDC6D04FBE5FD3A31E4BA0 0xAF 0xDE PUSH11 0x7B94D80522C5B4DD836473 PUSH16 0x6C634300081100330000000000000000 ","sha1":"45e1c07baebbe5bd10ce2616031898cf2a3da844","source":"// SPDX-License-Identifier: GPL-3.0-or-later\npragma solidity ^0.8.17;\n\nimport \"@openzeppelin/contracts/utils/structs/EnumerableSet.sol\";\n\nimport \"../access/ImmutableOwner.sol\";\nimport \"../../libraries/VotingPowerHistory.sol\";\n\nimport \"./BaseDelegatingVault.sol\";\nimport \"../../interfaces/IDelegatingVault.sol\";\n\ncontract AssociatedDAOVault is BaseDelegatingVault, ImmutableOwner {\n    using EnumerableSet for EnumerableSet.AddressSet;\n    using VotingPowerHistory for VotingPowerHistory.History;\n\n    string internal constant _VAULT_TYPE = \"AssociatedDAO\";\n\n    EnumerableSet.AddressSet internal _daos;\n    uint256 internal _totalRawVotingPower;\n\n    constructor(address _owner) ImmutableOwner(_owner) {}\n\n    function updateDAOAndTotalWeight(\n        address dao,\n        uint256 votingPower,\n        uint256 totalVotingPower\n    ) external onlyOwner {\n        _daos.add(dao);\n\n        VotingPowerHistory.Record memory current = history.currentRecord(dao);\n        history.updateVotingPower(\n            dao,\n            votingPower,\n            ScaledMath.ONE,\n            current.netDelegatedVotes\n        );\n\n        _totalRawVotingPower = totalVotingPower;\n\n        uint256 actualTotalPower;\n        uint256 daosCount = _daos.length();\n        for (uint256 i; i < daosCount; i++) {\n            uint256 currentPower = history.getVotingPower(dao, block.timestamp);\n            actualTotalPower += currentPower;\n        }\n\n        if (actualTotalPower > totalVotingPower)\n            revert Errors.InvalidVotingPowerUpdate(\n                actualTotalPower,\n                totalVotingPower\n            );\n    }\n\n    function getRawVotingPower(\n        address account,\n        uint256 timestamp\n    ) public view override returns (uint256) {\n        return history.getVotingPower(account, timestamp);\n    }\n\n    function getTotalRawVotingPower() public view override returns (uint256) {\n        return _totalRawVotingPower;\n    }\n\n    function getVaultType() external pure returns (string memory) {\n        return _VAULT_TYPE;\n    }\n}\n","sourcePath":"contracts/vaults/AssociatedDAOVault.sol","type":"contract","deployment":{"address":"0x43455E04e9b58b4Fad59260FceD78F2A11660a69","chainid":"1","blockHeight":18362779}}