{"abi":[{"inputs":[{"internalType":"address","name":"_multisig","type":"address"},{"internalType":"contract IVotingPowerAggregator","name":"_votingPowerAggregator","type":"address"},{"internalType":"contract ITierer","name":"_tierer","type":"address"}],"stateMutability":"nonpayable","type":"constructor","name":"constructor"},{"inputs":[],"name":"MultisigSunset","type":"error"},{"inputs":[{"internalType":"address","name":"actual","type":"address"},{"internalType":"address","name":"expected","type":"address"}],"name":"NotAuthorized","type":"error"},{"anonymous":false,"inputs":[{"indexed":false,"internalType":"uint8","name":"version","type":"uint8"}],"name":"Initialized","type":"event"},{"anonymous":false,"inputs":[],"name":"MultisigSunset","type":"event"},{"anonymous":false,"inputs":[{"indexed":false,"internalType":"uint256","name":"originalSunset","type":"uint256"},{"indexed":false,"internalType":"uint256","name":"newSunset","type":"uint256"}],"name":"MultisigSunsetAtUpdated","type":"event"},{"anonymous":false,"inputs":[{"indexed":true,"internalType":"uint16","name":"id","type":"uint16"},{"indexed":false,"internalType":"address","name":"proposer","type":"address"},{"components":[{"internalType":"address","name":"target","type":"address"},{"internalType":"bytes","name":"data","type":"bytes"}],"indexed":false,"internalType":"struct DataTypes.ProposalAction[]","name":"actions","type":"tuple[]"}],"name":"ProposalCreated","type":"event"},{"anonymous":false,"inputs":[{"indexed":true,"internalType":"uint16","name":"proposalId","type":"uint16"}],"name":"ProposalExecuted","type":"event"},{"anonymous":false,"inputs":[{"indexed":true,"internalType":"uint16","name":"proposalId","type":"uint16"},{"indexed":false,"internalType":"enum DataTypes.Status","name":"status","type":"uint8"},{"indexed":false,"internalType":"enum DataTypes.ProposalOutcome","name":"outcome","type":"uint8"}],"name":"ProposalTallied","type":"event"},{"anonymous":false,"inputs":[{"indexed":true,"internalType":"uint16","name":"proposalId","type":"uint16"}],"name":"ProposalVetoed","type":"event"},{"anonymous":false,"inputs":[{"indexed":true,"internalType":"uint16","name":"proposalId","type":"uint16"},{"indexed":false,"internalType":"address","name":"voter","type":"address"},{"indexed":false,"internalType":"enum DataTypes.Ballot","name":"vote","type":"uint8"}],"name":"VoteCast","type":"event"},{"inputs":[],"name":"bGYD","outputs":[{"internalType":"contract IBoundedERC20WithEMA","name":"","type":"address"}],"stateMutability":"view","type":"function"},{"inputs":[{"components":[{"internalType":"address","name":"target","type":"address"},{"internalType":"bytes","name":"data","type":"bytes"}],"internalType":"struct DataTypes.ProposalAction[]","name":"actions","type":"tuple[]"}],"name":"createAndExecuteProposal","outputs":[],"stateMutability":"nonpayable","type":"function"},{"inputs":[{"components":[{"internalType":"address","name":"target","type":"address"},{"internalType":"bytes","name":"data","type":"bytes"}],"internalType":"struct DataTypes.ProposalAction[]","name":"actions","type":"tuple[]"}],"name":"createProposal","outputs":[],"stateMutability":"nonpayable","type":"function"},{"inputs":[{"internalType":"uint16","name":"proposalId","type":"uint16"}],"name":"executeProposal","outputs":[],"stateMutability":"nonpayable","type":"function"},{"inputs":[{"internalType":"uint256","name":"extensionPeriod","type":"uint256"}],"name":"extendMultisigSunsetAt","outputs":[],"stateMutability":"nonpayable","type":"function"},{"inputs":[{"internalType":"address","name":"voter","type":"address"},{"internalType":"uint16","name":"proposalId","type":"uint16"}],"name":"getBallot","outputs":[{"internalType":"enum DataTypes.Ballot","name":"","type":"uint8"}],"stateMutability":"view","type":"function"},{"inputs":[{"internalType":"uint16","name":"proposalId","type":"uint16"}],"name":"getCurrentPercentages","outputs":[{"internalType":"uint256","name":"for_","type":"uint256"},{"internalType":"uint256","name":"against","type":"uint256"},{"internalType":"uint256","name":"abstain","type":"uint256"}],"stateMutability":"view","type":"function"},{"inputs":[{"internalType":"uint16","name":"proposalId","type":"uint16"}],"name":"getProposal","outputs":[{"components":[{"internalType":"uint64","name":"createdAt","type":"uint64"},{"internalType":"uint64","name":"executableAt","type":"uint64"},{"internalType":"uint64","name":"votingEndsAt","type":"uint64"},{"internalType":"uint64","name":"voteThreshold","type":"uint64"},{"internalType":"uint64","name":"quorum","type":"uint64"},{"internalType":"uint16","name":"id","type":"uint16"},{"internalType":"uint8","name":"actionLevel","type":"uint8"},{"internalType":"address","name":"proposer","type":"address"},{"internalType":"enum DataTypes.Status","name":"status","type":"uint8"},{"components":[{"internalType":"address","name":"target","type":"address"},{"internalType":"bytes","name":"data","type":"bytes"}],"internalType":"struct DataTypes.ProposalAction[]","name":"actions","type":"tuple[]"}],"internalType":"struct DataTypes.Proposal","name":"","type":"tuple"}],"stateMutability":"view","type":"function"},{"inputs":[{"internalType":"uint16","name":"proposalId","type":"uint16"}],"name":"getVoteTotals","outputs":[{"components":[{"components":[{"internalType":"address","name":"vaultAddress","type":"address"},{"internalType":"uint256","name":"votingPower","type":"uint256"}],"internalType":"struct DataTypes.VaultVotingPower[]","name":"_for","type":"tuple[]"},{"components":[{"internalType":"address","name":"vaultAddress","type":"address"},{"internalType":"uint256","name":"votingPower","type":"uint256"}],"internalType":"struct DataTypes.VaultVotingPower[]","name":"against","type":"tuple[]"},{"components":[{"internalType":"address","name":"vaultAddress","type":"address"},{"internalType":"uint256","name":"votingPower","type":"uint256"}],"internalType":"struct DataTypes.VaultVotingPower[]","name":"abstentions","type":"tuple[]"}],"internalType":"struct DataTypes.VoteTotals","name":"","type":"tuple"}],"stateMutability":"view","type":"function"},{"inputs":[{"internalType":"contract IBoundedERC20WithEMA","name":"_bGYD","type":"address"},{"components":[{"internalType":"uint8","name":"actionLevelThreshold","type":"uint8"},{"internalType":"uint256","name":"emaThreshold","type":"uint256"},{"internalType":"uint256","name":"minBGYDSupply","type":"uint256"},{"internalType":"contract ITierStrategy","name":"tierStrategy","type":"address"}],"internalType":"struct DataTypes.LimitUpgradeabilityParameters","name":"_params","type":"tuple"}],"name":"initialize","outputs":[],"stateMutability":"nonpayable","type":"function"},{"inputs":[],"name":"limitUpgradeabilityParams","outputs":[{"internalType":"uint8","name":"actionLevelThreshold","type":"uint8"},{"internalType":"uint256","name":"emaThreshold","type":"uint256"},{"internalType":"uint256","name":"minBGYDSupply","type":"uint256"},{"internalType":"contract ITierStrategy","name":"tierStrategy","type":"address"}],"stateMutability":"view","type":"function"},{"inputs":[],"name":"listActiveProposals","outputs":[{"components":[{"internalType":"uint64","name":"createdAt","type":"uint64"},{"internalType":"uint64","name":"executableAt","type":"uint64"},{"internalType":"uint64","name":"votingEndsAt","type":"uint64"},{"internalType":"uint64","name":"voteThreshold","type":"uint64"},{"internalType":"uint64","name":"quorum","type":"uint64"},{"internalType":"uint16","name":"id","type":"uint16"},{"internalType":"uint8","name":"actionLevel","type":"uint8"},{"internalType":"address","name":"proposer","type":"address"},{"internalType":"enum DataTypes.Status","name":"status","type":"uint8"},{"components":[{"internalType":"address","name":"target","type":"address"},{"internalType":"bytes","name":"data","type":"bytes"}],"internalType":"struct DataTypes.ProposalAction[]","name":"actions","type":"tuple[]"}],"internalType":"struct DataTypes.Proposal[]","name":"","type":"tuple[]"}],"stateMutability":"view","type":"function"},{"inputs":[],"name":"listTimelockedProposals","outputs":[{"components":[{"internalType":"uint64","name":"createdAt","type":"uint64"},{"internalType":"uint64","name":"executableAt","type":"uint64"},{"internalType":"uint64","name":"votingEndsAt","type":"uint64"},{"internalType":"uint64","name":"voteThreshold","type":"uint64"},{"internalType":"uint64","name":"quorum","type":"uint64"},{"internalType":"uint16","name":"id","type":"uint16"},{"internalType":"uint8","name":"actionLevel","type":"uint8"},{"internalType":"address","name":"proposer","type":"address"},{"internalType":"enum DataTypes.Status","name":"status","type":"uint8"},{"components":[{"internalType":"address","name":"target","type":"address"},{"internalType":"bytes","name":"data","type":"bytes"}],"internalType":"struct DataTypes.ProposalAction[]","name":"actions","type":"tuple[]"}],"internalType":"struct DataTypes.Proposal[]","name":"","type":"tuple[]"}],"stateMutability":"view","type":"function"},{"inputs":[],"name":"multisig","outputs":[{"internalType":"address","name":"","type":"address"}],"stateMutability":"view","type":"function"},{"inputs":[],"name":"multisigSunsetAt","outputs":[{"internalType":"uint256","name":"","type":"uint256"}],"stateMutability":"view","type":"function"},{"inputs":[],"name":"proposalsCount","outputs":[{"internalType":"uint16","name":"","type":"uint16"}],"stateMutability":"view","type":"function"},{"inputs":[],"name":"sunsetMultisig","outputs":[],"stateMutability":"nonpayable","type":"function"},{"inputs":[{"internalType":"uint16","name":"proposalId","type":"uint16"}],"name":"tallyVote","outputs":[],"stateMutability":"nonpayable","type":"function"},{"inputs":[],"name":"tierer","outputs":[{"internalType":"contract ITierer","name":"","type":"address"}],"stateMutability":"view","type":"function"},{"inputs":[{"components":[{"internalType":"uint8","name":"actionLevelThreshold","type":"uint8"},{"internalType":"uint256","name":"emaThreshold","type":"uint256"},{"internalType":"uint256","name":"minBGYDSupply","type":"uint256"},{"internalType":"contract ITierStrategy","name":"tierStrategy","type":"address"}],"internalType":"struct DataTypes.LimitUpgradeabilityParameters","name":"_params","type":"tuple"}],"name":"updateLimitUpgradeabilityParams","outputs":[],"stateMutability":"nonpayable","type":"function"},{"inputs":[{"internalType":"uint16","name":"proposalId","type":"uint16"}],"name":"vetoProposal","outputs":[],"stateMutability":"nonpayable","type":"function"},{"inputs":[{"internalType":"uint16","name":"proposalId","type":"uint16"},{"internalType":"enum DataTypes.Ballot","name":"ballot","type":"uint8"}],"name":"vote","outputs":[],"stateMutability":"nonpayable","type":"function"},{"inputs":[],"name":"votingPowerAggregator","outputs":[{"internalType":"contract IVotingPowerAggregator","name":"","type":"address"}],"stateMutability":"view","type":"function"}],"bytecode":"60e06040523480156200001157600080fd5b50604051620040493803806200404983398101604081905262000034916200006b565b6001600160a01b0392831660805290821660a0521660c052620000bf565b6001600160a01b03811681146200006857600080fd5b50565b6000806000606084860312156200008157600080fd5b83516200008e8162000052565b6020850151909350620000a18162000052565b6040850151909250620000b48162000052565b809150509250925092565b60805160a05160c051613f066200014360003960008181610305015281816126d9015261278001526000818161036901528181610d5e01528181611a1d01528181611ac50152611dd3015260008181610251015281816109320152818161097401528181611333015281816113750152818161170a015261174c0152613f066000f3fe608060405234801561001057600080fd5b506004361061014d5760003560e01c80634c620631116100c35780637b5f78bd1161007c5780637b5f78bd14610351578063c1ab52cd14610364578063c36a4ad21461038b578063c3955c7b146103da578063cc7d76ce146103ef578063e14ff1081461040257600080fd5b80634c6206311461027357806352e5c19c146102bf5780635552005e146102d2578063595d53c314610300578063618bebfb14610327578063627759171461033a57600080fd5b806333f1cddf1161011557806333f1cddf146101e057806334e2c0a3146101f35780633ef8a9d5146101fb5780634333aea91461020e57806344ba3430146102215780634783c35b1461024c57600080fd5b806305a71743146101525780630a9f46ad14610167578063179d42501461018d5780631b64a010146101ad5780632f6675e4146101c0575b600080fd5b610165610160366004612f4d565b61040a565b005b6007546101759061ffff1681565b60405161ffff90911681526020015b60405180910390f35b6101a061019b366004612f4d565b61073f565b6040516101849190613152565b6101656101bb366004612f4d565b610927565b6101d36101ce366004612f4d565b610b09565b60405161018491906131b7565b6101656101ee366004613218565b610b4f565b610165611045565b610165610209366004612f4d565b61109c565b61016561021c366004613253565b611328565b600254610234906001600160a01b031681565b6040516001600160a01b039091168152602001610184565b6102347f000000000000000000000000000000000000000000000000000000000000000081565b6102b26102813660046132df565b6001600160a01b0382166000908152600e6020908152604080832061ffff8516845290915290205460ff1692915050565b6040516101849190613324565b6101656102cd36600461344e565b611636565b6102e56102e0366004612f4d565b6116a8565b60408051938452602084019290925290820152606001610184565b6102347f000000000000000000000000000000000000000000000000000000000000000081565b61016561033536600461346a565b6116ff565b61034360015481565b604051908152602001610184565b61016561035f366004613483565b6117f4565b6102347f000000000000000000000000000000000000000000000000000000000000000081565b6003546004546005546006546103ad9360ff169291906001600160a01b031684565b6040805160ff90951685526020850193909352918301526001600160a01b03166060820152608001610184565b6103e2611967565b60405161018491906134b0565b6101656103fd366004613253565b611980565b6103e2611f01565b61ffff81166000908152600c60205260408120805490916001600160401b0390911690036104535760405162461bcd60e51b815260040161044a90613512565b60405180910390fd5b600180820154600160f81b900460ff16600581111561047457610474612f68565b14801561048b575061048b600861ffff8416611f10565b6104d75760405162461bcd60e51b815260206004820181905260248201527f70726f706f73616c206973206e6f742063757272656e746c7920616374697665604482015260640161044a565b80546001600160401b03600160801b909104811642909116116105485760405162461bcd60e51b815260206004820152602360248201527f766f74696e67206973206f6e676f696e6720666f7220746869732070726f706f6044820152621cd85b60ea1b606482015260840161044a565b600080600061055684611f2b565b6001870154875493965091945092506001600160401b0380821692600160c01b9004169061058d90600160501b900460ff16612045565b156105b657600061059c612162565b80516040909101516001600160401b039182169450169150505b6000836105c3868861355f565b6105cd919061355f565b905082811015610658576001870180546001600160f81b0316600160f91b1790556105fd600861ffff8a16612208565b508761ffff167fadb6bd5b3af9aa1786cc943a70a5c9652675feaa93103347576f7f654aeb150588600101601f9054906101000a900460ff166001604051610646929190613572565b60405180910390a25050505050505050565b600080610665878961355f565b11156106825761067f610678878961355f565b8890612214565b90505b60008382106106ba57506001880180546001600160f81b0316600360f81b17905560036106b4600a61ffff8c16612233565b506106d5565b506001880180546001600160f81b0316600160f91b17905560025b6106e4600861ffff8c16612208565b50600189015460405161ffff8c16917fadb6bd5b3af9aa1786cc943a70a5c9652675feaa93103347576f7f654aeb15059161072b91600160f81b900460ff16908590613572565b60405180910390a250505050505050505050565b610747612ee2565b61ffff8083166000908152600c602090815260409182902082516101408101845281546001600160401b038082168352600160401b808304821695840195909552600160801b8204811695830195909552600160c01b9004841660608201526001820154938416608082015291830490931660a082015260ff600160501b8304811660c08301526001600160a01b03600160581b84041660e0830152909291610100840191600160f81b90910416600581111561080657610806612f68565b600581111561081757610817612f68565b815260200160028201805480602002602001604051908101604052809291908181526020016000905b82821015610919576000848152602090819020604080518082019091526002850290910180546001600160a01b03168252600181018054929391929184019161088890613596565b80601f01602080910402602001604051908101604052809291908181526020018280546108b490613596565b80156109015780601f106108d657610100808354040283529160200191610901565b820191906000526020600020905b8154815290600101906020018083116108e457829003601f168201915b50505050508152505081526020019060010190610840565b505050915250909392505050565b336001600160a01b037f000000000000000000000000000000000000000000000000000000000000000016146109a15760405163c55ddc9760e01b81523360048201526001600160a01b037f000000000000000000000000000000000000000000000000000000000000000016602482015260440161044a565b60015442106109c357604051637db668c960e11b815260040160405180910390fd5b61ffff81166000908152600c6020526040902080546001600160401b03166109fd5760405162461bcd60e51b815260040161044a90613512565b600180820154600160f81b900460ff166005811115610a1e57610a1e612f68565b1480610a49575060036001820154600160f81b900460ff166005811115610a4757610a47612f68565b145b610a9f5760405162461bcd60e51b815260206004820152602160248201527f70726f706f73616c206d75737420626520616374697665206f722071756575656044820152601960fa1b606482015260840161044a565b6001810180546001600160f81b0316600560f81b179055610ac5600861ffff8416612208565b50610ad5600a61ffff8416612208565b5060405161ffff8316907fb9016057e49c23c7ed1248a5f032d78553a8fd91d47430235ad549ff2e4c4c0190600090a25050565b610b2d60405180606001604052806060815260200160608152602001606081525090565b61ffff82166000908152600f60205260409020610b499061223f565b92915050565b61ffff82166000908152600c60205260408120805490916001600160401b039091169003610b8f5760405162461bcd60e51b815260040161044a90613512565b80546001600160401b03164211610be15760405162461bcd60e51b81526020600482015260166024820152751d9bdd1a5b99c81a185cc81b9bdd081cdd185c9d195960521b604482015260640161044a565b80546001600160401b03428116600160801b9092041611610c4e5760405162461bcd60e51b815260206004820152602160248201527f766f74696e6720697320636c6f736564206f6e20746869732070726f706f73616044820152601b60fa1b606482015260840161044a565b6000826003811115610c6257610c62612f68565b03610cc45760405162461bcd60e51b815260206004820152602c60248201527f62616c6c6f74206d757374206265206361737420466f722c20416761696e737460448201526b161037b91020b139ba30b4b760a11b606482015260840161044a565b61ffff83166000908152600d6020908152604080832080548251818502810185019093528083529192909190849084015b82821015610d4a576000848152602090819020604080516060810182526003860290920180546001600160a01b0316835260018082015484860152600290910154918301919091529083529092019101610cf5565b505084549293506000926001600160a01b037f000000000000000000000000000000000000000000000000000000000000000016925063a10202fc915033906001600160401b0316610d9b866122dc565b6040518463ffffffff1660e01b8152600401610db9939291906135d0565b600060405180830381865afa158015610dd6573d6000803e3d6000fd5b505050506040513d6000823e601f3d908101601f19168201604052610dfe919081019061365d565b336000908152600e6020908152604080832061ffff8a16845290915281205491925060ff9091169080826003811115610e3957610e39612f68565b14905060005b8351811015610fbd576000848281518110610e5c57610e5c613715565b6020026020010151905082610f3857805161ffff8a166000908152600f602052604081209091610ec69183886003811115610e9957610e99612f68565b6003811115610eaa57610eaa612f68565b815260200190815260200160002061239490919063ffffffff16565b915050610f358260000151836020015183610ee1919061372b565b61ffff8d166000908152600f6020526040812090896003811115610f0757610f07612f68565b6003811115610f1857610f18612f68565b81526020019081526020016000206123bb9092919063ffffffff16565b50505b805161ffff8a166000908152600f602052604081209091610f6691838c6003811115610e9957610e99612f68565b915050610fa78260000151836020015183610f81919061355f565b61ffff8d166000908152600f60205260408120908d6003811115610f0757610f07612f68565b5050508080610fb59061373e565b915050610e3f565b50336000908152600e6020908152604080832061ffff8b1684529091529020805487919060ff19166001836003811115610ff957610ff9612f68565b02179055508661ffff167f813d5173493e8596afc161a427c2269fc55fef4bf9d9ba4fff5e095d569a2ddc3388604051611034929190613757565b60405180910390a250505050505050565b33301461106d5760405163c55ddc9760e01b815233600482015230602482015260440161044a565b426001556040517ffb6cd192ba87532aa2e092fc504eb1973196d5f6e0b909ad70eb28810a51a49990600090a1565b61ffff81166000908152600c6020526040902080546001600160401b03166110d65760405162461bcd60e51b815260040161044a90613512565b60036001820154600160f81b900460ff1660058111156110f8576110f8612f68565b14801561110f575061110f600a61ffff8416611f10565b8015611130575080546001600160401b03600160401b909104811642909116115b6111915760405162461bcd60e51b815260206004820152602c60248201527f70726f706f73616c206d7573742062652071756575656420616e64207265616460448201526b7920746f206578656375746560a01b606482015260840161044a565b60005b60028201548110156112cd576112ba8260020182815481106111b8576111b8613715565b906000526020600020906002020160010180546111d490613596565b80601f016020809104026020016040519081016040528092919081815260200182805461120090613596565b801561124d5780601f106112225761010080835404028352916020019161124d565b820191906000526020600020905b81548152906001019060200180831161123057829003601f168201915b5050505050604051806040016040528060198152602001781c1c9bdc1bdcd85b08195e1958dd5d1a5bdb8819985a5b1959603a1b81525084600201848154811061129957611299613715565b60009182526020909120600290910201546001600160a01b031691906123d9565b50806112c58161373e565b915050611194565b506001810180546001600160f81b0316600160fa1b1790556112f4600a61ffff8416612208565b5060405161ffff8316907f92a8e27a614d1092a0e536cf3db1df4965fd891fe65492c53cca79dffb5419a890600090a25050565b336001600160a01b037f000000000000000000000000000000000000000000000000000000000000000016146113a25760405163c55ddc9760e01b81523360048201526001600160a01b037f000000000000000000000000000000000000000000000000000000000000000016602482015260440161044a565b60015442106113c457604051637db668c960e11b815260040160405180910390fd5b6007805460009161ffff90911690826113dc83613770565b82546101009290920a61ffff81810219909316918316021790915581166000818152600c6020526040902060018101805462ff000160401b600160f81b031916600160401b938402600160581b600160f81b0319161733600160581b0217808255825477ffffffffffffffff0000000000000000ffffffffffffffff1916426001600160401b0316908117600160801b82021767ffffffffffffffff60401b19169402939093178255929350916004916001600160f81b0316600160f81b83021790555060018101805467ffffffffffffffff1916905580546001600160c01b0316815560005b838110156115c05760008585838181106114df576114df613715565b90506020028101906114f19190613791565b6114fa90613861565b6002848101805460018082018355600092835260209283902085519290940290930180546001600160a01b0319166001600160a01b03909216919091178155908301519293508392909182019061155190826138bb565b5050506115ab8160200151604051806040016040528060198152602001781c1c9bdc1bdcd85b08195e1958dd5d1a5bdb8819985a5b1959603a1b81525083600001516001600160a01b03166123d99092919063ffffffff16565b505080806115b89061373e565b9150506114c3565b508161ffff167f54f76ba363ce9b1888f218ed79d176b3564d604adcdca9ec308a7266c164af343386866040516115f99392919061397a565b60405180910390a260405161ffff8316907f92a8e27a614d1092a0e536cf3db1df4965fd891fe65492c53cca79dffb5419a890600090a250505050565b33301461165e5760405163c55ddc9760e01b815233600482015230602482015260440161044a565b80516003805460ff191660ff9092169190911790556020810151600455604081015160055560600151600680546001600160a01b0319166001600160a01b03909216919091179055565b61ffff81166000908152600c602052604081208054829182916001600160401b031682036116e85760405162461bcd60e51b815260040161044a90613512565b6116f181611f2b565b935093509350509193909250565b336001600160a01b037f000000000000000000000000000000000000000000000000000000000000000016146117795760405163c55ddc9760e01b81523360048201526001600160a01b037f000000000000000000000000000000000000000000000000000000000000000016602482015260440161044a565b600154421061179b57604051637db668c960e11b815260040160405180910390fd5b6001805490829060006117ae838561355f565b90915550506001546040805183815260208101929092527fbb3008cca3ea5eac4f7ba44ed13f06c2447a2c09356a9bf8ae8886d9d16b7009910160405180910390a15050565b600054610100900460ff16158080156118145750600054600160ff909116105b8061182e5750303b15801561182e575060005460ff166001145b6118915760405162461bcd60e51b815260206004820152602e60248201527f496e697469616c697a61626c653a20636f6e747261637420697320616c72656160448201526d191e481a5b9a5d1a585b1a5e995960921b606482015260840161044a565b6000805460ff1916600117905580156118b4576000805461ff0019166101001790555b600280546001600160a01b038086166001600160a01b03199283161790925583516003805460ff90921660ff19909216919091179055602084015160045560408401516005556060840151600680549190931691161790556119196276a7004261355f565b6001558015611962576000805461ff0019169055604051600181527f7f26b83ff96e1f2b6a682f133852f6798a09c465da95921460cefb38474024989060200160405180910390a15b505050565b606061197b611976600a6123e8565b6123f5565b905090565b806119de5760405162461bcd60e51b815260206004820152602860248201527f63616e6e6f742063726561746520612070726f706f73616c2077697468206e6f60448201526720616374696f6e7360c01b606482015260840161044a565b60006119f26119ed8385613a6a565b612686565b9050611a018160a00151612045565b15611a1157611a0e612162565b90505b60006001600160a01b037f000000000000000000000000000000000000000000000000000000000000000016638ff400f433611a4e60014261372b565b6040516001600160e01b031960e085901b1681526001600160a01b0390921660048301526024820152604401600060405180830381865afa158015611a97573d6000803e3d6000fd5b505050506040513d6000823e601f3d908101601f19168201604052611abf919081019061365d565b905060007f00000000000000000000000000000000000000000000000000000000000000006001600160a01b0316633bef7abb836040518263ffffffff1660e01b8152600401611b0f9190613add565b602060405180830381865afa158015611b2c573d6000803e3d6000fd5b505050506040513d601f19601f82011682018060405250810190611b509190613b38565b905082602001516001600160401b03168111611bd6576040805162461bcd60e51b81526020600482015260248101919091527f70726f706f73657220646f65736e2774206861766520656e6f75676820766f7460448201527f696e6720706f77657220746f2070726f706f7365207468697320616374696f6e606482015260840161044a565b60808301514290600090611bf09063ffffffff1683613b51565b90506000856060015163ffffffff1682611c0a9190613b51565b60075461ffff166000818152600c6020526040902060018082018054835460a08d015162ff000160401b600160f81b0319909216600160401b968702600160581b600160f81b0319161733600160581b021760ff60501b198116600160501b60ff9094169390930292831784556001600160401b038b811677ffffffffffffffff0000000000000000ffffffffffffffff1990931692909217600160801b8b8416021767ffffffffffffffff60401b1916918816909602178455949550919390926aff00000000000000000001600160f81b03166001600160f81b0390911617600160f81b830217905550865160018201805467ffffffffffffffff19166001600160401b03928316179055604088015182546001600160c01b0316600160c01b919092160217815560005b88811015611d9d57816002018a8a83818110611d5457611d54613715565b9050602002810190611d669190613791565b815460018101835560009283526020909220909160020201611d888282613b71565b50508080611d959061373e565b915050611d36565b506001810154600160401b900461ffff166000908152600d6020526040808220815163151f92d360e01b81529151611e4f9391927f00000000000000000000000000000000000000000000000000000000000000006001600160a01b03169263151f92d3926004808401938290030181865afa158015611e21573d6000803e3d6000fd5b505050506040513d6000823e601f3d908101601f19168201604052611e499190810190613c8c565b9061287d565b8060010160089054906101000a900461ffff166001611e6e9190613d52565b6007805461ffff191661ffff9283161790556001820154611e9991600891600160401b900416612233565b506001810154604051600160401b820461ffff16917f54f76ba363ce9b1888f218ed79d176b3564d604adcdca9ec308a7266c164af3491611eee91600160581b90046001600160a01b0316908d908d9061397a565b60405180910390a2505050505050505050565b606061197b61197660086123e8565b600081815260018301602052604081205415155b9392505050565b6001810154600160401b900461ffff166000908152600d60209081526040808320805482518185028101850190935280835284938493849390929091849084015b82821015611fc1576000848152602090819020604080516060810182526003860290920180546001600160a01b0316835260018082015484860152600290910154918301919091529083529092019101611f6c565b50505060018088015461ffff600160401b909104166000908152600f6020526040812093945061201d925083915b600381111561200057612000612f68565b81526020019081526020016000208361294f90919063ffffffff16565b945061202c8160006002611fef565b935061203b8160006003611fef565b9496939550505050565b6002546000906001600160a01b0316158015906120d15750600554600254604080516318160ddd60e01b815290516001600160a01b03909216916318160ddd916004808201926020929091908290030181865afa1580156120aa573d6000803e3d6000fd5b505050506040513d601f19601f820116820180604052508101906120ce9190613b38565b10155b801561214b5750600480546002546040805163f91bde1f60e01b8152905192936001600160a01b039092169263f91bde1f928281019260209291908290030181865afa158015612125573d6000803e3d6000fd5b505050506040513d601f19601f820116820180604052508101906121499190613b38565b115b8015610b4957505060035460ff9081169116101590565b6040805160c081018252600080825260208201819052918101829052606081018290526080810182905260a0810191909152600654604051630c87fa5360e21b815260206004820152600060248201526001600160a01b039091169063321fe94c9060440160c060405180830381865afa1580156121e4573d6000803e3d6000fd5b505050506040513d601f19601f8201168201806040525081019061197b9190613d98565b6000611f2483836129e3565b600081612229670de0b6b3a764000085613e38565b611f249190613e4f565b6000611f248383612ad6565b61226360405180606001604052806060815260200160608152602001606081525090565b600160009081526020839052604081209061227d82612b25565b6002600090815260208690526040812091925061229982612b25565b600360009081526020889052604081209192506122b582612b25565b60408051606081018252968752602087019490945292850192909252509195945050505050565b80516060906000816001600160401b038111156122fb576122fb613337565b604051908082528060200260200182016040528015612324578160200160208202803683370190505b50905060005b8281101561238c5784818151811061234457612344613715565b60200260200101516000015182828151811061236257612362613715565b6001600160a01b0390921660209283029190910190910152806123848161373e565b91505061232a565b509392505050565b60008080806123ac866001600160a01b038716612c05565b909450925050505b9250929050565b60006123d1846001600160a01b03851684612c3f565b949350505050565b60606123d18484600085612c5c565b60606000611f2483612d37565b80516060906000816001600160401b0381111561241457612414613337565b60405190808252806020026020018201604052801561244d57816020015b61243a612ee2565b8152602001906001900390816124325790505b50905060005b8281101561238c57600c600086838151811061247157612471613715565b60209081029190910181015161ffff908116835282820193909352604091820160002082516101408101845281546001600160401b038082168352600160401b808304821695840195909552600160801b8204811695830195909552600160c01b9004841660608201526001820154938416608082015291830490931660a082015260ff600160501b8304811660c08301526001600160a01b03600160581b84041660e0830152909291610100840191600160f81b90910416600581111561253b5761253b612f68565b600581111561254c5761254c612f68565b815260200160028201805480602002602001604051908101604052809291908181526020016000905b8282101561264e576000848152602090819020604080518082019091526002850290910180546001600160a01b0316825260018101805492939192918401916125bd90613596565b80601f01602080910402602001604051908101604052809291908181526020018280546125e990613596565b80156126365780601f1061260b57610100808354040283529160200191612636565b820191906000526020600020905b81548152906001019060200180831161261957829003601f168201915b50505050508152505081526020019060010190612575565b505050508152505082828151811061266857612668613715565b6020026020010181905250808061267e9061373e565b915050612453565b6040805160c081018252600080825260208201819052918101829052606081018290526080810182905260a08101919091526000826000815181106126cd576126cd613715565b602002602001015190507f00000000000000000000000000000000000000000000000000000000000000006001600160a01b031663feb52af5826000015183602001516040518363ffffffff1660e01b815260040161272d929190613e71565b60c060405180830381865afa15801561274a573d6000803e3d6000fd5b505050506040513d601f19601f8201168201806040525081019061276e9190613d98565b915060015b83518110156128765760007f00000000000000000000000000000000000000000000000000000000000000006001600160a01b031663feb52af58684815181106127bf576127bf613715565b6020026020010151600001518785815181106127dd576127dd613715565b6020026020010151602001516040518363ffffffff1660e01b8152600401612806929190613e71565b60c060405180830381865afa158015612823573d6000803e3d6000fd5b505050506040513d601f19601f820116820180604052508101906128479190613d98565b90508360a0015160ff168160a0015160ff161115612863578093505b508061286e8161373e565b915050612773565b5050919050565b8054156128c45760405162461bcd60e51b815260206004820152601560248201527439ba37b930b3b29036bab9ba1031329031b632b0b760591b604482015260640161044a565b60005b825181101561196257818382815181106128e3576128e3613715565b602090810291909101810151825460018082018555600094855293839020825160039092020180546001600160a01b0319166001600160a01b039092169190911781559181015192820192909255604090910151600290910155806129478161373e565b9150506128c7565b6000805b83518110156129dc57600084828151811061297057612970613715565b60200260200101519050600061299382600001518661239490919063ffffffff16565b9150506129bb82602001516129b584604001518461221490919063ffffffff16565b90612d93565b6129c5908561355f565b9350505080806129d49061373e565b915050612953565b5092915050565b60008181526001830160205260408120548015612acc576000612a0760018361372b565b8554909150600090612a1b9060019061372b565b9050818114612a80576000866000018281548110612a3b57612a3b613715565b9060005260206000200154905080876000018481548110612a5e57612a5e613715565b6000918252602080832090910192909255918252600188019052604090208390555b8554869080612a9157612a91613e95565b600190038181906000526020600020016000905590558560010160008681526020019081526020016000206000905560019350505050610b49565b6000915050610b49565b6000818152600183016020526040812054612b1d57508154600181810184556000848152602080822090930184905584548482528286019093526040902091909155610b49565b506000610b49565b60606000612b3283612da8565b6001600160401b03811115612b4957612b49613337565b604051908082528060200260200182016040528015612b8e57816020015b6040805180820190915260008082526020820152815260200190600190039081612b675790505b50905060005b612b9d84612da8565b8110156129dc57600080612bb18684612db3565b915091506040518060400160405280836001600160a01b0316815260200182815250848481518110612be557612be5613715565b602002602001018190525050508080612bfd9061373e565b915050612b94565b6000818152600283016020526040812054819080612c3457612c278585612dc2565b9250600091506123b49050565b6001925090506123b4565b600082815260028401602052604081208290556123d18484612233565b606082471015612cbd5760405162461bcd60e51b815260206004820152602660248201527f416464726573733a20696e73756666696369656e742062616c616e636520666f6044820152651c8818d85b1b60d21b606482015260840161044a565b600080866001600160a01b03168587604051612cd99190613eab565b60006040518083038185875af1925050503d8060008114612d16576040519150601f19603f3d011682016040523d82523d6000602084013e612d1b565b606091505b5091509150612d2c87838387612dce565b979650505050505050565b606081600001805480602002602001604051908101604052809291908181526020018280548015612d8757602002820191906000526020600020905b815481526020019060010190808311612d73575b50505050509050919050565b6000670de0b6b3a76400006122298385613e38565b6000610b4982612e47565b60008080806123ac8686612e52565b6000611f248383611f10565b60608315612e3d578251600003612e36576001600160a01b0385163b612e365760405162461bcd60e51b815260206004820152601d60248201527f416464726573733a2063616c6c20746f206e6f6e2d636f6e7472616374000000604482015260640161044a565b50816123d1565b6123d18383612e7d565b6000610b4982612ea7565b60008080612e608585612eb1565b600081815260029690960160205260409095205494959350505050565b815115612e8d5781518083602001fd5b8060405162461bcd60e51b815260040161044a9190613ebd565b6000610b49825490565b6000611f2483836000826000018281548110612ecf57612ecf613715565b9060005260206000200154905092915050565b6040805161014081018252600080825260208201819052918101829052606081018290526080810182905260a0810182905260c0810182905260e08101829052906101008201908152602001606081525090565b803561ffff81168114612f4857600080fd5b919050565b600060208284031215612f5f57600080fd5b611f2482612f36565b634e487b7160e01b600052602160045260246000fd5b60068110612f8e57612f8e612f68565b9052565b60005b83811015612fad578181015183820152602001612f95565b50506000910152565b60008151808452612fce816020860160208601612f92565b601f01601f19169290920160200192915050565b600082825180855260208086019550808260051b84010181860160005b8481101561304a57858303601f19018952815180516001600160a01b03168452840151604085850181905261303681860183612fb6565b9a86019a9450505090830190600101612fff565b5090979650505050505050565b80516001600160401b031682526000610140602083015161308360208601826001600160401b03169052565b50604083015161309e60408601826001600160401b03169052565b5060608301516130b960608601826001600160401b03169052565b5060808301516130d460808601826001600160401b03169052565b5060a08301516130ea60a086018261ffff169052565b5060c08301516130ff60c086018260ff169052565b5060e083015161311a60e08601826001600160a01b03169052565b506101008084015161312e82870182612f7e565b505061012080840151828287015261314883870182612fe2565b9695505050505050565b602081526000611f246020830184613057565b600081518084526020808501945080840160005b838110156131ac57815180516001600160a01b031688526020908101519088015260408701965090820190600101613179565b509495945050505050565b6020815260008251606060208401526131d36080840182613165565b90506020840151601f19808584030160408601526131f18383613165565b925060408601519150808584030160608601525061320f8282613165565b95945050505050565b6000806040838503121561322b57600080fd5b61323483612f36565b915060208301356004811061324857600080fd5b809150509250929050565b6000806020838503121561326657600080fd5b82356001600160401b038082111561327d57600080fd5b818501915085601f83011261329157600080fd5b8135818111156132a057600080fd5b8660208260051b85010111156132b557600080fd5b60209290920196919550909350505050565b6001600160a01b03811681146132dc57600080fd5b50565b600080604083850312156132f257600080fd5b82356132fd816132c7565b915061330b60208401612f36565b90509250929050565b600481106132dc576132dc612f68565b6020810161333183613314565b91905290565b634e487b7160e01b600052604160045260246000fd5b604080519081016001600160401b038111828210171561336f5761336f613337565b60405290565b604051606081016001600160401b038111828210171561336f5761336f613337565b604051601f8201601f191681016001600160401b03811182821017156133bf576133bf613337565b604052919050565b60ff811681146132dc57600080fd5b6000608082840312156133e857600080fd5b604051608081018181106001600160401b038211171561340a5761340a613337565b604052905080823561341b816133c7565b8082525060208301356020820152604083013560408201526060830135613441816132c7565b6060919091015292915050565b60006080828403121561346057600080fd5b611f2483836133d6565b60006020828403121561347c57600080fd5b5035919050565b60008060a0838503121561349657600080fd5b82356134a1816132c7565b915061330b84602085016133d6565b6000602080830181845280855180835260408601915060408160051b870101925083870160005b8281101561350557603f198886030184526134f3858351613057565b945092850192908501906001016134d7565b5092979650505050505050565b60208082526017908201527f70726f706f73616c20646f6573206e6f74206578697374000000000000000000604082015260600190565b634e487b7160e01b600052601160045260246000fd5b80820180821115610b4957610b49613549565b604081016135808285612f7e565b61358983613314565b8260208301529392505050565b600181811c908216806135aa57607f821691505b6020821081036135ca57634e487b7160e01b600052602260045260246000fd5b50919050565b60006060820160018060a01b03808716845260206001600160401b0387168186015260606040860152828651808552608087019150828801945060005b8181101561362b57855185168352948301949183019160010161360d565b50909998505050505050505050565b60006001600160401b0382111561365357613653613337565b5060051b60200190565b6000602080838503121561367057600080fd5b82516001600160401b0381111561368657600080fd5b8301601f8101851361369757600080fd5b80516136aa6136a58261363a565b613397565b81815260069190911b820183019083810190878311156136c957600080fd5b928401925b82841015612d2c57604084890312156136e75760008081fd5b6136ef61334d565b84516136fa816132c7565b815284860151868201528252604090930192908401906136ce565b634e487b7160e01b600052603260045260246000fd5b81810381811115610b4957610b49613549565b60006001820161375057613750613549565b5060010190565b6001600160a01b03831681526040810161358983613314565b600061ffff80831681810361378757613787613549565b6001019392505050565b60008235603e198336030181126137a757600080fd5b9190910192915050565b6000604082840312156137c357600080fd5b6137cb61334d565b905081356137d8816132c7565b81526020828101356001600160401b03808211156137f557600080fd5b818501915085601f83011261380957600080fd5b81358181111561381b5761381b613337565b61382d601f8201601f19168501613397565b9150808252868482850101111561384357600080fd5b80848401858401376000908201840152918301919091525092915050565b6000610b4936836137b1565b601f82111561196257600081815260208120601f850160051c810160208610156138945750805b601f850160051c820191505b818110156138b3578281556001016138a0565b505050505050565b81516001600160401b038111156138d4576138d4613337565b6138e8816138e28454613596565b8461386d565b602080601f83116001811461391d57600084156139055750858301515b600019600386901b1c1916600185901b1785556138b3565b600085815260208120601f198616915b8281101561394c5788860151825594840194600190910190840161392d565b508582101561396a5787850151600019600388901b60f8161c191681555b5050505050600190811b01905550565b6001600160a01b03848116825260406020808401829052838201859052600092606091828601600588901b8701840189875b8a811015613a5957898303605f190184528135368d9003603e190181126139d257600080fd5b8c0180356139df816132c7565b871684528086013536829003601e190181126139fa57600080fd5b0185810190356001600160401b03811115613a1457600080fd5b803603821315613a2357600080fd5b8987860152808a86015280828a87013760008582018a015294860194601f01601f191690930187019250908401906001016139ac565b50909b9a5050505050505050505050565b6000613a786136a58461363a565b80848252602080830192508560051b850136811115613a9657600080fd5b855b81811015613ad15780356001600160401b03811115613ab75760008081fd5b613ac336828a016137b1565b865250938201938201613a98565b50919695505050505050565b6020808252825182820181905260009190848201906040850190845b81811015613b2c57835180516001600160a01b031684526020908101519084015260408301938501939250600101613af9565b50909695505050505050565b600060208284031215613b4a57600080fd5b5051919050565b6001600160401b038181168382160190808211156129dc576129dc613549565b8135613b7c816132c7565b81546001600160a01b0319166001600160a01b0391909116178155600181810160208481013536869003601e19018112613bb557600080fd5b850180356001600160401b03811115613bcd57600080fd5b8036038383011315613bde57600080fd5b613bf281613bec8654613596565b8661386d565b6000601f821160018114613c285760008315613c1057508382018501355b600019600385901b1c1916600184901b178655613c81565b600086815260209020601f19841690835b82811015613c5857868501880135825593870193908901908701613c39565b5084821015613c775760001960f88660031b161c198785880101351681555b50508683881b0186555b505050505050505050565b60006020808385031215613c9f57600080fd5b82516001600160401b03811115613cb557600080fd5b8301601f81018513613cc657600080fd5b8051613cd46136a58261363a565b81815260609182028301840191848201919088841115613cf357600080fd5b938501935b83851015613d465780858a031215613d105760008081fd5b613d18613375565b8551613d23816132c7565b815285870151878201526040808701519082015283529384019391850191613cf8565b50979650505050505050565b61ffff8181168382160190808211156129dc576129dc613549565b80516001600160401b0381168114612f4857600080fd5b805163ffffffff81168114612f4857600080fd5b600060c08284031215613daa57600080fd5b60405160c081018181106001600160401b0382111715613dcc57613dcc613337565b604052613dd883613d6d565b8152613de660208401613d6d565b6020820152613df760408401613d6d565b6040820152613e0860608401613d84565b6060820152613e1960808401613d84565b608082015260a0830151613e2c816133c7565b60a08201529392505050565b8082028115828204841417610b4957610b49613549565b600082613e6c57634e487b7160e01b600052601260045260246000fd5b500490565b6001600160a01b03831681526040602082018190526000906123d190830184612fb6565b634e487b7160e01b600052603160045260246000fd5b600082516137a7818460208701612f92565b602081526000611f246020830184612fb656fea2646970667358221220e406986f91fe0085e24ffad65d6fe89f515ff8234bdc2d4265901f4001684f9964736f6c63430008110033","bytecodeSha1":"a2b219efc7ff9a7ce88f0bea2a2e3058dc853472","compiler":{"evm_version":"istanbul","optimizer":{"enabled":true,"runs":200},"version":"0.8.17+commit.8df45f5f"},"contractName":"GovernanceManager","language":"Solidity","natspec":{"kind":"dev","methods":{},"version":1},"opcodes":"PUSH1 0x80 PUSH1 0x40 MSTORE CALLVALUE DUP1 ISZERO PUSH2 0x10 JUMPI PUSH1 0x0 DUP1 REVERT JUMPDEST POP PUSH1 0x4 CALLDATASIZE LT PUSH2 0x14D JUMPI PUSH1 0x0 CALLDATALOAD PUSH1 0xE0 SHR DUP1 PUSH4 0x4C620631 GT PUSH2 0xC3 JUMPI DUP1 PUSH4 0x7B5F78BD GT PUSH2 0x7C JUMPI DUP1 PUSH4 0x7B5F78BD EQ PUSH2 0x351 JUMPI DUP1 PUSH4 0xC1AB52CD EQ PUSH2 0x364 JUMPI DUP1 PUSH4 0xC36A4AD2 EQ PUSH2 0x38B JUMPI DUP1 PUSH4 0xC3955C7B EQ PUSH2 0x3DA JUMPI DUP1 PUSH4 0xCC7D76CE EQ PUSH2 0x3EF JUMPI DUP1 PUSH4 0xE14FF108 EQ PUSH2 0x402 JUMPI PUSH1 0x0 DUP1 REVERT JUMPDEST DUP1 PUSH4 0x4C620631 EQ PUSH2 0x273 JUMPI DUP1 PUSH4 0x52E5C19C EQ PUSH2 0x2BF JUMPI DUP1 PUSH4 0x5552005E EQ PUSH2 0x2D2 JUMPI DUP1 PUSH4 0x595D53C3 EQ PUSH2 0x300 JUMPI DUP1 PUSH4 0x618BEBFB EQ PUSH2 0x327 JUMPI DUP1 PUSH4 0x62775917 EQ PUSH2 0x33A JUMPI PUSH1 0x0 DUP1 REVERT JUMPDEST DUP1 PUSH4 0x33F1CDDF GT PUSH2 0x115 JUMPI DUP1 PUSH4 0x33F1CDDF EQ PUSH2 0x1E0 JUMPI DUP1 PUSH4 0x34E2C0A3 EQ PUSH2 0x1F3 JUMPI DUP1 PUSH4 0x3EF8A9D5 EQ PUSH2 0x1FB JUMPI DUP1 PUSH4 0x4333AEA9 EQ PUSH2 0x20E JUMPI DUP1 PUSH4 0x44BA3430 EQ PUSH2 0x221 JUMPI DUP1 PUSH4 0x4783C35B EQ PUSH2 0x24C JUMPI PUSH1 0x0 DUP1 REVERT JUMPDEST DUP1 PUSH4 0x5A71743 EQ PUSH2 0x152 JUMPI DUP1 PUSH4 0xA9F46AD EQ PUSH2 0x167 JUMPI DUP1 PUSH4 0x179D4250 EQ PUSH2 0x18D JUMPI DUP1 PUSH4 0x1B64A010 EQ PUSH2 0x1AD JUMPI DUP1 PUSH4 0x2F6675E4 EQ PUSH2 0x1C0 JUMPI JUMPDEST PUSH1 0x0 DUP1 REVERT JUMPDEST PUSH2 0x165 PUSH2 0x160 CALLDATASIZE PUSH1 0x4 PUSH2 0x2F4D JUMP JUMPDEST PUSH2 0x40A JUMP JUMPDEST STOP JUMPDEST PUSH1 0x7 SLOAD PUSH2 0x175 SWAP1 PUSH2 0xFFFF AND DUP2 JUMP JUMPDEST PUSH1 0x40 MLOAD PUSH2 0xFFFF SWAP1 SWAP2 AND DUP2 MSTORE PUSH1 0x20 ADD JUMPDEST PUSH1 0x40 MLOAD DUP1 SWAP2 SUB SWAP1 RETURN JUMPDEST PUSH2 0x1A0 PUSH2 0x19B CALLDATASIZE PUSH1 0x4 PUSH2 0x2F4D JUMP JUMPDEST PUSH2 0x73F JUMP JUMPDEST PUSH1 0x40 MLOAD PUSH2 0x184 SWAP2 SWAP1 PUSH2 0x3152 JUMP JUMPDEST PUSH2 0x165 PUSH2 0x1BB CALLDATASIZE PUSH1 0x4 PUSH2 0x2F4D JUMP JUMPDEST PUSH2 0x927 JUMP JUMPDEST PUSH2 0x1D3 PUSH2 0x1CE CALLDATASIZE PUSH1 0x4 PUSH2 0x2F4D JUMP JUMPDEST PUSH2 0xB09 JUMP JUMPDEST PUSH1 0x40 MLOAD PUSH2 0x184 SWAP2 SWAP1 PUSH2 0x31B7 JUMP JUMPDEST PUSH2 0x165 PUSH2 0x1EE CALLDATASIZE PUSH1 0x4 PUSH2 0x3218 JUMP JUMPDEST PUSH2 0xB4F JUMP JUMPDEST PUSH2 0x165 PUSH2 0x1045 JUMP JUMPDEST PUSH2 0x165 PUSH2 0x209 CALLDATASIZE PUSH1 0x4 PUSH2 0x2F4D JUMP JUMPDEST PUSH2 0x109C JUMP JUMPDEST PUSH2 0x165 PUSH2 0x21C CALLDATASIZE PUSH1 0x4 PUSH2 0x3253 JUMP JUMPDEST PUSH2 0x1328 JUMP JUMPDEST PUSH1 0x2 SLOAD PUSH2 0x234 SWAP1 PUSH1 0x1 PUSH1 0x1 PUSH1 0xA0 SHL SUB AND DUP2 JUMP JUMPDEST PUSH1 0x40 MLOAD PUSH1 0x1 PUSH1 0x1 PUSH1 0xA0 SHL SUB SWAP1 SWAP2 AND DUP2 MSTORE PUSH1 0x20 ADD PUSH2 0x184 JUMP JUMPDEST PUSH2 0x234 PUSH32 0x0 DUP2 JUMP JUMPDEST PUSH2 0x2B2 PUSH2 0x281 CALLDATASIZE PUSH1 0x4 PUSH2 0x32DF JUMP JUMPDEST PUSH1 0x1 PUSH1 0x1 PUSH1 0xA0 SHL SUB DUP3 AND PUSH1 0x0 SWAP1 DUP2 MSTORE PUSH1 0xE PUSH1 0x20 SWAP1 DUP2 MSTORE PUSH1 0x40 DUP1 DUP4 KECCAK256 PUSH2 0xFFFF DUP6 AND DUP5 MSTORE SWAP1 SWAP2 MSTORE SWAP1 KECCAK256 SLOAD PUSH1 0xFF AND SWAP3 SWAP2 POP POP JUMP JUMPDEST PUSH1 0x40 MLOAD PUSH2 0x184 SWAP2 SWAP1 PUSH2 0x3324 JUMP JUMPDEST PUSH2 0x165 PUSH2 0x2CD CALLDATASIZE PUSH1 0x4 PUSH2 0x344E JUMP JUMPDEST PUSH2 0x1636 JUMP JUMPDEST PUSH2 0x2E5 PUSH2 0x2E0 CALLDATASIZE PUSH1 0x4 PUSH2 0x2F4D JUMP JUMPDEST PUSH2 0x16A8 JUMP JUMPDEST PUSH1 0x40 DUP1 MLOAD SWAP4 DUP5 MSTORE PUSH1 0x20 DUP5 ADD SWAP3 SWAP1 SWAP3 MSTORE SWAP1 DUP3 ADD MSTORE PUSH1 0x60 ADD PUSH2 0x184 JUMP JUMPDEST PUSH2 0x234 PUSH32 0x0 DUP2 JUMP JUMPDEST PUSH2 0x165 PUSH2 0x335 CALLDATASIZE PUSH1 0x4 PUSH2 0x346A JUMP JUMPDEST PUSH2 0x16FF JUMP JUMPDEST PUSH2 0x343 PUSH1 0x1 SLOAD DUP2 JUMP JUMPDEST PUSH1 0x40 MLOAD SWAP1 DUP2 MSTORE PUSH1 0x20 ADD PUSH2 0x184 JUMP JUMPDEST PUSH2 0x165 PUSH2 0x35F CALLDATASIZE PUSH1 0x4 PUSH2 0x3483 JUMP JUMPDEST PUSH2 0x17F4 JUMP JUMPDEST PUSH2 0x234 PUSH32 0x0 DUP2 JUMP JUMPDEST PUSH1 0x3 SLOAD PUSH1 0x4 SLOAD PUSH1 0x5 SLOAD PUSH1 0x6 SLOAD PUSH2 0x3AD SWAP4 PUSH1 0xFF AND SWAP3 SWAP2 SWAP1 PUSH1 0x1 PUSH1 0x1 PUSH1 0xA0 SHL SUB AND DUP5 JUMP JUMPDEST PUSH1 0x40 DUP1 MLOAD PUSH1 0xFF SWAP1 SWAP6 AND DUP6 MSTORE PUSH1 0x20 DUP6 ADD SWAP4 SWAP1 SWAP4 MSTORE SWAP2 DUP4 ADD MSTORE PUSH1 0x1 PUSH1 0x1 PUSH1 0xA0 SHL SUB AND PUSH1 0x60 DUP3 ADD MSTORE PUSH1 0x80 ADD PUSH2 0x184 JUMP JUMPDEST PUSH2 0x3E2 PUSH2 0x1967 JUMP JUMPDEST PUSH1 0x40 MLOAD PUSH2 0x184 SWAP2 SWAP1 PUSH2 0x34B0 JUMP JUMPDEST PUSH2 0x165 PUSH2 0x3FD CALLDATASIZE PUSH1 0x4 PUSH2 0x3253 JUMP JUMPDEST PUSH2 0x1980 JUMP JUMPDEST PUSH2 0x3E2 PUSH2 0x1F01 JUMP JUMPDEST PUSH2 0xFFFF DUP2 AND PUSH1 0x0 SWAP1 DUP2 MSTORE PUSH1 0xC PUSH1 0x20 MSTORE PUSH1 0x40 DUP2 KECCAK256 DUP1 SLOAD SWAP1 SWAP2 PUSH1 0x1 PUSH1 0x1 PUSH1 0x40 SHL SUB SWAP1 SWAP2 AND SWAP1 SUB PUSH2 0x453 JUMPI PUSH1 0x40 MLOAD PUSH3 0x461BCD PUSH1 0xE5 SHL DUP2 MSTORE PUSH1 0x4 ADD PUSH2 0x44A SWAP1 PUSH2 0x3512 JUMP JUMPDEST PUSH1 0x40 MLOAD DUP1 SWAP2 SUB SWAP1 REVERT JUMPDEST PUSH1 0x1 DUP1 DUP3 ADD SLOAD PUSH1 0x1 PUSH1 0xF8 SHL SWAP1 DIV PUSH1 0xFF AND PUSH1 0x5 DUP2 GT ISZERO PUSH2 0x474 JUMPI PUSH2 0x474 PUSH2 0x2F68 JUMP JUMPDEST EQ DUP1 ISZERO PUSH2 0x48B JUMPI POP PUSH2 0x48B PUSH1 0x8 PUSH2 0xFFFF DUP5 AND PUSH2 0x1F10 JUMP JUMPDEST PUSH2 0x4D7 JUMPI PUSH1 0x40 MLOAD PUSH3 0x461BCD PUSH1 0xE5 SHL DUP2 MSTORE PUSH1 0x20 PUSH1 0x4 DUP3 ADD DUP2 SWAP1 MSTORE PUSH1 0x24 DUP3 ADD MSTORE PUSH32 0x70726F706F73616C206973206E6F742063757272656E746C7920616374697665 PUSH1 0x44 DUP3 ADD MSTORE PUSH1 0x64 ADD PUSH2 0x44A JUMP JUMPDEST DUP1 SLOAD PUSH1 0x1 PUSH1 0x1 PUSH1 0x40 SHL SUB PUSH1 0x1 PUSH1 0x80 SHL SWAP1 SWAP2 DIV DUP2 AND TIMESTAMP SWAP1 SWAP2 AND GT PUSH2 0x548 JUMPI PUSH1 0x40 MLOAD PUSH3 0x461BCD PUSH1 0xE5 SHL DUP2 MSTORE PUSH1 0x20 PUSH1 0x4 DUP3 ADD MSTORE PUSH1 0x23 PUSH1 0x24 DUP3 ADD MSTORE PUSH32 0x766F74696E67206973206F6E676F696E6720666F7220746869732070726F706F PUSH1 0x44 DUP3 ADD MSTORE PUSH3 0x1CD85B PUSH1 0xEA SHL PUSH1 0x64 DUP3 ADD MSTORE PUSH1 0x84 ADD PUSH2 0x44A JUMP JUMPDEST PUSH1 0x0 DUP1 PUSH1 0x0 PUSH2 0x556 DUP5 PUSH2 0x1F2B JUMP JUMPDEST PUSH1 0x1 DUP8 ADD SLOAD DUP8 SLOAD SWAP4 SWAP7 POP SWAP2 SWAP5 POP SWAP3 POP PUSH1 0x1 PUSH1 0x1 PUSH1 0x40 SHL SUB DUP1 DUP3 AND SWAP3 PUSH1 0x1 PUSH1 0xC0 SHL SWAP1 DIV AND SWAP1 PUSH2 0x58D SWAP1 PUSH1 0x1 PUSH1 0x50 SHL SWAP1 DIV PUSH1 0xFF AND PUSH2 0x2045 JUMP JUMPDEST ISZERO PUSH2 0x5B6 JUMPI PUSH1 0x0 PUSH2 0x59C PUSH2 0x2162 JUMP JUMPDEST DUP1 MLOAD PUSH1 0x40 SWAP1 SWAP2 ADD MLOAD PUSH1 0x1 PUSH1 0x1 PUSH1 0x40 SHL SUB SWAP2 DUP3 AND SWAP5 POP AND SWAP2 POP POP JUMPDEST PUSH1 0x0 DUP4 PUSH2 0x5C3 DUP7 DUP9 PUSH2 0x355F JUMP JUMPDEST PUSH2 0x5CD SWAP2 SWAP1 PUSH2 0x355F JUMP JUMPDEST SWAP1 POP DUP3 DUP2 LT ISZERO PUSH2 0x658 JUMPI PUSH1 0x1 DUP8 ADD DUP1 SLOAD PUSH1 0x1 PUSH1 0x1 PUSH1 0xF8 SHL SUB AND PUSH1 0x1 PUSH1 0xF9 SHL OR SWAP1 SSTORE PUSH2 0x5FD PUSH1 0x8 PUSH2 0xFFFF DUP11 AND PUSH2 0x2208 JUMP JUMPDEST POP DUP8 PUSH2 0xFFFF AND PUSH32 0xADB6BD5B3AF9AA1786CC943A70A5C9652675FEAA93103347576F7F654AEB1505 DUP9 PUSH1 0x1 ADD PUSH1 0x1F SWAP1 SLOAD SWAP1 PUSH2 0x100 EXP SWAP1 DIV PUSH1 0xFF AND PUSH1 0x1 PUSH1 0x40 MLOAD PUSH2 0x646 SWAP3 SWAP2 SWAP1 PUSH2 0x3572 JUMP JUMPDEST PUSH1 0x40 MLOAD DUP1 SWAP2 SUB SWAP1 LOG2 POP POP POP POP POP POP POP POP JUMP JUMPDEST PUSH1 0x0 DUP1 PUSH2 0x665 DUP8 DUP10 PUSH2 0x355F JUMP JUMPDEST GT ISZERO PUSH2 0x682 JUMPI PUSH2 0x67F PUSH2 0x678 DUP8 DUP10 PUSH2 0x355F JUMP JUMPDEST DUP9 SWAP1 PUSH2 0x2214 JUMP JUMPDEST SWAP1 POP JUMPDEST PUSH1 0x0 DUP4 DUP3 LT PUSH2 0x6BA JUMPI POP PUSH1 0x1 DUP9 ADD DUP1 SLOAD PUSH1 0x1 PUSH1 0x1 PUSH1 0xF8 SHL SUB AND PUSH1 0x3 PUSH1 0xF8 SHL OR SWAP1 SSTORE PUSH1 0x3 PUSH2 0x6B4 PUSH1 0xA PUSH2 0xFFFF DUP13 AND PUSH2 0x2233 JUMP JUMPDEST POP PUSH2 0x6D5 JUMP JUMPDEST POP PUSH1 0x1 DUP9 ADD DUP1 SLOAD PUSH1 0x1 PUSH1 0x1 PUSH1 0xF8 SHL SUB AND PUSH1 0x1 PUSH1 0xF9 SHL OR SWAP1 SSTORE PUSH1 0x2 JUMPDEST PUSH2 0x6E4 PUSH1 0x8 PUSH2 0xFFFF DUP13 AND PUSH2 0x2208 JUMP JUMPDEST POP PUSH1 0x1 DUP10 ADD SLOAD PUSH1 0x40 MLOAD PUSH2 0xFFFF DUP13 AND SWAP2 PUSH32 0xADB6BD5B3AF9AA1786CC943A70A5C9652675FEAA93103347576F7F654AEB1505 SWAP2 PUSH2 0x72B SWAP2 PUSH1 0x1 PUSH1 0xF8 SHL SWAP1 DIV PUSH1 0xFF AND SWAP1 DUP6 SWAP1 PUSH2 0x3572 JUMP JUMPDEST PUSH1 0x40 MLOAD DUP1 SWAP2 SUB SWAP1 LOG2 POP POP POP POP POP POP POP POP POP POP JUMP JUMPDEST PUSH2 0x747 PUSH2 0x2EE2 JUMP JUMPDEST PUSH2 0xFFFF DUP1 DUP4 AND PUSH1 0x0 SWAP1 DUP2 MSTORE PUSH1 0xC PUSH1 0x20 SWAP1 DUP2 MSTORE PUSH1 0x40 SWAP2 DUP3 SWAP1 KECCAK256 DUP3 MLOAD PUSH2 0x140 DUP2 ADD DUP5 MSTORE DUP2 SLOAD PUSH1 0x1 PUSH1 0x1 PUSH1 0x40 SHL SUB DUP1 DUP3 AND DUP4 MSTORE PUSH1 0x1 PUSH1 0x40 SHL DUP1 DUP4 DIV DUP3 AND SWAP6 DUP5 ADD SWAP6 SWAP1 SWAP6 MSTORE PUSH1 0x1 PUSH1 0x80 SHL DUP3 DIV DUP2 AND SWAP6 DUP4 ADD SWAP6 SWAP1 SWAP6 MSTORE PUSH1 0x1 PUSH1 0xC0 SHL SWAP1 DIV DUP5 AND PUSH1 0x60 DUP3 ADD MSTORE PUSH1 0x1 DUP3 ADD SLOAD SWAP4 DUP5 AND PUSH1 0x80 DUP3 ADD MSTORE SWAP2 DUP4 DIV SWAP1 SWAP4 AND PUSH1 0xA0 DUP3 ADD MSTORE PUSH1 0xFF PUSH1 0x1 PUSH1 0x50 SHL DUP4 DIV DUP2 AND PUSH1 0xC0 DUP4 ADD MSTORE PUSH1 0x1 PUSH1 0x1 PUSH1 0xA0 SHL SUB PUSH1 0x1 PUSH1 0x58 SHL DUP5 DIV AND PUSH1 0xE0 DUP4 ADD MSTORE SWAP1 SWAP3 SWAP2 PUSH2 0x100 DUP5 ADD SWAP2 PUSH1 0x1 PUSH1 0xF8 SHL SWAP1 SWAP2 DIV AND PUSH1 0x5 DUP2 GT ISZERO PUSH2 0x806 JUMPI PUSH2 0x806 PUSH2 0x2F68 JUMP JUMPDEST PUSH1 0x5 DUP2 GT ISZERO PUSH2 0x817 JUMPI PUSH2 0x817 PUSH2 0x2F68 JUMP JUMPDEST DUP2 MSTORE PUSH1 0x20 ADD PUSH1 0x2 DUP3 ADD DUP1 SLOAD DUP1 PUSH1 0x20 MUL PUSH1 0x20 ADD PUSH1 0x40 MLOAD SWAP1 DUP2 ADD PUSH1 0x40 MSTORE DUP1 SWAP3 SWAP2 SWAP1 DUP2 DUP2 MSTORE PUSH1 0x20 ADD PUSH1 0x0 SWAP1 JUMPDEST DUP3 DUP3 LT ISZERO PUSH2 0x919 JUMPI PUSH1 0x0 DUP5 DUP2 MSTORE PUSH1 0x20 SWAP1 DUP2 SWAP1 KECCAK256 PUSH1 0x40 DUP1 MLOAD DUP1 DUP3 ADD SWAP1 SWAP2 MSTORE PUSH1 0x2 DUP6 MUL SWAP1 SWAP2 ADD DUP1 SLOAD PUSH1 0x1 PUSH1 0x1 PUSH1 0xA0 SHL SUB AND DUP3 MSTORE PUSH1 0x1 DUP2 ADD DUP1 SLOAD SWAP3 SWAP4 SWAP2 SWAP3 SWAP2 DUP5 ADD SWAP2 PUSH2 0x888 SWAP1 PUSH2 0x3596 JUMP JUMPDEST DUP1 PUSH1 0x1F ADD PUSH1 0x20 DUP1 SWAP2 DIV MUL PUSH1 0x20 ADD PUSH1 0x40 MLOAD SWAP1 DUP2 ADD PUSH1 0x40 MSTORE DUP1 SWAP3 SWAP2 SWAP1 DUP2 DUP2 MSTORE PUSH1 0x20 ADD DUP3 DUP1 SLOAD PUSH2 0x8B4 SWAP1 PUSH2 0x3596 JUMP JUMPDEST DUP1 ISZERO PUSH2 0x901 JUMPI DUP1 PUSH1 0x1F LT PUSH2 0x8D6 JUMPI PUSH2 0x100 DUP1 DUP4 SLOAD DIV MUL DUP4 MSTORE SWAP2 PUSH1 0x20 ADD SWAP2 PUSH2 0x901 JUMP JUMPDEST DUP3 ADD SWAP2 SWAP1 PUSH1 0x0 MSTORE PUSH1 0x20 PUSH1 0x0 KECCAK256 SWAP1 JUMPDEST DUP2 SLOAD DUP2 MSTORE SWAP1 PUSH1 0x1 ADD SWAP1 PUSH1 0x20 ADD DUP1 DUP4 GT PUSH2 0x8E4 JUMPI DUP3 SWAP1 SUB PUSH1 0x1F AND DUP3 ADD SWAP2 JUMPDEST POP POP POP POP POP DUP2 MSTORE POP POP DUP2 MSTORE PUSH1 0x20 ADD SWAP1 PUSH1 0x1 ADD SWAP1 PUSH2 0x840 JUMP JUMPDEST POP POP POP SWAP2 MSTORE POP SWAP1 SWAP4 SWAP3 POP POP POP JUMP JUMPDEST CALLER PUSH1 0x1 PUSH1 0x1 PUSH1 0xA0 SHL SUB PUSH32 0x0 AND EQ PUSH2 0x9A1 JUMPI PUSH1 0x40 MLOAD PUSH4 0xC55DDC97 PUSH1 0xE0 SHL DUP2 MSTORE CALLER PUSH1 0x4 DUP3 ADD MSTORE PUSH1 0x1 PUSH1 0x1 PUSH1 0xA0 SHL SUB PUSH32 0x0 AND PUSH1 0x24 DUP3 ADD MSTORE PUSH1 0x44 ADD PUSH2 0x44A JUMP JUMPDEST PUSH1 0x1 SLOAD TIMESTAMP LT PUSH2 0x9C3 JUMPI PUSH1 0x40 MLOAD PUSH4 0x7DB668C9 PUSH1 0xE1 SHL DUP2 MSTORE PUSH1 0x4 ADD PUSH1 0x40 MLOAD DUP1 SWAP2 SUB SWAP1 REVERT JUMPDEST PUSH2 0xFFFF DUP2 AND PUSH1 0x0 SWAP1 DUP2 MSTORE PUSH1 0xC PUSH1 0x20 MSTORE PUSH1 0x40 SWAP1 KECCAK256 DUP1 SLOAD PUSH1 0x1 PUSH1 0x1 PUSH1 0x40 SHL SUB AND PUSH2 0x9FD JUMPI PUSH1 0x40 MLOAD PUSH3 0x461BCD PUSH1 0xE5 SHL DUP2 MSTORE PUSH1 0x4 ADD PUSH2 0x44A SWAP1 PUSH2 0x3512 JUMP JUMPDEST PUSH1 0x1 DUP1 DUP3 ADD SLOAD PUSH1 0x1 PUSH1 0xF8 SHL SWAP1 DIV PUSH1 0xFF AND PUSH1 0x5 DUP2 GT ISZERO PUSH2 0xA1E JUMPI PUSH2 0xA1E PUSH2 0x2F68 JUMP JUMPDEST EQ DUP1 PUSH2 0xA49 JUMPI POP PUSH1 0x3 PUSH1 0x1 DUP3 ADD SLOAD PUSH1 0x1 PUSH1 0xF8 SHL SWAP1 DIV PUSH1 0xFF AND PUSH1 0x5 DUP2 GT ISZERO PUSH2 0xA47 JUMPI PUSH2 0xA47 PUSH2 0x2F68 JUMP JUMPDEST EQ JUMPDEST PUSH2 0xA9F JUMPI PUSH1 0x40 MLOAD PUSH3 0x461BCD PUSH1 0xE5 SHL DUP2 MSTORE PUSH1 0x20 PUSH1 0x4 DUP3 ADD MSTORE PUSH1 0x21 PUSH1 0x24 DUP3 ADD MSTORE PUSH32 0x70726F706F73616C206D75737420626520616374697665206F72207175657565 PUSH1 0x44 DUP3 ADD MSTORE PUSH1 0x19 PUSH1 0xFA SHL PUSH1 0x64 DUP3 ADD MSTORE PUSH1 0x84 ADD PUSH2 0x44A JUMP JUMPDEST PUSH1 0x1 DUP2 ADD DUP1 SLOAD PUSH1 0x1 PUSH1 0x1 PUSH1 0xF8 SHL SUB AND PUSH1 0x5 PUSH1 0xF8 SHL OR SWAP1 SSTORE PUSH2 0xAC5 PUSH1 0x8 PUSH2 0xFFFF DUP5 AND PUSH2 0x2208 JUMP JUMPDEST POP PUSH2 0xAD5 PUSH1 0xA PUSH2 0xFFFF DUP5 AND PUSH2 0x2208 JUMP JUMPDEST POP PUSH1 0x40 MLOAD PUSH2 0xFFFF DUP4 AND SWAP1 PUSH32 0xB9016057E49C23C7ED1248A5F032D78553A8FD91D47430235AD549FF2E4C4C01 SWAP1 PUSH1 0x0 SWAP1 LOG2 POP POP JUMP JUMPDEST PUSH2 0xB2D PUSH1 0x40 MLOAD DUP1 PUSH1 0x60 ADD PUSH1 0x40 MSTORE DUP1 PUSH1 0x60 DUP2 MSTORE PUSH1 0x20 ADD PUSH1 0x60 DUP2 MSTORE PUSH1 0x20 ADD PUSH1 0x60 DUP2 MSTORE POP SWAP1 JUMP JUMPDEST PUSH2 0xFFFF DUP3 AND PUSH1 0x0 SWAP1 DUP2 MSTORE PUSH1 0xF PUSH1 0x20 MSTORE PUSH1 0x40 SWAP1 KECCAK256 PUSH2 0xB49 SWAP1 PUSH2 0x223F JUMP JUMPDEST SWAP3 SWAP2 POP POP JUMP JUMPDEST PUSH2 0xFFFF DUP3 AND PUSH1 0x0 SWAP1 DUP2 MSTORE PUSH1 0xC PUSH1 0x20 MSTORE PUSH1 0x40 DUP2 KECCAK256 DUP1 SLOAD SWAP1 SWAP2 PUSH1 0x1 PUSH1 0x1 PUSH1 0x40 SHL SUB SWAP1 SWAP2 AND SWAP1 SUB PUSH2 0xB8F JUMPI PUSH1 0x40 MLOAD PUSH3 0x461BCD PUSH1 0xE5 SHL DUP2 MSTORE PUSH1 0x4 ADD PUSH2 0x44A SWAP1 PUSH2 0x3512 JUMP JUMPDEST DUP1 SLOAD PUSH1 0x1 PUSH1 0x1 PUSH1 0x40 SHL SUB AND TIMESTAMP GT PUSH2 0xBE1 JUMPI PUSH1 0x40 MLOAD PUSH3 0x461BCD PUSH1 0xE5 SHL DUP2 MSTORE PUSH1 0x20 PUSH1 0x4 DUP3 ADD MSTORE PUSH1 0x16 PUSH1 0x24 DUP3 ADD MSTORE PUSH22 0x1D9BDD1A5B99C81A185CC81B9BDD081CDD185C9D1959 PUSH1 0x52 SHL PUSH1 0x44 DUP3 ADD MSTORE PUSH1 0x64 ADD PUSH2 0x44A JUMP JUMPDEST DUP1 SLOAD PUSH1 0x1 PUSH1 0x1 PUSH1 0x40 SHL SUB TIMESTAMP DUP2 AND PUSH1 0x1 PUSH1 0x80 SHL SWAP1 SWAP3 DIV AND GT PUSH2 0xC4E JUMPI PUSH1 0x40 MLOAD PUSH3 0x461BCD PUSH1 0xE5 SHL DUP2 MSTORE PUSH1 0x20 PUSH1 0x4 DUP3 ADD MSTORE PUSH1 0x21 PUSH1 0x24 DUP3 ADD MSTORE PUSH32 0x766F74696E6720697320636C6F736564206F6E20746869732070726F706F7361 PUSH1 0x44 DUP3 ADD MSTORE PUSH1 0x1B PUSH1 0xFA SHL PUSH1 0x64 DUP3 ADD MSTORE PUSH1 0x84 ADD PUSH2 0x44A JUMP JUMPDEST PUSH1 0x0 DUP3 PUSH1 0x3 DUP2 GT ISZERO PUSH2 0xC62 JUMPI PUSH2 0xC62 PUSH2 0x2F68 JUMP JUMPDEST SUB PUSH2 0xCC4 JUMPI PUSH1 0x40 MLOAD PUSH3 0x461BCD PUSH1 0xE5 SHL DUP2 MSTORE PUSH1 0x20 PUSH1 0x4 DUP3 ADD MSTORE PUSH1 0x2C PUSH1 0x24 DUP3 ADD MSTORE PUSH32 0x62616C6C6F74206D757374206265206361737420466F722C20416761696E7374 PUSH1 0x44 DUP3 ADD MSTORE PUSH12 0x161037B91020B139BA30B4B7 PUSH1 0xA1 SHL PUSH1 0x64 DUP3 ADD MSTORE PUSH1 0x84 ADD PUSH2 0x44A JUMP JUMPDEST PUSH2 0xFFFF DUP4 AND PUSH1 0x0 SWAP1 DUP2 MSTORE PUSH1 0xD PUSH1 0x20 SWAP1 DUP2 MSTORE PUSH1 0x40 DUP1 DUP4 KECCAK256 DUP1 SLOAD DUP3 MLOAD DUP2 DUP6 MUL DUP2 ADD DUP6 ADD SWAP1 SWAP4 MSTORE DUP1 DUP4 MSTORE SWAP2 SWAP3 SWAP1 SWAP2 SWAP1 DUP5 SWAP1 DUP5 ADD JUMPDEST DUP3 DUP3 LT ISZERO PUSH2 0xD4A JUMPI PUSH1 0x0 DUP5 DUP2 MSTORE PUSH1 0x20 SWAP1 DUP2 SWAP1 KECCAK256 PUSH1 0x40 DUP1 MLOAD PUSH1 0x60 DUP2 ADD DUP3 MSTORE PUSH1 0x3 DUP7 MUL SWAP1 SWAP3 ADD DUP1 SLOAD PUSH1 0x1 PUSH1 0x1 PUSH1 0xA0 SHL SUB AND DUP4 MSTORE PUSH1 0x1 DUP1 DUP3 ADD SLOAD DUP5 DUP7 ADD MSTORE PUSH1 0x2 SWAP1 SWAP2 ADD SLOAD SWAP2 DUP4 ADD SWAP2 SWAP1 SWAP2 MSTORE SWAP1 DUP4 MSTORE SWAP1 SWAP3 ADD SWAP2 ADD PUSH2 0xCF5 JUMP JUMPDEST POP POP DUP5 SLOAD SWAP3 SWAP4 POP PUSH1 0x0 SWAP3 PUSH1 0x1 PUSH1 0x1 PUSH1 0xA0 SHL SUB PUSH32 0x0 AND SWAP3 POP PUSH4 0xA10202FC SWAP2 POP CALLER SWAP1 PUSH1 0x1 PUSH1 0x1 PUSH1 0x40 SHL SUB AND PUSH2 0xD9B DUP7 PUSH2 0x22DC JUMP JUMPDEST PUSH1 0x40 MLOAD DUP5 PUSH4 0xFFFFFFFF AND PUSH1 0xE0 SHL DUP2 MSTORE PUSH1 0x4 ADD PUSH2 0xDB9 SWAP4 SWAP3 SWAP2 SWAP1 PUSH2 0x35D0 JUMP JUMPDEST PUSH1 0x0 PUSH1 0x40 MLOAD DUP1 DUP4 SUB DUP2 DUP7 GAS STATICCALL ISZERO DUP1 ISZERO PUSH2 0xDD6 JUMPI RETURNDATASIZE PUSH1 0x0 DUP1 RETURNDATACOPY RETURNDATASIZE PUSH1 0x0 REVERT JUMPDEST POP POP POP POP PUSH1 0x40 MLOAD RETURNDATASIZE PUSH1 0x0 DUP3 RETURNDATACOPY PUSH1 0x1F RETURNDATASIZE SWAP1 DUP2 ADD PUSH1 0x1F NOT AND DUP3 ADD PUSH1 0x40 MSTORE PUSH2 0xDFE SWAP2 SWAP1 DUP2 ADD SWAP1 PUSH2 0x365D JUMP JUMPDEST CALLER PUSH1 0x0 SWAP1 DUP2 MSTORE PUSH1 0xE PUSH1 0x20 SWAP1 DUP2 MSTORE PUSH1 0x40 DUP1 DUP4 KECCAK256 PUSH2 0xFFFF DUP11 AND DUP5 MSTORE SWAP1 SWAP2 MSTORE DUP2 KECCAK256 SLOAD SWAP2 SWAP3 POP PUSH1 0xFF SWAP1 SWAP2 AND SWAP1 DUP1 DUP3 PUSH1 0x3 DUP2 GT ISZERO PUSH2 0xE39 JUMPI PUSH2 0xE39 PUSH2 0x2F68 JUMP JUMPDEST EQ SWAP1 POP PUSH1 0x0 JUMPDEST DUP4 MLOAD DUP2 LT ISZERO PUSH2 0xFBD JUMPI PUSH1 0x0 DUP5 DUP3 DUP2 MLOAD DUP2 LT PUSH2 0xE5C JUMPI PUSH2 0xE5C PUSH2 0x3715 JUMP JUMPDEST PUSH1 0x20 MUL PUSH1 0x20 ADD ADD MLOAD SWAP1 POP DUP3 PUSH2 0xF38 JUMPI DUP1 MLOAD PUSH2 0xFFFF DUP11 AND PUSH1 0x0 SWAP1 DUP2 MSTORE PUSH1 0xF PUSH1 0x20 MSTORE PUSH1 0x40 DUP2 KECCAK256 SWAP1 SWAP2 PUSH2 0xEC6 SWAP2 DUP4 DUP9 PUSH1 0x3 DUP2 GT ISZERO PUSH2 0xE99 JUMPI PUSH2 0xE99 PUSH2 0x2F68 JUMP JUMPDEST PUSH1 0x3 DUP2 GT ISZERO PUSH2 0xEAA JUMPI PUSH2 0xEAA PUSH2 0x2F68 JUMP JUMPDEST DUP2 MSTORE PUSH1 0x20 ADD SWAP1 DUP2 MSTORE PUSH1 0x20 ADD PUSH1 0x0 KECCAK256 PUSH2 0x2394 SWAP1 SWAP2 SWAP1 PUSH4 0xFFFFFFFF AND JUMP JUMPDEST SWAP2 POP POP PUSH2 0xF35 DUP3 PUSH1 0x0 ADD MLOAD DUP4 PUSH1 0x20 ADD MLOAD DUP4 PUSH2 0xEE1 SWAP2 SWAP1 PUSH2 0x372B JUMP JUMPDEST PUSH2 0xFFFF DUP14 AND PUSH1 0x0 SWAP1 DUP2 MSTORE PUSH1 0xF PUSH1 0x20 MSTORE PUSH1 0x40 DUP2 KECCAK256 SWAP1 DUP10 PUSH1 0x3 DUP2 GT ISZERO PUSH2 0xF07 JUMPI PUSH2 0xF07 PUSH2 0x2F68 JUMP JUMPDEST PUSH1 0x3 DUP2 GT ISZERO PUSH2 0xF18 JUMPI PUSH2 0xF18 PUSH2 0x2F68 JUMP JUMPDEST DUP2 MSTORE PUSH1 0x20 ADD SWAP1 DUP2 MSTORE PUSH1 0x20 ADD PUSH1 0x0 KECCAK256 PUSH2 0x23BB SWAP1 SWAP3 SWAP2 SWAP1 PUSH4 0xFFFFFFFF AND JUMP JUMPDEST POP POP JUMPDEST DUP1 MLOAD PUSH2 0xFFFF DUP11 AND PUSH1 0x0 SWAP1 DUP2 MSTORE PUSH1 0xF PUSH1 0x20 MSTORE PUSH1 0x40 DUP2 KECCAK256 SWAP1 SWAP2 PUSH2 0xF66 SWAP2 DUP4 DUP13 PUSH1 0x3 DUP2 GT ISZERO PUSH2 0xE99 JUMPI PUSH2 0xE99 PUSH2 0x2F68 JUMP JUMPDEST SWAP2 POP POP PUSH2 0xFA7 DUP3 PUSH1 0x0 ADD MLOAD DUP4 PUSH1 0x20 ADD MLOAD DUP4 PUSH2 0xF81 SWAP2 SWAP1 PUSH2 0x355F JUMP JUMPDEST PUSH2 0xFFFF DUP14 AND PUSH1 0x0 SWAP1 DUP2 MSTORE PUSH1 0xF PUSH1 0x20 MSTORE PUSH1 0x40 DUP2 KECCAK256 SWAP1 DUP14 PUSH1 0x3 DUP2 GT ISZERO PUSH2 0xF07 JUMPI PUSH2 0xF07 PUSH2 0x2F68 JUMP JUMPDEST POP POP POP DUP1 DUP1 PUSH2 0xFB5 SWAP1 PUSH2 0x373E JUMP JUMPDEST SWAP2 POP POP PUSH2 0xE3F JUMP JUMPDEST POP CALLER PUSH1 0x0 SWAP1 DUP2 MSTORE PUSH1 0xE PUSH1 0x20 SWAP1 DUP2 MSTORE PUSH1 0x40 DUP1 DUP4 KECCAK256 PUSH2 0xFFFF DUP12 AND DUP5 MSTORE SWAP1 SWAP2 MSTORE SWAP1 KECCAK256 DUP1 SLOAD DUP8 SWAP2 SWAP1 PUSH1 0xFF NOT AND PUSH1 0x1 DUP4 PUSH1 0x3 DUP2 GT ISZERO PUSH2 0xFF9 JUMPI PUSH2 0xFF9 PUSH2 0x2F68 JUMP JUMPDEST MUL OR SWAP1 SSTORE POP DUP7 PUSH2 0xFFFF AND PUSH32 0x813D5173493E8596AFC161A427C2269FC55FEF4BF9D9BA4FFF5E095D569A2DDC CALLER DUP9 PUSH1 0x40 MLOAD PUSH2 0x1034 SWAP3 SWAP2 SWAP1 PUSH2 0x3757 JUMP JUMPDEST PUSH1 0x40 MLOAD DUP1 SWAP2 SUB SWAP1 LOG2 POP POP POP POP POP POP POP JUMP JUMPDEST CALLER ADDRESS EQ PUSH2 0x106D JUMPI PUSH1 0x40 MLOAD PUSH4 0xC55DDC97 PUSH1 0xE0 SHL DUP2 MSTORE CALLER PUSH1 0x4 DUP3 ADD MSTORE ADDRESS PUSH1 0x24 DUP3 ADD MSTORE PUSH1 0x44 ADD PUSH2 0x44A JUMP JUMPDEST TIMESTAMP PUSH1 0x1 SSTORE PUSH1 0x40 MLOAD PUSH32 0xFB6CD192BA87532AA2E092FC504EB1973196D5F6E0B909AD70EB28810A51A499 SWAP1 PUSH1 0x0 SWAP1 LOG1 JUMP JUMPDEST PUSH2 0xFFFF DUP2 AND PUSH1 0x0 SWAP1 DUP2 MSTORE PUSH1 0xC PUSH1 0x20 MSTORE PUSH1 0x40 SWAP1 KECCAK256 DUP1 SLOAD PUSH1 0x1 PUSH1 0x1 PUSH1 0x40 SHL SUB AND PUSH2 0x10D6 JUMPI PUSH1 0x40 MLOAD PUSH3 0x461BCD PUSH1 0xE5 SHL DUP2 MSTORE PUSH1 0x4 ADD PUSH2 0x44A SWAP1 PUSH2 0x3512 JUMP JUMPDEST PUSH1 0x3 PUSH1 0x1 DUP3 ADD SLOAD PUSH1 0x1 PUSH1 0xF8 SHL SWAP1 DIV PUSH1 0xFF AND PUSH1 0x5 DUP2 GT ISZERO PUSH2 0x10F8 JUMPI PUSH2 0x10F8 PUSH2 0x2F68 JUMP JUMPDEST EQ DUP1 ISZERO PUSH2 0x110F JUMPI POP PUSH2 0x110F PUSH1 0xA PUSH2 0xFFFF DUP5 AND PUSH2 0x1F10 JUMP JUMPDEST DUP1 ISZERO PUSH2 0x1130 JUMPI POP DUP1 SLOAD PUSH1 0x1 PUSH1 0x1 PUSH1 0x40 SHL SUB PUSH1 0x1 PUSH1 0x40 SHL SWAP1 SWAP2 DIV DUP2 AND TIMESTAMP SWAP1 SWAP2 AND GT JUMPDEST PUSH2 0x1191 JUMPI PUSH1 0x40 MLOAD PUSH3 0x461BCD PUSH1 0xE5 SHL DUP2 MSTORE PUSH1 0x20 PUSH1 0x4 DUP3 ADD MSTORE PUSH1 0x2C PUSH1 0x24 DUP3 ADD MSTORE PUSH32 0x70726F706F73616C206D7573742062652071756575656420616E642072656164 PUSH1 0x44 DUP3 ADD MSTORE PUSH12 0x7920746F2065786563757465 PUSH1 0xA0 SHL PUSH1 0x64 DUP3 ADD MSTORE PUSH1 0x84 ADD PUSH2 0x44A JUMP JUMPDEST PUSH1 0x0 JUMPDEST PUSH1 0x2 DUP3 ADD SLOAD DUP2 LT ISZERO PUSH2 0x12CD JUMPI PUSH2 0x12BA DUP3 PUSH1 0x2 ADD DUP3 DUP2 SLOAD DUP2 LT PUSH2 0x11B8 JUMPI PUSH2 0x11B8 PUSH2 0x3715 JUMP JUMPDEST SWAP1 PUSH1 0x0 MSTORE PUSH1 0x20 PUSH1 0x0 KECCAK256 SWAP1 PUSH1 0x2 MUL ADD PUSH1 0x1 ADD DUP1 SLOAD PUSH2 0x11D4 SWAP1 PUSH2 0x3596 JUMP JUMPDEST DUP1 PUSH1 0x1F ADD PUSH1 0x20 DUP1 SWAP2 DIV MUL PUSH1 0x20 ADD PUSH1 0x40 MLOAD SWAP1 DUP2 ADD PUSH1 0x40 MSTORE DUP1 SWAP3 SWAP2 SWAP1 DUP2 DUP2 MSTORE PUSH1 0x20 ADD DUP3 DUP1 SLOAD PUSH2 0x1200 SWAP1 PUSH2 0x3596 JUMP JUMPDEST DUP1 ISZERO PUSH2 0x124D JUMPI DUP1 PUSH1 0x1F LT PUSH2 0x1222 JUMPI PUSH2 0x100 DUP1 DUP4 SLOAD DIV MUL DUP4 MSTORE SWAP2 PUSH1 0x20 ADD SWAP2 PUSH2 0x124D JUMP JUMPDEST DUP3 ADD SWAP2 SWAP1 PUSH1 0x0 MSTORE PUSH1 0x20 PUSH1 0x0 KECCAK256 SWAP1 JUMPDEST DUP2 SLOAD DUP2 MSTORE SWAP1 PUSH1 0x1 ADD SWAP1 PUSH1 0x20 ADD DUP1 DUP4 GT PUSH2 0x1230 JUMPI DUP3 SWAP1 SUB PUSH1 0x1F AND DUP3 ADD SWAP2 JUMPDEST POP POP POP POP POP PUSH1 0x40 MLOAD DUP1 PUSH1 0x40 ADD PUSH1 0x40 MSTORE DUP1 PUSH1 0x19 DUP2 MSTORE PUSH1 0x20 ADD PUSH25 0x1C1C9BDC1BDCD85B08195E1958DD5D1A5BDB8819985A5B1959 PUSH1 0x3A SHL DUP2 MSTORE POP DUP5 PUSH1 0x2 ADD DUP5 DUP2 SLOAD DUP2 LT PUSH2 0x1299 JUMPI PUSH2 0x1299 PUSH2 0x3715 JUMP JUMPDEST PUSH1 0x0 SWAP2 DUP3 MSTORE PUSH1 0x20 SWAP1 SWAP2 KECCAK256 PUSH1 0x2 SWAP1 SWAP2 MUL ADD SLOAD PUSH1 0x1 PUSH1 0x1 PUSH1 0xA0 SHL SUB AND SWAP2 SWAP1 PUSH2 0x23D9 JUMP JUMPDEST POP DUP1 PUSH2 0x12C5 DUP2 PUSH2 0x373E JUMP JUMPDEST SWAP2 POP POP PUSH2 0x1194 JUMP JUMPDEST POP PUSH1 0x1 DUP2 ADD DUP1 SLOAD PUSH1 0x1 PUSH1 0x1 PUSH1 0xF8 SHL SUB AND PUSH1 0x1 PUSH1 0xFA SHL OR SWAP1 SSTORE PUSH2 0x12F4 PUSH1 0xA PUSH2 0xFFFF DUP5 AND PUSH2 0x2208 JUMP JUMPDEST POP PUSH1 0x40 MLOAD PUSH2 0xFFFF DUP4 AND SWAP1 PUSH32 0x92A8E27A614D1092A0E536CF3DB1DF4965FD891FE65492C53CCA79DFFB5419A8 SWAP1 PUSH1 0x0 SWAP1 LOG2 POP POP JUMP JUMPDEST CALLER PUSH1 0x1 PUSH1 0x1 PUSH1 0xA0 SHL SUB PUSH32 0x0 AND EQ PUSH2 0x13A2 JUMPI PUSH1 0x40 MLOAD PUSH4 0xC55DDC97 PUSH1 0xE0 SHL DUP2 MSTORE CALLER PUSH1 0x4 DUP3 ADD MSTORE PUSH1 0x1 PUSH1 0x1 PUSH1 0xA0 SHL SUB PUSH32 0x0 AND PUSH1 0x24 DUP3 ADD MSTORE PUSH1 0x44 ADD PUSH2 0x44A JUMP JUMPDEST PUSH1 0x1 SLOAD TIMESTAMP LT PUSH2 0x13C4 JUMPI PUSH1 0x40 MLOAD PUSH4 0x7DB668C9 PUSH1 0xE1 SHL DUP2 MSTORE PUSH1 0x4 ADD PUSH1 0x40 MLOAD DUP1 SWAP2 SUB SWAP1 REVERT JUMPDEST PUSH1 0x7 DUP1 SLOAD PUSH1 0x0 SWAP2 PUSH2 0xFFFF SWAP1 SWAP2 AND SWAP1 DUP3 PUSH2 0x13DC DUP4 PUSH2 0x3770 JUMP JUMPDEST DUP3 SLOAD PUSH2 0x100 SWAP3 SWAP1 SWAP3 EXP PUSH2 0xFFFF DUP2 DUP2 MUL NOT SWAP1 SWAP4 AND SWAP2 DUP4 AND MUL OR SWAP1 SWAP2 SSTORE DUP2 AND PUSH1 0x0 DUP2 DUP2 MSTORE PUSH1 0xC PUSH1 0x20 MSTORE PUSH1 0x40 SWAP1 KECCAK256 PUSH1 0x1 DUP2 ADD DUP1 SLOAD PUSH3 0xFF0001 PUSH1 0x40 SHL PUSH1 0x1 PUSH1 0xF8 SHL SUB NOT AND PUSH1 0x1 PUSH1 0x40 SHL SWAP4 DUP5 MUL PUSH1 0x1 PUSH1 0x58 SHL PUSH1 0x1 PUSH1 0xF8 SHL SUB NOT AND OR CALLER PUSH1 0x1 PUSH1 0x58 SHL MUL OR DUP1 DUP3 SSTORE DUP3 SLOAD PUSH24 0xFFFFFFFFFFFFFFFF0000000000000000FFFFFFFFFFFFFFFF NOT AND TIMESTAMP PUSH1 0x1 PUSH1 0x1 PUSH1 0x40 SHL SUB AND SWAP1 DUP2 OR PUSH1 0x1 PUSH1 0x80 SHL DUP3 MUL OR PUSH8 0xFFFFFFFFFFFFFFFF PUSH1 0x40 SHL NOT AND SWAP5 MUL SWAP4 SWAP1 SWAP4 OR DUP3 SSTORE SWAP3 SWAP4 POP SWAP2 PUSH1 0x4 SWAP2 PUSH1 0x1 PUSH1 0x1 PUSH1 0xF8 SHL SUB AND PUSH1 0x1 PUSH1 0xF8 SHL DUP4 MUL OR SWAP1 SSTORE POP PUSH1 0x1 DUP2 ADD DUP1 SLOAD PUSH8 0xFFFFFFFFFFFFFFFF NOT AND SWAP1 SSTORE DUP1 SLOAD PUSH1 0x1 PUSH1 0x1 PUSH1 0xC0 SHL SUB AND DUP2 SSTORE PUSH1 0x0 JUMPDEST DUP4 DUP2 LT ISZERO PUSH2 0x15C0 JUMPI PUSH1 0x0 DUP6 DUP6 DUP4 DUP2 DUP2 LT PUSH2 0x14DF JUMPI PUSH2 0x14DF PUSH2 0x3715 JUMP JUMPDEST SWAP1 POP PUSH1 0x20 MUL DUP2 ADD SWAP1 PUSH2 0x14F1 SWAP2 SWAP1 PUSH2 0x3791 JUMP JUMPDEST PUSH2 0x14FA SWAP1 PUSH2 0x3861 JUMP JUMPDEST PUSH1 0x2 DUP5 DUP2 ADD DUP1 SLOAD PUSH1 0x1 DUP1 DUP3 ADD DUP4 SSTORE PUSH1 0x0 SWAP3 DUP4 MSTORE PUSH1 0x20 SWAP3 DUP4 SWAP1 KECCAK256 DUP6 MLOAD SWAP3 SWAP1 SWAP5 MUL SWAP1 SWAP4 ADD DUP1 SLOAD PUSH1 0x1 PUSH1 0x1 PUSH1 0xA0 SHL SUB NOT AND PUSH1 0x1 PUSH1 0x1 PUSH1 0xA0 SHL SUB SWAP1 SWAP3 AND SWAP2 SWAP1 SWAP2 OR DUP2 SSTORE SWAP1 DUP4 ADD MLOAD SWAP3 SWAP4 POP DUP4 SWAP3 SWAP1 SWAP2 DUP3 ADD SWAP1 PUSH2 0x1551 SWAP1 DUP3 PUSH2 0x38BB JUMP JUMPDEST POP POP POP PUSH2 0x15AB DUP2 PUSH1 0x20 ADD MLOAD PUSH1 0x40 MLOAD DUP1 PUSH1 0x40 ADD PUSH1 0x40 MSTORE DUP1 PUSH1 0x19 DUP2 MSTORE PUSH1 0x20 ADD PUSH25 0x1C1C9BDC1BDCD85B08195E1958DD5D1A5BDB8819985A5B1959 PUSH1 0x3A SHL DUP2 MSTORE POP DUP4 PUSH1 0x0 ADD MLOAD PUSH1 0x1 PUSH1 0x1 PUSH1 0xA0 SHL SUB AND PUSH2 0x23D9 SWAP1 SWAP3 SWAP2 SWAP1 PUSH4 0xFFFFFFFF AND JUMP JUMPDEST POP POP DUP1 DUP1 PUSH2 0x15B8 SWAP1 PUSH2 0x373E JUMP JUMPDEST SWAP2 POP POP PUSH2 0x14C3 JUMP JUMPDEST POP DUP2 PUSH2 0xFFFF AND PUSH32 0x54F76BA363CE9B1888F218ED79D176B3564D604ADCDCA9EC308A7266C164AF34 CALLER DUP7 DUP7 PUSH1 0x40 MLOAD PUSH2 0x15F9 SWAP4 SWAP3 SWAP2 SWAP1 PUSH2 0x397A JUMP JUMPDEST PUSH1 0x40 MLOAD DUP1 SWAP2 SUB SWAP1 LOG2 PUSH1 0x40 MLOAD PUSH2 0xFFFF DUP4 AND SWAP1 PUSH32 0x92A8E27A614D1092A0E536CF3DB1DF4965FD891FE65492C53CCA79DFFB5419A8 SWAP1 PUSH1 0x0 SWAP1 LOG2 POP POP POP POP JUMP JUMPDEST CALLER ADDRESS EQ PUSH2 0x165E JUMPI PUSH1 0x40 MLOAD PUSH4 0xC55DDC97 PUSH1 0xE0 SHL DUP2 MSTORE CALLER PUSH1 0x4 DUP3 ADD MSTORE ADDRESS PUSH1 0x24 DUP3 ADD MSTORE PUSH1 0x44 ADD PUSH2 0x44A JUMP JUMPDEST DUP1 MLOAD PUSH1 0x3 DUP1 SLOAD PUSH1 0xFF NOT AND PUSH1 0xFF SWAP1 SWAP3 AND SWAP2 SWAP1 SWAP2 OR SWAP1 SSTORE PUSH1 0x20 DUP2 ADD MLOAD PUSH1 0x4 SSTORE PUSH1 0x40 DUP2 ADD MLOAD PUSH1 0x5 SSTORE PUSH1 0x60 ADD MLOAD PUSH1 0x6 DUP1 SLOAD PUSH1 0x1 PUSH1 0x1 PUSH1 0xA0 SHL SUB NOT AND PUSH1 0x1 PUSH1 0x1 PUSH1 0xA0 SHL SUB SWAP1 SWAP3 AND SWAP2 SWAP1 SWAP2 OR SWAP1 SSTORE JUMP JUMPDEST PUSH2 0xFFFF DUP2 AND PUSH1 0x0 SWAP1 DUP2 MSTORE PUSH1 0xC PUSH1 0x20 MSTORE PUSH1 0x40 DUP2 KECCAK256 DUP1 SLOAD DUP3 SWAP2 DUP3 SWAP2 PUSH1 0x1 PUSH1 0x1 PUSH1 0x40 SHL SUB AND DUP3 SUB PUSH2 0x16E8 JUMPI PUSH1 0x40 MLOAD PUSH3 0x461BCD PUSH1 0xE5 SHL DUP2 MSTORE PUSH1 0x4 ADD PUSH2 0x44A SWAP1 PUSH2 0x3512 JUMP JUMPDEST PUSH2 0x16F1 DUP2 PUSH2 0x1F2B JUMP JUMPDEST SWAP4 POP SWAP4 POP SWAP4 POP POP SWAP2 SWAP4 SWAP1 SWAP3 POP JUMP JUMPDEST CALLER PUSH1 0x1 PUSH1 0x1 PUSH1 0xA0 SHL SUB PUSH32 0x0 AND EQ PUSH2 0x1779 JUMPI PUSH1 0x40 MLOAD PUSH4 0xC55DDC97 PUSH1 0xE0 SHL DUP2 MSTORE CALLER PUSH1 0x4 DUP3 ADD MSTORE PUSH1 0x1 PUSH1 0x1 PUSH1 0xA0 SHL SUB PUSH32 0x0 AND PUSH1 0x24 DUP3 ADD MSTORE PUSH1 0x44 ADD PUSH2 0x44A JUMP JUMPDEST PUSH1 0x1 SLOAD TIMESTAMP LT PUSH2 0x179B JUMPI PUSH1 0x40 MLOAD PUSH4 0x7DB668C9 PUSH1 0xE1 SHL DUP2 MSTORE PUSH1 0x4 ADD PUSH1 0x40 MLOAD DUP1 SWAP2 SUB SWAP1 REVERT JUMPDEST PUSH1 0x1 DUP1 SLOAD SWAP1 DUP3 SWAP1 PUSH1 0x0 PUSH2 0x17AE DUP4 DUP6 PUSH2 0x355F JUMP JUMPDEST SWAP1 SWAP2 SSTORE POP POP PUSH1 0x1 SLOAD PUSH1 0x40 DUP1 MLOAD DUP4 DUP2 MSTORE PUSH1 0x20 DUP2 ADD SWAP3 SWAP1 SWAP3 MSTORE PUSH32 0xBB3008CCA3EA5EAC4F7BA44ED13F06C2447A2C09356A9BF8AE8886D9D16B7009 SWAP2 ADD PUSH1 0x40 MLOAD DUP1 SWAP2 SUB SWAP1 LOG1 POP POP JUMP JUMPDEST PUSH1 0x0 SLOAD PUSH2 0x100 SWAP1 DIV PUSH1 0xFF AND ISZERO DUP1 DUP1 ISZERO PUSH2 0x1814 JUMPI POP PUSH1 0x0 SLOAD PUSH1 0x1 PUSH1 0xFF SWAP1 SWAP2 AND LT JUMPDEST DUP1 PUSH2 0x182E JUMPI POP ADDRESS EXTCODESIZE ISZERO DUP1 ISZERO PUSH2 0x182E JUMPI POP PUSH1 0x0 SLOAD PUSH1 0xFF AND PUSH1 0x1 EQ JUMPDEST PUSH2 0x1891 JUMPI PUSH1 0x40 MLOAD PUSH3 0x461BCD PUSH1 0xE5 SHL DUP2 MSTORE PUSH1 0x20 PUSH1 0x4 DUP3 ADD MSTORE PUSH1 0x2E PUSH1 0x24 DUP3 ADD MSTORE PUSH32 0x496E697469616C697A61626C653A20636F6E747261637420697320616C726561 PUSH1 0x44 DUP3 ADD MSTORE PUSH14 0x191E481A5B9A5D1A585B1A5E9959 PUSH1 0x92 SHL PUSH1 0x64 DUP3 ADD MSTORE PUSH1 0x84 ADD PUSH2 0x44A JUMP JUMPDEST PUSH1 0x0 DUP1 SLOAD PUSH1 0xFF NOT AND PUSH1 0x1 OR SWAP1 SSTORE DUP1 ISZERO PUSH2 0x18B4 JUMPI PUSH1 0x0 DUP1 SLOAD PUSH2 0xFF00 NOT AND PUSH2 0x100 OR SWAP1 SSTORE JUMPDEST PUSH1 0x2 DUP1 SLOAD PUSH1 0x1 PUSH1 0x1 PUSH1 0xA0 SHL SUB DUP1 DUP7 AND PUSH1 0x1 PUSH1 0x1 PUSH1 0xA0 SHL SUB NOT SWAP3 DUP4 AND OR SWAP1 SWAP3 SSTORE DUP4 MLOAD PUSH1 0x3 DUP1 SLOAD PUSH1 0xFF SWAP1 SWAP3 AND PUSH1 0xFF NOT SWAP1 SWAP3 AND SWAP2 SWAP1 SWAP2 OR SWAP1 SSTORE PUSH1 0x20 DUP5 ADD MLOAD PUSH1 0x4 SSTORE PUSH1 0x40 DUP5 ADD MLOAD PUSH1 0x5 SSTORE PUSH1 0x60 DUP5 ADD MLOAD PUSH1 0x6 DUP1 SLOAD SWAP2 SWAP1 SWAP4 AND SWAP2 AND OR SWAP1 SSTORE PUSH2 0x1919 PUSH3 0x76A700 TIMESTAMP PUSH2 0x355F JUMP JUMPDEST PUSH1 0x1 SSTORE DUP1 ISZERO PUSH2 0x1962 JUMPI PUSH1 0x0 DUP1 SLOAD PUSH2 0xFF00 NOT AND SWAP1 SSTORE PUSH1 0x40 MLOAD PUSH1 0x1 DUP2 MSTORE PUSH32 0x7F26B83FF96E1F2B6A682F133852F6798A09C465DA95921460CEFB3847402498 SWAP1 PUSH1 0x20 ADD PUSH1 0x40 MLOAD DUP1 SWAP2 SUB SWAP1 LOG1 JUMPDEST POP POP POP JUMP JUMPDEST PUSH1 0x60 PUSH2 0x197B PUSH2 0x1976 PUSH1 0xA PUSH2 0x23E8 JUMP JUMPDEST PUSH2 0x23F5 JUMP JUMPDEST SWAP1 POP SWAP1 JUMP JUMPDEST DUP1 PUSH2 0x19DE JUMPI PUSH1 0x40 MLOAD PUSH3 0x461BCD PUSH1 0xE5 SHL DUP2 MSTORE PUSH1 0x20 PUSH1 0x4 DUP3 ADD MSTORE PUSH1 0x28 PUSH1 0x24 DUP3 ADD MSTORE PUSH32 0x63616E6E6F742063726561746520612070726F706F73616C2077697468206E6F PUSH1 0x44 DUP3 ADD MSTORE PUSH8 0x20616374696F6E73 PUSH1 0xC0 SHL PUSH1 0x64 DUP3 ADD MSTORE PUSH1 0x84 ADD PUSH2 0x44A JUMP JUMPDEST PUSH1 0x0 PUSH2 0x19F2 PUSH2 0x19ED DUP4 DUP6 PUSH2 0x3A6A JUMP JUMPDEST PUSH2 0x2686 JUMP JUMPDEST SWAP1 POP PUSH2 0x1A01 DUP2 PUSH1 0xA0 ADD MLOAD PUSH2 0x2045 JUMP JUMPDEST ISZERO PUSH2 0x1A11 JUMPI PUSH2 0x1A0E PUSH2 0x2162 JUMP JUMPDEST SWAP1 POP JUMPDEST PUSH1 0x0 PUSH1 0x1 PUSH1 0x1 PUSH1 0xA0 SHL SUB PUSH32 0x0 AND PUSH4 0x8FF400F4 CALLER PUSH2 0x1A4E PUSH1 0x1 TIMESTAMP PUSH2 0x372B JUMP JUMPDEST PUSH1 0x40 MLOAD PUSH1 0x1 PUSH1 0x1 PUSH1 0xE0 SHL SUB NOT PUSH1 0xE0 DUP6 SWAP1 SHL AND DUP2 MSTORE PUSH1 0x1 PUSH1 0x1 PUSH1 0xA0 SHL SUB SWAP1 SWAP3 AND PUSH1 0x4 DUP4 ADD MSTORE PUSH1 0x24 DUP3 ADD MSTORE PUSH1 0x44 ADD PUSH1 0x0 PUSH1 0x40 MLOAD DUP1 DUP4 SUB DUP2 DUP7 GAS STATICCALL ISZERO DUP1 ISZERO PUSH2 0x1A97 JUMPI RETURNDATASIZE PUSH1 0x0 DUP1 RETURNDATACOPY RETURNDATASIZE PUSH1 0x0 REVERT JUMPDEST POP POP POP POP PUSH1 0x40 MLOAD RETURNDATASIZE PUSH1 0x0 DUP3 RETURNDATACOPY PUSH1 0x1F RETURNDATASIZE SWAP1 DUP2 ADD PUSH1 0x1F NOT AND DUP3 ADD PUSH1 0x40 MSTORE PUSH2 0x1ABF SWAP2 SWAP1 DUP2 ADD SWAP1 PUSH2 0x365D JUMP JUMPDEST SWAP1 POP PUSH1 0x0 PUSH32 0x0 PUSH1 0x1 PUSH1 0x1 PUSH1 0xA0 SHL SUB AND PUSH4 0x3BEF7ABB DUP4 PUSH1 0x40 MLOAD DUP3 PUSH4 0xFFFFFFFF AND PUSH1 0xE0 SHL DUP2 MSTORE PUSH1 0x4 ADD PUSH2 0x1B0F SWAP2 SWAP1 PUSH2 0x3ADD JUMP JUMPDEST PUSH1 0x20 PUSH1 0x40 MLOAD DUP1 DUP4 SUB DUP2 DUP7 GAS STATICCALL ISZERO DUP1 ISZERO PUSH2 0x1B2C JUMPI RETURNDATASIZE PUSH1 0x0 DUP1 RETURNDATACOPY RETURNDATASIZE PUSH1 0x0 REVERT JUMPDEST POP POP POP POP PUSH1 0x40 MLOAD RETURNDATASIZE PUSH1 0x1F NOT PUSH1 0x1F DUP3 ADD AND DUP3 ADD DUP1 PUSH1 0x40 MSTORE POP DUP2 ADD SWAP1 PUSH2 0x1B50 SWAP2 SWAP1 PUSH2 0x3B38 JUMP JUMPDEST SWAP1 POP DUP3 PUSH1 0x20 ADD MLOAD PUSH1 0x1 PUSH1 0x1 PUSH1 0x40 SHL SUB AND DUP2 GT PUSH2 0x1BD6 JUMPI PUSH1 0x40 DUP1 MLOAD PUSH3 0x461BCD PUSH1 0xE5 SHL DUP2 MSTORE PUSH1 0x20 PUSH1 0x4 DUP3 ADD MSTORE PUSH1 0x24 DUP2 ADD SWAP2 SWAP1 SWAP2 MSTORE PUSH32 0x70726F706F73657220646F65736E2774206861766520656E6F75676820766F74 PUSH1 0x44 DUP3 ADD MSTORE PUSH32 0x696E6720706F77657220746F2070726F706F7365207468697320616374696F6E PUSH1 0x64 DUP3 ADD MSTORE PUSH1 0x84 ADD PUSH2 0x44A JUMP JUMPDEST PUSH1 0x80 DUP4 ADD MLOAD TIMESTAMP SWAP1 PUSH1 0x0 SWAP1 PUSH2 0x1BF0 SWAP1 PUSH4 0xFFFFFFFF AND DUP4 PUSH2 0x3B51 JUMP JUMPDEST SWAP1 POP PUSH1 0x0 DUP6 PUSH1 0x60 ADD MLOAD PUSH4 0xFFFFFFFF AND DUP3 PUSH2 0x1C0A SWAP2 SWAP1 PUSH2 0x3B51 JUMP JUMPDEST PUSH1 0x7 SLOAD PUSH2 0xFFFF AND PUSH1 0x0 DUP2 DUP2 MSTORE PUSH1 0xC PUSH1 0x20 MSTORE PUSH1 0x40 SWAP1 KECCAK256 PUSH1 0x1 DUP1 DUP3 ADD DUP1 SLOAD DUP4 SLOAD PUSH1 0xA0 DUP14 ADD MLOAD PUSH3 0xFF0001 PUSH1 0x40 SHL PUSH1 0x1 PUSH1 0xF8 SHL SUB NOT SWAP1 SWAP3 AND PUSH1 0x1 PUSH1 0x40 SHL SWAP7 DUP8 MUL PUSH1 0x1 PUSH1 0x58 SHL PUSH1 0x1 PUSH1 0xF8 SHL SUB NOT AND OR CALLER PUSH1 0x1 PUSH1 0x58 SHL MUL OR PUSH1 0xFF PUSH1 0x50 SHL NOT DUP2 AND PUSH1 0x1 PUSH1 0x50 SHL PUSH1 0xFF SWAP1 SWAP5 AND SWAP4 SWAP1 SWAP4 MUL SWAP3 DUP4 OR DUP5 SSTORE PUSH1 0x1 PUSH1 0x1 PUSH1 0x40 SHL SUB DUP12 DUP2 AND PUSH24 0xFFFFFFFFFFFFFFFF0000000000000000FFFFFFFFFFFFFFFF NOT SWAP1 SWAP4 AND SWAP3 SWAP1 SWAP3 OR PUSH1 0x1 PUSH1 0x80 SHL DUP12 DUP5 AND MUL OR PUSH8 0xFFFFFFFFFFFFFFFF PUSH1 0x40 SHL NOT AND SWAP2 DUP9 AND SWAP1 SWAP7 MUL OR DUP5 SSTORE SWAP5 SWAP6 POP SWAP2 SWAP4 SWAP1 SWAP3 PUSH11 0xFF00000000000000000001 PUSH1 0x1 PUSH1 0xF8 SHL SUB AND PUSH1 0x1 PUSH1 0x1 PUSH1 0xF8 SHL SUB SWAP1 SWAP2 AND OR PUSH1 0x1 PUSH1 0xF8 SHL DUP4 MUL OR SWAP1 SSTORE POP DUP7 MLOAD PUSH1 0x1 DUP3 ADD DUP1 SLOAD PUSH8 0xFFFFFFFFFFFFFFFF NOT AND PUSH1 0x1 PUSH1 0x1 PUSH1 0x40 SHL SUB SWAP3 DUP4 AND OR SWAP1 SSTORE PUSH1 0x40 DUP9 ADD MLOAD DUP3 SLOAD PUSH1 0x1 PUSH1 0x1 PUSH1 0xC0 SHL SUB AND PUSH1 0x1 PUSH1 0xC0 SHL SWAP2 SWAP1 SWAP3 AND MUL OR DUP2 SSTORE PUSH1 0x0 JUMPDEST DUP9 DUP2 LT ISZERO PUSH2 0x1D9D JUMPI DUP2 PUSH1 0x2 ADD DUP11 DUP11 DUP4 DUP2 DUP2 LT PUSH2 0x1D54 JUMPI PUSH2 0x1D54 PUSH2 0x3715 JUMP JUMPDEST SWAP1 POP PUSH1 0x20 MUL DUP2 ADD SWAP1 PUSH2 0x1D66 SWAP2 SWAP1 PUSH2 0x3791 JUMP JUMPDEST DUP2 SLOAD PUSH1 0x1 DUP2 ADD DUP4 SSTORE PUSH1 0x0 SWAP3 DUP4 MSTORE PUSH1 0x20 SWAP1 SWAP3 KECCAK256 SWAP1 SWAP2 PUSH1 0x2 MUL ADD PUSH2 0x1D88 DUP3 DUP3 PUSH2 0x3B71 JUMP JUMPDEST POP POP DUP1 DUP1 PUSH2 0x1D95 SWAP1 PUSH2 0x373E JUMP JUMPDEST SWAP2 POP POP PUSH2 0x1D36 JUMP JUMPDEST POP PUSH1 0x1 DUP2 ADD SLOAD PUSH1 0x1 PUSH1 0x40 SHL SWAP1 DIV PUSH2 0xFFFF AND PUSH1 0x0 SWAP1 DUP2 MSTORE PUSH1 0xD PUSH1 0x20 MSTORE PUSH1 0x40 DUP1 DUP3 KECCAK256 DUP2 MLOAD PUSH4 0x151F92D3 PUSH1 0xE0 SHL DUP2 MSTORE SWAP2 MLOAD PUSH2 0x1E4F SWAP4 SWAP2 SWAP3 PUSH32 0x0 PUSH1 0x1 PUSH1 0x1 PUSH1 0xA0 SHL SUB AND SWAP3 PUSH4 0x151F92D3 SWAP3 PUSH1 0x4 DUP1 DUP5 ADD SWAP4 DUP3 SWAP1 SUB ADD DUP2 DUP7 GAS STATICCALL ISZERO DUP1 ISZERO PUSH2 0x1E21 JUMPI RETURNDATASIZE PUSH1 0x0 DUP1 RETURNDATACOPY RETURNDATASIZE PUSH1 0x0 REVERT JUMPDEST POP POP POP POP PUSH1 0x40 MLOAD RETURNDATASIZE PUSH1 0x0 DUP3 RETURNDATACOPY PUSH1 0x1F RETURNDATASIZE SWAP1 DUP2 ADD PUSH1 0x1F NOT AND DUP3 ADD PUSH1 0x40 MSTORE PUSH2 0x1E49 SWAP2 SWAP1 DUP2 ADD SWAP1 PUSH2 0x3C8C JUMP JUMPDEST SWAP1 PUSH2 0x287D JUMP JUMPDEST DUP1 PUSH1 0x1 ADD PUSH1 0x8 SWAP1 SLOAD SWAP1 PUSH2 0x100 EXP SWAP1 DIV PUSH2 0xFFFF AND PUSH1 0x1 PUSH2 0x1E6E SWAP2 SWAP1 PUSH2 0x3D52 JUMP JUMPDEST PUSH1 0x7 DUP1 SLOAD PUSH2 0xFFFF NOT AND PUSH2 0xFFFF SWAP3 DUP4 AND OR SWAP1 SSTORE PUSH1 0x1 DUP3 ADD SLOAD PUSH2 0x1E99 SWAP2 PUSH1 0x8 SWAP2 PUSH1 0x1 PUSH1 0x40 SHL SWAP1 DIV AND PUSH2 0x2233 JUMP JUMPDEST POP PUSH1 0x1 DUP2 ADD SLOAD PUSH1 0x40 MLOAD PUSH1 0x1 PUSH1 0x40 SHL DUP3 DIV PUSH2 0xFFFF AND SWAP2 PUSH32 0x54F76BA363CE9B1888F218ED79D176B3564D604ADCDCA9EC308A7266C164AF34 SWAP2 PUSH2 0x1EEE SWAP2 PUSH1 0x1 PUSH1 0x58 SHL SWAP1 DIV PUSH1 0x1 PUSH1 0x1 PUSH1 0xA0 SHL SUB AND SWAP1 DUP14 SWAP1 DUP14 SWAP1 PUSH2 0x397A JUMP JUMPDEST PUSH1 0x40 MLOAD DUP1 SWAP2 SUB SWAP1 LOG2 POP POP POP POP POP POP POP POP POP JUMP JUMPDEST PUSH1 0x60 PUSH2 0x197B PUSH2 0x1976 PUSH1 0x8 PUSH2 0x23E8 JUMP JUMPDEST PUSH1 0x0 DUP2 DUP2 MSTORE PUSH1 0x1 DUP4 ADD PUSH1 0x20 MSTORE PUSH1 0x40 DUP2 KECCAK256 SLOAD ISZERO ISZERO JUMPDEST SWAP4 SWAP3 POP POP POP JUMP JUMPDEST PUSH1 0x1 DUP2 ADD SLOAD PUSH1 0x1 PUSH1 0x40 SHL SWAP1 DIV PUSH2 0xFFFF AND PUSH1 0x0 SWAP1 DUP2 MSTORE PUSH1 0xD PUSH1 0x20 SWAP1 DUP2 MSTORE PUSH1 0x40 DUP1 DUP4 KECCAK256 DUP1 SLOAD DUP3 MLOAD DUP2 DUP6 MUL DUP2 ADD DUP6 ADD SWAP1 SWAP4 MSTORE DUP1 DUP4 MSTORE DUP5 SWAP4 DUP5 SWAP4 DUP5 SWAP4 SWAP1 SWAP3 SWAP1 SWAP2 DUP5 SWAP1 DUP5 ADD JUMPDEST DUP3 DUP3 LT ISZERO PUSH2 0x1FC1 JUMPI PUSH1 0x0 DUP5 DUP2 MSTORE PUSH1 0x20 SWAP1 DUP2 SWAP1 KECCAK256 PUSH1 0x40 DUP1 MLOAD PUSH1 0x60 DUP2 ADD DUP3 MSTORE PUSH1 0x3 DUP7 MUL SWAP1 SWAP3 ADD DUP1 SLOAD PUSH1 0x1 PUSH1 0x1 PUSH1 0xA0 SHL SUB AND DUP4 MSTORE PUSH1 0x1 DUP1 DUP3 ADD SLOAD DUP5 DUP7 ADD MSTORE PUSH1 0x2 SWAP1 SWAP2 ADD SLOAD SWAP2 DUP4 ADD SWAP2 SWAP1 SWAP2 MSTORE SWAP1 DUP4 MSTORE SWAP1 SWAP3 ADD SWAP2 ADD PUSH2 0x1F6C JUMP JUMPDEST POP POP POP PUSH1 0x1 DUP1 DUP9 ADD SLOAD PUSH2 0xFFFF PUSH1 0x1 PUSH1 0x40 SHL SWAP1 SWAP2 DIV AND PUSH1 0x0 SWAP1 DUP2 MSTORE PUSH1 0xF PUSH1 0x20 MSTORE PUSH1 0x40 DUP2 KECCAK256 SWAP4 SWAP5 POP PUSH2 0x201D SWAP3 POP DUP4 SWAP2 JUMPDEST PUSH1 0x3 DUP2 GT ISZERO PUSH2 0x2000 JUMPI PUSH2 0x2000 PUSH2 0x2F68 JUMP JUMPDEST DUP2 MSTORE PUSH1 0x20 ADD SWAP1 DUP2 MSTORE PUSH1 0x20 ADD PUSH1 0x0 KECCAK256 DUP4 PUSH2 0x294F SWAP1 SWAP2 SWAP1 PUSH4 0xFFFFFFFF AND JUMP JUMPDEST SWAP5 POP PUSH2 0x202C DUP2 PUSH1 0x0 PUSH1 0x2 PUSH2 0x1FEF JUMP JUMPDEST SWAP4 POP PUSH2 0x203B DUP2 PUSH1 0x0 PUSH1 0x3 PUSH2 0x1FEF JUMP JUMPDEST SWAP5 SWAP7 SWAP4 SWAP6 POP POP POP POP JUMP JUMPDEST PUSH1 0x2 SLOAD PUSH1 0x0 SWAP1 PUSH1 0x1 PUSH1 0x1 PUSH1 0xA0 SHL SUB AND ISZERO DUP1 ISZERO SWAP1 PUSH2 0x20D1 JUMPI POP PUSH1 0x5 SLOAD PUSH1 0x2 SLOAD PUSH1 0x40 DUP1 MLOAD PUSH4 0x18160DDD PUSH1 0xE0 SHL DUP2 MSTORE SWAP1 MLOAD PUSH1 0x1 PUSH1 0x1 PUSH1 0xA0 SHL SUB SWAP1 SWAP3 AND SWAP2 PUSH4 0x18160DDD SWAP2 PUSH1 0x4 DUP1 DUP3 ADD SWAP3 PUSH1 0x20 SWAP3 SWAP1 SWAP2 SWAP1 DUP3 SWAP1 SUB ADD DUP2 DUP7 GAS STATICCALL ISZERO DUP1 ISZERO PUSH2 0x20AA JUMPI RETURNDATASIZE PUSH1 0x0 DUP1 RETURNDATACOPY RETURNDATASIZE PUSH1 0x0 REVERT JUMPDEST POP POP POP POP PUSH1 0x40 MLOAD RETURNDATASIZE PUSH1 0x1F NOT PUSH1 0x1F DUP3 ADD AND DUP3 ADD DUP1 PUSH1 0x40 MSTORE POP DUP2 ADD SWAP1 PUSH2 0x20CE SWAP2 SWAP1 PUSH2 0x3B38 JUMP JUMPDEST LT ISZERO JUMPDEST DUP1 ISZERO PUSH2 0x214B JUMPI POP PUSH1 0x4 DUP1 SLOAD PUSH1 0x2 SLOAD PUSH1 0x40 DUP1 MLOAD PUSH4 0xF91BDE1F PUSH1 0xE0 SHL DUP2 MSTORE SWAP1 MLOAD SWAP3 SWAP4 PUSH1 0x1 PUSH1 0x1 PUSH1 0xA0 SHL SUB SWAP1 SWAP3 AND SWAP3 PUSH4 0xF91BDE1F SWAP3 DUP3 DUP2 ADD SWAP3 PUSH1 0x20 SWAP3 SWAP2 SWAP1 DUP3 SWAP1 SUB ADD DUP2 DUP7 GAS STATICCALL ISZERO DUP1 ISZERO PUSH2 0x2125 JUMPI RETURNDATASIZE PUSH1 0x0 DUP1 RETURNDATACOPY RETURNDATASIZE PUSH1 0x0 REVERT JUMPDEST POP POP POP POP PUSH1 0x40 MLOAD RETURNDATASIZE PUSH1 0x1F NOT PUSH1 0x1F DUP3 ADD AND DUP3 ADD DUP1 PUSH1 0x40 MSTORE POP DUP2 ADD SWAP1 PUSH2 0x2149 SWAP2 SWAP1 PUSH2 0x3B38 JUMP JUMPDEST GT JUMPDEST DUP1 ISZERO PUSH2 0xB49 JUMPI POP POP PUSH1 0x3 SLOAD PUSH1 0xFF SWAP1 DUP2 AND SWAP2 AND LT ISZERO SWAP1 JUMP JUMPDEST PUSH1 0x40 DUP1 MLOAD PUSH1 0xC0 DUP2 ADD DUP3 MSTORE PUSH1 0x0 DUP1 DUP3 MSTORE PUSH1 0x20 DUP3 ADD DUP2 SWAP1 MSTORE SWAP2 DUP2 ADD DUP3 SWAP1 MSTORE PUSH1 0x60 DUP2 ADD DUP3 SWAP1 MSTORE PUSH1 0x80 DUP2 ADD DUP3 SWAP1 MSTORE PUSH1 0xA0 DUP2 ADD SWAP2 SWAP1 SWAP2 MSTORE PUSH1 0x6 SLOAD PUSH1 0x40 MLOAD PUSH4 0xC87FA53 PUSH1 0xE2 SHL DUP2 MSTORE PUSH1 0x20 PUSH1 0x4 DUP3 ADD MSTORE PUSH1 0x0 PUSH1 0x24 DUP3 ADD MSTORE PUSH1 0x1 PUSH1 0x1 PUSH1 0xA0 SHL SUB SWAP1 SWAP2 AND SWAP1 PUSH4 0x321FE94C SWAP1 PUSH1 0x44 ADD PUSH1 0xC0 PUSH1 0x40 MLOAD DUP1 DUP4 SUB DUP2 DUP7 GAS STATICCALL ISZERO DUP1 ISZERO PUSH2 0x21E4 JUMPI RETURNDATASIZE PUSH1 0x0 DUP1 RETURNDATACOPY RETURNDATASIZE PUSH1 0x0 REVERT JUMPDEST POP POP POP POP PUSH1 0x40 MLOAD RETURNDATASIZE PUSH1 0x1F NOT PUSH1 0x1F DUP3 ADD AND DUP3 ADD DUP1 PUSH1 0x40 MSTORE POP DUP2 ADD SWAP1 PUSH2 0x197B SWAP2 SWAP1 PUSH2 0x3D98 JUMP JUMPDEST PUSH1 0x0 PUSH2 0x1F24 DUP4 DUP4 PUSH2 0x29E3 JUMP JUMPDEST PUSH1 0x0 DUP2 PUSH2 0x2229 PUSH8 0xDE0B6B3A7640000 DUP6 PUSH2 0x3E38 JUMP JUMPDEST PUSH2 0x1F24 SWAP2 SWAP1 PUSH2 0x3E4F JUMP JUMPDEST PUSH1 0x0 PUSH2 0x1F24 DUP4 DUP4 PUSH2 0x2AD6 JUMP JUMPDEST PUSH2 0x2263 PUSH1 0x40 MLOAD DUP1 PUSH1 0x60 ADD PUSH1 0x40 MSTORE DUP1 PUSH1 0x60 DUP2 MSTORE PUSH1 0x20 ADD PUSH1 0x60 DUP2 MSTORE PUSH1 0x20 ADD PUSH1 0x60 DUP2 MSTORE POP SWAP1 JUMP JUMPDEST PUSH1 0x1 PUSH1 0x0 SWAP1 DUP2 MSTORE PUSH1 0x20 DUP4 SWAP1 MSTORE PUSH1 0x40 DUP2 KECCAK256 SWAP1 PUSH2 0x227D DUP3 PUSH2 0x2B25 JUMP JUMPDEST PUSH1 0x2 PUSH1 0x0 SWAP1 DUP2 MSTORE PUSH1 0x20 DUP7 SWAP1 MSTORE PUSH1 0x40 DUP2 KECCAK256 SWAP2 SWAP3 POP PUSH2 0x2299 DUP3 PUSH2 0x2B25 JUMP JUMPDEST PUSH1 0x3 PUSH1 0x0 SWAP1 DUP2 MSTORE PUSH1 0x20 DUP9 SWAP1 MSTORE PUSH1 0x40 DUP2 KECCAK256 SWAP2 SWAP3 POP PUSH2 0x22B5 DUP3 PUSH2 0x2B25 JUMP JUMPDEST PUSH1 0x40 DUP1 MLOAD PUSH1 0x60 DUP2 ADD DUP3 MSTORE SWAP7 DUP8 MSTORE PUSH1 0x20 DUP8 ADD SWAP5 SWAP1 SWAP5 MSTORE SWAP3 DUP6 ADD SWAP3 SWAP1 SWAP3 MSTORE POP SWAP2 SWAP6 SWAP5 POP POP POP POP POP JUMP JUMPDEST DUP1 MLOAD PUSH1 0x60 SWAP1 PUSH1 0x0 DUP2 PUSH1 0x1 PUSH1 0x1 PUSH1 0x40 SHL SUB DUP2 GT ISZERO PUSH2 0x22FB JUMPI PUSH2 0x22FB PUSH2 0x3337 JUMP JUMPDEST PUSH1 0x40 MLOAD SWAP1 DUP1 DUP3 MSTORE DUP1 PUSH1 0x20 MUL PUSH1 0x20 ADD DUP3 ADD PUSH1 0x40 MSTORE DUP1 ISZERO PUSH2 0x2324 JUMPI DUP2 PUSH1 0x20 ADD PUSH1 0x20 DUP3 MUL DUP1 CALLDATASIZE DUP4 CALLDATACOPY ADD SWAP1 POP JUMPDEST POP SWAP1 POP PUSH1 0x0 JUMPDEST DUP3 DUP2 LT ISZERO PUSH2 0x238C JUMPI DUP5 DUP2 DUP2 MLOAD DUP2 LT PUSH2 0x2344 JUMPI PUSH2 0x2344 PUSH2 0x3715 JUMP JUMPDEST PUSH1 0x20 MUL PUSH1 0x20 ADD ADD MLOAD PUSH1 0x0 ADD MLOAD DUP3 DUP3 DUP2 MLOAD DUP2 LT PUSH2 0x2362 JUMPI PUSH2 0x2362 PUSH2 0x3715 JUMP JUMPDEST PUSH1 0x1 PUSH1 0x1 PUSH1 0xA0 SHL SUB SWAP1 SWAP3 AND PUSH1 0x20 SWAP3 DUP4 MUL SWAP2 SWAP1 SWAP2 ADD SWAP1 SWAP2 ADD MSTORE DUP1 PUSH2 0x2384 DUP2 PUSH2 0x373E JUMP JUMPDEST SWAP2 POP POP PUSH2 0x232A JUMP JUMPDEST POP SWAP4 SWAP3 POP POP POP JUMP JUMPDEST PUSH1 0x0 DUP1 DUP1 DUP1 PUSH2 0x23AC DUP7 PUSH1 0x1 PUSH1 0x1 PUSH1 0xA0 SHL SUB DUP8 AND PUSH2 0x2C05 JUMP JUMPDEST SWAP1 SWAP5 POP SWAP3 POP POP POP JUMPDEST SWAP3 POP SWAP3 SWAP1 POP JUMP JUMPDEST PUSH1 0x0 PUSH2 0x23D1 DUP5 PUSH1 0x1 PUSH1 0x1 PUSH1 0xA0 SHL SUB DUP6 AND DUP5 PUSH2 0x2C3F JUMP JUMPDEST SWAP5 SWAP4 POP POP POP POP JUMP JUMPDEST PUSH1 0x60 PUSH2 0x23D1 DUP5 DUP5 PUSH1 0x0 DUP6 PUSH2 0x2C5C JUMP JUMPDEST PUSH1 0x60 PUSH1 0x0 PUSH2 0x1F24 DUP4 PUSH2 0x2D37 JUMP JUMPDEST DUP1 MLOAD PUSH1 0x60 SWAP1 PUSH1 0x0 DUP2 PUSH1 0x1 PUSH1 0x1 PUSH1 0x40 SHL SUB DUP2 GT ISZERO PUSH2 0x2414 JUMPI PUSH2 0x2414 PUSH2 0x3337 JUMP JUMPDEST PUSH1 0x40 MLOAD SWAP1 DUP1 DUP3 MSTORE DUP1 PUSH1 0x20 MUL PUSH1 0x20 ADD DUP3 ADD PUSH1 0x40 MSTORE DUP1 ISZERO PUSH2 0x244D JUMPI DUP2 PUSH1 0x20 ADD JUMPDEST PUSH2 0x243A PUSH2 0x2EE2 JUMP JUMPDEST DUP2 MSTORE PUSH1 0x20 ADD SWAP1 PUSH1 0x1 SWAP1 SUB SWAP1 DUP2 PUSH2 0x2432 JUMPI SWAP1 POP JUMPDEST POP SWAP1 POP PUSH1 0x0 JUMPDEST DUP3 DUP2 LT ISZERO PUSH2 0x238C JUMPI PUSH1 0xC PUSH1 0x0 DUP7 DUP4 DUP2 MLOAD DUP2 LT PUSH2 0x2471 JUMPI PUSH2 0x2471 PUSH2 0x3715 JUMP JUMPDEST PUSH1 0x20 SWAP1 DUP2 MUL SWAP2 SWAP1 SWAP2 ADD DUP2 ADD MLOAD PUSH2 0xFFFF SWAP1 DUP2 AND DUP4 MSTORE DUP3 DUP3 ADD SWAP4 SWAP1 SWAP4 MSTORE PUSH1 0x40 SWAP2 DUP3 ADD PUSH1 0x0 KECCAK256 DUP3 MLOAD PUSH2 0x140 DUP2 ADD DUP5 MSTORE DUP2 SLOAD PUSH1 0x1 PUSH1 0x1 PUSH1 0x40 SHL SUB DUP1 DUP3 AND DUP4 MSTORE PUSH1 0x1 PUSH1 0x40 SHL DUP1 DUP4 DIV DUP3 AND SWAP6 DUP5 ADD SWAP6 SWAP1 SWAP6 MSTORE PUSH1 0x1 PUSH1 0x80 SHL DUP3 DIV DUP2 AND SWAP6 DUP4 ADD SWAP6 SWAP1 SWAP6 MSTORE PUSH1 0x1 PUSH1 0xC0 SHL SWAP1 DIV DUP5 AND PUSH1 0x60 DUP3 ADD MSTORE PUSH1 0x1 DUP3 ADD SLOAD SWAP4 DUP5 AND PUSH1 0x80 DUP3 ADD MSTORE SWAP2 DUP4 DIV SWAP1 SWAP4 AND PUSH1 0xA0 DUP3 ADD MSTORE PUSH1 0xFF PUSH1 0x1 PUSH1 0x50 SHL DUP4 DIV DUP2 AND PUSH1 0xC0 DUP4 ADD MSTORE PUSH1 0x1 PUSH1 0x1 PUSH1 0xA0 SHL SUB PUSH1 0x1 PUSH1 0x58 SHL DUP5 DIV AND PUSH1 0xE0 DUP4 ADD MSTORE SWAP1 SWAP3 SWAP2 PUSH2 0x100 DUP5 ADD SWAP2 PUSH1 0x1 PUSH1 0xF8 SHL SWAP1 SWAP2 DIV AND PUSH1 0x5 DUP2 GT ISZERO PUSH2 0x253B JUMPI PUSH2 0x253B PUSH2 0x2F68 JUMP JUMPDEST PUSH1 0x5 DUP2 GT ISZERO PUSH2 0x254C JUMPI PUSH2 0x254C PUSH2 0x2F68 JUMP JUMPDEST DUP2 MSTORE PUSH1 0x20 ADD PUSH1 0x2 DUP3 ADD DUP1 SLOAD DUP1 PUSH1 0x20 MUL PUSH1 0x20 ADD PUSH1 0x40 MLOAD SWAP1 DUP2 ADD PUSH1 0x40 MSTORE DUP1 SWAP3 SWAP2 SWAP1 DUP2 DUP2 MSTORE PUSH1 0x20 ADD PUSH1 0x0 SWAP1 JUMPDEST DUP3 DUP3 LT ISZERO PUSH2 0x264E JUMPI PUSH1 0x0 DUP5 DUP2 MSTORE PUSH1 0x20 SWAP1 DUP2 SWAP1 KECCAK256 PUSH1 0x40 DUP1 MLOAD DUP1 DUP3 ADD SWAP1 SWAP2 MSTORE PUSH1 0x2 DUP6 MUL SWAP1 SWAP2 ADD DUP1 SLOAD PUSH1 0x1 PUSH1 0x1 PUSH1 0xA0 SHL SUB AND DUP3 MSTORE PUSH1 0x1 DUP2 ADD DUP1 SLOAD SWAP3 SWAP4 SWAP2 SWAP3 SWAP2 DUP5 ADD SWAP2 PUSH2 0x25BD SWAP1 PUSH2 0x3596 JUMP JUMPDEST DUP1 PUSH1 0x1F ADD PUSH1 0x20 DUP1 SWAP2 DIV MUL PUSH1 0x20 ADD PUSH1 0x40 MLOAD SWAP1 DUP2 ADD PUSH1 0x40 MSTORE DUP1 SWAP3 SWAP2 SWAP1 DUP2 DUP2 MSTORE PUSH1 0x20 ADD DUP3 DUP1 SLOAD PUSH2 0x25E9 SWAP1 PUSH2 0x3596 JUMP JUMPDEST DUP1 ISZERO PUSH2 0x2636 JUMPI DUP1 PUSH1 0x1F LT PUSH2 0x260B JUMPI PUSH2 0x100 DUP1 DUP4 SLOAD DIV MUL DUP4 MSTORE SWAP2 PUSH1 0x20 ADD SWAP2 PUSH2 0x2636 JUMP JUMPDEST DUP3 ADD SWAP2 SWAP1 PUSH1 0x0 MSTORE PUSH1 0x20 PUSH1 0x0 KECCAK256 SWAP1 JUMPDEST DUP2 SLOAD DUP2 MSTORE SWAP1 PUSH1 0x1 ADD SWAP1 PUSH1 0x20 ADD DUP1 DUP4 GT PUSH2 0x2619 JUMPI DUP3 SWAP1 SUB PUSH1 0x1F AND DUP3 ADD SWAP2 JUMPDEST POP POP POP POP POP DUP2 MSTORE POP POP DUP2 MSTORE PUSH1 0x20 ADD SWAP1 PUSH1 0x1 ADD SWAP1 PUSH2 0x2575 JUMP JUMPDEST POP POP POP POP DUP2 MSTORE POP POP DUP3 DUP3 DUP2 MLOAD DUP2 LT PUSH2 0x2668 JUMPI PUSH2 0x2668 PUSH2 0x3715 JUMP JUMPDEST PUSH1 0x20 MUL PUSH1 0x20 ADD ADD DUP2 SWAP1 MSTORE POP DUP1 DUP1 PUSH2 0x267E SWAP1 PUSH2 0x373E JUMP JUMPDEST SWAP2 POP POP PUSH2 0x2453 JUMP JUMPDEST PUSH1 0x40 DUP1 MLOAD PUSH1 0xC0 DUP2 ADD DUP3 MSTORE PUSH1 0x0 DUP1 DUP3 MSTORE PUSH1 0x20 DUP3 ADD DUP2 SWAP1 MSTORE SWAP2 DUP2 ADD DUP3 SWAP1 MSTORE PUSH1 0x60 DUP2 ADD DUP3 SWAP1 MSTORE PUSH1 0x80 DUP2 ADD DUP3 SWAP1 MSTORE PUSH1 0xA0 DUP2 ADD SWAP2 SWAP1 SWAP2 MSTORE PUSH1 0x0 DUP3 PUSH1 0x0 DUP2 MLOAD DUP2 LT PUSH2 0x26CD JUMPI PUSH2 0x26CD PUSH2 0x3715 JUMP JUMPDEST PUSH1 0x20 MUL PUSH1 0x20 ADD ADD MLOAD SWAP1 POP PUSH32 0x0 PUSH1 0x1 PUSH1 0x1 PUSH1 0xA0 SHL SUB AND PUSH4 0xFEB52AF5 DUP3 PUSH1 0x0 ADD MLOAD DUP4 PUSH1 0x20 ADD MLOAD PUSH1 0x40 MLOAD DUP4 PUSH4 0xFFFFFFFF AND PUSH1 0xE0 SHL DUP2 MSTORE PUSH1 0x4 ADD PUSH2 0x272D SWAP3 SWAP2 SWAP1 PUSH2 0x3E71 JUMP JUMPDEST PUSH1 0xC0 PUSH1 0x40 MLOAD DUP1 DUP4 SUB DUP2 DUP7 GAS STATICCALL ISZERO DUP1 ISZERO PUSH2 0x274A JUMPI RETURNDATASIZE PUSH1 0x0 DUP1 RETURNDATACOPY RETURNDATASIZE PUSH1 0x0 REVERT JUMPDEST POP POP POP POP PUSH1 0x40 MLOAD RETURNDATASIZE PUSH1 0x1F NOT PUSH1 0x1F DUP3 ADD AND DUP3 ADD DUP1 PUSH1 0x40 MSTORE POP DUP2 ADD SWAP1 PUSH2 0x276E SWAP2 SWAP1 PUSH2 0x3D98 JUMP JUMPDEST SWAP2 POP PUSH1 0x1 JUMPDEST DUP4 MLOAD DUP2 LT ISZERO PUSH2 0x2876 JUMPI PUSH1 0x0 PUSH32 0x0 PUSH1 0x1 PUSH1 0x1 PUSH1 0xA0 SHL SUB AND PUSH4 0xFEB52AF5 DUP7 DUP5 DUP2 MLOAD DUP2 LT PUSH2 0x27BF JUMPI PUSH2 0x27BF PUSH2 0x3715 JUMP JUMPDEST PUSH1 0x20 MUL PUSH1 0x20 ADD ADD MLOAD PUSH1 0x0 ADD MLOAD DUP8 DUP6 DUP2 MLOAD DUP2 LT PUSH2 0x27DD JUMPI PUSH2 0x27DD PUSH2 0x3715 JUMP JUMPDEST PUSH1 0x20 MUL PUSH1 0x20 ADD ADD MLOAD PUSH1 0x20 ADD MLOAD PUSH1 0x40 MLOAD DUP4 PUSH4 0xFFFFFFFF AND PUSH1 0xE0 SHL DUP2 MSTORE PUSH1 0x4 ADD PUSH2 0x2806 SWAP3 SWAP2 SWAP1 PUSH2 0x3E71 JUMP JUMPDEST PUSH1 0xC0 PUSH1 0x40 MLOAD DUP1 DUP4 SUB DUP2 DUP7 GAS STATICCALL ISZERO DUP1 ISZERO PUSH2 0x2823 JUMPI RETURNDATASIZE PUSH1 0x0 DUP1 RETURNDATACOPY RETURNDATASIZE PUSH1 0x0 REVERT JUMPDEST POP POP POP POP PUSH1 0x40 MLOAD RETURNDATASIZE PUSH1 0x1F NOT PUSH1 0x1F DUP3 ADD AND DUP3 ADD DUP1 PUSH1 0x40 MSTORE POP DUP2 ADD SWAP1 PUSH2 0x2847 SWAP2 SWAP1 PUSH2 0x3D98 JUMP JUMPDEST SWAP1 POP DUP4 PUSH1 0xA0 ADD MLOAD PUSH1 0xFF AND DUP2 PUSH1 0xA0 ADD MLOAD PUSH1 0xFF AND GT ISZERO PUSH2 0x2863 JUMPI DUP1 SWAP4 POP JUMPDEST POP DUP1 PUSH2 0x286E DUP2 PUSH2 0x373E JUMP JUMPDEST SWAP2 POP POP PUSH2 0x2773 JUMP JUMPDEST POP POP SWAP2 SWAP1 POP JUMP JUMPDEST DUP1 SLOAD ISZERO PUSH2 0x28C4 JUMPI PUSH1 0x40 MLOAD PUSH3 0x461BCD PUSH1 0xE5 SHL DUP2 MSTORE PUSH1 0x20 PUSH1 0x4 DUP3 ADD MSTORE PUSH1 0x15 PUSH1 0x24 DUP3 ADD MSTORE PUSH21 0x39BA37B930B3B29036BAB9BA1031329031B632B0B7 PUSH1 0x59 SHL PUSH1 0x44 DUP3 ADD MSTORE PUSH1 0x64 ADD PUSH2 0x44A JUMP JUMPDEST PUSH1 0x0 JUMPDEST DUP3 MLOAD DUP2 LT ISZERO PUSH2 0x1962 JUMPI DUP2 DUP4 DUP3 DUP2 MLOAD DUP2 LT PUSH2 0x28E3 JUMPI PUSH2 0x28E3 PUSH2 0x3715 JUMP JUMPDEST PUSH1 0x20 SWAP1 DUP2 MUL SWAP2 SWAP1 SWAP2 ADD DUP2 ADD MLOAD DUP3 SLOAD PUSH1 0x1 DUP1 DUP3 ADD DUP6 SSTORE PUSH1 0x0 SWAP5 DUP6 MSTORE SWAP4 DUP4 SWAP1 KECCAK256 DUP3 MLOAD PUSH1 0x3 SWAP1 SWAP3 MUL ADD DUP1 SLOAD PUSH1 0x1 PUSH1 0x1 PUSH1 0xA0 SHL SUB NOT AND PUSH1 0x1 PUSH1 0x1 PUSH1 0xA0 SHL SUB SWAP1 SWAP3 AND SWAP2 SWAP1 SWAP2 OR DUP2 SSTORE SWAP2 DUP2 ADD MLOAD SWAP3 DUP3 ADD SWAP3 SWAP1 SWAP3 SSTORE PUSH1 0x40 SWAP1 SWAP2 ADD MLOAD PUSH1 0x2 SWAP1 SWAP2 ADD SSTORE DUP1 PUSH2 0x2947 DUP2 PUSH2 0x373E JUMP JUMPDEST SWAP2 POP POP PUSH2 0x28C7 JUMP JUMPDEST PUSH1 0x0 DUP1 JUMPDEST DUP4 MLOAD DUP2 LT ISZERO PUSH2 0x29DC JUMPI PUSH1 0x0 DUP5 DUP3 DUP2 MLOAD DUP2 LT PUSH2 0x2970 JUMPI PUSH2 0x2970 PUSH2 0x3715 JUMP JUMPDEST PUSH1 0x20 MUL PUSH1 0x20 ADD ADD MLOAD SWAP1 POP PUSH1 0x0 PUSH2 0x2993 DUP3 PUSH1 0x0 ADD MLOAD DUP7 PUSH2 0x2394 SWAP1 SWAP2 SWAP1 PUSH4 0xFFFFFFFF AND JUMP JUMPDEST SWAP2 POP POP PUSH2 0x29BB DUP3 PUSH1 0x20 ADD MLOAD PUSH2 0x29B5 DUP5 PUSH1 0x40 ADD MLOAD DUP5 PUSH2 0x2214 SWAP1 SWAP2 SWAP1 PUSH4 0xFFFFFFFF AND JUMP JUMPDEST SWAP1 PUSH2 0x2D93 JUMP JUMPDEST PUSH2 0x29C5 SWAP1 DUP6 PUSH2 0x355F JUMP JUMPDEST SWAP4 POP POP POP DUP1 DUP1 PUSH2 0x29D4 SWAP1 PUSH2 0x373E JUMP JUMPDEST SWAP2 POP POP PUSH2 0x2953 JUMP JUMPDEST POP SWAP3 SWAP2 POP POP JUMP JUMPDEST PUSH1 0x0 DUP2 DUP2 MSTORE PUSH1 0x1 DUP4 ADD PUSH1 0x20 MSTORE PUSH1 0x40 DUP2 KECCAK256 SLOAD DUP1 ISZERO PUSH2 0x2ACC JUMPI PUSH1 0x0 PUSH2 0x2A07 PUSH1 0x1 DUP4 PUSH2 0x372B JUMP JUMPDEST DUP6 SLOAD SWAP1 SWAP2 POP PUSH1 0x0 SWAP1 PUSH2 0x2A1B SWAP1 PUSH1 0x1 SWAP1 PUSH2 0x372B JUMP JUMPDEST SWAP1 POP DUP2 DUP2 EQ PUSH2 0x2A80 JUMPI PUSH1 0x0 DUP7 PUSH1 0x0 ADD DUP3 DUP2 SLOAD DUP2 LT PUSH2 0x2A3B JUMPI PUSH2 0x2A3B PUSH2 0x3715 JUMP JUMPDEST SWAP1 PUSH1 0x0 MSTORE PUSH1 0x20 PUSH1 0x0 KECCAK256 ADD SLOAD SWAP1 POP DUP1 DUP8 PUSH1 0x0 ADD DUP5 DUP2 SLOAD DUP2 LT PUSH2 0x2A5E JUMPI PUSH2 0x2A5E PUSH2 0x3715 JUMP JUMPDEST PUSH1 0x0 SWAP2 DUP3 MSTORE PUSH1 0x20 DUP1 DUP4 KECCAK256 SWAP1 SWAP2 ADD SWAP3 SWAP1 SWAP3 SSTORE SWAP2 DUP3 MSTORE PUSH1 0x1 DUP9 ADD SWAP1 MSTORE PUSH1 0x40 SWAP1 KECCAK256 DUP4 SWAP1 SSTORE JUMPDEST DUP6 SLOAD DUP7 SWAP1 DUP1 PUSH2 0x2A91 JUMPI PUSH2 0x2A91 PUSH2 0x3E95 JUMP JUMPDEST PUSH1 0x1 SWAP1 SUB DUP2 DUP2 SWAP1 PUSH1 0x0 MSTORE PUSH1 0x20 PUSH1 0x0 KECCAK256 ADD PUSH1 0x0 SWAP1 SSTORE SWAP1 SSTORE DUP6 PUSH1 0x1 ADD PUSH1 0x0 DUP7 DUP2 MSTORE PUSH1 0x20 ADD SWAP1 DUP2 MSTORE PUSH1 0x20 ADD PUSH1 0x0 KECCAK256 PUSH1 0x0 SWAP1 SSTORE PUSH1 0x1 SWAP4 POP POP POP POP PUSH2 0xB49 JUMP JUMPDEST PUSH1 0x0 SWAP2 POP POP PUSH2 0xB49 JUMP JUMPDEST PUSH1 0x0 DUP2 DUP2 MSTORE PUSH1 0x1 DUP4 ADD PUSH1 0x20 MSTORE PUSH1 0x40 DUP2 KECCAK256 SLOAD PUSH2 0x2B1D JUMPI POP DUP2 SLOAD PUSH1 0x1 DUP2 DUP2 ADD DUP5 SSTORE PUSH1 0x0 DUP5 DUP2 MSTORE PUSH1 0x20 DUP1 DUP3 KECCAK256 SWAP1 SWAP4 ADD DUP5 SWAP1 SSTORE DUP5 SLOAD DUP5 DUP3 MSTORE DUP3 DUP7 ADD SWAP1 SWAP4 MSTORE PUSH1 0x40 SWAP1 KECCAK256 SWAP2 SWAP1 SWAP2 SSTORE PUSH2 0xB49 JUMP JUMPDEST POP PUSH1 0x0 PUSH2 0xB49 JUMP JUMPDEST PUSH1 0x60 PUSH1 0x0 PUSH2 0x2B32 DUP4 PUSH2 0x2DA8 JUMP JUMPDEST PUSH1 0x1 PUSH1 0x1 PUSH1 0x40 SHL SUB DUP2 GT ISZERO PUSH2 0x2B49 JUMPI PUSH2 0x2B49 PUSH2 0x3337 JUMP JUMPDEST PUSH1 0x40 MLOAD SWAP1 DUP1 DUP3 MSTORE DUP1 PUSH1 0x20 MUL PUSH1 0x20 ADD DUP3 ADD PUSH1 0x40 MSTORE DUP1 ISZERO PUSH2 0x2B8E JUMPI DUP2 PUSH1 0x20 ADD JUMPDEST PUSH1 0x40 DUP1 MLOAD DUP1 DUP3 ADD SWAP1 SWAP2 MSTORE PUSH1 0x0 DUP1 DUP3 MSTORE PUSH1 0x20 DUP3 ADD MSTORE DUP2 MSTORE PUSH1 0x20 ADD SWAP1 PUSH1 0x1 SWAP1 SUB SWAP1 DUP2 PUSH2 0x2B67 JUMPI SWAP1 POP JUMPDEST POP SWAP1 POP PUSH1 0x0 JUMPDEST PUSH2 0x2B9D DUP5 PUSH2 0x2DA8 JUMP JUMPDEST DUP2 LT ISZERO PUSH2 0x29DC JUMPI PUSH1 0x0 DUP1 PUSH2 0x2BB1 DUP7 DUP5 PUSH2 0x2DB3 JUMP JUMPDEST SWAP2 POP SWAP2 POP PUSH1 0x40 MLOAD DUP1 PUSH1 0x40 ADD PUSH1 0x40 MSTORE DUP1 DUP4 PUSH1 0x1 PUSH1 0x1 PUSH1 0xA0 SHL SUB AND DUP2 MSTORE PUSH1 0x20 ADD DUP3 DUP2 MSTORE POP DUP5 DUP5 DUP2 MLOAD DUP2 LT PUSH2 0x2BE5 JUMPI PUSH2 0x2BE5 PUSH2 0x3715 JUMP JUMPDEST PUSH1 0x20 MUL PUSH1 0x20 ADD ADD DUP2 SWAP1 MSTORE POP POP POP DUP1 DUP1 PUSH2 0x2BFD SWAP1 PUSH2 0x373E JUMP JUMPDEST SWAP2 POP POP PUSH2 0x2B94 JUMP JUMPDEST PUSH1 0x0 DUP2 DUP2 MSTORE PUSH1 0x2 DUP4 ADD PUSH1 0x20 MSTORE PUSH1 0x40 DUP2 KECCAK256 SLOAD DUP2 SWAP1 DUP1 PUSH2 0x2C34 JUMPI PUSH2 0x2C27 DUP6 DUP6 PUSH2 0x2DC2 JUMP JUMPDEST SWAP3 POP PUSH1 0x0 SWAP2 POP PUSH2 0x23B4 SWAP1 POP JUMP JUMPDEST PUSH1 0x1 SWAP3 POP SWAP1 POP PUSH2 0x23B4 JUMP JUMPDEST PUSH1 0x0 DUP3 DUP2 MSTORE PUSH1 0x2 DUP5 ADD PUSH1 0x20 MSTORE PUSH1 0x40 DUP2 KECCAK256 DUP3 SWAP1 SSTORE PUSH2 0x23D1 DUP5 DUP5 PUSH2 0x2233 JUMP JUMPDEST PUSH1 0x60 DUP3 SELFBALANCE LT ISZERO PUSH2 0x2CBD JUMPI PUSH1 0x40 MLOAD PUSH3 0x461BCD PUSH1 0xE5 SHL DUP2 MSTORE PUSH1 0x20 PUSH1 0x4 DUP3 ADD MSTORE PUSH1 0x26 PUSH1 0x24 DUP3 ADD MSTORE PUSH32 0x416464726573733A20696E73756666696369656E742062616C616E636520666F PUSH1 0x44 DUP3 ADD MSTORE PUSH6 0x1C8818D85B1B PUSH1 0xD2 SHL PUSH1 0x64 DUP3 ADD MSTORE PUSH1 0x84 ADD PUSH2 0x44A JUMP JUMPDEST PUSH1 0x0 DUP1 DUP7 PUSH1 0x1 PUSH1 0x1 PUSH1 0xA0 SHL SUB AND DUP6 DUP8 PUSH1 0x40 MLOAD PUSH2 0x2CD9 SWAP2 SWAP1 PUSH2 0x3EAB JUMP JUMPDEST PUSH1 0x0 PUSH1 0x40 MLOAD DUP1 DUP4 SUB DUP2 DUP6 DUP8 GAS CALL SWAP3 POP POP POP RETURNDATASIZE DUP1 PUSH1 0x0 DUP2 EQ PUSH2 0x2D16 JUMPI PUSH1 0x40 MLOAD SWAP2 POP PUSH1 0x1F NOT PUSH1 0x3F RETURNDATASIZE ADD AND DUP3 ADD PUSH1 0x40 MSTORE RETURNDATASIZE DUP3 MSTORE RETURNDATASIZE PUSH1 0x0 PUSH1 0x20 DUP5 ADD RETURNDATACOPY PUSH2 0x2D1B JUMP JUMPDEST PUSH1 0x60 SWAP2 POP JUMPDEST POP SWAP2 POP SWAP2 POP PUSH2 0x2D2C DUP8 DUP4 DUP4 DUP8 PUSH2 0x2DCE JUMP JUMPDEST SWAP8 SWAP7 POP POP POP POP POP POP POP JUMP JUMPDEST PUSH1 0x60 DUP2 PUSH1 0x0 ADD DUP1 SLOAD DUP1 PUSH1 0x20 MUL PUSH1 0x20 ADD PUSH1 0x40 MLOAD SWAP1 DUP2 ADD PUSH1 0x40 MSTORE DUP1 SWAP3 SWAP2 SWAP1 DUP2 DUP2 MSTORE PUSH1 0x20 ADD DUP3 DUP1 SLOAD DUP1 ISZERO PUSH2 0x2D87 JUMPI PUSH1 0x20 MUL DUP3 ADD SWAP2 SWAP1 PUSH1 0x0 MSTORE PUSH1 0x20 PUSH1 0x0 KECCAK256 SWAP1 JUMPDEST DUP2 SLOAD DUP2 MSTORE PUSH1 0x20 ADD SWAP1 PUSH1 0x1 ADD SWAP1 DUP1 DUP4 GT PUSH2 0x2D73 JUMPI JUMPDEST POP POP POP POP POP SWAP1 POP SWAP2 SWAP1 POP JUMP JUMPDEST PUSH1 0x0 PUSH8 0xDE0B6B3A7640000 PUSH2 0x2229 DUP4 DUP6 PUSH2 0x3E38 JUMP JUMPDEST PUSH1 0x0 PUSH2 0xB49 DUP3 PUSH2 0x2E47 JUMP JUMPDEST PUSH1 0x0 DUP1 DUP1 DUP1 PUSH2 0x23AC DUP7 DUP7 PUSH2 0x2E52 JUMP JUMPDEST PUSH1 0x0 PUSH2 0x1F24 DUP4 DUP4 PUSH2 0x1F10 JUMP JUMPDEST PUSH1 0x60 DUP4 ISZERO PUSH2 0x2E3D JUMPI DUP3 MLOAD PUSH1 0x0 SUB PUSH2 0x2E36 JUMPI PUSH1 0x1 PUSH1 0x1 PUSH1 0xA0 SHL SUB DUP6 AND EXTCODESIZE PUSH2 0x2E36 JUMPI PUSH1 0x40 MLOAD PUSH3 0x461BCD PUSH1 0xE5 SHL DUP2 MSTORE PUSH1 0x20 PUSH1 0x4 DUP3 ADD MSTORE PUSH1 0x1D PUSH1 0x24 DUP3 ADD MSTORE PUSH32 0x416464726573733A2063616C6C20746F206E6F6E2D636F6E7472616374000000 PUSH1 0x44 DUP3 ADD MSTORE PUSH1 0x64 ADD PUSH2 0x44A JUMP JUMPDEST POP DUP2 PUSH2 0x23D1 JUMP JUMPDEST PUSH2 0x23D1 DUP4 DUP4 PUSH2 0x2E7D JUMP JUMPDEST PUSH1 0x0 PUSH2 0xB49 DUP3 PUSH2 0x2EA7 JUMP JUMPDEST PUSH1 0x0 DUP1 DUP1 PUSH2 0x2E60 DUP6 DUP6 PUSH2 0x2EB1 JUMP JUMPDEST PUSH1 0x0 DUP2 DUP2 MSTORE PUSH1 0x2 SWAP7 SWAP1 SWAP7 ADD PUSH1 0x20 MSTORE PUSH1 0x40 SWAP1 SWAP6 KECCAK256 SLOAD SWAP5 SWAP6 SWAP4 POP POP POP POP JUMP JUMPDEST DUP2 MLOAD ISZERO PUSH2 0x2E8D JUMPI DUP2 MLOAD DUP1 DUP4 PUSH1 0x20 ADD REVERT JUMPDEST DUP1 PUSH1 0x40 MLOAD PUSH3 0x461BCD PUSH1 0xE5 SHL DUP2 MSTORE PUSH1 0x4 ADD PUSH2 0x44A SWAP2 SWAP1 PUSH2 0x3EBD JUMP JUMPDEST PUSH1 0x0 PUSH2 0xB49 DUP3 SLOAD SWAP1 JUMP JUMPDEST PUSH1 0x0 PUSH2 0x1F24 DUP4 DUP4 PUSH1 0x0 DUP3 PUSH1 0x0 ADD DUP3 DUP2 SLOAD DUP2 LT PUSH2 0x2ECF JUMPI PUSH2 0x2ECF PUSH2 0x3715 JUMP JUMPDEST SWAP1 PUSH1 0x0 MSTORE PUSH1 0x20 PUSH1 0x0 KECCAK256 ADD SLOAD SWAP1 POP SWAP3 SWAP2 POP POP JUMP JUMPDEST PUSH1 0x40 DUP1 MLOAD PUSH2 0x140 DUP2 ADD DUP3 MSTORE PUSH1 0x0 DUP1 DUP3 MSTORE PUSH1 0x20 DUP3 ADD DUP2 SWAP1 MSTORE SWAP2 DUP2 ADD DUP3 SWAP1 MSTORE PUSH1 0x60 DUP2 ADD DUP3 SWAP1 MSTORE PUSH1 0x80 DUP2 ADD DUP3 SWAP1 MSTORE PUSH1 0xA0 DUP2 ADD DUP3 SWAP1 MSTORE PUSH1 0xC0 DUP2 ADD DUP3 SWAP1 MSTORE PUSH1 0xE0 DUP2 ADD DUP3 SWAP1 MSTORE SWAP1 PUSH2 0x100 DUP3 ADD SWAP1 DUP2 MSTORE PUSH1 0x20 ADD PUSH1 0x60 DUP2 MSTORE POP SWAP1 JUMP JUMPDEST DUP1 CALLDATALOAD PUSH2 0xFFFF DUP2 AND DUP2 EQ PUSH2 0x2F48 JUMPI PUSH1 0x0 DUP1 REVERT JUMPDEST SWAP2 SWAP1 POP JUMP JUMPDEST PUSH1 0x0 PUSH1 0x20 DUP3 DUP5 SUB SLT ISZERO PUSH2 0x2F5F JUMPI PUSH1 0x0 DUP1 REVERT JUMPDEST PUSH2 0x1F24 DUP3 PUSH2 0x2F36 JUMP JUMPDEST PUSH4 0x4E487B71 PUSH1 0xE0 SHL PUSH1 0x0 MSTORE PUSH1 0x21 PUSH1 0x4 MSTORE PUSH1 0x24 PUSH1 0x0 REVERT JUMPDEST PUSH1 0x6 DUP2 LT PUSH2 0x2F8E JUMPI PUSH2 0x2F8E PUSH2 0x2F68 JUMP JUMPDEST SWAP1 MSTORE JUMP JUMPDEST PUSH1 0x0 JUMPDEST DUP4 DUP2 LT ISZERO PUSH2 0x2FAD JUMPI DUP2 DUP2 ADD MLOAD DUP4 DUP3 ADD MSTORE PUSH1 0x20 ADD PUSH2 0x2F95 JUMP JUMPDEST POP POP PUSH1 0x0 SWAP2 ADD MSTORE JUMP JUMPDEST PUSH1 0x0 DUP2 MLOAD DUP1 DUP5 MSTORE PUSH2 0x2FCE DUP2 PUSH1 0x20 DUP7 ADD PUSH1 0x20 DUP7 ADD PUSH2 0x2F92 JUMP JUMPDEST PUSH1 0x1F ADD PUSH1 0x1F NOT AND SWAP3 SWAP1 SWAP3 ADD PUSH1 0x20 ADD SWAP3 SWAP2 POP POP JUMP JUMPDEST PUSH1 0x0 DUP3 DUP3 MLOAD DUP1 DUP6 MSTORE PUSH1 0x20 DUP1 DUP7 ADD SWAP6 POP DUP1 DUP3 PUSH1 0x5 SHL DUP5 ADD ADD DUP2 DUP7 ADD PUSH1 0x0 JUMPDEST DUP5 DUP2 LT ISZERO PUSH2 0x304A JUMPI DUP6 DUP4 SUB PUSH1 0x1F NOT ADD DUP10 MSTORE DUP2 MLOAD DUP1 MLOAD PUSH1 0x1 PUSH1 0x1 PUSH1 0xA0 SHL SUB AND DUP5 MSTORE DUP5 ADD MLOAD PUSH1 0x40 DUP6 DUP6 ADD DUP2 SWAP1 MSTORE PUSH2 0x3036 DUP2 DUP7 ADD DUP4 PUSH2 0x2FB6 JUMP JUMPDEST SWAP11 DUP7 ADD SWAP11 SWAP5 POP POP POP SWAP1 DUP4 ADD SWAP1 PUSH1 0x1 ADD PUSH2 0x2FFF JUMP JUMPDEST POP SWAP1 SWAP8 SWAP7 POP POP POP POP POP POP POP JUMP JUMPDEST DUP1 MLOAD PUSH1 0x1 PUSH1 0x1 PUSH1 0x40 SHL SUB AND DUP3 MSTORE PUSH1 0x0 PUSH2 0x140 PUSH1 0x20 DUP4 ADD MLOAD PUSH2 0x3083 PUSH1 0x20 DUP7 ADD DUP3 PUSH1 0x1 PUSH1 0x1 PUSH1 0x40 SHL SUB AND SWAP1 MSTORE JUMP JUMPDEST POP PUSH1 0x40 DUP4 ADD MLOAD PUSH2 0x309E PUSH1 0x40 DUP7 ADD DUP3 PUSH1 0x1 PUSH1 0x1 PUSH1 0x40 SHL SUB AND SWAP1 MSTORE JUMP JUMPDEST POP PUSH1 0x60 DUP4 ADD MLOAD PUSH2 0x30B9 PUSH1 0x60 DUP7 ADD DUP3 PUSH1 0x1 PUSH1 0x1 PUSH1 0x40 SHL SUB AND SWAP1 MSTORE JUMP JUMPDEST POP PUSH1 0x80 DUP4 ADD MLOAD PUSH2 0x30D4 PUSH1 0x80 DUP7 ADD DUP3 PUSH1 0x1 PUSH1 0x1 PUSH1 0x40 SHL SUB AND SWAP1 MSTORE JUMP JUMPDEST POP PUSH1 0xA0 DUP4 ADD MLOAD PUSH2 0x30EA PUSH1 0xA0 DUP7 ADD DUP3 PUSH2 0xFFFF AND SWAP1 MSTORE JUMP JUMPDEST POP PUSH1 0xC0 DUP4 ADD MLOAD PUSH2 0x30FF PUSH1 0xC0 DUP7 ADD DUP3 PUSH1 0xFF AND SWAP1 MSTORE JUMP JUMPDEST POP PUSH1 0xE0 DUP4 ADD MLOAD PUSH2 0x311A PUSH1 0xE0 DUP7 ADD DUP3 PUSH1 0x1 PUSH1 0x1 PUSH1 0xA0 SHL SUB AND SWAP1 MSTORE JUMP JUMPDEST POP PUSH2 0x100 DUP1 DUP5 ADD MLOAD PUSH2 0x312E DUP3 DUP8 ADD DUP3 PUSH2 0x2F7E JUMP JUMPDEST POP POP PUSH2 0x120 DUP1 DUP5 ADD MLOAD DUP3 DUP3 DUP8 ADD MSTORE PUSH2 0x3148 DUP4 DUP8 ADD DUP3 PUSH2 0x2FE2 JUMP JUMPDEST SWAP7 SWAP6 POP POP POP POP POP POP JUMP JUMPDEST PUSH1 0x20 DUP2 MSTORE PUSH1 0x0 PUSH2 0x1F24 PUSH1 0x20 DUP4 ADD DUP5 PUSH2 0x3057 JUMP JUMPDEST PUSH1 0x0 DUP2 MLOAD DUP1 DUP5 MSTORE PUSH1 0x20 DUP1 DUP6 ADD SWAP5 POP DUP1 DUP5 ADD PUSH1 0x0 JUMPDEST DUP4 DUP2 LT ISZERO PUSH2 0x31AC JUMPI DUP2 MLOAD DUP1 MLOAD PUSH1 0x1 PUSH1 0x1 PUSH1 0xA0 SHL SUB AND DUP9 MSTORE PUSH1 0x20 SWAP1 DUP2 ADD MLOAD SWAP1 DUP9 ADD MSTORE PUSH1 0x40 DUP8 ADD SWAP7 POP SWAP1 DUP3 ADD SWAP1 PUSH1 0x1 ADD PUSH2 0x3179 JUMP JUMPDEST POP SWAP5 SWAP6 SWAP5 POP POP POP POP POP JUMP JUMPDEST PUSH1 0x20 DUP2 MSTORE PUSH1 0x0 DUP3 MLOAD PUSH1 0x60 PUSH1 0x20 DUP5 ADD MSTORE PUSH2 0x31D3 PUSH1 0x80 DUP5 ADD DUP3 PUSH2 0x3165 JUMP JUMPDEST SWAP1 POP PUSH1 0x20 DUP5 ADD MLOAD PUSH1 0x1F NOT DUP1 DUP6 DUP5 SUB ADD PUSH1 0x40 DUP7 ADD MSTORE PUSH2 0x31F1 DUP4 DUP4 PUSH2 0x3165 JUMP JUMPDEST SWAP3 POP PUSH1 0x40 DUP7 ADD MLOAD SWAP2 POP DUP1 DUP6 DUP5 SUB ADD PUSH1 0x60 DUP7 ADD MSTORE POP PUSH2 0x320F DUP3 DUP3 PUSH2 0x3165 JUMP JUMPDEST SWAP6 SWAP5 POP POP POP POP POP JUMP JUMPDEST PUSH1 0x0 DUP1 PUSH1 0x40 DUP4 DUP6 SUB SLT ISZERO PUSH2 0x322B JUMPI PUSH1 0x0 DUP1 REVERT JUMPDEST PUSH2 0x3234 DUP4 PUSH2 0x2F36 JUMP JUMPDEST SWAP2 POP PUSH1 0x20 DUP4 ADD CALLDATALOAD PUSH1 0x4 DUP2 LT PUSH2 0x3248 JUMPI PUSH1 0x0 DUP1 REVERT JUMPDEST DUP1 SWAP2 POP POP SWAP3 POP SWAP3 SWAP1 POP JUMP JUMPDEST PUSH1 0x0 DUP1 PUSH1 0x20 DUP4 DUP6 SUB SLT ISZERO PUSH2 0x3266 JUMPI PUSH1 0x0 DUP1 REVERT JUMPDEST DUP3 CALLDATALOAD PUSH1 0x1 PUSH1 0x1 PUSH1 0x40 SHL SUB DUP1 DUP3 GT ISZERO PUSH2 0x327D JUMPI PUSH1 0x0 DUP1 REVERT JUMPDEST DUP2 DUP6 ADD SWAP2 POP DUP6 PUSH1 0x1F DUP4 ADD SLT PUSH2 0x3291 JUMPI PUSH1 0x0 DUP1 REVERT JUMPDEST DUP2 CALLDATALOAD DUP2 DUP2 GT ISZERO PUSH2 0x32A0 JUMPI PUSH1 0x0 DUP1 REVERT JUMPDEST DUP7 PUSH1 0x20 DUP3 PUSH1 0x5 SHL DUP6 ADD ADD GT ISZERO PUSH2 0x32B5 JUMPI PUSH1 0x0 DUP1 REVERT JUMPDEST PUSH1 0x20 SWAP3 SWAP1 SWAP3 ADD SWAP7 SWAP2 SWAP6 POP SWAP1 SWAP4 POP POP POP POP JUMP JUMPDEST PUSH1 0x1 PUSH1 0x1 PUSH1 0xA0 SHL SUB DUP2 AND DUP2 EQ PUSH2 0x32DC JUMPI PUSH1 0x0 DUP1 REVERT JUMPDEST POP JUMP JUMPDEST PUSH1 0x0 DUP1 PUSH1 0x40 DUP4 DUP6 SUB SLT ISZERO PUSH2 0x32F2 JUMPI PUSH1 0x0 DUP1 REVERT JUMPDEST DUP3 CALLDATALOAD PUSH2 0x32FD DUP2 PUSH2 0x32C7 JUMP JUMPDEST SWAP2 POP PUSH2 0x330B PUSH1 0x20 DUP5 ADD PUSH2 0x2F36 JUMP JUMPDEST SWAP1 POP SWAP3 POP SWAP3 SWAP1 POP JUMP JUMPDEST PUSH1 0x4 DUP2 LT PUSH2 0x32DC JUMPI PUSH2 0x32DC PUSH2 0x2F68 JUMP JUMPDEST PUSH1 0x20 DUP2 ADD PUSH2 0x3331 DUP4 PUSH2 0x3314 JUMP JUMPDEST SWAP2 SWAP1 MSTORE SWAP1 JUMP JUMPDEST PUSH4 0x4E487B71 PUSH1 0xE0 SHL PUSH1 0x0 MSTORE PUSH1 0x41 PUSH1 0x4 MSTORE PUSH1 0x24 PUSH1 0x0 REVERT JUMPDEST PUSH1 0x40 DUP1 MLOAD SWAP1 DUP2 ADD PUSH1 0x1 PUSH1 0x1 PUSH1 0x40 SHL SUB DUP2 GT DUP3 DUP3 LT OR ISZERO PUSH2 0x336F JUMPI PUSH2 0x336F PUSH2 0x3337 JUMP JUMPDEST PUSH1 0x40 MSTORE SWAP1 JUMP JUMPDEST PUSH1 0x40 MLOAD PUSH1 0x60 DUP2 ADD PUSH1 0x1 PUSH1 0x1 PUSH1 0x40 SHL SUB DUP2 GT DUP3 DUP3 LT OR ISZERO PUSH2 0x336F JUMPI PUSH2 0x336F PUSH2 0x3337 JUMP JUMPDEST PUSH1 0x40 MLOAD PUSH1 0x1F DUP3 ADD PUSH1 0x1F NOT AND DUP2 ADD PUSH1 0x1 PUSH1 0x1 PUSH1 0x40 SHL SUB DUP2 GT DUP3 DUP3 LT OR ISZERO PUSH2 0x33BF JUMPI PUSH2 0x33BF PUSH2 0x3337 JUMP JUMPDEST PUSH1 0x40 MSTORE SWAP2 SWAP1 POP JUMP JUMPDEST PUSH1 0xFF DUP2 AND DUP2 EQ PUSH2 0x32DC JUMPI PUSH1 0x0 DUP1 REVERT JUMPDEST PUSH1 0x0 PUSH1 0x80 DUP3 DUP5 SUB SLT ISZERO PUSH2 0x33E8 JUMPI PUSH1 0x0 DUP1 REVERT JUMPDEST PUSH1 0x40 MLOAD PUSH1 0x80 DUP2 ADD DUP2 DUP2 LT PUSH1 0x1 PUSH1 0x1 PUSH1 0x40 SHL SUB DUP3 GT OR ISZERO PUSH2 0x340A JUMPI PUSH2 0x340A PUSH2 0x3337 JUMP JUMPDEST PUSH1 0x40 MSTORE SWAP1 POP DUP1 DUP3 CALLDATALOAD PUSH2 0x341B DUP2 PUSH2 0x33C7 JUMP JUMPDEST DUP1 DUP3 MSTORE POP PUSH1 0x20 DUP4 ADD CALLDATALOAD PUSH1 0x20 DUP3 ADD MSTORE PUSH1 0x40 DUP4 ADD CALLDATALOAD PUSH1 0x40 DUP3 ADD MSTORE PUSH1 0x60 DUP4 ADD CALLDATALOAD PUSH2 0x3441 DUP2 PUSH2 0x32C7 JUMP JUMPDEST PUSH1 0x60 SWAP2 SWAP1 SWAP2 ADD MSTORE SWAP3 SWAP2 POP POP JUMP JUMPDEST PUSH1 0x0 PUSH1 0x80 DUP3 DUP5 SUB SLT ISZERO PUSH2 0x3460 JUMPI PUSH1 0x0 DUP1 REVERT JUMPDEST PUSH2 0x1F24 DUP4 DUP4 PUSH2 0x33D6 JUMP JUMPDEST PUSH1 0x0 PUSH1 0x20 DUP3 DUP5 SUB SLT ISZERO PUSH2 0x347C JUMPI PUSH1 0x0 DUP1 REVERT JUMPDEST POP CALLDATALOAD SWAP2 SWAP1 POP JUMP JUMPDEST PUSH1 0x0 DUP1 PUSH1 0xA0 DUP4 DUP6 SUB SLT ISZERO PUSH2 0x3496 JUMPI PUSH1 0x0 DUP1 REVERT JUMPDEST DUP3 CALLDATALOAD PUSH2 0x34A1 DUP2 PUSH2 0x32C7 JUMP JUMPDEST SWAP2 POP PUSH2 0x330B DUP5 PUSH1 0x20 DUP6 ADD PUSH2 0x33D6 JUMP JUMPDEST PUSH1 0x0 PUSH1 0x20 DUP1 DUP4 ADD DUP2 DUP5 MSTORE DUP1 DUP6 MLOAD DUP1 DUP4 MSTORE PUSH1 0x40 DUP7 ADD SWAP2 POP PUSH1 0x40 DUP2 PUSH1 0x5 SHL DUP8 ADD ADD SWAP3 POP DUP4 DUP8 ADD PUSH1 0x0 JUMPDEST DUP3 DUP2 LT ISZERO PUSH2 0x3505 JUMPI PUSH1 0x3F NOT DUP9 DUP7 SUB ADD DUP5 MSTORE PUSH2 0x34F3 DUP6 DUP4 MLOAD PUSH2 0x3057 JUMP JUMPDEST SWAP5 POP SWAP3 DUP6 ADD SWAP3 SWAP1 DUP6 ADD SWAP1 PUSH1 0x1 ADD PUSH2 0x34D7 JUMP JUMPDEST POP SWAP3 SWAP8 SWAP7 POP POP POP POP POP POP POP JUMP JUMPDEST PUSH1 0x20 DUP1 DUP3 MSTORE PUSH1 0x17 SWAP1 DUP3 ADD MSTORE PUSH32 0x70726F706F73616C20646F6573206E6F74206578697374000000000000000000 PUSH1 0x40 DUP3 ADD MSTORE PUSH1 0x60 ADD SWAP1 JUMP JUMPDEST PUSH4 0x4E487B71 PUSH1 0xE0 SHL PUSH1 0x0 MSTORE PUSH1 0x11 PUSH1 0x4 MSTORE PUSH1 0x24 PUSH1 0x0 REVERT JUMPDEST DUP1 DUP3 ADD DUP1 DUP3 GT ISZERO PUSH2 0xB49 JUMPI PUSH2 0xB49 PUSH2 0x3549 JUMP JUMPDEST PUSH1 0x40 DUP2 ADD PUSH2 0x3580 DUP3 DUP6 PUSH2 0x2F7E JUMP JUMPDEST PUSH2 0x3589 DUP4 PUSH2 0x3314 JUMP JUMPDEST DUP3 PUSH1 0x20 DUP4 ADD MSTORE SWAP4 SWAP3 POP POP POP JUMP JUMPDEST PUSH1 0x1 DUP2 DUP2 SHR SWAP1 DUP3 AND DUP1 PUSH2 0x35AA JUMPI PUSH1 0x7F DUP3 AND SWAP2 POP JUMPDEST PUSH1 0x20 DUP3 LT DUP2 SUB PUSH2 0x35CA JUMPI PUSH4 0x4E487B71 PUSH1 0xE0 SHL PUSH1 0x0 MSTORE PUSH1 0x22 PUSH1 0x4 MSTORE PUSH1 0x24 PUSH1 0x0 REVERT JUMPDEST POP SWAP2 SWAP1 POP JUMP JUMPDEST PUSH1 0x0 PUSH1 0x60 DUP3 ADD PUSH1 0x1 DUP1 PUSH1 0xA0 SHL SUB DUP1 DUP8 AND DUP5 MSTORE PUSH1 0x20 PUSH1 0x1 PUSH1 0x1 PUSH1 0x40 SHL SUB DUP8 AND DUP2 DUP7 ADD MSTORE PUSH1 0x60 PUSH1 0x40 DUP7 ADD MSTORE DUP3 DUP7 MLOAD DUP1 DUP6 MSTORE PUSH1 0x80 DUP8 ADD SWAP2 POP DUP3 DUP9 ADD SWAP5 POP PUSH1 0x0 JUMPDEST DUP2 DUP2 LT ISZERO PUSH2 0x362B JUMPI DUP6 MLOAD DUP6 AND DUP4 MSTORE SWAP5 DUP4 ADD SWAP5 SWAP2 DUP4 ADD SWAP2 PUSH1 0x1 ADD PUSH2 0x360D JUMP JUMPDEST POP SWAP1 SWAP10 SWAP9 POP POP POP POP POP POP POP POP POP JUMP JUMPDEST PUSH1 0x0 PUSH1 0x1 PUSH1 0x1 PUSH1 0x40 SHL SUB DUP3 GT ISZERO PUSH2 0x3653 JUMPI PUSH2 0x3653 PUSH2 0x3337 JUMP JUMPDEST POP PUSH1 0x5 SHL PUSH1 0x20 ADD SWAP1 JUMP JUMPDEST PUSH1 0x0 PUSH1 0x20 DUP1 DUP4 DUP6 SUB SLT ISZERO PUSH2 0x3670 JUMPI PUSH1 0x0 DUP1 REVERT JUMPDEST DUP3 MLOAD PUSH1 0x1 PUSH1 0x1 PUSH1 0x40 SHL SUB DUP2 GT ISZERO PUSH2 0x3686 JUMPI PUSH1 0x0 DUP1 REVERT JUMPDEST DUP4 ADD PUSH1 0x1F DUP2 ADD DUP6 SGT PUSH2 0x3697 JUMPI PUSH1 0x0 DUP1 REVERT JUMPDEST DUP1 MLOAD PUSH2 0x36AA PUSH2 0x36A5 DUP3 PUSH2 0x363A JUMP JUMPDEST PUSH2 0x3397 JUMP JUMPDEST DUP2 DUP2 MSTORE PUSH1 0x6 SWAP2 SWAP1 SWAP2 SHL DUP3 ADD DUP4 ADD SWAP1 DUP4 DUP2 ADD SWAP1 DUP8 DUP4 GT ISZERO PUSH2 0x36C9 JUMPI PUSH1 0x0 DUP1 REVERT JUMPDEST SWAP3 DUP5 ADD SWAP3 JUMPDEST DUP3 DUP5 LT ISZERO PUSH2 0x2D2C JUMPI PUSH1 0x40 DUP5 DUP10 SUB SLT ISZERO PUSH2 0x36E7 JUMPI PUSH1 0x0 DUP1 DUP2 REVERT JUMPDEST PUSH2 0x36EF PUSH2 0x334D JUMP JUMPDEST DUP5 MLOAD PUSH2 0x36FA DUP2 PUSH2 0x32C7 JUMP JUMPDEST DUP2 MSTORE DUP5 DUP7 ADD MLOAD DUP7 DUP3 ADD MSTORE DUP3 MSTORE PUSH1 0x40 SWAP1 SWAP4 ADD SWAP3 SWAP1 DUP5 ADD SWAP1 PUSH2 0x36CE JUMP JUMPDEST PUSH4 0x4E487B71 PUSH1 0xE0 SHL PUSH1 0x0 MSTORE PUSH1 0x32 PUSH1 0x4 MSTORE PUSH1 0x24 PUSH1 0x0 REVERT JUMPDEST DUP2 DUP2 SUB DUP2 DUP2 GT ISZERO PUSH2 0xB49 JUMPI PUSH2 0xB49 PUSH2 0x3549 JUMP JUMPDEST PUSH1 0x0 PUSH1 0x1 DUP3 ADD PUSH2 0x3750 JUMPI PUSH2 0x3750 PUSH2 0x3549 JUMP JUMPDEST POP PUSH1 0x1 ADD SWAP1 JUMP JUMPDEST PUSH1 0x1 PUSH1 0x1 PUSH1 0xA0 SHL SUB DUP4 AND DUP2 MSTORE PUSH1 0x40 DUP2 ADD PUSH2 0x3589 DUP4 PUSH2 0x3314 JUMP JUMPDEST PUSH1 0x0 PUSH2 0xFFFF DUP1 DUP4 AND DUP2 DUP2 SUB PUSH2 0x3787 JUMPI PUSH2 0x3787 PUSH2 0x3549 JUMP JUMPDEST PUSH1 0x1 ADD SWAP4 SWAP3 POP POP POP JUMP JUMPDEST PUSH1 0x0 DUP3 CALLDATALOAD PUSH1 0x3E NOT DUP4 CALLDATASIZE SUB ADD DUP2 SLT PUSH2 0x37A7 JUMPI PUSH1 0x0 DUP1 REVERT JUMPDEST SWAP2 SWAP1 SWAP2 ADD SWAP3 SWAP2 POP POP JUMP JUMPDEST PUSH1 0x0 PUSH1 0x40 DUP3 DUP5 SUB SLT ISZERO PUSH2 0x37C3 JUMPI PUSH1 0x0 DUP1 REVERT JUMPDEST PUSH2 0x37CB PUSH2 0x334D JUMP JUMPDEST SWAP1 POP DUP2 CALLDATALOAD PUSH2 0x37D8 DUP2 PUSH2 0x32C7 JUMP JUMPDEST DUP2 MSTORE PUSH1 0x20 DUP3 DUP2 ADD CALLDATALOAD PUSH1 0x1 PUSH1 0x1 PUSH1 0x40 SHL SUB DUP1 DUP3 GT ISZERO PUSH2 0x37F5 JUMPI PUSH1 0x0 DUP1 REVERT JUMPDEST DUP2 DUP6 ADD SWAP2 POP DUP6 PUSH1 0x1F DUP4 ADD SLT PUSH2 0x3809 JUMPI PUSH1 0x0 DUP1 REVERT JUMPDEST DUP2 CALLDATALOAD DUP2 DUP2 GT ISZERO PUSH2 0x381B JUMPI PUSH2 0x381B PUSH2 0x3337 JUMP JUMPDEST PUSH2 0x382D PUSH1 0x1F DUP3 ADD PUSH1 0x1F NOT AND DUP6 ADD PUSH2 0x3397 JUMP JUMPDEST SWAP2 POP DUP1 DUP3 MSTORE DUP7 DUP5 DUP3 DUP6 ADD ADD GT ISZERO PUSH2 0x3843 JUMPI PUSH1 0x0 DUP1 REVERT JUMPDEST DUP1 DUP5 DUP5 ADD DUP6 DUP5 ADD CALLDATACOPY PUSH1 0x0 SWAP1 DUP3 ADD DUP5 ADD MSTORE SWAP2 DUP4 ADD SWAP2 SWAP1 SWAP2 MSTORE POP SWAP3 SWAP2 POP POP JUMP JUMPDEST PUSH1 0x0 PUSH2 0xB49 CALLDATASIZE DUP4 PUSH2 0x37B1 JUMP JUMPDEST PUSH1 0x1F DUP3 GT ISZERO PUSH2 0x1962 JUMPI PUSH1 0x0 DUP2 DUP2 MSTORE PUSH1 0x20 DUP2 KECCAK256 PUSH1 0x1F DUP6 ADD PUSH1 0x5 SHR DUP2 ADD PUSH1 0x20 DUP7 LT ISZERO PUSH2 0x3894 JUMPI POP DUP1 JUMPDEST PUSH1 0x1F DUP6 ADD PUSH1 0x5 SHR DUP3 ADD SWAP2 POP JUMPDEST DUP2 DUP2 LT ISZERO PUSH2 0x38B3 JUMPI DUP3 DUP2 SSTORE PUSH1 0x1 ADD PUSH2 0x38A0 JUMP JUMPDEST POP POP POP POP POP POP JUMP JUMPDEST DUP2 MLOAD PUSH1 0x1 PUSH1 0x1 PUSH1 0x40 SHL SUB DUP2 GT ISZERO PUSH2 0x38D4 JUMPI PUSH2 0x38D4 PUSH2 0x3337 JUMP JUMPDEST PUSH2 0x38E8 DUP2 PUSH2 0x38E2 DUP5 SLOAD PUSH2 0x3596 JUMP JUMPDEST DUP5 PUSH2 0x386D JUMP JUMPDEST PUSH1 0x20 DUP1 PUSH1 0x1F DUP4 GT PUSH1 0x1 DUP2 EQ PUSH2 0x391D JUMPI PUSH1 0x0 DUP5 ISZERO PUSH2 0x3905 JUMPI POP DUP6 DUP4 ADD MLOAD JUMPDEST PUSH1 0x0 NOT PUSH1 0x3 DUP7 SWAP1 SHL SHR NOT AND PUSH1 0x1 DUP6 SWAP1 SHL OR DUP6 SSTORE PUSH2 0x38B3 JUMP JUMPDEST PUSH1 0x0 DUP6 DUP2 MSTORE PUSH1 0x20 DUP2 KECCAK256 PUSH1 0x1F NOT DUP7 AND SWAP2 JUMPDEST DUP3 DUP2 LT ISZERO PUSH2 0x394C JUMPI DUP9 DUP7 ADD MLOAD DUP3 SSTORE SWAP5 DUP5 ADD SWAP5 PUSH1 0x1 SWAP1 SWAP2 ADD SWAP1 DUP5 ADD PUSH2 0x392D JUMP JUMPDEST POP DUP6 DUP3 LT ISZERO PUSH2 0x396A JUMPI DUP8 DUP6 ADD MLOAD PUSH1 0x0 NOT PUSH1 0x3 DUP9 SWAP1 SHL PUSH1 0xF8 AND SHR NOT AND DUP2 SSTORE JUMPDEST POP POP POP POP POP PUSH1 0x1 SWAP1 DUP2 SHL ADD SWAP1 SSTORE POP JUMP JUMPDEST PUSH1 0x1 PUSH1 0x1 PUSH1 0xA0 SHL SUB DUP5 DUP2 AND DUP3 MSTORE PUSH1 0x40 PUSH1 0x20 DUP1 DUP5 ADD DUP3 SWAP1 MSTORE DUP4 DUP3 ADD DUP6 SWAP1 MSTORE PUSH1 0x0 SWAP3 PUSH1 0x60 SWAP2 DUP3 DUP7 ADD PUSH1 0x5 DUP9 SWAP1 SHL DUP8 ADD DUP5 ADD DUP10 DUP8 JUMPDEST DUP11 DUP2 LT ISZERO PUSH2 0x3A59 JUMPI DUP10 DUP4 SUB PUSH1 0x5F NOT ADD DUP5 MSTORE DUP2 CALLDATALOAD CALLDATASIZE DUP14 SWAP1 SUB PUSH1 0x3E NOT ADD DUP2 SLT PUSH2 0x39D2 JUMPI PUSH1 0x0 DUP1 REVERT JUMPDEST DUP13 ADD DUP1 CALLDATALOAD PUSH2 0x39DF DUP2 PUSH2 0x32C7 JUMP JUMPDEST DUP8 AND DUP5 MSTORE DUP1 DUP7 ADD CALLDATALOAD CALLDATASIZE DUP3 SWAP1 SUB PUSH1 0x1E NOT ADD DUP2 SLT PUSH2 0x39FA JUMPI PUSH1 0x0 DUP1 REVERT JUMPDEST ADD DUP6 DUP2 ADD SWAP1 CALLDATALOAD PUSH1 0x1 PUSH1 0x1 PUSH1 0x40 SHL SUB DUP2 GT ISZERO PUSH2 0x3A14 JUMPI PUSH1 0x0 DUP1 REVERT JUMPDEST DUP1 CALLDATASIZE SUB DUP3 SGT ISZERO PUSH2 0x3A23 JUMPI PUSH1 0x0 DUP1 REVERT JUMPDEST DUP10 DUP8 DUP7 ADD MSTORE DUP1 DUP11 DUP7 ADD MSTORE DUP1 DUP3 DUP11 DUP8 ADD CALLDATACOPY PUSH1 0x0 DUP6 DUP3 ADD DUP11 ADD MSTORE SWAP5 DUP7 ADD SWAP5 PUSH1 0x1F ADD PUSH1 0x1F NOT AND SWAP1 SWAP4 ADD DUP8 ADD SWAP3 POP SWAP1 DUP5 ADD SWAP1 PUSH1 0x1 ADD PUSH2 0x39AC JUMP JUMPDEST POP SWAP1 SWAP12 SWAP11 POP POP POP POP POP POP POP POP POP POP POP JUMP JUMPDEST PUSH1 0x0 PUSH2 0x3A78 PUSH2 0x36A5 DUP5 PUSH2 0x363A JUMP JUMPDEST DUP1 DUP5 DUP3 MSTORE PUSH1 0x20 DUP1 DUP4 ADD SWAP3 POP DUP6 PUSH1 0x5 SHL DUP6 ADD CALLDATASIZE DUP2 GT ISZERO PUSH2 0x3A96 JUMPI PUSH1 0x0 DUP1 REVERT JUMPDEST DUP6 JUMPDEST DUP2 DUP2 LT ISZERO PUSH2 0x3AD1 JUMPI DUP1 CALLDATALOAD PUSH1 0x1 PUSH1 0x1 PUSH1 0x40 SHL SUB DUP2 GT ISZERO PUSH2 0x3AB7 JUMPI PUSH1 0x0 DUP1 DUP2 REVERT JUMPDEST PUSH2 0x3AC3 CALLDATASIZE DUP3 DUP11 ADD PUSH2 0x37B1 JUMP JUMPDEST DUP7 MSTORE POP SWAP4 DUP3 ADD SWAP4 DUP3 ADD PUSH2 0x3A98 JUMP JUMPDEST POP SWAP2 SWAP7 SWAP6 POP POP POP POP POP POP JUMP JUMPDEST PUSH1 0x20 DUP1 DUP3 MSTORE DUP3 MLOAD DUP3 DUP3 ADD DUP2 SWAP1 MSTORE PUSH1 0x0 SWAP2 SWAP1 DUP5 DUP3 ADD SWAP1 PUSH1 0x40 DUP6 ADD SWAP1 DUP5 JUMPDEST DUP2 DUP2 LT ISZERO PUSH2 0x3B2C JUMPI DUP4 MLOAD DUP1 MLOAD PUSH1 0x1 PUSH1 0x1 PUSH1 0xA0 SHL SUB AND DUP5 MSTORE PUSH1 0x20 SWAP1 DUP2 ADD MLOAD SWAP1 DUP5 ADD MSTORE PUSH1 0x40 DUP4 ADD SWAP4 DUP6 ADD SWAP4 SWAP3 POP PUSH1 0x1 ADD PUSH2 0x3AF9 JUMP JUMPDEST POP SWAP1 SWAP7 SWAP6 POP POP POP POP POP POP JUMP JUMPDEST PUSH1 0x0 PUSH1 0x20 DUP3 DUP5 SUB SLT ISZERO PUSH2 0x3B4A JUMPI PUSH1 0x0 DUP1 REVERT JUMPDEST POP MLOAD SWAP2 SWAP1 POP JUMP JUMPDEST PUSH1 0x1 PUSH1 0x1 PUSH1 0x40 SHL SUB DUP2 DUP2 AND DUP4 DUP3 AND ADD SWAP1 DUP1 DUP3 GT ISZERO PUSH2 0x29DC JUMPI PUSH2 0x29DC PUSH2 0x3549 JUMP JUMPDEST DUP2 CALLDATALOAD PUSH2 0x3B7C DUP2 PUSH2 0x32C7 JUMP JUMPDEST DUP2 SLOAD PUSH1 0x1 PUSH1 0x1 PUSH1 0xA0 SHL SUB NOT AND PUSH1 0x1 PUSH1 0x1 PUSH1 0xA0 SHL SUB SWAP2 SWAP1 SWAP2 AND OR DUP2 SSTORE PUSH1 0x1 DUP2 DUP2 ADD PUSH1 0x20 DUP5 DUP2 ADD CALLDATALOAD CALLDATASIZE DUP7 SWAP1 SUB PUSH1 0x1E NOT ADD DUP2 SLT PUSH2 0x3BB5 JUMPI PUSH1 0x0 DUP1 REVERT JUMPDEST DUP6 ADD DUP1 CALLDATALOAD PUSH1 0x1 PUSH1 0x1 PUSH1 0x40 SHL SUB DUP2 GT ISZERO PUSH2 0x3BCD JUMPI PUSH1 0x0 DUP1 REVERT JUMPDEST DUP1 CALLDATASIZE SUB DUP4 DUP4 ADD SGT ISZERO PUSH2 0x3BDE JUMPI PUSH1 0x0 DUP1 REVERT JUMPDEST PUSH2 0x3BF2 DUP2 PUSH2 0x3BEC DUP7 SLOAD PUSH2 0x3596 JUMP JUMPDEST DUP7 PUSH2 0x386D JUMP JUMPDEST PUSH1 0x0 PUSH1 0x1F DUP3 GT PUSH1 0x1 DUP2 EQ PUSH2 0x3C28 JUMPI PUSH1 0x0 DUP4 ISZERO PUSH2 0x3C10 JUMPI POP DUP4 DUP3 ADD DUP6 ADD CALLDATALOAD JUMPDEST PUSH1 0x0 NOT PUSH1 0x3 DUP6 SWAP1 SHL SHR NOT AND PUSH1 0x1 DUP5 SWAP1 SHL OR DUP7 SSTORE PUSH2 0x3C81 JUMP JUMPDEST PUSH1 0x0 DUP7 DUP2 MSTORE PUSH1 0x20 SWAP1 KECCAK256 PUSH1 0x1F NOT DUP5 AND SWAP1 DUP4 JUMPDEST DUP3 DUP2 LT ISZERO PUSH2 0x3C58 JUMPI DUP7 DUP6 ADD DUP9 ADD CALLDATALOAD DUP3 SSTORE SWAP4 DUP8 ADD SWAP4 SWAP1 DUP10 ADD SWAP1 DUP8 ADD PUSH2 0x3C39 JUMP JUMPDEST POP DUP5 DUP3 LT ISZERO PUSH2 0x3C77 JUMPI PUSH1 0x0 NOT PUSH1 0xF8 DUP7 PUSH1 0x3 SHL AND SHR NOT DUP8 DUP6 DUP9 ADD ADD CALLDATALOAD AND DUP2 SSTORE JUMPDEST POP POP DUP7 DUP4 DUP9 SHL ADD DUP7 SSTORE JUMPDEST POP POP POP POP POP POP POP POP POP JUMP JUMPDEST PUSH1 0x0 PUSH1 0x20 DUP1 DUP4 DUP6 SUB SLT ISZERO PUSH2 0x3C9F JUMPI PUSH1 0x0 DUP1 REVERT JUMPDEST DUP3 MLOAD PUSH1 0x1 PUSH1 0x1 PUSH1 0x40 SHL SUB DUP2 GT ISZERO PUSH2 0x3CB5 JUMPI PUSH1 0x0 DUP1 REVERT JUMPDEST DUP4 ADD PUSH1 0x1F DUP2 ADD DUP6 SGT PUSH2 0x3CC6 JUMPI PUSH1 0x0 DUP1 REVERT JUMPDEST DUP1 MLOAD PUSH2 0x3CD4 PUSH2 0x36A5 DUP3 PUSH2 0x363A JUMP JUMPDEST DUP2 DUP2 MSTORE PUSH1 0x60 SWAP2 DUP3 MUL DUP4 ADD DUP5 ADD SWAP2 DUP5 DUP3 ADD SWAP2 SWAP1 DUP9 DUP5 GT ISZERO PUSH2 0x3CF3 JUMPI PUSH1 0x0 DUP1 REVERT JUMPDEST SWAP4 DUP6 ADD SWAP4 JUMPDEST DUP4 DUP6 LT ISZERO PUSH2 0x3D46 JUMPI DUP1 DUP6 DUP11 SUB SLT ISZERO PUSH2 0x3D10 JUMPI PUSH1 0x0 DUP1 DUP2 REVERT JUMPDEST PUSH2 0x3D18 PUSH2 0x3375 JUMP JUMPDEST DUP6 MLOAD PUSH2 0x3D23 DUP2 PUSH2 0x32C7 JUMP JUMPDEST DUP2 MSTORE DUP6 DUP8 ADD MLOAD DUP8 DUP3 ADD MSTORE PUSH1 0x40 DUP1 DUP8 ADD MLOAD SWAP1 DUP3 ADD MSTORE DUP4 MSTORE SWAP4 DUP5 ADD SWAP4 SWAP2 DUP6 ADD SWAP2 PUSH2 0x3CF8 JUMP JUMPDEST POP SWAP8 SWAP7 POP POP POP POP POP POP POP JUMP JUMPDEST PUSH2 0xFFFF DUP2 DUP2 AND DUP4 DUP3 AND ADD SWAP1 DUP1 DUP3 GT ISZERO PUSH2 0x29DC JUMPI PUSH2 0x29DC PUSH2 0x3549 JUMP JUMPDEST DUP1 MLOAD PUSH1 0x1 PUSH1 0x1 PUSH1 0x40 SHL SUB DUP2 AND DUP2 EQ PUSH2 0x2F48 JUMPI PUSH1 0x0 DUP1 REVERT JUMPDEST DUP1 MLOAD PUSH4 0xFFFFFFFF DUP2 AND DUP2 EQ PUSH2 0x2F48 JUMPI PUSH1 0x0 DUP1 REVERT JUMPDEST PUSH1 0x0 PUSH1 0xC0 DUP3 DUP5 SUB SLT ISZERO PUSH2 0x3DAA JUMPI PUSH1 0x0 DUP1 REVERT JUMPDEST PUSH1 0x40 MLOAD PUSH1 0xC0 DUP2 ADD DUP2 DUP2 LT PUSH1 0x1 PUSH1 0x1 PUSH1 0x40 SHL SUB DUP3 GT OR ISZERO PUSH2 0x3DCC JUMPI PUSH2 0x3DCC PUSH2 0x3337 JUMP JUMPDEST PUSH1 0x40 MSTORE PUSH2 0x3DD8 DUP4 PUSH2 0x3D6D JUMP JUMPDEST DUP2 MSTORE PUSH2 0x3DE6 PUSH1 0x20 DUP5 ADD PUSH2 0x3D6D JUMP JUMPDEST PUSH1 0x20 DUP3 ADD MSTORE PUSH2 0x3DF7 PUSH1 0x40 DUP5 ADD PUSH2 0x3D6D JUMP JUMPDEST PUSH1 0x40 DUP3 ADD MSTORE PUSH2 0x3E08 PUSH1 0x60 DUP5 ADD PUSH2 0x3D84 JUMP JUMPDEST PUSH1 0x60 DUP3 ADD MSTORE PUSH2 0x3E19 PUSH1 0x80 DUP5 ADD PUSH2 0x3D84 JUMP JUMPDEST PUSH1 0x80 DUP3 ADD MSTORE PUSH1 0xA0 DUP4 ADD MLOAD PUSH2 0x3E2C DUP2 PUSH2 0x33C7 JUMP JUMPDEST PUSH1 0xA0 DUP3 ADD MSTORE SWAP4 SWAP3 POP POP POP JUMP JUMPDEST DUP1 DUP3 MUL DUP2 ISZERO DUP3 DUP3 DIV DUP5 EQ OR PUSH2 0xB49 JUMPI PUSH2 0xB49 PUSH2 0x3549 JUMP JUMPDEST PUSH1 0x0 DUP3 PUSH2 0x3E6C JUMPI PUSH4 0x4E487B71 PUSH1 0xE0 SHL PUSH1 0x0 MSTORE PUSH1 0x12 PUSH1 0x4 MSTORE PUSH1 0x24 PUSH1 0x0 REVERT JUMPDEST POP DIV SWAP1 JUMP JUMPDEST PUSH1 0x1 PUSH1 0x1 PUSH1 0xA0 SHL SUB DUP4 AND DUP2 MSTORE PUSH1 0x40 PUSH1 0x20 DUP3 ADD DUP2 SWAP1 MSTORE PUSH1 0x0 SWAP1 PUSH2 0x23D1 SWAP1 DUP4 ADD DUP5 PUSH2 0x2FB6 JUMP JUMPDEST PUSH4 0x4E487B71 PUSH1 0xE0 SHL PUSH1 0x0 MSTORE PUSH1 0x31 PUSH1 0x4 MSTORE PUSH1 0x24 PUSH1 0x0 REVERT JUMPDEST PUSH1 0x0 DUP3 MLOAD PUSH2 0x37A7 DUP2 DUP5 PUSH1 0x20 DUP8 ADD PUSH2 0x2F92 JUMP JUMPDEST PUSH1 0x20 DUP2 MSTORE PUSH1 0x0 PUSH2 0x1F24 PUSH1 0x20 DUP4 ADD DUP5 PUSH2 0x2FB6 JUMP INVALID LOG2 PUSH5 0x6970667358 0x22 SLT KECCAK256 0xE4 MOD SWAP9 PUSH16 0x91FE0085E24FFAD65D6FE89F515FF823 0x4B 0xDC 0x2D TIMESTAMP PUSH6 0x901F4001684F SWAP10 PUSH5 0x736F6C6343 STOP ADDMOD GT STOP CALLER ","sha1":"759d5fb43d46cf4672cd0693296f05ecae9033bf","source":"// SPDX-License-Identifier: GPL-3.0-or-later\npragma solidity ^0.8.17;\n\nimport \"@openzeppelin/contracts/utils/Address.sol\";\nimport \"@openzeppelin/contracts/utils/structs/EnumerableSet.sol\";\nimport \"@openzeppelin/contracts/utils/structs/EnumerableMap.sol\";\nimport \"@openzeppelin/contracts/proxy/utils/Initializable.sol\";\n\nimport \"../libraries/DataTypes.sol\";\nimport \"../libraries/ScaledMath.sol\";\nimport \"../libraries/VaultsSnapshot.sol\";\nimport \"../libraries/Errors.sol\";\n\nimport \"../interfaces/IVault.sol\";\nimport \"../interfaces/IGovernanceManager.sol\";\nimport \"../interfaces/IVotingPowerAggregator.sol\";\nimport \"../interfaces/ITierer.sol\";\nimport \"../interfaces/ITierStrategy.sol\";\nimport \"../interfaces/IBoundedERC20WithEMA.sol\";\n\ncontract GovernanceManager is IGovernanceManager, Initializable {\n    using Address for address;\n    using ScaledMath for uint256;\n    using EnumerableSet for EnumerableSet.UintSet;\n    using EnumerableMap for EnumerableMap.AddressToUintMap;\n    using VaultsSnapshot for DataTypes.VaultSnapshot[];\n\n    uint256 internal constant _MULTISIG_SUNSET_PERIOD = 90 days;\n\n    address public immutable multisig;\n    IVotingPowerAggregator public immutable votingPowerAggregator;\n    ITierer public immutable tierer;\n\n    uint256 public multisigSunsetAt;\n    IBoundedERC20WithEMA public bGYD;\n    DataTypes.LimitUpgradeabilityParameters public limitUpgradeabilityParams;\n\n    uint16 public proposalsCount;\n\n    EnumerableSet.UintSet internal _activeProposals;\n    EnumerableSet.UintSet internal _timelockedProposals;\n    mapping(uint16 => DataTypes.Proposal) internal _proposals;\n    mapping(uint16 => DataTypes.VaultSnapshot[]) internal _vaultSnapshots;\n\n    mapping(address => mapping(uint16 => DataTypes.Ballot)) internal _votes;\n    mapping(uint16 => mapping(DataTypes.Ballot => EnumerableMap.AddressToUintMap))\n        internal _totals;\n\n    modifier onlySelf() {\n        if (msg.sender != address(this))\n            revert Errors.NotAuthorized(msg.sender, address(this));\n        _;\n    }\n\n    modifier onlyMultisig() {\n        if (msg.sender != multisig)\n            revert Errors.NotAuthorized(msg.sender, multisig);\n        if (block.timestamp >= multisigSunsetAt) revert Errors.MultisigSunset();\n        _;\n    }\n\n    constructor(\n        address _multisig,\n        IVotingPowerAggregator _votingPowerAggregator,\n        ITierer _tierer\n    ) {\n        multisig = _multisig;\n        votingPowerAggregator = _votingPowerAggregator;\n        tierer = _tierer;\n    }\n\n    function initialize(\n        IBoundedERC20WithEMA _bGYD,\n        DataTypes.LimitUpgradeabilityParameters memory _params\n    ) external initializer {\n        bGYD = _bGYD;\n        limitUpgradeabilityParams = _params;\n        multisigSunsetAt = block.timestamp + _MULTISIG_SUNSET_PERIOD;\n    }\n\n    event MultisigSunsetAtUpdated(uint256 originalSunset, uint256 newSunset);\n\n    function extendMultisigSunsetAt(\n        uint256 extensionPeriod\n    ) external onlyMultisig {\n        uint256 oldMultisigSunsetAt = multisigSunsetAt;\n        multisigSunsetAt += extensionPeriod;\n        emit MultisigSunsetAtUpdated(oldMultisigSunsetAt, multisigSunsetAt);\n    }\n\n    event ProposalCreated(\n        uint16 indexed id,\n        address proposer,\n        DataTypes.ProposalAction[] actions\n    );\n\n    function createProposal(\n        DataTypes.ProposalAction[] calldata actions\n    ) external override {\n        require(actions.length > 0, \"cannot create a proposal with no actions\");\n\n        DataTypes.Tier memory tier = _getTier(actions);\n\n        // If a sufficiently large amount of GYD is bounded, this signifies that holders\n        // are happy with the system and are against further high-level upgrades.\n        // As a result, we should apply a higher tier if the proposed action has big impacts.\n        if (_isUpgradeabilityLimited(tier.actionLevel)) {\n            tier = _getLimitUpgradeabilityTier();\n        }\n\n        DataTypes.VaultVotingPower[] memory rawPower = votingPowerAggregator\n            .getVotingPower(msg.sender, block.timestamp - 1);\n        uint256 votingPowerPct = votingPowerAggregator\n            .calculateWeightedPowerPct(rawPower);\n        require(\n            votingPowerPct > tier.proposalThreshold,\n            \"proposer doesn't have enough voting power to propose this action\"\n        );\n\n        uint64 createdAt = uint64(block.timestamp);\n        uint64 votingEndsAt = createdAt + tier.proposalLength;\n        uint64 executableAt = votingEndsAt + tier.timeLockDuration;\n\n        DataTypes.Proposal storage p = _proposals[proposalsCount];\n        p.id = proposalsCount;\n        p.proposer = msg.sender;\n        p.createdAt = createdAt;\n        p.actionLevel = tier.actionLevel;\n        p.votingEndsAt = votingEndsAt;\n        p.executableAt = executableAt;\n        p.status = DataTypes.Status.Active;\n        p.quorum = tier.quorum;\n        p.voteThreshold = tier.voteThreshold;\n\n        for (uint256 i = 0; i < actions.length; i++) {\n            p.actions.push(actions[i]);\n        }\n\n        votingPowerAggregator.createVaultsSnapshot().persist(\n            _vaultSnapshots[p.id]\n        );\n\n        proposalsCount = p.id + 1;\n        _activeProposals.add(uint256(p.id));\n\n        emit ProposalCreated(p.id, p.proposer, actions);\n    }\n\n    event VoteCast(\n        uint16 indexed proposalId,\n        address voter,\n        DataTypes.Ballot vote\n    );\n\n    function vote(\n        uint16 proposalId,\n        DataTypes.Ballot ballot\n    ) external override {\n        DataTypes.Proposal storage proposal = _proposals[proposalId];\n        require(proposal.createdAt != 0, \"proposal does not exist\");\n        require(block.timestamp > proposal.createdAt, \"voting has not started\");\n\n        require(\n            proposal.votingEndsAt > uint64(block.timestamp),\n            \"voting is closed on this proposal\"\n        );\n\n        require(\n            ballot != DataTypes.Ballot.Undefined,\n            \"ballot must be cast For, Against, or Abstain\"\n        );\n\n        DataTypes.VaultSnapshot[] memory vaultSnapshots = _vaultSnapshots[\n            proposalId\n        ];\n\n        DataTypes.VaultVotingPower[] memory uvp = votingPowerAggregator\n            .getVotingPower(\n                msg.sender,\n                proposal.createdAt,\n                _vaultAddresses(vaultSnapshots)\n            );\n\n        DataTypes.Ballot existingVote = _votes[msg.sender][proposalId];\n\n        bool isNewVote = existingVote == DataTypes.Ballot.Undefined;\n        for (uint256 i = 0; i < uvp.length; i++) {\n            DataTypes.VaultVotingPower memory vvp = uvp[i];\n\n            // cancel out the previous vote if it was cast\n            if (!isNewVote) {\n                (, uint256 prevBallotTotal) = _totals[proposalId][existingVote]\n                    .tryGet(vvp.vaultAddress);\n                _totals[proposalId][existingVote].set(\n                    vvp.vaultAddress,\n                    prevBallotTotal - vvp.votingPower\n                );\n            }\n\n            (, uint256 newBallotTotal) = _totals[proposalId][ballot].tryGet(\n                vvp.vaultAddress\n            );\n            _totals[proposalId][ballot].set(\n                vvp.vaultAddress,\n                newBallotTotal + vvp.votingPower\n            );\n        }\n\n        // Then update the record of this user's vote to the latest ballot and voting power\n        _votes[msg.sender][proposalId] = ballot;\n\n        emit VoteCast(proposalId, msg.sender, ballot);\n    }\n\n    function getVoteTotals(\n        uint16 proposalId\n    ) external view override returns (DataTypes.VoteTotals memory) {\n        return _toVoteTotals(_totals[proposalId]);\n    }\n\n    function _toVoteTotals(\n        mapping(DataTypes.Ballot => EnumerableMap.AddressToUintMap)\n            storage totals\n    ) internal view returns (DataTypes.VoteTotals memory) {\n        EnumerableMap.AddressToUintMap storage forVotingPower = totals[\n            DataTypes.Ballot.For\n        ];\n        DataTypes.VaultVotingPower[] memory forTotals = _toVotingPowers(\n            forVotingPower\n        );\n\n        EnumerableMap.AddressToUintMap storage againstVotingPower = totals[\n            DataTypes.Ballot.Against\n        ];\n        DataTypes.VaultVotingPower[] memory againstTotals = _toVotingPowers(\n            againstVotingPower\n        );\n\n        EnumerableMap.AddressToUintMap storage abstentionsVotingPower = totals[\n            DataTypes.Ballot.Abstain\n        ];\n        DataTypes.VaultVotingPower[] memory abstentionsTotals = _toVotingPowers(\n            abstentionsVotingPower\n        );\n\n        return\n            DataTypes.VoteTotals({\n                _for: forTotals,\n                against: againstTotals,\n                abstentions: abstentionsTotals\n            });\n    }\n\n    event ProposalTallied(\n        uint16 indexed proposalId,\n        DataTypes.Status status,\n        DataTypes.ProposalOutcome outcome\n    );\n\n    function tallyVote(uint16 proposalId) external override {\n        DataTypes.Proposal storage proposal = _proposals[proposalId];\n        require(proposal.createdAt != 0, \"proposal does not exist\");\n\n        require(\n            proposal.status == DataTypes.Status.Active &&\n                _activeProposals.contains(uint256(proposalId)),\n            \"proposal is not currently active\"\n        );\n\n        require(\n            uint64(block.timestamp) > proposal.votingEndsAt,\n            \"voting is ongoing for this proposal\"\n        );\n\n        (\n            uint256 forTotalPct,\n            uint256 againstTotalPct,\n            uint256 abstentionsTotalPct\n        ) = _getCurrentPercentages(proposal);\n\n        uint256 quorum = proposal.quorum;\n        uint256 voteThreshold = proposal.voteThreshold;\n        if (_isUpgradeabilityLimited(proposal.actionLevel)) {\n            DataTypes.Tier memory tier = _getLimitUpgradeabilityTier();\n            quorum = tier.quorum;\n            voteThreshold = tier.voteThreshold;\n        }\n\n        uint256 combinedPct = forTotalPct +\n            againstTotalPct +\n            abstentionsTotalPct;\n        if (combinedPct < quorum) {\n            proposal.status = DataTypes.Status.Rejected;\n            _activeProposals.remove(uint256(proposalId));\n            emit ProposalTallied(\n                proposalId,\n                proposal.status,\n                DataTypes.ProposalOutcome.QuorumNotMet\n            );\n            return;\n        }\n\n        uint256 result = 0;\n        if (forTotalPct + againstTotalPct > 0) {\n            result = forTotalPct.divDown(forTotalPct + againstTotalPct);\n        }\n        DataTypes.ProposalOutcome outcome = DataTypes.ProposalOutcome.Undefined;\n        if (result >= voteThreshold) {\n            proposal.status = DataTypes.Status.Queued;\n            outcome = DataTypes.ProposalOutcome.Successful;\n            _timelockedProposals.add(uint256(proposalId));\n        } else {\n            proposal.status = DataTypes.Status.Rejected;\n            outcome = DataTypes.ProposalOutcome.ThresholdNotMet;\n        }\n        _activeProposals.remove(uint256(proposalId));\n        emit ProposalTallied(proposalId, proposal.status, outcome);\n    }\n\n    function getCurrentPercentages(\n        uint16 proposalId\n    )\n        external\n        view\n        override\n        returns (uint256 for_, uint256 against, uint256 abstain)\n    {\n        DataTypes.Proposal storage proposal = _proposals[proposalId];\n        require(proposal.createdAt != 0, \"proposal does not exist\");\n        return _getCurrentPercentages(proposal);\n    }\n\n    function _getCurrentPercentages(\n        DataTypes.Proposal storage proposal\n    ) internal view returns (uint256 for_, uint256 against, uint256 abstain) {\n        DataTypes.VaultSnapshot[] memory snapshot = _vaultSnapshots[\n            proposal.id\n        ];\n        mapping(DataTypes.Ballot => EnumerableMap.AddressToUintMap)\n            storage propTotals = _totals[proposal.id];\n        for_ = snapshot.getBallotPercentage(propTotals[DataTypes.Ballot.For]);\n        against = snapshot.getBallotPercentage(\n            propTotals[DataTypes.Ballot.Against]\n        );\n        abstain = snapshot.getBallotPercentage(\n            propTotals[DataTypes.Ballot.Abstain]\n        );\n    }\n\n    function _toVotingPowers(\n        EnumerableMap.AddressToUintMap storage map\n    ) internal view returns (DataTypes.VaultVotingPower[] memory) {\n        DataTypes.VaultVotingPower[]\n            memory vvps = new DataTypes.VaultVotingPower[](map.length());\n        for (uint256 i = 0; i < map.length(); i++) {\n            (address key, uint256 value) = map.at(i);\n            vvps[i] = DataTypes.VaultVotingPower({\n                vaultAddress: key,\n                votingPower: value\n            });\n        }\n\n        return vvps;\n    }\n\n    event ProposalExecuted(uint16 indexed proposalId);\n\n    function executeProposal(uint16 proposalId) external override {\n        DataTypes.Proposal storage proposal = _proposals[proposalId];\n        if (proposal.createdAt == uint64(0)) {\n            revert(\"proposal does not exist\");\n        }\n\n        require(\n            proposal.status == DataTypes.Status.Queued &&\n                _timelockedProposals.contains(uint256(proposalId)) &&\n                uint64(block.timestamp) > proposal.executableAt,\n            \"proposal must be queued and ready to execute\"\n        );\n\n        for (uint256 i = 0; i < proposal.actions.length; i++) {\n            proposal.actions[i].target.functionCall(\n                proposal.actions[i].data,\n                \"proposal execution failed\"\n            );\n        }\n        proposal.status = DataTypes.Status.Executed;\n        _timelockedProposals.remove(uint256(proposalId));\n        emit ProposalExecuted(proposalId);\n    }\n\n    function createAndExecuteProposal(\n        DataTypes.ProposalAction[] calldata actions\n    ) external onlyMultisig {\n        uint16 proposalId = proposalsCount++;\n        DataTypes.Proposal storage p = _proposals[proposalId];\n        p.id = proposalId;\n        p.proposer = msg.sender;\n        p.createdAt = uint64(block.timestamp);\n        p.votingEndsAt = uint64(block.timestamp);\n        p.executableAt = uint64(block.timestamp);\n        p.status = DataTypes.Status.Executed;\n        p.quorum = 0;\n        p.voteThreshold = 0;\n\n        for (uint256 i = 0; i < actions.length; i++) {\n            DataTypes.ProposalAction memory action = actions[i];\n            p.actions.push(action);\n            action.target.functionCall(\n                action.data,\n                \"proposal execution failed\"\n            );\n        }\n        emit ProposalCreated(proposalId, msg.sender, actions);\n        emit ProposalExecuted(proposalId);\n    }\n\n    event ProposalVetoed(uint16 indexed proposalId);\n\n    function vetoProposal(uint16 proposalId) external onlyMultisig {\n        DataTypes.Proposal storage proposal = _proposals[proposalId];\n        require(proposal.createdAt > 0, \"proposal does not exist\");\n\n        require(\n            proposal.status == DataTypes.Status.Active ||\n                proposal.status == DataTypes.Status.Queued,\n            \"proposal must be active or queued\"\n        );\n\n        proposal.status = DataTypes.Status.Vetoed;\n        _activeProposals.remove(uint256(proposalId));\n        _timelockedProposals.remove(uint256(proposalId));\n\n        emit ProposalVetoed(proposalId);\n    }\n\n    event MultisigSunset();\n\n    function sunsetMultisig() external onlySelf {\n        multisigSunsetAt = block.timestamp;\n        emit MultisigSunset();\n    }\n\n    function getBallot(\n        address voter,\n        uint16 proposalId\n    ) external view returns (DataTypes.Ballot) {\n        return _votes[voter][proposalId];\n    }\n\n    function getProposal(\n        uint16 proposalId\n    ) external view returns (DataTypes.Proposal memory) {\n        return _proposals[proposalId];\n    }\n\n    function updateLimitUpgradeabilityParams(\n        DataTypes.LimitUpgradeabilityParameters memory _params\n    ) external onlySelf {\n        limitUpgradeabilityParams = _params;\n    }\n\n    function listActiveProposals()\n        external\n        view\n        returns (DataTypes.Proposal[] memory)\n    {\n        return _listProposals(_activeProposals.values());\n    }\n\n    function listTimelockedProposals()\n        external\n        view\n        returns (DataTypes.Proposal[] memory)\n    {\n        return _listProposals(_timelockedProposals.values());\n    }\n\n    function _listProposals(\n        uint256[] memory ids\n    ) internal view returns (DataTypes.Proposal[] memory) {\n        uint256 len = ids.length;\n        DataTypes.Proposal[] memory proposals = new DataTypes.Proposal[](len);\n        for (uint256 i = 0; i < len; i++) {\n            proposals[i] = _proposals[uint16(ids[i])];\n        }\n        return proposals;\n    }\n\n    function _vaultAddresses(\n        DataTypes.VaultSnapshot[] memory vaultSnapshots\n    ) internal pure returns (address[] memory) {\n        uint256 len = vaultSnapshots.length;\n        address[] memory vaultAddresses = new address[](len);\n        for (uint256 i = 0; i < len; i++) {\n            vaultAddresses[i] = vaultSnapshots[i].vaultAddress;\n        }\n        return vaultAddresses;\n    }\n\n    function _getTier(\n        DataTypes.ProposalAction[] memory actions\n    ) internal view returns (DataTypes.Tier memory tier) {\n        // Determine the tier associated with this proposal by taking the tier of the most impactful\n        // action, determined by the tier's actionLevel parameter.\n        DataTypes.ProposalAction memory action = actions[0];\n        tier = tierer.getTier(action.target, action.data);\n        for (uint256 i = 1; i < actions.length; i++) {\n            DataTypes.Tier memory currentTier = tierer.getTier(\n                actions[i].target,\n                actions[i].data\n            );\n            if (currentTier.actionLevel > tier.actionLevel) {\n                tier = currentTier;\n            }\n        }\n    }\n\n    function _isUpgradeabilityLimited(\n        uint8 actionLevel\n    ) internal view returns (bool) {\n        return\n            address(bGYD) != address(0) &&\n            bGYD.totalSupply() >= limitUpgradeabilityParams.minBGYDSupply &&\n            bGYD.boundedPctEMA() > limitUpgradeabilityParams.emaThreshold &&\n            actionLevel >= limitUpgradeabilityParams.actionLevelThreshold;\n    }\n\n    function _getLimitUpgradeabilityTier()\n        internal\n        view\n        returns (DataTypes.Tier memory)\n    {\n        // NOTE: tierStrategy is always static, so the calldata is unused\n        return limitUpgradeabilityParams.tierStrategy.getTier(\"\");\n    }\n}\n","sourcePath":"contracts/GovernanceManager.sol","type":"contract","deployment":{"address":"0x587B602F38e18c1E2626f19fF61c70e935a684a7","chainid":"1","blockHeight":18685724}}