{"abi":[{"inputs":[{"internalType":"address","name":"_governance","type":"address"},{"internalType":"address","name":"_proxyAdmin","type":"address"},{"internalType":"address","name":"_safeAddress","type":"address"},{"internalType":"uint64","name":"_sunsetAt","type":"uint64"},{"internalType":"uint256","name":"_vetoThreshold","type":"uint256"},{"internalType":"uint64","name":"_timelockDuration","type":"uint64"}],"stateMutability":"nonpayable","type":"constructor","name":"constructor"},{"inputs":[{"internalType":"address","name":"actual","type":"address"},{"internalType":"address","name":"expected","type":"address"}],"name":"NotAuthorized","type":"error"},{"anonymous":false,"inputs":[{"indexed":false,"internalType":"uint32","name":"proposalId","type":"uint32"},{"indexed":false,"internalType":"address","name":"governance","type":"address"},{"indexed":false,"internalType":"bytes","name":"payload","type":"bytes"}],"name":"UpgradeExecuted","type":"event"},{"anonymous":false,"inputs":[{"indexed":false,"internalType":"uint32","name":"proposalId","type":"uint32"},{"indexed":false,"internalType":"bytes","name":"payload","type":"bytes"}],"name":"UpgradeProposed","type":"event"},{"anonymous":false,"inputs":[{"indexed":false,"internalType":"uint32","name":"proposalId","type":"uint32"}],"name":"UpgradeVetoed","type":"event"},{"anonymous":false,"inputs":[{"indexed":false,"internalType":"uint24","name":"proposalId","type":"uint24"},{"components":[{"internalType":"address","name":"vaultAddress","type":"address"},{"internalType":"uint256","name":"votingPower","type":"uint256"}],"indexed":false,"internalType":"struct DataTypes.VaultVotingPower[]","name":"castVetoPower","type":"tuple[]"}],"name":"VetoCast","type":"event"},{"inputs":[{"internalType":"uint32","name":"proposalId","type":"uint32"}],"name":"completeGovernanceUpgrade","outputs":[],"stateMutability":"nonpayable","type":"function"},{"inputs":[{"internalType":"uint32","name":"proposalId","type":"uint32"}],"name":"getVetoPercentage","outputs":[{"internalType":"uint256","name":"","type":"uint256"}],"stateMutability":"view","type":"function"},{"inputs":[],"name":"governance","outputs":[{"internalType":"address","name":"","type":"address"}],"stateMutability":"view","type":"function"},{"inputs":[],"name":"proxyAdmin","outputs":[{"internalType":"address","name":"","type":"address"}],"stateMutability":"view","type":"function"},{"inputs":[],"name":"safeAddress","outputs":[{"internalType":"address","name":"","type":"address"}],"stateMutability":"view","type":"function"},{"inputs":[{"internalType":"uint64","name":"_sunsetAt","type":"uint64"}],"name":"setSunsetAt","outputs":[],"stateMutability":"nonpayable","type":"function"},{"inputs":[{"internalType":"uint64","name":"_timelockDuration","type":"uint64"}],"name":"setTimelockDuration","outputs":[],"stateMutability":"nonpayable","type":"function"},{"inputs":[{"internalType":"uint256","name":"_vetoThreshold","type":"uint256"}],"name":"setVetoThreshold","outputs":[],"stateMutability":"nonpayable","type":"function"},{"inputs":[{"internalType":"address","name":"newUnderlying","type":"address"}],"name":"startGovernanceUpgrade","outputs":[{"internalType":"uint32","name":"","type":"uint32"}],"stateMutability":"nonpayable","type":"function"},{"inputs":[],"name":"sunsetAt","outputs":[{"internalType":"uint64","name":"","type":"uint64"}],"stateMutability":"view","type":"function"},{"inputs":[],"name":"timelockDuration","outputs":[{"internalType":"uint64","name":"","type":"uint64"}],"stateMutability":"view","type":"function"},{"inputs":[{"internalType":"uint24","name":"proposalId","type":"uint24"}],"name":"veto","outputs":[],"stateMutability":"nonpayable","type":"function"},{"inputs":[],"name":"vetoThreshold","outputs":[{"internalType":"uint256","name":"","type":"uint256"}],"stateMutability":"view","type":"function"}],"bytecode":"610120604052601860e09081527f7570677261646528616464726573732c616464726573732900000000000000006101005260039062000040908262000166565b503480156200004e57600080fd5b506040516200201538038062002015833981016040819052620000719162000267565b6001600160a01b0395861660805292851660a052600080546001600160401b039384166001600160401b031991821617909155600191909155600280549290931691161790551660c052620002df565b634e487b7160e01b600052604160045260246000fd5b600181811c90821680620000ec57607f821691505b6020821081036200010d57634e487b7160e01b600052602260045260246000fd5b50919050565b601f8211156200016157600081815260208120601f850160051c810160208610156200013c5750805b601f850160051c820191505b818110156200015d5782815560010162000148565b5050505b505050565b81516001600160401b03811115620001825762000182620000c1565b6200019a81620001938454620000d7565b8462000113565b602080601f831160018114620001d25760008415620001b95750858301515b600019600386901b1c1916600185901b1785556200015d565b600085815260208120601f198616915b828110156200020357888601518255948401946001909101908401620001e2565b5085821015620002225787850151600019600388901b60f8161c191681555b5050505050600190811b01905550565b80516001600160a01b03811681146200024a57600080fd5b919050565b80516001600160401b03811681146200024a57600080fd5b60008060008060008060c087890312156200028157600080fd5b6200028c8762000232565b95506200029c6020880162000232565b9450620002ac6040880162000232565b9350620002bc606088016200024f565b925060808701519150620002d360a088016200024f565b90509295509295509295565b60805160a05160c051611cb26200036360003960008181610146015261087d0152600081816101850152818161026401526102a60152600081816101ac01528181610342015281816108f20152818161092701528181610969015281816109c401528181610a0601528181610df701528181610e390152610e8d0152611cb26000f3fe608060405234801561001057600080fd5b50600436106100cf5760003560e01c8063614f427f1161008c578063bb3a189511610066578063bb3a18951461020b578063bcd3f6351461021e578063c82ba05714610231578063e5c355911461024457600080fd5b8063614f427f146101ce5780636f8b1c13146101e5578063a916c3b6146101f857600080fd5b80630bbc185b146100d457806312fa1895146101015780632bbca157146101165780633e47158c146101415780635578110c146101805780635aa6e675146101a7575b600080fd5b6100e76100e2366004611517565b610257565b60405163ffffffff90911681526020015b60405180910390f35b61011461010f36600461153b565b61056d565b005b600254610129906001600160401b031681565b6040516001600160401b0390911681526020016100f8565b6101687f000000000000000000000000000000000000000000000000000000000000000081565b6040516001600160a01b0390911681526020016100f8565b6101687f000000000000000000000000000000000000000000000000000000000000000081565b6101687f000000000000000000000000000000000000000000000000000000000000000081565b6101d760015481565b6040519081526020016100f8565b6101146101f3366004611561565b61091c565b61011461020636600461158a565b6109b9565b600054610129906001600160401b031681565b6101d761022c36600461153b565b610a38565b61011461023f3660046115a3565b610aec565b610114610252366004611561565b610dec565b6000336001600160a01b037f000000000000000000000000000000000000000000000000000000000000000016146102d85760405163c55ddc9760e01b81523360048201526001600160a01b037f00000000000000000000000000000000000000000000000000000000000000001660248201526044015b60405180910390fd5b6000546001600160401b034281169116116103355760405162461bcd60e51b815260206004820152601c60248201527f656d657267656e6379207265636f766572792069732073756e7365740000000060448201526064016102cf565b6040516001600160a01b037f0000000000000000000000000000000000000000000000000000000000000000811660248301528316604482015260009060039060640160408051601f19818403018152908290529161039391611602565b6040805191829003909120602083810180516001600160e01b03199093166001600160e01b039093169290921790915260075463ffffffff1660008181526004909252919020805467ffffffffffffffff1916426001600160401b0381811692909217909255600254939450919261040c92169061168e565b63ffffffff8216600090815260046020526040902080546001600160401b0392909216600160401b0260ff60801b191670ffffffffffffffffff00000000000000001990921691909117600360801b17815560010161046b8382611728565b5063ffffffff811660009081526006602052604090206104f89061048d610e89565b6001600160a01b031663151f92d36040518163ffffffff1660e01b8152600401600060405180830381865afa1580156104ca573d6000803e3d6000fd5b505050506040513d6000823e601f3d908101601f191682016040526104f29190810190611884565b90610f12565b6007805463ffffffff1690600061050e8361194f565b91906101000a81548163ffffffff021916908363ffffffff160217905550507f39b644bff2ff7905291b1c531c635015d9191ee8e0df76a3f4ea30221deebf0c818360405161055e9291906119c2565b60405180910390a19392505050565b63ffffffff811660009081526004602052604090208054600160401b90046001600160401b03166105da5760405162461bcd60e51b81526020600482015260176024820152761c1c9bdc1bdcd85b08191bd95cc81b9bdd08195e1a5cdd604a1b60448201526064016102cf565b80546001600160401b03428116600160401b909204161061063d5760405162461bcd60e51b815260206004820152601c60248201527f70726f706f73616c206973207374696c6c2074696d656c6f636b65640000000060448201526064016102cf565b60038154600160801b900460ff16600581111561065c5761065c6116ae565b146106a95760405162461bcd60e51b815260206004820152601760248201527f70726f706f73616c206d7573742062652071756575656400000000000000000060448201526064016102cf565b63ffffffff8216600090815260066020908152604080832080548251818502810185019093528083529192909190849084015b82821015610731576000848152602090819020604080516060810182526003860290920180546001600160a01b03168352600180820154848601526002909101549183019190915290835290920191016106dc565b505050509050600081511161077c5760405162461bcd60e51b81526020600482015260116024820152701b9bc81cdb985c1cda1bdd08199bdd5b99607a1b60448201526064016102cf565b600061078b8260028501610fe9565b600154909150811180156107eb57835460ff60801b1916600160811b17845560405163ffffffff861681527fca72b4bd507572758c32dd81ac0eb64ab5a240b9abf9a3162b505fd4183de30d906020015b60405180910390a15050505050565b6108b38460010180546107fd906115c8565b80601f0160208091040260200160405190810160405280929190818152602001828054610829906115c8565b80156108765780601f1061084b57610100808354040283529160200191610876565b820191906000526020600020905b81548152906001019060200180831161085957829003601f168201915b50505050507f00000000000000000000000000000000000000000000000000000000000000006001600160a01b031661107d90919063ffffffff16565b50835460ff60801b1916600160821b1784556040517f783493c460e105cd6e0ba99c072ba96927c68ef8586bd2802b9e07088a4e6510906107dc9087907f00000000000000000000000000000000000000000000000000000000000000009060018901906119e1565b336001600160a01b037f000000000000000000000000000000000000000000000000000000000000000016146109965760405163c55ddc9760e01b81523360048201526001600160a01b037f00000000000000000000000000000000000000000000000000000000000000001660248201526044016102cf565b6000805467ffffffffffffffff19166001600160401b0392909216919091179055565b336001600160a01b037f00000000000000000000000000000000000000000000000000000000000000001614610a335760405163c55ddc9760e01b81523360048201526001600160a01b037f00000000000000000000000000000000000000000000000000000000000000001660248201526044016102cf565b600155565b63ffffffff81166000908152600460209081526040808320600683528184208054835181860281018601909452808452919385939290849084015b82821015610ac8576000848152602090819020604080516060810182526003860290920180546001600160a01b0316835260018082015484860152600290910154918301919091529083529092019101610a73565b505050509050610ae48260020182610fe990919063ffffffff16565b949350505050565b62ffffff811660009081526004602052604090208054600160401b90046001600160401b0316610b585760405162461bcd60e51b81526020600482015260176024820152761c1c9bdc1bdcd85b08191bd95cc81b9bdd08195e1a5cdd604a1b60448201526064016102cf565b80546001600160401b03428116600160401b9092041611610bbb5760405162461bcd60e51b815260206004820152601b60248201527f70726f706f73616c206973206f7574206f662074696d656c6f636b000000000060448201526064016102cf565b62ffffff821660009081526005602090815260408083203384529091528120905b610be8836002016110ca565b811015610c4457600080610bff60028601846110d5565b90925090506000610c1085846110f3565b9150610c2d905083610c228385611a89565b60028901919061110b565b505050508080610c3c90611a9c565b915050610bdc565b506000610c4f610e89565b83546040516323fd003d60e21b81523360048201526001600160401b0390911660248201526001600160a01b039190911690638ff400f490604401600060405180830381865afa158015610ca7573d6000803e3d6000fd5b505050506040513d6000823e601f3d908101601f19168201604052610ccf9190810190611ab5565b905060005b8151811015610d83576000828281518110610cf157610cf1611b68565b602002602001015190506000610d178260000151876002016110f390919063ffffffff16565b9150506000826020015182610d2c9190611b7e565b8351909150610d409060028901908361110b565b50825162ffffff891660009081526005602090815260408083203384529091529020610d6c918361110b565b505050508080610d7b90611a9c565b915050610cd4565b5062ffffff8416600090815260056020908152604080832033845290915290207f2e3d56fd9d0b37209d5fa5d92a679c85f88a46813ba9c7950feed7880d80b986908590610dd090611121565b604051610dde929190611b91565b60405180910390a150505050565b336001600160a01b037f00000000000000000000000000000000000000000000000000000000000000001614610e665760405163c55ddc9760e01b81523360048201526001600160a01b037f00000000000000000000000000000000000000000000000000000000000000001660248201526044016102cf565b6002805467ffffffffffffffff19166001600160401b0392909216919091179055565b60007f00000000000000000000000000000000000000000000000000000000000000006001600160a01b031663c1ab52cd6040518163ffffffff1660e01b8152600401602060405180830381865afa158015610ee9573d6000803e3d6000fd5b505050506040513d601f19601f82011682018060405250810190610f0d9190611bf7565b905090565b805415610f595760405162461bcd60e51b815260206004820152601560248201527439ba37b930b3b29036bab9ba1031329031b632b0b760591b60448201526064016102cf565b60005b8251811015610fe45781838281518110610f7857610f78611b68565b602090810291909101810151825460018082018555600094855293839020825160039092020180546001600160a01b0319166001600160a01b03909216919091178155918101519282019290925560409091015160029091015580610fdc81611a9c565b915050610f5c565b505050565b6000805b835181101561107657600084828151811061100a5761100a611b68565b60200260200101519050600061102d8260000151866110f390919063ffffffff16565b915050611055826020015161104f84604001518461120190919063ffffffff16565b90611220565b61105f9085611b7e565b93505050808061106e90611a9c565b915050610fed565b5092915050565b60606110c1838360006040518060400160405280601e81526020017f416464726573733a206c6f772d6c6576656c2063616c6c206661696c65640000815250611235565b90505b92915050565b60006110c482611310565b60008080806110e4868661131b565b909450925050505b9250929050565b60008080806110e4866001600160a01b038716611346565b6000610ae4846001600160a01b03851684611380565b6060600061112e836110ca565b6001600160401b03811115611145576111456116c4565b60405190808252806020026020018201604052801561118a57816020015b60408051808201909152600080825260208201528152602001906001900390816111635790505b50905060005b611199846110ca565b811015611076576000806111ad86846110d5565b915091506040518060400160405280836001600160a01b03168152602001828152508484815181106111e1576111e1611b68565b6020026020010181905250505080806111f990611a9c565b915050611190565b600081611216670de0b6b3a764000085611c14565b6110c19190611c2b565b6000670de0b6b3a76400006112168385611c14565b6060824710156112965760405162461bcd60e51b815260206004820152602660248201527f416464726573733a20696e73756666696369656e742062616c616e636520666f6044820152651c8818d85b1b60d21b60648201526084016102cf565b600080866001600160a01b031685876040516112b29190611c4d565b60006040518083038185875af1925050503d80600081146112ef576040519150601f19603f3d011682016040523d82523d6000602084013e6112f4565b606091505b50915091506113058783838761139d565b979650505050505050565b60006110c482611416565b600080806113298585611420565b600081815260029690960160205260409095205494959350505050565b600081815260028301602052604081205481908061137557611368858561142c565b9250600091506110ec9050565b6001925090506110ec565b60008281526002840160205260408120829055610ae48484611438565b6060831561140c578251600003611405576001600160a01b0385163b6114055760405162461bcd60e51b815260206004820152601d60248201527f416464726573733a2063616c6c20746f206e6f6e2d636f6e747261637400000060448201526064016102cf565b5081610ae4565b610ae48383611444565b60006110c4825490565b60006110c1838361146e565b60006110c18383611498565b60006110c183836114b0565b8151156114545781518083602001fd5b8060405162461bcd60e51b81526004016102cf9190611c69565b600082600001828154811061148557611485611b68565b9060005260206000200154905092915050565b600081815260018301602052604081205415156110c1565b60008181526001830160205260408120546114f7575081546001818101845560008481526020808220909301849055845484825282860190935260409020919091556110c4565b5060006110c4565b6001600160a01b038116811461151457600080fd5b50565b60006020828403121561152957600080fd5b8135611534816114ff565b9392505050565b60006020828403121561154d57600080fd5b813563ffffffff8116811461153457600080fd5b60006020828403121561157357600080fd5b81356001600160401b038116811461153457600080fd5b60006020828403121561159c57600080fd5b5035919050565b6000602082840312156115b557600080fd5b813562ffffff8116811461153457600080fd5b600181811c908216806115dc57607f821691505b6020821081036115fc57634e487b7160e01b600052602260045260246000fd5b50919050565b6000808354611610816115c8565b60018281168015611628576001811461163d5761166c565b60ff198416875282151583028701945061166c565b8760005260208060002060005b858110156116635781548a82015290840190820161164a565b50505082870194505b50929695505050505050565b634e487b7160e01b600052601160045260246000fd5b6001600160401b0381811683821601908082111561107657611076611678565b634e487b7160e01b600052602160045260246000fd5b634e487b7160e01b600052604160045260246000fd5b601f821115610fe457600081815260208120601f850160051c810160208610156117015750805b601f850160051c820191505b818110156117205782815560010161170d565b505050505050565b81516001600160401b03811115611741576117416116c4565b6117558161174f84546115c8565b846116da565b602080601f83116001811461178a57600084156117725750858301515b600019600386901b1c1916600185901b178555611720565b600085815260208120601f198616915b828110156117b95788860151825594840194600190910190840161179a565b50858210156117d75787850151600019600388901b60f8161c191681555b5050505050600190811b01905550565b604051606081016001600160401b0381118282101715611809576118096116c4565b60405290565b604080519081016001600160401b0381118282101715611809576118096116c4565b604051601f8201601f191681016001600160401b0381118282101715611859576118596116c4565b604052919050565b60006001600160401b0382111561187a5761187a6116c4565b5060051b60200190565b6000602080838503121561189757600080fd5b82516001600160401b038111156118ad57600080fd5b8301601f810185136118be57600080fd5b80516118d16118cc82611861565b611831565b818152606091820283018401918482019190888411156118f057600080fd5b938501935b838510156119435780858a03121561190d5760008081fd5b6119156117e7565b8551611920816114ff565b8152858701518782015260408087015190820152835293840193918501916118f5565b50979650505050505050565b600063ffffffff80831681810361196857611968611678565b6001019392505050565b60005b8381101561198d578181015183820152602001611975565b50506000910152565b600081518084526119ae816020860160208601611972565b601f01601f19169290920160200192915050565b63ffffffff83168152604060208201526000610ae46040830184611996565b63ffffffff841681526000602060018060a01b038516818401526060604084015260008454611a0f816115c8565b8060608701526080600180841660008114611a315760018114611a4b57611a79565b60ff1985168984015283151560051b890183019550611a79565b896000528660002060005b85811015611a715781548b8201860152908301908801611a56565b8a0184019650505b50939a9950505050505050505050565b818103818111156110c4576110c4611678565b600060018201611aae57611aae611678565b5060010190565b60006020808385031215611ac857600080fd5b82516001600160401b03811115611ade57600080fd5b8301601f81018513611aef57600080fd5b8051611afd6118cc82611861565b81815260069190911b82018301908381019087831115611b1c57600080fd5b928401925b828410156113055760408489031215611b3a5760008081fd5b611b4261180f565b8451611b4d816114ff565b81528486015186820152825260409093019290840190611b21565b634e487b7160e01b600052603260045260246000fd5b808201808211156110c4576110c4611678565b6000604080830162ffffff8616845260208281860152818651808452606087019150828801935060005b81811015611be957845180516001600160a01b03168452840151848401529383019391850191600101611bbb565b509098975050505050505050565b600060208284031215611c0957600080fd5b8151611534816114ff565b80820281158282048414176110c4576110c4611678565b600082611c4857634e487b7160e01b600052601260045260246000fd5b500490565b60008251611c5f818460208701611972565b9190910192915050565b6020815260006110c1602083018461199656fea2646970667358221220d324a09c42a9b3361e4d13a30cc08d5d1f780a1ed061cf5d032dd20cb7b0359b64736f6c63430008110033","bytecodeSha1":"5f50161966cb22f5a18a29bf587e921bafbf5ce1","compiler":{"evm_version":"istanbul","optimizer":{"enabled":true,"runs":200},"version":"0.8.17+commit.8df45f5f"},"contractName":"EmergencyRecovery","language":"Solidity","natspec":{"kind":"dev","methods":{},"version":1},"opcodes":"PUSH1 0x80 PUSH1 0x40 MSTORE CALLVALUE DUP1 ISZERO PUSH2 0x10 JUMPI PUSH1 0x0 DUP1 REVERT JUMPDEST POP PUSH1 0x4 CALLDATASIZE LT PUSH2 0xCF JUMPI PUSH1 0x0 CALLDATALOAD PUSH1 0xE0 SHR DUP1 PUSH4 0x614F427F GT PUSH2 0x8C JUMPI DUP1 PUSH4 0xBB3A1895 GT PUSH2 0x66 JUMPI DUP1 PUSH4 0xBB3A1895 EQ PUSH2 0x20B JUMPI DUP1 PUSH4 0xBCD3F635 EQ PUSH2 0x21E JUMPI DUP1 PUSH4 0xC82BA057 EQ PUSH2 0x231 JUMPI DUP1 PUSH4 0xE5C35591 EQ PUSH2 0x244 JUMPI PUSH1 0x0 DUP1 REVERT JUMPDEST DUP1 PUSH4 0x614F427F EQ PUSH2 0x1CE JUMPI DUP1 PUSH4 0x6F8B1C13 EQ PUSH2 0x1E5 JUMPI DUP1 PUSH4 0xA916C3B6 EQ PUSH2 0x1F8 JUMPI PUSH1 0x0 DUP1 REVERT JUMPDEST DUP1 PUSH4 0xBBC185B EQ PUSH2 0xD4 JUMPI DUP1 PUSH4 0x12FA1895 EQ PUSH2 0x101 JUMPI DUP1 PUSH4 0x2BBCA157 EQ PUSH2 0x116 JUMPI DUP1 PUSH4 0x3E47158C EQ PUSH2 0x141 JUMPI DUP1 PUSH4 0x5578110C EQ PUSH2 0x180 JUMPI DUP1 PUSH4 0x5AA6E675 EQ PUSH2 0x1A7 JUMPI JUMPDEST PUSH1 0x0 DUP1 REVERT JUMPDEST PUSH2 0xE7 PUSH2 0xE2 CALLDATASIZE PUSH1 0x4 PUSH2 0x1517 JUMP JUMPDEST PUSH2 0x257 JUMP JUMPDEST PUSH1 0x40 MLOAD PUSH4 0xFFFFFFFF SWAP1 SWAP2 AND DUP2 MSTORE PUSH1 0x20 ADD JUMPDEST PUSH1 0x40 MLOAD DUP1 SWAP2 SUB SWAP1 RETURN JUMPDEST PUSH2 0x114 PUSH2 0x10F CALLDATASIZE PUSH1 0x4 PUSH2 0x153B JUMP JUMPDEST PUSH2 0x56D JUMP JUMPDEST STOP JUMPDEST PUSH1 0x2 SLOAD PUSH2 0x129 SWAP1 PUSH1 0x1 PUSH1 0x1 PUSH1 0x40 SHL SUB AND DUP2 JUMP JUMPDEST PUSH1 0x40 MLOAD PUSH1 0x1 PUSH1 0x1 PUSH1 0x40 SHL SUB SWAP1 SWAP2 AND DUP2 MSTORE PUSH1 0x20 ADD PUSH2 0xF8 JUMP JUMPDEST PUSH2 0x168 PUSH32 0x0 DUP2 JUMP JUMPDEST PUSH1 0x40 MLOAD PUSH1 0x1 PUSH1 0x1 PUSH1 0xA0 SHL SUB SWAP1 SWAP2 AND DUP2 MSTORE PUSH1 0x20 ADD PUSH2 0xF8 JUMP JUMPDEST PUSH2 0x168 PUSH32 0x0 DUP2 JUMP JUMPDEST PUSH2 0x168 PUSH32 0x0 DUP2 JUMP JUMPDEST PUSH2 0x1D7 PUSH1 0x1 SLOAD DUP2 JUMP JUMPDEST PUSH1 0x40 MLOAD SWAP1 DUP2 MSTORE PUSH1 0x20 ADD PUSH2 0xF8 JUMP JUMPDEST PUSH2 0x114 PUSH2 0x1F3 CALLDATASIZE PUSH1 0x4 PUSH2 0x1561 JUMP JUMPDEST PUSH2 0x91C JUMP JUMPDEST PUSH2 0x114 PUSH2 0x206 CALLDATASIZE PUSH1 0x4 PUSH2 0x158A JUMP JUMPDEST PUSH2 0x9B9 JUMP JUMPDEST PUSH1 0x0 SLOAD PUSH2 0x129 SWAP1 PUSH1 0x1 PUSH1 0x1 PUSH1 0x40 SHL SUB AND DUP2 JUMP JUMPDEST PUSH2 0x1D7 PUSH2 0x22C CALLDATASIZE PUSH1 0x4 PUSH2 0x153B JUMP JUMPDEST PUSH2 0xA38 JUMP JUMPDEST PUSH2 0x114 PUSH2 0x23F CALLDATASIZE PUSH1 0x4 PUSH2 0x15A3 JUMP JUMPDEST PUSH2 0xAEC JUMP JUMPDEST PUSH2 0x114 PUSH2 0x252 CALLDATASIZE PUSH1 0x4 PUSH2 0x1561 JUMP JUMPDEST PUSH2 0xDEC JUMP JUMPDEST PUSH1 0x0 CALLER PUSH1 0x1 PUSH1 0x1 PUSH1 0xA0 SHL SUB PUSH32 0x0 AND EQ PUSH2 0x2D8 JUMPI PUSH1 0x40 MLOAD PUSH4 0xC55DDC97 PUSH1 0xE0 SHL DUP2 MSTORE CALLER PUSH1 0x4 DUP3 ADD MSTORE PUSH1 0x1 PUSH1 0x1 PUSH1 0xA0 SHL SUB PUSH32 0x0 AND PUSH1 0x24 DUP3 ADD MSTORE PUSH1 0x44 ADD JUMPDEST PUSH1 0x40 MLOAD DUP1 SWAP2 SUB SWAP1 REVERT JUMPDEST PUSH1 0x0 SLOAD PUSH1 0x1 PUSH1 0x1 PUSH1 0x40 SHL SUB TIMESTAMP DUP2 AND SWAP2 AND GT PUSH2 0x335 JUMPI PUSH1 0x40 MLOAD PUSH3 0x461BCD PUSH1 0xE5 SHL DUP2 MSTORE PUSH1 0x20 PUSH1 0x4 DUP3 ADD MSTORE PUSH1 0x1C PUSH1 0x24 DUP3 ADD MSTORE PUSH32 0x656D657267656E6379207265636F766572792069732073756E73657400000000 PUSH1 0x44 DUP3 ADD MSTORE PUSH1 0x64 ADD PUSH2 0x2CF JUMP JUMPDEST PUSH1 0x40 MLOAD PUSH1 0x1 PUSH1 0x1 PUSH1 0xA0 SHL SUB PUSH32 0x0 DUP2 AND PUSH1 0x24 DUP4 ADD MSTORE DUP4 AND PUSH1 0x44 DUP3 ADD MSTORE PUSH1 0x0 SWAP1 PUSH1 0x3 SWAP1 PUSH1 0x64 ADD PUSH1 0x40 DUP1 MLOAD PUSH1 0x1F NOT DUP2 DUP5 SUB ADD DUP2 MSTORE SWAP1 DUP3 SWAP1 MSTORE SWAP2 PUSH2 0x393 SWAP2 PUSH2 0x1602 JUMP JUMPDEST PUSH1 0x40 DUP1 MLOAD SWAP2 DUP3 SWAP1 SUB SWAP1 SWAP2 KECCAK256 PUSH1 0x20 DUP4 DUP2 ADD DUP1 MLOAD PUSH1 0x1 PUSH1 0x1 PUSH1 0xE0 SHL SUB NOT SWAP1 SWAP4 AND PUSH1 0x1 PUSH1 0x1 PUSH1 0xE0 SHL SUB SWAP1 SWAP4 AND SWAP3 SWAP1 SWAP3 OR SWAP1 SWAP2 MSTORE PUSH1 0x7 SLOAD PUSH4 0xFFFFFFFF AND PUSH1 0x0 DUP2 DUP2 MSTORE PUSH1 0x4 SWAP1 SWAP3 MSTORE SWAP2 SWAP1 KECCAK256 DUP1 SLOAD PUSH8 0xFFFFFFFFFFFFFFFF NOT AND TIMESTAMP PUSH1 0x1 PUSH1 0x1 PUSH1 0x40 SHL SUB DUP2 DUP2 AND SWAP3 SWAP1 SWAP3 OR SWAP1 SWAP3 SSTORE PUSH1 0x2 SLOAD SWAP4 SWAP5 POP SWAP2 SWAP3 PUSH2 0x40C SWAP3 AND SWAP1 PUSH2 0x168E JUMP JUMPDEST PUSH4 0xFFFFFFFF DUP3 AND PUSH1 0x0 SWAP1 DUP2 MSTORE PUSH1 0x4 PUSH1 0x20 MSTORE PUSH1 0x40 SWAP1 KECCAK256 DUP1 SLOAD PUSH1 0x1 PUSH1 0x1 PUSH1 0x40 SHL SUB SWAP3 SWAP1 SWAP3 AND PUSH1 0x1 PUSH1 0x40 SHL MUL PUSH1 0xFF PUSH1 0x80 SHL NOT AND PUSH17 0xFFFFFFFFFFFFFFFFFF0000000000000000 NOT SWAP1 SWAP3 AND SWAP2 SWAP1 SWAP2 OR PUSH1 0x3 PUSH1 0x80 SHL OR DUP2 SSTORE PUSH1 0x1 ADD PUSH2 0x46B DUP4 DUP3 PUSH2 0x1728 JUMP JUMPDEST POP PUSH4 0xFFFFFFFF DUP2 AND PUSH1 0x0 SWAP1 DUP2 MSTORE PUSH1 0x6 PUSH1 0x20 MSTORE PUSH1 0x40 SWAP1 KECCAK256 PUSH2 0x4F8 SWAP1 PUSH2 0x48D PUSH2 0xE89 JUMP JUMPDEST PUSH1 0x1 PUSH1 0x1 PUSH1 0xA0 SHL SUB AND PUSH4 0x151F92D3 PUSH1 0x40 MLOAD DUP2 PUSH4 0xFFFFFFFF AND PUSH1 0xE0 SHL DUP2 MSTORE PUSH1 0x4 ADD PUSH1 0x0 PUSH1 0x40 MLOAD DUP1 DUP4 SUB DUP2 DUP7 GAS STATICCALL ISZERO DUP1 ISZERO PUSH2 0x4CA JUMPI RETURNDATASIZE PUSH1 0x0 DUP1 RETURNDATACOPY RETURNDATASIZE PUSH1 0x0 REVERT JUMPDEST POP POP POP POP PUSH1 0x40 MLOAD RETURNDATASIZE PUSH1 0x0 DUP3 RETURNDATACOPY PUSH1 0x1F RETURNDATASIZE SWAP1 DUP2 ADD PUSH1 0x1F NOT AND DUP3 ADD PUSH1 0x40 MSTORE PUSH2 0x4F2 SWAP2 SWAP1 DUP2 ADD SWAP1 PUSH2 0x1884 JUMP JUMPDEST SWAP1 PUSH2 0xF12 JUMP JUMPDEST PUSH1 0x7 DUP1 SLOAD PUSH4 0xFFFFFFFF AND SWAP1 PUSH1 0x0 PUSH2 0x50E DUP4 PUSH2 0x194F JUMP JUMPDEST SWAP2 SWAP1 PUSH2 0x100 EXP DUP2 SLOAD DUP2 PUSH4 0xFFFFFFFF MUL NOT AND SWAP1 DUP4 PUSH4 0xFFFFFFFF AND MUL OR SWAP1 SSTORE POP POP PUSH32 0x39B644BFF2FF7905291B1C531C635015D9191EE8E0DF76A3F4EA30221DEEBF0C DUP2 DUP4 PUSH1 0x40 MLOAD PUSH2 0x55E SWAP3 SWAP2 SWAP1 PUSH2 0x19C2 JUMP JUMPDEST PUSH1 0x40 MLOAD DUP1 SWAP2 SUB SWAP1 LOG1 SWAP4 SWAP3 POP POP POP JUMP JUMPDEST PUSH4 0xFFFFFFFF DUP2 AND PUSH1 0x0 SWAP1 DUP2 MSTORE PUSH1 0x4 PUSH1 0x20 MSTORE PUSH1 0x40 SWAP1 KECCAK256 DUP1 SLOAD PUSH1 0x1 PUSH1 0x40 SHL SWAP1 DIV PUSH1 0x1 PUSH1 0x1 PUSH1 0x40 SHL SUB AND PUSH2 0x5DA JUMPI PUSH1 0x40 MLOAD PUSH3 0x461BCD PUSH1 0xE5 SHL DUP2 MSTORE PUSH1 0x20 PUSH1 0x4 DUP3 ADD MSTORE PUSH1 0x17 PUSH1 0x24 DUP3 ADD MSTORE PUSH23 0x1C1C9BDC1BDCD85B08191BD95CC81B9BDD08195E1A5CDD PUSH1 0x4A SHL PUSH1 0x44 DUP3 ADD MSTORE PUSH1 0x64 ADD PUSH2 0x2CF JUMP JUMPDEST DUP1 SLOAD PUSH1 0x1 PUSH1 0x1 PUSH1 0x40 SHL SUB TIMESTAMP DUP2 AND PUSH1 0x1 PUSH1 0x40 SHL SWAP1 SWAP3 DIV AND LT PUSH2 0x63D JUMPI PUSH1 0x40 MLOAD PUSH3 0x461BCD PUSH1 0xE5 SHL DUP2 MSTORE PUSH1 0x20 PUSH1 0x4 DUP3 ADD MSTORE PUSH1 0x1C PUSH1 0x24 DUP3 ADD MSTORE PUSH32 0x70726F706F73616C206973207374696C6C2074696D656C6F636B656400000000 PUSH1 0x44 DUP3 ADD MSTORE PUSH1 0x64 ADD PUSH2 0x2CF JUMP JUMPDEST PUSH1 0x3 DUP2 SLOAD PUSH1 0x1 PUSH1 0x80 SHL SWAP1 DIV PUSH1 0xFF AND PUSH1 0x5 DUP2 GT ISZERO PUSH2 0x65C JUMPI PUSH2 0x65C PUSH2 0x16AE JUMP JUMPDEST EQ PUSH2 0x6A9 JUMPI PUSH1 0x40 MLOAD PUSH3 0x461BCD PUSH1 0xE5 SHL DUP2 MSTORE PUSH1 0x20 PUSH1 0x4 DUP3 ADD MSTORE PUSH1 0x17 PUSH1 0x24 DUP3 ADD MSTORE PUSH32 0x70726F706F73616C206D75737420626520717565756564000000000000000000 PUSH1 0x44 DUP3 ADD MSTORE PUSH1 0x64 ADD PUSH2 0x2CF JUMP JUMPDEST PUSH4 0xFFFFFFFF DUP3 AND PUSH1 0x0 SWAP1 DUP2 MSTORE PUSH1 0x6 PUSH1 0x20 SWAP1 DUP2 MSTORE PUSH1 0x40 DUP1 DUP4 KECCAK256 DUP1 SLOAD DUP3 MLOAD DUP2 DUP6 MUL DUP2 ADD DUP6 ADD SWAP1 SWAP4 MSTORE DUP1 DUP4 MSTORE SWAP2 SWAP3 SWAP1 SWAP2 SWAP1 DUP5 SWAP1 DUP5 ADD JUMPDEST DUP3 DUP3 LT ISZERO PUSH2 0x731 JUMPI PUSH1 0x0 DUP5 DUP2 MSTORE PUSH1 0x20 SWAP1 DUP2 SWAP1 KECCAK256 PUSH1 0x40 DUP1 MLOAD PUSH1 0x60 DUP2 ADD DUP3 MSTORE PUSH1 0x3 DUP7 MUL SWAP1 SWAP3 ADD DUP1 SLOAD PUSH1 0x1 PUSH1 0x1 PUSH1 0xA0 SHL SUB AND DUP4 MSTORE PUSH1 0x1 DUP1 DUP3 ADD SLOAD DUP5 DUP7 ADD MSTORE PUSH1 0x2 SWAP1 SWAP2 ADD SLOAD SWAP2 DUP4 ADD SWAP2 SWAP1 SWAP2 MSTORE SWAP1 DUP4 MSTORE SWAP1 SWAP3 ADD SWAP2 ADD PUSH2 0x6DC JUMP JUMPDEST POP POP POP POP SWAP1 POP PUSH1 0x0 DUP2 MLOAD GT PUSH2 0x77C JUMPI PUSH1 0x40 MLOAD PUSH3 0x461BCD PUSH1 0xE5 SHL DUP2 MSTORE PUSH1 0x20 PUSH1 0x4 DUP3 ADD MSTORE PUSH1 0x11 PUSH1 0x24 DUP3 ADD MSTORE PUSH17 0x1B9BC81CDB985C1CDA1BDD08199BDD5B99 PUSH1 0x7A SHL PUSH1 0x44 DUP3 ADD MSTORE PUSH1 0x64 ADD PUSH2 0x2CF JUMP JUMPDEST PUSH1 0x0 PUSH2 0x78B DUP3 PUSH1 0x2 DUP6 ADD PUSH2 0xFE9 JUMP JUMPDEST PUSH1 0x1 SLOAD SWAP1 SWAP2 POP DUP2 GT DUP1 ISZERO PUSH2 0x7EB JUMPI DUP4 SLOAD PUSH1 0xFF PUSH1 0x80 SHL NOT AND PUSH1 0x1 PUSH1 0x81 SHL OR DUP5 SSTORE PUSH1 0x40 MLOAD PUSH4 0xFFFFFFFF DUP7 AND DUP2 MSTORE PUSH32 0xCA72B4BD507572758C32DD81AC0EB64AB5A240B9ABF9A3162B505FD4183DE30D SWAP1 PUSH1 0x20 ADD JUMPDEST PUSH1 0x40 MLOAD DUP1 SWAP2 SUB SWAP1 LOG1 POP POP POP POP POP JUMP JUMPDEST PUSH2 0x8B3 DUP5 PUSH1 0x1 ADD DUP1 SLOAD PUSH2 0x7FD SWAP1 PUSH2 0x15C8 JUMP JUMPDEST DUP1 PUSH1 0x1F ADD PUSH1 0x20 DUP1 SWAP2 DIV MUL PUSH1 0x20 ADD PUSH1 0x40 MLOAD SWAP1 DUP2 ADD PUSH1 0x40 MSTORE DUP1 SWAP3 SWAP2 SWAP1 DUP2 DUP2 MSTORE PUSH1 0x20 ADD DUP3 DUP1 SLOAD PUSH2 0x829 SWAP1 PUSH2 0x15C8 JUMP JUMPDEST DUP1 ISZERO PUSH2 0x876 JUMPI DUP1 PUSH1 0x1F LT PUSH2 0x84B JUMPI PUSH2 0x100 DUP1 DUP4 SLOAD DIV MUL DUP4 MSTORE SWAP2 PUSH1 0x20 ADD SWAP2 PUSH2 0x876 JUMP JUMPDEST DUP3 ADD SWAP2 SWAP1 PUSH1 0x0 MSTORE PUSH1 0x20 PUSH1 0x0 KECCAK256 SWAP1 JUMPDEST DUP2 SLOAD DUP2 MSTORE SWAP1 PUSH1 0x1 ADD SWAP1 PUSH1 0x20 ADD DUP1 DUP4 GT PUSH2 0x859 JUMPI DUP3 SWAP1 SUB PUSH1 0x1F AND DUP3 ADD SWAP2 JUMPDEST POP POP POP POP POP PUSH32 0x0 PUSH1 0x1 PUSH1 0x1 PUSH1 0xA0 SHL SUB AND PUSH2 0x107D SWAP1 SWAP2 SWAP1 PUSH4 0xFFFFFFFF AND JUMP JUMPDEST POP DUP4 SLOAD PUSH1 0xFF PUSH1 0x80 SHL NOT AND PUSH1 0x1 PUSH1 0x82 SHL OR DUP5 SSTORE PUSH1 0x40 MLOAD PUSH32 0x783493C460E105CD6E0BA99C072BA96927C68EF8586BD2802B9E07088A4E6510 SWAP1 PUSH2 0x7DC SWAP1 DUP8 SWAP1 PUSH32 0x0 SWAP1 PUSH1 0x1 DUP10 ADD SWAP1 PUSH2 0x19E1 JUMP JUMPDEST CALLER PUSH1 0x1 PUSH1 0x1 PUSH1 0xA0 SHL SUB PUSH32 0x0 AND EQ PUSH2 0x996 JUMPI PUSH1 0x40 MLOAD PUSH4 0xC55DDC97 PUSH1 0xE0 SHL DUP2 MSTORE CALLER PUSH1 0x4 DUP3 ADD MSTORE PUSH1 0x1 PUSH1 0x1 PUSH1 0xA0 SHL SUB PUSH32 0x0 AND PUSH1 0x24 DUP3 ADD MSTORE PUSH1 0x44 ADD PUSH2 0x2CF JUMP JUMPDEST PUSH1 0x0 DUP1 SLOAD PUSH8 0xFFFFFFFFFFFFFFFF NOT AND PUSH1 0x1 PUSH1 0x1 PUSH1 0x40 SHL SUB SWAP3 SWAP1 SWAP3 AND SWAP2 SWAP1 SWAP2 OR SWAP1 SSTORE JUMP JUMPDEST CALLER PUSH1 0x1 PUSH1 0x1 PUSH1 0xA0 SHL SUB PUSH32 0x0 AND EQ PUSH2 0xA33 JUMPI PUSH1 0x40 MLOAD PUSH4 0xC55DDC97 PUSH1 0xE0 SHL DUP2 MSTORE CALLER PUSH1 0x4 DUP3 ADD MSTORE PUSH1 0x1 PUSH1 0x1 PUSH1 0xA0 SHL SUB PUSH32 0x0 AND PUSH1 0x24 DUP3 ADD MSTORE PUSH1 0x44 ADD PUSH2 0x2CF JUMP JUMPDEST PUSH1 0x1 SSTORE JUMP JUMPDEST PUSH4 0xFFFFFFFF DUP2 AND PUSH1 0x0 SWAP1 DUP2 MSTORE PUSH1 0x4 PUSH1 0x20 SWAP1 DUP2 MSTORE PUSH1 0x40 DUP1 DUP4 KECCAK256 PUSH1 0x6 DUP4 MSTORE DUP2 DUP5 KECCAK256 DUP1 SLOAD DUP4 MLOAD DUP2 DUP7 MUL DUP2 ADD DUP7 ADD SWAP1 SWAP5 MSTORE DUP1 DUP5 MSTORE SWAP2 SWAP4 DUP6 SWAP4 SWAP3 SWAP1 DUP5 SWAP1 DUP5 ADD JUMPDEST DUP3 DUP3 LT ISZERO PUSH2 0xAC8 JUMPI PUSH1 0x0 DUP5 DUP2 MSTORE PUSH1 0x20 SWAP1 DUP2 SWAP1 KECCAK256 PUSH1 0x40 DUP1 MLOAD PUSH1 0x60 DUP2 ADD DUP3 MSTORE PUSH1 0x3 DUP7 MUL SWAP1 SWAP3 ADD DUP1 SLOAD PUSH1 0x1 PUSH1 0x1 PUSH1 0xA0 SHL SUB AND DUP4 MSTORE PUSH1 0x1 DUP1 DUP3 ADD SLOAD DUP5 DUP7 ADD MSTORE PUSH1 0x2 SWAP1 SWAP2 ADD SLOAD SWAP2 DUP4 ADD SWAP2 SWAP1 SWAP2 MSTORE SWAP1 DUP4 MSTORE SWAP1 SWAP3 ADD SWAP2 ADD PUSH2 0xA73 JUMP JUMPDEST POP POP POP POP SWAP1 POP PUSH2 0xAE4 DUP3 PUSH1 0x2 ADD DUP3 PUSH2 0xFE9 SWAP1 SWAP2 SWAP1 PUSH4 0xFFFFFFFF AND JUMP JUMPDEST SWAP5 SWAP4 POP POP POP POP JUMP JUMPDEST PUSH3 0xFFFFFF DUP2 AND PUSH1 0x0 SWAP1 DUP2 MSTORE PUSH1 0x4 PUSH1 0x20 MSTORE PUSH1 0x40 SWAP1 KECCAK256 DUP1 SLOAD PUSH1 0x1 PUSH1 0x40 SHL SWAP1 DIV PUSH1 0x1 PUSH1 0x1 PUSH1 0x40 SHL SUB AND PUSH2 0xB58 JUMPI PUSH1 0x40 MLOAD PUSH3 0x461BCD PUSH1 0xE5 SHL DUP2 MSTORE PUSH1 0x20 PUSH1 0x4 DUP3 ADD MSTORE PUSH1 0x17 PUSH1 0x24 DUP3 ADD MSTORE PUSH23 0x1C1C9BDC1BDCD85B08191BD95CC81B9BDD08195E1A5CDD PUSH1 0x4A SHL PUSH1 0x44 DUP3 ADD MSTORE PUSH1 0x64 ADD PUSH2 0x2CF JUMP JUMPDEST DUP1 SLOAD PUSH1 0x1 PUSH1 0x1 PUSH1 0x40 SHL SUB TIMESTAMP DUP2 AND PUSH1 0x1 PUSH1 0x40 SHL SWAP1 SWAP3 DIV AND GT PUSH2 0xBBB JUMPI PUSH1 0x40 MLOAD PUSH3 0x461BCD PUSH1 0xE5 SHL DUP2 MSTORE PUSH1 0x20 PUSH1 0x4 DUP3 ADD MSTORE PUSH1 0x1B PUSH1 0x24 DUP3 ADD MSTORE PUSH32 0x70726F706F73616C206973206F7574206F662074696D656C6F636B0000000000 PUSH1 0x44 DUP3 ADD MSTORE PUSH1 0x64 ADD PUSH2 0x2CF JUMP JUMPDEST PUSH3 0xFFFFFF DUP3 AND PUSH1 0x0 SWAP1 DUP2 MSTORE PUSH1 0x5 PUSH1 0x20 SWAP1 DUP2 MSTORE PUSH1 0x40 DUP1 DUP4 KECCAK256 CALLER DUP5 MSTORE SWAP1 SWAP2 MSTORE DUP2 KECCAK256 SWAP1 JUMPDEST PUSH2 0xBE8 DUP4 PUSH1 0x2 ADD PUSH2 0x10CA JUMP JUMPDEST DUP2 LT ISZERO PUSH2 0xC44 JUMPI PUSH1 0x0 DUP1 PUSH2 0xBFF PUSH1 0x2 DUP7 ADD DUP5 PUSH2 0x10D5 JUMP JUMPDEST SWAP1 SWAP3 POP SWAP1 POP PUSH1 0x0 PUSH2 0xC10 DUP6 DUP5 PUSH2 0x10F3 JUMP JUMPDEST SWAP2 POP PUSH2 0xC2D SWAP1 POP DUP4 PUSH2 0xC22 DUP4 DUP6 PUSH2 0x1A89 JUMP JUMPDEST PUSH1 0x2 DUP10 ADD SWAP2 SWAP1 PUSH2 0x110B JUMP JUMPDEST POP POP POP POP DUP1 DUP1 PUSH2 0xC3C SWAP1 PUSH2 0x1A9C JUMP JUMPDEST SWAP2 POP POP PUSH2 0xBDC JUMP JUMPDEST POP PUSH1 0x0 PUSH2 0xC4F PUSH2 0xE89 JUMP JUMPDEST DUP4 SLOAD PUSH1 0x40 MLOAD PUSH4 0x23FD003D PUSH1 0xE2 SHL DUP2 MSTORE CALLER PUSH1 0x4 DUP3 ADD MSTORE PUSH1 0x1 PUSH1 0x1 PUSH1 0x40 SHL SUB SWAP1 SWAP2 AND PUSH1 0x24 DUP3 ADD MSTORE PUSH1 0x1 PUSH1 0x1 PUSH1 0xA0 SHL SUB SWAP2 SWAP1 SWAP2 AND SWAP1 PUSH4 0x8FF400F4 SWAP1 PUSH1 0x44 ADD PUSH1 0x0 PUSH1 0x40 MLOAD DUP1 DUP4 SUB DUP2 DUP7 GAS STATICCALL ISZERO DUP1 ISZERO PUSH2 0xCA7 JUMPI RETURNDATASIZE PUSH1 0x0 DUP1 RETURNDATACOPY RETURNDATASIZE PUSH1 0x0 REVERT JUMPDEST POP POP POP POP PUSH1 0x40 MLOAD RETURNDATASIZE PUSH1 0x0 DUP3 RETURNDATACOPY PUSH1 0x1F RETURNDATASIZE SWAP1 DUP2 ADD PUSH1 0x1F NOT AND DUP3 ADD PUSH1 0x40 MSTORE PUSH2 0xCCF SWAP2 SWAP1 DUP2 ADD SWAP1 PUSH2 0x1AB5 JUMP JUMPDEST SWAP1 POP PUSH1 0x0 JUMPDEST DUP2 MLOAD DUP2 LT ISZERO PUSH2 0xD83 JUMPI PUSH1 0x0 DUP3 DUP3 DUP2 MLOAD DUP2 LT PUSH2 0xCF1 JUMPI PUSH2 0xCF1 PUSH2 0x1B68 JUMP JUMPDEST PUSH1 0x20 MUL PUSH1 0x20 ADD ADD MLOAD SWAP1 POP PUSH1 0x0 PUSH2 0xD17 DUP3 PUSH1 0x0 ADD MLOAD DUP8 PUSH1 0x2 ADD PUSH2 0x10F3 SWAP1 SWAP2 SWAP1 PUSH4 0xFFFFFFFF AND JUMP JUMPDEST SWAP2 POP POP PUSH1 0x0 DUP3 PUSH1 0x20 ADD MLOAD DUP3 PUSH2 0xD2C SWAP2 SWAP1 PUSH2 0x1B7E JUMP JUMPDEST DUP4 MLOAD SWAP1 SWAP2 POP PUSH2 0xD40 SWAP1 PUSH1 0x2 DUP10 ADD SWAP1 DUP4 PUSH2 0x110B JUMP JUMPDEST POP DUP3 MLOAD PUSH3 0xFFFFFF DUP10 AND PUSH1 0x0 SWAP1 DUP2 MSTORE PUSH1 0x5 PUSH1 0x20 SWAP1 DUP2 MSTORE PUSH1 0x40 DUP1 DUP4 KECCAK256 CALLER DUP5 MSTORE SWAP1 SWAP2 MSTORE SWAP1 KECCAK256 PUSH2 0xD6C SWAP2 DUP4 PUSH2 0x110B JUMP JUMPDEST POP POP POP POP DUP1 DUP1 PUSH2 0xD7B SWAP1 PUSH2 0x1A9C JUMP JUMPDEST SWAP2 POP POP PUSH2 0xCD4 JUMP JUMPDEST POP PUSH3 0xFFFFFF DUP5 AND PUSH1 0x0 SWAP1 DUP2 MSTORE PUSH1 0x5 PUSH1 0x20 SWAP1 DUP2 MSTORE PUSH1 0x40 DUP1 DUP4 KECCAK256 CALLER DUP5 MSTORE SWAP1 SWAP2 MSTORE SWAP1 KECCAK256 PUSH32 0x2E3D56FD9D0B37209D5FA5D92A679C85F88A46813BA9C7950FEED7880D80B986 SWAP1 DUP6 SWAP1 PUSH2 0xDD0 SWAP1 PUSH2 0x1121 JUMP JUMPDEST PUSH1 0x40 MLOAD PUSH2 0xDDE SWAP3 SWAP2 SWAP1 PUSH2 0x1B91 JUMP JUMPDEST PUSH1 0x40 MLOAD DUP1 SWAP2 SUB SWAP1 LOG1 POP POP POP POP JUMP JUMPDEST CALLER PUSH1 0x1 PUSH1 0x1 PUSH1 0xA0 SHL SUB PUSH32 0x0 AND EQ PUSH2 0xE66 JUMPI PUSH1 0x40 MLOAD PUSH4 0xC55DDC97 PUSH1 0xE0 SHL DUP2 MSTORE CALLER PUSH1 0x4 DUP3 ADD MSTORE PUSH1 0x1 PUSH1 0x1 PUSH1 0xA0 SHL SUB PUSH32 0x0 AND PUSH1 0x24 DUP3 ADD MSTORE PUSH1 0x44 ADD PUSH2 0x2CF JUMP JUMPDEST PUSH1 0x2 DUP1 SLOAD PUSH8 0xFFFFFFFFFFFFFFFF NOT AND PUSH1 0x1 PUSH1 0x1 PUSH1 0x40 SHL SUB SWAP3 SWAP1 SWAP3 AND SWAP2 SWAP1 SWAP2 OR SWAP1 SSTORE JUMP JUMPDEST PUSH1 0x0 PUSH32 0x0 PUSH1 0x1 PUSH1 0x1 PUSH1 0xA0 SHL SUB AND PUSH4 0xC1AB52CD PUSH1 0x40 MLOAD DUP2 PUSH4 0xFFFFFFFF AND PUSH1 0xE0 SHL DUP2 MSTORE PUSH1 0x4 ADD PUSH1 0x20 PUSH1 0x40 MLOAD DUP1 DUP4 SUB DUP2 DUP7 GAS STATICCALL ISZERO DUP1 ISZERO PUSH2 0xEE9 JUMPI RETURNDATASIZE PUSH1 0x0 DUP1 RETURNDATACOPY RETURNDATASIZE PUSH1 0x0 REVERT JUMPDEST POP POP POP POP PUSH1 0x40 MLOAD RETURNDATASIZE PUSH1 0x1F NOT PUSH1 0x1F DUP3 ADD AND DUP3 ADD DUP1 PUSH1 0x40 MSTORE POP DUP2 ADD SWAP1 PUSH2 0xF0D SWAP2 SWAP1 PUSH2 0x1BF7 JUMP JUMPDEST SWAP1 POP SWAP1 JUMP JUMPDEST DUP1 SLOAD ISZERO PUSH2 0xF59 JUMPI PUSH1 0x40 MLOAD PUSH3 0x461BCD PUSH1 0xE5 SHL DUP2 MSTORE PUSH1 0x20 PUSH1 0x4 DUP3 ADD MSTORE PUSH1 0x15 PUSH1 0x24 DUP3 ADD MSTORE PUSH21 0x39BA37B930B3B29036BAB9BA1031329031B632B0B7 PUSH1 0x59 SHL PUSH1 0x44 DUP3 ADD MSTORE PUSH1 0x64 ADD PUSH2 0x2CF JUMP JUMPDEST PUSH1 0x0 JUMPDEST DUP3 MLOAD DUP2 LT ISZERO PUSH2 0xFE4 JUMPI DUP2 DUP4 DUP3 DUP2 MLOAD DUP2 LT PUSH2 0xF78 JUMPI PUSH2 0xF78 PUSH2 0x1B68 JUMP JUMPDEST PUSH1 0x20 SWAP1 DUP2 MUL SWAP2 SWAP1 SWAP2 ADD DUP2 ADD MLOAD DUP3 SLOAD PUSH1 0x1 DUP1 DUP3 ADD DUP6 SSTORE PUSH1 0x0 SWAP5 DUP6 MSTORE SWAP4 DUP4 SWAP1 KECCAK256 DUP3 MLOAD PUSH1 0x3 SWAP1 SWAP3 MUL ADD DUP1 SLOAD PUSH1 0x1 PUSH1 0x1 PUSH1 0xA0 SHL SUB NOT AND PUSH1 0x1 PUSH1 0x1 PUSH1 0xA0 SHL SUB SWAP1 SWAP3 AND SWAP2 SWAP1 SWAP2 OR DUP2 SSTORE SWAP2 DUP2 ADD MLOAD SWAP3 DUP3 ADD SWAP3 SWAP1 SWAP3 SSTORE PUSH1 0x40 SWAP1 SWAP2 ADD MLOAD PUSH1 0x2 SWAP1 SWAP2 ADD SSTORE DUP1 PUSH2 0xFDC DUP2 PUSH2 0x1A9C JUMP JUMPDEST SWAP2 POP POP PUSH2 0xF5C JUMP JUMPDEST POP POP POP JUMP JUMPDEST PUSH1 0x0 DUP1 JUMPDEST DUP4 MLOAD DUP2 LT ISZERO PUSH2 0x1076 JUMPI PUSH1 0x0 DUP5 DUP3 DUP2 MLOAD DUP2 LT PUSH2 0x100A JUMPI PUSH2 0x100A PUSH2 0x1B68 JUMP JUMPDEST PUSH1 0x20 MUL PUSH1 0x20 ADD ADD MLOAD SWAP1 POP PUSH1 0x0 PUSH2 0x102D DUP3 PUSH1 0x0 ADD MLOAD DUP7 PUSH2 0x10F3 SWAP1 SWAP2 SWAP1 PUSH4 0xFFFFFFFF AND JUMP JUMPDEST SWAP2 POP POP PUSH2 0x1055 DUP3 PUSH1 0x20 ADD MLOAD PUSH2 0x104F DUP5 PUSH1 0x40 ADD MLOAD DUP5 PUSH2 0x1201 SWAP1 SWAP2 SWAP1 PUSH4 0xFFFFFFFF AND JUMP JUMPDEST SWAP1 PUSH2 0x1220 JUMP JUMPDEST PUSH2 0x105F SWAP1 DUP6 PUSH2 0x1B7E JUMP JUMPDEST SWAP4 POP POP POP DUP1 DUP1 PUSH2 0x106E SWAP1 PUSH2 0x1A9C JUMP JUMPDEST SWAP2 POP POP PUSH2 0xFED JUMP JUMPDEST POP SWAP3 SWAP2 POP POP JUMP JUMPDEST PUSH1 0x60 PUSH2 0x10C1 DUP4 DUP4 PUSH1 0x0 PUSH1 0x40 MLOAD DUP1 PUSH1 0x40 ADD PUSH1 0x40 MSTORE DUP1 PUSH1 0x1E DUP2 MSTORE PUSH1 0x20 ADD PUSH32 0x416464726573733A206C6F772D6C6576656C2063616C6C206661696C65640000 DUP2 MSTORE POP PUSH2 0x1235 JUMP JUMPDEST SWAP1 POP JUMPDEST SWAP3 SWAP2 POP POP JUMP JUMPDEST PUSH1 0x0 PUSH2 0x10C4 DUP3 PUSH2 0x1310 JUMP JUMPDEST PUSH1 0x0 DUP1 DUP1 DUP1 PUSH2 0x10E4 DUP7 DUP7 PUSH2 0x131B JUMP JUMPDEST SWAP1 SWAP5 POP SWAP3 POP POP POP JUMPDEST SWAP3 POP SWAP3 SWAP1 POP JUMP JUMPDEST PUSH1 0x0 DUP1 DUP1 DUP1 PUSH2 0x10E4 DUP7 PUSH1 0x1 PUSH1 0x1 PUSH1 0xA0 SHL SUB DUP8 AND PUSH2 0x1346 JUMP JUMPDEST PUSH1 0x0 PUSH2 0xAE4 DUP5 PUSH1 0x1 PUSH1 0x1 PUSH1 0xA0 SHL SUB DUP6 AND DUP5 PUSH2 0x1380 JUMP JUMPDEST PUSH1 0x60 PUSH1 0x0 PUSH2 0x112E DUP4 PUSH2 0x10CA JUMP JUMPDEST PUSH1 0x1 PUSH1 0x1 PUSH1 0x40 SHL SUB DUP2 GT ISZERO PUSH2 0x1145 JUMPI PUSH2 0x1145 PUSH2 0x16C4 JUMP JUMPDEST PUSH1 0x40 MLOAD SWAP1 DUP1 DUP3 MSTORE DUP1 PUSH1 0x20 MUL PUSH1 0x20 ADD DUP3 ADD PUSH1 0x40 MSTORE DUP1 ISZERO PUSH2 0x118A JUMPI DUP2 PUSH1 0x20 ADD JUMPDEST PUSH1 0x40 DUP1 MLOAD DUP1 DUP3 ADD SWAP1 SWAP2 MSTORE PUSH1 0x0 DUP1 DUP3 MSTORE PUSH1 0x20 DUP3 ADD MSTORE DUP2 MSTORE PUSH1 0x20 ADD SWAP1 PUSH1 0x1 SWAP1 SUB SWAP1 DUP2 PUSH2 0x1163 JUMPI SWAP1 POP JUMPDEST POP SWAP1 POP PUSH1 0x0 JUMPDEST PUSH2 0x1199 DUP5 PUSH2 0x10CA JUMP JUMPDEST DUP2 LT ISZERO PUSH2 0x1076 JUMPI PUSH1 0x0 DUP1 PUSH2 0x11AD DUP7 DUP5 PUSH2 0x10D5 JUMP JUMPDEST SWAP2 POP SWAP2 POP PUSH1 0x40 MLOAD DUP1 PUSH1 0x40 ADD PUSH1 0x40 MSTORE DUP1 DUP4 PUSH1 0x1 PUSH1 0x1 PUSH1 0xA0 SHL SUB AND DUP2 MSTORE PUSH1 0x20 ADD DUP3 DUP2 MSTORE POP DUP5 DUP5 DUP2 MLOAD DUP2 LT PUSH2 0x11E1 JUMPI PUSH2 0x11E1 PUSH2 0x1B68 JUMP JUMPDEST PUSH1 0x20 MUL PUSH1 0x20 ADD ADD DUP2 SWAP1 MSTORE POP POP POP DUP1 DUP1 PUSH2 0x11F9 SWAP1 PUSH2 0x1A9C JUMP JUMPDEST SWAP2 POP POP PUSH2 0x1190 JUMP JUMPDEST PUSH1 0x0 DUP2 PUSH2 0x1216 PUSH8 0xDE0B6B3A7640000 DUP6 PUSH2 0x1C14 JUMP JUMPDEST PUSH2 0x10C1 SWAP2 SWAP1 PUSH2 0x1C2B JUMP JUMPDEST PUSH1 0x0 PUSH8 0xDE0B6B3A7640000 PUSH2 0x1216 DUP4 DUP6 PUSH2 0x1C14 JUMP JUMPDEST PUSH1 0x60 DUP3 SELFBALANCE LT ISZERO PUSH2 0x1296 JUMPI PUSH1 0x40 MLOAD PUSH3 0x461BCD PUSH1 0xE5 SHL DUP2 MSTORE PUSH1 0x20 PUSH1 0x4 DUP3 ADD MSTORE PUSH1 0x26 PUSH1 0x24 DUP3 ADD MSTORE PUSH32 0x416464726573733A20696E73756666696369656E742062616C616E636520666F PUSH1 0x44 DUP3 ADD MSTORE PUSH6 0x1C8818D85B1B PUSH1 0xD2 SHL PUSH1 0x64 DUP3 ADD MSTORE PUSH1 0x84 ADD PUSH2 0x2CF JUMP JUMPDEST PUSH1 0x0 DUP1 DUP7 PUSH1 0x1 PUSH1 0x1 PUSH1 0xA0 SHL SUB AND DUP6 DUP8 PUSH1 0x40 MLOAD PUSH2 0x12B2 SWAP2 SWAP1 PUSH2 0x1C4D JUMP JUMPDEST PUSH1 0x0 PUSH1 0x40 MLOAD DUP1 DUP4 SUB DUP2 DUP6 DUP8 GAS CALL SWAP3 POP POP POP RETURNDATASIZE DUP1 PUSH1 0x0 DUP2 EQ PUSH2 0x12EF JUMPI PUSH1 0x40 MLOAD SWAP2 POP PUSH1 0x1F NOT PUSH1 0x3F RETURNDATASIZE ADD AND DUP3 ADD PUSH1 0x40 MSTORE RETURNDATASIZE DUP3 MSTORE RETURNDATASIZE PUSH1 0x0 PUSH1 0x20 DUP5 ADD RETURNDATACOPY PUSH2 0x12F4 JUMP JUMPDEST PUSH1 0x60 SWAP2 POP JUMPDEST POP SWAP2 POP SWAP2 POP PUSH2 0x1305 DUP8 DUP4 DUP4 DUP8 PUSH2 0x139D JUMP JUMPDEST SWAP8 SWAP7 POP POP POP POP POP POP POP JUMP JUMPDEST PUSH1 0x0 PUSH2 0x10C4 DUP3 PUSH2 0x1416 JUMP JUMPDEST PUSH1 0x0 DUP1 DUP1 PUSH2 0x1329 DUP6 DUP6 PUSH2 0x1420 JUMP JUMPDEST PUSH1 0x0 DUP2 DUP2 MSTORE PUSH1 0x2 SWAP7 SWAP1 SWAP7 ADD PUSH1 0x20 MSTORE PUSH1 0x40 SWAP1 SWAP6 KECCAK256 SLOAD SWAP5 SWAP6 SWAP4 POP POP POP POP JUMP JUMPDEST PUSH1 0x0 DUP2 DUP2 MSTORE PUSH1 0x2 DUP4 ADD PUSH1 0x20 MSTORE PUSH1 0x40 DUP2 KECCAK256 SLOAD DUP2 SWAP1 DUP1 PUSH2 0x1375 JUMPI PUSH2 0x1368 DUP6 DUP6 PUSH2 0x142C JUMP JUMPDEST SWAP3 POP PUSH1 0x0 SWAP2 POP PUSH2 0x10EC SWAP1 POP JUMP JUMPDEST PUSH1 0x1 SWAP3 POP SWAP1 POP PUSH2 0x10EC JUMP JUMPDEST PUSH1 0x0 DUP3 DUP2 MSTORE PUSH1 0x2 DUP5 ADD PUSH1 0x20 MSTORE PUSH1 0x40 DUP2 KECCAK256 DUP3 SWAP1 SSTORE PUSH2 0xAE4 DUP5 DUP5 PUSH2 0x1438 JUMP JUMPDEST PUSH1 0x60 DUP4 ISZERO PUSH2 0x140C JUMPI DUP3 MLOAD PUSH1 0x0 SUB PUSH2 0x1405 JUMPI PUSH1 0x1 PUSH1 0x1 PUSH1 0xA0 SHL SUB DUP6 AND EXTCODESIZE PUSH2 0x1405 JUMPI PUSH1 0x40 MLOAD PUSH3 0x461BCD PUSH1 0xE5 SHL DUP2 MSTORE PUSH1 0x20 PUSH1 0x4 DUP3 ADD MSTORE PUSH1 0x1D PUSH1 0x24 DUP3 ADD MSTORE PUSH32 0x416464726573733A2063616C6C20746F206E6F6E2D636F6E7472616374000000 PUSH1 0x44 DUP3 ADD MSTORE PUSH1 0x64 ADD PUSH2 0x2CF JUMP JUMPDEST POP DUP2 PUSH2 0xAE4 JUMP JUMPDEST PUSH2 0xAE4 DUP4 DUP4 PUSH2 0x1444 JUMP JUMPDEST PUSH1 0x0 PUSH2 0x10C4 DUP3 SLOAD SWAP1 JUMP JUMPDEST PUSH1 0x0 PUSH2 0x10C1 DUP4 DUP4 PUSH2 0x146E JUMP JUMPDEST PUSH1 0x0 PUSH2 0x10C1 DUP4 DUP4 PUSH2 0x1498 JUMP JUMPDEST PUSH1 0x0 PUSH2 0x10C1 DUP4 DUP4 PUSH2 0x14B0 JUMP JUMPDEST DUP2 MLOAD ISZERO PUSH2 0x1454 JUMPI DUP2 MLOAD DUP1 DUP4 PUSH1 0x20 ADD REVERT JUMPDEST DUP1 PUSH1 0x40 MLOAD PUSH3 0x461BCD PUSH1 0xE5 SHL DUP2 MSTORE PUSH1 0x4 ADD PUSH2 0x2CF SWAP2 SWAP1 PUSH2 0x1C69 JUMP JUMPDEST PUSH1 0x0 DUP3 PUSH1 0x0 ADD DUP3 DUP2 SLOAD DUP2 LT PUSH2 0x1485 JUMPI PUSH2 0x1485 PUSH2 0x1B68 JUMP JUMPDEST SWAP1 PUSH1 0x0 MSTORE PUSH1 0x20 PUSH1 0x0 KECCAK256 ADD SLOAD SWAP1 POP SWAP3 SWAP2 POP POP JUMP JUMPDEST PUSH1 0x0 DUP2 DUP2 MSTORE PUSH1 0x1 DUP4 ADD PUSH1 0x20 MSTORE PUSH1 0x40 DUP2 KECCAK256 SLOAD ISZERO ISZERO PUSH2 0x10C1 JUMP JUMPDEST PUSH1 0x0 DUP2 DUP2 MSTORE PUSH1 0x1 DUP4 ADD PUSH1 0x20 MSTORE PUSH1 0x40 DUP2 KECCAK256 SLOAD PUSH2 0x14F7 JUMPI POP DUP2 SLOAD PUSH1 0x1 DUP2 DUP2 ADD DUP5 SSTORE PUSH1 0x0 DUP5 DUP2 MSTORE PUSH1 0x20 DUP1 DUP3 KECCAK256 SWAP1 SWAP4 ADD DUP5 SWAP1 SSTORE DUP5 SLOAD DUP5 DUP3 MSTORE DUP3 DUP7 ADD SWAP1 SWAP4 MSTORE PUSH1 0x40 SWAP1 KECCAK256 SWAP2 SWAP1 SWAP2 SSTORE PUSH2 0x10C4 JUMP JUMPDEST POP PUSH1 0x0 PUSH2 0x10C4 JUMP JUMPDEST PUSH1 0x1 PUSH1 0x1 PUSH1 0xA0 SHL SUB DUP2 AND DUP2 EQ PUSH2 0x1514 JUMPI PUSH1 0x0 DUP1 REVERT JUMPDEST POP JUMP JUMPDEST PUSH1 0x0 PUSH1 0x20 DUP3 DUP5 SUB SLT ISZERO PUSH2 0x1529 JUMPI PUSH1 0x0 DUP1 REVERT JUMPDEST DUP2 CALLDATALOAD PUSH2 0x1534 DUP2 PUSH2 0x14FF JUMP JUMPDEST SWAP4 SWAP3 POP POP POP JUMP JUMPDEST PUSH1 0x0 PUSH1 0x20 DUP3 DUP5 SUB SLT ISZERO PUSH2 0x154D JUMPI PUSH1 0x0 DUP1 REVERT JUMPDEST DUP2 CALLDATALOAD PUSH4 0xFFFFFFFF DUP2 AND DUP2 EQ PUSH2 0x1534 JUMPI PUSH1 0x0 DUP1 REVERT JUMPDEST PUSH1 0x0 PUSH1 0x20 DUP3 DUP5 SUB SLT ISZERO PUSH2 0x1573 JUMPI PUSH1 0x0 DUP1 REVERT JUMPDEST DUP2 CALLDATALOAD PUSH1 0x1 PUSH1 0x1 PUSH1 0x40 SHL SUB DUP2 AND DUP2 EQ PUSH2 0x1534 JUMPI PUSH1 0x0 DUP1 REVERT JUMPDEST PUSH1 0x0 PUSH1 0x20 DUP3 DUP5 SUB SLT ISZERO PUSH2 0x159C JUMPI PUSH1 0x0 DUP1 REVERT JUMPDEST POP CALLDATALOAD SWAP2 SWAP1 POP JUMP JUMPDEST PUSH1 0x0 PUSH1 0x20 DUP3 DUP5 SUB SLT ISZERO PUSH2 0x15B5 JUMPI PUSH1 0x0 DUP1 REVERT JUMPDEST DUP2 CALLDATALOAD PUSH3 0xFFFFFF DUP2 AND DUP2 EQ PUSH2 0x1534 JUMPI PUSH1 0x0 DUP1 REVERT JUMPDEST PUSH1 0x1 DUP2 DUP2 SHR SWAP1 DUP3 AND DUP1 PUSH2 0x15DC JUMPI PUSH1 0x7F DUP3 AND SWAP2 POP JUMPDEST PUSH1 0x20 DUP3 LT DUP2 SUB PUSH2 0x15FC JUMPI PUSH4 0x4E487B71 PUSH1 0xE0 SHL PUSH1 0x0 MSTORE PUSH1 0x22 PUSH1 0x4 MSTORE PUSH1 0x24 PUSH1 0x0 REVERT JUMPDEST POP SWAP2 SWAP1 POP JUMP JUMPDEST PUSH1 0x0 DUP1 DUP4 SLOAD PUSH2 0x1610 DUP2 PUSH2 0x15C8 JUMP JUMPDEST PUSH1 0x1 DUP3 DUP2 AND DUP1 ISZERO PUSH2 0x1628 JUMPI PUSH1 0x1 DUP2 EQ PUSH2 0x163D JUMPI PUSH2 0x166C JUMP JUMPDEST PUSH1 0xFF NOT DUP5 AND DUP8 MSTORE DUP3 ISZERO ISZERO DUP4 MUL DUP8 ADD SWAP5 POP PUSH2 0x166C JUMP JUMPDEST DUP8 PUSH1 0x0 MSTORE PUSH1 0x20 DUP1 PUSH1 0x0 KECCAK256 PUSH1 0x0 JUMPDEST DUP6 DUP2 LT ISZERO PUSH2 0x1663 JUMPI DUP2 SLOAD DUP11 DUP3 ADD MSTORE SWAP1 DUP5 ADD SWAP1 DUP3 ADD PUSH2 0x164A JUMP JUMPDEST POP POP POP DUP3 DUP8 ADD SWAP5 POP JUMPDEST POP SWAP3 SWAP7 SWAP6 POP POP POP POP POP POP JUMP JUMPDEST PUSH4 0x4E487B71 PUSH1 0xE0 SHL PUSH1 0x0 MSTORE PUSH1 0x11 PUSH1 0x4 MSTORE PUSH1 0x24 PUSH1 0x0 REVERT JUMPDEST PUSH1 0x1 PUSH1 0x1 PUSH1 0x40 SHL SUB DUP2 DUP2 AND DUP4 DUP3 AND ADD SWAP1 DUP1 DUP3 GT ISZERO PUSH2 0x1076 JUMPI PUSH2 0x1076 PUSH2 0x1678 JUMP JUMPDEST PUSH4 0x4E487B71 PUSH1 0xE0 SHL PUSH1 0x0 MSTORE PUSH1 0x21 PUSH1 0x4 MSTORE PUSH1 0x24 PUSH1 0x0 REVERT JUMPDEST PUSH4 0x4E487B71 PUSH1 0xE0 SHL PUSH1 0x0 MSTORE PUSH1 0x41 PUSH1 0x4 MSTORE PUSH1 0x24 PUSH1 0x0 REVERT JUMPDEST PUSH1 0x1F DUP3 GT ISZERO PUSH2 0xFE4 JUMPI PUSH1 0x0 DUP2 DUP2 MSTORE PUSH1 0x20 DUP2 KECCAK256 PUSH1 0x1F DUP6 ADD PUSH1 0x5 SHR DUP2 ADD PUSH1 0x20 DUP7 LT ISZERO PUSH2 0x1701 JUMPI POP DUP1 JUMPDEST PUSH1 0x1F DUP6 ADD PUSH1 0x5 SHR DUP3 ADD SWAP2 POP JUMPDEST DUP2 DUP2 LT ISZERO PUSH2 0x1720 JUMPI DUP3 DUP2 SSTORE PUSH1 0x1 ADD PUSH2 0x170D JUMP JUMPDEST POP POP POP POP POP POP JUMP JUMPDEST DUP2 MLOAD PUSH1 0x1 PUSH1 0x1 PUSH1 0x40 SHL SUB DUP2 GT ISZERO PUSH2 0x1741 JUMPI PUSH2 0x1741 PUSH2 0x16C4 JUMP JUMPDEST PUSH2 0x1755 DUP2 PUSH2 0x174F DUP5 SLOAD PUSH2 0x15C8 JUMP JUMPDEST DUP5 PUSH2 0x16DA JUMP JUMPDEST PUSH1 0x20 DUP1 PUSH1 0x1F DUP4 GT PUSH1 0x1 DUP2 EQ PUSH2 0x178A JUMPI PUSH1 0x0 DUP5 ISZERO PUSH2 0x1772 JUMPI POP DUP6 DUP4 ADD MLOAD JUMPDEST PUSH1 0x0 NOT PUSH1 0x3 DUP7 SWAP1 SHL SHR NOT AND PUSH1 0x1 DUP6 SWAP1 SHL OR DUP6 SSTORE PUSH2 0x1720 JUMP JUMPDEST PUSH1 0x0 DUP6 DUP2 MSTORE PUSH1 0x20 DUP2 KECCAK256 PUSH1 0x1F NOT DUP7 AND SWAP2 JUMPDEST DUP3 DUP2 LT ISZERO PUSH2 0x17B9 JUMPI DUP9 DUP7 ADD MLOAD DUP3 SSTORE SWAP5 DUP5 ADD SWAP5 PUSH1 0x1 SWAP1 SWAP2 ADD SWAP1 DUP5 ADD PUSH2 0x179A JUMP JUMPDEST POP DUP6 DUP3 LT ISZERO PUSH2 0x17D7 JUMPI DUP8 DUP6 ADD MLOAD PUSH1 0x0 NOT PUSH1 0x3 DUP9 SWAP1 SHL PUSH1 0xF8 AND SHR NOT AND DUP2 SSTORE JUMPDEST POP POP POP POP POP PUSH1 0x1 SWAP1 DUP2 SHL ADD SWAP1 SSTORE POP JUMP JUMPDEST PUSH1 0x40 MLOAD PUSH1 0x60 DUP2 ADD PUSH1 0x1 PUSH1 0x1 PUSH1 0x40 SHL SUB DUP2 GT DUP3 DUP3 LT OR ISZERO PUSH2 0x1809 JUMPI PUSH2 0x1809 PUSH2 0x16C4 JUMP JUMPDEST PUSH1 0x40 MSTORE SWAP1 JUMP JUMPDEST PUSH1 0x40 DUP1 MLOAD SWAP1 DUP2 ADD PUSH1 0x1 PUSH1 0x1 PUSH1 0x40 SHL SUB DUP2 GT DUP3 DUP3 LT OR ISZERO PUSH2 0x1809 JUMPI PUSH2 0x1809 PUSH2 0x16C4 JUMP JUMPDEST PUSH1 0x40 MLOAD PUSH1 0x1F DUP3 ADD PUSH1 0x1F NOT AND DUP2 ADD PUSH1 0x1 PUSH1 0x1 PUSH1 0x40 SHL SUB DUP2 GT DUP3 DUP3 LT OR ISZERO PUSH2 0x1859 JUMPI PUSH2 0x1859 PUSH2 0x16C4 JUMP JUMPDEST PUSH1 0x40 MSTORE SWAP2 SWAP1 POP JUMP JUMPDEST PUSH1 0x0 PUSH1 0x1 PUSH1 0x1 PUSH1 0x40 SHL SUB DUP3 GT ISZERO PUSH2 0x187A JUMPI PUSH2 0x187A PUSH2 0x16C4 JUMP JUMPDEST POP PUSH1 0x5 SHL PUSH1 0x20 ADD SWAP1 JUMP JUMPDEST PUSH1 0x0 PUSH1 0x20 DUP1 DUP4 DUP6 SUB SLT ISZERO PUSH2 0x1897 JUMPI PUSH1 0x0 DUP1 REVERT JUMPDEST DUP3 MLOAD PUSH1 0x1 PUSH1 0x1 PUSH1 0x40 SHL SUB DUP2 GT ISZERO PUSH2 0x18AD JUMPI PUSH1 0x0 DUP1 REVERT JUMPDEST DUP4 ADD PUSH1 0x1F DUP2 ADD DUP6 SGT PUSH2 0x18BE JUMPI PUSH1 0x0 DUP1 REVERT JUMPDEST DUP1 MLOAD PUSH2 0x18D1 PUSH2 0x18CC DUP3 PUSH2 0x1861 JUMP JUMPDEST PUSH2 0x1831 JUMP JUMPDEST DUP2 DUP2 MSTORE PUSH1 0x60 SWAP2 DUP3 MUL DUP4 ADD DUP5 ADD SWAP2 DUP5 DUP3 ADD SWAP2 SWAP1 DUP9 DUP5 GT ISZERO PUSH2 0x18F0 JUMPI PUSH1 0x0 DUP1 REVERT JUMPDEST SWAP4 DUP6 ADD SWAP4 JUMPDEST DUP4 DUP6 LT ISZERO PUSH2 0x1943 JUMPI DUP1 DUP6 DUP11 SUB SLT ISZERO PUSH2 0x190D JUMPI PUSH1 0x0 DUP1 DUP2 REVERT JUMPDEST PUSH2 0x1915 PUSH2 0x17E7 JUMP JUMPDEST DUP6 MLOAD PUSH2 0x1920 DUP2 PUSH2 0x14FF JUMP JUMPDEST DUP2 MSTORE DUP6 DUP8 ADD MLOAD DUP8 DUP3 ADD MSTORE PUSH1 0x40 DUP1 DUP8 ADD MLOAD SWAP1 DUP3 ADD MSTORE DUP4 MSTORE SWAP4 DUP5 ADD SWAP4 SWAP2 DUP6 ADD SWAP2 PUSH2 0x18F5 JUMP JUMPDEST POP SWAP8 SWAP7 POP POP POP POP POP POP POP JUMP JUMPDEST PUSH1 0x0 PUSH4 0xFFFFFFFF DUP1 DUP4 AND DUP2 DUP2 SUB PUSH2 0x1968 JUMPI PUSH2 0x1968 PUSH2 0x1678 JUMP JUMPDEST PUSH1 0x1 ADD SWAP4 SWAP3 POP POP POP JUMP JUMPDEST PUSH1 0x0 JUMPDEST DUP4 DUP2 LT ISZERO PUSH2 0x198D JUMPI DUP2 DUP2 ADD MLOAD DUP4 DUP3 ADD MSTORE PUSH1 0x20 ADD PUSH2 0x1975 JUMP JUMPDEST POP POP PUSH1 0x0 SWAP2 ADD MSTORE JUMP JUMPDEST PUSH1 0x0 DUP2 MLOAD DUP1 DUP5 MSTORE PUSH2 0x19AE DUP2 PUSH1 0x20 DUP7 ADD PUSH1 0x20 DUP7 ADD PUSH2 0x1972 JUMP JUMPDEST PUSH1 0x1F ADD PUSH1 0x1F NOT AND SWAP3 SWAP1 SWAP3 ADD PUSH1 0x20 ADD SWAP3 SWAP2 POP POP JUMP JUMPDEST PUSH4 0xFFFFFFFF DUP4 AND DUP2 MSTORE PUSH1 0x40 PUSH1 0x20 DUP3 ADD MSTORE PUSH1 0x0 PUSH2 0xAE4 PUSH1 0x40 DUP4 ADD DUP5 PUSH2 0x1996 JUMP JUMPDEST PUSH4 0xFFFFFFFF DUP5 AND DUP2 MSTORE PUSH1 0x0 PUSH1 0x20 PUSH1 0x1 DUP1 PUSH1 0xA0 SHL SUB DUP6 AND DUP2 DUP5 ADD MSTORE PUSH1 0x60 PUSH1 0x40 DUP5 ADD MSTORE PUSH1 0x0 DUP5 SLOAD PUSH2 0x1A0F DUP2 PUSH2 0x15C8 JUMP JUMPDEST DUP1 PUSH1 0x60 DUP8 ADD MSTORE PUSH1 0x80 PUSH1 0x1 DUP1 DUP5 AND PUSH1 0x0 DUP2 EQ PUSH2 0x1A31 JUMPI PUSH1 0x1 DUP2 EQ PUSH2 0x1A4B JUMPI PUSH2 0x1A79 JUMP JUMPDEST PUSH1 0xFF NOT DUP6 AND DUP10 DUP5 ADD MSTORE DUP4 ISZERO ISZERO PUSH1 0x5 SHL DUP10 ADD DUP4 ADD SWAP6 POP PUSH2 0x1A79 JUMP JUMPDEST DUP10 PUSH1 0x0 MSTORE DUP7 PUSH1 0x0 KECCAK256 PUSH1 0x0 JUMPDEST DUP6 DUP2 LT ISZERO PUSH2 0x1A71 JUMPI DUP2 SLOAD DUP12 DUP3 ADD DUP7 ADD MSTORE SWAP1 DUP4 ADD SWAP1 DUP9 ADD PUSH2 0x1A56 JUMP JUMPDEST DUP11 ADD DUP5 ADD SWAP7 POP POP JUMPDEST POP SWAP4 SWAP11 SWAP10 POP POP POP POP POP POP POP POP POP POP JUMP JUMPDEST DUP2 DUP2 SUB DUP2 DUP2 GT ISZERO PUSH2 0x10C4 JUMPI PUSH2 0x10C4 PUSH2 0x1678 JUMP JUMPDEST PUSH1 0x0 PUSH1 0x1 DUP3 ADD PUSH2 0x1AAE JUMPI PUSH2 0x1AAE PUSH2 0x1678 JUMP JUMPDEST POP PUSH1 0x1 ADD SWAP1 JUMP JUMPDEST PUSH1 0x0 PUSH1 0x20 DUP1 DUP4 DUP6 SUB SLT ISZERO PUSH2 0x1AC8 JUMPI PUSH1 0x0 DUP1 REVERT JUMPDEST DUP3 MLOAD PUSH1 0x1 PUSH1 0x1 PUSH1 0x40 SHL SUB DUP2 GT ISZERO PUSH2 0x1ADE JUMPI PUSH1 0x0 DUP1 REVERT JUMPDEST DUP4 ADD PUSH1 0x1F DUP2 ADD DUP6 SGT PUSH2 0x1AEF JUMPI PUSH1 0x0 DUP1 REVERT JUMPDEST DUP1 MLOAD PUSH2 0x1AFD PUSH2 0x18CC DUP3 PUSH2 0x1861 JUMP JUMPDEST DUP2 DUP2 MSTORE PUSH1 0x6 SWAP2 SWAP1 SWAP2 SHL DUP3 ADD DUP4 ADD SWAP1 DUP4 DUP2 ADD SWAP1 DUP8 DUP4 GT ISZERO PUSH2 0x1B1C JUMPI PUSH1 0x0 DUP1 REVERT JUMPDEST SWAP3 DUP5 ADD SWAP3 JUMPDEST DUP3 DUP5 LT ISZERO PUSH2 0x1305 JUMPI PUSH1 0x40 DUP5 DUP10 SUB SLT ISZERO PUSH2 0x1B3A JUMPI PUSH1 0x0 DUP1 DUP2 REVERT JUMPDEST PUSH2 0x1B42 PUSH2 0x180F JUMP JUMPDEST DUP5 MLOAD PUSH2 0x1B4D DUP2 PUSH2 0x14FF JUMP JUMPDEST DUP2 MSTORE DUP5 DUP7 ADD MLOAD DUP7 DUP3 ADD MSTORE DUP3 MSTORE PUSH1 0x40 SWAP1 SWAP4 ADD SWAP3 SWAP1 DUP5 ADD SWAP1 PUSH2 0x1B21 JUMP JUMPDEST PUSH4 0x4E487B71 PUSH1 0xE0 SHL PUSH1 0x0 MSTORE PUSH1 0x32 PUSH1 0x4 MSTORE PUSH1 0x24 PUSH1 0x0 REVERT JUMPDEST DUP1 DUP3 ADD DUP1 DUP3 GT ISZERO PUSH2 0x10C4 JUMPI PUSH2 0x10C4 PUSH2 0x1678 JUMP JUMPDEST PUSH1 0x0 PUSH1 0x40 DUP1 DUP4 ADD PUSH3 0xFFFFFF DUP7 AND DUP5 MSTORE PUSH1 0x20 DUP3 DUP2 DUP7 ADD MSTORE DUP2 DUP7 MLOAD DUP1 DUP5 MSTORE PUSH1 0x60 DUP8 ADD SWAP2 POP DUP3 DUP9 ADD SWAP4 POP PUSH1 0x0 JUMPDEST DUP2 DUP2 LT ISZERO PUSH2 0x1BE9 JUMPI DUP5 MLOAD DUP1 MLOAD PUSH1 0x1 PUSH1 0x1 PUSH1 0xA0 SHL SUB AND DUP5 MSTORE DUP5 ADD MLOAD DUP5 DUP5 ADD MSTORE SWAP4 DUP4 ADD SWAP4 SWAP2 DUP6 ADD SWAP2 PUSH1 0x1 ADD PUSH2 0x1BBB JUMP JUMPDEST POP SWAP1 SWAP9 SWAP8 POP POP POP POP POP POP POP POP JUMP JUMPDEST PUSH1 0x0 PUSH1 0x20 DUP3 DUP5 SUB SLT ISZERO PUSH2 0x1C09 JUMPI PUSH1 0x0 DUP1 REVERT JUMPDEST DUP2 MLOAD PUSH2 0x1534 DUP2 PUSH2 0x14FF JUMP JUMPDEST DUP1 DUP3 MUL DUP2 ISZERO DUP3 DUP3 DIV DUP5 EQ OR PUSH2 0x10C4 JUMPI PUSH2 0x10C4 PUSH2 0x1678 JUMP JUMPDEST PUSH1 0x0 DUP3 PUSH2 0x1C48 JUMPI PUSH4 0x4E487B71 PUSH1 0xE0 SHL PUSH1 0x0 MSTORE PUSH1 0x12 PUSH1 0x4 MSTORE PUSH1 0x24 PUSH1 0x0 REVERT JUMPDEST POP DIV SWAP1 JUMP JUMPDEST PUSH1 0x0 DUP3 MLOAD PUSH2 0x1C5F DUP2 DUP5 PUSH1 0x20 DUP8 ADD PUSH2 0x1972 JUMP JUMPDEST SWAP2 SWAP1 SWAP2 ADD SWAP3 SWAP2 POP POP JUMP JUMPDEST PUSH1 0x20 DUP2 MSTORE PUSH1 0x0 PUSH2 0x10C1 PUSH1 0x20 DUP4 ADD DUP5 PUSH2 0x1996 JUMP INVALID LOG2 PUSH5 0x6970667358 0x22 SLT KECCAK256 0xD3 0x24 LOG0 SWAP13 TIMESTAMP 0xA9 0xB3 CALLDATASIZE 0x1E 0x4D SGT LOG3 0xC 0xC0 DUP14 0x5D 0x1F PUSH25 0xA1ED061CF5D032DD20CB7B0359B64736F6C63430008110033 ","sha1":"bfbe3e0f4adf1eea8b683c38a2ee2abc8e5e7fa5","source":"// SPDX-License-Identifier: GPL-3.0-or-later\npragma solidity ^0.8.17;\n\nimport \"./access/GovernanceOnly.sol\";\nimport \"../libraries/DataTypes.sol\";\nimport \"../libraries/ScaledMath.sol\";\nimport \"../libraries/VaultsSnapshot.sol\";\nimport \"../interfaces/IVotingPowerAggregator.sol\";\nimport \"../interfaces/IGovernanceManager.sol\";\n\nimport \"@openzeppelin/contracts/utils/Address.sol\";\nimport \"@openzeppelin/contracts/utils/structs/EnumerableMap.sol\";\n\ncontract EmergencyRecovery is GovernanceOnly {\n    using Address for address;\n    using ScaledMath for uint256;\n    using EnumerableMap for EnumerableMap.AddressToUintMap;\n    using VaultsSnapshot for DataTypes.VaultSnapshot[];\n\n    address public immutable safeAddress;\n    address public immutable proxyAdmin;\n    uint64 public sunsetAt;\n    uint256 public vetoThreshold;\n    uint64 public timelockDuration;\n\n    string private UPGRADE_TO_SIG = \"upgrade(address,address)\";\n\n    mapping(uint32 => DataTypes.EmergencyRecoveryProposal) private proposals;\n\n    mapping(uint32 => mapping(address => EnumerableMap.AddressToUintMap))\n        private vetos;\n    mapping(uint32 => DataTypes.VaultSnapshot[]) internal _vaultSnapshots;\n\n    uint32 private currentProposalCount;\n\n    constructor(\n        address _governance,\n        address _proxyAdmin,\n        address _safeAddress,\n        uint64 _sunsetAt,\n        uint256 _vetoThreshold,\n        uint64 _timelockDuration\n    ) GovernanceOnly(_governance) {\n        safeAddress = _safeAddress;\n        sunsetAt = _sunsetAt;\n        vetoThreshold = _vetoThreshold;\n        timelockDuration = _timelockDuration;\n        proxyAdmin = _proxyAdmin;\n    }\n\n    modifier onlyFromSafe() {\n        if (msg.sender != safeAddress)\n            revert Errors.NotAuthorized(msg.sender, safeAddress);\n        _;\n    }\n\n    modifier notSunset() {\n        require(\n            sunsetAt > uint64(block.timestamp),\n            \"emergency recovery is sunset\"\n        );\n        _;\n    }\n\n    event UpgradeProposed(uint32 proposalId, bytes payload);\n\n    function startGovernanceUpgrade(\n        address newUnderlying\n    ) external onlyFromSafe notSunset returns (uint32) {\n        bytes memory payload = abi.encodeWithSignature(\n            UPGRADE_TO_SIG,\n            governance,\n            newUnderlying\n        );\n\n        uint32 propId = currentProposalCount;\n        proposals[propId].createdAt = uint64(block.timestamp);\n        proposals[propId].completesAt =\n            uint64(block.timestamp) +\n            timelockDuration;\n        proposals[propId].status = DataTypes.Status.Queued;\n        proposals[propId].payload = payload;\n        _votingPowerAggregator().createVaultsSnapshot().persist(\n            _vaultSnapshots[propId]\n        );\n        currentProposalCount++;\n\n        emit UpgradeProposed(propId, payload);\n        return propId;\n    }\n\n    event UpgradeExecuted(uint32 proposalId, address governance, bytes payload);\n    event UpgradeVetoed(uint32 proposalId);\n\n    function completeGovernanceUpgrade(uint32 proposalId) external {\n        DataTypes.EmergencyRecoveryProposal storage prop = proposals[\n            proposalId\n        ];\n        require(prop.completesAt > 0, \"proposal does not exist\");\n        require(\n            prop.completesAt < uint64(block.timestamp),\n            \"proposal is still timelocked\"\n        );\n        require(\n            prop.status == DataTypes.Status.Queued,\n            \"proposal must be queued\"\n        );\n\n        DataTypes.VaultSnapshot[] memory snapshot = _vaultSnapshots[proposalId];\n        // the following line should never revert unless there is a bug elsewhere in the code\n        // but the operation is critical, so we add it for safety\n        require(snapshot.length > 0, \"no snapshot found\");\n        uint256 vetoedPct = snapshot.getBallotPercentage(prop.vetos);\n        bool isVetoed = vetoedPct > vetoThreshold;\n        if (isVetoed) {\n            prop.status = DataTypes.Status.Rejected;\n            emit UpgradeVetoed(proposalId);\n            return;\n        }\n\n        proxyAdmin.functionCall(prop.payload);\n        prop.status = DataTypes.Status.Executed;\n\n        emit UpgradeExecuted(proposalId, governance, prop.payload);\n    }\n\n    event VetoCast(\n        uint24 proposalId,\n        DataTypes.VaultVotingPower[] castVetoPower\n    );\n\n    function veto(uint24 proposalId) external {\n        DataTypes.EmergencyRecoveryProposal storage prop = proposals[\n            proposalId\n        ];\n        require(prop.completesAt > 0, \"proposal does not exist\");\n        require(\n            prop.completesAt > uint64(block.timestamp),\n            \"proposal is out of timelock\"\n        );\n\n        // Zero out the effect of previous vetos to avoid double-counting;\n        EnumerableMap.AddressToUintMap storage currentVetoPower = vetos[\n            proposalId\n        ][msg.sender];\n        for (uint256 i = 0; i < prop.vetos.length(); i++) {\n            (address vault, uint256 vaultVetoPower) = prop.vetos.at(i);\n            (, uint256 votingPower) = currentVetoPower.tryGet(vault);\n            prop.vetos.set(vault, vaultVetoPower - votingPower);\n        }\n\n        DataTypes.VaultVotingPower[]\n            memory newVetoPower = _votingPowerAggregator().getVotingPower(\n                msg.sender,\n                prop.createdAt\n            );\n        for (uint256 i = 0; i < newVetoPower.length; i++) {\n            DataTypes.VaultVotingPower memory vault = newVetoPower[i];\n            (, uint256 currentVetoTotal) = prop.vetos.tryGet(\n                vault.vaultAddress\n            );\n            uint256 newVetoTotal = currentVetoTotal + vault.votingPower;\n            prop.vetos.set(vault.vaultAddress, newVetoTotal);\n            vetos[proposalId][msg.sender].set(vault.vaultAddress, newVetoTotal);\n        }\n        emit VetoCast(\n            proposalId,\n            _toVotingPowers(vetos[proposalId][msg.sender])\n        );\n    }\n\n    function _toVotingPowers(\n        EnumerableMap.AddressToUintMap storage map\n    ) internal view returns (DataTypes.VaultVotingPower[] memory) {\n        DataTypes.VaultVotingPower[]\n            memory vvps = new DataTypes.VaultVotingPower[](map.length());\n        for (uint256 i = 0; i < map.length(); i++) {\n            (address key, uint256 value) = map.at(i);\n            vvps[i] = DataTypes.VaultVotingPower({\n                vaultAddress: key,\n                votingPower: value\n            });\n        }\n\n        return vvps;\n    }\n\n    function setSunsetAt(uint64 _sunsetAt) external governanceOnly {\n        sunsetAt = _sunsetAt;\n    }\n\n    function setVetoThreshold(uint256 _vetoThreshold) external governanceOnly {\n        vetoThreshold = _vetoThreshold;\n    }\n\n    function setTimelockDuration(\n        uint64 _timelockDuration\n    ) external governanceOnly {\n        timelockDuration = _timelockDuration;\n    }\n\n    function getVetoPercentage(\n        uint32 proposalId\n    ) external view returns (uint256) {\n        DataTypes.EmergencyRecoveryProposal storage prop = proposals[\n            proposalId\n        ];\n        DataTypes.VaultSnapshot[] memory snapshot = _vaultSnapshots[proposalId];\n        return snapshot.getBallotPercentage(prop.vetos);\n    }\n\n    function _votingPowerAggregator()\n        internal\n        returns (IVotingPowerAggregator)\n    {\n        return IGovernanceManager(governance).votingPowerAggregator();\n    }\n}\n","sourcePath":"contracts/EmergencyRecovery.sol","type":"contract","deployment":{"address":"0x70d3ec9fF6CB962246072FA9d18153FDF6f1215d","chainid":"1","blockHeight":18714660}}