{"abi":[{"inputs":[{"internalType":"address","name":"_owner","type":"address"},{"internalType":"address","name":"_underlyingAddress","type":"address"}],"stateMutability":"nonpayable","type":"constructor","name":"constructor"},{"inputs":[{"internalType":"address","name":"actual","type":"address"},{"internalType":"address","name":"expected","type":"address"}],"name":"NotAuthorized","type":"error"},{"anonymous":false,"inputs":[{"indexed":false,"internalType":"address","name":"delegator","type":"address"},{"indexed":false,"internalType":"address","name":"delegate","type":"address"},{"indexed":false,"internalType":"uint256","name":"amount","type":"uint256"}],"name":"VotesDelegated","type":"event"},{"anonymous":false,"inputs":[{"indexed":false,"internalType":"address","name":"delegator","type":"address"},{"indexed":false,"internalType":"address","name":"delegate","type":"address"},{"indexed":false,"internalType":"uint256","name":"amount","type":"uint256"}],"name":"VotesUndelegated","type":"event"},{"inputs":[{"internalType":"address","name":"_oldDelegate","type":"address"},{"internalType":"address","name":"_newDelegate","type":"address"},{"internalType":"uint256","name":"_amount","type":"uint256"}],"name":"changeDelegate","outputs":[],"stateMutability":"nonpayable","type":"function"},{"inputs":[{"internalType":"address","name":"_delegate","type":"address"},{"internalType":"uint256","name":"_amount","type":"uint256"}],"name":"delegateVote","outputs":[],"stateMutability":"nonpayable","type":"function"},{"inputs":[{"internalType":"address","name":"account","type":"address"}],"name":"getCurrentRecord","outputs":[{"components":[{"internalType":"uint256","name":"at","type":"uint256"},{"internalType":"uint256","name":"baseVotingPower","type":"uint256"},{"internalType":"uint256","name":"multiplier","type":"uint256"},{"internalType":"int256","name":"netDelegatedVotes","type":"int256"}],"internalType":"struct VotingPowerHistory.Record","name":"","type":"tuple"}],"stateMutability":"view","type":"function"},{"inputs":[{"internalType":"address","name":"account","type":"address"}],"name":"getDelegations","outputs":[{"components":[{"internalType":"address","name":"delegate","type":"address"},{"internalType":"uint256","name":"amount","type":"uint256"}],"internalType":"struct DataTypes.Delegation[]","name":"delegations","type":"tuple[]"}],"stateMutability":"view","type":"function"},{"inputs":[{"internalType":"address","name":"account","type":"address"}],"name":"getRawVotingPower","outputs":[{"internalType":"uint256","name":"","type":"uint256"}],"stateMutability":"view","type":"function"},{"inputs":[{"internalType":"address","name":"user","type":"address"},{"internalType":"uint256","name":"timestamp","type":"uint256"}],"name":"getRawVotingPower","outputs":[{"internalType":"uint256","name":"","type":"uint256"}],"stateMutability":"view","type":"function"},{"inputs":[],"name":"getTotalRawVotingPower","outputs":[{"internalType":"uint256","name":"","type":"uint256"}],"stateMutability":"view","type":"function"},{"inputs":[],"name":"getVaultType","outputs":[{"internalType":"string","name":"","type":"string"}],"stateMutability":"pure","type":"function"},{"inputs":[],"name":"owner","outputs":[{"internalType":"address","name":"","type":"address"}],"stateMutability":"view","type":"function"},{"inputs":[{"internalType":"address","name":"_delegate","type":"address"},{"internalType":"uint256","name":"_amount","type":"uint256"}],"name":"undelegateVote","outputs":[],"stateMutability":"nonpayable","type":"function"},{"inputs":[{"internalType":"address","name":"_user","type":"address"},{"internalType":"address","name":"_delegate","type":"address"},{"internalType":"uint128","name":"_addedCount","type":"uint128"}],"name":"updateBaseVotingPower","outputs":[],"stateMutability":"nonpayable","type":"function"},{"inputs":[{"internalType":"address[]","name":"users","type":"address[]"},{"internalType":"uint128","name":"_multiplier","type":"uint128"}],"name":"updateMultiplier","outputs":[],"stateMutability":"nonpayable","type":"function"}],"bytecode":"60c06040523480156200001157600080fd5b5060405162001a2338038062001a238339810160408190526200003491620000d4565b6001600160a01b03808316608052811660a0819052604080516318160ddd60e01b815290516318160ddd916004808201926020929091908290030181865afa15801562000085573d6000803e3d6000fd5b505050506040513d601f19601f82011682018060405250810190620000ab91906200010c565b60055550620001269050565b80516001600160a01b0381168114620000cf57600080fd5b919050565b60008060408385031215620000e857600080fd5b620000f383620000b7565b91506200010360208401620000b7565b90509250929050565b6000602082840312156200011f57600080fd5b5051919050565b60805160a0516118c96200015a600039600061023a0152600081816101960152818161046c01526104ae01526118c96000f3fe608060405234801561001057600080fd5b50600436106100b45760003560e01c80638da5cb5b116100715780638da5cb5b14610191578063926f7327146101d05780639f1acf08146101e3578063cead0481146101f6578063de1ec40314610209578063e2fcf5501461021c57600080fd5b806303d6a387146100b957806319ad0eba146100ce57806331cc13ba1461011d578063344ff1d01461013d57806371fbcca51461014f57806375baf37f14610162575b600080fd5b6100cc6100c7366004611596565b61022f565b005b6100e16100dc3660046115d9565b61032a565b60405161011491908151815260208083015190820152604080830151908201526060918201519181019190915260800190565b60405180910390f35b61013061012b3660046115d9565b610366565b60405161011491906115f4565b6005545b604051908152602001610114565b6100cc61015d36600461164c565b610461565b604080518082018252600d81526c10dbdd5b98da5b1b1bdc939195609a1b6020820152905161011491906116c7565b6101b87f000000000000000000000000000000000000000000000000000000000000000081565b6040516001600160a01b039091168152602001610114565b6100cc6101de366004611715565b610753565b6101416101f13660046115d9565b610762565b6100cc61020436600461173f565b61076e565b610141610217366004611715565b610789565b6100cc61022a366004611715565b61079d565b336001600160a01b037f0000000000000000000000000000000000000000000000000000000000000000161461026457600080fd5b600061027081856107a8565b9050600061027d826108b6565b905060006102b386856001600160801b0316856020015161029e9190611791565b604086015160608701516000939291906108e2565b9050816102bf826108b6565b6102c991906117a4565b600560008282546102da9190611791565b90915550506001600160a01b038516158015906103095750856001600160a01b0316856001600160a01b031614155b15610322576103228686866001600160801b0316610a26565b505050505050565b6103556040518060800160405280600081526020016000815260200160008152602001600081525090565b6103606000836107a8565b92915050565b6001600160a01b038116600090815260046020526040812060609161038a82610aa1565b90508067ffffffffffffffff8111156103a5576103a56117b7565b6040519080825280602002602001820160405280156103ea57816020015b60408051808201909152600080825260208201528152602001906001900390816103c35790505b50925060005b81811015610459576000806104058584610aac565b915091506040518060400160405280836001600160a01b0316815260200182815250868481518110610439576104396117cd565b602002602001018190525050508080610451906117e3565b9150506103f0565b505050919050565b336001600160a01b037f000000000000000000000000000000000000000000000000000000000000000016146104e05760405163c55ddc9760e01b81523360048201526001600160a01b037f00000000000000000000000000000000000000000000000000000000000000001660248201526044015b60405180910390fd5b670de0b6b3a7640000816001600160801b031610156105415760405162461bcd60e51b815260206004820181905260248201527f6d756c7469706c6965722063616e6e6f74206265206c657373207468616e203160448201526064016104d7565b6801158e460913d00000816001600160801b031611156105ad5760405162461bcd60e51b815260206004820152602160248201527f6d756c7469706c6965722063616e6e6f74206265206d6f7265207468616e20326044820152600360fc1b60648201526084016104d7565b60005b8281101561074d5760006105ec8585848181106105cf576105cf6117cd565b90506020020160208101906105e491906115d9565b6000906107a8565b9050670de0b6b3a7640000816020015110156106555760405162461bcd60e51b815260206004820152602260248201527f616c6c207573657273206d7573742068617665206174206c656173742031204e604482015261119560f21b60648201526084016104d7565b826001600160801b03168160400151106106b15760405162461bcd60e51b815260206004820152601c60248201527f63616e6e6f7420646563726561736520766f74696e6720706f7765720000000060448201526064016104d7565b60006106bc826108b6565b905060006107098787868181106106d5576106d56117cd565b90506020020160208101906106ea91906115d9565b6020850151606086015160009291906001600160801b038a16906108e2565b905081610715826108b6565b61071f91906117a4565b600560008282546107309190611791565b925050819055505050508080610745906117e3565b9150506105b0565b50505050565b61075e338383610a26565b5050565b60006103608242610789565b610779338483610aca565b610784338383610a26565b505050565b6000610796818484610b5e565b9392505050565b61075e338383610aca565b6107d36040518060800160405280600081526020016000815260200160008152602001600081525090565b6001600160a01b03821660009081526020848152604080832080548251818502810185019093528083529192909190849084015b82821015610861578382906000526020600020906004020160405180608001604052908160008201548152602001600182015481526020016002820154815260200160038201548152505081526020019060010190610807565b505050509050805160000361088057610878610c0f565b915050610360565b806001825161088f91906117a4565b8151811061089f5761089f6117cd565b6020026020010151915050610360565b5092915050565b600081606001516108d883604001518460200151610c6b90919063ffffffff16565b61036091906117fc565b61090d6040518060800160405280600081526020016000815260200160008152602001600081525090565b6001600160a01b0385166000908152602087815260408083208151608081018352428152928301889052908201869052606082018590529161094f89896107a8565b8051909150421480156109625750825415155b156109c757825482908490610979906001906117a4565b81548110610989576109896117cd565b906000526020600020906004020160008201518160000155602082015181600101556040820151816002015560608201518160030155905050610a1a565b6001600160a01b038816600090815260208a815260408083208054600181810183559185529383902086516004909502019384559185015191830191909155830151600282015560608301516003909101555b50979650505050505050565b610a336000848484610c8a565b6001600160a01b03831660009081526004602052604081208190610a579085610e75565b91509150600082610a685783610a72565b610a728483611791565b6001600160a01b0387166000908152600460205260409020909150610a98908683610e8d565b50505050505050565b600061036082610eab565b6000808080610abb8686610eb6565b909450925050505b9250929050565b610ad76000848484610ee1565b6001600160a01b0383166000908152600460205260408120610af990846110c4565b9050818103610b2a576001600160a01b0384166000908152600460205260409020610b2490846110d9565b5061074d565b610b5783610b3884846117a4565b6001600160a01b03871660009081526004602052604090209190610e8d565b5050505050565b6001600160a01b03821660009081526020848152604080832080548251818502810185019093528083528493610bfa93929190859084015b82821015610bf0578382906000526020600020906004020160405180608001604052908160008201548152602001600182015481526020016002820154815260200160038201548152505081526020019060010190610b96565b50505050846110ee565b915050610c06816108b6565b95945050505050565b610c3a6040518060800160405280600081526020016000815260200160008152602001600081525090565b60405180608001604052806000815260200160008152602001670de0b6b3a764000081526020016000815250905090565b6000670de0b6b3a7640000610c808385611824565b610796919061183b565b6000610c9685856107a8565b6001600160a01b038516600090815260028701602090815260408083205490840151918401519394509192610cca91610c6b565b610cd491906117a4565b905082811015610d265760405162461bcd60e51b815260206004820181905260248201527f696e73756666696369656e742062616c616e636520746f2064656c656761746560448201526064016104d7565b6001600160a01b038416600090815260038701602052604081208054859290610d50908490611791565b90915550506001600160a01b038516600090815260028701602052604081208054859290610d7f908490611791565b90915550506001600160a01b038086166000908152600188016020908152604080832093881683529290529081208054859290610dbd908490611791565b909155505060208201516040830151610de6918791610ddc8a84611134565b8a939291906108e2565b506000610df387866107a8565b9050610e208582602001518360400151610e16898c61113490919063ffffffff16565b8b939291906108e2565b50604080516001600160a01b038089168252871660208201529081018590527fff825f9424124effc5ce1d9f4803d58ede8a2bda4da2324810f74834715c4c599060600160405180910390a150505050505050565b6000808080610abb866001600160a01b038716611166565b6000610ea3846001600160a01b038516846111a0565b949350505050565b6000610360826111bd565b60008080610ec485856111c7565b600081815260029690960160205260409095205494959350505050565b6001600160a01b038084166000908152600186016020908152604080832093861683529290522054811115610f6a5760405162461bcd60e51b815260206004820152602960248201527f7573657220686173206e6f742064656c65676174656420656e6f75676820746f6044820152682064656c656761746560b81b60648201526084016104d7565b6001600160a01b038216600090815260038501602052604081208054839290610f949084906117a4565b90915550506001600160a01b038316600090815260028501602052604081208054839290610fc39084906117a4565b90915550506001600160a01b0380841660009081526001860160209081526040808320938616835292905290812080548392906110019084906117a4565b909155506000905061101385856107a8565b90506110408482602001518360400151611036888a61113490919063ffffffff16565b89939291906108e2565b50600061104d86856107a8565b90506110708482602001518360400151610ddc888b61113490919063ffffffff16565b50604080516001600160a01b038088168252861660208201529081018490527fde5aa493a93d4351631c1991a0aeecfd52d6b51cf1b61f1a3c48f97e268086539060600160405180910390a1505050505050565b6000610796836001600160a01b0384166111d3565b6000610796836001600160a01b038416611243565b600061111b6040518060800160405280600081526020016000815260200160008152602001600081525090565b611129848460008751611260565b915091509250929050565b6001600160a01b038116600090815260028301602090815260408083205460038601909252822054610796919061185d565b60008181526002830160205260408120548190806111955761118885856113bb565b925060009150610ac39050565b600192509050610ac3565b60008281526002840160205260408120829055610ea384846113c7565b6000610360825490565b600061079683836113d3565b6000818152600283016020526040812054801515806111f757506111f784846113bb565b6107965760405162461bcd60e51b815260206004820152601e60248201527f456e756d657261626c654d61703a206e6f6e6578697374656e74206b6579000060448201526064016104d7565b6000818152600283016020526040812081905561079683836113fd565b600061128d6040518060800160405280600081526020016000815260200160008152602001600081525090565b8284106112a757600061129e610c0f565b915091506113b2565b6112b184846117a4565b6001036112ff5760008685815181106112cc576112cc6117cd565b6020026020010151905085816000015111156112f15760006112ec610c0f565b6112f5565b6001815b92509250506113b2565b6000600261130d8686611791565b611317919061183b565b90506000876113276001846117a4565b81518110611337576113376117cd565b602002602001015190506000888381518110611355576113556117cd565b60200260200101519050878260000151111580156113735750805188105b1561138657506001935091506113b29050565b805188106113a65761139a89898589611260565b945094505050506113b2565b61139a89898986611260565b94509492505050565b60006107968383611409565b60006107968383611421565b60008260000182815481106113ea576113ea6117cd565b9060005260206000200154905092915050565b60006107968383611470565b60008181526001830160205260408120541515610796565b600081815260018301602052604081205461146857508154600181810184556000848152602080822090930184905584548482528286019093526040902091909155610360565b506000610360565b600081815260018301602052604081205480156115595760006114946001836117a4565b85549091506000906114a8906001906117a4565b905081811461150d5760008660000182815481106114c8576114c86117cd565b90600052602060002001549050808760000184815481106114eb576114eb6117cd565b6000918252602080832090910192909255918252600188019052604090208390555b855486908061151e5761151e61187d565b600190038181906000526020600020016000905590558560010160008681526020019081526020016000206000905560019350505050610360565b6000915050610360565b80356001600160a01b038116811461157a57600080fd5b919050565b80356001600160801b038116811461157a57600080fd5b6000806000606084860312156115ab57600080fd5b6115b484611563565b92506115c260208501611563565b91506115d06040850161157f565b90509250925092565b6000602082840312156115eb57600080fd5b61079682611563565b602080825282518282018190526000919060409081850190868401855b8281101561163f57815180516001600160a01b03168552860151868501529284019290850190600101611611565b5091979650505050505050565b60008060006040848603121561166157600080fd5b833567ffffffffffffffff8082111561167957600080fd5b818601915086601f83011261168d57600080fd5b81358181111561169c57600080fd5b8760208260051b85010111156116b157600080fd5b6020928301955093506115d0918601905061157f565b600060208083528351808285015260005b818110156116f4578581018301518582016040015282016116d8565b506000604082860101526040601f19601f8301168501019250505092915050565b6000806040838503121561172857600080fd5b61173183611563565b946020939093013593505050565b60008060006060848603121561175457600080fd5b61175d84611563565b925061176b60208501611563565b9150604084013590509250925092565b634e487b7160e01b600052601160045260246000fd5b808201808211156103605761036061177b565b818103818111156103605761036061177b565b634e487b7160e01b600052604160045260246000fd5b634e487b7160e01b600052603260045260246000fd5b6000600182016117f5576117f561177b565b5060010190565b808201828112600083128015821682158216171561181c5761181c61177b565b505092915050565b80820281158282048414176103605761036061177b565b60008261185857634e487b7160e01b600052601260045260246000fd5b500490565b81810360008312801583831316838312821617156108af576108af61177b565b634e487b7160e01b600052603160045260246000fdfea2646970667358221220941e17499c9fea6540fc4e3f2f469941dcf70ec41fb9ebb9e35c6b9df3f7bdbc64736f6c63430008110033","bytecodeSha1":"a68a17157da75de3fb5a44200387f8f2788c5d7a","compiler":{"evm_version":"istanbul","optimizer":{"enabled":true,"runs":200},"version":"0.8.17+commit.8df45f5f"},"contractName":"CouncillorNFTVault","language":"Solidity","natspec":{"kind":"dev","methods":{},"version":1},"opcodes":"PUSH1 0x80 PUSH1 0x40 MSTORE CALLVALUE DUP1 ISZERO PUSH2 0x10 JUMPI PUSH1 0x0 DUP1 REVERT JUMPDEST POP PUSH1 0x4 CALLDATASIZE LT PUSH2 0xB4 JUMPI PUSH1 0x0 CALLDATALOAD PUSH1 0xE0 SHR DUP1 PUSH4 0x8DA5CB5B GT PUSH2 0x71 JUMPI DUP1 PUSH4 0x8DA5CB5B EQ PUSH2 0x191 JUMPI DUP1 PUSH4 0x926F7327 EQ PUSH2 0x1D0 JUMPI DUP1 PUSH4 0x9F1ACF08 EQ PUSH2 0x1E3 JUMPI DUP1 PUSH4 0xCEAD0481 EQ PUSH2 0x1F6 JUMPI DUP1 PUSH4 0xDE1EC403 EQ PUSH2 0x209 JUMPI DUP1 PUSH4 0xE2FCF550 EQ PUSH2 0x21C JUMPI PUSH1 0x0 DUP1 REVERT JUMPDEST DUP1 PUSH4 0x3D6A387 EQ PUSH2 0xB9 JUMPI DUP1 PUSH4 0x19AD0EBA EQ PUSH2 0xCE JUMPI DUP1 PUSH4 0x31CC13BA EQ PUSH2 0x11D JUMPI DUP1 PUSH4 0x344FF1D0 EQ PUSH2 0x13D JUMPI DUP1 PUSH4 0x71FBCCA5 EQ PUSH2 0x14F JUMPI DUP1 PUSH4 0x75BAF37F EQ PUSH2 0x162 JUMPI JUMPDEST PUSH1 0x0 DUP1 REVERT JUMPDEST PUSH2 0xCC PUSH2 0xC7 CALLDATASIZE PUSH1 0x4 PUSH2 0x1596 JUMP JUMPDEST PUSH2 0x22F JUMP JUMPDEST STOP JUMPDEST PUSH2 0xE1 PUSH2 0xDC CALLDATASIZE PUSH1 0x4 PUSH2 0x15D9 JUMP JUMPDEST PUSH2 0x32A JUMP JUMPDEST PUSH1 0x40 MLOAD PUSH2 0x114 SWAP2 SWAP1 DUP2 MLOAD DUP2 MSTORE PUSH1 0x20 DUP1 DUP4 ADD MLOAD SWAP1 DUP3 ADD MSTORE PUSH1 0x40 DUP1 DUP4 ADD MLOAD SWAP1 DUP3 ADD MSTORE PUSH1 0x60 SWAP2 DUP3 ADD MLOAD SWAP2 DUP2 ADD SWAP2 SWAP1 SWAP2 MSTORE PUSH1 0x80 ADD SWAP1 JUMP JUMPDEST PUSH1 0x40 MLOAD DUP1 SWAP2 SUB SWAP1 RETURN JUMPDEST PUSH2 0x130 PUSH2 0x12B CALLDATASIZE PUSH1 0x4 PUSH2 0x15D9 JUMP JUMPDEST PUSH2 0x366 JUMP JUMPDEST PUSH1 0x40 MLOAD PUSH2 0x114 SWAP2 SWAP1 PUSH2 0x15F4 JUMP JUMPDEST PUSH1 0x5 SLOAD JUMPDEST PUSH1 0x40 MLOAD SWAP1 DUP2 MSTORE PUSH1 0x20 ADD PUSH2 0x114 JUMP JUMPDEST PUSH2 0xCC PUSH2 0x15D CALLDATASIZE PUSH1 0x4 PUSH2 0x164C JUMP JUMPDEST PUSH2 0x461 JUMP JUMPDEST PUSH1 0x40 DUP1 MLOAD DUP1 DUP3 ADD DUP3 MSTORE PUSH1 0xD DUP2 MSTORE PUSH13 0x10DBDD5B98DA5B1B1BDC939195 PUSH1 0x9A SHL PUSH1 0x20 DUP3 ADD MSTORE SWAP1 MLOAD PUSH2 0x114 SWAP2 SWAP1 PUSH2 0x16C7 JUMP JUMPDEST PUSH2 0x1B8 PUSH32 0x0 DUP2 JUMP JUMPDEST PUSH1 0x40 MLOAD PUSH1 0x1 PUSH1 0x1 PUSH1 0xA0 SHL SUB SWAP1 SWAP2 AND DUP2 MSTORE PUSH1 0x20 ADD PUSH2 0x114 JUMP JUMPDEST PUSH2 0xCC PUSH2 0x1DE CALLDATASIZE PUSH1 0x4 PUSH2 0x1715 JUMP JUMPDEST PUSH2 0x753 JUMP JUMPDEST PUSH2 0x141 PUSH2 0x1F1 CALLDATASIZE PUSH1 0x4 PUSH2 0x15D9 JUMP JUMPDEST PUSH2 0x762 JUMP JUMPDEST PUSH2 0xCC PUSH2 0x204 CALLDATASIZE PUSH1 0x4 PUSH2 0x173F JUMP JUMPDEST PUSH2 0x76E JUMP JUMPDEST PUSH2 0x141 PUSH2 0x217 CALLDATASIZE PUSH1 0x4 PUSH2 0x1715 JUMP JUMPDEST PUSH2 0x789 JUMP JUMPDEST PUSH2 0xCC PUSH2 0x22A CALLDATASIZE PUSH1 0x4 PUSH2 0x1715 JUMP JUMPDEST PUSH2 0x79D JUMP JUMPDEST CALLER PUSH1 0x1 PUSH1 0x1 PUSH1 0xA0 SHL SUB PUSH32 0x0 AND EQ PUSH2 0x264 JUMPI PUSH1 0x0 DUP1 REVERT JUMPDEST PUSH1 0x0 PUSH2 0x270 DUP2 DUP6 PUSH2 0x7A8 JUMP JUMPDEST SWAP1 POP PUSH1 0x0 PUSH2 0x27D DUP3 PUSH2 0x8B6 JUMP JUMPDEST SWAP1 POP PUSH1 0x0 PUSH2 0x2B3 DUP7 DUP6 PUSH1 0x1 PUSH1 0x1 PUSH1 0x80 SHL SUB AND DUP6 PUSH1 0x20 ADD MLOAD PUSH2 0x29E SWAP2 SWAP1 PUSH2 0x1791 JUMP JUMPDEST PUSH1 0x40 DUP7 ADD MLOAD PUSH1 0x60 DUP8 ADD MLOAD PUSH1 0x0 SWAP4 SWAP3 SWAP2 SWAP1 PUSH2 0x8E2 JUMP JUMPDEST SWAP1 POP DUP2 PUSH2 0x2BF DUP3 PUSH2 0x8B6 JUMP JUMPDEST PUSH2 0x2C9 SWAP2 SWAP1 PUSH2 0x17A4 JUMP JUMPDEST PUSH1 0x5 PUSH1 0x0 DUP3 DUP3 SLOAD PUSH2 0x2DA SWAP2 SWAP1 PUSH2 0x1791 JUMP JUMPDEST SWAP1 SWAP2 SSTORE POP POP PUSH1 0x1 PUSH1 0x1 PUSH1 0xA0 SHL SUB DUP6 AND ISZERO DUP1 ISZERO SWAP1 PUSH2 0x309 JUMPI POP DUP6 PUSH1 0x1 PUSH1 0x1 PUSH1 0xA0 SHL SUB AND DUP6 PUSH1 0x1 PUSH1 0x1 PUSH1 0xA0 SHL SUB AND EQ ISZERO JUMPDEST ISZERO PUSH2 0x322 JUMPI PUSH2 0x322 DUP7 DUP7 DUP7 PUSH1 0x1 PUSH1 0x1 PUSH1 0x80 SHL SUB AND PUSH2 0xA26 JUMP JUMPDEST POP POP POP POP POP POP JUMP JUMPDEST PUSH2 0x355 PUSH1 0x40 MLOAD DUP1 PUSH1 0x80 ADD PUSH1 0x40 MSTORE DUP1 PUSH1 0x0 DUP2 MSTORE PUSH1 0x20 ADD PUSH1 0x0 DUP2 MSTORE PUSH1 0x20 ADD PUSH1 0x0 DUP2 MSTORE PUSH1 0x20 ADD PUSH1 0x0 DUP2 MSTORE POP SWAP1 JUMP JUMPDEST PUSH2 0x360 PUSH1 0x0 DUP4 PUSH2 0x7A8 JUMP JUMPDEST SWAP3 SWAP2 POP POP JUMP JUMPDEST PUSH1 0x1 PUSH1 0x1 PUSH1 0xA0 SHL SUB DUP2 AND PUSH1 0x0 SWAP1 DUP2 MSTORE PUSH1 0x4 PUSH1 0x20 MSTORE PUSH1 0x40 DUP2 KECCAK256 PUSH1 0x60 SWAP2 PUSH2 0x38A DUP3 PUSH2 0xAA1 JUMP JUMPDEST SWAP1 POP DUP1 PUSH8 0xFFFFFFFFFFFFFFFF DUP2 GT ISZERO PUSH2 0x3A5 JUMPI PUSH2 0x3A5 PUSH2 0x17B7 JUMP JUMPDEST PUSH1 0x40 MLOAD SWAP1 DUP1 DUP3 MSTORE DUP1 PUSH1 0x20 MUL PUSH1 0x20 ADD DUP3 ADD PUSH1 0x40 MSTORE DUP1 ISZERO PUSH2 0x3EA JUMPI DUP2 PUSH1 0x20 ADD JUMPDEST PUSH1 0x40 DUP1 MLOAD DUP1 DUP3 ADD SWAP1 SWAP2 MSTORE PUSH1 0x0 DUP1 DUP3 MSTORE PUSH1 0x20 DUP3 ADD MSTORE DUP2 MSTORE PUSH1 0x20 ADD SWAP1 PUSH1 0x1 SWAP1 SUB SWAP1 DUP2 PUSH2 0x3C3 JUMPI SWAP1 POP JUMPDEST POP SWAP3 POP PUSH1 0x0 JUMPDEST DUP2 DUP2 LT ISZERO PUSH2 0x459 JUMPI PUSH1 0x0 DUP1 PUSH2 0x405 DUP6 DUP5 PUSH2 0xAAC JUMP JUMPDEST SWAP2 POP SWAP2 POP PUSH1 0x40 MLOAD DUP1 PUSH1 0x40 ADD PUSH1 0x40 MSTORE DUP1 DUP4 PUSH1 0x1 PUSH1 0x1 PUSH1 0xA0 SHL SUB AND DUP2 MSTORE PUSH1 0x20 ADD DUP3 DUP2 MSTORE POP DUP7 DUP5 DUP2 MLOAD DUP2 LT PUSH2 0x439 JUMPI PUSH2 0x439 PUSH2 0x17CD JUMP JUMPDEST PUSH1 0x20 MUL PUSH1 0x20 ADD ADD DUP2 SWAP1 MSTORE POP POP POP DUP1 DUP1 PUSH2 0x451 SWAP1 PUSH2 0x17E3 JUMP JUMPDEST SWAP2 POP POP PUSH2 0x3F0 JUMP JUMPDEST POP POP POP SWAP2 SWAP1 POP JUMP JUMPDEST CALLER PUSH1 0x1 PUSH1 0x1 PUSH1 0xA0 SHL SUB PUSH32 0x0 AND EQ PUSH2 0x4E0 JUMPI PUSH1 0x40 MLOAD PUSH4 0xC55DDC97 PUSH1 0xE0 SHL DUP2 MSTORE CALLER PUSH1 0x4 DUP3 ADD MSTORE PUSH1 0x1 PUSH1 0x1 PUSH1 0xA0 SHL SUB PUSH32 0x0 AND PUSH1 0x24 DUP3 ADD MSTORE PUSH1 0x44 ADD JUMPDEST PUSH1 0x40 MLOAD DUP1 SWAP2 SUB SWAP1 REVERT JUMPDEST PUSH8 0xDE0B6B3A7640000 DUP2 PUSH1 0x1 PUSH1 0x1 PUSH1 0x80 SHL SUB AND LT ISZERO PUSH2 0x541 JUMPI PUSH1 0x40 MLOAD PUSH3 0x461BCD PUSH1 0xE5 SHL DUP2 MSTORE PUSH1 0x20 PUSH1 0x4 DUP3 ADD DUP2 SWAP1 MSTORE PUSH1 0x24 DUP3 ADD MSTORE PUSH32 0x6D756C7469706C6965722063616E6E6F74206265206C657373207468616E2031 PUSH1 0x44 DUP3 ADD MSTORE PUSH1 0x64 ADD PUSH2 0x4D7 JUMP JUMPDEST PUSH9 0x1158E460913D00000 DUP2 PUSH1 0x1 PUSH1 0x1 PUSH1 0x80 SHL SUB AND GT ISZERO PUSH2 0x5AD JUMPI PUSH1 0x40 MLOAD PUSH3 0x461BCD PUSH1 0xE5 SHL DUP2 MSTORE PUSH1 0x20 PUSH1 0x4 DUP3 ADD MSTORE PUSH1 0x21 PUSH1 0x24 DUP3 ADD MSTORE PUSH32 0x6D756C7469706C6965722063616E6E6F74206265206D6F7265207468616E2032 PUSH1 0x44 DUP3 ADD MSTORE PUSH1 0x3 PUSH1 0xFC SHL PUSH1 0x64 DUP3 ADD MSTORE PUSH1 0x84 ADD PUSH2 0x4D7 JUMP JUMPDEST PUSH1 0x0 JUMPDEST DUP3 DUP2 LT ISZERO PUSH2 0x74D JUMPI PUSH1 0x0 PUSH2 0x5EC DUP6 DUP6 DUP5 DUP2 DUP2 LT PUSH2 0x5CF JUMPI PUSH2 0x5CF PUSH2 0x17CD JUMP JUMPDEST SWAP1 POP PUSH1 0x20 MUL ADD PUSH1 0x20 DUP2 ADD SWAP1 PUSH2 0x5E4 SWAP2 SWAP1 PUSH2 0x15D9 JUMP JUMPDEST PUSH1 0x0 SWAP1 PUSH2 0x7A8 JUMP JUMPDEST SWAP1 POP PUSH8 0xDE0B6B3A7640000 DUP2 PUSH1 0x20 ADD MLOAD LT ISZERO PUSH2 0x655 JUMPI PUSH1 0x40 MLOAD PUSH3 0x461BCD PUSH1 0xE5 SHL DUP2 MSTORE PUSH1 0x20 PUSH1 0x4 DUP3 ADD MSTORE PUSH1 0x22 PUSH1 0x24 DUP3 ADD MSTORE PUSH32 0x616C6C207573657273206D7573742068617665206174206C656173742031204E PUSH1 0x44 DUP3 ADD MSTORE PUSH2 0x1195 PUSH1 0xF2 SHL PUSH1 0x64 DUP3 ADD MSTORE PUSH1 0x84 ADD PUSH2 0x4D7 JUMP JUMPDEST DUP3 PUSH1 0x1 PUSH1 0x1 PUSH1 0x80 SHL SUB AND DUP2 PUSH1 0x40 ADD MLOAD LT PUSH2 0x6B1 JUMPI PUSH1 0x40 MLOAD PUSH3 0x461BCD PUSH1 0xE5 SHL DUP2 MSTORE PUSH1 0x20 PUSH1 0x4 DUP3 ADD MSTORE PUSH1 0x1C PUSH1 0x24 DUP3 ADD MSTORE PUSH32 0x63616E6E6F7420646563726561736520766F74696E6720706F77657200000000 PUSH1 0x44 DUP3 ADD MSTORE PUSH1 0x64 ADD PUSH2 0x4D7 JUMP JUMPDEST PUSH1 0x0 PUSH2 0x6BC DUP3 PUSH2 0x8B6 JUMP JUMPDEST SWAP1 POP PUSH1 0x0 PUSH2 0x709 DUP8 DUP8 DUP7 DUP2 DUP2 LT PUSH2 0x6D5 JUMPI PUSH2 0x6D5 PUSH2 0x17CD JUMP JUMPDEST SWAP1 POP PUSH1 0x20 MUL ADD PUSH1 0x20 DUP2 ADD SWAP1 PUSH2 0x6EA SWAP2 SWAP1 PUSH2 0x15D9 JUMP JUMPDEST PUSH1 0x20 DUP6 ADD MLOAD PUSH1 0x60 DUP7 ADD MLOAD PUSH1 0x0 SWAP3 SWAP2 SWAP1 PUSH1 0x1 PUSH1 0x1 PUSH1 0x80 SHL SUB DUP11 AND SWAP1 PUSH2 0x8E2 JUMP JUMPDEST SWAP1 POP DUP2 PUSH2 0x715 DUP3 PUSH2 0x8B6 JUMP JUMPDEST PUSH2 0x71F SWAP2 SWAP1 PUSH2 0x17A4 JUMP JUMPDEST PUSH1 0x5 PUSH1 0x0 DUP3 DUP3 SLOAD PUSH2 0x730 SWAP2 SWAP1 PUSH2 0x1791 JUMP JUMPDEST SWAP3 POP POP DUP2 SWAP1 SSTORE POP POP POP POP DUP1 DUP1 PUSH2 0x745 SWAP1 PUSH2 0x17E3 JUMP JUMPDEST SWAP2 POP POP PUSH2 0x5B0 JUMP JUMPDEST POP POP POP POP JUMP JUMPDEST PUSH2 0x75E CALLER DUP4 DUP4 PUSH2 0xA26 JUMP JUMPDEST POP POP JUMP JUMPDEST PUSH1 0x0 PUSH2 0x360 DUP3 TIMESTAMP PUSH2 0x789 JUMP JUMPDEST PUSH2 0x779 CALLER DUP5 DUP4 PUSH2 0xACA JUMP JUMPDEST PUSH2 0x784 CALLER DUP4 DUP4 PUSH2 0xA26 JUMP JUMPDEST POP POP POP JUMP JUMPDEST PUSH1 0x0 PUSH2 0x796 DUP2 DUP5 DUP5 PUSH2 0xB5E JUMP JUMPDEST SWAP4 SWAP3 POP POP POP JUMP JUMPDEST PUSH2 0x75E CALLER DUP4 DUP4 PUSH2 0xACA JUMP JUMPDEST PUSH2 0x7D3 PUSH1 0x40 MLOAD DUP1 PUSH1 0x80 ADD PUSH1 0x40 MSTORE DUP1 PUSH1 0x0 DUP2 MSTORE PUSH1 0x20 ADD PUSH1 0x0 DUP2 MSTORE PUSH1 0x20 ADD PUSH1 0x0 DUP2 MSTORE PUSH1 0x20 ADD PUSH1 0x0 DUP2 MSTORE POP SWAP1 JUMP JUMPDEST PUSH1 0x1 PUSH1 0x1 PUSH1 0xA0 SHL SUB DUP3 AND PUSH1 0x0 SWAP1 DUP2 MSTORE PUSH1 0x20 DUP5 DUP2 MSTORE PUSH1 0x40 DUP1 DUP4 KECCAK256 DUP1 SLOAD DUP3 MLOAD DUP2 DUP6 MUL DUP2 ADD DUP6 ADD SWAP1 SWAP4 MSTORE DUP1 DUP4 MSTORE SWAP2 SWAP3 SWAP1 SWAP2 SWAP1 DUP5 SWAP1 DUP5 ADD JUMPDEST DUP3 DUP3 LT ISZERO PUSH2 0x861 JUMPI DUP4 DUP3 SWAP1 PUSH1 0x0 MSTORE PUSH1 0x20 PUSH1 0x0 KECCAK256 SWAP1 PUSH1 0x4 MUL ADD PUSH1 0x40 MLOAD DUP1 PUSH1 0x80 ADD PUSH1 0x40 MSTORE SWAP1 DUP2 PUSH1 0x0 DUP3 ADD SLOAD DUP2 MSTORE PUSH1 0x20 ADD PUSH1 0x1 DUP3 ADD SLOAD DUP2 MSTORE PUSH1 0x20 ADD PUSH1 0x2 DUP3 ADD SLOAD DUP2 MSTORE PUSH1 0x20 ADD PUSH1 0x3 DUP3 ADD SLOAD DUP2 MSTORE POP POP DUP2 MSTORE PUSH1 0x20 ADD SWAP1 PUSH1 0x1 ADD SWAP1 PUSH2 0x807 JUMP JUMPDEST POP POP POP POP SWAP1 POP DUP1 MLOAD PUSH1 0x0 SUB PUSH2 0x880 JUMPI PUSH2 0x878 PUSH2 0xC0F JUMP JUMPDEST SWAP2 POP POP PUSH2 0x360 JUMP JUMPDEST DUP1 PUSH1 0x1 DUP3 MLOAD PUSH2 0x88F SWAP2 SWAP1 PUSH2 0x17A4 JUMP JUMPDEST DUP2 MLOAD DUP2 LT PUSH2 0x89F JUMPI PUSH2 0x89F PUSH2 0x17CD JUMP JUMPDEST PUSH1 0x20 MUL PUSH1 0x20 ADD ADD MLOAD SWAP2 POP POP PUSH2 0x360 JUMP JUMPDEST POP SWAP3 SWAP2 POP POP JUMP JUMPDEST PUSH1 0x0 DUP2 PUSH1 0x60 ADD MLOAD PUSH2 0x8D8 DUP4 PUSH1 0x40 ADD MLOAD DUP5 PUSH1 0x20 ADD MLOAD PUSH2 0xC6B SWAP1 SWAP2 SWAP1 PUSH4 0xFFFFFFFF AND JUMP JUMPDEST PUSH2 0x360 SWAP2 SWAP1 PUSH2 0x17FC JUMP JUMPDEST PUSH2 0x90D PUSH1 0x40 MLOAD DUP1 PUSH1 0x80 ADD PUSH1 0x40 MSTORE DUP1 PUSH1 0x0 DUP2 MSTORE PUSH1 0x20 ADD PUSH1 0x0 DUP2 MSTORE PUSH1 0x20 ADD PUSH1 0x0 DUP2 MSTORE PUSH1 0x20 ADD PUSH1 0x0 DUP2 MSTORE POP SWAP1 JUMP JUMPDEST PUSH1 0x1 PUSH1 0x1 PUSH1 0xA0 SHL SUB DUP6 AND PUSH1 0x0 SWAP1 DUP2 MSTORE PUSH1 0x20 DUP8 DUP2 MSTORE PUSH1 0x40 DUP1 DUP4 KECCAK256 DUP2 MLOAD PUSH1 0x80 DUP2 ADD DUP4 MSTORE TIMESTAMP DUP2 MSTORE SWAP3 DUP4 ADD DUP9 SWAP1 MSTORE SWAP1 DUP3 ADD DUP7 SWAP1 MSTORE PUSH1 0x60 DUP3 ADD DUP6 SWAP1 MSTORE SWAP2 PUSH2 0x94F DUP10 DUP10 PUSH2 0x7A8 JUMP JUMPDEST DUP1 MLOAD SWAP1 SWAP2 POP TIMESTAMP EQ DUP1 ISZERO PUSH2 0x962 JUMPI POP DUP3 SLOAD ISZERO ISZERO JUMPDEST ISZERO PUSH2 0x9C7 JUMPI DUP3 SLOAD DUP3 SWAP1 DUP5 SWAP1 PUSH2 0x979 SWAP1 PUSH1 0x1 SWAP1 PUSH2 0x17A4 JUMP JUMPDEST DUP2 SLOAD DUP2 LT PUSH2 0x989 JUMPI PUSH2 0x989 PUSH2 0x17CD JUMP JUMPDEST SWAP1 PUSH1 0x0 MSTORE PUSH1 0x20 PUSH1 0x0 KECCAK256 SWAP1 PUSH1 0x4 MUL ADD PUSH1 0x0 DUP3 ADD MLOAD DUP2 PUSH1 0x0 ADD SSTORE PUSH1 0x20 DUP3 ADD MLOAD DUP2 PUSH1 0x1 ADD SSTORE PUSH1 0x40 DUP3 ADD MLOAD DUP2 PUSH1 0x2 ADD SSTORE PUSH1 0x60 DUP3 ADD MLOAD DUP2 PUSH1 0x3 ADD SSTORE SWAP1 POP POP PUSH2 0xA1A JUMP JUMPDEST PUSH1 0x1 PUSH1 0x1 PUSH1 0xA0 SHL SUB DUP9 AND PUSH1 0x0 SWAP1 DUP2 MSTORE PUSH1 0x20 DUP11 DUP2 MSTORE PUSH1 0x40 DUP1 DUP4 KECCAK256 DUP1 SLOAD PUSH1 0x1 DUP2 DUP2 ADD DUP4 SSTORE SWAP2 DUP6 MSTORE SWAP4 DUP4 SWAP1 KECCAK256 DUP7 MLOAD PUSH1 0x4 SWAP1 SWAP6 MUL ADD SWAP4 DUP5 SSTORE SWAP2 DUP6 ADD MLOAD SWAP2 DUP4 ADD SWAP2 SWAP1 SWAP2 SSTORE DUP4 ADD MLOAD PUSH1 0x2 DUP3 ADD SSTORE PUSH1 0x60 DUP4 ADD MLOAD PUSH1 0x3 SWAP1 SWAP2 ADD SSTORE JUMPDEST POP SWAP8 SWAP7 POP POP POP POP POP POP POP JUMP JUMPDEST PUSH2 0xA33 PUSH1 0x0 DUP5 DUP5 DUP5 PUSH2 0xC8A JUMP JUMPDEST PUSH1 0x1 PUSH1 0x1 PUSH1 0xA0 SHL SUB DUP4 AND PUSH1 0x0 SWAP1 DUP2 MSTORE PUSH1 0x4 PUSH1 0x20 MSTORE PUSH1 0x40 DUP2 KECCAK256 DUP2 SWAP1 PUSH2 0xA57 SWAP1 DUP6 PUSH2 0xE75 JUMP JUMPDEST SWAP2 POP SWAP2 POP PUSH1 0x0 DUP3 PUSH2 0xA68 JUMPI DUP4 PUSH2 0xA72 JUMP JUMPDEST PUSH2 0xA72 DUP5 DUP4 PUSH2 0x1791 JUMP JUMPDEST PUSH1 0x1 PUSH1 0x1 PUSH1 0xA0 SHL SUB DUP8 AND PUSH1 0x0 SWAP1 DUP2 MSTORE PUSH1 0x4 PUSH1 0x20 MSTORE PUSH1 0x40 SWAP1 KECCAK256 SWAP1 SWAP2 POP PUSH2 0xA98 SWAP1 DUP7 DUP4 PUSH2 0xE8D JUMP JUMPDEST POP POP POP POP POP POP POP JUMP JUMPDEST PUSH1 0x0 PUSH2 0x360 DUP3 PUSH2 0xEAB JUMP JUMPDEST PUSH1 0x0 DUP1 DUP1 DUP1 PUSH2 0xABB DUP7 DUP7 PUSH2 0xEB6 JUMP JUMPDEST SWAP1 SWAP5 POP SWAP3 POP POP POP JUMPDEST SWAP3 POP SWAP3 SWAP1 POP JUMP JUMPDEST PUSH2 0xAD7 PUSH1 0x0 DUP5 DUP5 DUP5 PUSH2 0xEE1 JUMP JUMPDEST PUSH1 0x1 PUSH1 0x1 PUSH1 0xA0 SHL SUB DUP4 AND PUSH1 0x0 SWAP1 DUP2 MSTORE PUSH1 0x4 PUSH1 0x20 MSTORE PUSH1 0x40 DUP2 KECCAK256 PUSH2 0xAF9 SWAP1 DUP5 PUSH2 0x10C4 JUMP JUMPDEST SWAP1 POP DUP2 DUP2 SUB PUSH2 0xB2A JUMPI PUSH1 0x1 PUSH1 0x1 PUSH1 0xA0 SHL SUB DUP5 AND PUSH1 0x0 SWAP1 DUP2 MSTORE PUSH1 0x4 PUSH1 0x20 MSTORE PUSH1 0x40 SWAP1 KECCAK256 PUSH2 0xB24 SWAP1 DUP5 PUSH2 0x10D9 JUMP JUMPDEST POP PUSH2 0x74D JUMP JUMPDEST PUSH2 0xB57 DUP4 PUSH2 0xB38 DUP5 DUP5 PUSH2 0x17A4 JUMP JUMPDEST PUSH1 0x1 PUSH1 0x1 PUSH1 0xA0 SHL SUB DUP8 AND PUSH1 0x0 SWAP1 DUP2 MSTORE PUSH1 0x4 PUSH1 0x20 MSTORE PUSH1 0x40 SWAP1 KECCAK256 SWAP2 SWAP1 PUSH2 0xE8D JUMP JUMPDEST POP POP POP POP POP JUMP JUMPDEST PUSH1 0x1 PUSH1 0x1 PUSH1 0xA0 SHL SUB DUP3 AND PUSH1 0x0 SWAP1 DUP2 MSTORE PUSH1 0x20 DUP5 DUP2 MSTORE PUSH1 0x40 DUP1 DUP4 KECCAK256 DUP1 SLOAD DUP3 MLOAD DUP2 DUP6 MUL DUP2 ADD DUP6 ADD SWAP1 SWAP4 MSTORE DUP1 DUP4 MSTORE DUP5 SWAP4 PUSH2 0xBFA SWAP4 SWAP3 SWAP2 SWAP1 DUP6 SWAP1 DUP5 ADD JUMPDEST DUP3 DUP3 LT ISZERO PUSH2 0xBF0 JUMPI DUP4 DUP3 SWAP1 PUSH1 0x0 MSTORE PUSH1 0x20 PUSH1 0x0 KECCAK256 SWAP1 PUSH1 0x4 MUL ADD PUSH1 0x40 MLOAD DUP1 PUSH1 0x80 ADD PUSH1 0x40 MSTORE SWAP1 DUP2 PUSH1 0x0 DUP3 ADD SLOAD DUP2 MSTORE PUSH1 0x20 ADD PUSH1 0x1 DUP3 ADD SLOAD DUP2 MSTORE PUSH1 0x20 ADD PUSH1 0x2 DUP3 ADD SLOAD DUP2 MSTORE PUSH1 0x20 ADD PUSH1 0x3 DUP3 ADD SLOAD DUP2 MSTORE POP POP DUP2 MSTORE PUSH1 0x20 ADD SWAP1 PUSH1 0x1 ADD SWAP1 PUSH2 0xB96 JUMP JUMPDEST POP POP POP POP DUP5 PUSH2 0x10EE JUMP JUMPDEST SWAP2 POP POP PUSH2 0xC06 DUP2 PUSH2 0x8B6 JUMP JUMPDEST SWAP6 SWAP5 POP POP POP POP POP JUMP JUMPDEST PUSH2 0xC3A PUSH1 0x40 MLOAD DUP1 PUSH1 0x80 ADD PUSH1 0x40 MSTORE DUP1 PUSH1 0x0 DUP2 MSTORE PUSH1 0x20 ADD PUSH1 0x0 DUP2 MSTORE PUSH1 0x20 ADD PUSH1 0x0 DUP2 MSTORE PUSH1 0x20 ADD PUSH1 0x0 DUP2 MSTORE POP SWAP1 JUMP JUMPDEST PUSH1 0x40 MLOAD DUP1 PUSH1 0x80 ADD PUSH1 0x40 MSTORE DUP1 PUSH1 0x0 DUP2 MSTORE PUSH1 0x20 ADD PUSH1 0x0 DUP2 MSTORE PUSH1 0x20 ADD PUSH8 0xDE0B6B3A7640000 DUP2 MSTORE PUSH1 0x20 ADD PUSH1 0x0 DUP2 MSTORE POP SWAP1 POP SWAP1 JUMP JUMPDEST PUSH1 0x0 PUSH8 0xDE0B6B3A7640000 PUSH2 0xC80 DUP4 DUP6 PUSH2 0x1824 JUMP JUMPDEST PUSH2 0x796 SWAP2 SWAP1 PUSH2 0x183B JUMP JUMPDEST PUSH1 0x0 PUSH2 0xC96 DUP6 DUP6 PUSH2 0x7A8 JUMP JUMPDEST PUSH1 0x1 PUSH1 0x1 PUSH1 0xA0 SHL SUB DUP6 AND PUSH1 0x0 SWAP1 DUP2 MSTORE PUSH1 0x2 DUP8 ADD PUSH1 0x20 SWAP1 DUP2 MSTORE PUSH1 0x40 DUP1 DUP4 KECCAK256 SLOAD SWAP1 DUP5 ADD MLOAD SWAP2 DUP5 ADD MLOAD SWAP4 SWAP5 POP SWAP2 SWAP3 PUSH2 0xCCA SWAP2 PUSH2 0xC6B JUMP JUMPDEST PUSH2 0xCD4 SWAP2 SWAP1 PUSH2 0x17A4 JUMP JUMPDEST SWAP1 POP DUP3 DUP2 LT ISZERO PUSH2 0xD26 JUMPI PUSH1 0x40 MLOAD PUSH3 0x461BCD PUSH1 0xE5 SHL DUP2 MSTORE PUSH1 0x20 PUSH1 0x4 DUP3 ADD DUP2 SWAP1 MSTORE PUSH1 0x24 DUP3 ADD MSTORE PUSH32 0x696E73756666696369656E742062616C616E636520746F2064656C6567617465 PUSH1 0x44 DUP3 ADD MSTORE PUSH1 0x64 ADD PUSH2 0x4D7 JUMP JUMPDEST PUSH1 0x1 PUSH1 0x1 PUSH1 0xA0 SHL SUB DUP5 AND PUSH1 0x0 SWAP1 DUP2 MSTORE PUSH1 0x3 DUP8 ADD PUSH1 0x20 MSTORE PUSH1 0x40 DUP2 KECCAK256 DUP1 SLOAD DUP6 SWAP3 SWAP1 PUSH2 0xD50 SWAP1 DUP5 SWAP1 PUSH2 0x1791 JUMP JUMPDEST SWAP1 SWAP2 SSTORE POP POP PUSH1 0x1 PUSH1 0x1 PUSH1 0xA0 SHL SUB DUP6 AND PUSH1 0x0 SWAP1 DUP2 MSTORE PUSH1 0x2 DUP8 ADD PUSH1 0x20 MSTORE PUSH1 0x40 DUP2 KECCAK256 DUP1 SLOAD DUP6 SWAP3 SWAP1 PUSH2 0xD7F SWAP1 DUP5 SWAP1 PUSH2 0x1791 JUMP JUMPDEST SWAP1 SWAP2 SSTORE POP POP PUSH1 0x1 PUSH1 0x1 PUSH1 0xA0 SHL SUB DUP1 DUP7 AND PUSH1 0x0 SWAP1 DUP2 MSTORE PUSH1 0x1 DUP9 ADD PUSH1 0x20 SWAP1 DUP2 MSTORE PUSH1 0x40 DUP1 DUP4 KECCAK256 SWAP4 DUP9 AND DUP4 MSTORE SWAP3 SWAP1 MSTORE SWAP1 DUP2 KECCAK256 DUP1 SLOAD DUP6 SWAP3 SWAP1 PUSH2 0xDBD SWAP1 DUP5 SWAP1 PUSH2 0x1791 JUMP JUMPDEST SWAP1 SWAP2 SSTORE POP POP PUSH1 0x20 DUP3 ADD MLOAD PUSH1 0x40 DUP4 ADD MLOAD PUSH2 0xDE6 SWAP2 DUP8 SWAP2 PUSH2 0xDDC DUP11 DUP5 PUSH2 0x1134 JUMP JUMPDEST DUP11 SWAP4 SWAP3 SWAP2 SWAP1 PUSH2 0x8E2 JUMP JUMPDEST POP PUSH1 0x0 PUSH2 0xDF3 DUP8 DUP7 PUSH2 0x7A8 JUMP JUMPDEST SWAP1 POP PUSH2 0xE20 DUP6 DUP3 PUSH1 0x20 ADD MLOAD DUP4 PUSH1 0x40 ADD MLOAD PUSH2 0xE16 DUP10 DUP13 PUSH2 0x1134 SWAP1 SWAP2 SWAP1 PUSH4 0xFFFFFFFF AND JUMP JUMPDEST DUP12 SWAP4 SWAP3 SWAP2 SWAP1 PUSH2 0x8E2 JUMP JUMPDEST POP PUSH1 0x40 DUP1 MLOAD PUSH1 0x1 PUSH1 0x1 PUSH1 0xA0 SHL SUB DUP1 DUP10 AND DUP3 MSTORE DUP8 AND PUSH1 0x20 DUP3 ADD MSTORE SWAP1 DUP2 ADD DUP6 SWAP1 MSTORE PUSH32 0xFF825F9424124EFFC5CE1D9F4803D58EDE8A2BDA4DA2324810F74834715C4C59 SWAP1 PUSH1 0x60 ADD PUSH1 0x40 MLOAD DUP1 SWAP2 SUB SWAP1 LOG1 POP POP POP POP POP POP POP JUMP JUMPDEST PUSH1 0x0 DUP1 DUP1 DUP1 PUSH2 0xABB DUP7 PUSH1 0x1 PUSH1 0x1 PUSH1 0xA0 SHL SUB DUP8 AND PUSH2 0x1166 JUMP JUMPDEST PUSH1 0x0 PUSH2 0xEA3 DUP5 PUSH1 0x1 PUSH1 0x1 PUSH1 0xA0 SHL SUB DUP6 AND DUP5 PUSH2 0x11A0 JUMP JUMPDEST SWAP5 SWAP4 POP POP POP POP JUMP JUMPDEST PUSH1 0x0 PUSH2 0x360 DUP3 PUSH2 0x11BD JUMP JUMPDEST PUSH1 0x0 DUP1 DUP1 PUSH2 0xEC4 DUP6 DUP6 PUSH2 0x11C7 JUMP JUMPDEST PUSH1 0x0 DUP2 DUP2 MSTORE PUSH1 0x2 SWAP7 SWAP1 SWAP7 ADD PUSH1 0x20 MSTORE PUSH1 0x40 SWAP1 SWAP6 KECCAK256 SLOAD SWAP5 SWAP6 SWAP4 POP POP POP POP JUMP JUMPDEST PUSH1 0x1 PUSH1 0x1 PUSH1 0xA0 SHL SUB DUP1 DUP5 AND PUSH1 0x0 SWAP1 DUP2 MSTORE PUSH1 0x1 DUP7 ADD PUSH1 0x20 SWAP1 DUP2 MSTORE PUSH1 0x40 DUP1 DUP4 KECCAK256 SWAP4 DUP7 AND DUP4 MSTORE SWAP3 SWAP1 MSTORE KECCAK256 SLOAD DUP2 GT ISZERO PUSH2 0xF6A JUMPI PUSH1 0x40 MLOAD PUSH3 0x461BCD PUSH1 0xE5 SHL DUP2 MSTORE PUSH1 0x20 PUSH1 0x4 DUP3 ADD MSTORE PUSH1 0x29 PUSH1 0x24 DUP3 ADD MSTORE PUSH32 0x7573657220686173206E6F742064656C65676174656420656E6F75676820746F PUSH1 0x44 DUP3 ADD MSTORE PUSH9 0x2064656C6567617465 PUSH1 0xB8 SHL PUSH1 0x64 DUP3 ADD MSTORE PUSH1 0x84 ADD PUSH2 0x4D7 JUMP JUMPDEST PUSH1 0x1 PUSH1 0x1 PUSH1 0xA0 SHL SUB DUP3 AND PUSH1 0x0 SWAP1 DUP2 MSTORE PUSH1 0x3 DUP6 ADD PUSH1 0x20 MSTORE PUSH1 0x40 DUP2 KECCAK256 DUP1 SLOAD DUP4 SWAP3 SWAP1 PUSH2 0xF94 SWAP1 DUP5 SWAP1 PUSH2 0x17A4 JUMP JUMPDEST SWAP1 SWAP2 SSTORE POP POP PUSH1 0x1 PUSH1 0x1 PUSH1 0xA0 SHL SUB DUP4 AND PUSH1 0x0 SWAP1 DUP2 MSTORE PUSH1 0x2 DUP6 ADD PUSH1 0x20 MSTORE PUSH1 0x40 DUP2 KECCAK256 DUP1 SLOAD DUP4 SWAP3 SWAP1 PUSH2 0xFC3 SWAP1 DUP5 SWAP1 PUSH2 0x17A4 JUMP JUMPDEST SWAP1 SWAP2 SSTORE POP POP PUSH1 0x1 PUSH1 0x1 PUSH1 0xA0 SHL SUB DUP1 DUP5 AND PUSH1 0x0 SWAP1 DUP2 MSTORE PUSH1 0x1 DUP7 ADD PUSH1 0x20 SWAP1 DUP2 MSTORE PUSH1 0x40 DUP1 DUP4 KECCAK256 SWAP4 DUP7 AND DUP4 MSTORE SWAP3 SWAP1 MSTORE SWAP1 DUP2 KECCAK256 DUP1 SLOAD DUP4 SWAP3 SWAP1 PUSH2 0x1001 SWAP1 DUP5 SWAP1 PUSH2 0x17A4 JUMP JUMPDEST SWAP1 SWAP2 SSTORE POP PUSH1 0x0 SWAP1 POP PUSH2 0x1013 DUP6 DUP6 PUSH2 0x7A8 JUMP JUMPDEST SWAP1 POP PUSH2 0x1040 DUP5 DUP3 PUSH1 0x20 ADD MLOAD DUP4 PUSH1 0x40 ADD MLOAD PUSH2 0x1036 DUP9 DUP11 PUSH2 0x1134 SWAP1 SWAP2 SWAP1 PUSH4 0xFFFFFFFF AND JUMP JUMPDEST DUP10 SWAP4 SWAP3 SWAP2 SWAP1 PUSH2 0x8E2 JUMP JUMPDEST POP PUSH1 0x0 PUSH2 0x104D DUP7 DUP6 PUSH2 0x7A8 JUMP JUMPDEST SWAP1 POP PUSH2 0x1070 DUP5 DUP3 PUSH1 0x20 ADD MLOAD DUP4 PUSH1 0x40 ADD MLOAD PUSH2 0xDDC DUP9 DUP12 PUSH2 0x1134 SWAP1 SWAP2 SWAP1 PUSH4 0xFFFFFFFF AND JUMP JUMPDEST POP PUSH1 0x40 DUP1 MLOAD PUSH1 0x1 PUSH1 0x1 PUSH1 0xA0 SHL SUB DUP1 DUP9 AND DUP3 MSTORE DUP7 AND PUSH1 0x20 DUP3 ADD MSTORE SWAP1 DUP2 ADD DUP5 SWAP1 MSTORE PUSH32 0xDE5AA493A93D4351631C1991A0AEECFD52D6B51CF1B61F1A3C48F97E26808653 SWAP1 PUSH1 0x60 ADD PUSH1 0x40 MLOAD DUP1 SWAP2 SUB SWAP1 LOG1 POP POP POP POP POP POP JUMP JUMPDEST PUSH1 0x0 PUSH2 0x796 DUP4 PUSH1 0x1 PUSH1 0x1 PUSH1 0xA0 SHL SUB DUP5 AND PUSH2 0x11D3 JUMP JUMPDEST PUSH1 0x0 PUSH2 0x796 DUP4 PUSH1 0x1 PUSH1 0x1 PUSH1 0xA0 SHL SUB DUP5 AND PUSH2 0x1243 JUMP JUMPDEST PUSH1 0x0 PUSH2 0x111B PUSH1 0x40 MLOAD DUP1 PUSH1 0x80 ADD PUSH1 0x40 MSTORE DUP1 PUSH1 0x0 DUP2 MSTORE PUSH1 0x20 ADD PUSH1 0x0 DUP2 MSTORE PUSH1 0x20 ADD PUSH1 0x0 DUP2 MSTORE PUSH1 0x20 ADD PUSH1 0x0 DUP2 MSTORE POP SWAP1 JUMP JUMPDEST PUSH2 0x1129 DUP5 DUP5 PUSH1 0x0 DUP8 MLOAD PUSH2 0x1260 JUMP JUMPDEST SWAP2 POP SWAP2 POP SWAP3 POP SWAP3 SWAP1 POP JUMP JUMPDEST PUSH1 0x1 PUSH1 0x1 PUSH1 0xA0 SHL SUB DUP2 AND PUSH1 0x0 SWAP1 DUP2 MSTORE PUSH1 0x2 DUP4 ADD PUSH1 0x20 SWAP1 DUP2 MSTORE PUSH1 0x40 DUP1 DUP4 KECCAK256 SLOAD PUSH1 0x3 DUP7 ADD SWAP1 SWAP3 MSTORE DUP3 KECCAK256 SLOAD PUSH2 0x796 SWAP2 SWAP1 PUSH2 0x185D JUMP JUMPDEST PUSH1 0x0 DUP2 DUP2 MSTORE PUSH1 0x2 DUP4 ADD PUSH1 0x20 MSTORE PUSH1 0x40 DUP2 KECCAK256 SLOAD DUP2 SWAP1 DUP1 PUSH2 0x1195 JUMPI PUSH2 0x1188 DUP6 DUP6 PUSH2 0x13BB JUMP JUMPDEST SWAP3 POP PUSH1 0x0 SWAP2 POP PUSH2 0xAC3 SWAP1 POP JUMP JUMPDEST PUSH1 0x1 SWAP3 POP SWAP1 POP PUSH2 0xAC3 JUMP JUMPDEST PUSH1 0x0 DUP3 DUP2 MSTORE PUSH1 0x2 DUP5 ADD PUSH1 0x20 MSTORE PUSH1 0x40 DUP2 KECCAK256 DUP3 SWAP1 SSTORE PUSH2 0xEA3 DUP5 DUP5 PUSH2 0x13C7 JUMP JUMPDEST PUSH1 0x0 PUSH2 0x360 DUP3 SLOAD SWAP1 JUMP JUMPDEST PUSH1 0x0 PUSH2 0x796 DUP4 DUP4 PUSH2 0x13D3 JUMP JUMPDEST PUSH1 0x0 DUP2 DUP2 MSTORE PUSH1 0x2 DUP4 ADD PUSH1 0x20 MSTORE PUSH1 0x40 DUP2 KECCAK256 SLOAD DUP1 ISZERO ISZERO DUP1 PUSH2 0x11F7 JUMPI POP PUSH2 0x11F7 DUP5 DUP5 PUSH2 0x13BB JUMP JUMPDEST PUSH2 0x796 JUMPI PUSH1 0x40 MLOAD PUSH3 0x461BCD PUSH1 0xE5 SHL DUP2 MSTORE PUSH1 0x20 PUSH1 0x4 DUP3 ADD MSTORE PUSH1 0x1E PUSH1 0x24 DUP3 ADD MSTORE PUSH32 0x456E756D657261626C654D61703A206E6F6E6578697374656E74206B65790000 PUSH1 0x44 DUP3 ADD MSTORE PUSH1 0x64 ADD PUSH2 0x4D7 JUMP JUMPDEST PUSH1 0x0 DUP2 DUP2 MSTORE PUSH1 0x2 DUP4 ADD PUSH1 0x20 MSTORE PUSH1 0x40 DUP2 KECCAK256 DUP2 SWAP1 SSTORE PUSH2 0x796 DUP4 DUP4 PUSH2 0x13FD JUMP JUMPDEST PUSH1 0x0 PUSH2 0x128D PUSH1 0x40 MLOAD DUP1 PUSH1 0x80 ADD PUSH1 0x40 MSTORE DUP1 PUSH1 0x0 DUP2 MSTORE PUSH1 0x20 ADD PUSH1 0x0 DUP2 MSTORE PUSH1 0x20 ADD PUSH1 0x0 DUP2 MSTORE PUSH1 0x20 ADD PUSH1 0x0 DUP2 MSTORE POP SWAP1 JUMP JUMPDEST DUP3 DUP5 LT PUSH2 0x12A7 JUMPI PUSH1 0x0 PUSH2 0x129E PUSH2 0xC0F JUMP JUMPDEST SWAP2 POP SWAP2 POP PUSH2 0x13B2 JUMP JUMPDEST PUSH2 0x12B1 DUP5 DUP5 PUSH2 0x17A4 JUMP JUMPDEST PUSH1 0x1 SUB PUSH2 0x12FF JUMPI PUSH1 0x0 DUP7 DUP6 DUP2 MLOAD DUP2 LT PUSH2 0x12CC JUMPI PUSH2 0x12CC PUSH2 0x17CD JUMP JUMPDEST PUSH1 0x20 MUL PUSH1 0x20 ADD ADD MLOAD SWAP1 POP DUP6 DUP2 PUSH1 0x0 ADD MLOAD GT ISZERO PUSH2 0x12F1 JUMPI PUSH1 0x0 PUSH2 0x12EC PUSH2 0xC0F JUMP JUMPDEST PUSH2 0x12F5 JUMP JUMPDEST PUSH1 0x1 DUP2 JUMPDEST SWAP3 POP SWAP3 POP POP PUSH2 0x13B2 JUMP JUMPDEST PUSH1 0x0 PUSH1 0x2 PUSH2 0x130D DUP7 DUP7 PUSH2 0x1791 JUMP JUMPDEST PUSH2 0x1317 SWAP2 SWAP1 PUSH2 0x183B JUMP JUMPDEST SWAP1 POP PUSH1 0x0 DUP8 PUSH2 0x1327 PUSH1 0x1 DUP5 PUSH2 0x17A4 JUMP JUMPDEST DUP2 MLOAD DUP2 LT PUSH2 0x1337 JUMPI PUSH2 0x1337 PUSH2 0x17CD JUMP JUMPDEST PUSH1 0x20 MUL PUSH1 0x20 ADD ADD MLOAD SWAP1 POP PUSH1 0x0 DUP9 DUP4 DUP2 MLOAD DUP2 LT PUSH2 0x1355 JUMPI PUSH2 0x1355 PUSH2 0x17CD JUMP JUMPDEST PUSH1 0x20 MUL PUSH1 0x20 ADD ADD MLOAD SWAP1 POP DUP8 DUP3 PUSH1 0x0 ADD MLOAD GT ISZERO DUP1 ISZERO PUSH2 0x1373 JUMPI POP DUP1 MLOAD DUP9 LT JUMPDEST ISZERO PUSH2 0x1386 JUMPI POP PUSH1 0x1 SWAP4 POP SWAP2 POP PUSH2 0x13B2 SWAP1 POP JUMP JUMPDEST DUP1 MLOAD DUP9 LT PUSH2 0x13A6 JUMPI PUSH2 0x139A DUP10 DUP10 DUP6 DUP10 PUSH2 0x1260 JUMP JUMPDEST SWAP5 POP SWAP5 POP POP POP POP PUSH2 0x13B2 JUMP JUMPDEST PUSH2 0x139A DUP10 DUP10 DUP10 DUP7 PUSH2 0x1260 JUMP JUMPDEST SWAP5 POP SWAP5 SWAP3 POP POP POP JUMP JUMPDEST PUSH1 0x0 PUSH2 0x796 DUP4 DUP4 PUSH2 0x1409 JUMP JUMPDEST PUSH1 0x0 PUSH2 0x796 DUP4 DUP4 PUSH2 0x1421 JUMP JUMPDEST PUSH1 0x0 DUP3 PUSH1 0x0 ADD DUP3 DUP2 SLOAD DUP2 LT PUSH2 0x13EA JUMPI PUSH2 0x13EA PUSH2 0x17CD JUMP JUMPDEST SWAP1 PUSH1 0x0 MSTORE PUSH1 0x20 PUSH1 0x0 KECCAK256 ADD SLOAD SWAP1 POP SWAP3 SWAP2 POP POP JUMP JUMPDEST PUSH1 0x0 PUSH2 0x796 DUP4 DUP4 PUSH2 0x1470 JUMP JUMPDEST PUSH1 0x0 DUP2 DUP2 MSTORE PUSH1 0x1 DUP4 ADD PUSH1 0x20 MSTORE PUSH1 0x40 DUP2 KECCAK256 SLOAD ISZERO ISZERO PUSH2 0x796 JUMP JUMPDEST PUSH1 0x0 DUP2 DUP2 MSTORE PUSH1 0x1 DUP4 ADD PUSH1 0x20 MSTORE PUSH1 0x40 DUP2 KECCAK256 SLOAD PUSH2 0x1468 JUMPI POP DUP2 SLOAD PUSH1 0x1 DUP2 DUP2 ADD DUP5 SSTORE PUSH1 0x0 DUP5 DUP2 MSTORE PUSH1 0x20 DUP1 DUP3 KECCAK256 SWAP1 SWAP4 ADD DUP5 SWAP1 SSTORE DUP5 SLOAD DUP5 DUP3 MSTORE DUP3 DUP7 ADD SWAP1 SWAP4 MSTORE PUSH1 0x40 SWAP1 KECCAK256 SWAP2 SWAP1 SWAP2 SSTORE PUSH2 0x360 JUMP JUMPDEST POP PUSH1 0x0 PUSH2 0x360 JUMP JUMPDEST PUSH1 0x0 DUP2 DUP2 MSTORE PUSH1 0x1 DUP4 ADD PUSH1 0x20 MSTORE PUSH1 0x40 DUP2 KECCAK256 SLOAD DUP1 ISZERO PUSH2 0x1559 JUMPI PUSH1 0x0 PUSH2 0x1494 PUSH1 0x1 DUP4 PUSH2 0x17A4 JUMP JUMPDEST DUP6 SLOAD SWAP1 SWAP2 POP PUSH1 0x0 SWAP1 PUSH2 0x14A8 SWAP1 PUSH1 0x1 SWAP1 PUSH2 0x17A4 JUMP JUMPDEST SWAP1 POP DUP2 DUP2 EQ PUSH2 0x150D JUMPI PUSH1 0x0 DUP7 PUSH1 0x0 ADD DUP3 DUP2 SLOAD DUP2 LT PUSH2 0x14C8 JUMPI PUSH2 0x14C8 PUSH2 0x17CD JUMP JUMPDEST SWAP1 PUSH1 0x0 MSTORE PUSH1 0x20 PUSH1 0x0 KECCAK256 ADD SLOAD SWAP1 POP DUP1 DUP8 PUSH1 0x0 ADD DUP5 DUP2 SLOAD DUP2 LT PUSH2 0x14EB JUMPI PUSH2 0x14EB PUSH2 0x17CD JUMP JUMPDEST PUSH1 0x0 SWAP2 DUP3 MSTORE PUSH1 0x20 DUP1 DUP4 KECCAK256 SWAP1 SWAP2 ADD SWAP3 SWAP1 SWAP3 SSTORE SWAP2 DUP3 MSTORE PUSH1 0x1 DUP9 ADD SWAP1 MSTORE PUSH1 0x40 SWAP1 KECCAK256 DUP4 SWAP1 SSTORE JUMPDEST DUP6 SLOAD DUP7 SWAP1 DUP1 PUSH2 0x151E JUMPI PUSH2 0x151E PUSH2 0x187D JUMP JUMPDEST PUSH1 0x1 SWAP1 SUB DUP2 DUP2 SWAP1 PUSH1 0x0 MSTORE PUSH1 0x20 PUSH1 0x0 KECCAK256 ADD PUSH1 0x0 SWAP1 SSTORE SWAP1 SSTORE DUP6 PUSH1 0x1 ADD PUSH1 0x0 DUP7 DUP2 MSTORE PUSH1 0x20 ADD SWAP1 DUP2 MSTORE PUSH1 0x20 ADD PUSH1 0x0 KECCAK256 PUSH1 0x0 SWAP1 SSTORE PUSH1 0x1 SWAP4 POP POP POP POP PUSH2 0x360 JUMP JUMPDEST PUSH1 0x0 SWAP2 POP POP PUSH2 0x360 JUMP JUMPDEST DUP1 CALLDATALOAD PUSH1 0x1 PUSH1 0x1 PUSH1 0xA0 SHL SUB DUP2 AND DUP2 EQ PUSH2 0x157A JUMPI PUSH1 0x0 DUP1 REVERT JUMPDEST SWAP2 SWAP1 POP JUMP JUMPDEST DUP1 CALLDATALOAD PUSH1 0x1 PUSH1 0x1 PUSH1 0x80 SHL SUB DUP2 AND DUP2 EQ PUSH2 0x157A JUMPI PUSH1 0x0 DUP1 REVERT JUMPDEST PUSH1 0x0 DUP1 PUSH1 0x0 PUSH1 0x60 DUP5 DUP7 SUB SLT ISZERO PUSH2 0x15AB JUMPI PUSH1 0x0 DUP1 REVERT JUMPDEST PUSH2 0x15B4 DUP5 PUSH2 0x1563 JUMP JUMPDEST SWAP3 POP PUSH2 0x15C2 PUSH1 0x20 DUP6 ADD PUSH2 0x1563 JUMP JUMPDEST SWAP2 POP PUSH2 0x15D0 PUSH1 0x40 DUP6 ADD PUSH2 0x157F JUMP JUMPDEST SWAP1 POP SWAP3 POP SWAP3 POP SWAP3 JUMP JUMPDEST PUSH1 0x0 PUSH1 0x20 DUP3 DUP5 SUB SLT ISZERO PUSH2 0x15EB JUMPI PUSH1 0x0 DUP1 REVERT JUMPDEST PUSH2 0x796 DUP3 PUSH2 0x1563 JUMP JUMPDEST PUSH1 0x20 DUP1 DUP3 MSTORE DUP3 MLOAD DUP3 DUP3 ADD DUP2 SWAP1 MSTORE PUSH1 0x0 SWAP2 SWAP1 PUSH1 0x40 SWAP1 DUP2 DUP6 ADD SWAP1 DUP7 DUP5 ADD DUP6 JUMPDEST DUP3 DUP2 LT ISZERO PUSH2 0x163F JUMPI DUP2 MLOAD DUP1 MLOAD PUSH1 0x1 PUSH1 0x1 PUSH1 0xA0 SHL SUB AND DUP6 MSTORE DUP7 ADD MLOAD DUP7 DUP6 ADD MSTORE SWAP3 DUP5 ADD SWAP3 SWAP1 DUP6 ADD SWAP1 PUSH1 0x1 ADD PUSH2 0x1611 JUMP JUMPDEST POP SWAP2 SWAP8 SWAP7 POP POP POP POP POP POP POP JUMP JUMPDEST PUSH1 0x0 DUP1 PUSH1 0x0 PUSH1 0x40 DUP5 DUP7 SUB SLT ISZERO PUSH2 0x1661 JUMPI PUSH1 0x0 DUP1 REVERT JUMPDEST DUP4 CALLDATALOAD PUSH8 0xFFFFFFFFFFFFFFFF DUP1 DUP3 GT ISZERO PUSH2 0x1679 JUMPI PUSH1 0x0 DUP1 REVERT JUMPDEST DUP2 DUP7 ADD SWAP2 POP DUP7 PUSH1 0x1F DUP4 ADD SLT PUSH2 0x168D JUMPI PUSH1 0x0 DUP1 REVERT JUMPDEST DUP2 CALLDATALOAD DUP2 DUP2 GT ISZERO PUSH2 0x169C JUMPI PUSH1 0x0 DUP1 REVERT JUMPDEST DUP8 PUSH1 0x20 DUP3 PUSH1 0x5 SHL DUP6 ADD ADD GT ISZERO PUSH2 0x16B1 JUMPI PUSH1 0x0 DUP1 REVERT JUMPDEST PUSH1 0x20 SWAP3 DUP4 ADD SWAP6 POP SWAP4 POP PUSH2 0x15D0 SWAP2 DUP7 ADD SWAP1 POP PUSH2 0x157F JUMP JUMPDEST PUSH1 0x0 PUSH1 0x20 DUP1 DUP4 MSTORE DUP4 MLOAD DUP1 DUP3 DUP6 ADD MSTORE PUSH1 0x0 JUMPDEST DUP2 DUP2 LT ISZERO PUSH2 0x16F4 JUMPI DUP6 DUP2 ADD DUP4 ADD MLOAD DUP6 DUP3 ADD PUSH1 0x40 ADD MSTORE DUP3 ADD PUSH2 0x16D8 JUMP JUMPDEST POP PUSH1 0x0 PUSH1 0x40 DUP3 DUP7 ADD ADD MSTORE PUSH1 0x40 PUSH1 0x1F NOT PUSH1 0x1F DUP4 ADD AND DUP6 ADD ADD SWAP3 POP POP POP SWAP3 SWAP2 POP POP JUMP JUMPDEST PUSH1 0x0 DUP1 PUSH1 0x40 DUP4 DUP6 SUB SLT ISZERO PUSH2 0x1728 JUMPI PUSH1 0x0 DUP1 REVERT JUMPDEST PUSH2 0x1731 DUP4 PUSH2 0x1563 JUMP JUMPDEST SWAP5 PUSH1 0x20 SWAP4 SWAP1 SWAP4 ADD CALLDATALOAD SWAP4 POP POP POP JUMP JUMPDEST PUSH1 0x0 DUP1 PUSH1 0x0 PUSH1 0x60 DUP5 DUP7 SUB SLT ISZERO PUSH2 0x1754 JUMPI PUSH1 0x0 DUP1 REVERT JUMPDEST PUSH2 0x175D DUP5 PUSH2 0x1563 JUMP JUMPDEST SWAP3 POP PUSH2 0x176B PUSH1 0x20 DUP6 ADD PUSH2 0x1563 JUMP JUMPDEST SWAP2 POP PUSH1 0x40 DUP5 ADD CALLDATALOAD SWAP1 POP SWAP3 POP SWAP3 POP SWAP3 JUMP JUMPDEST PUSH4 0x4E487B71 PUSH1 0xE0 SHL PUSH1 0x0 MSTORE PUSH1 0x11 PUSH1 0x4 MSTORE PUSH1 0x24 PUSH1 0x0 REVERT JUMPDEST DUP1 DUP3 ADD DUP1 DUP3 GT ISZERO PUSH2 0x360 JUMPI PUSH2 0x360 PUSH2 0x177B JUMP JUMPDEST DUP2 DUP2 SUB DUP2 DUP2 GT ISZERO PUSH2 0x360 JUMPI PUSH2 0x360 PUSH2 0x177B JUMP JUMPDEST PUSH4 0x4E487B71 PUSH1 0xE0 SHL PUSH1 0x0 MSTORE PUSH1 0x41 PUSH1 0x4 MSTORE PUSH1 0x24 PUSH1 0x0 REVERT JUMPDEST PUSH4 0x4E487B71 PUSH1 0xE0 SHL PUSH1 0x0 MSTORE PUSH1 0x32 PUSH1 0x4 MSTORE PUSH1 0x24 PUSH1 0x0 REVERT JUMPDEST PUSH1 0x0 PUSH1 0x1 DUP3 ADD PUSH2 0x17F5 JUMPI PUSH2 0x17F5 PUSH2 0x177B JUMP JUMPDEST POP PUSH1 0x1 ADD SWAP1 JUMP JUMPDEST DUP1 DUP3 ADD DUP3 DUP2 SLT PUSH1 0x0 DUP4 SLT DUP1 ISZERO DUP3 AND DUP3 ISZERO DUP3 AND OR ISZERO PUSH2 0x181C JUMPI PUSH2 0x181C PUSH2 0x177B JUMP JUMPDEST POP POP SWAP3 SWAP2 POP POP JUMP JUMPDEST DUP1 DUP3 MUL DUP2 ISZERO DUP3 DUP3 DIV DUP5 EQ OR PUSH2 0x360 JUMPI PUSH2 0x360 PUSH2 0x177B JUMP JUMPDEST PUSH1 0x0 DUP3 PUSH2 0x1858 JUMPI PUSH4 0x4E487B71 PUSH1 0xE0 SHL PUSH1 0x0 MSTORE PUSH1 0x12 PUSH1 0x4 MSTORE PUSH1 0x24 PUSH1 0x0 REVERT JUMPDEST POP DIV SWAP1 JUMP JUMPDEST DUP2 DUP2 SUB PUSH1 0x0 DUP4 SLT DUP1 ISZERO DUP4 DUP4 SGT AND DUP4 DUP4 SLT DUP3 AND OR ISZERO PUSH2 0x8AF JUMPI PUSH2 0x8AF PUSH2 0x177B JUMP JUMPDEST PUSH4 0x4E487B71 PUSH1 0xE0 SHL PUSH1 0x0 MSTORE PUSH1 0x31 PUSH1 0x4 MSTORE PUSH1 0x24 PUSH1 0x0 REVERT INVALID LOG2 PUSH5 0x6970667358 0x22 SLT KECCAK256 SWAP5 0x1E OR 0x49 SWAP13 SWAP16 0xEA PUSH6 0x40FC4E3F2F46 SWAP10 COINBASE 0xDC 0xF7 0xE 0xC4 0x1F 0xB9 0xEB 0xB9 0xE3 0x5C PUSH12 0x9DF3F7BDBC64736F6C634300 ADDMOD GT STOP CALLER ","sha1":"7fc73d91e1cf9773edc60d0f392b48d214e52a55","source":"// SPDX-License-Identifier: GPL-3.0-or-later\npragma solidity ^0.8.17;\n\nimport \"./NFTVault.sol\";\nimport \"../../libraries/VotingPowerHistory.sol\";\nimport \"../../libraries/DataTypes.sol\";\nimport \"../../interfaces/IVotingPowersUpdater.sol\";\nimport \"@openzeppelin/contracts/token/ERC721/extensions/IERC721Enumerable.sol\";\n\ncontract CouncillorNFTVault is NFTVault, IVotingPowersUpdater {\n    using VotingPowerHistory for VotingPowerHistory.History;\n    using VotingPowerHistory for VotingPowerHistory.Record;\n\n    string internal constant _VAULT_TYPE = \"CouncillorNFT\";\n\n    address internal immutable underlyingAddress;\n\n    constructor(address _owner, address _underlyingAddress) NFTVault(_owner) {\n        underlyingAddress = _underlyingAddress;\n        sumVotingPowers = IERC721Enumerable(_underlyingAddress).totalSupply();\n    }\n\n    modifier onlyUnderlying() {\n        require(msg.sender == address(underlyingAddress));\n        _;\n    }\n\n    function updateBaseVotingPower(\n        address _user,\n        address _delegate,\n        uint128 _addedCount\n    ) external onlyUnderlying {\n        VotingPowerHistory.Record memory ovp = history.currentRecord(_user);\n\n        uint256 oldTotal = ovp.total();\n        VotingPowerHistory.Record memory nvp = history.updateVotingPower(\n            _user,\n            ovp.baseVotingPower + _addedCount,\n            ovp.multiplier,\n            ovp.netDelegatedVotes\n        );\n        sumVotingPowers += (nvp.total() - oldTotal);\n        if (_delegate != address(0) && _delegate != _user) {\n            _delegateVote(_user, _delegate, _addedCount);\n        }\n    }\n\n    function getVaultType() external pure returns (string memory) {\n        return _VAULT_TYPE;\n    }\n}\n","sourcePath":"contracts/vaults/CouncillorNFTVault.sol","type":"contract","deployment":{"address":"0x7e43D3825Bb4C960395f829932831D6F59981C42","chainid":"1","blockHeight":18362819}}