{"abi":[{"inputs":[{"internalType":"address","name":"_owner","type":"address"},{"components":[{"internalType":"address","name":"_contract","type":"address"},{"internalType":"bytes4","name":"_sig","type":"bytes4"},{"internalType":"address","name":"_strategy","type":"address"}],"internalType":"struct ActionTierConfig.StrategyConfig[]","name":"configs","type":"tuple[]"}],"stateMutability":"nonpayable","type":"constructor","name":"constructor"},{"inputs":[{"internalType":"address","name":"actual","type":"address"},{"internalType":"address","name":"expected","type":"address"}],"name":"NotAuthorized","type":"error"},{"inputs":[{"components":[{"internalType":"address","name":"_contract","type":"address"},{"internalType":"bytes4","name":"_sig","type":"bytes4"},{"internalType":"address","name":"_strategy","type":"address"}],"internalType":"struct ActionTierConfig.StrategyConfig[]","name":"configs","type":"tuple[]"}],"name":"batchInitializeStrategy","outputs":[],"stateMutability":"nonpayable","type":"function"},{"inputs":[{"components":[{"internalType":"address","name":"_contract","type":"address"},{"internalType":"bytes4","name":"_sig","type":"bytes4"},{"internalType":"address","name":"_strategy","type":"address"}],"internalType":"struct ActionTierConfig.StrategyConfig[]","name":"configs","type":"tuple[]"}],"name":"batchSetStrategy","outputs":[],"stateMutability":"nonpayable","type":"function"},{"inputs":[{"internalType":"address","name":"_contract","type":"address"},{"internalType":"bytes4","name":"_sig","type":"bytes4"}],"name":"getStrategy","outputs":[{"internalType":"address","name":"","type":"address"}],"stateMutability":"view","type":"function"},{"inputs":[{"internalType":"address","name":"_contract","type":"address"},{"internalType":"bytes","name":"_calldata","type":"bytes"}],"name":"getTier","outputs":[{"components":[{"internalType":"uint64","name":"quorum","type":"uint64"},{"internalType":"uint64","name":"proposalThreshold","type":"uint64"},{"internalType":"uint64","name":"voteThreshold","type":"uint64"},{"internalType":"uint32","name":"timeLockDuration","type":"uint32"},{"internalType":"uint32","name":"proposalLength","type":"uint32"},{"internalType":"uint8","name":"actionLevel","type":"uint8"}],"internalType":"struct DataTypes.Tier","name":"","type":"tuple"}],"stateMutability":"view","type":"function"},{"inputs":[{"internalType":"address","name":"_contract","type":"address"},{"internalType":"bytes4","name":"_sig","type":"bytes4"},{"internalType":"address","name":"_strategy","type":"address"}],"name":"initializeStrategy","outputs":[],"stateMutability":"nonpayable","type":"function"},{"inputs":[],"name":"owner","outputs":[{"internalType":"address","name":"","type":"address"}],"stateMutability":"view","type":"function"},{"inputs":[{"internalType":"address","name":"_contract","type":"address"},{"internalType":"bytes4","name":"_sig","type":"bytes4"},{"internalType":"address","name":"_strategy","type":"address"}],"name":"setStrategy","outputs":[],"stateMutability":"nonpayable","type":"function"}],"bytecode":"60a06040523480156200001157600080fd5b506040516200107838038062001078833981016040819052620000349162000300565b6001600160a01b03821660805260005b8151811015620000cd5760006001600160a01b03168282815181106200006e576200006e62000422565b6020026020010151600001516001600160a01b031603620000b857308282815181106200009f576200009f62000422565b60209081029190910101516001600160a01b0390911690525b80620000c48162000438565b91505062000044565b50620000db816001620000e3565b505062000460565b60005b82518110156200021f576000620001448483815181106200010b576200010b62000422565b6020026020010151600001518584815181106200012c576200012c62000422565b6020026020010151602001516200022460201b60201c565b90508215806200016957506000818152602081905260409020546001600160a01b0316155b620001ba5760405162461bcd60e51b815260206004820152601460248201527f737472617465677920616c726561647920736574000000000000000000000000604482015260640160405180910390fd5b838281518110620001cf57620001cf62000422565b60209081029190910181015160409081015160009384529183905290912080546001600160a01b0319166001600160a01b0390921691909117905580620002168162000438565b915050620000e6565b505050565b6040516001600160601b0319606084901b1660208201526001600160e01b03198216603482015260009060380160405160208183030381529060405280519060200120905092915050565b80516001600160a01b03811681146200028757600080fd5b919050565b634e487b7160e01b600052604160045260246000fd5b604051606081016001600160401b0381118282101715620002c757620002c76200028c565b60405290565b604051601f8201601f191681016001600160401b0381118282101715620002f857620002f86200028c565b604052919050565b60008060408084860312156200031557600080fd5b62000320846200026f565b602085810151919450906001600160401b03808211156200034057600080fd5b818701915087601f8301126200035557600080fd5b8151818111156200036a576200036a6200028c565b6200037a848260051b01620002cd565b8181528481019250606091820284018501918a8311156200039a57600080fd5b938501935b82851015620004115780858c031215620003b95760008081fd5b620003c3620002a2565b620003ce866200026f565b8152858701516001600160e01b031981168114620003ec5760008081fd5b81880152620003fd8689016200026f565b81890152845293840193928501926200039f565b508096505050505050509250929050565b634e487b7160e01b600052603260045260246000fd5b6000600182016200045957634e487b7160e01b600052601160045260246000fd5b5060010190565b608051610bc5620004b36000396000818160f2015281816101b0015281816101f2015281816102ca0152818161030c01528181610389015281816103cb0152818161047701526104b90152610bc56000f3fe608060405234801561001057600080fd5b506004361061007d5760003560e01c806384e5f12c1161005b57806384e5f12c146100bd5780638da5cb5b146100ed578063aabf3ff614610114578063feb52af51461012757600080fd5b806346e774d6146100825780634c2c5c3e146100975780634dadd4f4146100aa575b600080fd5b61009561009036600461085a565b6101a5565b005b6100956100a536600461085a565b6102bf565b6100956100b836600461089d565b61037e565b6100d06100cb366004610912565b610459565b6040516001600160a01b0390911681526020015b60405180910390f35b6100d07f000000000000000000000000000000000000000000000000000000000000000081565b61009561012236600461089d565b61046c565b61013a610135366004610945565b610543565b6040516100e49190600060c08201905067ffffffffffffffff80845116835280602085015116602084015280604085015116604084015250606083015163ffffffff8082166060850152806080860151166080850152505060ff60a08401511660a083015292915050565b336001600160a01b037f000000000000000000000000000000000000000000000000000000000000000016146102245760405163c55ddc9760e01b81523360048201526001600160a01b037f00000000000000000000000000000000000000000000000000000000000000001660248201526044015b60405180910390fd5b6000610230848461063a565b6000818152602081905260409020549091506001600160a01b03161561028f5760405162461bcd60e51b81526020600482015260146024820152731cdd1c985d1959de48185b1c9958591e481cd95d60621b604482015260640161021b565b600090815260208190526040902080546001600160a01b0319166001600160a01b03929092169190911790555050565b336001600160a01b037f000000000000000000000000000000000000000000000000000000000000000016146103395760405163c55ddc9760e01b81523360048201526001600160a01b037f000000000000000000000000000000000000000000000000000000000000000016602482015260440161021b565b80600080610347868661063a565b815260200190815260200160002060006101000a8154816001600160a01b0302191690836001600160a01b03160217905550505050565b336001600160a01b037f000000000000000000000000000000000000000000000000000000000000000016146103f85760405163c55ddc9760e01b81523360048201526001600160a01b037f000000000000000000000000000000000000000000000000000000000000000016602482015260440161021b565b6104558282808060200260200160405190810160405280939291908181526020016000905b828210156104495761043a606083028601368190038101906109c8565b8152602001906001019061041d565b5050505050600061068a565b5050565b600061046583836107a7565b9392505050565b336001600160a01b037f000000000000000000000000000000000000000000000000000000000000000016146104e65760405163c55ddc9760e01b81523360048201526001600160a01b037f000000000000000000000000000000000000000000000000000000000000000016602482015260440161021b565b6104558282808060200260200160405190810160405280939291908181526020016000905b8282101561053757610528606083028601368190038101906109c8565b8152602001906001019061050b565b5050505050600161068a565b6040805160c081018252600080825260208201819052918101829052606081018290526080810182905260a081019190915260006105bf856105ba86868080601f01602080910402602001604051908101604052809392919081815260200183838082843760009201919091525061081592505050565b6107a7565b604051630c87fa5360e21b81529091506001600160a01b0382169063321fe94c906105f09087908790600401610a42565b60c060405180830381865afa15801561060d573d6000803e3d6000fd5b505050506040513d601f19601f820116820180604052508101906106319190610a9d565b95945050505050565b6040516bffffffffffffffffffffffff19606084901b1660208201526001600160e01b03198216603482015260009060380160405160208183030381529060405280519060200120905092915050565b60005b82518110156107a25760006106dc8483815181106106ad576106ad610b52565b6020026020010151600001518584815181106106cb576106cb610b52565b60200260200101516020015161063a565b905082158061070057506000818152602081905260409020546001600160a01b0316155b6107435760405162461bcd60e51b81526020600482015260146024820152731cdd1c985d1959de48185b1c9958591e481cd95d60621b604482015260640161021b565b83828151811061075557610755610b52565b60209081029190910181015160409081015160009384529183905290912080546001600160a01b0319166001600160a01b039092169190911790558061079a81610b68565b91505061068d565b505050565b6000806000806107b7868661063a565b81526020810191909152604001600020546001600160a01b03169050806104655760405162461bcd60e51b81526020600482015260126024820152711cdd1c985d1959de481b9bdd08199bdd5b9960721b604482015260640161021b565b602001516001600160e01b03191690565b80356001600160a01b038116811461083d57600080fd5b919050565b80356001600160e01b03198116811461083d57600080fd5b60008060006060848603121561086f57600080fd5b61087884610826565b925061088660208501610842565b915061089460408501610826565b90509250925092565b600080602083850312156108b057600080fd5b823567ffffffffffffffff808211156108c857600080fd5b818501915085601f8301126108dc57600080fd5b8135818111156108eb57600080fd5b86602060608302850101111561090057600080fd5b60209290920196919550909350505050565b6000806040838503121561092557600080fd5b61092e83610826565b915061093c60208401610842565b90509250929050565b60008060006040848603121561095a57600080fd5b61096384610826565b9250602084013567ffffffffffffffff8082111561098057600080fd5b818601915086601f83011261099457600080fd5b8135818111156109a357600080fd5b8760208285010111156109b557600080fd5b6020830194508093505050509250925092565b6000606082840312156109da57600080fd5b6040516060810181811067ffffffffffffffff82111715610a0b57634e487b7160e01b600052604160045260246000fd5b604052610a1783610826565b8152610a2560208401610842565b6020820152610a3660408401610826565b60408201529392505050565b60208152816020820152818360408301376000818301604090810191909152601f909201601f19160101919050565b805167ffffffffffffffff8116811461083d57600080fd5b805163ffffffff8116811461083d57600080fd5b600060c08284031215610aaf57600080fd5b60405160c0810181811067ffffffffffffffff82111715610ae057634e487b7160e01b600052604160045260246000fd5b604052610aec83610a71565b8152610afa60208401610a71565b6020820152610b0b60408401610a71565b6040820152610b1c60608401610a89565b6060820152610b2d60808401610a89565b608082015260a083015160ff81168114610b4657600080fd5b60a08201529392505050565b634e487b7160e01b600052603260045260246000fd5b600060018201610b8857634e487b7160e01b600052601160045260246000fd5b506001019056fea26469706673582212203c5110b08a484063bb06315fe69c4dc8773a1782e59e718f7e46f91128e690c964736f6c63430008110033","bytecodeSha1":"8b7b313360ce3070577ffc3d6dd250d85f244850","compiler":{"evm_version":"istanbul","optimizer":{"enabled":true,"runs":200},"version":"0.8.17+commit.8df45f5f"},"contractName":"ActionTierConfig","language":"Solidity","natspec":{"kind":"dev","methods":{},"version":1},"opcodes":"PUSH1 0x80 PUSH1 0x40 MSTORE CALLVALUE DUP1 ISZERO PUSH2 0x10 JUMPI PUSH1 0x0 DUP1 REVERT JUMPDEST POP PUSH1 0x4 CALLDATASIZE LT PUSH2 0x7D JUMPI PUSH1 0x0 CALLDATALOAD PUSH1 0xE0 SHR DUP1 PUSH4 0x84E5F12C GT PUSH2 0x5B JUMPI DUP1 PUSH4 0x84E5F12C EQ PUSH2 0xBD JUMPI DUP1 PUSH4 0x8DA5CB5B EQ PUSH2 0xED JUMPI DUP1 PUSH4 0xAABF3FF6 EQ PUSH2 0x114 JUMPI DUP1 PUSH4 0xFEB52AF5 EQ PUSH2 0x127 JUMPI PUSH1 0x0 DUP1 REVERT JUMPDEST DUP1 PUSH4 0x46E774D6 EQ PUSH2 0x82 JUMPI DUP1 PUSH4 0x4C2C5C3E EQ PUSH2 0x97 JUMPI DUP1 PUSH4 0x4DADD4F4 EQ PUSH2 0xAA JUMPI JUMPDEST PUSH1 0x0 DUP1 REVERT JUMPDEST PUSH2 0x95 PUSH2 0x90 CALLDATASIZE PUSH1 0x4 PUSH2 0x85A JUMP JUMPDEST PUSH2 0x1A5 JUMP JUMPDEST STOP JUMPDEST PUSH2 0x95 PUSH2 0xA5 CALLDATASIZE PUSH1 0x4 PUSH2 0x85A JUMP JUMPDEST PUSH2 0x2BF JUMP JUMPDEST PUSH2 0x95 PUSH2 0xB8 CALLDATASIZE PUSH1 0x4 PUSH2 0x89D JUMP JUMPDEST PUSH2 0x37E JUMP JUMPDEST PUSH2 0xD0 PUSH2 0xCB CALLDATASIZE PUSH1 0x4 PUSH2 0x912 JUMP JUMPDEST PUSH2 0x459 JUMP JUMPDEST PUSH1 0x40 MLOAD PUSH1 0x1 PUSH1 0x1 PUSH1 0xA0 SHL SUB SWAP1 SWAP2 AND DUP2 MSTORE PUSH1 0x20 ADD JUMPDEST PUSH1 0x40 MLOAD DUP1 SWAP2 SUB SWAP1 RETURN JUMPDEST PUSH2 0xD0 PUSH32 0x0 DUP2 JUMP JUMPDEST PUSH2 0x95 PUSH2 0x122 CALLDATASIZE PUSH1 0x4 PUSH2 0x89D JUMP JUMPDEST PUSH2 0x46C JUMP JUMPDEST PUSH2 0x13A PUSH2 0x135 CALLDATASIZE PUSH1 0x4 PUSH2 0x945 JUMP JUMPDEST PUSH2 0x543 JUMP JUMPDEST PUSH1 0x40 MLOAD PUSH2 0xE4 SWAP2 SWAP1 PUSH1 0x0 PUSH1 0xC0 DUP3 ADD SWAP1 POP PUSH8 0xFFFFFFFFFFFFFFFF DUP1 DUP5 MLOAD AND DUP4 MSTORE DUP1 PUSH1 0x20 DUP6 ADD MLOAD AND PUSH1 0x20 DUP5 ADD MSTORE DUP1 PUSH1 0x40 DUP6 ADD MLOAD AND PUSH1 0x40 DUP5 ADD MSTORE POP PUSH1 0x60 DUP4 ADD MLOAD PUSH4 0xFFFFFFFF DUP1 DUP3 AND PUSH1 0x60 DUP6 ADD MSTORE DUP1 PUSH1 0x80 DUP7 ADD MLOAD AND PUSH1 0x80 DUP6 ADD MSTORE POP POP PUSH1 0xFF PUSH1 0xA0 DUP5 ADD MLOAD AND PUSH1 0xA0 DUP4 ADD MSTORE SWAP3 SWAP2 POP POP JUMP JUMPDEST CALLER PUSH1 0x1 PUSH1 0x1 PUSH1 0xA0 SHL SUB PUSH32 0x0 AND EQ PUSH2 0x224 JUMPI PUSH1 0x40 MLOAD PUSH4 0xC55DDC97 PUSH1 0xE0 SHL DUP2 MSTORE CALLER PUSH1 0x4 DUP3 ADD MSTORE PUSH1 0x1 PUSH1 0x1 PUSH1 0xA0 SHL SUB PUSH32 0x0 AND PUSH1 0x24 DUP3 ADD MSTORE PUSH1 0x44 ADD JUMPDEST PUSH1 0x40 MLOAD DUP1 SWAP2 SUB SWAP1 REVERT JUMPDEST PUSH1 0x0 PUSH2 0x230 DUP5 DUP5 PUSH2 0x63A JUMP JUMPDEST PUSH1 0x0 DUP2 DUP2 MSTORE PUSH1 0x20 DUP2 SWAP1 MSTORE PUSH1 0x40 SWAP1 KECCAK256 SLOAD SWAP1 SWAP2 POP PUSH1 0x1 PUSH1 0x1 PUSH1 0xA0 SHL SUB AND ISZERO PUSH2 0x28F JUMPI PUSH1 0x40 MLOAD PUSH3 0x461BCD PUSH1 0xE5 SHL DUP2 MSTORE PUSH1 0x20 PUSH1 0x4 DUP3 ADD MSTORE PUSH1 0x14 PUSH1 0x24 DUP3 ADD MSTORE PUSH20 0x1CDD1C985D1959DE48185B1C9958591E481CD95D PUSH1 0x62 SHL PUSH1 0x44 DUP3 ADD MSTORE PUSH1 0x64 ADD PUSH2 0x21B JUMP JUMPDEST PUSH1 0x0 SWAP1 DUP2 MSTORE PUSH1 0x20 DUP2 SWAP1 MSTORE PUSH1 0x40 SWAP1 KECCAK256 DUP1 SLOAD PUSH1 0x1 PUSH1 0x1 PUSH1 0xA0 SHL SUB NOT AND PUSH1 0x1 PUSH1 0x1 PUSH1 0xA0 SHL SUB SWAP3 SWAP1 SWAP3 AND SWAP2 SWAP1 SWAP2 OR SWAP1 SSTORE POP POP JUMP JUMPDEST CALLER PUSH1 0x1 PUSH1 0x1 PUSH1 0xA0 SHL SUB PUSH32 0x0 AND EQ PUSH2 0x339 JUMPI PUSH1 0x40 MLOAD PUSH4 0xC55DDC97 PUSH1 0xE0 SHL DUP2 MSTORE CALLER PUSH1 0x4 DUP3 ADD MSTORE PUSH1 0x1 PUSH1 0x1 PUSH1 0xA0 SHL SUB PUSH32 0x0 AND PUSH1 0x24 DUP3 ADD MSTORE PUSH1 0x44 ADD PUSH2 0x21B JUMP JUMPDEST DUP1 PUSH1 0x0 DUP1 PUSH2 0x347 DUP7 DUP7 PUSH2 0x63A JUMP JUMPDEST DUP2 MSTORE PUSH1 0x20 ADD SWAP1 DUP2 MSTORE PUSH1 0x20 ADD PUSH1 0x0 KECCAK256 PUSH1 0x0 PUSH2 0x100 EXP DUP2 SLOAD DUP2 PUSH1 0x1 PUSH1 0x1 PUSH1 0xA0 SHL SUB MUL NOT AND SWAP1 DUP4 PUSH1 0x1 PUSH1 0x1 PUSH1 0xA0 SHL SUB AND MUL OR SWAP1 SSTORE POP POP POP POP JUMP JUMPDEST CALLER PUSH1 0x1 PUSH1 0x1 PUSH1 0xA0 SHL SUB PUSH32 0x0 AND EQ PUSH2 0x3F8 JUMPI PUSH1 0x40 MLOAD PUSH4 0xC55DDC97 PUSH1 0xE0 SHL DUP2 MSTORE CALLER PUSH1 0x4 DUP3 ADD MSTORE PUSH1 0x1 PUSH1 0x1 PUSH1 0xA0 SHL SUB PUSH32 0x0 AND PUSH1 0x24 DUP3 ADD MSTORE PUSH1 0x44 ADD PUSH2 0x21B JUMP JUMPDEST PUSH2 0x455 DUP3 DUP3 DUP1 DUP1 PUSH1 0x20 MUL PUSH1 0x20 ADD PUSH1 0x40 MLOAD SWAP1 DUP2 ADD PUSH1 0x40 MSTORE DUP1 SWAP4 SWAP3 SWAP2 SWAP1 DUP2 DUP2 MSTORE PUSH1 0x20 ADD PUSH1 0x0 SWAP1 JUMPDEST DUP3 DUP3 LT ISZERO PUSH2 0x449 JUMPI PUSH2 0x43A PUSH1 0x60 DUP4 MUL DUP7 ADD CALLDATASIZE DUP2 SWAP1 SUB DUP2 ADD SWAP1 PUSH2 0x9C8 JUMP JUMPDEST DUP2 MSTORE PUSH1 0x20 ADD SWAP1 PUSH1 0x1 ADD SWAP1 PUSH2 0x41D JUMP JUMPDEST POP POP POP POP POP PUSH1 0x0 PUSH2 0x68A JUMP JUMPDEST POP POP JUMP JUMPDEST PUSH1 0x0 PUSH2 0x465 DUP4 DUP4 PUSH2 0x7A7 JUMP JUMPDEST SWAP4 SWAP3 POP POP POP JUMP JUMPDEST CALLER PUSH1 0x1 PUSH1 0x1 PUSH1 0xA0 SHL SUB PUSH32 0x0 AND EQ PUSH2 0x4E6 JUMPI PUSH1 0x40 MLOAD PUSH4 0xC55DDC97 PUSH1 0xE0 SHL DUP2 MSTORE CALLER PUSH1 0x4 DUP3 ADD MSTORE PUSH1 0x1 PUSH1 0x1 PUSH1 0xA0 SHL SUB PUSH32 0x0 AND PUSH1 0x24 DUP3 ADD MSTORE PUSH1 0x44 ADD PUSH2 0x21B JUMP JUMPDEST PUSH2 0x455 DUP3 DUP3 DUP1 DUP1 PUSH1 0x20 MUL PUSH1 0x20 ADD PUSH1 0x40 MLOAD SWAP1 DUP2 ADD PUSH1 0x40 MSTORE DUP1 SWAP4 SWAP3 SWAP2 SWAP1 DUP2 DUP2 MSTORE PUSH1 0x20 ADD PUSH1 0x0 SWAP1 JUMPDEST DUP3 DUP3 LT ISZERO PUSH2 0x537 JUMPI PUSH2 0x528 PUSH1 0x60 DUP4 MUL DUP7 ADD CALLDATASIZE DUP2 SWAP1 SUB DUP2 ADD SWAP1 PUSH2 0x9C8 JUMP JUMPDEST DUP2 MSTORE PUSH1 0x20 ADD SWAP1 PUSH1 0x1 ADD SWAP1 PUSH2 0x50B JUMP JUMPDEST POP POP POP POP POP PUSH1 0x1 PUSH2 0x68A JUMP JUMPDEST PUSH1 0x40 DUP1 MLOAD PUSH1 0xC0 DUP2 ADD DUP3 MSTORE PUSH1 0x0 DUP1 DUP3 MSTORE PUSH1 0x20 DUP3 ADD DUP2 SWAP1 MSTORE SWAP2 DUP2 ADD DUP3 SWAP1 MSTORE PUSH1 0x60 DUP2 ADD DUP3 SWAP1 MSTORE PUSH1 0x80 DUP2 ADD DUP3 SWAP1 MSTORE PUSH1 0xA0 DUP2 ADD SWAP2 SWAP1 SWAP2 MSTORE PUSH1 0x0 PUSH2 0x5BF DUP6 PUSH2 0x5BA DUP7 DUP7 DUP1 DUP1 PUSH1 0x1F ADD PUSH1 0x20 DUP1 SWAP2 DIV MUL PUSH1 0x20 ADD PUSH1 0x40 MLOAD SWAP1 DUP2 ADD PUSH1 0x40 MSTORE DUP1 SWAP4 SWAP3 SWAP2 SWAP1 DUP2 DUP2 MSTORE PUSH1 0x20 ADD DUP4 DUP4 DUP1 DUP3 DUP5 CALLDATACOPY PUSH1 0x0 SWAP3 ADD SWAP2 SWAP1 SWAP2 MSTORE POP PUSH2 0x815 SWAP3 POP POP POP JUMP JUMPDEST PUSH2 0x7A7 JUMP JUMPDEST PUSH1 0x40 MLOAD PUSH4 0xC87FA53 PUSH1 0xE2 SHL DUP2 MSTORE SWAP1 SWAP2 POP PUSH1 0x1 PUSH1 0x1 PUSH1 0xA0 SHL SUB DUP3 AND SWAP1 PUSH4 0x321FE94C SWAP1 PUSH2 0x5F0 SWAP1 DUP8 SWAP1 DUP8 SWAP1 PUSH1 0x4 ADD PUSH2 0xA42 JUMP JUMPDEST PUSH1 0xC0 PUSH1 0x40 MLOAD DUP1 DUP4 SUB DUP2 DUP7 GAS STATICCALL ISZERO DUP1 ISZERO PUSH2 0x60D JUMPI RETURNDATASIZE PUSH1 0x0 DUP1 RETURNDATACOPY RETURNDATASIZE PUSH1 0x0 REVERT JUMPDEST POP POP POP POP PUSH1 0x40 MLOAD RETURNDATASIZE PUSH1 0x1F NOT PUSH1 0x1F DUP3 ADD AND DUP3 ADD DUP1 PUSH1 0x40 MSTORE POP DUP2 ADD SWAP1 PUSH2 0x631 SWAP2 SWAP1 PUSH2 0xA9D JUMP JUMPDEST SWAP6 SWAP5 POP POP POP POP POP JUMP JUMPDEST PUSH1 0x40 MLOAD PUSH12 0xFFFFFFFFFFFFFFFFFFFFFFFF NOT PUSH1 0x60 DUP5 SWAP1 SHL AND PUSH1 0x20 DUP3 ADD MSTORE PUSH1 0x1 PUSH1 0x1 PUSH1 0xE0 SHL SUB NOT DUP3 AND PUSH1 0x34 DUP3 ADD MSTORE PUSH1 0x0 SWAP1 PUSH1 0x38 ADD PUSH1 0x40 MLOAD PUSH1 0x20 DUP2 DUP4 SUB SUB DUP2 MSTORE SWAP1 PUSH1 0x40 MSTORE DUP1 MLOAD SWAP1 PUSH1 0x20 ADD KECCAK256 SWAP1 POP SWAP3 SWAP2 POP POP JUMP JUMPDEST PUSH1 0x0 JUMPDEST DUP3 MLOAD DUP2 LT ISZERO PUSH2 0x7A2 JUMPI PUSH1 0x0 PUSH2 0x6DC DUP5 DUP4 DUP2 MLOAD DUP2 LT PUSH2 0x6AD JUMPI PUSH2 0x6AD PUSH2 0xB52 JUMP JUMPDEST PUSH1 0x20 MUL PUSH1 0x20 ADD ADD MLOAD PUSH1 0x0 ADD MLOAD DUP6 DUP5 DUP2 MLOAD DUP2 LT PUSH2 0x6CB JUMPI PUSH2 0x6CB PUSH2 0xB52 JUMP JUMPDEST PUSH1 0x20 MUL PUSH1 0x20 ADD ADD MLOAD PUSH1 0x20 ADD MLOAD PUSH2 0x63A JUMP JUMPDEST SWAP1 POP DUP3 ISZERO DUP1 PUSH2 0x700 JUMPI POP PUSH1 0x0 DUP2 DUP2 MSTORE PUSH1 0x20 DUP2 SWAP1 MSTORE PUSH1 0x40 SWAP1 KECCAK256 SLOAD PUSH1 0x1 PUSH1 0x1 PUSH1 0xA0 SHL SUB AND ISZERO JUMPDEST PUSH2 0x743 JUMPI PUSH1 0x40 MLOAD PUSH3 0x461BCD PUSH1 0xE5 SHL DUP2 MSTORE PUSH1 0x20 PUSH1 0x4 DUP3 ADD MSTORE PUSH1 0x14 PUSH1 0x24 DUP3 ADD MSTORE PUSH20 0x1CDD1C985D1959DE48185B1C9958591E481CD95D PUSH1 0x62 SHL PUSH1 0x44 DUP3 ADD MSTORE PUSH1 0x64 ADD PUSH2 0x21B JUMP JUMPDEST DUP4 DUP3 DUP2 MLOAD DUP2 LT PUSH2 0x755 JUMPI PUSH2 0x755 PUSH2 0xB52 JUMP JUMPDEST PUSH1 0x20 SWAP1 DUP2 MUL SWAP2 SWAP1 SWAP2 ADD DUP2 ADD MLOAD PUSH1 0x40 SWAP1 DUP2 ADD MLOAD PUSH1 0x0 SWAP4 DUP5 MSTORE SWAP2 DUP4 SWAP1 MSTORE SWAP1 SWAP2 KECCAK256 DUP1 SLOAD PUSH1 0x1 PUSH1 0x1 PUSH1 0xA0 SHL SUB NOT AND PUSH1 0x1 PUSH1 0x1 PUSH1 0xA0 SHL SUB SWAP1 SWAP3 AND SWAP2 SWAP1 SWAP2 OR SWAP1 SSTORE DUP1 PUSH2 0x79A DUP2 PUSH2 0xB68 JUMP JUMPDEST SWAP2 POP POP PUSH2 0x68D JUMP JUMPDEST POP POP POP JUMP JUMPDEST PUSH1 0x0 DUP1 PUSH1 0x0 DUP1 PUSH2 0x7B7 DUP7 DUP7 PUSH2 0x63A JUMP JUMPDEST DUP2 MSTORE PUSH1 0x20 DUP2 ADD SWAP2 SWAP1 SWAP2 MSTORE PUSH1 0x40 ADD PUSH1 0x0 KECCAK256 SLOAD PUSH1 0x1 PUSH1 0x1 PUSH1 0xA0 SHL SUB AND SWAP1 POP DUP1 PUSH2 0x465 JUMPI PUSH1 0x40 MLOAD PUSH3 0x461BCD PUSH1 0xE5 SHL DUP2 MSTORE PUSH1 0x20 PUSH1 0x4 DUP3 ADD MSTORE PUSH1 0x12 PUSH1 0x24 DUP3 ADD MSTORE PUSH18 0x1CDD1C985D1959DE481B9BDD08199BDD5B99 PUSH1 0x72 SHL PUSH1 0x44 DUP3 ADD MSTORE PUSH1 0x64 ADD PUSH2 0x21B JUMP JUMPDEST PUSH1 0x20 ADD MLOAD PUSH1 0x1 PUSH1 0x1 PUSH1 0xE0 SHL SUB NOT AND SWAP1 JUMP JUMPDEST DUP1 CALLDATALOAD PUSH1 0x1 PUSH1 0x1 PUSH1 0xA0 SHL SUB DUP2 AND DUP2 EQ PUSH2 0x83D JUMPI PUSH1 0x0 DUP1 REVERT JUMPDEST SWAP2 SWAP1 POP JUMP JUMPDEST DUP1 CALLDATALOAD PUSH1 0x1 PUSH1 0x1 PUSH1 0xE0 SHL SUB NOT DUP2 AND DUP2 EQ PUSH2 0x83D JUMPI PUSH1 0x0 DUP1 REVERT JUMPDEST PUSH1 0x0 DUP1 PUSH1 0x0 PUSH1 0x60 DUP5 DUP7 SUB SLT ISZERO PUSH2 0x86F JUMPI PUSH1 0x0 DUP1 REVERT JUMPDEST PUSH2 0x878 DUP5 PUSH2 0x826 JUMP JUMPDEST SWAP3 POP PUSH2 0x886 PUSH1 0x20 DUP6 ADD PUSH2 0x842 JUMP JUMPDEST SWAP2 POP PUSH2 0x894 PUSH1 0x40 DUP6 ADD PUSH2 0x826 JUMP JUMPDEST SWAP1 POP SWAP3 POP SWAP3 POP SWAP3 JUMP JUMPDEST PUSH1 0x0 DUP1 PUSH1 0x20 DUP4 DUP6 SUB SLT ISZERO PUSH2 0x8B0 JUMPI PUSH1 0x0 DUP1 REVERT JUMPDEST DUP3 CALLDATALOAD PUSH8 0xFFFFFFFFFFFFFFFF DUP1 DUP3 GT ISZERO PUSH2 0x8C8 JUMPI PUSH1 0x0 DUP1 REVERT JUMPDEST DUP2 DUP6 ADD SWAP2 POP DUP6 PUSH1 0x1F DUP4 ADD SLT PUSH2 0x8DC JUMPI PUSH1 0x0 DUP1 REVERT JUMPDEST DUP2 CALLDATALOAD DUP2 DUP2 GT ISZERO PUSH2 0x8EB JUMPI PUSH1 0x0 DUP1 REVERT JUMPDEST DUP7 PUSH1 0x20 PUSH1 0x60 DUP4 MUL DUP6 ADD ADD GT ISZERO PUSH2 0x900 JUMPI PUSH1 0x0 DUP1 REVERT JUMPDEST PUSH1 0x20 SWAP3 SWAP1 SWAP3 ADD SWAP7 SWAP2 SWAP6 POP SWAP1 SWAP4 POP POP POP POP JUMP JUMPDEST PUSH1 0x0 DUP1 PUSH1 0x40 DUP4 DUP6 SUB SLT ISZERO PUSH2 0x925 JUMPI PUSH1 0x0 DUP1 REVERT JUMPDEST PUSH2 0x92E DUP4 PUSH2 0x826 JUMP JUMPDEST SWAP2 POP PUSH2 0x93C PUSH1 0x20 DUP5 ADD PUSH2 0x842 JUMP JUMPDEST SWAP1 POP SWAP3 POP SWAP3 SWAP1 POP JUMP JUMPDEST PUSH1 0x0 DUP1 PUSH1 0x0 PUSH1 0x40 DUP5 DUP7 SUB SLT ISZERO PUSH2 0x95A JUMPI PUSH1 0x0 DUP1 REVERT JUMPDEST PUSH2 0x963 DUP5 PUSH2 0x826 JUMP JUMPDEST SWAP3 POP PUSH1 0x20 DUP5 ADD CALLDATALOAD PUSH8 0xFFFFFFFFFFFFFFFF DUP1 DUP3 GT ISZERO PUSH2 0x980 JUMPI PUSH1 0x0 DUP1 REVERT JUMPDEST DUP2 DUP7 ADD SWAP2 POP DUP7 PUSH1 0x1F DUP4 ADD SLT PUSH2 0x994 JUMPI PUSH1 0x0 DUP1 REVERT JUMPDEST DUP2 CALLDATALOAD DUP2 DUP2 GT ISZERO PUSH2 0x9A3 JUMPI PUSH1 0x0 DUP1 REVERT JUMPDEST DUP8 PUSH1 0x20 DUP3 DUP6 ADD ADD GT ISZERO PUSH2 0x9B5 JUMPI PUSH1 0x0 DUP1 REVERT JUMPDEST PUSH1 0x20 DUP4 ADD SWAP5 POP DUP1 SWAP4 POP POP POP POP SWAP3 POP SWAP3 POP SWAP3 JUMP JUMPDEST PUSH1 0x0 PUSH1 0x60 DUP3 DUP5 SUB SLT ISZERO PUSH2 0x9DA JUMPI PUSH1 0x0 DUP1 REVERT JUMPDEST PUSH1 0x40 MLOAD PUSH1 0x60 DUP2 ADD DUP2 DUP2 LT PUSH8 0xFFFFFFFFFFFFFFFF DUP3 GT OR ISZERO PUSH2 0xA0B JUMPI PUSH4 0x4E487B71 PUSH1 0xE0 SHL PUSH1 0x0 MSTORE PUSH1 0x41 PUSH1 0x4 MSTORE PUSH1 0x24 PUSH1 0x0 REVERT JUMPDEST PUSH1 0x40 MSTORE PUSH2 0xA17 DUP4 PUSH2 0x826 JUMP JUMPDEST DUP2 MSTORE PUSH2 0xA25 PUSH1 0x20 DUP5 ADD PUSH2 0x842 JUMP JUMPDEST PUSH1 0x20 DUP3 ADD MSTORE PUSH2 0xA36 PUSH1 0x40 DUP5 ADD PUSH2 0x826 JUMP JUMPDEST PUSH1 0x40 DUP3 ADD MSTORE SWAP4 SWAP3 POP POP POP JUMP JUMPDEST PUSH1 0x20 DUP2 MSTORE DUP2 PUSH1 0x20 DUP3 ADD MSTORE DUP2 DUP4 PUSH1 0x40 DUP4 ADD CALLDATACOPY PUSH1 0x0 DUP2 DUP4 ADD PUSH1 0x40 SWAP1 DUP2 ADD SWAP2 SWAP1 SWAP2 MSTORE PUSH1 0x1F SWAP1 SWAP3 ADD PUSH1 0x1F NOT AND ADD ADD SWAP2 SWAP1 POP JUMP JUMPDEST DUP1 MLOAD PUSH8 0xFFFFFFFFFFFFFFFF DUP2 AND DUP2 EQ PUSH2 0x83D JUMPI PUSH1 0x0 DUP1 REVERT JUMPDEST DUP1 MLOAD PUSH4 0xFFFFFFFF DUP2 AND DUP2 EQ PUSH2 0x83D JUMPI PUSH1 0x0 DUP1 REVERT JUMPDEST PUSH1 0x0 PUSH1 0xC0 DUP3 DUP5 SUB SLT ISZERO PUSH2 0xAAF JUMPI PUSH1 0x0 DUP1 REVERT JUMPDEST PUSH1 0x40 MLOAD PUSH1 0xC0 DUP2 ADD DUP2 DUP2 LT PUSH8 0xFFFFFFFFFFFFFFFF DUP3 GT OR ISZERO PUSH2 0xAE0 JUMPI PUSH4 0x4E487B71 PUSH1 0xE0 SHL PUSH1 0x0 MSTORE PUSH1 0x41 PUSH1 0x4 MSTORE PUSH1 0x24 PUSH1 0x0 REVERT JUMPDEST PUSH1 0x40 MSTORE PUSH2 0xAEC DUP4 PUSH2 0xA71 JUMP JUMPDEST DUP2 MSTORE PUSH2 0xAFA PUSH1 0x20 DUP5 ADD PUSH2 0xA71 JUMP JUMPDEST PUSH1 0x20 DUP3 ADD MSTORE PUSH2 0xB0B PUSH1 0x40 DUP5 ADD PUSH2 0xA71 JUMP JUMPDEST PUSH1 0x40 DUP3 ADD MSTORE PUSH2 0xB1C PUSH1 0x60 DUP5 ADD PUSH2 0xA89 JUMP JUMPDEST PUSH1 0x60 DUP3 ADD MSTORE PUSH2 0xB2D PUSH1 0x80 DUP5 ADD PUSH2 0xA89 JUMP JUMPDEST PUSH1 0x80 DUP3 ADD MSTORE PUSH1 0xA0 DUP4 ADD MLOAD PUSH1 0xFF DUP2 AND DUP2 EQ PUSH2 0xB46 JUMPI PUSH1 0x0 DUP1 REVERT JUMPDEST PUSH1 0xA0 DUP3 ADD MSTORE SWAP4 SWAP3 POP POP POP JUMP JUMPDEST PUSH4 0x4E487B71 PUSH1 0xE0 SHL PUSH1 0x0 MSTORE PUSH1 0x32 PUSH1 0x4 MSTORE PUSH1 0x24 PUSH1 0x0 REVERT JUMPDEST PUSH1 0x0 PUSH1 0x1 DUP3 ADD PUSH2 0xB88 JUMPI PUSH4 0x4E487B71 PUSH1 0xE0 SHL PUSH1 0x0 MSTORE PUSH1 0x11 PUSH1 0x4 MSTORE PUSH1 0x24 PUSH1 0x0 REVERT JUMPDEST POP PUSH1 0x1 ADD SWAP1 JUMP INVALID LOG2 PUSH5 0x6970667358 0x22 SLT KECCAK256 EXTCODECOPY MLOAD LT 0xB0 DUP11 BASEFEE BLOCKHASH PUSH4 0xBB06315F 0xE6 SWAP13 0x4D 0xC8 PUSH24 0x3A1782E59E718F7E46F91128E690C964736F6C6343000811 STOP CALLER ","sha1":"972ef6d38b7fd85e1a891b994056253cc02550c6","source":"// SPDX-License-Identifier: GPL-3.0-or-later\npragma solidity ^0.8.17;\n\nimport \"./access/ImmutableOwner.sol\";\nimport \"../libraries/DataTypes.sol\";\nimport \"../interfaces/ITierer.sol\";\nimport \"../interfaces/ITierStrategy.sol\";\n\ncontract ActionTierConfig is ImmutableOwner, ITierer {\n    mapping(bytes32 => ITierStrategy) internal _tierStrategies;\n\n    constructor(\n        address _owner,\n        StrategyConfig[] memory configs\n    ) ImmutableOwner(_owner) {\n        // special case to allow to initialize the contract with itself\n        // without knowing the address\n        for (uint256 i; i < configs.length; i++) {\n            if (configs[i]._contract == address(0)) {\n                configs[i]._contract = address(this);\n            }\n        }\n\n        _batchSetStrategy(configs, true);\n    }\n\n    struct StrategyConfig {\n        address _contract;\n        bytes4 _sig;\n        address _strategy;\n    }\n\n    function _ruleKey(\n        address _contract,\n        bytes4 _sig\n    ) internal pure returns (bytes32) {\n        return keccak256(abi.encodePacked(_contract, _sig));\n    }\n\n    function initializeStrategy(\n        address _contract,\n        bytes4 _sig,\n        address _strategy\n    ) external onlyOwner {\n        bytes32 ruleKey = _ruleKey(_contract, _sig);\n        require(\n            address(_tierStrategies[ruleKey]) == address(0),\n            \"strategy already set\"\n        );\n        _tierStrategies[ruleKey] = ITierStrategy(_strategy);\n    }\n\n    function batchInitializeStrategy(\n        StrategyConfig[] calldata configs\n    ) external onlyOwner {\n        _batchSetStrategy(configs, true);\n    }\n\n    function setStrategy(\n        address _contract,\n        bytes4 _sig,\n        address _strategy\n    ) external onlyOwner {\n        _tierStrategies[_ruleKey(_contract, _sig)] = ITierStrategy(_strategy);\n    }\n\n    function batchSetStrategy(\n        StrategyConfig[] calldata configs\n    ) external onlyOwner {\n        _batchSetStrategy(configs, false);\n    }\n\n    function _batchSetStrategy(\n        StrategyConfig[] memory configs,\n        bool initializing\n    ) internal {\n        for (uint256 i; i < configs.length; i++) {\n            bytes32 ruleKey = _ruleKey(configs[i]._contract, configs[i]._sig);\n            require(\n                !initializing ||\n                    address(_tierStrategies[ruleKey]) == address(0),\n                \"strategy already set\"\n            );\n            _tierStrategies[ruleKey] = ITierStrategy(configs[i]._strategy);\n        }\n    }\n\n    function getStrategy(\n        address _contract,\n        bytes4 _sig\n    ) external view returns (address) {\n        return address(_getStrategy(_contract, _sig));\n    }\n\n    function _getStrategy(\n        address _contract,\n        bytes4 _sig\n    ) internal view returns (ITierStrategy) {\n        ITierStrategy s = _tierStrategies[_ruleKey(_contract, _sig)];\n        require(address(s) != address(0), \"strategy not found\");\n        return s;\n    }\n\n    function getTier(\n        address _contract,\n        bytes calldata _calldata\n    ) external view returns (DataTypes.Tier memory) {\n        ITierStrategy strategy = _getStrategy(\n            _contract,\n            _getSelector(_calldata)\n        );\n        return strategy.getTier(_calldata);\n    }\n\n    function _getSelector(\n        bytes memory _calldata\n    ) internal pure returns (bytes4 out) {\n        assembly {\n            out := and(\n                mload(add(_calldata, 32)),\n                0xFFFFFFFF00000000000000000000000000000000000000000000000000000000\n            )\n        }\n    }\n}\n","sourcePath":"contracts/ActionTierConfig.sol","type":"contract","deployment":{"address":"0x8342b910815b0127c98e7717d4276c1d393478b6","chainid":"1","blockHeight":18363786}}