{"abi":[{"inputs":[{"internalType":"address","name":"_owner","type":"address"},{"internalType":"address","name":"_underlying","type":"address"},{"internalType":"address","name":"_rewardsToken","type":"address"},{"internalType":"address","name":"_daoTreasury","type":"address"}],"stateMutability":"nonpayable","type":"constructor","name":"constructor"},{"inputs":[{"internalType":"address","name":"actual","type":"address"},{"internalType":"address","name":"expected","type":"address"}],"name":"NotAuthorized","type":"error"},{"inputs":[],"name":"ZeroDivision","type":"error"},{"anonymous":false,"inputs":[{"indexed":true,"internalType":"address","name":"beneficiary","type":"address"},{"indexed":false,"internalType":"uint256","name":"amount","type":"uint256"}],"name":"Claim","type":"event"},{"anonymous":false,"inputs":[{"indexed":true,"internalType":"address","name":"from","type":"address"},{"indexed":true,"internalType":"address","name":"delegate","type":"address"},{"indexed":false,"internalType":"uint256","name":"amount","type":"uint256"}],"name":"Deposit","type":"event"},{"anonymous":false,"inputs":[{"indexed":false,"internalType":"uint8","name":"version","type":"uint8"}],"name":"Initialized","type":"event"},{"anonymous":false,"inputs":[{"indexed":true,"internalType":"address","name":"account","type":"address"},{"indexed":false,"internalType":"uint256","name":"amount","type":"uint256"}],"name":"Stake","type":"event"},{"anonymous":false,"inputs":[{"indexed":false,"internalType":"uint256","name":"amount","type":"uint256"},{"indexed":false,"internalType":"uint256","name":"endTime","type":"uint256"}],"name":"StartMining","type":"event"},{"anonymous":false,"inputs":[],"name":"StopMining","type":"event"},{"anonymous":false,"inputs":[{"indexed":true,"internalType":"address","name":"account","type":"address"},{"indexed":false,"internalType":"uint256","name":"amount","type":"uint256"}],"name":"Unstake","type":"event"},{"anonymous":false,"inputs":[{"indexed":false,"internalType":"address","name":"delegator","type":"address"},{"indexed":false,"internalType":"address","name":"delegate","type":"address"},{"indexed":false,"internalType":"uint256","name":"amount","type":"uint256"}],"name":"VotesDelegated","type":"event"},{"anonymous":false,"inputs":[{"indexed":false,"internalType":"address","name":"delegator","type":"address"},{"indexed":false,"internalType":"address","name":"delegate","type":"address"},{"indexed":false,"internalType":"uint256","name":"amount","type":"uint256"}],"name":"VotesUndelegated","type":"event"},{"anonymous":false,"inputs":[{"indexed":true,"internalType":"uint256","name":"id","type":"uint256"},{"indexed":true,"internalType":"address","name":"to","type":"address"},{"indexed":false,"internalType":"uint256","name":"amount","type":"uint256"}],"name":"WithdrawalCompleted","type":"event"},{"anonymous":false,"inputs":[{"indexed":true,"internalType":"uint256","name":"id","type":"uint256"},{"indexed":true,"internalType":"address","name":"to","type":"address"},{"indexed":true,"internalType":"address","name":"delegate","type":"address"},{"indexed":false,"internalType":"uint256","name":"withdrawalAt","type":"uint256"},{"indexed":false,"internalType":"uint256","name":"amount","type":"uint256"}],"name":"WithdrawalQueued","type":"event"},{"inputs":[{"internalType":"address","name":"_oldDelegate","type":"address"},{"internalType":"address","name":"_newDelegate","type":"address"},{"internalType":"uint256","name":"_amount","type":"uint256"}],"name":"changeDelegate","outputs":[],"stateMutability":"nonpayable","type":"function"},{"inputs":[],"name":"claimRewards","outputs":[{"internalType":"uint256","name":"","type":"uint256"}],"stateMutability":"nonpayable","type":"function"},{"inputs":[{"internalType":"address","name":"beneficiary","type":"address"}],"name":"claimableRewards","outputs":[{"internalType":"uint256","name":"","type":"uint256"}],"stateMutability":"view","type":"function"},{"inputs":[],"name":"daoTreasury","outputs":[{"internalType":"address","name":"","type":"address"}],"stateMutability":"view","type":"function"},{"inputs":[{"internalType":"address","name":"_delegate","type":"address"},{"internalType":"uint256","name":"_amount","type":"uint256"}],"name":"delegateVote","outputs":[],"stateMutability":"nonpayable","type":"function"},{"inputs":[{"internalType":"uint256","name":"_tokenAmount","type":"uint256"},{"internalType":"address","name":"_delegate","type":"address"}],"name":"deposit","outputs":[],"stateMutability":"nonpayable","type":"function"},{"inputs":[{"internalType":"uint256","name":"_amount","type":"uint256"}],"name":"deposit","outputs":[],"stateMutability":"nonpayable","type":"function"},{"inputs":[{"internalType":"address","name":"account","type":"address"}],"name":"getCurrentRecord","outputs":[{"components":[{"internalType":"uint256","name":"at","type":"uint256"},{"internalType":"uint256","name":"baseVotingPower","type":"uint256"},{"internalType":"uint256","name":"multiplier","type":"uint256"},{"internalType":"int256","name":"netDelegatedVotes","type":"int256"}],"internalType":"struct VotingPowerHistory.Record","name":"","type":"tuple"}],"stateMutability":"view","type":"function"},{"inputs":[{"internalType":"address","name":"account","type":"address"}],"name":"getDelegations","outputs":[{"components":[{"internalType":"address","name":"delegate","type":"address"},{"internalType":"uint256","name":"amount","type":"uint256"}],"internalType":"struct DataTypes.Delegation[]","name":"delegations","type":"tuple[]"}],"stateMutability":"view","type":"function"},{"inputs":[{"internalType":"address","name":"account","type":"address"}],"name":"getRawVotingPower","outputs":[{"internalType":"uint256","name":"","type":"uint256"}],"stateMutability":"view","type":"function"},{"inputs":[{"internalType":"address","name":"_user","type":"address"},{"internalType":"uint256","name":"timestamp","type":"uint256"}],"name":"getRawVotingPower","outputs":[{"internalType":"uint256","name":"","type":"uint256"}],"stateMutability":"view","type":"function"},{"inputs":[],"name":"getTotalRawVotingPower","outputs":[{"internalType":"uint256","name":"","type":"uint256"}],"stateMutability":"view","type":"function"},{"inputs":[],"name":"getVaultType","outputs":[{"internalType":"string","name":"","type":"string"}],"stateMutability":"pure","type":"function"},{"inputs":[],"name":"globalCheckpoint","outputs":[],"stateMutability":"nonpayable","type":"function"},{"inputs":[{"internalType":"uint256","name":"_withdrawalWaitDuration","type":"uint256"}],"name":"initialize","outputs":[],"stateMutability":"nonpayable","type":"function"},{"inputs":[{"internalType":"uint256","name":"_vaultTokenAmount","type":"uint256"},{"internalType":"address","name":"_delegate","type":"address"}],"name":"initiateWithdrawal","outputs":[{"internalType":"uint256","name":"","type":"uint256"}],"stateMutability":"nonpayable","type":"function"},{"inputs":[{"internalType":"address","name":"_user","type":"address"}],"name":"listPendingWithdrawals","outputs":[{"components":[{"internalType":"uint256","name":"id","type":"uint256"},{"internalType":"uint256","name":"withdrawableAt","type":"uint256"},{"internalType":"uint256","name":"amount","type":"uint256"},{"internalType":"address","name":"to","type":"address"},{"internalType":"address","name":"delegate","type":"address"}],"internalType":"struct DataTypes.PendingWithdrawal[]","name":"","type":"tuple[]"}],"stateMutability":"view","type":"function"},{"inputs":[],"name":"owner","outputs":[{"internalType":"address","name":"","type":"address"}],"stateMutability":"view","type":"function"},{"inputs":[],"name":"rewardToken","outputs":[{"internalType":"contract IERC20","name":"","type":"address"}],"stateMutability":"view","type":"function"},{"inputs":[],"name":"rewardsEmissionEndTime","outputs":[{"internalType":"uint256","name":"","type":"uint256"}],"stateMutability":"view","type":"function"},{"inputs":[],"name":"rewardsEmissionRate","outputs":[{"internalType":"uint256","name":"","type":"uint256"}],"stateMutability":"view","type":"function"},{"inputs":[{"internalType":"uint256","name":"_duration","type":"uint256"}],"name":"setWithdrawalWaitDuration","outputs":[],"stateMutability":"nonpayable","type":"function"},{"inputs":[{"internalType":"address","name":"account","type":"address"}],"name":"stakedBalanceOf","outputs":[{"internalType":"uint256","name":"","type":"uint256"}],"stateMutability":"view","type":"function"},{"inputs":[{"internalType":"address","name":"rewardsFrom","type":"address"},{"internalType":"uint256","name":"amount","type":"uint256"},{"internalType":"uint256","name":"endTime","type":"uint256"}],"name":"startMining","outputs":[],"stateMutability":"nonpayable","type":"function"},{"inputs":[],"name":"stopMining","outputs":[],"stateMutability":"nonpayable","type":"function"},{"inputs":[],"name":"totalStaked","outputs":[{"internalType":"uint256","name":"","type":"uint256"}],"stateMutability":"view","type":"function"},{"inputs":[],"name":"totalSupply","outputs":[{"internalType":"uint256","name":"","type":"uint256"}],"stateMutability":"view","type":"function"},{"inputs":[{"internalType":"address","name":"_delegate","type":"address"},{"internalType":"uint256","name":"_amount","type":"uint256"}],"name":"undelegateVote","outputs":[],"stateMutability":"nonpayable","type":"function"},{"inputs":[],"name":"underlying","outputs":[{"internalType":"contract IERC20","name":"","type":"address"}],"stateMutability":"view","type":"function"},{"inputs":[{"internalType":"address","name":"account","type":"address"}],"name":"userCheckpoint","outputs":[],"stateMutability":"nonpayable","type":"function"},{"inputs":[{"internalType":"uint256","name":"withdrawalId","type":"uint256"}],"name":"withdraw","outputs":[],"stateMutability":"nonpayable","type":"function"}],"bytecode":"6101206040523480156200001257600080fd5b5060405162002fbc38038062002fbc8339810160408190526200003591620000eb565b6001600160a01b038085166080524260085580831660a05280821660c052831660e08190526040805163313ce56760e01b8152905163313ce567916004808201926020929091908290030181865afa15801562000096573d6000803e3d6000fd5b505050506040513d601f19601f82011682018060405250810190620000bc919062000148565b60ff1661010052506200017492505050565b80516001600160a01b0381168114620000e657600080fd5b919050565b600080600080608085870312156200010257600080fd5b6200010d85620000ce565b93506200011d60208601620000ce565b92506200012d60408601620000ce565b91506200013d60608601620000ce565b905092959194509250565b6000602082840312156200015b57600080fd5b815160ff811681146200016d57600080fd5b9392505050565b60805160a05160c05160e05161010051612da16200021b600039600081816106ab0152610de5015260008181610309015281816106fe0152610d4f0152600081816103750152611ba50152600081816104a7015281816116000152818161164201528181611aff0152611b830152600081816103a5015281816109c701528181610a0901528181611120015281816111620152818161127401526112b60152612da16000f3fe608060405234801561001057600080fd5b50600436106101e55760003560e01c8063817b1cd21161010f578063cead0481116100a2578063e2fcf55011610071578063e2fcf5501461047c578063e9314c731461048f578063f7c618c1146104a2578063fe4b84df146104c957600080fd5b8063cead04811461043b578063da4086791461044e578063dc01f60d14610456578063de1ec4031461046957600080fd5b80639f1acf08116100de5780639f1acf08146103e2578063b07b709b146103f5578063b6b55f2514610408578063c24ab3bb1461041b57600080fd5b8063817b1cd2146103975780638da5cb5b146103a0578063926f7327146103c757806397a04d5a146103da57600080fd5b8063372500ab116101875780636e553f65116101565780636e553f65146102f15780636f307dc31461030457806375baf37f1461034357806379022a9f1461037057600080fd5b8063372500ab146102ba5780634a62c9fb146102c25780634ba9699e146102cb57806354438127146102de57600080fd5b80631ac40e66116101c35780631ac40e66146102755780632e1a7d4d1461027f57806331cc13ba14610292578063344ff1d0146102b257600080fd5b806316765391146101ea57806318160ddd1461022657806319ad0eba1461022f575b600080fd5b6102136101f83660046128d8565b6001600160a01b03166000908152600c602052604090205490565b6040519081526020015b60405180910390f35b61021360135481565b61024261023d3660046128d8565b6104dc565b60405161021d91908151815260208083015190820152604080830151908201526060918201519181019190915260800190565b61027d610518565b005b61027d61028d3660046128f3565b61058d565b6102a56102a03660046128d8565b610822565b60405161021d919061290c565b601354610213565b61021361091d565b610213600e5481565b61027d6102d9366004612964565b6109bc565b6102136102ec366004612997565b610a46565b61027d6102ff366004612997565b610c9d565b61032b7f000000000000000000000000000000000000000000000000000000000000000081565b6040516001600160a01b03909116815260200161021d565b604080518082018252600b81526a131bd8dad95915985d5b1d60aa1b6020820152905161021d91906129e7565b61032b7f000000000000000000000000000000000000000000000000000000000000000081565b61021360065481565b61032b7f000000000000000000000000000000000000000000000000000000000000000081565b61027d6103d5366004612a1a565b610ebc565b610213610ecb565b6102136103f03660046128d8565b610ee4565b61027d6104033660046128d8565b610ef0565b61027d6104163660046128f3565b610f8b565b61042e6104293660046128d8565b610f98565b60405161021d9190612a44565b61027d610449366004612ab4565b6110ff565b61027d611115565b6102136104643660046128d8565b611199565b610213610477366004612a1a565b611250565b61027d61048a366004612a1a565b61125e565b61027d61049d3660046128f3565b611269565b61032b7f000000000000000000000000000000000000000000000000000000000000000081565b61027d6104d73660046128f3565b6112e8565b6105076040518060800160405280600081526020016000815260200160008152602001600081525090565b6105126001836113fe565b92915050565b6006548015610586576000600854426105319190612b06565b905060008161053e610ecb565b6105489190612b19565b9050610554818461150c565b600760008282546105659190612b30565b92505081905550806009600082825461057e9190612b30565b909155505050505b5042600855565b600081815260116020908152604091829020825160a0810184528154815260018201549281019290925260028101549282019290925260038201546001600160a01b03908116606083018190526004909301541660808201529033146106455760405162461bcd60e51b815260206004820152602260248201527f6d61746368696e67207769746864726177616c20646f6573206e6f74206578696044820152611cdd60f21b60648201526084015b60405180910390fd5b42816020015111156106995760405162461bcd60e51b815260206004820152601b60248201527f6e6f2076616c69642070656e64696e67207769746864726177616c0000000000604482015260640161063c565b60408101516000906106d090601260ff7f00000000000000000000000000000000000000000000000000000000000000001661155f565b606083015160405163a9059cbb60e01b81526001600160a01b039182166004820152602481018390529192507f0000000000000000000000000000000000000000000000000000000000000000169063a9059cbb906044016020604051808303816000875af1158015610747573d6000803e3d6000fd5b505050506040513d601f19601f8201168201806040525081019061076b9190612b43565b50600083815260116020908152604080832083815560018101849055600281018490556003810180546001600160a01b031990811690915560049091018054909116905560608501516001600160a01b03168352601090915290206107d090846115bc565b5081606001516001600160a01b0316837f096793b0307a8bedd30923ee6c6a84d492646dd968c25a0c714296a68c74aceb846040015160405161081591815260200190565b60405180910390a3505050565b6001600160a01b0381166000908152600560205260408120606091610846826115c8565b90508067ffffffffffffffff81111561086157610861612b65565b6040519080825280602002602001820160405280156108a657816020015b604080518082019091526000808252602082015281526020019060019003908161087f5790505b50925060005b81811015610915576000806108c185846115d3565b915091506040518060400160405280836001600160a01b03168152602001828152508684815181106108f5576108f5612b7b565b60200260200101819052505050808061090d90612b91565b9150506108ac565b505050919050565b600061092833610ef0565b336000908152600b60205260408120549081900361094857600091505090565b336000818152600b602052604080822091909155517f47cee97cb7acd717b3c0aa1435d004cd5b3c8c57d70dbceb4e4458bbd60e39d49061098c9084815260200190565b60405180910390a280600960008282546109a69190612b06565b909155506109b6905033826115f1565b91505090565b336001600160a01b037f00000000000000000000000000000000000000000000000000000000000000001614610a365760405163c55ddc9760e01b81523360048201526001600160a01b037f000000000000000000000000000000000000000000000000000000000000000016602482015260440161063c565b610a4183838361162d565b505050565b600080610a546001336113fe565b905060006001600160a01b03841615801590610a7957506001600160a01b0384163314155b905084826020015110158015610ab557508080610ab557503360009081526003602052604090205485908360200151610ab29190612b06565b10155b610b015760405162461bcd60e51b815260206004820152601860248201527f6e6f7420656e6f75676820746f20756e64656c65676174650000000000000000604482015260640161063c565b610b2a33868460200151610b159190612b06565b604085015160608601516001939291906116c4565b508015610b3c57610b3c338587611808565b8460136000828254610b4e9190612b06565b90915550610b5e9050338661189d565b60006040518060a001604052806012548152602001600f5442610b819190612b30565b815260208082018990523360408084018290526001600160a01b038a811660609586015285516000908152601185528281208751808255888701516001830155888501516002830155968801516003820180549185166001600160a01b031992831617905560808901516004909201805492909416911617909155918252601090925220919250610c12919061192f565b5060128054906000610c2383612b91565b919050555080608001516001600160a01b031681606001516001600160a01b031682600001517f20849eb8a3d11461c2f45d1330d7cdfdcf0359148aaa26d84af32b9596e32b9484602001518560400151604051610c8b929190918252602082015260400190565b60405180910390a45195945050505050565b6001600160a01b038116610ce85760405162461bcd60e51b815260206004820152601260248201527106e6f2064656c65676174696f6e20746f20360741b604482015260640161063c565b60008211610d385760405162461bcd60e51b815260206004820152601a60248201527f63616e6e6f74206465706f736974207a65726f20616d6f756e74000000000000604482015260640161063c565b6040516323b872dd60e01b81526001600160a01b037f000000000000000000000000000000000000000000000000000000000000000016906323b872dd90610d8890339030908790600401612baa565b6020604051808303816000875af1158015610da7573d6000803e3d6000fd5b505050506040513d601f19601f82011682018060405250810190610dcb9190612b43565b506000610dd96001336113fe565b90506000610e0c8460ff7f000000000000000000000000000000000000000000000000000000000000000016601261155f565b9050610e2233828460200151610b159190612b30565b506001600160a01b03831615801590610e4457506001600160a01b0383163314155b15610e5457610e5433848361193b565b8060136000828254610e669190612b30565b90915550610e7690503382611a0c565b6040518481526001600160a01b0384169033907f5548c837ab068cf56a2c2479df0882a4922fd203edb7517321831d95078c5f629060200160405180910390a350505050565b610ec733838361193b565b5050565b6000600e54421115610edd5750600090565b50600d5490565b60006105128242611250565b610ef8610518565b6007546001600160a01b0382166000908152600a6020526040902054610f4290610f229083612b06565b6001600160a01b0384166000908152600c60205260409020545b90611a94565b6001600160a01b0383166000908152600b602052604081208054909190610f6a908490612b30565b90915550506001600160a01b039091166000908152600a6020526040902055565b610f958133610c9d565b50565b6001600160a01b0381166000908152601060205260408120606091610fbc82611abd565b67ffffffffffffffff811115610fd457610fd4612b65565b60405190808252806020026020018201604052801561104957816020015b6110366040518060a0016040528060008152602001600081526020016000815260200160006001600160a01b0316815260200160006001600160a01b031681525090565b815260200190600190039081610ff25790505b50905060005b61105883611abd565b8110156110f7576011600061106d8584611ac7565b81526020808201929092526040908101600020815160a0810183528154815260018201549381019390935260028101549183019190915260038101546001600160a01b03908116606084015260049091015416608082015282518390839081106110d9576110d9612b7b565b602002602001018190525080806110ef90612b91565b91505061104f565b509392505050565b61110a338483611808565b610a4133838361193b565b336001600160a01b037f0000000000000000000000000000000000000000000000000000000000000000161461118f5760405163c55ddc9760e01b81523360048201526001600160a01b037f000000000000000000000000000000000000000000000000000000000000000016602482015260440161063c565b611197611ad3565b565b60075460065460009190156111e1576111d4600654600854426111bc9190612b06565b6111c4610ecb565b6111ce9190612b19565b9061150c565b6111de9082612b30565b90505b6001600160a01b0383166000908152600a6020526040902054611226906112089083612b06565b6001600160a01b0385166000908152600c6020526040902054610f3c565b6001600160a01b0384166000908152600b60205260409020546112499190612b30565b9392505050565b600061124960018484611bfb565b610ec7338383611808565b336001600160a01b037f000000000000000000000000000000000000000000000000000000000000000016146112e35760405163c55ddc9760e01b81523360048201526001600160a01b037f000000000000000000000000000000000000000000000000000000000000000016602482015260440161063c565b600f55565b600054610100900460ff16158080156113085750600054600160ff909116105b806113225750303b158015611322575060005460ff166001145b6113855760405162461bcd60e51b815260206004820152602e60248201527f496e697469616c697a61626c653a20636f6e747261637420697320616c72656160448201526d191e481a5b9a5d1a585b1a5e995960921b606482015260840161063c565b6000805460ff1916600117905580156113a8576000805461ff0019166101001790555b600f8290556113b5610518565b8015610ec7576000805461ff0019169055604051600181527f7f26b83ff96e1f2b6a682f133852f6798a09c465da95921460cefb38474024989060200160405180910390a15050565b6114296040518060800160405280600081526020016000815260200160008152602001600081525090565b6001600160a01b03821660009081526020848152604080832080548251818502810185019093528083529192909190849084015b828210156114b757838290600052602060002090600402016040518060800160405290816000820154815260200160018201548152602001600282015481526020016003820154815250508152602001906001019061145d565b50505050905080516000036114d6576114ce611cac565b915050610512565b80600182516114e59190612b06565b815181106114f5576114f5612b7b565b6020026020010151915050610512565b5092915050565b60008160000361152f57604051630a0c22c760e01b815260040160405180910390fd5b8260000361153f57506000610512565b6000611553670de0b6b3a764000085612b19565b90506114ce8382612bce565b600081830361156f575082611249565b8183101561159d576115818383612b06565b61158c90600a612ccc565b6115969085612b19565b9050611249565b6115a78284612b06565b6115b290600a612ccc565b6115969085612bce565b60006112498383611d08565b600061051282611dfb565b60008080806115e28686611e06565b909450925050505b9250929050565b60006116276001600160a01b037f0000000000000000000000000000000000000000000000000000000000000000168484611e31565b50919050565b611635610518565b61166a6001600160a01b037f000000000000000000000000000000000000000000000000000000000000000016843085611e94565b6116744282612b06565b61167e9083612bce565b600d55600e81905560408051838152602081018390527f76554fac4477e8876b3de3af392cf374cf4e9de02ae78fbade2373107381fe50910160405180910390a1505050565b6116ef6040518060800160405280600081526020016000815260200160008152602001600081525090565b6001600160a01b0385166000908152602087815260408083208151608081018352428152928301889052908201869052606082018590529161173189896113fe565b8051909150421480156117445750825415155b156117a95782548290849061175b90600190612b06565b8154811061176b5761176b612b7b565b9060005260206000209060040201600082015181600001556020820151816001015560408201518160020155606082015181600301559050506117fc565b6001600160a01b038816600090815260208a815260408083208054600181810183559185529383902086516004909502019384559185015191830191909155830151600282015560608301516003909101555b50979650505050505050565b6118156001848484611eb5565b6001600160a01b03831660009081526005602052604081206118379084612092565b9050818103611868576001600160a01b038416600090815260056020526040902061186290846120a7565b50611897565b611895836118768484612b06565b6001600160a01b038716600090815260056020526040902091906120bc565b505b50505050565b6118a682610ef0565b6001600160a01b0382166000908152600c6020526040812080548392906118ce908490612b06565b9250508190555080600660008282546118e79190612b06565b90915550506040518181526001600160a01b038316907f85082129d87b2fe11527cb1b3b7a520aeb5aa6913f88a3d8757fe40d1db02fdd906020015b60405180910390a25050565b600061124983836120d2565b6001600160a01b0382166119915760405162461bcd60e51b815260206004820152601c60248201527f63616e6e6f742064656c656761746520746f2030206164647265737300000000604482015260640161063c565b61199e6001848484612121565b6001600160a01b038316600090815260056020526040812081906119c290856122f2565b915091506000826119d357836119dd565b6119dd8483612b30565b6001600160a01b0387166000908152600560205260409020909150611a039086836120bc565b50505050505050565b611a1582610ef0565b8060066000828254611a279190612b30565b90915550506001600160a01b0382166000908152600c602052604081208054839290611a54908490612b30565b90915550506040518181526001600160a01b038316907febedb8b3c678666e7f36970bc8f57abf6d8fa2e828c0da91ea5b75bf68ed101a90602001611923565b600080611aa18385612b19565b9050611ab5670de0b6b3a764000082612bce565b949350505050565b6000610512825490565b6000611249838361230a565b611adb610518565b6009546040516370a0823160e01b8152306004820152600091906001600160a01b037f000000000000000000000000000000000000000000000000000000000000000016906370a0823190602401602060405180830381865afa158015611b46573d6000803e3d6000fd5b505050506040513d601f19601f82011682018060405250810190611b6a9190612cd8565b611b749190612b06565b9050611bca6001600160a01b037f0000000000000000000000000000000000000000000000000000000000000000167f000000000000000000000000000000000000000000000000000000000000000083611e31565b6000600e8190556040517fe5a0e15e63edb96a15ed99a9c2a3674e2e0bd1b10b65d0223cce19a6b54e7fb19190a150565b6001600160a01b03821660009081526020848152604080832080548251818502810185019093528083528493611c9793929190859084015b82821015611c8d578382906000526020600020906004020160405180608001604052908160008201548152602001600182015481526020016002820154815260200160038201548152505081526020019060010190611c33565b5050505084612334565b915050611ca38161237a565b95945050505050565b611cd76040518060800160405280600081526020016000815260200160008152602001600081525090565b60405180608001604052806000815260200160008152602001670de0b6b3a764000081526020016000815250905090565b60008181526001830160205260408120548015611df1576000611d2c600183612b06565b8554909150600090611d4090600190612b06565b9050818114611da5576000866000018281548110611d6057611d60612b7b565b9060005260206000200154905080876000018481548110611d8357611d83612b7b565b6000918252602080832090910192909255918252600188019052604090208390555b8554869080611db657611db6612cf1565b600190038181906000526020600020016000905590558560010160008681526020019081526020016000206000905560019350505050610512565b6000915050610512565b600061051282611abd565b60008080611e148585611ac7565b600081815260029690960160205260409095205494959350505050565b6040516001600160a01b038316602482015260448101829052610a4190849063a9059cbb60e01b906064015b60408051601f198184030181529190526020810180516001600160e01b03166001600160e01b0319909316929092179091526123a6565b611897846323b872dd60e01b858585604051602401611e5d93929190612baa565b6001600160a01b038084166000908152600186016020908152604080832093861683529290522054811115611f3e5760405162461bcd60e51b815260206004820152602960248201527f7573657220686173206e6f742064656c65676174656420656e6f75676820746f6044820152682064656c656761746560b81b606482015260840161063c565b6001600160a01b038216600090815260038501602052604081208054839290611f68908490612b06565b90915550506001600160a01b038316600090815260028501602052604081208054839290611f97908490612b06565b90915550506001600160a01b038084166000908152600186016020908152604080832093861683529290529081208054839290611fd5908490612b06565b9091555060009050611fe785856113fe565b9050612014848260200151836040015161200a888a61247890919063ffffffff16565b89939291906116c4565b50600061202186856113fe565b905061204e8482602001518360400151612044888b61247890919063ffffffff16565b8a939291906116c4565b507fde5aa493a93d4351631c1991a0aeecfd52d6b51cf1b61f1a3c48f97e2680865385858560405161208293929190612baa565b60405180910390a1505050505050565b6000611249836001600160a01b0384166124aa565b6000611249836001600160a01b03841661251a565b6000611ab5846001600160a01b03851684612537565b600081815260018301602052604081205461211957508154600181810184556000848152602080822090930184905584548482528286019093526040902091909155610512565b506000610512565b600061212d85856113fe565b6001600160a01b03851660009081526002870160209081526040808320549084015191840151939450919261216191612554565b61216b9190612b06565b9050828110156121bd5760405162461bcd60e51b815260206004820181905260248201527f696e73756666696369656e742062616c616e636520746f2064656c6567617465604482015260640161063c565b6001600160a01b0384166000908152600387016020526040812080548592906121e7908490612b30565b90915550506001600160a01b038516600090815260028701602052604081208054859290612216908490612b30565b90915550506001600160a01b038086166000908152600188016020908152604080832093881683529290529081208054859290612254908490612b30565b9091555050602082015160408301516122739187916120448a84612478565b50600061228087866113fe565b90506122ad85826020015183604001516122a3898c61247890919063ffffffff16565b8b939291906116c4565b507fff825f9424124effc5ce1d9f4803d58ede8a2bda4da2324810f74834715c4c598686866040516122e193929190612baa565b60405180910390a150505050505050565b60008080806115e2866001600160a01b038716612573565b600082600001828154811061232157612321612b7b565b9060005260206000200154905092915050565b60006123616040518060800160405280600081526020016000815260200160008152602001600081525090565b61236f8484600087516125b5565b915091509250929050565b6000816060015161239c8360400151846020015161255490919063ffffffff16565b6105129190612d07565b60006123fb826040518060400160405280602081526020017f5361666545524332303a206c6f772d6c6576656c2063616c6c206661696c6564815250856001600160a01b03166127109092919063ffffffff16565b805190915015610a4157808060200190518101906124199190612b43565b610a415760405162461bcd60e51b815260206004820152602a60248201527f5361666545524332303a204552433230206f7065726174696f6e20646964206e6044820152691bdd081cdd58d8d9595960b21b606482015260840161063c565b6001600160a01b0381166000908152600283016020908152604080832054600386019092528220546112499190612d2f565b6000818152600283016020526040812054801515806124ce57506124ce848461271f565b6112495760405162461bcd60e51b815260206004820152601e60248201527f456e756d657261626c654d61703a206e6f6e6578697374656e74206b65790000604482015260640161063c565b6000818152600283016020526040812081905561124983836115bc565b60008281526002840160205260408120829055611ab5848461192f565b6000670de0b6b3a76400006125698385612b19565b6112499190612bce565b60008181526002830160205260408120548190806125a257612595858561271f565b9250600091506115ea9050565b6001925090506115ea565b509250929050565b60006125e26040518060800160405280600081526020016000815260200160008152602001600081525090565b8284106125fc5760006125f3611cac565b91509150612707565b6126068484612b06565b60010361265457600086858151811061262157612621612b7b565b602002602001015190508581600001511115612646576000612641611cac565b61264a565b6001815b9250925050612707565b600060026126628686612b30565b61266c9190612bce565b905060008761267c600184612b06565b8151811061268c5761268c612b7b565b6020026020010151905060008883815181106126aa576126aa612b7b565b60200260200101519050878260000151111580156126c85750805188105b156126db57506001935091506127079050565b805188106126fb576126ef898985896125b5565b94509450505050612707565b6126ef898989866125b5565b94509492505050565b6060611ab5848460008561272b565b60006112498383612806565b60608247101561278c5760405162461bcd60e51b815260206004820152602660248201527f416464726573733a20696e73756666696369656e742062616c616e636520666f6044820152651c8818d85b1b60d21b606482015260840161063c565b600080866001600160a01b031685876040516127a89190612d4f565b60006040518083038185875af1925050503d80600081146127e5576040519150601f19603f3d011682016040523d82523d6000602084013e6127ea565b606091505b50915091506127fb8783838761281e565b979650505050505050565b60008181526001830160205260408120541515611249565b6060831561288d578251600003612886576001600160a01b0385163b6128865760405162461bcd60e51b815260206004820152601d60248201527f416464726573733a2063616c6c20746f206e6f6e2d636f6e7472616374000000604482015260640161063c565b5081611ab5565b611ab583838151156128a25781518083602001fd5b8060405162461bcd60e51b815260040161063c91906129e7565b80356001600160a01b03811681146128d357600080fd5b919050565b6000602082840312156128ea57600080fd5b611249826128bc565b60006020828403121561290557600080fd5b5035919050565b602080825282518282018190526000919060409081850190868401855b8281101561295757815180516001600160a01b03168552860151868501529284019290850190600101612929565b5091979650505050505050565b60008060006060848603121561297957600080fd5b612982846128bc565b95602085013595506040909401359392505050565b600080604083850312156129aa57600080fd5b823591506129ba602084016128bc565b90509250929050565b60005b838110156129de5781810151838201526020016129c6565b50506000910152565b6020815260008251806020840152612a068160408501602087016129c3565b601f01601f19169190910160400192915050565b60008060408385031215612a2d57600080fd5b612a36836128bc565b946020939093013593505050565b602080825282518282018190526000919060409081850190868401855b8281101561295757815180518552868101518786015285810151868601526060808201516001600160a01b0390811691870191909152608091820151169085015260a09093019290850190600101612a61565b600080600060608486031215612ac957600080fd5b612ad2846128bc565b9250612ae0602085016128bc565b9150604084013590509250925092565b634e487b7160e01b600052601160045260246000fd5b8181038181111561051257610512612af0565b808202811582820484141761051257610512612af0565b8082018082111561051257610512612af0565b600060208284031215612b5557600080fd5b8151801515811461124957600080fd5b634e487b7160e01b600052604160045260246000fd5b634e487b7160e01b600052603260045260246000fd5b600060018201612ba357612ba3612af0565b5060010190565b6001600160a01b039384168152919092166020820152604081019190915260600190565b600082612beb57634e487b7160e01b600052601260045260246000fd5b500490565b600181815b808511156125ad578160001904821115612c1157612c11612af0565b80851615612c1e57918102915b93841c9390800290612bf5565b600082612c3a57506001610512565b81612c4757506000610512565b8160018114612c5d5760028114612c6757612c83565b6001915050610512565b60ff841115612c7857612c78612af0565b50506001821b610512565b5060208310610133831016604e8410600b8410161715612ca6575081810a610512565b612cb08383612bf0565b8060001904821115612cc457612cc4612af0565b029392505050565b60006112498383612c2b565b600060208284031215612cea57600080fd5b5051919050565b634e487b7160e01b600052603160045260246000fd5b8082018281126000831280158216821582161715612d2757612d27612af0565b505092915050565b818103600083128015838313168383128216171561150557611505612af0565b60008251612d618184602087016129c3565b919091019291505056fea26469706673582212209453fecd65dd45f07500703abd4f594f22b08bdf7a33c93ff7d1d32ef7dfe5e764736f6c63430008110033","bytecodeSha1":"66db77e8f3f72084419b5cba09d3629187f67a3a","compiler":{"evm_version":"istanbul","optimizer":{"enabled":true,"runs":200},"version":"0.8.17+commit.8df45f5f"},"contractName":"LockedVault","language":"Solidity","natspec":{"kind":"dev","methods":{"claimRewards()":{"notice":"claims rewards for caller"},"claimableRewards(address)":{"notice":"returns the amount of claimable rewards by `beneficiary`"},"globalCheckpoint()":{"details":"these functions will be called internally but can typically be called by anyone to update the internal tracking state of the contract"},"rewardsEmissionEndTime()":{"notice":"time when rewards emission ends"},"rewardsEmissionRate()":{"notice":"returns the number of rewards token that will be given per second for the contract This emission will be given to all stakers in the contract proportionally to their stake"},"stakedBalanceOf(address)":{"notice":"the amount of tokens staked by `account`"},"startMining(address,uint256,uint256)":{"notice":"Deposit `amount` of the reward token from `rewardsFrom` and enable rewards until `endTime`. Typically governanceOnly. `amount` is spread evenly over the time period."},"stopMining()":{"notice":"Stop liquidity mining early and reimburse leftover rewards to the DAO treasury. This may also be needed after the mining period has ended when we had `totalStaked() == 0` for a while, where no rewards accrue."},"totalStaked()":{"notice":"the total amount of tokens staked in the contract"}},"version":1},"opcodes":"PUSH1 0x80 PUSH1 0x40 MSTORE CALLVALUE DUP1 ISZERO PUSH2 0x10 JUMPI PUSH1 0x0 DUP1 REVERT JUMPDEST POP PUSH1 0x4 CALLDATASIZE LT PUSH2 0x1E5 JUMPI PUSH1 0x0 CALLDATALOAD PUSH1 0xE0 SHR DUP1 PUSH4 0x817B1CD2 GT PUSH2 0x10F JUMPI DUP1 PUSH4 0xCEAD0481 GT PUSH2 0xA2 JUMPI DUP1 PUSH4 0xE2FCF550 GT PUSH2 0x71 JUMPI DUP1 PUSH4 0xE2FCF550 EQ PUSH2 0x47C JUMPI DUP1 PUSH4 0xE9314C73 EQ PUSH2 0x48F JUMPI DUP1 PUSH4 0xF7C618C1 EQ PUSH2 0x4A2 JUMPI DUP1 PUSH4 0xFE4B84DF EQ PUSH2 0x4C9 JUMPI PUSH1 0x0 DUP1 REVERT JUMPDEST DUP1 PUSH4 0xCEAD0481 EQ PUSH2 0x43B JUMPI DUP1 PUSH4 0xDA408679 EQ PUSH2 0x44E JUMPI DUP1 PUSH4 0xDC01F60D EQ PUSH2 0x456 JUMPI DUP1 PUSH4 0xDE1EC403 EQ PUSH2 0x469 JUMPI PUSH1 0x0 DUP1 REVERT JUMPDEST DUP1 PUSH4 0x9F1ACF08 GT PUSH2 0xDE JUMPI DUP1 PUSH4 0x9F1ACF08 EQ PUSH2 0x3E2 JUMPI DUP1 PUSH4 0xB07B709B EQ PUSH2 0x3F5 JUMPI DUP1 PUSH4 0xB6B55F25 EQ PUSH2 0x408 JUMPI DUP1 PUSH4 0xC24AB3BB EQ PUSH2 0x41B JUMPI PUSH1 0x0 DUP1 REVERT JUMPDEST DUP1 PUSH4 0x817B1CD2 EQ PUSH2 0x397 JUMPI DUP1 PUSH4 0x8DA5CB5B EQ PUSH2 0x3A0 JUMPI DUP1 PUSH4 0x926F7327 EQ PUSH2 0x3C7 JUMPI DUP1 PUSH4 0x97A04D5A EQ PUSH2 0x3DA JUMPI PUSH1 0x0 DUP1 REVERT JUMPDEST DUP1 PUSH4 0x372500AB GT PUSH2 0x187 JUMPI DUP1 PUSH4 0x6E553F65 GT PUSH2 0x156 JUMPI DUP1 PUSH4 0x6E553F65 EQ PUSH2 0x2F1 JUMPI DUP1 PUSH4 0x6F307DC3 EQ PUSH2 0x304 JUMPI DUP1 PUSH4 0x75BAF37F EQ PUSH2 0x343 JUMPI DUP1 PUSH4 0x79022A9F EQ PUSH2 0x370 JUMPI PUSH1 0x0 DUP1 REVERT JUMPDEST DUP1 PUSH4 0x372500AB EQ PUSH2 0x2BA JUMPI DUP1 PUSH4 0x4A62C9FB EQ PUSH2 0x2C2 JUMPI DUP1 PUSH4 0x4BA9699E EQ PUSH2 0x2CB JUMPI DUP1 PUSH4 0x54438127 EQ PUSH2 0x2DE JUMPI PUSH1 0x0 DUP1 REVERT JUMPDEST DUP1 PUSH4 0x1AC40E66 GT PUSH2 0x1C3 JUMPI DUP1 PUSH4 0x1AC40E66 EQ PUSH2 0x275 JUMPI DUP1 PUSH4 0x2E1A7D4D EQ PUSH2 0x27F JUMPI DUP1 PUSH4 0x31CC13BA EQ PUSH2 0x292 JUMPI DUP1 PUSH4 0x344FF1D0 EQ PUSH2 0x2B2 JUMPI PUSH1 0x0 DUP1 REVERT JUMPDEST DUP1 PUSH4 0x16765391 EQ PUSH2 0x1EA JUMPI DUP1 PUSH4 0x18160DDD EQ PUSH2 0x226 JUMPI DUP1 PUSH4 0x19AD0EBA EQ PUSH2 0x22F JUMPI JUMPDEST PUSH1 0x0 DUP1 REVERT JUMPDEST PUSH2 0x213 PUSH2 0x1F8 CALLDATASIZE PUSH1 0x4 PUSH2 0x28D8 JUMP JUMPDEST PUSH1 0x1 PUSH1 0x1 PUSH1 0xA0 SHL SUB AND PUSH1 0x0 SWAP1 DUP2 MSTORE PUSH1 0xC PUSH1 0x20 MSTORE PUSH1 0x40 SWAP1 KECCAK256 SLOAD SWAP1 JUMP JUMPDEST PUSH1 0x40 MLOAD SWAP1 DUP2 MSTORE PUSH1 0x20 ADD JUMPDEST PUSH1 0x40 MLOAD DUP1 SWAP2 SUB SWAP1 RETURN JUMPDEST PUSH2 0x213 PUSH1 0x13 SLOAD DUP2 JUMP JUMPDEST PUSH2 0x242 PUSH2 0x23D CALLDATASIZE PUSH1 0x4 PUSH2 0x28D8 JUMP JUMPDEST PUSH2 0x4DC JUMP JUMPDEST PUSH1 0x40 MLOAD PUSH2 0x21D SWAP2 SWAP1 DUP2 MLOAD DUP2 MSTORE PUSH1 0x20 DUP1 DUP4 ADD MLOAD SWAP1 DUP3 ADD MSTORE PUSH1 0x40 DUP1 DUP4 ADD MLOAD SWAP1 DUP3 ADD MSTORE PUSH1 0x60 SWAP2 DUP3 ADD MLOAD SWAP2 DUP2 ADD SWAP2 SWAP1 SWAP2 MSTORE PUSH1 0x80 ADD SWAP1 JUMP JUMPDEST PUSH2 0x27D PUSH2 0x518 JUMP JUMPDEST STOP JUMPDEST PUSH2 0x27D PUSH2 0x28D CALLDATASIZE PUSH1 0x4 PUSH2 0x28F3 JUMP JUMPDEST PUSH2 0x58D JUMP JUMPDEST PUSH2 0x2A5 PUSH2 0x2A0 CALLDATASIZE PUSH1 0x4 PUSH2 0x28D8 JUMP JUMPDEST PUSH2 0x822 JUMP JUMPDEST PUSH1 0x40 MLOAD PUSH2 0x21D SWAP2 SWAP1 PUSH2 0x290C JUMP JUMPDEST PUSH1 0x13 SLOAD PUSH2 0x213 JUMP JUMPDEST PUSH2 0x213 PUSH2 0x91D JUMP JUMPDEST PUSH2 0x213 PUSH1 0xE SLOAD DUP2 JUMP JUMPDEST PUSH2 0x27D PUSH2 0x2D9 CALLDATASIZE PUSH1 0x4 PUSH2 0x2964 JUMP JUMPDEST PUSH2 0x9BC JUMP JUMPDEST PUSH2 0x213 PUSH2 0x2EC CALLDATASIZE PUSH1 0x4 PUSH2 0x2997 JUMP JUMPDEST PUSH2 0xA46 JUMP JUMPDEST PUSH2 0x27D PUSH2 0x2FF CALLDATASIZE PUSH1 0x4 PUSH2 0x2997 JUMP JUMPDEST PUSH2 0xC9D JUMP JUMPDEST PUSH2 0x32B PUSH32 0x0 DUP2 JUMP JUMPDEST PUSH1 0x40 MLOAD PUSH1 0x1 PUSH1 0x1 PUSH1 0xA0 SHL SUB SWAP1 SWAP2 AND DUP2 MSTORE PUSH1 0x20 ADD PUSH2 0x21D JUMP JUMPDEST PUSH1 0x40 DUP1 MLOAD DUP1 DUP3 ADD DUP3 MSTORE PUSH1 0xB DUP2 MSTORE PUSH11 0x131BD8DAD95915985D5B1D PUSH1 0xAA SHL PUSH1 0x20 DUP3 ADD MSTORE SWAP1 MLOAD PUSH2 0x21D SWAP2 SWAP1 PUSH2 0x29E7 JUMP JUMPDEST PUSH2 0x32B PUSH32 0x0 DUP2 JUMP JUMPDEST PUSH2 0x213 PUSH1 0x6 SLOAD DUP2 JUMP JUMPDEST PUSH2 0x32B PUSH32 0x0 DUP2 JUMP JUMPDEST PUSH2 0x27D PUSH2 0x3D5 CALLDATASIZE PUSH1 0x4 PUSH2 0x2A1A JUMP JUMPDEST PUSH2 0xEBC JUMP JUMPDEST PUSH2 0x213 PUSH2 0xECB JUMP JUMPDEST PUSH2 0x213 PUSH2 0x3F0 CALLDATASIZE PUSH1 0x4 PUSH2 0x28D8 JUMP JUMPDEST PUSH2 0xEE4 JUMP JUMPDEST PUSH2 0x27D PUSH2 0x403 CALLDATASIZE PUSH1 0x4 PUSH2 0x28D8 JUMP JUMPDEST PUSH2 0xEF0 JUMP JUMPDEST PUSH2 0x27D PUSH2 0x416 CALLDATASIZE PUSH1 0x4 PUSH2 0x28F3 JUMP JUMPDEST PUSH2 0xF8B JUMP JUMPDEST PUSH2 0x42E PUSH2 0x429 CALLDATASIZE PUSH1 0x4 PUSH2 0x28D8 JUMP JUMPDEST PUSH2 0xF98 JUMP JUMPDEST PUSH1 0x40 MLOAD PUSH2 0x21D SWAP2 SWAP1 PUSH2 0x2A44 JUMP JUMPDEST PUSH2 0x27D PUSH2 0x449 CALLDATASIZE PUSH1 0x4 PUSH2 0x2AB4 JUMP JUMPDEST PUSH2 0x10FF JUMP JUMPDEST PUSH2 0x27D PUSH2 0x1115 JUMP JUMPDEST PUSH2 0x213 PUSH2 0x464 CALLDATASIZE PUSH1 0x4 PUSH2 0x28D8 JUMP JUMPDEST PUSH2 0x1199 JUMP JUMPDEST PUSH2 0x213 PUSH2 0x477 CALLDATASIZE PUSH1 0x4 PUSH2 0x2A1A JUMP JUMPDEST PUSH2 0x1250 JUMP JUMPDEST PUSH2 0x27D PUSH2 0x48A CALLDATASIZE PUSH1 0x4 PUSH2 0x2A1A JUMP JUMPDEST PUSH2 0x125E JUMP JUMPDEST PUSH2 0x27D PUSH2 0x49D CALLDATASIZE PUSH1 0x4 PUSH2 0x28F3 JUMP JUMPDEST PUSH2 0x1269 JUMP JUMPDEST PUSH2 0x32B PUSH32 0x0 DUP2 JUMP JUMPDEST PUSH2 0x27D PUSH2 0x4D7 CALLDATASIZE PUSH1 0x4 PUSH2 0x28F3 JUMP JUMPDEST PUSH2 0x12E8 JUMP JUMPDEST PUSH2 0x507 PUSH1 0x40 MLOAD DUP1 PUSH1 0x80 ADD PUSH1 0x40 MSTORE DUP1 PUSH1 0x0 DUP2 MSTORE PUSH1 0x20 ADD PUSH1 0x0 DUP2 MSTORE PUSH1 0x20 ADD PUSH1 0x0 DUP2 MSTORE PUSH1 0x20 ADD PUSH1 0x0 DUP2 MSTORE POP SWAP1 JUMP JUMPDEST PUSH2 0x512 PUSH1 0x1 DUP4 PUSH2 0x13FE JUMP JUMPDEST SWAP3 SWAP2 POP POP JUMP JUMPDEST PUSH1 0x6 SLOAD DUP1 ISZERO PUSH2 0x586 JUMPI PUSH1 0x0 PUSH1 0x8 SLOAD TIMESTAMP PUSH2 0x531 SWAP2 SWAP1 PUSH2 0x2B06 JUMP JUMPDEST SWAP1 POP PUSH1 0x0 DUP2 PUSH2 0x53E PUSH2 0xECB JUMP JUMPDEST PUSH2 0x548 SWAP2 SWAP1 PUSH2 0x2B19 JUMP JUMPDEST SWAP1 POP PUSH2 0x554 DUP2 DUP5 PUSH2 0x150C JUMP JUMPDEST PUSH1 0x7 PUSH1 0x0 DUP3 DUP3 SLOAD PUSH2 0x565 SWAP2 SWAP1 PUSH2 0x2B30 JUMP JUMPDEST SWAP3 POP POP DUP2 SWAP1 SSTORE POP DUP1 PUSH1 0x9 PUSH1 0x0 DUP3 DUP3 SLOAD PUSH2 0x57E SWAP2 SWAP1 PUSH2 0x2B30 JUMP JUMPDEST SWAP1 SWAP2 SSTORE POP POP POP POP JUMPDEST POP TIMESTAMP PUSH1 0x8 SSTORE JUMP JUMPDEST PUSH1 0x0 DUP2 DUP2 MSTORE PUSH1 0x11 PUSH1 0x20 SWAP1 DUP2 MSTORE PUSH1 0x40 SWAP2 DUP3 SWAP1 KECCAK256 DUP3 MLOAD PUSH1 0xA0 DUP2 ADD DUP5 MSTORE DUP2 SLOAD DUP2 MSTORE PUSH1 0x1 DUP3 ADD SLOAD SWAP3 DUP2 ADD SWAP3 SWAP1 SWAP3 MSTORE PUSH1 0x2 DUP2 ADD SLOAD SWAP3 DUP3 ADD SWAP3 SWAP1 SWAP3 MSTORE PUSH1 0x3 DUP3 ADD SLOAD PUSH1 0x1 PUSH1 0x1 PUSH1 0xA0 SHL SUB SWAP1 DUP2 AND PUSH1 0x60 DUP4 ADD DUP2 SWAP1 MSTORE PUSH1 0x4 SWAP1 SWAP4 ADD SLOAD AND PUSH1 0x80 DUP3 ADD MSTORE SWAP1 CALLER EQ PUSH2 0x645 JUMPI PUSH1 0x40 MLOAD PUSH3 0x461BCD PUSH1 0xE5 SHL DUP2 MSTORE PUSH1 0x20 PUSH1 0x4 DUP3 ADD MSTORE PUSH1 0x22 PUSH1 0x24 DUP3 ADD MSTORE PUSH32 0x6D61746368696E67207769746864726177616C20646F6573206E6F7420657869 PUSH1 0x44 DUP3 ADD MSTORE PUSH2 0x1CDD PUSH1 0xF2 SHL PUSH1 0x64 DUP3 ADD MSTORE PUSH1 0x84 ADD JUMPDEST PUSH1 0x40 MLOAD DUP1 SWAP2 SUB SWAP1 REVERT JUMPDEST TIMESTAMP DUP2 PUSH1 0x20 ADD MLOAD GT ISZERO PUSH2 0x699 JUMPI PUSH1 0x40 MLOAD PUSH3 0x461BCD PUSH1 0xE5 SHL DUP2 MSTORE PUSH1 0x20 PUSH1 0x4 DUP3 ADD MSTORE PUSH1 0x1B PUSH1 0x24 DUP3 ADD MSTORE PUSH32 0x6E6F2076616C69642070656E64696E67207769746864726177616C0000000000 PUSH1 0x44 DUP3 ADD MSTORE PUSH1 0x64 ADD PUSH2 0x63C JUMP JUMPDEST PUSH1 0x40 DUP2 ADD MLOAD PUSH1 0x0 SWAP1 PUSH2 0x6D0 SWAP1 PUSH1 0x12 PUSH1 0xFF PUSH32 0x0 AND PUSH2 0x155F JUMP JUMPDEST PUSH1 0x60 DUP4 ADD MLOAD PUSH1 0x40 MLOAD PUSH4 0xA9059CBB PUSH1 0xE0 SHL DUP2 MSTORE PUSH1 0x1 PUSH1 0x1 PUSH1 0xA0 SHL SUB SWAP2 DUP3 AND PUSH1 0x4 DUP3 ADD MSTORE PUSH1 0x24 DUP2 ADD DUP4 SWAP1 MSTORE SWAP2 SWAP3 POP PUSH32 0x0 AND SWAP1 PUSH4 0xA9059CBB SWAP1 PUSH1 0x44 ADD PUSH1 0x20 PUSH1 0x40 MLOAD DUP1 DUP4 SUB DUP2 PUSH1 0x0 DUP8 GAS CALL ISZERO DUP1 ISZERO PUSH2 0x747 JUMPI RETURNDATASIZE PUSH1 0x0 DUP1 RETURNDATACOPY RETURNDATASIZE PUSH1 0x0 REVERT JUMPDEST POP POP POP POP PUSH1 0x40 MLOAD RETURNDATASIZE PUSH1 0x1F NOT PUSH1 0x1F DUP3 ADD AND DUP3 ADD DUP1 PUSH1 0x40 MSTORE POP DUP2 ADD SWAP1 PUSH2 0x76B SWAP2 SWAP1 PUSH2 0x2B43 JUMP JUMPDEST POP PUSH1 0x0 DUP4 DUP2 MSTORE PUSH1 0x11 PUSH1 0x20 SWAP1 DUP2 MSTORE PUSH1 0x40 DUP1 DUP4 KECCAK256 DUP4 DUP2 SSTORE PUSH1 0x1 DUP2 ADD DUP5 SWAP1 SSTORE PUSH1 0x2 DUP2 ADD DUP5 SWAP1 SSTORE PUSH1 0x3 DUP2 ADD DUP1 SLOAD PUSH1 0x1 PUSH1 0x1 PUSH1 0xA0 SHL SUB NOT SWAP1 DUP2 AND SWAP1 SWAP2 SSTORE PUSH1 0x4 SWAP1 SWAP2 ADD DUP1 SLOAD SWAP1 SWAP2 AND SWAP1 SSTORE PUSH1 0x60 DUP6 ADD MLOAD PUSH1 0x1 PUSH1 0x1 PUSH1 0xA0 SHL SUB AND DUP4 MSTORE PUSH1 0x10 SWAP1 SWAP2 MSTORE SWAP1 KECCAK256 PUSH2 0x7D0 SWAP1 DUP5 PUSH2 0x15BC JUMP JUMPDEST POP DUP2 PUSH1 0x60 ADD MLOAD PUSH1 0x1 PUSH1 0x1 PUSH1 0xA0 SHL SUB AND DUP4 PUSH32 0x96793B0307A8BEDD30923EE6C6A84D492646DD968C25A0C714296A68C74ACEB DUP5 PUSH1 0x40 ADD MLOAD PUSH1 0x40 MLOAD PUSH2 0x815 SWAP2 DUP2 MSTORE PUSH1 0x20 ADD SWAP1 JUMP JUMPDEST PUSH1 0x40 MLOAD DUP1 SWAP2 SUB SWAP1 LOG3 POP POP POP JUMP JUMPDEST PUSH1 0x1 PUSH1 0x1 PUSH1 0xA0 SHL SUB DUP2 AND PUSH1 0x0 SWAP1 DUP2 MSTORE PUSH1 0x5 PUSH1 0x20 MSTORE PUSH1 0x40 DUP2 KECCAK256 PUSH1 0x60 SWAP2 PUSH2 0x846 DUP3 PUSH2 0x15C8 JUMP JUMPDEST SWAP1 POP DUP1 PUSH8 0xFFFFFFFFFFFFFFFF DUP2 GT ISZERO PUSH2 0x861 JUMPI PUSH2 0x861 PUSH2 0x2B65 JUMP JUMPDEST PUSH1 0x40 MLOAD SWAP1 DUP1 DUP3 MSTORE DUP1 PUSH1 0x20 MUL PUSH1 0x20 ADD DUP3 ADD PUSH1 0x40 MSTORE DUP1 ISZERO PUSH2 0x8A6 JUMPI DUP2 PUSH1 0x20 ADD JUMPDEST PUSH1 0x40 DUP1 MLOAD DUP1 DUP3 ADD SWAP1 SWAP2 MSTORE PUSH1 0x0 DUP1 DUP3 MSTORE PUSH1 0x20 DUP3 ADD MSTORE DUP2 MSTORE PUSH1 0x20 ADD SWAP1 PUSH1 0x1 SWAP1 SUB SWAP1 DUP2 PUSH2 0x87F JUMPI SWAP1 POP JUMPDEST POP SWAP3 POP PUSH1 0x0 JUMPDEST DUP2 DUP2 LT ISZERO PUSH2 0x915 JUMPI PUSH1 0x0 DUP1 PUSH2 0x8C1 DUP6 DUP5 PUSH2 0x15D3 JUMP JUMPDEST SWAP2 POP SWAP2 POP PUSH1 0x40 MLOAD DUP1 PUSH1 0x40 ADD PUSH1 0x40 MSTORE DUP1 DUP4 PUSH1 0x1 PUSH1 0x1 PUSH1 0xA0 SHL SUB AND DUP2 MSTORE PUSH1 0x20 ADD DUP3 DUP2 MSTORE POP DUP7 DUP5 DUP2 MLOAD DUP2 LT PUSH2 0x8F5 JUMPI PUSH2 0x8F5 PUSH2 0x2B7B JUMP JUMPDEST PUSH1 0x20 MUL PUSH1 0x20 ADD ADD DUP2 SWAP1 MSTORE POP POP POP DUP1 DUP1 PUSH2 0x90D SWAP1 PUSH2 0x2B91 JUMP JUMPDEST SWAP2 POP POP PUSH2 0x8AC JUMP JUMPDEST POP POP POP SWAP2 SWAP1 POP JUMP JUMPDEST PUSH1 0x0 PUSH2 0x928 CALLER PUSH2 0xEF0 JUMP JUMPDEST CALLER PUSH1 0x0 SWAP1 DUP2 MSTORE PUSH1 0xB PUSH1 0x20 MSTORE PUSH1 0x40 DUP2 KECCAK256 SLOAD SWAP1 DUP2 SWAP1 SUB PUSH2 0x948 JUMPI PUSH1 0x0 SWAP2 POP POP SWAP1 JUMP JUMPDEST CALLER PUSH1 0x0 DUP2 DUP2 MSTORE PUSH1 0xB PUSH1 0x20 MSTORE PUSH1 0x40 DUP1 DUP3 KECCAK256 SWAP2 SWAP1 SWAP2 SSTORE MLOAD PUSH32 0x47CEE97CB7ACD717B3C0AA1435D004CD5B3C8C57D70DBCEB4E4458BBD60E39D4 SWAP1 PUSH2 0x98C SWAP1 DUP5 DUP2 MSTORE PUSH1 0x20 ADD SWAP1 JUMP JUMPDEST PUSH1 0x40 MLOAD DUP1 SWAP2 SUB SWAP1 LOG2 DUP1 PUSH1 0x9 PUSH1 0x0 DUP3 DUP3 SLOAD PUSH2 0x9A6 SWAP2 SWAP1 PUSH2 0x2B06 JUMP JUMPDEST SWAP1 SWAP2 SSTORE POP PUSH2 0x9B6 SWAP1 POP CALLER DUP3 PUSH2 0x15F1 JUMP JUMPDEST SWAP2 POP POP SWAP1 JUMP JUMPDEST CALLER PUSH1 0x1 PUSH1 0x1 PUSH1 0xA0 SHL SUB PUSH32 0x0 AND EQ PUSH2 0xA36 JUMPI PUSH1 0x40 MLOAD PUSH4 0xC55DDC97 PUSH1 0xE0 SHL DUP2 MSTORE CALLER PUSH1 0x4 DUP3 ADD MSTORE PUSH1 0x1 PUSH1 0x1 PUSH1 0xA0 SHL SUB PUSH32 0x0 AND PUSH1 0x24 DUP3 ADD MSTORE PUSH1 0x44 ADD PUSH2 0x63C JUMP JUMPDEST PUSH2 0xA41 DUP4 DUP4 DUP4 PUSH2 0x162D JUMP JUMPDEST POP POP POP JUMP JUMPDEST PUSH1 0x0 DUP1 PUSH2 0xA54 PUSH1 0x1 CALLER PUSH2 0x13FE JUMP JUMPDEST SWAP1 POP PUSH1 0x0 PUSH1 0x1 PUSH1 0x1 PUSH1 0xA0 SHL SUB DUP5 AND ISZERO DUP1 ISZERO SWAP1 PUSH2 0xA79 JUMPI POP PUSH1 0x1 PUSH1 0x1 PUSH1 0xA0 SHL SUB DUP5 AND CALLER EQ ISZERO JUMPDEST SWAP1 POP DUP5 DUP3 PUSH1 0x20 ADD MLOAD LT ISZERO DUP1 ISZERO PUSH2 0xAB5 JUMPI POP DUP1 DUP1 PUSH2 0xAB5 JUMPI POP CALLER PUSH1 0x0 SWAP1 DUP2 MSTORE PUSH1 0x3 PUSH1 0x20 MSTORE PUSH1 0x40 SWAP1 KECCAK256 SLOAD DUP6 SWAP1 DUP4 PUSH1 0x20 ADD MLOAD PUSH2 0xAB2 SWAP2 SWAP1 PUSH2 0x2B06 JUMP JUMPDEST LT ISZERO JUMPDEST PUSH2 0xB01 JUMPI PUSH1 0x40 MLOAD PUSH3 0x461BCD PUSH1 0xE5 SHL DUP2 MSTORE PUSH1 0x20 PUSH1 0x4 DUP3 ADD MSTORE PUSH1 0x18 PUSH1 0x24 DUP3 ADD MSTORE PUSH32 0x6E6F7420656E6F75676820746F20756E64656C65676174650000000000000000 PUSH1 0x44 DUP3 ADD MSTORE PUSH1 0x64 ADD PUSH2 0x63C JUMP JUMPDEST PUSH2 0xB2A CALLER DUP7 DUP5 PUSH1 0x20 ADD MLOAD PUSH2 0xB15 SWAP2 SWAP1 PUSH2 0x2B06 JUMP JUMPDEST PUSH1 0x40 DUP6 ADD MLOAD PUSH1 0x60 DUP7 ADD MLOAD PUSH1 0x1 SWAP4 SWAP3 SWAP2 SWAP1 PUSH2 0x16C4 JUMP JUMPDEST POP DUP1 ISZERO PUSH2 0xB3C JUMPI PUSH2 0xB3C CALLER DUP6 DUP8 PUSH2 0x1808 JUMP JUMPDEST DUP5 PUSH1 0x13 PUSH1 0x0 DUP3 DUP3 SLOAD PUSH2 0xB4E SWAP2 SWAP1 PUSH2 0x2B06 JUMP JUMPDEST SWAP1 SWAP2 SSTORE POP PUSH2 0xB5E SWAP1 POP CALLER DUP7 PUSH2 0x189D JUMP JUMPDEST PUSH1 0x0 PUSH1 0x40 MLOAD DUP1 PUSH1 0xA0 ADD PUSH1 0x40 MSTORE DUP1 PUSH1 0x12 SLOAD DUP2 MSTORE PUSH1 0x20 ADD PUSH1 0xF SLOAD TIMESTAMP PUSH2 0xB81 SWAP2 SWAP1 PUSH2 0x2B30 JUMP JUMPDEST DUP2 MSTORE PUSH1 0x20 DUP1 DUP3 ADD DUP10 SWAP1 MSTORE CALLER PUSH1 0x40 DUP1 DUP5 ADD DUP3 SWAP1 MSTORE PUSH1 0x1 PUSH1 0x1 PUSH1 0xA0 SHL SUB DUP11 DUP2 AND PUSH1 0x60 SWAP6 DUP7 ADD MSTORE DUP6 MLOAD PUSH1 0x0 SWAP1 DUP2 MSTORE PUSH1 0x11 DUP6 MSTORE DUP3 DUP2 KECCAK256 DUP8 MLOAD DUP1 DUP3 SSTORE DUP9 DUP8 ADD MLOAD PUSH1 0x1 DUP4 ADD SSTORE DUP9 DUP6 ADD MLOAD PUSH1 0x2 DUP4 ADD SSTORE SWAP7 DUP9 ADD MLOAD PUSH1 0x3 DUP3 ADD DUP1 SLOAD SWAP2 DUP6 AND PUSH1 0x1 PUSH1 0x1 PUSH1 0xA0 SHL SUB NOT SWAP3 DUP4 AND OR SWAP1 SSTORE PUSH1 0x80 DUP10 ADD MLOAD PUSH1 0x4 SWAP1 SWAP3 ADD DUP1 SLOAD SWAP3 SWAP1 SWAP5 AND SWAP2 AND OR SWAP1 SWAP2 SSTORE SWAP2 DUP3 MSTORE PUSH1 0x10 SWAP1 SWAP3 MSTORE KECCAK256 SWAP2 SWAP3 POP PUSH2 0xC12 SWAP2 SWAP1 PUSH2 0x192F JUMP JUMPDEST POP PUSH1 0x12 DUP1 SLOAD SWAP1 PUSH1 0x0 PUSH2 0xC23 DUP4 PUSH2 0x2B91 JUMP JUMPDEST SWAP2 SWAP1 POP SSTORE POP DUP1 PUSH1 0x80 ADD MLOAD PUSH1 0x1 PUSH1 0x1 PUSH1 0xA0 SHL SUB AND DUP2 PUSH1 0x60 ADD MLOAD PUSH1 0x1 PUSH1 0x1 PUSH1 0xA0 SHL SUB AND DUP3 PUSH1 0x0 ADD MLOAD PUSH32 0x20849EB8A3D11461C2F45D1330D7CDFDCF0359148AAA26D84AF32B9596E32B94 DUP5 PUSH1 0x20 ADD MLOAD DUP6 PUSH1 0x40 ADD MLOAD PUSH1 0x40 MLOAD PUSH2 0xC8B SWAP3 SWAP2 SWAP1 SWAP2 DUP3 MSTORE PUSH1 0x20 DUP3 ADD MSTORE PUSH1 0x40 ADD SWAP1 JUMP JUMPDEST PUSH1 0x40 MLOAD DUP1 SWAP2 SUB SWAP1 LOG4 MLOAD SWAP6 SWAP5 POP POP POP POP POP JUMP JUMPDEST PUSH1 0x1 PUSH1 0x1 PUSH1 0xA0 SHL SUB DUP2 AND PUSH2 0xCE8 JUMPI PUSH1 0x40 MLOAD PUSH3 0x461BCD PUSH1 0xE5 SHL DUP2 MSTORE PUSH1 0x20 PUSH1 0x4 DUP3 ADD MSTORE PUSH1 0x12 PUSH1 0x24 DUP3 ADD MSTORE PUSH18 0x6E6F2064656C65676174696F6E20746F203 PUSH1 0x74 SHL PUSH1 0x44 DUP3 ADD MSTORE PUSH1 0x64 ADD PUSH2 0x63C JUMP JUMPDEST PUSH1 0x0 DUP3 GT PUSH2 0xD38 JUMPI PUSH1 0x40 MLOAD PUSH3 0x461BCD PUSH1 0xE5 SHL DUP2 MSTORE PUSH1 0x20 PUSH1 0x4 DUP3 ADD MSTORE PUSH1 0x1A PUSH1 0x24 DUP3 ADD MSTORE PUSH32 0x63616E6E6F74206465706F736974207A65726F20616D6F756E74000000000000 PUSH1 0x44 DUP3 ADD MSTORE PUSH1 0x64 ADD PUSH2 0x63C JUMP JUMPDEST PUSH1 0x40 MLOAD PUSH4 0x23B872DD PUSH1 0xE0 SHL DUP2 MSTORE PUSH1 0x1 PUSH1 0x1 PUSH1 0xA0 SHL SUB PUSH32 0x0 AND SWAP1 PUSH4 0x23B872DD SWAP1 PUSH2 0xD88 SWAP1 CALLER SWAP1 ADDRESS SWAP1 DUP8 SWAP1 PUSH1 0x4 ADD PUSH2 0x2BAA JUMP JUMPDEST PUSH1 0x20 PUSH1 0x40 MLOAD DUP1 DUP4 SUB DUP2 PUSH1 0x0 DUP8 GAS CALL ISZERO DUP1 ISZERO PUSH2 0xDA7 JUMPI RETURNDATASIZE PUSH1 0x0 DUP1 RETURNDATACOPY RETURNDATASIZE PUSH1 0x0 REVERT JUMPDEST POP POP POP POP PUSH1 0x40 MLOAD RETURNDATASIZE PUSH1 0x1F NOT PUSH1 0x1F DUP3 ADD AND DUP3 ADD DUP1 PUSH1 0x40 MSTORE POP DUP2 ADD SWAP1 PUSH2 0xDCB SWAP2 SWAP1 PUSH2 0x2B43 JUMP JUMPDEST POP PUSH1 0x0 PUSH2 0xDD9 PUSH1 0x1 CALLER PUSH2 0x13FE JUMP JUMPDEST SWAP1 POP PUSH1 0x0 PUSH2 0xE0C DUP5 PUSH1 0xFF PUSH32 0x0 AND PUSH1 0x12 PUSH2 0x155F JUMP JUMPDEST SWAP1 POP PUSH2 0xE22 CALLER DUP3 DUP5 PUSH1 0x20 ADD MLOAD PUSH2 0xB15 SWAP2 SWAP1 PUSH2 0x2B30 JUMP JUMPDEST POP PUSH1 0x1 PUSH1 0x1 PUSH1 0xA0 SHL SUB DUP4 AND ISZERO DUP1 ISZERO SWAP1 PUSH2 0xE44 JUMPI POP PUSH1 0x1 PUSH1 0x1 PUSH1 0xA0 SHL SUB DUP4 AND CALLER EQ ISZERO JUMPDEST ISZERO PUSH2 0xE54 JUMPI PUSH2 0xE54 CALLER DUP5 DUP4 PUSH2 0x193B JUMP JUMPDEST DUP1 PUSH1 0x13 PUSH1 0x0 DUP3 DUP3 SLOAD PUSH2 0xE66 SWAP2 SWAP1 PUSH2 0x2B30 JUMP JUMPDEST SWAP1 SWAP2 SSTORE POP PUSH2 0xE76 SWAP1 POP CALLER DUP3 PUSH2 0x1A0C JUMP JUMPDEST PUSH1 0x40 MLOAD DUP5 DUP2 MSTORE PUSH1 0x1 PUSH1 0x1 PUSH1 0xA0 SHL SUB DUP5 AND SWAP1 CALLER SWAP1 PUSH32 0x5548C837AB068CF56A2C2479DF0882A4922FD203EDB7517321831D95078C5F62 SWAP1 PUSH1 0x20 ADD PUSH1 0x40 MLOAD DUP1 SWAP2 SUB SWAP1 LOG3 POP POP POP POP JUMP JUMPDEST PUSH2 0xEC7 CALLER DUP4 DUP4 PUSH2 0x193B JUMP JUMPDEST POP POP JUMP JUMPDEST PUSH1 0x0 PUSH1 0xE SLOAD TIMESTAMP GT ISZERO PUSH2 0xEDD JUMPI POP PUSH1 0x0 SWAP1 JUMP JUMPDEST POP PUSH1 0xD SLOAD SWAP1 JUMP JUMPDEST PUSH1 0x0 PUSH2 0x512 DUP3 TIMESTAMP PUSH2 0x1250 JUMP JUMPDEST PUSH2 0xEF8 PUSH2 0x518 JUMP JUMPDEST PUSH1 0x7 SLOAD PUSH1 0x1 PUSH1 0x1 PUSH1 0xA0 SHL SUB DUP3 AND PUSH1 0x0 SWAP1 DUP2 MSTORE PUSH1 0xA PUSH1 0x20 MSTORE PUSH1 0x40 SWAP1 KECCAK256 SLOAD PUSH2 0xF42 SWAP1 PUSH2 0xF22 SWAP1 DUP4 PUSH2 0x2B06 JUMP JUMPDEST PUSH1 0x1 PUSH1 0x1 PUSH1 0xA0 SHL SUB DUP5 AND PUSH1 0x0 SWAP1 DUP2 MSTORE PUSH1 0xC PUSH1 0x20 MSTORE PUSH1 0x40 SWAP1 KECCAK256 SLOAD JUMPDEST SWAP1 PUSH2 0x1A94 JUMP JUMPDEST PUSH1 0x1 PUSH1 0x1 PUSH1 0xA0 SHL SUB DUP4 AND PUSH1 0x0 SWAP1 DUP2 MSTORE PUSH1 0xB PUSH1 0x20 MSTORE PUSH1 0x40 DUP2 KECCAK256 DUP1 SLOAD SWAP1 SWAP2 SWAP1 PUSH2 0xF6A SWAP1 DUP5 SWAP1 PUSH2 0x2B30 JUMP JUMPDEST SWAP1 SWAP2 SSTORE POP POP PUSH1 0x1 PUSH1 0x1 PUSH1 0xA0 SHL SUB SWAP1 SWAP2 AND PUSH1 0x0 SWAP1 DUP2 MSTORE PUSH1 0xA PUSH1 0x20 MSTORE PUSH1 0x40 SWAP1 KECCAK256 SSTORE JUMP JUMPDEST PUSH2 0xF95 DUP2 CALLER PUSH2 0xC9D JUMP JUMPDEST POP JUMP JUMPDEST PUSH1 0x1 PUSH1 0x1 PUSH1 0xA0 SHL SUB DUP2 AND PUSH1 0x0 SWAP1 DUP2 MSTORE PUSH1 0x10 PUSH1 0x20 MSTORE PUSH1 0x40 DUP2 KECCAK256 PUSH1 0x60 SWAP2 PUSH2 0xFBC DUP3 PUSH2 0x1ABD JUMP JUMPDEST PUSH8 0xFFFFFFFFFFFFFFFF DUP2 GT ISZERO PUSH2 0xFD4 JUMPI PUSH2 0xFD4 PUSH2 0x2B65 JUMP JUMPDEST PUSH1 0x40 MLOAD SWAP1 DUP1 DUP3 MSTORE DUP1 PUSH1 0x20 MUL PUSH1 0x20 ADD DUP3 ADD PUSH1 0x40 MSTORE DUP1 ISZERO PUSH2 0x1049 JUMPI DUP2 PUSH1 0x20 ADD JUMPDEST PUSH2 0x1036 PUSH1 0x40 MLOAD DUP1 PUSH1 0xA0 ADD PUSH1 0x40 MSTORE DUP1 PUSH1 0x0 DUP2 MSTORE PUSH1 0x20 ADD PUSH1 0x0 DUP2 MSTORE PUSH1 0x20 ADD PUSH1 0x0 DUP2 MSTORE PUSH1 0x20 ADD PUSH1 0x0 PUSH1 0x1 PUSH1 0x1 PUSH1 0xA0 SHL SUB AND DUP2 MSTORE PUSH1 0x20 ADD PUSH1 0x0 PUSH1 0x1 PUSH1 0x1 PUSH1 0xA0 SHL SUB AND DUP2 MSTORE POP SWAP1 JUMP JUMPDEST DUP2 MSTORE PUSH1 0x20 ADD SWAP1 PUSH1 0x1 SWAP1 SUB SWAP1 DUP2 PUSH2 0xFF2 JUMPI SWAP1 POP JUMPDEST POP SWAP1 POP PUSH1 0x0 JUMPDEST PUSH2 0x1058 DUP4 PUSH2 0x1ABD JUMP JUMPDEST DUP2 LT ISZERO PUSH2 0x10F7 JUMPI PUSH1 0x11 PUSH1 0x0 PUSH2 0x106D DUP6 DUP5 PUSH2 0x1AC7 JUMP JUMPDEST DUP2 MSTORE PUSH1 0x20 DUP1 DUP3 ADD SWAP3 SWAP1 SWAP3 MSTORE PUSH1 0x40 SWAP1 DUP2 ADD PUSH1 0x0 KECCAK256 DUP2 MLOAD PUSH1 0xA0 DUP2 ADD DUP4 MSTORE DUP2 SLOAD DUP2 MSTORE PUSH1 0x1 DUP3 ADD SLOAD SWAP4 DUP2 ADD SWAP4 SWAP1 SWAP4 MSTORE PUSH1 0x2 DUP2 ADD SLOAD SWAP2 DUP4 ADD SWAP2 SWAP1 SWAP2 MSTORE PUSH1 0x3 DUP2 ADD SLOAD PUSH1 0x1 PUSH1 0x1 PUSH1 0xA0 SHL SUB SWAP1 DUP2 AND PUSH1 0x60 DUP5 ADD MSTORE PUSH1 0x4 SWAP1 SWAP2 ADD SLOAD AND PUSH1 0x80 DUP3 ADD MSTORE DUP3 MLOAD DUP4 SWAP1 DUP4 SWAP1 DUP2 LT PUSH2 0x10D9 JUMPI PUSH2 0x10D9 PUSH2 0x2B7B JUMP JUMPDEST PUSH1 0x20 MUL PUSH1 0x20 ADD ADD DUP2 SWAP1 MSTORE POP DUP1 DUP1 PUSH2 0x10EF SWAP1 PUSH2 0x2B91 JUMP JUMPDEST SWAP2 POP POP PUSH2 0x104F JUMP JUMPDEST POP SWAP4 SWAP3 POP POP POP JUMP JUMPDEST PUSH2 0x110A CALLER DUP5 DUP4 PUSH2 0x1808 JUMP JUMPDEST PUSH2 0xA41 CALLER DUP4 DUP4 PUSH2 0x193B JUMP JUMPDEST CALLER PUSH1 0x1 PUSH1 0x1 PUSH1 0xA0 SHL SUB PUSH32 0x0 AND EQ PUSH2 0x118F JUMPI PUSH1 0x40 MLOAD PUSH4 0xC55DDC97 PUSH1 0xE0 SHL DUP2 MSTORE CALLER PUSH1 0x4 DUP3 ADD MSTORE PUSH1 0x1 PUSH1 0x1 PUSH1 0xA0 SHL SUB PUSH32 0x0 AND PUSH1 0x24 DUP3 ADD MSTORE PUSH1 0x44 ADD PUSH2 0x63C JUMP JUMPDEST PUSH2 0x1197 PUSH2 0x1AD3 JUMP JUMPDEST JUMP JUMPDEST PUSH1 0x7 SLOAD PUSH1 0x6 SLOAD PUSH1 0x0 SWAP2 SWAP1 ISZERO PUSH2 0x11E1 JUMPI PUSH2 0x11D4 PUSH1 0x6 SLOAD PUSH1 0x8 SLOAD TIMESTAMP PUSH2 0x11BC SWAP2 SWAP1 PUSH2 0x2B06 JUMP JUMPDEST PUSH2 0x11C4 PUSH2 0xECB JUMP JUMPDEST PUSH2 0x11CE SWAP2 SWAP1 PUSH2 0x2B19 JUMP JUMPDEST SWAP1 PUSH2 0x150C JUMP JUMPDEST PUSH2 0x11DE SWAP1 DUP3 PUSH2 0x2B30 JUMP JUMPDEST SWAP1 POP JUMPDEST PUSH1 0x1 PUSH1 0x1 PUSH1 0xA0 SHL SUB DUP4 AND PUSH1 0x0 SWAP1 DUP2 MSTORE PUSH1 0xA PUSH1 0x20 MSTORE PUSH1 0x40 SWAP1 KECCAK256 SLOAD PUSH2 0x1226 SWAP1 PUSH2 0x1208 SWAP1 DUP4 PUSH2 0x2B06 JUMP JUMPDEST PUSH1 0x1 PUSH1 0x1 PUSH1 0xA0 SHL SUB DUP6 AND PUSH1 0x0 SWAP1 DUP2 MSTORE PUSH1 0xC PUSH1 0x20 MSTORE PUSH1 0x40 SWAP1 KECCAK256 SLOAD PUSH2 0xF3C JUMP JUMPDEST PUSH1 0x1 PUSH1 0x1 PUSH1 0xA0 SHL SUB DUP5 AND PUSH1 0x0 SWAP1 DUP2 MSTORE PUSH1 0xB PUSH1 0x20 MSTORE PUSH1 0x40 SWAP1 KECCAK256 SLOAD PUSH2 0x1249 SWAP2 SWAP1 PUSH2 0x2B30 JUMP JUMPDEST SWAP4 SWAP3 POP POP POP JUMP JUMPDEST PUSH1 0x0 PUSH2 0x1249 PUSH1 0x1 DUP5 DUP5 PUSH2 0x1BFB JUMP JUMPDEST PUSH2 0xEC7 CALLER DUP4 DUP4 PUSH2 0x1808 JUMP JUMPDEST CALLER PUSH1 0x1 PUSH1 0x1 PUSH1 0xA0 SHL SUB PUSH32 0x0 AND EQ PUSH2 0x12E3 JUMPI PUSH1 0x40 MLOAD PUSH4 0xC55DDC97 PUSH1 0xE0 SHL DUP2 MSTORE CALLER PUSH1 0x4 DUP3 ADD MSTORE PUSH1 0x1 PUSH1 0x1 PUSH1 0xA0 SHL SUB PUSH32 0x0 AND PUSH1 0x24 DUP3 ADD MSTORE PUSH1 0x44 ADD PUSH2 0x63C JUMP JUMPDEST PUSH1 0xF SSTORE JUMP JUMPDEST PUSH1 0x0 SLOAD PUSH2 0x100 SWAP1 DIV PUSH1 0xFF AND ISZERO DUP1 DUP1 ISZERO PUSH2 0x1308 JUMPI POP PUSH1 0x0 SLOAD PUSH1 0x1 PUSH1 0xFF SWAP1 SWAP2 AND LT JUMPDEST DUP1 PUSH2 0x1322 JUMPI POP ADDRESS EXTCODESIZE ISZERO DUP1 ISZERO PUSH2 0x1322 JUMPI POP PUSH1 0x0 SLOAD PUSH1 0xFF AND PUSH1 0x1 EQ JUMPDEST PUSH2 0x1385 JUMPI PUSH1 0x40 MLOAD PUSH3 0x461BCD PUSH1 0xE5 SHL DUP2 MSTORE PUSH1 0x20 PUSH1 0x4 DUP3 ADD MSTORE PUSH1 0x2E PUSH1 0x24 DUP3 ADD MSTORE PUSH32 0x496E697469616C697A61626C653A20636F6E747261637420697320616C726561 PUSH1 0x44 DUP3 ADD MSTORE PUSH14 0x191E481A5B9A5D1A585B1A5E9959 PUSH1 0x92 SHL PUSH1 0x64 DUP3 ADD MSTORE PUSH1 0x84 ADD PUSH2 0x63C JUMP JUMPDEST PUSH1 0x0 DUP1 SLOAD PUSH1 0xFF NOT AND PUSH1 0x1 OR SWAP1 SSTORE DUP1 ISZERO PUSH2 0x13A8 JUMPI PUSH1 0x0 DUP1 SLOAD PUSH2 0xFF00 NOT AND PUSH2 0x100 OR SWAP1 SSTORE JUMPDEST PUSH1 0xF DUP3 SWAP1 SSTORE PUSH2 0x13B5 PUSH2 0x518 JUMP JUMPDEST DUP1 ISZERO PUSH2 0xEC7 JUMPI PUSH1 0x0 DUP1 SLOAD PUSH2 0xFF00 NOT AND SWAP1 SSTORE PUSH1 0x40 MLOAD PUSH1 0x1 DUP2 MSTORE PUSH32 0x7F26B83FF96E1F2B6A682F133852F6798A09C465DA95921460CEFB3847402498 SWAP1 PUSH1 0x20 ADD PUSH1 0x40 MLOAD DUP1 SWAP2 SUB SWAP1 LOG1 POP POP JUMP JUMPDEST PUSH2 0x1429 PUSH1 0x40 MLOAD DUP1 PUSH1 0x80 ADD PUSH1 0x40 MSTORE DUP1 PUSH1 0x0 DUP2 MSTORE PUSH1 0x20 ADD PUSH1 0x0 DUP2 MSTORE PUSH1 0x20 ADD PUSH1 0x0 DUP2 MSTORE PUSH1 0x20 ADD PUSH1 0x0 DUP2 MSTORE POP SWAP1 JUMP JUMPDEST PUSH1 0x1 PUSH1 0x1 PUSH1 0xA0 SHL SUB DUP3 AND PUSH1 0x0 SWAP1 DUP2 MSTORE PUSH1 0x20 DUP5 DUP2 MSTORE PUSH1 0x40 DUP1 DUP4 KECCAK256 DUP1 SLOAD DUP3 MLOAD DUP2 DUP6 MUL DUP2 ADD DUP6 ADD SWAP1 SWAP4 MSTORE DUP1 DUP4 MSTORE SWAP2 SWAP3 SWAP1 SWAP2 SWAP1 DUP5 SWAP1 DUP5 ADD JUMPDEST DUP3 DUP3 LT ISZERO PUSH2 0x14B7 JUMPI DUP4 DUP3 SWAP1 PUSH1 0x0 MSTORE PUSH1 0x20 PUSH1 0x0 KECCAK256 SWAP1 PUSH1 0x4 MUL ADD PUSH1 0x40 MLOAD DUP1 PUSH1 0x80 ADD PUSH1 0x40 MSTORE SWAP1 DUP2 PUSH1 0x0 DUP3 ADD SLOAD DUP2 MSTORE PUSH1 0x20 ADD PUSH1 0x1 DUP3 ADD SLOAD DUP2 MSTORE PUSH1 0x20 ADD PUSH1 0x2 DUP3 ADD SLOAD DUP2 MSTORE PUSH1 0x20 ADD PUSH1 0x3 DUP3 ADD SLOAD DUP2 MSTORE POP POP DUP2 MSTORE PUSH1 0x20 ADD SWAP1 PUSH1 0x1 ADD SWAP1 PUSH2 0x145D JUMP JUMPDEST POP POP POP POP SWAP1 POP DUP1 MLOAD PUSH1 0x0 SUB PUSH2 0x14D6 JUMPI PUSH2 0x14CE PUSH2 0x1CAC JUMP JUMPDEST SWAP2 POP POP PUSH2 0x512 JUMP JUMPDEST DUP1 PUSH1 0x1 DUP3 MLOAD PUSH2 0x14E5 SWAP2 SWAP1 PUSH2 0x2B06 JUMP JUMPDEST DUP2 MLOAD DUP2 LT PUSH2 0x14F5 JUMPI PUSH2 0x14F5 PUSH2 0x2B7B JUMP JUMPDEST PUSH1 0x20 MUL PUSH1 0x20 ADD ADD MLOAD SWAP2 POP POP PUSH2 0x512 JUMP JUMPDEST POP SWAP3 SWAP2 POP POP JUMP JUMPDEST PUSH1 0x0 DUP2 PUSH1 0x0 SUB PUSH2 0x152F JUMPI PUSH1 0x40 MLOAD PUSH4 0xA0C22C7 PUSH1 0xE0 SHL DUP2 MSTORE PUSH1 0x4 ADD PUSH1 0x40 MLOAD DUP1 SWAP2 SUB SWAP1 REVERT JUMPDEST DUP3 PUSH1 0x0 SUB PUSH2 0x153F JUMPI POP PUSH1 0x0 PUSH2 0x512 JUMP JUMPDEST PUSH1 0x0 PUSH2 0x1553 PUSH8 0xDE0B6B3A7640000 DUP6 PUSH2 0x2B19 JUMP JUMPDEST SWAP1 POP PUSH2 0x14CE DUP4 DUP3 PUSH2 0x2BCE JUMP JUMPDEST PUSH1 0x0 DUP2 DUP4 SUB PUSH2 0x156F JUMPI POP DUP3 PUSH2 0x1249 JUMP JUMPDEST DUP2 DUP4 LT ISZERO PUSH2 0x159D JUMPI PUSH2 0x1581 DUP4 DUP4 PUSH2 0x2B06 JUMP JUMPDEST PUSH2 0x158C SWAP1 PUSH1 0xA PUSH2 0x2CCC JUMP JUMPDEST PUSH2 0x1596 SWAP1 DUP6 PUSH2 0x2B19 JUMP JUMPDEST SWAP1 POP PUSH2 0x1249 JUMP JUMPDEST PUSH2 0x15A7 DUP3 DUP5 PUSH2 0x2B06 JUMP JUMPDEST PUSH2 0x15B2 SWAP1 PUSH1 0xA PUSH2 0x2CCC JUMP JUMPDEST PUSH2 0x1596 SWAP1 DUP6 PUSH2 0x2BCE JUMP JUMPDEST PUSH1 0x0 PUSH2 0x1249 DUP4 DUP4 PUSH2 0x1D08 JUMP JUMPDEST PUSH1 0x0 PUSH2 0x512 DUP3 PUSH2 0x1DFB JUMP JUMPDEST PUSH1 0x0 DUP1 DUP1 DUP1 PUSH2 0x15E2 DUP7 DUP7 PUSH2 0x1E06 JUMP JUMPDEST SWAP1 SWAP5 POP SWAP3 POP POP POP JUMPDEST SWAP3 POP SWAP3 SWAP1 POP JUMP JUMPDEST PUSH1 0x0 PUSH2 0x1627 PUSH1 0x1 PUSH1 0x1 PUSH1 0xA0 SHL SUB PUSH32 0x0 AND DUP5 DUP5 PUSH2 0x1E31 JUMP JUMPDEST POP SWAP2 SWAP1 POP JUMP JUMPDEST PUSH2 0x1635 PUSH2 0x518 JUMP JUMPDEST PUSH2 0x166A PUSH1 0x1 PUSH1 0x1 PUSH1 0xA0 SHL SUB PUSH32 0x0 AND DUP5 ADDRESS DUP6 PUSH2 0x1E94 JUMP JUMPDEST PUSH2 0x1674 TIMESTAMP DUP3 PUSH2 0x2B06 JUMP JUMPDEST PUSH2 0x167E SWAP1 DUP4 PUSH2 0x2BCE JUMP JUMPDEST PUSH1 0xD SSTORE PUSH1 0xE DUP2 SWAP1 SSTORE PUSH1 0x40 DUP1 MLOAD DUP4 DUP2 MSTORE PUSH1 0x20 DUP2 ADD DUP4 SWAP1 MSTORE PUSH32 0x76554FAC4477E8876B3DE3AF392CF374CF4E9DE02AE78FBADE2373107381FE50 SWAP2 ADD PUSH1 0x40 MLOAD DUP1 SWAP2 SUB SWAP1 LOG1 POP POP POP JUMP JUMPDEST PUSH2 0x16EF PUSH1 0x40 MLOAD DUP1 PUSH1 0x80 ADD PUSH1 0x40 MSTORE DUP1 PUSH1 0x0 DUP2 MSTORE PUSH1 0x20 ADD PUSH1 0x0 DUP2 MSTORE PUSH1 0x20 ADD PUSH1 0x0 DUP2 MSTORE PUSH1 0x20 ADD PUSH1 0x0 DUP2 MSTORE POP SWAP1 JUMP JUMPDEST PUSH1 0x1 PUSH1 0x1 PUSH1 0xA0 SHL SUB DUP6 AND PUSH1 0x0 SWAP1 DUP2 MSTORE PUSH1 0x20 DUP8 DUP2 MSTORE PUSH1 0x40 DUP1 DUP4 KECCAK256 DUP2 MLOAD PUSH1 0x80 DUP2 ADD DUP4 MSTORE TIMESTAMP DUP2 MSTORE SWAP3 DUP4 ADD DUP9 SWAP1 MSTORE SWAP1 DUP3 ADD DUP7 SWAP1 MSTORE PUSH1 0x60 DUP3 ADD DUP6 SWAP1 MSTORE SWAP2 PUSH2 0x1731 DUP10 DUP10 PUSH2 0x13FE JUMP JUMPDEST DUP1 MLOAD SWAP1 SWAP2 POP TIMESTAMP EQ DUP1 ISZERO PUSH2 0x1744 JUMPI POP DUP3 SLOAD ISZERO ISZERO JUMPDEST ISZERO PUSH2 0x17A9 JUMPI DUP3 SLOAD DUP3 SWAP1 DUP5 SWAP1 PUSH2 0x175B SWAP1 PUSH1 0x1 SWAP1 PUSH2 0x2B06 JUMP JUMPDEST DUP2 SLOAD DUP2 LT PUSH2 0x176B JUMPI PUSH2 0x176B PUSH2 0x2B7B JUMP JUMPDEST SWAP1 PUSH1 0x0 MSTORE PUSH1 0x20 PUSH1 0x0 KECCAK256 SWAP1 PUSH1 0x4 MUL ADD PUSH1 0x0 DUP3 ADD MLOAD DUP2 PUSH1 0x0 ADD SSTORE PUSH1 0x20 DUP3 ADD MLOAD DUP2 PUSH1 0x1 ADD SSTORE PUSH1 0x40 DUP3 ADD MLOAD DUP2 PUSH1 0x2 ADD SSTORE PUSH1 0x60 DUP3 ADD MLOAD DUP2 PUSH1 0x3 ADD SSTORE SWAP1 POP POP PUSH2 0x17FC JUMP JUMPDEST PUSH1 0x1 PUSH1 0x1 PUSH1 0xA0 SHL SUB DUP9 AND PUSH1 0x0 SWAP1 DUP2 MSTORE PUSH1 0x20 DUP11 DUP2 MSTORE PUSH1 0x40 DUP1 DUP4 KECCAK256 DUP1 SLOAD PUSH1 0x1 DUP2 DUP2 ADD DUP4 SSTORE SWAP2 DUP6 MSTORE SWAP4 DUP4 SWAP1 KECCAK256 DUP7 MLOAD PUSH1 0x4 SWAP1 SWAP6 MUL ADD SWAP4 DUP5 SSTORE SWAP2 DUP6 ADD MLOAD SWAP2 DUP4 ADD SWAP2 SWAP1 SWAP2 SSTORE DUP4 ADD MLOAD PUSH1 0x2 DUP3 ADD SSTORE PUSH1 0x60 DUP4 ADD MLOAD PUSH1 0x3 SWAP1 SWAP2 ADD SSTORE JUMPDEST POP SWAP8 SWAP7 POP POP POP POP POP POP POP JUMP JUMPDEST PUSH2 0x1815 PUSH1 0x1 DUP5 DUP5 DUP5 PUSH2 0x1EB5 JUMP JUMPDEST PUSH1 0x1 PUSH1 0x1 PUSH1 0xA0 SHL SUB DUP4 AND PUSH1 0x0 SWAP1 DUP2 MSTORE PUSH1 0x5 PUSH1 0x20 MSTORE PUSH1 0x40 DUP2 KECCAK256 PUSH2 0x1837 SWAP1 DUP5 PUSH2 0x2092 JUMP JUMPDEST SWAP1 POP DUP2 DUP2 SUB PUSH2 0x1868 JUMPI PUSH1 0x1 PUSH1 0x1 PUSH1 0xA0 SHL SUB DUP5 AND PUSH1 0x0 SWAP1 DUP2 MSTORE PUSH1 0x5 PUSH1 0x20 MSTORE PUSH1 0x40 SWAP1 KECCAK256 PUSH2 0x1862 SWAP1 DUP5 PUSH2 0x20A7 JUMP JUMPDEST POP PUSH2 0x1897 JUMP JUMPDEST PUSH2 0x1895 DUP4 PUSH2 0x1876 DUP5 DUP5 PUSH2 0x2B06 JUMP JUMPDEST PUSH1 0x1 PUSH1 0x1 PUSH1 0xA0 SHL SUB DUP8 AND PUSH1 0x0 SWAP1 DUP2 MSTORE PUSH1 0x5 PUSH1 0x20 MSTORE PUSH1 0x40 SWAP1 KECCAK256 SWAP2 SWAP1 PUSH2 0x20BC JUMP JUMPDEST POP JUMPDEST POP POP POP POP JUMP JUMPDEST PUSH2 0x18A6 DUP3 PUSH2 0xEF0 JUMP JUMPDEST PUSH1 0x1 PUSH1 0x1 PUSH1 0xA0 SHL SUB DUP3 AND PUSH1 0x0 SWAP1 DUP2 MSTORE PUSH1 0xC PUSH1 0x20 MSTORE PUSH1 0x40 DUP2 KECCAK256 DUP1 SLOAD DUP4 SWAP3 SWAP1 PUSH2 0x18CE SWAP1 DUP5 SWAP1 PUSH2 0x2B06 JUMP JUMPDEST SWAP3 POP POP DUP2 SWAP1 SSTORE POP DUP1 PUSH1 0x6 PUSH1 0x0 DUP3 DUP3 SLOAD PUSH2 0x18E7 SWAP2 SWAP1 PUSH2 0x2B06 JUMP JUMPDEST SWAP1 SWAP2 SSTORE POP POP PUSH1 0x40 MLOAD DUP2 DUP2 MSTORE PUSH1 0x1 PUSH1 0x1 PUSH1 0xA0 SHL SUB DUP4 AND SWAP1 PUSH32 0x85082129D87B2FE11527CB1B3B7A520AEB5AA6913F88A3D8757FE40D1DB02FDD SWAP1 PUSH1 0x20 ADD JUMPDEST PUSH1 0x40 MLOAD DUP1 SWAP2 SUB SWAP1 LOG2 POP POP JUMP JUMPDEST PUSH1 0x0 PUSH2 0x1249 DUP4 DUP4 PUSH2 0x20D2 JUMP JUMPDEST PUSH1 0x1 PUSH1 0x1 PUSH1 0xA0 SHL SUB DUP3 AND PUSH2 0x1991 JUMPI PUSH1 0x40 MLOAD PUSH3 0x461BCD PUSH1 0xE5 SHL DUP2 MSTORE PUSH1 0x20 PUSH1 0x4 DUP3 ADD MSTORE PUSH1 0x1C PUSH1 0x24 DUP3 ADD MSTORE PUSH32 0x63616E6E6F742064656C656761746520746F2030206164647265737300000000 PUSH1 0x44 DUP3 ADD MSTORE PUSH1 0x64 ADD PUSH2 0x63C JUMP JUMPDEST PUSH2 0x199E PUSH1 0x1 DUP5 DUP5 DUP5 PUSH2 0x2121 JUMP JUMPDEST PUSH1 0x1 PUSH1 0x1 PUSH1 0xA0 SHL SUB DUP4 AND PUSH1 0x0 SWAP1 DUP2 MSTORE PUSH1 0x5 PUSH1 0x20 MSTORE PUSH1 0x40 DUP2 KECCAK256 DUP2 SWAP1 PUSH2 0x19C2 SWAP1 DUP6 PUSH2 0x22F2 JUMP JUMPDEST SWAP2 POP SWAP2 POP PUSH1 0x0 DUP3 PUSH2 0x19D3 JUMPI DUP4 PUSH2 0x19DD JUMP JUMPDEST PUSH2 0x19DD DUP5 DUP4 PUSH2 0x2B30 JUMP JUMPDEST PUSH1 0x1 PUSH1 0x1 PUSH1 0xA0 SHL SUB DUP8 AND PUSH1 0x0 SWAP1 DUP2 MSTORE PUSH1 0x5 PUSH1 0x20 MSTORE PUSH1 0x40 SWAP1 KECCAK256 SWAP1 SWAP2 POP PUSH2 0x1A03 SWAP1 DUP7 DUP4 PUSH2 0x20BC JUMP JUMPDEST POP POP POP POP POP POP POP JUMP JUMPDEST PUSH2 0x1A15 DUP3 PUSH2 0xEF0 JUMP JUMPDEST DUP1 PUSH1 0x6 PUSH1 0x0 DUP3 DUP3 SLOAD PUSH2 0x1A27 SWAP2 SWAP1 PUSH2 0x2B30 JUMP JUMPDEST SWAP1 SWAP2 SSTORE POP POP PUSH1 0x1 PUSH1 0x1 PUSH1 0xA0 SHL SUB DUP3 AND PUSH1 0x0 SWAP1 DUP2 MSTORE PUSH1 0xC PUSH1 0x20 MSTORE PUSH1 0x40 DUP2 KECCAK256 DUP1 SLOAD DUP4 SWAP3 SWAP1 PUSH2 0x1A54 SWAP1 DUP5 SWAP1 PUSH2 0x2B30 JUMP JUMPDEST SWAP1 SWAP2 SSTORE POP POP PUSH1 0x40 MLOAD DUP2 DUP2 MSTORE PUSH1 0x1 PUSH1 0x1 PUSH1 0xA0 SHL SUB DUP4 AND SWAP1 PUSH32 0xEBEDB8B3C678666E7F36970BC8F57ABF6D8FA2E828C0DA91EA5B75BF68ED101A SWAP1 PUSH1 0x20 ADD PUSH2 0x1923 JUMP JUMPDEST PUSH1 0x0 DUP1 PUSH2 0x1AA1 DUP4 DUP6 PUSH2 0x2B19 JUMP JUMPDEST SWAP1 POP PUSH2 0x1AB5 PUSH8 0xDE0B6B3A7640000 DUP3 PUSH2 0x2BCE JUMP JUMPDEST SWAP5 SWAP4 POP POP POP POP JUMP JUMPDEST PUSH1 0x0 PUSH2 0x512 DUP3 SLOAD SWAP1 JUMP JUMPDEST PUSH1 0x0 PUSH2 0x1249 DUP4 DUP4 PUSH2 0x230A JUMP JUMPDEST PUSH2 0x1ADB PUSH2 0x518 JUMP JUMPDEST PUSH1 0x9 SLOAD PUSH1 0x40 MLOAD PUSH4 0x70A08231 PUSH1 0xE0 SHL DUP2 MSTORE ADDRESS PUSH1 0x4 DUP3 ADD MSTORE PUSH1 0x0 SWAP2 SWAP1 PUSH1 0x1 PUSH1 0x1 PUSH1 0xA0 SHL SUB PUSH32 0x0 AND SWAP1 PUSH4 0x70A08231 SWAP1 PUSH1 0x24 ADD PUSH1 0x20 PUSH1 0x40 MLOAD DUP1 DUP4 SUB DUP2 DUP7 GAS STATICCALL ISZERO DUP1 ISZERO PUSH2 0x1B46 JUMPI RETURNDATASIZE PUSH1 0x0 DUP1 RETURNDATACOPY RETURNDATASIZE PUSH1 0x0 REVERT JUMPDEST POP POP POP POP PUSH1 0x40 MLOAD RETURNDATASIZE PUSH1 0x1F NOT PUSH1 0x1F DUP3 ADD AND DUP3 ADD DUP1 PUSH1 0x40 MSTORE POP DUP2 ADD SWAP1 PUSH2 0x1B6A SWAP2 SWAP1 PUSH2 0x2CD8 JUMP JUMPDEST PUSH2 0x1B74 SWAP2 SWAP1 PUSH2 0x2B06 JUMP JUMPDEST SWAP1 POP PUSH2 0x1BCA PUSH1 0x1 PUSH1 0x1 PUSH1 0xA0 SHL SUB PUSH32 0x0 AND PUSH32 0x0 DUP4 PUSH2 0x1E31 JUMP JUMPDEST PUSH1 0x0 PUSH1 0xE DUP2 SWAP1 SSTORE PUSH1 0x40 MLOAD PUSH32 0xE5A0E15E63EDB96A15ED99A9C2A3674E2E0BD1B10B65D0223CCE19A6B54E7FB1 SWAP2 SWAP1 LOG1 POP JUMP JUMPDEST PUSH1 0x1 PUSH1 0x1 PUSH1 0xA0 SHL SUB DUP3 AND PUSH1 0x0 SWAP1 DUP2 MSTORE PUSH1 0x20 DUP5 DUP2 MSTORE PUSH1 0x40 DUP1 DUP4 KECCAK256 DUP1 SLOAD DUP3 MLOAD DUP2 DUP6 MUL DUP2 ADD DUP6 ADD SWAP1 SWAP4 MSTORE DUP1 DUP4 MSTORE DUP5 SWAP4 PUSH2 0x1C97 SWAP4 SWAP3 SWAP2 SWAP1 DUP6 SWAP1 DUP5 ADD JUMPDEST DUP3 DUP3 LT ISZERO PUSH2 0x1C8D JUMPI DUP4 DUP3 SWAP1 PUSH1 0x0 MSTORE PUSH1 0x20 PUSH1 0x0 KECCAK256 SWAP1 PUSH1 0x4 MUL ADD PUSH1 0x40 MLOAD DUP1 PUSH1 0x80 ADD PUSH1 0x40 MSTORE SWAP1 DUP2 PUSH1 0x0 DUP3 ADD SLOAD DUP2 MSTORE PUSH1 0x20 ADD PUSH1 0x1 DUP3 ADD SLOAD DUP2 MSTORE PUSH1 0x20 ADD PUSH1 0x2 DUP3 ADD SLOAD DUP2 MSTORE PUSH1 0x20 ADD PUSH1 0x3 DUP3 ADD SLOAD DUP2 MSTORE POP POP DUP2 MSTORE PUSH1 0x20 ADD SWAP1 PUSH1 0x1 ADD SWAP1 PUSH2 0x1C33 JUMP JUMPDEST POP POP POP POP DUP5 PUSH2 0x2334 JUMP JUMPDEST SWAP2 POP POP PUSH2 0x1CA3 DUP2 PUSH2 0x237A JUMP JUMPDEST SWAP6 SWAP5 POP POP POP POP POP JUMP JUMPDEST PUSH2 0x1CD7 PUSH1 0x40 MLOAD DUP1 PUSH1 0x80 ADD PUSH1 0x40 MSTORE DUP1 PUSH1 0x0 DUP2 MSTORE PUSH1 0x20 ADD PUSH1 0x0 DUP2 MSTORE PUSH1 0x20 ADD PUSH1 0x0 DUP2 MSTORE PUSH1 0x20 ADD PUSH1 0x0 DUP2 MSTORE POP SWAP1 JUMP JUMPDEST PUSH1 0x40 MLOAD DUP1 PUSH1 0x80 ADD PUSH1 0x40 MSTORE DUP1 PUSH1 0x0 DUP2 MSTORE PUSH1 0x20 ADD PUSH1 0x0 DUP2 MSTORE PUSH1 0x20 ADD PUSH8 0xDE0B6B3A7640000 DUP2 MSTORE PUSH1 0x20 ADD PUSH1 0x0 DUP2 MSTORE POP SWAP1 POP SWAP1 JUMP JUMPDEST PUSH1 0x0 DUP2 DUP2 MSTORE PUSH1 0x1 DUP4 ADD PUSH1 0x20 MSTORE PUSH1 0x40 DUP2 KECCAK256 SLOAD DUP1 ISZERO PUSH2 0x1DF1 JUMPI PUSH1 0x0 PUSH2 0x1D2C PUSH1 0x1 DUP4 PUSH2 0x2B06 JUMP JUMPDEST DUP6 SLOAD SWAP1 SWAP2 POP PUSH1 0x0 SWAP1 PUSH2 0x1D40 SWAP1 PUSH1 0x1 SWAP1 PUSH2 0x2B06 JUMP JUMPDEST SWAP1 POP DUP2 DUP2 EQ PUSH2 0x1DA5 JUMPI PUSH1 0x0 DUP7 PUSH1 0x0 ADD DUP3 DUP2 SLOAD DUP2 LT PUSH2 0x1D60 JUMPI PUSH2 0x1D60 PUSH2 0x2B7B JUMP JUMPDEST SWAP1 PUSH1 0x0 MSTORE PUSH1 0x20 PUSH1 0x0 KECCAK256 ADD SLOAD SWAP1 POP DUP1 DUP8 PUSH1 0x0 ADD DUP5 DUP2 SLOAD DUP2 LT PUSH2 0x1D83 JUMPI PUSH2 0x1D83 PUSH2 0x2B7B JUMP JUMPDEST PUSH1 0x0 SWAP2 DUP3 MSTORE PUSH1 0x20 DUP1 DUP4 KECCAK256 SWAP1 SWAP2 ADD SWAP3 SWAP1 SWAP3 SSTORE SWAP2 DUP3 MSTORE PUSH1 0x1 DUP9 ADD SWAP1 MSTORE PUSH1 0x40 SWAP1 KECCAK256 DUP4 SWAP1 SSTORE JUMPDEST DUP6 SLOAD DUP7 SWAP1 DUP1 PUSH2 0x1DB6 JUMPI PUSH2 0x1DB6 PUSH2 0x2CF1 JUMP JUMPDEST PUSH1 0x1 SWAP1 SUB DUP2 DUP2 SWAP1 PUSH1 0x0 MSTORE PUSH1 0x20 PUSH1 0x0 KECCAK256 ADD PUSH1 0x0 SWAP1 SSTORE SWAP1 SSTORE DUP6 PUSH1 0x1 ADD PUSH1 0x0 DUP7 DUP2 MSTORE PUSH1 0x20 ADD SWAP1 DUP2 MSTORE PUSH1 0x20 ADD PUSH1 0x0 KECCAK256 PUSH1 0x0 SWAP1 SSTORE PUSH1 0x1 SWAP4 POP POP POP POP PUSH2 0x512 JUMP JUMPDEST PUSH1 0x0 SWAP2 POP POP PUSH2 0x512 JUMP JUMPDEST PUSH1 0x0 PUSH2 0x512 DUP3 PUSH2 0x1ABD JUMP JUMPDEST PUSH1 0x0 DUP1 DUP1 PUSH2 0x1E14 DUP6 DUP6 PUSH2 0x1AC7 JUMP JUMPDEST PUSH1 0x0 DUP2 DUP2 MSTORE PUSH1 0x2 SWAP7 SWAP1 SWAP7 ADD PUSH1 0x20 MSTORE PUSH1 0x40 SWAP1 SWAP6 KECCAK256 SLOAD SWAP5 SWAP6 SWAP4 POP POP POP POP JUMP JUMPDEST PUSH1 0x40 MLOAD PUSH1 0x1 PUSH1 0x1 PUSH1 0xA0 SHL SUB DUP4 AND PUSH1 0x24 DUP3 ADD MSTORE PUSH1 0x44 DUP2 ADD DUP3 SWAP1 MSTORE PUSH2 0xA41 SWAP1 DUP5 SWAP1 PUSH4 0xA9059CBB PUSH1 0xE0 SHL SWAP1 PUSH1 0x64 ADD JUMPDEST PUSH1 0x40 DUP1 MLOAD PUSH1 0x1F NOT DUP2 DUP5 SUB ADD DUP2 MSTORE SWAP2 SWAP1 MSTORE PUSH1 0x20 DUP2 ADD DUP1 MLOAD PUSH1 0x1 PUSH1 0x1 PUSH1 0xE0 SHL SUB AND PUSH1 0x1 PUSH1 0x1 PUSH1 0xE0 SHL SUB NOT SWAP1 SWAP4 AND SWAP3 SWAP1 SWAP3 OR SWAP1 SWAP2 MSTORE PUSH2 0x23A6 JUMP JUMPDEST PUSH2 0x1897 DUP5 PUSH4 0x23B872DD PUSH1 0xE0 SHL DUP6 DUP6 DUP6 PUSH1 0x40 MLOAD PUSH1 0x24 ADD PUSH2 0x1E5D SWAP4 SWAP3 SWAP2 SWAP1 PUSH2 0x2BAA JUMP JUMPDEST PUSH1 0x1 PUSH1 0x1 PUSH1 0xA0 SHL SUB DUP1 DUP5 AND PUSH1 0x0 SWAP1 DUP2 MSTORE PUSH1 0x1 DUP7 ADD PUSH1 0x20 SWAP1 DUP2 MSTORE PUSH1 0x40 DUP1 DUP4 KECCAK256 SWAP4 DUP7 AND DUP4 MSTORE SWAP3 SWAP1 MSTORE KECCAK256 SLOAD DUP2 GT ISZERO PUSH2 0x1F3E JUMPI PUSH1 0x40 MLOAD PUSH3 0x461BCD PUSH1 0xE5 SHL DUP2 MSTORE PUSH1 0x20 PUSH1 0x4 DUP3 ADD MSTORE PUSH1 0x29 PUSH1 0x24 DUP3 ADD MSTORE PUSH32 0x7573657220686173206E6F742064656C65676174656420656E6F75676820746F PUSH1 0x44 DUP3 ADD MSTORE PUSH9 0x2064656C6567617465 PUSH1 0xB8 SHL PUSH1 0x64 DUP3 ADD MSTORE PUSH1 0x84 ADD PUSH2 0x63C JUMP JUMPDEST PUSH1 0x1 PUSH1 0x1 PUSH1 0xA0 SHL SUB DUP3 AND PUSH1 0x0 SWAP1 DUP2 MSTORE PUSH1 0x3 DUP6 ADD PUSH1 0x20 MSTORE PUSH1 0x40 DUP2 KECCAK256 DUP1 SLOAD DUP4 SWAP3 SWAP1 PUSH2 0x1F68 SWAP1 DUP5 SWAP1 PUSH2 0x2B06 JUMP JUMPDEST SWAP1 SWAP2 SSTORE POP POP PUSH1 0x1 PUSH1 0x1 PUSH1 0xA0 SHL SUB DUP4 AND PUSH1 0x0 SWAP1 DUP2 MSTORE PUSH1 0x2 DUP6 ADD PUSH1 0x20 MSTORE PUSH1 0x40 DUP2 KECCAK256 DUP1 SLOAD DUP4 SWAP3 SWAP1 PUSH2 0x1F97 SWAP1 DUP5 SWAP1 PUSH2 0x2B06 JUMP JUMPDEST SWAP1 SWAP2 SSTORE POP POP PUSH1 0x1 PUSH1 0x1 PUSH1 0xA0 SHL SUB DUP1 DUP5 AND PUSH1 0x0 SWAP1 DUP2 MSTORE PUSH1 0x1 DUP7 ADD PUSH1 0x20 SWAP1 DUP2 MSTORE PUSH1 0x40 DUP1 DUP4 KECCAK256 SWAP4 DUP7 AND DUP4 MSTORE SWAP3 SWAP1 MSTORE SWAP1 DUP2 KECCAK256 DUP1 SLOAD DUP4 SWAP3 SWAP1 PUSH2 0x1FD5 SWAP1 DUP5 SWAP1 PUSH2 0x2B06 JUMP JUMPDEST SWAP1 SWAP2 SSTORE POP PUSH1 0x0 SWAP1 POP PUSH2 0x1FE7 DUP6 DUP6 PUSH2 0x13FE JUMP JUMPDEST SWAP1 POP PUSH2 0x2014 DUP5 DUP3 PUSH1 0x20 ADD MLOAD DUP4 PUSH1 0x40 ADD MLOAD PUSH2 0x200A DUP9 DUP11 PUSH2 0x2478 SWAP1 SWAP2 SWAP1 PUSH4 0xFFFFFFFF AND JUMP JUMPDEST DUP10 SWAP4 SWAP3 SWAP2 SWAP1 PUSH2 0x16C4 JUMP JUMPDEST POP PUSH1 0x0 PUSH2 0x2021 DUP7 DUP6 PUSH2 0x13FE JUMP JUMPDEST SWAP1 POP PUSH2 0x204E DUP5 DUP3 PUSH1 0x20 ADD MLOAD DUP4 PUSH1 0x40 ADD MLOAD PUSH2 0x2044 DUP9 DUP12 PUSH2 0x2478 SWAP1 SWAP2 SWAP1 PUSH4 0xFFFFFFFF AND JUMP JUMPDEST DUP11 SWAP4 SWAP3 SWAP2 SWAP1 PUSH2 0x16C4 JUMP JUMPDEST POP PUSH32 0xDE5AA493A93D4351631C1991A0AEECFD52D6B51CF1B61F1A3C48F97E26808653 DUP6 DUP6 DUP6 PUSH1 0x40 MLOAD PUSH2 0x2082 SWAP4 SWAP3 SWAP2 SWAP1 PUSH2 0x2BAA JUMP JUMPDEST PUSH1 0x40 MLOAD DUP1 SWAP2 SUB SWAP1 LOG1 POP POP POP POP POP POP JUMP JUMPDEST PUSH1 0x0 PUSH2 0x1249 DUP4 PUSH1 0x1 PUSH1 0x1 PUSH1 0xA0 SHL SUB DUP5 AND PUSH2 0x24AA JUMP JUMPDEST PUSH1 0x0 PUSH2 0x1249 DUP4 PUSH1 0x1 PUSH1 0x1 PUSH1 0xA0 SHL SUB DUP5 AND PUSH2 0x251A JUMP JUMPDEST PUSH1 0x0 PUSH2 0x1AB5 DUP5 PUSH1 0x1 PUSH1 0x1 PUSH1 0xA0 SHL SUB DUP6 AND DUP5 PUSH2 0x2537 JUMP JUMPDEST PUSH1 0x0 DUP2 DUP2 MSTORE PUSH1 0x1 DUP4 ADD PUSH1 0x20 MSTORE PUSH1 0x40 DUP2 KECCAK256 SLOAD PUSH2 0x2119 JUMPI POP DUP2 SLOAD PUSH1 0x1 DUP2 DUP2 ADD DUP5 SSTORE PUSH1 0x0 DUP5 DUP2 MSTORE PUSH1 0x20 DUP1 DUP3 KECCAK256 SWAP1 SWAP4 ADD DUP5 SWAP1 SSTORE DUP5 SLOAD DUP5 DUP3 MSTORE DUP3 DUP7 ADD SWAP1 SWAP4 MSTORE PUSH1 0x40 SWAP1 KECCAK256 SWAP2 SWAP1 SWAP2 SSTORE PUSH2 0x512 JUMP JUMPDEST POP PUSH1 0x0 PUSH2 0x512 JUMP JUMPDEST PUSH1 0x0 PUSH2 0x212D DUP6 DUP6 PUSH2 0x13FE JUMP JUMPDEST PUSH1 0x1 PUSH1 0x1 PUSH1 0xA0 SHL SUB DUP6 AND PUSH1 0x0 SWAP1 DUP2 MSTORE PUSH1 0x2 DUP8 ADD PUSH1 0x20 SWAP1 DUP2 MSTORE PUSH1 0x40 DUP1 DUP4 KECCAK256 SLOAD SWAP1 DUP5 ADD MLOAD SWAP2 DUP5 ADD MLOAD SWAP4 SWAP5 POP SWAP2 SWAP3 PUSH2 0x2161 SWAP2 PUSH2 0x2554 JUMP JUMPDEST PUSH2 0x216B SWAP2 SWAP1 PUSH2 0x2B06 JUMP JUMPDEST SWAP1 POP DUP3 DUP2 LT ISZERO PUSH2 0x21BD JUMPI PUSH1 0x40 MLOAD PUSH3 0x461BCD PUSH1 0xE5 SHL DUP2 MSTORE PUSH1 0x20 PUSH1 0x4 DUP3 ADD DUP2 SWAP1 MSTORE PUSH1 0x24 DUP3 ADD MSTORE PUSH32 0x696E73756666696369656E742062616C616E636520746F2064656C6567617465 PUSH1 0x44 DUP3 ADD MSTORE PUSH1 0x64 ADD PUSH2 0x63C JUMP JUMPDEST PUSH1 0x1 PUSH1 0x1 PUSH1 0xA0 SHL SUB DUP5 AND PUSH1 0x0 SWAP1 DUP2 MSTORE PUSH1 0x3 DUP8 ADD PUSH1 0x20 MSTORE PUSH1 0x40 DUP2 KECCAK256 DUP1 SLOAD DUP6 SWAP3 SWAP1 PUSH2 0x21E7 SWAP1 DUP5 SWAP1 PUSH2 0x2B30 JUMP JUMPDEST SWAP1 SWAP2 SSTORE POP POP PUSH1 0x1 PUSH1 0x1 PUSH1 0xA0 SHL SUB DUP6 AND PUSH1 0x0 SWAP1 DUP2 MSTORE PUSH1 0x2 DUP8 ADD PUSH1 0x20 MSTORE PUSH1 0x40 DUP2 KECCAK256 DUP1 SLOAD DUP6 SWAP3 SWAP1 PUSH2 0x2216 SWAP1 DUP5 SWAP1 PUSH2 0x2B30 JUMP JUMPDEST SWAP1 SWAP2 SSTORE POP POP PUSH1 0x1 PUSH1 0x1 PUSH1 0xA0 SHL SUB DUP1 DUP7 AND PUSH1 0x0 SWAP1 DUP2 MSTORE PUSH1 0x1 DUP9 ADD PUSH1 0x20 SWAP1 DUP2 MSTORE PUSH1 0x40 DUP1 DUP4 KECCAK256 SWAP4 DUP9 AND DUP4 MSTORE SWAP3 SWAP1 MSTORE SWAP1 DUP2 KECCAK256 DUP1 SLOAD DUP6 SWAP3 SWAP1 PUSH2 0x2254 SWAP1 DUP5 SWAP1 PUSH2 0x2B30 JUMP JUMPDEST SWAP1 SWAP2 SSTORE POP POP PUSH1 0x20 DUP3 ADD MLOAD PUSH1 0x40 DUP4 ADD MLOAD PUSH2 0x2273 SWAP2 DUP8 SWAP2 PUSH2 0x2044 DUP11 DUP5 PUSH2 0x2478 JUMP JUMPDEST POP PUSH1 0x0 PUSH2 0x2280 DUP8 DUP7 PUSH2 0x13FE JUMP JUMPDEST SWAP1 POP PUSH2 0x22AD DUP6 DUP3 PUSH1 0x20 ADD MLOAD DUP4 PUSH1 0x40 ADD MLOAD PUSH2 0x22A3 DUP10 DUP13 PUSH2 0x2478 SWAP1 SWAP2 SWAP1 PUSH4 0xFFFFFFFF AND JUMP JUMPDEST DUP12 SWAP4 SWAP3 SWAP2 SWAP1 PUSH2 0x16C4 JUMP JUMPDEST POP PUSH32 0xFF825F9424124EFFC5CE1D9F4803D58EDE8A2BDA4DA2324810F74834715C4C59 DUP7 DUP7 DUP7 PUSH1 0x40 MLOAD PUSH2 0x22E1 SWAP4 SWAP3 SWAP2 SWAP1 PUSH2 0x2BAA JUMP JUMPDEST PUSH1 0x40 MLOAD DUP1 SWAP2 SUB SWAP1 LOG1 POP POP POP POP POP POP POP JUMP JUMPDEST PUSH1 0x0 DUP1 DUP1 DUP1 PUSH2 0x15E2 DUP7 PUSH1 0x1 PUSH1 0x1 PUSH1 0xA0 SHL SUB DUP8 AND PUSH2 0x2573 JUMP JUMPDEST PUSH1 0x0 DUP3 PUSH1 0x0 ADD DUP3 DUP2 SLOAD DUP2 LT PUSH2 0x2321 JUMPI PUSH2 0x2321 PUSH2 0x2B7B JUMP JUMPDEST SWAP1 PUSH1 0x0 MSTORE PUSH1 0x20 PUSH1 0x0 KECCAK256 ADD SLOAD SWAP1 POP SWAP3 SWAP2 POP POP JUMP JUMPDEST PUSH1 0x0 PUSH2 0x2361 PUSH1 0x40 MLOAD DUP1 PUSH1 0x80 ADD PUSH1 0x40 MSTORE DUP1 PUSH1 0x0 DUP2 MSTORE PUSH1 0x20 ADD PUSH1 0x0 DUP2 MSTORE PUSH1 0x20 ADD PUSH1 0x0 DUP2 MSTORE PUSH1 0x20 ADD PUSH1 0x0 DUP2 MSTORE POP SWAP1 JUMP JUMPDEST PUSH2 0x236F DUP5 DUP5 PUSH1 0x0 DUP8 MLOAD PUSH2 0x25B5 JUMP JUMPDEST SWAP2 POP SWAP2 POP SWAP3 POP SWAP3 SWAP1 POP JUMP JUMPDEST PUSH1 0x0 DUP2 PUSH1 0x60 ADD MLOAD PUSH2 0x239C DUP4 PUSH1 0x40 ADD MLOAD DUP5 PUSH1 0x20 ADD MLOAD PUSH2 0x2554 SWAP1 SWAP2 SWAP1 PUSH4 0xFFFFFFFF AND JUMP JUMPDEST PUSH2 0x512 SWAP2 SWAP1 PUSH2 0x2D07 JUMP JUMPDEST PUSH1 0x0 PUSH2 0x23FB DUP3 PUSH1 0x40 MLOAD DUP1 PUSH1 0x40 ADD PUSH1 0x40 MSTORE DUP1 PUSH1 0x20 DUP2 MSTORE PUSH1 0x20 ADD PUSH32 0x5361666545524332303A206C6F772D6C6576656C2063616C6C206661696C6564 DUP2 MSTORE POP DUP6 PUSH1 0x1 PUSH1 0x1 PUSH1 0xA0 SHL SUB AND PUSH2 0x2710 SWAP1 SWAP3 SWAP2 SWAP1 PUSH4 0xFFFFFFFF AND JUMP JUMPDEST DUP1 MLOAD SWAP1 SWAP2 POP ISZERO PUSH2 0xA41 JUMPI DUP1 DUP1 PUSH1 0x20 ADD SWAP1 MLOAD DUP2 ADD SWAP1 PUSH2 0x2419 SWAP2 SWAP1 PUSH2 0x2B43 JUMP JUMPDEST PUSH2 0xA41 JUMPI PUSH1 0x40 MLOAD PUSH3 0x461BCD PUSH1 0xE5 SHL DUP2 MSTORE PUSH1 0x20 PUSH1 0x4 DUP3 ADD MSTORE PUSH1 0x2A PUSH1 0x24 DUP3 ADD MSTORE PUSH32 0x5361666545524332303A204552433230206F7065726174696F6E20646964206E PUSH1 0x44 DUP3 ADD MSTORE PUSH10 0x1BDD081CDD58D8D95959 PUSH1 0xB2 SHL PUSH1 0x64 DUP3 ADD MSTORE PUSH1 0x84 ADD PUSH2 0x63C JUMP JUMPDEST PUSH1 0x1 PUSH1 0x1 PUSH1 0xA0 SHL SUB DUP2 AND PUSH1 0x0 SWAP1 DUP2 MSTORE PUSH1 0x2 DUP4 ADD PUSH1 0x20 SWAP1 DUP2 MSTORE PUSH1 0x40 DUP1 DUP4 KECCAK256 SLOAD PUSH1 0x3 DUP7 ADD SWAP1 SWAP3 MSTORE DUP3 KECCAK256 SLOAD PUSH2 0x1249 SWAP2 SWAP1 PUSH2 0x2D2F JUMP JUMPDEST PUSH1 0x0 DUP2 DUP2 MSTORE PUSH1 0x2 DUP4 ADD PUSH1 0x20 MSTORE PUSH1 0x40 DUP2 KECCAK256 SLOAD DUP1 ISZERO ISZERO DUP1 PUSH2 0x24CE JUMPI POP PUSH2 0x24CE DUP5 DUP5 PUSH2 0x271F JUMP JUMPDEST PUSH2 0x1249 JUMPI PUSH1 0x40 MLOAD PUSH3 0x461BCD PUSH1 0xE5 SHL DUP2 MSTORE PUSH1 0x20 PUSH1 0x4 DUP3 ADD MSTORE PUSH1 0x1E PUSH1 0x24 DUP3 ADD MSTORE PUSH32 0x456E756D657261626C654D61703A206E6F6E6578697374656E74206B65790000 PUSH1 0x44 DUP3 ADD MSTORE PUSH1 0x64 ADD PUSH2 0x63C JUMP JUMPDEST PUSH1 0x0 DUP2 DUP2 MSTORE PUSH1 0x2 DUP4 ADD PUSH1 0x20 MSTORE PUSH1 0x40 DUP2 KECCAK256 DUP2 SWAP1 SSTORE PUSH2 0x1249 DUP4 DUP4 PUSH2 0x15BC JUMP JUMPDEST PUSH1 0x0 DUP3 DUP2 MSTORE PUSH1 0x2 DUP5 ADD PUSH1 0x20 MSTORE PUSH1 0x40 DUP2 KECCAK256 DUP3 SWAP1 SSTORE PUSH2 0x1AB5 DUP5 DUP5 PUSH2 0x192F JUMP JUMPDEST PUSH1 0x0 PUSH8 0xDE0B6B3A7640000 PUSH2 0x2569 DUP4 DUP6 PUSH2 0x2B19 JUMP JUMPDEST PUSH2 0x1249 SWAP2 SWAP1 PUSH2 0x2BCE JUMP JUMPDEST PUSH1 0x0 DUP2 DUP2 MSTORE PUSH1 0x2 DUP4 ADD PUSH1 0x20 MSTORE PUSH1 0x40 DUP2 KECCAK256 SLOAD DUP2 SWAP1 DUP1 PUSH2 0x25A2 JUMPI PUSH2 0x2595 DUP6 DUP6 PUSH2 0x271F JUMP JUMPDEST SWAP3 POP PUSH1 0x0 SWAP2 POP PUSH2 0x15EA SWAP1 POP JUMP JUMPDEST PUSH1 0x1 SWAP3 POP SWAP1 POP PUSH2 0x15EA JUMP JUMPDEST POP SWAP3 POP SWAP3 SWAP1 POP JUMP JUMPDEST PUSH1 0x0 PUSH2 0x25E2 PUSH1 0x40 MLOAD DUP1 PUSH1 0x80 ADD PUSH1 0x40 MSTORE DUP1 PUSH1 0x0 DUP2 MSTORE PUSH1 0x20 ADD PUSH1 0x0 DUP2 MSTORE PUSH1 0x20 ADD PUSH1 0x0 DUP2 MSTORE PUSH1 0x20 ADD PUSH1 0x0 DUP2 MSTORE POP SWAP1 JUMP JUMPDEST DUP3 DUP5 LT PUSH2 0x25FC JUMPI PUSH1 0x0 PUSH2 0x25F3 PUSH2 0x1CAC JUMP JUMPDEST SWAP2 POP SWAP2 POP PUSH2 0x2707 JUMP JUMPDEST PUSH2 0x2606 DUP5 DUP5 PUSH2 0x2B06 JUMP JUMPDEST PUSH1 0x1 SUB PUSH2 0x2654 JUMPI PUSH1 0x0 DUP7 DUP6 DUP2 MLOAD DUP2 LT PUSH2 0x2621 JUMPI PUSH2 0x2621 PUSH2 0x2B7B JUMP JUMPDEST PUSH1 0x20 MUL PUSH1 0x20 ADD ADD MLOAD SWAP1 POP DUP6 DUP2 PUSH1 0x0 ADD MLOAD GT ISZERO PUSH2 0x2646 JUMPI PUSH1 0x0 PUSH2 0x2641 PUSH2 0x1CAC JUMP JUMPDEST PUSH2 0x264A JUMP JUMPDEST PUSH1 0x1 DUP2 JUMPDEST SWAP3 POP SWAP3 POP POP PUSH2 0x2707 JUMP JUMPDEST PUSH1 0x0 PUSH1 0x2 PUSH2 0x2662 DUP7 DUP7 PUSH2 0x2B30 JUMP JUMPDEST PUSH2 0x266C SWAP2 SWAP1 PUSH2 0x2BCE JUMP JUMPDEST SWAP1 POP PUSH1 0x0 DUP8 PUSH2 0x267C PUSH1 0x1 DUP5 PUSH2 0x2B06 JUMP JUMPDEST DUP2 MLOAD DUP2 LT PUSH2 0x268C JUMPI PUSH2 0x268C PUSH2 0x2B7B JUMP JUMPDEST PUSH1 0x20 MUL PUSH1 0x20 ADD ADD MLOAD SWAP1 POP PUSH1 0x0 DUP9 DUP4 DUP2 MLOAD DUP2 LT PUSH2 0x26AA JUMPI PUSH2 0x26AA PUSH2 0x2B7B JUMP JUMPDEST PUSH1 0x20 MUL PUSH1 0x20 ADD ADD MLOAD SWAP1 POP DUP8 DUP3 PUSH1 0x0 ADD MLOAD GT ISZERO DUP1 ISZERO PUSH2 0x26C8 JUMPI POP DUP1 MLOAD DUP9 LT JUMPDEST ISZERO PUSH2 0x26DB JUMPI POP PUSH1 0x1 SWAP4 POP SWAP2 POP PUSH2 0x2707 SWAP1 POP JUMP JUMPDEST DUP1 MLOAD DUP9 LT PUSH2 0x26FB JUMPI PUSH2 0x26EF DUP10 DUP10 DUP6 DUP10 PUSH2 0x25B5 JUMP JUMPDEST SWAP5 POP SWAP5 POP POP POP POP PUSH2 0x2707 JUMP JUMPDEST PUSH2 0x26EF DUP10 DUP10 DUP10 DUP7 PUSH2 0x25B5 JUMP JUMPDEST SWAP5 POP SWAP5 SWAP3 POP POP POP JUMP JUMPDEST PUSH1 0x60 PUSH2 0x1AB5 DUP5 DUP5 PUSH1 0x0 DUP6 PUSH2 0x272B JUMP JUMPDEST PUSH1 0x0 PUSH2 0x1249 DUP4 DUP4 PUSH2 0x2806 JUMP JUMPDEST PUSH1 0x60 DUP3 SELFBALANCE LT ISZERO PUSH2 0x278C JUMPI PUSH1 0x40 MLOAD PUSH3 0x461BCD PUSH1 0xE5 SHL DUP2 MSTORE PUSH1 0x20 PUSH1 0x4 DUP3 ADD MSTORE PUSH1 0x26 PUSH1 0x24 DUP3 ADD MSTORE PUSH32 0x416464726573733A20696E73756666696369656E742062616C616E636520666F PUSH1 0x44 DUP3 ADD MSTORE PUSH6 0x1C8818D85B1B PUSH1 0xD2 SHL PUSH1 0x64 DUP3 ADD MSTORE PUSH1 0x84 ADD PUSH2 0x63C JUMP JUMPDEST PUSH1 0x0 DUP1 DUP7 PUSH1 0x1 PUSH1 0x1 PUSH1 0xA0 SHL SUB AND DUP6 DUP8 PUSH1 0x40 MLOAD PUSH2 0x27A8 SWAP2 SWAP1 PUSH2 0x2D4F JUMP JUMPDEST PUSH1 0x0 PUSH1 0x40 MLOAD DUP1 DUP4 SUB DUP2 DUP6 DUP8 GAS CALL SWAP3 POP POP POP RETURNDATASIZE DUP1 PUSH1 0x0 DUP2 EQ PUSH2 0x27E5 JUMPI PUSH1 0x40 MLOAD SWAP2 POP PUSH1 0x1F NOT PUSH1 0x3F RETURNDATASIZE ADD AND DUP3 ADD PUSH1 0x40 MSTORE RETURNDATASIZE DUP3 MSTORE RETURNDATASIZE PUSH1 0x0 PUSH1 0x20 DUP5 ADD RETURNDATACOPY PUSH2 0x27EA JUMP JUMPDEST PUSH1 0x60 SWAP2 POP JUMPDEST POP SWAP2 POP SWAP2 POP PUSH2 0x27FB DUP8 DUP4 DUP4 DUP8 PUSH2 0x281E JUMP JUMPDEST SWAP8 SWAP7 POP POP POP POP POP POP POP JUMP JUMPDEST PUSH1 0x0 DUP2 DUP2 MSTORE PUSH1 0x1 DUP4 ADD PUSH1 0x20 MSTORE PUSH1 0x40 DUP2 KECCAK256 SLOAD ISZERO ISZERO PUSH2 0x1249 JUMP JUMPDEST PUSH1 0x60 DUP4 ISZERO PUSH2 0x288D JUMPI DUP3 MLOAD PUSH1 0x0 SUB PUSH2 0x2886 JUMPI PUSH1 0x1 PUSH1 0x1 PUSH1 0xA0 SHL SUB DUP6 AND EXTCODESIZE PUSH2 0x2886 JUMPI PUSH1 0x40 MLOAD PUSH3 0x461BCD PUSH1 0xE5 SHL DUP2 MSTORE PUSH1 0x20 PUSH1 0x4 DUP3 ADD MSTORE PUSH1 0x1D PUSH1 0x24 DUP3 ADD MSTORE PUSH32 0x416464726573733A2063616C6C20746F206E6F6E2D636F6E7472616374000000 PUSH1 0x44 DUP3 ADD MSTORE PUSH1 0x64 ADD PUSH2 0x63C JUMP JUMPDEST POP DUP2 PUSH2 0x1AB5 JUMP JUMPDEST PUSH2 0x1AB5 DUP4 DUP4 DUP2 MLOAD ISZERO PUSH2 0x28A2 JUMPI DUP2 MLOAD DUP1 DUP4 PUSH1 0x20 ADD REVERT JUMPDEST DUP1 PUSH1 0x40 MLOAD PUSH3 0x461BCD PUSH1 0xE5 SHL DUP2 MSTORE PUSH1 0x4 ADD PUSH2 0x63C SWAP2 SWAP1 PUSH2 0x29E7 JUMP JUMPDEST DUP1 CALLDATALOAD PUSH1 0x1 PUSH1 0x1 PUSH1 0xA0 SHL SUB DUP2 AND DUP2 EQ PUSH2 0x28D3 JUMPI PUSH1 0x0 DUP1 REVERT JUMPDEST SWAP2 SWAP1 POP JUMP JUMPDEST PUSH1 0x0 PUSH1 0x20 DUP3 DUP5 SUB SLT ISZERO PUSH2 0x28EA JUMPI PUSH1 0x0 DUP1 REVERT JUMPDEST PUSH2 0x1249 DUP3 PUSH2 0x28BC JUMP JUMPDEST PUSH1 0x0 PUSH1 0x20 DUP3 DUP5 SUB SLT ISZERO PUSH2 0x2905 JUMPI PUSH1 0x0 DUP1 REVERT JUMPDEST POP CALLDATALOAD SWAP2 SWAP1 POP JUMP JUMPDEST PUSH1 0x20 DUP1 DUP3 MSTORE DUP3 MLOAD DUP3 DUP3 ADD DUP2 SWAP1 MSTORE PUSH1 0x0 SWAP2 SWAP1 PUSH1 0x40 SWAP1 DUP2 DUP6 ADD SWAP1 DUP7 DUP5 ADD DUP6 JUMPDEST DUP3 DUP2 LT ISZERO PUSH2 0x2957 JUMPI DUP2 MLOAD DUP1 MLOAD PUSH1 0x1 PUSH1 0x1 PUSH1 0xA0 SHL SUB AND DUP6 MSTORE DUP7 ADD MLOAD DUP7 DUP6 ADD MSTORE SWAP3 DUP5 ADD SWAP3 SWAP1 DUP6 ADD SWAP1 PUSH1 0x1 ADD PUSH2 0x2929 JUMP JUMPDEST POP SWAP2 SWAP8 SWAP7 POP POP POP POP POP POP POP JUMP JUMPDEST PUSH1 0x0 DUP1 PUSH1 0x0 PUSH1 0x60 DUP5 DUP7 SUB SLT ISZERO PUSH2 0x2979 JUMPI PUSH1 0x0 DUP1 REVERT JUMPDEST PUSH2 0x2982 DUP5 PUSH2 0x28BC JUMP JUMPDEST SWAP6 PUSH1 0x20 DUP6 ADD CALLDATALOAD SWAP6 POP PUSH1 0x40 SWAP1 SWAP5 ADD CALLDATALOAD SWAP4 SWAP3 POP POP POP JUMP JUMPDEST PUSH1 0x0 DUP1 PUSH1 0x40 DUP4 DUP6 SUB SLT ISZERO PUSH2 0x29AA JUMPI PUSH1 0x0 DUP1 REVERT JUMPDEST DUP3 CALLDATALOAD SWAP2 POP PUSH2 0x29BA PUSH1 0x20 DUP5 ADD PUSH2 0x28BC JUMP JUMPDEST SWAP1 POP SWAP3 POP SWAP3 SWAP1 POP JUMP JUMPDEST PUSH1 0x0 JUMPDEST DUP4 DUP2 LT ISZERO PUSH2 0x29DE JUMPI DUP2 DUP2 ADD MLOAD DUP4 DUP3 ADD MSTORE PUSH1 0x20 ADD PUSH2 0x29C6 JUMP JUMPDEST POP POP PUSH1 0x0 SWAP2 ADD MSTORE JUMP JUMPDEST PUSH1 0x20 DUP2 MSTORE PUSH1 0x0 DUP3 MLOAD DUP1 PUSH1 0x20 DUP5 ADD MSTORE PUSH2 0x2A06 DUP2 PUSH1 0x40 DUP6 ADD PUSH1 0x20 DUP8 ADD PUSH2 0x29C3 JUMP JUMPDEST PUSH1 0x1F ADD PUSH1 0x1F NOT AND SWAP2 SWAP1 SWAP2 ADD PUSH1 0x40 ADD SWAP3 SWAP2 POP POP JUMP JUMPDEST PUSH1 0x0 DUP1 PUSH1 0x40 DUP4 DUP6 SUB SLT ISZERO PUSH2 0x2A2D JUMPI PUSH1 0x0 DUP1 REVERT JUMPDEST PUSH2 0x2A36 DUP4 PUSH2 0x28BC JUMP JUMPDEST SWAP5 PUSH1 0x20 SWAP4 SWAP1 SWAP4 ADD CALLDATALOAD SWAP4 POP POP POP JUMP JUMPDEST PUSH1 0x20 DUP1 DUP3 MSTORE DUP3 MLOAD DUP3 DUP3 ADD DUP2 SWAP1 MSTORE PUSH1 0x0 SWAP2 SWAP1 PUSH1 0x40 SWAP1 DUP2 DUP6 ADD SWAP1 DUP7 DUP5 ADD DUP6 JUMPDEST DUP3 DUP2 LT ISZERO PUSH2 0x2957 JUMPI DUP2 MLOAD DUP1 MLOAD DUP6 MSTORE DUP7 DUP2 ADD MLOAD DUP8 DUP7 ADD MSTORE DUP6 DUP2 ADD MLOAD DUP7 DUP7 ADD MSTORE PUSH1 0x60 DUP1 DUP3 ADD MLOAD PUSH1 0x1 PUSH1 0x1 PUSH1 0xA0 SHL SUB SWAP1 DUP2 AND SWAP2 DUP8 ADD SWAP2 SWAP1 SWAP2 MSTORE PUSH1 0x80 SWAP2 DUP3 ADD MLOAD AND SWAP1 DUP6 ADD MSTORE PUSH1 0xA0 SWAP1 SWAP4 ADD SWAP3 SWAP1 DUP6 ADD SWAP1 PUSH1 0x1 ADD PUSH2 0x2A61 JUMP JUMPDEST PUSH1 0x0 DUP1 PUSH1 0x0 PUSH1 0x60 DUP5 DUP7 SUB SLT ISZERO PUSH2 0x2AC9 JUMPI PUSH1 0x0 DUP1 REVERT JUMPDEST PUSH2 0x2AD2 DUP5 PUSH2 0x28BC JUMP JUMPDEST SWAP3 POP PUSH2 0x2AE0 PUSH1 0x20 DUP6 ADD PUSH2 0x28BC JUMP JUMPDEST SWAP2 POP PUSH1 0x40 DUP5 ADD CALLDATALOAD SWAP1 POP SWAP3 POP SWAP3 POP SWAP3 JUMP JUMPDEST PUSH4 0x4E487B71 PUSH1 0xE0 SHL PUSH1 0x0 MSTORE PUSH1 0x11 PUSH1 0x4 MSTORE PUSH1 0x24 PUSH1 0x0 REVERT JUMPDEST DUP2 DUP2 SUB DUP2 DUP2 GT ISZERO PUSH2 0x512 JUMPI PUSH2 0x512 PUSH2 0x2AF0 JUMP JUMPDEST DUP1 DUP3 MUL DUP2 ISZERO DUP3 DUP3 DIV DUP5 EQ OR PUSH2 0x512 JUMPI PUSH2 0x512 PUSH2 0x2AF0 JUMP JUMPDEST DUP1 DUP3 ADD DUP1 DUP3 GT ISZERO PUSH2 0x512 JUMPI PUSH2 0x512 PUSH2 0x2AF0 JUMP JUMPDEST PUSH1 0x0 PUSH1 0x20 DUP3 DUP5 SUB SLT ISZERO PUSH2 0x2B55 JUMPI PUSH1 0x0 DUP1 REVERT JUMPDEST DUP2 MLOAD DUP1 ISZERO ISZERO DUP2 EQ PUSH2 0x1249 JUMPI PUSH1 0x0 DUP1 REVERT JUMPDEST PUSH4 0x4E487B71 PUSH1 0xE0 SHL PUSH1 0x0 MSTORE PUSH1 0x41 PUSH1 0x4 MSTORE PUSH1 0x24 PUSH1 0x0 REVERT JUMPDEST PUSH4 0x4E487B71 PUSH1 0xE0 SHL PUSH1 0x0 MSTORE PUSH1 0x32 PUSH1 0x4 MSTORE PUSH1 0x24 PUSH1 0x0 REVERT JUMPDEST PUSH1 0x0 PUSH1 0x1 DUP3 ADD PUSH2 0x2BA3 JUMPI PUSH2 0x2BA3 PUSH2 0x2AF0 JUMP JUMPDEST POP PUSH1 0x1 ADD SWAP1 JUMP JUMPDEST PUSH1 0x1 PUSH1 0x1 PUSH1 0xA0 SHL SUB SWAP4 DUP5 AND DUP2 MSTORE SWAP2 SWAP1 SWAP3 AND PUSH1 0x20 DUP3 ADD MSTORE PUSH1 0x40 DUP2 ADD SWAP2 SWAP1 SWAP2 MSTORE PUSH1 0x60 ADD SWAP1 JUMP JUMPDEST PUSH1 0x0 DUP3 PUSH2 0x2BEB JUMPI PUSH4 0x4E487B71 PUSH1 0xE0 SHL PUSH1 0x0 MSTORE PUSH1 0x12 PUSH1 0x4 MSTORE PUSH1 0x24 PUSH1 0x0 REVERT JUMPDEST POP DIV SWAP1 JUMP JUMPDEST PUSH1 0x1 DUP2 DUP2 JUMPDEST DUP1 DUP6 GT ISZERO PUSH2 0x25AD JUMPI DUP2 PUSH1 0x0 NOT DIV DUP3 GT ISZERO PUSH2 0x2C11 JUMPI PUSH2 0x2C11 PUSH2 0x2AF0 JUMP JUMPDEST DUP1 DUP6 AND ISZERO PUSH2 0x2C1E JUMPI SWAP2 DUP2 MUL SWAP2 JUMPDEST SWAP4 DUP5 SHR SWAP4 SWAP1 DUP1 MUL SWAP1 PUSH2 0x2BF5 JUMP JUMPDEST PUSH1 0x0 DUP3 PUSH2 0x2C3A JUMPI POP PUSH1 0x1 PUSH2 0x512 JUMP JUMPDEST DUP2 PUSH2 0x2C47 JUMPI POP PUSH1 0x0 PUSH2 0x512 JUMP JUMPDEST DUP2 PUSH1 0x1 DUP2 EQ PUSH2 0x2C5D JUMPI PUSH1 0x2 DUP2 EQ PUSH2 0x2C67 JUMPI PUSH2 0x2C83 JUMP JUMPDEST PUSH1 0x1 SWAP2 POP POP PUSH2 0x512 JUMP JUMPDEST PUSH1 0xFF DUP5 GT ISZERO PUSH2 0x2C78 JUMPI PUSH2 0x2C78 PUSH2 0x2AF0 JUMP JUMPDEST POP POP PUSH1 0x1 DUP3 SHL PUSH2 0x512 JUMP JUMPDEST POP PUSH1 0x20 DUP4 LT PUSH2 0x133 DUP4 LT AND PUSH1 0x4E DUP5 LT PUSH1 0xB DUP5 LT AND OR ISZERO PUSH2 0x2CA6 JUMPI POP DUP2 DUP2 EXP PUSH2 0x512 JUMP JUMPDEST PUSH2 0x2CB0 DUP4 DUP4 PUSH2 0x2BF0 JUMP JUMPDEST DUP1 PUSH1 0x0 NOT DIV DUP3 GT ISZERO PUSH2 0x2CC4 JUMPI PUSH2 0x2CC4 PUSH2 0x2AF0 JUMP JUMPDEST MUL SWAP4 SWAP3 POP POP POP JUMP JUMPDEST PUSH1 0x0 PUSH2 0x1249 DUP4 DUP4 PUSH2 0x2C2B JUMP JUMPDEST PUSH1 0x0 PUSH1 0x20 DUP3 DUP5 SUB SLT ISZERO PUSH2 0x2CEA JUMPI PUSH1 0x0 DUP1 REVERT JUMPDEST POP MLOAD SWAP2 SWAP1 POP JUMP JUMPDEST PUSH4 0x4E487B71 PUSH1 0xE0 SHL PUSH1 0x0 MSTORE PUSH1 0x31 PUSH1 0x4 MSTORE PUSH1 0x24 PUSH1 0x0 REVERT JUMPDEST DUP1 DUP3 ADD DUP3 DUP2 SLT PUSH1 0x0 DUP4 SLT DUP1 ISZERO DUP3 AND DUP3 ISZERO DUP3 AND OR ISZERO PUSH2 0x2D27 JUMPI PUSH2 0x2D27 PUSH2 0x2AF0 JUMP JUMPDEST POP POP SWAP3 SWAP2 POP POP JUMP JUMPDEST DUP2 DUP2 SUB PUSH1 0x0 DUP4 SLT DUP1 ISZERO DUP4 DUP4 SGT AND DUP4 DUP4 SLT DUP3 AND OR ISZERO PUSH2 0x1505 JUMPI PUSH2 0x1505 PUSH2 0x2AF0 JUMP JUMPDEST PUSH1 0x0 DUP3 MLOAD PUSH2 0x2D61 DUP2 DUP5 PUSH1 0x20 DUP8 ADD PUSH2 0x29C3 JUMP JUMPDEST SWAP2 SWAP1 SWAP2 ADD SWAP3 SWAP2 POP POP JUMP INVALID LOG2 PUSH5 0x6970667358 0x22 SLT KECCAK256 SWAP5 MSTORE8 INVALID 0xCD PUSH6 0xDD45F0750070 GASPRICE 0xBD 0x4F MSIZE 0x4F 0x22 0xB0 DUP12 0xDF PUSH27 0x33C93FF7D1D32EF7DFE5E764736F6C634300081100330000000000 ","sha1":"e1db428d0dd2c9722ff6ac511e886702faff0848","source":"// SPDX-License-Identifier: GPL-3.0-or-later\npragma solidity ^0.8.17;\n\nimport \"@openzeppelin/contracts/token/ERC20/extensions/IERC20Metadata.sol\";\nimport \"@openzeppelin/contracts/proxy/utils/Initializable.sol\";\nimport \"@openzeppelin/contracts/utils/structs/EnumerableSet.sol\";\n\nimport \"../../interfaces/ILockingVault.sol\";\n\nimport \"../../libraries/DataTypes.sol\";\nimport \"../../libraries/ScaledMath.sol\";\nimport \"../../libraries/VotingPowerHistory.sol\";\n\nimport \"../access/ImmutableOwner.sol\";\nimport \"../LiquidityMining.sol\";\nimport \"./BaseDelegatingVault.sol\";\n\ncontract LockedVault is\n    Initializable,\n    BaseDelegatingVault,\n    ILockingVault,\n    ImmutableOwner,\n    LiquidityMining\n{\n    using ScaledMath for uint256;\n    using EnumerableSet for EnumerableSet.UintSet;\n    using VotingPowerHistory for VotingPowerHistory.History;\n\n    string internal constant _VAULT_TYPE = \"LockedVault\";\n\n    IERC20 public immutable underlying;\n    uint256 internal withdrawalWaitDuration;\n\n    // Mapping of a user's address to their pending withdrawal ids.\n    mapping(address => EnumerableSet.UintSet) internal userPendingWithdrawalIds;\n\n    mapping(uint256 => DataTypes.PendingWithdrawal) internal pendingWithdrawals;\n\n    uint256 internal nextWithdrawalId;\n\n    // Total supply of shares locked in the vault that are not queued for withdrawal\n    uint256 public totalSupply;\n\n    uint8 internal immutable _underlyingDecimals;\n\n    constructor(\n        address _owner,\n        address _underlying,\n        address _rewardsToken,\n        address _daoTreasury\n    ) ImmutableOwner(_owner) LiquidityMining(_rewardsToken, _daoTreasury) {\n        underlying = IERC20(_underlying);\n        _underlyingDecimals = IERC20Metadata(_underlying).decimals();\n    }\n\n    function initialize(uint256 _withdrawalWaitDuration) external initializer {\n        withdrawalWaitDuration = _withdrawalWaitDuration;\n        globalCheckpoint();\n    }\n\n    function startMining(\n        address rewardsFrom,\n        uint256 amount,\n        uint256 endTime\n    ) external override onlyOwner {\n        _startMining(rewardsFrom, amount, endTime);\n    }\n\n    function stopMining() external override onlyOwner {\n        _stopMining();\n    }\n\n    function setWithdrawalWaitDuration(uint256 _duration) external onlyOwner {\n        withdrawalWaitDuration = _duration;\n    }\n\n    function deposit(uint256 _amount) external {\n        deposit(_amount, msg.sender);\n    }\n\n    function deposit(uint256 _tokenAmount, address _delegate) public {\n        require(_delegate != address(0), \"no delegation to 0\");\n        require(_tokenAmount > 0, \"cannot deposit zero amount\");\n\n        underlying.transferFrom(msg.sender, address(this), _tokenAmount);\n\n        VotingPowerHistory.Record memory current = history.currentRecord(\n            msg.sender\n        );\n\n        // internal accounting is done with 18 decimals\n        uint256 scaledAmount = _tokenAmount.changeScale(\n            _underlyingDecimals,\n            18\n        );\n        history.updateVotingPower(\n            msg.sender,\n            current.baseVotingPower + scaledAmount,\n            current.multiplier,\n            current.netDelegatedVotes\n        );\n        if (_delegate != address(0) && _delegate != msg.sender) {\n            _delegateVote(msg.sender, _delegate, scaledAmount);\n        }\n        totalSupply += scaledAmount;\n        _stake(msg.sender, scaledAmount);\n\n        emit Deposit(msg.sender, _delegate, _tokenAmount);\n    }\n\n    function initiateWithdrawal(\n        uint256 _vaultTokenAmount,\n        address _delegate\n    ) external returns (uint256) {\n        require(_vaultTokenAmount >= 0, \"invalid withdrawal amount\");\n\n        VotingPowerHistory.Record memory currentVotingPower = history\n            .currentRecord(msg.sender);\n\n        bool undelegating = _delegate != address(0) && _delegate != msg.sender;\n\n        // NOTE: voting power in locked vault always has a multiplier of 1e18 (default on initialization) and is never updated\n        // therefore, we do not need to worry about it in the calculation of the condition below\n        require(\n            currentVotingPower.baseVotingPower >= _vaultTokenAmount &&\n                (undelegating ||\n                    currentVotingPower.baseVotingPower -\n                        history.delegatedVotingPower(msg.sender) >=\n                    _vaultTokenAmount),\n            \"not enough to undelegate\"\n        );\n        history.updateVotingPower(\n            msg.sender,\n            currentVotingPower.baseVotingPower - _vaultTokenAmount,\n            currentVotingPower.multiplier,\n            currentVotingPower.netDelegatedVotes\n        );\n        if (undelegating) {\n            _undelegateVote(msg.sender, _delegate, _vaultTokenAmount);\n        }\n        totalSupply -= _vaultTokenAmount;\n        _unstake(msg.sender, _vaultTokenAmount);\n\n        DataTypes.PendingWithdrawal memory withdrawal = DataTypes\n            .PendingWithdrawal({\n                id: nextWithdrawalId,\n                withdrawableAt: block.timestamp + withdrawalWaitDuration,\n                amount: _vaultTokenAmount,\n                to: msg.sender,\n                delegate: _delegate\n            });\n        pendingWithdrawals[withdrawal.id] = withdrawal;\n        userPendingWithdrawalIds[msg.sender].add(withdrawal.id);\n        nextWithdrawalId++;\n\n        emit WithdrawalQueued(\n            withdrawal.id,\n            withdrawal.to,\n            withdrawal.delegate,\n            withdrawal.withdrawableAt,\n            withdrawal.amount\n        );\n\n        return withdrawal.id;\n    }\n\n    function withdraw(uint256 withdrawalId) external {\n        DataTypes.PendingWithdrawal memory pending = pendingWithdrawals[\n            withdrawalId\n        ];\n        require(pending.to == msg.sender, \"matching withdrawal does not exist\");\n        require(\n            pending.withdrawableAt <= block.timestamp,\n            \"no valid pending withdrawal\"\n        );\n\n        uint256 underlyingTokenAmount = pending.amount.changeScale(\n            18,\n            _underlyingDecimals\n        );\n\n        underlying.transfer(pending.to, underlyingTokenAmount);\n\n        delete pendingWithdrawals[withdrawalId];\n        userPendingWithdrawalIds[pending.to].remove(withdrawalId);\n\n        emit WithdrawalCompleted(withdrawalId, pending.to, pending.amount);\n    }\n\n    function getRawVotingPower(\n        address _user,\n        uint256 timestamp\n    ) public view override returns (uint256) {\n        return history.getVotingPower(_user, timestamp);\n    }\n\n    function getTotalRawVotingPower()\n        public\n        view\n        virtual\n        override\n        returns (uint256)\n    {\n        return totalSupply;\n    }\n\n    function listPendingWithdrawals(\n        address _user\n    ) external view returns (DataTypes.PendingWithdrawal[] memory) {\n        EnumerableSet.UintSet storage ids = userPendingWithdrawalIds[_user];\n        DataTypes.PendingWithdrawal[]\n            memory pending = new DataTypes.PendingWithdrawal[](ids.length());\n        for (uint256 i = 0; i < ids.length(); i++) {\n            pending[i] = pendingWithdrawals[ids.at(i)];\n        }\n        return pending;\n    }\n\n    function getVaultType() external pure returns (string memory) {\n        return _VAULT_TYPE;\n    }\n}\n","sourcePath":"contracts/vaults/LockedVault.sol","type":"contract","deployment":{"address":"0x991aEBBde29bFD8455c2AB6B1cD51Dd9ab70A336","chainid":"1","blockHeight":18729911}}