{"abi":[{"inputs":[{"internalType":"address","name":"_owner","type":"address"},{"components":[{"components":[{"internalType":"address","name":"vaultAddress","type":"address"},{"internalType":"uint256","name":"initialWeight","type":"uint256"},{"internalType":"uint256","name":"targetWeight","type":"uint256"}],"internalType":"struct DataTypes.VaultWeightConfiguration[]","name":"vaults","type":"tuple[]"},{"internalType":"uint256","name":"startsAt","type":"uint256"},{"internalType":"uint256","name":"endsAt","type":"uint256"}],"internalType":"struct DataTypes.VaultWeightSchedule","name":"initialSchedule","type":"tuple"}],"stateMutability":"nonpayable","type":"constructor","name":"constructor"},{"inputs":[{"internalType":"address","name":"vault","type":"address"}],"name":"DuplicatedVault","type":"error"},{"inputs":[{"internalType":"uint256","name":"totalWeight","type":"uint256"}],"name":"InvalidTotalWeight","type":"error"},{"inputs":[{"internalType":"address","name":"actual","type":"address"},{"internalType":"address","name":"expected","type":"address"}],"name":"NotAuthorized","type":"error"},{"inputs":[{"components":[{"internalType":"address","name":"vaultAddress","type":"address"},{"internalType":"uint256","name":"votingPower","type":"uint256"}],"internalType":"struct DataTypes.VaultVotingPower[]","name":"vaultVotingPowers","type":"tuple[]"}],"name":"calculateWeightedPowerPct","outputs":[{"internalType":"uint256","name":"","type":"uint256"}],"stateMutability":"view","type":"function"},{"inputs":[],"name":"createVaultsSnapshot","outputs":[{"components":[{"internalType":"address","name":"vaultAddress","type":"address"},{"internalType":"uint256","name":"weight","type":"uint256"},{"internalType":"uint256","name":"totalVotingPower","type":"uint256"}],"internalType":"struct DataTypes.VaultSnapshot[]","name":"snapshots","type":"tuple[]"}],"stateMutability":"view","type":"function"},{"inputs":[{"internalType":"address","name":"vault","type":"address"}],"name":"getVaultWeight","outputs":[{"internalType":"uint256","name":"","type":"uint256"}],"stateMutability":"view","type":"function"},{"inputs":[{"internalType":"address","name":"account","type":"address"},{"internalType":"uint256","name":"timestamp","type":"uint256"}],"name":"getVotingPower","outputs":[{"components":[{"internalType":"address","name":"vaultAddress","type":"address"},{"internalType":"uint256","name":"votingPower","type":"uint256"}],"internalType":"struct DataTypes.VaultVotingPower[]","name":"","type":"tuple[]"}],"stateMutability":"view","type":"function"},{"inputs":[{"internalType":"address","name":"account","type":"address"},{"internalType":"uint256","name":"timestamp","type":"uint256"},{"internalType":"address[]","name":"vaults","type":"address[]"}],"name":"getVotingPower","outputs":[{"components":[{"internalType":"address","name":"vaultAddress","type":"address"},{"internalType":"uint256","name":"votingPower","type":"uint256"}],"internalType":"struct DataTypes.VaultVotingPower[]","name":"","type":"tuple[]"}],"stateMutability":"view","type":"function"},{"inputs":[],"name":"listVaults","outputs":[{"components":[{"internalType":"address","name":"vaultAddress","type":"address"},{"internalType":"uint256","name":"currentWeight","type":"uint256"},{"internalType":"uint256","name":"initialWeight","type":"uint256"},{"internalType":"uint256","name":"targetWeight","type":"uint256"}],"internalType":"struct DataTypes.VaultWeight[]","name":"","type":"tuple[]"}],"stateMutability":"view","type":"function"},{"inputs":[],"name":"owner","outputs":[{"internalType":"address","name":"","type":"address"}],"stateMutability":"view","type":"function"},{"inputs":[],"name":"scheduleEndsAt","outputs":[{"internalType":"uint256","name":"","type":"uint256"}],"stateMutability":"view","type":"function"},{"inputs":[],"name":"scheduleStartsAt","outputs":[{"internalType":"uint256","name":"","type":"uint256"}],"stateMutability":"view","type":"function"},{"inputs":[{"components":[{"components":[{"internalType":"address","name":"vaultAddress","type":"address"},{"internalType":"uint256","name":"initialWeight","type":"uint256"},{"internalType":"uint256","name":"targetWeight","type":"uint256"}],"internalType":"struct DataTypes.VaultWeightConfiguration[]","name":"vaults","type":"tuple[]"},{"internalType":"uint256","name":"startsAt","type":"uint256"},{"internalType":"uint256","name":"endsAt","type":"uint256"}],"internalType":"struct DataTypes.VaultWeightSchedule","name":"schedule","type":"tuple"}],"name":"setSchedule","outputs":[],"stateMutability":"nonpayable","type":"function"}],"bytecode":"60a06040523480156200001157600080fd5b5060405162001ad638038062001ad683398101604081905262000034916200055e565b6001600160a01b0382166080526200004c8162000054565b50506200072a565b8060200151816040015111620000bb5760405162461bcd60e51b815260206004820152602160248201527f7363686564756c65206d75737420656e6420616674657220697420626567696e6044820152607360f81b60648201526084015b60405180910390fd5b60208101516003556040810151600455620000d5620001ba565b60008060005b8351518110156200015a57600084600001518281518110620001015762000101620006a0565b602002602001015190506200011c816200026560201b60201c565b60208101516200012d9085620006cc565b9350806040015183620001419190620006cc565b92505080806200015190620006e2565b915050620000db565b50670de0b6b3a764000082146200018857604051635943317f60e01b815260048101839052602401620000b2565b670de0b6b3a76400008114620001b557604051635943317f60e01b815260048101829052602401620000b2565b505050565b6000620001d36000620002f660201b620008901760201c565b905060005b8181101562000261576000620001fe6000806200030760201b6200089a1790919060201c565b90506200021b8160006200031c60201b620008a61790919060201c565b506001600160a01b03166000908152600260208190526040822080546001600160a01b0319168155600181018390550155806200025881620006e2565b915050620001d8565b5050565b62000284816000015160006200033360201b620008bb1790919060201c565b620002b15780516040516374f3271b60e01b81526001600160a01b039091166004820152602401620000b2565b80516001600160a01b03908116600090815260026020818152604092839020855181546001600160a01b03191695169490941784558401516001840155920151910155565b600062000301825490565b92915050565b60006200031583836200034a565b9392505050565b600062000315836001600160a01b03841662000377565b600062000315836001600160a01b0384166200047b565b6000826000018281548110620003645762000364620006a0565b9060005260206000200154905092915050565b60008181526001830160205260408120548015620004705760006200039e600183620006fe565b8554909150600090620003b490600190620006fe565b905081811462000420576000866000018281548110620003d857620003d8620006a0565b9060005260206000200154905080876000018481548110620003fe57620003fe620006a0565b6000918252602080832090910192909255918252600188019052604090208390555b855486908062000434576200043462000714565b60019003818190600052602060002001600090559055856001016000868152602001908152602001600020600090556001935050505062000301565b600091505062000301565b6000818152600183016020526040812054620004c45750815460018181018455600084815260208082209093018490558454848252828601909352604090209190915562000301565b50600062000301565b80516001600160a01b0381168114620004e557600080fd5b919050565b634e487b7160e01b600052604160045260246000fd5b604051606081016001600160401b0381118282101715620005255762000525620004ea565b60405290565b604051601f8201601f191681016001600160401b0381118282101715620005565762000556620004ea565b604052919050565b60008060408084860312156200057357600080fd5b6200057e84620004cd565b602085810151919450906001600160401b03808211156200059e57600080fd5b8187019150606080838a031215620005b557600080fd5b620005bf62000500565b835183811115620005cf57600080fd5b8401601f81018b13620005e157600080fd5b805184811115620005f657620005f6620004ea565b62000606878260051b016200052b565b818152878101955090840282018701908c8211156200062457600080fd5b918701915b818310156200067a5784838e031215620006435760008081fd5b6200064d62000500565b6200065884620004cd565b81528389015189820152898401518a8201528652948701949184019162000629565b808452505050848401518582015285840151868201528096505050505050509250929050565b634e487b7160e01b600052603260045260246000fd5b634e487b7160e01b600052601160045260246000fd5b80820180821115620003015762000301620006b6565b600060018201620006f757620006f7620006b6565b5060010190565b81810381811115620003015762000301620006b6565b634e487b7160e01b600052603160045260246000fd5b608051611382620007546000396000818161011a0152818161028b01526102cd01526113826000f3fe608060405234801561001057600080fd5b506004361061009e5760003560e01c80638da5cb5b116100665780638da5cb5b146101155780638ff400f414610154578063a10202fc14610174578063ac8047d214610187578063c3481ecf1461019a57600080fd5b8063151f92d3146100a357806318272019146100c15780633bef7abb146100d65780634732a361146100f757806350cc258e14610100575b600080fd5b6100ab6101a3565b6040516100b89190610dd6565b60405180910390f35b6100d46100cf366004610e38565b610280565b005b6100e96100e4366004610e73565b610313565b6040519081526020016100b8565b6100e960035481565b61010861042f565b6040516100b89190610ee8565b61013c7f000000000000000000000000000000000000000000000000000000000000000081565b6040516001600160a01b0390911681526020016100b8565b610167610162366004610f64565b6105fa565b6040516100b89190610f8e565b61016761018236600461106d565b610612565b6100e9610195366004611126565b610775565b6100e960045481565b606060006101b16000610890565b90508067ffffffffffffffff8111156101cc576101cc610fd9565b60405190808252806020026020018201604052801561022a57816020015b610217604051806060016040528060006001600160a01b0316815260200160008152602001600081525090565b8152602001906001900390816101ea5790505b50915060005b8181101561027b5761024b61024660008361089a565b6108d0565b83828151811061025d5761025d611141565b602002602001018190525080806102739061116d565b915050610230565b505090565b336001600160a01b037f000000000000000000000000000000000000000000000000000000000000000016146102ff5760405163c55ddc9760e01b81523360048201526001600160a01b037f00000000000000000000000000000000000000000000000000000000000000001660248201526044015b60405180910390fd5b61031061030b82611186565b61098f565b50565b60008060005b8381101561042557600085858381811061033557610335611141565b90506040020180360381019061034b9190611267565b9050600061035c8260000151610775565b9050600081118015610372575060008260200151115b1561041057600082600001516001600160a01b031663344ff1d06040518163ffffffff1660e01b8152600401602060405180830381865afa1580156103bb573d6000803e3d6000fd5b505050506040513d601f19601f820116820180604052508101906103df91906112be565b9050610402826103fc838660200151610ad690919063ffffffff16565b90610af5565b61040c90866112d7565b9450505b5050808061041d9061116d565b915050610319565b5090505b92915050565b6060600061043d6000610890565b905060008167ffffffffffffffff81111561045a5761045a610fd9565b6040519080825280602002602001820160405280156104bf57816020015b6104ac604051806080016040528060006001600160a01b031681526020016000815260200160008152602001600081525090565b8152602001906001900390816104785790505b50905060005b828110156105f35760006002816104dc818561089a565b6001600160a01b0390811682526020808301939093526040918201600020825160608101845281549092168083526001820154948301949094526002015491810191909152845190925084908490811061053857610538611141565b6020026020010151600001906001600160a01b031690816001600160a01b031681525050806020015183838151811061057357610573611141565b60200260200101516040018181525050806040015183838151811061059a5761059a611141565b6020026020010151606001818152505060006105b98260000151610775565b9050808484815181106105ce576105ce611141565b60200260200101516020018181525050505080806105eb9061116d565b9150506104c5565b5092915050565b606061060b83836101826000610b0a565b9392505050565b60606000825167ffffffffffffffff81111561063057610630610fd9565b60405190808252806020026020018201604052801561067557816020015b604080518082019091526000808252602082015281526020019060019003908161064e5790505b50905060005b835181101561076c57600084828151811061069857610698611141565b602090810291909101015160405163de1ec40360e01b81526001600160a01b0389811660048301526024820189905291925060009183169063de1ec40390604401602060405180830381865afa1580156106f6573d6000803e3d6000fd5b505050506040513d601f19601f8201168201806040525081019061071a91906112be565b90506040518060400160405280836001600160a01b031681526020018281525084848151811061074c5761074c611141565b6020026020010181905250505080806107649061116d565b91505061067b565b50949350505050565b6001600160a01b038181166000908152600260208181526040808420815160608101835281549096168652600181015492860192909252910154908301526004549091904211156107ca576040015192915050565b6003544210156107de576020015192915050565b60006108066003546004546107f391906112ea565b60035461080090426112ea565b90610ad6565b905060008260200151836040015111156108535760008360200151846040015161083091906112ea565b905061083c8184610af5565b846020015161084b91906112d7565b915050610888565b60008360400151846020015161086991906112ea565b90506108758184610af5565b846020015161088491906112ea565b9150505b949350505050565b6000610429825490565b600061060b8383610b17565b600061060b836001600160a01b038416610b41565b600061060b836001600160a01b038416610c34565b6108fd604051806060016040528060006001600160a01b0316815260200160008152602001600081525090565b6040518060600160405280836001600160a01b0316815260200161092084610775565b8152602001836001600160a01b031663344ff1d06040518163ffffffff1660e01b8152600401602060405180830381865afa158015610963573d6000803e3d6000fd5b505050506040513d601f19601f8201168201806040525081019061098791906112be565b905292915050565b80602001518160400151116109f05760405162461bcd60e51b815260206004820152602160248201527f7363686564756c65206d75737420656e6420616674657220697420626567696e6044820152607360f81b60648201526084016102f6565b60208101516003556040810151600455610a08610c83565b60008060005b835151811015610a7a57600084600001518281518110610a3057610a30611141565b60200260200101519050610a4381610cfc565b6020810151610a5290856112d7565b9350806040015183610a6491906112d7565b9250508080610a729061116d565b915050610a0e565b50670de0b6b3a76400008214610aa657604051635943317f60e01b8152600481018390526024016102f6565b670de0b6b3a76400008114610ad157604051635943317f60e01b8152600481018290526024016102f6565b505050565b600081610aeb670de0b6b3a7640000856112fd565b61060b9190611314565b6000670de0b6b3a7640000610aeb83856112fd565b6060600061060b83610d7a565b6000826000018281548110610b2e57610b2e611141565b9060005260206000200154905092915050565b60008181526001830160205260408120548015610c2a576000610b656001836112ea565b8554909150600090610b79906001906112ea565b9050818114610bde576000866000018281548110610b9957610b99611141565b9060005260206000200154905080876000018481548110610bbc57610bbc611141565b6000918252602080832090910192909255918252600188019052604090208390555b8554869080610bef57610bef611336565b600190038181906000526020600020016000905590558560010160008681526020019081526020016000206000905560019350505050610429565b6000915050610429565b6000818152600183016020526040812054610c7b57508154600181810184556000848152602080822090930184905584548482528286019093526040902091909155610429565b506000610429565b6000610c8f6000610890565b905060005b81811015610cf8576000610ca8818061089a565b9050610cb56000826108a6565b506001600160a01b03166000908152600260208190526040822080546001600160a01b031916815560018101839055015580610cf08161116d565b915050610c94565b5050565b8051610d0a906000906108bb565b610d355780516040516374f3271b60e01b81526001600160a01b0390911660048201526024016102f6565b80516001600160a01b03908116600090815260026020818152604092839020855181546001600160a01b03191695169490941784558401516001840155920151910155565b606081600001805480602002602001604051908101604052809291908181526020018280548015610dca57602002820191906000526020600020905b815481526020019060010190808311610db6575b50505050509050919050565b602080825282518282018190526000919060409081850190868401855b82811015610e2b57815180516001600160a01b0316855286810151878601528501518585015260609093019290850190600101610df3565b5091979650505050505050565b600060208284031215610e4a57600080fd5b813567ffffffffffffffff811115610e6157600080fd5b82016060818503121561060b57600080fd5b60008060208385031215610e8657600080fd5b823567ffffffffffffffff80821115610e9e57600080fd5b818501915085601f830112610eb257600080fd5b813581811115610ec157600080fd5b8660208260061b8501011115610ed657600080fd5b60209290920196919550909350505050565b602080825282518282018190526000919060409081850190868401855b82811015610e2b57815180516001600160a01b03168552868101518786015285810151868601526060908101519085015260809093019290850190600101610f05565b80356001600160a01b0381168114610f5f57600080fd5b919050565b60008060408385031215610f7757600080fd5b610f8083610f48565b946020939093013593505050565b602080825282518282018190526000919060409081850190868401855b82811015610e2b57815180516001600160a01b03168552860151868501529284019290850190600101610fab565b634e487b7160e01b600052604160045260246000fd5b6040516060810167ffffffffffffffff8111828210171561101257611012610fd9565b60405290565b604051601f8201601f1916810167ffffffffffffffff8111828210171561104157611041610fd9565b604052919050565b600067ffffffffffffffff82111561106357611063610fd9565b5060051b60200190565b60008060006060848603121561108257600080fd5b61108b84610f48565b92506020808501359250604085013567ffffffffffffffff8111156110af57600080fd5b8501601f810187136110c057600080fd5b80356110d36110ce82611049565b611018565b81815260059190911b820183019083810190898311156110f257600080fd5b928401925b828410156111175761110884610f48565b825292840192908401906110f7565b80955050505050509250925092565b60006020828403121561113857600080fd5b61060b82610f48565b634e487b7160e01b600052603260045260246000fd5b634e487b7160e01b600052601160045260246000fd5b60006001820161117f5761117f611157565b5060010190565b6000606080833603121561119957600080fd5b6111a1610fef565b833567ffffffffffffffff8111156111b857600080fd5b840136601f8201126111c957600080fd5b803560206111d96110ce83611049565b828152918502830181019181810190368411156111f557600080fd5b938201935b83851015611246578685360312156112125760008081fd5b61121a610fef565b61122386610f48565b8152858401358482015260408087013590820152825293860193908201906111fa565b85525086810135908401525050604093840135938101939093525090919050565b60006040828403121561127957600080fd5b6040516040810181811067ffffffffffffffff8211171561129c5761129c610fd9565b6040526112a883610f48565b8152602083013560208201528091505092915050565b6000602082840312156112d057600080fd5b5051919050565b8082018082111561042957610429611157565b8181038181111561042957610429611157565b808202811582820484141761042957610429611157565b60008261133157634e487b7160e01b600052601260045260246000fd5b500490565b634e487b7160e01b600052603160045260246000fdfea26469706673582212207d3255296f14370dc35ddf35e7c5b0d725b409c4ed4b1a6c82ae4857f9fcd7c664736f6c63430008110033","bytecodeSha1":"fa62ef07bcda564f59cbe4a722315c3a12937b2b","compiler":{"evm_version":"istanbul","optimizer":{"enabled":true,"runs":200},"version":"0.8.17+commit.8df45f5f"},"contractName":"VotingPowerAggregator","language":"Solidity","natspec":{"kind":"dev","methods":{},"version":1},"opcodes":"PUSH1 0x80 PUSH1 0x40 MSTORE CALLVALUE DUP1 ISZERO PUSH2 0x10 JUMPI PUSH1 0x0 DUP1 REVERT JUMPDEST POP PUSH1 0x4 CALLDATASIZE LT PUSH2 0x9E JUMPI PUSH1 0x0 CALLDATALOAD PUSH1 0xE0 SHR DUP1 PUSH4 0x8DA5CB5B GT PUSH2 0x66 JUMPI DUP1 PUSH4 0x8DA5CB5B EQ PUSH2 0x115 JUMPI DUP1 PUSH4 0x8FF400F4 EQ PUSH2 0x154 JUMPI DUP1 PUSH4 0xA10202FC EQ PUSH2 0x174 JUMPI DUP1 PUSH4 0xAC8047D2 EQ PUSH2 0x187 JUMPI DUP1 PUSH4 0xC3481ECF EQ PUSH2 0x19A JUMPI PUSH1 0x0 DUP1 REVERT JUMPDEST DUP1 PUSH4 0x151F92D3 EQ PUSH2 0xA3 JUMPI DUP1 PUSH4 0x18272019 EQ PUSH2 0xC1 JUMPI DUP1 PUSH4 0x3BEF7ABB EQ PUSH2 0xD6 JUMPI DUP1 PUSH4 0x4732A361 EQ PUSH2 0xF7 JUMPI DUP1 PUSH4 0x50CC258E EQ PUSH2 0x100 JUMPI JUMPDEST PUSH1 0x0 DUP1 REVERT JUMPDEST PUSH2 0xAB PUSH2 0x1A3 JUMP JUMPDEST PUSH1 0x40 MLOAD PUSH2 0xB8 SWAP2 SWAP1 PUSH2 0xDD6 JUMP JUMPDEST PUSH1 0x40 MLOAD DUP1 SWAP2 SUB SWAP1 RETURN JUMPDEST PUSH2 0xD4 PUSH2 0xCF CALLDATASIZE PUSH1 0x4 PUSH2 0xE38 JUMP JUMPDEST PUSH2 0x280 JUMP JUMPDEST STOP JUMPDEST PUSH2 0xE9 PUSH2 0xE4 CALLDATASIZE PUSH1 0x4 PUSH2 0xE73 JUMP JUMPDEST PUSH2 0x313 JUMP JUMPDEST PUSH1 0x40 MLOAD SWAP1 DUP2 MSTORE PUSH1 0x20 ADD PUSH2 0xB8 JUMP JUMPDEST PUSH2 0xE9 PUSH1 0x3 SLOAD DUP2 JUMP JUMPDEST PUSH2 0x108 PUSH2 0x42F JUMP JUMPDEST PUSH1 0x40 MLOAD PUSH2 0xB8 SWAP2 SWAP1 PUSH2 0xEE8 JUMP JUMPDEST PUSH2 0x13C PUSH32 0x0 DUP2 JUMP JUMPDEST PUSH1 0x40 MLOAD PUSH1 0x1 PUSH1 0x1 PUSH1 0xA0 SHL SUB SWAP1 SWAP2 AND DUP2 MSTORE PUSH1 0x20 ADD PUSH2 0xB8 JUMP JUMPDEST PUSH2 0x167 PUSH2 0x162 CALLDATASIZE PUSH1 0x4 PUSH2 0xF64 JUMP JUMPDEST PUSH2 0x5FA JUMP JUMPDEST PUSH1 0x40 MLOAD PUSH2 0xB8 SWAP2 SWAP1 PUSH2 0xF8E JUMP JUMPDEST PUSH2 0x167 PUSH2 0x182 CALLDATASIZE PUSH1 0x4 PUSH2 0x106D JUMP JUMPDEST PUSH2 0x612 JUMP JUMPDEST PUSH2 0xE9 PUSH2 0x195 CALLDATASIZE PUSH1 0x4 PUSH2 0x1126 JUMP JUMPDEST PUSH2 0x775 JUMP JUMPDEST PUSH2 0xE9 PUSH1 0x4 SLOAD DUP2 JUMP JUMPDEST PUSH1 0x60 PUSH1 0x0 PUSH2 0x1B1 PUSH1 0x0 PUSH2 0x890 JUMP JUMPDEST SWAP1 POP DUP1 PUSH8 0xFFFFFFFFFFFFFFFF DUP2 GT ISZERO PUSH2 0x1CC JUMPI PUSH2 0x1CC PUSH2 0xFD9 JUMP JUMPDEST PUSH1 0x40 MLOAD SWAP1 DUP1 DUP3 MSTORE DUP1 PUSH1 0x20 MUL PUSH1 0x20 ADD DUP3 ADD PUSH1 0x40 MSTORE DUP1 ISZERO PUSH2 0x22A JUMPI DUP2 PUSH1 0x20 ADD JUMPDEST PUSH2 0x217 PUSH1 0x40 MLOAD DUP1 PUSH1 0x60 ADD PUSH1 0x40 MSTORE DUP1 PUSH1 0x0 PUSH1 0x1 PUSH1 0x1 PUSH1 0xA0 SHL SUB AND DUP2 MSTORE PUSH1 0x20 ADD PUSH1 0x0 DUP2 MSTORE PUSH1 0x20 ADD PUSH1 0x0 DUP2 MSTORE POP SWAP1 JUMP JUMPDEST DUP2 MSTORE PUSH1 0x20 ADD SWAP1 PUSH1 0x1 SWAP1 SUB SWAP1 DUP2 PUSH2 0x1EA JUMPI SWAP1 POP JUMPDEST POP SWAP2 POP PUSH1 0x0 JUMPDEST DUP2 DUP2 LT ISZERO PUSH2 0x27B JUMPI PUSH2 0x24B PUSH2 0x246 PUSH1 0x0 DUP4 PUSH2 0x89A JUMP JUMPDEST PUSH2 0x8D0 JUMP JUMPDEST DUP4 DUP3 DUP2 MLOAD DUP2 LT PUSH2 0x25D JUMPI PUSH2 0x25D PUSH2 0x1141 JUMP JUMPDEST PUSH1 0x20 MUL PUSH1 0x20 ADD ADD DUP2 SWAP1 MSTORE POP DUP1 DUP1 PUSH2 0x273 SWAP1 PUSH2 0x116D JUMP JUMPDEST SWAP2 POP POP PUSH2 0x230 JUMP JUMPDEST POP POP SWAP1 JUMP JUMPDEST CALLER PUSH1 0x1 PUSH1 0x1 PUSH1 0xA0 SHL SUB PUSH32 0x0 AND EQ PUSH2 0x2FF JUMPI PUSH1 0x40 MLOAD PUSH4 0xC55DDC97 PUSH1 0xE0 SHL DUP2 MSTORE CALLER PUSH1 0x4 DUP3 ADD MSTORE PUSH1 0x1 PUSH1 0x1 PUSH1 0xA0 SHL SUB PUSH32 0x0 AND PUSH1 0x24 DUP3 ADD MSTORE PUSH1 0x44 ADD JUMPDEST PUSH1 0x40 MLOAD DUP1 SWAP2 SUB SWAP1 REVERT JUMPDEST PUSH2 0x310 PUSH2 0x30B DUP3 PUSH2 0x1186 JUMP JUMPDEST PUSH2 0x98F JUMP JUMPDEST POP JUMP JUMPDEST PUSH1 0x0 DUP1 PUSH1 0x0 JUMPDEST DUP4 DUP2 LT ISZERO PUSH2 0x425 JUMPI PUSH1 0x0 DUP6 DUP6 DUP4 DUP2 DUP2 LT PUSH2 0x335 JUMPI PUSH2 0x335 PUSH2 0x1141 JUMP JUMPDEST SWAP1 POP PUSH1 0x40 MUL ADD DUP1 CALLDATASIZE SUB DUP2 ADD SWAP1 PUSH2 0x34B SWAP2 SWAP1 PUSH2 0x1267 JUMP JUMPDEST SWAP1 POP PUSH1 0x0 PUSH2 0x35C DUP3 PUSH1 0x0 ADD MLOAD PUSH2 0x775 JUMP JUMPDEST SWAP1 POP PUSH1 0x0 DUP2 GT DUP1 ISZERO PUSH2 0x372 JUMPI POP PUSH1 0x0 DUP3 PUSH1 0x20 ADD MLOAD GT JUMPDEST ISZERO PUSH2 0x410 JUMPI PUSH1 0x0 DUP3 PUSH1 0x0 ADD MLOAD PUSH1 0x1 PUSH1 0x1 PUSH1 0xA0 SHL SUB AND PUSH4 0x344FF1D0 PUSH1 0x40 MLOAD DUP2 PUSH4 0xFFFFFFFF AND PUSH1 0xE0 SHL DUP2 MSTORE PUSH1 0x4 ADD PUSH1 0x20 PUSH1 0x40 MLOAD DUP1 DUP4 SUB DUP2 DUP7 GAS STATICCALL ISZERO DUP1 ISZERO PUSH2 0x3BB JUMPI RETURNDATASIZE PUSH1 0x0 DUP1 RETURNDATACOPY RETURNDATASIZE PUSH1 0x0 REVERT JUMPDEST POP POP POP POP PUSH1 0x40 MLOAD RETURNDATASIZE PUSH1 0x1F NOT PUSH1 0x1F DUP3 ADD AND DUP3 ADD DUP1 PUSH1 0x40 MSTORE POP DUP2 ADD SWAP1 PUSH2 0x3DF SWAP2 SWAP1 PUSH2 0x12BE JUMP JUMPDEST SWAP1 POP PUSH2 0x402 DUP3 PUSH2 0x3FC DUP4 DUP7 PUSH1 0x20 ADD MLOAD PUSH2 0xAD6 SWAP1 SWAP2 SWAP1 PUSH4 0xFFFFFFFF AND JUMP JUMPDEST SWAP1 PUSH2 0xAF5 JUMP JUMPDEST PUSH2 0x40C SWAP1 DUP7 PUSH2 0x12D7 JUMP JUMPDEST SWAP5 POP POP JUMPDEST POP POP DUP1 DUP1 PUSH2 0x41D SWAP1 PUSH2 0x116D JUMP JUMPDEST SWAP2 POP POP PUSH2 0x319 JUMP JUMPDEST POP SWAP1 POP JUMPDEST SWAP3 SWAP2 POP POP JUMP JUMPDEST PUSH1 0x60 PUSH1 0x0 PUSH2 0x43D PUSH1 0x0 PUSH2 0x890 JUMP JUMPDEST SWAP1 POP PUSH1 0x0 DUP2 PUSH8 0xFFFFFFFFFFFFFFFF DUP2 GT ISZERO PUSH2 0x45A JUMPI PUSH2 0x45A PUSH2 0xFD9 JUMP JUMPDEST PUSH1 0x40 MLOAD SWAP1 DUP1 DUP3 MSTORE DUP1 PUSH1 0x20 MUL PUSH1 0x20 ADD DUP3 ADD PUSH1 0x40 MSTORE DUP1 ISZERO PUSH2 0x4BF JUMPI DUP2 PUSH1 0x20 ADD JUMPDEST PUSH2 0x4AC PUSH1 0x40 MLOAD DUP1 PUSH1 0x80 ADD PUSH1 0x40 MSTORE DUP1 PUSH1 0x0 PUSH1 0x1 PUSH1 0x1 PUSH1 0xA0 SHL SUB AND DUP2 MSTORE PUSH1 0x20 ADD PUSH1 0x0 DUP2 MSTORE PUSH1 0x20 ADD PUSH1 0x0 DUP2 MSTORE PUSH1 0x20 ADD PUSH1 0x0 DUP2 MSTORE POP SWAP1 JUMP JUMPDEST DUP2 MSTORE PUSH1 0x20 ADD SWAP1 PUSH1 0x1 SWAP1 SUB SWAP1 DUP2 PUSH2 0x478 JUMPI SWAP1 POP JUMPDEST POP SWAP1 POP PUSH1 0x0 JUMPDEST DUP3 DUP2 LT ISZERO PUSH2 0x5F3 JUMPI PUSH1 0x0 PUSH1 0x2 DUP2 PUSH2 0x4DC DUP2 DUP6 PUSH2 0x89A JUMP JUMPDEST PUSH1 0x1 PUSH1 0x1 PUSH1 0xA0 SHL SUB SWAP1 DUP2 AND DUP3 MSTORE PUSH1 0x20 DUP1 DUP4 ADD SWAP4 SWAP1 SWAP4 MSTORE PUSH1 0x40 SWAP2 DUP3 ADD PUSH1 0x0 KECCAK256 DUP3 MLOAD PUSH1 0x60 DUP2 ADD DUP5 MSTORE DUP2 SLOAD SWAP1 SWAP3 AND DUP1 DUP4 MSTORE PUSH1 0x1 DUP3 ADD SLOAD SWAP5 DUP4 ADD SWAP5 SWAP1 SWAP5 MSTORE PUSH1 0x2 ADD SLOAD SWAP2 DUP2 ADD SWAP2 SWAP1 SWAP2 MSTORE DUP5 MLOAD SWAP1 SWAP3 POP DUP5 SWAP1 DUP5 SWAP1 DUP2 LT PUSH2 0x538 JUMPI PUSH2 0x538 PUSH2 0x1141 JUMP JUMPDEST PUSH1 0x20 MUL PUSH1 0x20 ADD ADD MLOAD PUSH1 0x0 ADD SWAP1 PUSH1 0x1 PUSH1 0x1 PUSH1 0xA0 SHL SUB AND SWAP1 DUP2 PUSH1 0x1 PUSH1 0x1 PUSH1 0xA0 SHL SUB AND DUP2 MSTORE POP POP DUP1 PUSH1 0x20 ADD MLOAD DUP4 DUP4 DUP2 MLOAD DUP2 LT PUSH2 0x573 JUMPI PUSH2 0x573 PUSH2 0x1141 JUMP JUMPDEST PUSH1 0x20 MUL PUSH1 0x20 ADD ADD MLOAD PUSH1 0x40 ADD DUP2 DUP2 MSTORE POP POP DUP1 PUSH1 0x40 ADD MLOAD DUP4 DUP4 DUP2 MLOAD DUP2 LT PUSH2 0x59A JUMPI PUSH2 0x59A PUSH2 0x1141 JUMP JUMPDEST PUSH1 0x20 MUL PUSH1 0x20 ADD ADD MLOAD PUSH1 0x60 ADD DUP2 DUP2 MSTORE POP POP PUSH1 0x0 PUSH2 0x5B9 DUP3 PUSH1 0x0 ADD MLOAD PUSH2 0x775 JUMP JUMPDEST SWAP1 POP DUP1 DUP5 DUP5 DUP2 MLOAD DUP2 LT PUSH2 0x5CE JUMPI PUSH2 0x5CE PUSH2 0x1141 JUMP JUMPDEST PUSH1 0x20 MUL PUSH1 0x20 ADD ADD MLOAD PUSH1 0x20 ADD DUP2 DUP2 MSTORE POP POP POP POP DUP1 DUP1 PUSH2 0x5EB SWAP1 PUSH2 0x116D JUMP JUMPDEST SWAP2 POP POP PUSH2 0x4C5 JUMP JUMPDEST POP SWAP3 SWAP2 POP POP JUMP JUMPDEST PUSH1 0x60 PUSH2 0x60B DUP4 DUP4 PUSH2 0x182 PUSH1 0x0 PUSH2 0xB0A JUMP JUMPDEST SWAP4 SWAP3 POP POP POP JUMP JUMPDEST PUSH1 0x60 PUSH1 0x0 DUP3 MLOAD PUSH8 0xFFFFFFFFFFFFFFFF DUP2 GT ISZERO PUSH2 0x630 JUMPI PUSH2 0x630 PUSH2 0xFD9 JUMP JUMPDEST PUSH1 0x40 MLOAD SWAP1 DUP1 DUP3 MSTORE DUP1 PUSH1 0x20 MUL PUSH1 0x20 ADD DUP3 ADD PUSH1 0x40 MSTORE DUP1 ISZERO PUSH2 0x675 JUMPI DUP2 PUSH1 0x20 ADD JUMPDEST PUSH1 0x40 DUP1 MLOAD DUP1 DUP3 ADD SWAP1 SWAP2 MSTORE PUSH1 0x0 DUP1 DUP3 MSTORE PUSH1 0x20 DUP3 ADD MSTORE DUP2 MSTORE PUSH1 0x20 ADD SWAP1 PUSH1 0x1 SWAP1 SUB SWAP1 DUP2 PUSH2 0x64E JUMPI SWAP1 POP JUMPDEST POP SWAP1 POP PUSH1 0x0 JUMPDEST DUP4 MLOAD DUP2 LT ISZERO PUSH2 0x76C JUMPI PUSH1 0x0 DUP5 DUP3 DUP2 MLOAD DUP2 LT PUSH2 0x698 JUMPI PUSH2 0x698 PUSH2 0x1141 JUMP JUMPDEST PUSH1 0x20 SWAP1 DUP2 MUL SWAP2 SWAP1 SWAP2 ADD ADD MLOAD PUSH1 0x40 MLOAD PUSH4 0xDE1EC403 PUSH1 0xE0 SHL DUP2 MSTORE PUSH1 0x1 PUSH1 0x1 PUSH1 0xA0 SHL SUB DUP10 DUP2 AND PUSH1 0x4 DUP4 ADD MSTORE PUSH1 0x24 DUP3 ADD DUP10 SWAP1 MSTORE SWAP2 SWAP3 POP PUSH1 0x0 SWAP2 DUP4 AND SWAP1 PUSH4 0xDE1EC403 SWAP1 PUSH1 0x44 ADD PUSH1 0x20 PUSH1 0x40 MLOAD DUP1 DUP4 SUB DUP2 DUP7 GAS STATICCALL ISZERO DUP1 ISZERO PUSH2 0x6F6 JUMPI RETURNDATASIZE PUSH1 0x0 DUP1 RETURNDATACOPY RETURNDATASIZE PUSH1 0x0 REVERT JUMPDEST POP POP POP POP PUSH1 0x40 MLOAD RETURNDATASIZE PUSH1 0x1F NOT PUSH1 0x1F DUP3 ADD AND DUP3 ADD DUP1 PUSH1 0x40 MSTORE POP DUP2 ADD SWAP1 PUSH2 0x71A SWAP2 SWAP1 PUSH2 0x12BE JUMP JUMPDEST SWAP1 POP PUSH1 0x40 MLOAD DUP1 PUSH1 0x40 ADD PUSH1 0x40 MSTORE DUP1 DUP4 PUSH1 0x1 PUSH1 0x1 PUSH1 0xA0 SHL SUB AND DUP2 MSTORE PUSH1 0x20 ADD DUP3 DUP2 MSTORE POP DUP5 DUP5 DUP2 MLOAD DUP2 LT PUSH2 0x74C JUMPI PUSH2 0x74C PUSH2 0x1141 JUMP JUMPDEST PUSH1 0x20 MUL PUSH1 0x20 ADD ADD DUP2 SWAP1 MSTORE POP POP POP DUP1 DUP1 PUSH2 0x764 SWAP1 PUSH2 0x116D JUMP JUMPDEST SWAP2 POP POP PUSH2 0x67B JUMP JUMPDEST POP SWAP5 SWAP4 POP POP POP POP JUMP JUMPDEST PUSH1 0x1 PUSH1 0x1 PUSH1 0xA0 SHL SUB DUP2 DUP2 AND PUSH1 0x0 SWAP1 DUP2 MSTORE PUSH1 0x2 PUSH1 0x20 DUP2 DUP2 MSTORE PUSH1 0x40 DUP1 DUP5 KECCAK256 DUP2 MLOAD PUSH1 0x60 DUP2 ADD DUP4 MSTORE DUP2 SLOAD SWAP1 SWAP7 AND DUP7 MSTORE PUSH1 0x1 DUP2 ADD SLOAD SWAP3 DUP7 ADD SWAP3 SWAP1 SWAP3 MSTORE SWAP2 ADD SLOAD SWAP1 DUP4 ADD MSTORE PUSH1 0x4 SLOAD SWAP1 SWAP2 SWAP1 TIMESTAMP GT ISZERO PUSH2 0x7CA JUMPI PUSH1 0x40 ADD MLOAD SWAP3 SWAP2 POP POP JUMP JUMPDEST PUSH1 0x3 SLOAD TIMESTAMP LT ISZERO PUSH2 0x7DE JUMPI PUSH1 0x20 ADD MLOAD SWAP3 SWAP2 POP POP JUMP JUMPDEST PUSH1 0x0 PUSH2 0x806 PUSH1 0x3 SLOAD PUSH1 0x4 SLOAD PUSH2 0x7F3 SWAP2 SWAP1 PUSH2 0x12EA JUMP JUMPDEST PUSH1 0x3 SLOAD PUSH2 0x800 SWAP1 TIMESTAMP PUSH2 0x12EA JUMP JUMPDEST SWAP1 PUSH2 0xAD6 JUMP JUMPDEST SWAP1 POP PUSH1 0x0 DUP3 PUSH1 0x20 ADD MLOAD DUP4 PUSH1 0x40 ADD MLOAD GT ISZERO PUSH2 0x853 JUMPI PUSH1 0x0 DUP4 PUSH1 0x20 ADD MLOAD DUP5 PUSH1 0x40 ADD MLOAD PUSH2 0x830 SWAP2 SWAP1 PUSH2 0x12EA JUMP JUMPDEST SWAP1 POP PUSH2 0x83C DUP2 DUP5 PUSH2 0xAF5 JUMP JUMPDEST DUP5 PUSH1 0x20 ADD MLOAD PUSH2 0x84B SWAP2 SWAP1 PUSH2 0x12D7 JUMP JUMPDEST SWAP2 POP POP PUSH2 0x888 JUMP JUMPDEST PUSH1 0x0 DUP4 PUSH1 0x40 ADD MLOAD DUP5 PUSH1 0x20 ADD MLOAD PUSH2 0x869 SWAP2 SWAP1 PUSH2 0x12EA JUMP JUMPDEST SWAP1 POP PUSH2 0x875 DUP2 DUP5 PUSH2 0xAF5 JUMP JUMPDEST DUP5 PUSH1 0x20 ADD MLOAD PUSH2 0x884 SWAP2 SWAP1 PUSH2 0x12EA JUMP JUMPDEST SWAP2 POP POP JUMPDEST SWAP5 SWAP4 POP POP POP POP JUMP JUMPDEST PUSH1 0x0 PUSH2 0x429 DUP3 SLOAD SWAP1 JUMP JUMPDEST PUSH1 0x0 PUSH2 0x60B DUP4 DUP4 PUSH2 0xB17 JUMP JUMPDEST PUSH1 0x0 PUSH2 0x60B DUP4 PUSH1 0x1 PUSH1 0x1 PUSH1 0xA0 SHL SUB DUP5 AND PUSH2 0xB41 JUMP JUMPDEST PUSH1 0x0 PUSH2 0x60B DUP4 PUSH1 0x1 PUSH1 0x1 PUSH1 0xA0 SHL SUB DUP5 AND PUSH2 0xC34 JUMP JUMPDEST PUSH2 0x8FD PUSH1 0x40 MLOAD DUP1 PUSH1 0x60 ADD PUSH1 0x40 MSTORE DUP1 PUSH1 0x0 PUSH1 0x1 PUSH1 0x1 PUSH1 0xA0 SHL SUB AND DUP2 MSTORE PUSH1 0x20 ADD PUSH1 0x0 DUP2 MSTORE PUSH1 0x20 ADD PUSH1 0x0 DUP2 MSTORE POP SWAP1 JUMP JUMPDEST PUSH1 0x40 MLOAD DUP1 PUSH1 0x60 ADD PUSH1 0x40 MSTORE DUP1 DUP4 PUSH1 0x1 PUSH1 0x1 PUSH1 0xA0 SHL SUB AND DUP2 MSTORE PUSH1 0x20 ADD PUSH2 0x920 DUP5 PUSH2 0x775 JUMP JUMPDEST DUP2 MSTORE PUSH1 0x20 ADD DUP4 PUSH1 0x1 PUSH1 0x1 PUSH1 0xA0 SHL SUB AND PUSH4 0x344FF1D0 PUSH1 0x40 MLOAD DUP2 PUSH4 0xFFFFFFFF AND PUSH1 0xE0 SHL DUP2 MSTORE PUSH1 0x4 ADD PUSH1 0x20 PUSH1 0x40 MLOAD DUP1 DUP4 SUB DUP2 DUP7 GAS STATICCALL ISZERO DUP1 ISZERO PUSH2 0x963 JUMPI RETURNDATASIZE PUSH1 0x0 DUP1 RETURNDATACOPY RETURNDATASIZE PUSH1 0x0 REVERT JUMPDEST POP POP POP POP PUSH1 0x40 MLOAD RETURNDATASIZE PUSH1 0x1F NOT PUSH1 0x1F DUP3 ADD AND DUP3 ADD DUP1 PUSH1 0x40 MSTORE POP DUP2 ADD SWAP1 PUSH2 0x987 SWAP2 SWAP1 PUSH2 0x12BE JUMP JUMPDEST SWAP1 MSTORE SWAP3 SWAP2 POP POP JUMP JUMPDEST DUP1 PUSH1 0x20 ADD MLOAD DUP2 PUSH1 0x40 ADD MLOAD GT PUSH2 0x9F0 JUMPI PUSH1 0x40 MLOAD PUSH3 0x461BCD PUSH1 0xE5 SHL DUP2 MSTORE PUSH1 0x20 PUSH1 0x4 DUP3 ADD MSTORE PUSH1 0x21 PUSH1 0x24 DUP3 ADD MSTORE PUSH32 0x7363686564756C65206D75737420656E6420616674657220697420626567696E PUSH1 0x44 DUP3 ADD MSTORE PUSH1 0x73 PUSH1 0xF8 SHL PUSH1 0x64 DUP3 ADD MSTORE PUSH1 0x84 ADD PUSH2 0x2F6 JUMP JUMPDEST PUSH1 0x20 DUP2 ADD MLOAD PUSH1 0x3 SSTORE PUSH1 0x40 DUP2 ADD MLOAD PUSH1 0x4 SSTORE PUSH2 0xA08 PUSH2 0xC83 JUMP JUMPDEST PUSH1 0x0 DUP1 PUSH1 0x0 JUMPDEST DUP4 MLOAD MLOAD DUP2 LT ISZERO PUSH2 0xA7A JUMPI PUSH1 0x0 DUP5 PUSH1 0x0 ADD MLOAD DUP3 DUP2 MLOAD DUP2 LT PUSH2 0xA30 JUMPI PUSH2 0xA30 PUSH2 0x1141 JUMP JUMPDEST PUSH1 0x20 MUL PUSH1 0x20 ADD ADD MLOAD SWAP1 POP PUSH2 0xA43 DUP2 PUSH2 0xCFC JUMP JUMPDEST PUSH1 0x20 DUP2 ADD MLOAD PUSH2 0xA52 SWAP1 DUP6 PUSH2 0x12D7 JUMP JUMPDEST SWAP4 POP DUP1 PUSH1 0x40 ADD MLOAD DUP4 PUSH2 0xA64 SWAP2 SWAP1 PUSH2 0x12D7 JUMP JUMPDEST SWAP3 POP POP DUP1 DUP1 PUSH2 0xA72 SWAP1 PUSH2 0x116D JUMP JUMPDEST SWAP2 POP POP PUSH2 0xA0E JUMP JUMPDEST POP PUSH8 0xDE0B6B3A7640000 DUP3 EQ PUSH2 0xAA6 JUMPI PUSH1 0x40 MLOAD PUSH4 0x5943317F PUSH1 0xE0 SHL DUP2 MSTORE PUSH1 0x4 DUP2 ADD DUP4 SWAP1 MSTORE PUSH1 0x24 ADD PUSH2 0x2F6 JUMP JUMPDEST PUSH8 0xDE0B6B3A7640000 DUP2 EQ PUSH2 0xAD1 JUMPI PUSH1 0x40 MLOAD PUSH4 0x5943317F PUSH1 0xE0 SHL DUP2 MSTORE PUSH1 0x4 DUP2 ADD DUP3 SWAP1 MSTORE PUSH1 0x24 ADD PUSH2 0x2F6 JUMP JUMPDEST POP POP POP JUMP JUMPDEST PUSH1 0x0 DUP2 PUSH2 0xAEB PUSH8 0xDE0B6B3A7640000 DUP6 PUSH2 0x12FD JUMP JUMPDEST PUSH2 0x60B SWAP2 SWAP1 PUSH2 0x1314 JUMP JUMPDEST PUSH1 0x0 PUSH8 0xDE0B6B3A7640000 PUSH2 0xAEB DUP4 DUP6 PUSH2 0x12FD JUMP JUMPDEST PUSH1 0x60 PUSH1 0x0 PUSH2 0x60B DUP4 PUSH2 0xD7A JUMP JUMPDEST PUSH1 0x0 DUP3 PUSH1 0x0 ADD DUP3 DUP2 SLOAD DUP2 LT PUSH2 0xB2E JUMPI PUSH2 0xB2E PUSH2 0x1141 JUMP JUMPDEST SWAP1 PUSH1 0x0 MSTORE PUSH1 0x20 PUSH1 0x0 KECCAK256 ADD SLOAD SWAP1 POP SWAP3 SWAP2 POP POP JUMP JUMPDEST PUSH1 0x0 DUP2 DUP2 MSTORE PUSH1 0x1 DUP4 ADD PUSH1 0x20 MSTORE PUSH1 0x40 DUP2 KECCAK256 SLOAD DUP1 ISZERO PUSH2 0xC2A JUMPI PUSH1 0x0 PUSH2 0xB65 PUSH1 0x1 DUP4 PUSH2 0x12EA JUMP JUMPDEST DUP6 SLOAD SWAP1 SWAP2 POP PUSH1 0x0 SWAP1 PUSH2 0xB79 SWAP1 PUSH1 0x1 SWAP1 PUSH2 0x12EA JUMP JUMPDEST SWAP1 POP DUP2 DUP2 EQ PUSH2 0xBDE JUMPI PUSH1 0x0 DUP7 PUSH1 0x0 ADD DUP3 DUP2 SLOAD DUP2 LT PUSH2 0xB99 JUMPI PUSH2 0xB99 PUSH2 0x1141 JUMP JUMPDEST SWAP1 PUSH1 0x0 MSTORE PUSH1 0x20 PUSH1 0x0 KECCAK256 ADD SLOAD SWAP1 POP DUP1 DUP8 PUSH1 0x0 ADD DUP5 DUP2 SLOAD DUP2 LT PUSH2 0xBBC JUMPI PUSH2 0xBBC PUSH2 0x1141 JUMP JUMPDEST PUSH1 0x0 SWAP2 DUP3 MSTORE PUSH1 0x20 DUP1 DUP4 KECCAK256 SWAP1 SWAP2 ADD SWAP3 SWAP1 SWAP3 SSTORE SWAP2 DUP3 MSTORE PUSH1 0x1 DUP9 ADD SWAP1 MSTORE PUSH1 0x40 SWAP1 KECCAK256 DUP4 SWAP1 SSTORE JUMPDEST DUP6 SLOAD DUP7 SWAP1 DUP1 PUSH2 0xBEF JUMPI PUSH2 0xBEF PUSH2 0x1336 JUMP JUMPDEST PUSH1 0x1 SWAP1 SUB DUP2 DUP2 SWAP1 PUSH1 0x0 MSTORE PUSH1 0x20 PUSH1 0x0 KECCAK256 ADD PUSH1 0x0 SWAP1 SSTORE SWAP1 SSTORE DUP6 PUSH1 0x1 ADD PUSH1 0x0 DUP7 DUP2 MSTORE PUSH1 0x20 ADD SWAP1 DUP2 MSTORE PUSH1 0x20 ADD PUSH1 0x0 KECCAK256 PUSH1 0x0 SWAP1 SSTORE PUSH1 0x1 SWAP4 POP POP POP POP PUSH2 0x429 JUMP JUMPDEST PUSH1 0x0 SWAP2 POP POP PUSH2 0x429 JUMP JUMPDEST PUSH1 0x0 DUP2 DUP2 MSTORE PUSH1 0x1 DUP4 ADD PUSH1 0x20 MSTORE PUSH1 0x40 DUP2 KECCAK256 SLOAD PUSH2 0xC7B JUMPI POP DUP2 SLOAD PUSH1 0x1 DUP2 DUP2 ADD DUP5 SSTORE PUSH1 0x0 DUP5 DUP2 MSTORE PUSH1 0x20 DUP1 DUP3 KECCAK256 SWAP1 SWAP4 ADD DUP5 SWAP1 SSTORE DUP5 SLOAD DUP5 DUP3 MSTORE DUP3 DUP7 ADD SWAP1 SWAP4 MSTORE PUSH1 0x40 SWAP1 KECCAK256 SWAP2 SWAP1 SWAP2 SSTORE PUSH2 0x429 JUMP JUMPDEST POP PUSH1 0x0 PUSH2 0x429 JUMP JUMPDEST PUSH1 0x0 PUSH2 0xC8F PUSH1 0x0 PUSH2 0x890 JUMP JUMPDEST SWAP1 POP PUSH1 0x0 JUMPDEST DUP2 DUP2 LT ISZERO PUSH2 0xCF8 JUMPI PUSH1 0x0 PUSH2 0xCA8 DUP2 DUP1 PUSH2 0x89A JUMP JUMPDEST SWAP1 POP PUSH2 0xCB5 PUSH1 0x0 DUP3 PUSH2 0x8A6 JUMP JUMPDEST POP PUSH1 0x1 PUSH1 0x1 PUSH1 0xA0 SHL SUB AND PUSH1 0x0 SWAP1 DUP2 MSTORE PUSH1 0x2 PUSH1 0x20 DUP2 SWAP1 MSTORE PUSH1 0x40 DUP3 KECCAK256 DUP1 SLOAD PUSH1 0x1 PUSH1 0x1 PUSH1 0xA0 SHL SUB NOT AND DUP2 SSTORE PUSH1 0x1 DUP2 ADD DUP4 SWAP1 SSTORE ADD SSTORE DUP1 PUSH2 0xCF0 DUP2 PUSH2 0x116D JUMP JUMPDEST SWAP2 POP POP PUSH2 0xC94 JUMP JUMPDEST POP POP JUMP JUMPDEST DUP1 MLOAD PUSH2 0xD0A SWAP1 PUSH1 0x0 SWAP1 PUSH2 0x8BB JUMP JUMPDEST PUSH2 0xD35 JUMPI DUP1 MLOAD PUSH1 0x40 MLOAD PUSH4 0x74F3271B PUSH1 0xE0 SHL DUP2 MSTORE PUSH1 0x1 PUSH1 0x1 PUSH1 0xA0 SHL SUB SWAP1 SWAP2 AND PUSH1 0x4 DUP3 ADD MSTORE PUSH1 0x24 ADD PUSH2 0x2F6 JUMP JUMPDEST DUP1 MLOAD PUSH1 0x1 PUSH1 0x1 PUSH1 0xA0 SHL SUB SWAP1 DUP2 AND PUSH1 0x0 SWAP1 DUP2 MSTORE PUSH1 0x2 PUSH1 0x20 DUP2 DUP2 MSTORE PUSH1 0x40 SWAP3 DUP4 SWAP1 KECCAK256 DUP6 MLOAD DUP2 SLOAD PUSH1 0x1 PUSH1 0x1 PUSH1 0xA0 SHL SUB NOT AND SWAP6 AND SWAP5 SWAP1 SWAP5 OR DUP5 SSTORE DUP5 ADD MLOAD PUSH1 0x1 DUP5 ADD SSTORE SWAP3 ADD MLOAD SWAP2 ADD SSTORE JUMP JUMPDEST PUSH1 0x60 DUP2 PUSH1 0x0 ADD DUP1 SLOAD DUP1 PUSH1 0x20 MUL PUSH1 0x20 ADD PUSH1 0x40 MLOAD SWAP1 DUP2 ADD PUSH1 0x40 MSTORE DUP1 SWAP3 SWAP2 SWAP1 DUP2 DUP2 MSTORE PUSH1 0x20 ADD DUP3 DUP1 SLOAD DUP1 ISZERO PUSH2 0xDCA JUMPI PUSH1 0x20 MUL DUP3 ADD SWAP2 SWAP1 PUSH1 0x0 MSTORE PUSH1 0x20 PUSH1 0x0 KECCAK256 SWAP1 JUMPDEST DUP2 SLOAD DUP2 MSTORE PUSH1 0x20 ADD SWAP1 PUSH1 0x1 ADD SWAP1 DUP1 DUP4 GT PUSH2 0xDB6 JUMPI JUMPDEST POP POP POP POP POP SWAP1 POP SWAP2 SWAP1 POP JUMP JUMPDEST PUSH1 0x20 DUP1 DUP3 MSTORE DUP3 MLOAD DUP3 DUP3 ADD DUP2 SWAP1 MSTORE PUSH1 0x0 SWAP2 SWAP1 PUSH1 0x40 SWAP1 DUP2 DUP6 ADD SWAP1 DUP7 DUP5 ADD DUP6 JUMPDEST DUP3 DUP2 LT ISZERO PUSH2 0xE2B JUMPI DUP2 MLOAD DUP1 MLOAD PUSH1 0x1 PUSH1 0x1 PUSH1 0xA0 SHL SUB AND DUP6 MSTORE DUP7 DUP2 ADD MLOAD DUP8 DUP7 ADD MSTORE DUP6 ADD MLOAD DUP6 DUP6 ADD MSTORE PUSH1 0x60 SWAP1 SWAP4 ADD SWAP3 SWAP1 DUP6 ADD SWAP1 PUSH1 0x1 ADD PUSH2 0xDF3 JUMP JUMPDEST POP SWAP2 SWAP8 SWAP7 POP POP POP POP POP POP POP JUMP JUMPDEST PUSH1 0x0 PUSH1 0x20 DUP3 DUP5 SUB SLT ISZERO PUSH2 0xE4A JUMPI PUSH1 0x0 DUP1 REVERT JUMPDEST DUP2 CALLDATALOAD PUSH8 0xFFFFFFFFFFFFFFFF DUP2 GT ISZERO PUSH2 0xE61 JUMPI PUSH1 0x0 DUP1 REVERT JUMPDEST DUP3 ADD PUSH1 0x60 DUP2 DUP6 SUB SLT ISZERO PUSH2 0x60B JUMPI PUSH1 0x0 DUP1 REVERT JUMPDEST PUSH1 0x0 DUP1 PUSH1 0x20 DUP4 DUP6 SUB SLT ISZERO PUSH2 0xE86 JUMPI PUSH1 0x0 DUP1 REVERT JUMPDEST DUP3 CALLDATALOAD PUSH8 0xFFFFFFFFFFFFFFFF DUP1 DUP3 GT ISZERO PUSH2 0xE9E JUMPI PUSH1 0x0 DUP1 REVERT JUMPDEST DUP2 DUP6 ADD SWAP2 POP DUP6 PUSH1 0x1F DUP4 ADD SLT PUSH2 0xEB2 JUMPI PUSH1 0x0 DUP1 REVERT JUMPDEST DUP2 CALLDATALOAD DUP2 DUP2 GT ISZERO PUSH2 0xEC1 JUMPI PUSH1 0x0 DUP1 REVERT JUMPDEST DUP7 PUSH1 0x20 DUP3 PUSH1 0x6 SHL DUP6 ADD ADD GT ISZERO PUSH2 0xED6 JUMPI PUSH1 0x0 DUP1 REVERT JUMPDEST PUSH1 0x20 SWAP3 SWAP1 SWAP3 ADD SWAP7 SWAP2 SWAP6 POP SWAP1 SWAP4 POP POP POP POP JUMP JUMPDEST PUSH1 0x20 DUP1 DUP3 MSTORE DUP3 MLOAD DUP3 DUP3 ADD DUP2 SWAP1 MSTORE PUSH1 0x0 SWAP2 SWAP1 PUSH1 0x40 SWAP1 DUP2 DUP6 ADD SWAP1 DUP7 DUP5 ADD DUP6 JUMPDEST DUP3 DUP2 LT ISZERO PUSH2 0xE2B JUMPI DUP2 MLOAD DUP1 MLOAD PUSH1 0x1 PUSH1 0x1 PUSH1 0xA0 SHL SUB AND DUP6 MSTORE DUP7 DUP2 ADD MLOAD DUP8 DUP7 ADD MSTORE DUP6 DUP2 ADD MLOAD DUP7 DUP7 ADD MSTORE PUSH1 0x60 SWAP1 DUP2 ADD MLOAD SWAP1 DUP6 ADD MSTORE PUSH1 0x80 SWAP1 SWAP4 ADD SWAP3 SWAP1 DUP6 ADD SWAP1 PUSH1 0x1 ADD PUSH2 0xF05 JUMP JUMPDEST DUP1 CALLDATALOAD PUSH1 0x1 PUSH1 0x1 PUSH1 0xA0 SHL SUB DUP2 AND DUP2 EQ PUSH2 0xF5F JUMPI PUSH1 0x0 DUP1 REVERT JUMPDEST SWAP2 SWAP1 POP JUMP JUMPDEST PUSH1 0x0 DUP1 PUSH1 0x40 DUP4 DUP6 SUB SLT ISZERO PUSH2 0xF77 JUMPI PUSH1 0x0 DUP1 REVERT JUMPDEST PUSH2 0xF80 DUP4 PUSH2 0xF48 JUMP JUMPDEST SWAP5 PUSH1 0x20 SWAP4 SWAP1 SWAP4 ADD CALLDATALOAD SWAP4 POP POP POP JUMP JUMPDEST PUSH1 0x20 DUP1 DUP3 MSTORE DUP3 MLOAD DUP3 DUP3 ADD DUP2 SWAP1 MSTORE PUSH1 0x0 SWAP2 SWAP1 PUSH1 0x40 SWAP1 DUP2 DUP6 ADD SWAP1 DUP7 DUP5 ADD DUP6 JUMPDEST DUP3 DUP2 LT ISZERO PUSH2 0xE2B JUMPI DUP2 MLOAD DUP1 MLOAD PUSH1 0x1 PUSH1 0x1 PUSH1 0xA0 SHL SUB AND DUP6 MSTORE DUP7 ADD MLOAD DUP7 DUP6 ADD MSTORE SWAP3 DUP5 ADD SWAP3 SWAP1 DUP6 ADD SWAP1 PUSH1 0x1 ADD PUSH2 0xFAB JUMP JUMPDEST PUSH4 0x4E487B71 PUSH1 0xE0 SHL PUSH1 0x0 MSTORE PUSH1 0x41 PUSH1 0x4 MSTORE PUSH1 0x24 PUSH1 0x0 REVERT JUMPDEST PUSH1 0x40 MLOAD PUSH1 0x60 DUP2 ADD PUSH8 0xFFFFFFFFFFFFFFFF DUP2 GT DUP3 DUP3 LT OR ISZERO PUSH2 0x1012 JUMPI PUSH2 0x1012 PUSH2 0xFD9 JUMP JUMPDEST PUSH1 0x40 MSTORE SWAP1 JUMP JUMPDEST PUSH1 0x40 MLOAD PUSH1 0x1F DUP3 ADD PUSH1 0x1F NOT AND DUP2 ADD PUSH8 0xFFFFFFFFFFFFFFFF DUP2 GT DUP3 DUP3 LT OR ISZERO PUSH2 0x1041 JUMPI PUSH2 0x1041 PUSH2 0xFD9 JUMP JUMPDEST PUSH1 0x40 MSTORE SWAP2 SWAP1 POP JUMP JUMPDEST PUSH1 0x0 PUSH8 0xFFFFFFFFFFFFFFFF DUP3 GT ISZERO PUSH2 0x1063 JUMPI PUSH2 0x1063 PUSH2 0xFD9 JUMP JUMPDEST POP PUSH1 0x5 SHL PUSH1 0x20 ADD SWAP1 JUMP JUMPDEST PUSH1 0x0 DUP1 PUSH1 0x0 PUSH1 0x60 DUP5 DUP7 SUB SLT ISZERO PUSH2 0x1082 JUMPI PUSH1 0x0 DUP1 REVERT JUMPDEST PUSH2 0x108B DUP5 PUSH2 0xF48 JUMP JUMPDEST SWAP3 POP PUSH1 0x20 DUP1 DUP6 ADD CALLDATALOAD SWAP3 POP PUSH1 0x40 DUP6 ADD CALLDATALOAD PUSH8 0xFFFFFFFFFFFFFFFF DUP2 GT ISZERO PUSH2 0x10AF JUMPI PUSH1 0x0 DUP1 REVERT JUMPDEST DUP6 ADD PUSH1 0x1F DUP2 ADD DUP8 SGT PUSH2 0x10C0 JUMPI PUSH1 0x0 DUP1 REVERT JUMPDEST DUP1 CALLDATALOAD PUSH2 0x10D3 PUSH2 0x10CE DUP3 PUSH2 0x1049 JUMP JUMPDEST PUSH2 0x1018 JUMP JUMPDEST DUP2 DUP2 MSTORE PUSH1 0x5 SWAP2 SWAP1 SWAP2 SHL DUP3 ADD DUP4 ADD SWAP1 DUP4 DUP2 ADD SWAP1 DUP10 DUP4 GT ISZERO PUSH2 0x10F2 JUMPI PUSH1 0x0 DUP1 REVERT JUMPDEST SWAP3 DUP5 ADD SWAP3 JUMPDEST DUP3 DUP5 LT ISZERO PUSH2 0x1117 JUMPI PUSH2 0x1108 DUP5 PUSH2 0xF48 JUMP JUMPDEST DUP3 MSTORE SWAP3 DUP5 ADD SWAP3 SWAP1 DUP5 ADD SWAP1 PUSH2 0x10F7 JUMP JUMPDEST DUP1 SWAP6 POP POP POP POP POP POP SWAP3 POP SWAP3 POP SWAP3 JUMP JUMPDEST PUSH1 0x0 PUSH1 0x20 DUP3 DUP5 SUB SLT ISZERO PUSH2 0x1138 JUMPI PUSH1 0x0 DUP1 REVERT JUMPDEST PUSH2 0x60B DUP3 PUSH2 0xF48 JUMP JUMPDEST PUSH4 0x4E487B71 PUSH1 0xE0 SHL PUSH1 0x0 MSTORE PUSH1 0x32 PUSH1 0x4 MSTORE PUSH1 0x24 PUSH1 0x0 REVERT JUMPDEST PUSH4 0x4E487B71 PUSH1 0xE0 SHL PUSH1 0x0 MSTORE PUSH1 0x11 PUSH1 0x4 MSTORE PUSH1 0x24 PUSH1 0x0 REVERT JUMPDEST PUSH1 0x0 PUSH1 0x1 DUP3 ADD PUSH2 0x117F JUMPI PUSH2 0x117F PUSH2 0x1157 JUMP JUMPDEST POP PUSH1 0x1 ADD SWAP1 JUMP JUMPDEST PUSH1 0x0 PUSH1 0x60 DUP1 DUP4 CALLDATASIZE SUB SLT ISZERO PUSH2 0x1199 JUMPI PUSH1 0x0 DUP1 REVERT JUMPDEST PUSH2 0x11A1 PUSH2 0xFEF JUMP JUMPDEST DUP4 CALLDATALOAD PUSH8 0xFFFFFFFFFFFFFFFF DUP2 GT ISZERO PUSH2 0x11B8 JUMPI PUSH1 0x0 DUP1 REVERT JUMPDEST DUP5 ADD CALLDATASIZE PUSH1 0x1F DUP3 ADD SLT PUSH2 0x11C9 JUMPI PUSH1 0x0 DUP1 REVERT JUMPDEST DUP1 CALLDATALOAD PUSH1 0x20 PUSH2 0x11D9 PUSH2 0x10CE DUP4 PUSH2 0x1049 JUMP JUMPDEST DUP3 DUP2 MSTORE SWAP2 DUP6 MUL DUP4 ADD DUP2 ADD SWAP2 DUP2 DUP2 ADD SWAP1 CALLDATASIZE DUP5 GT ISZERO PUSH2 0x11F5 JUMPI PUSH1 0x0 DUP1 REVERT JUMPDEST SWAP4 DUP3 ADD SWAP4 JUMPDEST DUP4 DUP6 LT ISZERO PUSH2 0x1246 JUMPI DUP7 DUP6 CALLDATASIZE SUB SLT ISZERO PUSH2 0x1212 JUMPI PUSH1 0x0 DUP1 DUP2 REVERT JUMPDEST PUSH2 0x121A PUSH2 0xFEF JUMP JUMPDEST PUSH2 0x1223 DUP7 PUSH2 0xF48 JUMP JUMPDEST DUP2 MSTORE DUP6 DUP5 ADD CALLDATALOAD DUP5 DUP3 ADD MSTORE PUSH1 0x40 DUP1 DUP8 ADD CALLDATALOAD SWAP1 DUP3 ADD MSTORE DUP3 MSTORE SWAP4 DUP7 ADD SWAP4 SWAP1 DUP3 ADD SWAP1 PUSH2 0x11FA JUMP JUMPDEST DUP6 MSTORE POP DUP7 DUP2 ADD CALLDATALOAD SWAP1 DUP5 ADD MSTORE POP POP PUSH1 0x40 SWAP4 DUP5 ADD CALLDATALOAD SWAP4 DUP2 ADD SWAP4 SWAP1 SWAP4 MSTORE POP SWAP1 SWAP2 SWAP1 POP JUMP JUMPDEST PUSH1 0x0 PUSH1 0x40 DUP3 DUP5 SUB SLT ISZERO PUSH2 0x1279 JUMPI PUSH1 0x0 DUP1 REVERT JUMPDEST PUSH1 0x40 MLOAD PUSH1 0x40 DUP2 ADD DUP2 DUP2 LT PUSH8 0xFFFFFFFFFFFFFFFF DUP3 GT OR ISZERO PUSH2 0x129C JUMPI PUSH2 0x129C PUSH2 0xFD9 JUMP JUMPDEST PUSH1 0x40 MSTORE PUSH2 0x12A8 DUP4 PUSH2 0xF48 JUMP JUMPDEST DUP2 MSTORE PUSH1 0x20 DUP4 ADD CALLDATALOAD PUSH1 0x20 DUP3 ADD MSTORE DUP1 SWAP2 POP POP SWAP3 SWAP2 POP POP JUMP JUMPDEST PUSH1 0x0 PUSH1 0x20 DUP3 DUP5 SUB SLT ISZERO PUSH2 0x12D0 JUMPI PUSH1 0x0 DUP1 REVERT JUMPDEST POP MLOAD SWAP2 SWAP1 POP JUMP JUMPDEST DUP1 DUP3 ADD DUP1 DUP3 GT ISZERO PUSH2 0x429 JUMPI PUSH2 0x429 PUSH2 0x1157 JUMP JUMPDEST DUP2 DUP2 SUB DUP2 DUP2 GT ISZERO PUSH2 0x429 JUMPI PUSH2 0x429 PUSH2 0x1157 JUMP JUMPDEST DUP1 DUP3 MUL DUP2 ISZERO DUP3 DUP3 DIV DUP5 EQ OR PUSH2 0x429 JUMPI PUSH2 0x429 PUSH2 0x1157 JUMP JUMPDEST PUSH1 0x0 DUP3 PUSH2 0x1331 JUMPI PUSH4 0x4E487B71 PUSH1 0xE0 SHL PUSH1 0x0 MSTORE PUSH1 0x12 PUSH1 0x4 MSTORE PUSH1 0x24 PUSH1 0x0 REVERT JUMPDEST POP DIV SWAP1 JUMP JUMPDEST PUSH4 0x4E487B71 PUSH1 0xE0 SHL PUSH1 0x0 MSTORE PUSH1 0x31 PUSH1 0x4 MSTORE PUSH1 0x24 PUSH1 0x0 REVERT INVALID LOG2 PUSH5 0x6970667358 0x22 SLT KECCAK256 PUSH30 0x3255296F14370DC35DDF35E7C5B0D725B409C4ED4B1A6C82AE4857F9FCD7 0xC6 PUSH5 0x736F6C6343 STOP ADDMOD GT STOP CALLER ","sha1":"2830216126472524b3ef2749f1172c4189e6f8b4","source":"// SPDX-License-Identifier: GPL-3.0-or-later\npragma solidity ^0.8.17;\n\nimport \"@openzeppelin/contracts/utils/structs/EnumerableSet.sol\";\n\nimport \"./access/ImmutableOwner.sol\";\n\nimport \"../libraries/Errors.sol\";\nimport \"../libraries/ScaledMath.sol\";\n\nimport \"../interfaces/IVotingPowerAggregator.sol\";\nimport \"../interfaces/IVault.sol\";\n\ncontract VotingPowerAggregator is IVotingPowerAggregator, ImmutableOwner {\n    using ScaledMath for uint256;\n    using EnumerableSet for EnumerableSet.AddressSet;\n\n    EnumerableSet.AddressSet internal _vaultAddresses;\n    mapping(address => DataTypes.VaultWeightConfiguration) internal _vaults;\n\n    uint256 public scheduleStartsAt;\n    uint256 public scheduleEndsAt;\n\n    constructor(\n        address _owner,\n        DataTypes.VaultWeightSchedule memory initialSchedule\n    ) ImmutableOwner(_owner) {\n        _setSchedule(initialSchedule);\n    }\n\n    function createVaultsSnapshot()\n        external\n        view\n        returns (DataTypes.VaultSnapshot[] memory snapshots)\n    {\n        uint256 len = _vaultAddresses.length();\n        snapshots = new DataTypes.VaultSnapshot[](len);\n        for (uint256 i = 0; i < len; i++) {\n            snapshots[i] = _makeVaultSnapshot(_vaultAddresses.at(i));\n        }\n    }\n\n    function _makeVaultSnapshot(\n        address vaultAddress\n    ) internal view returns (DataTypes.VaultSnapshot memory) {\n        return\n            DataTypes.VaultSnapshot({\n                vaultAddress: vaultAddress,\n                weight: getVaultWeight(vaultAddress),\n                totalVotingPower: IVault(vaultAddress).getTotalRawVotingPower()\n            });\n    }\n\n    function getVotingPower(\n        address account,\n        uint256 timestamp\n    ) external view returns (DataTypes.VaultVotingPower[] memory) {\n        return getVotingPower(account, timestamp, _vaultAddresses.values());\n    }\n\n    function getVotingPower(\n        address account,\n        uint256 timestamp,\n        address[] memory vaults\n    ) public view returns (DataTypes.VaultVotingPower[] memory) {\n        DataTypes.VaultVotingPower[]\n            memory userVotingPower = new DataTypes.VaultVotingPower[](\n                vaults.length\n            );\n        for (uint256 i; i < vaults.length; i++) {\n            IVault vault = IVault(vaults[i]);\n            uint256 userRawVotingPower = vault.getRawVotingPower(\n                account,\n                timestamp\n            );\n            userVotingPower[i] = DataTypes.VaultVotingPower({\n                vaultAddress: address(vault),\n                votingPower: userRawVotingPower\n            });\n        }\n\n        return userVotingPower;\n    }\n\n    function calculateWeightedPowerPct(\n        DataTypes.VaultVotingPower[] calldata vaultVotingPowers\n    ) external view returns (uint256) {\n        uint256 votingPowerPct;\n\n        for (uint256 i; i < vaultVotingPowers.length; i++) {\n            DataTypes.VaultVotingPower memory vaultVP = vaultVotingPowers[i];\n            uint256 vaultWeight = getVaultWeight(vaultVP.vaultAddress);\n            if (vaultWeight > 0 && vaultVP.votingPower > 0) {\n                uint256 tvp = IVault(vaultVP.vaultAddress)\n                    .getTotalRawVotingPower();\n                votingPowerPct += vaultVP.votingPower.divDown(tvp).mulDown(\n                    vaultWeight\n                );\n            }\n        }\n\n        return votingPowerPct;\n    }\n\n    function listVaults()\n        external\n        view\n        returns (DataTypes.VaultWeight[] memory)\n    {\n        uint256 length = _vaultAddresses.length();\n        DataTypes.VaultWeight[] memory vaults = new DataTypes.VaultWeight[](\n            length\n        );\n        for (uint256 i; i < length; i++) {\n            DataTypes.VaultWeightConfiguration memory conf = _vaults[\n                _vaultAddresses.at(i)\n            ];\n            vaults[i].vaultAddress = conf.vaultAddress;\n            vaults[i].initialWeight = conf.initialWeight;\n            vaults[i].targetWeight = conf.targetWeight;\n\n            uint256 vaultWeight = getVaultWeight(conf.vaultAddress);\n            vaults[i].currentWeight = vaultWeight;\n        }\n\n        return vaults;\n    }\n\n    function blockTimestamp() internal view virtual returns (uint256) {\n        return block.timestamp;\n    }\n\n    function getVaultWeight(address vault) public view returns (uint256) {\n        DataTypes.VaultWeightConfiguration memory vaultWeight = _vaults[vault];\n\n        if (blockTimestamp() > scheduleEndsAt) {\n            return vaultWeight.targetWeight;\n        }\n\n        if (blockTimestamp() < scheduleStartsAt) {\n            return vaultWeight.initialWeight;\n        }\n\n        uint256 scheduleElapsedPct = (blockTimestamp() - scheduleStartsAt)\n            .divDown(scheduleEndsAt - scheduleStartsAt);\n\n        uint256 currentWeight;\n        if (vaultWeight.targetWeight > vaultWeight.initialWeight) {\n            uint256 absWeightChange = vaultWeight.targetWeight -\n                vaultWeight.initialWeight;\n            currentWeight =\n                vaultWeight.initialWeight +\n                absWeightChange.mulDown(scheduleElapsedPct);\n        } else {\n            uint256 absWeightChange = vaultWeight.initialWeight -\n                vaultWeight.targetWeight;\n            currentWeight =\n                vaultWeight.initialWeight -\n                absWeightChange.mulDown(scheduleElapsedPct);\n        }\n        return currentWeight;\n    }\n\n    function setSchedule(\n        DataTypes.VaultWeightSchedule calldata schedule\n    ) external onlyOwner {\n        _setSchedule(schedule);\n    }\n\n    function _setSchedule(\n        DataTypes.VaultWeightSchedule memory schedule\n    ) internal {\n        require(\n            schedule.endsAt > schedule.startsAt,\n            \"schedule must end after it begins\"\n        );\n\n        scheduleStartsAt = schedule.startsAt;\n        scheduleEndsAt = schedule.endsAt;\n\n        _removeAllVaults();\n\n        uint256 totalInitialWeight;\n        uint256 totalTargetWeight;\n\n        for (uint256 i; i < schedule.vaults.length; i++) {\n            DataTypes.VaultWeightConfiguration memory vault = schedule.vaults[\n                i\n            ];\n            _addVault(vault);\n            totalInitialWeight += vault.initialWeight;\n            totalTargetWeight += vault.targetWeight;\n        }\n\n        if (totalInitialWeight != ScaledMath.ONE)\n            revert Errors.InvalidTotalWeight(totalInitialWeight);\n\n        if (totalTargetWeight != ScaledMath.ONE)\n            revert Errors.InvalidTotalWeight(totalTargetWeight);\n    }\n\n    function _addVault(\n        DataTypes.VaultWeightConfiguration memory vault\n    ) internal {\n        if (!_vaultAddresses.add(vault.vaultAddress))\n            revert Errors.DuplicatedVault(vault.vaultAddress);\n        _vaults[vault.vaultAddress] = vault;\n    }\n\n    function _removeAllVaults() internal {\n        uint256 length = _vaultAddresses.length();\n        for (uint256 i; i < length; i++) {\n            address vaultAddress = _vaultAddresses.at(0);\n            _vaultAddresses.remove(vaultAddress);\n            delete _vaults[vaultAddress];\n        }\n    }\n}\n","sourcePath":"contracts/VotingPowerAggregator.sol","type":"contract","deployment":{"address":"0xA015A8c96f45758614C4077813dC863a74cb1487","chainid":"1","blockHeight":18362850}}