{"abi":[{"inputs":[{"internalType":"address","name":"_owner","type":"address"},{"internalType":"address","name":"_underlying","type":"address"},{"internalType":"address","name":"_rewardsToken","type":"address"},{"internalType":"address","name":"_daoTreasury","type":"address"}],"stateMutability":"nonpayable","type":"constructor","name":"constructor"},{"inputs":[{"internalType":"address","name":"actual","type":"address"},{"internalType":"address","name":"expected","type":"address"}],"name":"NotAuthorized","type":"error"},{"inputs":[],"name":"ZeroDivision","type":"error"},{"anonymous":false,"inputs":[{"indexed":true,"internalType":"address","name":"beneficiary","type":"address"},{"indexed":false,"internalType":"uint256","name":"amount","type":"uint256"}],"name":"Claim","type":"event"},{"anonymous":false,"inputs":[{"indexed":true,"internalType":"address","name":"from","type":"address"},{"indexed":true,"internalType":"address","name":"delegate","type":"address"},{"indexed":false,"internalType":"uint256","name":"amount","type":"uint256"}],"name":"Deposit","type":"event"},{"anonymous":false,"inputs":[{"indexed":false,"internalType":"uint8","name":"version","type":"uint8"}],"name":"Initialized","type":"event"},{"anonymous":false,"inputs":[{"indexed":true,"internalType":"address","name":"account","type":"address"},{"indexed":false,"internalType":"uint256","name":"amount","type":"uint256"}],"name":"Stake","type":"event"},{"anonymous":false,"inputs":[{"indexed":false,"internalType":"uint256","name":"amount","type":"uint256"},{"indexed":false,"internalType":"uint256","name":"endTime","type":"uint256"}],"name":"StartMining","type":"event"},{"anonymous":false,"inputs":[],"name":"StopMining","type":"event"},{"anonymous":false,"inputs":[{"indexed":false,"internalType":"uint256","name":"threshold","type":"uint256"}],"name":"ThresholdSet","type":"event"},{"anonymous":false,"inputs":[{"indexed":true,"internalType":"address","name":"account","type":"address"},{"indexed":false,"internalType":"uint256","name":"amount","type":"uint256"}],"name":"Unstake","type":"event"},{"anonymous":false,"inputs":[{"indexed":false,"internalType":"address","name":"delegator","type":"address"},{"indexed":false,"internalType":"address","name":"delegate","type":"address"},{"indexed":false,"internalType":"uint256","name":"amount","type":"uint256"}],"name":"VotesDelegated","type":"event"},{"anonymous":false,"inputs":[{"indexed":false,"internalType":"address","name":"delegator","type":"address"},{"indexed":false,"internalType":"address","name":"delegate","type":"address"},{"indexed":false,"internalType":"uint256","name":"amount","type":"uint256"}],"name":"VotesUndelegated","type":"event"},{"anonymous":false,"inputs":[{"indexed":true,"internalType":"uint256","name":"id","type":"uint256"},{"indexed":true,"internalType":"address","name":"to","type":"address"},{"indexed":false,"internalType":"uint256","name":"amount","type":"uint256"}],"name":"WithdrawalCompleted","type":"event"},{"anonymous":false,"inputs":[{"indexed":true,"internalType":"uint256","name":"id","type":"uint256"},{"indexed":true,"internalType":"address","name":"to","type":"address"},{"indexed":true,"internalType":"address","name":"delegate","type":"address"},{"indexed":false,"internalType":"uint256","name":"withdrawalAt","type":"uint256"},{"indexed":false,"internalType":"uint256","name":"amount","type":"uint256"}],"name":"WithdrawalQueued","type":"event"},{"inputs":[{"internalType":"address","name":"_oldDelegate","type":"address"},{"internalType":"address","name":"_newDelegate","type":"address"},{"internalType":"uint256","name":"_amount","type":"uint256"}],"name":"changeDelegate","outputs":[],"stateMutability":"nonpayable","type":"function"},{"inputs":[],"name":"claimRewards","outputs":[{"internalType":"uint256","name":"","type":"uint256"}],"stateMutability":"nonpayable","type":"function"},{"inputs":[{"internalType":"address","name":"beneficiary","type":"address"}],"name":"claimableRewards","outputs":[{"internalType":"uint256","name":"","type":"uint256"}],"stateMutability":"view","type":"function"},{"inputs":[],"name":"daoTreasury","outputs":[{"internalType":"address","name":"","type":"address"}],"stateMutability":"view","type":"function"},{"inputs":[{"internalType":"address","name":"_delegate","type":"address"},{"internalType":"uint256","name":"_amount","type":"uint256"}],"name":"delegateVote","outputs":[],"stateMutability":"nonpayable","type":"function"},{"inputs":[{"internalType":"uint256","name":"_tokenAmount","type":"uint256"},{"internalType":"address","name":"_delegate","type":"address"}],"name":"deposit","outputs":[],"stateMutability":"nonpayable","type":"function"},{"inputs":[{"internalType":"uint256","name":"_amount","type":"uint256"}],"name":"deposit","outputs":[],"stateMutability":"nonpayable","type":"function"},{"inputs":[{"internalType":"address","name":"account","type":"address"}],"name":"getCurrentRecord","outputs":[{"components":[{"internalType":"uint256","name":"at","type":"uint256"},{"internalType":"uint256","name":"baseVotingPower","type":"uint256"},{"internalType":"uint256","name":"multiplier","type":"uint256"},{"internalType":"int256","name":"netDelegatedVotes","type":"int256"}],"internalType":"struct VotingPowerHistory.Record","name":"","type":"tuple"}],"stateMutability":"view","type":"function"},{"inputs":[{"internalType":"address","name":"account","type":"address"}],"name":"getDelegations","outputs":[{"components":[{"internalType":"address","name":"delegate","type":"address"},{"internalType":"uint256","name":"amount","type":"uint256"}],"internalType":"struct DataTypes.Delegation[]","name":"delegations","type":"tuple[]"}],"stateMutability":"view","type":"function"},{"inputs":[{"internalType":"address","name":"account","type":"address"}],"name":"getRawVotingPower","outputs":[{"internalType":"uint256","name":"","type":"uint256"}],"stateMutability":"view","type":"function"},{"inputs":[{"internalType":"address","name":"_user","type":"address"},{"internalType":"uint256","name":"timestamp","type":"uint256"}],"name":"getRawVotingPower","outputs":[{"internalType":"uint256","name":"","type":"uint256"}],"stateMutability":"view","type":"function"},{"inputs":[],"name":"getTotalRawVotingPower","outputs":[{"internalType":"uint256","name":"","type":"uint256"}],"stateMutability":"view","type":"function"},{"inputs":[],"name":"getVaultType","outputs":[{"internalType":"string","name":"","type":"string"}],"stateMutability":"pure","type":"function"},{"inputs":[],"name":"globalCheckpoint","outputs":[],"stateMutability":"nonpayable","type":"function"},{"inputs":[{"internalType":"uint256","name":"_threshold","type":"uint256"},{"internalType":"uint256","name":"_withdrawalWaitDuration","type":"uint256"}],"name":"initialize","outputs":[],"stateMutability":"nonpayable","type":"function"},{"inputs":[{"internalType":"uint256","name":"_withdrawalWaitDuration","type":"uint256"}],"name":"initialize","outputs":[],"stateMutability":"nonpayable","type":"function"},{"inputs":[{"internalType":"uint256","name":"_vaultTokenAmount","type":"uint256"},{"internalType":"address","name":"_delegate","type":"address"}],"name":"initiateWithdrawal","outputs":[{"internalType":"uint256","name":"","type":"uint256"}],"stateMutability":"nonpayable","type":"function"},{"inputs":[{"internalType":"address","name":"_user","type":"address"}],"name":"listPendingWithdrawals","outputs":[{"components":[{"internalType":"uint256","name":"id","type":"uint256"},{"internalType":"uint256","name":"withdrawableAt","type":"uint256"},{"internalType":"uint256","name":"amount","type":"uint256"},{"internalType":"address","name":"to","type":"address"},{"internalType":"address","name":"delegate","type":"address"}],"internalType":"struct DataTypes.PendingWithdrawal[]","name":"","type":"tuple[]"}],"stateMutability":"view","type":"function"},{"inputs":[],"name":"owner","outputs":[{"internalType":"address","name":"","type":"address"}],"stateMutability":"view","type":"function"},{"inputs":[],"name":"rewardToken","outputs":[{"internalType":"contract IERC20","name":"","type":"address"}],"stateMutability":"view","type":"function"},{"inputs":[],"name":"rewardsEmissionEndTime","outputs":[{"internalType":"uint256","name":"","type":"uint256"}],"stateMutability":"view","type":"function"},{"inputs":[],"name":"rewardsEmissionRate","outputs":[{"internalType":"uint256","name":"","type":"uint256"}],"stateMutability":"view","type":"function"},{"inputs":[{"internalType":"uint256","name":"_threshold","type":"uint256"}],"name":"setThreshold","outputs":[],"stateMutability":"nonpayable","type":"function"},{"inputs":[{"internalType":"uint256","name":"_duration","type":"uint256"}],"name":"setWithdrawalWaitDuration","outputs":[],"stateMutability":"nonpayable","type":"function"},{"inputs":[{"internalType":"address","name":"account","type":"address"}],"name":"stakedBalanceOf","outputs":[{"internalType":"uint256","name":"","type":"uint256"}],"stateMutability":"view","type":"function"},{"inputs":[{"internalType":"address","name":"rewardsFrom","type":"address"},{"internalType":"uint256","name":"amount","type":"uint256"},{"internalType":"uint256","name":"endTime","type":"uint256"}],"name":"startMining","outputs":[],"stateMutability":"nonpayable","type":"function"},{"inputs":[],"name":"stopMining","outputs":[],"stateMutability":"nonpayable","type":"function"},{"inputs":[],"name":"threshold","outputs":[{"internalType":"uint256","name":"","type":"uint256"}],"stateMutability":"view","type":"function"},{"inputs":[],"name":"totalStaked","outputs":[{"internalType":"uint256","name":"","type":"uint256"}],"stateMutability":"view","type":"function"},{"inputs":[],"name":"totalSupply","outputs":[{"internalType":"uint256","name":"","type":"uint256"}],"stateMutability":"view","type":"function"},{"inputs":[{"internalType":"address","name":"_delegate","type":"address"},{"internalType":"uint256","name":"_amount","type":"uint256"}],"name":"undelegateVote","outputs":[],"stateMutability":"nonpayable","type":"function"},{"inputs":[],"name":"underlying","outputs":[{"internalType":"contract IERC20","name":"","type":"address"}],"stateMutability":"view","type":"function"},{"inputs":[{"internalType":"address","name":"account","type":"address"}],"name":"userCheckpoint","outputs":[],"stateMutability":"nonpayable","type":"function"},{"inputs":[{"internalType":"uint256","name":"withdrawalId","type":"uint256"}],"name":"withdraw","outputs":[],"stateMutability":"nonpayable","type":"function"}],"bytecode":"6101206040523480156200001257600080fd5b506040516200316b3803806200316b8339810160408190526200003591620000f7565b6001600160a01b038085166080524260085580831660a05280821660c052831660e08190526040805163313ce56760e01b8152905186928692869286929163313ce5679160048083019260209291908290030181865afa1580156200009e573d6000803e3d6000fd5b505050506040513d601f19601f82011682018060405250810190620000c4919062000154565b60ff166101005250620001809650505050505050565b80516001600160a01b0381168114620000f257600080fd5b919050565b600080600080608085870312156200010e57600080fd5b6200011985620000da565b93506200012960208601620000da565b92506200013960408601620000da565b91506200014960608601620000da565b905092959194509250565b6000602082840312156200016757600080fd5b815160ff811681146200017957600080fd5b9392505050565b60805160a05160c05160e05161010051612f4462000227600039600081816106fb0152610e510152600081816103330152818161074e0152610dbb01526000818161039f0152611ccb0152600081816104f70152818161172e0152818161177001528181611c250152611ca90152600081816103cf01528181610a3301528181610a75015281816111c701528181611209015281816113ed015261142f0152612f446000f3fe608060405234801561001057600080fd5b50600436106102065760003560e01c80638da5cb5b1161011a578063cead0481116100ad578063e2fcf5501161007c578063e2fcf550146104b9578063e4a30116146104cc578063e9314c73146104df578063f7c618c1146104f2578063fe4b84df1461051957600080fd5b8063cead048114610478578063da4086791461048b578063dc01f60d14610493578063de1ec403146104a657600080fd5b80639f1acf08116100e95780639f1acf081461041f578063b07b709b14610432578063b6b55f2514610445578063c24ab3bb1461045857600080fd5b80638da5cb5b146103ca578063926f7327146103f1578063960bfe041461040457806397a04d5a1461041757600080fd5b806342cde4e81161019d5780636e553f651161016c5780636e553f651461031b5780636f307dc31461032e57806375baf37f1461036d57806379022a9f1461039a578063817b1cd2146103c157600080fd5b806342cde4e8146102e35780634a62c9fb146102ec5780634ba9699e146102f5578063544381271461030857600080fd5b80632e1a7d4d116101d95780632e1a7d4d146102a057806331cc13ba146102b3578063344ff1d0146102d3578063372500ab146102db57600080fd5b8063167653911461020b57806318160ddd1461024757806319ad0eba146102505780631ac40e6614610296575b600080fd5b610234610219366004612a0b565b6001600160a01b03166000908152600c602052604090205490565b6040519081526020015b60405180910390f35b61023460135481565b61026361025e366004612a0b565b61052c565b60405161023e91908151815260208083015190820152604080830151908201526060918201519181019190915260800190565b61029e610568565b005b61029e6102ae366004612a26565b6105dd565b6102c66102c1366004612a0b565b610872565b60405161023e9190612a3f565b61023461096d565b610234610989565b61023460145481565b610234600e5481565b61029e610303366004612a97565b610a28565b610234610316366004612aca565b610ab2565b61029e610329366004612aca565b610d09565b6103557f000000000000000000000000000000000000000000000000000000000000000081565b6040516001600160a01b03909116815260200161023e565b604080518082018252600b81526a131bd8dad95915985d5b1d60aa1b6020820152905161023e9190612b1a565b6103557f000000000000000000000000000000000000000000000000000000000000000081565b61023460065481565b6103557f000000000000000000000000000000000000000000000000000000000000000081565b61029e6103ff366004612b4d565b610f28565b61029e610412366004612a26565b610f37565b610234610f72565b61023461042d366004612a0b565b610f8b565b61029e610440366004612a0b565b610f97565b61029e610453366004612a26565b611032565b61046b610466366004612a0b565b61103f565b60405161023e9190612b77565b61029e610486366004612be7565b6111a6565b61029e6111bc565b6102346104a1366004612a0b565b611240565b6102346104b4366004612b4d565b6112f7565b61029e6104c7366004612b4d565b611305565b61029e6104da366004612c23565b611310565b61029e6104ed366004612a26565b6113e2565b6103557f000000000000000000000000000000000000000000000000000000000000000081565b61029e610527366004612a26565b611461565b6105576040518060800160405280600081526020016000815260200160008152602001600081525090565b61056260018361152c565b92915050565b60065480156105d6576000600854426105819190612c5b565b905060008161058e610f72565b6105989190612c6e565b90506105a4818461163a565b600760008282546105b59190612c85565b9250508190555080600960008282546105ce9190612c85565b909155505050505b5042600855565b600081815260116020908152604091829020825160a0810184528154815260018201549281019290925260028101549282019290925260038201546001600160a01b03908116606083018190526004909301541660808201529033146106955760405162461bcd60e51b815260206004820152602260248201527f6d61746368696e67207769746864726177616c20646f6573206e6f74206578696044820152611cdd60f21b60648201526084015b60405180910390fd5b42816020015111156106e95760405162461bcd60e51b815260206004820152601b60248201527f6e6f2076616c69642070656e64696e67207769746864726177616c0000000000604482015260640161068c565b604081015160009061072090601260ff7f00000000000000000000000000000000000000000000000000000000000000001661168d565b606083015160405163a9059cbb60e01b81526001600160a01b039182166004820152602481018390529192507f0000000000000000000000000000000000000000000000000000000000000000169063a9059cbb906044016020604051808303816000875af1158015610797573d6000803e3d6000fd5b505050506040513d601f19601f820116820180604052508101906107bb9190612c98565b50600083815260116020908152604080832083815560018101849055600281018490556003810180546001600160a01b031990811690915560049091018054909116905560608501516001600160a01b031683526010909152902061082090846116ea565b5081606001516001600160a01b0316837f096793b0307a8bedd30923ee6c6a84d492646dd968c25a0c714296a68c74aceb846040015160405161086591815260200190565b60405180910390a3505050565b6001600160a01b0381166000908152600560205260408120606091610896826116f6565b90508067ffffffffffffffff8111156108b1576108b1612cba565b6040519080825280602002602001820160405280156108f657816020015b60408051808201909152600080825260208201528152602001906001900390816108cf5790505b50925060005b81811015610965576000806109118584611701565b915091506040518060400160405280836001600160a01b031681526020018281525086848151811061094557610945612cd0565b60200260200101819052505050808061095d90612ce6565b9150506108fc565b505050919050565b60006014546013541015610982575060145490565b5060135490565b600061099433610f97565b336000908152600b6020526040812054908190036109b457600091505090565b336000818152600b602052604080822091909155517f47cee97cb7acd717b3c0aa1435d004cd5b3c8c57d70dbceb4e4458bbd60e39d4906109f89084815260200190565b60405180910390a28060096000828254610a129190612c5b565b90915550610a229050338261171f565b91505090565b336001600160a01b037f00000000000000000000000000000000000000000000000000000000000000001614610aa25760405163c55ddc9760e01b81523360048201526001600160a01b037f000000000000000000000000000000000000000000000000000000000000000016602482015260440161068c565b610aad83838361175b565b505050565b600080610ac060013361152c565b905060006001600160a01b03841615801590610ae557506001600160a01b0384163314155b905084826020015110158015610b2157508080610b2157503360009081526003602052604090205485908360200151610b1e9190612c5b565b10155b610b6d5760405162461bcd60e51b815260206004820152601860248201527f6e6f7420656e6f75676820746f20756e64656c65676174650000000000000000604482015260640161068c565b610b9633868460200151610b819190612c5b565b604085015160608601516001939291906117ea565b508015610ba857610ba833858761192e565b8460136000828254610bba9190612c5b565b90915550610bca905033866119c3565b60006040518060a001604052806012548152602001600f5442610bed9190612c85565b815260208082018990523360408084018290526001600160a01b038a811660609586015285516000908152601185528281208751808255888701516001830155888501516002830155968801516003820180549185166001600160a01b031992831617905560808901516004909201805492909416911617909155918252601090925220919250610c7e9190611a55565b5060128054906000610c8f83612ce6565b919050555080608001516001600160a01b031681606001516001600160a01b031682600001517f20849eb8a3d11461c2f45d1330d7cdfdcf0359148aaa26d84af32b9596e32b9484602001518560400151604051610cf7929190918252602082015260400190565b60405180910390a45195945050505050565b6001600160a01b038116610d545760405162461bcd60e51b815260206004820152601260248201527106e6f2064656c65676174696f6e20746f20360741b604482015260640161068c565b60008211610da45760405162461bcd60e51b815260206004820152601a60248201527f63616e6e6f74206465706f736974207a65726f20616d6f756e74000000000000604482015260640161068c565b6040516323b872dd60e01b81526001600160a01b037f000000000000000000000000000000000000000000000000000000000000000016906323b872dd90610df490339030908790600401612cff565b6020604051808303816000875af1158015610e13573d6000803e3d6000fd5b505050506040513d601f19601f82011682018060405250810190610e379190612c98565b506000610e4560013361152c565b90506000610e788460ff7f000000000000000000000000000000000000000000000000000000000000000016601261168d565b9050610e8e33828460200151610b819190612c85565b506001600160a01b03831615801590610eb057506001600160a01b0383163314155b15610ec057610ec0338483611a61565b8060136000828254610ed29190612c85565b90915550610ee290503382611b32565b6040518481526001600160a01b0384169033907f5548c837ab068cf56a2c2479df0882a4922fd203edb7517321831d95078c5f629060200160405180910390a350505050565b610f33338383611a61565b5050565b60148190556040518181527f6e8a187d7944998085dbd1f16b84c51c903bb727536cdba86962439aded2cfd79060200160405180910390a150565b6000600e54421115610f845750600090565b50600d5490565b600061056282426112f7565b610f9f610568565b6007546001600160a01b0382166000908152600a6020526040902054610fe990610fc99083612c5b565b6001600160a01b0384166000908152600c60205260409020545b90611bba565b6001600160a01b0383166000908152600b602052604081208054909190611011908490612c85565b90915550506001600160a01b039091166000908152600a6020526040902055565b61103c8133610d09565b50565b6001600160a01b038116600090815260106020526040812060609161106382611be3565b67ffffffffffffffff81111561107b5761107b612cba565b6040519080825280602002602001820160405280156110f057816020015b6110dd6040518060a0016040528060008152602001600081526020016000815260200160006001600160a01b0316815260200160006001600160a01b031681525090565b8152602001906001900390816110995790505b50905060005b6110ff83611be3565b81101561119e57601160006111148584611bed565b81526020808201929092526040908101600020815160a0810183528154815260018201549381019390935260028101549183019190915260038101546001600160a01b039081166060840152600490910154166080820152825183908390811061118057611180612cd0565b6020026020010181905250808061119690612ce6565b9150506110f6565b509392505050565b6111b133848361192e565b610aad338383611a61565b336001600160a01b037f000000000000000000000000000000000000000000000000000000000000000016146112365760405163c55ddc9760e01b81523360048201526001600160a01b037f000000000000000000000000000000000000000000000000000000000000000016602482015260440161068c565b61123e611bf9565b565b60075460065460009190156112885761127b600654600854426112639190612c5b565b61126b610f72565b6112759190612c6e565b9061163a565b6112859082612c85565b90505b6001600160a01b0383166000908152600a60205260409020546112cd906112af9083612c5b565b6001600160a01b0385166000908152600c6020526040902054610fe3565b6001600160a01b0384166000908152600b60205260409020546112f09190612c85565b9392505050565b60006112f060018484611d21565b610f3333838361192e565b600054610100900460ff16158080156113305750600054600160ff909116105b8061134a5750303b15801561134a575060005460ff166001145b6113665760405162461bcd60e51b815260040161068c90612d23565b6000805460ff191660011790558015611389576000805461ff0019166101001790555b61139282611dd2565b60148390558015610aad576000805461ff0019169055604051600181527f7f26b83ff96e1f2b6a682f133852f6798a09c465da95921460cefb3847402498906020015b60405180910390a1505050565b336001600160a01b037f0000000000000000000000000000000000000000000000000000000000000000161461145c5760405163c55ddc9760e01b81523360048201526001600160a01b037f000000000000000000000000000000000000000000000000000000000000000016602482015260440161068c565b600f55565b600054610100900460ff16158080156114815750600054600160ff909116105b8061149b5750303b15801561149b575060005460ff166001145b6114b75760405162461bcd60e51b815260040161068c90612d23565b6000805460ff1916600117905580156114da576000805461ff0019166101001790555b6114e382611dd2565b8015610f33576000805461ff0019169055604051600181527f7f26b83ff96e1f2b6a682f133852f6798a09c465da95921460cefb38474024989060200160405180910390a15050565b6115576040518060800160405280600081526020016000815260200160008152602001600081525090565b6001600160a01b03821660009081526020848152604080832080548251818502810185019093528083529192909190849084015b828210156115e557838290600052602060002090600402016040518060800160405290816000820154815260200160018201548152602001600282015481526020016003820154815250508152602001906001019061158b565b5050505090508051600003611604576115fc611ddf565b915050610562565b80600182516116139190612c5b565b8151811061162357611623612cd0565b6020026020010151915050610562565b5092915050565b60008160000361165d57604051630a0c22c760e01b815260040160405180910390fd5b8260000361166d57506000610562565b6000611681670de0b6b3a764000085612c6e565b90506115fc8382612d71565b600081830361169d5750826112f0565b818310156116cb576116af8383612c5b565b6116ba90600a612e6f565b6116c49085612c6e565b90506112f0565b6116d58284612c5b565b6116e090600a612e6f565b6116c49085612d71565b60006112f08383611e3b565b600061056282611f2e565b60008080806117108686611f39565b909450925050505b9250929050565b60006117556001600160a01b037f0000000000000000000000000000000000000000000000000000000000000000168484611f64565b50919050565b611763610568565b6117986001600160a01b037f000000000000000000000000000000000000000000000000000000000000000016843085611fc7565b6117a24282612c5b565b6117ac9083612d71565b600d55600e81905560408051838152602081018390527f76554fac4477e8876b3de3af392cf374cf4e9de02ae78fbade2373107381fe5091016113d5565b6118156040518060800160405280600081526020016000815260200160008152602001600081525090565b6001600160a01b03851660009081526020878152604080832081516080810183524281529283018890529082018690526060820185905291611857898961152c565b80519091504214801561186a5750825415155b156118cf5782548290849061188190600190612c5b565b8154811061189157611891612cd0565b906000526020600020906004020160008201518160000155602082015181600101556040820151816002015560608201518160030155905050611922565b6001600160a01b038816600090815260208a815260408083208054600181810183559185529383902086516004909502019384559185015191830191909155830151600282015560608301516003909101555b50979650505050505050565b61193b6001848484611fe8565b6001600160a01b038316600090815260056020526040812061195d90846121c5565b905081810361198e576001600160a01b038416600090815260056020526040902061198890846121da565b506119bd565b6119bb8361199c8484612c5b565b6001600160a01b038716600090815260056020526040902091906121ef565b505b50505050565b6119cc82610f97565b6001600160a01b0382166000908152600c6020526040812080548392906119f4908490612c5b565b925050819055508060066000828254611a0d9190612c5b565b90915550506040518181526001600160a01b038316907f85082129d87b2fe11527cb1b3b7a520aeb5aa6913f88a3d8757fe40d1db02fdd906020015b60405180910390a25050565b60006112f08383612205565b6001600160a01b038216611ab75760405162461bcd60e51b815260206004820152601c60248201527f63616e6e6f742064656c656761746520746f2030206164647265737300000000604482015260640161068c565b611ac46001848484612254565b6001600160a01b03831660009081526005602052604081208190611ae89085612425565b91509150600082611af95783611b03565b611b038483612c85565b6001600160a01b0387166000908152600560205260409020909150611b299086836121ef565b50505050505050565b611b3b82610f97565b8060066000828254611b4d9190612c85565b90915550506001600160a01b0382166000908152600c602052604081208054839290611b7a908490612c85565b90915550506040518181526001600160a01b038316907febedb8b3c678666e7f36970bc8f57abf6d8fa2e828c0da91ea5b75bf68ed101a90602001611a49565b600080611bc78385612c6e565b9050611bdb670de0b6b3a764000082612d71565b949350505050565b6000610562825490565b60006112f0838361243d565b611c01610568565b6009546040516370a0823160e01b8152306004820152600091906001600160a01b037f000000000000000000000000000000000000000000000000000000000000000016906370a0823190602401602060405180830381865afa158015611c6c573d6000803e3d6000fd5b505050506040513d601f19601f82011682018060405250810190611c909190612e7b565b611c9a9190612c5b565b9050611cf06001600160a01b037f0000000000000000000000000000000000000000000000000000000000000000167f000000000000000000000000000000000000000000000000000000000000000083611f64565b6000600e8190556040517fe5a0e15e63edb96a15ed99a9c2a3674e2e0bd1b10b65d0223cce19a6b54e7fb19190a150565b6001600160a01b03821660009081526020848152604080832080548251818502810185019093528083528493611dbd93929190859084015b82821015611db3578382906000526020600020906004020160405180608001604052908160008201548152602001600182015481526020016002820154815260200160038201548152505081526020019060010190611d59565b5050505084612467565b915050611dc9816124ad565b95945050505050565b600f81905561103c610568565b611e0a6040518060800160405280600081526020016000815260200160008152602001600081525090565b60405180608001604052806000815260200160008152602001670de0b6b3a764000081526020016000815250905090565b60008181526001830160205260408120548015611f24576000611e5f600183612c5b565b8554909150600090611e7390600190612c5b565b9050818114611ed8576000866000018281548110611e9357611e93612cd0565b9060005260206000200154905080876000018481548110611eb657611eb6612cd0565b6000918252602080832090910192909255918252600188019052604090208390555b8554869080611ee957611ee9612e94565b600190038181906000526020600020016000905590558560010160008681526020019081526020016000206000905560019350505050610562565b6000915050610562565b600061056282611be3565b60008080611f478585611bed565b600081815260029690960160205260409095205494959350505050565b6040516001600160a01b038316602482015260448101829052610aad90849063a9059cbb60e01b906064015b60408051601f198184030181529190526020810180516001600160e01b03166001600160e01b0319909316929092179091526124d9565b6119bd846323b872dd60e01b858585604051602401611f9093929190612cff565b6001600160a01b0380841660009081526001860160209081526040808320938616835292905220548111156120715760405162461bcd60e51b815260206004820152602960248201527f7573657220686173206e6f742064656c65676174656420656e6f75676820746f6044820152682064656c656761746560b81b606482015260840161068c565b6001600160a01b03821660009081526003850160205260408120805483929061209b908490612c5b565b90915550506001600160a01b0383166000908152600285016020526040812080548392906120ca908490612c5b565b90915550506001600160a01b038084166000908152600186016020908152604080832093861683529290529081208054839290612108908490612c5b565b909155506000905061211a858561152c565b9050612147848260200151836040015161213d888a6125ab90919063ffffffff16565b89939291906117ea565b506000612154868561152c565b90506121818482602001518360400151612177888b6125ab90919063ffffffff16565b8a939291906117ea565b507fde5aa493a93d4351631c1991a0aeecfd52d6b51cf1b61f1a3c48f97e268086538585856040516121b593929190612cff565b60405180910390a1505050505050565b60006112f0836001600160a01b0384166125dd565b60006112f0836001600160a01b03841661264d565b6000611bdb846001600160a01b0385168461266a565b600081815260018301602052604081205461224c57508154600181810184556000848152602080822090930184905584548482528286019093526040902091909155610562565b506000610562565b6000612260858561152c565b6001600160a01b03851660009081526002870160209081526040808320549084015191840151939450919261229491612687565b61229e9190612c5b565b9050828110156122f05760405162461bcd60e51b815260206004820181905260248201527f696e73756666696369656e742062616c616e636520746f2064656c6567617465604482015260640161068c565b6001600160a01b03841660009081526003870160205260408120805485929061231a908490612c85565b90915550506001600160a01b038516600090815260028701602052604081208054859290612349908490612c85565b90915550506001600160a01b038086166000908152600188016020908152604080832093881683529290529081208054859290612387908490612c85565b9091555050602082015160408301516123a69187916121778a846125ab565b5060006123b3878661152c565b90506123e085826020015183604001516123d6898c6125ab90919063ffffffff16565b8b939291906117ea565b507fff825f9424124effc5ce1d9f4803d58ede8a2bda4da2324810f74834715c4c5986868660405161241493929190612cff565b60405180910390a150505050505050565b6000808080611710866001600160a01b0387166126a6565b600082600001828154811061245457612454612cd0565b9060005260206000200154905092915050565b60006124946040518060800160405280600081526020016000815260200160008152602001600081525090565b6124a28484600087516126e8565b915091509250929050565b600081606001516124cf8360400151846020015161268790919063ffffffff16565b6105629190612eaa565b600061252e826040518060400160405280602081526020017f5361666545524332303a206c6f772d6c6576656c2063616c6c206661696c6564815250856001600160a01b03166128439092919063ffffffff16565b805190915015610aad578080602001905181019061254c9190612c98565b610aad5760405162461bcd60e51b815260206004820152602a60248201527f5361666545524332303a204552433230206f7065726174696f6e20646964206e6044820152691bdd081cdd58d8d9595960b21b606482015260840161068c565b6001600160a01b0381166000908152600283016020908152604080832054600386019092528220546112f09190612ed2565b60008181526002830160205260408120548015158061260157506126018484612852565b6112f05760405162461bcd60e51b815260206004820152601e60248201527f456e756d657261626c654d61703a206e6f6e6578697374656e74206b65790000604482015260640161068c565b600081815260028301602052604081208190556112f083836116ea565b60008281526002840160205260408120829055611bdb8484611a55565b6000670de0b6b3a764000061269c8385612c6e565b6112f09190612d71565b60008181526002830160205260408120548190806126d5576126c88585612852565b9250600091506117189050565b600192509050611718565b509250929050565b60006127156040518060800160405280600081526020016000815260200160008152602001600081525090565b82841061272f576000612726611ddf565b9150915061283a565b6127398484612c5b565b60010361278757600086858151811061275457612754612cd0565b602002602001015190508581600001511115612779576000612774611ddf565b61277d565b6001815b925092505061283a565b600060026127958686612c85565b61279f9190612d71565b90506000876127af600184612c5b565b815181106127bf576127bf612cd0565b6020026020010151905060008883815181106127dd576127dd612cd0565b60200260200101519050878260000151111580156127fb5750805188105b1561280e575060019350915061283a9050565b8051881061282e57612822898985896126e8565b9450945050505061283a565b612822898989866126e8565b94509492505050565b6060611bdb848460008561285e565b60006112f08383612939565b6060824710156128bf5760405162461bcd60e51b815260206004820152602660248201527f416464726573733a20696e73756666696369656e742062616c616e636520666f6044820152651c8818d85b1b60d21b606482015260840161068c565b600080866001600160a01b031685876040516128db9190612ef2565b60006040518083038185875af1925050503d8060008114612918576040519150601f19603f3d011682016040523d82523d6000602084013e61291d565b606091505b509150915061292e87838387612951565b979650505050505050565b600081815260018301602052604081205415156112f0565b606083156129c05782516000036129b9576001600160a01b0385163b6129b95760405162461bcd60e51b815260206004820152601d60248201527f416464726573733a2063616c6c20746f206e6f6e2d636f6e7472616374000000604482015260640161068c565b5081611bdb565b611bdb83838151156129d55781518083602001fd5b8060405162461bcd60e51b815260040161068c9190612b1a565b80356001600160a01b0381168114612a0657600080fd5b919050565b600060208284031215612a1d57600080fd5b6112f0826129ef565b600060208284031215612a3857600080fd5b5035919050565b602080825282518282018190526000919060409081850190868401855b82811015612a8a57815180516001600160a01b03168552860151868501529284019290850190600101612a5c565b5091979650505050505050565b600080600060608486031215612aac57600080fd5b612ab5846129ef565b95602085013595506040909401359392505050565b60008060408385031215612add57600080fd5b82359150612aed602084016129ef565b90509250929050565b60005b83811015612b11578181015183820152602001612af9565b50506000910152565b6020815260008251806020840152612b39816040850160208701612af6565b601f01601f19169190910160400192915050565b60008060408385031215612b6057600080fd5b612b69836129ef565b946020939093013593505050565b602080825282518282018190526000919060409081850190868401855b82811015612a8a57815180518552868101518786015285810151868601526060808201516001600160a01b0390811691870191909152608091820151169085015260a09093019290850190600101612b94565b600080600060608486031215612bfc57600080fd5b612c05846129ef565b9250612c13602085016129ef565b9150604084013590509250925092565b60008060408385031215612c3657600080fd5b50508035926020909101359150565b634e487b7160e01b600052601160045260246000fd5b8181038181111561056257610562612c45565b808202811582820484141761056257610562612c45565b8082018082111561056257610562612c45565b600060208284031215612caa57600080fd5b815180151581146112f057600080fd5b634e487b7160e01b600052604160045260246000fd5b634e487b7160e01b600052603260045260246000fd5b600060018201612cf857612cf8612c45565b5060010190565b6001600160a01b039384168152919092166020820152604081019190915260600190565b6020808252602e908201527f496e697469616c697a61626c653a20636f6e747261637420697320616c72656160408201526d191e481a5b9a5d1a585b1a5e995960921b606082015260800190565b600082612d8e57634e487b7160e01b600052601260045260246000fd5b500490565b600181815b808511156126e0578160001904821115612db457612db4612c45565b80851615612dc157918102915b93841c9390800290612d98565b600082612ddd57506001610562565b81612dea57506000610562565b8160018114612e005760028114612e0a57612e26565b6001915050610562565b60ff841115612e1b57612e1b612c45565b50506001821b610562565b5060208310610133831016604e8410600b8410161715612e49575081810a610562565b612e538383612d93565b8060001904821115612e6757612e67612c45565b029392505050565b60006112f08383612dce565b600060208284031215612e8d57600080fd5b5051919050565b634e487b7160e01b600052603160045260246000fd5b8082018281126000831280158216821582161715612eca57612eca612c45565b505092915050565b818103600083128015838313168383128216171561163357611633612c45565b60008251612f04818460208701612af6565b919091019291505056fea2646970667358221220d46fd0843984177bd0b82d4063f479de11ddd19661012ebcc23720595135080a64736f6c63430008110033","bytecodeSha1":"a8260fbe9dc74bb0a21dbeb01517c8722450f07d","compiler":{"evm_version":"london","optimizer":{"enabled":true,"runs":200},"version":"0.8.17+commit.8df45f5f"},"contractName":"LockedVaultWithThreshold","language":"Solidity","natspec":{"kind":"dev","methods":{"claimRewards()":{"notice":"claims rewards for caller"},"claimableRewards(address)":{"notice":"returns the amount of claimable rewards by `beneficiary`"},"globalCheckpoint()":{"details":"these functions will be called internally but can typically be called by anyone to update the internal tracking state of the contract"},"rewardsEmissionEndTime()":{"notice":"time when rewards emission ends"},"rewardsEmissionRate()":{"notice":"returns the number of rewards token that will be given per second for the contract This emission will be given to all stakers in the contract proportionally to their stake"},"stakedBalanceOf(address)":{"notice":"the amount of tokens staked by `account`"},"startMining(address,uint256,uint256)":{"notice":"Deposit `amount` of the reward token from `rewardsFrom` and enable rewards until `endTime`. Typically governanceOnly. `amount` is spread evenly over the time period."},"stopMining()":{"notice":"Stop liquidity mining early and reimburse leftover rewards to the DAO treasury. This may also be needed after the mining period has ended when we had `totalStaked() == 0` for a while, where no rewards accrue."},"totalStaked()":{"notice":"the total amount of tokens staked in the contract"}},"version":1},"opcodes":"PUSH1 0x80 PUSH1 0x40 MSTORE CALLVALUE DUP1 ISZERO PUSH2 0x10 JUMPI PUSH1 0x0 DUP1 REVERT JUMPDEST POP PUSH1 0x4 CALLDATASIZE LT PUSH2 0x206 JUMPI PUSH1 0x0 CALLDATALOAD PUSH1 0xE0 SHR DUP1 PUSH4 0x8DA5CB5B GT PUSH2 0x11A JUMPI DUP1 PUSH4 0xCEAD0481 GT PUSH2 0xAD JUMPI DUP1 PUSH4 0xE2FCF550 GT PUSH2 0x7C JUMPI DUP1 PUSH4 0xE2FCF550 EQ PUSH2 0x4B9 JUMPI DUP1 PUSH4 0xE4A30116 EQ PUSH2 0x4CC JUMPI DUP1 PUSH4 0xE9314C73 EQ PUSH2 0x4DF JUMPI DUP1 PUSH4 0xF7C618C1 EQ PUSH2 0x4F2 JUMPI DUP1 PUSH4 0xFE4B84DF EQ PUSH2 0x519 JUMPI PUSH1 0x0 DUP1 REVERT JUMPDEST DUP1 PUSH4 0xCEAD0481 EQ PUSH2 0x478 JUMPI DUP1 PUSH4 0xDA408679 EQ PUSH2 0x48B JUMPI DUP1 PUSH4 0xDC01F60D EQ PUSH2 0x493 JUMPI DUP1 PUSH4 0xDE1EC403 EQ PUSH2 0x4A6 JUMPI PUSH1 0x0 DUP1 REVERT JUMPDEST DUP1 PUSH4 0x9F1ACF08 GT PUSH2 0xE9 JUMPI DUP1 PUSH4 0x9F1ACF08 EQ PUSH2 0x41F JUMPI DUP1 PUSH4 0xB07B709B EQ PUSH2 0x432 JUMPI DUP1 PUSH4 0xB6B55F25 EQ PUSH2 0x445 JUMPI DUP1 PUSH4 0xC24AB3BB EQ PUSH2 0x458 JUMPI PUSH1 0x0 DUP1 REVERT JUMPDEST DUP1 PUSH4 0x8DA5CB5B EQ PUSH2 0x3CA JUMPI DUP1 PUSH4 0x926F7327 EQ PUSH2 0x3F1 JUMPI DUP1 PUSH4 0x960BFE04 EQ PUSH2 0x404 JUMPI DUP1 PUSH4 0x97A04D5A EQ PUSH2 0x417 JUMPI PUSH1 0x0 DUP1 REVERT JUMPDEST DUP1 PUSH4 0x42CDE4E8 GT PUSH2 0x19D JUMPI DUP1 PUSH4 0x6E553F65 GT PUSH2 0x16C JUMPI DUP1 PUSH4 0x6E553F65 EQ PUSH2 0x31B JUMPI DUP1 PUSH4 0x6F307DC3 EQ PUSH2 0x32E JUMPI DUP1 PUSH4 0x75BAF37F EQ PUSH2 0x36D JUMPI DUP1 PUSH4 0x79022A9F EQ PUSH2 0x39A JUMPI DUP1 PUSH4 0x817B1CD2 EQ PUSH2 0x3C1 JUMPI PUSH1 0x0 DUP1 REVERT JUMPDEST DUP1 PUSH4 0x42CDE4E8 EQ PUSH2 0x2E3 JUMPI DUP1 PUSH4 0x4A62C9FB EQ PUSH2 0x2EC JUMPI DUP1 PUSH4 0x4BA9699E EQ PUSH2 0x2F5 JUMPI DUP1 PUSH4 0x54438127 EQ PUSH2 0x308 JUMPI PUSH1 0x0 DUP1 REVERT JUMPDEST DUP1 PUSH4 0x2E1A7D4D GT PUSH2 0x1D9 JUMPI DUP1 PUSH4 0x2E1A7D4D EQ PUSH2 0x2A0 JUMPI DUP1 PUSH4 0x31CC13BA EQ PUSH2 0x2B3 JUMPI DUP1 PUSH4 0x344FF1D0 EQ PUSH2 0x2D3 JUMPI DUP1 PUSH4 0x372500AB EQ PUSH2 0x2DB JUMPI PUSH1 0x0 DUP1 REVERT JUMPDEST DUP1 PUSH4 0x16765391 EQ PUSH2 0x20B JUMPI DUP1 PUSH4 0x18160DDD EQ PUSH2 0x247 JUMPI DUP1 PUSH4 0x19AD0EBA EQ PUSH2 0x250 JUMPI DUP1 PUSH4 0x1AC40E66 EQ PUSH2 0x296 JUMPI JUMPDEST PUSH1 0x0 DUP1 REVERT JUMPDEST PUSH2 0x234 PUSH2 0x219 CALLDATASIZE PUSH1 0x4 PUSH2 0x2A0B JUMP JUMPDEST PUSH1 0x1 PUSH1 0x1 PUSH1 0xA0 SHL SUB AND PUSH1 0x0 SWAP1 DUP2 MSTORE PUSH1 0xC PUSH1 0x20 MSTORE PUSH1 0x40 SWAP1 KECCAK256 SLOAD SWAP1 JUMP JUMPDEST PUSH1 0x40 MLOAD SWAP1 DUP2 MSTORE PUSH1 0x20 ADD JUMPDEST PUSH1 0x40 MLOAD DUP1 SWAP2 SUB SWAP1 RETURN JUMPDEST PUSH2 0x234 PUSH1 0x13 SLOAD DUP2 JUMP JUMPDEST PUSH2 0x263 PUSH2 0x25E CALLDATASIZE PUSH1 0x4 PUSH2 0x2A0B JUMP JUMPDEST PUSH2 0x52C JUMP JUMPDEST PUSH1 0x40 MLOAD PUSH2 0x23E SWAP2 SWAP1 DUP2 MLOAD DUP2 MSTORE PUSH1 0x20 DUP1 DUP4 ADD MLOAD SWAP1 DUP3 ADD MSTORE PUSH1 0x40 DUP1 DUP4 ADD MLOAD SWAP1 DUP3 ADD MSTORE PUSH1 0x60 SWAP2 DUP3 ADD MLOAD SWAP2 DUP2 ADD SWAP2 SWAP1 SWAP2 MSTORE PUSH1 0x80 ADD SWAP1 JUMP JUMPDEST PUSH2 0x29E PUSH2 0x568 JUMP JUMPDEST STOP JUMPDEST PUSH2 0x29E PUSH2 0x2AE CALLDATASIZE PUSH1 0x4 PUSH2 0x2A26 JUMP JUMPDEST PUSH2 0x5DD JUMP JUMPDEST PUSH2 0x2C6 PUSH2 0x2C1 CALLDATASIZE PUSH1 0x4 PUSH2 0x2A0B JUMP JUMPDEST PUSH2 0x872 JUMP JUMPDEST PUSH1 0x40 MLOAD PUSH2 0x23E SWAP2 SWAP1 PUSH2 0x2A3F JUMP JUMPDEST PUSH2 0x234 PUSH2 0x96D JUMP JUMPDEST PUSH2 0x234 PUSH2 0x989 JUMP JUMPDEST PUSH2 0x234 PUSH1 0x14 SLOAD DUP2 JUMP JUMPDEST PUSH2 0x234 PUSH1 0xE SLOAD DUP2 JUMP JUMPDEST PUSH2 0x29E PUSH2 0x303 CALLDATASIZE PUSH1 0x4 PUSH2 0x2A97 JUMP JUMPDEST PUSH2 0xA28 JUMP JUMPDEST PUSH2 0x234 PUSH2 0x316 CALLDATASIZE PUSH1 0x4 PUSH2 0x2ACA JUMP JUMPDEST PUSH2 0xAB2 JUMP JUMPDEST PUSH2 0x29E PUSH2 0x329 CALLDATASIZE PUSH1 0x4 PUSH2 0x2ACA JUMP JUMPDEST PUSH2 0xD09 JUMP JUMPDEST PUSH2 0x355 PUSH32 0x0 DUP2 JUMP JUMPDEST PUSH1 0x40 MLOAD PUSH1 0x1 PUSH1 0x1 PUSH1 0xA0 SHL SUB SWAP1 SWAP2 AND DUP2 MSTORE PUSH1 0x20 ADD PUSH2 0x23E JUMP JUMPDEST PUSH1 0x40 DUP1 MLOAD DUP1 DUP3 ADD DUP3 MSTORE PUSH1 0xB DUP2 MSTORE PUSH11 0x131BD8DAD95915985D5B1D PUSH1 0xAA SHL PUSH1 0x20 DUP3 ADD MSTORE SWAP1 MLOAD PUSH2 0x23E SWAP2 SWAP1 PUSH2 0x2B1A JUMP JUMPDEST PUSH2 0x355 PUSH32 0x0 DUP2 JUMP JUMPDEST PUSH2 0x234 PUSH1 0x6 SLOAD DUP2 JUMP JUMPDEST PUSH2 0x355 PUSH32 0x0 DUP2 JUMP JUMPDEST PUSH2 0x29E PUSH2 0x3FF CALLDATASIZE PUSH1 0x4 PUSH2 0x2B4D JUMP JUMPDEST PUSH2 0xF28 JUMP JUMPDEST PUSH2 0x29E PUSH2 0x412 CALLDATASIZE PUSH1 0x4 PUSH2 0x2A26 JUMP JUMPDEST PUSH2 0xF37 JUMP JUMPDEST PUSH2 0x234 PUSH2 0xF72 JUMP JUMPDEST PUSH2 0x234 PUSH2 0x42D CALLDATASIZE PUSH1 0x4 PUSH2 0x2A0B JUMP JUMPDEST PUSH2 0xF8B JUMP JUMPDEST PUSH2 0x29E PUSH2 0x440 CALLDATASIZE PUSH1 0x4 PUSH2 0x2A0B JUMP JUMPDEST PUSH2 0xF97 JUMP JUMPDEST PUSH2 0x29E PUSH2 0x453 CALLDATASIZE PUSH1 0x4 PUSH2 0x2A26 JUMP JUMPDEST PUSH2 0x1032 JUMP JUMPDEST PUSH2 0x46B PUSH2 0x466 CALLDATASIZE PUSH1 0x4 PUSH2 0x2A0B JUMP JUMPDEST PUSH2 0x103F JUMP JUMPDEST PUSH1 0x40 MLOAD PUSH2 0x23E SWAP2 SWAP1 PUSH2 0x2B77 JUMP JUMPDEST PUSH2 0x29E PUSH2 0x486 CALLDATASIZE PUSH1 0x4 PUSH2 0x2BE7 JUMP JUMPDEST PUSH2 0x11A6 JUMP JUMPDEST PUSH2 0x29E PUSH2 0x11BC JUMP JUMPDEST PUSH2 0x234 PUSH2 0x4A1 CALLDATASIZE PUSH1 0x4 PUSH2 0x2A0B JUMP JUMPDEST PUSH2 0x1240 JUMP JUMPDEST PUSH2 0x234 PUSH2 0x4B4 CALLDATASIZE PUSH1 0x4 PUSH2 0x2B4D JUMP JUMPDEST PUSH2 0x12F7 JUMP JUMPDEST PUSH2 0x29E PUSH2 0x4C7 CALLDATASIZE PUSH1 0x4 PUSH2 0x2B4D JUMP JUMPDEST PUSH2 0x1305 JUMP JUMPDEST PUSH2 0x29E PUSH2 0x4DA CALLDATASIZE PUSH1 0x4 PUSH2 0x2C23 JUMP JUMPDEST PUSH2 0x1310 JUMP JUMPDEST PUSH2 0x29E PUSH2 0x4ED CALLDATASIZE PUSH1 0x4 PUSH2 0x2A26 JUMP JUMPDEST PUSH2 0x13E2 JUMP JUMPDEST PUSH2 0x355 PUSH32 0x0 DUP2 JUMP JUMPDEST PUSH2 0x29E PUSH2 0x527 CALLDATASIZE PUSH1 0x4 PUSH2 0x2A26 JUMP JUMPDEST PUSH2 0x1461 JUMP JUMPDEST PUSH2 0x557 PUSH1 0x40 MLOAD DUP1 PUSH1 0x80 ADD PUSH1 0x40 MSTORE DUP1 PUSH1 0x0 DUP2 MSTORE PUSH1 0x20 ADD PUSH1 0x0 DUP2 MSTORE PUSH1 0x20 ADD PUSH1 0x0 DUP2 MSTORE PUSH1 0x20 ADD PUSH1 0x0 DUP2 MSTORE POP SWAP1 JUMP JUMPDEST PUSH2 0x562 PUSH1 0x1 DUP4 PUSH2 0x152C JUMP JUMPDEST SWAP3 SWAP2 POP POP JUMP JUMPDEST PUSH1 0x6 SLOAD DUP1 ISZERO PUSH2 0x5D6 JUMPI PUSH1 0x0 PUSH1 0x8 SLOAD TIMESTAMP PUSH2 0x581 SWAP2 SWAP1 PUSH2 0x2C5B JUMP JUMPDEST SWAP1 POP PUSH1 0x0 DUP2 PUSH2 0x58E PUSH2 0xF72 JUMP JUMPDEST PUSH2 0x598 SWAP2 SWAP1 PUSH2 0x2C6E JUMP JUMPDEST SWAP1 POP PUSH2 0x5A4 DUP2 DUP5 PUSH2 0x163A JUMP JUMPDEST PUSH1 0x7 PUSH1 0x0 DUP3 DUP3 SLOAD PUSH2 0x5B5 SWAP2 SWAP1 PUSH2 0x2C85 JUMP JUMPDEST SWAP3 POP POP DUP2 SWAP1 SSTORE POP DUP1 PUSH1 0x9 PUSH1 0x0 DUP3 DUP3 SLOAD PUSH2 0x5CE SWAP2 SWAP1 PUSH2 0x2C85 JUMP JUMPDEST SWAP1 SWAP2 SSTORE POP POP POP POP JUMPDEST POP TIMESTAMP PUSH1 0x8 SSTORE JUMP JUMPDEST PUSH1 0x0 DUP2 DUP2 MSTORE PUSH1 0x11 PUSH1 0x20 SWAP1 DUP2 MSTORE PUSH1 0x40 SWAP2 DUP3 SWAP1 KECCAK256 DUP3 MLOAD PUSH1 0xA0 DUP2 ADD DUP5 MSTORE DUP2 SLOAD DUP2 MSTORE PUSH1 0x1 DUP3 ADD SLOAD SWAP3 DUP2 ADD SWAP3 SWAP1 SWAP3 MSTORE PUSH1 0x2 DUP2 ADD SLOAD SWAP3 DUP3 ADD SWAP3 SWAP1 SWAP3 MSTORE PUSH1 0x3 DUP3 ADD SLOAD PUSH1 0x1 PUSH1 0x1 PUSH1 0xA0 SHL SUB SWAP1 DUP2 AND PUSH1 0x60 DUP4 ADD DUP2 SWAP1 MSTORE PUSH1 0x4 SWAP1 SWAP4 ADD SLOAD AND PUSH1 0x80 DUP3 ADD MSTORE SWAP1 CALLER EQ PUSH2 0x695 JUMPI PUSH1 0x40 MLOAD PUSH3 0x461BCD PUSH1 0xE5 SHL DUP2 MSTORE PUSH1 0x20 PUSH1 0x4 DUP3 ADD MSTORE PUSH1 0x22 PUSH1 0x24 DUP3 ADD MSTORE PUSH32 0x6D61746368696E67207769746864726177616C20646F6573206E6F7420657869 PUSH1 0x44 DUP3 ADD MSTORE PUSH2 0x1CDD PUSH1 0xF2 SHL PUSH1 0x64 DUP3 ADD MSTORE PUSH1 0x84 ADD JUMPDEST PUSH1 0x40 MLOAD DUP1 SWAP2 SUB SWAP1 REVERT JUMPDEST TIMESTAMP DUP2 PUSH1 0x20 ADD MLOAD GT ISZERO PUSH2 0x6E9 JUMPI PUSH1 0x40 MLOAD PUSH3 0x461BCD PUSH1 0xE5 SHL DUP2 MSTORE PUSH1 0x20 PUSH1 0x4 DUP3 ADD MSTORE PUSH1 0x1B PUSH1 0x24 DUP3 ADD MSTORE PUSH32 0x6E6F2076616C69642070656E64696E67207769746864726177616C0000000000 PUSH1 0x44 DUP3 ADD MSTORE PUSH1 0x64 ADD PUSH2 0x68C JUMP JUMPDEST PUSH1 0x40 DUP2 ADD MLOAD PUSH1 0x0 SWAP1 PUSH2 0x720 SWAP1 PUSH1 0x12 PUSH1 0xFF PUSH32 0x0 AND PUSH2 0x168D JUMP JUMPDEST PUSH1 0x60 DUP4 ADD MLOAD PUSH1 0x40 MLOAD PUSH4 0xA9059CBB PUSH1 0xE0 SHL DUP2 MSTORE PUSH1 0x1 PUSH1 0x1 PUSH1 0xA0 SHL SUB SWAP2 DUP3 AND PUSH1 0x4 DUP3 ADD MSTORE PUSH1 0x24 DUP2 ADD DUP4 SWAP1 MSTORE SWAP2 SWAP3 POP PUSH32 0x0 AND SWAP1 PUSH4 0xA9059CBB SWAP1 PUSH1 0x44 ADD PUSH1 0x20 PUSH1 0x40 MLOAD DUP1 DUP4 SUB DUP2 PUSH1 0x0 DUP8 GAS CALL ISZERO DUP1 ISZERO PUSH2 0x797 JUMPI RETURNDATASIZE PUSH1 0x0 DUP1 RETURNDATACOPY RETURNDATASIZE PUSH1 0x0 REVERT JUMPDEST POP POP POP POP PUSH1 0x40 MLOAD RETURNDATASIZE PUSH1 0x1F NOT PUSH1 0x1F DUP3 ADD AND DUP3 ADD DUP1 PUSH1 0x40 MSTORE POP DUP2 ADD SWAP1 PUSH2 0x7BB SWAP2 SWAP1 PUSH2 0x2C98 JUMP JUMPDEST POP PUSH1 0x0 DUP4 DUP2 MSTORE PUSH1 0x11 PUSH1 0x20 SWAP1 DUP2 MSTORE PUSH1 0x40 DUP1 DUP4 KECCAK256 DUP4 DUP2 SSTORE PUSH1 0x1 DUP2 ADD DUP5 SWAP1 SSTORE PUSH1 0x2 DUP2 ADD DUP5 SWAP1 SSTORE PUSH1 0x3 DUP2 ADD DUP1 SLOAD PUSH1 0x1 PUSH1 0x1 PUSH1 0xA0 SHL SUB NOT SWAP1 DUP2 AND SWAP1 SWAP2 SSTORE PUSH1 0x4 SWAP1 SWAP2 ADD DUP1 SLOAD SWAP1 SWAP2 AND SWAP1 SSTORE PUSH1 0x60 DUP6 ADD MLOAD PUSH1 0x1 PUSH1 0x1 PUSH1 0xA0 SHL SUB AND DUP4 MSTORE PUSH1 0x10 SWAP1 SWAP2 MSTORE SWAP1 KECCAK256 PUSH2 0x820 SWAP1 DUP5 PUSH2 0x16EA JUMP JUMPDEST POP DUP2 PUSH1 0x60 ADD MLOAD PUSH1 0x1 PUSH1 0x1 PUSH1 0xA0 SHL SUB AND DUP4 PUSH32 0x96793B0307A8BEDD30923EE6C6A84D492646DD968C25A0C714296A68C74ACEB DUP5 PUSH1 0x40 ADD MLOAD PUSH1 0x40 MLOAD PUSH2 0x865 SWAP2 DUP2 MSTORE PUSH1 0x20 ADD SWAP1 JUMP JUMPDEST PUSH1 0x40 MLOAD DUP1 SWAP2 SUB SWAP1 LOG3 POP POP POP JUMP JUMPDEST PUSH1 0x1 PUSH1 0x1 PUSH1 0xA0 SHL SUB DUP2 AND PUSH1 0x0 SWAP1 DUP2 MSTORE PUSH1 0x5 PUSH1 0x20 MSTORE PUSH1 0x40 DUP2 KECCAK256 PUSH1 0x60 SWAP2 PUSH2 0x896 DUP3 PUSH2 0x16F6 JUMP JUMPDEST SWAP1 POP DUP1 PUSH8 0xFFFFFFFFFFFFFFFF DUP2 GT ISZERO PUSH2 0x8B1 JUMPI PUSH2 0x8B1 PUSH2 0x2CBA JUMP JUMPDEST PUSH1 0x40 MLOAD SWAP1 DUP1 DUP3 MSTORE DUP1 PUSH1 0x20 MUL PUSH1 0x20 ADD DUP3 ADD PUSH1 0x40 MSTORE DUP1 ISZERO PUSH2 0x8F6 JUMPI DUP2 PUSH1 0x20 ADD JUMPDEST PUSH1 0x40 DUP1 MLOAD DUP1 DUP3 ADD SWAP1 SWAP2 MSTORE PUSH1 0x0 DUP1 DUP3 MSTORE PUSH1 0x20 DUP3 ADD MSTORE DUP2 MSTORE PUSH1 0x20 ADD SWAP1 PUSH1 0x1 SWAP1 SUB SWAP1 DUP2 PUSH2 0x8CF JUMPI SWAP1 POP JUMPDEST POP SWAP3 POP PUSH1 0x0 JUMPDEST DUP2 DUP2 LT ISZERO PUSH2 0x965 JUMPI PUSH1 0x0 DUP1 PUSH2 0x911 DUP6 DUP5 PUSH2 0x1701 JUMP JUMPDEST SWAP2 POP SWAP2 POP PUSH1 0x40 MLOAD DUP1 PUSH1 0x40 ADD PUSH1 0x40 MSTORE DUP1 DUP4 PUSH1 0x1 PUSH1 0x1 PUSH1 0xA0 SHL SUB AND DUP2 MSTORE PUSH1 0x20 ADD DUP3 DUP2 MSTORE POP DUP7 DUP5 DUP2 MLOAD DUP2 LT PUSH2 0x945 JUMPI PUSH2 0x945 PUSH2 0x2CD0 JUMP JUMPDEST PUSH1 0x20 MUL PUSH1 0x20 ADD ADD DUP2 SWAP1 MSTORE POP POP POP DUP1 DUP1 PUSH2 0x95D SWAP1 PUSH2 0x2CE6 JUMP JUMPDEST SWAP2 POP POP PUSH2 0x8FC JUMP JUMPDEST POP POP POP SWAP2 SWAP1 POP JUMP JUMPDEST PUSH1 0x0 PUSH1 0x14 SLOAD PUSH1 0x13 SLOAD LT ISZERO PUSH2 0x982 JUMPI POP PUSH1 0x14 SLOAD SWAP1 JUMP JUMPDEST POP PUSH1 0x13 SLOAD SWAP1 JUMP JUMPDEST PUSH1 0x0 PUSH2 0x994 CALLER PUSH2 0xF97 JUMP JUMPDEST CALLER PUSH1 0x0 SWAP1 DUP2 MSTORE PUSH1 0xB PUSH1 0x20 MSTORE PUSH1 0x40 DUP2 KECCAK256 SLOAD SWAP1 DUP2 SWAP1 SUB PUSH2 0x9B4 JUMPI PUSH1 0x0 SWAP2 POP POP SWAP1 JUMP JUMPDEST CALLER PUSH1 0x0 DUP2 DUP2 MSTORE PUSH1 0xB PUSH1 0x20 MSTORE PUSH1 0x40 DUP1 DUP3 KECCAK256 SWAP2 SWAP1 SWAP2 SSTORE MLOAD PUSH32 0x47CEE97CB7ACD717B3C0AA1435D004CD5B3C8C57D70DBCEB4E4458BBD60E39D4 SWAP1 PUSH2 0x9F8 SWAP1 DUP5 DUP2 MSTORE PUSH1 0x20 ADD SWAP1 JUMP JUMPDEST PUSH1 0x40 MLOAD DUP1 SWAP2 SUB SWAP1 LOG2 DUP1 PUSH1 0x9 PUSH1 0x0 DUP3 DUP3 SLOAD PUSH2 0xA12 SWAP2 SWAP1 PUSH2 0x2C5B JUMP JUMPDEST SWAP1 SWAP2 SSTORE POP PUSH2 0xA22 SWAP1 POP CALLER DUP3 PUSH2 0x171F JUMP JUMPDEST SWAP2 POP POP SWAP1 JUMP JUMPDEST CALLER PUSH1 0x1 PUSH1 0x1 PUSH1 0xA0 SHL SUB PUSH32 0x0 AND EQ PUSH2 0xAA2 JUMPI PUSH1 0x40 MLOAD PUSH4 0xC55DDC97 PUSH1 0xE0 SHL DUP2 MSTORE CALLER PUSH1 0x4 DUP3 ADD MSTORE PUSH1 0x1 PUSH1 0x1 PUSH1 0xA0 SHL SUB PUSH32 0x0 AND PUSH1 0x24 DUP3 ADD MSTORE PUSH1 0x44 ADD PUSH2 0x68C JUMP JUMPDEST PUSH2 0xAAD DUP4 DUP4 DUP4 PUSH2 0x175B JUMP JUMPDEST POP POP POP JUMP JUMPDEST PUSH1 0x0 DUP1 PUSH2 0xAC0 PUSH1 0x1 CALLER PUSH2 0x152C JUMP JUMPDEST SWAP1 POP PUSH1 0x0 PUSH1 0x1 PUSH1 0x1 PUSH1 0xA0 SHL SUB DUP5 AND ISZERO DUP1 ISZERO SWAP1 PUSH2 0xAE5 JUMPI POP PUSH1 0x1 PUSH1 0x1 PUSH1 0xA0 SHL SUB DUP5 AND CALLER EQ ISZERO JUMPDEST SWAP1 POP DUP5 DUP3 PUSH1 0x20 ADD MLOAD LT ISZERO DUP1 ISZERO PUSH2 0xB21 JUMPI POP DUP1 DUP1 PUSH2 0xB21 JUMPI POP CALLER PUSH1 0x0 SWAP1 DUP2 MSTORE PUSH1 0x3 PUSH1 0x20 MSTORE PUSH1 0x40 SWAP1 KECCAK256 SLOAD DUP6 SWAP1 DUP4 PUSH1 0x20 ADD MLOAD PUSH2 0xB1E SWAP2 SWAP1 PUSH2 0x2C5B JUMP JUMPDEST LT ISZERO JUMPDEST PUSH2 0xB6D JUMPI PUSH1 0x40 MLOAD PUSH3 0x461BCD PUSH1 0xE5 SHL DUP2 MSTORE PUSH1 0x20 PUSH1 0x4 DUP3 ADD MSTORE PUSH1 0x18 PUSH1 0x24 DUP3 ADD MSTORE PUSH32 0x6E6F7420656E6F75676820746F20756E64656C65676174650000000000000000 PUSH1 0x44 DUP3 ADD MSTORE PUSH1 0x64 ADD PUSH2 0x68C JUMP JUMPDEST PUSH2 0xB96 CALLER DUP7 DUP5 PUSH1 0x20 ADD MLOAD PUSH2 0xB81 SWAP2 SWAP1 PUSH2 0x2C5B JUMP JUMPDEST PUSH1 0x40 DUP6 ADD MLOAD PUSH1 0x60 DUP7 ADD MLOAD PUSH1 0x1 SWAP4 SWAP3 SWAP2 SWAP1 PUSH2 0x17EA JUMP JUMPDEST POP DUP1 ISZERO PUSH2 0xBA8 JUMPI PUSH2 0xBA8 CALLER DUP6 DUP8 PUSH2 0x192E JUMP JUMPDEST DUP5 PUSH1 0x13 PUSH1 0x0 DUP3 DUP3 SLOAD PUSH2 0xBBA SWAP2 SWAP1 PUSH2 0x2C5B JUMP JUMPDEST SWAP1 SWAP2 SSTORE POP PUSH2 0xBCA SWAP1 POP CALLER DUP7 PUSH2 0x19C3 JUMP JUMPDEST PUSH1 0x0 PUSH1 0x40 MLOAD DUP1 PUSH1 0xA0 ADD PUSH1 0x40 MSTORE DUP1 PUSH1 0x12 SLOAD DUP2 MSTORE PUSH1 0x20 ADD PUSH1 0xF SLOAD TIMESTAMP PUSH2 0xBED SWAP2 SWAP1 PUSH2 0x2C85 JUMP JUMPDEST DUP2 MSTORE PUSH1 0x20 DUP1 DUP3 ADD DUP10 SWAP1 MSTORE CALLER PUSH1 0x40 DUP1 DUP5 ADD DUP3 SWAP1 MSTORE PUSH1 0x1 PUSH1 0x1 PUSH1 0xA0 SHL SUB DUP11 DUP2 AND PUSH1 0x60 SWAP6 DUP7 ADD MSTORE DUP6 MLOAD PUSH1 0x0 SWAP1 DUP2 MSTORE PUSH1 0x11 DUP6 MSTORE DUP3 DUP2 KECCAK256 DUP8 MLOAD DUP1 DUP3 SSTORE DUP9 DUP8 ADD MLOAD PUSH1 0x1 DUP4 ADD SSTORE DUP9 DUP6 ADD MLOAD PUSH1 0x2 DUP4 ADD SSTORE SWAP7 DUP9 ADD MLOAD PUSH1 0x3 DUP3 ADD DUP1 SLOAD SWAP2 DUP6 AND PUSH1 0x1 PUSH1 0x1 PUSH1 0xA0 SHL SUB NOT SWAP3 DUP4 AND OR SWAP1 SSTORE PUSH1 0x80 DUP10 ADD MLOAD PUSH1 0x4 SWAP1 SWAP3 ADD DUP1 SLOAD SWAP3 SWAP1 SWAP5 AND SWAP2 AND OR SWAP1 SWAP2 SSTORE SWAP2 DUP3 MSTORE PUSH1 0x10 SWAP1 SWAP3 MSTORE KECCAK256 SWAP2 SWAP3 POP PUSH2 0xC7E SWAP2 SWAP1 PUSH2 0x1A55 JUMP JUMPDEST POP PUSH1 0x12 DUP1 SLOAD SWAP1 PUSH1 0x0 PUSH2 0xC8F DUP4 PUSH2 0x2CE6 JUMP JUMPDEST SWAP2 SWAP1 POP SSTORE POP DUP1 PUSH1 0x80 ADD MLOAD PUSH1 0x1 PUSH1 0x1 PUSH1 0xA0 SHL SUB AND DUP2 PUSH1 0x60 ADD MLOAD PUSH1 0x1 PUSH1 0x1 PUSH1 0xA0 SHL SUB AND DUP3 PUSH1 0x0 ADD MLOAD PUSH32 0x20849EB8A3D11461C2F45D1330D7CDFDCF0359148AAA26D84AF32B9596E32B94 DUP5 PUSH1 0x20 ADD MLOAD DUP6 PUSH1 0x40 ADD MLOAD PUSH1 0x40 MLOAD PUSH2 0xCF7 SWAP3 SWAP2 SWAP1 SWAP2 DUP3 MSTORE PUSH1 0x20 DUP3 ADD MSTORE PUSH1 0x40 ADD SWAP1 JUMP JUMPDEST PUSH1 0x40 MLOAD DUP1 SWAP2 SUB SWAP1 LOG4 MLOAD SWAP6 SWAP5 POP POP POP POP POP JUMP JUMPDEST PUSH1 0x1 PUSH1 0x1 PUSH1 0xA0 SHL SUB DUP2 AND PUSH2 0xD54 JUMPI PUSH1 0x40 MLOAD PUSH3 0x461BCD PUSH1 0xE5 SHL DUP2 MSTORE PUSH1 0x20 PUSH1 0x4 DUP3 ADD MSTORE PUSH1 0x12 PUSH1 0x24 DUP3 ADD MSTORE PUSH18 0x6E6F2064656C65676174696F6E20746F203 PUSH1 0x74 SHL PUSH1 0x44 DUP3 ADD MSTORE PUSH1 0x64 ADD PUSH2 0x68C JUMP JUMPDEST PUSH1 0x0 DUP3 GT PUSH2 0xDA4 JUMPI PUSH1 0x40 MLOAD PUSH3 0x461BCD PUSH1 0xE5 SHL DUP2 MSTORE PUSH1 0x20 PUSH1 0x4 DUP3 ADD MSTORE PUSH1 0x1A PUSH1 0x24 DUP3 ADD MSTORE PUSH32 0x63616E6E6F74206465706F736974207A65726F20616D6F756E74000000000000 PUSH1 0x44 DUP3 ADD MSTORE PUSH1 0x64 ADD PUSH2 0x68C JUMP JUMPDEST PUSH1 0x40 MLOAD PUSH4 0x23B872DD PUSH1 0xE0 SHL DUP2 MSTORE PUSH1 0x1 PUSH1 0x1 PUSH1 0xA0 SHL SUB PUSH32 0x0 AND SWAP1 PUSH4 0x23B872DD SWAP1 PUSH2 0xDF4 SWAP1 CALLER SWAP1 ADDRESS SWAP1 DUP8 SWAP1 PUSH1 0x4 ADD PUSH2 0x2CFF JUMP JUMPDEST PUSH1 0x20 PUSH1 0x40 MLOAD DUP1 DUP4 SUB DUP2 PUSH1 0x0 DUP8 GAS CALL ISZERO DUP1 ISZERO PUSH2 0xE13 JUMPI RETURNDATASIZE PUSH1 0x0 DUP1 RETURNDATACOPY RETURNDATASIZE PUSH1 0x0 REVERT JUMPDEST POP POP POP POP PUSH1 0x40 MLOAD RETURNDATASIZE PUSH1 0x1F NOT PUSH1 0x1F DUP3 ADD AND DUP3 ADD DUP1 PUSH1 0x40 MSTORE POP DUP2 ADD SWAP1 PUSH2 0xE37 SWAP2 SWAP1 PUSH2 0x2C98 JUMP JUMPDEST POP PUSH1 0x0 PUSH2 0xE45 PUSH1 0x1 CALLER PUSH2 0x152C JUMP JUMPDEST SWAP1 POP PUSH1 0x0 PUSH2 0xE78 DUP5 PUSH1 0xFF PUSH32 0x0 AND PUSH1 0x12 PUSH2 0x168D JUMP JUMPDEST SWAP1 POP PUSH2 0xE8E CALLER DUP3 DUP5 PUSH1 0x20 ADD MLOAD PUSH2 0xB81 SWAP2 SWAP1 PUSH2 0x2C85 JUMP JUMPDEST POP PUSH1 0x1 PUSH1 0x1 PUSH1 0xA0 SHL SUB DUP4 AND ISZERO DUP1 ISZERO SWAP1 PUSH2 0xEB0 JUMPI POP PUSH1 0x1 PUSH1 0x1 PUSH1 0xA0 SHL SUB DUP4 AND CALLER EQ ISZERO JUMPDEST ISZERO PUSH2 0xEC0 JUMPI PUSH2 0xEC0 CALLER DUP5 DUP4 PUSH2 0x1A61 JUMP JUMPDEST DUP1 PUSH1 0x13 PUSH1 0x0 DUP3 DUP3 SLOAD PUSH2 0xED2 SWAP2 SWAP1 PUSH2 0x2C85 JUMP JUMPDEST SWAP1 SWAP2 SSTORE POP PUSH2 0xEE2 SWAP1 POP CALLER DUP3 PUSH2 0x1B32 JUMP JUMPDEST PUSH1 0x40 MLOAD DUP5 DUP2 MSTORE PUSH1 0x1 PUSH1 0x1 PUSH1 0xA0 SHL SUB DUP5 AND SWAP1 CALLER SWAP1 PUSH32 0x5548C837AB068CF56A2C2479DF0882A4922FD203EDB7517321831D95078C5F62 SWAP1 PUSH1 0x20 ADD PUSH1 0x40 MLOAD DUP1 SWAP2 SUB SWAP1 LOG3 POP POP POP POP JUMP JUMPDEST PUSH2 0xF33 CALLER DUP4 DUP4 PUSH2 0x1A61 JUMP JUMPDEST POP POP JUMP JUMPDEST PUSH1 0x14 DUP2 SWAP1 SSTORE PUSH1 0x40 MLOAD DUP2 DUP2 MSTORE PUSH32 0x6E8A187D7944998085DBD1F16B84C51C903BB727536CDBA86962439ADED2CFD7 SWAP1 PUSH1 0x20 ADD PUSH1 0x40 MLOAD DUP1 SWAP2 SUB SWAP1 LOG1 POP JUMP JUMPDEST PUSH1 0x0 PUSH1 0xE SLOAD TIMESTAMP GT ISZERO PUSH2 0xF84 JUMPI POP PUSH1 0x0 SWAP1 JUMP JUMPDEST POP PUSH1 0xD SLOAD SWAP1 JUMP JUMPDEST PUSH1 0x0 PUSH2 0x562 DUP3 TIMESTAMP PUSH2 0x12F7 JUMP JUMPDEST PUSH2 0xF9F PUSH2 0x568 JUMP JUMPDEST PUSH1 0x7 SLOAD PUSH1 0x1 PUSH1 0x1 PUSH1 0xA0 SHL SUB DUP3 AND PUSH1 0x0 SWAP1 DUP2 MSTORE PUSH1 0xA PUSH1 0x20 MSTORE PUSH1 0x40 SWAP1 KECCAK256 SLOAD PUSH2 0xFE9 SWAP1 PUSH2 0xFC9 SWAP1 DUP4 PUSH2 0x2C5B JUMP JUMPDEST PUSH1 0x1 PUSH1 0x1 PUSH1 0xA0 SHL SUB DUP5 AND PUSH1 0x0 SWAP1 DUP2 MSTORE PUSH1 0xC PUSH1 0x20 MSTORE PUSH1 0x40 SWAP1 KECCAK256 SLOAD JUMPDEST SWAP1 PUSH2 0x1BBA JUMP JUMPDEST PUSH1 0x1 PUSH1 0x1 PUSH1 0xA0 SHL SUB DUP4 AND PUSH1 0x0 SWAP1 DUP2 MSTORE PUSH1 0xB PUSH1 0x20 MSTORE PUSH1 0x40 DUP2 KECCAK256 DUP1 SLOAD SWAP1 SWAP2 SWAP1 PUSH2 0x1011 SWAP1 DUP5 SWAP1 PUSH2 0x2C85 JUMP JUMPDEST SWAP1 SWAP2 SSTORE POP POP PUSH1 0x1 PUSH1 0x1 PUSH1 0xA0 SHL SUB SWAP1 SWAP2 AND PUSH1 0x0 SWAP1 DUP2 MSTORE PUSH1 0xA PUSH1 0x20 MSTORE PUSH1 0x40 SWAP1 KECCAK256 SSTORE JUMP JUMPDEST PUSH2 0x103C DUP2 CALLER PUSH2 0xD09 JUMP JUMPDEST POP JUMP JUMPDEST PUSH1 0x1 PUSH1 0x1 PUSH1 0xA0 SHL SUB DUP2 AND PUSH1 0x0 SWAP1 DUP2 MSTORE PUSH1 0x10 PUSH1 0x20 MSTORE PUSH1 0x40 DUP2 KECCAK256 PUSH1 0x60 SWAP2 PUSH2 0x1063 DUP3 PUSH2 0x1BE3 JUMP JUMPDEST PUSH8 0xFFFFFFFFFFFFFFFF DUP2 GT ISZERO PUSH2 0x107B JUMPI PUSH2 0x107B PUSH2 0x2CBA JUMP JUMPDEST PUSH1 0x40 MLOAD SWAP1 DUP1 DUP3 MSTORE DUP1 PUSH1 0x20 MUL PUSH1 0x20 ADD DUP3 ADD PUSH1 0x40 MSTORE DUP1 ISZERO PUSH2 0x10F0 JUMPI DUP2 PUSH1 0x20 ADD JUMPDEST PUSH2 0x10DD PUSH1 0x40 MLOAD DUP1 PUSH1 0xA0 ADD PUSH1 0x40 MSTORE DUP1 PUSH1 0x0 DUP2 MSTORE PUSH1 0x20 ADD PUSH1 0x0 DUP2 MSTORE PUSH1 0x20 ADD PUSH1 0x0 DUP2 MSTORE PUSH1 0x20 ADD PUSH1 0x0 PUSH1 0x1 PUSH1 0x1 PUSH1 0xA0 SHL SUB AND DUP2 MSTORE PUSH1 0x20 ADD PUSH1 0x0 PUSH1 0x1 PUSH1 0x1 PUSH1 0xA0 SHL SUB AND DUP2 MSTORE POP SWAP1 JUMP JUMPDEST DUP2 MSTORE PUSH1 0x20 ADD SWAP1 PUSH1 0x1 SWAP1 SUB SWAP1 DUP2 PUSH2 0x1099 JUMPI SWAP1 POP JUMPDEST POP SWAP1 POP PUSH1 0x0 JUMPDEST PUSH2 0x10FF DUP4 PUSH2 0x1BE3 JUMP JUMPDEST DUP2 LT ISZERO PUSH2 0x119E JUMPI PUSH1 0x11 PUSH1 0x0 PUSH2 0x1114 DUP6 DUP5 PUSH2 0x1BED JUMP JUMPDEST DUP2 MSTORE PUSH1 0x20 DUP1 DUP3 ADD SWAP3 SWAP1 SWAP3 MSTORE PUSH1 0x40 SWAP1 DUP2 ADD PUSH1 0x0 KECCAK256 DUP2 MLOAD PUSH1 0xA0 DUP2 ADD DUP4 MSTORE DUP2 SLOAD DUP2 MSTORE PUSH1 0x1 DUP3 ADD SLOAD SWAP4 DUP2 ADD SWAP4 SWAP1 SWAP4 MSTORE PUSH1 0x2 DUP2 ADD SLOAD SWAP2 DUP4 ADD SWAP2 SWAP1 SWAP2 MSTORE PUSH1 0x3 DUP2 ADD SLOAD PUSH1 0x1 PUSH1 0x1 PUSH1 0xA0 SHL SUB SWAP1 DUP2 AND PUSH1 0x60 DUP5 ADD MSTORE PUSH1 0x4 SWAP1 SWAP2 ADD SLOAD AND PUSH1 0x80 DUP3 ADD MSTORE DUP3 MLOAD DUP4 SWAP1 DUP4 SWAP1 DUP2 LT PUSH2 0x1180 JUMPI PUSH2 0x1180 PUSH2 0x2CD0 JUMP JUMPDEST PUSH1 0x20 MUL PUSH1 0x20 ADD ADD DUP2 SWAP1 MSTORE POP DUP1 DUP1 PUSH2 0x1196 SWAP1 PUSH2 0x2CE6 JUMP JUMPDEST SWAP2 POP POP PUSH2 0x10F6 JUMP JUMPDEST POP SWAP4 SWAP3 POP POP POP JUMP JUMPDEST PUSH2 0x11B1 CALLER DUP5 DUP4 PUSH2 0x192E JUMP JUMPDEST PUSH2 0xAAD CALLER DUP4 DUP4 PUSH2 0x1A61 JUMP JUMPDEST CALLER PUSH1 0x1 PUSH1 0x1 PUSH1 0xA0 SHL SUB PUSH32 0x0 AND EQ PUSH2 0x1236 JUMPI PUSH1 0x40 MLOAD PUSH4 0xC55DDC97 PUSH1 0xE0 SHL DUP2 MSTORE CALLER PUSH1 0x4 DUP3 ADD MSTORE PUSH1 0x1 PUSH1 0x1 PUSH1 0xA0 SHL SUB PUSH32 0x0 AND PUSH1 0x24 DUP3 ADD MSTORE PUSH1 0x44 ADD PUSH2 0x68C JUMP JUMPDEST PUSH2 0x123E PUSH2 0x1BF9 JUMP JUMPDEST JUMP JUMPDEST PUSH1 0x7 SLOAD PUSH1 0x6 SLOAD PUSH1 0x0 SWAP2 SWAP1 ISZERO PUSH2 0x1288 JUMPI PUSH2 0x127B PUSH1 0x6 SLOAD PUSH1 0x8 SLOAD TIMESTAMP PUSH2 0x1263 SWAP2 SWAP1 PUSH2 0x2C5B JUMP JUMPDEST PUSH2 0x126B PUSH2 0xF72 JUMP JUMPDEST PUSH2 0x1275 SWAP2 SWAP1 PUSH2 0x2C6E JUMP JUMPDEST SWAP1 PUSH2 0x163A JUMP JUMPDEST PUSH2 0x1285 SWAP1 DUP3 PUSH2 0x2C85 JUMP JUMPDEST SWAP1 POP JUMPDEST PUSH1 0x1 PUSH1 0x1 PUSH1 0xA0 SHL SUB DUP4 AND PUSH1 0x0 SWAP1 DUP2 MSTORE PUSH1 0xA PUSH1 0x20 MSTORE PUSH1 0x40 SWAP1 KECCAK256 SLOAD PUSH2 0x12CD SWAP1 PUSH2 0x12AF SWAP1 DUP4 PUSH2 0x2C5B JUMP JUMPDEST PUSH1 0x1 PUSH1 0x1 PUSH1 0xA0 SHL SUB DUP6 AND PUSH1 0x0 SWAP1 DUP2 MSTORE PUSH1 0xC PUSH1 0x20 MSTORE PUSH1 0x40 SWAP1 KECCAK256 SLOAD PUSH2 0xFE3 JUMP JUMPDEST PUSH1 0x1 PUSH1 0x1 PUSH1 0xA0 SHL SUB DUP5 AND PUSH1 0x0 SWAP1 DUP2 MSTORE PUSH1 0xB PUSH1 0x20 MSTORE PUSH1 0x40 SWAP1 KECCAK256 SLOAD PUSH2 0x12F0 SWAP2 SWAP1 PUSH2 0x2C85 JUMP JUMPDEST SWAP4 SWAP3 POP POP POP JUMP JUMPDEST PUSH1 0x0 PUSH2 0x12F0 PUSH1 0x1 DUP5 DUP5 PUSH2 0x1D21 JUMP JUMPDEST PUSH2 0xF33 CALLER DUP4 DUP4 PUSH2 0x192E JUMP JUMPDEST PUSH1 0x0 SLOAD PUSH2 0x100 SWAP1 DIV PUSH1 0xFF AND ISZERO DUP1 DUP1 ISZERO PUSH2 0x1330 JUMPI POP PUSH1 0x0 SLOAD PUSH1 0x1 PUSH1 0xFF SWAP1 SWAP2 AND LT JUMPDEST DUP1 PUSH2 0x134A JUMPI POP ADDRESS EXTCODESIZE ISZERO DUP1 ISZERO PUSH2 0x134A JUMPI POP PUSH1 0x0 SLOAD PUSH1 0xFF AND PUSH1 0x1 EQ JUMPDEST PUSH2 0x1366 JUMPI PUSH1 0x40 MLOAD PUSH3 0x461BCD PUSH1 0xE5 SHL DUP2 MSTORE PUSH1 0x4 ADD PUSH2 0x68C SWAP1 PUSH2 0x2D23 JUMP JUMPDEST PUSH1 0x0 DUP1 SLOAD PUSH1 0xFF NOT AND PUSH1 0x1 OR SWAP1 SSTORE DUP1 ISZERO PUSH2 0x1389 JUMPI PUSH1 0x0 DUP1 SLOAD PUSH2 0xFF00 NOT AND PUSH2 0x100 OR SWAP1 SSTORE JUMPDEST PUSH2 0x1392 DUP3 PUSH2 0x1DD2 JUMP JUMPDEST PUSH1 0x14 DUP4 SWAP1 SSTORE DUP1 ISZERO PUSH2 0xAAD JUMPI PUSH1 0x0 DUP1 SLOAD PUSH2 0xFF00 NOT AND SWAP1 SSTORE PUSH1 0x40 MLOAD PUSH1 0x1 DUP2 MSTORE PUSH32 0x7F26B83FF96E1F2B6A682F133852F6798A09C465DA95921460CEFB3847402498 SWAP1 PUSH1 0x20 ADD JUMPDEST PUSH1 0x40 MLOAD DUP1 SWAP2 SUB SWAP1 LOG1 POP POP POP JUMP JUMPDEST CALLER PUSH1 0x1 PUSH1 0x1 PUSH1 0xA0 SHL SUB PUSH32 0x0 AND EQ PUSH2 0x145C JUMPI PUSH1 0x40 MLOAD PUSH4 0xC55DDC97 PUSH1 0xE0 SHL DUP2 MSTORE CALLER PUSH1 0x4 DUP3 ADD MSTORE PUSH1 0x1 PUSH1 0x1 PUSH1 0xA0 SHL SUB PUSH32 0x0 AND PUSH1 0x24 DUP3 ADD MSTORE PUSH1 0x44 ADD PUSH2 0x68C JUMP JUMPDEST PUSH1 0xF SSTORE JUMP JUMPDEST PUSH1 0x0 SLOAD PUSH2 0x100 SWAP1 DIV PUSH1 0xFF AND ISZERO DUP1 DUP1 ISZERO PUSH2 0x1481 JUMPI POP PUSH1 0x0 SLOAD PUSH1 0x1 PUSH1 0xFF SWAP1 SWAP2 AND LT JUMPDEST DUP1 PUSH2 0x149B JUMPI POP ADDRESS EXTCODESIZE ISZERO DUP1 ISZERO PUSH2 0x149B JUMPI POP PUSH1 0x0 SLOAD PUSH1 0xFF AND PUSH1 0x1 EQ JUMPDEST PUSH2 0x14B7 JUMPI PUSH1 0x40 MLOAD PUSH3 0x461BCD PUSH1 0xE5 SHL DUP2 MSTORE PUSH1 0x4 ADD PUSH2 0x68C SWAP1 PUSH2 0x2D23 JUMP JUMPDEST PUSH1 0x0 DUP1 SLOAD PUSH1 0xFF NOT AND PUSH1 0x1 OR SWAP1 SSTORE DUP1 ISZERO PUSH2 0x14DA JUMPI PUSH1 0x0 DUP1 SLOAD PUSH2 0xFF00 NOT AND PUSH2 0x100 OR SWAP1 SSTORE JUMPDEST PUSH2 0x14E3 DUP3 PUSH2 0x1DD2 JUMP JUMPDEST DUP1 ISZERO PUSH2 0xF33 JUMPI PUSH1 0x0 DUP1 SLOAD PUSH2 0xFF00 NOT AND SWAP1 SSTORE PUSH1 0x40 MLOAD PUSH1 0x1 DUP2 MSTORE PUSH32 0x7F26B83FF96E1F2B6A682F133852F6798A09C465DA95921460CEFB3847402498 SWAP1 PUSH1 0x20 ADD PUSH1 0x40 MLOAD DUP1 SWAP2 SUB SWAP1 LOG1 POP POP JUMP JUMPDEST PUSH2 0x1557 PUSH1 0x40 MLOAD DUP1 PUSH1 0x80 ADD PUSH1 0x40 MSTORE DUP1 PUSH1 0x0 DUP2 MSTORE PUSH1 0x20 ADD PUSH1 0x0 DUP2 MSTORE PUSH1 0x20 ADD PUSH1 0x0 DUP2 MSTORE PUSH1 0x20 ADD PUSH1 0x0 DUP2 MSTORE POP SWAP1 JUMP JUMPDEST PUSH1 0x1 PUSH1 0x1 PUSH1 0xA0 SHL SUB DUP3 AND PUSH1 0x0 SWAP1 DUP2 MSTORE PUSH1 0x20 DUP5 DUP2 MSTORE PUSH1 0x40 DUP1 DUP4 KECCAK256 DUP1 SLOAD DUP3 MLOAD DUP2 DUP6 MUL DUP2 ADD DUP6 ADD SWAP1 SWAP4 MSTORE DUP1 DUP4 MSTORE SWAP2 SWAP3 SWAP1 SWAP2 SWAP1 DUP5 SWAP1 DUP5 ADD JUMPDEST DUP3 DUP3 LT ISZERO PUSH2 0x15E5 JUMPI DUP4 DUP3 SWAP1 PUSH1 0x0 MSTORE PUSH1 0x20 PUSH1 0x0 KECCAK256 SWAP1 PUSH1 0x4 MUL ADD PUSH1 0x40 MLOAD DUP1 PUSH1 0x80 ADD PUSH1 0x40 MSTORE SWAP1 DUP2 PUSH1 0x0 DUP3 ADD SLOAD DUP2 MSTORE PUSH1 0x20 ADD PUSH1 0x1 DUP3 ADD SLOAD DUP2 MSTORE PUSH1 0x20 ADD PUSH1 0x2 DUP3 ADD SLOAD DUP2 MSTORE PUSH1 0x20 ADD PUSH1 0x3 DUP3 ADD SLOAD DUP2 MSTORE POP POP DUP2 MSTORE PUSH1 0x20 ADD SWAP1 PUSH1 0x1 ADD SWAP1 PUSH2 0x158B JUMP JUMPDEST POP POP POP POP SWAP1 POP DUP1 MLOAD PUSH1 0x0 SUB PUSH2 0x1604 JUMPI PUSH2 0x15FC PUSH2 0x1DDF JUMP JUMPDEST SWAP2 POP POP PUSH2 0x562 JUMP JUMPDEST DUP1 PUSH1 0x1 DUP3 MLOAD PUSH2 0x1613 SWAP2 SWAP1 PUSH2 0x2C5B JUMP JUMPDEST DUP2 MLOAD DUP2 LT PUSH2 0x1623 JUMPI PUSH2 0x1623 PUSH2 0x2CD0 JUMP JUMPDEST PUSH1 0x20 MUL PUSH1 0x20 ADD ADD MLOAD SWAP2 POP POP PUSH2 0x562 JUMP JUMPDEST POP SWAP3 SWAP2 POP POP JUMP JUMPDEST PUSH1 0x0 DUP2 PUSH1 0x0 SUB PUSH2 0x165D JUMPI PUSH1 0x40 MLOAD PUSH4 0xA0C22C7 PUSH1 0xE0 SHL DUP2 MSTORE PUSH1 0x4 ADD PUSH1 0x40 MLOAD DUP1 SWAP2 SUB SWAP1 REVERT JUMPDEST DUP3 PUSH1 0x0 SUB PUSH2 0x166D JUMPI POP PUSH1 0x0 PUSH2 0x562 JUMP JUMPDEST PUSH1 0x0 PUSH2 0x1681 PUSH8 0xDE0B6B3A7640000 DUP6 PUSH2 0x2C6E JUMP JUMPDEST SWAP1 POP PUSH2 0x15FC DUP4 DUP3 PUSH2 0x2D71 JUMP JUMPDEST PUSH1 0x0 DUP2 DUP4 SUB PUSH2 0x169D JUMPI POP DUP3 PUSH2 0x12F0 JUMP JUMPDEST DUP2 DUP4 LT ISZERO PUSH2 0x16CB JUMPI PUSH2 0x16AF DUP4 DUP4 PUSH2 0x2C5B JUMP JUMPDEST PUSH2 0x16BA SWAP1 PUSH1 0xA PUSH2 0x2E6F JUMP JUMPDEST PUSH2 0x16C4 SWAP1 DUP6 PUSH2 0x2C6E JUMP JUMPDEST SWAP1 POP PUSH2 0x12F0 JUMP JUMPDEST PUSH2 0x16D5 DUP3 DUP5 PUSH2 0x2C5B JUMP JUMPDEST PUSH2 0x16E0 SWAP1 PUSH1 0xA PUSH2 0x2E6F JUMP JUMPDEST PUSH2 0x16C4 SWAP1 DUP6 PUSH2 0x2D71 JUMP JUMPDEST PUSH1 0x0 PUSH2 0x12F0 DUP4 DUP4 PUSH2 0x1E3B JUMP JUMPDEST PUSH1 0x0 PUSH2 0x562 DUP3 PUSH2 0x1F2E JUMP JUMPDEST PUSH1 0x0 DUP1 DUP1 DUP1 PUSH2 0x1710 DUP7 DUP7 PUSH2 0x1F39 JUMP JUMPDEST SWAP1 SWAP5 POP SWAP3 POP POP POP JUMPDEST SWAP3 POP SWAP3 SWAP1 POP JUMP JUMPDEST PUSH1 0x0 PUSH2 0x1755 PUSH1 0x1 PUSH1 0x1 PUSH1 0xA0 SHL SUB PUSH32 0x0 AND DUP5 DUP5 PUSH2 0x1F64 JUMP JUMPDEST POP SWAP2 SWAP1 POP JUMP JUMPDEST PUSH2 0x1763 PUSH2 0x568 JUMP JUMPDEST PUSH2 0x1798 PUSH1 0x1 PUSH1 0x1 PUSH1 0xA0 SHL SUB PUSH32 0x0 AND DUP5 ADDRESS DUP6 PUSH2 0x1FC7 JUMP JUMPDEST PUSH2 0x17A2 TIMESTAMP DUP3 PUSH2 0x2C5B JUMP JUMPDEST PUSH2 0x17AC SWAP1 DUP4 PUSH2 0x2D71 JUMP JUMPDEST PUSH1 0xD SSTORE PUSH1 0xE DUP2 SWAP1 SSTORE PUSH1 0x40 DUP1 MLOAD DUP4 DUP2 MSTORE PUSH1 0x20 DUP2 ADD DUP4 SWAP1 MSTORE PUSH32 0x76554FAC4477E8876B3DE3AF392CF374CF4E9DE02AE78FBADE2373107381FE50 SWAP2 ADD PUSH2 0x13D5 JUMP JUMPDEST PUSH2 0x1815 PUSH1 0x40 MLOAD DUP1 PUSH1 0x80 ADD PUSH1 0x40 MSTORE DUP1 PUSH1 0x0 DUP2 MSTORE PUSH1 0x20 ADD PUSH1 0x0 DUP2 MSTORE PUSH1 0x20 ADD PUSH1 0x0 DUP2 MSTORE PUSH1 0x20 ADD PUSH1 0x0 DUP2 MSTORE POP SWAP1 JUMP JUMPDEST PUSH1 0x1 PUSH1 0x1 PUSH1 0xA0 SHL SUB DUP6 AND PUSH1 0x0 SWAP1 DUP2 MSTORE PUSH1 0x20 DUP8 DUP2 MSTORE PUSH1 0x40 DUP1 DUP4 KECCAK256 DUP2 MLOAD PUSH1 0x80 DUP2 ADD DUP4 MSTORE TIMESTAMP DUP2 MSTORE SWAP3 DUP4 ADD DUP9 SWAP1 MSTORE SWAP1 DUP3 ADD DUP7 SWAP1 MSTORE PUSH1 0x60 DUP3 ADD DUP6 SWAP1 MSTORE SWAP2 PUSH2 0x1857 DUP10 DUP10 PUSH2 0x152C JUMP JUMPDEST DUP1 MLOAD SWAP1 SWAP2 POP TIMESTAMP EQ DUP1 ISZERO PUSH2 0x186A JUMPI POP DUP3 SLOAD ISZERO ISZERO JUMPDEST ISZERO PUSH2 0x18CF JUMPI DUP3 SLOAD DUP3 SWAP1 DUP5 SWAP1 PUSH2 0x1881 SWAP1 PUSH1 0x1 SWAP1 PUSH2 0x2C5B JUMP JUMPDEST DUP2 SLOAD DUP2 LT PUSH2 0x1891 JUMPI PUSH2 0x1891 PUSH2 0x2CD0 JUMP JUMPDEST SWAP1 PUSH1 0x0 MSTORE PUSH1 0x20 PUSH1 0x0 KECCAK256 SWAP1 PUSH1 0x4 MUL ADD PUSH1 0x0 DUP3 ADD MLOAD DUP2 PUSH1 0x0 ADD SSTORE PUSH1 0x20 DUP3 ADD MLOAD DUP2 PUSH1 0x1 ADD SSTORE PUSH1 0x40 DUP3 ADD MLOAD DUP2 PUSH1 0x2 ADD SSTORE PUSH1 0x60 DUP3 ADD MLOAD DUP2 PUSH1 0x3 ADD SSTORE SWAP1 POP POP PUSH2 0x1922 JUMP JUMPDEST PUSH1 0x1 PUSH1 0x1 PUSH1 0xA0 SHL SUB DUP9 AND PUSH1 0x0 SWAP1 DUP2 MSTORE PUSH1 0x20 DUP11 DUP2 MSTORE PUSH1 0x40 DUP1 DUP4 KECCAK256 DUP1 SLOAD PUSH1 0x1 DUP2 DUP2 ADD DUP4 SSTORE SWAP2 DUP6 MSTORE SWAP4 DUP4 SWAP1 KECCAK256 DUP7 MLOAD PUSH1 0x4 SWAP1 SWAP6 MUL ADD SWAP4 DUP5 SSTORE SWAP2 DUP6 ADD MLOAD SWAP2 DUP4 ADD SWAP2 SWAP1 SWAP2 SSTORE DUP4 ADD MLOAD PUSH1 0x2 DUP3 ADD SSTORE PUSH1 0x60 DUP4 ADD MLOAD PUSH1 0x3 SWAP1 SWAP2 ADD SSTORE JUMPDEST POP SWAP8 SWAP7 POP POP POP POP POP POP POP JUMP JUMPDEST PUSH2 0x193B PUSH1 0x1 DUP5 DUP5 DUP5 PUSH2 0x1FE8 JUMP JUMPDEST PUSH1 0x1 PUSH1 0x1 PUSH1 0xA0 SHL SUB DUP4 AND PUSH1 0x0 SWAP1 DUP2 MSTORE PUSH1 0x5 PUSH1 0x20 MSTORE PUSH1 0x40 DUP2 KECCAK256 PUSH2 0x195D SWAP1 DUP5 PUSH2 0x21C5 JUMP JUMPDEST SWAP1 POP DUP2 DUP2 SUB PUSH2 0x198E JUMPI PUSH1 0x1 PUSH1 0x1 PUSH1 0xA0 SHL SUB DUP5 AND PUSH1 0x0 SWAP1 DUP2 MSTORE PUSH1 0x5 PUSH1 0x20 MSTORE PUSH1 0x40 SWAP1 KECCAK256 PUSH2 0x1988 SWAP1 DUP5 PUSH2 0x21DA JUMP JUMPDEST POP PUSH2 0x19BD JUMP JUMPDEST PUSH2 0x19BB DUP4 PUSH2 0x199C DUP5 DUP5 PUSH2 0x2C5B JUMP JUMPDEST PUSH1 0x1 PUSH1 0x1 PUSH1 0xA0 SHL SUB DUP8 AND PUSH1 0x0 SWAP1 DUP2 MSTORE PUSH1 0x5 PUSH1 0x20 MSTORE PUSH1 0x40 SWAP1 KECCAK256 SWAP2 SWAP1 PUSH2 0x21EF JUMP JUMPDEST POP JUMPDEST POP POP POP POP JUMP JUMPDEST PUSH2 0x19CC DUP3 PUSH2 0xF97 JUMP JUMPDEST PUSH1 0x1 PUSH1 0x1 PUSH1 0xA0 SHL SUB DUP3 AND PUSH1 0x0 SWAP1 DUP2 MSTORE PUSH1 0xC PUSH1 0x20 MSTORE PUSH1 0x40 DUP2 KECCAK256 DUP1 SLOAD DUP4 SWAP3 SWAP1 PUSH2 0x19F4 SWAP1 DUP5 SWAP1 PUSH2 0x2C5B JUMP JUMPDEST SWAP3 POP POP DUP2 SWAP1 SSTORE POP DUP1 PUSH1 0x6 PUSH1 0x0 DUP3 DUP3 SLOAD PUSH2 0x1A0D SWAP2 SWAP1 PUSH2 0x2C5B JUMP JUMPDEST SWAP1 SWAP2 SSTORE POP POP PUSH1 0x40 MLOAD DUP2 DUP2 MSTORE PUSH1 0x1 PUSH1 0x1 PUSH1 0xA0 SHL SUB DUP4 AND SWAP1 PUSH32 0x85082129D87B2FE11527CB1B3B7A520AEB5AA6913F88A3D8757FE40D1DB02FDD SWAP1 PUSH1 0x20 ADD JUMPDEST PUSH1 0x40 MLOAD DUP1 SWAP2 SUB SWAP1 LOG2 POP POP JUMP JUMPDEST PUSH1 0x0 PUSH2 0x12F0 DUP4 DUP4 PUSH2 0x2205 JUMP JUMPDEST PUSH1 0x1 PUSH1 0x1 PUSH1 0xA0 SHL SUB DUP3 AND PUSH2 0x1AB7 JUMPI PUSH1 0x40 MLOAD PUSH3 0x461BCD PUSH1 0xE5 SHL DUP2 MSTORE PUSH1 0x20 PUSH1 0x4 DUP3 ADD MSTORE PUSH1 0x1C PUSH1 0x24 DUP3 ADD MSTORE PUSH32 0x63616E6E6F742064656C656761746520746F2030206164647265737300000000 PUSH1 0x44 DUP3 ADD MSTORE PUSH1 0x64 ADD PUSH2 0x68C JUMP JUMPDEST PUSH2 0x1AC4 PUSH1 0x1 DUP5 DUP5 DUP5 PUSH2 0x2254 JUMP JUMPDEST PUSH1 0x1 PUSH1 0x1 PUSH1 0xA0 SHL SUB DUP4 AND PUSH1 0x0 SWAP1 DUP2 MSTORE PUSH1 0x5 PUSH1 0x20 MSTORE PUSH1 0x40 DUP2 KECCAK256 DUP2 SWAP1 PUSH2 0x1AE8 SWAP1 DUP6 PUSH2 0x2425 JUMP JUMPDEST SWAP2 POP SWAP2 POP PUSH1 0x0 DUP3 PUSH2 0x1AF9 JUMPI DUP4 PUSH2 0x1B03 JUMP JUMPDEST PUSH2 0x1B03 DUP5 DUP4 PUSH2 0x2C85 JUMP JUMPDEST PUSH1 0x1 PUSH1 0x1 PUSH1 0xA0 SHL SUB DUP8 AND PUSH1 0x0 SWAP1 DUP2 MSTORE PUSH1 0x5 PUSH1 0x20 MSTORE PUSH1 0x40 SWAP1 KECCAK256 SWAP1 SWAP2 POP PUSH2 0x1B29 SWAP1 DUP7 DUP4 PUSH2 0x21EF JUMP JUMPDEST POP POP POP POP POP POP POP JUMP JUMPDEST PUSH2 0x1B3B DUP3 PUSH2 0xF97 JUMP JUMPDEST DUP1 PUSH1 0x6 PUSH1 0x0 DUP3 DUP3 SLOAD PUSH2 0x1B4D SWAP2 SWAP1 PUSH2 0x2C85 JUMP JUMPDEST SWAP1 SWAP2 SSTORE POP POP PUSH1 0x1 PUSH1 0x1 PUSH1 0xA0 SHL SUB DUP3 AND PUSH1 0x0 SWAP1 DUP2 MSTORE PUSH1 0xC PUSH1 0x20 MSTORE PUSH1 0x40 DUP2 KECCAK256 DUP1 SLOAD DUP4 SWAP3 SWAP1 PUSH2 0x1B7A SWAP1 DUP5 SWAP1 PUSH2 0x2C85 JUMP JUMPDEST SWAP1 SWAP2 SSTORE POP POP PUSH1 0x40 MLOAD DUP2 DUP2 MSTORE PUSH1 0x1 PUSH1 0x1 PUSH1 0xA0 SHL SUB DUP4 AND SWAP1 PUSH32 0xEBEDB8B3C678666E7F36970BC8F57ABF6D8FA2E828C0DA91EA5B75BF68ED101A SWAP1 PUSH1 0x20 ADD PUSH2 0x1A49 JUMP JUMPDEST PUSH1 0x0 DUP1 PUSH2 0x1BC7 DUP4 DUP6 PUSH2 0x2C6E JUMP JUMPDEST SWAP1 POP PUSH2 0x1BDB PUSH8 0xDE0B6B3A7640000 DUP3 PUSH2 0x2D71 JUMP JUMPDEST SWAP5 SWAP4 POP POP POP POP JUMP JUMPDEST PUSH1 0x0 PUSH2 0x562 DUP3 SLOAD SWAP1 JUMP JUMPDEST PUSH1 0x0 PUSH2 0x12F0 DUP4 DUP4 PUSH2 0x243D JUMP JUMPDEST PUSH2 0x1C01 PUSH2 0x568 JUMP JUMPDEST PUSH1 0x9 SLOAD PUSH1 0x40 MLOAD PUSH4 0x70A08231 PUSH1 0xE0 SHL DUP2 MSTORE ADDRESS PUSH1 0x4 DUP3 ADD MSTORE PUSH1 0x0 SWAP2 SWAP1 PUSH1 0x1 PUSH1 0x1 PUSH1 0xA0 SHL SUB PUSH32 0x0 AND SWAP1 PUSH4 0x70A08231 SWAP1 PUSH1 0x24 ADD PUSH1 0x20 PUSH1 0x40 MLOAD DUP1 DUP4 SUB DUP2 DUP7 GAS STATICCALL ISZERO DUP1 ISZERO PUSH2 0x1C6C JUMPI RETURNDATASIZE PUSH1 0x0 DUP1 RETURNDATACOPY RETURNDATASIZE PUSH1 0x0 REVERT JUMPDEST POP POP POP POP PUSH1 0x40 MLOAD RETURNDATASIZE PUSH1 0x1F NOT PUSH1 0x1F DUP3 ADD AND DUP3 ADD DUP1 PUSH1 0x40 MSTORE POP DUP2 ADD SWAP1 PUSH2 0x1C90 SWAP2 SWAP1 PUSH2 0x2E7B JUMP JUMPDEST PUSH2 0x1C9A SWAP2 SWAP1 PUSH2 0x2C5B JUMP JUMPDEST SWAP1 POP PUSH2 0x1CF0 PUSH1 0x1 PUSH1 0x1 PUSH1 0xA0 SHL SUB PUSH32 0x0 AND PUSH32 0x0 DUP4 PUSH2 0x1F64 JUMP JUMPDEST PUSH1 0x0 PUSH1 0xE DUP2 SWAP1 SSTORE PUSH1 0x40 MLOAD PUSH32 0xE5A0E15E63EDB96A15ED99A9C2A3674E2E0BD1B10B65D0223CCE19A6B54E7FB1 SWAP2 SWAP1 LOG1 POP JUMP JUMPDEST PUSH1 0x1 PUSH1 0x1 PUSH1 0xA0 SHL SUB DUP3 AND PUSH1 0x0 SWAP1 DUP2 MSTORE PUSH1 0x20 DUP5 DUP2 MSTORE PUSH1 0x40 DUP1 DUP4 KECCAK256 DUP1 SLOAD DUP3 MLOAD DUP2 DUP6 MUL DUP2 ADD DUP6 ADD SWAP1 SWAP4 MSTORE DUP1 DUP4 MSTORE DUP5 SWAP4 PUSH2 0x1DBD SWAP4 SWAP3 SWAP2 SWAP1 DUP6 SWAP1 DUP5 ADD JUMPDEST DUP3 DUP3 LT ISZERO PUSH2 0x1DB3 JUMPI DUP4 DUP3 SWAP1 PUSH1 0x0 MSTORE PUSH1 0x20 PUSH1 0x0 KECCAK256 SWAP1 PUSH1 0x4 MUL ADD PUSH1 0x40 MLOAD DUP1 PUSH1 0x80 ADD PUSH1 0x40 MSTORE SWAP1 DUP2 PUSH1 0x0 DUP3 ADD SLOAD DUP2 MSTORE PUSH1 0x20 ADD PUSH1 0x1 DUP3 ADD SLOAD DUP2 MSTORE PUSH1 0x20 ADD PUSH1 0x2 DUP3 ADD SLOAD DUP2 MSTORE PUSH1 0x20 ADD PUSH1 0x3 DUP3 ADD SLOAD DUP2 MSTORE POP POP DUP2 MSTORE PUSH1 0x20 ADD SWAP1 PUSH1 0x1 ADD SWAP1 PUSH2 0x1D59 JUMP JUMPDEST POP POP POP POP DUP5 PUSH2 0x2467 JUMP JUMPDEST SWAP2 POP POP PUSH2 0x1DC9 DUP2 PUSH2 0x24AD JUMP JUMPDEST SWAP6 SWAP5 POP POP POP POP POP JUMP JUMPDEST PUSH1 0xF DUP2 SWAP1 SSTORE PUSH2 0x103C PUSH2 0x568 JUMP JUMPDEST PUSH2 0x1E0A PUSH1 0x40 MLOAD DUP1 PUSH1 0x80 ADD PUSH1 0x40 MSTORE DUP1 PUSH1 0x0 DUP2 MSTORE PUSH1 0x20 ADD PUSH1 0x0 DUP2 MSTORE PUSH1 0x20 ADD PUSH1 0x0 DUP2 MSTORE PUSH1 0x20 ADD PUSH1 0x0 DUP2 MSTORE POP SWAP1 JUMP JUMPDEST PUSH1 0x40 MLOAD DUP1 PUSH1 0x80 ADD PUSH1 0x40 MSTORE DUP1 PUSH1 0x0 DUP2 MSTORE PUSH1 0x20 ADD PUSH1 0x0 DUP2 MSTORE PUSH1 0x20 ADD PUSH8 0xDE0B6B3A7640000 DUP2 MSTORE PUSH1 0x20 ADD PUSH1 0x0 DUP2 MSTORE POP SWAP1 POP SWAP1 JUMP JUMPDEST PUSH1 0x0 DUP2 DUP2 MSTORE PUSH1 0x1 DUP4 ADD PUSH1 0x20 MSTORE PUSH1 0x40 DUP2 KECCAK256 SLOAD DUP1 ISZERO PUSH2 0x1F24 JUMPI PUSH1 0x0 PUSH2 0x1E5F PUSH1 0x1 DUP4 PUSH2 0x2C5B JUMP JUMPDEST DUP6 SLOAD SWAP1 SWAP2 POP PUSH1 0x0 SWAP1 PUSH2 0x1E73 SWAP1 PUSH1 0x1 SWAP1 PUSH2 0x2C5B JUMP JUMPDEST SWAP1 POP DUP2 DUP2 EQ PUSH2 0x1ED8 JUMPI PUSH1 0x0 DUP7 PUSH1 0x0 ADD DUP3 DUP2 SLOAD DUP2 LT PUSH2 0x1E93 JUMPI PUSH2 0x1E93 PUSH2 0x2CD0 JUMP JUMPDEST SWAP1 PUSH1 0x0 MSTORE PUSH1 0x20 PUSH1 0x0 KECCAK256 ADD SLOAD SWAP1 POP DUP1 DUP8 PUSH1 0x0 ADD DUP5 DUP2 SLOAD DUP2 LT PUSH2 0x1EB6 JUMPI PUSH2 0x1EB6 PUSH2 0x2CD0 JUMP JUMPDEST PUSH1 0x0 SWAP2 DUP3 MSTORE PUSH1 0x20 DUP1 DUP4 KECCAK256 SWAP1 SWAP2 ADD SWAP3 SWAP1 SWAP3 SSTORE SWAP2 DUP3 MSTORE PUSH1 0x1 DUP9 ADD SWAP1 MSTORE PUSH1 0x40 SWAP1 KECCAK256 DUP4 SWAP1 SSTORE JUMPDEST DUP6 SLOAD DUP7 SWAP1 DUP1 PUSH2 0x1EE9 JUMPI PUSH2 0x1EE9 PUSH2 0x2E94 JUMP JUMPDEST PUSH1 0x1 SWAP1 SUB DUP2 DUP2 SWAP1 PUSH1 0x0 MSTORE PUSH1 0x20 PUSH1 0x0 KECCAK256 ADD PUSH1 0x0 SWAP1 SSTORE SWAP1 SSTORE DUP6 PUSH1 0x1 ADD PUSH1 0x0 DUP7 DUP2 MSTORE PUSH1 0x20 ADD SWAP1 DUP2 MSTORE PUSH1 0x20 ADD PUSH1 0x0 KECCAK256 PUSH1 0x0 SWAP1 SSTORE PUSH1 0x1 SWAP4 POP POP POP POP PUSH2 0x562 JUMP JUMPDEST PUSH1 0x0 SWAP2 POP POP PUSH2 0x562 JUMP JUMPDEST PUSH1 0x0 PUSH2 0x562 DUP3 PUSH2 0x1BE3 JUMP JUMPDEST PUSH1 0x0 DUP1 DUP1 PUSH2 0x1F47 DUP6 DUP6 PUSH2 0x1BED JUMP JUMPDEST PUSH1 0x0 DUP2 DUP2 MSTORE PUSH1 0x2 SWAP7 SWAP1 SWAP7 ADD PUSH1 0x20 MSTORE PUSH1 0x40 SWAP1 SWAP6 KECCAK256 SLOAD SWAP5 SWAP6 SWAP4 POP POP POP POP JUMP JUMPDEST PUSH1 0x40 MLOAD PUSH1 0x1 PUSH1 0x1 PUSH1 0xA0 SHL SUB DUP4 AND PUSH1 0x24 DUP3 ADD MSTORE PUSH1 0x44 DUP2 ADD DUP3 SWAP1 MSTORE PUSH2 0xAAD SWAP1 DUP5 SWAP1 PUSH4 0xA9059CBB PUSH1 0xE0 SHL SWAP1 PUSH1 0x64 ADD JUMPDEST PUSH1 0x40 DUP1 MLOAD PUSH1 0x1F NOT DUP2 DUP5 SUB ADD DUP2 MSTORE SWAP2 SWAP1 MSTORE PUSH1 0x20 DUP2 ADD DUP1 MLOAD PUSH1 0x1 PUSH1 0x1 PUSH1 0xE0 SHL SUB AND PUSH1 0x1 PUSH1 0x1 PUSH1 0xE0 SHL SUB NOT SWAP1 SWAP4 AND SWAP3 SWAP1 SWAP3 OR SWAP1 SWAP2 MSTORE PUSH2 0x24D9 JUMP JUMPDEST PUSH2 0x19BD DUP5 PUSH4 0x23B872DD PUSH1 0xE0 SHL DUP6 DUP6 DUP6 PUSH1 0x40 MLOAD PUSH1 0x24 ADD PUSH2 0x1F90 SWAP4 SWAP3 SWAP2 SWAP1 PUSH2 0x2CFF JUMP JUMPDEST PUSH1 0x1 PUSH1 0x1 PUSH1 0xA0 SHL SUB DUP1 DUP5 AND PUSH1 0x0 SWAP1 DUP2 MSTORE PUSH1 0x1 DUP7 ADD PUSH1 0x20 SWAP1 DUP2 MSTORE PUSH1 0x40 DUP1 DUP4 KECCAK256 SWAP4 DUP7 AND DUP4 MSTORE SWAP3 SWAP1 MSTORE KECCAK256 SLOAD DUP2 GT ISZERO PUSH2 0x2071 JUMPI PUSH1 0x40 MLOAD PUSH3 0x461BCD PUSH1 0xE5 SHL DUP2 MSTORE PUSH1 0x20 PUSH1 0x4 DUP3 ADD MSTORE PUSH1 0x29 PUSH1 0x24 DUP3 ADD MSTORE PUSH32 0x7573657220686173206E6F742064656C65676174656420656E6F75676820746F PUSH1 0x44 DUP3 ADD MSTORE PUSH9 0x2064656C6567617465 PUSH1 0xB8 SHL PUSH1 0x64 DUP3 ADD MSTORE PUSH1 0x84 ADD PUSH2 0x68C JUMP JUMPDEST PUSH1 0x1 PUSH1 0x1 PUSH1 0xA0 SHL SUB DUP3 AND PUSH1 0x0 SWAP1 DUP2 MSTORE PUSH1 0x3 DUP6 ADD PUSH1 0x20 MSTORE PUSH1 0x40 DUP2 KECCAK256 DUP1 SLOAD DUP4 SWAP3 SWAP1 PUSH2 0x209B SWAP1 DUP5 SWAP1 PUSH2 0x2C5B JUMP JUMPDEST SWAP1 SWAP2 SSTORE POP POP PUSH1 0x1 PUSH1 0x1 PUSH1 0xA0 SHL SUB DUP4 AND PUSH1 0x0 SWAP1 DUP2 MSTORE PUSH1 0x2 DUP6 ADD PUSH1 0x20 MSTORE PUSH1 0x40 DUP2 KECCAK256 DUP1 SLOAD DUP4 SWAP3 SWAP1 PUSH2 0x20CA SWAP1 DUP5 SWAP1 PUSH2 0x2C5B JUMP JUMPDEST SWAP1 SWAP2 SSTORE POP POP PUSH1 0x1 PUSH1 0x1 PUSH1 0xA0 SHL SUB DUP1 DUP5 AND PUSH1 0x0 SWAP1 DUP2 MSTORE PUSH1 0x1 DUP7 ADD PUSH1 0x20 SWAP1 DUP2 MSTORE PUSH1 0x40 DUP1 DUP4 KECCAK256 SWAP4 DUP7 AND DUP4 MSTORE SWAP3 SWAP1 MSTORE SWAP1 DUP2 KECCAK256 DUP1 SLOAD DUP4 SWAP3 SWAP1 PUSH2 0x2108 SWAP1 DUP5 SWAP1 PUSH2 0x2C5B JUMP JUMPDEST SWAP1 SWAP2 SSTORE POP PUSH1 0x0 SWAP1 POP PUSH2 0x211A DUP6 DUP6 PUSH2 0x152C JUMP JUMPDEST SWAP1 POP PUSH2 0x2147 DUP5 DUP3 PUSH1 0x20 ADD MLOAD DUP4 PUSH1 0x40 ADD MLOAD PUSH2 0x213D DUP9 DUP11 PUSH2 0x25AB SWAP1 SWAP2 SWAP1 PUSH4 0xFFFFFFFF AND JUMP JUMPDEST DUP10 SWAP4 SWAP3 SWAP2 SWAP1 PUSH2 0x17EA JUMP JUMPDEST POP PUSH1 0x0 PUSH2 0x2154 DUP7 DUP6 PUSH2 0x152C JUMP JUMPDEST SWAP1 POP PUSH2 0x2181 DUP5 DUP3 PUSH1 0x20 ADD MLOAD DUP4 PUSH1 0x40 ADD MLOAD PUSH2 0x2177 DUP9 DUP12 PUSH2 0x25AB SWAP1 SWAP2 SWAP1 PUSH4 0xFFFFFFFF AND JUMP JUMPDEST DUP11 SWAP4 SWAP3 SWAP2 SWAP1 PUSH2 0x17EA JUMP JUMPDEST POP PUSH32 0xDE5AA493A93D4351631C1991A0AEECFD52D6B51CF1B61F1A3C48F97E26808653 DUP6 DUP6 DUP6 PUSH1 0x40 MLOAD PUSH2 0x21B5 SWAP4 SWAP3 SWAP2 SWAP1 PUSH2 0x2CFF JUMP JUMPDEST PUSH1 0x40 MLOAD DUP1 SWAP2 SUB SWAP1 LOG1 POP POP POP POP POP POP JUMP JUMPDEST PUSH1 0x0 PUSH2 0x12F0 DUP4 PUSH1 0x1 PUSH1 0x1 PUSH1 0xA0 SHL SUB DUP5 AND PUSH2 0x25DD JUMP JUMPDEST PUSH1 0x0 PUSH2 0x12F0 DUP4 PUSH1 0x1 PUSH1 0x1 PUSH1 0xA0 SHL SUB DUP5 AND PUSH2 0x264D JUMP JUMPDEST PUSH1 0x0 PUSH2 0x1BDB DUP5 PUSH1 0x1 PUSH1 0x1 PUSH1 0xA0 SHL SUB DUP6 AND DUP5 PUSH2 0x266A JUMP JUMPDEST PUSH1 0x0 DUP2 DUP2 MSTORE PUSH1 0x1 DUP4 ADD PUSH1 0x20 MSTORE PUSH1 0x40 DUP2 KECCAK256 SLOAD PUSH2 0x224C JUMPI POP DUP2 SLOAD PUSH1 0x1 DUP2 DUP2 ADD DUP5 SSTORE PUSH1 0x0 DUP5 DUP2 MSTORE PUSH1 0x20 DUP1 DUP3 KECCAK256 SWAP1 SWAP4 ADD DUP5 SWAP1 SSTORE DUP5 SLOAD DUP5 DUP3 MSTORE DUP3 DUP7 ADD SWAP1 SWAP4 MSTORE PUSH1 0x40 SWAP1 KECCAK256 SWAP2 SWAP1 SWAP2 SSTORE PUSH2 0x562 JUMP JUMPDEST POP PUSH1 0x0 PUSH2 0x562 JUMP JUMPDEST PUSH1 0x0 PUSH2 0x2260 DUP6 DUP6 PUSH2 0x152C JUMP JUMPDEST PUSH1 0x1 PUSH1 0x1 PUSH1 0xA0 SHL SUB DUP6 AND PUSH1 0x0 SWAP1 DUP2 MSTORE PUSH1 0x2 DUP8 ADD PUSH1 0x20 SWAP1 DUP2 MSTORE PUSH1 0x40 DUP1 DUP4 KECCAK256 SLOAD SWAP1 DUP5 ADD MLOAD SWAP2 DUP5 ADD MLOAD SWAP4 SWAP5 POP SWAP2 SWAP3 PUSH2 0x2294 SWAP2 PUSH2 0x2687 JUMP JUMPDEST PUSH2 0x229E SWAP2 SWAP1 PUSH2 0x2C5B JUMP JUMPDEST SWAP1 POP DUP3 DUP2 LT ISZERO PUSH2 0x22F0 JUMPI PUSH1 0x40 MLOAD PUSH3 0x461BCD PUSH1 0xE5 SHL DUP2 MSTORE PUSH1 0x20 PUSH1 0x4 DUP3 ADD DUP2 SWAP1 MSTORE PUSH1 0x24 DUP3 ADD MSTORE PUSH32 0x696E73756666696369656E742062616C616E636520746F2064656C6567617465 PUSH1 0x44 DUP3 ADD MSTORE PUSH1 0x64 ADD PUSH2 0x68C JUMP JUMPDEST PUSH1 0x1 PUSH1 0x1 PUSH1 0xA0 SHL SUB DUP5 AND PUSH1 0x0 SWAP1 DUP2 MSTORE PUSH1 0x3 DUP8 ADD PUSH1 0x20 MSTORE PUSH1 0x40 DUP2 KECCAK256 DUP1 SLOAD DUP6 SWAP3 SWAP1 PUSH2 0x231A SWAP1 DUP5 SWAP1 PUSH2 0x2C85 JUMP JUMPDEST SWAP1 SWAP2 SSTORE POP POP PUSH1 0x1 PUSH1 0x1 PUSH1 0xA0 SHL SUB DUP6 AND PUSH1 0x0 SWAP1 DUP2 MSTORE PUSH1 0x2 DUP8 ADD PUSH1 0x20 MSTORE PUSH1 0x40 DUP2 KECCAK256 DUP1 SLOAD DUP6 SWAP3 SWAP1 PUSH2 0x2349 SWAP1 DUP5 SWAP1 PUSH2 0x2C85 JUMP JUMPDEST SWAP1 SWAP2 SSTORE POP POP PUSH1 0x1 PUSH1 0x1 PUSH1 0xA0 SHL SUB DUP1 DUP7 AND PUSH1 0x0 SWAP1 DUP2 MSTORE PUSH1 0x1 DUP9 ADD PUSH1 0x20 SWAP1 DUP2 MSTORE PUSH1 0x40 DUP1 DUP4 KECCAK256 SWAP4 DUP9 AND DUP4 MSTORE SWAP3 SWAP1 MSTORE SWAP1 DUP2 KECCAK256 DUP1 SLOAD DUP6 SWAP3 SWAP1 PUSH2 0x2387 SWAP1 DUP5 SWAP1 PUSH2 0x2C85 JUMP JUMPDEST SWAP1 SWAP2 SSTORE POP POP PUSH1 0x20 DUP3 ADD MLOAD PUSH1 0x40 DUP4 ADD MLOAD PUSH2 0x23A6 SWAP2 DUP8 SWAP2 PUSH2 0x2177 DUP11 DUP5 PUSH2 0x25AB JUMP JUMPDEST POP PUSH1 0x0 PUSH2 0x23B3 DUP8 DUP7 PUSH2 0x152C JUMP JUMPDEST SWAP1 POP PUSH2 0x23E0 DUP6 DUP3 PUSH1 0x20 ADD MLOAD DUP4 PUSH1 0x40 ADD MLOAD PUSH2 0x23D6 DUP10 DUP13 PUSH2 0x25AB SWAP1 SWAP2 SWAP1 PUSH4 0xFFFFFFFF AND JUMP JUMPDEST DUP12 SWAP4 SWAP3 SWAP2 SWAP1 PUSH2 0x17EA JUMP JUMPDEST POP PUSH32 0xFF825F9424124EFFC5CE1D9F4803D58EDE8A2BDA4DA2324810F74834715C4C59 DUP7 DUP7 DUP7 PUSH1 0x40 MLOAD PUSH2 0x2414 SWAP4 SWAP3 SWAP2 SWAP1 PUSH2 0x2CFF JUMP JUMPDEST PUSH1 0x40 MLOAD DUP1 SWAP2 SUB SWAP1 LOG1 POP POP POP POP POP POP POP JUMP JUMPDEST PUSH1 0x0 DUP1 DUP1 DUP1 PUSH2 0x1710 DUP7 PUSH1 0x1 PUSH1 0x1 PUSH1 0xA0 SHL SUB DUP8 AND PUSH2 0x26A6 JUMP JUMPDEST PUSH1 0x0 DUP3 PUSH1 0x0 ADD DUP3 DUP2 SLOAD DUP2 LT PUSH2 0x2454 JUMPI PUSH2 0x2454 PUSH2 0x2CD0 JUMP JUMPDEST SWAP1 PUSH1 0x0 MSTORE PUSH1 0x20 PUSH1 0x0 KECCAK256 ADD SLOAD SWAP1 POP SWAP3 SWAP2 POP POP JUMP JUMPDEST PUSH1 0x0 PUSH2 0x2494 PUSH1 0x40 MLOAD DUP1 PUSH1 0x80 ADD PUSH1 0x40 MSTORE DUP1 PUSH1 0x0 DUP2 MSTORE PUSH1 0x20 ADD PUSH1 0x0 DUP2 MSTORE PUSH1 0x20 ADD PUSH1 0x0 DUP2 MSTORE PUSH1 0x20 ADD PUSH1 0x0 DUP2 MSTORE POP SWAP1 JUMP JUMPDEST PUSH2 0x24A2 DUP5 DUP5 PUSH1 0x0 DUP8 MLOAD PUSH2 0x26E8 JUMP JUMPDEST SWAP2 POP SWAP2 POP SWAP3 POP SWAP3 SWAP1 POP JUMP JUMPDEST PUSH1 0x0 DUP2 PUSH1 0x60 ADD MLOAD PUSH2 0x24CF DUP4 PUSH1 0x40 ADD MLOAD DUP5 PUSH1 0x20 ADD MLOAD PUSH2 0x2687 SWAP1 SWAP2 SWAP1 PUSH4 0xFFFFFFFF AND JUMP JUMPDEST PUSH2 0x562 SWAP2 SWAP1 PUSH2 0x2EAA JUMP JUMPDEST PUSH1 0x0 PUSH2 0x252E DUP3 PUSH1 0x40 MLOAD DUP1 PUSH1 0x40 ADD PUSH1 0x40 MSTORE DUP1 PUSH1 0x20 DUP2 MSTORE PUSH1 0x20 ADD PUSH32 0x5361666545524332303A206C6F772D6C6576656C2063616C6C206661696C6564 DUP2 MSTORE POP DUP6 PUSH1 0x1 PUSH1 0x1 PUSH1 0xA0 SHL SUB AND PUSH2 0x2843 SWAP1 SWAP3 SWAP2 SWAP1 PUSH4 0xFFFFFFFF AND JUMP JUMPDEST DUP1 MLOAD SWAP1 SWAP2 POP ISZERO PUSH2 0xAAD JUMPI DUP1 DUP1 PUSH1 0x20 ADD SWAP1 MLOAD DUP2 ADD SWAP1 PUSH2 0x254C SWAP2 SWAP1 PUSH2 0x2C98 JUMP JUMPDEST PUSH2 0xAAD JUMPI PUSH1 0x40 MLOAD PUSH3 0x461BCD PUSH1 0xE5 SHL DUP2 MSTORE PUSH1 0x20 PUSH1 0x4 DUP3 ADD MSTORE PUSH1 0x2A PUSH1 0x24 DUP3 ADD MSTORE PUSH32 0x5361666545524332303A204552433230206F7065726174696F6E20646964206E PUSH1 0x44 DUP3 ADD MSTORE PUSH10 0x1BDD081CDD58D8D95959 PUSH1 0xB2 SHL PUSH1 0x64 DUP3 ADD MSTORE PUSH1 0x84 ADD PUSH2 0x68C JUMP JUMPDEST PUSH1 0x1 PUSH1 0x1 PUSH1 0xA0 SHL SUB DUP2 AND PUSH1 0x0 SWAP1 DUP2 MSTORE PUSH1 0x2 DUP4 ADD PUSH1 0x20 SWAP1 DUP2 MSTORE PUSH1 0x40 DUP1 DUP4 KECCAK256 SLOAD PUSH1 0x3 DUP7 ADD SWAP1 SWAP3 MSTORE DUP3 KECCAK256 SLOAD PUSH2 0x12F0 SWAP2 SWAP1 PUSH2 0x2ED2 JUMP JUMPDEST PUSH1 0x0 DUP2 DUP2 MSTORE PUSH1 0x2 DUP4 ADD PUSH1 0x20 MSTORE PUSH1 0x40 DUP2 KECCAK256 SLOAD DUP1 ISZERO ISZERO DUP1 PUSH2 0x2601 JUMPI POP PUSH2 0x2601 DUP5 DUP5 PUSH2 0x2852 JUMP JUMPDEST PUSH2 0x12F0 JUMPI PUSH1 0x40 MLOAD PUSH3 0x461BCD PUSH1 0xE5 SHL DUP2 MSTORE PUSH1 0x20 PUSH1 0x4 DUP3 ADD MSTORE PUSH1 0x1E PUSH1 0x24 DUP3 ADD MSTORE PUSH32 0x456E756D657261626C654D61703A206E6F6E6578697374656E74206B65790000 PUSH1 0x44 DUP3 ADD MSTORE PUSH1 0x64 ADD PUSH2 0x68C JUMP JUMPDEST PUSH1 0x0 DUP2 DUP2 MSTORE PUSH1 0x2 DUP4 ADD PUSH1 0x20 MSTORE PUSH1 0x40 DUP2 KECCAK256 DUP2 SWAP1 SSTORE PUSH2 0x12F0 DUP4 DUP4 PUSH2 0x16EA JUMP JUMPDEST PUSH1 0x0 DUP3 DUP2 MSTORE PUSH1 0x2 DUP5 ADD PUSH1 0x20 MSTORE PUSH1 0x40 DUP2 KECCAK256 DUP3 SWAP1 SSTORE PUSH2 0x1BDB DUP5 DUP5 PUSH2 0x1A55 JUMP JUMPDEST PUSH1 0x0 PUSH8 0xDE0B6B3A7640000 PUSH2 0x269C DUP4 DUP6 PUSH2 0x2C6E JUMP JUMPDEST PUSH2 0x12F0 SWAP2 SWAP1 PUSH2 0x2D71 JUMP JUMPDEST PUSH1 0x0 DUP2 DUP2 MSTORE PUSH1 0x2 DUP4 ADD PUSH1 0x20 MSTORE PUSH1 0x40 DUP2 KECCAK256 SLOAD DUP2 SWAP1 DUP1 PUSH2 0x26D5 JUMPI PUSH2 0x26C8 DUP6 DUP6 PUSH2 0x2852 JUMP JUMPDEST SWAP3 POP PUSH1 0x0 SWAP2 POP PUSH2 0x1718 SWAP1 POP JUMP JUMPDEST PUSH1 0x1 SWAP3 POP SWAP1 POP PUSH2 0x1718 JUMP JUMPDEST POP SWAP3 POP SWAP3 SWAP1 POP JUMP JUMPDEST PUSH1 0x0 PUSH2 0x2715 PUSH1 0x40 MLOAD DUP1 PUSH1 0x80 ADD PUSH1 0x40 MSTORE DUP1 PUSH1 0x0 DUP2 MSTORE PUSH1 0x20 ADD PUSH1 0x0 DUP2 MSTORE PUSH1 0x20 ADD PUSH1 0x0 DUP2 MSTORE PUSH1 0x20 ADD PUSH1 0x0 DUP2 MSTORE POP SWAP1 JUMP JUMPDEST DUP3 DUP5 LT PUSH2 0x272F JUMPI PUSH1 0x0 PUSH2 0x2726 PUSH2 0x1DDF JUMP JUMPDEST SWAP2 POP SWAP2 POP PUSH2 0x283A JUMP JUMPDEST PUSH2 0x2739 DUP5 DUP5 PUSH2 0x2C5B JUMP JUMPDEST PUSH1 0x1 SUB PUSH2 0x2787 JUMPI PUSH1 0x0 DUP7 DUP6 DUP2 MLOAD DUP2 LT PUSH2 0x2754 JUMPI PUSH2 0x2754 PUSH2 0x2CD0 JUMP JUMPDEST PUSH1 0x20 MUL PUSH1 0x20 ADD ADD MLOAD SWAP1 POP DUP6 DUP2 PUSH1 0x0 ADD MLOAD GT ISZERO PUSH2 0x2779 JUMPI PUSH1 0x0 PUSH2 0x2774 PUSH2 0x1DDF JUMP JUMPDEST PUSH2 0x277D JUMP JUMPDEST PUSH1 0x1 DUP2 JUMPDEST SWAP3 POP SWAP3 POP POP PUSH2 0x283A JUMP JUMPDEST PUSH1 0x0 PUSH1 0x2 PUSH2 0x2795 DUP7 DUP7 PUSH2 0x2C85 JUMP JUMPDEST PUSH2 0x279F SWAP2 SWAP1 PUSH2 0x2D71 JUMP JUMPDEST SWAP1 POP PUSH1 0x0 DUP8 PUSH2 0x27AF PUSH1 0x1 DUP5 PUSH2 0x2C5B JUMP JUMPDEST DUP2 MLOAD DUP2 LT PUSH2 0x27BF JUMPI PUSH2 0x27BF PUSH2 0x2CD0 JUMP JUMPDEST PUSH1 0x20 MUL PUSH1 0x20 ADD ADD MLOAD SWAP1 POP PUSH1 0x0 DUP9 DUP4 DUP2 MLOAD DUP2 LT PUSH2 0x27DD JUMPI PUSH2 0x27DD PUSH2 0x2CD0 JUMP JUMPDEST PUSH1 0x20 MUL PUSH1 0x20 ADD ADD MLOAD SWAP1 POP DUP8 DUP3 PUSH1 0x0 ADD MLOAD GT ISZERO DUP1 ISZERO PUSH2 0x27FB JUMPI POP DUP1 MLOAD DUP9 LT JUMPDEST ISZERO PUSH2 0x280E JUMPI POP PUSH1 0x1 SWAP4 POP SWAP2 POP PUSH2 0x283A SWAP1 POP JUMP JUMPDEST DUP1 MLOAD DUP9 LT PUSH2 0x282E JUMPI PUSH2 0x2822 DUP10 DUP10 DUP6 DUP10 PUSH2 0x26E8 JUMP JUMPDEST SWAP5 POP SWAP5 POP POP POP POP PUSH2 0x283A JUMP JUMPDEST PUSH2 0x2822 DUP10 DUP10 DUP10 DUP7 PUSH2 0x26E8 JUMP JUMPDEST SWAP5 POP SWAP5 SWAP3 POP POP POP JUMP JUMPDEST PUSH1 0x60 PUSH2 0x1BDB DUP5 DUP5 PUSH1 0x0 DUP6 PUSH2 0x285E JUMP JUMPDEST PUSH1 0x0 PUSH2 0x12F0 DUP4 DUP4 PUSH2 0x2939 JUMP JUMPDEST PUSH1 0x60 DUP3 SELFBALANCE LT ISZERO PUSH2 0x28BF JUMPI PUSH1 0x40 MLOAD PUSH3 0x461BCD PUSH1 0xE5 SHL DUP2 MSTORE PUSH1 0x20 PUSH1 0x4 DUP3 ADD MSTORE PUSH1 0x26 PUSH1 0x24 DUP3 ADD MSTORE PUSH32 0x416464726573733A20696E73756666696369656E742062616C616E636520666F PUSH1 0x44 DUP3 ADD MSTORE PUSH6 0x1C8818D85B1B PUSH1 0xD2 SHL PUSH1 0x64 DUP3 ADD MSTORE PUSH1 0x84 ADD PUSH2 0x68C JUMP JUMPDEST PUSH1 0x0 DUP1 DUP7 PUSH1 0x1 PUSH1 0x1 PUSH1 0xA0 SHL SUB AND DUP6 DUP8 PUSH1 0x40 MLOAD PUSH2 0x28DB SWAP2 SWAP1 PUSH2 0x2EF2 JUMP JUMPDEST PUSH1 0x0 PUSH1 0x40 MLOAD DUP1 DUP4 SUB DUP2 DUP6 DUP8 GAS CALL SWAP3 POP POP POP RETURNDATASIZE DUP1 PUSH1 0x0 DUP2 EQ PUSH2 0x2918 JUMPI PUSH1 0x40 MLOAD SWAP2 POP PUSH1 0x1F NOT PUSH1 0x3F RETURNDATASIZE ADD AND DUP3 ADD PUSH1 0x40 MSTORE RETURNDATASIZE DUP3 MSTORE RETURNDATASIZE PUSH1 0x0 PUSH1 0x20 DUP5 ADD RETURNDATACOPY PUSH2 0x291D JUMP JUMPDEST PUSH1 0x60 SWAP2 POP JUMPDEST POP SWAP2 POP SWAP2 POP PUSH2 0x292E DUP8 DUP4 DUP4 DUP8 PUSH2 0x2951 JUMP JUMPDEST SWAP8 SWAP7 POP POP POP POP POP POP POP JUMP JUMPDEST PUSH1 0x0 DUP2 DUP2 MSTORE PUSH1 0x1 DUP4 ADD PUSH1 0x20 MSTORE PUSH1 0x40 DUP2 KECCAK256 SLOAD ISZERO ISZERO PUSH2 0x12F0 JUMP JUMPDEST PUSH1 0x60 DUP4 ISZERO PUSH2 0x29C0 JUMPI DUP3 MLOAD PUSH1 0x0 SUB PUSH2 0x29B9 JUMPI PUSH1 0x1 PUSH1 0x1 PUSH1 0xA0 SHL SUB DUP6 AND EXTCODESIZE PUSH2 0x29B9 JUMPI PUSH1 0x40 MLOAD PUSH3 0x461BCD PUSH1 0xE5 SHL DUP2 MSTORE PUSH1 0x20 PUSH1 0x4 DUP3 ADD MSTORE PUSH1 0x1D PUSH1 0x24 DUP3 ADD MSTORE PUSH32 0x416464726573733A2063616C6C20746F206E6F6E2D636F6E7472616374000000 PUSH1 0x44 DUP3 ADD MSTORE PUSH1 0x64 ADD PUSH2 0x68C JUMP JUMPDEST POP DUP2 PUSH2 0x1BDB JUMP JUMPDEST PUSH2 0x1BDB DUP4 DUP4 DUP2 MLOAD ISZERO PUSH2 0x29D5 JUMPI DUP2 MLOAD DUP1 DUP4 PUSH1 0x20 ADD REVERT JUMPDEST DUP1 PUSH1 0x40 MLOAD PUSH3 0x461BCD PUSH1 0xE5 SHL DUP2 MSTORE PUSH1 0x4 ADD PUSH2 0x68C SWAP2 SWAP1 PUSH2 0x2B1A JUMP JUMPDEST DUP1 CALLDATALOAD PUSH1 0x1 PUSH1 0x1 PUSH1 0xA0 SHL SUB DUP2 AND DUP2 EQ PUSH2 0x2A06 JUMPI PUSH1 0x0 DUP1 REVERT JUMPDEST SWAP2 SWAP1 POP JUMP JUMPDEST PUSH1 0x0 PUSH1 0x20 DUP3 DUP5 SUB SLT ISZERO PUSH2 0x2A1D JUMPI PUSH1 0x0 DUP1 REVERT JUMPDEST PUSH2 0x12F0 DUP3 PUSH2 0x29EF JUMP JUMPDEST PUSH1 0x0 PUSH1 0x20 DUP3 DUP5 SUB SLT ISZERO PUSH2 0x2A38 JUMPI PUSH1 0x0 DUP1 REVERT JUMPDEST POP CALLDATALOAD SWAP2 SWAP1 POP JUMP JUMPDEST PUSH1 0x20 DUP1 DUP3 MSTORE DUP3 MLOAD DUP3 DUP3 ADD DUP2 SWAP1 MSTORE PUSH1 0x0 SWAP2 SWAP1 PUSH1 0x40 SWAP1 DUP2 DUP6 ADD SWAP1 DUP7 DUP5 ADD DUP6 JUMPDEST DUP3 DUP2 LT ISZERO PUSH2 0x2A8A JUMPI DUP2 MLOAD DUP1 MLOAD PUSH1 0x1 PUSH1 0x1 PUSH1 0xA0 SHL SUB AND DUP6 MSTORE DUP7 ADD MLOAD DUP7 DUP6 ADD MSTORE SWAP3 DUP5 ADD SWAP3 SWAP1 DUP6 ADD SWAP1 PUSH1 0x1 ADD PUSH2 0x2A5C JUMP JUMPDEST POP SWAP2 SWAP8 SWAP7 POP POP POP POP POP POP POP JUMP JUMPDEST PUSH1 0x0 DUP1 PUSH1 0x0 PUSH1 0x60 DUP5 DUP7 SUB SLT ISZERO PUSH2 0x2AAC JUMPI PUSH1 0x0 DUP1 REVERT JUMPDEST PUSH2 0x2AB5 DUP5 PUSH2 0x29EF JUMP JUMPDEST SWAP6 PUSH1 0x20 DUP6 ADD CALLDATALOAD SWAP6 POP PUSH1 0x40 SWAP1 SWAP5 ADD CALLDATALOAD SWAP4 SWAP3 POP POP POP JUMP JUMPDEST PUSH1 0x0 DUP1 PUSH1 0x40 DUP4 DUP6 SUB SLT ISZERO PUSH2 0x2ADD JUMPI PUSH1 0x0 DUP1 REVERT JUMPDEST DUP3 CALLDATALOAD SWAP2 POP PUSH2 0x2AED PUSH1 0x20 DUP5 ADD PUSH2 0x29EF JUMP JUMPDEST SWAP1 POP SWAP3 POP SWAP3 SWAP1 POP JUMP JUMPDEST PUSH1 0x0 JUMPDEST DUP4 DUP2 LT ISZERO PUSH2 0x2B11 JUMPI DUP2 DUP2 ADD MLOAD DUP4 DUP3 ADD MSTORE PUSH1 0x20 ADD PUSH2 0x2AF9 JUMP JUMPDEST POP POP PUSH1 0x0 SWAP2 ADD MSTORE JUMP JUMPDEST PUSH1 0x20 DUP2 MSTORE PUSH1 0x0 DUP3 MLOAD DUP1 PUSH1 0x20 DUP5 ADD MSTORE PUSH2 0x2B39 DUP2 PUSH1 0x40 DUP6 ADD PUSH1 0x20 DUP8 ADD PUSH2 0x2AF6 JUMP JUMPDEST PUSH1 0x1F ADD PUSH1 0x1F NOT AND SWAP2 SWAP1 SWAP2 ADD PUSH1 0x40 ADD SWAP3 SWAP2 POP POP JUMP JUMPDEST PUSH1 0x0 DUP1 PUSH1 0x40 DUP4 DUP6 SUB SLT ISZERO PUSH2 0x2B60 JUMPI PUSH1 0x0 DUP1 REVERT JUMPDEST PUSH2 0x2B69 DUP4 PUSH2 0x29EF JUMP JUMPDEST SWAP5 PUSH1 0x20 SWAP4 SWAP1 SWAP4 ADD CALLDATALOAD SWAP4 POP POP POP JUMP JUMPDEST PUSH1 0x20 DUP1 DUP3 MSTORE DUP3 MLOAD DUP3 DUP3 ADD DUP2 SWAP1 MSTORE PUSH1 0x0 SWAP2 SWAP1 PUSH1 0x40 SWAP1 DUP2 DUP6 ADD SWAP1 DUP7 DUP5 ADD DUP6 JUMPDEST DUP3 DUP2 LT ISZERO PUSH2 0x2A8A JUMPI DUP2 MLOAD DUP1 MLOAD DUP6 MSTORE DUP7 DUP2 ADD MLOAD DUP8 DUP7 ADD MSTORE DUP6 DUP2 ADD MLOAD DUP7 DUP7 ADD MSTORE PUSH1 0x60 DUP1 DUP3 ADD MLOAD PUSH1 0x1 PUSH1 0x1 PUSH1 0xA0 SHL SUB SWAP1 DUP2 AND SWAP2 DUP8 ADD SWAP2 SWAP1 SWAP2 MSTORE PUSH1 0x80 SWAP2 DUP3 ADD MLOAD AND SWAP1 DUP6 ADD MSTORE PUSH1 0xA0 SWAP1 SWAP4 ADD SWAP3 SWAP1 DUP6 ADD SWAP1 PUSH1 0x1 ADD PUSH2 0x2B94 JUMP JUMPDEST PUSH1 0x0 DUP1 PUSH1 0x0 PUSH1 0x60 DUP5 DUP7 SUB SLT ISZERO PUSH2 0x2BFC JUMPI PUSH1 0x0 DUP1 REVERT JUMPDEST PUSH2 0x2C05 DUP5 PUSH2 0x29EF JUMP JUMPDEST SWAP3 POP PUSH2 0x2C13 PUSH1 0x20 DUP6 ADD PUSH2 0x29EF JUMP JUMPDEST SWAP2 POP PUSH1 0x40 DUP5 ADD CALLDATALOAD SWAP1 POP SWAP3 POP SWAP3 POP SWAP3 JUMP JUMPDEST PUSH1 0x0 DUP1 PUSH1 0x40 DUP4 DUP6 SUB SLT ISZERO PUSH2 0x2C36 JUMPI PUSH1 0x0 DUP1 REVERT JUMPDEST POP POP DUP1 CALLDATALOAD SWAP3 PUSH1 0x20 SWAP1 SWAP2 ADD CALLDATALOAD SWAP2 POP JUMP JUMPDEST PUSH4 0x4E487B71 PUSH1 0xE0 SHL PUSH1 0x0 MSTORE PUSH1 0x11 PUSH1 0x4 MSTORE PUSH1 0x24 PUSH1 0x0 REVERT JUMPDEST DUP2 DUP2 SUB DUP2 DUP2 GT ISZERO PUSH2 0x562 JUMPI PUSH2 0x562 PUSH2 0x2C45 JUMP JUMPDEST DUP1 DUP3 MUL DUP2 ISZERO DUP3 DUP3 DIV DUP5 EQ OR PUSH2 0x562 JUMPI PUSH2 0x562 PUSH2 0x2C45 JUMP JUMPDEST DUP1 DUP3 ADD DUP1 DUP3 GT ISZERO PUSH2 0x562 JUMPI PUSH2 0x562 PUSH2 0x2C45 JUMP JUMPDEST PUSH1 0x0 PUSH1 0x20 DUP3 DUP5 SUB SLT ISZERO PUSH2 0x2CAA JUMPI PUSH1 0x0 DUP1 REVERT JUMPDEST DUP2 MLOAD DUP1 ISZERO ISZERO DUP2 EQ PUSH2 0x12F0 JUMPI PUSH1 0x0 DUP1 REVERT JUMPDEST PUSH4 0x4E487B71 PUSH1 0xE0 SHL PUSH1 0x0 MSTORE PUSH1 0x41 PUSH1 0x4 MSTORE PUSH1 0x24 PUSH1 0x0 REVERT JUMPDEST PUSH4 0x4E487B71 PUSH1 0xE0 SHL PUSH1 0x0 MSTORE PUSH1 0x32 PUSH1 0x4 MSTORE PUSH1 0x24 PUSH1 0x0 REVERT JUMPDEST PUSH1 0x0 PUSH1 0x1 DUP3 ADD PUSH2 0x2CF8 JUMPI PUSH2 0x2CF8 PUSH2 0x2C45 JUMP JUMPDEST POP PUSH1 0x1 ADD SWAP1 JUMP JUMPDEST PUSH1 0x1 PUSH1 0x1 PUSH1 0xA0 SHL SUB SWAP4 DUP5 AND DUP2 MSTORE SWAP2 SWAP1 SWAP3 AND PUSH1 0x20 DUP3 ADD MSTORE PUSH1 0x40 DUP2 ADD SWAP2 SWAP1 SWAP2 MSTORE PUSH1 0x60 ADD SWAP1 JUMP JUMPDEST PUSH1 0x20 DUP1 DUP3 MSTORE PUSH1 0x2E SWAP1 DUP3 ADD MSTORE PUSH32 0x496E697469616C697A61626C653A20636F6E747261637420697320616C726561 PUSH1 0x40 DUP3 ADD MSTORE PUSH14 0x191E481A5B9A5D1A585B1A5E9959 PUSH1 0x92 SHL PUSH1 0x60 DUP3 ADD MSTORE PUSH1 0x80 ADD SWAP1 JUMP JUMPDEST PUSH1 0x0 DUP3 PUSH2 0x2D8E JUMPI PUSH4 0x4E487B71 PUSH1 0xE0 SHL PUSH1 0x0 MSTORE PUSH1 0x12 PUSH1 0x4 MSTORE PUSH1 0x24 PUSH1 0x0 REVERT JUMPDEST POP DIV SWAP1 JUMP JUMPDEST PUSH1 0x1 DUP2 DUP2 JUMPDEST DUP1 DUP6 GT ISZERO PUSH2 0x26E0 JUMPI DUP2 PUSH1 0x0 NOT DIV DUP3 GT ISZERO PUSH2 0x2DB4 JUMPI PUSH2 0x2DB4 PUSH2 0x2C45 JUMP JUMPDEST DUP1 DUP6 AND ISZERO PUSH2 0x2DC1 JUMPI SWAP2 DUP2 MUL SWAP2 JUMPDEST SWAP4 DUP5 SHR SWAP4 SWAP1 DUP1 MUL SWAP1 PUSH2 0x2D98 JUMP JUMPDEST PUSH1 0x0 DUP3 PUSH2 0x2DDD JUMPI POP PUSH1 0x1 PUSH2 0x562 JUMP JUMPDEST DUP2 PUSH2 0x2DEA JUMPI POP PUSH1 0x0 PUSH2 0x562 JUMP JUMPDEST DUP2 PUSH1 0x1 DUP2 EQ PUSH2 0x2E00 JUMPI PUSH1 0x2 DUP2 EQ PUSH2 0x2E0A JUMPI PUSH2 0x2E26 JUMP JUMPDEST PUSH1 0x1 SWAP2 POP POP PUSH2 0x562 JUMP JUMPDEST PUSH1 0xFF DUP5 GT ISZERO PUSH2 0x2E1B JUMPI PUSH2 0x2E1B PUSH2 0x2C45 JUMP JUMPDEST POP POP PUSH1 0x1 DUP3 SHL PUSH2 0x562 JUMP JUMPDEST POP PUSH1 0x20 DUP4 LT PUSH2 0x133 DUP4 LT AND PUSH1 0x4E DUP5 LT PUSH1 0xB DUP5 LT AND OR ISZERO PUSH2 0x2E49 JUMPI POP DUP2 DUP2 EXP PUSH2 0x562 JUMP JUMPDEST PUSH2 0x2E53 DUP4 DUP4 PUSH2 0x2D93 JUMP JUMPDEST DUP1 PUSH1 0x0 NOT DIV DUP3 GT ISZERO PUSH2 0x2E67 JUMPI PUSH2 0x2E67 PUSH2 0x2C45 JUMP JUMPDEST MUL SWAP4 SWAP3 POP POP POP JUMP JUMPDEST PUSH1 0x0 PUSH2 0x12F0 DUP4 DUP4 PUSH2 0x2DCE JUMP JUMPDEST PUSH1 0x0 PUSH1 0x20 DUP3 DUP5 SUB SLT ISZERO PUSH2 0x2E8D JUMPI PUSH1 0x0 DUP1 REVERT JUMPDEST POP MLOAD SWAP2 SWAP1 POP JUMP JUMPDEST PUSH4 0x4E487B71 PUSH1 0xE0 SHL PUSH1 0x0 MSTORE PUSH1 0x31 PUSH1 0x4 MSTORE PUSH1 0x24 PUSH1 0x0 REVERT JUMPDEST DUP1 DUP3 ADD DUP3 DUP2 SLT PUSH1 0x0 DUP4 SLT DUP1 ISZERO DUP3 AND DUP3 ISZERO DUP3 AND OR ISZERO PUSH2 0x2ECA JUMPI PUSH2 0x2ECA PUSH2 0x2C45 JUMP JUMPDEST POP POP SWAP3 SWAP2 POP POP JUMP JUMPDEST DUP2 DUP2 SUB PUSH1 0x0 DUP4 SLT DUP1 ISZERO DUP4 DUP4 SGT AND DUP4 DUP4 SLT DUP3 AND OR ISZERO PUSH2 0x1633 JUMPI PUSH2 0x1633 PUSH2 0x2C45 JUMP JUMPDEST PUSH1 0x0 DUP3 MLOAD PUSH2 0x2F04 DUP2 DUP5 PUSH1 0x20 DUP8 ADD PUSH2 0x2AF6 JUMP JUMPDEST SWAP2 SWAP1 SWAP2 ADD SWAP3 SWAP2 POP POP JUMP INVALID LOG2 PUSH5 0x6970667358 0x22 SLT KECCAK256 0xD4 PUSH16 0xD0843984177BD0B82D4063F479DE11DD 0xD1 SWAP7 PUSH2 0x12E 0xBC 0xC2 CALLDATACOPY KECCAK256 MSIZE MLOAD CALLDATALOAD ADDMOD EXP PUSH5 0x736F6C6343 STOP ADDMOD GT STOP CALLER ","sha1":"64d5ec8e96c9051e879a7567c50554fd187722f0","source":"// SPDX-License-Identifier: UNLICENSED\npragma solidity ^0.8.17;\n\nimport \"./LockedVault.sol\";\nimport \"./VaultWithThreshold.sol\";\n\ncontract LockedVaultWithThreshold is LockedVault, VaultWithThreshold {\n    constructor(\n        address _owner,\n        address _underlying,\n        address _rewardsToken,\n        address _daoTreasury\n    ) LockedVault(_owner, _underlying, _rewardsToken, _daoTreasury) {}\n\n    function initialize(\n        uint256 _threshold,\n        uint256 _withdrawalWaitDuration\n    ) external initializer {\n        __LockedVault_initialize(_withdrawalWaitDuration);\n        threshold = _threshold;\n    }\n\n    function getTotalRawVotingPower()\n        public\n        view\n        virtual\n        override\n        returns (uint256)\n    {\n        if (totalSupply < threshold) {\n            return threshold;\n        }\n        return totalSupply;\n    }\n}\n","sourcePath":"contracts/vaults/LockedVaultWithThreshold.sol","type":"contract","deployment":{"address":"0xb94C4Ff4D5d18FA5A33bF1445C3790326D8BC1F6","chainid":"1","blockHeight":18729954}}