{"abi":[{"inputs":[{"internalType":"address","name":"_owner","type":"address"},{"internalType":"uint256","name":"_sumVotingPowers","type":"uint256"},{"internalType":"bytes32","name":"_merkleRoot","type":"bytes32"}],"stateMutability":"nonpayable","type":"constructor","name":"constructor"},{"inputs":[{"internalType":"address","name":"actual","type":"address"},{"internalType":"address","name":"expected","type":"address"}],"name":"NotAuthorized","type":"error"},{"anonymous":false,"inputs":[{"indexed":false,"internalType":"address","name":"delegator","type":"address"},{"indexed":false,"internalType":"address","name":"delegate","type":"address"},{"indexed":false,"internalType":"uint256","name":"amount","type":"uint256"}],"name":"VotesDelegated","type":"event"},{"anonymous":false,"inputs":[{"indexed":false,"internalType":"address","name":"delegator","type":"address"},{"indexed":false,"internalType":"address","name":"delegate","type":"address"},{"indexed":false,"internalType":"uint256","name":"amount","type":"uint256"}],"name":"VotesUndelegated","type":"event"},{"inputs":[{"internalType":"address","name":"_oldDelegate","type":"address"},{"internalType":"address","name":"_newDelegate","type":"address"},{"internalType":"uint256","name":"_amount","type":"uint256"}],"name":"changeDelegate","outputs":[],"stateMutability":"nonpayable","type":"function"},{"inputs":[{"internalType":"address","name":"nftOwner","type":"address"},{"internalType":"address","name":"delegate","type":"address"},{"internalType":"uint128","name":"multiplier","type":"uint128"},{"internalType":"bytes32[]","name":"proof","type":"bytes32[]"},{"internalType":"bytes","name":"signature","type":"bytes"}],"name":"claimNFT","outputs":[],"stateMutability":"nonpayable","type":"function"},{"inputs":[{"internalType":"address","name":"_delegate","type":"address"},{"internalType":"uint256","name":"_amount","type":"uint256"}],"name":"delegateVote","outputs":[],"stateMutability":"nonpayable","type":"function"},{"inputs":[{"internalType":"address","name":"account","type":"address"}],"name":"getCurrentRecord","outputs":[{"components":[{"internalType":"uint256","name":"at","type":"uint256"},{"internalType":"uint256","name":"baseVotingPower","type":"uint256"},{"internalType":"uint256","name":"multiplier","type":"uint256"},{"internalType":"int256","name":"netDelegatedVotes","type":"int256"}],"internalType":"struct VotingPowerHistory.Record","name":"","type":"tuple"}],"stateMutability":"view","type":"function"},{"inputs":[{"internalType":"address","name":"account","type":"address"}],"name":"getDelegations","outputs":[{"components":[{"internalType":"address","name":"delegate","type":"address"},{"internalType":"uint256","name":"amount","type":"uint256"}],"internalType":"struct DataTypes.Delegation[]","name":"delegations","type":"tuple[]"}],"stateMutability":"view","type":"function"},{"inputs":[{"internalType":"address","name":"account","type":"address"}],"name":"getRawVotingPower","outputs":[{"internalType":"uint256","name":"","type":"uint256"}],"stateMutability":"view","type":"function"},{"inputs":[{"internalType":"address","name":"user","type":"address"},{"internalType":"uint256","name":"timestamp","type":"uint256"}],"name":"getRawVotingPower","outputs":[{"internalType":"uint256","name":"","type":"uint256"}],"stateMutability":"view","type":"function"},{"inputs":[],"name":"getTotalRawVotingPower","outputs":[{"internalType":"uint256","name":"","type":"uint256"}],"stateMutability":"view","type":"function"},{"inputs":[],"name":"getVaultType","outputs":[{"internalType":"string","name":"","type":"string"}],"stateMutability":"pure","type":"function"},{"inputs":[],"name":"owner","outputs":[{"internalType":"address","name":"","type":"address"}],"stateMutability":"view","type":"function"},{"inputs":[{"internalType":"address","name":"_delegate","type":"address"},{"internalType":"uint256","name":"_amount","type":"uint256"}],"name":"undelegateVote","outputs":[],"stateMutability":"nonpayable","type":"function"},{"inputs":[{"internalType":"address[]","name":"users","type":"address[]"},{"internalType":"uint128","name":"_multiplier","type":"uint128"}],"name":"updateMultiplier","outputs":[],"stateMutability":"nonpayable","type":"function"}],"bytecode":"6101806040527f015ae317ea3996e775b7592a4e654e819d68b83313f09c429f495e6e95002d4c610160523480156200003757600080fd5b50604051620023e1380380620023e18339810160408190526200005a9162000170565b604080518082018252601381527f466f756e64696e674d656d6265725661756c74000000000000000000000000006020808301918252835180850190945260018452603160f81b9084019081526001600160a01b038716608052825190912083519091206101008290526101208190524660c0529192917f8b73c3c69bb8fe3d512ecc4cf759cc79239f7b179b0ffacaa9a75d522b39400f620001428184846040805160208101859052908101839052606081018290524660808201523060a082015260009060c0016040516020818303038152906040528051906020012090509392505050565b60a0523060e05261014052505050600592909255604080516020810190915281905260075550620001b59050565b6000806000606084860312156200018657600080fd5b83516001600160a01b03811681146200019e57600080fd5b602085015160409095015190969495509392505050565b60805160a05160c05160e051610100516101205161014051610160516121b86200022960003960006102f50152600061111f0152600061116e01526000611149015260006110a2015260006110cc015260006110f60152600081816101970152818161076f01526107b101526121b86000f3fe608060405234801561001057600080fd5b50600436106100b45760003560e01c80638da5cb5b116100715780638da5cb5b14610192578063926f7327146101d15780639f1acf08146101e4578063cead0481146101f7578063de1ec4031461020a578063e2fcf5501461021d57600080fd5b80630ddf940d146100b957806319ad0eba146100ce57806331cc13ba1461011d578063344ff1d01461013d57806371fbcca51461014f57806375baf37f14610162575b600080fd5b6100cc6100c7366004611dd2565b610230565b005b6100e16100dc366004611ea1565b61062d565b60405161011491908151815260208083015190820152604080830151908201526060918201519181019190915260800190565b60405180910390f35b61013061012b366004611ea1565b610669565b6040516101149190611ebc565b6005545b604051908152602001610114565b6100cc61015d366004611f14565b610764565b604080518082018252600e81526d2337bab73234b733a6b2b6b132b960911b602082015290516101149190611f8c565b6101b97f000000000000000000000000000000000000000000000000000000000000000081565b6040516001600160a01b039091168152602001610114565b6100cc6101df366004611fbf565b610a51565b6101416101f2366004611ea1565b610a60565b6100cc610205366004611fe9565b610a6c565b610141610218366004611fbf565b610a87565b6100cc61022b366004611fbf565b610a9b565b670de0b6b3a7640000856001600160801b03161015801561026357506801158e460913d00000856001600160801b031611155b6102ee5760405162461bcd60e51b815260206004820152604b60248201527f6d756c7469706c696572206d7573742062652067726561746572206f7220657160448201527f75616c207468616e203165313820616e64206c6f776572206f7220657175616c60648201526a040e8d0c2dc406460ca62760ab1b608482015260a4015b60405180910390fd5b60006103b17f000000000000000000000000000000000000000000000000000000000000000089338a8a6103548b8b80806020026020016040519081016040528093929190818152602001838360200280828437600092019190915250610aa692505050565b6040805160208101979097526001600160a01b03958616908701529284166060860152921660808401526001600160801b0390911660a083015260c082015260e00160405160208183030381529060405280519060200120610b34565b905060006103f58285858080601f016020809104026020016040519081016040528093929190818152602001838380828437600092019190915250610b8292505050565b9050886001600160a01b0316816001600160a01b03161461044c5760405162461bcd60e51b8152602060048201526011602482015270696e76616c6964207369676e617475726560781b60448201526064016102e5565b6001600160a01b03891660009081526006602052604090205460ff16156104ab5760405162461bcd60e51b815260206004820152601360248201527213919508185b1c9958591e4818db185a5b5959606a1b60448201526064016102e5565b6040516bffffffffffffffffffffffff1960608b901b1660208201526fffffffffffffffffffffffffffffffff19608089901b1660348201526000906044016040516020818303038152906040528051906020012090506105448188888080602002602001604051908101604052809392919081815260200183836020028082843760009201919091525060079493925050610ba69050565b6105805760405162461bcd60e51b815260206004820152600d60248201526c34b73b30b634b210383937b7b360991b60448201526064016102e5565b6001600160a01b038a166000908152600660205260408120805460ff191660011790556105ad8133610c2e565b90506105e533670de0b6b3a764000083602001516105cb919061203b565b606084015160009291906001600160801b038e1690610d3c565b506001600160a01b038a161580159061060757506001600160a01b038a163314155b1561062057610620338b8b6001600160801b0316610e80565b5050505050505050505050565b6106586040518060800160405280600081526020016000815260200160008152602001600081525090565b610663600083610c2e565b92915050565b6001600160a01b038116600090815260046020526040812060609161068d82610efb565b90508067ffffffffffffffff8111156106a8576106a861204e565b6040519080825280602002602001820160405280156106ed57816020015b60408051808201909152600080825260208201528152602001906001900390816106c65790505b50925060005b8181101561075c576000806107088584610f06565b915091506040518060400160405280836001600160a01b031681526020018281525086848151811061073c5761073c612064565b6020026020010181905250505080806107549061207a565b9150506106f3565b505050919050565b336001600160a01b037f000000000000000000000000000000000000000000000000000000000000000016146107de5760405163c55ddc9760e01b81523360048201526001600160a01b037f00000000000000000000000000000000000000000000000000000000000000001660248201526044016102e5565b670de0b6b3a7640000816001600160801b0316101561083f5760405162461bcd60e51b815260206004820181905260248201527f6d756c7469706c6965722063616e6e6f74206265206c657373207468616e203160448201526064016102e5565b6801158e460913d00000816001600160801b031611156108ab5760405162461bcd60e51b815260206004820152602160248201527f6d756c7469706c6965722063616e6e6f74206265206d6f7265207468616e20326044820152600360fc1b60648201526084016102e5565b60005b82811015610a4b5760006108ea8585848181106108cd576108cd612064565b90506020020160208101906108e29190611ea1565b600090610c2e565b9050670de0b6b3a7640000816020015110156109535760405162461bcd60e51b815260206004820152602260248201527f616c6c207573657273206d7573742068617665206174206c656173742031204e604482015261119560f21b60648201526084016102e5565b826001600160801b03168160400151106109af5760405162461bcd60e51b815260206004820152601c60248201527f63616e6e6f7420646563726561736520766f74696e6720706f7765720000000060448201526064016102e5565b60006109ba82610f24565b90506000610a078787868181106109d3576109d3612064565b90506020020160208101906109e89190611ea1565b6020850151606086015160009291906001600160801b038a1690610d3c565b905081610a1382610f24565b610a1d9190612093565b60056000828254610a2e919061203b565b925050819055505050508080610a439061207a565b9150506108ae565b50505050565b610a5c338383610e80565b5050565b60006106638242610a87565b610a77338483610f50565b610a82338383610e80565b505050565b6000610a94818484610fe4565b9392505050565b610a5c338383610f50565b6000606060005b8351811015610b255781848281518110610ac957610ac9612064565b6020026020010151604051602001610ae391815260200190565b60408051601f1981840301815290829052610b0192916020016120a6565b60405160208183030381529060405291508080610b1d9061207a565b915050610aad565b50805160209091012092915050565b6000610663610b41611095565b8360405161190160f01b6020820152602281018390526042810182905260009060620160405160208183030381529060405280519060200120905092915050565b6000806000610b9185856111bc565b91509150610b9e816111fe565b509392505050565b600082815b8351811015610c215760008083868481518110610bca57610bca612064565b60200260200101519150915080821115610be057905b604080516020810184905290810182905260600160405160208183030381529060405280519060200120935050508080610c199061207a565b915050610bab565b5084541490509392505050565b610c596040518060800160405280600081526020016000815260200160008152602001600081525090565b6001600160a01b03821660009081526020848152604080832080548251818502810185019093528083529192909190849084015b82821015610ce7578382906000526020600020906004020160405180608001604052908160008201548152602001600182015481526020016002820154815260200160038201548152505081526020019060010190610c8d565b5050505090508051600003610d0657610cfe61134b565b915050610663565b8060018251610d159190612093565b81518110610d2557610d25612064565b6020026020010151915050610663565b5092915050565b610d676040518060800160405280600081526020016000815260200160008152602001600081525090565b6001600160a01b03851660009081526020878152604080832081516080810183524281529283018890529082018690526060820185905291610da98989610c2e565b805190915042148015610dbc5750825415155b15610e2157825482908490610dd390600190612093565b81548110610de357610de3612064565b906000526020600020906004020160008201518160000155602082015181600101556040820151816002015560608201518160030155905050610e74565b6001600160a01b038816600090815260208a815260408083208054600181810183559185529383902086516004909502019384559185015191830191909155830151600282015560608301516003909101555b50979650505050505050565b610e8d60008484846113a7565b6001600160a01b03831660009081526004602052604081208190610eb19085611592565b91509150600082610ec25783610ecc565b610ecc848361203b565b6001600160a01b0387166000908152600460205260409020909150610ef29086836115aa565b50505050505050565b6000610663826115c8565b6000808080610f1586866115d3565b909450925050505b9250929050565b60008160600151610f46836040015184602001516115fe90919063ffffffff16565b61066391906120d5565b610f5d600084848461161d565b6001600160a01b0383166000908152600460205260408120610f7f9084611800565b9050818103610fb0576001600160a01b0384166000908152600460205260409020610faa9084611815565b50610a4b565b610fdd83610fbe8484612093565b6001600160a01b038716600090815260046020526040902091906115aa565b5050505050565b6001600160a01b0382166000908152602084815260408083208054825181850281018501909352808352849361108093929190859084015b8282101561107657838290600052602060002090600402016040518060800160405290816000820154815260200160018201548152602001600282015481526020016003820154815250508152602001906001019061101c565b505050508461182a565b91505061108c81610f24565b95945050505050565b6000306001600160a01b037f0000000000000000000000000000000000000000000000000000000000000000161480156110ee57507f000000000000000000000000000000000000000000000000000000000000000046145b1561111857507f000000000000000000000000000000000000000000000000000000000000000090565b50604080517f00000000000000000000000000000000000000000000000000000000000000006020808301919091527f0000000000000000000000000000000000000000000000000000000000000000828401527f000000000000000000000000000000000000000000000000000000000000000060608301524660808301523060a0808401919091528351808403909101815260c0909201909252805191012090565b60008082516041036111f25760208301516040840151606085015160001a6111e687828585611870565b94509450505050610f1d565b50600090506002610f1d565b6000816004811115611212576112126120fd565b0361121a5750565b600181600481111561122e5761122e6120fd565b0361127b5760405162461bcd60e51b815260206004820152601860248201527f45434453413a20696e76616c6964207369676e6174757265000000000000000060448201526064016102e5565b600281600481111561128f5761128f6120fd565b036112dc5760405162461bcd60e51b815260206004820152601f60248201527f45434453413a20696e76616c6964207369676e6174757265206c656e6774680060448201526064016102e5565b60038160048111156112f0576112f06120fd565b036113485760405162461bcd60e51b815260206004820152602260248201527f45434453413a20696e76616c6964207369676e6174757265202773272076616c604482015261756560f01b60648201526084016102e5565b50565b6113766040518060800160405280600081526020016000815260200160008152602001600081525090565b60405180608001604052806000815260200160008152602001670de0b6b3a764000081526020016000815250905090565b60006113b38585610c2e565b6001600160a01b0385166000908152600287016020908152604080832054908401519184015193945091926113e7916115fe565b6113f19190612093565b9050828110156114435760405162461bcd60e51b815260206004820181905260248201527f696e73756666696369656e742062616c616e636520746f2064656c656761746560448201526064016102e5565b6001600160a01b03841660009081526003870160205260408120805485929061146d90849061203b565b90915550506001600160a01b03851660009081526002870160205260408120805485929061149c90849061203b565b90915550506001600160a01b0380861660009081526001880160209081526040808320938816835292905290812080548592906114da90849061203b565b9091555050602082015160408301516115039187916114f98a84611934565b8a93929190610d3c565b5060006115108786610c2e565b905061153d8582602001518360400151611533898c61193490919063ffffffff16565b8b93929190610d3c565b50604080516001600160a01b038089168252871660208201529081018590527fff825f9424124effc5ce1d9f4803d58ede8a2bda4da2324810f74834715c4c599060600160405180910390a150505050505050565b6000808080610f15866001600160a01b038716611966565b60006115c0846001600160a01b038516846119a0565b949350505050565b6000610663826119bd565b600080806115e185856119c7565b600081815260029690960160205260409095205494959350505050565b6000670de0b6b3a76400006116138385612113565b610a94919061212a565b6001600160a01b0380841660009081526001860160209081526040808320938616835292905220548111156116a65760405162461bcd60e51b815260206004820152602960248201527f7573657220686173206e6f742064656c65676174656420656e6f75676820746f6044820152682064656c656761746560b81b60648201526084016102e5565b6001600160a01b0382166000908152600385016020526040812080548392906116d0908490612093565b90915550506001600160a01b0383166000908152600285016020526040812080548392906116ff908490612093565b90915550506001600160a01b03808416600090815260018601602090815260408083209386168352929052908120805483929061173d908490612093565b909155506000905061174f8585610c2e565b905061177c8482602001518360400151611772888a61193490919063ffffffff16565b8993929190610d3c565b5060006117898685610c2e565b90506117ac84826020015183604001516114f9888b61193490919063ffffffff16565b50604080516001600160a01b038088168252861660208201529081018490527fde5aa493a93d4351631c1991a0aeecfd52d6b51cf1b61f1a3c48f97e268086539060600160405180910390a1505050505050565b6000610a94836001600160a01b0384166119d3565b6000610a94836001600160a01b038416611a43565b60006118576040518060800160405280600081526020016000815260200160008152602001600081525090565b611865848460008751611a60565b915091509250929050565b6000807f7fffffffffffffffffffffffffffffff5d576e7357a4501ddfe92f46681b20a08311156118a7575060009050600361192b565b6040805160008082526020820180845289905260ff881692820192909252606081018690526080810185905260019060a0016020604051602081039080840390855afa1580156118fb573d6000803e3d6000fd5b5050604051601f1901519150506001600160a01b0381166119245760006001925092505061192b565b9150600090505b94509492505050565b6001600160a01b038116600090815260028301602090815260408083205460038601909252822054610a94919061214c565b6000818152600283016020526040812054819080611995576119888585611bb2565b925060009150610f1d9050565b600192509050610f1d565b600082815260028401602052604081208290556115c08484611bbe565b6000610663825490565b6000610a948383611bca565b6000818152600283016020526040812054801515806119f757506119f78484611bb2565b610a945760405162461bcd60e51b815260206004820152601e60248201527f456e756d657261626c654d61703a206e6f6e6578697374656e74206b6579000060448201526064016102e5565b60008181526002830160205260408120819055610a948383611bf4565b6000611a8d6040518060800160405280600081526020016000815260200160008152602001600081525090565b828410611aa7576000611a9e61134b565b9150915061192b565b611ab18484612093565b600103611aff576000868581518110611acc57611acc612064565b602002602001015190508581600001511115611af1576000611aec61134b565b611af5565b6001815b925092505061192b565b60006002611b0d868661203b565b611b17919061212a565b9050600087611b27600184612093565b81518110611b3757611b37612064565b602002602001015190506000888381518110611b5557611b55612064565b6020026020010151905087826000015111158015611b735750805188105b15611b86575060019350915061192b9050565b80518810611ba657611b9a89898589611a60565b9450945050505061192b565b611b9a89898986611a60565b6000610a948383611c00565b6000610a948383611c18565b6000826000018281548110611be157611be1612064565b9060005260206000200154905092915050565b6000610a948383611c67565b60008181526001830160205260408120541515610a94565b6000818152600183016020526040812054611c5f57508154600181810184556000848152602080822090930184905584548482528286019093526040902091909155610663565b506000610663565b60008181526001830160205260408120548015611d50576000611c8b600183612093565b8554909150600090611c9f90600190612093565b9050818114611d04576000866000018281548110611cbf57611cbf612064565b9060005260206000200154905080876000018481548110611ce257611ce2612064565b6000918252602080832090910192909255918252600188019052604090208390555b8554869080611d1557611d1561216c565b600190038181906000526020600020016000905590558560010160008681526020019081526020016000206000905560019350505050610663565b6000915050610663565b80356001600160a01b0381168114611d7157600080fd5b919050565b80356001600160801b0381168114611d7157600080fd5b60008083601f840112611d9f57600080fd5b50813567ffffffffffffffff811115611db757600080fd5b6020830191508360208260051b8501011115610f1d57600080fd5b600080600080600080600060a0888a031215611ded57600080fd5b611df688611d5a565b9650611e0460208901611d5a565b9550611e1260408901611d76565b9450606088013567ffffffffffffffff80821115611e2f57600080fd5b611e3b8b838c01611d8d565b909650945060808a0135915080821115611e5457600080fd5b818a0191508a601f830112611e6857600080fd5b813581811115611e7757600080fd5b8b6020828501011115611e8957600080fd5b60208301945080935050505092959891949750929550565b600060208284031215611eb357600080fd5b610a9482611d5a565b602080825282518282018190526000919060409081850190868401855b82811015611f0757815180516001600160a01b03168552860151868501529284019290850190600101611ed9565b5091979650505050505050565b600080600060408486031215611f2957600080fd5b833567ffffffffffffffff811115611f4057600080fd5b611f4c86828701611d8d565b9094509250611f5f905060208501611d76565b90509250925092565b60005b83811015611f83578181015183820152602001611f6b565b50506000910152565b6020815260008251806020840152611fab816040850160208701611f68565b601f01601f19169190910160400192915050565b60008060408385031215611fd257600080fd5b611fdb83611d5a565b946020939093013593505050565b600080600060608486031215611ffe57600080fd5b61200784611d5a565b925061201560208501611d5a565b9150604084013590509250925092565b634e487b7160e01b600052601160045260246000fd5b8082018082111561066357610663612025565b634e487b7160e01b600052604160045260246000fd5b634e487b7160e01b600052603260045260246000fd5b60006001820161208c5761208c612025565b5060010190565b8181038181111561066357610663612025565b600083516120b8818460208801611f68565b8351908301906120cc818360208801611f68565b01949350505050565b80820182811260008312801582168215821617156120f5576120f5612025565b505092915050565b634e487b7160e01b600052602160045260246000fd5b808202811582820484141761066357610663612025565b60008261214757634e487b7160e01b600052601260045260246000fd5b500490565b8181036000831280158383131683831282161715610d3557610d35612025565b634e487b7160e01b600052603160045260246000fdfea2646970667358221220c5bd65586d3e71a2d9a40bbae48f9b1b80380349a4962117d434b063690b0cde64736f6c63430008110033","bytecodeSha1":"26fad5e04e36f33ad6f9d76819cbd8db80154d94","compiler":{"evm_version":"istanbul","optimizer":{"enabled":true,"runs":200},"version":"0.8.17+commit.8df45f5f"},"contractName":"FoundingMemberVault","language":"Solidity","natspec":{"kind":"dev","methods":{},"version":1},"opcodes":"PUSH1 0x80 PUSH1 0x40 MSTORE CALLVALUE DUP1 ISZERO PUSH2 0x10 JUMPI PUSH1 0x0 DUP1 REVERT JUMPDEST POP PUSH1 0x4 CALLDATASIZE LT PUSH2 0xB4 JUMPI PUSH1 0x0 CALLDATALOAD PUSH1 0xE0 SHR DUP1 PUSH4 0x8DA5CB5B GT PUSH2 0x71 JUMPI DUP1 PUSH4 0x8DA5CB5B EQ PUSH2 0x192 JUMPI DUP1 PUSH4 0x926F7327 EQ PUSH2 0x1D1 JUMPI DUP1 PUSH4 0x9F1ACF08 EQ PUSH2 0x1E4 JUMPI DUP1 PUSH4 0xCEAD0481 EQ PUSH2 0x1F7 JUMPI DUP1 PUSH4 0xDE1EC403 EQ PUSH2 0x20A JUMPI DUP1 PUSH4 0xE2FCF550 EQ PUSH2 0x21D JUMPI PUSH1 0x0 DUP1 REVERT JUMPDEST DUP1 PUSH4 0xDDF940D EQ PUSH2 0xB9 JUMPI DUP1 PUSH4 0x19AD0EBA EQ PUSH2 0xCE JUMPI DUP1 PUSH4 0x31CC13BA EQ PUSH2 0x11D JUMPI DUP1 PUSH4 0x344FF1D0 EQ PUSH2 0x13D JUMPI DUP1 PUSH4 0x71FBCCA5 EQ PUSH2 0x14F JUMPI DUP1 PUSH4 0x75BAF37F EQ PUSH2 0x162 JUMPI JUMPDEST PUSH1 0x0 DUP1 REVERT JUMPDEST PUSH2 0xCC PUSH2 0xC7 CALLDATASIZE PUSH1 0x4 PUSH2 0x1DD2 JUMP JUMPDEST PUSH2 0x230 JUMP JUMPDEST STOP JUMPDEST PUSH2 0xE1 PUSH2 0xDC CALLDATASIZE PUSH1 0x4 PUSH2 0x1EA1 JUMP JUMPDEST PUSH2 0x62D JUMP JUMPDEST PUSH1 0x40 MLOAD PUSH2 0x114 SWAP2 SWAP1 DUP2 MLOAD DUP2 MSTORE PUSH1 0x20 DUP1 DUP4 ADD MLOAD SWAP1 DUP3 ADD MSTORE PUSH1 0x40 DUP1 DUP4 ADD MLOAD SWAP1 DUP3 ADD MSTORE PUSH1 0x60 SWAP2 DUP3 ADD MLOAD SWAP2 DUP2 ADD SWAP2 SWAP1 SWAP2 MSTORE PUSH1 0x80 ADD SWAP1 JUMP JUMPDEST PUSH1 0x40 MLOAD DUP1 SWAP2 SUB SWAP1 RETURN JUMPDEST PUSH2 0x130 PUSH2 0x12B CALLDATASIZE PUSH1 0x4 PUSH2 0x1EA1 JUMP JUMPDEST PUSH2 0x669 JUMP JUMPDEST PUSH1 0x40 MLOAD PUSH2 0x114 SWAP2 SWAP1 PUSH2 0x1EBC JUMP JUMPDEST PUSH1 0x5 SLOAD JUMPDEST PUSH1 0x40 MLOAD SWAP1 DUP2 MSTORE PUSH1 0x20 ADD PUSH2 0x114 JUMP JUMPDEST PUSH2 0xCC PUSH2 0x15D CALLDATASIZE PUSH1 0x4 PUSH2 0x1F14 JUMP JUMPDEST PUSH2 0x764 JUMP JUMPDEST PUSH1 0x40 DUP1 MLOAD DUP1 DUP3 ADD DUP3 MSTORE PUSH1 0xE DUP2 MSTORE PUSH14 0x2337BAB73234B733A6B2B6B132B9 PUSH1 0x91 SHL PUSH1 0x20 DUP3 ADD MSTORE SWAP1 MLOAD PUSH2 0x114 SWAP2 SWAP1 PUSH2 0x1F8C JUMP JUMPDEST PUSH2 0x1B9 PUSH32 0x0 DUP2 JUMP JUMPDEST PUSH1 0x40 MLOAD PUSH1 0x1 PUSH1 0x1 PUSH1 0xA0 SHL SUB SWAP1 SWAP2 AND DUP2 MSTORE PUSH1 0x20 ADD PUSH2 0x114 JUMP JUMPDEST PUSH2 0xCC PUSH2 0x1DF CALLDATASIZE PUSH1 0x4 PUSH2 0x1FBF JUMP JUMPDEST PUSH2 0xA51 JUMP JUMPDEST PUSH2 0x141 PUSH2 0x1F2 CALLDATASIZE PUSH1 0x4 PUSH2 0x1EA1 JUMP JUMPDEST PUSH2 0xA60 JUMP JUMPDEST PUSH2 0xCC PUSH2 0x205 CALLDATASIZE PUSH1 0x4 PUSH2 0x1FE9 JUMP JUMPDEST PUSH2 0xA6C JUMP JUMPDEST PUSH2 0x141 PUSH2 0x218 CALLDATASIZE PUSH1 0x4 PUSH2 0x1FBF JUMP JUMPDEST PUSH2 0xA87 JUMP JUMPDEST PUSH2 0xCC PUSH2 0x22B CALLDATASIZE PUSH1 0x4 PUSH2 0x1FBF JUMP JUMPDEST PUSH2 0xA9B JUMP JUMPDEST PUSH8 0xDE0B6B3A7640000 DUP6 PUSH1 0x1 PUSH1 0x1 PUSH1 0x80 SHL SUB AND LT ISZERO DUP1 ISZERO PUSH2 0x263 JUMPI POP PUSH9 0x1158E460913D00000 DUP6 PUSH1 0x1 PUSH1 0x1 PUSH1 0x80 SHL SUB AND GT ISZERO JUMPDEST PUSH2 0x2EE JUMPI PUSH1 0x40 MLOAD PUSH3 0x461BCD PUSH1 0xE5 SHL DUP2 MSTORE PUSH1 0x20 PUSH1 0x4 DUP3 ADD MSTORE PUSH1 0x4B PUSH1 0x24 DUP3 ADD MSTORE PUSH32 0x6D756C7469706C696572206D7573742062652067726561746572206F72206571 PUSH1 0x44 DUP3 ADD MSTORE PUSH32 0x75616C207468616E203165313820616E64206C6F776572206F7220657175616C PUSH1 0x64 DUP3 ADD MSTORE PUSH11 0x40E8D0C2DC406460CA627 PUSH1 0xAB SHL PUSH1 0x84 DUP3 ADD MSTORE PUSH1 0xA4 ADD JUMPDEST PUSH1 0x40 MLOAD DUP1 SWAP2 SUB SWAP1 REVERT JUMPDEST PUSH1 0x0 PUSH2 0x3B1 PUSH32 0x0 DUP10 CALLER DUP11 DUP11 PUSH2 0x354 DUP12 DUP12 DUP1 DUP1 PUSH1 0x20 MUL PUSH1 0x20 ADD PUSH1 0x40 MLOAD SWAP1 DUP2 ADD PUSH1 0x40 MSTORE DUP1 SWAP4 SWAP3 SWAP2 SWAP1 DUP2 DUP2 MSTORE PUSH1 0x20 ADD DUP4 DUP4 PUSH1 0x20 MUL DUP1 DUP3 DUP5 CALLDATACOPY PUSH1 0x0 SWAP3 ADD SWAP2 SWAP1 SWAP2 MSTORE POP PUSH2 0xAA6 SWAP3 POP POP POP JUMP JUMPDEST PUSH1 0x40 DUP1 MLOAD PUSH1 0x20 DUP2 ADD SWAP8 SWAP1 SWAP8 MSTORE PUSH1 0x1 PUSH1 0x1 PUSH1 0xA0 SHL SUB SWAP6 DUP7 AND SWAP1 DUP8 ADD MSTORE SWAP3 DUP5 AND PUSH1 0x60 DUP7 ADD MSTORE SWAP3 AND PUSH1 0x80 DUP5 ADD MSTORE PUSH1 0x1 PUSH1 0x1 PUSH1 0x80 SHL SUB SWAP1 SWAP2 AND PUSH1 0xA0 DUP4 ADD MSTORE PUSH1 0xC0 DUP3 ADD MSTORE PUSH1 0xE0 ADD PUSH1 0x40 MLOAD PUSH1 0x20 DUP2 DUP4 SUB SUB DUP2 MSTORE SWAP1 PUSH1 0x40 MSTORE DUP1 MLOAD SWAP1 PUSH1 0x20 ADD KECCAK256 PUSH2 0xB34 JUMP JUMPDEST SWAP1 POP PUSH1 0x0 PUSH2 0x3F5 DUP3 DUP6 DUP6 DUP1 DUP1 PUSH1 0x1F ADD PUSH1 0x20 DUP1 SWAP2 DIV MUL PUSH1 0x20 ADD PUSH1 0x40 MLOAD SWAP1 DUP2 ADD PUSH1 0x40 MSTORE DUP1 SWAP4 SWAP3 SWAP2 SWAP1 DUP2 DUP2 MSTORE PUSH1 0x20 ADD DUP4 DUP4 DUP1 DUP3 DUP5 CALLDATACOPY PUSH1 0x0 SWAP3 ADD SWAP2 SWAP1 SWAP2 MSTORE POP PUSH2 0xB82 SWAP3 POP POP POP JUMP JUMPDEST SWAP1 POP DUP9 PUSH1 0x1 PUSH1 0x1 PUSH1 0xA0 SHL SUB AND DUP2 PUSH1 0x1 PUSH1 0x1 PUSH1 0xA0 SHL SUB AND EQ PUSH2 0x44C JUMPI PUSH1 0x40 MLOAD PUSH3 0x461BCD PUSH1 0xE5 SHL DUP2 MSTORE PUSH1 0x20 PUSH1 0x4 DUP3 ADD MSTORE PUSH1 0x11 PUSH1 0x24 DUP3 ADD MSTORE PUSH17 0x696E76616C6964207369676E6174757265 PUSH1 0x78 SHL PUSH1 0x44 DUP3 ADD MSTORE PUSH1 0x64 ADD PUSH2 0x2E5 JUMP JUMPDEST PUSH1 0x1 PUSH1 0x1 PUSH1 0xA0 SHL SUB DUP10 AND PUSH1 0x0 SWAP1 DUP2 MSTORE PUSH1 0x6 PUSH1 0x20 MSTORE PUSH1 0x40 SWAP1 KECCAK256 SLOAD PUSH1 0xFF AND ISZERO PUSH2 0x4AB JUMPI PUSH1 0x40 MLOAD PUSH3 0x461BCD PUSH1 0xE5 SHL DUP2 MSTORE PUSH1 0x20 PUSH1 0x4 DUP3 ADD MSTORE PUSH1 0x13 PUSH1 0x24 DUP3 ADD MSTORE PUSH19 0x13919508185B1C9958591E4818DB185A5B5959 PUSH1 0x6A SHL PUSH1 0x44 DUP3 ADD MSTORE PUSH1 0x64 ADD PUSH2 0x2E5 JUMP JUMPDEST PUSH1 0x40 MLOAD PUSH12 0xFFFFFFFFFFFFFFFFFFFFFFFF NOT PUSH1 0x60 DUP12 SWAP1 SHL AND PUSH1 0x20 DUP3 ADD MSTORE PUSH16 0xFFFFFFFFFFFFFFFFFFFFFFFFFFFFFFFF NOT PUSH1 0x80 DUP10 SWAP1 SHL AND PUSH1 0x34 DUP3 ADD MSTORE PUSH1 0x0 SWAP1 PUSH1 0x44 ADD PUSH1 0x40 MLOAD PUSH1 0x20 DUP2 DUP4 SUB SUB DUP2 MSTORE SWAP1 PUSH1 0x40 MSTORE DUP1 MLOAD SWAP1 PUSH1 0x20 ADD KECCAK256 SWAP1 POP PUSH2 0x544 DUP2 DUP9 DUP9 DUP1 DUP1 PUSH1 0x20 MUL PUSH1 0x20 ADD PUSH1 0x40 MLOAD SWAP1 DUP2 ADD PUSH1 0x40 MSTORE DUP1 SWAP4 SWAP3 SWAP2 SWAP1 DUP2 DUP2 MSTORE PUSH1 0x20 ADD DUP4 DUP4 PUSH1 0x20 MUL DUP1 DUP3 DUP5 CALLDATACOPY PUSH1 0x0 SWAP3 ADD SWAP2 SWAP1 SWAP2 MSTORE POP PUSH1 0x7 SWAP5 SWAP4 SWAP3 POP POP PUSH2 0xBA6 SWAP1 POP JUMP JUMPDEST PUSH2 0x580 JUMPI PUSH1 0x40 MLOAD PUSH3 0x461BCD PUSH1 0xE5 SHL DUP2 MSTORE PUSH1 0x20 PUSH1 0x4 DUP3 ADD MSTORE PUSH1 0xD PUSH1 0x24 DUP3 ADD MSTORE PUSH13 0x34B73B30B634B210383937B7B3 PUSH1 0x99 SHL PUSH1 0x44 DUP3 ADD MSTORE PUSH1 0x64 ADD PUSH2 0x2E5 JUMP JUMPDEST PUSH1 0x1 PUSH1 0x1 PUSH1 0xA0 SHL SUB DUP11 AND PUSH1 0x0 SWAP1 DUP2 MSTORE PUSH1 0x6 PUSH1 0x20 MSTORE PUSH1 0x40 DUP2 KECCAK256 DUP1 SLOAD PUSH1 0xFF NOT AND PUSH1 0x1 OR SWAP1 SSTORE PUSH2 0x5AD DUP2 CALLER PUSH2 0xC2E JUMP JUMPDEST SWAP1 POP PUSH2 0x5E5 CALLER PUSH8 0xDE0B6B3A7640000 DUP4 PUSH1 0x20 ADD MLOAD PUSH2 0x5CB SWAP2 SWAP1 PUSH2 0x203B JUMP JUMPDEST PUSH1 0x60 DUP5 ADD MLOAD PUSH1 0x0 SWAP3 SWAP2 SWAP1 PUSH1 0x1 PUSH1 0x1 PUSH1 0x80 SHL SUB DUP15 AND SWAP1 PUSH2 0xD3C JUMP JUMPDEST POP PUSH1 0x1 PUSH1 0x1 PUSH1 0xA0 SHL SUB DUP11 AND ISZERO DUP1 ISZERO SWAP1 PUSH2 0x607 JUMPI POP PUSH1 0x1 PUSH1 0x1 PUSH1 0xA0 SHL SUB DUP11 AND CALLER EQ ISZERO JUMPDEST ISZERO PUSH2 0x620 JUMPI PUSH2 0x620 CALLER DUP12 DUP12 PUSH1 0x1 PUSH1 0x1 PUSH1 0x80 SHL SUB AND PUSH2 0xE80 JUMP JUMPDEST POP POP POP POP POP POP POP POP POP POP POP JUMP JUMPDEST PUSH2 0x658 PUSH1 0x40 MLOAD DUP1 PUSH1 0x80 ADD PUSH1 0x40 MSTORE DUP1 PUSH1 0x0 DUP2 MSTORE PUSH1 0x20 ADD PUSH1 0x0 DUP2 MSTORE PUSH1 0x20 ADD PUSH1 0x0 DUP2 MSTORE PUSH1 0x20 ADD PUSH1 0x0 DUP2 MSTORE POP SWAP1 JUMP JUMPDEST PUSH2 0x663 PUSH1 0x0 DUP4 PUSH2 0xC2E JUMP JUMPDEST SWAP3 SWAP2 POP POP JUMP JUMPDEST PUSH1 0x1 PUSH1 0x1 PUSH1 0xA0 SHL SUB DUP2 AND PUSH1 0x0 SWAP1 DUP2 MSTORE PUSH1 0x4 PUSH1 0x20 MSTORE PUSH1 0x40 DUP2 KECCAK256 PUSH1 0x60 SWAP2 PUSH2 0x68D DUP3 PUSH2 0xEFB JUMP JUMPDEST SWAP1 POP DUP1 PUSH8 0xFFFFFFFFFFFFFFFF DUP2 GT ISZERO PUSH2 0x6A8 JUMPI PUSH2 0x6A8 PUSH2 0x204E JUMP JUMPDEST PUSH1 0x40 MLOAD SWAP1 DUP1 DUP3 MSTORE DUP1 PUSH1 0x20 MUL PUSH1 0x20 ADD DUP3 ADD PUSH1 0x40 MSTORE DUP1 ISZERO PUSH2 0x6ED JUMPI DUP2 PUSH1 0x20 ADD JUMPDEST PUSH1 0x40 DUP1 MLOAD DUP1 DUP3 ADD SWAP1 SWAP2 MSTORE PUSH1 0x0 DUP1 DUP3 MSTORE PUSH1 0x20 DUP3 ADD MSTORE DUP2 MSTORE PUSH1 0x20 ADD SWAP1 PUSH1 0x1 SWAP1 SUB SWAP1 DUP2 PUSH2 0x6C6 JUMPI SWAP1 POP JUMPDEST POP SWAP3 POP PUSH1 0x0 JUMPDEST DUP2 DUP2 LT ISZERO PUSH2 0x75C JUMPI PUSH1 0x0 DUP1 PUSH2 0x708 DUP6 DUP5 PUSH2 0xF06 JUMP JUMPDEST SWAP2 POP SWAP2 POP PUSH1 0x40 MLOAD DUP1 PUSH1 0x40 ADD PUSH1 0x40 MSTORE DUP1 DUP4 PUSH1 0x1 PUSH1 0x1 PUSH1 0xA0 SHL SUB AND DUP2 MSTORE PUSH1 0x20 ADD DUP3 DUP2 MSTORE POP DUP7 DUP5 DUP2 MLOAD DUP2 LT PUSH2 0x73C JUMPI PUSH2 0x73C PUSH2 0x2064 JUMP JUMPDEST PUSH1 0x20 MUL PUSH1 0x20 ADD ADD DUP2 SWAP1 MSTORE POP POP POP DUP1 DUP1 PUSH2 0x754 SWAP1 PUSH2 0x207A JUMP JUMPDEST SWAP2 POP POP PUSH2 0x6F3 JUMP JUMPDEST POP POP POP SWAP2 SWAP1 POP JUMP JUMPDEST CALLER PUSH1 0x1 PUSH1 0x1 PUSH1 0xA0 SHL SUB PUSH32 0x0 AND EQ PUSH2 0x7DE JUMPI PUSH1 0x40 MLOAD PUSH4 0xC55DDC97 PUSH1 0xE0 SHL DUP2 MSTORE CALLER PUSH1 0x4 DUP3 ADD MSTORE PUSH1 0x1 PUSH1 0x1 PUSH1 0xA0 SHL SUB PUSH32 0x0 AND PUSH1 0x24 DUP3 ADD MSTORE PUSH1 0x44 ADD PUSH2 0x2E5 JUMP JUMPDEST PUSH8 0xDE0B6B3A7640000 DUP2 PUSH1 0x1 PUSH1 0x1 PUSH1 0x80 SHL SUB AND LT ISZERO PUSH2 0x83F JUMPI PUSH1 0x40 MLOAD PUSH3 0x461BCD PUSH1 0xE5 SHL DUP2 MSTORE PUSH1 0x20 PUSH1 0x4 DUP3 ADD DUP2 SWAP1 MSTORE PUSH1 0x24 DUP3 ADD MSTORE PUSH32 0x6D756C7469706C6965722063616E6E6F74206265206C657373207468616E2031 PUSH1 0x44 DUP3 ADD MSTORE PUSH1 0x64 ADD PUSH2 0x2E5 JUMP JUMPDEST PUSH9 0x1158E460913D00000 DUP2 PUSH1 0x1 PUSH1 0x1 PUSH1 0x80 SHL SUB AND GT ISZERO PUSH2 0x8AB JUMPI PUSH1 0x40 MLOAD PUSH3 0x461BCD PUSH1 0xE5 SHL DUP2 MSTORE PUSH1 0x20 PUSH1 0x4 DUP3 ADD MSTORE PUSH1 0x21 PUSH1 0x24 DUP3 ADD MSTORE PUSH32 0x6D756C7469706C6965722063616E6E6F74206265206D6F7265207468616E2032 PUSH1 0x44 DUP3 ADD MSTORE PUSH1 0x3 PUSH1 0xFC SHL PUSH1 0x64 DUP3 ADD MSTORE PUSH1 0x84 ADD PUSH2 0x2E5 JUMP JUMPDEST PUSH1 0x0 JUMPDEST DUP3 DUP2 LT ISZERO PUSH2 0xA4B JUMPI PUSH1 0x0 PUSH2 0x8EA DUP6 DUP6 DUP5 DUP2 DUP2 LT PUSH2 0x8CD JUMPI PUSH2 0x8CD PUSH2 0x2064 JUMP JUMPDEST SWAP1 POP PUSH1 0x20 MUL ADD PUSH1 0x20 DUP2 ADD SWAP1 PUSH2 0x8E2 SWAP2 SWAP1 PUSH2 0x1EA1 JUMP JUMPDEST PUSH1 0x0 SWAP1 PUSH2 0xC2E JUMP JUMPDEST SWAP1 POP PUSH8 0xDE0B6B3A7640000 DUP2 PUSH1 0x20 ADD MLOAD LT ISZERO PUSH2 0x953 JUMPI PUSH1 0x40 MLOAD PUSH3 0x461BCD PUSH1 0xE5 SHL DUP2 MSTORE PUSH1 0x20 PUSH1 0x4 DUP3 ADD MSTORE PUSH1 0x22 PUSH1 0x24 DUP3 ADD MSTORE PUSH32 0x616C6C207573657273206D7573742068617665206174206C656173742031204E PUSH1 0x44 DUP3 ADD MSTORE PUSH2 0x1195 PUSH1 0xF2 SHL PUSH1 0x64 DUP3 ADD MSTORE PUSH1 0x84 ADD PUSH2 0x2E5 JUMP JUMPDEST DUP3 PUSH1 0x1 PUSH1 0x1 PUSH1 0x80 SHL SUB AND DUP2 PUSH1 0x40 ADD MLOAD LT PUSH2 0x9AF JUMPI PUSH1 0x40 MLOAD PUSH3 0x461BCD PUSH1 0xE5 SHL DUP2 MSTORE PUSH1 0x20 PUSH1 0x4 DUP3 ADD MSTORE PUSH1 0x1C PUSH1 0x24 DUP3 ADD MSTORE PUSH32 0x63616E6E6F7420646563726561736520766F74696E6720706F77657200000000 PUSH1 0x44 DUP3 ADD MSTORE PUSH1 0x64 ADD PUSH2 0x2E5 JUMP JUMPDEST PUSH1 0x0 PUSH2 0x9BA DUP3 PUSH2 0xF24 JUMP JUMPDEST SWAP1 POP PUSH1 0x0 PUSH2 0xA07 DUP8 DUP8 DUP7 DUP2 DUP2 LT PUSH2 0x9D3 JUMPI PUSH2 0x9D3 PUSH2 0x2064 JUMP JUMPDEST SWAP1 POP PUSH1 0x20 MUL ADD PUSH1 0x20 DUP2 ADD SWAP1 PUSH2 0x9E8 SWAP2 SWAP1 PUSH2 0x1EA1 JUMP JUMPDEST PUSH1 0x20 DUP6 ADD MLOAD PUSH1 0x60 DUP7 ADD MLOAD PUSH1 0x0 SWAP3 SWAP2 SWAP1 PUSH1 0x1 PUSH1 0x1 PUSH1 0x80 SHL SUB DUP11 AND SWAP1 PUSH2 0xD3C JUMP JUMPDEST SWAP1 POP DUP2 PUSH2 0xA13 DUP3 PUSH2 0xF24 JUMP JUMPDEST PUSH2 0xA1D SWAP2 SWAP1 PUSH2 0x2093 JUMP JUMPDEST PUSH1 0x5 PUSH1 0x0 DUP3 DUP3 SLOAD PUSH2 0xA2E SWAP2 SWAP1 PUSH2 0x203B JUMP JUMPDEST SWAP3 POP POP DUP2 SWAP1 SSTORE POP POP POP POP DUP1 DUP1 PUSH2 0xA43 SWAP1 PUSH2 0x207A JUMP JUMPDEST SWAP2 POP POP PUSH2 0x8AE JUMP JUMPDEST POP POP POP POP JUMP JUMPDEST PUSH2 0xA5C CALLER DUP4 DUP4 PUSH2 0xE80 JUMP JUMPDEST POP POP JUMP JUMPDEST PUSH1 0x0 PUSH2 0x663 DUP3 TIMESTAMP PUSH2 0xA87 JUMP JUMPDEST PUSH2 0xA77 CALLER DUP5 DUP4 PUSH2 0xF50 JUMP JUMPDEST PUSH2 0xA82 CALLER DUP4 DUP4 PUSH2 0xE80 JUMP JUMPDEST POP POP POP JUMP JUMPDEST PUSH1 0x0 PUSH2 0xA94 DUP2 DUP5 DUP5 PUSH2 0xFE4 JUMP JUMPDEST SWAP4 SWAP3 POP POP POP JUMP JUMPDEST PUSH2 0xA5C CALLER DUP4 DUP4 PUSH2 0xF50 JUMP JUMPDEST PUSH1 0x0 PUSH1 0x60 PUSH1 0x0 JUMPDEST DUP4 MLOAD DUP2 LT ISZERO PUSH2 0xB25 JUMPI DUP2 DUP5 DUP3 DUP2 MLOAD DUP2 LT PUSH2 0xAC9 JUMPI PUSH2 0xAC9 PUSH2 0x2064 JUMP JUMPDEST PUSH1 0x20 MUL PUSH1 0x20 ADD ADD MLOAD PUSH1 0x40 MLOAD PUSH1 0x20 ADD PUSH2 0xAE3 SWAP2 DUP2 MSTORE PUSH1 0x20 ADD SWAP1 JUMP JUMPDEST PUSH1 0x40 DUP1 MLOAD PUSH1 0x1F NOT DUP2 DUP5 SUB ADD DUP2 MSTORE SWAP1 DUP3 SWAP1 MSTORE PUSH2 0xB01 SWAP3 SWAP2 PUSH1 0x20 ADD PUSH2 0x20A6 JUMP JUMPDEST PUSH1 0x40 MLOAD PUSH1 0x20 DUP2 DUP4 SUB SUB DUP2 MSTORE SWAP1 PUSH1 0x40 MSTORE SWAP2 POP DUP1 DUP1 PUSH2 0xB1D SWAP1 PUSH2 0x207A JUMP JUMPDEST SWAP2 POP POP PUSH2 0xAAD JUMP JUMPDEST POP DUP1 MLOAD PUSH1 0x20 SWAP1 SWAP2 ADD KECCAK256 SWAP3 SWAP2 POP POP JUMP JUMPDEST PUSH1 0x0 PUSH2 0x663 PUSH2 0xB41 PUSH2 0x1095 JUMP JUMPDEST DUP4 PUSH1 0x40 MLOAD PUSH2 0x1901 PUSH1 0xF0 SHL PUSH1 0x20 DUP3 ADD MSTORE PUSH1 0x22 DUP2 ADD DUP4 SWAP1 MSTORE PUSH1 0x42 DUP2 ADD DUP3 SWAP1 MSTORE PUSH1 0x0 SWAP1 PUSH1 0x62 ADD PUSH1 0x40 MLOAD PUSH1 0x20 DUP2 DUP4 SUB SUB DUP2 MSTORE SWAP1 PUSH1 0x40 MSTORE DUP1 MLOAD SWAP1 PUSH1 0x20 ADD KECCAK256 SWAP1 POP SWAP3 SWAP2 POP POP JUMP JUMPDEST PUSH1 0x0 DUP1 PUSH1 0x0 PUSH2 0xB91 DUP6 DUP6 PUSH2 0x11BC JUMP JUMPDEST SWAP2 POP SWAP2 POP PUSH2 0xB9E DUP2 PUSH2 0x11FE JUMP JUMPDEST POP SWAP4 SWAP3 POP POP POP JUMP JUMPDEST PUSH1 0x0 DUP3 DUP2 JUMPDEST DUP4 MLOAD DUP2 LT ISZERO PUSH2 0xC21 JUMPI PUSH1 0x0 DUP1 DUP4 DUP7 DUP5 DUP2 MLOAD DUP2 LT PUSH2 0xBCA JUMPI PUSH2 0xBCA PUSH2 0x2064 JUMP JUMPDEST PUSH1 0x20 MUL PUSH1 0x20 ADD ADD MLOAD SWAP2 POP SWAP2 POP DUP1 DUP3 GT ISZERO PUSH2 0xBE0 JUMPI SWAP1 JUMPDEST PUSH1 0x40 DUP1 MLOAD PUSH1 0x20 DUP2 ADD DUP5 SWAP1 MSTORE SWAP1 DUP2 ADD DUP3 SWAP1 MSTORE PUSH1 0x60 ADD PUSH1 0x40 MLOAD PUSH1 0x20 DUP2 DUP4 SUB SUB DUP2 MSTORE SWAP1 PUSH1 0x40 MSTORE DUP1 MLOAD SWAP1 PUSH1 0x20 ADD KECCAK256 SWAP4 POP POP POP DUP1 DUP1 PUSH2 0xC19 SWAP1 PUSH2 0x207A JUMP JUMPDEST SWAP2 POP POP PUSH2 0xBAB JUMP JUMPDEST POP DUP5 SLOAD EQ SWAP1 POP SWAP4 SWAP3 POP POP POP JUMP JUMPDEST PUSH2 0xC59 PUSH1 0x40 MLOAD DUP1 PUSH1 0x80 ADD PUSH1 0x40 MSTORE DUP1 PUSH1 0x0 DUP2 MSTORE PUSH1 0x20 ADD PUSH1 0x0 DUP2 MSTORE PUSH1 0x20 ADD PUSH1 0x0 DUP2 MSTORE PUSH1 0x20 ADD PUSH1 0x0 DUP2 MSTORE POP SWAP1 JUMP JUMPDEST PUSH1 0x1 PUSH1 0x1 PUSH1 0xA0 SHL SUB DUP3 AND PUSH1 0x0 SWAP1 DUP2 MSTORE PUSH1 0x20 DUP5 DUP2 MSTORE PUSH1 0x40 DUP1 DUP4 KECCAK256 DUP1 SLOAD DUP3 MLOAD DUP2 DUP6 MUL DUP2 ADD DUP6 ADD SWAP1 SWAP4 MSTORE DUP1 DUP4 MSTORE SWAP2 SWAP3 SWAP1 SWAP2 SWAP1 DUP5 SWAP1 DUP5 ADD JUMPDEST DUP3 DUP3 LT ISZERO PUSH2 0xCE7 JUMPI DUP4 DUP3 SWAP1 PUSH1 0x0 MSTORE PUSH1 0x20 PUSH1 0x0 KECCAK256 SWAP1 PUSH1 0x4 MUL ADD PUSH1 0x40 MLOAD DUP1 PUSH1 0x80 ADD PUSH1 0x40 MSTORE SWAP1 DUP2 PUSH1 0x0 DUP3 ADD SLOAD DUP2 MSTORE PUSH1 0x20 ADD PUSH1 0x1 DUP3 ADD SLOAD DUP2 MSTORE PUSH1 0x20 ADD PUSH1 0x2 DUP3 ADD SLOAD DUP2 MSTORE PUSH1 0x20 ADD PUSH1 0x3 DUP3 ADD SLOAD DUP2 MSTORE POP POP DUP2 MSTORE PUSH1 0x20 ADD SWAP1 PUSH1 0x1 ADD SWAP1 PUSH2 0xC8D JUMP JUMPDEST POP POP POP POP SWAP1 POP DUP1 MLOAD PUSH1 0x0 SUB PUSH2 0xD06 JUMPI PUSH2 0xCFE PUSH2 0x134B JUMP JUMPDEST SWAP2 POP POP PUSH2 0x663 JUMP JUMPDEST DUP1 PUSH1 0x1 DUP3 MLOAD PUSH2 0xD15 SWAP2 SWAP1 PUSH2 0x2093 JUMP JUMPDEST DUP2 MLOAD DUP2 LT PUSH2 0xD25 JUMPI PUSH2 0xD25 PUSH2 0x2064 JUMP JUMPDEST PUSH1 0x20 MUL PUSH1 0x20 ADD ADD MLOAD SWAP2 POP POP PUSH2 0x663 JUMP JUMPDEST POP SWAP3 SWAP2 POP POP JUMP JUMPDEST PUSH2 0xD67 PUSH1 0x40 MLOAD DUP1 PUSH1 0x80 ADD PUSH1 0x40 MSTORE DUP1 PUSH1 0x0 DUP2 MSTORE PUSH1 0x20 ADD PUSH1 0x0 DUP2 MSTORE PUSH1 0x20 ADD PUSH1 0x0 DUP2 MSTORE PUSH1 0x20 ADD PUSH1 0x0 DUP2 MSTORE POP SWAP1 JUMP JUMPDEST PUSH1 0x1 PUSH1 0x1 PUSH1 0xA0 SHL SUB DUP6 AND PUSH1 0x0 SWAP1 DUP2 MSTORE PUSH1 0x20 DUP8 DUP2 MSTORE PUSH1 0x40 DUP1 DUP4 KECCAK256 DUP2 MLOAD PUSH1 0x80 DUP2 ADD DUP4 MSTORE TIMESTAMP DUP2 MSTORE SWAP3 DUP4 ADD DUP9 SWAP1 MSTORE SWAP1 DUP3 ADD DUP7 SWAP1 MSTORE PUSH1 0x60 DUP3 ADD DUP6 SWAP1 MSTORE SWAP2 PUSH2 0xDA9 DUP10 DUP10 PUSH2 0xC2E JUMP JUMPDEST DUP1 MLOAD SWAP1 SWAP2 POP TIMESTAMP EQ DUP1 ISZERO PUSH2 0xDBC JUMPI POP DUP3 SLOAD ISZERO ISZERO JUMPDEST ISZERO PUSH2 0xE21 JUMPI DUP3 SLOAD DUP3 SWAP1 DUP5 SWAP1 PUSH2 0xDD3 SWAP1 PUSH1 0x1 SWAP1 PUSH2 0x2093 JUMP JUMPDEST DUP2 SLOAD DUP2 LT PUSH2 0xDE3 JUMPI PUSH2 0xDE3 PUSH2 0x2064 JUMP JUMPDEST SWAP1 PUSH1 0x0 MSTORE PUSH1 0x20 PUSH1 0x0 KECCAK256 SWAP1 PUSH1 0x4 MUL ADD PUSH1 0x0 DUP3 ADD MLOAD DUP2 PUSH1 0x0 ADD SSTORE PUSH1 0x20 DUP3 ADD MLOAD DUP2 PUSH1 0x1 ADD SSTORE PUSH1 0x40 DUP3 ADD MLOAD DUP2 PUSH1 0x2 ADD SSTORE PUSH1 0x60 DUP3 ADD MLOAD DUP2 PUSH1 0x3 ADD SSTORE SWAP1 POP POP PUSH2 0xE74 JUMP JUMPDEST PUSH1 0x1 PUSH1 0x1 PUSH1 0xA0 SHL SUB DUP9 AND PUSH1 0x0 SWAP1 DUP2 MSTORE PUSH1 0x20 DUP11 DUP2 MSTORE PUSH1 0x40 DUP1 DUP4 KECCAK256 DUP1 SLOAD PUSH1 0x1 DUP2 DUP2 ADD DUP4 SSTORE SWAP2 DUP6 MSTORE SWAP4 DUP4 SWAP1 KECCAK256 DUP7 MLOAD PUSH1 0x4 SWAP1 SWAP6 MUL ADD SWAP4 DUP5 SSTORE SWAP2 DUP6 ADD MLOAD SWAP2 DUP4 ADD SWAP2 SWAP1 SWAP2 SSTORE DUP4 ADD MLOAD PUSH1 0x2 DUP3 ADD SSTORE PUSH1 0x60 DUP4 ADD MLOAD PUSH1 0x3 SWAP1 SWAP2 ADD SSTORE JUMPDEST POP SWAP8 SWAP7 POP POP POP POP POP POP POP JUMP JUMPDEST PUSH2 0xE8D PUSH1 0x0 DUP5 DUP5 DUP5 PUSH2 0x13A7 JUMP JUMPDEST PUSH1 0x1 PUSH1 0x1 PUSH1 0xA0 SHL SUB DUP4 AND PUSH1 0x0 SWAP1 DUP2 MSTORE PUSH1 0x4 PUSH1 0x20 MSTORE PUSH1 0x40 DUP2 KECCAK256 DUP2 SWAP1 PUSH2 0xEB1 SWAP1 DUP6 PUSH2 0x1592 JUMP JUMPDEST SWAP2 POP SWAP2 POP PUSH1 0x0 DUP3 PUSH2 0xEC2 JUMPI DUP4 PUSH2 0xECC JUMP JUMPDEST PUSH2 0xECC DUP5 DUP4 PUSH2 0x203B JUMP JUMPDEST PUSH1 0x1 PUSH1 0x1 PUSH1 0xA0 SHL SUB DUP8 AND PUSH1 0x0 SWAP1 DUP2 MSTORE PUSH1 0x4 PUSH1 0x20 MSTORE PUSH1 0x40 SWAP1 KECCAK256 SWAP1 SWAP2 POP PUSH2 0xEF2 SWAP1 DUP7 DUP4 PUSH2 0x15AA JUMP JUMPDEST POP POP POP POP POP POP POP JUMP JUMPDEST PUSH1 0x0 PUSH2 0x663 DUP3 PUSH2 0x15C8 JUMP JUMPDEST PUSH1 0x0 DUP1 DUP1 DUP1 PUSH2 0xF15 DUP7 DUP7 PUSH2 0x15D3 JUMP JUMPDEST SWAP1 SWAP5 POP SWAP3 POP POP POP JUMPDEST SWAP3 POP SWAP3 SWAP1 POP JUMP JUMPDEST PUSH1 0x0 DUP2 PUSH1 0x60 ADD MLOAD PUSH2 0xF46 DUP4 PUSH1 0x40 ADD MLOAD DUP5 PUSH1 0x20 ADD MLOAD PUSH2 0x15FE SWAP1 SWAP2 SWAP1 PUSH4 0xFFFFFFFF AND JUMP JUMPDEST PUSH2 0x663 SWAP2 SWAP1 PUSH2 0x20D5 JUMP JUMPDEST PUSH2 0xF5D PUSH1 0x0 DUP5 DUP5 DUP5 PUSH2 0x161D JUMP JUMPDEST PUSH1 0x1 PUSH1 0x1 PUSH1 0xA0 SHL SUB DUP4 AND PUSH1 0x0 SWAP1 DUP2 MSTORE PUSH1 0x4 PUSH1 0x20 MSTORE PUSH1 0x40 DUP2 KECCAK256 PUSH2 0xF7F SWAP1 DUP5 PUSH2 0x1800 JUMP JUMPDEST SWAP1 POP DUP2 DUP2 SUB PUSH2 0xFB0 JUMPI PUSH1 0x1 PUSH1 0x1 PUSH1 0xA0 SHL SUB DUP5 AND PUSH1 0x0 SWAP1 DUP2 MSTORE PUSH1 0x4 PUSH1 0x20 MSTORE PUSH1 0x40 SWAP1 KECCAK256 PUSH2 0xFAA SWAP1 DUP5 PUSH2 0x1815 JUMP JUMPDEST POP PUSH2 0xA4B JUMP JUMPDEST PUSH2 0xFDD DUP4 PUSH2 0xFBE DUP5 DUP5 PUSH2 0x2093 JUMP JUMPDEST PUSH1 0x1 PUSH1 0x1 PUSH1 0xA0 SHL SUB DUP8 AND PUSH1 0x0 SWAP1 DUP2 MSTORE PUSH1 0x4 PUSH1 0x20 MSTORE PUSH1 0x40 SWAP1 KECCAK256 SWAP2 SWAP1 PUSH2 0x15AA JUMP JUMPDEST POP POP POP POP POP JUMP JUMPDEST PUSH1 0x1 PUSH1 0x1 PUSH1 0xA0 SHL SUB DUP3 AND PUSH1 0x0 SWAP1 DUP2 MSTORE PUSH1 0x20 DUP5 DUP2 MSTORE PUSH1 0x40 DUP1 DUP4 KECCAK256 DUP1 SLOAD DUP3 MLOAD DUP2 DUP6 MUL DUP2 ADD DUP6 ADD SWAP1 SWAP4 MSTORE DUP1 DUP4 MSTORE DUP5 SWAP4 PUSH2 0x1080 SWAP4 SWAP3 SWAP2 SWAP1 DUP6 SWAP1 DUP5 ADD JUMPDEST DUP3 DUP3 LT ISZERO PUSH2 0x1076 JUMPI DUP4 DUP3 SWAP1 PUSH1 0x0 MSTORE PUSH1 0x20 PUSH1 0x0 KECCAK256 SWAP1 PUSH1 0x4 MUL ADD PUSH1 0x40 MLOAD DUP1 PUSH1 0x80 ADD PUSH1 0x40 MSTORE SWAP1 DUP2 PUSH1 0x0 DUP3 ADD SLOAD DUP2 MSTORE PUSH1 0x20 ADD PUSH1 0x1 DUP3 ADD SLOAD DUP2 MSTORE PUSH1 0x20 ADD PUSH1 0x2 DUP3 ADD SLOAD DUP2 MSTORE PUSH1 0x20 ADD PUSH1 0x3 DUP3 ADD SLOAD DUP2 MSTORE POP POP DUP2 MSTORE PUSH1 0x20 ADD SWAP1 PUSH1 0x1 ADD SWAP1 PUSH2 0x101C JUMP JUMPDEST POP POP POP POP DUP5 PUSH2 0x182A JUMP JUMPDEST SWAP2 POP POP PUSH2 0x108C DUP2 PUSH2 0xF24 JUMP JUMPDEST SWAP6 SWAP5 POP POP POP POP POP JUMP JUMPDEST PUSH1 0x0 ADDRESS PUSH1 0x1 PUSH1 0x1 PUSH1 0xA0 SHL SUB PUSH32 0x0 AND EQ DUP1 ISZERO PUSH2 0x10EE JUMPI POP PUSH32 0x0 CHAINID EQ JUMPDEST ISZERO PUSH2 0x1118 JUMPI POP PUSH32 0x0 SWAP1 JUMP JUMPDEST POP PUSH1 0x40 DUP1 MLOAD PUSH32 0x0 PUSH1 0x20 DUP1 DUP4 ADD SWAP2 SWAP1 SWAP2 MSTORE PUSH32 0x0 DUP3 DUP5 ADD MSTORE PUSH32 0x0 PUSH1 0x60 DUP4 ADD MSTORE CHAINID PUSH1 0x80 DUP4 ADD MSTORE ADDRESS PUSH1 0xA0 DUP1 DUP5 ADD SWAP2 SWAP1 SWAP2 MSTORE DUP4 MLOAD DUP1 DUP5 SUB SWAP1 SWAP2 ADD DUP2 MSTORE PUSH1 0xC0 SWAP1 SWAP3 ADD SWAP1 SWAP3 MSTORE DUP1 MLOAD SWAP2 ADD KECCAK256 SWAP1 JUMP JUMPDEST PUSH1 0x0 DUP1 DUP3 MLOAD PUSH1 0x41 SUB PUSH2 0x11F2 JUMPI PUSH1 0x20 DUP4 ADD MLOAD PUSH1 0x40 DUP5 ADD MLOAD PUSH1 0x60 DUP6 ADD MLOAD PUSH1 0x0 BYTE PUSH2 0x11E6 DUP8 DUP3 DUP6 DUP6 PUSH2 0x1870 JUMP JUMPDEST SWAP5 POP SWAP5 POP POP POP POP PUSH2 0xF1D JUMP JUMPDEST POP PUSH1 0x0 SWAP1 POP PUSH1 0x2 PUSH2 0xF1D JUMP JUMPDEST PUSH1 0x0 DUP2 PUSH1 0x4 DUP2 GT ISZERO PUSH2 0x1212 JUMPI PUSH2 0x1212 PUSH2 0x20FD JUMP JUMPDEST SUB PUSH2 0x121A JUMPI POP JUMP JUMPDEST PUSH1 0x1 DUP2 PUSH1 0x4 DUP2 GT ISZERO PUSH2 0x122E JUMPI PUSH2 0x122E PUSH2 0x20FD JUMP JUMPDEST SUB PUSH2 0x127B JUMPI PUSH1 0x40 MLOAD PUSH3 0x461BCD PUSH1 0xE5 SHL DUP2 MSTORE PUSH1 0x20 PUSH1 0x4 DUP3 ADD MSTORE PUSH1 0x18 PUSH1 0x24 DUP3 ADD MSTORE PUSH32 0x45434453413A20696E76616C6964207369676E61747572650000000000000000 PUSH1 0x44 DUP3 ADD MSTORE PUSH1 0x64 ADD PUSH2 0x2E5 JUMP JUMPDEST PUSH1 0x2 DUP2 PUSH1 0x4 DUP2 GT ISZERO PUSH2 0x128F JUMPI PUSH2 0x128F PUSH2 0x20FD JUMP JUMPDEST SUB PUSH2 0x12DC JUMPI PUSH1 0x40 MLOAD PUSH3 0x461BCD PUSH1 0xE5 SHL DUP2 MSTORE PUSH1 0x20 PUSH1 0x4 DUP3 ADD MSTORE PUSH1 0x1F PUSH1 0x24 DUP3 ADD MSTORE PUSH32 0x45434453413A20696E76616C6964207369676E6174757265206C656E67746800 PUSH1 0x44 DUP3 ADD MSTORE PUSH1 0x64 ADD PUSH2 0x2E5 JUMP JUMPDEST PUSH1 0x3 DUP2 PUSH1 0x4 DUP2 GT ISZERO PUSH2 0x12F0 JUMPI PUSH2 0x12F0 PUSH2 0x20FD JUMP JUMPDEST SUB PUSH2 0x1348 JUMPI PUSH1 0x40 MLOAD PUSH3 0x461BCD PUSH1 0xE5 SHL DUP2 MSTORE PUSH1 0x20 PUSH1 0x4 DUP3 ADD MSTORE PUSH1 0x22 PUSH1 0x24 DUP3 ADD MSTORE PUSH32 0x45434453413A20696E76616C6964207369676E6174757265202773272076616C PUSH1 0x44 DUP3 ADD MSTORE PUSH2 0x7565 PUSH1 0xF0 SHL PUSH1 0x64 DUP3 ADD MSTORE PUSH1 0x84 ADD PUSH2 0x2E5 JUMP JUMPDEST POP JUMP JUMPDEST PUSH2 0x1376 PUSH1 0x40 MLOAD DUP1 PUSH1 0x80 ADD PUSH1 0x40 MSTORE DUP1 PUSH1 0x0 DUP2 MSTORE PUSH1 0x20 ADD PUSH1 0x0 DUP2 MSTORE PUSH1 0x20 ADD PUSH1 0x0 DUP2 MSTORE PUSH1 0x20 ADD PUSH1 0x0 DUP2 MSTORE POP SWAP1 JUMP JUMPDEST PUSH1 0x40 MLOAD DUP1 PUSH1 0x80 ADD PUSH1 0x40 MSTORE DUP1 PUSH1 0x0 DUP2 MSTORE PUSH1 0x20 ADD PUSH1 0x0 DUP2 MSTORE PUSH1 0x20 ADD PUSH8 0xDE0B6B3A7640000 DUP2 MSTORE PUSH1 0x20 ADD PUSH1 0x0 DUP2 MSTORE POP SWAP1 POP SWAP1 JUMP JUMPDEST PUSH1 0x0 PUSH2 0x13B3 DUP6 DUP6 PUSH2 0xC2E JUMP JUMPDEST PUSH1 0x1 PUSH1 0x1 PUSH1 0xA0 SHL SUB DUP6 AND PUSH1 0x0 SWAP1 DUP2 MSTORE PUSH1 0x2 DUP8 ADD PUSH1 0x20 SWAP1 DUP2 MSTORE PUSH1 0x40 DUP1 DUP4 KECCAK256 SLOAD SWAP1 DUP5 ADD MLOAD SWAP2 DUP5 ADD MLOAD SWAP4 SWAP5 POP SWAP2 SWAP3 PUSH2 0x13E7 SWAP2 PUSH2 0x15FE JUMP JUMPDEST PUSH2 0x13F1 SWAP2 SWAP1 PUSH2 0x2093 JUMP JUMPDEST SWAP1 POP DUP3 DUP2 LT ISZERO PUSH2 0x1443 JUMPI PUSH1 0x40 MLOAD PUSH3 0x461BCD PUSH1 0xE5 SHL DUP2 MSTORE PUSH1 0x20 PUSH1 0x4 DUP3 ADD DUP2 SWAP1 MSTORE PUSH1 0x24 DUP3 ADD MSTORE PUSH32 0x696E73756666696369656E742062616C616E636520746F2064656C6567617465 PUSH1 0x44 DUP3 ADD MSTORE PUSH1 0x64 ADD PUSH2 0x2E5 JUMP JUMPDEST PUSH1 0x1 PUSH1 0x1 PUSH1 0xA0 SHL SUB DUP5 AND PUSH1 0x0 SWAP1 DUP2 MSTORE PUSH1 0x3 DUP8 ADD PUSH1 0x20 MSTORE PUSH1 0x40 DUP2 KECCAK256 DUP1 SLOAD DUP6 SWAP3 SWAP1 PUSH2 0x146D SWAP1 DUP5 SWAP1 PUSH2 0x203B JUMP JUMPDEST SWAP1 SWAP2 SSTORE POP POP PUSH1 0x1 PUSH1 0x1 PUSH1 0xA0 SHL SUB DUP6 AND PUSH1 0x0 SWAP1 DUP2 MSTORE PUSH1 0x2 DUP8 ADD PUSH1 0x20 MSTORE PUSH1 0x40 DUP2 KECCAK256 DUP1 SLOAD DUP6 SWAP3 SWAP1 PUSH2 0x149C SWAP1 DUP5 SWAP1 PUSH2 0x203B JUMP JUMPDEST SWAP1 SWAP2 SSTORE POP POP PUSH1 0x1 PUSH1 0x1 PUSH1 0xA0 SHL SUB DUP1 DUP7 AND PUSH1 0x0 SWAP1 DUP2 MSTORE PUSH1 0x1 DUP9 ADD PUSH1 0x20 SWAP1 DUP2 MSTORE PUSH1 0x40 DUP1 DUP4 KECCAK256 SWAP4 DUP9 AND DUP4 MSTORE SWAP3 SWAP1 MSTORE SWAP1 DUP2 KECCAK256 DUP1 SLOAD DUP6 SWAP3 SWAP1 PUSH2 0x14DA SWAP1 DUP5 SWAP1 PUSH2 0x203B JUMP JUMPDEST SWAP1 SWAP2 SSTORE POP POP PUSH1 0x20 DUP3 ADD MLOAD PUSH1 0x40 DUP4 ADD MLOAD PUSH2 0x1503 SWAP2 DUP8 SWAP2 PUSH2 0x14F9 DUP11 DUP5 PUSH2 0x1934 JUMP JUMPDEST DUP11 SWAP4 SWAP3 SWAP2 SWAP1 PUSH2 0xD3C JUMP JUMPDEST POP PUSH1 0x0 PUSH2 0x1510 DUP8 DUP7 PUSH2 0xC2E JUMP JUMPDEST SWAP1 POP PUSH2 0x153D DUP6 DUP3 PUSH1 0x20 ADD MLOAD DUP4 PUSH1 0x40 ADD MLOAD PUSH2 0x1533 DUP10 DUP13 PUSH2 0x1934 SWAP1 SWAP2 SWAP1 PUSH4 0xFFFFFFFF AND JUMP JUMPDEST DUP12 SWAP4 SWAP3 SWAP2 SWAP1 PUSH2 0xD3C JUMP JUMPDEST POP PUSH1 0x40 DUP1 MLOAD PUSH1 0x1 PUSH1 0x1 PUSH1 0xA0 SHL SUB DUP1 DUP10 AND DUP3 MSTORE DUP8 AND PUSH1 0x20 DUP3 ADD MSTORE SWAP1 DUP2 ADD DUP6 SWAP1 MSTORE PUSH32 0xFF825F9424124EFFC5CE1D9F4803D58EDE8A2BDA4DA2324810F74834715C4C59 SWAP1 PUSH1 0x60 ADD PUSH1 0x40 MLOAD DUP1 SWAP2 SUB SWAP1 LOG1 POP POP POP POP POP POP POP JUMP JUMPDEST PUSH1 0x0 DUP1 DUP1 DUP1 PUSH2 0xF15 DUP7 PUSH1 0x1 PUSH1 0x1 PUSH1 0xA0 SHL SUB DUP8 AND PUSH2 0x1966 JUMP JUMPDEST PUSH1 0x0 PUSH2 0x15C0 DUP5 PUSH1 0x1 PUSH1 0x1 PUSH1 0xA0 SHL SUB DUP6 AND DUP5 PUSH2 0x19A0 JUMP JUMPDEST SWAP5 SWAP4 POP POP POP POP JUMP JUMPDEST PUSH1 0x0 PUSH2 0x663 DUP3 PUSH2 0x19BD JUMP JUMPDEST PUSH1 0x0 DUP1 DUP1 PUSH2 0x15E1 DUP6 DUP6 PUSH2 0x19C7 JUMP JUMPDEST PUSH1 0x0 DUP2 DUP2 MSTORE PUSH1 0x2 SWAP7 SWAP1 SWAP7 ADD PUSH1 0x20 MSTORE PUSH1 0x40 SWAP1 SWAP6 KECCAK256 SLOAD SWAP5 SWAP6 SWAP4 POP POP POP POP JUMP JUMPDEST PUSH1 0x0 PUSH8 0xDE0B6B3A7640000 PUSH2 0x1613 DUP4 DUP6 PUSH2 0x2113 JUMP JUMPDEST PUSH2 0xA94 SWAP2 SWAP1 PUSH2 0x212A JUMP JUMPDEST PUSH1 0x1 PUSH1 0x1 PUSH1 0xA0 SHL SUB DUP1 DUP5 AND PUSH1 0x0 SWAP1 DUP2 MSTORE PUSH1 0x1 DUP7 ADD PUSH1 0x20 SWAP1 DUP2 MSTORE PUSH1 0x40 DUP1 DUP4 KECCAK256 SWAP4 DUP7 AND DUP4 MSTORE SWAP3 SWAP1 MSTORE KECCAK256 SLOAD DUP2 GT ISZERO PUSH2 0x16A6 JUMPI PUSH1 0x40 MLOAD PUSH3 0x461BCD PUSH1 0xE5 SHL DUP2 MSTORE PUSH1 0x20 PUSH1 0x4 DUP3 ADD MSTORE PUSH1 0x29 PUSH1 0x24 DUP3 ADD MSTORE PUSH32 0x7573657220686173206E6F742064656C65676174656420656E6F75676820746F PUSH1 0x44 DUP3 ADD MSTORE PUSH9 0x2064656C6567617465 PUSH1 0xB8 SHL PUSH1 0x64 DUP3 ADD MSTORE PUSH1 0x84 ADD PUSH2 0x2E5 JUMP JUMPDEST PUSH1 0x1 PUSH1 0x1 PUSH1 0xA0 SHL SUB DUP3 AND PUSH1 0x0 SWAP1 DUP2 MSTORE PUSH1 0x3 DUP6 ADD PUSH1 0x20 MSTORE PUSH1 0x40 DUP2 KECCAK256 DUP1 SLOAD DUP4 SWAP3 SWAP1 PUSH2 0x16D0 SWAP1 DUP5 SWAP1 PUSH2 0x2093 JUMP JUMPDEST SWAP1 SWAP2 SSTORE POP POP PUSH1 0x1 PUSH1 0x1 PUSH1 0xA0 SHL SUB DUP4 AND PUSH1 0x0 SWAP1 DUP2 MSTORE PUSH1 0x2 DUP6 ADD PUSH1 0x20 MSTORE PUSH1 0x40 DUP2 KECCAK256 DUP1 SLOAD DUP4 SWAP3 SWAP1 PUSH2 0x16FF SWAP1 DUP5 SWAP1 PUSH2 0x2093 JUMP JUMPDEST SWAP1 SWAP2 SSTORE POP POP PUSH1 0x1 PUSH1 0x1 PUSH1 0xA0 SHL SUB DUP1 DUP5 AND PUSH1 0x0 SWAP1 DUP2 MSTORE PUSH1 0x1 DUP7 ADD PUSH1 0x20 SWAP1 DUP2 MSTORE PUSH1 0x40 DUP1 DUP4 KECCAK256 SWAP4 DUP7 AND DUP4 MSTORE SWAP3 SWAP1 MSTORE SWAP1 DUP2 KECCAK256 DUP1 SLOAD DUP4 SWAP3 SWAP1 PUSH2 0x173D SWAP1 DUP5 SWAP1 PUSH2 0x2093 JUMP JUMPDEST SWAP1 SWAP2 SSTORE POP PUSH1 0x0 SWAP1 POP PUSH2 0x174F DUP6 DUP6 PUSH2 0xC2E JUMP JUMPDEST SWAP1 POP PUSH2 0x177C DUP5 DUP3 PUSH1 0x20 ADD MLOAD DUP4 PUSH1 0x40 ADD MLOAD PUSH2 0x1772 DUP9 DUP11 PUSH2 0x1934 SWAP1 SWAP2 SWAP1 PUSH4 0xFFFFFFFF AND JUMP JUMPDEST DUP10 SWAP4 SWAP3 SWAP2 SWAP1 PUSH2 0xD3C JUMP JUMPDEST POP PUSH1 0x0 PUSH2 0x1789 DUP7 DUP6 PUSH2 0xC2E JUMP JUMPDEST SWAP1 POP PUSH2 0x17AC DUP5 DUP3 PUSH1 0x20 ADD MLOAD DUP4 PUSH1 0x40 ADD MLOAD PUSH2 0x14F9 DUP9 DUP12 PUSH2 0x1934 SWAP1 SWAP2 SWAP1 PUSH4 0xFFFFFFFF AND JUMP JUMPDEST POP PUSH1 0x40 DUP1 MLOAD PUSH1 0x1 PUSH1 0x1 PUSH1 0xA0 SHL SUB DUP1 DUP9 AND DUP3 MSTORE DUP7 AND PUSH1 0x20 DUP3 ADD MSTORE SWAP1 DUP2 ADD DUP5 SWAP1 MSTORE PUSH32 0xDE5AA493A93D4351631C1991A0AEECFD52D6B51CF1B61F1A3C48F97E26808653 SWAP1 PUSH1 0x60 ADD PUSH1 0x40 MLOAD DUP1 SWAP2 SUB SWAP1 LOG1 POP POP POP POP POP POP JUMP JUMPDEST PUSH1 0x0 PUSH2 0xA94 DUP4 PUSH1 0x1 PUSH1 0x1 PUSH1 0xA0 SHL SUB DUP5 AND PUSH2 0x19D3 JUMP JUMPDEST PUSH1 0x0 PUSH2 0xA94 DUP4 PUSH1 0x1 PUSH1 0x1 PUSH1 0xA0 SHL SUB DUP5 AND PUSH2 0x1A43 JUMP JUMPDEST PUSH1 0x0 PUSH2 0x1857 PUSH1 0x40 MLOAD DUP1 PUSH1 0x80 ADD PUSH1 0x40 MSTORE DUP1 PUSH1 0x0 DUP2 MSTORE PUSH1 0x20 ADD PUSH1 0x0 DUP2 MSTORE PUSH1 0x20 ADD PUSH1 0x0 DUP2 MSTORE PUSH1 0x20 ADD PUSH1 0x0 DUP2 MSTORE POP SWAP1 JUMP JUMPDEST PUSH2 0x1865 DUP5 DUP5 PUSH1 0x0 DUP8 MLOAD PUSH2 0x1A60 JUMP JUMPDEST SWAP2 POP SWAP2 POP SWAP3 POP SWAP3 SWAP1 POP JUMP JUMPDEST PUSH1 0x0 DUP1 PUSH32 0x7FFFFFFFFFFFFFFFFFFFFFFFFFFFFFFF5D576E7357A4501DDFE92F46681B20A0 DUP4 GT ISZERO PUSH2 0x18A7 JUMPI POP PUSH1 0x0 SWAP1 POP PUSH1 0x3 PUSH2 0x192B JUMP JUMPDEST PUSH1 0x40 DUP1 MLOAD PUSH1 0x0 DUP1 DUP3 MSTORE PUSH1 0x20 DUP3 ADD DUP1 DUP5 MSTORE DUP10 SWAP1 MSTORE PUSH1 0xFF DUP9 AND SWAP3 DUP3 ADD SWAP3 SWAP1 SWAP3 MSTORE PUSH1 0x60 DUP2 ADD DUP7 SWAP1 MSTORE PUSH1 0x80 DUP2 ADD DUP6 SWAP1 MSTORE PUSH1 0x1 SWAP1 PUSH1 0xA0 ADD PUSH1 0x20 PUSH1 0x40 MLOAD PUSH1 0x20 DUP2 SUB SWAP1 DUP1 DUP5 SUB SWAP1 DUP6 GAS STATICCALL ISZERO DUP1 ISZERO PUSH2 0x18FB JUMPI RETURNDATASIZE PUSH1 0x0 DUP1 RETURNDATACOPY RETURNDATASIZE PUSH1 0x0 REVERT JUMPDEST POP POP PUSH1 0x40 MLOAD PUSH1 0x1F NOT ADD MLOAD SWAP2 POP POP PUSH1 0x1 PUSH1 0x1 PUSH1 0xA0 SHL SUB DUP2 AND PUSH2 0x1924 JUMPI PUSH1 0x0 PUSH1 0x1 SWAP3 POP SWAP3 POP POP PUSH2 0x192B JUMP JUMPDEST SWAP2 POP PUSH1 0x0 SWAP1 POP JUMPDEST SWAP5 POP SWAP5 SWAP3 POP POP POP JUMP JUMPDEST PUSH1 0x1 PUSH1 0x1 PUSH1 0xA0 SHL SUB DUP2 AND PUSH1 0x0 SWAP1 DUP2 MSTORE PUSH1 0x2 DUP4 ADD PUSH1 0x20 SWAP1 DUP2 MSTORE PUSH1 0x40 DUP1 DUP4 KECCAK256 SLOAD PUSH1 0x3 DUP7 ADD SWAP1 SWAP3 MSTORE DUP3 KECCAK256 SLOAD PUSH2 0xA94 SWAP2 SWAP1 PUSH2 0x214C JUMP JUMPDEST PUSH1 0x0 DUP2 DUP2 MSTORE PUSH1 0x2 DUP4 ADD PUSH1 0x20 MSTORE PUSH1 0x40 DUP2 KECCAK256 SLOAD DUP2 SWAP1 DUP1 PUSH2 0x1995 JUMPI PUSH2 0x1988 DUP6 DUP6 PUSH2 0x1BB2 JUMP JUMPDEST SWAP3 POP PUSH1 0x0 SWAP2 POP PUSH2 0xF1D SWAP1 POP JUMP JUMPDEST PUSH1 0x1 SWAP3 POP SWAP1 POP PUSH2 0xF1D JUMP JUMPDEST PUSH1 0x0 DUP3 DUP2 MSTORE PUSH1 0x2 DUP5 ADD PUSH1 0x20 MSTORE PUSH1 0x40 DUP2 KECCAK256 DUP3 SWAP1 SSTORE PUSH2 0x15C0 DUP5 DUP5 PUSH2 0x1BBE JUMP JUMPDEST PUSH1 0x0 PUSH2 0x663 DUP3 SLOAD SWAP1 JUMP JUMPDEST PUSH1 0x0 PUSH2 0xA94 DUP4 DUP4 PUSH2 0x1BCA JUMP JUMPDEST PUSH1 0x0 DUP2 DUP2 MSTORE PUSH1 0x2 DUP4 ADD PUSH1 0x20 MSTORE PUSH1 0x40 DUP2 KECCAK256 SLOAD DUP1 ISZERO ISZERO DUP1 PUSH2 0x19F7 JUMPI POP PUSH2 0x19F7 DUP5 DUP5 PUSH2 0x1BB2 JUMP JUMPDEST PUSH2 0xA94 JUMPI PUSH1 0x40 MLOAD PUSH3 0x461BCD PUSH1 0xE5 SHL DUP2 MSTORE PUSH1 0x20 PUSH1 0x4 DUP3 ADD MSTORE PUSH1 0x1E PUSH1 0x24 DUP3 ADD MSTORE PUSH32 0x456E756D657261626C654D61703A206E6F6E6578697374656E74206B65790000 PUSH1 0x44 DUP3 ADD MSTORE PUSH1 0x64 ADD PUSH2 0x2E5 JUMP JUMPDEST PUSH1 0x0 DUP2 DUP2 MSTORE PUSH1 0x2 DUP4 ADD PUSH1 0x20 MSTORE PUSH1 0x40 DUP2 KECCAK256 DUP2 SWAP1 SSTORE PUSH2 0xA94 DUP4 DUP4 PUSH2 0x1BF4 JUMP JUMPDEST PUSH1 0x0 PUSH2 0x1A8D PUSH1 0x40 MLOAD DUP1 PUSH1 0x80 ADD PUSH1 0x40 MSTORE DUP1 PUSH1 0x0 DUP2 MSTORE PUSH1 0x20 ADD PUSH1 0x0 DUP2 MSTORE PUSH1 0x20 ADD PUSH1 0x0 DUP2 MSTORE PUSH1 0x20 ADD PUSH1 0x0 DUP2 MSTORE POP SWAP1 JUMP JUMPDEST DUP3 DUP5 LT PUSH2 0x1AA7 JUMPI PUSH1 0x0 PUSH2 0x1A9E PUSH2 0x134B JUMP JUMPDEST SWAP2 POP SWAP2 POP PUSH2 0x192B JUMP JUMPDEST PUSH2 0x1AB1 DUP5 DUP5 PUSH2 0x2093 JUMP JUMPDEST PUSH1 0x1 SUB PUSH2 0x1AFF JUMPI PUSH1 0x0 DUP7 DUP6 DUP2 MLOAD DUP2 LT PUSH2 0x1ACC JUMPI PUSH2 0x1ACC PUSH2 0x2064 JUMP JUMPDEST PUSH1 0x20 MUL PUSH1 0x20 ADD ADD MLOAD SWAP1 POP DUP6 DUP2 PUSH1 0x0 ADD MLOAD GT ISZERO PUSH2 0x1AF1 JUMPI PUSH1 0x0 PUSH2 0x1AEC PUSH2 0x134B JUMP JUMPDEST PUSH2 0x1AF5 JUMP JUMPDEST PUSH1 0x1 DUP2 JUMPDEST SWAP3 POP SWAP3 POP POP PUSH2 0x192B JUMP JUMPDEST PUSH1 0x0 PUSH1 0x2 PUSH2 0x1B0D DUP7 DUP7 PUSH2 0x203B JUMP JUMPDEST PUSH2 0x1B17 SWAP2 SWAP1 PUSH2 0x212A JUMP JUMPDEST SWAP1 POP PUSH1 0x0 DUP8 PUSH2 0x1B27 PUSH1 0x1 DUP5 PUSH2 0x2093 JUMP JUMPDEST DUP2 MLOAD DUP2 LT PUSH2 0x1B37 JUMPI PUSH2 0x1B37 PUSH2 0x2064 JUMP JUMPDEST PUSH1 0x20 MUL PUSH1 0x20 ADD ADD MLOAD SWAP1 POP PUSH1 0x0 DUP9 DUP4 DUP2 MLOAD DUP2 LT PUSH2 0x1B55 JUMPI PUSH2 0x1B55 PUSH2 0x2064 JUMP JUMPDEST PUSH1 0x20 MUL PUSH1 0x20 ADD ADD MLOAD SWAP1 POP DUP8 DUP3 PUSH1 0x0 ADD MLOAD GT ISZERO DUP1 ISZERO PUSH2 0x1B73 JUMPI POP DUP1 MLOAD DUP9 LT JUMPDEST ISZERO PUSH2 0x1B86 JUMPI POP PUSH1 0x1 SWAP4 POP SWAP2 POP PUSH2 0x192B SWAP1 POP JUMP JUMPDEST DUP1 MLOAD DUP9 LT PUSH2 0x1BA6 JUMPI PUSH2 0x1B9A DUP10 DUP10 DUP6 DUP10 PUSH2 0x1A60 JUMP JUMPDEST SWAP5 POP SWAP5 POP POP POP POP PUSH2 0x192B JUMP JUMPDEST PUSH2 0x1B9A DUP10 DUP10 DUP10 DUP7 PUSH2 0x1A60 JUMP JUMPDEST PUSH1 0x0 PUSH2 0xA94 DUP4 DUP4 PUSH2 0x1C00 JUMP JUMPDEST PUSH1 0x0 PUSH2 0xA94 DUP4 DUP4 PUSH2 0x1C18 JUMP JUMPDEST PUSH1 0x0 DUP3 PUSH1 0x0 ADD DUP3 DUP2 SLOAD DUP2 LT PUSH2 0x1BE1 JUMPI PUSH2 0x1BE1 PUSH2 0x2064 JUMP JUMPDEST SWAP1 PUSH1 0x0 MSTORE PUSH1 0x20 PUSH1 0x0 KECCAK256 ADD SLOAD SWAP1 POP SWAP3 SWAP2 POP POP JUMP JUMPDEST PUSH1 0x0 PUSH2 0xA94 DUP4 DUP4 PUSH2 0x1C67 JUMP JUMPDEST PUSH1 0x0 DUP2 DUP2 MSTORE PUSH1 0x1 DUP4 ADD PUSH1 0x20 MSTORE PUSH1 0x40 DUP2 KECCAK256 SLOAD ISZERO ISZERO PUSH2 0xA94 JUMP JUMPDEST PUSH1 0x0 DUP2 DUP2 MSTORE PUSH1 0x1 DUP4 ADD PUSH1 0x20 MSTORE PUSH1 0x40 DUP2 KECCAK256 SLOAD PUSH2 0x1C5F JUMPI POP DUP2 SLOAD PUSH1 0x1 DUP2 DUP2 ADD DUP5 SSTORE PUSH1 0x0 DUP5 DUP2 MSTORE PUSH1 0x20 DUP1 DUP3 KECCAK256 SWAP1 SWAP4 ADD DUP5 SWAP1 SSTORE DUP5 SLOAD DUP5 DUP3 MSTORE DUP3 DUP7 ADD SWAP1 SWAP4 MSTORE PUSH1 0x40 SWAP1 KECCAK256 SWAP2 SWAP1 SWAP2 SSTORE PUSH2 0x663 JUMP JUMPDEST POP PUSH1 0x0 PUSH2 0x663 JUMP JUMPDEST PUSH1 0x0 DUP2 DUP2 MSTORE PUSH1 0x1 DUP4 ADD PUSH1 0x20 MSTORE PUSH1 0x40 DUP2 KECCAK256 SLOAD DUP1 ISZERO PUSH2 0x1D50 JUMPI PUSH1 0x0 PUSH2 0x1C8B PUSH1 0x1 DUP4 PUSH2 0x2093 JUMP JUMPDEST DUP6 SLOAD SWAP1 SWAP2 POP PUSH1 0x0 SWAP1 PUSH2 0x1C9F SWAP1 PUSH1 0x1 SWAP1 PUSH2 0x2093 JUMP JUMPDEST SWAP1 POP DUP2 DUP2 EQ PUSH2 0x1D04 JUMPI PUSH1 0x0 DUP7 PUSH1 0x0 ADD DUP3 DUP2 SLOAD DUP2 LT PUSH2 0x1CBF JUMPI PUSH2 0x1CBF PUSH2 0x2064 JUMP JUMPDEST SWAP1 PUSH1 0x0 MSTORE PUSH1 0x20 PUSH1 0x0 KECCAK256 ADD SLOAD SWAP1 POP DUP1 DUP8 PUSH1 0x0 ADD DUP5 DUP2 SLOAD DUP2 LT PUSH2 0x1CE2 JUMPI PUSH2 0x1CE2 PUSH2 0x2064 JUMP JUMPDEST PUSH1 0x0 SWAP2 DUP3 MSTORE PUSH1 0x20 DUP1 DUP4 KECCAK256 SWAP1 SWAP2 ADD SWAP3 SWAP1 SWAP3 SSTORE SWAP2 DUP3 MSTORE PUSH1 0x1 DUP9 ADD SWAP1 MSTORE PUSH1 0x40 SWAP1 KECCAK256 DUP4 SWAP1 SSTORE JUMPDEST DUP6 SLOAD DUP7 SWAP1 DUP1 PUSH2 0x1D15 JUMPI PUSH2 0x1D15 PUSH2 0x216C JUMP JUMPDEST PUSH1 0x1 SWAP1 SUB DUP2 DUP2 SWAP1 PUSH1 0x0 MSTORE PUSH1 0x20 PUSH1 0x0 KECCAK256 ADD PUSH1 0x0 SWAP1 SSTORE SWAP1 SSTORE DUP6 PUSH1 0x1 ADD PUSH1 0x0 DUP7 DUP2 MSTORE PUSH1 0x20 ADD SWAP1 DUP2 MSTORE PUSH1 0x20 ADD PUSH1 0x0 KECCAK256 PUSH1 0x0 SWAP1 SSTORE PUSH1 0x1 SWAP4 POP POP POP POP PUSH2 0x663 JUMP JUMPDEST PUSH1 0x0 SWAP2 POP POP PUSH2 0x663 JUMP JUMPDEST DUP1 CALLDATALOAD PUSH1 0x1 PUSH1 0x1 PUSH1 0xA0 SHL SUB DUP2 AND DUP2 EQ PUSH2 0x1D71 JUMPI PUSH1 0x0 DUP1 REVERT JUMPDEST SWAP2 SWAP1 POP JUMP JUMPDEST DUP1 CALLDATALOAD PUSH1 0x1 PUSH1 0x1 PUSH1 0x80 SHL SUB DUP2 AND DUP2 EQ PUSH2 0x1D71 JUMPI PUSH1 0x0 DUP1 REVERT JUMPDEST PUSH1 0x0 DUP1 DUP4 PUSH1 0x1F DUP5 ADD SLT PUSH2 0x1D9F JUMPI PUSH1 0x0 DUP1 REVERT JUMPDEST POP DUP2 CALLDATALOAD PUSH8 0xFFFFFFFFFFFFFFFF DUP2 GT ISZERO PUSH2 0x1DB7 JUMPI PUSH1 0x0 DUP1 REVERT JUMPDEST PUSH1 0x20 DUP4 ADD SWAP2 POP DUP4 PUSH1 0x20 DUP3 PUSH1 0x5 SHL DUP6 ADD ADD GT ISZERO PUSH2 0xF1D JUMPI PUSH1 0x0 DUP1 REVERT JUMPDEST PUSH1 0x0 DUP1 PUSH1 0x0 DUP1 PUSH1 0x0 DUP1 PUSH1 0x0 PUSH1 0xA0 DUP9 DUP11 SUB SLT ISZERO PUSH2 0x1DED JUMPI PUSH1 0x0 DUP1 REVERT JUMPDEST PUSH2 0x1DF6 DUP9 PUSH2 0x1D5A JUMP JUMPDEST SWAP7 POP PUSH2 0x1E04 PUSH1 0x20 DUP10 ADD PUSH2 0x1D5A JUMP JUMPDEST SWAP6 POP PUSH2 0x1E12 PUSH1 0x40 DUP10 ADD PUSH2 0x1D76 JUMP JUMPDEST SWAP5 POP PUSH1 0x60 DUP9 ADD CALLDATALOAD PUSH8 0xFFFFFFFFFFFFFFFF DUP1 DUP3 GT ISZERO PUSH2 0x1E2F JUMPI PUSH1 0x0 DUP1 REVERT JUMPDEST PUSH2 0x1E3B DUP12 DUP4 DUP13 ADD PUSH2 0x1D8D JUMP JUMPDEST SWAP1 SWAP7 POP SWAP5 POP PUSH1 0x80 DUP11 ADD CALLDATALOAD SWAP2 POP DUP1 DUP3 GT ISZERO PUSH2 0x1E54 JUMPI PUSH1 0x0 DUP1 REVERT JUMPDEST DUP2 DUP11 ADD SWAP2 POP DUP11 PUSH1 0x1F DUP4 ADD SLT PUSH2 0x1E68 JUMPI PUSH1 0x0 DUP1 REVERT JUMPDEST DUP2 CALLDATALOAD DUP2 DUP2 GT ISZERO PUSH2 0x1E77 JUMPI PUSH1 0x0 DUP1 REVERT JUMPDEST DUP12 PUSH1 0x20 DUP3 DUP6 ADD ADD GT ISZERO PUSH2 0x1E89 JUMPI PUSH1 0x0 DUP1 REVERT JUMPDEST PUSH1 0x20 DUP4 ADD SWAP5 POP DUP1 SWAP4 POP POP POP POP SWAP3 SWAP6 SWAP9 SWAP2 SWAP5 SWAP8 POP SWAP3 SWAP6 POP JUMP JUMPDEST PUSH1 0x0 PUSH1 0x20 DUP3 DUP5 SUB SLT ISZERO PUSH2 0x1EB3 JUMPI PUSH1 0x0 DUP1 REVERT JUMPDEST PUSH2 0xA94 DUP3 PUSH2 0x1D5A JUMP JUMPDEST PUSH1 0x20 DUP1 DUP3 MSTORE DUP3 MLOAD DUP3 DUP3 ADD DUP2 SWAP1 MSTORE PUSH1 0x0 SWAP2 SWAP1 PUSH1 0x40 SWAP1 DUP2 DUP6 ADD SWAP1 DUP7 DUP5 ADD DUP6 JUMPDEST DUP3 DUP2 LT ISZERO PUSH2 0x1F07 JUMPI DUP2 MLOAD DUP1 MLOAD PUSH1 0x1 PUSH1 0x1 PUSH1 0xA0 SHL SUB AND DUP6 MSTORE DUP7 ADD MLOAD DUP7 DUP6 ADD MSTORE SWAP3 DUP5 ADD SWAP3 SWAP1 DUP6 ADD SWAP1 PUSH1 0x1 ADD PUSH2 0x1ED9 JUMP JUMPDEST POP SWAP2 SWAP8 SWAP7 POP POP POP POP POP POP POP JUMP JUMPDEST PUSH1 0x0 DUP1 PUSH1 0x0 PUSH1 0x40 DUP5 DUP7 SUB SLT ISZERO PUSH2 0x1F29 JUMPI PUSH1 0x0 DUP1 REVERT JUMPDEST DUP4 CALLDATALOAD PUSH8 0xFFFFFFFFFFFFFFFF DUP2 GT ISZERO PUSH2 0x1F40 JUMPI PUSH1 0x0 DUP1 REVERT JUMPDEST PUSH2 0x1F4C DUP7 DUP3 DUP8 ADD PUSH2 0x1D8D JUMP JUMPDEST SWAP1 SWAP5 POP SWAP3 POP PUSH2 0x1F5F SWAP1 POP PUSH1 0x20 DUP6 ADD PUSH2 0x1D76 JUMP JUMPDEST SWAP1 POP SWAP3 POP SWAP3 POP SWAP3 JUMP JUMPDEST PUSH1 0x0 JUMPDEST DUP4 DUP2 LT ISZERO PUSH2 0x1F83 JUMPI DUP2 DUP2 ADD MLOAD DUP4 DUP3 ADD MSTORE PUSH1 0x20 ADD PUSH2 0x1F6B JUMP JUMPDEST POP POP PUSH1 0x0 SWAP2 ADD MSTORE JUMP JUMPDEST PUSH1 0x20 DUP2 MSTORE PUSH1 0x0 DUP3 MLOAD DUP1 PUSH1 0x20 DUP5 ADD MSTORE PUSH2 0x1FAB DUP2 PUSH1 0x40 DUP6 ADD PUSH1 0x20 DUP8 ADD PUSH2 0x1F68 JUMP JUMPDEST PUSH1 0x1F ADD PUSH1 0x1F NOT AND SWAP2 SWAP1 SWAP2 ADD PUSH1 0x40 ADD SWAP3 SWAP2 POP POP JUMP JUMPDEST PUSH1 0x0 DUP1 PUSH1 0x40 DUP4 DUP6 SUB SLT ISZERO PUSH2 0x1FD2 JUMPI PUSH1 0x0 DUP1 REVERT JUMPDEST PUSH2 0x1FDB DUP4 PUSH2 0x1D5A JUMP JUMPDEST SWAP5 PUSH1 0x20 SWAP4 SWAP1 SWAP4 ADD CALLDATALOAD SWAP4 POP POP POP JUMP JUMPDEST PUSH1 0x0 DUP1 PUSH1 0x0 PUSH1 0x60 DUP5 DUP7 SUB SLT ISZERO PUSH2 0x1FFE JUMPI PUSH1 0x0 DUP1 REVERT JUMPDEST PUSH2 0x2007 DUP5 PUSH2 0x1D5A JUMP JUMPDEST SWAP3 POP PUSH2 0x2015 PUSH1 0x20 DUP6 ADD PUSH2 0x1D5A JUMP JUMPDEST SWAP2 POP PUSH1 0x40 DUP5 ADD CALLDATALOAD SWAP1 POP SWAP3 POP SWAP3 POP SWAP3 JUMP JUMPDEST PUSH4 0x4E487B71 PUSH1 0xE0 SHL PUSH1 0x0 MSTORE PUSH1 0x11 PUSH1 0x4 MSTORE PUSH1 0x24 PUSH1 0x0 REVERT JUMPDEST DUP1 DUP3 ADD DUP1 DUP3 GT ISZERO PUSH2 0x663 JUMPI PUSH2 0x663 PUSH2 0x2025 JUMP JUMPDEST PUSH4 0x4E487B71 PUSH1 0xE0 SHL PUSH1 0x0 MSTORE PUSH1 0x41 PUSH1 0x4 MSTORE PUSH1 0x24 PUSH1 0x0 REVERT JUMPDEST PUSH4 0x4E487B71 PUSH1 0xE0 SHL PUSH1 0x0 MSTORE PUSH1 0x32 PUSH1 0x4 MSTORE PUSH1 0x24 PUSH1 0x0 REVERT JUMPDEST PUSH1 0x0 PUSH1 0x1 DUP3 ADD PUSH2 0x208C JUMPI PUSH2 0x208C PUSH2 0x2025 JUMP JUMPDEST POP PUSH1 0x1 ADD SWAP1 JUMP JUMPDEST DUP2 DUP2 SUB DUP2 DUP2 GT ISZERO PUSH2 0x663 JUMPI PUSH2 0x663 PUSH2 0x2025 JUMP JUMPDEST PUSH1 0x0 DUP4 MLOAD PUSH2 0x20B8 DUP2 DUP5 PUSH1 0x20 DUP9 ADD PUSH2 0x1F68 JUMP JUMPDEST DUP4 MLOAD SWAP1 DUP4 ADD SWAP1 PUSH2 0x20CC DUP2 DUP4 PUSH1 0x20 DUP9 ADD PUSH2 0x1F68 JUMP JUMPDEST ADD SWAP5 SWAP4 POP POP POP POP JUMP JUMPDEST DUP1 DUP3 ADD DUP3 DUP2 SLT PUSH1 0x0 DUP4 SLT DUP1 ISZERO DUP3 AND DUP3 ISZERO DUP3 AND OR ISZERO PUSH2 0x20F5 JUMPI PUSH2 0x20F5 PUSH2 0x2025 JUMP JUMPDEST POP POP SWAP3 SWAP2 POP POP JUMP JUMPDEST PUSH4 0x4E487B71 PUSH1 0xE0 SHL PUSH1 0x0 MSTORE PUSH1 0x21 PUSH1 0x4 MSTORE PUSH1 0x24 PUSH1 0x0 REVERT JUMPDEST DUP1 DUP3 MUL DUP2 ISZERO DUP3 DUP3 DIV DUP5 EQ OR PUSH2 0x663 JUMPI PUSH2 0x663 PUSH2 0x2025 JUMP JUMPDEST PUSH1 0x0 DUP3 PUSH2 0x2147 JUMPI PUSH4 0x4E487B71 PUSH1 0xE0 SHL PUSH1 0x0 MSTORE PUSH1 0x12 PUSH1 0x4 MSTORE PUSH1 0x24 PUSH1 0x0 REVERT JUMPDEST POP DIV SWAP1 JUMP JUMPDEST DUP2 DUP2 SUB PUSH1 0x0 DUP4 SLT DUP1 ISZERO DUP4 DUP4 SGT AND DUP4 DUP4 SLT DUP3 AND OR ISZERO PUSH2 0xD35 JUMPI PUSH2 0xD35 PUSH2 0x2025 JUMP JUMPDEST PUSH4 0x4E487B71 PUSH1 0xE0 SHL PUSH1 0x0 MSTORE PUSH1 0x31 PUSH1 0x4 MSTORE PUSH1 0x24 PUSH1 0x0 REVERT INVALID LOG2 PUSH5 0x6970667358 0x22 SLT KECCAK256 0xC5 0xBD PUSH6 0x586D3E71A2D9 LOG4 SIGNEXTEND 0xBA 0xE4 DUP16 SWAP12 SHL DUP1 CODESIZE SUB 0x49 LOG4 SWAP7 0x21 OR 0xD4 CALLVALUE 0xB0 PUSH4 0x690B0CDE PUSH5 0x736F6C6343 STOP ADDMOD GT STOP CALLER ","sha1":"1d9bd4005364e8358ab5f0f35e664b1a6db805a7","source":"// SPDX-License-Identifier: GPL-3.0-or-later\npragma solidity ^0.8.17;\n\nimport \"./NFTVault.sol\";\nimport \"../../libraries/DataTypes.sol\";\nimport \"../../libraries/ScaledMath.sol\";\nimport \"../../libraries/Merkle.sol\";\nimport \"../../libraries/VotingPowerHistory.sol\";\nimport \"@openzeppelin/contracts/utils/cryptography/EIP712.sol\";\nimport \"@openzeppelin/contracts/utils/cryptography/ECDSA.sol\";\n\ncontract FoundingMemberVault is NFTVault, EIP712 {\n    using Merkle for Merkle.Root;\n    using VotingPowerHistory for VotingPowerHistory.History;\n\n    string internal constant _VAULT_TYPE = \"FoundingMember\";\n\n    mapping(address => bool) private _claimed;\n\n    bytes32 private immutable _TYPE_HASH =\n        keccak256(\n            \"Proof(address account,address receiver,address delegate,uint128 multiplier,bytes32[] proof)\"\n        );\n    Merkle.Root private merkleRoot;\n\n    constructor(\n        address _owner,\n        uint256 _sumVotingPowers,\n        bytes32 _merkleRoot\n    ) EIP712(\"FoundingMemberVault\", \"1\") NFTVault(_owner) {\n        sumVotingPowers = _sumVotingPowers;\n        merkleRoot = Merkle.Root(_merkleRoot);\n    }\n\n    function claimNFT(\n        address nftOwner,\n        address delegate,\n        uint128 multiplier,\n        bytes32[] calldata proof,\n        bytes calldata signature\n    ) external {\n        require(\n            multiplier >= 1e18 && multiplier <= 20e18,\n            \"multiplier must be greater or equal than 1e18 and lower or equal than 20e18\"\n        );\n\n        bytes32 hash = _hashTypedDataV4(\n            keccak256(\n                abi.encode(\n                    _TYPE_HASH,\n                    nftOwner,\n                    msg.sender,\n                    delegate,\n                    multiplier,\n                    _encodeProof(proof)\n                )\n            )\n        );\n        address claimant = ECDSA.recover(hash, signature);\n        require(claimant == nftOwner, \"invalid signature\");\n\n        require(!_claimed[nftOwner], \"NFT already claimed\");\n\n        bytes32 node = keccak256(abi.encodePacked(nftOwner, multiplier));\n        require(merkleRoot.isProofValid(node, proof), \"invalid proof\");\n\n        _claimed[nftOwner] = true;\n\n        VotingPowerHistory.Record memory current = history.currentRecord(\n            msg.sender\n        );\n        history.updateVotingPower(\n            msg.sender,\n            current.baseVotingPower + ScaledMath.ONE,\n            multiplier,\n            current.netDelegatedVotes\n        );\n\n        if (delegate != address(0) && delegate != msg.sender) {\n            _delegateVote(msg.sender, delegate, multiplier);\n        }\n    }\n\n    function _encodeProof(\n        bytes32[] memory proof\n    ) internal pure returns (bytes32) {\n        bytes memory proofB;\n        for (uint256 i = 0; i < proof.length; i++) {\n            proofB = bytes.concat(proofB, abi.encode(proof[i]));\n        }\n        return keccak256(proofB);\n    }\n\n    function getVaultType() external pure returns (string memory) {\n        return _VAULT_TYPE;\n    }\n}\n","sourcePath":"contracts/vaults/FoundingMemberVault.sol","type":"contract","deployment":{"address":"0xc156f656AFcc68b0Fd347BF3DC4C16A6cFb0FBef","chainid":"1","blockHeight":18358848}}