{"abi":[{"inputs":[{"internalType":"address","name":"_owner","type":"address"},{"internalType":"uint256","name":"_threshold","type":"uint256"},{"components":[{"internalType":"address","name":"vaultAddress","type":"address"},{"internalType":"uint256","name":"weight","type":"uint256"}],"internalType":"struct AggregateLPVault.VaultWeight[]","name":"vaultWeights","type":"tuple[]"}],"stateMutability":"nonpayable","type":"constructor","name":"constructor"},{"inputs":[{"internalType":"address","name":"actual","type":"address"},{"internalType":"address","name":"expected","type":"address"}],"name":"NotAuthorized","type":"error"},{"anonymous":false,"inputs":[{"indexed":false,"internalType":"uint256","name":"threshold","type":"uint256"}],"name":"ThresholdSet","type":"event"},{"inputs":[{"internalType":"address","name":"account","type":"address"}],"name":"getCurrentRecord","outputs":[{"components":[{"internalType":"uint256","name":"at","type":"uint256"},{"internalType":"uint256","name":"baseVotingPower","type":"uint256"},{"internalType":"uint256","name":"multiplier","type":"uint256"},{"internalType":"int256","name":"netDelegatedVotes","type":"int256"}],"internalType":"struct VotingPowerHistory.Record","name":"","type":"tuple"}],"stateMutability":"view","type":"function"},{"inputs":[{"internalType":"address","name":"account","type":"address"}],"name":"getRawVotingPower","outputs":[{"internalType":"uint256","name":"","type":"uint256"}],"stateMutability":"view","type":"function"},{"inputs":[{"internalType":"address","name":"_user","type":"address"},{"internalType":"uint256","name":"timestamp","type":"uint256"}],"name":"getRawVotingPower","outputs":[{"internalType":"uint256","name":"","type":"uint256"}],"stateMutability":"view","type":"function"},{"inputs":[],"name":"getTotalRawVotingPower","outputs":[{"internalType":"uint256","name":"","type":"uint256"}],"stateMutability":"view","type":"function"},{"inputs":[],"name":"getVaultType","outputs":[{"internalType":"string","name":"","type":"string"}],"stateMutability":"pure","type":"function"},{"inputs":[],"name":"getVaultWeights","outputs":[{"components":[{"internalType":"address","name":"vaultAddress","type":"address"},{"internalType":"uint256","name":"weight","type":"uint256"}],"internalType":"struct AggregateLPVault.VaultWeight[]","name":"","type":"tuple[]"}],"stateMutability":"view","type":"function"},{"inputs":[],"name":"owner","outputs":[{"internalType":"address","name":"","type":"address"}],"stateMutability":"view","type":"function"},{"inputs":[{"internalType":"uint256","name":"_threshold","type":"uint256"}],"name":"setThreshold","outputs":[],"stateMutability":"nonpayable","type":"function"},{"inputs":[{"components":[{"internalType":"address","name":"vaultAddress","type":"address"},{"internalType":"uint256","name":"weight","type":"uint256"}],"internalType":"struct AggregateLPVault.VaultWeight[]","name":"vaultWeights","type":"tuple[]"}],"name":"setVaultWeights","outputs":[],"stateMutability":"nonpayable","type":"function"},{"inputs":[],"name":"threshold","outputs":[{"internalType":"uint256","name":"","type":"uint256"}],"stateMutability":"view","type":"function"}],"bytecode":"60a06040523480156200001157600080fd5b506040516200115538038062001155833981016040819052620000349162000269565b6001600160a01b038316608052600482905562000051816200005a565b505050620003a6565b60005b81518110156200011e5760008282815181106200007e576200007e62000368565b602002602001015190506000816020015111620000e15760405162461bcd60e51b815260206004820152601660248201527f63616e6e6f742068617665206120302077656967687400000000000000000000604482015260640160405180910390fd5b620001068160000151826020015160056200012260201b6200059c179092919060201c565b5050808062000115906200037e565b9150506200005d565b5050565b60006200013a846001600160a01b0385168462000142565b949350505050565b6000828152600284016020908152604082208390556200013a9085908590620005ba6200016f821b17901c565b60006200017d838362000186565b90505b92915050565b6000818152600183016020526040812054620001cf5750815460018181018455600084815260208082209093018490558454848252828601909352604090209190915562000180565b50600062000180565b80516001600160a01b0381168114620001f057600080fd5b919050565b634e487b7160e01b600052604160045260246000fd5b604080519081016001600160401b0381118282101715620002305762000230620001f5565b60405290565b604051601f8201601f191681016001600160401b0381118282101715620002615762000261620001f5565b604052919050565b6000806000606084860312156200027f57600080fd5b6200028a84620001d8565b9250602080850151925060408086015160018060401b0380821115620002af57600080fd5b818801915088601f830112620002c457600080fd5b815181811115620002d957620002d9620001f5565b620002e9858260051b0162000236565b818152858101925060069190911b83018501908a8211156200030a57600080fd5b928501925b81841015620003585784848c031215620003295760008081fd5b620003336200020b565b6200033e85620001d8565b81528487015187820152835292840192918501916200030f565b8096505050505050509250925092565b634e487b7160e01b600052603260045260246000fd5b6000600182016200039f57634e487b7160e01b600052601160045260246000fd5b5060010190565b608051610d85620003d0600039600081816101580152818161022701526102690152610d856000f3fe608060405234801561001057600080fd5b506004361061009e5760003560e01c80638da5cb5b116100665780638da5cb5b14610153578063960bfe04146101925780639f1acf08146101a5578063de1ec403146101b8578063f7fc81b0146101cb57600080fd5b806319ad0eba146100a3578063247e548c146100f2578063344ff1d01461010757806342cde4e81461011d57806375baf37f14610126575b600080fd5b6100b66100b1366004610a88565b6101e0565b6040516100e991908151815260208083015190820152604080830151908201526060918201519181019190915260800190565b60405180910390f35b610105610100366004610aa3565b61021c565b005b61010f610302565b6040519081526020016100e9565b61010f60045481565b604080518082018252600b81526a04167677265676174654c560ac1b602082015290516100e99190610b18565b61017a7f000000000000000000000000000000000000000000000000000000000000000081565b6040516001600160a01b0390911681526020016100e9565b6101056101a0366004610b66565b6103cb565b61010f6101b3366004610a88565b610406565b61010f6101c6366004610b7f565b61040e565b6101d36104b5565b6040516100e99190610ba9565b61020b6040518060800160405280600081526020016000815260200160008152602001600081525090565b6102166000836105cd565b92915050565b336001600160a01b037f0000000000000000000000000000000000000000000000000000000000000000161461029b5760405163c55ddc9760e01b81523360048201526001600160a01b037f00000000000000000000000000000000000000000000000000000000000000001660248201526044015b60405180910390fd5b6102a36106d4565b6102fe8282808060200260200160405190810160405280939291908181526020016000905b828210156102f4576102e560408302860136819003810190610c17565b815260200190600101906102c8565b505050505061071d565b5050565b600080805b61031160056107bc565b8110156103b7576000806103266005846107c7565b9150915061039681836001600160a01b031663344ff1d06040518163ffffffff1660e01b8152600401602060405180830381865afa15801561036c573d6000803e3d6000fd5b505050506040513d601f19601f820116820180604052508101906103909190610c7c565b906107e3565b6103a09085610cab565b9350505080806103af90610cbe565b915050610307565b5060045481116103c657506004545b919050565b60048190556040518181527f6e8a187d7944998085dbd1f16b84c51c903bb727536cdba86962439aded2cfd79060200160405180910390a150565b600061021682425b600080805b61041d60056107bc565b8110156104ad576000806104326005846107c7565b60405163de1ec40360e01b81526001600160a01b038a81166004830152602482018a905292945090925061048c9183919085169063de1ec40390604401602060405180830381865afa15801561036c573d6000803e3d6000fd5b6104969085610cab565b9350505080806104a590610cbe565b915050610413565b509392505050565b606060006104c360056107bc565b905060008167ffffffffffffffff8111156104e0576104e0610c01565b60405190808252806020026020018201604052801561052557816020015b60408051808201909152600080825260208201528152602001906001900390816104fe5790505b50905060005b82811015610595576000806105416005846107c7565b915091506040518060400160405280836001600160a01b031681526020018281525084848151811061057557610575610cd7565b60200260200101819052505050808061058d90610cbe565b91505061052b565b5092915050565b60006105b2846001600160a01b03851684610802565b949350505050565b60006105c6838361081f565b9392505050565b6105f86040518060800160405280600081526020016000815260200160008152602001600081525090565b6001600160a01b03821660009081526020848152604080832080548251818502810185019093528083529192909190849084015b8282101561068657838290600052602060002090600402016040518060800160405290816000820154815260200160018201548152602001600282015481526020016003820154815250508152602001906001019061062c565b50505050905080516000036106a55761069d61086e565b915050610216565b80600182516106b49190610ced565b815181106106c4576106c4610cd7565b6020026020010151915050610216565b60006106e060056107bc565b905060005b818110156102fe5760006106fa6005826107c7565b5090506107086005826108ca565b5050808061071590610cbe565b9150506106e5565b60005b81518110156102fe57600082828151811061073d5761073d610cd7565b6020026020010151905060008160200151116107945760405162461bcd60e51b815260206004820152601660248201527518d85b9b9bdd081a185d994818480c081dd95a59da1d60521b6044820152606401610292565b805160208201516107a79160059161059c565b505080806107b490610cbe565b915050610720565b6000610216826108df565b60008080806107d686866108ea565b9097909650945050505050565b6000670de0b6b3a76400006107f88385610d00565b6105c69190610d17565b600082815260028401602052604081208290556105b284846105ba565b600081815260018301602052604081205461086657508154600181810184556000848152602080822090930184905584548482528286019093526040902091909155610216565b506000610216565b6108996040518060800160405280600081526020016000815260200160008152602001600081525090565b60405180608001604052806000815260200160008152602001670de0b6b3a764000081526020016000815250905090565b60006105c6836001600160a01b038416610915565b600061021682610932565b600080806108f8858561093c565b600081815260029690960160205260409095205494959350505050565b600081815260028301602052604081208190556105c68383610948565b6000610216825490565b60006105c68383610954565b60006105c6838361097e565b600082600001828154811061096b5761096b610cd7565b9060005260206000200154905092915050565b60008181526001830160205260408120548015610a675760006109a2600183610ced565b85549091506000906109b690600190610ced565b9050818114610a1b5760008660000182815481106109d6576109d6610cd7565b90600052602060002001549050808760000184815481106109f9576109f9610cd7565b6000918252602080832090910192909255918252600188019052604090208390555b8554869080610a2c57610a2c610d39565b600190038181906000526020600020016000905590558560010160008681526020019081526020016000206000905560019350505050610216565b6000915050610216565b80356001600160a01b03811681146103c657600080fd5b600060208284031215610a9a57600080fd5b6105c682610a71565b60008060208385031215610ab657600080fd5b823567ffffffffffffffff80821115610ace57600080fd5b818501915085601f830112610ae257600080fd5b813581811115610af157600080fd5b8660208260061b8501011115610b0657600080fd5b60209290920196919550909350505050565b600060208083528351808285015260005b81811015610b4557858101830151858201604001528201610b29565b506000604082860101526040601f19601f8301168501019250505092915050565b600060208284031215610b7857600080fd5b5035919050565b60008060408385031215610b9257600080fd5b610b9b83610a71565b946020939093013593505050565b602080825282518282018190526000919060409081850190868401855b82811015610bf457815180516001600160a01b03168552860151868501529284019290850190600101610bc6565b5091979650505050505050565b634e487b7160e01b600052604160045260246000fd5b600060408284031215610c2957600080fd5b6040516040810181811067ffffffffffffffff82111715610c5a57634e487b7160e01b600052604160045260246000fd5b604052610c6683610a71565b8152602083013560208201528091505092915050565b600060208284031215610c8e57600080fd5b5051919050565b634e487b7160e01b600052601160045260246000fd5b8082018082111561021657610216610c95565b600060018201610cd057610cd0610c95565b5060010190565b634e487b7160e01b600052603260045260246000fd5b8181038181111561021657610216610c95565b808202811582820484141761021657610216610c95565b600082610d3457634e487b7160e01b600052601260045260246000fd5b500490565b634e487b7160e01b600052603160045260246000fdfea26469706673582212206891c56f9f591ef24cef150b9f7ac61e41b2689802e9729df349b774d126476964736f6c63430008110033","bytecodeSha1":"a7557e277fabc6c84698ab3a2900ba8c7725fa35","compiler":{"evm_version":"istanbul","optimizer":{"enabled":true,"runs":200},"version":"0.8.17+commit.8df45f5f"},"contractName":"AggregateLPVault","language":"Solidity","natspec":{"kind":"dev","methods":{},"version":1},"opcodes":"PUSH1 0x80 PUSH1 0x40 MSTORE CALLVALUE DUP1 ISZERO PUSH2 0x10 JUMPI PUSH1 0x0 DUP1 REVERT JUMPDEST POP PUSH1 0x4 CALLDATASIZE LT PUSH2 0x9E JUMPI PUSH1 0x0 CALLDATALOAD PUSH1 0xE0 SHR DUP1 PUSH4 0x8DA5CB5B GT PUSH2 0x66 JUMPI DUP1 PUSH4 0x8DA5CB5B EQ PUSH2 0x153 JUMPI DUP1 PUSH4 0x960BFE04 EQ PUSH2 0x192 JUMPI DUP1 PUSH4 0x9F1ACF08 EQ PUSH2 0x1A5 JUMPI DUP1 PUSH4 0xDE1EC403 EQ PUSH2 0x1B8 JUMPI DUP1 PUSH4 0xF7FC81B0 EQ PUSH2 0x1CB JUMPI PUSH1 0x0 DUP1 REVERT JUMPDEST DUP1 PUSH4 0x19AD0EBA EQ PUSH2 0xA3 JUMPI DUP1 PUSH4 0x247E548C EQ PUSH2 0xF2 JUMPI DUP1 PUSH4 0x344FF1D0 EQ PUSH2 0x107 JUMPI DUP1 PUSH4 0x42CDE4E8 EQ PUSH2 0x11D JUMPI DUP1 PUSH4 0x75BAF37F EQ PUSH2 0x126 JUMPI JUMPDEST PUSH1 0x0 DUP1 REVERT JUMPDEST PUSH2 0xB6 PUSH2 0xB1 CALLDATASIZE PUSH1 0x4 PUSH2 0xA88 JUMP JUMPDEST PUSH2 0x1E0 JUMP JUMPDEST PUSH1 0x40 MLOAD PUSH2 0xE9 SWAP2 SWAP1 DUP2 MLOAD DUP2 MSTORE PUSH1 0x20 DUP1 DUP4 ADD MLOAD SWAP1 DUP3 ADD MSTORE PUSH1 0x40 DUP1 DUP4 ADD MLOAD SWAP1 DUP3 ADD MSTORE PUSH1 0x60 SWAP2 DUP3 ADD MLOAD SWAP2 DUP2 ADD SWAP2 SWAP1 SWAP2 MSTORE PUSH1 0x80 ADD SWAP1 JUMP JUMPDEST PUSH1 0x40 MLOAD DUP1 SWAP2 SUB SWAP1 RETURN JUMPDEST PUSH2 0x105 PUSH2 0x100 CALLDATASIZE PUSH1 0x4 PUSH2 0xAA3 JUMP JUMPDEST PUSH2 0x21C JUMP JUMPDEST STOP JUMPDEST PUSH2 0x10F PUSH2 0x302 JUMP JUMPDEST PUSH1 0x40 MLOAD SWAP1 DUP2 MSTORE PUSH1 0x20 ADD PUSH2 0xE9 JUMP JUMPDEST PUSH2 0x10F PUSH1 0x4 SLOAD DUP2 JUMP JUMPDEST PUSH1 0x40 DUP1 MLOAD DUP1 DUP3 ADD DUP3 MSTORE PUSH1 0xB DUP2 MSTORE PUSH11 0x4167677265676174654C5 PUSH1 0xAC SHL PUSH1 0x20 DUP3 ADD MSTORE SWAP1 MLOAD PUSH2 0xE9 SWAP2 SWAP1 PUSH2 0xB18 JUMP JUMPDEST PUSH2 0x17A PUSH32 0x0 DUP2 JUMP JUMPDEST PUSH1 0x40 MLOAD PUSH1 0x1 PUSH1 0x1 PUSH1 0xA0 SHL SUB SWAP1 SWAP2 AND DUP2 MSTORE PUSH1 0x20 ADD PUSH2 0xE9 JUMP JUMPDEST PUSH2 0x105 PUSH2 0x1A0 CALLDATASIZE PUSH1 0x4 PUSH2 0xB66 JUMP JUMPDEST PUSH2 0x3CB JUMP JUMPDEST PUSH2 0x10F PUSH2 0x1B3 CALLDATASIZE PUSH1 0x4 PUSH2 0xA88 JUMP JUMPDEST PUSH2 0x406 JUMP JUMPDEST PUSH2 0x10F PUSH2 0x1C6 CALLDATASIZE PUSH1 0x4 PUSH2 0xB7F JUMP JUMPDEST PUSH2 0x40E JUMP JUMPDEST PUSH2 0x1D3 PUSH2 0x4B5 JUMP JUMPDEST PUSH1 0x40 MLOAD PUSH2 0xE9 SWAP2 SWAP1 PUSH2 0xBA9 JUMP JUMPDEST PUSH2 0x20B PUSH1 0x40 MLOAD DUP1 PUSH1 0x80 ADD PUSH1 0x40 MSTORE DUP1 PUSH1 0x0 DUP2 MSTORE PUSH1 0x20 ADD PUSH1 0x0 DUP2 MSTORE PUSH1 0x20 ADD PUSH1 0x0 DUP2 MSTORE PUSH1 0x20 ADD PUSH1 0x0 DUP2 MSTORE POP SWAP1 JUMP JUMPDEST PUSH2 0x216 PUSH1 0x0 DUP4 PUSH2 0x5CD JUMP JUMPDEST SWAP3 SWAP2 POP POP JUMP JUMPDEST CALLER PUSH1 0x1 PUSH1 0x1 PUSH1 0xA0 SHL SUB PUSH32 0x0 AND EQ PUSH2 0x29B JUMPI PUSH1 0x40 MLOAD PUSH4 0xC55DDC97 PUSH1 0xE0 SHL DUP2 MSTORE CALLER PUSH1 0x4 DUP3 ADD MSTORE PUSH1 0x1 PUSH1 0x1 PUSH1 0xA0 SHL SUB PUSH32 0x0 AND PUSH1 0x24 DUP3 ADD MSTORE PUSH1 0x44 ADD JUMPDEST PUSH1 0x40 MLOAD DUP1 SWAP2 SUB SWAP1 REVERT JUMPDEST PUSH2 0x2A3 PUSH2 0x6D4 JUMP JUMPDEST PUSH2 0x2FE DUP3 DUP3 DUP1 DUP1 PUSH1 0x20 MUL PUSH1 0x20 ADD PUSH1 0x40 MLOAD SWAP1 DUP2 ADD PUSH1 0x40 MSTORE DUP1 SWAP4 SWAP3 SWAP2 SWAP1 DUP2 DUP2 MSTORE PUSH1 0x20 ADD PUSH1 0x0 SWAP1 JUMPDEST DUP3 DUP3 LT ISZERO PUSH2 0x2F4 JUMPI PUSH2 0x2E5 PUSH1 0x40 DUP4 MUL DUP7 ADD CALLDATASIZE DUP2 SWAP1 SUB DUP2 ADD SWAP1 PUSH2 0xC17 JUMP JUMPDEST DUP2 MSTORE PUSH1 0x20 ADD SWAP1 PUSH1 0x1 ADD SWAP1 PUSH2 0x2C8 JUMP JUMPDEST POP POP POP POP POP PUSH2 0x71D JUMP JUMPDEST POP POP JUMP JUMPDEST PUSH1 0x0 DUP1 DUP1 JUMPDEST PUSH2 0x311 PUSH1 0x5 PUSH2 0x7BC JUMP JUMPDEST DUP2 LT ISZERO PUSH2 0x3B7 JUMPI PUSH1 0x0 DUP1 PUSH2 0x326 PUSH1 0x5 DUP5 PUSH2 0x7C7 JUMP JUMPDEST SWAP2 POP SWAP2 POP PUSH2 0x396 DUP2 DUP4 PUSH1 0x1 PUSH1 0x1 PUSH1 0xA0 SHL SUB AND PUSH4 0x344FF1D0 PUSH1 0x40 MLOAD DUP2 PUSH4 0xFFFFFFFF AND PUSH1 0xE0 SHL DUP2 MSTORE PUSH1 0x4 ADD PUSH1 0x20 PUSH1 0x40 MLOAD DUP1 DUP4 SUB DUP2 DUP7 GAS STATICCALL ISZERO DUP1 ISZERO PUSH2 0x36C JUMPI RETURNDATASIZE PUSH1 0x0 DUP1 RETURNDATACOPY RETURNDATASIZE PUSH1 0x0 REVERT JUMPDEST POP POP POP POP PUSH1 0x40 MLOAD RETURNDATASIZE PUSH1 0x1F NOT PUSH1 0x1F DUP3 ADD AND DUP3 ADD DUP1 PUSH1 0x40 MSTORE POP DUP2 ADD SWAP1 PUSH2 0x390 SWAP2 SWAP1 PUSH2 0xC7C JUMP JUMPDEST SWAP1 PUSH2 0x7E3 JUMP JUMPDEST PUSH2 0x3A0 SWAP1 DUP6 PUSH2 0xCAB JUMP JUMPDEST SWAP4 POP POP POP DUP1 DUP1 PUSH2 0x3AF SWAP1 PUSH2 0xCBE JUMP JUMPDEST SWAP2 POP POP PUSH2 0x307 JUMP JUMPDEST POP PUSH1 0x4 SLOAD DUP2 GT PUSH2 0x3C6 JUMPI POP PUSH1 0x4 SLOAD JUMPDEST SWAP2 SWAP1 POP JUMP JUMPDEST PUSH1 0x4 DUP2 SWAP1 SSTORE PUSH1 0x40 MLOAD DUP2 DUP2 MSTORE PUSH32 0x6E8A187D7944998085DBD1F16B84C51C903BB727536CDBA86962439ADED2CFD7 SWAP1 PUSH1 0x20 ADD PUSH1 0x40 MLOAD DUP1 SWAP2 SUB SWAP1 LOG1 POP JUMP JUMPDEST PUSH1 0x0 PUSH2 0x216 DUP3 TIMESTAMP JUMPDEST PUSH1 0x0 DUP1 DUP1 JUMPDEST PUSH2 0x41D PUSH1 0x5 PUSH2 0x7BC JUMP JUMPDEST DUP2 LT ISZERO PUSH2 0x4AD JUMPI PUSH1 0x0 DUP1 PUSH2 0x432 PUSH1 0x5 DUP5 PUSH2 0x7C7 JUMP JUMPDEST PUSH1 0x40 MLOAD PUSH4 0xDE1EC403 PUSH1 0xE0 SHL DUP2 MSTORE PUSH1 0x1 PUSH1 0x1 PUSH1 0xA0 SHL SUB DUP11 DUP2 AND PUSH1 0x4 DUP4 ADD MSTORE PUSH1 0x24 DUP3 ADD DUP11 SWAP1 MSTORE SWAP3 SWAP5 POP SWAP1 SWAP3 POP PUSH2 0x48C SWAP2 DUP4 SWAP2 SWAP1 DUP6 AND SWAP1 PUSH4 0xDE1EC403 SWAP1 PUSH1 0x44 ADD PUSH1 0x20 PUSH1 0x40 MLOAD DUP1 DUP4 SUB DUP2 DUP7 GAS STATICCALL ISZERO DUP1 ISZERO PUSH2 0x36C JUMPI RETURNDATASIZE PUSH1 0x0 DUP1 RETURNDATACOPY RETURNDATASIZE PUSH1 0x0 REVERT JUMPDEST PUSH2 0x496 SWAP1 DUP6 PUSH2 0xCAB JUMP JUMPDEST SWAP4 POP POP POP DUP1 DUP1 PUSH2 0x4A5 SWAP1 PUSH2 0xCBE JUMP JUMPDEST SWAP2 POP POP PUSH2 0x413 JUMP JUMPDEST POP SWAP4 SWAP3 POP POP POP JUMP JUMPDEST PUSH1 0x60 PUSH1 0x0 PUSH2 0x4C3 PUSH1 0x5 PUSH2 0x7BC JUMP JUMPDEST SWAP1 POP PUSH1 0x0 DUP2 PUSH8 0xFFFFFFFFFFFFFFFF DUP2 GT ISZERO PUSH2 0x4E0 JUMPI PUSH2 0x4E0 PUSH2 0xC01 JUMP JUMPDEST PUSH1 0x40 MLOAD SWAP1 DUP1 DUP3 MSTORE DUP1 PUSH1 0x20 MUL PUSH1 0x20 ADD DUP3 ADD PUSH1 0x40 MSTORE DUP1 ISZERO PUSH2 0x525 JUMPI DUP2 PUSH1 0x20 ADD JUMPDEST PUSH1 0x40 DUP1 MLOAD DUP1 DUP3 ADD SWAP1 SWAP2 MSTORE PUSH1 0x0 DUP1 DUP3 MSTORE PUSH1 0x20 DUP3 ADD MSTORE DUP2 MSTORE PUSH1 0x20 ADD SWAP1 PUSH1 0x1 SWAP1 SUB SWAP1 DUP2 PUSH2 0x4FE JUMPI SWAP1 POP JUMPDEST POP SWAP1 POP PUSH1 0x0 JUMPDEST DUP3 DUP2 LT ISZERO PUSH2 0x595 JUMPI PUSH1 0x0 DUP1 PUSH2 0x541 PUSH1 0x5 DUP5 PUSH2 0x7C7 JUMP JUMPDEST SWAP2 POP SWAP2 POP PUSH1 0x40 MLOAD DUP1 PUSH1 0x40 ADD PUSH1 0x40 MSTORE DUP1 DUP4 PUSH1 0x1 PUSH1 0x1 PUSH1 0xA0 SHL SUB AND DUP2 MSTORE PUSH1 0x20 ADD DUP3 DUP2 MSTORE POP DUP5 DUP5 DUP2 MLOAD DUP2 LT PUSH2 0x575 JUMPI PUSH2 0x575 PUSH2 0xCD7 JUMP JUMPDEST PUSH1 0x20 MUL PUSH1 0x20 ADD ADD DUP2 SWAP1 MSTORE POP POP POP DUP1 DUP1 PUSH2 0x58D SWAP1 PUSH2 0xCBE JUMP JUMPDEST SWAP2 POP POP PUSH2 0x52B JUMP JUMPDEST POP SWAP3 SWAP2 POP POP JUMP JUMPDEST PUSH1 0x0 PUSH2 0x5B2 DUP5 PUSH1 0x1 PUSH1 0x1 PUSH1 0xA0 SHL SUB DUP6 AND DUP5 PUSH2 0x802 JUMP JUMPDEST SWAP5 SWAP4 POP POP POP POP JUMP JUMPDEST PUSH1 0x0 PUSH2 0x5C6 DUP4 DUP4 PUSH2 0x81F JUMP JUMPDEST SWAP4 SWAP3 POP POP POP JUMP JUMPDEST PUSH2 0x5F8 PUSH1 0x40 MLOAD DUP1 PUSH1 0x80 ADD PUSH1 0x40 MSTORE DUP1 PUSH1 0x0 DUP2 MSTORE PUSH1 0x20 ADD PUSH1 0x0 DUP2 MSTORE PUSH1 0x20 ADD PUSH1 0x0 DUP2 MSTORE PUSH1 0x20 ADD PUSH1 0x0 DUP2 MSTORE POP SWAP1 JUMP JUMPDEST PUSH1 0x1 PUSH1 0x1 PUSH1 0xA0 SHL SUB DUP3 AND PUSH1 0x0 SWAP1 DUP2 MSTORE PUSH1 0x20 DUP5 DUP2 MSTORE PUSH1 0x40 DUP1 DUP4 KECCAK256 DUP1 SLOAD DUP3 MLOAD DUP2 DUP6 MUL DUP2 ADD DUP6 ADD SWAP1 SWAP4 MSTORE DUP1 DUP4 MSTORE SWAP2 SWAP3 SWAP1 SWAP2 SWAP1 DUP5 SWAP1 DUP5 ADD JUMPDEST DUP3 DUP3 LT ISZERO PUSH2 0x686 JUMPI DUP4 DUP3 SWAP1 PUSH1 0x0 MSTORE PUSH1 0x20 PUSH1 0x0 KECCAK256 SWAP1 PUSH1 0x4 MUL ADD PUSH1 0x40 MLOAD DUP1 PUSH1 0x80 ADD PUSH1 0x40 MSTORE SWAP1 DUP2 PUSH1 0x0 DUP3 ADD SLOAD DUP2 MSTORE PUSH1 0x20 ADD PUSH1 0x1 DUP3 ADD SLOAD DUP2 MSTORE PUSH1 0x20 ADD PUSH1 0x2 DUP3 ADD SLOAD DUP2 MSTORE PUSH1 0x20 ADD PUSH1 0x3 DUP3 ADD SLOAD DUP2 MSTORE POP POP DUP2 MSTORE PUSH1 0x20 ADD SWAP1 PUSH1 0x1 ADD SWAP1 PUSH2 0x62C JUMP JUMPDEST POP POP POP POP SWAP1 POP DUP1 MLOAD PUSH1 0x0 SUB PUSH2 0x6A5 JUMPI PUSH2 0x69D PUSH2 0x86E JUMP JUMPDEST SWAP2 POP POP PUSH2 0x216 JUMP JUMPDEST DUP1 PUSH1 0x1 DUP3 MLOAD PUSH2 0x6B4 SWAP2 SWAP1 PUSH2 0xCED JUMP JUMPDEST DUP2 MLOAD DUP2 LT PUSH2 0x6C4 JUMPI PUSH2 0x6C4 PUSH2 0xCD7 JUMP JUMPDEST PUSH1 0x20 MUL PUSH1 0x20 ADD ADD MLOAD SWAP2 POP POP PUSH2 0x216 JUMP JUMPDEST PUSH1 0x0 PUSH2 0x6E0 PUSH1 0x5 PUSH2 0x7BC JUMP JUMPDEST SWAP1 POP PUSH1 0x0 JUMPDEST DUP2 DUP2 LT ISZERO PUSH2 0x2FE JUMPI PUSH1 0x0 PUSH2 0x6FA PUSH1 0x5 DUP3 PUSH2 0x7C7 JUMP JUMPDEST POP SWAP1 POP PUSH2 0x708 PUSH1 0x5 DUP3 PUSH2 0x8CA JUMP JUMPDEST POP POP DUP1 DUP1 PUSH2 0x715 SWAP1 PUSH2 0xCBE JUMP JUMPDEST SWAP2 POP POP PUSH2 0x6E5 JUMP JUMPDEST PUSH1 0x0 JUMPDEST DUP2 MLOAD DUP2 LT ISZERO PUSH2 0x2FE JUMPI PUSH1 0x0 DUP3 DUP3 DUP2 MLOAD DUP2 LT PUSH2 0x73D JUMPI PUSH2 0x73D PUSH2 0xCD7 JUMP JUMPDEST PUSH1 0x20 MUL PUSH1 0x20 ADD ADD MLOAD SWAP1 POP PUSH1 0x0 DUP2 PUSH1 0x20 ADD MLOAD GT PUSH2 0x794 JUMPI PUSH1 0x40 MLOAD PUSH3 0x461BCD PUSH1 0xE5 SHL DUP2 MSTORE PUSH1 0x20 PUSH1 0x4 DUP3 ADD MSTORE PUSH1 0x16 PUSH1 0x24 DUP3 ADD MSTORE PUSH22 0x18D85B9B9BDD081A185D994818480C081DD95A59DA1D PUSH1 0x52 SHL PUSH1 0x44 DUP3 ADD MSTORE PUSH1 0x64 ADD PUSH2 0x292 JUMP JUMPDEST DUP1 MLOAD PUSH1 0x20 DUP3 ADD MLOAD PUSH2 0x7A7 SWAP2 PUSH1 0x5 SWAP2 PUSH2 0x59C JUMP JUMPDEST POP POP DUP1 DUP1 PUSH2 0x7B4 SWAP1 PUSH2 0xCBE JUMP JUMPDEST SWAP2 POP POP PUSH2 0x720 JUMP JUMPDEST PUSH1 0x0 PUSH2 0x216 DUP3 PUSH2 0x8DF JUMP JUMPDEST PUSH1 0x0 DUP1 DUP1 DUP1 PUSH2 0x7D6 DUP7 DUP7 PUSH2 0x8EA JUMP JUMPDEST SWAP1 SWAP8 SWAP1 SWAP7 POP SWAP5 POP POP POP POP POP JUMP JUMPDEST PUSH1 0x0 PUSH8 0xDE0B6B3A7640000 PUSH2 0x7F8 DUP4 DUP6 PUSH2 0xD00 JUMP JUMPDEST PUSH2 0x5C6 SWAP2 SWAP1 PUSH2 0xD17 JUMP JUMPDEST PUSH1 0x0 DUP3 DUP2 MSTORE PUSH1 0x2 DUP5 ADD PUSH1 0x20 MSTORE PUSH1 0x40 DUP2 KECCAK256 DUP3 SWAP1 SSTORE PUSH2 0x5B2 DUP5 DUP5 PUSH2 0x5BA JUMP JUMPDEST PUSH1 0x0 DUP2 DUP2 MSTORE PUSH1 0x1 DUP4 ADD PUSH1 0x20 MSTORE PUSH1 0x40 DUP2 KECCAK256 SLOAD PUSH2 0x866 JUMPI POP DUP2 SLOAD PUSH1 0x1 DUP2 DUP2 ADD DUP5 SSTORE PUSH1 0x0 DUP5 DUP2 MSTORE PUSH1 0x20 DUP1 DUP3 KECCAK256 SWAP1 SWAP4 ADD DUP5 SWAP1 SSTORE DUP5 SLOAD DUP5 DUP3 MSTORE DUP3 DUP7 ADD SWAP1 SWAP4 MSTORE PUSH1 0x40 SWAP1 KECCAK256 SWAP2 SWAP1 SWAP2 SSTORE PUSH2 0x216 JUMP JUMPDEST POP PUSH1 0x0 PUSH2 0x216 JUMP JUMPDEST PUSH2 0x899 PUSH1 0x40 MLOAD DUP1 PUSH1 0x80 ADD PUSH1 0x40 MSTORE DUP1 PUSH1 0x0 DUP2 MSTORE PUSH1 0x20 ADD PUSH1 0x0 DUP2 MSTORE PUSH1 0x20 ADD PUSH1 0x0 DUP2 MSTORE PUSH1 0x20 ADD PUSH1 0x0 DUP2 MSTORE POP SWAP1 JUMP JUMPDEST PUSH1 0x40 MLOAD DUP1 PUSH1 0x80 ADD PUSH1 0x40 MSTORE DUP1 PUSH1 0x0 DUP2 MSTORE PUSH1 0x20 ADD PUSH1 0x0 DUP2 MSTORE PUSH1 0x20 ADD PUSH8 0xDE0B6B3A7640000 DUP2 MSTORE PUSH1 0x20 ADD PUSH1 0x0 DUP2 MSTORE POP SWAP1 POP SWAP1 JUMP JUMPDEST PUSH1 0x0 PUSH2 0x5C6 DUP4 PUSH1 0x1 PUSH1 0x1 PUSH1 0xA0 SHL SUB DUP5 AND PUSH2 0x915 JUMP JUMPDEST PUSH1 0x0 PUSH2 0x216 DUP3 PUSH2 0x932 JUMP JUMPDEST PUSH1 0x0 DUP1 DUP1 PUSH2 0x8F8 DUP6 DUP6 PUSH2 0x93C JUMP JUMPDEST PUSH1 0x0 DUP2 DUP2 MSTORE PUSH1 0x2 SWAP7 SWAP1 SWAP7 ADD PUSH1 0x20 MSTORE PUSH1 0x40 SWAP1 SWAP6 KECCAK256 SLOAD SWAP5 SWAP6 SWAP4 POP POP POP POP JUMP JUMPDEST PUSH1 0x0 DUP2 DUP2 MSTORE PUSH1 0x2 DUP4 ADD PUSH1 0x20 MSTORE PUSH1 0x40 DUP2 KECCAK256 DUP2 SWAP1 SSTORE PUSH2 0x5C6 DUP4 DUP4 PUSH2 0x948 JUMP JUMPDEST PUSH1 0x0 PUSH2 0x216 DUP3 SLOAD SWAP1 JUMP JUMPDEST PUSH1 0x0 PUSH2 0x5C6 DUP4 DUP4 PUSH2 0x954 JUMP JUMPDEST PUSH1 0x0 PUSH2 0x5C6 DUP4 DUP4 PUSH2 0x97E JUMP JUMPDEST PUSH1 0x0 DUP3 PUSH1 0x0 ADD DUP3 DUP2 SLOAD DUP2 LT PUSH2 0x96B JUMPI PUSH2 0x96B PUSH2 0xCD7 JUMP JUMPDEST SWAP1 PUSH1 0x0 MSTORE PUSH1 0x20 PUSH1 0x0 KECCAK256 ADD SLOAD SWAP1 POP SWAP3 SWAP2 POP POP JUMP JUMPDEST PUSH1 0x0 DUP2 DUP2 MSTORE PUSH1 0x1 DUP4 ADD PUSH1 0x20 MSTORE PUSH1 0x40 DUP2 KECCAK256 SLOAD DUP1 ISZERO PUSH2 0xA67 JUMPI PUSH1 0x0 PUSH2 0x9A2 PUSH1 0x1 DUP4 PUSH2 0xCED JUMP JUMPDEST DUP6 SLOAD SWAP1 SWAP2 POP PUSH1 0x0 SWAP1 PUSH2 0x9B6 SWAP1 PUSH1 0x1 SWAP1 PUSH2 0xCED JUMP JUMPDEST SWAP1 POP DUP2 DUP2 EQ PUSH2 0xA1B JUMPI PUSH1 0x0 DUP7 PUSH1 0x0 ADD DUP3 DUP2 SLOAD DUP2 LT PUSH2 0x9D6 JUMPI PUSH2 0x9D6 PUSH2 0xCD7 JUMP JUMPDEST SWAP1 PUSH1 0x0 MSTORE PUSH1 0x20 PUSH1 0x0 KECCAK256 ADD SLOAD SWAP1 POP DUP1 DUP8 PUSH1 0x0 ADD DUP5 DUP2 SLOAD DUP2 LT PUSH2 0x9F9 JUMPI PUSH2 0x9F9 PUSH2 0xCD7 JUMP JUMPDEST PUSH1 0x0 SWAP2 DUP3 MSTORE PUSH1 0x20 DUP1 DUP4 KECCAK256 SWAP1 SWAP2 ADD SWAP3 SWAP1 SWAP3 SSTORE SWAP2 DUP3 MSTORE PUSH1 0x1 DUP9 ADD SWAP1 MSTORE PUSH1 0x40 SWAP1 KECCAK256 DUP4 SWAP1 SSTORE JUMPDEST DUP6 SLOAD DUP7 SWAP1 DUP1 PUSH2 0xA2C JUMPI PUSH2 0xA2C PUSH2 0xD39 JUMP JUMPDEST PUSH1 0x1 SWAP1 SUB DUP2 DUP2 SWAP1 PUSH1 0x0 MSTORE PUSH1 0x20 PUSH1 0x0 KECCAK256 ADD PUSH1 0x0 SWAP1 SSTORE SWAP1 SSTORE DUP6 PUSH1 0x1 ADD PUSH1 0x0 DUP7 DUP2 MSTORE PUSH1 0x20 ADD SWAP1 DUP2 MSTORE PUSH1 0x20 ADD PUSH1 0x0 KECCAK256 PUSH1 0x0 SWAP1 SSTORE PUSH1 0x1 SWAP4 POP POP POP POP PUSH2 0x216 JUMP JUMPDEST PUSH1 0x0 SWAP2 POP POP PUSH2 0x216 JUMP JUMPDEST DUP1 CALLDATALOAD PUSH1 0x1 PUSH1 0x1 PUSH1 0xA0 SHL SUB DUP2 AND DUP2 EQ PUSH2 0x3C6 JUMPI PUSH1 0x0 DUP1 REVERT JUMPDEST PUSH1 0x0 PUSH1 0x20 DUP3 DUP5 SUB SLT ISZERO PUSH2 0xA9A JUMPI PUSH1 0x0 DUP1 REVERT JUMPDEST PUSH2 0x5C6 DUP3 PUSH2 0xA71 JUMP JUMPDEST PUSH1 0x0 DUP1 PUSH1 0x20 DUP4 DUP6 SUB SLT ISZERO PUSH2 0xAB6 JUMPI PUSH1 0x0 DUP1 REVERT JUMPDEST DUP3 CALLDATALOAD PUSH8 0xFFFFFFFFFFFFFFFF DUP1 DUP3 GT ISZERO PUSH2 0xACE JUMPI PUSH1 0x0 DUP1 REVERT JUMPDEST DUP2 DUP6 ADD SWAP2 POP DUP6 PUSH1 0x1F DUP4 ADD SLT PUSH2 0xAE2 JUMPI PUSH1 0x0 DUP1 REVERT JUMPDEST DUP2 CALLDATALOAD DUP2 DUP2 GT ISZERO PUSH2 0xAF1 JUMPI PUSH1 0x0 DUP1 REVERT JUMPDEST DUP7 PUSH1 0x20 DUP3 PUSH1 0x6 SHL DUP6 ADD ADD GT ISZERO PUSH2 0xB06 JUMPI PUSH1 0x0 DUP1 REVERT JUMPDEST PUSH1 0x20 SWAP3 SWAP1 SWAP3 ADD SWAP7 SWAP2 SWAP6 POP SWAP1 SWAP4 POP POP POP POP JUMP JUMPDEST PUSH1 0x0 PUSH1 0x20 DUP1 DUP4 MSTORE DUP4 MLOAD DUP1 DUP3 DUP6 ADD MSTORE PUSH1 0x0 JUMPDEST DUP2 DUP2 LT ISZERO PUSH2 0xB45 JUMPI DUP6 DUP2 ADD DUP4 ADD MLOAD DUP6 DUP3 ADD PUSH1 0x40 ADD MSTORE DUP3 ADD PUSH2 0xB29 JUMP JUMPDEST POP PUSH1 0x0 PUSH1 0x40 DUP3 DUP7 ADD ADD MSTORE PUSH1 0x40 PUSH1 0x1F NOT PUSH1 0x1F DUP4 ADD AND DUP6 ADD ADD SWAP3 POP POP POP SWAP3 SWAP2 POP POP JUMP JUMPDEST PUSH1 0x0 PUSH1 0x20 DUP3 DUP5 SUB SLT ISZERO PUSH2 0xB78 JUMPI PUSH1 0x0 DUP1 REVERT JUMPDEST POP CALLDATALOAD SWAP2 SWAP1 POP JUMP JUMPDEST PUSH1 0x0 DUP1 PUSH1 0x40 DUP4 DUP6 SUB SLT ISZERO PUSH2 0xB92 JUMPI PUSH1 0x0 DUP1 REVERT JUMPDEST PUSH2 0xB9B DUP4 PUSH2 0xA71 JUMP JUMPDEST SWAP5 PUSH1 0x20 SWAP4 SWAP1 SWAP4 ADD CALLDATALOAD SWAP4 POP POP POP JUMP JUMPDEST PUSH1 0x20 DUP1 DUP3 MSTORE DUP3 MLOAD DUP3 DUP3 ADD DUP2 SWAP1 MSTORE PUSH1 0x0 SWAP2 SWAP1 PUSH1 0x40 SWAP1 DUP2 DUP6 ADD SWAP1 DUP7 DUP5 ADD DUP6 JUMPDEST DUP3 DUP2 LT ISZERO PUSH2 0xBF4 JUMPI DUP2 MLOAD DUP1 MLOAD PUSH1 0x1 PUSH1 0x1 PUSH1 0xA0 SHL SUB AND DUP6 MSTORE DUP7 ADD MLOAD DUP7 DUP6 ADD MSTORE SWAP3 DUP5 ADD SWAP3 SWAP1 DUP6 ADD SWAP1 PUSH1 0x1 ADD PUSH2 0xBC6 JUMP JUMPDEST POP SWAP2 SWAP8 SWAP7 POP POP POP POP POP POP POP JUMP JUMPDEST PUSH4 0x4E487B71 PUSH1 0xE0 SHL PUSH1 0x0 MSTORE PUSH1 0x41 PUSH1 0x4 MSTORE PUSH1 0x24 PUSH1 0x0 REVERT JUMPDEST PUSH1 0x0 PUSH1 0x40 DUP3 DUP5 SUB SLT ISZERO PUSH2 0xC29 JUMPI PUSH1 0x0 DUP1 REVERT JUMPDEST PUSH1 0x40 MLOAD PUSH1 0x40 DUP2 ADD DUP2 DUP2 LT PUSH8 0xFFFFFFFFFFFFFFFF DUP3 GT OR ISZERO PUSH2 0xC5A JUMPI PUSH4 0x4E487B71 PUSH1 0xE0 SHL PUSH1 0x0 MSTORE PUSH1 0x41 PUSH1 0x4 MSTORE PUSH1 0x24 PUSH1 0x0 REVERT JUMPDEST PUSH1 0x40 MSTORE PUSH2 0xC66 DUP4 PUSH2 0xA71 JUMP JUMPDEST DUP2 MSTORE PUSH1 0x20 DUP4 ADD CALLDATALOAD PUSH1 0x20 DUP3 ADD MSTORE DUP1 SWAP2 POP POP SWAP3 SWAP2 POP POP JUMP JUMPDEST PUSH1 0x0 PUSH1 0x20 DUP3 DUP5 SUB SLT ISZERO PUSH2 0xC8E JUMPI PUSH1 0x0 DUP1 REVERT JUMPDEST POP MLOAD SWAP2 SWAP1 POP JUMP JUMPDEST PUSH4 0x4E487B71 PUSH1 0xE0 SHL PUSH1 0x0 MSTORE PUSH1 0x11 PUSH1 0x4 MSTORE PUSH1 0x24 PUSH1 0x0 REVERT JUMPDEST DUP1 DUP3 ADD DUP1 DUP3 GT ISZERO PUSH2 0x216 JUMPI PUSH2 0x216 PUSH2 0xC95 JUMP JUMPDEST PUSH1 0x0 PUSH1 0x1 DUP3 ADD PUSH2 0xCD0 JUMPI PUSH2 0xCD0 PUSH2 0xC95 JUMP JUMPDEST POP PUSH1 0x1 ADD SWAP1 JUMP JUMPDEST PUSH4 0x4E487B71 PUSH1 0xE0 SHL PUSH1 0x0 MSTORE PUSH1 0x32 PUSH1 0x4 MSTORE PUSH1 0x24 PUSH1 0x0 REVERT JUMPDEST DUP2 DUP2 SUB DUP2 DUP2 GT ISZERO PUSH2 0x216 JUMPI PUSH2 0x216 PUSH2 0xC95 JUMP JUMPDEST DUP1 DUP3 MUL DUP2 ISZERO DUP3 DUP3 DIV DUP5 EQ OR PUSH2 0x216 JUMPI PUSH2 0x216 PUSH2 0xC95 JUMP JUMPDEST PUSH1 0x0 DUP3 PUSH2 0xD34 JUMPI PUSH4 0x4E487B71 PUSH1 0xE0 SHL PUSH1 0x0 MSTORE PUSH1 0x12 PUSH1 0x4 MSTORE PUSH1 0x24 PUSH1 0x0 REVERT JUMPDEST POP DIV SWAP1 JUMP JUMPDEST PUSH4 0x4E487B71 PUSH1 0xE0 SHL PUSH1 0x0 MSTORE PUSH1 0x31 PUSH1 0x4 MSTORE PUSH1 0x24 PUSH1 0x0 REVERT INVALID LOG2 PUSH5 0x6970667358 0x22 SLT KECCAK256 PUSH9 0x91C56F9F591EF24CEF ISZERO SIGNEXTEND SWAP16 PUSH27 0xC61E41B2689802E9729DF349B774D126476964736F6C6343000811 STOP CALLER ","sha1":"ab14ab36b15371b59976ab872ce57e081aa51520","source":"// SPDX-License-Identifier: GPL-3.0-or-later\npragma solidity ^0.8.17;\n\nimport \"@openzeppelin/contracts/utils/structs/EnumerableMap.sol\";\n\nimport \"../../interfaces/IVault.sol\";\nimport \"./VaultWithThreshold.sol\";\nimport \"../../libraries/ScaledMath.sol\";\nimport \"../access/ImmutableOwner.sol\";\nimport \"./BaseVault.sol\";\n\ncontract AggregateLPVault is BaseVault, VaultWithThreshold, ImmutableOwner {\n    using EnumerableMap for EnumerableMap.AddressToUintMap;\n    using ScaledMath for uint256;\n\n    string internal constant _VAULT_TYPE = \"AggregateLP\";\n\n    struct VaultWeight {\n        address vaultAddress;\n        uint256 weight;\n    }\n\n    EnumerableMap.AddressToUintMap internal vaultsToWeights;\n\n    constructor(\n        address _owner,\n        uint256 _threshold,\n        VaultWeight[] memory vaultWeights\n    ) ImmutableOwner(_owner) {\n        threshold = _threshold;\n        _setVaultWeights(vaultWeights);\n    }\n\n    function setVaultWeights(\n        VaultWeight[] calldata vaultWeights\n    ) external onlyOwner {\n        _removeAllVaultWeights();\n        _setVaultWeights(vaultWeights);\n    }\n\n    function getVaultWeights() external view returns (VaultWeight[] memory) {\n        uint256 length = vaultsToWeights.length();\n        VaultWeight[] memory vaultWeights = new VaultWeight[](length);\n\n        for (uint256 i = 0; i < length; i++) {\n            (address vault, uint256 weight) = vaultsToWeights.at(i);\n            vaultWeights[i] = VaultWeight(vault, weight);\n        }\n\n        return vaultWeights;\n    }\n\n    function _removeAllVaultWeights() internal {\n        uint256 length = vaultsToWeights.length();\n        for (uint256 i = 0; i < length; i++) {\n            (address key, ) = vaultsToWeights.at(0);\n            vaultsToWeights.remove(key);\n        }\n    }\n\n    function getRawVotingPower(\n        address _user,\n        uint256 timestamp\n    ) public view override returns (uint256) {\n        uint256 rawVotingPower = 0;\n        for (uint256 i = 0; i < vaultsToWeights.length(); i++) {\n            (address vault, uint256 weight) = vaultsToWeights.at(i);\n            rawVotingPower += IVault(vault)\n                .getRawVotingPower(_user, timestamp)\n                .mulDown(weight);\n        }\n\n        return rawVotingPower;\n    }\n\n    function getTotalRawVotingPower() public view override returns (uint256) {\n        uint256 totalRawVotingPower = 0;\n        for (uint256 i = 0; i < vaultsToWeights.length(); i++) {\n            (address vault, uint256 weight) = vaultsToWeights.at(i);\n            totalRawVotingPower += IVault(vault)\n                .getTotalRawVotingPower()\n                .mulDown(weight);\n        }\n\n        if (totalRawVotingPower <= threshold) {\n            totalRawVotingPower = threshold;\n        }\n\n        return totalRawVotingPower;\n    }\n\n    function getVaultType() external pure returns (string memory) {\n        return _VAULT_TYPE;\n    }\n\n    function _setVaultWeights(VaultWeight[] memory vaultWeights) internal {\n        for (uint256 i; i < vaultWeights.length; i++) {\n            VaultWeight memory v = vaultWeights[i];\n            require(v.weight > 0, \"cannot have a 0 weight\");\n            vaultsToWeights.set(v.vaultAddress, v.weight);\n        }\n    }\n}\n","sourcePath":"contracts/vaults/AggregateLPVault.sol","type":"contract","deployment":{"address":"0xE8b18f8A2E4A1CD23E7f5fc6d9324F47f10dB528","chainid":"1","blockHeight":18362743}}