{"abi":[{"inputs":[],"stateMutability":"nonpayable","type":"constructor","name":"constructor"},{"anonymous":false,"inputs":[{"indexed":false,"internalType":"address","name":"delegator","type":"address"},{"indexed":false,"internalType":"address","name":"delegate","type":"address"},{"indexed":false,"internalType":"uint256","name":"amount","type":"uint256"}],"name":"VotesDelegated","type":"event"},{"anonymous":false,"inputs":[{"indexed":false,"internalType":"address","name":"delegator","type":"address"},{"indexed":false,"internalType":"address","name":"delegate","type":"address"},{"indexed":false,"internalType":"uint256","name":"amount","type":"uint256"}],"name":"VotesUndelegated","type":"event"},{"inputs":[{"internalType":"address","name":"_oldDelegate","type":"address"},{"internalType":"address","name":"_newDelegate","type":"address"},{"internalType":"uint256","name":"_amount","type":"uint256"}],"name":"changeDelegate","outputs":[],"stateMutability":"nonpayable","type":"function"},{"inputs":[{"internalType":"address","name":"_delegate","type":"address"},{"internalType":"uint256","name":"_amount","type":"uint256"}],"name":"delegateVote","outputs":[],"stateMutability":"nonpayable","type":"function"},{"inputs":[{"internalType":"address","name":"account","type":"address"}],"name":"getRawVotingPower","outputs":[{"internalType":"uint256","name":"","type":"uint256"}],"stateMutability":"view","type":"function"},{"inputs":[{"internalType":"address","name":"user","type":"address"},{"internalType":"uint256","name":"timestamp","type":"uint256"}],"name":"getRawVotingPower","outputs":[{"internalType":"uint256","name":"","type":"uint256"}],"stateMutability":"view","type":"function"},{"inputs":[],"name":"getTotalRawVotingPower","outputs":[{"internalType":"uint256","name":"","type":"uint256"}],"stateMutability":"view","type":"function"},{"inputs":[],"name":"rawVotingPower","outputs":[{"internalType":"uint256","name":"","type":"uint256"}],"stateMutability":"view","type":"function"},{"inputs":[],"name":"totalRawVotingPower","outputs":[{"internalType":"uint256","name":"","type":"uint256"}],"stateMutability":"view","type":"function"},{"inputs":[{"internalType":"address","name":"_delegate","type":"address"},{"internalType":"uint256","name":"_amount","type":"uint256"}],"name":"undelegateVote","outputs":[],"stateMutability":"nonpayable","type":"function"},{"inputs":[{"internalType":"address","name":"user","type":"address"},{"internalType":"uint256","name":"amount","type":"uint256"}],"name":"updateVotingPower","outputs":[],"stateMutability":"nonpayable","type":"function"}],"bytecode":"608060405234801561001057600080fd5b5061002933600661002f60201b61026a1790919060201c565b5061009c565b6000610044836001600160a01b03841661004d565b90505b92915050565b600081815260018301602052604081205461009457508154600181810184556000848152602080822090930184905584548482528286019093526040902091909155610047565b506000610047565b610df9806100ab6000396000f3fe608060405234801561001057600080fd5b50600436106100935760003560e01c8063cead048111610066578063cead0481146100e3578063de1ec403146100f6578063df3422b914610109578063e2fcf55014610112578063eadc29c71461012557600080fd5b80632fbf233a14610098578063344ff1d0146100b3578063926f7327146100bb5780639f1acf08146100d0575b600080fd5b6100a160015481565b60405190815260200160405180910390f35b6001546100a1565b6100ce6100c9366004610c6f565b610138565b005b6100a16100de366004610c99565b610149565b6100ce6100f1366004610cb4565b61015b565b6100a1610104366004610c6f565b61017a565b6100a160005481565b6100ce610120366004610c6f565b61018f565b6100ce610133366004610c6f565b61019c565b610145600233848461027f565b5050565b6000610155824261017a565b92915050565b610168600233858461046a565b610175600233848461027f565b505050565b60006101886002848461064c565b9392505050565b610145600233848461046a565b6101a76006336106fd565b6101e55760405162461bcd60e51b815260206004820152600a60248201526937b7363c9030b236b4b760b11b60448201526064015b60405180910390fd5b60006101f260028461071f565b905061020f8160200151826040015161082d90919063ffffffff16565b600160008282546102209190610d06565b90915550506040810151606082015161023f916002918691869161084c565b50604081015161024f908361082d565b600160008282546102609190610d19565b9091555050505050565b6000610188836001600160a01b0384166109a9565b600061028b858561071f565b6001600160a01b0385166000908152600287016020908152604080832054908401519184015193945091926102bf9161082d565b6102c99190610d06565b90508281101561031b5760405162461bcd60e51b815260206004820181905260248201527f696e73756666696369656e742062616c616e636520746f2064656c656761746560448201526064016101dc565b6001600160a01b038416600090815260038701602052604081208054859290610345908490610d19565b90915550506001600160a01b038516600090815260028701602052604081208054859290610374908490610d19565b90915550506001600160a01b0380861660009081526001880160209081526040808320938816835292905290812080548592906103b2908490610d19565b9091555050602082015160408301516103db9187916103d18a846109f8565b8a9392919061084c565b5060006103e8878661071f565b9050610415858260200151836040015161040b898c6109f890919063ffffffff16565b8b9392919061084c565b50604080516001600160a01b038089168252871660208201529081018590527fff825f9424124effc5ce1d9f4803d58ede8a2bda4da2324810f74834715c4c599060600160405180910390a150505050505050565b6001600160a01b0380841660009081526001860160209081526040808320938616835292905220548111156104f35760405162461bcd60e51b815260206004820152602960248201527f7573657220686173206e6f742064656c65676174656420656e6f75676820746f6044820152682064656c656761746560b81b60648201526084016101dc565b6001600160a01b03821660009081526003850160205260408120805483929061051d908490610d06565b90915550506001600160a01b03831660009081526002850160205260408120805483929061054c908490610d06565b90915550506001600160a01b03808416600090815260018601602090815260408083209386168352929052908120805483929061058a908490610d06565b9091555050604080516001600160a01b038086168252841660208201529081018290527fde5aa493a93d4351631c1991a0aeecfd52d6b51cf1b61f1a3c48f97e268086539060600160405180910390a160006105e6858561071f565b90506106138482602001518360400151610609888a6109f890919063ffffffff16565b899392919061084c565b506000610620868561071f565b905061064384826020015183604001516103d1888b6109f890919063ffffffff16565b50505050505050565b6001600160a01b038216600090815260208481526040808320805482518185028101850190935280835284936106e893929190859084015b828210156106de578382906000526020600020906004020160405180608001604052908160008201548152602001600182015481526020016002820154815260200160038201548152505081526020019060010190610684565b5050505084610a2a565b9150506106f481610a70565b95945050505050565b6001600160a01b03811660009081526001830160205260408120541515610188565b61074a6040518060800160405280600081526020016000815260200160008152602001600081525090565b6001600160a01b03821660009081526020848152604080832080548251818502810185019093528083529192909190849084015b828210156107d857838290600052602060002090600402016040518060800160405290816000820154815260200160018201548152602001600282015481526020016003820154815250508152602001906001019061077e565b50505050905080516000036107f7576107ef610a9c565b915050610155565b80600182516108069190610d06565b8151811061081657610816610d2c565b6020026020010151915050610155565b5092915050565b6000670de0b6b3a76400006108428385610d42565b6101889190610d59565b6108776040518060800160405280600081526020016000815260200160008152602001600081525090565b6001600160a01b0385166000908152602087815260408083208151608081018352428152928301889052929190810186156108b257866108bc565b670de0b6b3a76400005b8152602001859052905060006108d2898961071f565b8051909150421480156108e55750825415155b1561094a578254829084906108fc90600190610d06565b8154811061090c5761090c610d2c565b90600052602060002090600402016000820151816000015560208201518160010155604082015181600201556060820151816003015590505061099d565b6001600160a01b038816600090815260208a815260408083208054600181810183559185529383902086516004909502019384559185015191830191909155830151600282015560608301516003909101555b50979650505050505050565b60008181526001830160205260408120546109f057508154600181810184556000848152602080822090930184905584548482528286019093526040902091909155610155565b506000610155565b6001600160a01b0381166000908152600283016020908152604080832054600386019092528220546101889190610d7b565b6000610a576040518060800160405280600081526020016000815260200160008152602001600081525090565b610a65848460008751610af8565b915091509250929050565b60008160600151610a928360400151846020015161082d90919063ffffffff16565b6101559190610d9b565b610ac76040518060800160405280600081526020016000815260200160008152602001600081525090565b60405180608001604052806000815260200160008152602001670de0b6b3a764000081526020016000815250905090565b6000610b256040518060800160405280600081526020016000815260200160008152602001600081525090565b828410610b3f576000610b36610a9c565b91509150610c4a565b610b498484610d06565b600103610b97576000868581518110610b6457610b64610d2c565b602002602001015190508581600001511115610b89576000610b84610a9c565b610b8d565b6001815b9250925050610c4a565b60006002610ba58686610d19565b610baf9190610d59565b9050600087610bbf600184610d06565b81518110610bcf57610bcf610d2c565b602002602001015190506000888381518110610bed57610bed610d2c565b6020026020010151905087826000015111158015610c0b5750805188105b15610c1e5750600193509150610c4a9050565b80518810610c3e57610c3289898589610af8565b94509450505050610c4a565b610c3289898986610af8565b94509492505050565b80356001600160a01b0381168114610c6a57600080fd5b919050565b60008060408385031215610c8257600080fd5b610c8b83610c53565b946020939093013593505050565b600060208284031215610cab57600080fd5b61018882610c53565b600080600060608486031215610cc957600080fd5b610cd284610c53565b9250610ce060208501610c53565b9150604084013590509250925092565b634e487b7160e01b600052601160045260246000fd5b8181038181111561015557610155610cf0565b8082018082111561015557610155610cf0565b634e487b7160e01b600052603260045260246000fd5b808202811582820484141761015557610155610cf0565b600082610d7657634e487b7160e01b600052601260045260246000fd5b500490565b818103600083128015838313168383128216171561082657610826610cf0565b8082018281126000831280158216821582161715610dbb57610dbb610cf0565b50509291505056fea2646970667358221220ba00c72e866d1693e74b9edfc5ea10ceb1eaaa34ced2946a10c2893e9583a55364736f6c63430008110033","bytecodeSha1":"c07dd75a8db964cd9f8614005bd6a6fbbff42d5e","compiler":{"evm_version":"istanbul","optimizer":{"enabled":true,"runs":200},"version":"0.8.17+commit.8df45f5f"},"contractName":"MockVault","language":"Solidity","natspec":{"kind":"dev","methods":{},"version":1},"opcodes":"PUSH1 0x80 PUSH1 0x40 MSTORE CALLVALUE DUP1 ISZERO PUSH2 0x10 JUMPI PUSH1 0x0 DUP1 REVERT JUMPDEST POP PUSH1 0x4 CALLDATASIZE LT PUSH2 0x93 JUMPI PUSH1 0x0 CALLDATALOAD PUSH1 0xE0 SHR DUP1 PUSH4 0xCEAD0481 GT PUSH2 0x66 JUMPI DUP1 PUSH4 0xCEAD0481 EQ PUSH2 0xE3 JUMPI DUP1 PUSH4 0xDE1EC403 EQ PUSH2 0xF6 JUMPI DUP1 PUSH4 0xDF3422B9 EQ PUSH2 0x109 JUMPI DUP1 PUSH4 0xE2FCF550 EQ PUSH2 0x112 JUMPI DUP1 PUSH4 0xEADC29C7 EQ PUSH2 0x125 JUMPI PUSH1 0x0 DUP1 REVERT JUMPDEST DUP1 PUSH4 0x2FBF233A EQ PUSH2 0x98 JUMPI DUP1 PUSH4 0x344FF1D0 EQ PUSH2 0xB3 JUMPI DUP1 PUSH4 0x926F7327 EQ PUSH2 0xBB JUMPI DUP1 PUSH4 0x9F1ACF08 EQ PUSH2 0xD0 JUMPI JUMPDEST PUSH1 0x0 DUP1 REVERT JUMPDEST PUSH2 0xA1 PUSH1 0x1 SLOAD DUP2 JUMP JUMPDEST PUSH1 0x40 MLOAD SWAP1 DUP2 MSTORE PUSH1 0x20 ADD PUSH1 0x40 MLOAD DUP1 SWAP2 SUB SWAP1 RETURN JUMPDEST PUSH1 0x1 SLOAD PUSH2 0xA1 JUMP JUMPDEST PUSH2 0xCE PUSH2 0xC9 CALLDATASIZE PUSH1 0x4 PUSH2 0xC6F JUMP JUMPDEST PUSH2 0x138 JUMP JUMPDEST STOP JUMPDEST PUSH2 0xA1 PUSH2 0xDE CALLDATASIZE PUSH1 0x4 PUSH2 0xC99 JUMP JUMPDEST PUSH2 0x149 JUMP JUMPDEST PUSH2 0xCE PUSH2 0xF1 CALLDATASIZE PUSH1 0x4 PUSH2 0xCB4 JUMP JUMPDEST PUSH2 0x15B JUMP JUMPDEST PUSH2 0xA1 PUSH2 0x104 CALLDATASIZE PUSH1 0x4 PUSH2 0xC6F JUMP JUMPDEST PUSH2 0x17A JUMP JUMPDEST PUSH2 0xA1 PUSH1 0x0 SLOAD DUP2 JUMP JUMPDEST PUSH2 0xCE PUSH2 0x120 CALLDATASIZE PUSH1 0x4 PUSH2 0xC6F JUMP JUMPDEST PUSH2 0x18F JUMP JUMPDEST PUSH2 0xCE PUSH2 0x133 CALLDATASIZE PUSH1 0x4 PUSH2 0xC6F JUMP JUMPDEST PUSH2 0x19C JUMP JUMPDEST PUSH2 0x145 PUSH1 0x2 CALLER DUP5 DUP5 PUSH2 0x27F JUMP JUMPDEST POP POP JUMP JUMPDEST PUSH1 0x0 PUSH2 0x155 DUP3 TIMESTAMP PUSH2 0x17A JUMP JUMPDEST SWAP3 SWAP2 POP POP JUMP JUMPDEST PUSH2 0x168 PUSH1 0x2 CALLER DUP6 DUP5 PUSH2 0x46A JUMP JUMPDEST PUSH2 0x175 PUSH1 0x2 CALLER DUP5 DUP5 PUSH2 0x27F JUMP JUMPDEST POP POP POP JUMP JUMPDEST PUSH1 0x0 PUSH2 0x188 PUSH1 0x2 DUP5 DUP5 PUSH2 0x64C JUMP JUMPDEST SWAP4 SWAP3 POP POP POP JUMP JUMPDEST PUSH2 0x145 PUSH1 0x2 CALLER DUP5 DUP5 PUSH2 0x46A JUMP JUMPDEST PUSH2 0x1A7 PUSH1 0x6 CALLER PUSH2 0x6FD JUMP JUMPDEST PUSH2 0x1E5 JUMPI PUSH1 0x40 MLOAD PUSH3 0x461BCD PUSH1 0xE5 SHL DUP2 MSTORE PUSH1 0x20 PUSH1 0x4 DUP3 ADD MSTORE PUSH1 0xA PUSH1 0x24 DUP3 ADD MSTORE PUSH10 0x37B7363C9030B236B4B7 PUSH1 0xB1 SHL PUSH1 0x44 DUP3 ADD MSTORE PUSH1 0x64 ADD JUMPDEST PUSH1 0x40 MLOAD DUP1 SWAP2 SUB SWAP1 REVERT JUMPDEST PUSH1 0x0 PUSH2 0x1F2 PUSH1 0x2 DUP5 PUSH2 0x71F JUMP JUMPDEST SWAP1 POP PUSH2 0x20F DUP2 PUSH1 0x20 ADD MLOAD DUP3 PUSH1 0x40 ADD MLOAD PUSH2 0x82D SWAP1 SWAP2 SWAP1 PUSH4 0xFFFFFFFF AND JUMP JUMPDEST PUSH1 0x1 PUSH1 0x0 DUP3 DUP3 SLOAD PUSH2 0x220 SWAP2 SWAP1 PUSH2 0xD06 JUMP JUMPDEST SWAP1 SWAP2 SSTORE POP POP PUSH1 0x40 DUP2 ADD MLOAD PUSH1 0x60 DUP3 ADD MLOAD PUSH2 0x23F SWAP2 PUSH1 0x2 SWAP2 DUP7 SWAP2 DUP7 SWAP2 PUSH2 0x84C JUMP JUMPDEST POP PUSH1 0x40 DUP2 ADD MLOAD PUSH2 0x24F SWAP1 DUP4 PUSH2 0x82D JUMP JUMPDEST PUSH1 0x1 PUSH1 0x0 DUP3 DUP3 SLOAD PUSH2 0x260 SWAP2 SWAP1 PUSH2 0xD19 JUMP JUMPDEST SWAP1 SWAP2 SSTORE POP POP POP POP POP JUMP JUMPDEST PUSH1 0x0 PUSH2 0x188 DUP4 PUSH1 0x1 PUSH1 0x1 PUSH1 0xA0 SHL SUB DUP5 AND PUSH2 0x9A9 JUMP JUMPDEST PUSH1 0x0 PUSH2 0x28B DUP6 DUP6 PUSH2 0x71F JUMP JUMPDEST PUSH1 0x1 PUSH1 0x1 PUSH1 0xA0 SHL SUB DUP6 AND PUSH1 0x0 SWAP1 DUP2 MSTORE PUSH1 0x2 DUP8 ADD PUSH1 0x20 SWAP1 DUP2 MSTORE PUSH1 0x40 DUP1 DUP4 KECCAK256 SLOAD SWAP1 DUP5 ADD MLOAD SWAP2 DUP5 ADD MLOAD SWAP4 SWAP5 POP SWAP2 SWAP3 PUSH2 0x2BF SWAP2 PUSH2 0x82D JUMP JUMPDEST PUSH2 0x2C9 SWAP2 SWAP1 PUSH2 0xD06 JUMP JUMPDEST SWAP1 POP DUP3 DUP2 LT ISZERO PUSH2 0x31B JUMPI PUSH1 0x40 MLOAD PUSH3 0x461BCD PUSH1 0xE5 SHL DUP2 MSTORE PUSH1 0x20 PUSH1 0x4 DUP3 ADD DUP2 SWAP1 MSTORE PUSH1 0x24 DUP3 ADD MSTORE PUSH32 0x696E73756666696369656E742062616C616E636520746F2064656C6567617465 PUSH1 0x44 DUP3 ADD MSTORE PUSH1 0x64 ADD PUSH2 0x1DC JUMP JUMPDEST PUSH1 0x1 PUSH1 0x1 PUSH1 0xA0 SHL SUB DUP5 AND PUSH1 0x0 SWAP1 DUP2 MSTORE PUSH1 0x3 DUP8 ADD PUSH1 0x20 MSTORE PUSH1 0x40 DUP2 KECCAK256 DUP1 SLOAD DUP6 SWAP3 SWAP1 PUSH2 0x345 SWAP1 DUP5 SWAP1 PUSH2 0xD19 JUMP JUMPDEST SWAP1 SWAP2 SSTORE POP POP PUSH1 0x1 PUSH1 0x1 PUSH1 0xA0 SHL SUB DUP6 AND PUSH1 0x0 SWAP1 DUP2 MSTORE PUSH1 0x2 DUP8 ADD PUSH1 0x20 MSTORE PUSH1 0x40 DUP2 KECCAK256 DUP1 SLOAD DUP6 SWAP3 SWAP1 PUSH2 0x374 SWAP1 DUP5 SWAP1 PUSH2 0xD19 JUMP JUMPDEST SWAP1 SWAP2 SSTORE POP POP PUSH1 0x1 PUSH1 0x1 PUSH1 0xA0 SHL SUB DUP1 DUP7 AND PUSH1 0x0 SWAP1 DUP2 MSTORE PUSH1 0x1 DUP9 ADD PUSH1 0x20 SWAP1 DUP2 MSTORE PUSH1 0x40 DUP1 DUP4 KECCAK256 SWAP4 DUP9 AND DUP4 MSTORE SWAP3 SWAP1 MSTORE SWAP1 DUP2 KECCAK256 DUP1 SLOAD DUP6 SWAP3 SWAP1 PUSH2 0x3B2 SWAP1 DUP5 SWAP1 PUSH2 0xD19 JUMP JUMPDEST SWAP1 SWAP2 SSTORE POP POP PUSH1 0x20 DUP3 ADD MLOAD PUSH1 0x40 DUP4 ADD MLOAD PUSH2 0x3DB SWAP2 DUP8 SWAP2 PUSH2 0x3D1 DUP11 DUP5 PUSH2 0x9F8 JUMP JUMPDEST DUP11 SWAP4 SWAP3 SWAP2 SWAP1 PUSH2 0x84C JUMP JUMPDEST POP PUSH1 0x0 PUSH2 0x3E8 DUP8 DUP7 PUSH2 0x71F JUMP JUMPDEST SWAP1 POP PUSH2 0x415 DUP6 DUP3 PUSH1 0x20 ADD MLOAD DUP4 PUSH1 0x40 ADD MLOAD PUSH2 0x40B DUP10 DUP13 PUSH2 0x9F8 SWAP1 SWAP2 SWAP1 PUSH4 0xFFFFFFFF AND JUMP JUMPDEST DUP12 SWAP4 SWAP3 SWAP2 SWAP1 PUSH2 0x84C JUMP JUMPDEST POP PUSH1 0x40 DUP1 MLOAD PUSH1 0x1 PUSH1 0x1 PUSH1 0xA0 SHL SUB DUP1 DUP10 AND DUP3 MSTORE DUP8 AND PUSH1 0x20 DUP3 ADD MSTORE SWAP1 DUP2 ADD DUP6 SWAP1 MSTORE PUSH32 0xFF825F9424124EFFC5CE1D9F4803D58EDE8A2BDA4DA2324810F74834715C4C59 SWAP1 PUSH1 0x60 ADD PUSH1 0x40 MLOAD DUP1 SWAP2 SUB SWAP1 LOG1 POP POP POP POP POP POP POP JUMP JUMPDEST PUSH1 0x1 PUSH1 0x1 PUSH1 0xA0 SHL SUB DUP1 DUP5 AND PUSH1 0x0 SWAP1 DUP2 MSTORE PUSH1 0x1 DUP7 ADD PUSH1 0x20 SWAP1 DUP2 MSTORE PUSH1 0x40 DUP1 DUP4 KECCAK256 SWAP4 DUP7 AND DUP4 MSTORE SWAP3 SWAP1 MSTORE KECCAK256 SLOAD DUP2 GT ISZERO PUSH2 0x4F3 JUMPI PUSH1 0x40 MLOAD PUSH3 0x461BCD PUSH1 0xE5 SHL DUP2 MSTORE PUSH1 0x20 PUSH1 0x4 DUP3 ADD MSTORE PUSH1 0x29 PUSH1 0x24 DUP3 ADD MSTORE PUSH32 0x7573657220686173206E6F742064656C65676174656420656E6F75676820746F PUSH1 0x44 DUP3 ADD MSTORE PUSH9 0x2064656C6567617465 PUSH1 0xB8 SHL PUSH1 0x64 DUP3 ADD MSTORE PUSH1 0x84 ADD PUSH2 0x1DC JUMP JUMPDEST PUSH1 0x1 PUSH1 0x1 PUSH1 0xA0 SHL SUB DUP3 AND PUSH1 0x0 SWAP1 DUP2 MSTORE PUSH1 0x3 DUP6 ADD PUSH1 0x20 MSTORE PUSH1 0x40 DUP2 KECCAK256 DUP1 SLOAD DUP4 SWAP3 SWAP1 PUSH2 0x51D SWAP1 DUP5 SWAP1 PUSH2 0xD06 JUMP JUMPDEST SWAP1 SWAP2 SSTORE POP POP PUSH1 0x1 PUSH1 0x1 PUSH1 0xA0 SHL SUB DUP4 AND PUSH1 0x0 SWAP1 DUP2 MSTORE PUSH1 0x2 DUP6 ADD PUSH1 0x20 MSTORE PUSH1 0x40 DUP2 KECCAK256 DUP1 SLOAD DUP4 SWAP3 SWAP1 PUSH2 0x54C SWAP1 DUP5 SWAP1 PUSH2 0xD06 JUMP JUMPDEST SWAP1 SWAP2 SSTORE POP POP PUSH1 0x1 PUSH1 0x1 PUSH1 0xA0 SHL SUB DUP1 DUP5 AND PUSH1 0x0 SWAP1 DUP2 MSTORE PUSH1 0x1 DUP7 ADD PUSH1 0x20 SWAP1 DUP2 MSTORE PUSH1 0x40 DUP1 DUP4 KECCAK256 SWAP4 DUP7 AND DUP4 MSTORE SWAP3 SWAP1 MSTORE SWAP1 DUP2 KECCAK256 DUP1 SLOAD DUP4 SWAP3 SWAP1 PUSH2 0x58A SWAP1 DUP5 SWAP1 PUSH2 0xD06 JUMP JUMPDEST SWAP1 SWAP2 SSTORE POP POP PUSH1 0x40 DUP1 MLOAD PUSH1 0x1 PUSH1 0x1 PUSH1 0xA0 SHL SUB DUP1 DUP7 AND DUP3 MSTORE DUP5 AND PUSH1 0x20 DUP3 ADD MSTORE SWAP1 DUP2 ADD DUP3 SWAP1 MSTORE PUSH32 0xDE5AA493A93D4351631C1991A0AEECFD52D6B51CF1B61F1A3C48F97E26808653 SWAP1 PUSH1 0x60 ADD PUSH1 0x40 MLOAD DUP1 SWAP2 SUB SWAP1 LOG1 PUSH1 0x0 PUSH2 0x5E6 DUP6 DUP6 PUSH2 0x71F JUMP JUMPDEST SWAP1 POP PUSH2 0x613 DUP5 DUP3 PUSH1 0x20 ADD MLOAD DUP4 PUSH1 0x40 ADD MLOAD PUSH2 0x609 DUP9 DUP11 PUSH2 0x9F8 SWAP1 SWAP2 SWAP1 PUSH4 0xFFFFFFFF AND JUMP JUMPDEST DUP10 SWAP4 SWAP3 SWAP2 SWAP1 PUSH2 0x84C JUMP JUMPDEST POP PUSH1 0x0 PUSH2 0x620 DUP7 DUP6 PUSH2 0x71F JUMP JUMPDEST SWAP1 POP PUSH2 0x643 DUP5 DUP3 PUSH1 0x20 ADD MLOAD DUP4 PUSH1 0x40 ADD MLOAD PUSH2 0x3D1 DUP9 DUP12 PUSH2 0x9F8 SWAP1 SWAP2 SWAP1 PUSH4 0xFFFFFFFF AND JUMP JUMPDEST POP POP POP POP POP POP POP JUMP JUMPDEST PUSH1 0x1 PUSH1 0x1 PUSH1 0xA0 SHL SUB DUP3 AND PUSH1 0x0 SWAP1 DUP2 MSTORE PUSH1 0x20 DUP5 DUP2 MSTORE PUSH1 0x40 DUP1 DUP4 KECCAK256 DUP1 SLOAD DUP3 MLOAD DUP2 DUP6 MUL DUP2 ADD DUP6 ADD SWAP1 SWAP4 MSTORE DUP1 DUP4 MSTORE DUP5 SWAP4 PUSH2 0x6E8 SWAP4 SWAP3 SWAP2 SWAP1 DUP6 SWAP1 DUP5 ADD JUMPDEST DUP3 DUP3 LT ISZERO PUSH2 0x6DE JUMPI DUP4 DUP3 SWAP1 PUSH1 0x0 MSTORE PUSH1 0x20 PUSH1 0x0 KECCAK256 SWAP1 PUSH1 0x4 MUL ADD PUSH1 0x40 MLOAD DUP1 PUSH1 0x80 ADD PUSH1 0x40 MSTORE SWAP1 DUP2 PUSH1 0x0 DUP3 ADD SLOAD DUP2 MSTORE PUSH1 0x20 ADD PUSH1 0x1 DUP3 ADD SLOAD DUP2 MSTORE PUSH1 0x20 ADD PUSH1 0x2 DUP3 ADD SLOAD DUP2 MSTORE PUSH1 0x20 ADD PUSH1 0x3 DUP3 ADD SLOAD DUP2 MSTORE POP POP DUP2 MSTORE PUSH1 0x20 ADD SWAP1 PUSH1 0x1 ADD SWAP1 PUSH2 0x684 JUMP JUMPDEST POP POP POP POP DUP5 PUSH2 0xA2A JUMP JUMPDEST SWAP2 POP POP PUSH2 0x6F4 DUP2 PUSH2 0xA70 JUMP JUMPDEST SWAP6 SWAP5 POP POP POP POP POP JUMP JUMPDEST PUSH1 0x1 PUSH1 0x1 PUSH1 0xA0 SHL SUB DUP2 AND PUSH1 0x0 SWAP1 DUP2 MSTORE PUSH1 0x1 DUP4 ADD PUSH1 0x20 MSTORE PUSH1 0x40 DUP2 KECCAK256 SLOAD ISZERO ISZERO PUSH2 0x188 JUMP JUMPDEST PUSH2 0x74A PUSH1 0x40 MLOAD DUP1 PUSH1 0x80 ADD PUSH1 0x40 MSTORE DUP1 PUSH1 0x0 DUP2 MSTORE PUSH1 0x20 ADD PUSH1 0x0 DUP2 MSTORE PUSH1 0x20 ADD PUSH1 0x0 DUP2 MSTORE PUSH1 0x20 ADD PUSH1 0x0 DUP2 MSTORE POP SWAP1 JUMP JUMPDEST PUSH1 0x1 PUSH1 0x1 PUSH1 0xA0 SHL SUB DUP3 AND PUSH1 0x0 SWAP1 DUP2 MSTORE PUSH1 0x20 DUP5 DUP2 MSTORE PUSH1 0x40 DUP1 DUP4 KECCAK256 DUP1 SLOAD DUP3 MLOAD DUP2 DUP6 MUL DUP2 ADD DUP6 ADD SWAP1 SWAP4 MSTORE DUP1 DUP4 MSTORE SWAP2 SWAP3 SWAP1 SWAP2 SWAP1 DUP5 SWAP1 DUP5 ADD JUMPDEST DUP3 DUP3 LT ISZERO PUSH2 0x7D8 JUMPI DUP4 DUP3 SWAP1 PUSH1 0x0 MSTORE PUSH1 0x20 PUSH1 0x0 KECCAK256 SWAP1 PUSH1 0x4 MUL ADD PUSH1 0x40 MLOAD DUP1 PUSH1 0x80 ADD PUSH1 0x40 MSTORE SWAP1 DUP2 PUSH1 0x0 DUP3 ADD SLOAD DUP2 MSTORE PUSH1 0x20 ADD PUSH1 0x1 DUP3 ADD SLOAD DUP2 MSTORE PUSH1 0x20 ADD PUSH1 0x2 DUP3 ADD SLOAD DUP2 MSTORE PUSH1 0x20 ADD PUSH1 0x3 DUP3 ADD SLOAD DUP2 MSTORE POP POP DUP2 MSTORE PUSH1 0x20 ADD SWAP1 PUSH1 0x1 ADD SWAP1 PUSH2 0x77E JUMP JUMPDEST POP POP POP POP SWAP1 POP DUP1 MLOAD PUSH1 0x0 SUB PUSH2 0x7F7 JUMPI PUSH2 0x7EF PUSH2 0xA9C JUMP JUMPDEST SWAP2 POP POP PUSH2 0x155 JUMP JUMPDEST DUP1 PUSH1 0x1 DUP3 MLOAD PUSH2 0x806 SWAP2 SWAP1 PUSH2 0xD06 JUMP JUMPDEST DUP2 MLOAD DUP2 LT PUSH2 0x816 JUMPI PUSH2 0x816 PUSH2 0xD2C JUMP JUMPDEST PUSH1 0x20 MUL PUSH1 0x20 ADD ADD MLOAD SWAP2 POP POP PUSH2 0x155 JUMP JUMPDEST POP SWAP3 SWAP2 POP POP JUMP JUMPDEST PUSH1 0x0 PUSH8 0xDE0B6B3A7640000 PUSH2 0x842 DUP4 DUP6 PUSH2 0xD42 JUMP JUMPDEST PUSH2 0x188 SWAP2 SWAP1 PUSH2 0xD59 JUMP JUMPDEST PUSH2 0x877 PUSH1 0x40 MLOAD DUP1 PUSH1 0x80 ADD PUSH1 0x40 MSTORE DUP1 PUSH1 0x0 DUP2 MSTORE PUSH1 0x20 ADD PUSH1 0x0 DUP2 MSTORE PUSH1 0x20 ADD PUSH1 0x0 DUP2 MSTORE PUSH1 0x20 ADD PUSH1 0x0 DUP2 MSTORE POP SWAP1 JUMP JUMPDEST PUSH1 0x1 PUSH1 0x1 PUSH1 0xA0 SHL SUB DUP6 AND PUSH1 0x0 SWAP1 DUP2 MSTORE PUSH1 0x20 DUP8 DUP2 MSTORE PUSH1 0x40 DUP1 DUP4 KECCAK256 DUP2 MLOAD PUSH1 0x80 DUP2 ADD DUP4 MSTORE TIMESTAMP DUP2 MSTORE SWAP3 DUP4 ADD DUP9 SWAP1 MSTORE SWAP3 SWAP2 SWAP1 DUP2 ADD DUP7 ISZERO PUSH2 0x8B2 JUMPI DUP7 PUSH2 0x8BC JUMP JUMPDEST PUSH8 0xDE0B6B3A7640000 JUMPDEST DUP2 MSTORE PUSH1 0x20 ADD DUP6 SWAP1 MSTORE SWAP1 POP PUSH1 0x0 PUSH2 0x8D2 DUP10 DUP10 PUSH2 0x71F JUMP JUMPDEST DUP1 MLOAD SWAP1 SWAP2 POP TIMESTAMP EQ DUP1 ISZERO PUSH2 0x8E5 JUMPI POP DUP3 SLOAD ISZERO ISZERO JUMPDEST ISZERO PUSH2 0x94A JUMPI DUP3 SLOAD DUP3 SWAP1 DUP5 SWAP1 PUSH2 0x8FC SWAP1 PUSH1 0x1 SWAP1 PUSH2 0xD06 JUMP JUMPDEST DUP2 SLOAD DUP2 LT PUSH2 0x90C JUMPI PUSH2 0x90C PUSH2 0xD2C JUMP JUMPDEST SWAP1 PUSH1 0x0 MSTORE PUSH1 0x20 PUSH1 0x0 KECCAK256 SWAP1 PUSH1 0x4 MUL ADD PUSH1 0x0 DUP3 ADD MLOAD DUP2 PUSH1 0x0 ADD SSTORE PUSH1 0x20 DUP3 ADD MLOAD DUP2 PUSH1 0x1 ADD SSTORE PUSH1 0x40 DUP3 ADD MLOAD DUP2 PUSH1 0x2 ADD SSTORE PUSH1 0x60 DUP3 ADD MLOAD DUP2 PUSH1 0x3 ADD SSTORE SWAP1 POP POP PUSH2 0x99D JUMP JUMPDEST PUSH1 0x1 PUSH1 0x1 PUSH1 0xA0 SHL SUB DUP9 AND PUSH1 0x0 SWAP1 DUP2 MSTORE PUSH1 0x20 DUP11 DUP2 MSTORE PUSH1 0x40 DUP1 DUP4 KECCAK256 DUP1 SLOAD PUSH1 0x1 DUP2 DUP2 ADD DUP4 SSTORE SWAP2 DUP6 MSTORE SWAP4 DUP4 SWAP1 KECCAK256 DUP7 MLOAD PUSH1 0x4 SWAP1 SWAP6 MUL ADD SWAP4 DUP5 SSTORE SWAP2 DUP6 ADD MLOAD SWAP2 DUP4 ADD SWAP2 SWAP1 SWAP2 SSTORE DUP4 ADD MLOAD PUSH1 0x2 DUP3 ADD SSTORE PUSH1 0x60 DUP4 ADD MLOAD PUSH1 0x3 SWAP1 SWAP2 ADD SSTORE JUMPDEST POP SWAP8 SWAP7 POP POP POP POP POP POP POP JUMP JUMPDEST PUSH1 0x0 DUP2 DUP2 MSTORE PUSH1 0x1 DUP4 ADD PUSH1 0x20 MSTORE PUSH1 0x40 DUP2 KECCAK256 SLOAD PUSH2 0x9F0 JUMPI POP DUP2 SLOAD PUSH1 0x1 DUP2 DUP2 ADD DUP5 SSTORE PUSH1 0x0 DUP5 DUP2 MSTORE PUSH1 0x20 DUP1 DUP3 KECCAK256 SWAP1 SWAP4 ADD DUP5 SWAP1 SSTORE DUP5 SLOAD DUP5 DUP3 MSTORE DUP3 DUP7 ADD SWAP1 SWAP4 MSTORE PUSH1 0x40 SWAP1 KECCAK256 SWAP2 SWAP1 SWAP2 SSTORE PUSH2 0x155 JUMP JUMPDEST POP PUSH1 0x0 PUSH2 0x155 JUMP JUMPDEST PUSH1 0x1 PUSH1 0x1 PUSH1 0xA0 SHL SUB DUP2 AND PUSH1 0x0 SWAP1 DUP2 MSTORE PUSH1 0x2 DUP4 ADD PUSH1 0x20 SWAP1 DUP2 MSTORE PUSH1 0x40 DUP1 DUP4 KECCAK256 SLOAD PUSH1 0x3 DUP7 ADD SWAP1 SWAP3 MSTORE DUP3 KECCAK256 SLOAD PUSH2 0x188 SWAP2 SWAP1 PUSH2 0xD7B JUMP JUMPDEST PUSH1 0x0 PUSH2 0xA57 PUSH1 0x40 MLOAD DUP1 PUSH1 0x80 ADD PUSH1 0x40 MSTORE DUP1 PUSH1 0x0 DUP2 MSTORE PUSH1 0x20 ADD PUSH1 0x0 DUP2 MSTORE PUSH1 0x20 ADD PUSH1 0x0 DUP2 MSTORE PUSH1 0x20 ADD PUSH1 0x0 DUP2 MSTORE POP SWAP1 JUMP JUMPDEST PUSH2 0xA65 DUP5 DUP5 PUSH1 0x0 DUP8 MLOAD PUSH2 0xAF8 JUMP JUMPDEST SWAP2 POP SWAP2 POP SWAP3 POP SWAP3 SWAP1 POP JUMP JUMPDEST PUSH1 0x0 DUP2 PUSH1 0x60 ADD MLOAD PUSH2 0xA92 DUP4 PUSH1 0x40 ADD MLOAD DUP5 PUSH1 0x20 ADD MLOAD PUSH2 0x82D SWAP1 SWAP2 SWAP1 PUSH4 0xFFFFFFFF AND JUMP JUMPDEST PUSH2 0x155 SWAP2 SWAP1 PUSH2 0xD9B JUMP JUMPDEST PUSH2 0xAC7 PUSH1 0x40 MLOAD DUP1 PUSH1 0x80 ADD PUSH1 0x40 MSTORE DUP1 PUSH1 0x0 DUP2 MSTORE PUSH1 0x20 ADD PUSH1 0x0 DUP2 MSTORE PUSH1 0x20 ADD PUSH1 0x0 DUP2 MSTORE PUSH1 0x20 ADD PUSH1 0x0 DUP2 MSTORE POP SWAP1 JUMP JUMPDEST PUSH1 0x40 MLOAD DUP1 PUSH1 0x80 ADD PUSH1 0x40 MSTORE DUP1 PUSH1 0x0 DUP2 MSTORE PUSH1 0x20 ADD PUSH1 0x0 DUP2 MSTORE PUSH1 0x20 ADD PUSH8 0xDE0B6B3A7640000 DUP2 MSTORE PUSH1 0x20 ADD PUSH1 0x0 DUP2 MSTORE POP SWAP1 POP SWAP1 JUMP JUMPDEST PUSH1 0x0 PUSH2 0xB25 PUSH1 0x40 MLOAD DUP1 PUSH1 0x80 ADD PUSH1 0x40 MSTORE DUP1 PUSH1 0x0 DUP2 MSTORE PUSH1 0x20 ADD PUSH1 0x0 DUP2 MSTORE PUSH1 0x20 ADD PUSH1 0x0 DUP2 MSTORE PUSH1 0x20 ADD PUSH1 0x0 DUP2 MSTORE POP SWAP1 JUMP JUMPDEST DUP3 DUP5 LT PUSH2 0xB3F JUMPI PUSH1 0x0 PUSH2 0xB36 PUSH2 0xA9C JUMP JUMPDEST SWAP2 POP SWAP2 POP PUSH2 0xC4A JUMP JUMPDEST PUSH2 0xB49 DUP5 DUP5 PUSH2 0xD06 JUMP JUMPDEST PUSH1 0x1 SUB PUSH2 0xB97 JUMPI PUSH1 0x0 DUP7 DUP6 DUP2 MLOAD DUP2 LT PUSH2 0xB64 JUMPI PUSH2 0xB64 PUSH2 0xD2C JUMP JUMPDEST PUSH1 0x20 MUL PUSH1 0x20 ADD ADD MLOAD SWAP1 POP DUP6 DUP2 PUSH1 0x0 ADD MLOAD GT ISZERO PUSH2 0xB89 JUMPI PUSH1 0x0 PUSH2 0xB84 PUSH2 0xA9C JUMP JUMPDEST PUSH2 0xB8D JUMP JUMPDEST PUSH1 0x1 DUP2 JUMPDEST SWAP3 POP SWAP3 POP POP PUSH2 0xC4A JUMP JUMPDEST PUSH1 0x0 PUSH1 0x2 PUSH2 0xBA5 DUP7 DUP7 PUSH2 0xD19 JUMP JUMPDEST PUSH2 0xBAF SWAP2 SWAP1 PUSH2 0xD59 JUMP JUMPDEST SWAP1 POP PUSH1 0x0 DUP8 PUSH2 0xBBF PUSH1 0x1 DUP5 PUSH2 0xD06 JUMP JUMPDEST DUP2 MLOAD DUP2 LT PUSH2 0xBCF JUMPI PUSH2 0xBCF PUSH2 0xD2C JUMP JUMPDEST PUSH1 0x20 MUL PUSH1 0x20 ADD ADD MLOAD SWAP1 POP PUSH1 0x0 DUP9 DUP4 DUP2 MLOAD DUP2 LT PUSH2 0xBED JUMPI PUSH2 0xBED PUSH2 0xD2C JUMP JUMPDEST PUSH1 0x20 MUL PUSH1 0x20 ADD ADD MLOAD SWAP1 POP DUP8 DUP3 PUSH1 0x0 ADD MLOAD GT ISZERO DUP1 ISZERO PUSH2 0xC0B JUMPI POP DUP1 MLOAD DUP9 LT JUMPDEST ISZERO PUSH2 0xC1E JUMPI POP PUSH1 0x1 SWAP4 POP SWAP2 POP PUSH2 0xC4A SWAP1 POP JUMP JUMPDEST DUP1 MLOAD DUP9 LT PUSH2 0xC3E JUMPI PUSH2 0xC32 DUP10 DUP10 DUP6 DUP10 PUSH2 0xAF8 JUMP JUMPDEST SWAP5 POP SWAP5 POP POP POP POP PUSH2 0xC4A JUMP JUMPDEST PUSH2 0xC32 DUP10 DUP10 DUP10 DUP7 PUSH2 0xAF8 JUMP JUMPDEST SWAP5 POP SWAP5 SWAP3 POP POP POP JUMP JUMPDEST DUP1 CALLDATALOAD PUSH1 0x1 PUSH1 0x1 PUSH1 0xA0 SHL SUB DUP2 AND DUP2 EQ PUSH2 0xC6A JUMPI PUSH1 0x0 DUP1 REVERT JUMPDEST SWAP2 SWAP1 POP JUMP JUMPDEST PUSH1 0x0 DUP1 PUSH1 0x40 DUP4 DUP6 SUB SLT ISZERO PUSH2 0xC82 JUMPI PUSH1 0x0 DUP1 REVERT JUMPDEST PUSH2 0xC8B DUP4 PUSH2 0xC53 JUMP JUMPDEST SWAP5 PUSH1 0x20 SWAP4 SWAP1 SWAP4 ADD CALLDATALOAD SWAP4 POP POP POP JUMP JUMPDEST PUSH1 0x0 PUSH1 0x20 DUP3 DUP5 SUB SLT ISZERO PUSH2 0xCAB JUMPI PUSH1 0x0 DUP1 REVERT JUMPDEST PUSH2 0x188 DUP3 PUSH2 0xC53 JUMP JUMPDEST PUSH1 0x0 DUP1 PUSH1 0x0 PUSH1 0x60 DUP5 DUP7 SUB SLT ISZERO PUSH2 0xCC9 JUMPI PUSH1 0x0 DUP1 REVERT JUMPDEST PUSH2 0xCD2 DUP5 PUSH2 0xC53 JUMP JUMPDEST SWAP3 POP PUSH2 0xCE0 PUSH1 0x20 DUP6 ADD PUSH2 0xC53 JUMP JUMPDEST SWAP2 POP PUSH1 0x40 DUP5 ADD CALLDATALOAD SWAP1 POP SWAP3 POP SWAP3 POP SWAP3 JUMP JUMPDEST PUSH4 0x4E487B71 PUSH1 0xE0 SHL PUSH1 0x0 MSTORE PUSH1 0x11 PUSH1 0x4 MSTORE PUSH1 0x24 PUSH1 0x0 REVERT JUMPDEST DUP2 DUP2 SUB DUP2 DUP2 GT ISZERO PUSH2 0x155 JUMPI PUSH2 0x155 PUSH2 0xCF0 JUMP JUMPDEST DUP1 DUP3 ADD DUP1 DUP3 GT ISZERO PUSH2 0x155 JUMPI PUSH2 0x155 PUSH2 0xCF0 JUMP JUMPDEST PUSH4 0x4E487B71 PUSH1 0xE0 SHL PUSH1 0x0 MSTORE PUSH1 0x32 PUSH1 0x4 MSTORE PUSH1 0x24 PUSH1 0x0 REVERT JUMPDEST DUP1 DUP3 MUL DUP2 ISZERO DUP3 DUP3 DIV DUP5 EQ OR PUSH2 0x155 JUMPI PUSH2 0x155 PUSH2 0xCF0 JUMP JUMPDEST PUSH1 0x0 DUP3 PUSH2 0xD76 JUMPI PUSH4 0x4E487B71 PUSH1 0xE0 SHL PUSH1 0x0 MSTORE PUSH1 0x12 PUSH1 0x4 MSTORE PUSH1 0x24 PUSH1 0x0 REVERT JUMPDEST POP DIV SWAP1 JUMP JUMPDEST DUP2 DUP2 SUB PUSH1 0x0 DUP4 SLT DUP1 ISZERO DUP4 DUP4 SGT AND DUP4 DUP4 SLT DUP3 AND OR ISZERO PUSH2 0x826 JUMPI PUSH2 0x826 PUSH2 0xCF0 JUMP JUMPDEST DUP1 DUP3 ADD DUP3 DUP2 SLT PUSH1 0x0 DUP4 SLT DUP1 ISZERO DUP3 AND DUP3 ISZERO DUP3 AND OR ISZERO PUSH2 0xDBB JUMPI PUSH2 0xDBB PUSH2 0xCF0 JUMP JUMPDEST POP POP SWAP3 SWAP2 POP POP JUMP INVALID LOG2 PUSH5 0x6970667358 0x22 SLT KECCAK256 0xBA STOP 0xC7 0x2E DUP7 PUSH14 0x1693E74B9EDFC5EA10CEB1EAAA34 0xCE 0xD2 SWAP5 PUSH11 0x10C2893E9583A55364736F PUSH13 0x63430008110033000000000000 ","sha1":"793cb510be93b7c877a8c7276a384f9500fb6912","source":"// SPDX-License-Identifier: UNLICENSED\npragma solidity ^0.8.17;\n\nimport \"@openzeppelin/contracts/utils/structs/EnumerableSet.sol\";\n\nimport \"../vaults/BaseVault.sol\";\nimport \"../../interfaces/IVault.sol\";\nimport \"../../interfaces/IDelegatingVault.sol\";\nimport \"../../libraries/VotingPowerHistory.sol\";\n\ncontract MockVault is BaseVault, IDelegatingVault {\n    using VotingPowerHistory for VotingPowerHistory.History;\n    using VotingPowerHistory for VotingPowerHistory.Record;\n    using ScaledMath for uint256;\n\n    using EnumerableSet for EnumerableSet.AddressSet;\n\n    uint256 public rawVotingPower;\n    uint256 public totalRawVotingPower;\n\n    VotingPowerHistory.History internal history;\n\n    EnumerableSet.AddressSet internal _admins;\n\n    modifier onlyAdmin() {\n        require(_admins.contains(msg.sender), \"only admin\");\n        _;\n    }\n\n    constructor() {\n        _admins.add(msg.sender);\n    }\n\n    function delegateVote(address _delegate, uint256 _amount) external {\n        history.delegateVote(msg.sender, _delegate, _amount);\n    }\n\n    function undelegateVote(address _delegate, uint256 _amount) external {\n        history.undelegateVote(msg.sender, _delegate, _amount);\n    }\n\n    function updateVotingPower(\n        address user,\n        uint256 amount\n    ) external onlyAdmin {\n        VotingPowerHistory.Record memory currentVotingPower = history\n            .currentRecord(user);\n        totalRawVotingPower -= currentVotingPower.multiplier.mulDown(\n            currentVotingPower.baseVotingPower\n        );\n        history.updateVotingPower(\n            user,\n            amount,\n            currentVotingPower.multiplier,\n            currentVotingPower.netDelegatedVotes\n        );\n        totalRawVotingPower += currentVotingPower.multiplier.mulDown(amount);\n    }\n\n    function changeDelegate(\n        address _oldDelegate,\n        address _newDelegate,\n        uint256 _amount\n    ) external {\n        history.undelegateVote(msg.sender, _oldDelegate, _amount);\n        history.delegateVote(msg.sender, _newDelegate, _amount);\n    }\n\n    function getRawVotingPower(\n        address user,\n        uint256 timestamp\n    ) public view override returns (uint256) {\n        return history.getVotingPower(user, timestamp);\n    }\n\n    function getTotalRawVotingPower() public view override returns (uint256) {\n        return totalRawVotingPower;\n    }\n}\n","sourcePath":"contracts/testing/MockVault.sol","type":"contract","deployment":{"address":"0x1748C9990dF17E300AB35deb97cDA270Eb2aeB0a","chainid":"137","blockHeight":42310640}}