{"abi":[{"inputs":[{"internalType":"address","name":"_owner","type":"address"}],"stateMutability":"nonpayable","type":"constructor","name":"constructor"},{"inputs":[{"internalType":"address","name":"actual","type":"address"},{"internalType":"address","name":"expected","type":"address"}],"name":"NotAuthorized","type":"error"},{"inputs":[{"components":[{"internalType":"address","name":"_contract","type":"address"},{"internalType":"bytes4","name":"_sig","type":"bytes4"},{"internalType":"address","name":"_strategy","type":"address"}],"internalType":"struct ActionTierConfig.StrategyConfig[]","name":"configs","type":"tuple[]"}],"name":"batchSetStrategy","outputs":[],"stateMutability":"nonpayable","type":"function"},{"inputs":[{"internalType":"address","name":"_contract","type":"address"},{"internalType":"bytes4","name":"_sig","type":"bytes4"}],"name":"getStrategy","outputs":[{"internalType":"address","name":"","type":"address"}],"stateMutability":"view","type":"function"},{"inputs":[{"internalType":"address","name":"_contract","type":"address"},{"internalType":"bytes","name":"_calldata","type":"bytes"}],"name":"getTier","outputs":[{"components":[{"internalType":"uint64","name":"quorum","type":"uint64"},{"internalType":"uint64","name":"proposalThreshold","type":"uint64"},{"internalType":"uint64","name":"voteThreshold","type":"uint64"},{"internalType":"uint32","name":"timeLockDuration","type":"uint32"},{"internalType":"uint32","name":"proposalLength","type":"uint32"},{"internalType":"uint8","name":"actionLevel","type":"uint8"}],"internalType":"struct DataTypes.Tier","name":"","type":"tuple"}],"stateMutability":"view","type":"function"},{"inputs":[],"name":"owner","outputs":[{"internalType":"address","name":"","type":"address"}],"stateMutability":"view","type":"function"},{"inputs":[{"internalType":"address","name":"_contract","type":"address"},{"internalType":"bytes4","name":"_sig","type":"bytes4"},{"internalType":"address","name":"_strategy","type":"address"}],"name":"setStrategy","outputs":[],"stateMutability":"nonpayable","type":"function"}],"bytecode":"60a060405234801561001057600080fd5b5060405161095038038061095083398101604081905261002f91610040565b6001600160a01b0316608052610070565b60006020828403121561005257600080fd5b81516001600160a01b038116811461006957600080fd5b9392505050565b6080516108aa6100a66000396000818160b901528181610164015281816101a601528181610228015261026a01526108aa6000f3fe608060405234801561001057600080fd5b50600436106100575760003560e01c80634c2c5c3e1461005c5780634dadd4f41461007157806384e5f12c146100845780638da5cb5b146100b4578063feb52af5146100db575b600080fd5b61006f61006a36600461057a565b610159565b005b61006f61007f3660046105bd565b61021d565b610097610092366004610632565b61036d565b6040516001600160a01b0390911681526020015b60405180910390f35b6100977f000000000000000000000000000000000000000000000000000000000000000081565b6100ee6100e9366004610665565b610380565b6040516100ab9190600060c08201905067ffffffffffffffff80845116835280602085015116602084015280604085015116604084015250606083015163ffffffff8082166060850152806080860151166080850152505060ff60a08401511660a083015292915050565b336001600160a01b037f000000000000000000000000000000000000000000000000000000000000000016146101d85760405163c55ddc9760e01b81523360048201526001600160a01b037f00000000000000000000000000000000000000000000000000000000000000001660248201526044015b60405180910390fd5b806000806101e68686610477565b815260200190815260200160002060006101000a8154816001600160a01b0302191690836001600160a01b03160217905550505050565b336001600160a01b037f000000000000000000000000000000000000000000000000000000000000000016146102975760405163c55ddc9760e01b81523360048201526001600160a01b037f00000000000000000000000000000000000000000000000000000000000000001660248201526044016101cf565b60005b818110156103685760006102fe8484848181106102b9576102b96106e8565b6102cf92602060609092020190810191506106fe565b8585858181106102e1576102e16106e8565b90506060020160200160208101906102f99190610719565b610477565b9050838383818110610312576103126106e8565b905060600201604001602081019061032a91906106fe565b60009182526020829052604090912080546001600160a01b0319166001600160a01b039092169190911790558061036081610734565b91505061029a565b505050565b600061037983836104c7565b9392505050565b6040805160c081018252600080825260208201819052918101829052606081018290526080810182905260a081019190915260006103fc856103f786868080601f01602080910402602001604051908101604052809392919081815260200183838082843760009201919091525061053592505050565b6104c7565b604051630c87fa5360e21b81529091506001600160a01b0382169063321fe94c9061042d908790879060040161075b565b60c060405180830381865afa15801561044a573d6000803e3d6000fd5b505050506040513d601f19601f8201168201806040525081019061046e91906107c7565b95945050505050565b6040516bffffffffffffffffffffffff19606084901b1660208201526001600160e01b03198216603482015260009060380160405160208183030381529060405280519060200120905092915050565b6000806000806104d78686610477565b81526020810191909152604001600020546001600160a01b03169050806103795760405162461bcd60e51b81526020600482015260126024820152711cdd1c985d1959de481b9bdd08199bdd5b9960721b60448201526064016101cf565b602001516001600160e01b03191690565b80356001600160a01b038116811461055d57600080fd5b919050565b80356001600160e01b03198116811461055d57600080fd5b60008060006060848603121561058f57600080fd5b61059884610546565b92506105a660208501610562565b91506105b460408501610546565b90509250925092565b600080602083850312156105d057600080fd5b823567ffffffffffffffff808211156105e857600080fd5b818501915085601f8301126105fc57600080fd5b81358181111561060b57600080fd5b86602060608302850101111561062057600080fd5b60209290920196919550909350505050565b6000806040838503121561064557600080fd5b61064e83610546565b915061065c60208401610562565b90509250929050565b60008060006040848603121561067a57600080fd5b61068384610546565b9250602084013567ffffffffffffffff808211156106a057600080fd5b818601915086601f8301126106b457600080fd5b8135818111156106c357600080fd5b8760208285010111156106d557600080fd5b6020830194508093505050509250925092565b634e487b7160e01b600052603260045260246000fd5b60006020828403121561071057600080fd5b61037982610546565b60006020828403121561072b57600080fd5b61037982610562565b60006001820161075457634e487b7160e01b600052601160045260246000fd5b5060010190565b60208152816020820152818360408301376000818301604090810191909152601f909201601f19160101919050565b805167ffffffffffffffff8116811461055d57600080fd5b805163ffffffff8116811461055d57600080fd5b805160ff8116811461055d57600080fd5b600060c082840312156107d957600080fd5b60405160c0810181811067ffffffffffffffff8211171561080a57634e487b7160e01b600052604160045260246000fd5b6040526108168361078a565b81526108246020840161078a565b60208201526108356040840161078a565b6040820152610846606084016107a2565b6060820152610857608084016107a2565b608082015261086860a084016107b6565b60a0820152939250505056fea2646970667358221220903f494a7b3c21fffbe290a6ea5047ae3686fed20f8d7996bf30a2aa25d54c8e64736f6c63430008110033","bytecodeSha1":"61127c01e9e36691c3fffa3e22636ee0949c2090","compiler":{"evm_version":"istanbul","optimizer":{"enabled":true,"runs":200},"version":"0.8.17+commit.8df45f5f"},"contractName":"ActionTierConfig","language":"Solidity","natspec":{"kind":"dev","methods":{},"version":1},"opcodes":"PUSH1 0x80 PUSH1 0x40 MSTORE CALLVALUE DUP1 ISZERO PUSH2 0x10 JUMPI PUSH1 0x0 DUP1 REVERT JUMPDEST POP PUSH1 0x4 CALLDATASIZE LT PUSH2 0x57 JUMPI PUSH1 0x0 CALLDATALOAD PUSH1 0xE0 SHR DUP1 PUSH4 0x4C2C5C3E EQ PUSH2 0x5C JUMPI DUP1 PUSH4 0x4DADD4F4 EQ PUSH2 0x71 JUMPI DUP1 PUSH4 0x84E5F12C EQ PUSH2 0x84 JUMPI DUP1 PUSH4 0x8DA5CB5B EQ PUSH2 0xB4 JUMPI DUP1 PUSH4 0xFEB52AF5 EQ PUSH2 0xDB JUMPI JUMPDEST PUSH1 0x0 DUP1 REVERT JUMPDEST PUSH2 0x6F PUSH2 0x6A CALLDATASIZE PUSH1 0x4 PUSH2 0x57A JUMP JUMPDEST PUSH2 0x159 JUMP JUMPDEST STOP JUMPDEST PUSH2 0x6F PUSH2 0x7F CALLDATASIZE PUSH1 0x4 PUSH2 0x5BD JUMP JUMPDEST PUSH2 0x21D JUMP JUMPDEST PUSH2 0x97 PUSH2 0x92 CALLDATASIZE PUSH1 0x4 PUSH2 0x632 JUMP JUMPDEST PUSH2 0x36D JUMP JUMPDEST PUSH1 0x40 MLOAD PUSH1 0x1 PUSH1 0x1 PUSH1 0xA0 SHL SUB SWAP1 SWAP2 AND DUP2 MSTORE PUSH1 0x20 ADD JUMPDEST PUSH1 0x40 MLOAD DUP1 SWAP2 SUB SWAP1 RETURN JUMPDEST PUSH2 0x97 PUSH32 0x0 DUP2 JUMP JUMPDEST PUSH2 0xEE PUSH2 0xE9 CALLDATASIZE PUSH1 0x4 PUSH2 0x665 JUMP JUMPDEST PUSH2 0x380 JUMP JUMPDEST PUSH1 0x40 MLOAD PUSH2 0xAB SWAP2 SWAP1 PUSH1 0x0 PUSH1 0xC0 DUP3 ADD SWAP1 POP PUSH8 0xFFFFFFFFFFFFFFFF DUP1 DUP5 MLOAD AND DUP4 MSTORE DUP1 PUSH1 0x20 DUP6 ADD MLOAD AND PUSH1 0x20 DUP5 ADD MSTORE DUP1 PUSH1 0x40 DUP6 ADD MLOAD AND PUSH1 0x40 DUP5 ADD MSTORE POP PUSH1 0x60 DUP4 ADD MLOAD PUSH4 0xFFFFFFFF DUP1 DUP3 AND PUSH1 0x60 DUP6 ADD MSTORE DUP1 PUSH1 0x80 DUP7 ADD MLOAD AND PUSH1 0x80 DUP6 ADD MSTORE POP POP PUSH1 0xFF PUSH1 0xA0 DUP5 ADD MLOAD AND PUSH1 0xA0 DUP4 ADD MSTORE SWAP3 SWAP2 POP POP JUMP JUMPDEST CALLER PUSH1 0x1 PUSH1 0x1 PUSH1 0xA0 SHL SUB PUSH32 0x0 AND EQ PUSH2 0x1D8 JUMPI PUSH1 0x40 MLOAD PUSH4 0xC55DDC97 PUSH1 0xE0 SHL DUP2 MSTORE CALLER PUSH1 0x4 DUP3 ADD MSTORE PUSH1 0x1 PUSH1 0x1 PUSH1 0xA0 SHL SUB PUSH32 0x0 AND PUSH1 0x24 DUP3 ADD MSTORE PUSH1 0x44 ADD JUMPDEST PUSH1 0x40 MLOAD DUP1 SWAP2 SUB SWAP1 REVERT JUMPDEST DUP1 PUSH1 0x0 DUP1 PUSH2 0x1E6 DUP7 DUP7 PUSH2 0x477 JUMP JUMPDEST DUP2 MSTORE PUSH1 0x20 ADD SWAP1 DUP2 MSTORE PUSH1 0x20 ADD PUSH1 0x0 KECCAK256 PUSH1 0x0 PUSH2 0x100 EXP DUP2 SLOAD DUP2 PUSH1 0x1 PUSH1 0x1 PUSH1 0xA0 SHL SUB MUL NOT AND SWAP1 DUP4 PUSH1 0x1 PUSH1 0x1 PUSH1 0xA0 SHL SUB AND MUL OR SWAP1 SSTORE POP POP POP POP JUMP JUMPDEST CALLER PUSH1 0x1 PUSH1 0x1 PUSH1 0xA0 SHL SUB PUSH32 0x0 AND EQ PUSH2 0x297 JUMPI PUSH1 0x40 MLOAD PUSH4 0xC55DDC97 PUSH1 0xE0 SHL DUP2 MSTORE CALLER PUSH1 0x4 DUP3 ADD MSTORE PUSH1 0x1 PUSH1 0x1 PUSH1 0xA0 SHL SUB PUSH32 0x0 AND PUSH1 0x24 DUP3 ADD MSTORE PUSH1 0x44 ADD PUSH2 0x1CF JUMP JUMPDEST PUSH1 0x0 JUMPDEST DUP2 DUP2 LT ISZERO PUSH2 0x368 JUMPI PUSH1 0x0 PUSH2 0x2FE DUP5 DUP5 DUP5 DUP2 DUP2 LT PUSH2 0x2B9 JUMPI PUSH2 0x2B9 PUSH2 0x6E8 JUMP JUMPDEST PUSH2 0x2CF SWAP3 PUSH1 0x20 PUSH1 0x60 SWAP1 SWAP3 MUL ADD SWAP1 DUP2 ADD SWAP2 POP PUSH2 0x6FE JUMP JUMPDEST DUP6 DUP6 DUP6 DUP2 DUP2 LT PUSH2 0x2E1 JUMPI PUSH2 0x2E1 PUSH2 0x6E8 JUMP JUMPDEST SWAP1 POP PUSH1 0x60 MUL ADD PUSH1 0x20 ADD PUSH1 0x20 DUP2 ADD SWAP1 PUSH2 0x2F9 SWAP2 SWAP1 PUSH2 0x719 JUMP JUMPDEST PUSH2 0x477 JUMP JUMPDEST SWAP1 POP DUP4 DUP4 DUP4 DUP2 DUP2 LT PUSH2 0x312 JUMPI PUSH2 0x312 PUSH2 0x6E8 JUMP JUMPDEST SWAP1 POP PUSH1 0x60 MUL ADD PUSH1 0x40 ADD PUSH1 0x20 DUP2 ADD SWAP1 PUSH2 0x32A SWAP2 SWAP1 PUSH2 0x6FE JUMP JUMPDEST PUSH1 0x0 SWAP2 DUP3 MSTORE PUSH1 0x20 DUP3 SWAP1 MSTORE PUSH1 0x40 SWAP1 SWAP2 KECCAK256 DUP1 SLOAD PUSH1 0x1 PUSH1 0x1 PUSH1 0xA0 SHL SUB NOT AND PUSH1 0x1 PUSH1 0x1 PUSH1 0xA0 SHL SUB SWAP1 SWAP3 AND SWAP2 SWAP1 SWAP2 OR SWAP1 SSTORE DUP1 PUSH2 0x360 DUP2 PUSH2 0x734 JUMP JUMPDEST SWAP2 POP POP PUSH2 0x29A JUMP JUMPDEST POP POP POP JUMP JUMPDEST PUSH1 0x0 PUSH2 0x379 DUP4 DUP4 PUSH2 0x4C7 JUMP JUMPDEST SWAP4 SWAP3 POP POP POP JUMP JUMPDEST PUSH1 0x40 DUP1 MLOAD PUSH1 0xC0 DUP2 ADD DUP3 MSTORE PUSH1 0x0 DUP1 DUP3 MSTORE PUSH1 0x20 DUP3 ADD DUP2 SWAP1 MSTORE SWAP2 DUP2 ADD DUP3 SWAP1 MSTORE PUSH1 0x60 DUP2 ADD DUP3 SWAP1 MSTORE PUSH1 0x80 DUP2 ADD DUP3 SWAP1 MSTORE PUSH1 0xA0 DUP2 ADD SWAP2 SWAP1 SWAP2 MSTORE PUSH1 0x0 PUSH2 0x3FC DUP6 PUSH2 0x3F7 DUP7 DUP7 DUP1 DUP1 PUSH1 0x1F ADD PUSH1 0x20 DUP1 SWAP2 DIV MUL PUSH1 0x20 ADD PUSH1 0x40 MLOAD SWAP1 DUP2 ADD PUSH1 0x40 MSTORE DUP1 SWAP4 SWAP3 SWAP2 SWAP1 DUP2 DUP2 MSTORE PUSH1 0x20 ADD DUP4 DUP4 DUP1 DUP3 DUP5 CALLDATACOPY PUSH1 0x0 SWAP3 ADD SWAP2 SWAP1 SWAP2 MSTORE POP PUSH2 0x535 SWAP3 POP POP POP JUMP JUMPDEST PUSH2 0x4C7 JUMP JUMPDEST PUSH1 0x40 MLOAD PUSH4 0xC87FA53 PUSH1 0xE2 SHL DUP2 MSTORE SWAP1 SWAP2 POP PUSH1 0x1 PUSH1 0x1 PUSH1 0xA0 SHL SUB DUP3 AND SWAP1 PUSH4 0x321FE94C SWAP1 PUSH2 0x42D SWAP1 DUP8 SWAP1 DUP8 SWAP1 PUSH1 0x4 ADD PUSH2 0x75B JUMP JUMPDEST PUSH1 0xC0 PUSH1 0x40 MLOAD DUP1 DUP4 SUB DUP2 DUP7 GAS STATICCALL ISZERO DUP1 ISZERO PUSH2 0x44A JUMPI RETURNDATASIZE PUSH1 0x0 DUP1 RETURNDATACOPY RETURNDATASIZE PUSH1 0x0 REVERT JUMPDEST POP POP POP POP PUSH1 0x40 MLOAD RETURNDATASIZE PUSH1 0x1F NOT PUSH1 0x1F DUP3 ADD AND DUP3 ADD DUP1 PUSH1 0x40 MSTORE POP DUP2 ADD SWAP1 PUSH2 0x46E SWAP2 SWAP1 PUSH2 0x7C7 JUMP JUMPDEST SWAP6 SWAP5 POP POP POP POP POP JUMP JUMPDEST PUSH1 0x40 MLOAD PUSH12 0xFFFFFFFFFFFFFFFFFFFFFFFF NOT PUSH1 0x60 DUP5 SWAP1 SHL AND PUSH1 0x20 DUP3 ADD MSTORE PUSH1 0x1 PUSH1 0x1 PUSH1 0xE0 SHL SUB NOT DUP3 AND PUSH1 0x34 DUP3 ADD MSTORE PUSH1 0x0 SWAP1 PUSH1 0x38 ADD PUSH1 0x40 MLOAD PUSH1 0x20 DUP2 DUP4 SUB SUB DUP2 MSTORE SWAP1 PUSH1 0x40 MSTORE DUP1 MLOAD SWAP1 PUSH1 0x20 ADD KECCAK256 SWAP1 POP SWAP3 SWAP2 POP POP JUMP JUMPDEST PUSH1 0x0 DUP1 PUSH1 0x0 DUP1 PUSH2 0x4D7 DUP7 DUP7 PUSH2 0x477 JUMP JUMPDEST DUP2 MSTORE PUSH1 0x20 DUP2 ADD SWAP2 SWAP1 SWAP2 MSTORE PUSH1 0x40 ADD PUSH1 0x0 KECCAK256 SLOAD PUSH1 0x1 PUSH1 0x1 PUSH1 0xA0 SHL SUB AND SWAP1 POP DUP1 PUSH2 0x379 JUMPI PUSH1 0x40 MLOAD PUSH3 0x461BCD PUSH1 0xE5 SHL DUP2 MSTORE PUSH1 0x20 PUSH1 0x4 DUP3 ADD MSTORE PUSH1 0x12 PUSH1 0x24 DUP3 ADD MSTORE PUSH18 0x1CDD1C985D1959DE481B9BDD08199BDD5B99 PUSH1 0x72 SHL PUSH1 0x44 DUP3 ADD MSTORE PUSH1 0x64 ADD PUSH2 0x1CF JUMP JUMPDEST PUSH1 0x20 ADD MLOAD PUSH1 0x1 PUSH1 0x1 PUSH1 0xE0 SHL SUB NOT AND SWAP1 JUMP JUMPDEST DUP1 CALLDATALOAD PUSH1 0x1 PUSH1 0x1 PUSH1 0xA0 SHL SUB DUP2 AND DUP2 EQ PUSH2 0x55D JUMPI PUSH1 0x0 DUP1 REVERT JUMPDEST SWAP2 SWAP1 POP JUMP JUMPDEST DUP1 CALLDATALOAD PUSH1 0x1 PUSH1 0x1 PUSH1 0xE0 SHL SUB NOT DUP2 AND DUP2 EQ PUSH2 0x55D JUMPI PUSH1 0x0 DUP1 REVERT JUMPDEST PUSH1 0x0 DUP1 PUSH1 0x0 PUSH1 0x60 DUP5 DUP7 SUB SLT ISZERO PUSH2 0x58F JUMPI PUSH1 0x0 DUP1 REVERT JUMPDEST PUSH2 0x598 DUP5 PUSH2 0x546 JUMP JUMPDEST SWAP3 POP PUSH2 0x5A6 PUSH1 0x20 DUP6 ADD PUSH2 0x562 JUMP JUMPDEST SWAP2 POP PUSH2 0x5B4 PUSH1 0x40 DUP6 ADD PUSH2 0x546 JUMP JUMPDEST SWAP1 POP SWAP3 POP SWAP3 POP SWAP3 JUMP JUMPDEST PUSH1 0x0 DUP1 PUSH1 0x20 DUP4 DUP6 SUB SLT ISZERO PUSH2 0x5D0 JUMPI PUSH1 0x0 DUP1 REVERT JUMPDEST DUP3 CALLDATALOAD PUSH8 0xFFFFFFFFFFFFFFFF DUP1 DUP3 GT ISZERO PUSH2 0x5E8 JUMPI PUSH1 0x0 DUP1 REVERT JUMPDEST DUP2 DUP6 ADD SWAP2 POP DUP6 PUSH1 0x1F DUP4 ADD SLT PUSH2 0x5FC JUMPI PUSH1 0x0 DUP1 REVERT JUMPDEST DUP2 CALLDATALOAD DUP2 DUP2 GT ISZERO PUSH2 0x60B JUMPI PUSH1 0x0 DUP1 REVERT JUMPDEST DUP7 PUSH1 0x20 PUSH1 0x60 DUP4 MUL DUP6 ADD ADD GT ISZERO PUSH2 0x620 JUMPI PUSH1 0x0 DUP1 REVERT JUMPDEST PUSH1 0x20 SWAP3 SWAP1 SWAP3 ADD SWAP7 SWAP2 SWAP6 POP SWAP1 SWAP4 POP POP POP POP JUMP JUMPDEST PUSH1 0x0 DUP1 PUSH1 0x40 DUP4 DUP6 SUB SLT ISZERO PUSH2 0x645 JUMPI PUSH1 0x0 DUP1 REVERT JUMPDEST PUSH2 0x64E DUP4 PUSH2 0x546 JUMP JUMPDEST SWAP2 POP PUSH2 0x65C PUSH1 0x20 DUP5 ADD PUSH2 0x562 JUMP JUMPDEST SWAP1 POP SWAP3 POP SWAP3 SWAP1 POP JUMP JUMPDEST PUSH1 0x0 DUP1 PUSH1 0x0 PUSH1 0x40 DUP5 DUP7 SUB SLT ISZERO PUSH2 0x67A JUMPI PUSH1 0x0 DUP1 REVERT JUMPDEST PUSH2 0x683 DUP5 PUSH2 0x546 JUMP JUMPDEST SWAP3 POP PUSH1 0x20 DUP5 ADD CALLDATALOAD PUSH8 0xFFFFFFFFFFFFFFFF DUP1 DUP3 GT ISZERO PUSH2 0x6A0 JUMPI PUSH1 0x0 DUP1 REVERT JUMPDEST DUP2 DUP7 ADD SWAP2 POP DUP7 PUSH1 0x1F DUP4 ADD SLT PUSH2 0x6B4 JUMPI PUSH1 0x0 DUP1 REVERT JUMPDEST DUP2 CALLDATALOAD DUP2 DUP2 GT ISZERO PUSH2 0x6C3 JUMPI PUSH1 0x0 DUP1 REVERT JUMPDEST DUP8 PUSH1 0x20 DUP3 DUP6 ADD ADD GT ISZERO PUSH2 0x6D5 JUMPI PUSH1 0x0 DUP1 REVERT JUMPDEST PUSH1 0x20 DUP4 ADD SWAP5 POP DUP1 SWAP4 POP POP POP POP SWAP3 POP SWAP3 POP SWAP3 JUMP JUMPDEST PUSH4 0x4E487B71 PUSH1 0xE0 SHL PUSH1 0x0 MSTORE PUSH1 0x32 PUSH1 0x4 MSTORE PUSH1 0x24 PUSH1 0x0 REVERT JUMPDEST PUSH1 0x0 PUSH1 0x20 DUP3 DUP5 SUB SLT ISZERO PUSH2 0x710 JUMPI PUSH1 0x0 DUP1 REVERT JUMPDEST PUSH2 0x379 DUP3 PUSH2 0x546 JUMP JUMPDEST PUSH1 0x0 PUSH1 0x20 DUP3 DUP5 SUB SLT ISZERO PUSH2 0x72B JUMPI PUSH1 0x0 DUP1 REVERT JUMPDEST PUSH2 0x379 DUP3 PUSH2 0x562 JUMP JUMPDEST PUSH1 0x0 PUSH1 0x1 DUP3 ADD PUSH2 0x754 JUMPI PUSH4 0x4E487B71 PUSH1 0xE0 SHL PUSH1 0x0 MSTORE PUSH1 0x11 PUSH1 0x4 MSTORE PUSH1 0x24 PUSH1 0x0 REVERT JUMPDEST POP PUSH1 0x1 ADD SWAP1 JUMP JUMPDEST PUSH1 0x20 DUP2 MSTORE DUP2 PUSH1 0x20 DUP3 ADD MSTORE DUP2 DUP4 PUSH1 0x40 DUP4 ADD CALLDATACOPY PUSH1 0x0 DUP2 DUP4 ADD PUSH1 0x40 SWAP1 DUP2 ADD SWAP2 SWAP1 SWAP2 MSTORE PUSH1 0x1F SWAP1 SWAP3 ADD PUSH1 0x1F NOT AND ADD ADD SWAP2 SWAP1 POP JUMP JUMPDEST DUP1 MLOAD PUSH8 0xFFFFFFFFFFFFFFFF DUP2 AND DUP2 EQ PUSH2 0x55D JUMPI PUSH1 0x0 DUP1 REVERT JUMPDEST DUP1 MLOAD PUSH4 0xFFFFFFFF DUP2 AND DUP2 EQ PUSH2 0x55D JUMPI PUSH1 0x0 DUP1 REVERT JUMPDEST DUP1 MLOAD PUSH1 0xFF DUP2 AND DUP2 EQ PUSH2 0x55D JUMPI PUSH1 0x0 DUP1 REVERT JUMPDEST PUSH1 0x0 PUSH1 0xC0 DUP3 DUP5 SUB SLT ISZERO PUSH2 0x7D9 JUMPI PUSH1 0x0 DUP1 REVERT JUMPDEST PUSH1 0x40 MLOAD PUSH1 0xC0 DUP2 ADD DUP2 DUP2 LT PUSH8 0xFFFFFFFFFFFFFFFF DUP3 GT OR ISZERO PUSH2 0x80A JUMPI PUSH4 0x4E487B71 PUSH1 0xE0 SHL PUSH1 0x0 MSTORE PUSH1 0x41 PUSH1 0x4 MSTORE PUSH1 0x24 PUSH1 0x0 REVERT JUMPDEST PUSH1 0x40 MSTORE PUSH2 0x816 DUP4 PUSH2 0x78A JUMP JUMPDEST DUP2 MSTORE PUSH2 0x824 PUSH1 0x20 DUP5 ADD PUSH2 0x78A JUMP JUMPDEST PUSH1 0x20 DUP3 ADD MSTORE PUSH2 0x835 PUSH1 0x40 DUP5 ADD PUSH2 0x78A JUMP JUMPDEST PUSH1 0x40 DUP3 ADD MSTORE PUSH2 0x846 PUSH1 0x60 DUP5 ADD PUSH2 0x7A2 JUMP JUMPDEST PUSH1 0x60 DUP3 ADD MSTORE PUSH2 0x857 PUSH1 0x80 DUP5 ADD PUSH2 0x7A2 JUMP JUMPDEST PUSH1 0x80 DUP3 ADD MSTORE PUSH2 0x868 PUSH1 0xA0 DUP5 ADD PUSH2 0x7B6 JUMP JUMPDEST PUSH1 0xA0 DUP3 ADD MSTORE SWAP4 SWAP3 POP POP POP JUMP INVALID LOG2 PUSH5 0x6970667358 0x22 SLT KECCAK256 SWAP1 EXTCODEHASH 0x49 0x4A PUSH28 0x3C21FFFBE290A6EA5047AE3686FED20F8D7996BF30A2AA25D54C8E64 PUSH20 0x6F6C634300081100330000000000000000000000 ","sha1":"bdba0139a1aff0cb282e2584e592d799b4b35e1a","source":"// SPDX-License-Identifier: UNLICENSED\npragma solidity ^0.8.17;\n\nimport \"./access/ImmutableOwner.sol\";\nimport \"../libraries/DataTypes.sol\";\nimport \"../interfaces/ITierer.sol\";\nimport \"../interfaces/ITierStrategy.sol\";\n\ncontract ActionTierConfig is ImmutableOwner, ITierer {\n    mapping(bytes32 => ITierStrategy) internal _tierStrategies;\n\n    constructor(address _owner) ImmutableOwner(_owner) {}\n\n    struct StrategyConfig {\n        address _contract;\n        bytes4 _sig;\n        address _strategy;\n    }\n\n    function _ruleKey(\n        address _contract,\n        bytes4 _sig\n    ) internal pure returns (bytes32) {\n        return keccak256(abi.encodePacked(_contract, _sig));\n    }\n\n    function setStrategy(\n        address _contract,\n        bytes4 _sig,\n        address _strategy\n    ) external onlyOwner {\n        _tierStrategies[_ruleKey(_contract, _sig)] = ITierStrategy(_strategy);\n    }\n\n    function batchSetStrategy(\n        StrategyConfig[] calldata configs\n    ) external onlyOwner {\n        for (uint256 i; i < configs.length; i++) {\n            bytes32 ruleKey = _ruleKey(configs[i]._contract, configs[i]._sig);\n            _tierStrategies[ruleKey] = ITierStrategy(configs[i]._strategy);\n        }\n    }\n\n    function getStrategy(\n        address _contract,\n        bytes4 _sig\n    ) external view returns (address) {\n        return address(_getStrategy(_contract, _sig));\n    }\n\n    function _getStrategy(\n        address _contract,\n        bytes4 _sig\n    ) internal view returns (ITierStrategy) {\n        ITierStrategy s = _tierStrategies[_ruleKey(_contract, _sig)];\n        require(address(s) != address(0), \"strategy not found\");\n        return s;\n    }\n\n    function getTier(\n        address _contract,\n        bytes calldata _calldata\n    ) external view returns (DataTypes.Tier memory) {\n        ITierStrategy strategy = _getStrategy(\n            _contract,\n            _getSelector(_calldata)\n        );\n        return strategy.getTier(_calldata);\n    }\n\n    function _getSelector(\n        bytes memory _calldata\n    ) internal pure returns (bytes4 out) {\n        assembly {\n            out := and(\n                mload(add(_calldata, 32)),\n                0xFFFFFFFF00000000000000000000000000000000000000000000000000000000\n            )\n        }\n    }\n}\n","sourcePath":"contracts/ActionTierConfig.sol","type":"contract","deployment":{"address":"0x3D3AB8a9C367601BeC84b07acFd8A6463E9450F6","chainid":"137","blockHeight":42310632}}