{"abi":[{"inputs":[],"stateMutability":"nonpayable","type":"constructor","name":"constructor"},{"anonymous":false,"inputs":[{"indexed":false,"internalType":"address","name":"delegator","type":"address"},{"indexed":false,"internalType":"address","name":"delegate","type":"address"},{"indexed":false,"internalType":"uint256","name":"amount","type":"uint256"}],"name":"VotesDelegated","type":"event"},{"anonymous":false,"inputs":[{"indexed":false,"internalType":"address","name":"delegator","type":"address"},{"indexed":false,"internalType":"address","name":"delegate","type":"address"},{"indexed":false,"internalType":"uint256","name":"amount","type":"uint256"}],"name":"VotesUndelegated","type":"event"},{"inputs":[{"internalType":"address","name":"_admin","type":"address"}],"name":"addAdmin","outputs":[],"stateMutability":"nonpayable","type":"function"},{"inputs":[{"internalType":"address","name":"_oldDelegate","type":"address"},{"internalType":"address","name":"_newDelegate","type":"address"},{"internalType":"uint256","name":"_amount","type":"uint256"}],"name":"changeDelegate","outputs":[],"stateMutability":"nonpayable","type":"function"},{"inputs":[{"internalType":"address","name":"_delegate","type":"address"},{"internalType":"uint256","name":"_amount","type":"uint256"}],"name":"delegateVote","outputs":[],"stateMutability":"nonpayable","type":"function"},{"inputs":[{"internalType":"address","name":"account","type":"address"}],"name":"getRawVotingPower","outputs":[{"internalType":"uint256","name":"","type":"uint256"}],"stateMutability":"view","type":"function"},{"inputs":[{"internalType":"address","name":"user","type":"address"},{"internalType":"uint256","name":"timestamp","type":"uint256"}],"name":"getRawVotingPower","outputs":[{"internalType":"uint256","name":"","type":"uint256"}],"stateMutability":"view","type":"function"},{"inputs":[],"name":"getTotalRawVotingPower","outputs":[{"internalType":"uint256","name":"","type":"uint256"}],"stateMutability":"view","type":"function"},{"inputs":[],"name":"listAdmins","outputs":[{"internalType":"address[]","name":"","type":"address[]"}],"stateMutability":"view","type":"function"},{"inputs":[],"name":"rawVotingPower","outputs":[{"internalType":"uint256","name":"","type":"uint256"}],"stateMutability":"view","type":"function"},{"inputs":[],"name":"totalRawVotingPower","outputs":[{"internalType":"uint256","name":"","type":"uint256"}],"stateMutability":"view","type":"function"},{"inputs":[{"internalType":"address","name":"_delegate","type":"address"},{"internalType":"uint256","name":"_amount","type":"uint256"}],"name":"undelegateVote","outputs":[],"stateMutability":"nonpayable","type":"function"},{"inputs":[{"internalType":"address","name":"user","type":"address"},{"internalType":"uint256","name":"amount","type":"uint256"}],"name":"updateVotingPower","outputs":[],"stateMutability":"nonpayable","type":"function"}],"bytecode":"608060405234801561001057600080fd5b5061002933600661002f60201b6103091790919060201c565b5061009c565b6000610044836001600160a01b03841661004d565b90505b92915050565b600081815260018301602052604081205461009457508154600181810184556000848152602080822090930184905584548482528286019093526040902091909155610047565b506000610047565b610f4e806100ab6000396000f3fe608060405234801561001057600080fd5b50600436106100a95760003560e01c8063a591afbe11610071578063a591afbe1461010d578063cead048114610122578063de1ec40314610135578063df3422b914610148578063e2fcf55014610151578063eadc29c71461016457600080fd5b80632fbf233a146100ae578063344ff1d0146100ca57806370480275146100d2578063926f7327146100e75780639f1acf08146100fa575b600080fd5b6100b760015481565b6040519081526020015b60405180910390f35b6001546100b7565b6100e56100e0366004610d77565b610177565b005b6100e56100f5366004610d92565b6101cf565b6100b7610108366004610d77565b6101dc565b6101156101ee565b6040516100c19190610dbc565b6100e5610130366004610e09565b6101ff565b6100b7610143366004610d92565b61021e565b6100b760005481565b6100e561015f366004610d92565b610233565b6100e5610172366004610d92565b610240565b61018260063361031e565b6101c05760405162461bcd60e51b815260206004820152600a60248201526937b7363c9030b236b4b760b11b60448201526064015b60405180910390fd5b6101cb600682610309565b5050565b6101cb6002338484610340565b60006101e8824261021e565b92915050565b60606101fa600661052b565b905090565b61020c6002338584610538565b6102196002338484610340565b505050565b600061022c6002848461071a565b9392505050565b6101cb6002338484610538565b61024b60063361031e565b6102845760405162461bcd60e51b815260206004820152600a60248201526937b7363c9030b236b4b760b11b60448201526064016101b7565b60006102916002846107cb565b90506102ae816020015182604001516108d990919063ffffffff16565b600160008282546102bf9190610e5b565b9091555050604081015160608201516102de91600291869186916108f8565b5060408101516102ee90836108d9565b600160008282546102ff9190610e6e565b9091555050505050565b600061022c836001600160a01b038416610a55565b6001600160a01b0381166000908152600183016020526040812054151561022c565b600061034c85856107cb565b6001600160a01b038516600090815260028701602090815260408083205490840151918401519394509192610380916108d9565b61038a9190610e5b565b9050828110156103dc5760405162461bcd60e51b815260206004820181905260248201527f696e73756666696369656e742062616c616e636520746f2064656c656761746560448201526064016101b7565b6001600160a01b038416600090815260038701602052604081208054859290610406908490610e6e565b90915550506001600160a01b038516600090815260028701602052604081208054859290610435908490610e6e565b90915550506001600160a01b038086166000908152600188016020908152604080832093881683529290529081208054859290610473908490610e6e565b90915550506020820151604083015161049c9187916104928a84610aa4565b8a939291906108f8565b5060006104a987866107cb565b90506104d685826020015183604001516104cc898c610aa490919063ffffffff16565b8b939291906108f8565b50604080516001600160a01b038089168252871660208201529081018590527fff825f9424124effc5ce1d9f4803d58ede8a2bda4da2324810f74834715c4c599060600160405180910390a150505050505050565b6060600061022c83610ad6565b6001600160a01b0380841660009081526001860160209081526040808320938616835292905220548111156105c15760405162461bcd60e51b815260206004820152602960248201527f7573657220686173206e6f742064656c65676174656420656e6f75676820746f6044820152682064656c656761746560b81b60648201526084016101b7565b6001600160a01b0382166000908152600385016020526040812080548392906105eb908490610e5b565b90915550506001600160a01b03831660009081526002850160205260408120805483929061061a908490610e5b565b90915550506001600160a01b038084166000908152600186016020908152604080832093861683529290529081208054839290610658908490610e5b565b9091555050604080516001600160a01b038086168252841660208201529081018290527fde5aa493a93d4351631c1991a0aeecfd52d6b51cf1b61f1a3c48f97e268086539060600160405180910390a160006106b485856107cb565b90506106e184826020015183604001516106d7888a610aa490919063ffffffff16565b89939291906108f8565b5060006106ee86856107cb565b90506107118482602001518360400151610492888b610aa490919063ffffffff16565b50505050505050565b6001600160a01b038216600090815260208481526040808320805482518185028101850190935280835284936107b693929190859084015b828210156107ac578382906000526020600020906004020160405180608001604052908160008201548152602001600182015481526020016002820154815260200160038201548152505081526020019060010190610752565b5050505084610b32565b9150506107c281610b78565b95945050505050565b6107f66040518060800160405280600081526020016000815260200160008152602001600081525090565b6001600160a01b03821660009081526020848152604080832080548251818502810185019093528083529192909190849084015b8282101561088457838290600052602060002090600402016040518060800160405290816000820154815260200160018201548152602001600282015481526020016003820154815250508152602001906001019061082a565b50505050905080516000036108a35761089b610ba4565b9150506101e8565b80600182516108b29190610e5b565b815181106108c2576108c2610e81565b60200260200101519150506101e8565b5092915050565b6000670de0b6b3a76400006108ee8385610e97565b61022c9190610eae565b6109236040518060800160405280600081526020016000815260200160008152602001600081525090565b6001600160a01b03851660009081526020878152604080832081516080810183524281529283018890529291908101861561095e5786610968565b670de0b6b3a76400005b81526020018590529050600061097e89896107cb565b8051909150421480156109915750825415155b156109f6578254829084906109a890600190610e5b565b815481106109b8576109b8610e81565b906000526020600020906004020160008201518160000155602082015181600101556040820151816002015560608201518160030155905050610a49565b6001600160a01b038816600090815260208a815260408083208054600181810183559185529383902086516004909502019384559185015191830191909155830151600282015560608301516003909101555b50979650505050505050565b6000818152600183016020526040812054610a9c575081546001818101845560008481526020808220909301849055845484825282860190935260409020919091556101e8565b5060006101e8565b6001600160a01b03811660009081526002830160209081526040808320546003860190925282205461022c9190610ed0565b606081600001805480602002602001604051908101604052809291908181526020018280548015610b2657602002820191906000526020600020905b815481526020019060010190808311610b12575b50505050509050919050565b6000610b5f6040518060800160405280600081526020016000815260200160008152602001600081525090565b610b6d848460008751610c00565b915091509250929050565b60008160600151610b9a836040015184602001516108d990919063ffffffff16565b6101e89190610ef0565b610bcf6040518060800160405280600081526020016000815260200160008152602001600081525090565b60405180608001604052806000815260200160008152602001670de0b6b3a764000081526020016000815250905090565b6000610c2d6040518060800160405280600081526020016000815260200160008152602001600081525090565b828410610c47576000610c3e610ba4565b91509150610d52565b610c518484610e5b565b600103610c9f576000868581518110610c6c57610c6c610e81565b602002602001015190508581600001511115610c91576000610c8c610ba4565b610c95565b6001815b9250925050610d52565b60006002610cad8686610e6e565b610cb79190610eae565b9050600087610cc7600184610e5b565b81518110610cd757610cd7610e81565b602002602001015190506000888381518110610cf557610cf5610e81565b6020026020010151905087826000015111158015610d135750805188105b15610d265750600193509150610d529050565b80518810610d4657610d3a89898589610c00565b94509450505050610d52565b610d3a89898986610c00565b94509492505050565b80356001600160a01b0381168114610d7257600080fd5b919050565b600060208284031215610d8957600080fd5b61022c82610d5b565b60008060408385031215610da557600080fd5b610dae83610d5b565b946020939093013593505050565b6020808252825182820181905260009190848201906040850190845b81811015610dfd5783516001600160a01b031683529284019291840191600101610dd8565b50909695505050505050565b600080600060608486031215610e1e57600080fd5b610e2784610d5b565b9250610e3560208501610d5b565b9150604084013590509250925092565b634e487b7160e01b600052601160045260246000fd5b818103818111156101e8576101e8610e45565b808201808211156101e8576101e8610e45565b634e487b7160e01b600052603260045260246000fd5b80820281158282048414176101e8576101e8610e45565b600082610ecb57634e487b7160e01b600052601260045260246000fd5b500490565b81810360008312801583831316838312821617156108d2576108d2610e45565b8082018281126000831280158216821582161715610f1057610f10610e45565b50509291505056fea2646970667358221220bfb7af3ddaab8691c56eecc5381247af8fc0fbfbd5df2bbdd5a549dd8ea55bac64736f6c63430008110033","bytecodeSha1":"658d23c5b3235ab777d5bfcbef54372a5d94325b","compiler":{"evm_version":"istanbul","optimizer":{"enabled":true,"runs":200},"version":"0.8.17+commit.8df45f5f"},"contractName":"MockVault","language":"Solidity","natspec":{"kind":"dev","methods":{},"version":1},"opcodes":"PUSH1 0x80 PUSH1 0x40 MSTORE CALLVALUE DUP1 ISZERO PUSH2 0x10 JUMPI PUSH1 0x0 DUP1 REVERT JUMPDEST POP PUSH1 0x4 CALLDATASIZE LT PUSH2 0xA9 JUMPI PUSH1 0x0 CALLDATALOAD PUSH1 0xE0 SHR DUP1 PUSH4 0xA591AFBE GT PUSH2 0x71 JUMPI DUP1 PUSH4 0xA591AFBE EQ PUSH2 0x10D JUMPI DUP1 PUSH4 0xCEAD0481 EQ PUSH2 0x122 JUMPI DUP1 PUSH4 0xDE1EC403 EQ PUSH2 0x135 JUMPI DUP1 PUSH4 0xDF3422B9 EQ PUSH2 0x148 JUMPI DUP1 PUSH4 0xE2FCF550 EQ PUSH2 0x151 JUMPI DUP1 PUSH4 0xEADC29C7 EQ PUSH2 0x164 JUMPI PUSH1 0x0 DUP1 REVERT JUMPDEST DUP1 PUSH4 0x2FBF233A EQ PUSH2 0xAE JUMPI DUP1 PUSH4 0x344FF1D0 EQ PUSH2 0xCA JUMPI DUP1 PUSH4 0x70480275 EQ PUSH2 0xD2 JUMPI DUP1 PUSH4 0x926F7327 EQ PUSH2 0xE7 JUMPI DUP1 PUSH4 0x9F1ACF08 EQ PUSH2 0xFA JUMPI JUMPDEST PUSH1 0x0 DUP1 REVERT JUMPDEST PUSH2 0xB7 PUSH1 0x1 SLOAD DUP2 JUMP JUMPDEST PUSH1 0x40 MLOAD SWAP1 DUP2 MSTORE PUSH1 0x20 ADD JUMPDEST PUSH1 0x40 MLOAD DUP1 SWAP2 SUB SWAP1 RETURN JUMPDEST PUSH1 0x1 SLOAD PUSH2 0xB7 JUMP JUMPDEST PUSH2 0xE5 PUSH2 0xE0 CALLDATASIZE PUSH1 0x4 PUSH2 0xD77 JUMP JUMPDEST PUSH2 0x177 JUMP JUMPDEST STOP JUMPDEST PUSH2 0xE5 PUSH2 0xF5 CALLDATASIZE PUSH1 0x4 PUSH2 0xD92 JUMP JUMPDEST PUSH2 0x1CF JUMP JUMPDEST PUSH2 0xB7 PUSH2 0x108 CALLDATASIZE PUSH1 0x4 PUSH2 0xD77 JUMP JUMPDEST PUSH2 0x1DC JUMP JUMPDEST PUSH2 0x115 PUSH2 0x1EE JUMP JUMPDEST PUSH1 0x40 MLOAD PUSH2 0xC1 SWAP2 SWAP1 PUSH2 0xDBC JUMP JUMPDEST PUSH2 0xE5 PUSH2 0x130 CALLDATASIZE PUSH1 0x4 PUSH2 0xE09 JUMP JUMPDEST PUSH2 0x1FF JUMP JUMPDEST PUSH2 0xB7 PUSH2 0x143 CALLDATASIZE PUSH1 0x4 PUSH2 0xD92 JUMP JUMPDEST PUSH2 0x21E JUMP JUMPDEST PUSH2 0xB7 PUSH1 0x0 SLOAD DUP2 JUMP JUMPDEST PUSH2 0xE5 PUSH2 0x15F CALLDATASIZE PUSH1 0x4 PUSH2 0xD92 JUMP JUMPDEST PUSH2 0x233 JUMP JUMPDEST PUSH2 0xE5 PUSH2 0x172 CALLDATASIZE PUSH1 0x4 PUSH2 0xD92 JUMP JUMPDEST PUSH2 0x240 JUMP JUMPDEST PUSH2 0x182 PUSH1 0x6 CALLER PUSH2 0x31E JUMP JUMPDEST PUSH2 0x1C0 JUMPI PUSH1 0x40 MLOAD PUSH3 0x461BCD PUSH1 0xE5 SHL DUP2 MSTORE PUSH1 0x20 PUSH1 0x4 DUP3 ADD MSTORE PUSH1 0xA PUSH1 0x24 DUP3 ADD MSTORE PUSH10 0x37B7363C9030B236B4B7 PUSH1 0xB1 SHL PUSH1 0x44 DUP3 ADD MSTORE PUSH1 0x64 ADD JUMPDEST PUSH1 0x40 MLOAD DUP1 SWAP2 SUB SWAP1 REVERT JUMPDEST PUSH2 0x1CB PUSH1 0x6 DUP3 PUSH2 0x309 JUMP JUMPDEST POP POP JUMP JUMPDEST PUSH2 0x1CB PUSH1 0x2 CALLER DUP5 DUP5 PUSH2 0x340 JUMP JUMPDEST PUSH1 0x0 PUSH2 0x1E8 DUP3 TIMESTAMP PUSH2 0x21E JUMP JUMPDEST SWAP3 SWAP2 POP POP JUMP JUMPDEST PUSH1 0x60 PUSH2 0x1FA PUSH1 0x6 PUSH2 0x52B JUMP JUMPDEST SWAP1 POP SWAP1 JUMP JUMPDEST PUSH2 0x20C PUSH1 0x2 CALLER DUP6 DUP5 PUSH2 0x538 JUMP JUMPDEST PUSH2 0x219 PUSH1 0x2 CALLER DUP5 DUP5 PUSH2 0x340 JUMP JUMPDEST POP POP POP JUMP JUMPDEST PUSH1 0x0 PUSH2 0x22C PUSH1 0x2 DUP5 DUP5 PUSH2 0x71A JUMP JUMPDEST SWAP4 SWAP3 POP POP POP JUMP JUMPDEST PUSH2 0x1CB PUSH1 0x2 CALLER DUP5 DUP5 PUSH2 0x538 JUMP JUMPDEST PUSH2 0x24B PUSH1 0x6 CALLER PUSH2 0x31E JUMP JUMPDEST PUSH2 0x284 JUMPI PUSH1 0x40 MLOAD PUSH3 0x461BCD PUSH1 0xE5 SHL DUP2 MSTORE PUSH1 0x20 PUSH1 0x4 DUP3 ADD MSTORE PUSH1 0xA PUSH1 0x24 DUP3 ADD MSTORE PUSH10 0x37B7363C9030B236B4B7 PUSH1 0xB1 SHL PUSH1 0x44 DUP3 ADD MSTORE PUSH1 0x64 ADD PUSH2 0x1B7 JUMP JUMPDEST PUSH1 0x0 PUSH2 0x291 PUSH1 0x2 DUP5 PUSH2 0x7CB JUMP JUMPDEST SWAP1 POP PUSH2 0x2AE DUP2 PUSH1 0x20 ADD MLOAD DUP3 PUSH1 0x40 ADD MLOAD PUSH2 0x8D9 SWAP1 SWAP2 SWAP1 PUSH4 0xFFFFFFFF AND JUMP JUMPDEST PUSH1 0x1 PUSH1 0x0 DUP3 DUP3 SLOAD PUSH2 0x2BF SWAP2 SWAP1 PUSH2 0xE5B JUMP JUMPDEST SWAP1 SWAP2 SSTORE POP POP PUSH1 0x40 DUP2 ADD MLOAD PUSH1 0x60 DUP3 ADD MLOAD PUSH2 0x2DE SWAP2 PUSH1 0x2 SWAP2 DUP7 SWAP2 DUP7 SWAP2 PUSH2 0x8F8 JUMP JUMPDEST POP PUSH1 0x40 DUP2 ADD MLOAD PUSH2 0x2EE SWAP1 DUP4 PUSH2 0x8D9 JUMP JUMPDEST PUSH1 0x1 PUSH1 0x0 DUP3 DUP3 SLOAD PUSH2 0x2FF SWAP2 SWAP1 PUSH2 0xE6E JUMP JUMPDEST SWAP1 SWAP2 SSTORE POP POP POP POP POP JUMP JUMPDEST PUSH1 0x0 PUSH2 0x22C DUP4 PUSH1 0x1 PUSH1 0x1 PUSH1 0xA0 SHL SUB DUP5 AND PUSH2 0xA55 JUMP JUMPDEST PUSH1 0x1 PUSH1 0x1 PUSH1 0xA0 SHL SUB DUP2 AND PUSH1 0x0 SWAP1 DUP2 MSTORE PUSH1 0x1 DUP4 ADD PUSH1 0x20 MSTORE PUSH1 0x40 DUP2 KECCAK256 SLOAD ISZERO ISZERO PUSH2 0x22C JUMP JUMPDEST PUSH1 0x0 PUSH2 0x34C DUP6 DUP6 PUSH2 0x7CB JUMP JUMPDEST PUSH1 0x1 PUSH1 0x1 PUSH1 0xA0 SHL SUB DUP6 AND PUSH1 0x0 SWAP1 DUP2 MSTORE PUSH1 0x2 DUP8 ADD PUSH1 0x20 SWAP1 DUP2 MSTORE PUSH1 0x40 DUP1 DUP4 KECCAK256 SLOAD SWAP1 DUP5 ADD MLOAD SWAP2 DUP5 ADD MLOAD SWAP4 SWAP5 POP SWAP2 SWAP3 PUSH2 0x380 SWAP2 PUSH2 0x8D9 JUMP JUMPDEST PUSH2 0x38A SWAP2 SWAP1 PUSH2 0xE5B JUMP JUMPDEST SWAP1 POP DUP3 DUP2 LT ISZERO PUSH2 0x3DC JUMPI PUSH1 0x40 MLOAD PUSH3 0x461BCD PUSH1 0xE5 SHL DUP2 MSTORE PUSH1 0x20 PUSH1 0x4 DUP3 ADD DUP2 SWAP1 MSTORE PUSH1 0x24 DUP3 ADD MSTORE PUSH32 0x696E73756666696369656E742062616C616E636520746F2064656C6567617465 PUSH1 0x44 DUP3 ADD MSTORE PUSH1 0x64 ADD PUSH2 0x1B7 JUMP JUMPDEST PUSH1 0x1 PUSH1 0x1 PUSH1 0xA0 SHL SUB DUP5 AND PUSH1 0x0 SWAP1 DUP2 MSTORE PUSH1 0x3 DUP8 ADD PUSH1 0x20 MSTORE PUSH1 0x40 DUP2 KECCAK256 DUP1 SLOAD DUP6 SWAP3 SWAP1 PUSH2 0x406 SWAP1 DUP5 SWAP1 PUSH2 0xE6E JUMP JUMPDEST SWAP1 SWAP2 SSTORE POP POP PUSH1 0x1 PUSH1 0x1 PUSH1 0xA0 SHL SUB DUP6 AND PUSH1 0x0 SWAP1 DUP2 MSTORE PUSH1 0x2 DUP8 ADD PUSH1 0x20 MSTORE PUSH1 0x40 DUP2 KECCAK256 DUP1 SLOAD DUP6 SWAP3 SWAP1 PUSH2 0x435 SWAP1 DUP5 SWAP1 PUSH2 0xE6E JUMP JUMPDEST SWAP1 SWAP2 SSTORE POP POP PUSH1 0x1 PUSH1 0x1 PUSH1 0xA0 SHL SUB DUP1 DUP7 AND PUSH1 0x0 SWAP1 DUP2 MSTORE PUSH1 0x1 DUP9 ADD PUSH1 0x20 SWAP1 DUP2 MSTORE PUSH1 0x40 DUP1 DUP4 KECCAK256 SWAP4 DUP9 AND DUP4 MSTORE SWAP3 SWAP1 MSTORE SWAP1 DUP2 KECCAK256 DUP1 SLOAD DUP6 SWAP3 SWAP1 PUSH2 0x473 SWAP1 DUP5 SWAP1 PUSH2 0xE6E JUMP JUMPDEST SWAP1 SWAP2 SSTORE POP POP PUSH1 0x20 DUP3 ADD MLOAD PUSH1 0x40 DUP4 ADD MLOAD PUSH2 0x49C SWAP2 DUP8 SWAP2 PUSH2 0x492 DUP11 DUP5 PUSH2 0xAA4 JUMP JUMPDEST DUP11 SWAP4 SWAP3 SWAP2 SWAP1 PUSH2 0x8F8 JUMP JUMPDEST POP PUSH1 0x0 PUSH2 0x4A9 DUP8 DUP7 PUSH2 0x7CB JUMP JUMPDEST SWAP1 POP PUSH2 0x4D6 DUP6 DUP3 PUSH1 0x20 ADD MLOAD DUP4 PUSH1 0x40 ADD MLOAD PUSH2 0x4CC DUP10 DUP13 PUSH2 0xAA4 SWAP1 SWAP2 SWAP1 PUSH4 0xFFFFFFFF AND JUMP JUMPDEST DUP12 SWAP4 SWAP3 SWAP2 SWAP1 PUSH2 0x8F8 JUMP JUMPDEST POP PUSH1 0x40 DUP1 MLOAD PUSH1 0x1 PUSH1 0x1 PUSH1 0xA0 SHL SUB DUP1 DUP10 AND DUP3 MSTORE DUP8 AND PUSH1 0x20 DUP3 ADD MSTORE SWAP1 DUP2 ADD DUP6 SWAP1 MSTORE PUSH32 0xFF825F9424124EFFC5CE1D9F4803D58EDE8A2BDA4DA2324810F74834715C4C59 SWAP1 PUSH1 0x60 ADD PUSH1 0x40 MLOAD DUP1 SWAP2 SUB SWAP1 LOG1 POP POP POP POP POP POP POP JUMP JUMPDEST PUSH1 0x60 PUSH1 0x0 PUSH2 0x22C DUP4 PUSH2 0xAD6 JUMP JUMPDEST PUSH1 0x1 PUSH1 0x1 PUSH1 0xA0 SHL SUB DUP1 DUP5 AND PUSH1 0x0 SWAP1 DUP2 MSTORE PUSH1 0x1 DUP7 ADD PUSH1 0x20 SWAP1 DUP2 MSTORE PUSH1 0x40 DUP1 DUP4 KECCAK256 SWAP4 DUP7 AND DUP4 MSTORE SWAP3 SWAP1 MSTORE KECCAK256 SLOAD DUP2 GT ISZERO PUSH2 0x5C1 JUMPI PUSH1 0x40 MLOAD PUSH3 0x461BCD PUSH1 0xE5 SHL DUP2 MSTORE PUSH1 0x20 PUSH1 0x4 DUP3 ADD MSTORE PUSH1 0x29 PUSH1 0x24 DUP3 ADD MSTORE PUSH32 0x7573657220686173206E6F742064656C65676174656420656E6F75676820746F PUSH1 0x44 DUP3 ADD MSTORE PUSH9 0x2064656C6567617465 PUSH1 0xB8 SHL PUSH1 0x64 DUP3 ADD MSTORE PUSH1 0x84 ADD PUSH2 0x1B7 JUMP JUMPDEST PUSH1 0x1 PUSH1 0x1 PUSH1 0xA0 SHL SUB DUP3 AND PUSH1 0x0 SWAP1 DUP2 MSTORE PUSH1 0x3 DUP6 ADD PUSH1 0x20 MSTORE PUSH1 0x40 DUP2 KECCAK256 DUP1 SLOAD DUP4 SWAP3 SWAP1 PUSH2 0x5EB SWAP1 DUP5 SWAP1 PUSH2 0xE5B JUMP JUMPDEST SWAP1 SWAP2 SSTORE POP POP PUSH1 0x1 PUSH1 0x1 PUSH1 0xA0 SHL SUB DUP4 AND PUSH1 0x0 SWAP1 DUP2 MSTORE PUSH1 0x2 DUP6 ADD PUSH1 0x20 MSTORE PUSH1 0x40 DUP2 KECCAK256 DUP1 SLOAD DUP4 SWAP3 SWAP1 PUSH2 0x61A SWAP1 DUP5 SWAP1 PUSH2 0xE5B JUMP JUMPDEST SWAP1 SWAP2 SSTORE POP POP PUSH1 0x1 PUSH1 0x1 PUSH1 0xA0 SHL SUB DUP1 DUP5 AND PUSH1 0x0 SWAP1 DUP2 MSTORE PUSH1 0x1 DUP7 ADD PUSH1 0x20 SWAP1 DUP2 MSTORE PUSH1 0x40 DUP1 DUP4 KECCAK256 SWAP4 DUP7 AND DUP4 MSTORE SWAP3 SWAP1 MSTORE SWAP1 DUP2 KECCAK256 DUP1 SLOAD DUP4 SWAP3 SWAP1 PUSH2 0x658 SWAP1 DUP5 SWAP1 PUSH2 0xE5B JUMP JUMPDEST SWAP1 SWAP2 SSTORE POP POP PUSH1 0x40 DUP1 MLOAD PUSH1 0x1 PUSH1 0x1 PUSH1 0xA0 SHL SUB DUP1 DUP7 AND DUP3 MSTORE DUP5 AND PUSH1 0x20 DUP3 ADD MSTORE SWAP1 DUP2 ADD DUP3 SWAP1 MSTORE PUSH32 0xDE5AA493A93D4351631C1991A0AEECFD52D6B51CF1B61F1A3C48F97E26808653 SWAP1 PUSH1 0x60 ADD PUSH1 0x40 MLOAD DUP1 SWAP2 SUB SWAP1 LOG1 PUSH1 0x0 PUSH2 0x6B4 DUP6 DUP6 PUSH2 0x7CB JUMP JUMPDEST SWAP1 POP PUSH2 0x6E1 DUP5 DUP3 PUSH1 0x20 ADD MLOAD DUP4 PUSH1 0x40 ADD MLOAD PUSH2 0x6D7 DUP9 DUP11 PUSH2 0xAA4 SWAP1 SWAP2 SWAP1 PUSH4 0xFFFFFFFF AND JUMP JUMPDEST DUP10 SWAP4 SWAP3 SWAP2 SWAP1 PUSH2 0x8F8 JUMP JUMPDEST POP PUSH1 0x0 PUSH2 0x6EE DUP7 DUP6 PUSH2 0x7CB JUMP JUMPDEST SWAP1 POP PUSH2 0x711 DUP5 DUP3 PUSH1 0x20 ADD MLOAD DUP4 PUSH1 0x40 ADD MLOAD PUSH2 0x492 DUP9 DUP12 PUSH2 0xAA4 SWAP1 SWAP2 SWAP1 PUSH4 0xFFFFFFFF AND JUMP JUMPDEST POP POP POP POP POP POP POP JUMP JUMPDEST PUSH1 0x1 PUSH1 0x1 PUSH1 0xA0 SHL SUB DUP3 AND PUSH1 0x0 SWAP1 DUP2 MSTORE PUSH1 0x20 DUP5 DUP2 MSTORE PUSH1 0x40 DUP1 DUP4 KECCAK256 DUP1 SLOAD DUP3 MLOAD DUP2 DUP6 MUL DUP2 ADD DUP6 ADD SWAP1 SWAP4 MSTORE DUP1 DUP4 MSTORE DUP5 SWAP4 PUSH2 0x7B6 SWAP4 SWAP3 SWAP2 SWAP1 DUP6 SWAP1 DUP5 ADD JUMPDEST DUP3 DUP3 LT ISZERO PUSH2 0x7AC JUMPI DUP4 DUP3 SWAP1 PUSH1 0x0 MSTORE PUSH1 0x20 PUSH1 0x0 KECCAK256 SWAP1 PUSH1 0x4 MUL ADD PUSH1 0x40 MLOAD DUP1 PUSH1 0x80 ADD PUSH1 0x40 MSTORE SWAP1 DUP2 PUSH1 0x0 DUP3 ADD SLOAD DUP2 MSTORE PUSH1 0x20 ADD PUSH1 0x1 DUP3 ADD SLOAD DUP2 MSTORE PUSH1 0x20 ADD PUSH1 0x2 DUP3 ADD SLOAD DUP2 MSTORE PUSH1 0x20 ADD PUSH1 0x3 DUP3 ADD SLOAD DUP2 MSTORE POP POP DUP2 MSTORE PUSH1 0x20 ADD SWAP1 PUSH1 0x1 ADD SWAP1 PUSH2 0x752 JUMP JUMPDEST POP POP POP POP DUP5 PUSH2 0xB32 JUMP JUMPDEST SWAP2 POP POP PUSH2 0x7C2 DUP2 PUSH2 0xB78 JUMP JUMPDEST SWAP6 SWAP5 POP POP POP POP POP JUMP JUMPDEST PUSH2 0x7F6 PUSH1 0x40 MLOAD DUP1 PUSH1 0x80 ADD PUSH1 0x40 MSTORE DUP1 PUSH1 0x0 DUP2 MSTORE PUSH1 0x20 ADD PUSH1 0x0 DUP2 MSTORE PUSH1 0x20 ADD PUSH1 0x0 DUP2 MSTORE PUSH1 0x20 ADD PUSH1 0x0 DUP2 MSTORE POP SWAP1 JUMP JUMPDEST PUSH1 0x1 PUSH1 0x1 PUSH1 0xA0 SHL SUB DUP3 AND PUSH1 0x0 SWAP1 DUP2 MSTORE PUSH1 0x20 DUP5 DUP2 MSTORE PUSH1 0x40 DUP1 DUP4 KECCAK256 DUP1 SLOAD DUP3 MLOAD DUP2 DUP6 MUL DUP2 ADD DUP6 ADD SWAP1 SWAP4 MSTORE DUP1 DUP4 MSTORE SWAP2 SWAP3 SWAP1 SWAP2 SWAP1 DUP5 SWAP1 DUP5 ADD JUMPDEST DUP3 DUP3 LT ISZERO PUSH2 0x884 JUMPI DUP4 DUP3 SWAP1 PUSH1 0x0 MSTORE PUSH1 0x20 PUSH1 0x0 KECCAK256 SWAP1 PUSH1 0x4 MUL ADD PUSH1 0x40 MLOAD DUP1 PUSH1 0x80 ADD PUSH1 0x40 MSTORE SWAP1 DUP2 PUSH1 0x0 DUP3 ADD SLOAD DUP2 MSTORE PUSH1 0x20 ADD PUSH1 0x1 DUP3 ADD SLOAD DUP2 MSTORE PUSH1 0x20 ADD PUSH1 0x2 DUP3 ADD SLOAD DUP2 MSTORE PUSH1 0x20 ADD PUSH1 0x3 DUP3 ADD SLOAD DUP2 MSTORE POP POP DUP2 MSTORE PUSH1 0x20 ADD SWAP1 PUSH1 0x1 ADD SWAP1 PUSH2 0x82A JUMP JUMPDEST POP POP POP POP SWAP1 POP DUP1 MLOAD PUSH1 0x0 SUB PUSH2 0x8A3 JUMPI PUSH2 0x89B PUSH2 0xBA4 JUMP JUMPDEST SWAP2 POP POP PUSH2 0x1E8 JUMP JUMPDEST DUP1 PUSH1 0x1 DUP3 MLOAD PUSH2 0x8B2 SWAP2 SWAP1 PUSH2 0xE5B JUMP JUMPDEST DUP2 MLOAD DUP2 LT PUSH2 0x8C2 JUMPI PUSH2 0x8C2 PUSH2 0xE81 JUMP JUMPDEST PUSH1 0x20 MUL PUSH1 0x20 ADD ADD MLOAD SWAP2 POP POP PUSH2 0x1E8 JUMP JUMPDEST POP SWAP3 SWAP2 POP POP JUMP JUMPDEST PUSH1 0x0 PUSH8 0xDE0B6B3A7640000 PUSH2 0x8EE DUP4 DUP6 PUSH2 0xE97 JUMP JUMPDEST PUSH2 0x22C SWAP2 SWAP1 PUSH2 0xEAE JUMP JUMPDEST PUSH2 0x923 PUSH1 0x40 MLOAD DUP1 PUSH1 0x80 ADD PUSH1 0x40 MSTORE DUP1 PUSH1 0x0 DUP2 MSTORE PUSH1 0x20 ADD PUSH1 0x0 DUP2 MSTORE PUSH1 0x20 ADD PUSH1 0x0 DUP2 MSTORE PUSH1 0x20 ADD PUSH1 0x0 DUP2 MSTORE POP SWAP1 JUMP JUMPDEST PUSH1 0x1 PUSH1 0x1 PUSH1 0xA0 SHL SUB DUP6 AND PUSH1 0x0 SWAP1 DUP2 MSTORE PUSH1 0x20 DUP8 DUP2 MSTORE PUSH1 0x40 DUP1 DUP4 KECCAK256 DUP2 MLOAD PUSH1 0x80 DUP2 ADD DUP4 MSTORE TIMESTAMP DUP2 MSTORE SWAP3 DUP4 ADD DUP9 SWAP1 MSTORE SWAP3 SWAP2 SWAP1 DUP2 ADD DUP7 ISZERO PUSH2 0x95E JUMPI DUP7 PUSH2 0x968 JUMP JUMPDEST PUSH8 0xDE0B6B3A7640000 JUMPDEST DUP2 MSTORE PUSH1 0x20 ADD DUP6 SWAP1 MSTORE SWAP1 POP PUSH1 0x0 PUSH2 0x97E DUP10 DUP10 PUSH2 0x7CB JUMP JUMPDEST DUP1 MLOAD SWAP1 SWAP2 POP TIMESTAMP EQ DUP1 ISZERO PUSH2 0x991 JUMPI POP DUP3 SLOAD ISZERO ISZERO JUMPDEST ISZERO PUSH2 0x9F6 JUMPI DUP3 SLOAD DUP3 SWAP1 DUP5 SWAP1 PUSH2 0x9A8 SWAP1 PUSH1 0x1 SWAP1 PUSH2 0xE5B JUMP JUMPDEST DUP2 SLOAD DUP2 LT PUSH2 0x9B8 JUMPI PUSH2 0x9B8 PUSH2 0xE81 JUMP JUMPDEST SWAP1 PUSH1 0x0 MSTORE PUSH1 0x20 PUSH1 0x0 KECCAK256 SWAP1 PUSH1 0x4 MUL ADD PUSH1 0x0 DUP3 ADD MLOAD DUP2 PUSH1 0x0 ADD SSTORE PUSH1 0x20 DUP3 ADD MLOAD DUP2 PUSH1 0x1 ADD SSTORE PUSH1 0x40 DUP3 ADD MLOAD DUP2 PUSH1 0x2 ADD SSTORE PUSH1 0x60 DUP3 ADD MLOAD DUP2 PUSH1 0x3 ADD SSTORE SWAP1 POP POP PUSH2 0xA49 JUMP JUMPDEST PUSH1 0x1 PUSH1 0x1 PUSH1 0xA0 SHL SUB DUP9 AND PUSH1 0x0 SWAP1 DUP2 MSTORE PUSH1 0x20 DUP11 DUP2 MSTORE PUSH1 0x40 DUP1 DUP4 KECCAK256 DUP1 SLOAD PUSH1 0x1 DUP2 DUP2 ADD DUP4 SSTORE SWAP2 DUP6 MSTORE SWAP4 DUP4 SWAP1 KECCAK256 DUP7 MLOAD PUSH1 0x4 SWAP1 SWAP6 MUL ADD SWAP4 DUP5 SSTORE SWAP2 DUP6 ADD MLOAD SWAP2 DUP4 ADD SWAP2 SWAP1 SWAP2 SSTORE DUP4 ADD MLOAD PUSH1 0x2 DUP3 ADD SSTORE PUSH1 0x60 DUP4 ADD MLOAD PUSH1 0x3 SWAP1 SWAP2 ADD SSTORE JUMPDEST POP SWAP8 SWAP7 POP POP POP POP POP POP POP JUMP JUMPDEST PUSH1 0x0 DUP2 DUP2 MSTORE PUSH1 0x1 DUP4 ADD PUSH1 0x20 MSTORE PUSH1 0x40 DUP2 KECCAK256 SLOAD PUSH2 0xA9C JUMPI POP DUP2 SLOAD PUSH1 0x1 DUP2 DUP2 ADD DUP5 SSTORE PUSH1 0x0 DUP5 DUP2 MSTORE PUSH1 0x20 DUP1 DUP3 KECCAK256 SWAP1 SWAP4 ADD DUP5 SWAP1 SSTORE DUP5 SLOAD DUP5 DUP3 MSTORE DUP3 DUP7 ADD SWAP1 SWAP4 MSTORE PUSH1 0x40 SWAP1 KECCAK256 SWAP2 SWAP1 SWAP2 SSTORE PUSH2 0x1E8 JUMP JUMPDEST POP PUSH1 0x0 PUSH2 0x1E8 JUMP JUMPDEST PUSH1 0x1 PUSH1 0x1 PUSH1 0xA0 SHL SUB DUP2 AND PUSH1 0x0 SWAP1 DUP2 MSTORE PUSH1 0x2 DUP4 ADD PUSH1 0x20 SWAP1 DUP2 MSTORE PUSH1 0x40 DUP1 DUP4 KECCAK256 SLOAD PUSH1 0x3 DUP7 ADD SWAP1 SWAP3 MSTORE DUP3 KECCAK256 SLOAD PUSH2 0x22C SWAP2 SWAP1 PUSH2 0xED0 JUMP JUMPDEST PUSH1 0x60 DUP2 PUSH1 0x0 ADD DUP1 SLOAD DUP1 PUSH1 0x20 MUL PUSH1 0x20 ADD PUSH1 0x40 MLOAD SWAP1 DUP2 ADD PUSH1 0x40 MSTORE DUP1 SWAP3 SWAP2 SWAP1 DUP2 DUP2 MSTORE PUSH1 0x20 ADD DUP3 DUP1 SLOAD DUP1 ISZERO PUSH2 0xB26 JUMPI PUSH1 0x20 MUL DUP3 ADD SWAP2 SWAP1 PUSH1 0x0 MSTORE PUSH1 0x20 PUSH1 0x0 KECCAK256 SWAP1 JUMPDEST DUP2 SLOAD DUP2 MSTORE PUSH1 0x20 ADD SWAP1 PUSH1 0x1 ADD SWAP1 DUP1 DUP4 GT PUSH2 0xB12 JUMPI JUMPDEST POP POP POP POP POP SWAP1 POP SWAP2 SWAP1 POP JUMP JUMPDEST PUSH1 0x0 PUSH2 0xB5F PUSH1 0x40 MLOAD DUP1 PUSH1 0x80 ADD PUSH1 0x40 MSTORE DUP1 PUSH1 0x0 DUP2 MSTORE PUSH1 0x20 ADD PUSH1 0x0 DUP2 MSTORE PUSH1 0x20 ADD PUSH1 0x0 DUP2 MSTORE PUSH1 0x20 ADD PUSH1 0x0 DUP2 MSTORE POP SWAP1 JUMP JUMPDEST PUSH2 0xB6D DUP5 DUP5 PUSH1 0x0 DUP8 MLOAD PUSH2 0xC00 JUMP JUMPDEST SWAP2 POP SWAP2 POP SWAP3 POP SWAP3 SWAP1 POP JUMP JUMPDEST PUSH1 0x0 DUP2 PUSH1 0x60 ADD MLOAD PUSH2 0xB9A DUP4 PUSH1 0x40 ADD MLOAD DUP5 PUSH1 0x20 ADD MLOAD PUSH2 0x8D9 SWAP1 SWAP2 SWAP1 PUSH4 0xFFFFFFFF AND JUMP JUMPDEST PUSH2 0x1E8 SWAP2 SWAP1 PUSH2 0xEF0 JUMP JUMPDEST PUSH2 0xBCF PUSH1 0x40 MLOAD DUP1 PUSH1 0x80 ADD PUSH1 0x40 MSTORE DUP1 PUSH1 0x0 DUP2 MSTORE PUSH1 0x20 ADD PUSH1 0x0 DUP2 MSTORE PUSH1 0x20 ADD PUSH1 0x0 DUP2 MSTORE PUSH1 0x20 ADD PUSH1 0x0 DUP2 MSTORE POP SWAP1 JUMP JUMPDEST PUSH1 0x40 MLOAD DUP1 PUSH1 0x80 ADD PUSH1 0x40 MSTORE DUP1 PUSH1 0x0 DUP2 MSTORE PUSH1 0x20 ADD PUSH1 0x0 DUP2 MSTORE PUSH1 0x20 ADD PUSH8 0xDE0B6B3A7640000 DUP2 MSTORE PUSH1 0x20 ADD PUSH1 0x0 DUP2 MSTORE POP SWAP1 POP SWAP1 JUMP JUMPDEST PUSH1 0x0 PUSH2 0xC2D PUSH1 0x40 MLOAD DUP1 PUSH1 0x80 ADD PUSH1 0x40 MSTORE DUP1 PUSH1 0x0 DUP2 MSTORE PUSH1 0x20 ADD PUSH1 0x0 DUP2 MSTORE PUSH1 0x20 ADD PUSH1 0x0 DUP2 MSTORE PUSH1 0x20 ADD PUSH1 0x0 DUP2 MSTORE POP SWAP1 JUMP JUMPDEST DUP3 DUP5 LT PUSH2 0xC47 JUMPI PUSH1 0x0 PUSH2 0xC3E PUSH2 0xBA4 JUMP JUMPDEST SWAP2 POP SWAP2 POP PUSH2 0xD52 JUMP JUMPDEST PUSH2 0xC51 DUP5 DUP5 PUSH2 0xE5B JUMP JUMPDEST PUSH1 0x1 SUB PUSH2 0xC9F JUMPI PUSH1 0x0 DUP7 DUP6 DUP2 MLOAD DUP2 LT PUSH2 0xC6C JUMPI PUSH2 0xC6C PUSH2 0xE81 JUMP JUMPDEST PUSH1 0x20 MUL PUSH1 0x20 ADD ADD MLOAD SWAP1 POP DUP6 DUP2 PUSH1 0x0 ADD MLOAD GT ISZERO PUSH2 0xC91 JUMPI PUSH1 0x0 PUSH2 0xC8C PUSH2 0xBA4 JUMP JUMPDEST PUSH2 0xC95 JUMP JUMPDEST PUSH1 0x1 DUP2 JUMPDEST SWAP3 POP SWAP3 POP POP PUSH2 0xD52 JUMP JUMPDEST PUSH1 0x0 PUSH1 0x2 PUSH2 0xCAD DUP7 DUP7 PUSH2 0xE6E JUMP JUMPDEST PUSH2 0xCB7 SWAP2 SWAP1 PUSH2 0xEAE JUMP JUMPDEST SWAP1 POP PUSH1 0x0 DUP8 PUSH2 0xCC7 PUSH1 0x1 DUP5 PUSH2 0xE5B JUMP JUMPDEST DUP2 MLOAD DUP2 LT PUSH2 0xCD7 JUMPI PUSH2 0xCD7 PUSH2 0xE81 JUMP JUMPDEST PUSH1 0x20 MUL PUSH1 0x20 ADD ADD MLOAD SWAP1 POP PUSH1 0x0 DUP9 DUP4 DUP2 MLOAD DUP2 LT PUSH2 0xCF5 JUMPI PUSH2 0xCF5 PUSH2 0xE81 JUMP JUMPDEST PUSH1 0x20 MUL PUSH1 0x20 ADD ADD MLOAD SWAP1 POP DUP8 DUP3 PUSH1 0x0 ADD MLOAD GT ISZERO DUP1 ISZERO PUSH2 0xD13 JUMPI POP DUP1 MLOAD DUP9 LT JUMPDEST ISZERO PUSH2 0xD26 JUMPI POP PUSH1 0x1 SWAP4 POP SWAP2 POP PUSH2 0xD52 SWAP1 POP JUMP JUMPDEST DUP1 MLOAD DUP9 LT PUSH2 0xD46 JUMPI PUSH2 0xD3A DUP10 DUP10 DUP6 DUP10 PUSH2 0xC00 JUMP JUMPDEST SWAP5 POP SWAP5 POP POP POP POP PUSH2 0xD52 JUMP JUMPDEST PUSH2 0xD3A DUP10 DUP10 DUP10 DUP7 PUSH2 0xC00 JUMP JUMPDEST SWAP5 POP SWAP5 SWAP3 POP POP POP JUMP JUMPDEST DUP1 CALLDATALOAD PUSH1 0x1 PUSH1 0x1 PUSH1 0xA0 SHL SUB DUP2 AND DUP2 EQ PUSH2 0xD72 JUMPI PUSH1 0x0 DUP1 REVERT JUMPDEST SWAP2 SWAP1 POP JUMP JUMPDEST PUSH1 0x0 PUSH1 0x20 DUP3 DUP5 SUB SLT ISZERO PUSH2 0xD89 JUMPI PUSH1 0x0 DUP1 REVERT JUMPDEST PUSH2 0x22C DUP3 PUSH2 0xD5B JUMP JUMPDEST PUSH1 0x0 DUP1 PUSH1 0x40 DUP4 DUP6 SUB SLT ISZERO PUSH2 0xDA5 JUMPI PUSH1 0x0 DUP1 REVERT JUMPDEST PUSH2 0xDAE DUP4 PUSH2 0xD5B JUMP JUMPDEST SWAP5 PUSH1 0x20 SWAP4 SWAP1 SWAP4 ADD CALLDATALOAD SWAP4 POP POP POP JUMP JUMPDEST PUSH1 0x20 DUP1 DUP3 MSTORE DUP3 MLOAD DUP3 DUP3 ADD DUP2 SWAP1 MSTORE PUSH1 0x0 SWAP2 SWAP1 DUP5 DUP3 ADD SWAP1 PUSH1 0x40 DUP6 ADD SWAP1 DUP5 JUMPDEST DUP2 DUP2 LT ISZERO PUSH2 0xDFD JUMPI DUP4 MLOAD PUSH1 0x1 PUSH1 0x1 PUSH1 0xA0 SHL SUB AND DUP4 MSTORE SWAP3 DUP5 ADD SWAP3 SWAP2 DUP5 ADD SWAP2 PUSH1 0x1 ADD PUSH2 0xDD8 JUMP JUMPDEST POP SWAP1 SWAP7 SWAP6 POP POP POP POP POP POP JUMP JUMPDEST PUSH1 0x0 DUP1 PUSH1 0x0 PUSH1 0x60 DUP5 DUP7 SUB SLT ISZERO PUSH2 0xE1E JUMPI PUSH1 0x0 DUP1 REVERT JUMPDEST PUSH2 0xE27 DUP5 PUSH2 0xD5B JUMP JUMPDEST SWAP3 POP PUSH2 0xE35 PUSH1 0x20 DUP6 ADD PUSH2 0xD5B JUMP JUMPDEST SWAP2 POP PUSH1 0x40 DUP5 ADD CALLDATALOAD SWAP1 POP SWAP3 POP SWAP3 POP SWAP3 JUMP JUMPDEST PUSH4 0x4E487B71 PUSH1 0xE0 SHL PUSH1 0x0 MSTORE PUSH1 0x11 PUSH1 0x4 MSTORE PUSH1 0x24 PUSH1 0x0 REVERT JUMPDEST DUP2 DUP2 SUB DUP2 DUP2 GT ISZERO PUSH2 0x1E8 JUMPI PUSH2 0x1E8 PUSH2 0xE45 JUMP JUMPDEST DUP1 DUP3 ADD DUP1 DUP3 GT ISZERO PUSH2 0x1E8 JUMPI PUSH2 0x1E8 PUSH2 0xE45 JUMP JUMPDEST PUSH4 0x4E487B71 PUSH1 0xE0 SHL PUSH1 0x0 MSTORE PUSH1 0x32 PUSH1 0x4 MSTORE PUSH1 0x24 PUSH1 0x0 REVERT JUMPDEST DUP1 DUP3 MUL DUP2 ISZERO DUP3 DUP3 DIV DUP5 EQ OR PUSH2 0x1E8 JUMPI PUSH2 0x1E8 PUSH2 0xE45 JUMP JUMPDEST PUSH1 0x0 DUP3 PUSH2 0xECB JUMPI PUSH4 0x4E487B71 PUSH1 0xE0 SHL PUSH1 0x0 MSTORE PUSH1 0x12 PUSH1 0x4 MSTORE PUSH1 0x24 PUSH1 0x0 REVERT JUMPDEST POP DIV SWAP1 JUMP JUMPDEST DUP2 DUP2 SUB PUSH1 0x0 DUP4 SLT DUP1 ISZERO DUP4 DUP4 SGT AND DUP4 DUP4 SLT DUP3 AND OR ISZERO PUSH2 0x8D2 JUMPI PUSH2 0x8D2 PUSH2 0xE45 JUMP JUMPDEST DUP1 DUP3 ADD DUP3 DUP2 SLT PUSH1 0x0 DUP4 SLT DUP1 ISZERO DUP3 AND DUP3 ISZERO DUP3 AND OR ISZERO PUSH2 0xF10 JUMPI PUSH2 0xF10 PUSH2 0xE45 JUMP JUMPDEST POP POP SWAP3 SWAP2 POP POP JUMP INVALID LOG2 PUSH5 0x6970667358 0x22 SLT KECCAK256 0xBF 0xB7 0xAF RETURNDATASIZE 0xDA 0xAB DUP7 SWAP2 0xC5 PUSH15 0xECC5381247AF8FC0FBFBD5DF2BBDD5 0xA5 0x49 0xDD DUP15 0xA5 JUMPDEST 0xAC PUSH5 0x736F6C6343 STOP ADDMOD GT STOP CALLER ","sha1":"acebd4ffff7edb08711fda9b70006a5d098e4376","source":"// SPDX-License-Identifier: UNLICENSED\npragma solidity ^0.8.17;\n\nimport \"@openzeppelin/contracts/utils/structs/EnumerableSet.sol\";\n\nimport \"../vaults/BaseVault.sol\";\nimport \"../../interfaces/IVault.sol\";\nimport \"../../interfaces/IDelegatingVault.sol\";\nimport \"../../libraries/VotingPowerHistory.sol\";\n\ncontract MockVault is BaseVault, IDelegatingVault {\n    using VotingPowerHistory for VotingPowerHistory.History;\n    using VotingPowerHistory for VotingPowerHistory.Record;\n    using ScaledMath for uint256;\n\n    using EnumerableSet for EnumerableSet.AddressSet;\n\n    uint256 public rawVotingPower;\n    uint256 public totalRawVotingPower;\n\n    VotingPowerHistory.History internal history;\n\n    EnumerableSet.AddressSet internal _admins;\n\n    modifier onlyAdmin() {\n        require(_admins.contains(msg.sender), \"only admin\");\n        _;\n    }\n\n    constructor() {\n        _admins.add(msg.sender);\n    }\n\n    function addAdmin(address _admin) external onlyAdmin {\n        _admins.add(_admin);\n    }\n\n    function listAdmins() external view returns (address[] memory) {\n        return _admins.values();\n    }\n\n    function delegateVote(address _delegate, uint256 _amount) external {\n        history.delegateVote(msg.sender, _delegate, _amount);\n    }\n\n    function undelegateVote(address _delegate, uint256 _amount) external {\n        history.undelegateVote(msg.sender, _delegate, _amount);\n    }\n\n    function updateVotingPower(\n        address user,\n        uint256 amount\n    ) external onlyAdmin {\n        VotingPowerHistory.Record memory currentVotingPower = history\n            .currentRecord(user);\n        totalRawVotingPower -= currentVotingPower.multiplier.mulDown(\n            currentVotingPower.baseVotingPower\n        );\n        history.updateVotingPower(\n            user,\n            amount,\n            currentVotingPower.multiplier,\n            currentVotingPower.netDelegatedVotes\n        );\n        totalRawVotingPower += currentVotingPower.multiplier.mulDown(amount);\n    }\n\n    function changeDelegate(\n        address _oldDelegate,\n        address _newDelegate,\n        uint256 _amount\n    ) external {\n        history.undelegateVote(msg.sender, _oldDelegate, _amount);\n        history.delegateVote(msg.sender, _newDelegate, _amount);\n    }\n\n    function getRawVotingPower(\n        address user,\n        uint256 timestamp\n    ) public view override returns (uint256) {\n        return history.getVotingPower(user, timestamp);\n    }\n\n    function getTotalRawVotingPower() public view override returns (uint256) {\n        return totalRawVotingPower;\n    }\n}\n","sourcePath":"contracts/testing/MockVault.sol","type":"contract","deployment":{"address":"0x81eBc7da633C9a618fB11317c7d518A54053f395","chainid":"137","blockHeight":43126562}}