{"abi":[{"inputs":[{"internalType":"address","name":"_owner","type":"address"},{"components":[{"internalType":"address","name":"_contract","type":"address"},{"internalType":"bytes4","name":"_sig","type":"bytes4"},{"internalType":"address","name":"_strategy","type":"address"}],"internalType":"struct ActionTierConfig.StrategyConfig[]","name":"configs","type":"tuple[]"}],"stateMutability":"nonpayable","type":"constructor","name":"constructor"},{"inputs":[{"internalType":"address","name":"actual","type":"address"},{"internalType":"address","name":"expected","type":"address"}],"name":"NotAuthorized","type":"error"},{"inputs":[{"components":[{"internalType":"address","name":"_contract","type":"address"},{"internalType":"bytes4","name":"_sig","type":"bytes4"},{"internalType":"address","name":"_strategy","type":"address"}],"internalType":"struct ActionTierConfig.StrategyConfig[]","name":"configs","type":"tuple[]"}],"name":"batchSetStrategy","outputs":[],"stateMutability":"nonpayable","type":"function"},{"inputs":[{"internalType":"address","name":"_contract","type":"address"},{"internalType":"bytes4","name":"_sig","type":"bytes4"}],"name":"getStrategy","outputs":[{"internalType":"address","name":"","type":"address"}],"stateMutability":"view","type":"function"},{"inputs":[{"internalType":"address","name":"_contract","type":"address"},{"internalType":"bytes","name":"_calldata","type":"bytes"}],"name":"getTier","outputs":[{"components":[{"internalType":"uint64","name":"quorum","type":"uint64"},{"internalType":"uint64","name":"proposalThreshold","type":"uint64"},{"internalType":"uint64","name":"voteThreshold","type":"uint64"},{"internalType":"uint32","name":"timeLockDuration","type":"uint32"},{"internalType":"uint32","name":"proposalLength","type":"uint32"},{"internalType":"uint8","name":"actionLevel","type":"uint8"}],"internalType":"struct DataTypes.Tier","name":"","type":"tuple"}],"stateMutability":"view","type":"function"},{"inputs":[],"name":"owner","outputs":[{"internalType":"address","name":"","type":"address"}],"stateMutability":"view","type":"function"},{"inputs":[{"internalType":"address","name":"_contract","type":"address"},{"internalType":"bytes4","name":"_sig","type":"bytes4"},{"internalType":"address","name":"_strategy","type":"address"}],"name":"setStrategy","outputs":[],"stateMutability":"nonpayable","type":"function"}],"bytecode":"60a06040523480156200001157600080fd5b5060405162000d4138038062000d41833981016040819052620000349162000289565b6001600160a01b03821660805260005b8151811015620000cd5760006001600160a01b03168282815181106200006e576200006e620003ab565b6020026020010151600001516001600160a01b031603620000b857308282815181106200009f576200009f620003ab565b60209081029190910101516001600160a01b0390911690525b80620000c481620003c1565b91505062000044565b50620000d981620000e1565b5050620003e9565b60005b8151811015620001a957600062000142838381518110620001095762000109620003ab565b6020026020010151600001518484815181106200012a576200012a620003ab565b602002602001015160200151620001ad60201b60201c565b9050828281518110620001595762000159620003ab565b60209081029190910181015160409081015160009384529183905290912080546001600160a01b0319166001600160a01b0390921691909117905580620001a081620003c1565b915050620000e4565b5050565b6040516001600160601b0319606084901b1660208201526001600160e01b03198216603482015260009060380160405160208183030381529060405280519060200120905092915050565b80516001600160a01b03811681146200021057600080fd5b919050565b634e487b7160e01b600052604160045260246000fd5b604051606081016001600160401b038111828210171562000250576200025062000215565b60405290565b604051601f8201601f191681016001600160401b038111828210171562000281576200028162000215565b604052919050565b60008060408084860312156200029e57600080fd5b620002a984620001f8565b602085810151919450906001600160401b0380821115620002c957600080fd5b818701915087601f830112620002de57600080fd5b815181811115620002f357620002f362000215565b62000303848260051b0162000256565b8181528481019250606091820284018501918a8311156200032357600080fd5b938501935b828510156200039a5780858c031215620003425760008081fd5b6200034c6200022b565b6200035786620001f8565b8152858701516001600160e01b031981168114620003755760008081fd5b8188015262000386868901620001f8565b818901528452938401939285019262000328565b508096505050505050509250929050565b634e487b7160e01b600052603260045260246000fd5b600060018201620003e257634e487b7160e01b600052601160045260246000fd5b5060010190565b608051610921620004206000396000818160b901528181610164015281816101a601528181610228015261026a01526109216000f3fe608060405234801561001057600080fd5b50600436106100575760003560e01c80634c2c5c3e1461005c5780634dadd4f41461007157806384e5f12c146100845780638da5cb5b146100b4578063feb52af5146100db575b600080fd5b61006f61006a3660046105b6565b610159565b005b61006f61007f3660046105f9565b61021d565b61009761009236600461066e565b6102f6565b6040516001600160a01b0390911681526020015b60405180910390f35b6100977f000000000000000000000000000000000000000000000000000000000000000081565b6100ee6100e93660046106a1565b610309565b6040516100ab9190600060c08201905067ffffffffffffffff80845116835280602085015116602084015280604085015116604084015250606083015163ffffffff8082166060850152806080860151166080850152505060ff60a08401511660a083015292915050565b336001600160a01b037f000000000000000000000000000000000000000000000000000000000000000016146101d85760405163c55ddc9760e01b81523360048201526001600160a01b037f00000000000000000000000000000000000000000000000000000000000000001660248201526044015b60405180910390fd5b806000806101e68686610400565b815260200190815260200160002060006101000a8154816001600160a01b0302191690836001600160a01b03160217905550505050565b336001600160a01b037f000000000000000000000000000000000000000000000000000000000000000016146102975760405163c55ddc9760e01b81523360048201526001600160a01b037f00000000000000000000000000000000000000000000000000000000000000001660248201526044016101cf565b6102f28282808060200260200160405190810160405280939291908181526020016000905b828210156102e8576102d960608302860136819003810190610724565b815260200190600101906102bc565b5050505050610450565b5050565b60006103028383610503565b9392505050565b6040805160c081018252600080825260208201819052918101829052606081018290526080810182905260a081019190915260006103858561038086868080601f01602080910402602001604051908101604052809392919081815260200183838082843760009201919091525061057192505050565b610503565b604051630c87fa5360e21b81529091506001600160a01b0382169063321fe94c906103b6908790879060040161079e565b60c060405180830381865afa1580156103d3573d6000803e3d6000fd5b505050506040513d601f19601f820116820180604052508101906103f791906107f9565b95945050505050565b6040516bffffffffffffffffffffffff19606084901b1660208201526001600160e01b03198216603482015260009060380160405160208183030381529060405280519060200120905092915050565b60005b81518110156102f25760006104a2838381518110610473576104736108ae565b602002602001015160000151848481518110610491576104916108ae565b602002602001015160200151610400565b90508282815181106104b6576104b66108ae565b60209081029190910181015160409081015160009384529183905290912080546001600160a01b0319166001600160a01b03909216919091179055806104fb816108c4565b915050610453565b6000806000806105138686610400565b81526020810191909152604001600020546001600160a01b03169050806103025760405162461bcd60e51b81526020600482015260126024820152711cdd1c985d1959de481b9bdd08199bdd5b9960721b60448201526064016101cf565b602001516001600160e01b03191690565b80356001600160a01b038116811461059957600080fd5b919050565b80356001600160e01b03198116811461059957600080fd5b6000806000606084860312156105cb57600080fd5b6105d484610582565b92506105e26020850161059e565b91506105f060408501610582565b90509250925092565b6000806020838503121561060c57600080fd5b823567ffffffffffffffff8082111561062457600080fd5b818501915085601f83011261063857600080fd5b81358181111561064757600080fd5b86602060608302850101111561065c57600080fd5b60209290920196919550909350505050565b6000806040838503121561068157600080fd5b61068a83610582565b91506106986020840161059e565b90509250929050565b6000806000604084860312156106b657600080fd5b6106bf84610582565b9250602084013567ffffffffffffffff808211156106dc57600080fd5b818601915086601f8301126106f057600080fd5b8135818111156106ff57600080fd5b87602082850101111561071157600080fd5b6020830194508093505050509250925092565b60006060828403121561073657600080fd5b6040516060810181811067ffffffffffffffff8211171561076757634e487b7160e01b600052604160045260246000fd5b60405261077383610582565b81526107816020840161059e565b602082015261079260408401610582565b60408201529392505050565b60208152816020820152818360408301376000818301604090810191909152601f909201601f19160101919050565b805167ffffffffffffffff8116811461059957600080fd5b805163ffffffff8116811461059957600080fd5b600060c0828403121561080b57600080fd5b60405160c0810181811067ffffffffffffffff8211171561083c57634e487b7160e01b600052604160045260246000fd5b604052610848836107cd565b8152610856602084016107cd565b6020820152610867604084016107cd565b6040820152610878606084016107e5565b6060820152610889608084016107e5565b608082015260a083015160ff811681146108a257600080fd5b60a08201529392505050565b634e487b7160e01b600052603260045260246000fd5b6000600182016108e457634e487b7160e01b600052601160045260246000fd5b506001019056fea2646970667358221220112a7db57d356705638a5ceb0929ef266c14ad2ccd9b19356de903a9850c057464736f6c63430008110033","bytecodeSha1":"275b653a0944a551e9ff2415caa4b2162843bbdd","compiler":{"evm_version":"istanbul","optimizer":{"enabled":true,"runs":200},"version":"0.8.17+commit.8df45f5f"},"contractName":"ActionTierConfig","language":"Solidity","natspec":{"kind":"dev","methods":{},"version":1},"opcodes":"PUSH1 0x80 PUSH1 0x40 MSTORE CALLVALUE DUP1 ISZERO PUSH2 0x10 JUMPI PUSH1 0x0 DUP1 REVERT JUMPDEST POP PUSH1 0x4 CALLDATASIZE LT PUSH2 0x57 JUMPI PUSH1 0x0 CALLDATALOAD PUSH1 0xE0 SHR DUP1 PUSH4 0x4C2C5C3E EQ PUSH2 0x5C JUMPI DUP1 PUSH4 0x4DADD4F4 EQ PUSH2 0x71 JUMPI DUP1 PUSH4 0x84E5F12C EQ PUSH2 0x84 JUMPI DUP1 PUSH4 0x8DA5CB5B EQ PUSH2 0xB4 JUMPI DUP1 PUSH4 0xFEB52AF5 EQ PUSH2 0xDB JUMPI JUMPDEST PUSH1 0x0 DUP1 REVERT JUMPDEST PUSH2 0x6F PUSH2 0x6A CALLDATASIZE PUSH1 0x4 PUSH2 0x5B6 JUMP JUMPDEST PUSH2 0x159 JUMP JUMPDEST STOP JUMPDEST PUSH2 0x6F PUSH2 0x7F CALLDATASIZE PUSH1 0x4 PUSH2 0x5F9 JUMP JUMPDEST PUSH2 0x21D JUMP JUMPDEST PUSH2 0x97 PUSH2 0x92 CALLDATASIZE PUSH1 0x4 PUSH2 0x66E JUMP JUMPDEST PUSH2 0x2F6 JUMP JUMPDEST PUSH1 0x40 MLOAD PUSH1 0x1 PUSH1 0x1 PUSH1 0xA0 SHL SUB SWAP1 SWAP2 AND DUP2 MSTORE PUSH1 0x20 ADD JUMPDEST PUSH1 0x40 MLOAD DUP1 SWAP2 SUB SWAP1 RETURN JUMPDEST PUSH2 0x97 PUSH32 0x0 DUP2 JUMP JUMPDEST PUSH2 0xEE PUSH2 0xE9 CALLDATASIZE PUSH1 0x4 PUSH2 0x6A1 JUMP JUMPDEST PUSH2 0x309 JUMP JUMPDEST PUSH1 0x40 MLOAD PUSH2 0xAB SWAP2 SWAP1 PUSH1 0x0 PUSH1 0xC0 DUP3 ADD SWAP1 POP PUSH8 0xFFFFFFFFFFFFFFFF DUP1 DUP5 MLOAD AND DUP4 MSTORE DUP1 PUSH1 0x20 DUP6 ADD MLOAD AND PUSH1 0x20 DUP5 ADD MSTORE DUP1 PUSH1 0x40 DUP6 ADD MLOAD AND PUSH1 0x40 DUP5 ADD MSTORE POP PUSH1 0x60 DUP4 ADD MLOAD PUSH4 0xFFFFFFFF DUP1 DUP3 AND PUSH1 0x60 DUP6 ADD MSTORE DUP1 PUSH1 0x80 DUP7 ADD MLOAD AND PUSH1 0x80 DUP6 ADD MSTORE POP POP PUSH1 0xFF PUSH1 0xA0 DUP5 ADD MLOAD AND PUSH1 0xA0 DUP4 ADD MSTORE SWAP3 SWAP2 POP POP JUMP JUMPDEST CALLER PUSH1 0x1 PUSH1 0x1 PUSH1 0xA0 SHL SUB PUSH32 0x0 AND EQ PUSH2 0x1D8 JUMPI PUSH1 0x40 MLOAD PUSH4 0xC55DDC97 PUSH1 0xE0 SHL DUP2 MSTORE CALLER PUSH1 0x4 DUP3 ADD MSTORE PUSH1 0x1 PUSH1 0x1 PUSH1 0xA0 SHL SUB PUSH32 0x0 AND PUSH1 0x24 DUP3 ADD MSTORE PUSH1 0x44 ADD JUMPDEST PUSH1 0x40 MLOAD DUP1 SWAP2 SUB SWAP1 REVERT JUMPDEST DUP1 PUSH1 0x0 DUP1 PUSH2 0x1E6 DUP7 DUP7 PUSH2 0x400 JUMP JUMPDEST DUP2 MSTORE PUSH1 0x20 ADD SWAP1 DUP2 MSTORE PUSH1 0x20 ADD PUSH1 0x0 KECCAK256 PUSH1 0x0 PUSH2 0x100 EXP DUP2 SLOAD DUP2 PUSH1 0x1 PUSH1 0x1 PUSH1 0xA0 SHL SUB MUL NOT AND SWAP1 DUP4 PUSH1 0x1 PUSH1 0x1 PUSH1 0xA0 SHL SUB AND MUL OR SWAP1 SSTORE POP POP POP POP JUMP JUMPDEST CALLER PUSH1 0x1 PUSH1 0x1 PUSH1 0xA0 SHL SUB PUSH32 0x0 AND EQ PUSH2 0x297 JUMPI PUSH1 0x40 MLOAD PUSH4 0xC55DDC97 PUSH1 0xE0 SHL DUP2 MSTORE CALLER PUSH1 0x4 DUP3 ADD MSTORE PUSH1 0x1 PUSH1 0x1 PUSH1 0xA0 SHL SUB PUSH32 0x0 AND PUSH1 0x24 DUP3 ADD MSTORE PUSH1 0x44 ADD PUSH2 0x1CF JUMP JUMPDEST PUSH2 0x2F2 DUP3 DUP3 DUP1 DUP1 PUSH1 0x20 MUL PUSH1 0x20 ADD PUSH1 0x40 MLOAD SWAP1 DUP2 ADD PUSH1 0x40 MSTORE DUP1 SWAP4 SWAP3 SWAP2 SWAP1 DUP2 DUP2 MSTORE PUSH1 0x20 ADD PUSH1 0x0 SWAP1 JUMPDEST DUP3 DUP3 LT ISZERO PUSH2 0x2E8 JUMPI PUSH2 0x2D9 PUSH1 0x60 DUP4 MUL DUP7 ADD CALLDATASIZE DUP2 SWAP1 SUB DUP2 ADD SWAP1 PUSH2 0x724 JUMP JUMPDEST DUP2 MSTORE PUSH1 0x20 ADD SWAP1 PUSH1 0x1 ADD SWAP1 PUSH2 0x2BC JUMP JUMPDEST POP POP POP POP POP PUSH2 0x450 JUMP JUMPDEST POP POP JUMP JUMPDEST PUSH1 0x0 PUSH2 0x302 DUP4 DUP4 PUSH2 0x503 JUMP JUMPDEST SWAP4 SWAP3 POP POP POP JUMP JUMPDEST PUSH1 0x40 DUP1 MLOAD PUSH1 0xC0 DUP2 ADD DUP3 MSTORE PUSH1 0x0 DUP1 DUP3 MSTORE PUSH1 0x20 DUP3 ADD DUP2 SWAP1 MSTORE SWAP2 DUP2 ADD DUP3 SWAP1 MSTORE PUSH1 0x60 DUP2 ADD DUP3 SWAP1 MSTORE PUSH1 0x80 DUP2 ADD DUP3 SWAP1 MSTORE PUSH1 0xA0 DUP2 ADD SWAP2 SWAP1 SWAP2 MSTORE PUSH1 0x0 PUSH2 0x385 DUP6 PUSH2 0x380 DUP7 DUP7 DUP1 DUP1 PUSH1 0x1F ADD PUSH1 0x20 DUP1 SWAP2 DIV MUL PUSH1 0x20 ADD PUSH1 0x40 MLOAD SWAP1 DUP2 ADD PUSH1 0x40 MSTORE DUP1 SWAP4 SWAP3 SWAP2 SWAP1 DUP2 DUP2 MSTORE PUSH1 0x20 ADD DUP4 DUP4 DUP1 DUP3 DUP5 CALLDATACOPY PUSH1 0x0 SWAP3 ADD SWAP2 SWAP1 SWAP2 MSTORE POP PUSH2 0x571 SWAP3 POP POP POP JUMP JUMPDEST PUSH2 0x503 JUMP JUMPDEST PUSH1 0x40 MLOAD PUSH4 0xC87FA53 PUSH1 0xE2 SHL DUP2 MSTORE SWAP1 SWAP2 POP PUSH1 0x1 PUSH1 0x1 PUSH1 0xA0 SHL SUB DUP3 AND SWAP1 PUSH4 0x321FE94C SWAP1 PUSH2 0x3B6 SWAP1 DUP8 SWAP1 DUP8 SWAP1 PUSH1 0x4 ADD PUSH2 0x79E JUMP JUMPDEST PUSH1 0xC0 PUSH1 0x40 MLOAD DUP1 DUP4 SUB DUP2 DUP7 GAS STATICCALL ISZERO DUP1 ISZERO PUSH2 0x3D3 JUMPI RETURNDATASIZE PUSH1 0x0 DUP1 RETURNDATACOPY RETURNDATASIZE PUSH1 0x0 REVERT JUMPDEST POP POP POP POP PUSH1 0x40 MLOAD RETURNDATASIZE PUSH1 0x1F NOT PUSH1 0x1F DUP3 ADD AND DUP3 ADD DUP1 PUSH1 0x40 MSTORE POP DUP2 ADD SWAP1 PUSH2 0x3F7 SWAP2 SWAP1 PUSH2 0x7F9 JUMP JUMPDEST SWAP6 SWAP5 POP POP POP POP POP JUMP JUMPDEST PUSH1 0x40 MLOAD PUSH12 0xFFFFFFFFFFFFFFFFFFFFFFFF NOT PUSH1 0x60 DUP5 SWAP1 SHL AND PUSH1 0x20 DUP3 ADD MSTORE PUSH1 0x1 PUSH1 0x1 PUSH1 0xE0 SHL SUB NOT DUP3 AND PUSH1 0x34 DUP3 ADD MSTORE PUSH1 0x0 SWAP1 PUSH1 0x38 ADD PUSH1 0x40 MLOAD PUSH1 0x20 DUP2 DUP4 SUB SUB DUP2 MSTORE SWAP1 PUSH1 0x40 MSTORE DUP1 MLOAD SWAP1 PUSH1 0x20 ADD KECCAK256 SWAP1 POP SWAP3 SWAP2 POP POP JUMP JUMPDEST PUSH1 0x0 JUMPDEST DUP2 MLOAD DUP2 LT ISZERO PUSH2 0x2F2 JUMPI PUSH1 0x0 PUSH2 0x4A2 DUP4 DUP4 DUP2 MLOAD DUP2 LT PUSH2 0x473 JUMPI PUSH2 0x473 PUSH2 0x8AE JUMP JUMPDEST PUSH1 0x20 MUL PUSH1 0x20 ADD ADD MLOAD PUSH1 0x0 ADD MLOAD DUP5 DUP5 DUP2 MLOAD DUP2 LT PUSH2 0x491 JUMPI PUSH2 0x491 PUSH2 0x8AE JUMP JUMPDEST PUSH1 0x20 MUL PUSH1 0x20 ADD ADD MLOAD PUSH1 0x20 ADD MLOAD PUSH2 0x400 JUMP JUMPDEST SWAP1 POP DUP3 DUP3 DUP2 MLOAD DUP2 LT PUSH2 0x4B6 JUMPI PUSH2 0x4B6 PUSH2 0x8AE JUMP JUMPDEST PUSH1 0x20 SWAP1 DUP2 MUL SWAP2 SWAP1 SWAP2 ADD DUP2 ADD MLOAD PUSH1 0x40 SWAP1 DUP2 ADD MLOAD PUSH1 0x0 SWAP4 DUP5 MSTORE SWAP2 DUP4 SWAP1 MSTORE SWAP1 SWAP2 KECCAK256 DUP1 SLOAD PUSH1 0x1 PUSH1 0x1 PUSH1 0xA0 SHL SUB NOT AND PUSH1 0x1 PUSH1 0x1 PUSH1 0xA0 SHL SUB SWAP1 SWAP3 AND SWAP2 SWAP1 SWAP2 OR SWAP1 SSTORE DUP1 PUSH2 0x4FB DUP2 PUSH2 0x8C4 JUMP JUMPDEST SWAP2 POP POP PUSH2 0x453 JUMP JUMPDEST PUSH1 0x0 DUP1 PUSH1 0x0 DUP1 PUSH2 0x513 DUP7 DUP7 PUSH2 0x400 JUMP JUMPDEST DUP2 MSTORE PUSH1 0x20 DUP2 ADD SWAP2 SWAP1 SWAP2 MSTORE PUSH1 0x40 ADD PUSH1 0x0 KECCAK256 SLOAD PUSH1 0x1 PUSH1 0x1 PUSH1 0xA0 SHL SUB AND SWAP1 POP DUP1 PUSH2 0x302 JUMPI PUSH1 0x40 MLOAD PUSH3 0x461BCD PUSH1 0xE5 SHL DUP2 MSTORE PUSH1 0x20 PUSH1 0x4 DUP3 ADD MSTORE PUSH1 0x12 PUSH1 0x24 DUP3 ADD MSTORE PUSH18 0x1CDD1C985D1959DE481B9BDD08199BDD5B99 PUSH1 0x72 SHL PUSH1 0x44 DUP3 ADD MSTORE PUSH1 0x64 ADD PUSH2 0x1CF JUMP JUMPDEST PUSH1 0x20 ADD MLOAD PUSH1 0x1 PUSH1 0x1 PUSH1 0xE0 SHL SUB NOT AND SWAP1 JUMP JUMPDEST DUP1 CALLDATALOAD PUSH1 0x1 PUSH1 0x1 PUSH1 0xA0 SHL SUB DUP2 AND DUP2 EQ PUSH2 0x599 JUMPI PUSH1 0x0 DUP1 REVERT JUMPDEST SWAP2 SWAP1 POP JUMP JUMPDEST DUP1 CALLDATALOAD PUSH1 0x1 PUSH1 0x1 PUSH1 0xE0 SHL SUB NOT DUP2 AND DUP2 EQ PUSH2 0x599 JUMPI PUSH1 0x0 DUP1 REVERT JUMPDEST PUSH1 0x0 DUP1 PUSH1 0x0 PUSH1 0x60 DUP5 DUP7 SUB SLT ISZERO PUSH2 0x5CB JUMPI PUSH1 0x0 DUP1 REVERT JUMPDEST PUSH2 0x5D4 DUP5 PUSH2 0x582 JUMP JUMPDEST SWAP3 POP PUSH2 0x5E2 PUSH1 0x20 DUP6 ADD PUSH2 0x59E JUMP JUMPDEST SWAP2 POP PUSH2 0x5F0 PUSH1 0x40 DUP6 ADD PUSH2 0x582 JUMP JUMPDEST SWAP1 POP SWAP3 POP SWAP3 POP SWAP3 JUMP JUMPDEST PUSH1 0x0 DUP1 PUSH1 0x20 DUP4 DUP6 SUB SLT ISZERO PUSH2 0x60C JUMPI PUSH1 0x0 DUP1 REVERT JUMPDEST DUP3 CALLDATALOAD PUSH8 0xFFFFFFFFFFFFFFFF DUP1 DUP3 GT ISZERO PUSH2 0x624 JUMPI PUSH1 0x0 DUP1 REVERT JUMPDEST DUP2 DUP6 ADD SWAP2 POP DUP6 PUSH1 0x1F DUP4 ADD SLT PUSH2 0x638 JUMPI PUSH1 0x0 DUP1 REVERT JUMPDEST DUP2 CALLDATALOAD DUP2 DUP2 GT ISZERO PUSH2 0x647 JUMPI PUSH1 0x0 DUP1 REVERT JUMPDEST DUP7 PUSH1 0x20 PUSH1 0x60 DUP4 MUL DUP6 ADD ADD GT ISZERO PUSH2 0x65C JUMPI PUSH1 0x0 DUP1 REVERT JUMPDEST PUSH1 0x20 SWAP3 SWAP1 SWAP3 ADD SWAP7 SWAP2 SWAP6 POP SWAP1 SWAP4 POP POP POP POP JUMP JUMPDEST PUSH1 0x0 DUP1 PUSH1 0x40 DUP4 DUP6 SUB SLT ISZERO PUSH2 0x681 JUMPI PUSH1 0x0 DUP1 REVERT JUMPDEST PUSH2 0x68A DUP4 PUSH2 0x582 JUMP JUMPDEST SWAP2 POP PUSH2 0x698 PUSH1 0x20 DUP5 ADD PUSH2 0x59E JUMP JUMPDEST SWAP1 POP SWAP3 POP SWAP3 SWAP1 POP JUMP JUMPDEST PUSH1 0x0 DUP1 PUSH1 0x0 PUSH1 0x40 DUP5 DUP7 SUB SLT ISZERO PUSH2 0x6B6 JUMPI PUSH1 0x0 DUP1 REVERT JUMPDEST PUSH2 0x6BF DUP5 PUSH2 0x582 JUMP JUMPDEST SWAP3 POP PUSH1 0x20 DUP5 ADD CALLDATALOAD PUSH8 0xFFFFFFFFFFFFFFFF DUP1 DUP3 GT ISZERO PUSH2 0x6DC JUMPI PUSH1 0x0 DUP1 REVERT JUMPDEST DUP2 DUP7 ADD SWAP2 POP DUP7 PUSH1 0x1F DUP4 ADD SLT PUSH2 0x6F0 JUMPI PUSH1 0x0 DUP1 REVERT JUMPDEST DUP2 CALLDATALOAD DUP2 DUP2 GT ISZERO PUSH2 0x6FF JUMPI PUSH1 0x0 DUP1 REVERT JUMPDEST DUP8 PUSH1 0x20 DUP3 DUP6 ADD ADD GT ISZERO PUSH2 0x711 JUMPI PUSH1 0x0 DUP1 REVERT JUMPDEST PUSH1 0x20 DUP4 ADD SWAP5 POP DUP1 SWAP4 POP POP POP POP SWAP3 POP SWAP3 POP SWAP3 JUMP JUMPDEST PUSH1 0x0 PUSH1 0x60 DUP3 DUP5 SUB SLT ISZERO PUSH2 0x736 JUMPI PUSH1 0x0 DUP1 REVERT JUMPDEST PUSH1 0x40 MLOAD PUSH1 0x60 DUP2 ADD DUP2 DUP2 LT PUSH8 0xFFFFFFFFFFFFFFFF DUP3 GT OR ISZERO PUSH2 0x767 JUMPI PUSH4 0x4E487B71 PUSH1 0xE0 SHL PUSH1 0x0 MSTORE PUSH1 0x41 PUSH1 0x4 MSTORE PUSH1 0x24 PUSH1 0x0 REVERT JUMPDEST PUSH1 0x40 MSTORE PUSH2 0x773 DUP4 PUSH2 0x582 JUMP JUMPDEST DUP2 MSTORE PUSH2 0x781 PUSH1 0x20 DUP5 ADD PUSH2 0x59E JUMP JUMPDEST PUSH1 0x20 DUP3 ADD MSTORE PUSH2 0x792 PUSH1 0x40 DUP5 ADD PUSH2 0x582 JUMP JUMPDEST PUSH1 0x40 DUP3 ADD MSTORE SWAP4 SWAP3 POP POP POP JUMP JUMPDEST PUSH1 0x20 DUP2 MSTORE DUP2 PUSH1 0x20 DUP3 ADD MSTORE DUP2 DUP4 PUSH1 0x40 DUP4 ADD CALLDATACOPY PUSH1 0x0 DUP2 DUP4 ADD PUSH1 0x40 SWAP1 DUP2 ADD SWAP2 SWAP1 SWAP2 MSTORE PUSH1 0x1F SWAP1 SWAP3 ADD PUSH1 0x1F NOT AND ADD ADD SWAP2 SWAP1 POP JUMP JUMPDEST DUP1 MLOAD PUSH8 0xFFFFFFFFFFFFFFFF DUP2 AND DUP2 EQ PUSH2 0x599 JUMPI PUSH1 0x0 DUP1 REVERT JUMPDEST DUP1 MLOAD PUSH4 0xFFFFFFFF DUP2 AND DUP2 EQ PUSH2 0x599 JUMPI PUSH1 0x0 DUP1 REVERT JUMPDEST PUSH1 0x0 PUSH1 0xC0 DUP3 DUP5 SUB SLT ISZERO PUSH2 0x80B JUMPI PUSH1 0x0 DUP1 REVERT JUMPDEST PUSH1 0x40 MLOAD PUSH1 0xC0 DUP2 ADD DUP2 DUP2 LT PUSH8 0xFFFFFFFFFFFFFFFF DUP3 GT OR ISZERO PUSH2 0x83C JUMPI PUSH4 0x4E487B71 PUSH1 0xE0 SHL PUSH1 0x0 MSTORE PUSH1 0x41 PUSH1 0x4 MSTORE PUSH1 0x24 PUSH1 0x0 REVERT JUMPDEST PUSH1 0x40 MSTORE PUSH2 0x848 DUP4 PUSH2 0x7CD JUMP JUMPDEST DUP2 MSTORE PUSH2 0x856 PUSH1 0x20 DUP5 ADD PUSH2 0x7CD JUMP JUMPDEST PUSH1 0x20 DUP3 ADD MSTORE PUSH2 0x867 PUSH1 0x40 DUP5 ADD PUSH2 0x7CD JUMP JUMPDEST PUSH1 0x40 DUP3 ADD MSTORE PUSH2 0x878 PUSH1 0x60 DUP5 ADD PUSH2 0x7E5 JUMP JUMPDEST PUSH1 0x60 DUP3 ADD MSTORE PUSH2 0x889 PUSH1 0x80 DUP5 ADD PUSH2 0x7E5 JUMP JUMPDEST PUSH1 0x80 DUP3 ADD MSTORE PUSH1 0xA0 DUP4 ADD MLOAD PUSH1 0xFF DUP2 AND DUP2 EQ PUSH2 0x8A2 JUMPI PUSH1 0x0 DUP1 REVERT JUMPDEST PUSH1 0xA0 DUP3 ADD MSTORE SWAP4 SWAP3 POP POP POP JUMP JUMPDEST PUSH4 0x4E487B71 PUSH1 0xE0 SHL PUSH1 0x0 MSTORE PUSH1 0x32 PUSH1 0x4 MSTORE PUSH1 0x24 PUSH1 0x0 REVERT JUMPDEST PUSH1 0x0 PUSH1 0x1 DUP3 ADD PUSH2 0x8E4 JUMPI PUSH4 0x4E487B71 PUSH1 0xE0 SHL PUSH1 0x0 MSTORE PUSH1 0x11 PUSH1 0x4 MSTORE PUSH1 0x24 PUSH1 0x0 REVERT JUMPDEST POP PUSH1 0x1 ADD SWAP1 JUMP INVALID LOG2 PUSH5 0x6970667358 0x22 SLT KECCAK256 GT 0x2A PUSH30 0xB57D356705638A5CEB0929EF266C14AD2CCD9B19356DE903A9850C057464 PUSH20 0x6F6C634300081100330000000000000000000000 ","sha1":"c0ebc15c8fd491b0bb2b232e40cb0fa15d05071b","source":"// SPDX-License-Identifier: UNLICENSED\npragma solidity ^0.8.17;\n\nimport \"./access/ImmutableOwner.sol\";\nimport \"../libraries/DataTypes.sol\";\nimport \"../interfaces/ITierer.sol\";\nimport \"../interfaces/ITierStrategy.sol\";\n\ncontract ActionTierConfig is ImmutableOwner, ITierer {\n    mapping(bytes32 => ITierStrategy) internal _tierStrategies;\n\n    constructor(\n        address _owner,\n        StrategyConfig[] memory configs\n    ) ImmutableOwner(_owner) {\n        // special case to allow to initialize the contract with itself\n        // without knowing the address\n        for (uint256 i; i < configs.length; i++) {\n            if (configs[i]._contract == address(0)) {\n                configs[i]._contract = address(this);\n            }\n        }\n\n        _batchSetStrategy(configs);\n    }\n\n    struct StrategyConfig {\n        address _contract;\n        bytes4 _sig;\n        address _strategy;\n    }\n\n    function _ruleKey(\n        address _contract,\n        bytes4 _sig\n    ) internal pure returns (bytes32) {\n        return keccak256(abi.encodePacked(_contract, _sig));\n    }\n\n    function setStrategy(\n        address _contract,\n        bytes4 _sig,\n        address _strategy\n    ) external onlyOwner {\n        _tierStrategies[_ruleKey(_contract, _sig)] = ITierStrategy(_strategy);\n    }\n\n    function batchSetStrategy(\n        StrategyConfig[] calldata configs\n    ) external onlyOwner {\n        _batchSetStrategy(configs);\n    }\n\n    function _batchSetStrategy(StrategyConfig[] memory configs) internal {\n        for (uint256 i; i < configs.length; i++) {\n            bytes32 ruleKey = _ruleKey(configs[i]._contract, configs[i]._sig);\n            _tierStrategies[ruleKey] = ITierStrategy(configs[i]._strategy);\n        }\n    }\n\n    function getStrategy(\n        address _contract,\n        bytes4 _sig\n    ) external view returns (address) {\n        return address(_getStrategy(_contract, _sig));\n    }\n\n    function _getStrategy(\n        address _contract,\n        bytes4 _sig\n    ) internal view returns (ITierStrategy) {\n        ITierStrategy s = _tierStrategies[_ruleKey(_contract, _sig)];\n        require(address(s) != address(0), \"strategy not found\");\n        return s;\n    }\n\n    function getTier(\n        address _contract,\n        bytes calldata _calldata\n    ) external view returns (DataTypes.Tier memory) {\n        ITierStrategy strategy = _getStrategy(\n            _contract,\n            _getSelector(_calldata)\n        );\n        return strategy.getTier(_calldata);\n    }\n\n    function _getSelector(\n        bytes memory _calldata\n    ) internal pure returns (bytes4 out) {\n        assembly {\n            out := and(\n                mload(add(_calldata, 32)),\n                0xFFFFFFFF00000000000000000000000000000000000000000000000000000000\n            )\n        }\n    }\n}\n","sourcePath":"contracts/ActionTierConfig.sol","type":"contract","deployment":{"address":"0x846c3771f76B4be22CD8875e31c34C3418CDE194","chainid":"137","blockHeight":43678278}}