{"abi":[{"inputs":[{"internalType":"contract IVotingPowerAggregator","name":"_votingPowerAggregator","type":"address"},{"internalType":"contract ITierer","name":"_tierer","type":"address"},{"internalType":"contract IWrappedERC20WithEMA","name":"_wGYD","type":"address"}],"stateMutability":"nonpayable","type":"constructor","name":"constructor"},{"anonymous":false,"inputs":[{"indexed":false,"internalType":"uint8","name":"version","type":"uint8"}],"name":"Initialized","type":"event"},{"anonymous":false,"inputs":[{"indexed":true,"internalType":"uint24","name":"id","type":"uint24"},{"indexed":false,"internalType":"address","name":"proposer","type":"address"},{"components":[{"internalType":"address","name":"target","type":"address"},{"internalType":"bytes","name":"data","type":"bytes"}],"indexed":false,"internalType":"struct DataTypes.ProposalAction[]","name":"actions","type":"tuple[]"}],"name":"ProposalCreated","type":"event"},{"anonymous":false,"inputs":[{"indexed":true,"internalType":"uint24","name":"proposalId","type":"uint24"}],"name":"ProposalExecuted","type":"event"},{"anonymous":false,"inputs":[{"indexed":true,"internalType":"uint24","name":"proposalId","type":"uint24"},{"indexed":false,"internalType":"enum DataTypes.Status","name":"status","type":"uint8"},{"indexed":false,"internalType":"enum DataTypes.ProposalOutcome","name":"outcome","type":"uint8"}],"name":"ProposalTallied","type":"event"},{"anonymous":false,"inputs":[{"indexed":true,"internalType":"uint24","name":"proposalId","type":"uint24"},{"indexed":false,"internalType":"address","name":"voter","type":"address"},{"indexed":false,"internalType":"enum DataTypes.Ballot","name":"vote","type":"uint8"},{"components":[{"internalType":"address","name":"vaultAddress","type":"address"},{"internalType":"uint256","name":"votingPower","type":"uint256"}],"indexed":false,"internalType":"struct DataTypes.VaultVotingPower[]","name":"votingPower","type":"tuple[]"},{"components":[{"components":[{"internalType":"address","name":"vaultAddress","type":"address"},{"internalType":"uint256","name":"votingPower","type":"uint256"}],"internalType":"struct DataTypes.VaultVotingPower[]","name":"_for","type":"tuple[]"},{"components":[{"internalType":"address","name":"vaultAddress","type":"address"},{"internalType":"uint256","name":"votingPower","type":"uint256"}],"internalType":"struct DataTypes.VaultVotingPower[]","name":"against","type":"tuple[]"},{"components":[{"internalType":"address","name":"vaultAddress","type":"address"},{"internalType":"uint256","name":"votingPower","type":"uint256"}],"internalType":"struct DataTypes.VaultVotingPower[]","name":"abstentions","type":"tuple[]"}],"indexed":false,"internalType":"struct DataTypes.VoteTotals","name":"voteTotals","type":"tuple"}],"name":"VoteCast","type":"event"},{"inputs":[{"components":[{"internalType":"address","name":"target","type":"address"},{"internalType":"bytes","name":"data","type":"bytes"}],"internalType":"struct DataTypes.ProposalAction[]","name":"actions","type":"tuple[]"}],"name":"createProposal","outputs":[],"stateMutability":"nonpayable","type":"function"},{"inputs":[{"internalType":"uint24","name":"proposalId","type":"uint24"}],"name":"executeProposal","outputs":[],"stateMutability":"nonpayable","type":"function"},{"inputs":[{"internalType":"address","name":"voter","type":"address"},{"internalType":"uint24","name":"proposalId","type":"uint24"}],"name":"getBallot","outputs":[{"internalType":"enum DataTypes.Ballot","name":"","type":"uint8"}],"stateMutability":"view","type":"function"},{"inputs":[{"internalType":"uint24","name":"proposalId","type":"uint24"}],"name":"getCurrentPercentages","outputs":[{"internalType":"uint256","name":"for_","type":"uint256"},{"internalType":"uint256","name":"against","type":"uint256"},{"internalType":"uint256","name":"abstain","type":"uint256"}],"stateMutability":"view","type":"function"},{"inputs":[{"internalType":"uint24","name":"proposalId","type":"uint24"}],"name":"getVoteTotals","outputs":[{"components":[{"components":[{"internalType":"address","name":"vaultAddress","type":"address"},{"internalType":"uint256","name":"votingPower","type":"uint256"}],"internalType":"struct DataTypes.VaultVotingPower[]","name":"_for","type":"tuple[]"},{"components":[{"internalType":"address","name":"vaultAddress","type":"address"},{"internalType":"uint256","name":"votingPower","type":"uint256"}],"internalType":"struct DataTypes.VaultVotingPower[]","name":"against","type":"tuple[]"},{"components":[{"internalType":"address","name":"vaultAddress","type":"address"},{"internalType":"uint256","name":"votingPower","type":"uint256"}],"internalType":"struct DataTypes.VaultVotingPower[]","name":"abstentions","type":"tuple[]"}],"internalType":"struct DataTypes.VoteTotals","name":"","type":"tuple"}],"stateMutability":"view","type":"function"},{"inputs":[{"components":[{"internalType":"uint8","name":"actionLevelThreshold","type":"uint8"},{"internalType":"uint256","name":"emaThreshold","type":"uint256"},{"internalType":"contract ITierStrategy","name":"tierStrategy","type":"address"}],"internalType":"struct DataTypes.LimitUpgradeabilityParameters","name":"_params","type":"tuple"}],"name":"initialize","outputs":[],"stateMutability":"nonpayable","type":"function"},{"inputs":[],"name":"limitUpgradeabilityParams","outputs":[{"internalType":"uint8","name":"actionLevelThreshold","type":"uint8"},{"internalType":"uint256","name":"emaThreshold","type":"uint256"},{"internalType":"contract ITierStrategy","name":"tierStrategy","type":"address"}],"stateMutability":"view","type":"function"},{"inputs":[],"name":"listActiveProposals","outputs":[{"components":[{"internalType":"uint64","name":"createdAt","type":"uint64"},{"internalType":"uint64","name":"executableAt","type":"uint64"},{"internalType":"uint64","name":"votingEndsAt","type":"uint64"},{"internalType":"uint64","name":"voteThreshold","type":"uint64"},{"internalType":"uint64","name":"quorum","type":"uint64"},{"internalType":"uint24","name":"id","type":"uint24"},{"internalType":"address","name":"proposer","type":"address"},{"internalType":"enum DataTypes.Status","name":"status","type":"uint8"},{"components":[{"internalType":"address","name":"target","type":"address"},{"internalType":"bytes","name":"data","type":"bytes"}],"internalType":"struct DataTypes.ProposalAction[]","name":"actions","type":"tuple[]"}],"internalType":"struct DataTypes.Proposal[]","name":"","type":"tuple[]"}],"stateMutability":"view","type":"function"},{"inputs":[],"name":"listTimelockedProposals","outputs":[{"components":[{"internalType":"uint64","name":"createdAt","type":"uint64"},{"internalType":"uint64","name":"executableAt","type":"uint64"},{"internalType":"uint64","name":"votingEndsAt","type":"uint64"},{"internalType":"uint64","name":"voteThreshold","type":"uint64"},{"internalType":"uint64","name":"quorum","type":"uint64"},{"internalType":"uint24","name":"id","type":"uint24"},{"internalType":"address","name":"proposer","type":"address"},{"internalType":"enum DataTypes.Status","name":"status","type":"uint8"},{"components":[{"internalType":"address","name":"target","type":"address"},{"internalType":"bytes","name":"data","type":"bytes"}],"internalType":"struct DataTypes.ProposalAction[]","name":"actions","type":"tuple[]"}],"internalType":"struct DataTypes.Proposal[]","name":"","type":"tuple[]"}],"stateMutability":"view","type":"function"},{"inputs":[],"name":"proposalsCount","outputs":[{"internalType":"uint24","name":"","type":"uint24"}],"stateMutability":"view","type":"function"},{"inputs":[{"internalType":"uint24","name":"proposalId","type":"uint24"}],"name":"tallyVote","outputs":[],"stateMutability":"nonpayable","type":"function"},{"inputs":[],"name":"tierer","outputs":[{"internalType":"contract ITierer","name":"","type":"address"}],"stateMutability":"view","type":"function"},{"inputs":[{"internalType":"uint24","name":"proposalId","type":"uint24"},{"internalType":"enum DataTypes.Ballot","name":"ballot","type":"uint8"}],"name":"vote","outputs":[],"stateMutability":"nonpayable","type":"function"},{"inputs":[],"name":"votingPowerAggregator","outputs":[{"internalType":"contract IVotingPowerAggregator","name":"","type":"address"}],"stateMutability":"view","type":"function"},{"inputs":[],"name":"wGYD","outputs":[{"internalType":"contract IWrappedERC20WithEMA","name":"","type":"address"}],"stateMutability":"view","type":"function"}],"bytecode":"60e06040523480156200001157600080fd5b50604051620033573803806200335783398101604081905262000034916200006b565b6001600160a01b0392831660805290821660a0521660c052620000bf565b6001600160a01b03811681146200006857600080fd5b50565b6000806000606084860312156200008157600080fd5b83516200008e8162000052565b6020850151909350620000a18162000052565b6040850151909250620000b48162000052565b809150509250925092565b60805160a05160c05161323762000120600039600081816101c10152610edf01526000818161018201528181610d000152610d87015260008181610216015281816104d601528181611000015281816110a801526113a301526132376000f3fe608060405234801561001057600080fd5b50600436106100f55760003560e01c80638d6e004a11610097578063cc7d76ce11610066578063cc7d76ce14610293578063ceab5253146102a6578063d2f5a21a146102f3578063e14ff1081461030657600080fd5b80638d6e004a146101e3578063c1ab52cd14610211578063c36a4ad214610238578063c3955c7b1461027e57600080fd5b8063438599d6116100d3578063438599d61461014a5780634ba0dc041461016a578063595d53c31461017d5780636ff3bb4d146101bc57600080fd5b80630a9f46ad146100fa57806321e4c3011461012257806328f46f1414610137575b600080fd5b6004546101099062ffffff1681565b60405162ffffff90911681526020015b60405180910390f35b610135610130366004612453565b61030e565b005b610135610145366004612545565b6107cf565b61015d6101583660046125ad565b61091a565b604051610119919061266b565b6101356101783660046125ad565b610961565b6101a47f000000000000000000000000000000000000000000000000000000000000000081565b6040516001600160a01b039091168152602001610119565b6101a47f000000000000000000000000000000000000000000000000000000000000000081565b6101f66101f13660046125ad565b610bdd565b60408051938452602084019290925290820152606001610119565b6101a47f000000000000000000000000000000000000000000000000000000000000000081565b6001546002546003546102569260ff1691906001600160a01b031683565b6040805160ff909416845260208401929092526001600160a01b031690820152606001610119565b610286610c35565b604051610119919061276a565b6101356102a1366004612856565b610c4e565b6102e66102b43660046128ca565b6001600160a01b0382166000908152600b6020908152604080832062ffffff8516845290915290205460ff1692915050565b604051610119919061290f565b6101356103013660046125ad565b6114e6565b6102866117d8565b62ffffff82166000908152600960205260408120805490916001600160401b0390911690036103585760405162461bcd60e51b815260040161034f90612922565b60405180910390fd5b80546001600160401b03428116600160801b90920416116103c55760405162461bcd60e51b815260206004820152602160248201527f766f74696e6720697320636c6f736564206f6e20746869732070726f706f73616044820152601b60fa1b606482015260840161034f565b60008260038111156103d9576103d961267e565b0361043b5760405162461bcd60e51b815260206004820152602c60248201527f62616c6c6f74206d757374206265206361737420464f522c20414741494e535460448201526b161037b91020a129aa20a4a760a11b606482015260840161034f565b62ffffff83166000908152600a6020908152604080832080548251818502810185019093528083529192909190849084015b828210156104c2576000848152602090819020604080516060810182526003860290920180546001600160a01b031683526001808201548486015260029091015491830191909152908352909201910161046d565b505084549293506000926001600160a01b037f000000000000000000000000000000000000000000000000000000000000000016925063a10202fc915033906001600160401b0316610513866117e7565b6040518463ffffffff1660e01b815260040161053193929190612959565b600060405180830381865afa15801561054e573d6000803e3d6000fd5b505050506040513d6000823e601f3d908101601f1916820160405261057691908101906129e6565b336000908152600b6020908152604080832062ffffff8a168452909152812091925080825460ff1660038111156105af576105af61267e565b14905060005b83518110156107455760008482815181106105d2576105d2612a9e565b60200260200101519050826106be57805162ffffff8a166000908152600c602052604081208654919261064592909190849060ff1660038111156106185761061861267e565b60038111156106295761062961267e565b815260200190815260200160002061189f90919063ffffffff16565b9150506106bb82600001518360200151836106609190612aca565b62ffffff8d166000908152600c60205260408120895490919060ff16600381111561068d5761068d61267e565b600381111561069e5761069e61267e565b81526020019081526020016000206118c69092919063ffffffff16565b50505b805162ffffff8a166000908152600c6020526040812090916106ed91838c60038111156106185761061861267e565b91505061072f82600001518360200151836107089190612add565b62ffffff8d166000908152600c60205260408120908d600381111561068d5761068d61267e565b505050808061073d90612af0565b9150506105b5565b5081548690839060ff191660018360038111156107645761076461267e565b021790555062ffffff87166000818152600c602052604090207fc946bfb55e78699f70cadfad1633e797eceb5614af062f3298f377df861203c8903390899087906107ae906118e4565b6040516107be9493929190612b09565b60405180910390a250505050505050565b600054610100900460ff16158080156107ef5750600054600160ff909116105b806108095750303b158015610809575060005460ff166001145b61086c5760405162461bcd60e51b815260206004820152602e60248201527f496e697469616c697a61626c653a20636f6e747261637420697320616c72656160448201526d191e481a5b9a5d1a585b1a5e995960921b606482015260840161034f565b6000805460ff19166001179055801561088f576000805461ff0019166101001790555b81516001805460ff191660ff90921691909117905560208201516002556040820151600380546001600160a01b0319166001600160a01b039092169190911790558015610916576000805461ff0019169055604051600181527f7f26b83ff96e1f2b6a682f133852f6798a09c465da95921460cefb38474024989060200160405180910390a15b5050565b61093e60405180606001604052806060815260200160608152602001606081525090565b62ffffff82166000908152600c6020526040902061095b906118e4565b92915050565b62ffffff8116600090815260096020526040902080546001600160401b031661099c5760405162461bcd60e51b815260040161034f90612922565b6109b560076001600160e81b031960e885901b16611981565b80156109d6575080546001600160401b03600160401b909104811642909116115b610a375760405162461bcd60e51b815260206004820152602c60248201527f70726f706f73616c206d7573742062652071756575656420616e64207265616460448201526b7920746f206578656375746560a01b606482015260840161034f565b60005b6002820154811015610b7757610b64826002018281548110610a5e57610a5e612a9e565b90600052602060002090600202016001018054610a7a90612b4c565b80601f0160208091040260200160405190810160405280929190818152602001828054610aa690612b4c565b8015610af35780601f10610ac857610100808354040283529160200191610af3565b820191906000526020600020905b815481529060010190602001808311610ad657829003601f168201915b50505050506040518060400160405280601981526020017f70726f706f73616c20657865637574696f6e206661696c656400000000000000815250846002018481548110610b4357610b43612a9e565b60009182526020909120600290910201546001600160a01b0316919061199c565b5080610b6f81612af0565b915050610a3a565b506001810180546001600160f81b0316600160fa1b179055610ba860076001600160e81b031960e885901b166119ab565b5060405162ffffff8316907f934e084a11f01168de309f3226f7b0af3360b809c501b627ab68604371c5fd7c90600090a25050565b62ffffff811660009081526009602052604081208054829182916001600160401b03168203610c1e5760405162461bcd60e51b815260040161034f90612922565b610c27816119b7565b935093509350509193909250565b6060610c49610c446007611ad3565b611ae0565b905090565b80610cac5760405162461bcd60e51b815260206004820152602860248201527f63616e6e6f742063726561746520612070726f706f73616c2077697468206e6f60448201526720616374696f6e7360c01b606482015260840161034f565b600082826000818110610cc157610cc1612a9e565b9050602002810190610cd39190612b86565b610cdc90612ba6565b8051602082015160405163feb52af560e01b81529293506000926001600160a01b037f0000000000000000000000000000000000000000000000000000000000000000169263feb52af592610d3392600401612c53565b60c0604051808303816000875af1158015610d52573d6000803e3d6000fd5b505050506040513d601f19601f82011682018060405250810190610d769190612ca2565b905060015b83811015610ed75760007f00000000000000000000000000000000000000000000000000000000000000006001600160a01b031663feb52af5878785818110610dc657610dc6612a9e565b9050602002810190610dd89190612b86565b610de6906020810190612d42565b888886818110610df857610df8612a9e565b9050602002810190610e0a9190612b86565b610e18906020810190612d5f565b6040518463ffffffff1660e01b8152600401610e3693929190612dce565b60c0604051808303816000875af1158015610e55573d6000803e3d6000fd5b505050506040513d601f19601f82011682018060405250810190610e799190612ca2565b90508260a0015160ff168160a0015160ff161115610ec457858583818110610ea357610ea3612a9e565b9050602002810190610eb59190612b86565b610ebe90612ba6565b93508092505b5080610ecf81612af0565b915050610d7b565b5060018001547f00000000000000000000000000000000000000000000000000000000000000006001600160a01b03166355c31b3a6040518163ffffffff1660e01b8152600401602060405180830381865afa158015610f3b573d6000803e3d6000fd5b505050506040513d601f19601f82011682018060405250810190610f5f9190612df3565b118015610f78575060015460a082015160ff9182169116115b15610ff4576003546020830151604051630c87fa5360e21b81526001600160a01b039092169163321fe94c91610fb091600401612e0c565b60c060405180830381865afa158015610fcd573d6000803e3d6000fd5b505050506040513d601f19601f82011682018060405250810190610ff19190612ca2565b90505b60006001600160a01b037f000000000000000000000000000000000000000000000000000000000000000016638ff400f433611031600142612aca565b6040516001600160e01b031960e085901b1681526001600160a01b0390921660048301526024820152604401600060405180830381865afa15801561107a573d6000803e3d6000fd5b505050506040513d6000823e601f3d908101601f191682016040526110a291908101906129e6565b905060007f00000000000000000000000000000000000000000000000000000000000000006001600160a01b0316633bef7abb836040518263ffffffff1660e01b81526004016110f29190612e1f565b602060405180830381865afa15801561110f573d6000803e3d6000fd5b505050506040513d601f19601f820116820180604052508101906111339190612df3565b905082602001516001600160401b031681116111b9576040805162461bcd60e51b81526020600482015260248101919091527f70726f706f73657220646f65736e2774206861766520656e6f75676820766f7460448201527f696e6720706f77657220746f2070726f706f7365207468697320616374696f6e606482015260840161034f565b608083015142906000906111d39063ffffffff1683612e32565b90506000856060015163ffffffff16826111ed9190612e32565b60045462ffffff1660008181526009602052604090206001808201805468010000000000000000600160f81b031916600160401b9485027fff0000000000000000000000000000000000000000ffffffffffffffffffffff161733600160581b021780825583546001600160401b038a811677ffffffffffffffff0000000000000000ffffffffffffffff1990921691909117600160801b8a831602176fffffffffffffffff00000000000000001916908716909502949094178355939450909290916001600160f81b0316600160f81b830217905550865160018201805467ffffffffffffffff19166001600160401b03928316179055604088015182546001600160c01b0316600160c01b919092160217815560005b8981101561136c57816002018b8b8381811061132357611323612a9e565b90506020028101906113359190612b86565b8154600181018355600092835260209092209091600202016113578282612ea0565b5050808061136490612af0565b915050611305565b506001810154600160401b900462ffffff166000908152600a6020526040808220815163151f92d360e01b8152915161141f9391927f00000000000000000000000000000000000000000000000000000000000000006001600160a01b03169263151f92d3926004808401938290030181865afa1580156113f1573d6000803e3d6000fd5b505050506040513d6000823e601f3d908101601f191682016040526114199190810190612fbb565b90611da6565b8060010160089054906101000a900462ffffff16600161143f9190613081565b6004805462ffffff191662ffffff92909216919091179055600181015461147c90600590600160401b900460e81b6001600160e81b031916611e7d565b506001810154604051600160401b820462ffffff16917fe396c3447c45c285122f4831aa414b32f050697412693874b3d76915cb32d5bd916114d291600160581b90046001600160a01b0316908e908e9061309d565b60405180910390a250505050505050505050565b62ffffff81166000908152600960205260408120805490916001600160401b0390911690036115275760405162461bcd60e51b815260040161034f90612922565b61154060056001600160e81b031960e885901b16611981565b61158c5760405162461bcd60e51b815260206004820181905260248201527f70726f706f73616c206973206e6f742063757272656e746c7920616374697665604482015260640161034f565b80546001600160401b03600160801b909104811642909116116115fd5760405162461bcd60e51b815260206004820152602360248201527f766f74696e67206973206f6e676f696e6720666f7220746869732070726f706f6044820152621cd85b60ea1b606482015260840161034f565b600080600061160b846119b7565b9194509250905060008161161f8486612add565b6116299190612add565b60018601549091506001600160401b03168110156116cb576001850180546001600160f81b0316600160f91b17905561167160056001600160e81b031960e889901b166119ab565b508562ffffff167f2a493178b5a20a5f25ba24ff7ec6ef19ab4e15e87b2d33fd2e7c1ae3655bb52f86600101601f9054906101000a900460ff1660016040516116bb92919061317c565b60405180910390a2505050505050565b6000806116d88587612add565b11156116f5576116f26116eb8587612add565b8690611e89565b90505b8554600090600160c01b90046001600160401b031682111561174a57506001860180546001600160f81b0316600360f81b179055600361174460076001600160e81b031960e88b901b16611e7d565b50611765565b506001860180546001600160f81b0316600160f91b17905560025b61177e60056001600160e81b031960e88b901b166119ab565b50600187015460405162ffffff8a16917f2a493178b5a20a5f25ba24ff7ec6ef19ab4e15e87b2d33fd2e7c1ae3655bb52f916117c691600160f81b900460ff1690859061317c565b60405180910390a25050505050505050565b6060610c49610c446005611ad3565b80516060906000816001600160401b038111156118065761180661248e565b60405190808252806020026020018201604052801561182f578160200160208202803683370190505b50905060005b828110156118975784818151811061184f5761184f612a9e565b60200260200101516000015182828151811061186d5761186d612a9e565b6001600160a01b03909216602092830291909101909101528061188f81612af0565b915050611835565b509392505050565b60008080806118b7866001600160a01b038716611ea8565b909450925050505b9250929050565b60006118dc846001600160a01b03851684611ee2565b949350505050565b61190860405180606001604052806060815260200160608152602001606081525090565b600160009081526020839052604081209061192282611eff565b6002600090815260208690526040812091925061193e82611eff565b6003600090815260208890526040812091925061195a82611eff565b60408051606081018252968752602087019490945292850192909252509195945050505050565b600081815260018301602052604081205415155b9392505050565b60606118dc8484600085611fe6565b600061199583836120c1565b6001810154600160401b900462ffffff166000908152600a60209081526040808320805482518185028101850190935280835284938493849390929091849084015b82821015611a4e576000848152602090819020604080516060810182526003860290920180546001600160a01b03168352600180820154848601526002909101549183019190915290835290920191016119f9565b50505060018088015462ffffff600160401b909104166000908152600c60205260408120939450611aab925083915b6003811115611a8e57611a8e61267e565b8152602001908152602001600020836121b490919063ffffffff16565b9450611aba8160006002611a7d565b9350611ac98160006003611a7d565b9496939550505050565b6060600061199583612241565b80516060906000816001600160401b03811115611aff57611aff61248e565b604051908082528060200260200182016040528015611b7f57816020015b611b6c6040805161012081018252600080825260208201819052918101829052606081018290526080810182905260a0810182905260c081018290529060e08201908152602001606081525090565b815260200190600190039081611b1d5790505b50905060005b828110156118975760096000868381518110611ba357611ba3612a9e565b60209081029190910181015160e81c825281810192909252604090810160002081516101208101835281546001600160401b038082168352600160401b808304821696840196909652600160801b8204811694830194909452600160c01b9004831660608201526001820154928316608082015292820462ffffff1660a08401526001600160a01b03600160581b83041660c08401529060e083019060ff600160f81b909104166004811115611c5b57611c5b61267e565b6004811115611c6c57611c6c61267e565b815260200160028201805480602002602001604051908101604052809291908181526020016000905b82821015611d6e576000848152602090819020604080518082019091526002850290910180546001600160a01b031682526001810180549293919291840191611cdd90612b4c565b80601f0160208091040260200160405190810160405280929190818152602001828054611d0990612b4c565b8015611d565780601f10611d2b57610100808354040283529160200191611d56565b820191906000526020600020905b815481529060010190602001808311611d3957829003601f168201915b50505050508152505081526020019060010190611c95565b5050505081525050828281518110611d8857611d88612a9e565b60200260200101819052508080611d9e90612af0565b915050611b85565b805415611ded5760405162461bcd60e51b815260206004820152601560248201527439ba37b930b3b29036bab9ba1031329031b632b0b760591b604482015260640161034f565b60005b8251811015611e785781838281518110611e0c57611e0c612a9e565b602090810291909101810151825460018082018555600094855293839020825160039092020180546001600160a01b0319166001600160a01b03909216919091178155918101519282019290925560409091015160029091015580611e7081612af0565b915050611df0565b505050565b6000611995838361229d565b600081611e9e670de0b6b3a7640000856131a0565b61199591906131b7565b6000818152600283016020526040812054819080611ed757611eca85856122ec565b9250600091506118bf9050565b6001925090506118bf565b600082815260028401602052604081208290556118dc8484611e7d565b60606000611f0c836122f8565b6001600160401b03811115611f2357611f2361248e565b604051908082528060200260200182016040528015611f6857816020015b6040805180820190915260008082526020820152815260200190600190039081611f415790505b50905060005b611f77846122f8565b811015611fdf57600080611f8b8684612303565b915091506040518060400160405280836001600160a01b0316815260200182815250848481518110611fbf57611fbf612a9e565b602002602001018190525050508080611fd790612af0565b915050611f6e565b5092915050565b6060824710156120475760405162461bcd60e51b815260206004820152602660248201527f416464726573733a20696e73756666696369656e742062616c616e636520666f6044820152651c8818d85b1b60d21b606482015260840161034f565b600080866001600160a01b0316858760405161206391906131d9565b60006040518083038185875af1925050503d80600081146120a0576040519150601f19603f3d011682016040523d82523d6000602084013e6120a5565b606091505b50915091506120b687838387612312565b979650505050505050565b600081815260018301602052604081205480156121aa5760006120e5600183612aca565b85549091506000906120f990600190612aca565b905081811461215e57600086600001828154811061211957612119612a9e565b906000526020600020015490508087600001848154811061213c5761213c612a9e565b6000918252602080832090910192909255918252600188019052604090208390555b855486908061216f5761216f6131eb565b60019003818190600052602060002001600090559055856001016000868152602001908152602001600020600090556001935050505061095b565b600091505061095b565b6000805b8351811015611fdf5760008482815181106121d5576121d5612a9e565b6020026020010151905060006121f882600001518661189f90919063ffffffff16565b915050612220826020015161221a846040015184611e8990919063ffffffff16565b9061238b565b61222a9085612add565b93505050808061223990612af0565b9150506121b8565b60608160000180548060200260200160405190810160405280929190818152602001828054801561229157602002820191906000526020600020905b81548152602001906001019080831161227d575b50505050509050919050565b60008181526001830160205260408120546122e45750815460018181018455600084815260208082209093018490558454848252828601909352604090209190915561095b565b50600061095b565b60006119958383611981565b600061095b826123a0565b60008080806118b786866123ab565b6060831561238157825160000361237a576001600160a01b0385163b61237a5760405162461bcd60e51b815260206004820152601d60248201527f416464726573733a2063616c6c20746f206e6f6e2d636f6e7472616374000000604482015260640161034f565b50816118dc565b6118dc83836123d6565b6000670de0b6b3a7640000611e9e83856131a0565b600061095b82612400565b600080806123b9858561240a565b600081815260029690960160205260409095205494959350505050565b8151156123e65781518083602001fd5b8060405162461bcd60e51b815260040161034f9190612e0c565b600061095b825490565b60006119958383600082600001828154811061242857612428612a9e565b9060005260206000200154905092915050565b803562ffffff8116811461244e57600080fd5b919050565b6000806040838503121561246657600080fd5b61246f8361243b565b915060208301356004811061248357600080fd5b809150509250929050565b634e487b7160e01b600052604160045260246000fd5b604080519081016001600160401b03811182821017156124c6576124c661248e565b60405290565b604051606081016001600160401b03811182821017156124c6576124c661248e565b604051601f8201601f191681016001600160401b03811182821017156125165761251661248e565b604052919050565b60ff8116811461252d57600080fd5b50565b6001600160a01b038116811461252d57600080fd5b60006060828403121561255757600080fd5b604051606081018181106001600160401b03821117156125795761257961248e565b60405282356125878161251e565b81526020838101359082015260408301356125a181612530565b60408201529392505050565b6000602082840312156125bf57600080fd5b6119958261243b565b600081518084526020808501945080840160005b8381101561260f57815180516001600160a01b0316885260209081015190880152604087019650908201906001016125dc565b509495945050505050565b600081516060845261262f60608501826125c8565b90506020830151848203602086015261264882826125c8565b9150506040830151848203604086015261266282826125c8565b95945050505050565b602081526000611995602083018461261a565b634e487b7160e01b600052602160045260246000fd5b600581106126a4576126a461267e565b9052565b60005b838110156126c35781810151838201526020016126ab565b50506000910152565b600081518084526126e48160208601602086016126a8565b601f01601f19169290920160200192915050565b600081518084526020808501808196508360051b8101915082860160005b8581101561275d578284038952815180516001600160a01b031685528501516040868601819052612749818701836126cc565b9a87019a9550505090840190600101612716565b5091979650505050505050565b60006020808301818452808551808352604092508286019150828160051b87010184880160005b8381101561284857603f19898403018552815180516001600160401b03908116855288820151811689860152878201518116888601526060808301518216908601526080808301519091169085015260a08082015162ffffff169085015260c0808201516001600160a01b03169085015260e080820151610120919061281982880182612694565b505061010091820151918501819052612834858201836126f8565b968901969450505090860190600101612791565b509098975050505050505050565b6000806020838503121561286957600080fd5b82356001600160401b038082111561288057600080fd5b818501915085601f83011261289457600080fd5b8135818111156128a357600080fd5b8660208260051b85010111156128b857600080fd5b60209290920196919550909350505050565b600080604083850312156128dd57600080fd5b82356128e881612530565b91506128f66020840161243b565b90509250929050565b6004811061252d5761252d61267e565b6020810161291c836128ff565b91905290565b60208082526017908201527f70726f706f73616c20646f6573206e6f74206578697374000000000000000000604082015260600190565b60006060820160018060a01b03808716845260206001600160401b0387168186015260606040860152828651808552608087019150828801945060005b818110156129b4578551851683529483019491830191600101612996565b50909998505050505050505050565b60006001600160401b038211156129dc576129dc61248e565b5060051b60200190565b600060208083850312156129f957600080fd5b82516001600160401b03811115612a0f57600080fd5b8301601f81018513612a2057600080fd5b8051612a33612a2e826129c3565b6124ee565b81815260069190911b82018301908381019087831115612a5257600080fd5b928401925b828410156120b65760408489031215612a705760008081fd5b612a786124a4565b8451612a8381612530565b81528486015186820152825260409093019290840190612a57565b634e487b7160e01b600052603260045260246000fd5b634e487b7160e01b600052601160045260246000fd5b8181038181111561095b5761095b612ab4565b8082018082111561095b5761095b612ab4565b600060018201612b0257612b02612ab4565b5060010190565b6001600160a01b0385168152612b1e846128ff565b836020820152608060408201526000612b3a60808301856125c8565b82810360608401526120b6818561261a565b600181811c90821680612b6057607f821691505b602082108103612b8057634e487b7160e01b600052602260045260246000fd5b50919050565b60008235603e19833603018112612b9c57600080fd5b9190910192915050565b600060408236031215612bb857600080fd5b612bc06124a4565b8235612bcb81612530565b81526020838101356001600160401b0380821115612be857600080fd5b9085019036601f830112612bfb57600080fd5b813581811115612c0d57612c0d61248e565b612c1f601f8201601f191685016124ee565b91508082523684828501011115612c3557600080fd5b80848401858401376000908201840152918301919091525092915050565b6001600160a01b03831681526040602082018190526000906118dc908301846126cc565b80516001600160401b038116811461244e57600080fd5b805163ffffffff8116811461244e57600080fd5b600060c08284031215612cb457600080fd5b60405160c081018181106001600160401b0382111715612cd657612cd661248e565b604052612ce283612c77565b8152612cf060208401612c77565b6020820152612d0160408401612c77565b6040820152612d1260608401612c8e565b6060820152612d2360808401612c8e565b608082015260a0830151612d368161251e565b60a08201529392505050565b600060208284031215612d5457600080fd5b813561199581612530565b6000808335601e19843603018112612d7657600080fd5b8301803591506001600160401b03821115612d9057600080fd5b6020019150368190038213156118bf57600080fd5b81835281816020850137506000828201602090810191909152601f909101601f19169091010190565b6001600160a01b03841681526040602082018190526000906126629083018486612da5565b600060208284031215612e0557600080fd5b5051919050565b60208152600061199560208301846126cc565b60208152600061199560208301846125c8565b6001600160401b03818116838216019080821115611fdf57611fdf612ab4565b601f821115611e7857600081815260208120601f850160051c81016020861015612e795750805b601f850160051c820191505b81811015612e9857828155600101612e85565b505050505050565b8135612eab81612530565b81546001600160a01b0319166001600160a01b0391909116178155600181810160208481013536869003601e19018112612ee457600080fd5b850180356001600160401b03811115612efc57600080fd5b8036038383011315612f0d57600080fd5b612f2181612f1b8654612b4c565b86612e52565b6000601f821160018114612f575760008315612f3f57508382018501355b600019600385901b1c1916600184901b178655612fb0565b600086815260209020601f19841690835b82811015612f8757868501880135825593870193908901908701612f68565b5084821015612fa65760001960f88660031b161c198785880101351681555b50508683881b0186555b505050505050505050565b60006020808385031215612fce57600080fd5b82516001600160401b03811115612fe457600080fd5b8301601f81018513612ff557600080fd5b8051613003612a2e826129c3565b8181526060918202830184019184820191908884111561302257600080fd5b938501935b838510156130755780858a03121561303f5760008081fd5b6130476124cc565b855161305281612530565b815285870151878201526040808701519082015283529384019391850191613027565b50979650505050505050565b62ffffff818116838216019080821115611fdf57611fdf612ab4565b6001600160a01b038481168252604060208084018290528184018590526000926060600587901b860181019290860188865b8981101561316c57888603605f190183528135368c9003603e190181126130f557600080fd5b8b01803561310281612530565b861687528085013536829003601e1901811261311d57600080fd5b0184810190356001600160401b0381111561313757600080fd5b80360382131561314657600080fd5b88868901526131588989018284612da5565b9750505091830191908301906001016130cf565b50939a9950505050505050505050565b6040810161318a8285612694565b613193836128ff565b8260208301529392505050565b808202811582820484141761095b5761095b612ab4565b6000826131d457634e487b7160e01b600052601260045260246000fd5b500490565b60008251612b9c8184602087016126a8565b634e487b7160e01b600052603160045260246000fdfea2646970667358221220f3d0161926ec2ec9b35b22adfc1d0bef1808ad42eac66b9dfea22844c5d2358864736f6c63430008110033","bytecodeSha1":"1f2648cb07f17525398acb0595ae042a524c785c","compiler":{"evm_version":"istanbul","optimizer":{"enabled":true,"runs":200},"version":"0.8.17+commit.8df45f5f"},"contractName":"GovernanceManager","language":"Solidity","natspec":{"kind":"dev","methods":{},"version":1},"opcodes":"PUSH1 0x80 PUSH1 0x40 MSTORE CALLVALUE DUP1 ISZERO PUSH2 0x10 JUMPI PUSH1 0x0 DUP1 REVERT JUMPDEST POP PUSH1 0x4 CALLDATASIZE LT PUSH2 0xF5 JUMPI PUSH1 0x0 CALLDATALOAD PUSH1 0xE0 SHR DUP1 PUSH4 0x8D6E004A GT PUSH2 0x97 JUMPI DUP1 PUSH4 0xCC7D76CE GT PUSH2 0x66 JUMPI DUP1 PUSH4 0xCC7D76CE EQ PUSH2 0x293 JUMPI DUP1 PUSH4 0xCEAB5253 EQ PUSH2 0x2A6 JUMPI DUP1 PUSH4 0xD2F5A21A EQ PUSH2 0x2F3 JUMPI DUP1 PUSH4 0xE14FF108 EQ PUSH2 0x306 JUMPI PUSH1 0x0 DUP1 REVERT JUMPDEST DUP1 PUSH4 0x8D6E004A EQ PUSH2 0x1E3 JUMPI DUP1 PUSH4 0xC1AB52CD EQ PUSH2 0x211 JUMPI DUP1 PUSH4 0xC36A4AD2 EQ PUSH2 0x238 JUMPI DUP1 PUSH4 0xC3955C7B EQ PUSH2 0x27E JUMPI PUSH1 0x0 DUP1 REVERT JUMPDEST DUP1 PUSH4 0x438599D6 GT PUSH2 0xD3 JUMPI DUP1 PUSH4 0x438599D6 EQ PUSH2 0x14A JUMPI DUP1 PUSH4 0x4BA0DC04 EQ PUSH2 0x16A JUMPI DUP1 PUSH4 0x595D53C3 EQ PUSH2 0x17D JUMPI DUP1 PUSH4 0x6FF3BB4D EQ PUSH2 0x1BC JUMPI PUSH1 0x0 DUP1 REVERT JUMPDEST DUP1 PUSH4 0xA9F46AD EQ PUSH2 0xFA JUMPI DUP1 PUSH4 0x21E4C301 EQ PUSH2 0x122 JUMPI DUP1 PUSH4 0x28F46F14 EQ PUSH2 0x137 JUMPI JUMPDEST PUSH1 0x0 DUP1 REVERT JUMPDEST PUSH1 0x4 SLOAD PUSH2 0x109 SWAP1 PUSH3 0xFFFFFF AND DUP2 JUMP JUMPDEST PUSH1 0x40 MLOAD PUSH3 0xFFFFFF SWAP1 SWAP2 AND DUP2 MSTORE PUSH1 0x20 ADD JUMPDEST PUSH1 0x40 MLOAD DUP1 SWAP2 SUB SWAP1 RETURN JUMPDEST PUSH2 0x135 PUSH2 0x130 CALLDATASIZE PUSH1 0x4 PUSH2 0x2453 JUMP JUMPDEST PUSH2 0x30E JUMP JUMPDEST STOP JUMPDEST PUSH2 0x135 PUSH2 0x145 CALLDATASIZE PUSH1 0x4 PUSH2 0x2545 JUMP JUMPDEST PUSH2 0x7CF JUMP JUMPDEST PUSH2 0x15D PUSH2 0x158 CALLDATASIZE PUSH1 0x4 PUSH2 0x25AD JUMP JUMPDEST PUSH2 0x91A JUMP JUMPDEST PUSH1 0x40 MLOAD PUSH2 0x119 SWAP2 SWAP1 PUSH2 0x266B JUMP JUMPDEST PUSH2 0x135 PUSH2 0x178 CALLDATASIZE PUSH1 0x4 PUSH2 0x25AD JUMP JUMPDEST PUSH2 0x961 JUMP JUMPDEST PUSH2 0x1A4 PUSH32 0x0 DUP2 JUMP JUMPDEST PUSH1 0x40 MLOAD PUSH1 0x1 PUSH1 0x1 PUSH1 0xA0 SHL SUB SWAP1 SWAP2 AND DUP2 MSTORE PUSH1 0x20 ADD PUSH2 0x119 JUMP JUMPDEST PUSH2 0x1A4 PUSH32 0x0 DUP2 JUMP JUMPDEST PUSH2 0x1F6 PUSH2 0x1F1 CALLDATASIZE PUSH1 0x4 PUSH2 0x25AD JUMP JUMPDEST PUSH2 0xBDD JUMP JUMPDEST PUSH1 0x40 DUP1 MLOAD SWAP4 DUP5 MSTORE PUSH1 0x20 DUP5 ADD SWAP3 SWAP1 SWAP3 MSTORE SWAP1 DUP3 ADD MSTORE PUSH1 0x60 ADD PUSH2 0x119 JUMP JUMPDEST PUSH2 0x1A4 PUSH32 0x0 DUP2 JUMP JUMPDEST PUSH1 0x1 SLOAD PUSH1 0x2 SLOAD PUSH1 0x3 SLOAD PUSH2 0x256 SWAP3 PUSH1 0xFF AND SWAP2 SWAP1 PUSH1 0x1 PUSH1 0x1 PUSH1 0xA0 SHL SUB AND DUP4 JUMP JUMPDEST PUSH1 0x40 DUP1 MLOAD PUSH1 0xFF SWAP1 SWAP5 AND DUP5 MSTORE PUSH1 0x20 DUP5 ADD SWAP3 SWAP1 SWAP3 MSTORE PUSH1 0x1 PUSH1 0x1 PUSH1 0xA0 SHL SUB AND SWAP1 DUP3 ADD MSTORE PUSH1 0x60 ADD PUSH2 0x119 JUMP JUMPDEST PUSH2 0x286 PUSH2 0xC35 JUMP JUMPDEST PUSH1 0x40 MLOAD PUSH2 0x119 SWAP2 SWAP1 PUSH2 0x276A JUMP JUMPDEST PUSH2 0x135 PUSH2 0x2A1 CALLDATASIZE PUSH1 0x4 PUSH2 0x2856 JUMP JUMPDEST PUSH2 0xC4E JUMP JUMPDEST PUSH2 0x2E6 PUSH2 0x2B4 CALLDATASIZE PUSH1 0x4 PUSH2 0x28CA JUMP JUMPDEST PUSH1 0x1 PUSH1 0x1 PUSH1 0xA0 SHL SUB DUP3 AND PUSH1 0x0 SWAP1 DUP2 MSTORE PUSH1 0xB PUSH1 0x20 SWAP1 DUP2 MSTORE PUSH1 0x40 DUP1 DUP4 KECCAK256 PUSH3 0xFFFFFF DUP6 AND DUP5 MSTORE SWAP1 SWAP2 MSTORE SWAP1 KECCAK256 SLOAD PUSH1 0xFF AND SWAP3 SWAP2 POP POP JUMP JUMPDEST PUSH1 0x40 MLOAD PUSH2 0x119 SWAP2 SWAP1 PUSH2 0x290F JUMP JUMPDEST PUSH2 0x135 PUSH2 0x301 CALLDATASIZE PUSH1 0x4 PUSH2 0x25AD JUMP JUMPDEST PUSH2 0x14E6 JUMP JUMPDEST PUSH2 0x286 PUSH2 0x17D8 JUMP JUMPDEST PUSH3 0xFFFFFF DUP3 AND PUSH1 0x0 SWAP1 DUP2 MSTORE PUSH1 0x9 PUSH1 0x20 MSTORE PUSH1 0x40 DUP2 KECCAK256 DUP1 SLOAD SWAP1 SWAP2 PUSH1 0x1 PUSH1 0x1 PUSH1 0x40 SHL SUB SWAP1 SWAP2 AND SWAP1 SUB PUSH2 0x358 JUMPI PUSH1 0x40 MLOAD PUSH3 0x461BCD PUSH1 0xE5 SHL DUP2 MSTORE PUSH1 0x4 ADD PUSH2 0x34F SWAP1 PUSH2 0x2922 JUMP JUMPDEST PUSH1 0x40 MLOAD DUP1 SWAP2 SUB SWAP1 REVERT JUMPDEST DUP1 SLOAD PUSH1 0x1 PUSH1 0x1 PUSH1 0x40 SHL SUB TIMESTAMP DUP2 AND PUSH1 0x1 PUSH1 0x80 SHL SWAP1 SWAP3 DIV AND GT PUSH2 0x3C5 JUMPI PUSH1 0x40 MLOAD PUSH3 0x461BCD PUSH1 0xE5 SHL DUP2 MSTORE PUSH1 0x20 PUSH1 0x4 DUP3 ADD MSTORE PUSH1 0x21 PUSH1 0x24 DUP3 ADD MSTORE PUSH32 0x766F74696E6720697320636C6F736564206F6E20746869732070726F706F7361 PUSH1 0x44 DUP3 ADD MSTORE PUSH1 0x1B PUSH1 0xFA SHL PUSH1 0x64 DUP3 ADD MSTORE PUSH1 0x84 ADD PUSH2 0x34F JUMP JUMPDEST PUSH1 0x0 DUP3 PUSH1 0x3 DUP2 GT ISZERO PUSH2 0x3D9 JUMPI PUSH2 0x3D9 PUSH2 0x267E JUMP JUMPDEST SUB PUSH2 0x43B JUMPI PUSH1 0x40 MLOAD PUSH3 0x461BCD PUSH1 0xE5 SHL DUP2 MSTORE PUSH1 0x20 PUSH1 0x4 DUP3 ADD MSTORE PUSH1 0x2C PUSH1 0x24 DUP3 ADD MSTORE PUSH32 0x62616C6C6F74206D757374206265206361737420464F522C20414741494E5354 PUSH1 0x44 DUP3 ADD MSTORE PUSH12 0x161037B91020A129AA20A4A7 PUSH1 0xA1 SHL PUSH1 0x64 DUP3 ADD MSTORE PUSH1 0x84 ADD PUSH2 0x34F JUMP JUMPDEST PUSH3 0xFFFFFF DUP4 AND PUSH1 0x0 SWAP1 DUP2 MSTORE PUSH1 0xA PUSH1 0x20 SWAP1 DUP2 MSTORE PUSH1 0x40 DUP1 DUP4 KECCAK256 DUP1 SLOAD DUP3 MLOAD DUP2 DUP6 MUL DUP2 ADD DUP6 ADD SWAP1 SWAP4 MSTORE DUP1 DUP4 MSTORE SWAP2 SWAP3 SWAP1 SWAP2 SWAP1 DUP5 SWAP1 DUP5 ADD JUMPDEST DUP3 DUP3 LT ISZERO PUSH2 0x4C2 JUMPI PUSH1 0x0 DUP5 DUP2 MSTORE PUSH1 0x20 SWAP1 DUP2 SWAP1 KECCAK256 PUSH1 0x40 DUP1 MLOAD PUSH1 0x60 DUP2 ADD DUP3 MSTORE PUSH1 0x3 DUP7 MUL SWAP1 SWAP3 ADD DUP1 SLOAD PUSH1 0x1 PUSH1 0x1 PUSH1 0xA0 SHL SUB AND DUP4 MSTORE PUSH1 0x1 DUP1 DUP3 ADD SLOAD DUP5 DUP7 ADD MSTORE PUSH1 0x2 SWAP1 SWAP2 ADD SLOAD SWAP2 DUP4 ADD SWAP2 SWAP1 SWAP2 MSTORE SWAP1 DUP4 MSTORE SWAP1 SWAP3 ADD SWAP2 ADD PUSH2 0x46D JUMP JUMPDEST POP POP DUP5 SLOAD SWAP3 SWAP4 POP PUSH1 0x0 SWAP3 PUSH1 0x1 PUSH1 0x1 PUSH1 0xA0 SHL SUB PUSH32 0x0 AND SWAP3 POP PUSH4 0xA10202FC SWAP2 POP CALLER SWAP1 PUSH1 0x1 PUSH1 0x1 PUSH1 0x40 SHL SUB AND PUSH2 0x513 DUP7 PUSH2 0x17E7 JUMP JUMPDEST PUSH1 0x40 MLOAD DUP5 PUSH4 0xFFFFFFFF AND PUSH1 0xE0 SHL DUP2 MSTORE PUSH1 0x4 ADD PUSH2 0x531 SWAP4 SWAP3 SWAP2 SWAP1 PUSH2 0x2959 JUMP JUMPDEST PUSH1 0x0 PUSH1 0x40 MLOAD DUP1 DUP4 SUB DUP2 DUP7 GAS STATICCALL ISZERO DUP1 ISZERO PUSH2 0x54E JUMPI RETURNDATASIZE PUSH1 0x0 DUP1 RETURNDATACOPY RETURNDATASIZE PUSH1 0x0 REVERT JUMPDEST POP POP POP POP PUSH1 0x40 MLOAD RETURNDATASIZE PUSH1 0x0 DUP3 RETURNDATACOPY PUSH1 0x1F RETURNDATASIZE SWAP1 DUP2 ADD PUSH1 0x1F NOT AND DUP3 ADD PUSH1 0x40 MSTORE PUSH2 0x576 SWAP2 SWAP1 DUP2 ADD SWAP1 PUSH2 0x29E6 JUMP JUMPDEST CALLER PUSH1 0x0 SWAP1 DUP2 MSTORE PUSH1 0xB PUSH1 0x20 SWAP1 DUP2 MSTORE PUSH1 0x40 DUP1 DUP4 KECCAK256 PUSH3 0xFFFFFF DUP11 AND DUP5 MSTORE SWAP1 SWAP2 MSTORE DUP2 KECCAK256 SWAP2 SWAP3 POP DUP1 DUP3 SLOAD PUSH1 0xFF AND PUSH1 0x3 DUP2 GT ISZERO PUSH2 0x5AF JUMPI PUSH2 0x5AF PUSH2 0x267E JUMP JUMPDEST EQ SWAP1 POP PUSH1 0x0 JUMPDEST DUP4 MLOAD DUP2 LT ISZERO PUSH2 0x745 JUMPI PUSH1 0x0 DUP5 DUP3 DUP2 MLOAD DUP2 LT PUSH2 0x5D2 JUMPI PUSH2 0x5D2 PUSH2 0x2A9E JUMP JUMPDEST PUSH1 0x20 MUL PUSH1 0x20 ADD ADD MLOAD SWAP1 POP DUP3 PUSH2 0x6BE JUMPI DUP1 MLOAD PUSH3 0xFFFFFF DUP11 AND PUSH1 0x0 SWAP1 DUP2 MSTORE PUSH1 0xC PUSH1 0x20 MSTORE PUSH1 0x40 DUP2 KECCAK256 DUP7 SLOAD SWAP2 SWAP3 PUSH2 0x645 SWAP3 SWAP1 SWAP2 SWAP1 DUP5 SWAP1 PUSH1 0xFF AND PUSH1 0x3 DUP2 GT ISZERO PUSH2 0x618 JUMPI PUSH2 0x618 PUSH2 0x267E JUMP JUMPDEST PUSH1 0x3 DUP2 GT ISZERO PUSH2 0x629 JUMPI PUSH2 0x629 PUSH2 0x267E JUMP JUMPDEST DUP2 MSTORE PUSH1 0x20 ADD SWAP1 DUP2 MSTORE PUSH1 0x20 ADD PUSH1 0x0 KECCAK256 PUSH2 0x189F SWAP1 SWAP2 SWAP1 PUSH4 0xFFFFFFFF AND JUMP JUMPDEST SWAP2 POP POP PUSH2 0x6BB DUP3 PUSH1 0x0 ADD MLOAD DUP4 PUSH1 0x20 ADD MLOAD DUP4 PUSH2 0x660 SWAP2 SWAP1 PUSH2 0x2ACA JUMP JUMPDEST PUSH3 0xFFFFFF DUP14 AND PUSH1 0x0 SWAP1 DUP2 MSTORE PUSH1 0xC PUSH1 0x20 MSTORE PUSH1 0x40 DUP2 KECCAK256 DUP10 SLOAD SWAP1 SWAP2 SWAP1 PUSH1 0xFF AND PUSH1 0x3 DUP2 GT ISZERO PUSH2 0x68D JUMPI PUSH2 0x68D PUSH2 0x267E JUMP JUMPDEST PUSH1 0x3 DUP2 GT ISZERO PUSH2 0x69E JUMPI PUSH2 0x69E PUSH2 0x267E JUMP JUMPDEST DUP2 MSTORE PUSH1 0x20 ADD SWAP1 DUP2 MSTORE PUSH1 0x20 ADD PUSH1 0x0 KECCAK256 PUSH2 0x18C6 SWAP1 SWAP3 SWAP2 SWAP1 PUSH4 0xFFFFFFFF AND JUMP JUMPDEST POP POP JUMPDEST DUP1 MLOAD PUSH3 0xFFFFFF DUP11 AND PUSH1 0x0 SWAP1 DUP2 MSTORE PUSH1 0xC PUSH1 0x20 MSTORE PUSH1 0x40 DUP2 KECCAK256 SWAP1 SWAP2 PUSH2 0x6ED SWAP2 DUP4 DUP13 PUSH1 0x3 DUP2 GT ISZERO PUSH2 0x618 JUMPI PUSH2 0x618 PUSH2 0x267E JUMP JUMPDEST SWAP2 POP POP PUSH2 0x72F DUP3 PUSH1 0x0 ADD MLOAD DUP4 PUSH1 0x20 ADD MLOAD DUP4 PUSH2 0x708 SWAP2 SWAP1 PUSH2 0x2ADD JUMP JUMPDEST PUSH3 0xFFFFFF DUP14 AND PUSH1 0x0 SWAP1 DUP2 MSTORE PUSH1 0xC PUSH1 0x20 MSTORE PUSH1 0x40 DUP2 KECCAK256 SWAP1 DUP14 PUSH1 0x3 DUP2 GT ISZERO PUSH2 0x68D JUMPI PUSH2 0x68D PUSH2 0x267E JUMP JUMPDEST POP POP POP DUP1 DUP1 PUSH2 0x73D SWAP1 PUSH2 0x2AF0 JUMP JUMPDEST SWAP2 POP POP PUSH2 0x5B5 JUMP JUMPDEST POP DUP2 SLOAD DUP7 SWAP1 DUP4 SWAP1 PUSH1 0xFF NOT AND PUSH1 0x1 DUP4 PUSH1 0x3 DUP2 GT ISZERO PUSH2 0x764 JUMPI PUSH2 0x764 PUSH2 0x267E JUMP JUMPDEST MUL OR SWAP1 SSTORE POP PUSH3 0xFFFFFF DUP8 AND PUSH1 0x0 DUP2 DUP2 MSTORE PUSH1 0xC PUSH1 0x20 MSTORE PUSH1 0x40 SWAP1 KECCAK256 PUSH32 0xC946BFB55E78699F70CADFAD1633E797ECEB5614AF062F3298F377DF861203C8 SWAP1 CALLER SWAP1 DUP10 SWAP1 DUP8 SWAP1 PUSH2 0x7AE SWAP1 PUSH2 0x18E4 JUMP JUMPDEST PUSH1 0x40 MLOAD PUSH2 0x7BE SWAP5 SWAP4 SWAP3 SWAP2 SWAP1 PUSH2 0x2B09 JUMP JUMPDEST PUSH1 0x40 MLOAD DUP1 SWAP2 SUB SWAP1 LOG2 POP POP POP POP POP POP POP JUMP JUMPDEST PUSH1 0x0 SLOAD PUSH2 0x100 SWAP1 DIV PUSH1 0xFF AND ISZERO DUP1 DUP1 ISZERO PUSH2 0x7EF JUMPI POP PUSH1 0x0 SLOAD PUSH1 0x1 PUSH1 0xFF SWAP1 SWAP2 AND LT JUMPDEST DUP1 PUSH2 0x809 JUMPI POP ADDRESS EXTCODESIZE ISZERO DUP1 ISZERO PUSH2 0x809 JUMPI POP PUSH1 0x0 SLOAD PUSH1 0xFF AND PUSH1 0x1 EQ JUMPDEST PUSH2 0x86C JUMPI PUSH1 0x40 MLOAD PUSH3 0x461BCD PUSH1 0xE5 SHL DUP2 MSTORE PUSH1 0x20 PUSH1 0x4 DUP3 ADD MSTORE PUSH1 0x2E PUSH1 0x24 DUP3 ADD MSTORE PUSH32 0x496E697469616C697A61626C653A20636F6E747261637420697320616C726561 PUSH1 0x44 DUP3 ADD MSTORE PUSH14 0x191E481A5B9A5D1A585B1A5E9959 PUSH1 0x92 SHL PUSH1 0x64 DUP3 ADD MSTORE PUSH1 0x84 ADD PUSH2 0x34F JUMP JUMPDEST PUSH1 0x0 DUP1 SLOAD PUSH1 0xFF NOT AND PUSH1 0x1 OR SWAP1 SSTORE DUP1 ISZERO PUSH2 0x88F JUMPI PUSH1 0x0 DUP1 SLOAD PUSH2 0xFF00 NOT AND PUSH2 0x100 OR SWAP1 SSTORE JUMPDEST DUP2 MLOAD PUSH1 0x1 DUP1 SLOAD PUSH1 0xFF NOT AND PUSH1 0xFF SWAP1 SWAP3 AND SWAP2 SWAP1 SWAP2 OR SWAP1 SSTORE PUSH1 0x20 DUP3 ADD MLOAD PUSH1 0x2 SSTORE PUSH1 0x40 DUP3 ADD MLOAD PUSH1 0x3 DUP1 SLOAD PUSH1 0x1 PUSH1 0x1 PUSH1 0xA0 SHL SUB NOT AND PUSH1 0x1 PUSH1 0x1 PUSH1 0xA0 SHL SUB SWAP1 SWAP3 AND SWAP2 SWAP1 SWAP2 OR SWAP1 SSTORE DUP1 ISZERO PUSH2 0x916 JUMPI PUSH1 0x0 DUP1 SLOAD PUSH2 0xFF00 NOT AND SWAP1 SSTORE PUSH1 0x40 MLOAD PUSH1 0x1 DUP2 MSTORE PUSH32 0x7F26B83FF96E1F2B6A682F133852F6798A09C465DA95921460CEFB3847402498 SWAP1 PUSH1 0x20 ADD PUSH1 0x40 MLOAD DUP1 SWAP2 SUB SWAP1 LOG1 JUMPDEST POP POP JUMP JUMPDEST PUSH2 0x93E PUSH1 0x40 MLOAD DUP1 PUSH1 0x60 ADD PUSH1 0x40 MSTORE DUP1 PUSH1 0x60 DUP2 MSTORE PUSH1 0x20 ADD PUSH1 0x60 DUP2 MSTORE PUSH1 0x20 ADD PUSH1 0x60 DUP2 MSTORE POP SWAP1 JUMP JUMPDEST PUSH3 0xFFFFFF DUP3 AND PUSH1 0x0 SWAP1 DUP2 MSTORE PUSH1 0xC PUSH1 0x20 MSTORE PUSH1 0x40 SWAP1 KECCAK256 PUSH2 0x95B SWAP1 PUSH2 0x18E4 JUMP JUMPDEST SWAP3 SWAP2 POP POP JUMP JUMPDEST PUSH3 0xFFFFFF DUP2 AND PUSH1 0x0 SWAP1 DUP2 MSTORE PUSH1 0x9 PUSH1 0x20 MSTORE PUSH1 0x40 SWAP1 KECCAK256 DUP1 SLOAD PUSH1 0x1 PUSH1 0x1 PUSH1 0x40 SHL SUB AND PUSH2 0x99C JUMPI PUSH1 0x40 MLOAD PUSH3 0x461BCD PUSH1 0xE5 SHL DUP2 MSTORE PUSH1 0x4 ADD PUSH2 0x34F SWAP1 PUSH2 0x2922 JUMP JUMPDEST PUSH2 0x9B5 PUSH1 0x7 PUSH1 0x1 PUSH1 0x1 PUSH1 0xE8 SHL SUB NOT PUSH1 0xE8 DUP6 SWAP1 SHL AND PUSH2 0x1981 JUMP JUMPDEST DUP1 ISZERO PUSH2 0x9D6 JUMPI POP DUP1 SLOAD PUSH1 0x1 PUSH1 0x1 PUSH1 0x40 SHL SUB PUSH1 0x1 PUSH1 0x40 SHL SWAP1 SWAP2 DIV DUP2 AND TIMESTAMP SWAP1 SWAP2 AND GT JUMPDEST PUSH2 0xA37 JUMPI PUSH1 0x40 MLOAD PUSH3 0x461BCD PUSH1 0xE5 SHL DUP2 MSTORE PUSH1 0x20 PUSH1 0x4 DUP3 ADD MSTORE PUSH1 0x2C PUSH1 0x24 DUP3 ADD MSTORE PUSH32 0x70726F706F73616C206D7573742062652071756575656420616E642072656164 PUSH1 0x44 DUP3 ADD MSTORE PUSH12 0x7920746F2065786563757465 PUSH1 0xA0 SHL PUSH1 0x64 DUP3 ADD MSTORE PUSH1 0x84 ADD PUSH2 0x34F JUMP JUMPDEST PUSH1 0x0 JUMPDEST PUSH1 0x2 DUP3 ADD SLOAD DUP2 LT ISZERO PUSH2 0xB77 JUMPI PUSH2 0xB64 DUP3 PUSH1 0x2 ADD DUP3 DUP2 SLOAD DUP2 LT PUSH2 0xA5E JUMPI PUSH2 0xA5E PUSH2 0x2A9E JUMP JUMPDEST SWAP1 PUSH1 0x0 MSTORE PUSH1 0x20 PUSH1 0x0 KECCAK256 SWAP1 PUSH1 0x2 MUL ADD PUSH1 0x1 ADD DUP1 SLOAD PUSH2 0xA7A SWAP1 PUSH2 0x2B4C JUMP JUMPDEST DUP1 PUSH1 0x1F ADD PUSH1 0x20 DUP1 SWAP2 DIV MUL PUSH1 0x20 ADD PUSH1 0x40 MLOAD SWAP1 DUP2 ADD PUSH1 0x40 MSTORE DUP1 SWAP3 SWAP2 SWAP1 DUP2 DUP2 MSTORE PUSH1 0x20 ADD DUP3 DUP1 SLOAD PUSH2 0xAA6 SWAP1 PUSH2 0x2B4C JUMP JUMPDEST DUP1 ISZERO PUSH2 0xAF3 JUMPI DUP1 PUSH1 0x1F LT PUSH2 0xAC8 JUMPI PUSH2 0x100 DUP1 DUP4 SLOAD DIV MUL DUP4 MSTORE SWAP2 PUSH1 0x20 ADD SWAP2 PUSH2 0xAF3 JUMP JUMPDEST DUP3 ADD SWAP2 SWAP1 PUSH1 0x0 MSTORE PUSH1 0x20 PUSH1 0x0 KECCAK256 SWAP1 JUMPDEST DUP2 SLOAD DUP2 MSTORE SWAP1 PUSH1 0x1 ADD SWAP1 PUSH1 0x20 ADD DUP1 DUP4 GT PUSH2 0xAD6 JUMPI DUP3 SWAP1 SUB PUSH1 0x1F AND DUP3 ADD SWAP2 JUMPDEST POP POP POP POP POP PUSH1 0x40 MLOAD DUP1 PUSH1 0x40 ADD PUSH1 0x40 MSTORE DUP1 PUSH1 0x19 DUP2 MSTORE PUSH1 0x20 ADD PUSH32 0x70726F706F73616C20657865637574696F6E206661696C656400000000000000 DUP2 MSTORE POP DUP5 PUSH1 0x2 ADD DUP5 DUP2 SLOAD DUP2 LT PUSH2 0xB43 JUMPI PUSH2 0xB43 PUSH2 0x2A9E JUMP JUMPDEST PUSH1 0x0 SWAP2 DUP3 MSTORE PUSH1 0x20 SWAP1 SWAP2 KECCAK256 PUSH1 0x2 SWAP1 SWAP2 MUL ADD SLOAD PUSH1 0x1 PUSH1 0x1 PUSH1 0xA0 SHL SUB AND SWAP2 SWAP1 PUSH2 0x199C JUMP JUMPDEST POP DUP1 PUSH2 0xB6F DUP2 PUSH2 0x2AF0 JUMP JUMPDEST SWAP2 POP POP PUSH2 0xA3A JUMP JUMPDEST POP PUSH1 0x1 DUP2 ADD DUP1 SLOAD PUSH1 0x1 PUSH1 0x1 PUSH1 0xF8 SHL SUB AND PUSH1 0x1 PUSH1 0xFA SHL OR SWAP1 SSTORE PUSH2 0xBA8 PUSH1 0x7 PUSH1 0x1 PUSH1 0x1 PUSH1 0xE8 SHL SUB NOT PUSH1 0xE8 DUP6 SWAP1 SHL AND PUSH2 0x19AB JUMP JUMPDEST POP PUSH1 0x40 MLOAD PUSH3 0xFFFFFF DUP4 AND SWAP1 PUSH32 0x934E084A11F01168DE309F3226F7B0AF3360B809C501B627AB68604371C5FD7C SWAP1 PUSH1 0x0 SWAP1 LOG2 POP POP JUMP JUMPDEST PUSH3 0xFFFFFF DUP2 AND PUSH1 0x0 SWAP1 DUP2 MSTORE PUSH1 0x9 PUSH1 0x20 MSTORE PUSH1 0x40 DUP2 KECCAK256 DUP1 SLOAD DUP3 SWAP2 DUP3 SWAP2 PUSH1 0x1 PUSH1 0x1 PUSH1 0x40 SHL SUB AND DUP3 SUB PUSH2 0xC1E JUMPI PUSH1 0x40 MLOAD PUSH3 0x461BCD PUSH1 0xE5 SHL DUP2 MSTORE PUSH1 0x4 ADD PUSH2 0x34F SWAP1 PUSH2 0x2922 JUMP JUMPDEST PUSH2 0xC27 DUP2 PUSH2 0x19B7 JUMP JUMPDEST SWAP4 POP SWAP4 POP SWAP4 POP POP SWAP2 SWAP4 SWAP1 SWAP3 POP JUMP JUMPDEST PUSH1 0x60 PUSH2 0xC49 PUSH2 0xC44 PUSH1 0x7 PUSH2 0x1AD3 JUMP JUMPDEST PUSH2 0x1AE0 JUMP JUMPDEST SWAP1 POP SWAP1 JUMP JUMPDEST DUP1 PUSH2 0xCAC JUMPI PUSH1 0x40 MLOAD PUSH3 0x461BCD PUSH1 0xE5 SHL DUP2 MSTORE PUSH1 0x20 PUSH1 0x4 DUP3 ADD MSTORE PUSH1 0x28 PUSH1 0x24 DUP3 ADD MSTORE PUSH32 0x63616E6E6F742063726561746520612070726F706F73616C2077697468206E6F PUSH1 0x44 DUP3 ADD MSTORE PUSH8 0x20616374696F6E73 PUSH1 0xC0 SHL PUSH1 0x64 DUP3 ADD MSTORE PUSH1 0x84 ADD PUSH2 0x34F JUMP JUMPDEST PUSH1 0x0 DUP3 DUP3 PUSH1 0x0 DUP2 DUP2 LT PUSH2 0xCC1 JUMPI PUSH2 0xCC1 PUSH2 0x2A9E JUMP JUMPDEST SWAP1 POP PUSH1 0x20 MUL DUP2 ADD SWAP1 PUSH2 0xCD3 SWAP2 SWAP1 PUSH2 0x2B86 JUMP JUMPDEST PUSH2 0xCDC SWAP1 PUSH2 0x2BA6 JUMP JUMPDEST DUP1 MLOAD PUSH1 0x20 DUP3 ADD MLOAD PUSH1 0x40 MLOAD PUSH4 0xFEB52AF5 PUSH1 0xE0 SHL DUP2 MSTORE SWAP3 SWAP4 POP PUSH1 0x0 SWAP3 PUSH1 0x1 PUSH1 0x1 PUSH1 0xA0 SHL SUB PUSH32 0x0 AND SWAP3 PUSH4 0xFEB52AF5 SWAP3 PUSH2 0xD33 SWAP3 PUSH1 0x4 ADD PUSH2 0x2C53 JUMP JUMPDEST PUSH1 0xC0 PUSH1 0x40 MLOAD DUP1 DUP4 SUB DUP2 PUSH1 0x0 DUP8 GAS CALL ISZERO DUP1 ISZERO PUSH2 0xD52 JUMPI RETURNDATASIZE PUSH1 0x0 DUP1 RETURNDATACOPY RETURNDATASIZE PUSH1 0x0 REVERT JUMPDEST POP POP POP POP PUSH1 0x40 MLOAD RETURNDATASIZE PUSH1 0x1F NOT PUSH1 0x1F DUP3 ADD AND DUP3 ADD DUP1 PUSH1 0x40 MSTORE POP DUP2 ADD SWAP1 PUSH2 0xD76 SWAP2 SWAP1 PUSH2 0x2CA2 JUMP JUMPDEST SWAP1 POP PUSH1 0x1 JUMPDEST DUP4 DUP2 LT ISZERO PUSH2 0xED7 JUMPI PUSH1 0x0 PUSH32 0x0 PUSH1 0x1 PUSH1 0x1 PUSH1 0xA0 SHL SUB AND PUSH4 0xFEB52AF5 DUP8 DUP8 DUP6 DUP2 DUP2 LT PUSH2 0xDC6 JUMPI PUSH2 0xDC6 PUSH2 0x2A9E JUMP JUMPDEST SWAP1 POP PUSH1 0x20 MUL DUP2 ADD SWAP1 PUSH2 0xDD8 SWAP2 SWAP1 PUSH2 0x2B86 JUMP JUMPDEST PUSH2 0xDE6 SWAP1 PUSH1 0x20 DUP2 ADD SWAP1 PUSH2 0x2D42 JUMP JUMPDEST DUP9 DUP9 DUP7 DUP2 DUP2 LT PUSH2 0xDF8 JUMPI PUSH2 0xDF8 PUSH2 0x2A9E JUMP JUMPDEST SWAP1 POP PUSH1 0x20 MUL DUP2 ADD SWAP1 PUSH2 0xE0A SWAP2 SWAP1 PUSH2 0x2B86 JUMP JUMPDEST PUSH2 0xE18 SWAP1 PUSH1 0x20 DUP2 ADD SWAP1 PUSH2 0x2D5F JUMP JUMPDEST PUSH1 0x40 MLOAD DUP5 PUSH4 0xFFFFFFFF AND PUSH1 0xE0 SHL DUP2 MSTORE PUSH1 0x4 ADD PUSH2 0xE36 SWAP4 SWAP3 SWAP2 SWAP1 PUSH2 0x2DCE JUMP JUMPDEST PUSH1 0xC0 PUSH1 0x40 MLOAD DUP1 DUP4 SUB DUP2 PUSH1 0x0 DUP8 GAS CALL ISZERO DUP1 ISZERO PUSH2 0xE55 JUMPI RETURNDATASIZE PUSH1 0x0 DUP1 RETURNDATACOPY RETURNDATASIZE PUSH1 0x0 REVERT JUMPDEST POP POP POP POP PUSH1 0x40 MLOAD RETURNDATASIZE PUSH1 0x1F NOT PUSH1 0x1F DUP3 ADD AND DUP3 ADD DUP1 PUSH1 0x40 MSTORE POP DUP2 ADD SWAP1 PUSH2 0xE79 SWAP2 SWAP1 PUSH2 0x2CA2 JUMP JUMPDEST SWAP1 POP DUP3 PUSH1 0xA0 ADD MLOAD PUSH1 0xFF AND DUP2 PUSH1 0xA0 ADD MLOAD PUSH1 0xFF AND GT ISZERO PUSH2 0xEC4 JUMPI DUP6 DUP6 DUP4 DUP2 DUP2 LT PUSH2 0xEA3 JUMPI PUSH2 0xEA3 PUSH2 0x2A9E JUMP JUMPDEST SWAP1 POP PUSH1 0x20 MUL DUP2 ADD SWAP1 PUSH2 0xEB5 SWAP2 SWAP1 PUSH2 0x2B86 JUMP JUMPDEST PUSH2 0xEBE SWAP1 PUSH2 0x2BA6 JUMP JUMPDEST SWAP4 POP DUP1 SWAP3 POP JUMPDEST POP DUP1 PUSH2 0xECF DUP2 PUSH2 0x2AF0 JUMP JUMPDEST SWAP2 POP POP PUSH2 0xD7B JUMP JUMPDEST POP PUSH1 0x1 DUP1 ADD SLOAD PUSH32 0x0 PUSH1 0x1 PUSH1 0x1 PUSH1 0xA0 SHL SUB AND PUSH4 0x55C31B3A PUSH1 0x40 MLOAD DUP2 PUSH4 0xFFFFFFFF AND PUSH1 0xE0 SHL DUP2 MSTORE PUSH1 0x4 ADD PUSH1 0x20 PUSH1 0x40 MLOAD DUP1 DUP4 SUB DUP2 DUP7 GAS STATICCALL ISZERO DUP1 ISZERO PUSH2 0xF3B JUMPI RETURNDATASIZE PUSH1 0x0 DUP1 RETURNDATACOPY RETURNDATASIZE PUSH1 0x0 REVERT JUMPDEST POP POP POP POP PUSH1 0x40 MLOAD RETURNDATASIZE PUSH1 0x1F NOT PUSH1 0x1F DUP3 ADD AND DUP3 ADD DUP1 PUSH1 0x40 MSTORE POP DUP2 ADD SWAP1 PUSH2 0xF5F SWAP2 SWAP1 PUSH2 0x2DF3 JUMP JUMPDEST GT DUP1 ISZERO PUSH2 0xF78 JUMPI POP PUSH1 0x1 SLOAD PUSH1 0xA0 DUP3 ADD MLOAD PUSH1 0xFF SWAP2 DUP3 AND SWAP2 AND GT JUMPDEST ISZERO PUSH2 0xFF4 JUMPI PUSH1 0x3 SLOAD PUSH1 0x20 DUP4 ADD MLOAD PUSH1 0x40 MLOAD PUSH4 0xC87FA53 PUSH1 0xE2 SHL DUP2 MSTORE PUSH1 0x1 PUSH1 0x1 PUSH1 0xA0 SHL SUB SWAP1 SWAP3 AND SWAP2 PUSH4 0x321FE94C SWAP2 PUSH2 0xFB0 SWAP2 PUSH1 0x4 ADD PUSH2 0x2E0C JUMP JUMPDEST PUSH1 0xC0 PUSH1 0x40 MLOAD DUP1 DUP4 SUB DUP2 DUP7 GAS STATICCALL ISZERO DUP1 ISZERO PUSH2 0xFCD JUMPI RETURNDATASIZE PUSH1 0x0 DUP1 RETURNDATACOPY RETURNDATASIZE PUSH1 0x0 REVERT JUMPDEST POP POP POP POP PUSH1 0x40 MLOAD RETURNDATASIZE PUSH1 0x1F NOT PUSH1 0x1F DUP3 ADD AND DUP3 ADD DUP1 PUSH1 0x40 MSTORE POP DUP2 ADD SWAP1 PUSH2 0xFF1 SWAP2 SWAP1 PUSH2 0x2CA2 JUMP JUMPDEST SWAP1 POP JUMPDEST PUSH1 0x0 PUSH1 0x1 PUSH1 0x1 PUSH1 0xA0 SHL SUB PUSH32 0x0 AND PUSH4 0x8FF400F4 CALLER PUSH2 0x1031 PUSH1 0x1 TIMESTAMP PUSH2 0x2ACA JUMP JUMPDEST PUSH1 0x40 MLOAD PUSH1 0x1 PUSH1 0x1 PUSH1 0xE0 SHL SUB NOT PUSH1 0xE0 DUP6 SWAP1 SHL AND DUP2 MSTORE PUSH1 0x1 PUSH1 0x1 PUSH1 0xA0 SHL SUB SWAP1 SWAP3 AND PUSH1 0x4 DUP4 ADD MSTORE PUSH1 0x24 DUP3 ADD MSTORE PUSH1 0x44 ADD PUSH1 0x0 PUSH1 0x40 MLOAD DUP1 DUP4 SUB DUP2 DUP7 GAS STATICCALL ISZERO DUP1 ISZERO PUSH2 0x107A JUMPI RETURNDATASIZE PUSH1 0x0 DUP1 RETURNDATACOPY RETURNDATASIZE PUSH1 0x0 REVERT JUMPDEST POP POP POP POP PUSH1 0x40 MLOAD RETURNDATASIZE PUSH1 0x0 DUP3 RETURNDATACOPY PUSH1 0x1F RETURNDATASIZE SWAP1 DUP2 ADD PUSH1 0x1F NOT AND DUP3 ADD PUSH1 0x40 MSTORE PUSH2 0x10A2 SWAP2 SWAP1 DUP2 ADD SWAP1 PUSH2 0x29E6 JUMP JUMPDEST SWAP1 POP PUSH1 0x0 PUSH32 0x0 PUSH1 0x1 PUSH1 0x1 PUSH1 0xA0 SHL SUB AND PUSH4 0x3BEF7ABB DUP4 PUSH1 0x40 MLOAD DUP3 PUSH4 0xFFFFFFFF AND PUSH1 0xE0 SHL DUP2 MSTORE PUSH1 0x4 ADD PUSH2 0x10F2 SWAP2 SWAP1 PUSH2 0x2E1F JUMP JUMPDEST PUSH1 0x20 PUSH1 0x40 MLOAD DUP1 DUP4 SUB DUP2 DUP7 GAS STATICCALL ISZERO DUP1 ISZERO PUSH2 0x110F JUMPI RETURNDATASIZE PUSH1 0x0 DUP1 RETURNDATACOPY RETURNDATASIZE PUSH1 0x0 REVERT JUMPDEST POP POP POP POP PUSH1 0x40 MLOAD RETURNDATASIZE PUSH1 0x1F NOT PUSH1 0x1F DUP3 ADD AND DUP3 ADD DUP1 PUSH1 0x40 MSTORE POP DUP2 ADD SWAP1 PUSH2 0x1133 SWAP2 SWAP1 PUSH2 0x2DF3 JUMP JUMPDEST SWAP1 POP DUP3 PUSH1 0x20 ADD MLOAD PUSH1 0x1 PUSH1 0x1 PUSH1 0x40 SHL SUB AND DUP2 GT PUSH2 0x11B9 JUMPI PUSH1 0x40 DUP1 MLOAD PUSH3 0x461BCD PUSH1 0xE5 SHL DUP2 MSTORE PUSH1 0x20 PUSH1 0x4 DUP3 ADD MSTORE PUSH1 0x24 DUP2 ADD SWAP2 SWAP1 SWAP2 MSTORE PUSH32 0x70726F706F73657220646F65736E2774206861766520656E6F75676820766F74 PUSH1 0x44 DUP3 ADD MSTORE PUSH32 0x696E6720706F77657220746F2070726F706F7365207468697320616374696F6E PUSH1 0x64 DUP3 ADD MSTORE PUSH1 0x84 ADD PUSH2 0x34F JUMP JUMPDEST PUSH1 0x80 DUP4 ADD MLOAD TIMESTAMP SWAP1 PUSH1 0x0 SWAP1 PUSH2 0x11D3 SWAP1 PUSH4 0xFFFFFFFF AND DUP4 PUSH2 0x2E32 JUMP JUMPDEST SWAP1 POP PUSH1 0x0 DUP6 PUSH1 0x60 ADD MLOAD PUSH4 0xFFFFFFFF AND DUP3 PUSH2 0x11ED SWAP2 SWAP1 PUSH2 0x2E32 JUMP JUMPDEST PUSH1 0x4 SLOAD PUSH3 0xFFFFFF AND PUSH1 0x0 DUP2 DUP2 MSTORE PUSH1 0x9 PUSH1 0x20 MSTORE PUSH1 0x40 SWAP1 KECCAK256 PUSH1 0x1 DUP1 DUP3 ADD DUP1 SLOAD PUSH9 0x10000000000000000 PUSH1 0x1 PUSH1 0xF8 SHL SUB NOT AND PUSH1 0x1 PUSH1 0x40 SHL SWAP5 DUP6 MUL PUSH32 0xFF0000000000000000000000000000000000000000FFFFFFFFFFFFFFFFFFFFFF AND OR CALLER PUSH1 0x1 PUSH1 0x58 SHL MUL OR DUP1 DUP3 SSTORE DUP4 SLOAD PUSH1 0x1 PUSH1 0x1 PUSH1 0x40 SHL SUB DUP11 DUP2 AND PUSH24 0xFFFFFFFFFFFFFFFF0000000000000000FFFFFFFFFFFFFFFF NOT SWAP1 SWAP3 AND SWAP2 SWAP1 SWAP2 OR PUSH1 0x1 PUSH1 0x80 SHL DUP11 DUP4 AND MUL OR PUSH16 0xFFFFFFFFFFFFFFFF0000000000000000 NOT AND SWAP1 DUP8 AND SWAP1 SWAP6 MUL SWAP5 SWAP1 SWAP5 OR DUP4 SSTORE SWAP4 SWAP5 POP SWAP1 SWAP3 SWAP1 SWAP2 PUSH1 0x1 PUSH1 0x1 PUSH1 0xF8 SHL SUB AND PUSH1 0x1 PUSH1 0xF8 SHL DUP4 MUL OR SWAP1 SSTORE POP DUP7 MLOAD PUSH1 0x1 DUP3 ADD DUP1 SLOAD PUSH8 0xFFFFFFFFFFFFFFFF NOT AND PUSH1 0x1 PUSH1 0x1 PUSH1 0x40 SHL SUB SWAP3 DUP4 AND OR SWAP1 SSTORE PUSH1 0x40 DUP9 ADD MLOAD DUP3 SLOAD PUSH1 0x1 PUSH1 0x1 PUSH1 0xC0 SHL SUB AND PUSH1 0x1 PUSH1 0xC0 SHL SWAP2 SWAP1 SWAP3 AND MUL OR DUP2 SSTORE PUSH1 0x0 JUMPDEST DUP10 DUP2 LT ISZERO PUSH2 0x136C JUMPI DUP2 PUSH1 0x2 ADD DUP12 DUP12 DUP4 DUP2 DUP2 LT PUSH2 0x1323 JUMPI PUSH2 0x1323 PUSH2 0x2A9E JUMP JUMPDEST SWAP1 POP PUSH1 0x20 MUL DUP2 ADD SWAP1 PUSH2 0x1335 SWAP2 SWAP1 PUSH2 0x2B86 JUMP JUMPDEST DUP2 SLOAD PUSH1 0x1 DUP2 ADD DUP4 SSTORE PUSH1 0x0 SWAP3 DUP4 MSTORE PUSH1 0x20 SWAP1 SWAP3 KECCAK256 SWAP1 SWAP2 PUSH1 0x2 MUL ADD PUSH2 0x1357 DUP3 DUP3 PUSH2 0x2EA0 JUMP JUMPDEST POP POP DUP1 DUP1 PUSH2 0x1364 SWAP1 PUSH2 0x2AF0 JUMP JUMPDEST SWAP2 POP POP PUSH2 0x1305 JUMP JUMPDEST POP PUSH1 0x1 DUP2 ADD SLOAD PUSH1 0x1 PUSH1 0x40 SHL SWAP1 DIV PUSH3 0xFFFFFF AND PUSH1 0x0 SWAP1 DUP2 MSTORE PUSH1 0xA PUSH1 0x20 MSTORE PUSH1 0x40 DUP1 DUP3 KECCAK256 DUP2 MLOAD PUSH4 0x151F92D3 PUSH1 0xE0 SHL DUP2 MSTORE SWAP2 MLOAD PUSH2 0x141F SWAP4 SWAP2 SWAP3 PUSH32 0x0 PUSH1 0x1 PUSH1 0x1 PUSH1 0xA0 SHL SUB AND SWAP3 PUSH4 0x151F92D3 SWAP3 PUSH1 0x4 DUP1 DUP5 ADD SWAP4 DUP3 SWAP1 SUB ADD DUP2 DUP7 GAS STATICCALL ISZERO DUP1 ISZERO PUSH2 0x13F1 JUMPI RETURNDATASIZE PUSH1 0x0 DUP1 RETURNDATACOPY RETURNDATASIZE PUSH1 0x0 REVERT JUMPDEST POP POP POP POP PUSH1 0x40 MLOAD RETURNDATASIZE PUSH1 0x0 DUP3 RETURNDATACOPY PUSH1 0x1F RETURNDATASIZE SWAP1 DUP2 ADD PUSH1 0x1F NOT AND DUP3 ADD PUSH1 0x40 MSTORE PUSH2 0x1419 SWAP2 SWAP1 DUP2 ADD SWAP1 PUSH2 0x2FBB JUMP JUMPDEST SWAP1 PUSH2 0x1DA6 JUMP JUMPDEST DUP1 PUSH1 0x1 ADD PUSH1 0x8 SWAP1 SLOAD SWAP1 PUSH2 0x100 EXP SWAP1 DIV PUSH3 0xFFFFFF AND PUSH1 0x1 PUSH2 0x143F SWAP2 SWAP1 PUSH2 0x3081 JUMP JUMPDEST PUSH1 0x4 DUP1 SLOAD PUSH3 0xFFFFFF NOT AND PUSH3 0xFFFFFF SWAP3 SWAP1 SWAP3 AND SWAP2 SWAP1 SWAP2 OR SWAP1 SSTORE PUSH1 0x1 DUP2 ADD SLOAD PUSH2 0x147C SWAP1 PUSH1 0x5 SWAP1 PUSH1 0x1 PUSH1 0x40 SHL SWAP1 DIV PUSH1 0xE8 SHL PUSH1 0x1 PUSH1 0x1 PUSH1 0xE8 SHL SUB NOT AND PUSH2 0x1E7D JUMP JUMPDEST POP PUSH1 0x1 DUP2 ADD SLOAD PUSH1 0x40 MLOAD PUSH1 0x1 PUSH1 0x40 SHL DUP3 DIV PUSH3 0xFFFFFF AND SWAP2 PUSH32 0xE396C3447C45C285122F4831AA414B32F050697412693874B3D76915CB32D5BD SWAP2 PUSH2 0x14D2 SWAP2 PUSH1 0x1 PUSH1 0x58 SHL SWAP1 DIV PUSH1 0x1 PUSH1 0x1 PUSH1 0xA0 SHL SUB AND SWAP1 DUP15 SWAP1 DUP15 SWAP1 PUSH2 0x309D JUMP JUMPDEST PUSH1 0x40 MLOAD DUP1 SWAP2 SUB SWAP1 LOG2 POP POP POP POP POP POP POP POP POP POP JUMP JUMPDEST PUSH3 0xFFFFFF DUP2 AND PUSH1 0x0 SWAP1 DUP2 MSTORE PUSH1 0x9 PUSH1 0x20 MSTORE PUSH1 0x40 DUP2 KECCAK256 DUP1 SLOAD SWAP1 SWAP2 PUSH1 0x1 PUSH1 0x1 PUSH1 0x40 SHL SUB SWAP1 SWAP2 AND SWAP1 SUB PUSH2 0x1527 JUMPI PUSH1 0x40 MLOAD PUSH3 0x461BCD PUSH1 0xE5 SHL DUP2 MSTORE PUSH1 0x4 ADD PUSH2 0x34F SWAP1 PUSH2 0x2922 JUMP JUMPDEST PUSH2 0x1540 PUSH1 0x5 PUSH1 0x1 PUSH1 0x1 PUSH1 0xE8 SHL SUB NOT PUSH1 0xE8 DUP6 SWAP1 SHL AND PUSH2 0x1981 JUMP JUMPDEST PUSH2 0x158C JUMPI PUSH1 0x40 MLOAD PUSH3 0x461BCD PUSH1 0xE5 SHL DUP2 MSTORE PUSH1 0x20 PUSH1 0x4 DUP3 ADD DUP2 SWAP1 MSTORE PUSH1 0x24 DUP3 ADD MSTORE PUSH32 0x70726F706F73616C206973206E6F742063757272656E746C7920616374697665 PUSH1 0x44 DUP3 ADD MSTORE PUSH1 0x64 ADD PUSH2 0x34F JUMP JUMPDEST DUP1 SLOAD PUSH1 0x1 PUSH1 0x1 PUSH1 0x40 SHL SUB PUSH1 0x1 PUSH1 0x80 SHL SWAP1 SWAP2 DIV DUP2 AND TIMESTAMP SWAP1 SWAP2 AND GT PUSH2 0x15FD JUMPI PUSH1 0x40 MLOAD PUSH3 0x461BCD PUSH1 0xE5 SHL DUP2 MSTORE PUSH1 0x20 PUSH1 0x4 DUP3 ADD MSTORE PUSH1 0x23 PUSH1 0x24 DUP3 ADD MSTORE PUSH32 0x766F74696E67206973206F6E676F696E6720666F7220746869732070726F706F PUSH1 0x44 DUP3 ADD MSTORE PUSH3 0x1CD85B PUSH1 0xEA SHL PUSH1 0x64 DUP3 ADD MSTORE PUSH1 0x84 ADD PUSH2 0x34F JUMP JUMPDEST PUSH1 0x0 DUP1 PUSH1 0x0 PUSH2 0x160B DUP5 PUSH2 0x19B7 JUMP JUMPDEST SWAP2 SWAP5 POP SWAP3 POP SWAP1 POP PUSH1 0x0 DUP2 PUSH2 0x161F DUP5 DUP7 PUSH2 0x2ADD JUMP JUMPDEST PUSH2 0x1629 SWAP2 SWAP1 PUSH2 0x2ADD JUMP JUMPDEST PUSH1 0x1 DUP7 ADD SLOAD SWAP1 SWAP2 POP PUSH1 0x1 PUSH1 0x1 PUSH1 0x40 SHL SUB AND DUP2 LT ISZERO PUSH2 0x16CB JUMPI PUSH1 0x1 DUP6 ADD DUP1 SLOAD PUSH1 0x1 PUSH1 0x1 PUSH1 0xF8 SHL SUB AND PUSH1 0x1 PUSH1 0xF9 SHL OR SWAP1 SSTORE PUSH2 0x1671 PUSH1 0x5 PUSH1 0x1 PUSH1 0x1 PUSH1 0xE8 SHL SUB NOT PUSH1 0xE8 DUP10 SWAP1 SHL AND PUSH2 0x19AB JUMP JUMPDEST POP DUP6 PUSH3 0xFFFFFF AND PUSH32 0x2A493178B5A20A5F25BA24FF7EC6EF19AB4E15E87B2D33FD2E7C1AE3655BB52F DUP7 PUSH1 0x1 ADD PUSH1 0x1F SWAP1 SLOAD SWAP1 PUSH2 0x100 EXP SWAP1 DIV PUSH1 0xFF AND PUSH1 0x1 PUSH1 0x40 MLOAD PUSH2 0x16BB SWAP3 SWAP2 SWAP1 PUSH2 0x317C JUMP JUMPDEST PUSH1 0x40 MLOAD DUP1 SWAP2 SUB SWAP1 LOG2 POP POP POP POP POP POP JUMP JUMPDEST PUSH1 0x0 DUP1 PUSH2 0x16D8 DUP6 DUP8 PUSH2 0x2ADD JUMP JUMPDEST GT ISZERO PUSH2 0x16F5 JUMPI PUSH2 0x16F2 PUSH2 0x16EB DUP6 DUP8 PUSH2 0x2ADD JUMP JUMPDEST DUP7 SWAP1 PUSH2 0x1E89 JUMP JUMPDEST SWAP1 POP JUMPDEST DUP6 SLOAD PUSH1 0x0 SWAP1 PUSH1 0x1 PUSH1 0xC0 SHL SWAP1 DIV PUSH1 0x1 PUSH1 0x1 PUSH1 0x40 SHL SUB AND DUP3 GT ISZERO PUSH2 0x174A JUMPI POP PUSH1 0x1 DUP7 ADD DUP1 SLOAD PUSH1 0x1 PUSH1 0x1 PUSH1 0xF8 SHL SUB AND PUSH1 0x3 PUSH1 0xF8 SHL OR SWAP1 SSTORE PUSH1 0x3 PUSH2 0x1744 PUSH1 0x7 PUSH1 0x1 PUSH1 0x1 PUSH1 0xE8 SHL SUB NOT PUSH1 0xE8 DUP12 SWAP1 SHL AND PUSH2 0x1E7D JUMP JUMPDEST POP PUSH2 0x1765 JUMP JUMPDEST POP PUSH1 0x1 DUP7 ADD DUP1 SLOAD PUSH1 0x1 PUSH1 0x1 PUSH1 0xF8 SHL SUB AND PUSH1 0x1 PUSH1 0xF9 SHL OR SWAP1 SSTORE PUSH1 0x2 JUMPDEST PUSH2 0x177E PUSH1 0x5 PUSH1 0x1 PUSH1 0x1 PUSH1 0xE8 SHL SUB NOT PUSH1 0xE8 DUP12 SWAP1 SHL AND PUSH2 0x19AB JUMP JUMPDEST POP PUSH1 0x1 DUP8 ADD SLOAD PUSH1 0x40 MLOAD PUSH3 0xFFFFFF DUP11 AND SWAP2 PUSH32 0x2A493178B5A20A5F25BA24FF7EC6EF19AB4E15E87B2D33FD2E7C1AE3655BB52F SWAP2 PUSH2 0x17C6 SWAP2 PUSH1 0x1 PUSH1 0xF8 SHL SWAP1 DIV PUSH1 0xFF AND SWAP1 DUP6 SWAP1 PUSH2 0x317C JUMP JUMPDEST PUSH1 0x40 MLOAD DUP1 SWAP2 SUB SWAP1 LOG2 POP POP POP POP POP POP POP POP JUMP JUMPDEST PUSH1 0x60 PUSH2 0xC49 PUSH2 0xC44 PUSH1 0x5 PUSH2 0x1AD3 JUMP JUMPDEST DUP1 MLOAD PUSH1 0x60 SWAP1 PUSH1 0x0 DUP2 PUSH1 0x1 PUSH1 0x1 PUSH1 0x40 SHL SUB DUP2 GT ISZERO PUSH2 0x1806 JUMPI PUSH2 0x1806 PUSH2 0x248E JUMP JUMPDEST PUSH1 0x40 MLOAD SWAP1 DUP1 DUP3 MSTORE DUP1 PUSH1 0x20 MUL PUSH1 0x20 ADD DUP3 ADD PUSH1 0x40 MSTORE DUP1 ISZERO PUSH2 0x182F JUMPI DUP2 PUSH1 0x20 ADD PUSH1 0x20 DUP3 MUL DUP1 CALLDATASIZE DUP4 CALLDATACOPY ADD SWAP1 POP JUMPDEST POP SWAP1 POP PUSH1 0x0 JUMPDEST DUP3 DUP2 LT ISZERO PUSH2 0x1897 JUMPI DUP5 DUP2 DUP2 MLOAD DUP2 LT PUSH2 0x184F JUMPI PUSH2 0x184F PUSH2 0x2A9E JUMP JUMPDEST PUSH1 0x20 MUL PUSH1 0x20 ADD ADD MLOAD PUSH1 0x0 ADD MLOAD DUP3 DUP3 DUP2 MLOAD DUP2 LT PUSH2 0x186D JUMPI PUSH2 0x186D PUSH2 0x2A9E JUMP JUMPDEST PUSH1 0x1 PUSH1 0x1 PUSH1 0xA0 SHL SUB SWAP1 SWAP3 AND PUSH1 0x20 SWAP3 DUP4 MUL SWAP2 SWAP1 SWAP2 ADD SWAP1 SWAP2 ADD MSTORE DUP1 PUSH2 0x188F DUP2 PUSH2 0x2AF0 JUMP JUMPDEST SWAP2 POP POP PUSH2 0x1835 JUMP JUMPDEST POP SWAP4 SWAP3 POP POP POP JUMP JUMPDEST PUSH1 0x0 DUP1 DUP1 DUP1 PUSH2 0x18B7 DUP7 PUSH1 0x1 PUSH1 0x1 PUSH1 0xA0 SHL SUB DUP8 AND PUSH2 0x1EA8 JUMP JUMPDEST SWAP1 SWAP5 POP SWAP3 POP POP POP JUMPDEST SWAP3 POP SWAP3 SWAP1 POP JUMP JUMPDEST PUSH1 0x0 PUSH2 0x18DC DUP5 PUSH1 0x1 PUSH1 0x1 PUSH1 0xA0 SHL SUB DUP6 AND DUP5 PUSH2 0x1EE2 JUMP JUMPDEST SWAP5 SWAP4 POP POP POP POP JUMP JUMPDEST PUSH2 0x1908 PUSH1 0x40 MLOAD DUP1 PUSH1 0x60 ADD PUSH1 0x40 MSTORE DUP1 PUSH1 0x60 DUP2 MSTORE PUSH1 0x20 ADD PUSH1 0x60 DUP2 MSTORE PUSH1 0x20 ADD PUSH1 0x60 DUP2 MSTORE POP SWAP1 JUMP JUMPDEST PUSH1 0x1 PUSH1 0x0 SWAP1 DUP2 MSTORE PUSH1 0x20 DUP4 SWAP1 MSTORE PUSH1 0x40 DUP2 KECCAK256 SWAP1 PUSH2 0x1922 DUP3 PUSH2 0x1EFF JUMP JUMPDEST PUSH1 0x2 PUSH1 0x0 SWAP1 DUP2 MSTORE PUSH1 0x20 DUP7 SWAP1 MSTORE PUSH1 0x40 DUP2 KECCAK256 SWAP2 SWAP3 POP PUSH2 0x193E DUP3 PUSH2 0x1EFF JUMP JUMPDEST PUSH1 0x3 PUSH1 0x0 SWAP1 DUP2 MSTORE PUSH1 0x20 DUP9 SWAP1 MSTORE PUSH1 0x40 DUP2 KECCAK256 SWAP2 SWAP3 POP PUSH2 0x195A DUP3 PUSH2 0x1EFF JUMP JUMPDEST PUSH1 0x40 DUP1 MLOAD PUSH1 0x60 DUP2 ADD DUP3 MSTORE SWAP7 DUP8 MSTORE PUSH1 0x20 DUP8 ADD SWAP5 SWAP1 SWAP5 MSTORE SWAP3 DUP6 ADD SWAP3 SWAP1 SWAP3 MSTORE POP SWAP2 SWAP6 SWAP5 POP POP POP POP POP JUMP JUMPDEST PUSH1 0x0 DUP2 DUP2 MSTORE PUSH1 0x1 DUP4 ADD PUSH1 0x20 MSTORE PUSH1 0x40 DUP2 KECCAK256 SLOAD ISZERO ISZERO JUMPDEST SWAP4 SWAP3 POP POP POP JUMP JUMPDEST PUSH1 0x60 PUSH2 0x18DC DUP5 DUP5 PUSH1 0x0 DUP6 PUSH2 0x1FE6 JUMP JUMPDEST PUSH1 0x0 PUSH2 0x1995 DUP4 DUP4 PUSH2 0x20C1 JUMP JUMPDEST PUSH1 0x1 DUP2 ADD SLOAD PUSH1 0x1 PUSH1 0x40 SHL SWAP1 DIV PUSH3 0xFFFFFF AND PUSH1 0x0 SWAP1 DUP2 MSTORE PUSH1 0xA PUSH1 0x20 SWAP1 DUP2 MSTORE PUSH1 0x40 DUP1 DUP4 KECCAK256 DUP1 SLOAD DUP3 MLOAD DUP2 DUP6 MUL DUP2 ADD DUP6 ADD SWAP1 SWAP4 MSTORE DUP1 DUP4 MSTORE DUP5 SWAP4 DUP5 SWAP4 DUP5 SWAP4 SWAP1 SWAP3 SWAP1 SWAP2 DUP5 SWAP1 DUP5 ADD JUMPDEST DUP3 DUP3 LT ISZERO PUSH2 0x1A4E JUMPI PUSH1 0x0 DUP5 DUP2 MSTORE PUSH1 0x20 SWAP1 DUP2 SWAP1 KECCAK256 PUSH1 0x40 DUP1 MLOAD PUSH1 0x60 DUP2 ADD DUP3 MSTORE PUSH1 0x3 DUP7 MUL SWAP1 SWAP3 ADD DUP1 SLOAD PUSH1 0x1 PUSH1 0x1 PUSH1 0xA0 SHL SUB AND DUP4 MSTORE PUSH1 0x1 DUP1 DUP3 ADD SLOAD DUP5 DUP7 ADD MSTORE PUSH1 0x2 SWAP1 SWAP2 ADD SLOAD SWAP2 DUP4 ADD SWAP2 SWAP1 SWAP2 MSTORE SWAP1 DUP4 MSTORE SWAP1 SWAP3 ADD SWAP2 ADD PUSH2 0x19F9 JUMP JUMPDEST POP POP POP PUSH1 0x1 DUP1 DUP9 ADD SLOAD PUSH3 0xFFFFFF PUSH1 0x1 PUSH1 0x40 SHL SWAP1 SWAP2 DIV AND PUSH1 0x0 SWAP1 DUP2 MSTORE PUSH1 0xC PUSH1 0x20 MSTORE PUSH1 0x40 DUP2 KECCAK256 SWAP4 SWAP5 POP PUSH2 0x1AAB SWAP3 POP DUP4 SWAP2 JUMPDEST PUSH1 0x3 DUP2 GT ISZERO PUSH2 0x1A8E JUMPI PUSH2 0x1A8E PUSH2 0x267E JUMP JUMPDEST DUP2 MSTORE PUSH1 0x20 ADD SWAP1 DUP2 MSTORE PUSH1 0x20 ADD PUSH1 0x0 KECCAK256 DUP4 PUSH2 0x21B4 SWAP1 SWAP2 SWAP1 PUSH4 0xFFFFFFFF AND JUMP JUMPDEST SWAP5 POP PUSH2 0x1ABA DUP2 PUSH1 0x0 PUSH1 0x2 PUSH2 0x1A7D JUMP JUMPDEST SWAP4 POP PUSH2 0x1AC9 DUP2 PUSH1 0x0 PUSH1 0x3 PUSH2 0x1A7D JUMP JUMPDEST SWAP5 SWAP7 SWAP4 SWAP6 POP POP POP POP JUMP JUMPDEST PUSH1 0x60 PUSH1 0x0 PUSH2 0x1995 DUP4 PUSH2 0x2241 JUMP JUMPDEST DUP1 MLOAD PUSH1 0x60 SWAP1 PUSH1 0x0 DUP2 PUSH1 0x1 PUSH1 0x1 PUSH1 0x40 SHL SUB DUP2 GT ISZERO PUSH2 0x1AFF JUMPI PUSH2 0x1AFF PUSH2 0x248E JUMP JUMPDEST PUSH1 0x40 MLOAD SWAP1 DUP1 DUP3 MSTORE DUP1 PUSH1 0x20 MUL PUSH1 0x20 ADD DUP3 ADD PUSH1 0x40 MSTORE DUP1 ISZERO PUSH2 0x1B7F JUMPI DUP2 PUSH1 0x20 ADD JUMPDEST PUSH2 0x1B6C PUSH1 0x40 DUP1 MLOAD PUSH2 0x120 DUP2 ADD DUP3 MSTORE PUSH1 0x0 DUP1 DUP3 MSTORE PUSH1 0x20 DUP3 ADD DUP2 SWAP1 MSTORE SWAP2 DUP2 ADD DUP3 SWAP1 MSTORE PUSH1 0x60 DUP2 ADD DUP3 SWAP1 MSTORE PUSH1 0x80 DUP2 ADD DUP3 SWAP1 MSTORE PUSH1 0xA0 DUP2 ADD DUP3 SWAP1 MSTORE PUSH1 0xC0 DUP2 ADD DUP3 SWAP1 MSTORE SWAP1 PUSH1 0xE0 DUP3 ADD SWAP1 DUP2 MSTORE PUSH1 0x20 ADD PUSH1 0x60 DUP2 MSTORE POP SWAP1 JUMP JUMPDEST DUP2 MSTORE PUSH1 0x20 ADD SWAP1 PUSH1 0x1 SWAP1 SUB SWAP1 DUP2 PUSH2 0x1B1D JUMPI SWAP1 POP JUMPDEST POP SWAP1 POP PUSH1 0x0 JUMPDEST DUP3 DUP2 LT ISZERO PUSH2 0x1897 JUMPI PUSH1 0x9 PUSH1 0x0 DUP7 DUP4 DUP2 MLOAD DUP2 LT PUSH2 0x1BA3 JUMPI PUSH2 0x1BA3 PUSH2 0x2A9E JUMP JUMPDEST PUSH1 0x20 SWAP1 DUP2 MUL SWAP2 SWAP1 SWAP2 ADD DUP2 ADD MLOAD PUSH1 0xE8 SHR DUP3 MSTORE DUP2 DUP2 ADD SWAP3 SWAP1 SWAP3 MSTORE PUSH1 0x40 SWAP1 DUP2 ADD PUSH1 0x0 KECCAK256 DUP2 MLOAD PUSH2 0x120 DUP2 ADD DUP4 MSTORE DUP2 SLOAD PUSH1 0x1 PUSH1 0x1 PUSH1 0x40 SHL SUB DUP1 DUP3 AND DUP4 MSTORE PUSH1 0x1 PUSH1 0x40 SHL DUP1 DUP4 DIV DUP3 AND SWAP7 DUP5 ADD SWAP7 SWAP1 SWAP7 MSTORE PUSH1 0x1 PUSH1 0x80 SHL DUP3 DIV DUP2 AND SWAP5 DUP4 ADD SWAP5 SWAP1 SWAP5 MSTORE PUSH1 0x1 PUSH1 0xC0 SHL SWAP1 DIV DUP4 AND PUSH1 0x60 DUP3 ADD MSTORE PUSH1 0x1 DUP3 ADD SLOAD SWAP3 DUP4 AND PUSH1 0x80 DUP3 ADD MSTORE SWAP3 DUP3 DIV PUSH3 0xFFFFFF AND PUSH1 0xA0 DUP5 ADD MSTORE PUSH1 0x1 PUSH1 0x1 PUSH1 0xA0 SHL SUB PUSH1 0x1 PUSH1 0x58 SHL DUP4 DIV AND PUSH1 0xC0 DUP5 ADD MSTORE SWAP1 PUSH1 0xE0 DUP4 ADD SWAP1 PUSH1 0xFF PUSH1 0x1 PUSH1 0xF8 SHL SWAP1 SWAP2 DIV AND PUSH1 0x4 DUP2 GT ISZERO PUSH2 0x1C5B JUMPI PUSH2 0x1C5B PUSH2 0x267E JUMP JUMPDEST PUSH1 0x4 DUP2 GT ISZERO PUSH2 0x1C6C JUMPI PUSH2 0x1C6C PUSH2 0x267E JUMP JUMPDEST DUP2 MSTORE PUSH1 0x20 ADD PUSH1 0x2 DUP3 ADD DUP1 SLOAD DUP1 PUSH1 0x20 MUL PUSH1 0x20 ADD PUSH1 0x40 MLOAD SWAP1 DUP2 ADD PUSH1 0x40 MSTORE DUP1 SWAP3 SWAP2 SWAP1 DUP2 DUP2 MSTORE PUSH1 0x20 ADD PUSH1 0x0 SWAP1 JUMPDEST DUP3 DUP3 LT ISZERO PUSH2 0x1D6E JUMPI PUSH1 0x0 DUP5 DUP2 MSTORE PUSH1 0x20 SWAP1 DUP2 SWAP1 KECCAK256 PUSH1 0x40 DUP1 MLOAD DUP1 DUP3 ADD SWAP1 SWAP2 MSTORE PUSH1 0x2 DUP6 MUL SWAP1 SWAP2 ADD DUP1 SLOAD PUSH1 0x1 PUSH1 0x1 PUSH1 0xA0 SHL SUB AND DUP3 MSTORE PUSH1 0x1 DUP2 ADD DUP1 SLOAD SWAP3 SWAP4 SWAP2 SWAP3 SWAP2 DUP5 ADD SWAP2 PUSH2 0x1CDD SWAP1 PUSH2 0x2B4C JUMP JUMPDEST DUP1 PUSH1 0x1F ADD PUSH1 0x20 DUP1 SWAP2 DIV MUL PUSH1 0x20 ADD PUSH1 0x40 MLOAD SWAP1 DUP2 ADD PUSH1 0x40 MSTORE DUP1 SWAP3 SWAP2 SWAP1 DUP2 DUP2 MSTORE PUSH1 0x20 ADD DUP3 DUP1 SLOAD PUSH2 0x1D09 SWAP1 PUSH2 0x2B4C JUMP JUMPDEST DUP1 ISZERO PUSH2 0x1D56 JUMPI DUP1 PUSH1 0x1F LT PUSH2 0x1D2B JUMPI PUSH2 0x100 DUP1 DUP4 SLOAD DIV MUL DUP4 MSTORE SWAP2 PUSH1 0x20 ADD SWAP2 PUSH2 0x1D56 JUMP JUMPDEST DUP3 ADD SWAP2 SWAP1 PUSH1 0x0 MSTORE PUSH1 0x20 PUSH1 0x0 KECCAK256 SWAP1 JUMPDEST DUP2 SLOAD DUP2 MSTORE SWAP1 PUSH1 0x1 ADD SWAP1 PUSH1 0x20 ADD DUP1 DUP4 GT PUSH2 0x1D39 JUMPI DUP3 SWAP1 SUB PUSH1 0x1F AND DUP3 ADD SWAP2 JUMPDEST POP POP POP POP POP DUP2 MSTORE POP POP DUP2 MSTORE PUSH1 0x20 ADD SWAP1 PUSH1 0x1 ADD SWAP1 PUSH2 0x1C95 JUMP JUMPDEST POP POP POP POP DUP2 MSTORE POP POP DUP3 DUP3 DUP2 MLOAD DUP2 LT PUSH2 0x1D88 JUMPI PUSH2 0x1D88 PUSH2 0x2A9E JUMP JUMPDEST PUSH1 0x20 MUL PUSH1 0x20 ADD ADD DUP2 SWAP1 MSTORE POP DUP1 DUP1 PUSH2 0x1D9E SWAP1 PUSH2 0x2AF0 JUMP JUMPDEST SWAP2 POP POP PUSH2 0x1B85 JUMP JUMPDEST DUP1 SLOAD ISZERO PUSH2 0x1DED JUMPI PUSH1 0x40 MLOAD PUSH3 0x461BCD PUSH1 0xE5 SHL DUP2 MSTORE PUSH1 0x20 PUSH1 0x4 DUP3 ADD MSTORE PUSH1 0x15 PUSH1 0x24 DUP3 ADD MSTORE PUSH21 0x39BA37B930B3B29036BAB9BA1031329031B632B0B7 PUSH1 0x59 SHL PUSH1 0x44 DUP3 ADD MSTORE PUSH1 0x64 ADD PUSH2 0x34F JUMP JUMPDEST PUSH1 0x0 JUMPDEST DUP3 MLOAD DUP2 LT ISZERO PUSH2 0x1E78 JUMPI DUP2 DUP4 DUP3 DUP2 MLOAD DUP2 LT PUSH2 0x1E0C JUMPI PUSH2 0x1E0C PUSH2 0x2A9E JUMP JUMPDEST PUSH1 0x20 SWAP1 DUP2 MUL SWAP2 SWAP1 SWAP2 ADD DUP2 ADD MLOAD DUP3 SLOAD PUSH1 0x1 DUP1 DUP3 ADD DUP6 SSTORE PUSH1 0x0 SWAP5 DUP6 MSTORE SWAP4 DUP4 SWAP1 KECCAK256 DUP3 MLOAD PUSH1 0x3 SWAP1 SWAP3 MUL ADD DUP1 SLOAD PUSH1 0x1 PUSH1 0x1 PUSH1 0xA0 SHL SUB NOT AND PUSH1 0x1 PUSH1 0x1 PUSH1 0xA0 SHL SUB SWAP1 SWAP3 AND SWAP2 SWAP1 SWAP2 OR DUP2 SSTORE SWAP2 DUP2 ADD MLOAD SWAP3 DUP3 ADD SWAP3 SWAP1 SWAP3 SSTORE PUSH1 0x40 SWAP1 SWAP2 ADD MLOAD PUSH1 0x2 SWAP1 SWAP2 ADD SSTORE DUP1 PUSH2 0x1E70 DUP2 PUSH2 0x2AF0 JUMP JUMPDEST SWAP2 POP POP PUSH2 0x1DF0 JUMP JUMPDEST POP POP POP JUMP JUMPDEST PUSH1 0x0 PUSH2 0x1995 DUP4 DUP4 PUSH2 0x229D JUMP JUMPDEST PUSH1 0x0 DUP2 PUSH2 0x1E9E PUSH8 0xDE0B6B3A7640000 DUP6 PUSH2 0x31A0 JUMP JUMPDEST PUSH2 0x1995 SWAP2 SWAP1 PUSH2 0x31B7 JUMP JUMPDEST PUSH1 0x0 DUP2 DUP2 MSTORE PUSH1 0x2 DUP4 ADD PUSH1 0x20 MSTORE PUSH1 0x40 DUP2 KECCAK256 SLOAD DUP2 SWAP1 DUP1 PUSH2 0x1ED7 JUMPI PUSH2 0x1ECA DUP6 DUP6 PUSH2 0x22EC JUMP JUMPDEST SWAP3 POP PUSH1 0x0 SWAP2 POP PUSH2 0x18BF SWAP1 POP JUMP JUMPDEST PUSH1 0x1 SWAP3 POP SWAP1 POP PUSH2 0x18BF JUMP JUMPDEST PUSH1 0x0 DUP3 DUP2 MSTORE PUSH1 0x2 DUP5 ADD PUSH1 0x20 MSTORE PUSH1 0x40 DUP2 KECCAK256 DUP3 SWAP1 SSTORE PUSH2 0x18DC DUP5 DUP5 PUSH2 0x1E7D JUMP JUMPDEST PUSH1 0x60 PUSH1 0x0 PUSH2 0x1F0C DUP4 PUSH2 0x22F8 JUMP JUMPDEST PUSH1 0x1 PUSH1 0x1 PUSH1 0x40 SHL SUB DUP2 GT ISZERO PUSH2 0x1F23 JUMPI PUSH2 0x1F23 PUSH2 0x248E JUMP JUMPDEST PUSH1 0x40 MLOAD SWAP1 DUP1 DUP3 MSTORE DUP1 PUSH1 0x20 MUL PUSH1 0x20 ADD DUP3 ADD PUSH1 0x40 MSTORE DUP1 ISZERO PUSH2 0x1F68 JUMPI DUP2 PUSH1 0x20 ADD JUMPDEST PUSH1 0x40 DUP1 MLOAD DUP1 DUP3 ADD SWAP1 SWAP2 MSTORE PUSH1 0x0 DUP1 DUP3 MSTORE PUSH1 0x20 DUP3 ADD MSTORE DUP2 MSTORE PUSH1 0x20 ADD SWAP1 PUSH1 0x1 SWAP1 SUB SWAP1 DUP2 PUSH2 0x1F41 JUMPI SWAP1 POP JUMPDEST POP SWAP1 POP PUSH1 0x0 JUMPDEST PUSH2 0x1F77 DUP5 PUSH2 0x22F8 JUMP JUMPDEST DUP2 LT ISZERO PUSH2 0x1FDF JUMPI PUSH1 0x0 DUP1 PUSH2 0x1F8B DUP7 DUP5 PUSH2 0x2303 JUMP JUMPDEST SWAP2 POP SWAP2 POP PUSH1 0x40 MLOAD DUP1 PUSH1 0x40 ADD PUSH1 0x40 MSTORE DUP1 DUP4 PUSH1 0x1 PUSH1 0x1 PUSH1 0xA0 SHL SUB AND DUP2 MSTORE PUSH1 0x20 ADD DUP3 DUP2 MSTORE POP DUP5 DUP5 DUP2 MLOAD DUP2 LT PUSH2 0x1FBF JUMPI PUSH2 0x1FBF PUSH2 0x2A9E JUMP JUMPDEST PUSH1 0x20 MUL PUSH1 0x20 ADD ADD DUP2 SWAP1 MSTORE POP POP POP DUP1 DUP1 PUSH2 0x1FD7 SWAP1 PUSH2 0x2AF0 JUMP JUMPDEST SWAP2 POP POP PUSH2 0x1F6E JUMP JUMPDEST POP SWAP3 SWAP2 POP POP JUMP JUMPDEST PUSH1 0x60 DUP3 SELFBALANCE LT ISZERO PUSH2 0x2047 JUMPI PUSH1 0x40 MLOAD PUSH3 0x461BCD PUSH1 0xE5 SHL DUP2 MSTORE PUSH1 0x20 PUSH1 0x4 DUP3 ADD MSTORE PUSH1 0x26 PUSH1 0x24 DUP3 ADD MSTORE PUSH32 0x416464726573733A20696E73756666696369656E742062616C616E636520666F PUSH1 0x44 DUP3 ADD MSTORE PUSH6 0x1C8818D85B1B PUSH1 0xD2 SHL PUSH1 0x64 DUP3 ADD MSTORE PUSH1 0x84 ADD PUSH2 0x34F JUMP JUMPDEST PUSH1 0x0 DUP1 DUP7 PUSH1 0x1 PUSH1 0x1 PUSH1 0xA0 SHL SUB AND DUP6 DUP8 PUSH1 0x40 MLOAD PUSH2 0x2063 SWAP2 SWAP1 PUSH2 0x31D9 JUMP JUMPDEST PUSH1 0x0 PUSH1 0x40 MLOAD DUP1 DUP4 SUB DUP2 DUP6 DUP8 GAS CALL SWAP3 POP POP POP RETURNDATASIZE DUP1 PUSH1 0x0 DUP2 EQ PUSH2 0x20A0 JUMPI PUSH1 0x40 MLOAD SWAP2 POP PUSH1 0x1F NOT PUSH1 0x3F RETURNDATASIZE ADD AND DUP3 ADD PUSH1 0x40 MSTORE RETURNDATASIZE DUP3 MSTORE RETURNDATASIZE PUSH1 0x0 PUSH1 0x20 DUP5 ADD RETURNDATACOPY PUSH2 0x20A5 JUMP JUMPDEST PUSH1 0x60 SWAP2 POP JUMPDEST POP SWAP2 POP SWAP2 POP PUSH2 0x20B6 DUP8 DUP4 DUP4 DUP8 PUSH2 0x2312 JUMP JUMPDEST SWAP8 SWAP7 POP POP POP POP POP POP POP JUMP JUMPDEST PUSH1 0x0 DUP2 DUP2 MSTORE PUSH1 0x1 DUP4 ADD PUSH1 0x20 MSTORE PUSH1 0x40 DUP2 KECCAK256 SLOAD DUP1 ISZERO PUSH2 0x21AA JUMPI PUSH1 0x0 PUSH2 0x20E5 PUSH1 0x1 DUP4 PUSH2 0x2ACA JUMP JUMPDEST DUP6 SLOAD SWAP1 SWAP2 POP PUSH1 0x0 SWAP1 PUSH2 0x20F9 SWAP1 PUSH1 0x1 SWAP1 PUSH2 0x2ACA JUMP JUMPDEST SWAP1 POP DUP2 DUP2 EQ PUSH2 0x215E JUMPI PUSH1 0x0 DUP7 PUSH1 0x0 ADD DUP3 DUP2 SLOAD DUP2 LT PUSH2 0x2119 JUMPI PUSH2 0x2119 PUSH2 0x2A9E JUMP JUMPDEST SWAP1 PUSH1 0x0 MSTORE PUSH1 0x20 PUSH1 0x0 KECCAK256 ADD SLOAD SWAP1 POP DUP1 DUP8 PUSH1 0x0 ADD DUP5 DUP2 SLOAD DUP2 LT PUSH2 0x213C JUMPI PUSH2 0x213C PUSH2 0x2A9E JUMP JUMPDEST PUSH1 0x0 SWAP2 DUP3 MSTORE PUSH1 0x20 DUP1 DUP4 KECCAK256 SWAP1 SWAP2 ADD SWAP3 SWAP1 SWAP3 SSTORE SWAP2 DUP3 MSTORE PUSH1 0x1 DUP9 ADD SWAP1 MSTORE PUSH1 0x40 SWAP1 KECCAK256 DUP4 SWAP1 SSTORE JUMPDEST DUP6 SLOAD DUP7 SWAP1 DUP1 PUSH2 0x216F JUMPI PUSH2 0x216F PUSH2 0x31EB JUMP JUMPDEST PUSH1 0x1 SWAP1 SUB DUP2 DUP2 SWAP1 PUSH1 0x0 MSTORE PUSH1 0x20 PUSH1 0x0 KECCAK256 ADD PUSH1 0x0 SWAP1 SSTORE SWAP1 SSTORE DUP6 PUSH1 0x1 ADD PUSH1 0x0 DUP7 DUP2 MSTORE PUSH1 0x20 ADD SWAP1 DUP2 MSTORE PUSH1 0x20 ADD PUSH1 0x0 KECCAK256 PUSH1 0x0 SWAP1 SSTORE PUSH1 0x1 SWAP4 POP POP POP POP PUSH2 0x95B JUMP JUMPDEST PUSH1 0x0 SWAP2 POP POP PUSH2 0x95B JUMP JUMPDEST PUSH1 0x0 DUP1 JUMPDEST DUP4 MLOAD DUP2 LT ISZERO PUSH2 0x1FDF JUMPI PUSH1 0x0 DUP5 DUP3 DUP2 MLOAD DUP2 LT PUSH2 0x21D5 JUMPI PUSH2 0x21D5 PUSH2 0x2A9E JUMP JUMPDEST PUSH1 0x20 MUL PUSH1 0x20 ADD ADD MLOAD SWAP1 POP PUSH1 0x0 PUSH2 0x21F8 DUP3 PUSH1 0x0 ADD MLOAD DUP7 PUSH2 0x189F SWAP1 SWAP2 SWAP1 PUSH4 0xFFFFFFFF AND JUMP JUMPDEST SWAP2 POP POP PUSH2 0x2220 DUP3 PUSH1 0x20 ADD MLOAD PUSH2 0x221A DUP5 PUSH1 0x40 ADD MLOAD DUP5 PUSH2 0x1E89 SWAP1 SWAP2 SWAP1 PUSH4 0xFFFFFFFF AND JUMP JUMPDEST SWAP1 PUSH2 0x238B JUMP JUMPDEST PUSH2 0x222A SWAP1 DUP6 PUSH2 0x2ADD JUMP JUMPDEST SWAP4 POP POP POP DUP1 DUP1 PUSH2 0x2239 SWAP1 PUSH2 0x2AF0 JUMP JUMPDEST SWAP2 POP POP PUSH2 0x21B8 JUMP JUMPDEST PUSH1 0x60 DUP2 PUSH1 0x0 ADD DUP1 SLOAD DUP1 PUSH1 0x20 MUL PUSH1 0x20 ADD PUSH1 0x40 MLOAD SWAP1 DUP2 ADD PUSH1 0x40 MSTORE DUP1 SWAP3 SWAP2 SWAP1 DUP2 DUP2 MSTORE PUSH1 0x20 ADD DUP3 DUP1 SLOAD DUP1 ISZERO PUSH2 0x2291 JUMPI PUSH1 0x20 MUL DUP3 ADD SWAP2 SWAP1 PUSH1 0x0 MSTORE PUSH1 0x20 PUSH1 0x0 KECCAK256 SWAP1 JUMPDEST DUP2 SLOAD DUP2 MSTORE PUSH1 0x20 ADD SWAP1 PUSH1 0x1 ADD SWAP1 DUP1 DUP4 GT PUSH2 0x227D JUMPI JUMPDEST POP POP POP POP POP SWAP1 POP SWAP2 SWAP1 POP JUMP JUMPDEST PUSH1 0x0 DUP2 DUP2 MSTORE PUSH1 0x1 DUP4 ADD PUSH1 0x20 MSTORE PUSH1 0x40 DUP2 KECCAK256 SLOAD PUSH2 0x22E4 JUMPI POP DUP2 SLOAD PUSH1 0x1 DUP2 DUP2 ADD DUP5 SSTORE PUSH1 0x0 DUP5 DUP2 MSTORE PUSH1 0x20 DUP1 DUP3 KECCAK256 SWAP1 SWAP4 ADD DUP5 SWAP1 SSTORE DUP5 SLOAD DUP5 DUP3 MSTORE DUP3 DUP7 ADD SWAP1 SWAP4 MSTORE PUSH1 0x40 SWAP1 KECCAK256 SWAP2 SWAP1 SWAP2 SSTORE PUSH2 0x95B JUMP JUMPDEST POP PUSH1 0x0 PUSH2 0x95B JUMP JUMPDEST PUSH1 0x0 PUSH2 0x1995 DUP4 DUP4 PUSH2 0x1981 JUMP JUMPDEST PUSH1 0x0 PUSH2 0x95B DUP3 PUSH2 0x23A0 JUMP JUMPDEST PUSH1 0x0 DUP1 DUP1 DUP1 PUSH2 0x18B7 DUP7 DUP7 PUSH2 0x23AB JUMP JUMPDEST PUSH1 0x60 DUP4 ISZERO PUSH2 0x2381 JUMPI DUP3 MLOAD PUSH1 0x0 SUB PUSH2 0x237A JUMPI PUSH1 0x1 PUSH1 0x1 PUSH1 0xA0 SHL SUB DUP6 AND EXTCODESIZE PUSH2 0x237A JUMPI PUSH1 0x40 MLOAD PUSH3 0x461BCD PUSH1 0xE5 SHL DUP2 MSTORE PUSH1 0x20 PUSH1 0x4 DUP3 ADD MSTORE PUSH1 0x1D PUSH1 0x24 DUP3 ADD MSTORE PUSH32 0x416464726573733A2063616C6C20746F206E6F6E2D636F6E7472616374000000 PUSH1 0x44 DUP3 ADD MSTORE PUSH1 0x64 ADD PUSH2 0x34F JUMP JUMPDEST POP DUP2 PUSH2 0x18DC JUMP JUMPDEST PUSH2 0x18DC DUP4 DUP4 PUSH2 0x23D6 JUMP JUMPDEST PUSH1 0x0 PUSH8 0xDE0B6B3A7640000 PUSH2 0x1E9E DUP4 DUP6 PUSH2 0x31A0 JUMP JUMPDEST PUSH1 0x0 PUSH2 0x95B DUP3 PUSH2 0x2400 JUMP JUMPDEST PUSH1 0x0 DUP1 DUP1 PUSH2 0x23B9 DUP6 DUP6 PUSH2 0x240A JUMP JUMPDEST PUSH1 0x0 DUP2 DUP2 MSTORE PUSH1 0x2 SWAP7 SWAP1 SWAP7 ADD PUSH1 0x20 MSTORE PUSH1 0x40 SWAP1 SWAP6 KECCAK256 SLOAD SWAP5 SWAP6 SWAP4 POP POP POP POP JUMP JUMPDEST DUP2 MLOAD ISZERO PUSH2 0x23E6 JUMPI DUP2 MLOAD DUP1 DUP4 PUSH1 0x20 ADD REVERT JUMPDEST DUP1 PUSH1 0x40 MLOAD PUSH3 0x461BCD PUSH1 0xE5 SHL DUP2 MSTORE PUSH1 0x4 ADD PUSH2 0x34F SWAP2 SWAP1 PUSH2 0x2E0C JUMP JUMPDEST PUSH1 0x0 PUSH2 0x95B DUP3 SLOAD SWAP1 JUMP JUMPDEST PUSH1 0x0 PUSH2 0x1995 DUP4 DUP4 PUSH1 0x0 DUP3 PUSH1 0x0 ADD DUP3 DUP2 SLOAD DUP2 LT PUSH2 0x2428 JUMPI PUSH2 0x2428 PUSH2 0x2A9E JUMP JUMPDEST SWAP1 PUSH1 0x0 MSTORE PUSH1 0x20 PUSH1 0x0 KECCAK256 ADD SLOAD SWAP1 POP SWAP3 SWAP2 POP POP JUMP JUMPDEST DUP1 CALLDATALOAD PUSH3 0xFFFFFF DUP2 AND DUP2 EQ PUSH2 0x244E JUMPI PUSH1 0x0 DUP1 REVERT JUMPDEST SWAP2 SWAP1 POP JUMP JUMPDEST PUSH1 0x0 DUP1 PUSH1 0x40 DUP4 DUP6 SUB SLT ISZERO PUSH2 0x2466 JUMPI PUSH1 0x0 DUP1 REVERT JUMPDEST PUSH2 0x246F DUP4 PUSH2 0x243B JUMP JUMPDEST SWAP2 POP PUSH1 0x20 DUP4 ADD CALLDATALOAD PUSH1 0x4 DUP2 LT PUSH2 0x2483 JUMPI PUSH1 0x0 DUP1 REVERT JUMPDEST DUP1 SWAP2 POP POP SWAP3 POP SWAP3 SWAP1 POP JUMP JUMPDEST PUSH4 0x4E487B71 PUSH1 0xE0 SHL PUSH1 0x0 MSTORE PUSH1 0x41 PUSH1 0x4 MSTORE PUSH1 0x24 PUSH1 0x0 REVERT JUMPDEST PUSH1 0x40 DUP1 MLOAD SWAP1 DUP2 ADD PUSH1 0x1 PUSH1 0x1 PUSH1 0x40 SHL SUB DUP2 GT DUP3 DUP3 LT OR ISZERO PUSH2 0x24C6 JUMPI PUSH2 0x24C6 PUSH2 0x248E JUMP JUMPDEST PUSH1 0x40 MSTORE SWAP1 JUMP JUMPDEST PUSH1 0x40 MLOAD PUSH1 0x60 DUP2 ADD PUSH1 0x1 PUSH1 0x1 PUSH1 0x40 SHL SUB DUP2 GT DUP3 DUP3 LT OR ISZERO PUSH2 0x24C6 JUMPI PUSH2 0x24C6 PUSH2 0x248E JUMP JUMPDEST PUSH1 0x40 MLOAD PUSH1 0x1F DUP3 ADD PUSH1 0x1F NOT AND DUP2 ADD PUSH1 0x1 PUSH1 0x1 PUSH1 0x40 SHL SUB DUP2 GT DUP3 DUP3 LT OR ISZERO PUSH2 0x2516 JUMPI PUSH2 0x2516 PUSH2 0x248E JUMP JUMPDEST PUSH1 0x40 MSTORE SWAP2 SWAP1 POP JUMP JUMPDEST PUSH1 0xFF DUP2 AND DUP2 EQ PUSH2 0x252D JUMPI PUSH1 0x0 DUP1 REVERT JUMPDEST POP JUMP JUMPDEST PUSH1 0x1 PUSH1 0x1 PUSH1 0xA0 SHL SUB DUP2 AND DUP2 EQ PUSH2 0x252D JUMPI PUSH1 0x0 DUP1 REVERT JUMPDEST PUSH1 0x0 PUSH1 0x60 DUP3 DUP5 SUB SLT ISZERO PUSH2 0x2557 JUMPI PUSH1 0x0 DUP1 REVERT JUMPDEST PUSH1 0x40 MLOAD PUSH1 0x60 DUP2 ADD DUP2 DUP2 LT PUSH1 0x1 PUSH1 0x1 PUSH1 0x40 SHL SUB DUP3 GT OR ISZERO PUSH2 0x2579 JUMPI PUSH2 0x2579 PUSH2 0x248E JUMP JUMPDEST PUSH1 0x40 MSTORE DUP3 CALLDATALOAD PUSH2 0x2587 DUP2 PUSH2 0x251E JUMP JUMPDEST DUP2 MSTORE PUSH1 0x20 DUP4 DUP2 ADD CALLDATALOAD SWAP1 DUP3 ADD MSTORE PUSH1 0x40 DUP4 ADD CALLDATALOAD PUSH2 0x25A1 DUP2 PUSH2 0x2530 JUMP JUMPDEST PUSH1 0x40 DUP3 ADD MSTORE SWAP4 SWAP3 POP POP POP JUMP JUMPDEST PUSH1 0x0 PUSH1 0x20 DUP3 DUP5 SUB SLT ISZERO PUSH2 0x25BF JUMPI PUSH1 0x0 DUP1 REVERT JUMPDEST PUSH2 0x1995 DUP3 PUSH2 0x243B JUMP JUMPDEST PUSH1 0x0 DUP2 MLOAD DUP1 DUP5 MSTORE PUSH1 0x20 DUP1 DUP6 ADD SWAP5 POP DUP1 DUP5 ADD PUSH1 0x0 JUMPDEST DUP4 DUP2 LT ISZERO PUSH2 0x260F JUMPI DUP2 MLOAD DUP1 MLOAD PUSH1 0x1 PUSH1 0x1 PUSH1 0xA0 SHL SUB AND DUP9 MSTORE PUSH1 0x20 SWAP1 DUP2 ADD MLOAD SWAP1 DUP9 ADD MSTORE PUSH1 0x40 DUP8 ADD SWAP7 POP SWAP1 DUP3 ADD SWAP1 PUSH1 0x1 ADD PUSH2 0x25DC JUMP JUMPDEST POP SWAP5 SWAP6 SWAP5 POP POP POP POP POP JUMP JUMPDEST PUSH1 0x0 DUP2 MLOAD PUSH1 0x60 DUP5 MSTORE PUSH2 0x262F PUSH1 0x60 DUP6 ADD DUP3 PUSH2 0x25C8 JUMP JUMPDEST SWAP1 POP PUSH1 0x20 DUP4 ADD MLOAD DUP5 DUP3 SUB PUSH1 0x20 DUP7 ADD MSTORE PUSH2 0x2648 DUP3 DUP3 PUSH2 0x25C8 JUMP JUMPDEST SWAP2 POP POP PUSH1 0x40 DUP4 ADD MLOAD DUP5 DUP3 SUB PUSH1 0x40 DUP7 ADD MSTORE PUSH2 0x2662 DUP3 DUP3 PUSH2 0x25C8 JUMP JUMPDEST SWAP6 SWAP5 POP POP POP POP POP JUMP JUMPDEST PUSH1 0x20 DUP2 MSTORE PUSH1 0x0 PUSH2 0x1995 PUSH1 0x20 DUP4 ADD DUP5 PUSH2 0x261A JUMP JUMPDEST PUSH4 0x4E487B71 PUSH1 0xE0 SHL PUSH1 0x0 MSTORE PUSH1 0x21 PUSH1 0x4 MSTORE PUSH1 0x24 PUSH1 0x0 REVERT JUMPDEST PUSH1 0x5 DUP2 LT PUSH2 0x26A4 JUMPI PUSH2 0x26A4 PUSH2 0x267E JUMP JUMPDEST SWAP1 MSTORE JUMP JUMPDEST PUSH1 0x0 JUMPDEST DUP4 DUP2 LT ISZERO PUSH2 0x26C3 JUMPI DUP2 DUP2 ADD MLOAD DUP4 DUP3 ADD MSTORE PUSH1 0x20 ADD PUSH2 0x26AB JUMP JUMPDEST POP POP PUSH1 0x0 SWAP2 ADD MSTORE JUMP JUMPDEST PUSH1 0x0 DUP2 MLOAD DUP1 DUP5 MSTORE PUSH2 0x26E4 DUP2 PUSH1 0x20 DUP7 ADD PUSH1 0x20 DUP7 ADD PUSH2 0x26A8 JUMP JUMPDEST PUSH1 0x1F ADD PUSH1 0x1F NOT AND SWAP3 SWAP1 SWAP3 ADD PUSH1 0x20 ADD SWAP3 SWAP2 POP POP JUMP JUMPDEST PUSH1 0x0 DUP2 MLOAD DUP1 DUP5 MSTORE PUSH1 0x20 DUP1 DUP6 ADD DUP1 DUP2 SWAP7 POP DUP4 PUSH1 0x5 SHL DUP2 ADD SWAP2 POP DUP3 DUP7 ADD PUSH1 0x0 JUMPDEST DUP6 DUP2 LT ISZERO PUSH2 0x275D JUMPI DUP3 DUP5 SUB DUP10 MSTORE DUP2 MLOAD DUP1 MLOAD PUSH1 0x1 PUSH1 0x1 PUSH1 0xA0 SHL SUB AND DUP6 MSTORE DUP6 ADD MLOAD PUSH1 0x40 DUP7 DUP7 ADD DUP2 SWAP1 MSTORE PUSH2 0x2749 DUP2 DUP8 ADD DUP4 PUSH2 0x26CC JUMP JUMPDEST SWAP11 DUP8 ADD SWAP11 SWAP6 POP POP POP SWAP1 DUP5 ADD SWAP1 PUSH1 0x1 ADD PUSH2 0x2716 JUMP JUMPDEST POP SWAP2 SWAP8 SWAP7 POP POP POP POP POP POP POP JUMP JUMPDEST PUSH1 0x0 PUSH1 0x20 DUP1 DUP4 ADD DUP2 DUP5 MSTORE DUP1 DUP6 MLOAD DUP1 DUP4 MSTORE PUSH1 0x40 SWAP3 POP DUP3 DUP7 ADD SWAP2 POP DUP3 DUP2 PUSH1 0x5 SHL DUP8 ADD ADD DUP5 DUP9 ADD PUSH1 0x0 JUMPDEST DUP4 DUP2 LT ISZERO PUSH2 0x2848 JUMPI PUSH1 0x3F NOT DUP10 DUP5 SUB ADD DUP6 MSTORE DUP2 MLOAD DUP1 MLOAD PUSH1 0x1 PUSH1 0x1 PUSH1 0x40 SHL SUB SWAP1 DUP2 AND DUP6 MSTORE DUP9 DUP3 ADD MLOAD DUP2 AND DUP10 DUP7 ADD MSTORE DUP8 DUP3 ADD MLOAD DUP2 AND DUP9 DUP7 ADD MSTORE PUSH1 0x60 DUP1 DUP4 ADD MLOAD DUP3 AND SWAP1 DUP7 ADD MSTORE PUSH1 0x80 DUP1 DUP4 ADD MLOAD SWAP1 SWAP2 AND SWAP1 DUP6 ADD MSTORE PUSH1 0xA0 DUP1 DUP3 ADD MLOAD PUSH3 0xFFFFFF AND SWAP1 DUP6 ADD MSTORE PUSH1 0xC0 DUP1 DUP3 ADD MLOAD PUSH1 0x1 PUSH1 0x1 PUSH1 0xA0 SHL SUB AND SWAP1 DUP6 ADD MSTORE PUSH1 0xE0 DUP1 DUP3 ADD MLOAD PUSH2 0x120 SWAP2 SWAP1 PUSH2 0x2819 DUP3 DUP9 ADD DUP3 PUSH2 0x2694 JUMP JUMPDEST POP POP PUSH2 0x100 SWAP2 DUP3 ADD MLOAD SWAP2 DUP6 ADD DUP2 SWAP1 MSTORE PUSH2 0x2834 DUP6 DUP3 ADD DUP4 PUSH2 0x26F8 JUMP JUMPDEST SWAP7 DUP10 ADD SWAP7 SWAP5 POP POP POP SWAP1 DUP7 ADD SWAP1 PUSH1 0x1 ADD PUSH2 0x2791 JUMP JUMPDEST POP SWAP1 SWAP9 SWAP8 POP POP POP POP POP POP POP POP JUMP JUMPDEST PUSH1 0x0 DUP1 PUSH1 0x20 DUP4 DUP6 SUB SLT ISZERO PUSH2 0x2869 JUMPI PUSH1 0x0 DUP1 REVERT JUMPDEST DUP3 CALLDATALOAD PUSH1 0x1 PUSH1 0x1 PUSH1 0x40 SHL SUB DUP1 DUP3 GT ISZERO PUSH2 0x2880 JUMPI PUSH1 0x0 DUP1 REVERT JUMPDEST DUP2 DUP6 ADD SWAP2 POP DUP6 PUSH1 0x1F DUP4 ADD SLT PUSH2 0x2894 JUMPI PUSH1 0x0 DUP1 REVERT JUMPDEST DUP2 CALLDATALOAD DUP2 DUP2 GT ISZERO PUSH2 0x28A3 JUMPI PUSH1 0x0 DUP1 REVERT JUMPDEST DUP7 PUSH1 0x20 DUP3 PUSH1 0x5 SHL DUP6 ADD ADD GT ISZERO PUSH2 0x28B8 JUMPI PUSH1 0x0 DUP1 REVERT JUMPDEST PUSH1 0x20 SWAP3 SWAP1 SWAP3 ADD SWAP7 SWAP2 SWAP6 POP SWAP1 SWAP4 POP POP POP POP JUMP JUMPDEST PUSH1 0x0 DUP1 PUSH1 0x40 DUP4 DUP6 SUB SLT ISZERO PUSH2 0x28DD JUMPI PUSH1 0x0 DUP1 REVERT JUMPDEST DUP3 CALLDATALOAD PUSH2 0x28E8 DUP2 PUSH2 0x2530 JUMP JUMPDEST SWAP2 POP PUSH2 0x28F6 PUSH1 0x20 DUP5 ADD PUSH2 0x243B JUMP JUMPDEST SWAP1 POP SWAP3 POP SWAP3 SWAP1 POP JUMP JUMPDEST PUSH1 0x4 DUP2 LT PUSH2 0x252D JUMPI PUSH2 0x252D PUSH2 0x267E JUMP JUMPDEST PUSH1 0x20 DUP2 ADD PUSH2 0x291C DUP4 PUSH2 0x28FF JUMP JUMPDEST SWAP2 SWAP1 MSTORE SWAP1 JUMP JUMPDEST PUSH1 0x20 DUP1 DUP3 MSTORE PUSH1 0x17 SWAP1 DUP3 ADD MSTORE PUSH32 0x70726F706F73616C20646F6573206E6F74206578697374000000000000000000 PUSH1 0x40 DUP3 ADD MSTORE PUSH1 0x60 ADD SWAP1 JUMP JUMPDEST PUSH1 0x0 PUSH1 0x60 DUP3 ADD PUSH1 0x1 DUP1 PUSH1 0xA0 SHL SUB DUP1 DUP8 AND DUP5 MSTORE PUSH1 0x20 PUSH1 0x1 PUSH1 0x1 PUSH1 0x40 SHL SUB DUP8 AND DUP2 DUP7 ADD MSTORE PUSH1 0x60 PUSH1 0x40 DUP7 ADD MSTORE DUP3 DUP7 MLOAD DUP1 DUP6 MSTORE PUSH1 0x80 DUP8 ADD SWAP2 POP DUP3 DUP9 ADD SWAP5 POP PUSH1 0x0 JUMPDEST DUP2 DUP2 LT ISZERO PUSH2 0x29B4 JUMPI DUP6 MLOAD DUP6 AND DUP4 MSTORE SWAP5 DUP4 ADD SWAP5 SWAP2 DUP4 ADD SWAP2 PUSH1 0x1 ADD PUSH2 0x2996 JUMP JUMPDEST POP SWAP1 SWAP10 SWAP9 POP POP POP POP POP POP POP POP POP JUMP JUMPDEST PUSH1 0x0 PUSH1 0x1 PUSH1 0x1 PUSH1 0x40 SHL SUB DUP3 GT ISZERO PUSH2 0x29DC JUMPI PUSH2 0x29DC PUSH2 0x248E JUMP JUMPDEST POP PUSH1 0x5 SHL PUSH1 0x20 ADD SWAP1 JUMP JUMPDEST PUSH1 0x0 PUSH1 0x20 DUP1 DUP4 DUP6 SUB SLT ISZERO PUSH2 0x29F9 JUMPI PUSH1 0x0 DUP1 REVERT JUMPDEST DUP3 MLOAD PUSH1 0x1 PUSH1 0x1 PUSH1 0x40 SHL SUB DUP2 GT ISZERO PUSH2 0x2A0F JUMPI PUSH1 0x0 DUP1 REVERT JUMPDEST DUP4 ADD PUSH1 0x1F DUP2 ADD DUP6 SGT PUSH2 0x2A20 JUMPI PUSH1 0x0 DUP1 REVERT JUMPDEST DUP1 MLOAD PUSH2 0x2A33 PUSH2 0x2A2E DUP3 PUSH2 0x29C3 JUMP JUMPDEST PUSH2 0x24EE JUMP JUMPDEST DUP2 DUP2 MSTORE PUSH1 0x6 SWAP2 SWAP1 SWAP2 SHL DUP3 ADD DUP4 ADD SWAP1 DUP4 DUP2 ADD SWAP1 DUP8 DUP4 GT ISZERO PUSH2 0x2A52 JUMPI PUSH1 0x0 DUP1 REVERT JUMPDEST SWAP3 DUP5 ADD SWAP3 JUMPDEST DUP3 DUP5 LT ISZERO PUSH2 0x20B6 JUMPI PUSH1 0x40 DUP5 DUP10 SUB SLT ISZERO PUSH2 0x2A70 JUMPI PUSH1 0x0 DUP1 DUP2 REVERT JUMPDEST PUSH2 0x2A78 PUSH2 0x24A4 JUMP JUMPDEST DUP5 MLOAD PUSH2 0x2A83 DUP2 PUSH2 0x2530 JUMP JUMPDEST DUP2 MSTORE DUP5 DUP7 ADD MLOAD DUP7 DUP3 ADD MSTORE DUP3 MSTORE PUSH1 0x40 SWAP1 SWAP4 ADD SWAP3 SWAP1 DUP5 ADD SWAP1 PUSH2 0x2A57 JUMP JUMPDEST PUSH4 0x4E487B71 PUSH1 0xE0 SHL PUSH1 0x0 MSTORE PUSH1 0x32 PUSH1 0x4 MSTORE PUSH1 0x24 PUSH1 0x0 REVERT JUMPDEST PUSH4 0x4E487B71 PUSH1 0xE0 SHL PUSH1 0x0 MSTORE PUSH1 0x11 PUSH1 0x4 MSTORE PUSH1 0x24 PUSH1 0x0 REVERT JUMPDEST DUP2 DUP2 SUB DUP2 DUP2 GT ISZERO PUSH2 0x95B JUMPI PUSH2 0x95B PUSH2 0x2AB4 JUMP JUMPDEST DUP1 DUP3 ADD DUP1 DUP3 GT ISZERO PUSH2 0x95B JUMPI PUSH2 0x95B PUSH2 0x2AB4 JUMP JUMPDEST PUSH1 0x0 PUSH1 0x1 DUP3 ADD PUSH2 0x2B02 JUMPI PUSH2 0x2B02 PUSH2 0x2AB4 JUMP JUMPDEST POP PUSH1 0x1 ADD SWAP1 JUMP JUMPDEST PUSH1 0x1 PUSH1 0x1 PUSH1 0xA0 SHL SUB DUP6 AND DUP2 MSTORE PUSH2 0x2B1E DUP5 PUSH2 0x28FF JUMP JUMPDEST DUP4 PUSH1 0x20 DUP3 ADD MSTORE PUSH1 0x80 PUSH1 0x40 DUP3 ADD MSTORE PUSH1 0x0 PUSH2 0x2B3A PUSH1 0x80 DUP4 ADD DUP6 PUSH2 0x25C8 JUMP JUMPDEST DUP3 DUP2 SUB PUSH1 0x60 DUP5 ADD MSTORE PUSH2 0x20B6 DUP2 DUP6 PUSH2 0x261A JUMP JUMPDEST PUSH1 0x1 DUP2 DUP2 SHR SWAP1 DUP3 AND DUP1 PUSH2 0x2B60 JUMPI PUSH1 0x7F DUP3 AND SWAP2 POP JUMPDEST PUSH1 0x20 DUP3 LT DUP2 SUB PUSH2 0x2B80 JUMPI PUSH4 0x4E487B71 PUSH1 0xE0 SHL PUSH1 0x0 MSTORE PUSH1 0x22 PUSH1 0x4 MSTORE PUSH1 0x24 PUSH1 0x0 REVERT JUMPDEST POP SWAP2 SWAP1 POP JUMP JUMPDEST PUSH1 0x0 DUP3 CALLDATALOAD PUSH1 0x3E NOT DUP4 CALLDATASIZE SUB ADD DUP2 SLT PUSH2 0x2B9C JUMPI PUSH1 0x0 DUP1 REVERT JUMPDEST SWAP2 SWAP1 SWAP2 ADD SWAP3 SWAP2 POP POP JUMP JUMPDEST PUSH1 0x0 PUSH1 0x40 DUP3 CALLDATASIZE SUB SLT ISZERO PUSH2 0x2BB8 JUMPI PUSH1 0x0 DUP1 REVERT JUMPDEST PUSH2 0x2BC0 PUSH2 0x24A4 JUMP JUMPDEST DUP3 CALLDATALOAD PUSH2 0x2BCB DUP2 PUSH2 0x2530 JUMP JUMPDEST DUP2 MSTORE PUSH1 0x20 DUP4 DUP2 ADD CALLDATALOAD PUSH1 0x1 PUSH1 0x1 PUSH1 0x40 SHL SUB DUP1 DUP3 GT ISZERO PUSH2 0x2BE8 JUMPI PUSH1 0x0 DUP1 REVERT JUMPDEST SWAP1 DUP6 ADD SWAP1 CALLDATASIZE PUSH1 0x1F DUP4 ADD SLT PUSH2 0x2BFB JUMPI PUSH1 0x0 DUP1 REVERT JUMPDEST DUP2 CALLDATALOAD DUP2 DUP2 GT ISZERO PUSH2 0x2C0D JUMPI PUSH2 0x2C0D PUSH2 0x248E JUMP JUMPDEST PUSH2 0x2C1F PUSH1 0x1F DUP3 ADD PUSH1 0x1F NOT AND DUP6 ADD PUSH2 0x24EE JUMP JUMPDEST SWAP2 POP DUP1 DUP3 MSTORE CALLDATASIZE DUP5 DUP3 DUP6 ADD ADD GT ISZERO PUSH2 0x2C35 JUMPI PUSH1 0x0 DUP1 REVERT JUMPDEST DUP1 DUP5 DUP5 ADD DUP6 DUP5 ADD CALLDATACOPY PUSH1 0x0 SWAP1 DUP3 ADD DUP5 ADD MSTORE SWAP2 DUP4 ADD SWAP2 SWAP1 SWAP2 MSTORE POP SWAP3 SWAP2 POP POP JUMP JUMPDEST PUSH1 0x1 PUSH1 0x1 PUSH1 0xA0 SHL SUB DUP4 AND DUP2 MSTORE PUSH1 0x40 PUSH1 0x20 DUP3 ADD DUP2 SWAP1 MSTORE PUSH1 0x0 SWAP1 PUSH2 0x18DC SWAP1 DUP4 ADD DUP5 PUSH2 0x26CC JUMP JUMPDEST DUP1 MLOAD PUSH1 0x1 PUSH1 0x1 PUSH1 0x40 SHL SUB DUP2 AND DUP2 EQ PUSH2 0x244E JUMPI PUSH1 0x0 DUP1 REVERT JUMPDEST DUP1 MLOAD PUSH4 0xFFFFFFFF DUP2 AND DUP2 EQ PUSH2 0x244E JUMPI PUSH1 0x0 DUP1 REVERT JUMPDEST PUSH1 0x0 PUSH1 0xC0 DUP3 DUP5 SUB SLT ISZERO PUSH2 0x2CB4 JUMPI PUSH1 0x0 DUP1 REVERT JUMPDEST PUSH1 0x40 MLOAD PUSH1 0xC0 DUP2 ADD DUP2 DUP2 LT PUSH1 0x1 PUSH1 0x1 PUSH1 0x40 SHL SUB DUP3 GT OR ISZERO PUSH2 0x2CD6 JUMPI PUSH2 0x2CD6 PUSH2 0x248E JUMP JUMPDEST PUSH1 0x40 MSTORE PUSH2 0x2CE2 DUP4 PUSH2 0x2C77 JUMP JUMPDEST DUP2 MSTORE PUSH2 0x2CF0 PUSH1 0x20 DUP5 ADD PUSH2 0x2C77 JUMP JUMPDEST PUSH1 0x20 DUP3 ADD MSTORE PUSH2 0x2D01 PUSH1 0x40 DUP5 ADD PUSH2 0x2C77 JUMP JUMPDEST PUSH1 0x40 DUP3 ADD MSTORE PUSH2 0x2D12 PUSH1 0x60 DUP5 ADD PUSH2 0x2C8E JUMP JUMPDEST PUSH1 0x60 DUP3 ADD MSTORE PUSH2 0x2D23 PUSH1 0x80 DUP5 ADD PUSH2 0x2C8E JUMP JUMPDEST PUSH1 0x80 DUP3 ADD MSTORE PUSH1 0xA0 DUP4 ADD MLOAD PUSH2 0x2D36 DUP2 PUSH2 0x251E JUMP JUMPDEST PUSH1 0xA0 DUP3 ADD MSTORE SWAP4 SWAP3 POP POP POP JUMP JUMPDEST PUSH1 0x0 PUSH1 0x20 DUP3 DUP5 SUB SLT ISZERO PUSH2 0x2D54 JUMPI PUSH1 0x0 DUP1 REVERT JUMPDEST DUP2 CALLDATALOAD PUSH2 0x1995 DUP2 PUSH2 0x2530 JUMP JUMPDEST PUSH1 0x0 DUP1 DUP4 CALLDATALOAD PUSH1 0x1E NOT DUP5 CALLDATASIZE SUB ADD DUP2 SLT PUSH2 0x2D76 JUMPI PUSH1 0x0 DUP1 REVERT JUMPDEST DUP4 ADD DUP1 CALLDATALOAD SWAP2 POP PUSH1 0x1 PUSH1 0x1 PUSH1 0x40 SHL SUB DUP3 GT ISZERO PUSH2 0x2D90 JUMPI PUSH1 0x0 DUP1 REVERT JUMPDEST PUSH1 0x20 ADD SWAP2 POP CALLDATASIZE DUP2 SWAP1 SUB DUP3 SGT ISZERO PUSH2 0x18BF JUMPI PUSH1 0x0 DUP1 REVERT JUMPDEST DUP2 DUP4 MSTORE DUP2 DUP2 PUSH1 0x20 DUP6 ADD CALLDATACOPY POP PUSH1 0x0 DUP3 DUP3 ADD PUSH1 0x20 SWAP1 DUP2 ADD SWAP2 SWAP1 SWAP2 MSTORE PUSH1 0x1F SWAP1 SWAP2 ADD PUSH1 0x1F NOT AND SWAP1 SWAP2 ADD ADD SWAP1 JUMP JUMPDEST PUSH1 0x1 PUSH1 0x1 PUSH1 0xA0 SHL SUB DUP5 AND DUP2 MSTORE PUSH1 0x40 PUSH1 0x20 DUP3 ADD DUP2 SWAP1 MSTORE PUSH1 0x0 SWAP1 PUSH2 0x2662 SWAP1 DUP4 ADD DUP5 DUP7 PUSH2 0x2DA5 JUMP JUMPDEST PUSH1 0x0 PUSH1 0x20 DUP3 DUP5 SUB SLT ISZERO PUSH2 0x2E05 JUMPI PUSH1 0x0 DUP1 REVERT JUMPDEST POP MLOAD SWAP2 SWAP1 POP JUMP JUMPDEST PUSH1 0x20 DUP2 MSTORE PUSH1 0x0 PUSH2 0x1995 PUSH1 0x20 DUP4 ADD DUP5 PUSH2 0x26CC JUMP JUMPDEST PUSH1 0x20 DUP2 MSTORE PUSH1 0x0 PUSH2 0x1995 PUSH1 0x20 DUP4 ADD DUP5 PUSH2 0x25C8 JUMP JUMPDEST PUSH1 0x1 PUSH1 0x1 PUSH1 0x40 SHL SUB DUP2 DUP2 AND DUP4 DUP3 AND ADD SWAP1 DUP1 DUP3 GT ISZERO PUSH2 0x1FDF JUMPI PUSH2 0x1FDF PUSH2 0x2AB4 JUMP JUMPDEST PUSH1 0x1F DUP3 GT ISZERO PUSH2 0x1E78 JUMPI PUSH1 0x0 DUP2 DUP2 MSTORE PUSH1 0x20 DUP2 KECCAK256 PUSH1 0x1F DUP6 ADD PUSH1 0x5 SHR DUP2 ADD PUSH1 0x20 DUP7 LT ISZERO PUSH2 0x2E79 JUMPI POP DUP1 JUMPDEST PUSH1 0x1F DUP6 ADD PUSH1 0x5 SHR DUP3 ADD SWAP2 POP JUMPDEST DUP2 DUP2 LT ISZERO PUSH2 0x2E98 JUMPI DUP3 DUP2 SSTORE PUSH1 0x1 ADD PUSH2 0x2E85 JUMP JUMPDEST POP POP POP POP POP POP JUMP JUMPDEST DUP2 CALLDATALOAD PUSH2 0x2EAB DUP2 PUSH2 0x2530 JUMP JUMPDEST DUP2 SLOAD PUSH1 0x1 PUSH1 0x1 PUSH1 0xA0 SHL SUB NOT AND PUSH1 0x1 PUSH1 0x1 PUSH1 0xA0 SHL SUB SWAP2 SWAP1 SWAP2 AND OR DUP2 SSTORE PUSH1 0x1 DUP2 DUP2 ADD PUSH1 0x20 DUP5 DUP2 ADD CALLDATALOAD CALLDATASIZE DUP7 SWAP1 SUB PUSH1 0x1E NOT ADD DUP2 SLT PUSH2 0x2EE4 JUMPI PUSH1 0x0 DUP1 REVERT JUMPDEST DUP6 ADD DUP1 CALLDATALOAD PUSH1 0x1 PUSH1 0x1 PUSH1 0x40 SHL SUB DUP2 GT ISZERO PUSH2 0x2EFC JUMPI PUSH1 0x0 DUP1 REVERT JUMPDEST DUP1 CALLDATASIZE SUB DUP4 DUP4 ADD SGT ISZERO PUSH2 0x2F0D JUMPI PUSH1 0x0 DUP1 REVERT JUMPDEST PUSH2 0x2F21 DUP2 PUSH2 0x2F1B DUP7 SLOAD PUSH2 0x2B4C JUMP JUMPDEST DUP7 PUSH2 0x2E52 JUMP JUMPDEST PUSH1 0x0 PUSH1 0x1F DUP3 GT PUSH1 0x1 DUP2 EQ PUSH2 0x2F57 JUMPI PUSH1 0x0 DUP4 ISZERO PUSH2 0x2F3F JUMPI POP DUP4 DUP3 ADD DUP6 ADD CALLDATALOAD JUMPDEST PUSH1 0x0 NOT PUSH1 0x3 DUP6 SWAP1 SHL SHR NOT AND PUSH1 0x1 DUP5 SWAP1 SHL OR DUP7 SSTORE PUSH2 0x2FB0 JUMP JUMPDEST PUSH1 0x0 DUP7 DUP2 MSTORE PUSH1 0x20 SWAP1 KECCAK256 PUSH1 0x1F NOT DUP5 AND SWAP1 DUP4 JUMPDEST DUP3 DUP2 LT ISZERO PUSH2 0x2F87 JUMPI DUP7 DUP6 ADD DUP9 ADD CALLDATALOAD DUP3 SSTORE SWAP4 DUP8 ADD SWAP4 SWAP1 DUP10 ADD SWAP1 DUP8 ADD PUSH2 0x2F68 JUMP JUMPDEST POP DUP5 DUP3 LT ISZERO PUSH2 0x2FA6 JUMPI PUSH1 0x0 NOT PUSH1 0xF8 DUP7 PUSH1 0x3 SHL AND SHR NOT DUP8 DUP6 DUP9 ADD ADD CALLDATALOAD AND DUP2 SSTORE JUMPDEST POP POP DUP7 DUP4 DUP9 SHL ADD DUP7 SSTORE JUMPDEST POP POP POP POP POP POP POP POP POP JUMP JUMPDEST PUSH1 0x0 PUSH1 0x20 DUP1 DUP4 DUP6 SUB SLT ISZERO PUSH2 0x2FCE JUMPI PUSH1 0x0 DUP1 REVERT JUMPDEST DUP3 MLOAD PUSH1 0x1 PUSH1 0x1 PUSH1 0x40 SHL SUB DUP2 GT ISZERO PUSH2 0x2FE4 JUMPI PUSH1 0x0 DUP1 REVERT JUMPDEST DUP4 ADD PUSH1 0x1F DUP2 ADD DUP6 SGT PUSH2 0x2FF5 JUMPI PUSH1 0x0 DUP1 REVERT JUMPDEST DUP1 MLOAD PUSH2 0x3003 PUSH2 0x2A2E DUP3 PUSH2 0x29C3 JUMP JUMPDEST DUP2 DUP2 MSTORE PUSH1 0x60 SWAP2 DUP3 MUL DUP4 ADD DUP5 ADD SWAP2 DUP5 DUP3 ADD SWAP2 SWAP1 DUP9 DUP5 GT ISZERO PUSH2 0x3022 JUMPI PUSH1 0x0 DUP1 REVERT JUMPDEST SWAP4 DUP6 ADD SWAP4 JUMPDEST DUP4 DUP6 LT ISZERO PUSH2 0x3075 JUMPI DUP1 DUP6 DUP11 SUB SLT ISZERO PUSH2 0x303F JUMPI PUSH1 0x0 DUP1 DUP2 REVERT JUMPDEST PUSH2 0x3047 PUSH2 0x24CC JUMP JUMPDEST DUP6 MLOAD PUSH2 0x3052 DUP2 PUSH2 0x2530 JUMP JUMPDEST DUP2 MSTORE DUP6 DUP8 ADD MLOAD DUP8 DUP3 ADD MSTORE PUSH1 0x40 DUP1 DUP8 ADD MLOAD SWAP1 DUP3 ADD MSTORE DUP4 MSTORE SWAP4 DUP5 ADD SWAP4 SWAP2 DUP6 ADD SWAP2 PUSH2 0x3027 JUMP JUMPDEST POP SWAP8 SWAP7 POP POP POP POP POP POP POP JUMP JUMPDEST PUSH3 0xFFFFFF DUP2 DUP2 AND DUP4 DUP3 AND ADD SWAP1 DUP1 DUP3 GT ISZERO PUSH2 0x1FDF JUMPI PUSH2 0x1FDF PUSH2 0x2AB4 JUMP JUMPDEST PUSH1 0x1 PUSH1 0x1 PUSH1 0xA0 SHL SUB DUP5 DUP2 AND DUP3 MSTORE PUSH1 0x40 PUSH1 0x20 DUP1 DUP5 ADD DUP3 SWAP1 MSTORE DUP2 DUP5 ADD DUP6 SWAP1 MSTORE PUSH1 0x0 SWAP3 PUSH1 0x60 PUSH1 0x5 DUP8 SWAP1 SHL DUP7 ADD DUP2 ADD SWAP3 SWAP1 DUP7 ADD DUP9 DUP7 JUMPDEST DUP10 DUP2 LT ISZERO PUSH2 0x316C JUMPI DUP9 DUP7 SUB PUSH1 0x5F NOT ADD DUP4 MSTORE DUP2 CALLDATALOAD CALLDATASIZE DUP13 SWAP1 SUB PUSH1 0x3E NOT ADD DUP2 SLT PUSH2 0x30F5 JUMPI PUSH1 0x0 DUP1 REVERT JUMPDEST DUP12 ADD DUP1 CALLDATALOAD PUSH2 0x3102 DUP2 PUSH2 0x2530 JUMP JUMPDEST DUP7 AND DUP8 MSTORE DUP1 DUP6 ADD CALLDATALOAD CALLDATASIZE DUP3 SWAP1 SUB PUSH1 0x1E NOT ADD DUP2 SLT PUSH2 0x311D JUMPI PUSH1 0x0 DUP1 REVERT JUMPDEST ADD DUP5 DUP2 ADD SWAP1 CALLDATALOAD PUSH1 0x1 PUSH1 0x1 PUSH1 0x40 SHL SUB DUP2 GT ISZERO PUSH2 0x3137 JUMPI PUSH1 0x0 DUP1 REVERT JUMPDEST DUP1 CALLDATASIZE SUB DUP3 SGT ISZERO PUSH2 0x3146 JUMPI PUSH1 0x0 DUP1 REVERT JUMPDEST DUP9 DUP7 DUP10 ADD MSTORE PUSH2 0x3158 DUP10 DUP10 ADD DUP3 DUP5 PUSH2 0x2DA5 JUMP JUMPDEST SWAP8 POP POP POP SWAP2 DUP4 ADD SWAP2 SWAP1 DUP4 ADD SWAP1 PUSH1 0x1 ADD PUSH2 0x30CF JUMP JUMPDEST POP SWAP4 SWAP11 SWAP10 POP POP POP POP POP POP POP POP POP POP JUMP JUMPDEST PUSH1 0x40 DUP2 ADD PUSH2 0x318A DUP3 DUP6 PUSH2 0x2694 JUMP JUMPDEST PUSH2 0x3193 DUP4 PUSH2 0x28FF JUMP JUMPDEST DUP3 PUSH1 0x20 DUP4 ADD MSTORE SWAP4 SWAP3 POP POP POP JUMP JUMPDEST DUP1 DUP3 MUL DUP2 ISZERO DUP3 DUP3 DIV DUP5 EQ OR PUSH2 0x95B JUMPI PUSH2 0x95B PUSH2 0x2AB4 JUMP JUMPDEST PUSH1 0x0 DUP3 PUSH2 0x31D4 JUMPI PUSH4 0x4E487B71 PUSH1 0xE0 SHL PUSH1 0x0 MSTORE PUSH1 0x12 PUSH1 0x4 MSTORE PUSH1 0x24 PUSH1 0x0 REVERT JUMPDEST POP DIV SWAP1 JUMP JUMPDEST PUSH1 0x0 DUP3 MLOAD PUSH2 0x2B9C DUP2 DUP5 PUSH1 0x20 DUP8 ADD PUSH2 0x26A8 JUMP JUMPDEST PUSH4 0x4E487B71 PUSH1 0xE0 SHL PUSH1 0x0 MSTORE PUSH1 0x31 PUSH1 0x4 MSTORE PUSH1 0x24 PUSH1 0x0 REVERT INVALID LOG2 PUSH5 0x6970667358 0x22 SLT KECCAK256 RETURN 0xD0 AND NOT 0x26 0xEC 0x2E 0xC9 0xB3 JUMPDEST 0x22 0xAD 0xFC SAR SIGNEXTEND 0xEF XOR ADDMOD 0xAD TIMESTAMP 0xEA 0xC6 PUSH12 0x9DFEA22844C5D2358864736F PUSH13 0x63430008110033000000000000 ","sha1":"a75172943534468231cada31f1ce51d4b0388c30","source":"// SPDX-License-Identifier: Unlicensed\npragma solidity ^0.8.17;\n\nimport \"@openzeppelin/contracts/utils/Address.sol\";\nimport \"@openzeppelin/contracts/utils/structs/EnumerableSet.sol\";\nimport \"@openzeppelin/contracts/utils/structs/EnumerableMap.sol\";\nimport \"@openzeppelin/contracts/proxy/utils/Initializable.sol\";\n\nimport \"../libraries/DataTypes.sol\";\nimport \"../libraries/ScaledMath.sol\";\nimport \"../libraries/VaultsSnapshot.sol\";\n\nimport \"../interfaces/IVault.sol\";\nimport \"../interfaces/IVotingPowerAggregator.sol\";\nimport \"../interfaces/ITierer.sol\";\nimport \"../interfaces/ITierStrategy.sol\";\nimport \"../interfaces/IWrappedERC20WithEMA.sol\";\n\ncontract GovernanceManager is Initializable {\n    using Address for address;\n    using ScaledMath for uint256;\n    using EnumerableSet for EnumerableSet.Bytes32Set;\n    using EnumerableMap for EnumerableMap.AddressToUintMap;\n    using VaultsSnapshot for DataTypes.VaultSnapshot[];\n\n    IVotingPowerAggregator public immutable votingPowerAggregator;\n    ITierer public immutable tierer;\n    IWrappedERC20WithEMA public immutable wGYD;\n    DataTypes.LimitUpgradeabilityParameters public limitUpgradeabilityParams;\n\n    uint24 public proposalsCount;\n\n    EnumerableSet.Bytes32Set internal _activeProposals;\n    EnumerableSet.Bytes32Set internal _timelockedProposals;\n    mapping(uint24 => DataTypes.Proposal) internal _proposals;\n    mapping(uint24 => DataTypes.VaultSnapshot[]) internal _vaultSnapshots;\n\n    mapping(address => mapping(uint24 => DataTypes.Vote)) internal _votes;\n    mapping(uint24 => mapping(DataTypes.Ballot => EnumerableMap.AddressToUintMap))\n        internal _totals;\n\n    constructor(\n        IVotingPowerAggregator _votingPowerAggregator,\n        ITierer _tierer,\n        IWrappedERC20WithEMA _wGYD\n    ) {\n        votingPowerAggregator = _votingPowerAggregator;\n        tierer = _tierer;\n        wGYD = _wGYD;\n    }\n\n    function initialize(\n        DataTypes.LimitUpgradeabilityParameters memory _params\n    ) external initializer {\n        limitUpgradeabilityParams = _params;\n    }\n\n    event ProposalCreated(\n        uint24 indexed id,\n        address proposer,\n        DataTypes.ProposalAction[] actions\n    );\n\n    function createProposal(\n        DataTypes.ProposalAction[] calldata actions\n    ) external {\n        require(actions.length > 0, \"cannot create a proposal with no actions\");\n\n        // Determine the tier associated with this proposal by taking the tier of the most impactful\n        // action, determined by the tier's actionLevel parameter.\n        DataTypes.ProposalAction memory action = actions[0];\n        DataTypes.Tier memory tier = tierer.getTier(action.target, action.data);\n        for (uint256 i = 1; i < actions.length; i++) {\n            DataTypes.Tier memory currentTier = tierer.getTier(\n                actions[i].target,\n                actions[i].data\n            );\n            if (currentTier.actionLevel > tier.actionLevel) {\n                action = actions[i];\n                tier = currentTier;\n            }\n        }\n\n        // If a sufficiently large amount of GYD is wrapped, this signifies that holders\n        // are happy with the system and are against further high-level upgrades.\n        // As a result, we should apply a higher tier if the proposed action has big impacts.\n        if (\n            wGYD.wrappedPctEMA() > limitUpgradeabilityParams.emaThreshold &&\n            tier.actionLevel > limitUpgradeabilityParams.actionLevelThreshold\n        ) {\n            tier = limitUpgradeabilityParams.tierStrategy.getTier(action.data);\n        }\n\n        DataTypes.VaultVotingPower[] memory rawPower = votingPowerAggregator\n            .getVotingPower(msg.sender, block.timestamp - 1);\n        uint256 votingPowerPct = votingPowerAggregator\n            .calculateWeightedPowerPct(rawPower);\n        require(\n            votingPowerPct > tier.proposalThreshold,\n            \"proposer doesn't have enough voting power to propose this action\"\n        );\n\n        uint64 createdAt = uint64(block.timestamp);\n        uint64 votingEndsAt = createdAt + tier.proposalLength;\n        uint64 executableAt = votingEndsAt + tier.timeLockDuration;\n\n        DataTypes.Proposal storage p = _proposals[proposalsCount];\n        p.id = proposalsCount;\n        p.proposer = msg.sender;\n        p.createdAt = createdAt;\n        p.votingEndsAt = votingEndsAt;\n        p.executableAt = executableAt;\n        p.status = DataTypes.Status.Active;\n        p.quorum = tier.quorum;\n        p.voteThreshold = tier.voteThreshold;\n\n        for (uint256 i = 0; i < actions.length; i++) {\n            p.actions.push(actions[i]);\n        }\n\n        votingPowerAggregator.createVaultsSnapshot().persist(\n            _vaultSnapshots[p.id]\n        );\n\n        proposalsCount = p.id + 1;\n        _activeProposals.add(bytes32(bytes3(p.id)));\n\n        emit ProposalCreated(p.id, p.proposer, actions);\n    }\n\n    event VoteCast(\n        uint24 indexed proposalId,\n        address voter,\n        DataTypes.Ballot vote,\n        DataTypes.VaultVotingPower[] votingPower,\n        DataTypes.VoteTotals voteTotals\n    );\n\n    function vote(uint24 proposalId, DataTypes.Ballot ballot) external {\n        DataTypes.Proposal storage proposal = _proposals[proposalId];\n        require(proposal.createdAt != 0, \"proposal does not exist\");\n\n        require(\n            proposal.votingEndsAt > uint64(block.timestamp),\n            \"voting is closed on this proposal\"\n        );\n\n        require(\n            ballot != DataTypes.Ballot.UNDEFINED,\n            \"ballot must be cast FOR, AGAINST, or ABSTAIN\"\n        );\n\n        DataTypes.VaultSnapshot[] memory vaultSnapshots = _vaultSnapshots[\n            proposalId\n        ];\n\n        DataTypes.VaultVotingPower[] memory uvp = votingPowerAggregator\n            .getVotingPower(\n                msg.sender,\n                proposal.createdAt,\n                _vaultAddresses(vaultSnapshots)\n            );\n\n        DataTypes.Vote storage existingVote = _votes[msg.sender][proposalId];\n\n        bool isNewVote = existingVote.ballot == DataTypes.Ballot.UNDEFINED;\n        for (uint256 i = 0; i < uvp.length; i++) {\n            DataTypes.VaultVotingPower memory vvp = uvp[i];\n\n            // cancel out the previous vote if it was cast\n            if (!isNewVote) {\n                (, uint256 prevBallotTotal) = _totals[proposalId][\n                    existingVote.ballot\n                ].tryGet(vvp.vaultAddress);\n                _totals[proposalId][existingVote.ballot].set(\n                    vvp.vaultAddress,\n                    prevBallotTotal - vvp.votingPower\n                );\n            }\n\n            (, uint256 newBallotTotal) = _totals[proposalId][ballot].tryGet(\n                vvp.vaultAddress\n            );\n            _totals[proposalId][ballot].set(\n                vvp.vaultAddress,\n                newBallotTotal + vvp.votingPower\n            );\n        }\n\n        // Then update the record of this user's vote to the latest ballot and voting power\n        existingVote.ballot = ballot;\n\n        emit VoteCast(\n            proposalId,\n            msg.sender,\n            ballot,\n            uvp,\n            _toVoteTotals(_totals[proposalId])\n        );\n    }\n\n    function getVoteTotals(\n        uint24 proposalId\n    ) external view returns (DataTypes.VoteTotals memory) {\n        return _toVoteTotals(_totals[proposalId]);\n    }\n\n    function _toVoteTotals(\n        mapping(DataTypes.Ballot => EnumerableMap.AddressToUintMap)\n            storage totals\n    ) internal view returns (DataTypes.VoteTotals memory) {\n        EnumerableMap.AddressToUintMap storage forVotingPower = totals[\n            DataTypes.Ballot.FOR\n        ];\n        DataTypes.VaultVotingPower[] memory forTotals = _toVotingPowers(\n            forVotingPower\n        );\n\n        EnumerableMap.AddressToUintMap storage againstVotingPower = totals[\n            DataTypes.Ballot.AGAINST\n        ];\n        DataTypes.VaultVotingPower[] memory againstTotals = _toVotingPowers(\n            againstVotingPower\n        );\n\n        EnumerableMap.AddressToUintMap storage abstentionsVotingPower = totals[\n            DataTypes.Ballot.ABSTAIN\n        ];\n        DataTypes.VaultVotingPower[] memory abstentionsTotals = _toVotingPowers(\n            abstentionsVotingPower\n        );\n\n        return\n            DataTypes.VoteTotals({\n                _for: forTotals,\n                against: againstTotals,\n                abstentions: abstentionsTotals\n            });\n    }\n\n    event ProposalTallied(\n        uint24 indexed proposalId,\n        DataTypes.Status status,\n        DataTypes.ProposalOutcome outcome\n    );\n\n    function tallyVote(uint24 proposalId) external {\n        DataTypes.Proposal storage proposal = _proposals[proposalId];\n        require(proposal.createdAt != 0, \"proposal does not exist\");\n\n        require(\n            _activeProposals.contains(bytes32(bytes3(proposalId))),\n            \"proposal is not currently active\"\n        );\n\n        require(\n            uint64(block.timestamp) > proposal.votingEndsAt,\n            \"voting is ongoing for this proposal\"\n        );\n\n        (\n            uint256 forTotalPct,\n            uint256 againstTotalPct,\n            uint256 abstentionsTotalPct\n        ) = _getCurrentPercentages(proposal);\n\n        uint256 combinedPct = forTotalPct +\n            againstTotalPct +\n            abstentionsTotalPct;\n        if (combinedPct < proposal.quorum) {\n            proposal.status = DataTypes.Status.Rejected;\n            _activeProposals.remove(bytes32(bytes3(proposalId)));\n            emit ProposalTallied(\n                proposalId,\n                proposal.status,\n                DataTypes.ProposalOutcome.QUORUM_NOT_MET\n            );\n            return;\n        }\n\n        uint256 result = 0;\n        if (forTotalPct + againstTotalPct > 0) {\n            result = forTotalPct.divDown(forTotalPct + againstTotalPct);\n        }\n        DataTypes.ProposalOutcome outcome = DataTypes.ProposalOutcome.UNDEFINED;\n        if (result > proposal.voteThreshold) {\n            proposal.status = DataTypes.Status.Queued;\n            outcome = DataTypes.ProposalOutcome.SUCCESSFUL;\n            _timelockedProposals.add(bytes32(bytes3(proposalId)));\n        } else {\n            proposal.status = DataTypes.Status.Rejected;\n            outcome = DataTypes.ProposalOutcome.THRESHOLD_NOT_MET;\n        }\n        _activeProposals.remove(bytes32(bytes3(proposalId)));\n        emit ProposalTallied(proposalId, proposal.status, outcome);\n    }\n\n    function getCurrentPercentages(\n        uint24 proposalId\n    ) external view returns (uint256 for_, uint256 against, uint256 abstain) {\n        DataTypes.Proposal storage proposal = _proposals[proposalId];\n        require(proposal.createdAt != 0, \"proposal does not exist\");\n        return _getCurrentPercentages(proposal);\n    }\n\n    function _getCurrentPercentages(\n        DataTypes.Proposal storage proposal\n    ) internal view returns (uint256 for_, uint256 against, uint256 abstain) {\n        DataTypes.VaultSnapshot[] memory snapshot = _vaultSnapshots[\n            proposal.id\n        ];\n        mapping(DataTypes.Ballot => EnumerableMap.AddressToUintMap)\n            storage propTotals = _totals[proposal.id];\n        for_ = snapshot.getBallotPercentage(propTotals[DataTypes.Ballot.FOR]);\n        against = snapshot.getBallotPercentage(\n            propTotals[DataTypes.Ballot.AGAINST]\n        );\n        abstain = snapshot.getBallotPercentage(\n            propTotals[DataTypes.Ballot.ABSTAIN]\n        );\n    }\n\n    function _toVotingPowers(\n        EnumerableMap.AddressToUintMap storage map\n    ) internal view returns (DataTypes.VaultVotingPower[] memory) {\n        DataTypes.VaultVotingPower[]\n            memory vvps = new DataTypes.VaultVotingPower[](map.length());\n        for (uint256 i = 0; i < map.length(); i++) {\n            (address key, uint256 value) = map.at(i);\n            vvps[i] = DataTypes.VaultVotingPower({\n                vaultAddress: key,\n                votingPower: value\n            });\n        }\n\n        return vvps;\n    }\n\n    event ProposalExecuted(uint24 indexed proposalId);\n\n    function executeProposal(uint24 proposalId) external {\n        DataTypes.Proposal storage proposal = _proposals[proposalId];\n        if (proposal.createdAt == uint64(0)) {\n            revert(\"proposal does not exist\");\n        }\n\n        require(\n            _timelockedProposals.contains(bytes32(bytes3(proposalId))) &&\n                uint64(block.timestamp) > proposal.executableAt,\n            \"proposal must be queued and ready to execute\"\n        );\n\n        for (uint256 i = 0; i < proposal.actions.length; i++) {\n            proposal.actions[i].target.functionCall(\n                proposal.actions[i].data,\n                \"proposal execution failed\"\n            );\n        }\n        proposal.status = DataTypes.Status.Executed;\n        _timelockedProposals.remove(bytes32(bytes3(proposalId)));\n        emit ProposalExecuted(proposalId);\n    }\n\n    function getBallot(\n        address voter,\n        uint24 proposalId\n    ) external view returns (DataTypes.Ballot) {\n        return _votes[voter][proposalId].ballot;\n    }\n\n    function listActiveProposals()\n        external\n        view\n        returns (DataTypes.Proposal[] memory)\n    {\n        return _listProposals(_activeProposals.values());\n    }\n\n    function listTimelockedProposals()\n        external\n        view\n        returns (DataTypes.Proposal[] memory)\n    {\n        return _listProposals(_timelockedProposals.values());\n    }\n\n    function _listProposals(\n        bytes32[] memory ids\n    ) internal view returns (DataTypes.Proposal[] memory) {\n        uint256 len = ids.length;\n        DataTypes.Proposal[] memory proposals = new DataTypes.Proposal[](len);\n        for (uint256 i = 0; i < len; i++) {\n            proposals[i] = _proposals[uint24(bytes3(ids[i]))];\n        }\n        return proposals;\n    }\n\n    function _vaultAddresses(\n        DataTypes.VaultSnapshot[] memory vaultSnapshots\n    ) internal pure returns (address[] memory) {\n        uint256 len = vaultSnapshots.length;\n        address[] memory vaultAddresses = new address[](len);\n        for (uint256 i = 0; i < len; i++) {\n            vaultAddresses[i] = vaultSnapshots[i].vaultAddress;\n        }\n        return vaultAddresses;\n    }\n}\n","sourcePath":"contracts/GovernanceManager.sol","type":"contract","deployment":{"address":"0xaB55F71394c31867252F30593539742D928eB0d0","chainid":"137","blockHeight":43678292}}