{"abi":[{"inputs":[{"internalType":"contract IVotingPowerAggregator","name":"_votingPowerAggregator","type":"address"},{"internalType":"contract ITierer","name":"_tierer","type":"address"},{"internalType":"contract IWrappedERC20WithEMA","name":"_wGYD","type":"address"}],"stateMutability":"nonpayable","type":"constructor","name":"constructor"},{"anonymous":false,"inputs":[{"indexed":false,"internalType":"uint8","name":"version","type":"uint8"}],"name":"Initialized","type":"event"},{"anonymous":false,"inputs":[{"indexed":false,"internalType":"uint24","name":"id","type":"uint24"},{"indexed":false,"internalType":"address","name":"proposer","type":"address"},{"components":[{"internalType":"address","name":"target","type":"address"},{"internalType":"bytes","name":"data","type":"bytes"}],"indexed":false,"internalType":"struct DataTypes.ProposalAction[]","name":"actions","type":"tuple[]"}],"name":"ProposalCreated","type":"event"},{"anonymous":false,"inputs":[{"indexed":false,"internalType":"uint24","name":"proposalId","type":"uint24"}],"name":"ProposalExecuted","type":"event"},{"anonymous":false,"inputs":[{"indexed":false,"internalType":"uint24","name":"proposalId","type":"uint24"},{"indexed":false,"internalType":"enum DataTypes.Status","name":"status","type":"uint8"},{"indexed":false,"internalType":"enum DataTypes.ProposalOutcome","name":"outcome","type":"uint8"}],"name":"ProposalTallied","type":"event"},{"anonymous":false,"inputs":[{"indexed":false,"internalType":"uint24","name":"proposalId","type":"uint24"},{"indexed":false,"internalType":"address","name":"voter","type":"address"},{"indexed":false,"internalType":"enum DataTypes.Ballot","name":"vote","type":"uint8"},{"components":[{"internalType":"address","name":"vaultAddress","type":"address"},{"internalType":"uint256","name":"votingPower","type":"uint256"}],"indexed":false,"internalType":"struct DataTypes.VaultVotingPower[]","name":"votingPower","type":"tuple[]"},{"components":[{"components":[{"internalType":"address","name":"vaultAddress","type":"address"},{"internalType":"uint256","name":"votingPower","type":"uint256"}],"internalType":"struct DataTypes.VaultVotingPower[]","name":"_for","type":"tuple[]"},{"components":[{"internalType":"address","name":"vaultAddress","type":"address"},{"internalType":"uint256","name":"votingPower","type":"uint256"}],"internalType":"struct DataTypes.VaultVotingPower[]","name":"against","type":"tuple[]"},{"components":[{"internalType":"address","name":"vaultAddress","type":"address"},{"internalType":"uint256","name":"votingPower","type":"uint256"}],"internalType":"struct DataTypes.VaultVotingPower[]","name":"abstentions","type":"tuple[]"}],"indexed":false,"internalType":"struct DataTypes.VoteTotals","name":"voteTotals","type":"tuple"}],"name":"VoteCast","type":"event"},{"inputs":[{"components":[{"internalType":"address","name":"target","type":"address"},{"internalType":"bytes","name":"data","type":"bytes"}],"internalType":"struct DataTypes.ProposalAction[]","name":"actions","type":"tuple[]"}],"name":"createProposal","outputs":[],"stateMutability":"nonpayable","type":"function"},{"inputs":[{"internalType":"uint24","name":"proposalId","type":"uint24"}],"name":"executeProposal","outputs":[],"stateMutability":"nonpayable","type":"function"},{"inputs":[{"internalType":"uint24","name":"proposalId","type":"uint24"}],"name":"getCurrentPercentages","outputs":[{"internalType":"uint256","name":"for_","type":"uint256"},{"internalType":"uint256","name":"against","type":"uint256"},{"internalType":"uint256","name":"abstain","type":"uint256"}],"stateMutability":"view","type":"function"},{"inputs":[{"internalType":"uint24","name":"proposalId","type":"uint24"}],"name":"getVoteTotals","outputs":[{"components":[{"components":[{"internalType":"address","name":"vaultAddress","type":"address"},{"internalType":"uint256","name":"votingPower","type":"uint256"}],"internalType":"struct DataTypes.VaultVotingPower[]","name":"_for","type":"tuple[]"},{"components":[{"internalType":"address","name":"vaultAddress","type":"address"},{"internalType":"uint256","name":"votingPower","type":"uint256"}],"internalType":"struct DataTypes.VaultVotingPower[]","name":"against","type":"tuple[]"},{"components":[{"internalType":"address","name":"vaultAddress","type":"address"},{"internalType":"uint256","name":"votingPower","type":"uint256"}],"internalType":"struct DataTypes.VaultVotingPower[]","name":"abstentions","type":"tuple[]"}],"internalType":"struct DataTypes.VoteTotals","name":"","type":"tuple"}],"stateMutability":"view","type":"function"},{"inputs":[{"components":[{"internalType":"uint8","name":"actionLevelThreshold","type":"uint8"},{"internalType":"uint256","name":"emaThreshold","type":"uint256"},{"internalType":"contract ITierStrategy","name":"tierStrategy","type":"address"}],"internalType":"struct DataTypes.LimitUpgradeabilityParameters","name":"_params","type":"tuple"}],"name":"initialize","outputs":[],"stateMutability":"nonpayable","type":"function"},{"inputs":[],"name":"limitUpgradeabilityParams","outputs":[{"internalType":"uint8","name":"actionLevelThreshold","type":"uint8"},{"internalType":"uint256","name":"emaThreshold","type":"uint256"},{"internalType":"contract ITierStrategy","name":"tierStrategy","type":"address"}],"stateMutability":"view","type":"function"},{"inputs":[],"name":"listActiveProposals","outputs":[{"components":[{"internalType":"uint64","name":"createdAt","type":"uint64"},{"internalType":"uint64","name":"executableAt","type":"uint64"},{"internalType":"uint64","name":"votingEndsAt","type":"uint64"},{"internalType":"uint64","name":"voteThreshold","type":"uint64"},{"internalType":"uint64","name":"quorum","type":"uint64"},{"internalType":"uint24","name":"id","type":"uint24"},{"internalType":"address","name":"proposer","type":"address"},{"internalType":"enum DataTypes.Status","name":"status","type":"uint8"},{"components":[{"internalType":"address","name":"target","type":"address"},{"internalType":"bytes","name":"data","type":"bytes"}],"internalType":"struct DataTypes.ProposalAction[]","name":"actions","type":"tuple[]"}],"internalType":"struct DataTypes.Proposal[]","name":"","type":"tuple[]"}],"stateMutability":"view","type":"function"},{"inputs":[],"name":"listTimelockedProposals","outputs":[{"components":[{"internalType":"uint64","name":"createdAt","type":"uint64"},{"internalType":"uint64","name":"executableAt","type":"uint64"},{"internalType":"uint64","name":"votingEndsAt","type":"uint64"},{"internalType":"uint64","name":"voteThreshold","type":"uint64"},{"internalType":"uint64","name":"quorum","type":"uint64"},{"internalType":"uint24","name":"id","type":"uint24"},{"internalType":"address","name":"proposer","type":"address"},{"internalType":"enum DataTypes.Status","name":"status","type":"uint8"},{"components":[{"internalType":"address","name":"target","type":"address"},{"internalType":"bytes","name":"data","type":"bytes"}],"internalType":"struct DataTypes.ProposalAction[]","name":"actions","type":"tuple[]"}],"internalType":"struct DataTypes.Proposal[]","name":"","type":"tuple[]"}],"stateMutability":"view","type":"function"},{"inputs":[],"name":"proposalsCount","outputs":[{"internalType":"uint24","name":"","type":"uint24"}],"stateMutability":"view","type":"function"},{"inputs":[{"internalType":"uint24","name":"proposalId","type":"uint24"}],"name":"tallyVote","outputs":[],"stateMutability":"nonpayable","type":"function"},{"inputs":[],"name":"tierer","outputs":[{"internalType":"contract ITierer","name":"","type":"address"}],"stateMutability":"view","type":"function"},{"inputs":[{"internalType":"uint24","name":"proposalId","type":"uint24"},{"internalType":"enum DataTypes.Ballot","name":"ballot","type":"uint8"}],"name":"vote","outputs":[],"stateMutability":"nonpayable","type":"function"},{"inputs":[],"name":"votingPowerAggregator","outputs":[{"internalType":"contract IVotingPowerAggregator","name":"","type":"address"}],"stateMutability":"view","type":"function"},{"inputs":[],"name":"wGYD","outputs":[{"internalType":"contract IWrappedERC20WithEMA","name":"","type":"address"}],"stateMutability":"view","type":"function"}],"bytecode":"60e06040523480156200001157600080fd5b50604051620032a0380380620032a083398101604081905262000034916200006b565b6001600160a01b0392831660805290821660a0521660c052620000bf565b6001600160a01b03811681146200006857600080fd5b50565b6000806000606084860312156200008157600080fd5b83516200008e8162000052565b6020850151909350620000a18162000052565b6040850151909250620000b48162000052565b809150509250925092565b60805160a05160c05161318062000120600039600081816101b60152610e8f01526000818161017701528181610cb00152610d3701526000818161020b0152818161047e01528181610fb001528181611058015261135301526131806000f3fe608060405234801561001057600080fd5b50600436106100ea5760003560e01c80638d6e004a1161008c578063c3955c7b11610066578063c3955c7b14610273578063cc7d76ce14610288578063d2f5a21a1461029b578063e14ff108146102ae57600080fd5b80638d6e004a146101d8578063c1ab52cd14610206578063c36a4ad21461022d57600080fd5b8063438599d6116100c8578063438599d61461013f5780634ba0dc041461015f578063595d53c3146101725780636ff3bb4d146101b157600080fd5b80630a9f46ad146100ef57806321e4c3011461011757806328f46f141461012c575b600080fd5b6004546100fe9062ffffff1681565b60405162ffffff90911681526020015b60405180910390f35b61012a6101253660046123b3565b6102b6565b005b61012a61013a3660046124a5565b61077d565b61015261014d36600461250d565b6108c9565b60405161010e91906125cb565b61012a61016d36600461250d565b610910565b6101997f000000000000000000000000000000000000000000000000000000000000000081565b6040516001600160a01b03909116815260200161010e565b6101997f000000000000000000000000000000000000000000000000000000000000000081565b6101eb6101e636600461250d565b610b8d565b6040805193845260208401929092529082015260600161010e565b6101997f000000000000000000000000000000000000000000000000000000000000000081565b60015460025460035461024b9260ff1691906001600160a01b031683565b6040805160ff909416845260208401929092526001600160a01b03169082015260600161010e565b61027b610be5565b60405161010e91906126ca565b61012a6102963660046127b6565b610bfe565b61012a6102a936600461250d565b611496565b61027b61177f565b62ffffff82166000908152600960205260408120805490916001600160401b0390911690036103005760405162461bcd60e51b81526004016102f79061282a565b60405180910390fd5b80546001600160401b03428116600160801b909204161161036d5760405162461bcd60e51b815260206004820152602160248201527f766f74696e6720697320636c6f736564206f6e20746869732070726f706f73616044820152601b60fa1b60648201526084016102f7565b6000826003811115610381576103816125de565b036103e35760405162461bcd60e51b815260206004820152602c60248201527f62616c6c6f74206d757374206265206361737420464f522c20414741494e535460448201526b161037b91020a129aa20a4a760a11b60648201526084016102f7565b62ffffff83166000908152600a6020908152604080832080548251818502810185019093528083529192909190849084015b8282101561046a576000848152602090819020604080516060810182526003860290920180546001600160a01b0316835260018082015484860152600290910154918301919091529083529092019101610415565b505084549293506000926001600160a01b037f000000000000000000000000000000000000000000000000000000000000000016925063a10202fc915033906001600160401b03166104bb8661178e565b6040518463ffffffff1660e01b81526004016104d993929190612861565b600060405180830381865afa1580156104f6573d6000803e3d6000fd5b505050506040513d6000823e601f3d908101601f1916820160405261051e91908101906128ee565b336000908152600b6020908152604080832062ffffff8a168452909152812091925080825460ff166003811115610557576105576125de565b14905060005b83518110156106ed57600084828151811061057a5761057a6129a6565b602002602001015190508261066657805162ffffff8a166000908152600c60205260408120865491926105ed92909190849060ff1660038111156105c0576105c06125de565b60038111156105d1576105d16125de565b815260200190815260200160002061184690919063ffffffff16565b915050610663826000015183602001518361060891906129d2565b62ffffff8d166000908152600c60205260408120895490919060ff166003811115610635576106356125de565b6003811115610646576106466125de565b815260200190815260200160002061186d9092919063ffffffff16565b50505b805162ffffff8a166000908152600c60205260408120909161069591838c60038111156105c0576105c06125de565b9150506106d782600001518360200151836106b091906129e5565b62ffffff8d166000908152600c60205260408120908d6003811115610635576106356125de565b50505080806106e5906129f8565b91505061055d565b5081548690839060ff1916600183600381111561070c5761070c6125de565b02179055507fc946bfb55e78699f70cadfad1633e797eceb5614af062f3298f377df861203c88733888661075b600c60008e62ffffff1662ffffff16815260200190815260200160002061188b565b60405161076c959493929190612a21565b60405180910390a150505050505050565b600054610100900460ff161580801561079d5750600054600160ff909116105b806107b75750303b1580156107b7575060005460ff166001145b61081a5760405162461bcd60e51b815260206004820152602e60248201527f496e697469616c697a61626c653a20636f6e747261637420697320616c72656160448201526d191e481a5b9a5d1a585b1a5e995960921b60648201526084016102f7565b6000805460ff19166001179055801561083d576000805461ff0019166101001790555b81516001805460ff191660ff90921691909117905560208201516002556040820151600380546001600160a01b0319166001600160a01b0390921691909117905580156108c5576000805461ff0019169055604051600181527f7f26b83ff96e1f2b6a682f133852f6798a09c465da95921460cefb3847402498906020015b60405180910390a15b5050565b6108ed60405180606001604052806060815260200160608152602001606081525090565b62ffffff82166000908152600c6020526040902061090a9061188b565b92915050565b62ffffff8116600090815260096020526040902080546001600160401b031661094b5760405162461bcd60e51b81526004016102f79061282a565b61096460076001600160e81b031960e885901b16611928565b8015610985575080546001600160401b03600160401b909104811642909116115b6109e65760405162461bcd60e51b815260206004820152602c60248201527f70726f706f73616c206d7573742062652071756575656420616e64207265616460448201526b7920746f206578656375746560a01b60648201526084016102f7565b60005b6002820154811015610b2657610b13826002018281548110610a0d57610a0d6129a6565b90600052602060002090600202016001018054610a2990612a7b565b80601f0160208091040260200160405190810160405280929190818152602001828054610a5590612a7b565b8015610aa25780601f10610a7757610100808354040283529160200191610aa2565b820191906000526020600020905b815481529060010190602001808311610a8557829003601f168201915b50505050506040518060400160405280601981526020017f70726f706f73616c20657865637574696f6e206661696c656400000000000000815250846002018481548110610af257610af26129a6565b60009182526020909120600290910201546001600160a01b03169190611943565b5080610b1e816129f8565b9150506109e9565b506001810180546001600160f81b0316600160fa1b179055610b5760076001600160e81b031960e885901b16611952565b5060405162ffffff831681527f934e084a11f01168de309f3226f7b0af3360b809c501b627ab68604371c5fd7c906020016108bc565b62ffffff811660009081526009602052604081208054829182916001600160401b03168203610bce5760405162461bcd60e51b81526004016102f79061282a565b610bd78161195e565b935093509350509193909250565b6060610bf9610bf46007611a7a565b611a87565b905090565b80610c5c5760405162461bcd60e51b815260206004820152602860248201527f63616e6e6f742063726561746520612070726f706f73616c2077697468206e6f60448201526720616374696f6e7360c01b60648201526084016102f7565b600082826000818110610c7157610c716129a6565b9050602002810190610c839190612ab5565b610c8c90612ad5565b8051602082015160405163feb52af560e01b81529293506000926001600160a01b037f0000000000000000000000000000000000000000000000000000000000000000169263feb52af592610ce392600401612b82565b60c0604051808303816000875af1158015610d02573d6000803e3d6000fd5b505050506040513d601f19601f82011682018060405250810190610d269190612bd1565b905060015b83811015610e875760007f00000000000000000000000000000000000000000000000000000000000000006001600160a01b031663feb52af5878785818110610d7657610d766129a6565b9050602002810190610d889190612ab5565b610d96906020810190612c71565b888886818110610da857610da86129a6565b9050602002810190610dba9190612ab5565b610dc8906020810190612c8e565b6040518463ffffffff1660e01b8152600401610de693929190612cfd565b60c0604051808303816000875af1158015610e05573d6000803e3d6000fd5b505050506040513d601f19601f82011682018060405250810190610e299190612bd1565b90508260a0015160ff168160a0015160ff161115610e7457858583818110610e5357610e536129a6565b9050602002810190610e659190612ab5565b610e6e90612ad5565b93508092505b5080610e7f816129f8565b915050610d2b565b5060018001547f00000000000000000000000000000000000000000000000000000000000000006001600160a01b03166355c31b3a6040518163ffffffff1660e01b8152600401602060405180830381865afa158015610eeb573d6000803e3d6000fd5b505050506040513d601f19601f82011682018060405250810190610f0f9190612d22565b118015610f28575060015460a082015160ff9182169116115b15610fa4576003546020830151604051630c87fa5360e21b81526001600160a01b039092169163321fe94c91610f6091600401612d3b565b60c060405180830381865afa158015610f7d573d6000803e3d6000fd5b505050506040513d601f19601f82011682018060405250810190610fa19190612bd1565b90505b60006001600160a01b037f000000000000000000000000000000000000000000000000000000000000000016638ff400f433610fe16001426129d2565b6040516001600160e01b031960e085901b1681526001600160a01b0390921660048301526024820152604401600060405180830381865afa15801561102a573d6000803e3d6000fd5b505050506040513d6000823e601f3d908101601f1916820160405261105291908101906128ee565b905060007f00000000000000000000000000000000000000000000000000000000000000006001600160a01b0316633bef7abb836040518263ffffffff1660e01b81526004016110a29190612d4e565b602060405180830381865afa1580156110bf573d6000803e3d6000fd5b505050506040513d601f19601f820116820180604052508101906110e39190612d22565b905082602001516001600160401b03168111611169576040805162461bcd60e51b81526020600482015260248101919091527f70726f706f73657220646f65736e2774206861766520656e6f75676820766f7460448201527f696e6720706f77657220746f2070726f706f7365207468697320616374696f6e60648201526084016102f7565b608083015142906000906111839063ffffffff1683612d61565b90506000856060015163ffffffff168261119d9190612d61565b60045462ffffff1660008181526009602052604090206001808201805468010000000000000000600160f81b031916600160401b9485027fff0000000000000000000000000000000000000000ffffffffffffffffffffff161733600160581b021780825583546001600160401b038a811677ffffffffffffffff0000000000000000ffffffffffffffff1990921691909117600160801b8a831602176fffffffffffffffff00000000000000001916908716909502949094178355939450909290916001600160f81b0316600160f81b830217905550865160018201805467ffffffffffffffff19166001600160401b03928316179055604088015182546001600160c01b0316600160c01b919092160217815560005b8981101561131c57816002018b8b838181106112d3576112d36129a6565b90506020028101906112e59190612ab5565b8154600181018355600092835260209092209091600202016113078282612dcf565b50508080611314906129f8565b9150506112b5565b506001810154600160401b900462ffffff166000908152600a6020526040808220815163151f92d360e01b815291516113cf9391927f00000000000000000000000000000000000000000000000000000000000000006001600160a01b03169263151f92d3926004808401938290030181865afa1580156113a1573d6000803e3d6000fd5b505050506040513d6000823e601f3d908101601f191682016040526113c99190810190612eea565b90611d4d565b8060010160089054906101000a900462ffffff1660016113ef9190612fb0565b6004805462ffffff191662ffffff92909216919091179055600181015461142c90600590600160401b900460e81b6001600160e81b031916611ddd565b5060018101546040517fe396c3447c45c285122f4831aa414b32f050697412693874b3d76915cb32d5bd9161148291600160401b820462ffffff1691600160581b90046001600160a01b0316908e908e90612fcc565b60405180910390a150505050505050505050565b62ffffff81166000908152600960205260408120805490916001600160401b0390911690036114d75760405162461bcd60e51b81526004016102f79061282a565b6114f060056001600160e81b031960e885901b16611928565b61153c5760405162461bcd60e51b815260206004820181905260248201527f70726f706f73616c206973206e6f742063757272656e746c792061637469766560448201526064016102f7565b80546001600160401b03600160801b909104811642909116116115ad5760405162461bcd60e51b815260206004820152602360248201527f766f74696e67206973206f6e676f696e6720666f7220746869732070726f706f6044820152621cd85b60ea1b60648201526084016102f7565b60008060006115bb8461195e565b919450925090506000816115cf84866129e5565b6115d991906129e5565b60018601549091506001600160401b0316811015611677576001850180546001600160f81b0316600160f91b17905561162160056001600160e81b031960e889901b16611952565b507f2a493178b5a20a5f25ba24ff7ec6ef19ab4e15e87b2d33fd2e7c1ae3655bb52f8686600101601f9054906101000a900460ff166001604051611667939291906130b9565b60405180910390a1505050505050565b60008061168485876129e5565b11156116a15761169e61169785876129e5565b8690611de9565b90505b8554600090600160c01b90046001600160401b03168211156116f657506001860180546001600160f81b0316600360f81b17905560036116f060076001600160e81b031960e88b901b16611ddd565b50611711565b506001860180546001600160f81b0316600160f91b17905560025b61172a60056001600160e81b031960e88b901b16611952565b5060018701546040517f2a493178b5a20a5f25ba24ff7ec6ef19ab4e15e87b2d33fd2e7c1ae3655bb52f9161176d918b91600160f81b900460ff169085906130b9565b60405180910390a15050505050505050565b6060610bf9610bf46005611a7a565b80516060906000816001600160401b038111156117ad576117ad6123ee565b6040519080825280602002602001820160405280156117d6578160200160208202803683370190505b50905060005b8281101561183e578481815181106117f6576117f66129a6565b602002602001015160000151828281518110611814576118146129a6565b6001600160a01b039092166020928302919091019091015280611836816129f8565b9150506117dc565b509392505050565b600080808061185e866001600160a01b038716611e08565b909450925050505b9250929050565b6000611883846001600160a01b03851684611e42565b949350505050565b6118af60405180606001604052806060815260200160608152602001606081525090565b60016000908152602083905260408120906118c982611e5f565b600260009081526020869052604081209192506118e582611e5f565b6003600090815260208890526040812091925061190182611e5f565b60408051606081018252968752602087019490945292850192909252509195945050505050565b600081815260018301602052604081205415155b9392505050565b60606118838484600085611f46565b600061193c8383612021565b6001810154600160401b900462ffffff166000908152600a60209081526040808320805482518185028101850190935280835284938493849390929091849084015b828210156119f5576000848152602090819020604080516060810182526003860290920180546001600160a01b03168352600180820154848601526002909101549183019190915290835290920191016119a0565b50505060018088015462ffffff600160401b909104166000908152600c60205260408120939450611a52925083915b6003811115611a3557611a356125de565b81526020019081526020016000208361211490919063ffffffff16565b9450611a618160006002611a24565b9350611a708160006003611a24565b9496939550505050565b6060600061193c836121a1565b80516060906000816001600160401b03811115611aa657611aa66123ee565b604051908082528060200260200182016040528015611b2657816020015b611b136040805161012081018252600080825260208201819052918101829052606081018290526080810182905260a0810182905260c081018290529060e08201908152602001606081525090565b815260200190600190039081611ac45790505b50905060005b8281101561183e5760096000868381518110611b4a57611b4a6129a6565b60209081029190910181015160e81c825281810192909252604090810160002081516101208101835281546001600160401b038082168352600160401b808304821696840196909652600160801b8204811694830194909452600160c01b9004831660608201526001820154928316608082015292820462ffffff1660a08401526001600160a01b03600160581b83041660c08401529060e083019060ff600160f81b909104166004811115611c0257611c026125de565b6004811115611c1357611c136125de565b815260200160028201805480602002602001604051908101604052809291908181526020016000905b82821015611d15576000848152602090819020604080518082019091526002850290910180546001600160a01b031682526001810180549293919291840191611c8490612a7b565b80601f0160208091040260200160405190810160405280929190818152602001828054611cb090612a7b565b8015611cfd5780601f10611cd257610100808354040283529160200191611cfd565b820191906000526020600020905b815481529060010190602001808311611ce057829003601f168201915b50505050508152505081526020019060010190611c3c565b5050505081525050828281518110611d2f57611d2f6129a6565b60200260200101819052508080611d45906129f8565b915050611b2c565b60005b8251811015611dd85781838281518110611d6c57611d6c6129a6565b602090810291909101810151825460018082018555600094855293839020825160039092020180546001600160a01b0319166001600160a01b03909216919091178155918101519282019290925560409091015160029091015580611dd0816129f8565b915050611d50565b505050565b600061193c83836121fd565b600081611dfe670de0b6b3a7640000856130e9565b61193c9190613100565b6000818152600283016020526040812054819080611e3757611e2a858561224c565b9250600091506118669050565b600192509050611866565b600082815260028401602052604081208290556118838484611ddd565b60606000611e6c83612258565b6001600160401b03811115611e8357611e836123ee565b604051908082528060200260200182016040528015611ec857816020015b6040805180820190915260008082526020820152815260200190600190039081611ea15790505b50905060005b611ed784612258565b811015611f3f57600080611eeb8684612263565b915091506040518060400160405280836001600160a01b0316815260200182815250848481518110611f1f57611f1f6129a6565b602002602001018190525050508080611f37906129f8565b915050611ece565b5092915050565b606082471015611fa75760405162461bcd60e51b815260206004820152602660248201527f416464726573733a20696e73756666696369656e742062616c616e636520666f6044820152651c8818d85b1b60d21b60648201526084016102f7565b600080866001600160a01b03168587604051611fc39190613122565b60006040518083038185875af1925050503d8060008114612000576040519150601f19603f3d011682016040523d82523d6000602084013e612005565b606091505b509150915061201687838387612272565b979650505050505050565b6000818152600183016020526040812054801561210a5760006120456001836129d2565b8554909150600090612059906001906129d2565b90508181146120be576000866000018281548110612079576120796129a6565b906000526020600020015490508087600001848154811061209c5761209c6129a6565b6000918252602080832090910192909255918252600188019052604090208390555b85548690806120cf576120cf613134565b60019003818190600052602060002001600090559055856001016000868152602001908152602001600020600090556001935050505061090a565b600091505061090a565b6000805b8351811015611f3f576000848281518110612135576121356129a6565b60200260200101519050600061215882600001518661184690919063ffffffff16565b915050612180826020015161217a846040015184611de990919063ffffffff16565b906122eb565b61218a90856129e5565b935050508080612199906129f8565b915050612118565b6060816000018054806020026020016040519081016040528092919081815260200182805480156121f157602002820191906000526020600020905b8154815260200190600101908083116121dd575b50505050509050919050565b60008181526001830160205260408120546122445750815460018181018455600084815260208082209093018490558454848252828601909352604090209190915561090a565b50600061090a565b600061193c8383611928565b600061090a82612300565b600080808061185e868661230b565b606083156122e15782516000036122da576001600160a01b0385163b6122da5760405162461bcd60e51b815260206004820152601d60248201527f416464726573733a2063616c6c20746f206e6f6e2d636f6e747261637400000060448201526064016102f7565b5081611883565b6118838383612336565b6000670de0b6b3a7640000611dfe83856130e9565b600061090a82612360565b60008080612319858561236a565b600081815260029690960160205260409095205494959350505050565b8151156123465781518083602001fd5b8060405162461bcd60e51b81526004016102f79190612d3b565b600061090a825490565b600061193c83836000826000018281548110612388576123886129a6565b9060005260206000200154905092915050565b803562ffffff811681146123ae57600080fd5b919050565b600080604083850312156123c657600080fd5b6123cf8361239b565b91506020830135600481106123e357600080fd5b809150509250929050565b634e487b7160e01b600052604160045260246000fd5b604080519081016001600160401b0381118282101715612426576124266123ee565b60405290565b604051606081016001600160401b0381118282101715612426576124266123ee565b604051601f8201601f191681016001600160401b0381118282101715612476576124766123ee565b604052919050565b60ff8116811461248d57600080fd5b50565b6001600160a01b038116811461248d57600080fd5b6000606082840312156124b757600080fd5b604051606081018181106001600160401b03821117156124d9576124d96123ee565b60405282356124e78161247e565b815260208381013590820152604083013561250181612490565b60408201529392505050565b60006020828403121561251f57600080fd5b61193c8261239b565b600081518084526020808501945080840160005b8381101561256f57815180516001600160a01b03168852602090810151908801526040870196509082019060010161253c565b509495945050505050565b600081516060845261258f6060850182612528565b9050602083015184820360208601526125a88282612528565b915050604083015184820360408601526125c28282612528565b95945050505050565b60208152600061193c602083018461257a565b634e487b7160e01b600052602160045260246000fd5b60058110612604576126046125de565b9052565b60005b8381101561262357818101518382015260200161260b565b50506000910152565b60008151808452612644816020860160208601612608565b601f01601f19169290920160200192915050565b600081518084526020808501808196508360051b8101915082860160005b858110156126bd578284038952815180516001600160a01b0316855285015160408686018190526126a98187018361262c565b9a87019a9550505090840190600101612676565b5091979650505050505050565b60006020808301818452808551808352604092508286019150828160051b87010184880160005b838110156127a857603f19898403018552815180516001600160401b03908116855288820151811689860152878201518116888601526060808301518216908601526080808301519091169085015260a08082015162ffffff169085015260c0808201516001600160a01b03169085015260e0808201516101209190612779828801826125f4565b50506101009182015191850181905261279485820183612658565b9689019694505050908601906001016126f1565b509098975050505050505050565b600080602083850312156127c957600080fd5b82356001600160401b03808211156127e057600080fd5b818501915085601f8301126127f457600080fd5b81358181111561280357600080fd5b8660208260051b850101111561281857600080fd5b60209290920196919550909350505050565b60208082526017908201527f70726f706f73616c20646f6573206e6f74206578697374000000000000000000604082015260600190565b60006060820160018060a01b03808716845260206001600160401b0387168186015260606040860152828651808552608087019150828801945060005b818110156128bc57855185168352948301949183019160010161289e565b50909998505050505050505050565b60006001600160401b038211156128e4576128e46123ee565b5060051b60200190565b6000602080838503121561290157600080fd5b82516001600160401b0381111561291757600080fd5b8301601f8101851361292857600080fd5b805161293b612936826128cb565b61244e565b81815260069190911b8201830190838101908783111561295a57600080fd5b928401925b8284101561201657604084890312156129785760008081fd5b612980612404565b845161298b81612490565b8152848601518682015282526040909301929084019061295f565b634e487b7160e01b600052603260045260246000fd5b634e487b7160e01b600052601160045260246000fd5b8181038181111561090a5761090a6129bc565b8082018082111561090a5761090a6129bc565b600060018201612a0a57612a0a6129bc565b5060010190565b6004811061248d5761248d6125de565b62ffffff861681526001600160a01b0385166020820152612a4184612a11565b83604082015260a060608201526000612a5d60a0830185612528565b8281036080840152612a6f818561257a565b98975050505050505050565b600181811c90821680612a8f57607f821691505b602082108103612aaf57634e487b7160e01b600052602260045260246000fd5b50919050565b60008235603e19833603018112612acb57600080fd5b9190910192915050565b600060408236031215612ae757600080fd5b612aef612404565b8235612afa81612490565b81526020838101356001600160401b0380821115612b1757600080fd5b9085019036601f830112612b2a57600080fd5b813581811115612b3c57612b3c6123ee565b612b4e601f8201601f1916850161244e565b91508082523684828501011115612b6457600080fd5b80848401858401376000908201840152918301919091525092915050565b6001600160a01b03831681526040602082018190526000906118839083018461262c565b80516001600160401b03811681146123ae57600080fd5b805163ffffffff811681146123ae57600080fd5b600060c08284031215612be357600080fd5b60405160c081018181106001600160401b0382111715612c0557612c056123ee565b604052612c1183612ba6565b8152612c1f60208401612ba6565b6020820152612c3060408401612ba6565b6040820152612c4160608401612bbd565b6060820152612c5260808401612bbd565b608082015260a0830151612c658161247e565b60a08201529392505050565b600060208284031215612c8357600080fd5b813561193c81612490565b6000808335601e19843603018112612ca557600080fd5b8301803591506001600160401b03821115612cbf57600080fd5b60200191503681900382131561186657600080fd5b81835281816020850137506000828201602090810191909152601f909101601f19169091010190565b6001600160a01b03841681526040602082018190526000906125c29083018486612cd4565b600060208284031215612d3457600080fd5b5051919050565b60208152600061193c602083018461262c565b60208152600061193c6020830184612528565b6001600160401b03818116838216019080821115611f3f57611f3f6129bc565b601f821115611dd857600081815260208120601f850160051c81016020861015612da85750805b601f850160051c820191505b81811015612dc757828155600101612db4565b505050505050565b8135612dda81612490565b81546001600160a01b0319166001600160a01b0391909116178155600181810160208481013536869003601e19018112612e1357600080fd5b850180356001600160401b03811115612e2b57600080fd5b8036038383011315612e3c57600080fd5b612e5081612e4a8654612a7b565b86612d81565b6000601f821160018114612e865760008315612e6e57508382018501355b600019600385901b1c1916600184901b178655612edf565b600086815260209020601f19841690835b82811015612eb657868501880135825593870193908901908701612e97565b5084821015612ed55760001960f88660031b161c198785880101351681555b50508683881b0186555b505050505050505050565b60006020808385031215612efd57600080fd5b82516001600160401b03811115612f1357600080fd5b8301601f81018513612f2457600080fd5b8051612f32612936826128cb565b81815260609182028301840191848201919088841115612f5157600080fd5b938501935b83851015612fa45780858a031215612f6e5760008081fd5b612f7661242c565b8551612f8181612490565b815285870151878201526040808701519082015283529384019391850191612f56565b50979650505050505050565b62ffffff818116838216019080821115611f3f57611f3f6129bc565b60006060820162ffffff87168352602060018060a01b038088168286015260406060818701528387855260808701905060808860051b88010194508860005b898110156130a857888703607f190183528135368c9003603e1901811261303157600080fd5b8b01803561303e81612490565b861688528087013536829003601e1901811261305957600080fd5b0186810190356001600160401b0381111561307357600080fd5b80360382131561308257600080fd5b85888a0152613094868a018284612cd4565b98505050918501919085019060010161300b565b50949b9a5050505050505050505050565b62ffffff84168152606081016130d260208301856125f4565b6130db83612a11565b826040830152949350505050565b808202811582820484141761090a5761090a6129bc565b60008261311d57634e487b7160e01b600052601260045260246000fd5b500490565b60008251612acb818460208701612608565b634e487b7160e01b600052603160045260246000fdfea2646970667358221220065fff4ffdf05d435b71cc7612ee65fcb7ca6ffcab38273229b0bf2ef379703864736f6c63430008110033","bytecodeSha1":"2724b167300c011afdb4856e3c90f444cca4932a","compiler":{"evm_version":"istanbul","optimizer":{"enabled":true,"runs":200},"version":"0.8.17+commit.8df45f5f"},"contractName":"GovernanceManager","language":"Solidity","natspec":{"kind":"dev","methods":{},"version":1},"opcodes":"PUSH1 0x80 PUSH1 0x40 MSTORE CALLVALUE DUP1 ISZERO PUSH2 0x10 JUMPI PUSH1 0x0 DUP1 REVERT JUMPDEST POP PUSH1 0x4 CALLDATASIZE LT PUSH2 0xEA JUMPI PUSH1 0x0 CALLDATALOAD PUSH1 0xE0 SHR DUP1 PUSH4 0x8D6E004A GT PUSH2 0x8C JUMPI DUP1 PUSH4 0xC3955C7B GT PUSH2 0x66 JUMPI DUP1 PUSH4 0xC3955C7B EQ PUSH2 0x273 JUMPI DUP1 PUSH4 0xCC7D76CE EQ PUSH2 0x288 JUMPI DUP1 PUSH4 0xD2F5A21A EQ PUSH2 0x29B JUMPI DUP1 PUSH4 0xE14FF108 EQ PUSH2 0x2AE JUMPI PUSH1 0x0 DUP1 REVERT JUMPDEST DUP1 PUSH4 0x8D6E004A EQ PUSH2 0x1D8 JUMPI DUP1 PUSH4 0xC1AB52CD EQ PUSH2 0x206 JUMPI DUP1 PUSH4 0xC36A4AD2 EQ PUSH2 0x22D JUMPI PUSH1 0x0 DUP1 REVERT JUMPDEST DUP1 PUSH4 0x438599D6 GT PUSH2 0xC8 JUMPI DUP1 PUSH4 0x438599D6 EQ PUSH2 0x13F JUMPI DUP1 PUSH4 0x4BA0DC04 EQ PUSH2 0x15F JUMPI DUP1 PUSH4 0x595D53C3 EQ PUSH2 0x172 JUMPI DUP1 PUSH4 0x6FF3BB4D EQ PUSH2 0x1B1 JUMPI PUSH1 0x0 DUP1 REVERT JUMPDEST DUP1 PUSH4 0xA9F46AD EQ PUSH2 0xEF JUMPI DUP1 PUSH4 0x21E4C301 EQ PUSH2 0x117 JUMPI DUP1 PUSH4 0x28F46F14 EQ PUSH2 0x12C JUMPI JUMPDEST PUSH1 0x0 DUP1 REVERT JUMPDEST PUSH1 0x4 SLOAD PUSH2 0xFE SWAP1 PUSH3 0xFFFFFF AND DUP2 JUMP JUMPDEST PUSH1 0x40 MLOAD PUSH3 0xFFFFFF SWAP1 SWAP2 AND DUP2 MSTORE PUSH1 0x20 ADD JUMPDEST PUSH1 0x40 MLOAD DUP1 SWAP2 SUB SWAP1 RETURN JUMPDEST PUSH2 0x12A PUSH2 0x125 CALLDATASIZE PUSH1 0x4 PUSH2 0x23B3 JUMP JUMPDEST PUSH2 0x2B6 JUMP JUMPDEST STOP JUMPDEST PUSH2 0x12A PUSH2 0x13A CALLDATASIZE PUSH1 0x4 PUSH2 0x24A5 JUMP JUMPDEST PUSH2 0x77D JUMP JUMPDEST PUSH2 0x152 PUSH2 0x14D CALLDATASIZE PUSH1 0x4 PUSH2 0x250D JUMP JUMPDEST PUSH2 0x8C9 JUMP JUMPDEST PUSH1 0x40 MLOAD PUSH2 0x10E SWAP2 SWAP1 PUSH2 0x25CB JUMP JUMPDEST PUSH2 0x12A PUSH2 0x16D CALLDATASIZE PUSH1 0x4 PUSH2 0x250D JUMP JUMPDEST PUSH2 0x910 JUMP JUMPDEST PUSH2 0x199 PUSH32 0x0 DUP2 JUMP JUMPDEST PUSH1 0x40 MLOAD PUSH1 0x1 PUSH1 0x1 PUSH1 0xA0 SHL SUB SWAP1 SWAP2 AND DUP2 MSTORE PUSH1 0x20 ADD PUSH2 0x10E JUMP JUMPDEST PUSH2 0x199 PUSH32 0x0 DUP2 JUMP JUMPDEST PUSH2 0x1EB PUSH2 0x1E6 CALLDATASIZE PUSH1 0x4 PUSH2 0x250D JUMP JUMPDEST PUSH2 0xB8D JUMP JUMPDEST PUSH1 0x40 DUP1 MLOAD SWAP4 DUP5 MSTORE PUSH1 0x20 DUP5 ADD SWAP3 SWAP1 SWAP3 MSTORE SWAP1 DUP3 ADD MSTORE PUSH1 0x60 ADD PUSH2 0x10E JUMP JUMPDEST PUSH2 0x199 PUSH32 0x0 DUP2 JUMP JUMPDEST PUSH1 0x1 SLOAD PUSH1 0x2 SLOAD PUSH1 0x3 SLOAD PUSH2 0x24B SWAP3 PUSH1 0xFF AND SWAP2 SWAP1 PUSH1 0x1 PUSH1 0x1 PUSH1 0xA0 SHL SUB AND DUP4 JUMP JUMPDEST PUSH1 0x40 DUP1 MLOAD PUSH1 0xFF SWAP1 SWAP5 AND DUP5 MSTORE PUSH1 0x20 DUP5 ADD SWAP3 SWAP1 SWAP3 MSTORE PUSH1 0x1 PUSH1 0x1 PUSH1 0xA0 SHL SUB AND SWAP1 DUP3 ADD MSTORE PUSH1 0x60 ADD PUSH2 0x10E JUMP JUMPDEST PUSH2 0x27B PUSH2 0xBE5 JUMP JUMPDEST PUSH1 0x40 MLOAD PUSH2 0x10E SWAP2 SWAP1 PUSH2 0x26CA JUMP JUMPDEST PUSH2 0x12A PUSH2 0x296 CALLDATASIZE PUSH1 0x4 PUSH2 0x27B6 JUMP JUMPDEST PUSH2 0xBFE JUMP JUMPDEST PUSH2 0x12A PUSH2 0x2A9 CALLDATASIZE PUSH1 0x4 PUSH2 0x250D JUMP JUMPDEST PUSH2 0x1496 JUMP JUMPDEST PUSH2 0x27B PUSH2 0x177F JUMP JUMPDEST PUSH3 0xFFFFFF DUP3 AND PUSH1 0x0 SWAP1 DUP2 MSTORE PUSH1 0x9 PUSH1 0x20 MSTORE PUSH1 0x40 DUP2 KECCAK256 DUP1 SLOAD SWAP1 SWAP2 PUSH1 0x1 PUSH1 0x1 PUSH1 0x40 SHL SUB SWAP1 SWAP2 AND SWAP1 SUB PUSH2 0x300 JUMPI PUSH1 0x40 MLOAD PUSH3 0x461BCD PUSH1 0xE5 SHL DUP2 MSTORE PUSH1 0x4 ADD PUSH2 0x2F7 SWAP1 PUSH2 0x282A JUMP JUMPDEST PUSH1 0x40 MLOAD DUP1 SWAP2 SUB SWAP1 REVERT JUMPDEST DUP1 SLOAD PUSH1 0x1 PUSH1 0x1 PUSH1 0x40 SHL SUB TIMESTAMP DUP2 AND PUSH1 0x1 PUSH1 0x80 SHL SWAP1 SWAP3 DIV AND GT PUSH2 0x36D JUMPI PUSH1 0x40 MLOAD PUSH3 0x461BCD PUSH1 0xE5 SHL DUP2 MSTORE PUSH1 0x20 PUSH1 0x4 DUP3 ADD MSTORE PUSH1 0x21 PUSH1 0x24 DUP3 ADD MSTORE PUSH32 0x766F74696E6720697320636C6F736564206F6E20746869732070726F706F7361 PUSH1 0x44 DUP3 ADD MSTORE PUSH1 0x1B PUSH1 0xFA SHL PUSH1 0x64 DUP3 ADD MSTORE PUSH1 0x84 ADD PUSH2 0x2F7 JUMP JUMPDEST PUSH1 0x0 DUP3 PUSH1 0x3 DUP2 GT ISZERO PUSH2 0x381 JUMPI PUSH2 0x381 PUSH2 0x25DE JUMP JUMPDEST SUB PUSH2 0x3E3 JUMPI PUSH1 0x40 MLOAD PUSH3 0x461BCD PUSH1 0xE5 SHL DUP2 MSTORE PUSH1 0x20 PUSH1 0x4 DUP3 ADD MSTORE PUSH1 0x2C PUSH1 0x24 DUP3 ADD MSTORE PUSH32 0x62616C6C6F74206D757374206265206361737420464F522C20414741494E5354 PUSH1 0x44 DUP3 ADD MSTORE PUSH12 0x161037B91020A129AA20A4A7 PUSH1 0xA1 SHL PUSH1 0x64 DUP3 ADD MSTORE PUSH1 0x84 ADD PUSH2 0x2F7 JUMP JUMPDEST PUSH3 0xFFFFFF DUP4 AND PUSH1 0x0 SWAP1 DUP2 MSTORE PUSH1 0xA PUSH1 0x20 SWAP1 DUP2 MSTORE PUSH1 0x40 DUP1 DUP4 KECCAK256 DUP1 SLOAD DUP3 MLOAD DUP2 DUP6 MUL DUP2 ADD DUP6 ADD SWAP1 SWAP4 MSTORE DUP1 DUP4 MSTORE SWAP2 SWAP3 SWAP1 SWAP2 SWAP1 DUP5 SWAP1 DUP5 ADD JUMPDEST DUP3 DUP3 LT ISZERO PUSH2 0x46A JUMPI PUSH1 0x0 DUP5 DUP2 MSTORE PUSH1 0x20 SWAP1 DUP2 SWAP1 KECCAK256 PUSH1 0x40 DUP1 MLOAD PUSH1 0x60 DUP2 ADD DUP3 MSTORE PUSH1 0x3 DUP7 MUL SWAP1 SWAP3 ADD DUP1 SLOAD PUSH1 0x1 PUSH1 0x1 PUSH1 0xA0 SHL SUB AND DUP4 MSTORE PUSH1 0x1 DUP1 DUP3 ADD SLOAD DUP5 DUP7 ADD MSTORE PUSH1 0x2 SWAP1 SWAP2 ADD SLOAD SWAP2 DUP4 ADD SWAP2 SWAP1 SWAP2 MSTORE SWAP1 DUP4 MSTORE SWAP1 SWAP3 ADD SWAP2 ADD PUSH2 0x415 JUMP JUMPDEST POP POP DUP5 SLOAD SWAP3 SWAP4 POP PUSH1 0x0 SWAP3 PUSH1 0x1 PUSH1 0x1 PUSH1 0xA0 SHL SUB PUSH32 0x0 AND SWAP3 POP PUSH4 0xA10202FC SWAP2 POP CALLER SWAP1 PUSH1 0x1 PUSH1 0x1 PUSH1 0x40 SHL SUB AND PUSH2 0x4BB DUP7 PUSH2 0x178E JUMP JUMPDEST PUSH1 0x40 MLOAD DUP5 PUSH4 0xFFFFFFFF AND PUSH1 0xE0 SHL DUP2 MSTORE PUSH1 0x4 ADD PUSH2 0x4D9 SWAP4 SWAP3 SWAP2 SWAP1 PUSH2 0x2861 JUMP JUMPDEST PUSH1 0x0 PUSH1 0x40 MLOAD DUP1 DUP4 SUB DUP2 DUP7 GAS STATICCALL ISZERO DUP1 ISZERO PUSH2 0x4F6 JUMPI RETURNDATASIZE PUSH1 0x0 DUP1 RETURNDATACOPY RETURNDATASIZE PUSH1 0x0 REVERT JUMPDEST POP POP POP POP PUSH1 0x40 MLOAD RETURNDATASIZE PUSH1 0x0 DUP3 RETURNDATACOPY PUSH1 0x1F RETURNDATASIZE SWAP1 DUP2 ADD PUSH1 0x1F NOT AND DUP3 ADD PUSH1 0x40 MSTORE PUSH2 0x51E SWAP2 SWAP1 DUP2 ADD SWAP1 PUSH2 0x28EE JUMP JUMPDEST CALLER PUSH1 0x0 SWAP1 DUP2 MSTORE PUSH1 0xB PUSH1 0x20 SWAP1 DUP2 MSTORE PUSH1 0x40 DUP1 DUP4 KECCAK256 PUSH3 0xFFFFFF DUP11 AND DUP5 MSTORE SWAP1 SWAP2 MSTORE DUP2 KECCAK256 SWAP2 SWAP3 POP DUP1 DUP3 SLOAD PUSH1 0xFF AND PUSH1 0x3 DUP2 GT ISZERO PUSH2 0x557 JUMPI PUSH2 0x557 PUSH2 0x25DE JUMP JUMPDEST EQ SWAP1 POP PUSH1 0x0 JUMPDEST DUP4 MLOAD DUP2 LT ISZERO PUSH2 0x6ED JUMPI PUSH1 0x0 DUP5 DUP3 DUP2 MLOAD DUP2 LT PUSH2 0x57A JUMPI PUSH2 0x57A PUSH2 0x29A6 JUMP JUMPDEST PUSH1 0x20 MUL PUSH1 0x20 ADD ADD MLOAD SWAP1 POP DUP3 PUSH2 0x666 JUMPI DUP1 MLOAD PUSH3 0xFFFFFF DUP11 AND PUSH1 0x0 SWAP1 DUP2 MSTORE PUSH1 0xC PUSH1 0x20 MSTORE PUSH1 0x40 DUP2 KECCAK256 DUP7 SLOAD SWAP2 SWAP3 PUSH2 0x5ED SWAP3 SWAP1 SWAP2 SWAP1 DUP5 SWAP1 PUSH1 0xFF AND PUSH1 0x3 DUP2 GT ISZERO PUSH2 0x5C0 JUMPI PUSH2 0x5C0 PUSH2 0x25DE JUMP JUMPDEST PUSH1 0x3 DUP2 GT ISZERO PUSH2 0x5D1 JUMPI PUSH2 0x5D1 PUSH2 0x25DE JUMP JUMPDEST DUP2 MSTORE PUSH1 0x20 ADD SWAP1 DUP2 MSTORE PUSH1 0x20 ADD PUSH1 0x0 KECCAK256 PUSH2 0x1846 SWAP1 SWAP2 SWAP1 PUSH4 0xFFFFFFFF AND JUMP JUMPDEST SWAP2 POP POP PUSH2 0x663 DUP3 PUSH1 0x0 ADD MLOAD DUP4 PUSH1 0x20 ADD MLOAD DUP4 PUSH2 0x608 SWAP2 SWAP1 PUSH2 0x29D2 JUMP JUMPDEST PUSH3 0xFFFFFF DUP14 AND PUSH1 0x0 SWAP1 DUP2 MSTORE PUSH1 0xC PUSH1 0x20 MSTORE PUSH1 0x40 DUP2 KECCAK256 DUP10 SLOAD SWAP1 SWAP2 SWAP1 PUSH1 0xFF AND PUSH1 0x3 DUP2 GT ISZERO PUSH2 0x635 JUMPI PUSH2 0x635 PUSH2 0x25DE JUMP JUMPDEST PUSH1 0x3 DUP2 GT ISZERO PUSH2 0x646 JUMPI PUSH2 0x646 PUSH2 0x25DE JUMP JUMPDEST DUP2 MSTORE PUSH1 0x20 ADD SWAP1 DUP2 MSTORE PUSH1 0x20 ADD PUSH1 0x0 KECCAK256 PUSH2 0x186D SWAP1 SWAP3 SWAP2 SWAP1 PUSH4 0xFFFFFFFF AND JUMP JUMPDEST POP POP JUMPDEST DUP1 MLOAD PUSH3 0xFFFFFF DUP11 AND PUSH1 0x0 SWAP1 DUP2 MSTORE PUSH1 0xC PUSH1 0x20 MSTORE PUSH1 0x40 DUP2 KECCAK256 SWAP1 SWAP2 PUSH2 0x695 SWAP2 DUP4 DUP13 PUSH1 0x3 DUP2 GT ISZERO PUSH2 0x5C0 JUMPI PUSH2 0x5C0 PUSH2 0x25DE JUMP JUMPDEST SWAP2 POP POP PUSH2 0x6D7 DUP3 PUSH1 0x0 ADD MLOAD DUP4 PUSH1 0x20 ADD MLOAD DUP4 PUSH2 0x6B0 SWAP2 SWAP1 PUSH2 0x29E5 JUMP JUMPDEST PUSH3 0xFFFFFF DUP14 AND PUSH1 0x0 SWAP1 DUP2 MSTORE PUSH1 0xC PUSH1 0x20 MSTORE PUSH1 0x40 DUP2 KECCAK256 SWAP1 DUP14 PUSH1 0x3 DUP2 GT ISZERO PUSH2 0x635 JUMPI PUSH2 0x635 PUSH2 0x25DE JUMP JUMPDEST POP POP POP DUP1 DUP1 PUSH2 0x6E5 SWAP1 PUSH2 0x29F8 JUMP JUMPDEST SWAP2 POP POP PUSH2 0x55D JUMP JUMPDEST POP DUP2 SLOAD DUP7 SWAP1 DUP4 SWAP1 PUSH1 0xFF NOT AND PUSH1 0x1 DUP4 PUSH1 0x3 DUP2 GT ISZERO PUSH2 0x70C JUMPI PUSH2 0x70C PUSH2 0x25DE JUMP JUMPDEST MUL OR SWAP1 SSTORE POP PUSH32 0xC946BFB55E78699F70CADFAD1633E797ECEB5614AF062F3298F377DF861203C8 DUP8 CALLER DUP9 DUP7 PUSH2 0x75B PUSH1 0xC PUSH1 0x0 DUP15 PUSH3 0xFFFFFF AND PUSH3 0xFFFFFF AND DUP2 MSTORE PUSH1 0x20 ADD SWAP1 DUP2 MSTORE PUSH1 0x20 ADD PUSH1 0x0 KECCAK256 PUSH2 0x188B JUMP JUMPDEST PUSH1 0x40 MLOAD PUSH2 0x76C SWAP6 SWAP5 SWAP4 SWAP3 SWAP2 SWAP1 PUSH2 0x2A21 JUMP JUMPDEST PUSH1 0x40 MLOAD DUP1 SWAP2 SUB SWAP1 LOG1 POP POP POP POP POP POP POP JUMP JUMPDEST PUSH1 0x0 SLOAD PUSH2 0x100 SWAP1 DIV PUSH1 0xFF AND ISZERO DUP1 DUP1 ISZERO PUSH2 0x79D JUMPI POP PUSH1 0x0 SLOAD PUSH1 0x1 PUSH1 0xFF SWAP1 SWAP2 AND LT JUMPDEST DUP1 PUSH2 0x7B7 JUMPI POP ADDRESS EXTCODESIZE ISZERO DUP1 ISZERO PUSH2 0x7B7 JUMPI POP PUSH1 0x0 SLOAD PUSH1 0xFF AND PUSH1 0x1 EQ JUMPDEST PUSH2 0x81A JUMPI PUSH1 0x40 MLOAD PUSH3 0x461BCD PUSH1 0xE5 SHL DUP2 MSTORE PUSH1 0x20 PUSH1 0x4 DUP3 ADD MSTORE PUSH1 0x2E PUSH1 0x24 DUP3 ADD MSTORE PUSH32 0x496E697469616C697A61626C653A20636F6E747261637420697320616C726561 PUSH1 0x44 DUP3 ADD MSTORE PUSH14 0x191E481A5B9A5D1A585B1A5E9959 PUSH1 0x92 SHL PUSH1 0x64 DUP3 ADD MSTORE PUSH1 0x84 ADD PUSH2 0x2F7 JUMP JUMPDEST PUSH1 0x0 DUP1 SLOAD PUSH1 0xFF NOT AND PUSH1 0x1 OR SWAP1 SSTORE DUP1 ISZERO PUSH2 0x83D JUMPI PUSH1 0x0 DUP1 SLOAD PUSH2 0xFF00 NOT AND PUSH2 0x100 OR SWAP1 SSTORE JUMPDEST DUP2 MLOAD PUSH1 0x1 DUP1 SLOAD PUSH1 0xFF NOT AND PUSH1 0xFF SWAP1 SWAP3 AND SWAP2 SWAP1 SWAP2 OR SWAP1 SSTORE PUSH1 0x20 DUP3 ADD MLOAD PUSH1 0x2 SSTORE PUSH1 0x40 DUP3 ADD MLOAD PUSH1 0x3 DUP1 SLOAD PUSH1 0x1 PUSH1 0x1 PUSH1 0xA0 SHL SUB NOT AND PUSH1 0x1 PUSH1 0x1 PUSH1 0xA0 SHL SUB SWAP1 SWAP3 AND SWAP2 SWAP1 SWAP2 OR SWAP1 SSTORE DUP1 ISZERO PUSH2 0x8C5 JUMPI PUSH1 0x0 DUP1 SLOAD PUSH2 0xFF00 NOT AND SWAP1 SSTORE PUSH1 0x40 MLOAD PUSH1 0x1 DUP2 MSTORE PUSH32 0x7F26B83FF96E1F2B6A682F133852F6798A09C465DA95921460CEFB3847402498 SWAP1 PUSH1 0x20 ADD JUMPDEST PUSH1 0x40 MLOAD DUP1 SWAP2 SUB SWAP1 LOG1 JUMPDEST POP POP JUMP JUMPDEST PUSH2 0x8ED PUSH1 0x40 MLOAD DUP1 PUSH1 0x60 ADD PUSH1 0x40 MSTORE DUP1 PUSH1 0x60 DUP2 MSTORE PUSH1 0x20 ADD PUSH1 0x60 DUP2 MSTORE PUSH1 0x20 ADD PUSH1 0x60 DUP2 MSTORE POP SWAP1 JUMP JUMPDEST PUSH3 0xFFFFFF DUP3 AND PUSH1 0x0 SWAP1 DUP2 MSTORE PUSH1 0xC PUSH1 0x20 MSTORE PUSH1 0x40 SWAP1 KECCAK256 PUSH2 0x90A SWAP1 PUSH2 0x188B JUMP JUMPDEST SWAP3 SWAP2 POP POP JUMP JUMPDEST PUSH3 0xFFFFFF DUP2 AND PUSH1 0x0 SWAP1 DUP2 MSTORE PUSH1 0x9 PUSH1 0x20 MSTORE PUSH1 0x40 SWAP1 KECCAK256 DUP1 SLOAD PUSH1 0x1 PUSH1 0x1 PUSH1 0x40 SHL SUB AND PUSH2 0x94B JUMPI PUSH1 0x40 MLOAD PUSH3 0x461BCD PUSH1 0xE5 SHL DUP2 MSTORE PUSH1 0x4 ADD PUSH2 0x2F7 SWAP1 PUSH2 0x282A JUMP JUMPDEST PUSH2 0x964 PUSH1 0x7 PUSH1 0x1 PUSH1 0x1 PUSH1 0xE8 SHL SUB NOT PUSH1 0xE8 DUP6 SWAP1 SHL AND PUSH2 0x1928 JUMP JUMPDEST DUP1 ISZERO PUSH2 0x985 JUMPI POP DUP1 SLOAD PUSH1 0x1 PUSH1 0x1 PUSH1 0x40 SHL SUB PUSH1 0x1 PUSH1 0x40 SHL SWAP1 SWAP2 DIV DUP2 AND TIMESTAMP SWAP1 SWAP2 AND GT JUMPDEST PUSH2 0x9E6 JUMPI PUSH1 0x40 MLOAD PUSH3 0x461BCD PUSH1 0xE5 SHL DUP2 MSTORE PUSH1 0x20 PUSH1 0x4 DUP3 ADD MSTORE PUSH1 0x2C PUSH1 0x24 DUP3 ADD MSTORE PUSH32 0x70726F706F73616C206D7573742062652071756575656420616E642072656164 PUSH1 0x44 DUP3 ADD MSTORE PUSH12 0x7920746F2065786563757465 PUSH1 0xA0 SHL PUSH1 0x64 DUP3 ADD MSTORE PUSH1 0x84 ADD PUSH2 0x2F7 JUMP JUMPDEST PUSH1 0x0 JUMPDEST PUSH1 0x2 DUP3 ADD SLOAD DUP2 LT ISZERO PUSH2 0xB26 JUMPI PUSH2 0xB13 DUP3 PUSH1 0x2 ADD DUP3 DUP2 SLOAD DUP2 LT PUSH2 0xA0D JUMPI PUSH2 0xA0D PUSH2 0x29A6 JUMP JUMPDEST SWAP1 PUSH1 0x0 MSTORE PUSH1 0x20 PUSH1 0x0 KECCAK256 SWAP1 PUSH1 0x2 MUL ADD PUSH1 0x1 ADD DUP1 SLOAD PUSH2 0xA29 SWAP1 PUSH2 0x2A7B JUMP JUMPDEST DUP1 PUSH1 0x1F ADD PUSH1 0x20 DUP1 SWAP2 DIV MUL PUSH1 0x20 ADD PUSH1 0x40 MLOAD SWAP1 DUP2 ADD PUSH1 0x40 MSTORE DUP1 SWAP3 SWAP2 SWAP1 DUP2 DUP2 MSTORE PUSH1 0x20 ADD DUP3 DUP1 SLOAD PUSH2 0xA55 SWAP1 PUSH2 0x2A7B JUMP JUMPDEST DUP1 ISZERO PUSH2 0xAA2 JUMPI DUP1 PUSH1 0x1F LT PUSH2 0xA77 JUMPI PUSH2 0x100 DUP1 DUP4 SLOAD DIV MUL DUP4 MSTORE SWAP2 PUSH1 0x20 ADD SWAP2 PUSH2 0xAA2 JUMP JUMPDEST DUP3 ADD SWAP2 SWAP1 PUSH1 0x0 MSTORE PUSH1 0x20 PUSH1 0x0 KECCAK256 SWAP1 JUMPDEST DUP2 SLOAD DUP2 MSTORE SWAP1 PUSH1 0x1 ADD SWAP1 PUSH1 0x20 ADD DUP1 DUP4 GT PUSH2 0xA85 JUMPI DUP3 SWAP1 SUB PUSH1 0x1F AND DUP3 ADD SWAP2 JUMPDEST POP POP POP POP POP PUSH1 0x40 MLOAD DUP1 PUSH1 0x40 ADD PUSH1 0x40 MSTORE DUP1 PUSH1 0x19 DUP2 MSTORE PUSH1 0x20 ADD PUSH32 0x70726F706F73616C20657865637574696F6E206661696C656400000000000000 DUP2 MSTORE POP DUP5 PUSH1 0x2 ADD DUP5 DUP2 SLOAD DUP2 LT PUSH2 0xAF2 JUMPI PUSH2 0xAF2 PUSH2 0x29A6 JUMP JUMPDEST PUSH1 0x0 SWAP2 DUP3 MSTORE PUSH1 0x20 SWAP1 SWAP2 KECCAK256 PUSH1 0x2 SWAP1 SWAP2 MUL ADD SLOAD PUSH1 0x1 PUSH1 0x1 PUSH1 0xA0 SHL SUB AND SWAP2 SWAP1 PUSH2 0x1943 JUMP JUMPDEST POP DUP1 PUSH2 0xB1E DUP2 PUSH2 0x29F8 JUMP JUMPDEST SWAP2 POP POP PUSH2 0x9E9 JUMP JUMPDEST POP PUSH1 0x1 DUP2 ADD DUP1 SLOAD PUSH1 0x1 PUSH1 0x1 PUSH1 0xF8 SHL SUB AND PUSH1 0x1 PUSH1 0xFA SHL OR SWAP1 SSTORE PUSH2 0xB57 PUSH1 0x7 PUSH1 0x1 PUSH1 0x1 PUSH1 0xE8 SHL SUB NOT PUSH1 0xE8 DUP6 SWAP1 SHL AND PUSH2 0x1952 JUMP JUMPDEST POP PUSH1 0x40 MLOAD PUSH3 0xFFFFFF DUP4 AND DUP2 MSTORE PUSH32 0x934E084A11F01168DE309F3226F7B0AF3360B809C501B627AB68604371C5FD7C SWAP1 PUSH1 0x20 ADD PUSH2 0x8BC JUMP JUMPDEST PUSH3 0xFFFFFF DUP2 AND PUSH1 0x0 SWAP1 DUP2 MSTORE PUSH1 0x9 PUSH1 0x20 MSTORE PUSH1 0x40 DUP2 KECCAK256 DUP1 SLOAD DUP3 SWAP2 DUP3 SWAP2 PUSH1 0x1 PUSH1 0x1 PUSH1 0x40 SHL SUB AND DUP3 SUB PUSH2 0xBCE JUMPI PUSH1 0x40 MLOAD PUSH3 0x461BCD PUSH1 0xE5 SHL DUP2 MSTORE PUSH1 0x4 ADD PUSH2 0x2F7 SWAP1 PUSH2 0x282A JUMP JUMPDEST PUSH2 0xBD7 DUP2 PUSH2 0x195E JUMP JUMPDEST SWAP4 POP SWAP4 POP SWAP4 POP POP SWAP2 SWAP4 SWAP1 SWAP3 POP JUMP JUMPDEST PUSH1 0x60 PUSH2 0xBF9 PUSH2 0xBF4 PUSH1 0x7 PUSH2 0x1A7A JUMP JUMPDEST PUSH2 0x1A87 JUMP JUMPDEST SWAP1 POP SWAP1 JUMP JUMPDEST DUP1 PUSH2 0xC5C JUMPI PUSH1 0x40 MLOAD PUSH3 0x461BCD PUSH1 0xE5 SHL DUP2 MSTORE PUSH1 0x20 PUSH1 0x4 DUP3 ADD MSTORE PUSH1 0x28 PUSH1 0x24 DUP3 ADD MSTORE PUSH32 0x63616E6E6F742063726561746520612070726F706F73616C2077697468206E6F PUSH1 0x44 DUP3 ADD MSTORE PUSH8 0x20616374696F6E73 PUSH1 0xC0 SHL PUSH1 0x64 DUP3 ADD MSTORE PUSH1 0x84 ADD PUSH2 0x2F7 JUMP JUMPDEST PUSH1 0x0 DUP3 DUP3 PUSH1 0x0 DUP2 DUP2 LT PUSH2 0xC71 JUMPI PUSH2 0xC71 PUSH2 0x29A6 JUMP JUMPDEST SWAP1 POP PUSH1 0x20 MUL DUP2 ADD SWAP1 PUSH2 0xC83 SWAP2 SWAP1 PUSH2 0x2AB5 JUMP JUMPDEST PUSH2 0xC8C SWAP1 PUSH2 0x2AD5 JUMP JUMPDEST DUP1 MLOAD PUSH1 0x20 DUP3 ADD MLOAD PUSH1 0x40 MLOAD PUSH4 0xFEB52AF5 PUSH1 0xE0 SHL DUP2 MSTORE SWAP3 SWAP4 POP PUSH1 0x0 SWAP3 PUSH1 0x1 PUSH1 0x1 PUSH1 0xA0 SHL SUB PUSH32 0x0 AND SWAP3 PUSH4 0xFEB52AF5 SWAP3 PUSH2 0xCE3 SWAP3 PUSH1 0x4 ADD PUSH2 0x2B82 JUMP JUMPDEST PUSH1 0xC0 PUSH1 0x40 MLOAD DUP1 DUP4 SUB DUP2 PUSH1 0x0 DUP8 GAS CALL ISZERO DUP1 ISZERO PUSH2 0xD02 JUMPI RETURNDATASIZE PUSH1 0x0 DUP1 RETURNDATACOPY RETURNDATASIZE PUSH1 0x0 REVERT JUMPDEST POP POP POP POP PUSH1 0x40 MLOAD RETURNDATASIZE PUSH1 0x1F NOT PUSH1 0x1F DUP3 ADD AND DUP3 ADD DUP1 PUSH1 0x40 MSTORE POP DUP2 ADD SWAP1 PUSH2 0xD26 SWAP2 SWAP1 PUSH2 0x2BD1 JUMP JUMPDEST SWAP1 POP PUSH1 0x1 JUMPDEST DUP4 DUP2 LT ISZERO PUSH2 0xE87 JUMPI PUSH1 0x0 PUSH32 0x0 PUSH1 0x1 PUSH1 0x1 PUSH1 0xA0 SHL SUB AND PUSH4 0xFEB52AF5 DUP8 DUP8 DUP6 DUP2 DUP2 LT PUSH2 0xD76 JUMPI PUSH2 0xD76 PUSH2 0x29A6 JUMP JUMPDEST SWAP1 POP PUSH1 0x20 MUL DUP2 ADD SWAP1 PUSH2 0xD88 SWAP2 SWAP1 PUSH2 0x2AB5 JUMP JUMPDEST PUSH2 0xD96 SWAP1 PUSH1 0x20 DUP2 ADD SWAP1 PUSH2 0x2C71 JUMP JUMPDEST DUP9 DUP9 DUP7 DUP2 DUP2 LT PUSH2 0xDA8 JUMPI PUSH2 0xDA8 PUSH2 0x29A6 JUMP JUMPDEST SWAP1 POP PUSH1 0x20 MUL DUP2 ADD SWAP1 PUSH2 0xDBA SWAP2 SWAP1 PUSH2 0x2AB5 JUMP JUMPDEST PUSH2 0xDC8 SWAP1 PUSH1 0x20 DUP2 ADD SWAP1 PUSH2 0x2C8E JUMP JUMPDEST PUSH1 0x40 MLOAD DUP5 PUSH4 0xFFFFFFFF AND PUSH1 0xE0 SHL DUP2 MSTORE PUSH1 0x4 ADD PUSH2 0xDE6 SWAP4 SWAP3 SWAP2 SWAP1 PUSH2 0x2CFD JUMP JUMPDEST PUSH1 0xC0 PUSH1 0x40 MLOAD DUP1 DUP4 SUB DUP2 PUSH1 0x0 DUP8 GAS CALL ISZERO DUP1 ISZERO PUSH2 0xE05 JUMPI RETURNDATASIZE PUSH1 0x0 DUP1 RETURNDATACOPY RETURNDATASIZE PUSH1 0x0 REVERT JUMPDEST POP POP POP POP PUSH1 0x40 MLOAD RETURNDATASIZE PUSH1 0x1F NOT PUSH1 0x1F DUP3 ADD AND DUP3 ADD DUP1 PUSH1 0x40 MSTORE POP DUP2 ADD SWAP1 PUSH2 0xE29 SWAP2 SWAP1 PUSH2 0x2BD1 JUMP JUMPDEST SWAP1 POP DUP3 PUSH1 0xA0 ADD MLOAD PUSH1 0xFF AND DUP2 PUSH1 0xA0 ADD MLOAD PUSH1 0xFF AND GT ISZERO PUSH2 0xE74 JUMPI DUP6 DUP6 DUP4 DUP2 DUP2 LT PUSH2 0xE53 JUMPI PUSH2 0xE53 PUSH2 0x29A6 JUMP JUMPDEST SWAP1 POP PUSH1 0x20 MUL DUP2 ADD SWAP1 PUSH2 0xE65 SWAP2 SWAP1 PUSH2 0x2AB5 JUMP JUMPDEST PUSH2 0xE6E SWAP1 PUSH2 0x2AD5 JUMP JUMPDEST SWAP4 POP DUP1 SWAP3 POP JUMPDEST POP DUP1 PUSH2 0xE7F DUP2 PUSH2 0x29F8 JUMP JUMPDEST SWAP2 POP POP PUSH2 0xD2B JUMP JUMPDEST POP PUSH1 0x1 DUP1 ADD SLOAD PUSH32 0x0 PUSH1 0x1 PUSH1 0x1 PUSH1 0xA0 SHL SUB AND PUSH4 0x55C31B3A PUSH1 0x40 MLOAD DUP2 PUSH4 0xFFFFFFFF AND PUSH1 0xE0 SHL DUP2 MSTORE PUSH1 0x4 ADD PUSH1 0x20 PUSH1 0x40 MLOAD DUP1 DUP4 SUB DUP2 DUP7 GAS STATICCALL ISZERO DUP1 ISZERO PUSH2 0xEEB JUMPI RETURNDATASIZE PUSH1 0x0 DUP1 RETURNDATACOPY RETURNDATASIZE PUSH1 0x0 REVERT JUMPDEST POP POP POP POP PUSH1 0x40 MLOAD RETURNDATASIZE PUSH1 0x1F NOT PUSH1 0x1F DUP3 ADD AND DUP3 ADD DUP1 PUSH1 0x40 MSTORE POP DUP2 ADD SWAP1 PUSH2 0xF0F SWAP2 SWAP1 PUSH2 0x2D22 JUMP JUMPDEST GT DUP1 ISZERO PUSH2 0xF28 JUMPI POP PUSH1 0x1 SLOAD PUSH1 0xA0 DUP3 ADD MLOAD PUSH1 0xFF SWAP2 DUP3 AND SWAP2 AND GT JUMPDEST ISZERO PUSH2 0xFA4 JUMPI PUSH1 0x3 SLOAD PUSH1 0x20 DUP4 ADD MLOAD PUSH1 0x40 MLOAD PUSH4 0xC87FA53 PUSH1 0xE2 SHL DUP2 MSTORE PUSH1 0x1 PUSH1 0x1 PUSH1 0xA0 SHL SUB SWAP1 SWAP3 AND SWAP2 PUSH4 0x321FE94C SWAP2 PUSH2 0xF60 SWAP2 PUSH1 0x4 ADD PUSH2 0x2D3B JUMP JUMPDEST PUSH1 0xC0 PUSH1 0x40 MLOAD DUP1 DUP4 SUB DUP2 DUP7 GAS STATICCALL ISZERO DUP1 ISZERO PUSH2 0xF7D JUMPI RETURNDATASIZE PUSH1 0x0 DUP1 RETURNDATACOPY RETURNDATASIZE PUSH1 0x0 REVERT JUMPDEST POP POP POP POP PUSH1 0x40 MLOAD RETURNDATASIZE PUSH1 0x1F NOT PUSH1 0x1F DUP3 ADD AND DUP3 ADD DUP1 PUSH1 0x40 MSTORE POP DUP2 ADD SWAP1 PUSH2 0xFA1 SWAP2 SWAP1 PUSH2 0x2BD1 JUMP JUMPDEST SWAP1 POP JUMPDEST PUSH1 0x0 PUSH1 0x1 PUSH1 0x1 PUSH1 0xA0 SHL SUB PUSH32 0x0 AND PUSH4 0x8FF400F4 CALLER PUSH2 0xFE1 PUSH1 0x1 TIMESTAMP PUSH2 0x29D2 JUMP JUMPDEST PUSH1 0x40 MLOAD PUSH1 0x1 PUSH1 0x1 PUSH1 0xE0 SHL SUB NOT PUSH1 0xE0 DUP6 SWAP1 SHL AND DUP2 MSTORE PUSH1 0x1 PUSH1 0x1 PUSH1 0xA0 SHL SUB SWAP1 SWAP3 AND PUSH1 0x4 DUP4 ADD MSTORE PUSH1 0x24 DUP3 ADD MSTORE PUSH1 0x44 ADD PUSH1 0x0 PUSH1 0x40 MLOAD DUP1 DUP4 SUB DUP2 DUP7 GAS STATICCALL ISZERO DUP1 ISZERO PUSH2 0x102A JUMPI RETURNDATASIZE PUSH1 0x0 DUP1 RETURNDATACOPY RETURNDATASIZE PUSH1 0x0 REVERT JUMPDEST POP POP POP POP PUSH1 0x40 MLOAD RETURNDATASIZE PUSH1 0x0 DUP3 RETURNDATACOPY PUSH1 0x1F RETURNDATASIZE SWAP1 DUP2 ADD PUSH1 0x1F NOT AND DUP3 ADD PUSH1 0x40 MSTORE PUSH2 0x1052 SWAP2 SWAP1 DUP2 ADD SWAP1 PUSH2 0x28EE JUMP JUMPDEST SWAP1 POP PUSH1 0x0 PUSH32 0x0 PUSH1 0x1 PUSH1 0x1 PUSH1 0xA0 SHL SUB AND PUSH4 0x3BEF7ABB DUP4 PUSH1 0x40 MLOAD DUP3 PUSH4 0xFFFFFFFF AND PUSH1 0xE0 SHL DUP2 MSTORE PUSH1 0x4 ADD PUSH2 0x10A2 SWAP2 SWAP1 PUSH2 0x2D4E JUMP JUMPDEST PUSH1 0x20 PUSH1 0x40 MLOAD DUP1 DUP4 SUB DUP2 DUP7 GAS STATICCALL ISZERO DUP1 ISZERO PUSH2 0x10BF JUMPI RETURNDATASIZE PUSH1 0x0 DUP1 RETURNDATACOPY RETURNDATASIZE PUSH1 0x0 REVERT JUMPDEST POP POP POP POP PUSH1 0x40 MLOAD RETURNDATASIZE PUSH1 0x1F NOT PUSH1 0x1F DUP3 ADD AND DUP3 ADD DUP1 PUSH1 0x40 MSTORE POP DUP2 ADD SWAP1 PUSH2 0x10E3 SWAP2 SWAP1 PUSH2 0x2D22 JUMP JUMPDEST SWAP1 POP DUP3 PUSH1 0x20 ADD MLOAD PUSH1 0x1 PUSH1 0x1 PUSH1 0x40 SHL SUB AND DUP2 GT PUSH2 0x1169 JUMPI PUSH1 0x40 DUP1 MLOAD PUSH3 0x461BCD PUSH1 0xE5 SHL DUP2 MSTORE PUSH1 0x20 PUSH1 0x4 DUP3 ADD MSTORE PUSH1 0x24 DUP2 ADD SWAP2 SWAP1 SWAP2 MSTORE PUSH32 0x70726F706F73657220646F65736E2774206861766520656E6F75676820766F74 PUSH1 0x44 DUP3 ADD MSTORE PUSH32 0x696E6720706F77657220746F2070726F706F7365207468697320616374696F6E PUSH1 0x64 DUP3 ADD MSTORE PUSH1 0x84 ADD PUSH2 0x2F7 JUMP JUMPDEST PUSH1 0x80 DUP4 ADD MLOAD TIMESTAMP SWAP1 PUSH1 0x0 SWAP1 PUSH2 0x1183 SWAP1 PUSH4 0xFFFFFFFF AND DUP4 PUSH2 0x2D61 JUMP JUMPDEST SWAP1 POP PUSH1 0x0 DUP6 PUSH1 0x60 ADD MLOAD PUSH4 0xFFFFFFFF AND DUP3 PUSH2 0x119D SWAP2 SWAP1 PUSH2 0x2D61 JUMP JUMPDEST PUSH1 0x4 SLOAD PUSH3 0xFFFFFF AND PUSH1 0x0 DUP2 DUP2 MSTORE PUSH1 0x9 PUSH1 0x20 MSTORE PUSH1 0x40 SWAP1 KECCAK256 PUSH1 0x1 DUP1 DUP3 ADD DUP1 SLOAD PUSH9 0x10000000000000000 PUSH1 0x1 PUSH1 0xF8 SHL SUB NOT AND PUSH1 0x1 PUSH1 0x40 SHL SWAP5 DUP6 MUL PUSH32 0xFF0000000000000000000000000000000000000000FFFFFFFFFFFFFFFFFFFFFF AND OR CALLER PUSH1 0x1 PUSH1 0x58 SHL MUL OR DUP1 DUP3 SSTORE DUP4 SLOAD PUSH1 0x1 PUSH1 0x1 PUSH1 0x40 SHL SUB DUP11 DUP2 AND PUSH24 0xFFFFFFFFFFFFFFFF0000000000000000FFFFFFFFFFFFFFFF NOT SWAP1 SWAP3 AND SWAP2 SWAP1 SWAP2 OR PUSH1 0x1 PUSH1 0x80 SHL DUP11 DUP4 AND MUL OR PUSH16 0xFFFFFFFFFFFFFFFF0000000000000000 NOT AND SWAP1 DUP8 AND SWAP1 SWAP6 MUL SWAP5 SWAP1 SWAP5 OR DUP4 SSTORE SWAP4 SWAP5 POP SWAP1 SWAP3 SWAP1 SWAP2 PUSH1 0x1 PUSH1 0x1 PUSH1 0xF8 SHL SUB AND PUSH1 0x1 PUSH1 0xF8 SHL DUP4 MUL OR SWAP1 SSTORE POP DUP7 MLOAD PUSH1 0x1 DUP3 ADD DUP1 SLOAD PUSH8 0xFFFFFFFFFFFFFFFF NOT AND PUSH1 0x1 PUSH1 0x1 PUSH1 0x40 SHL SUB SWAP3 DUP4 AND OR SWAP1 SSTORE PUSH1 0x40 DUP9 ADD MLOAD DUP3 SLOAD PUSH1 0x1 PUSH1 0x1 PUSH1 0xC0 SHL SUB AND PUSH1 0x1 PUSH1 0xC0 SHL SWAP2 SWAP1 SWAP3 AND MUL OR DUP2 SSTORE PUSH1 0x0 JUMPDEST DUP10 DUP2 LT ISZERO PUSH2 0x131C JUMPI DUP2 PUSH1 0x2 ADD DUP12 DUP12 DUP4 DUP2 DUP2 LT PUSH2 0x12D3 JUMPI PUSH2 0x12D3 PUSH2 0x29A6 JUMP JUMPDEST SWAP1 POP PUSH1 0x20 MUL DUP2 ADD SWAP1 PUSH2 0x12E5 SWAP2 SWAP1 PUSH2 0x2AB5 JUMP JUMPDEST DUP2 SLOAD PUSH1 0x1 DUP2 ADD DUP4 SSTORE PUSH1 0x0 SWAP3 DUP4 MSTORE PUSH1 0x20 SWAP1 SWAP3 KECCAK256 SWAP1 SWAP2 PUSH1 0x2 MUL ADD PUSH2 0x1307 DUP3 DUP3 PUSH2 0x2DCF JUMP JUMPDEST POP POP DUP1 DUP1 PUSH2 0x1314 SWAP1 PUSH2 0x29F8 JUMP JUMPDEST SWAP2 POP POP PUSH2 0x12B5 JUMP JUMPDEST POP PUSH1 0x1 DUP2 ADD SLOAD PUSH1 0x1 PUSH1 0x40 SHL SWAP1 DIV PUSH3 0xFFFFFF AND PUSH1 0x0 SWAP1 DUP2 MSTORE PUSH1 0xA PUSH1 0x20 MSTORE PUSH1 0x40 DUP1 DUP3 KECCAK256 DUP2 MLOAD PUSH4 0x151F92D3 PUSH1 0xE0 SHL DUP2 MSTORE SWAP2 MLOAD PUSH2 0x13CF SWAP4 SWAP2 SWAP3 PUSH32 0x0 PUSH1 0x1 PUSH1 0x1 PUSH1 0xA0 SHL SUB AND SWAP3 PUSH4 0x151F92D3 SWAP3 PUSH1 0x4 DUP1 DUP5 ADD SWAP4 DUP3 SWAP1 SUB ADD DUP2 DUP7 GAS STATICCALL ISZERO DUP1 ISZERO PUSH2 0x13A1 JUMPI RETURNDATASIZE PUSH1 0x0 DUP1 RETURNDATACOPY RETURNDATASIZE PUSH1 0x0 REVERT JUMPDEST POP POP POP POP PUSH1 0x40 MLOAD RETURNDATASIZE PUSH1 0x0 DUP3 RETURNDATACOPY PUSH1 0x1F RETURNDATASIZE SWAP1 DUP2 ADD PUSH1 0x1F NOT AND DUP3 ADD PUSH1 0x40 MSTORE PUSH2 0x13C9 SWAP2 SWAP1 DUP2 ADD SWAP1 PUSH2 0x2EEA JUMP JUMPDEST SWAP1 PUSH2 0x1D4D JUMP JUMPDEST DUP1 PUSH1 0x1 ADD PUSH1 0x8 SWAP1 SLOAD SWAP1 PUSH2 0x100 EXP SWAP1 DIV PUSH3 0xFFFFFF AND PUSH1 0x1 PUSH2 0x13EF SWAP2 SWAP1 PUSH2 0x2FB0 JUMP JUMPDEST PUSH1 0x4 DUP1 SLOAD PUSH3 0xFFFFFF NOT AND PUSH3 0xFFFFFF SWAP3 SWAP1 SWAP3 AND SWAP2 SWAP1 SWAP2 OR SWAP1 SSTORE PUSH1 0x1 DUP2 ADD SLOAD PUSH2 0x142C SWAP1 PUSH1 0x5 SWAP1 PUSH1 0x1 PUSH1 0x40 SHL SWAP1 DIV PUSH1 0xE8 SHL PUSH1 0x1 PUSH1 0x1 PUSH1 0xE8 SHL SUB NOT AND PUSH2 0x1DDD JUMP JUMPDEST POP PUSH1 0x1 DUP2 ADD SLOAD PUSH1 0x40 MLOAD PUSH32 0xE396C3447C45C285122F4831AA414B32F050697412693874B3D76915CB32D5BD SWAP2 PUSH2 0x1482 SWAP2 PUSH1 0x1 PUSH1 0x40 SHL DUP3 DIV PUSH3 0xFFFFFF AND SWAP2 PUSH1 0x1 PUSH1 0x58 SHL SWAP1 DIV PUSH1 0x1 PUSH1 0x1 PUSH1 0xA0 SHL SUB AND SWAP1 DUP15 SWAP1 DUP15 SWAP1 PUSH2 0x2FCC JUMP JUMPDEST PUSH1 0x40 MLOAD DUP1 SWAP2 SUB SWAP1 LOG1 POP POP POP POP POP POP POP POP POP POP JUMP JUMPDEST PUSH3 0xFFFFFF DUP2 AND PUSH1 0x0 SWAP1 DUP2 MSTORE PUSH1 0x9 PUSH1 0x20 MSTORE PUSH1 0x40 DUP2 KECCAK256 DUP1 SLOAD SWAP1 SWAP2 PUSH1 0x1 PUSH1 0x1 PUSH1 0x40 SHL SUB SWAP1 SWAP2 AND SWAP1 SUB PUSH2 0x14D7 JUMPI PUSH1 0x40 MLOAD PUSH3 0x461BCD PUSH1 0xE5 SHL DUP2 MSTORE PUSH1 0x4 ADD PUSH2 0x2F7 SWAP1 PUSH2 0x282A JUMP JUMPDEST PUSH2 0x14F0 PUSH1 0x5 PUSH1 0x1 PUSH1 0x1 PUSH1 0xE8 SHL SUB NOT PUSH1 0xE8 DUP6 SWAP1 SHL AND PUSH2 0x1928 JUMP JUMPDEST PUSH2 0x153C JUMPI PUSH1 0x40 MLOAD PUSH3 0x461BCD PUSH1 0xE5 SHL DUP2 MSTORE PUSH1 0x20 PUSH1 0x4 DUP3 ADD DUP2 SWAP1 MSTORE PUSH1 0x24 DUP3 ADD MSTORE PUSH32 0x70726F706F73616C206973206E6F742063757272656E746C7920616374697665 PUSH1 0x44 DUP3 ADD MSTORE PUSH1 0x64 ADD PUSH2 0x2F7 JUMP JUMPDEST DUP1 SLOAD PUSH1 0x1 PUSH1 0x1 PUSH1 0x40 SHL SUB PUSH1 0x1 PUSH1 0x80 SHL SWAP1 SWAP2 DIV DUP2 AND TIMESTAMP SWAP1 SWAP2 AND GT PUSH2 0x15AD JUMPI PUSH1 0x40 MLOAD PUSH3 0x461BCD PUSH1 0xE5 SHL DUP2 MSTORE PUSH1 0x20 PUSH1 0x4 DUP3 ADD MSTORE PUSH1 0x23 PUSH1 0x24 DUP3 ADD MSTORE PUSH32 0x766F74696E67206973206F6E676F696E6720666F7220746869732070726F706F PUSH1 0x44 DUP3 ADD MSTORE PUSH3 0x1CD85B PUSH1 0xEA SHL PUSH1 0x64 DUP3 ADD MSTORE PUSH1 0x84 ADD PUSH2 0x2F7 JUMP JUMPDEST PUSH1 0x0 DUP1 PUSH1 0x0 PUSH2 0x15BB DUP5 PUSH2 0x195E JUMP JUMPDEST SWAP2 SWAP5 POP SWAP3 POP SWAP1 POP PUSH1 0x0 DUP2 PUSH2 0x15CF DUP5 DUP7 PUSH2 0x29E5 JUMP JUMPDEST PUSH2 0x15D9 SWAP2 SWAP1 PUSH2 0x29E5 JUMP JUMPDEST PUSH1 0x1 DUP7 ADD SLOAD SWAP1 SWAP2 POP PUSH1 0x1 PUSH1 0x1 PUSH1 0x40 SHL SUB AND DUP2 LT ISZERO PUSH2 0x1677 JUMPI PUSH1 0x1 DUP6 ADD DUP1 SLOAD PUSH1 0x1 PUSH1 0x1 PUSH1 0xF8 SHL SUB AND PUSH1 0x1 PUSH1 0xF9 SHL OR SWAP1 SSTORE PUSH2 0x1621 PUSH1 0x5 PUSH1 0x1 PUSH1 0x1 PUSH1 0xE8 SHL SUB NOT PUSH1 0xE8 DUP10 SWAP1 SHL AND PUSH2 0x1952 JUMP JUMPDEST POP PUSH32 0x2A493178B5A20A5F25BA24FF7EC6EF19AB4E15E87B2D33FD2E7C1AE3655BB52F DUP7 DUP7 PUSH1 0x1 ADD PUSH1 0x1F SWAP1 SLOAD SWAP1 PUSH2 0x100 EXP SWAP1 DIV PUSH1 0xFF AND PUSH1 0x1 PUSH1 0x40 MLOAD PUSH2 0x1667 SWAP4 SWAP3 SWAP2 SWAP1 PUSH2 0x30B9 JUMP JUMPDEST PUSH1 0x40 MLOAD DUP1 SWAP2 SUB SWAP1 LOG1 POP POP POP POP POP POP JUMP JUMPDEST PUSH1 0x0 DUP1 PUSH2 0x1684 DUP6 DUP8 PUSH2 0x29E5 JUMP JUMPDEST GT ISZERO PUSH2 0x16A1 JUMPI PUSH2 0x169E PUSH2 0x1697 DUP6 DUP8 PUSH2 0x29E5 JUMP JUMPDEST DUP7 SWAP1 PUSH2 0x1DE9 JUMP JUMPDEST SWAP1 POP JUMPDEST DUP6 SLOAD PUSH1 0x0 SWAP1 PUSH1 0x1 PUSH1 0xC0 SHL SWAP1 DIV PUSH1 0x1 PUSH1 0x1 PUSH1 0x40 SHL SUB AND DUP3 GT ISZERO PUSH2 0x16F6 JUMPI POP PUSH1 0x1 DUP7 ADD DUP1 SLOAD PUSH1 0x1 PUSH1 0x1 PUSH1 0xF8 SHL SUB AND PUSH1 0x3 PUSH1 0xF8 SHL OR SWAP1 SSTORE PUSH1 0x3 PUSH2 0x16F0 PUSH1 0x7 PUSH1 0x1 PUSH1 0x1 PUSH1 0xE8 SHL SUB NOT PUSH1 0xE8 DUP12 SWAP1 SHL AND PUSH2 0x1DDD JUMP JUMPDEST POP PUSH2 0x1711 JUMP JUMPDEST POP PUSH1 0x1 DUP7 ADD DUP1 SLOAD PUSH1 0x1 PUSH1 0x1 PUSH1 0xF8 SHL SUB AND PUSH1 0x1 PUSH1 0xF9 SHL OR SWAP1 SSTORE PUSH1 0x2 JUMPDEST PUSH2 0x172A PUSH1 0x5 PUSH1 0x1 PUSH1 0x1 PUSH1 0xE8 SHL SUB NOT PUSH1 0xE8 DUP12 SWAP1 SHL AND PUSH2 0x1952 JUMP JUMPDEST POP PUSH1 0x1 DUP8 ADD SLOAD PUSH1 0x40 MLOAD PUSH32 0x2A493178B5A20A5F25BA24FF7EC6EF19AB4E15E87B2D33FD2E7C1AE3655BB52F SWAP2 PUSH2 0x176D SWAP2 DUP12 SWAP2 PUSH1 0x1 PUSH1 0xF8 SHL SWAP1 DIV PUSH1 0xFF AND SWAP1 DUP6 SWAP1 PUSH2 0x30B9 JUMP JUMPDEST PUSH1 0x40 MLOAD DUP1 SWAP2 SUB SWAP1 LOG1 POP POP POP POP POP POP POP POP JUMP JUMPDEST PUSH1 0x60 PUSH2 0xBF9 PUSH2 0xBF4 PUSH1 0x5 PUSH2 0x1A7A JUMP JUMPDEST DUP1 MLOAD PUSH1 0x60 SWAP1 PUSH1 0x0 DUP2 PUSH1 0x1 PUSH1 0x1 PUSH1 0x40 SHL SUB DUP2 GT ISZERO PUSH2 0x17AD JUMPI PUSH2 0x17AD PUSH2 0x23EE JUMP JUMPDEST PUSH1 0x40 MLOAD SWAP1 DUP1 DUP3 MSTORE DUP1 PUSH1 0x20 MUL PUSH1 0x20 ADD DUP3 ADD PUSH1 0x40 MSTORE DUP1 ISZERO PUSH2 0x17D6 JUMPI DUP2 PUSH1 0x20 ADD PUSH1 0x20 DUP3 MUL DUP1 CALLDATASIZE DUP4 CALLDATACOPY ADD SWAP1 POP JUMPDEST POP SWAP1 POP PUSH1 0x0 JUMPDEST DUP3 DUP2 LT ISZERO PUSH2 0x183E JUMPI DUP5 DUP2 DUP2 MLOAD DUP2 LT PUSH2 0x17F6 JUMPI PUSH2 0x17F6 PUSH2 0x29A6 JUMP JUMPDEST PUSH1 0x20 MUL PUSH1 0x20 ADD ADD MLOAD PUSH1 0x0 ADD MLOAD DUP3 DUP3 DUP2 MLOAD DUP2 LT PUSH2 0x1814 JUMPI PUSH2 0x1814 PUSH2 0x29A6 JUMP JUMPDEST PUSH1 0x1 PUSH1 0x1 PUSH1 0xA0 SHL SUB SWAP1 SWAP3 AND PUSH1 0x20 SWAP3 DUP4 MUL SWAP2 SWAP1 SWAP2 ADD SWAP1 SWAP2 ADD MSTORE DUP1 PUSH2 0x1836 DUP2 PUSH2 0x29F8 JUMP JUMPDEST SWAP2 POP POP PUSH2 0x17DC JUMP JUMPDEST POP SWAP4 SWAP3 POP POP POP JUMP JUMPDEST PUSH1 0x0 DUP1 DUP1 DUP1 PUSH2 0x185E DUP7 PUSH1 0x1 PUSH1 0x1 PUSH1 0xA0 SHL SUB DUP8 AND PUSH2 0x1E08 JUMP JUMPDEST SWAP1 SWAP5 POP SWAP3 POP POP POP JUMPDEST SWAP3 POP SWAP3 SWAP1 POP JUMP JUMPDEST PUSH1 0x0 PUSH2 0x1883 DUP5 PUSH1 0x1 PUSH1 0x1 PUSH1 0xA0 SHL SUB DUP6 AND DUP5 PUSH2 0x1E42 JUMP JUMPDEST SWAP5 SWAP4 POP POP POP POP JUMP JUMPDEST PUSH2 0x18AF PUSH1 0x40 MLOAD DUP1 PUSH1 0x60 ADD PUSH1 0x40 MSTORE DUP1 PUSH1 0x60 DUP2 MSTORE PUSH1 0x20 ADD PUSH1 0x60 DUP2 MSTORE PUSH1 0x20 ADD PUSH1 0x60 DUP2 MSTORE POP SWAP1 JUMP JUMPDEST PUSH1 0x1 PUSH1 0x0 SWAP1 DUP2 MSTORE PUSH1 0x20 DUP4 SWAP1 MSTORE PUSH1 0x40 DUP2 KECCAK256 SWAP1 PUSH2 0x18C9 DUP3 PUSH2 0x1E5F JUMP JUMPDEST PUSH1 0x2 PUSH1 0x0 SWAP1 DUP2 MSTORE PUSH1 0x20 DUP7 SWAP1 MSTORE PUSH1 0x40 DUP2 KECCAK256 SWAP2 SWAP3 POP PUSH2 0x18E5 DUP3 PUSH2 0x1E5F JUMP JUMPDEST PUSH1 0x3 PUSH1 0x0 SWAP1 DUP2 MSTORE PUSH1 0x20 DUP9 SWAP1 MSTORE PUSH1 0x40 DUP2 KECCAK256 SWAP2 SWAP3 POP PUSH2 0x1901 DUP3 PUSH2 0x1E5F JUMP JUMPDEST PUSH1 0x40 DUP1 MLOAD PUSH1 0x60 DUP2 ADD DUP3 MSTORE SWAP7 DUP8 MSTORE PUSH1 0x20 DUP8 ADD SWAP5 SWAP1 SWAP5 MSTORE SWAP3 DUP6 ADD SWAP3 SWAP1 SWAP3 MSTORE POP SWAP2 SWAP6 SWAP5 POP POP POP POP POP JUMP JUMPDEST PUSH1 0x0 DUP2 DUP2 MSTORE PUSH1 0x1 DUP4 ADD PUSH1 0x20 MSTORE PUSH1 0x40 DUP2 KECCAK256 SLOAD ISZERO ISZERO JUMPDEST SWAP4 SWAP3 POP POP POP JUMP JUMPDEST PUSH1 0x60 PUSH2 0x1883 DUP5 DUP5 PUSH1 0x0 DUP6 PUSH2 0x1F46 JUMP JUMPDEST PUSH1 0x0 PUSH2 0x193C DUP4 DUP4 PUSH2 0x2021 JUMP JUMPDEST PUSH1 0x1 DUP2 ADD SLOAD PUSH1 0x1 PUSH1 0x40 SHL SWAP1 DIV PUSH3 0xFFFFFF AND PUSH1 0x0 SWAP1 DUP2 MSTORE PUSH1 0xA PUSH1 0x20 SWAP1 DUP2 MSTORE PUSH1 0x40 DUP1 DUP4 KECCAK256 DUP1 SLOAD DUP3 MLOAD DUP2 DUP6 MUL DUP2 ADD DUP6 ADD SWAP1 SWAP4 MSTORE DUP1 DUP4 MSTORE DUP5 SWAP4 DUP5 SWAP4 DUP5 SWAP4 SWAP1 SWAP3 SWAP1 SWAP2 DUP5 SWAP1 DUP5 ADD JUMPDEST DUP3 DUP3 LT ISZERO PUSH2 0x19F5 JUMPI PUSH1 0x0 DUP5 DUP2 MSTORE PUSH1 0x20 SWAP1 DUP2 SWAP1 KECCAK256 PUSH1 0x40 DUP1 MLOAD PUSH1 0x60 DUP2 ADD DUP3 MSTORE PUSH1 0x3 DUP7 MUL SWAP1 SWAP3 ADD DUP1 SLOAD PUSH1 0x1 PUSH1 0x1 PUSH1 0xA0 SHL SUB AND DUP4 MSTORE PUSH1 0x1 DUP1 DUP3 ADD SLOAD DUP5 DUP7 ADD MSTORE PUSH1 0x2 SWAP1 SWAP2 ADD SLOAD SWAP2 DUP4 ADD SWAP2 SWAP1 SWAP2 MSTORE SWAP1 DUP4 MSTORE SWAP1 SWAP3 ADD SWAP2 ADD PUSH2 0x19A0 JUMP JUMPDEST POP POP POP PUSH1 0x1 DUP1 DUP9 ADD SLOAD PUSH3 0xFFFFFF PUSH1 0x1 PUSH1 0x40 SHL SWAP1 SWAP2 DIV AND PUSH1 0x0 SWAP1 DUP2 MSTORE PUSH1 0xC PUSH1 0x20 MSTORE PUSH1 0x40 DUP2 KECCAK256 SWAP4 SWAP5 POP PUSH2 0x1A52 SWAP3 POP DUP4 SWAP2 JUMPDEST PUSH1 0x3 DUP2 GT ISZERO PUSH2 0x1A35 JUMPI PUSH2 0x1A35 PUSH2 0x25DE JUMP JUMPDEST DUP2 MSTORE PUSH1 0x20 ADD SWAP1 DUP2 MSTORE PUSH1 0x20 ADD PUSH1 0x0 KECCAK256 DUP4 PUSH2 0x2114 SWAP1 SWAP2 SWAP1 PUSH4 0xFFFFFFFF AND JUMP JUMPDEST SWAP5 POP PUSH2 0x1A61 DUP2 PUSH1 0x0 PUSH1 0x2 PUSH2 0x1A24 JUMP JUMPDEST SWAP4 POP PUSH2 0x1A70 DUP2 PUSH1 0x0 PUSH1 0x3 PUSH2 0x1A24 JUMP JUMPDEST SWAP5 SWAP7 SWAP4 SWAP6 POP POP POP POP JUMP JUMPDEST PUSH1 0x60 PUSH1 0x0 PUSH2 0x193C DUP4 PUSH2 0x21A1 JUMP JUMPDEST DUP1 MLOAD PUSH1 0x60 SWAP1 PUSH1 0x0 DUP2 PUSH1 0x1 PUSH1 0x1 PUSH1 0x40 SHL SUB DUP2 GT ISZERO PUSH2 0x1AA6 JUMPI PUSH2 0x1AA6 PUSH2 0x23EE JUMP JUMPDEST PUSH1 0x40 MLOAD SWAP1 DUP1 DUP3 MSTORE DUP1 PUSH1 0x20 MUL PUSH1 0x20 ADD DUP3 ADD PUSH1 0x40 MSTORE DUP1 ISZERO PUSH2 0x1B26 JUMPI DUP2 PUSH1 0x20 ADD JUMPDEST PUSH2 0x1B13 PUSH1 0x40 DUP1 MLOAD PUSH2 0x120 DUP2 ADD DUP3 MSTORE PUSH1 0x0 DUP1 DUP3 MSTORE PUSH1 0x20 DUP3 ADD DUP2 SWAP1 MSTORE SWAP2 DUP2 ADD DUP3 SWAP1 MSTORE PUSH1 0x60 DUP2 ADD DUP3 SWAP1 MSTORE PUSH1 0x80 DUP2 ADD DUP3 SWAP1 MSTORE PUSH1 0xA0 DUP2 ADD DUP3 SWAP1 MSTORE PUSH1 0xC0 DUP2 ADD DUP3 SWAP1 MSTORE SWAP1 PUSH1 0xE0 DUP3 ADD SWAP1 DUP2 MSTORE PUSH1 0x20 ADD PUSH1 0x60 DUP2 MSTORE POP SWAP1 JUMP JUMPDEST DUP2 MSTORE PUSH1 0x20 ADD SWAP1 PUSH1 0x1 SWAP1 SUB SWAP1 DUP2 PUSH2 0x1AC4 JUMPI SWAP1 POP JUMPDEST POP SWAP1 POP PUSH1 0x0 JUMPDEST DUP3 DUP2 LT ISZERO PUSH2 0x183E JUMPI PUSH1 0x9 PUSH1 0x0 DUP7 DUP4 DUP2 MLOAD DUP2 LT PUSH2 0x1B4A JUMPI PUSH2 0x1B4A PUSH2 0x29A6 JUMP JUMPDEST PUSH1 0x20 SWAP1 DUP2 MUL SWAP2 SWAP1 SWAP2 ADD DUP2 ADD MLOAD PUSH1 0xE8 SHR DUP3 MSTORE DUP2 DUP2 ADD SWAP3 SWAP1 SWAP3 MSTORE PUSH1 0x40 SWAP1 DUP2 ADD PUSH1 0x0 KECCAK256 DUP2 MLOAD PUSH2 0x120 DUP2 ADD DUP4 MSTORE DUP2 SLOAD PUSH1 0x1 PUSH1 0x1 PUSH1 0x40 SHL SUB DUP1 DUP3 AND DUP4 MSTORE PUSH1 0x1 PUSH1 0x40 SHL DUP1 DUP4 DIV DUP3 AND SWAP7 DUP5 ADD SWAP7 SWAP1 SWAP7 MSTORE PUSH1 0x1 PUSH1 0x80 SHL DUP3 DIV DUP2 AND SWAP5 DUP4 ADD SWAP5 SWAP1 SWAP5 MSTORE PUSH1 0x1 PUSH1 0xC0 SHL SWAP1 DIV DUP4 AND PUSH1 0x60 DUP3 ADD MSTORE PUSH1 0x1 DUP3 ADD SLOAD SWAP3 DUP4 AND PUSH1 0x80 DUP3 ADD MSTORE SWAP3 DUP3 DIV PUSH3 0xFFFFFF AND PUSH1 0xA0 DUP5 ADD MSTORE PUSH1 0x1 PUSH1 0x1 PUSH1 0xA0 SHL SUB PUSH1 0x1 PUSH1 0x58 SHL DUP4 DIV AND PUSH1 0xC0 DUP5 ADD MSTORE SWAP1 PUSH1 0xE0 DUP4 ADD SWAP1 PUSH1 0xFF PUSH1 0x1 PUSH1 0xF8 SHL SWAP1 SWAP2 DIV AND PUSH1 0x4 DUP2 GT ISZERO PUSH2 0x1C02 JUMPI PUSH2 0x1C02 PUSH2 0x25DE JUMP JUMPDEST PUSH1 0x4 DUP2 GT ISZERO PUSH2 0x1C13 JUMPI PUSH2 0x1C13 PUSH2 0x25DE JUMP JUMPDEST DUP2 MSTORE PUSH1 0x20 ADD PUSH1 0x2 DUP3 ADD DUP1 SLOAD DUP1 PUSH1 0x20 MUL PUSH1 0x20 ADD PUSH1 0x40 MLOAD SWAP1 DUP2 ADD PUSH1 0x40 MSTORE DUP1 SWAP3 SWAP2 SWAP1 DUP2 DUP2 MSTORE PUSH1 0x20 ADD PUSH1 0x0 SWAP1 JUMPDEST DUP3 DUP3 LT ISZERO PUSH2 0x1D15 JUMPI PUSH1 0x0 DUP5 DUP2 MSTORE PUSH1 0x20 SWAP1 DUP2 SWAP1 KECCAK256 PUSH1 0x40 DUP1 MLOAD DUP1 DUP3 ADD SWAP1 SWAP2 MSTORE PUSH1 0x2 DUP6 MUL SWAP1 SWAP2 ADD DUP1 SLOAD PUSH1 0x1 PUSH1 0x1 PUSH1 0xA0 SHL SUB AND DUP3 MSTORE PUSH1 0x1 DUP2 ADD DUP1 SLOAD SWAP3 SWAP4 SWAP2 SWAP3 SWAP2 DUP5 ADD SWAP2 PUSH2 0x1C84 SWAP1 PUSH2 0x2A7B JUMP JUMPDEST DUP1 PUSH1 0x1F ADD PUSH1 0x20 DUP1 SWAP2 DIV MUL PUSH1 0x20 ADD PUSH1 0x40 MLOAD SWAP1 DUP2 ADD PUSH1 0x40 MSTORE DUP1 SWAP3 SWAP2 SWAP1 DUP2 DUP2 MSTORE PUSH1 0x20 ADD DUP3 DUP1 SLOAD PUSH2 0x1CB0 SWAP1 PUSH2 0x2A7B JUMP JUMPDEST DUP1 ISZERO PUSH2 0x1CFD JUMPI DUP1 PUSH1 0x1F LT PUSH2 0x1CD2 JUMPI PUSH2 0x100 DUP1 DUP4 SLOAD DIV MUL DUP4 MSTORE SWAP2 PUSH1 0x20 ADD SWAP2 PUSH2 0x1CFD JUMP JUMPDEST DUP3 ADD SWAP2 SWAP1 PUSH1 0x0 MSTORE PUSH1 0x20 PUSH1 0x0 KECCAK256 SWAP1 JUMPDEST DUP2 SLOAD DUP2 MSTORE SWAP1 PUSH1 0x1 ADD SWAP1 PUSH1 0x20 ADD DUP1 DUP4 GT PUSH2 0x1CE0 JUMPI DUP3 SWAP1 SUB PUSH1 0x1F AND DUP3 ADD SWAP2 JUMPDEST POP POP POP POP POP DUP2 MSTORE POP POP DUP2 MSTORE PUSH1 0x20 ADD SWAP1 PUSH1 0x1 ADD SWAP1 PUSH2 0x1C3C JUMP JUMPDEST POP POP POP POP DUP2 MSTORE POP POP DUP3 DUP3 DUP2 MLOAD DUP2 LT PUSH2 0x1D2F JUMPI PUSH2 0x1D2F PUSH2 0x29A6 JUMP JUMPDEST PUSH1 0x20 MUL PUSH1 0x20 ADD ADD DUP2 SWAP1 MSTORE POP DUP1 DUP1 PUSH2 0x1D45 SWAP1 PUSH2 0x29F8 JUMP JUMPDEST SWAP2 POP POP PUSH2 0x1B2C JUMP JUMPDEST PUSH1 0x0 JUMPDEST DUP3 MLOAD DUP2 LT ISZERO PUSH2 0x1DD8 JUMPI DUP2 DUP4 DUP3 DUP2 MLOAD DUP2 LT PUSH2 0x1D6C JUMPI PUSH2 0x1D6C PUSH2 0x29A6 JUMP JUMPDEST PUSH1 0x20 SWAP1 DUP2 MUL SWAP2 SWAP1 SWAP2 ADD DUP2 ADD MLOAD DUP3 SLOAD PUSH1 0x1 DUP1 DUP3 ADD DUP6 SSTORE PUSH1 0x0 SWAP5 DUP6 MSTORE SWAP4 DUP4 SWAP1 KECCAK256 DUP3 MLOAD PUSH1 0x3 SWAP1 SWAP3 MUL ADD DUP1 SLOAD PUSH1 0x1 PUSH1 0x1 PUSH1 0xA0 SHL SUB NOT AND PUSH1 0x1 PUSH1 0x1 PUSH1 0xA0 SHL SUB SWAP1 SWAP3 AND SWAP2 SWAP1 SWAP2 OR DUP2 SSTORE SWAP2 DUP2 ADD MLOAD SWAP3 DUP3 ADD SWAP3 SWAP1 SWAP3 SSTORE PUSH1 0x40 SWAP1 SWAP2 ADD MLOAD PUSH1 0x2 SWAP1 SWAP2 ADD SSTORE DUP1 PUSH2 0x1DD0 DUP2 PUSH2 0x29F8 JUMP JUMPDEST SWAP2 POP POP PUSH2 0x1D50 JUMP JUMPDEST POP POP POP JUMP JUMPDEST PUSH1 0x0 PUSH2 0x193C DUP4 DUP4 PUSH2 0x21FD JUMP JUMPDEST PUSH1 0x0 DUP2 PUSH2 0x1DFE PUSH8 0xDE0B6B3A7640000 DUP6 PUSH2 0x30E9 JUMP JUMPDEST PUSH2 0x193C SWAP2 SWAP1 PUSH2 0x3100 JUMP JUMPDEST PUSH1 0x0 DUP2 DUP2 MSTORE PUSH1 0x2 DUP4 ADD PUSH1 0x20 MSTORE PUSH1 0x40 DUP2 KECCAK256 SLOAD DUP2 SWAP1 DUP1 PUSH2 0x1E37 JUMPI PUSH2 0x1E2A DUP6 DUP6 PUSH2 0x224C JUMP JUMPDEST SWAP3 POP PUSH1 0x0 SWAP2 POP PUSH2 0x1866 SWAP1 POP JUMP JUMPDEST PUSH1 0x1 SWAP3 POP SWAP1 POP PUSH2 0x1866 JUMP JUMPDEST PUSH1 0x0 DUP3 DUP2 MSTORE PUSH1 0x2 DUP5 ADD PUSH1 0x20 MSTORE PUSH1 0x40 DUP2 KECCAK256 DUP3 SWAP1 SSTORE PUSH2 0x1883 DUP5 DUP5 PUSH2 0x1DDD JUMP JUMPDEST PUSH1 0x60 PUSH1 0x0 PUSH2 0x1E6C DUP4 PUSH2 0x2258 JUMP JUMPDEST PUSH1 0x1 PUSH1 0x1 PUSH1 0x40 SHL SUB DUP2 GT ISZERO PUSH2 0x1E83 JUMPI PUSH2 0x1E83 PUSH2 0x23EE JUMP JUMPDEST PUSH1 0x40 MLOAD SWAP1 DUP1 DUP3 MSTORE DUP1 PUSH1 0x20 MUL PUSH1 0x20 ADD DUP3 ADD PUSH1 0x40 MSTORE DUP1 ISZERO PUSH2 0x1EC8 JUMPI DUP2 PUSH1 0x20 ADD JUMPDEST PUSH1 0x40 DUP1 MLOAD DUP1 DUP3 ADD SWAP1 SWAP2 MSTORE PUSH1 0x0 DUP1 DUP3 MSTORE PUSH1 0x20 DUP3 ADD MSTORE DUP2 MSTORE PUSH1 0x20 ADD SWAP1 PUSH1 0x1 SWAP1 SUB SWAP1 DUP2 PUSH2 0x1EA1 JUMPI SWAP1 POP JUMPDEST POP SWAP1 POP PUSH1 0x0 JUMPDEST PUSH2 0x1ED7 DUP5 PUSH2 0x2258 JUMP JUMPDEST DUP2 LT ISZERO PUSH2 0x1F3F JUMPI PUSH1 0x0 DUP1 PUSH2 0x1EEB DUP7 DUP5 PUSH2 0x2263 JUMP JUMPDEST SWAP2 POP SWAP2 POP PUSH1 0x40 MLOAD DUP1 PUSH1 0x40 ADD PUSH1 0x40 MSTORE DUP1 DUP4 PUSH1 0x1 PUSH1 0x1 PUSH1 0xA0 SHL SUB AND DUP2 MSTORE PUSH1 0x20 ADD DUP3 DUP2 MSTORE POP DUP5 DUP5 DUP2 MLOAD DUP2 LT PUSH2 0x1F1F JUMPI PUSH2 0x1F1F PUSH2 0x29A6 JUMP JUMPDEST PUSH1 0x20 MUL PUSH1 0x20 ADD ADD DUP2 SWAP1 MSTORE POP POP POP DUP1 DUP1 PUSH2 0x1F37 SWAP1 PUSH2 0x29F8 JUMP JUMPDEST SWAP2 POP POP PUSH2 0x1ECE JUMP JUMPDEST POP SWAP3 SWAP2 POP POP JUMP JUMPDEST PUSH1 0x60 DUP3 SELFBALANCE LT ISZERO PUSH2 0x1FA7 JUMPI PUSH1 0x40 MLOAD PUSH3 0x461BCD PUSH1 0xE5 SHL DUP2 MSTORE PUSH1 0x20 PUSH1 0x4 DUP3 ADD MSTORE PUSH1 0x26 PUSH1 0x24 DUP3 ADD MSTORE PUSH32 0x416464726573733A20696E73756666696369656E742062616C616E636520666F PUSH1 0x44 DUP3 ADD MSTORE PUSH6 0x1C8818D85B1B PUSH1 0xD2 SHL PUSH1 0x64 DUP3 ADD MSTORE PUSH1 0x84 ADD PUSH2 0x2F7 JUMP JUMPDEST PUSH1 0x0 DUP1 DUP7 PUSH1 0x1 PUSH1 0x1 PUSH1 0xA0 SHL SUB AND DUP6 DUP8 PUSH1 0x40 MLOAD PUSH2 0x1FC3 SWAP2 SWAP1 PUSH2 0x3122 JUMP JUMPDEST PUSH1 0x0 PUSH1 0x40 MLOAD DUP1 DUP4 SUB DUP2 DUP6 DUP8 GAS CALL SWAP3 POP POP POP RETURNDATASIZE DUP1 PUSH1 0x0 DUP2 EQ PUSH2 0x2000 JUMPI PUSH1 0x40 MLOAD SWAP2 POP PUSH1 0x1F NOT PUSH1 0x3F RETURNDATASIZE ADD AND DUP3 ADD PUSH1 0x40 MSTORE RETURNDATASIZE DUP3 MSTORE RETURNDATASIZE PUSH1 0x0 PUSH1 0x20 DUP5 ADD RETURNDATACOPY PUSH2 0x2005 JUMP JUMPDEST PUSH1 0x60 SWAP2 POP JUMPDEST POP SWAP2 POP SWAP2 POP PUSH2 0x2016 DUP8 DUP4 DUP4 DUP8 PUSH2 0x2272 JUMP JUMPDEST SWAP8 SWAP7 POP POP POP POP POP POP POP JUMP JUMPDEST PUSH1 0x0 DUP2 DUP2 MSTORE PUSH1 0x1 DUP4 ADD PUSH1 0x20 MSTORE PUSH1 0x40 DUP2 KECCAK256 SLOAD DUP1 ISZERO PUSH2 0x210A JUMPI PUSH1 0x0 PUSH2 0x2045 PUSH1 0x1 DUP4 PUSH2 0x29D2 JUMP JUMPDEST DUP6 SLOAD SWAP1 SWAP2 POP PUSH1 0x0 SWAP1 PUSH2 0x2059 SWAP1 PUSH1 0x1 SWAP1 PUSH2 0x29D2 JUMP JUMPDEST SWAP1 POP DUP2 DUP2 EQ PUSH2 0x20BE JUMPI PUSH1 0x0 DUP7 PUSH1 0x0 ADD DUP3 DUP2 SLOAD DUP2 LT PUSH2 0x2079 JUMPI PUSH2 0x2079 PUSH2 0x29A6 JUMP JUMPDEST SWAP1 PUSH1 0x0 MSTORE PUSH1 0x20 PUSH1 0x0 KECCAK256 ADD SLOAD SWAP1 POP DUP1 DUP8 PUSH1 0x0 ADD DUP5 DUP2 SLOAD DUP2 LT PUSH2 0x209C JUMPI PUSH2 0x209C PUSH2 0x29A6 JUMP JUMPDEST PUSH1 0x0 SWAP2 DUP3 MSTORE PUSH1 0x20 DUP1 DUP4 KECCAK256 SWAP1 SWAP2 ADD SWAP3 SWAP1 SWAP3 SSTORE SWAP2 DUP3 MSTORE PUSH1 0x1 DUP9 ADD SWAP1 MSTORE PUSH1 0x40 SWAP1 KECCAK256 DUP4 SWAP1 SSTORE JUMPDEST DUP6 SLOAD DUP7 SWAP1 DUP1 PUSH2 0x20CF JUMPI PUSH2 0x20CF PUSH2 0x3134 JUMP JUMPDEST PUSH1 0x1 SWAP1 SUB DUP2 DUP2 SWAP1 PUSH1 0x0 MSTORE PUSH1 0x20 PUSH1 0x0 KECCAK256 ADD PUSH1 0x0 SWAP1 SSTORE SWAP1 SSTORE DUP6 PUSH1 0x1 ADD PUSH1 0x0 DUP7 DUP2 MSTORE PUSH1 0x20 ADD SWAP1 DUP2 MSTORE PUSH1 0x20 ADD PUSH1 0x0 KECCAK256 PUSH1 0x0 SWAP1 SSTORE PUSH1 0x1 SWAP4 POP POP POP POP PUSH2 0x90A JUMP JUMPDEST PUSH1 0x0 SWAP2 POP POP PUSH2 0x90A JUMP JUMPDEST PUSH1 0x0 DUP1 JUMPDEST DUP4 MLOAD DUP2 LT ISZERO PUSH2 0x1F3F JUMPI PUSH1 0x0 DUP5 DUP3 DUP2 MLOAD DUP2 LT PUSH2 0x2135 JUMPI PUSH2 0x2135 PUSH2 0x29A6 JUMP JUMPDEST PUSH1 0x20 MUL PUSH1 0x20 ADD ADD MLOAD SWAP1 POP PUSH1 0x0 PUSH2 0x2158 DUP3 PUSH1 0x0 ADD MLOAD DUP7 PUSH2 0x1846 SWAP1 SWAP2 SWAP1 PUSH4 0xFFFFFFFF AND JUMP JUMPDEST SWAP2 POP POP PUSH2 0x2180 DUP3 PUSH1 0x20 ADD MLOAD PUSH2 0x217A DUP5 PUSH1 0x40 ADD MLOAD DUP5 PUSH2 0x1DE9 SWAP1 SWAP2 SWAP1 PUSH4 0xFFFFFFFF AND JUMP JUMPDEST SWAP1 PUSH2 0x22EB JUMP JUMPDEST PUSH2 0x218A SWAP1 DUP6 PUSH2 0x29E5 JUMP JUMPDEST SWAP4 POP POP POP DUP1 DUP1 PUSH2 0x2199 SWAP1 PUSH2 0x29F8 JUMP JUMPDEST SWAP2 POP POP PUSH2 0x2118 JUMP JUMPDEST PUSH1 0x60 DUP2 PUSH1 0x0 ADD DUP1 SLOAD DUP1 PUSH1 0x20 MUL PUSH1 0x20 ADD PUSH1 0x40 MLOAD SWAP1 DUP2 ADD PUSH1 0x40 MSTORE DUP1 SWAP3 SWAP2 SWAP1 DUP2 DUP2 MSTORE PUSH1 0x20 ADD DUP3 DUP1 SLOAD DUP1 ISZERO PUSH2 0x21F1 JUMPI PUSH1 0x20 MUL DUP3 ADD SWAP2 SWAP1 PUSH1 0x0 MSTORE PUSH1 0x20 PUSH1 0x0 KECCAK256 SWAP1 JUMPDEST DUP2 SLOAD DUP2 MSTORE PUSH1 0x20 ADD SWAP1 PUSH1 0x1 ADD SWAP1 DUP1 DUP4 GT PUSH2 0x21DD JUMPI JUMPDEST POP POP POP POP POP SWAP1 POP SWAP2 SWAP1 POP JUMP JUMPDEST PUSH1 0x0 DUP2 DUP2 MSTORE PUSH1 0x1 DUP4 ADD PUSH1 0x20 MSTORE PUSH1 0x40 DUP2 KECCAK256 SLOAD PUSH2 0x2244 JUMPI POP DUP2 SLOAD PUSH1 0x1 DUP2 DUP2 ADD DUP5 SSTORE PUSH1 0x0 DUP5 DUP2 MSTORE PUSH1 0x20 DUP1 DUP3 KECCAK256 SWAP1 SWAP4 ADD DUP5 SWAP1 SSTORE DUP5 SLOAD DUP5 DUP3 MSTORE DUP3 DUP7 ADD SWAP1 SWAP4 MSTORE PUSH1 0x40 SWAP1 KECCAK256 SWAP2 SWAP1 SWAP2 SSTORE PUSH2 0x90A JUMP JUMPDEST POP PUSH1 0x0 PUSH2 0x90A JUMP JUMPDEST PUSH1 0x0 PUSH2 0x193C DUP4 DUP4 PUSH2 0x1928 JUMP JUMPDEST PUSH1 0x0 PUSH2 0x90A DUP3 PUSH2 0x2300 JUMP JUMPDEST PUSH1 0x0 DUP1 DUP1 DUP1 PUSH2 0x185E DUP7 DUP7 PUSH2 0x230B JUMP JUMPDEST PUSH1 0x60 DUP4 ISZERO PUSH2 0x22E1 JUMPI DUP3 MLOAD PUSH1 0x0 SUB PUSH2 0x22DA JUMPI PUSH1 0x1 PUSH1 0x1 PUSH1 0xA0 SHL SUB DUP6 AND EXTCODESIZE PUSH2 0x22DA JUMPI PUSH1 0x40 MLOAD PUSH3 0x461BCD PUSH1 0xE5 SHL DUP2 MSTORE PUSH1 0x20 PUSH1 0x4 DUP3 ADD MSTORE PUSH1 0x1D PUSH1 0x24 DUP3 ADD MSTORE PUSH32 0x416464726573733A2063616C6C20746F206E6F6E2D636F6E7472616374000000 PUSH1 0x44 DUP3 ADD MSTORE PUSH1 0x64 ADD PUSH2 0x2F7 JUMP JUMPDEST POP DUP2 PUSH2 0x1883 JUMP JUMPDEST PUSH2 0x1883 DUP4 DUP4 PUSH2 0x2336 JUMP JUMPDEST PUSH1 0x0 PUSH8 0xDE0B6B3A7640000 PUSH2 0x1DFE DUP4 DUP6 PUSH2 0x30E9 JUMP JUMPDEST PUSH1 0x0 PUSH2 0x90A DUP3 PUSH2 0x2360 JUMP JUMPDEST PUSH1 0x0 DUP1 DUP1 PUSH2 0x2319 DUP6 DUP6 PUSH2 0x236A JUMP JUMPDEST PUSH1 0x0 DUP2 DUP2 MSTORE PUSH1 0x2 SWAP7 SWAP1 SWAP7 ADD PUSH1 0x20 MSTORE PUSH1 0x40 SWAP1 SWAP6 KECCAK256 SLOAD SWAP5 SWAP6 SWAP4 POP POP POP POP JUMP JUMPDEST DUP2 MLOAD ISZERO PUSH2 0x2346 JUMPI DUP2 MLOAD DUP1 DUP4 PUSH1 0x20 ADD REVERT JUMPDEST DUP1 PUSH1 0x40 MLOAD PUSH3 0x461BCD PUSH1 0xE5 SHL DUP2 MSTORE PUSH1 0x4 ADD PUSH2 0x2F7 SWAP2 SWAP1 PUSH2 0x2D3B JUMP JUMPDEST PUSH1 0x0 PUSH2 0x90A DUP3 SLOAD SWAP1 JUMP JUMPDEST PUSH1 0x0 PUSH2 0x193C DUP4 DUP4 PUSH1 0x0 DUP3 PUSH1 0x0 ADD DUP3 DUP2 SLOAD DUP2 LT PUSH2 0x2388 JUMPI PUSH2 0x2388 PUSH2 0x29A6 JUMP JUMPDEST SWAP1 PUSH1 0x0 MSTORE PUSH1 0x20 PUSH1 0x0 KECCAK256 ADD SLOAD SWAP1 POP SWAP3 SWAP2 POP POP JUMP JUMPDEST DUP1 CALLDATALOAD PUSH3 0xFFFFFF DUP2 AND DUP2 EQ PUSH2 0x23AE JUMPI PUSH1 0x0 DUP1 REVERT JUMPDEST SWAP2 SWAP1 POP JUMP JUMPDEST PUSH1 0x0 DUP1 PUSH1 0x40 DUP4 DUP6 SUB SLT ISZERO PUSH2 0x23C6 JUMPI PUSH1 0x0 DUP1 REVERT JUMPDEST PUSH2 0x23CF DUP4 PUSH2 0x239B JUMP JUMPDEST SWAP2 POP PUSH1 0x20 DUP4 ADD CALLDATALOAD PUSH1 0x4 DUP2 LT PUSH2 0x23E3 JUMPI PUSH1 0x0 DUP1 REVERT JUMPDEST DUP1 SWAP2 POP POP SWAP3 POP SWAP3 SWAP1 POP JUMP JUMPDEST PUSH4 0x4E487B71 PUSH1 0xE0 SHL PUSH1 0x0 MSTORE PUSH1 0x41 PUSH1 0x4 MSTORE PUSH1 0x24 PUSH1 0x0 REVERT JUMPDEST PUSH1 0x40 DUP1 MLOAD SWAP1 DUP2 ADD PUSH1 0x1 PUSH1 0x1 PUSH1 0x40 SHL SUB DUP2 GT DUP3 DUP3 LT OR ISZERO PUSH2 0x2426 JUMPI PUSH2 0x2426 PUSH2 0x23EE JUMP JUMPDEST PUSH1 0x40 MSTORE SWAP1 JUMP JUMPDEST PUSH1 0x40 MLOAD PUSH1 0x60 DUP2 ADD PUSH1 0x1 PUSH1 0x1 PUSH1 0x40 SHL SUB DUP2 GT DUP3 DUP3 LT OR ISZERO PUSH2 0x2426 JUMPI PUSH2 0x2426 PUSH2 0x23EE JUMP JUMPDEST PUSH1 0x40 MLOAD PUSH1 0x1F DUP3 ADD PUSH1 0x1F NOT AND DUP2 ADD PUSH1 0x1 PUSH1 0x1 PUSH1 0x40 SHL SUB DUP2 GT DUP3 DUP3 LT OR ISZERO PUSH2 0x2476 JUMPI PUSH2 0x2476 PUSH2 0x23EE JUMP JUMPDEST PUSH1 0x40 MSTORE SWAP2 SWAP1 POP JUMP JUMPDEST PUSH1 0xFF DUP2 AND DUP2 EQ PUSH2 0x248D JUMPI PUSH1 0x0 DUP1 REVERT JUMPDEST POP JUMP JUMPDEST PUSH1 0x1 PUSH1 0x1 PUSH1 0xA0 SHL SUB DUP2 AND DUP2 EQ PUSH2 0x248D JUMPI PUSH1 0x0 DUP1 REVERT JUMPDEST PUSH1 0x0 PUSH1 0x60 DUP3 DUP5 SUB SLT ISZERO PUSH2 0x24B7 JUMPI PUSH1 0x0 DUP1 REVERT JUMPDEST PUSH1 0x40 MLOAD PUSH1 0x60 DUP2 ADD DUP2 DUP2 LT PUSH1 0x1 PUSH1 0x1 PUSH1 0x40 SHL SUB DUP3 GT OR ISZERO PUSH2 0x24D9 JUMPI PUSH2 0x24D9 PUSH2 0x23EE JUMP JUMPDEST PUSH1 0x40 MSTORE DUP3 CALLDATALOAD PUSH2 0x24E7 DUP2 PUSH2 0x247E JUMP JUMPDEST DUP2 MSTORE PUSH1 0x20 DUP4 DUP2 ADD CALLDATALOAD SWAP1 DUP3 ADD MSTORE PUSH1 0x40 DUP4 ADD CALLDATALOAD PUSH2 0x2501 DUP2 PUSH2 0x2490 JUMP JUMPDEST PUSH1 0x40 DUP3 ADD MSTORE SWAP4 SWAP3 POP POP POP JUMP JUMPDEST PUSH1 0x0 PUSH1 0x20 DUP3 DUP5 SUB SLT ISZERO PUSH2 0x251F JUMPI PUSH1 0x0 DUP1 REVERT JUMPDEST PUSH2 0x193C DUP3 PUSH2 0x239B JUMP JUMPDEST PUSH1 0x0 DUP2 MLOAD DUP1 DUP5 MSTORE PUSH1 0x20 DUP1 DUP6 ADD SWAP5 POP DUP1 DUP5 ADD PUSH1 0x0 JUMPDEST DUP4 DUP2 LT ISZERO PUSH2 0x256F JUMPI DUP2 MLOAD DUP1 MLOAD PUSH1 0x1 PUSH1 0x1 PUSH1 0xA0 SHL SUB AND DUP9 MSTORE PUSH1 0x20 SWAP1 DUP2 ADD MLOAD SWAP1 DUP9 ADD MSTORE PUSH1 0x40 DUP8 ADD SWAP7 POP SWAP1 DUP3 ADD SWAP1 PUSH1 0x1 ADD PUSH2 0x253C JUMP JUMPDEST POP SWAP5 SWAP6 SWAP5 POP POP POP POP POP JUMP JUMPDEST PUSH1 0x0 DUP2 MLOAD PUSH1 0x60 DUP5 MSTORE PUSH2 0x258F PUSH1 0x60 DUP6 ADD DUP3 PUSH2 0x2528 JUMP JUMPDEST SWAP1 POP PUSH1 0x20 DUP4 ADD MLOAD DUP5 DUP3 SUB PUSH1 0x20 DUP7 ADD MSTORE PUSH2 0x25A8 DUP3 DUP3 PUSH2 0x2528 JUMP JUMPDEST SWAP2 POP POP PUSH1 0x40 DUP4 ADD MLOAD DUP5 DUP3 SUB PUSH1 0x40 DUP7 ADD MSTORE PUSH2 0x25C2 DUP3 DUP3 PUSH2 0x2528 JUMP JUMPDEST SWAP6 SWAP5 POP POP POP POP POP JUMP JUMPDEST PUSH1 0x20 DUP2 MSTORE PUSH1 0x0 PUSH2 0x193C PUSH1 0x20 DUP4 ADD DUP5 PUSH2 0x257A JUMP JUMPDEST PUSH4 0x4E487B71 PUSH1 0xE0 SHL PUSH1 0x0 MSTORE PUSH1 0x21 PUSH1 0x4 MSTORE PUSH1 0x24 PUSH1 0x0 REVERT JUMPDEST PUSH1 0x5 DUP2 LT PUSH2 0x2604 JUMPI PUSH2 0x2604 PUSH2 0x25DE JUMP JUMPDEST SWAP1 MSTORE JUMP JUMPDEST PUSH1 0x0 JUMPDEST DUP4 DUP2 LT ISZERO PUSH2 0x2623 JUMPI DUP2 DUP2 ADD MLOAD DUP4 DUP3 ADD MSTORE PUSH1 0x20 ADD PUSH2 0x260B JUMP JUMPDEST POP POP PUSH1 0x0 SWAP2 ADD MSTORE JUMP JUMPDEST PUSH1 0x0 DUP2 MLOAD DUP1 DUP5 MSTORE PUSH2 0x2644 DUP2 PUSH1 0x20 DUP7 ADD PUSH1 0x20 DUP7 ADD PUSH2 0x2608 JUMP JUMPDEST PUSH1 0x1F ADD PUSH1 0x1F NOT AND SWAP3 SWAP1 SWAP3 ADD PUSH1 0x20 ADD SWAP3 SWAP2 POP POP JUMP JUMPDEST PUSH1 0x0 DUP2 MLOAD DUP1 DUP5 MSTORE PUSH1 0x20 DUP1 DUP6 ADD DUP1 DUP2 SWAP7 POP DUP4 PUSH1 0x5 SHL DUP2 ADD SWAP2 POP DUP3 DUP7 ADD PUSH1 0x0 JUMPDEST DUP6 DUP2 LT ISZERO PUSH2 0x26BD JUMPI DUP3 DUP5 SUB DUP10 MSTORE DUP2 MLOAD DUP1 MLOAD PUSH1 0x1 PUSH1 0x1 PUSH1 0xA0 SHL SUB AND DUP6 MSTORE DUP6 ADD MLOAD PUSH1 0x40 DUP7 DUP7 ADD DUP2 SWAP1 MSTORE PUSH2 0x26A9 DUP2 DUP8 ADD DUP4 PUSH2 0x262C JUMP JUMPDEST SWAP11 DUP8 ADD SWAP11 SWAP6 POP POP POP SWAP1 DUP5 ADD SWAP1 PUSH1 0x1 ADD PUSH2 0x2676 JUMP JUMPDEST POP SWAP2 SWAP8 SWAP7 POP POP POP POP POP POP POP JUMP JUMPDEST PUSH1 0x0 PUSH1 0x20 DUP1 DUP4 ADD DUP2 DUP5 MSTORE DUP1 DUP6 MLOAD DUP1 DUP4 MSTORE PUSH1 0x40 SWAP3 POP DUP3 DUP7 ADD SWAP2 POP DUP3 DUP2 PUSH1 0x5 SHL DUP8 ADD ADD DUP5 DUP9 ADD PUSH1 0x0 JUMPDEST DUP4 DUP2 LT ISZERO PUSH2 0x27A8 JUMPI PUSH1 0x3F NOT DUP10 DUP5 SUB ADD DUP6 MSTORE DUP2 MLOAD DUP1 MLOAD PUSH1 0x1 PUSH1 0x1 PUSH1 0x40 SHL SUB SWAP1 DUP2 AND DUP6 MSTORE DUP9 DUP3 ADD MLOAD DUP2 AND DUP10 DUP7 ADD MSTORE DUP8 DUP3 ADD MLOAD DUP2 AND DUP9 DUP7 ADD MSTORE PUSH1 0x60 DUP1 DUP4 ADD MLOAD DUP3 AND SWAP1 DUP7 ADD MSTORE PUSH1 0x80 DUP1 DUP4 ADD MLOAD SWAP1 SWAP2 AND SWAP1 DUP6 ADD MSTORE PUSH1 0xA0 DUP1 DUP3 ADD MLOAD PUSH3 0xFFFFFF AND SWAP1 DUP6 ADD MSTORE PUSH1 0xC0 DUP1 DUP3 ADD MLOAD PUSH1 0x1 PUSH1 0x1 PUSH1 0xA0 SHL SUB AND SWAP1 DUP6 ADD MSTORE PUSH1 0xE0 DUP1 DUP3 ADD MLOAD PUSH2 0x120 SWAP2 SWAP1 PUSH2 0x2779 DUP3 DUP9 ADD DUP3 PUSH2 0x25F4 JUMP JUMPDEST POP POP PUSH2 0x100 SWAP2 DUP3 ADD MLOAD SWAP2 DUP6 ADD DUP2 SWAP1 MSTORE PUSH2 0x2794 DUP6 DUP3 ADD DUP4 PUSH2 0x2658 JUMP JUMPDEST SWAP7 DUP10 ADD SWAP7 SWAP5 POP POP POP SWAP1 DUP7 ADD SWAP1 PUSH1 0x1 ADD PUSH2 0x26F1 JUMP JUMPDEST POP SWAP1 SWAP9 SWAP8 POP POP POP POP POP POP POP POP JUMP JUMPDEST PUSH1 0x0 DUP1 PUSH1 0x20 DUP4 DUP6 SUB SLT ISZERO PUSH2 0x27C9 JUMPI PUSH1 0x0 DUP1 REVERT JUMPDEST DUP3 CALLDATALOAD PUSH1 0x1 PUSH1 0x1 PUSH1 0x40 SHL SUB DUP1 DUP3 GT ISZERO PUSH2 0x27E0 JUMPI PUSH1 0x0 DUP1 REVERT JUMPDEST DUP2 DUP6 ADD SWAP2 POP DUP6 PUSH1 0x1F DUP4 ADD SLT PUSH2 0x27F4 JUMPI PUSH1 0x0 DUP1 REVERT JUMPDEST DUP2 CALLDATALOAD DUP2 DUP2 GT ISZERO PUSH2 0x2803 JUMPI PUSH1 0x0 DUP1 REVERT JUMPDEST DUP7 PUSH1 0x20 DUP3 PUSH1 0x5 SHL DUP6 ADD ADD GT ISZERO PUSH2 0x2818 JUMPI PUSH1 0x0 DUP1 REVERT JUMPDEST PUSH1 0x20 SWAP3 SWAP1 SWAP3 ADD SWAP7 SWAP2 SWAP6 POP SWAP1 SWAP4 POP POP POP POP JUMP JUMPDEST PUSH1 0x20 DUP1 DUP3 MSTORE PUSH1 0x17 SWAP1 DUP3 ADD MSTORE PUSH32 0x70726F706F73616C20646F6573206E6F74206578697374000000000000000000 PUSH1 0x40 DUP3 ADD MSTORE PUSH1 0x60 ADD SWAP1 JUMP JUMPDEST PUSH1 0x0 PUSH1 0x60 DUP3 ADD PUSH1 0x1 DUP1 PUSH1 0xA0 SHL SUB DUP1 DUP8 AND DUP5 MSTORE PUSH1 0x20 PUSH1 0x1 PUSH1 0x1 PUSH1 0x40 SHL SUB DUP8 AND DUP2 DUP7 ADD MSTORE PUSH1 0x60 PUSH1 0x40 DUP7 ADD MSTORE DUP3 DUP7 MLOAD DUP1 DUP6 MSTORE PUSH1 0x80 DUP8 ADD SWAP2 POP DUP3 DUP9 ADD SWAP5 POP PUSH1 0x0 JUMPDEST DUP2 DUP2 LT ISZERO PUSH2 0x28BC JUMPI DUP6 MLOAD DUP6 AND DUP4 MSTORE SWAP5 DUP4 ADD SWAP5 SWAP2 DUP4 ADD SWAP2 PUSH1 0x1 ADD PUSH2 0x289E JUMP JUMPDEST POP SWAP1 SWAP10 SWAP9 POP POP POP POP POP POP POP POP POP JUMP JUMPDEST PUSH1 0x0 PUSH1 0x1 PUSH1 0x1 PUSH1 0x40 SHL SUB DUP3 GT ISZERO PUSH2 0x28E4 JUMPI PUSH2 0x28E4 PUSH2 0x23EE JUMP JUMPDEST POP PUSH1 0x5 SHL PUSH1 0x20 ADD SWAP1 JUMP JUMPDEST PUSH1 0x0 PUSH1 0x20 DUP1 DUP4 DUP6 SUB SLT ISZERO PUSH2 0x2901 JUMPI PUSH1 0x0 DUP1 REVERT JUMPDEST DUP3 MLOAD PUSH1 0x1 PUSH1 0x1 PUSH1 0x40 SHL SUB DUP2 GT ISZERO PUSH2 0x2917 JUMPI PUSH1 0x0 DUP1 REVERT JUMPDEST DUP4 ADD PUSH1 0x1F DUP2 ADD DUP6 SGT PUSH2 0x2928 JUMPI PUSH1 0x0 DUP1 REVERT JUMPDEST DUP1 MLOAD PUSH2 0x293B PUSH2 0x2936 DUP3 PUSH2 0x28CB JUMP JUMPDEST PUSH2 0x244E JUMP JUMPDEST DUP2 DUP2 MSTORE PUSH1 0x6 SWAP2 SWAP1 SWAP2 SHL DUP3 ADD DUP4 ADD SWAP1 DUP4 DUP2 ADD SWAP1 DUP8 DUP4 GT ISZERO PUSH2 0x295A JUMPI PUSH1 0x0 DUP1 REVERT JUMPDEST SWAP3 DUP5 ADD SWAP3 JUMPDEST DUP3 DUP5 LT ISZERO PUSH2 0x2016 JUMPI PUSH1 0x40 DUP5 DUP10 SUB SLT ISZERO PUSH2 0x2978 JUMPI PUSH1 0x0 DUP1 DUP2 REVERT JUMPDEST PUSH2 0x2980 PUSH2 0x2404 JUMP JUMPDEST DUP5 MLOAD PUSH2 0x298B DUP2 PUSH2 0x2490 JUMP JUMPDEST DUP2 MSTORE DUP5 DUP7 ADD MLOAD DUP7 DUP3 ADD MSTORE DUP3 MSTORE PUSH1 0x40 SWAP1 SWAP4 ADD SWAP3 SWAP1 DUP5 ADD SWAP1 PUSH2 0x295F JUMP JUMPDEST PUSH4 0x4E487B71 PUSH1 0xE0 SHL PUSH1 0x0 MSTORE PUSH1 0x32 PUSH1 0x4 MSTORE PUSH1 0x24 PUSH1 0x0 REVERT JUMPDEST PUSH4 0x4E487B71 PUSH1 0xE0 SHL PUSH1 0x0 MSTORE PUSH1 0x11 PUSH1 0x4 MSTORE PUSH1 0x24 PUSH1 0x0 REVERT JUMPDEST DUP2 DUP2 SUB DUP2 DUP2 GT ISZERO PUSH2 0x90A JUMPI PUSH2 0x90A PUSH2 0x29BC JUMP JUMPDEST DUP1 DUP3 ADD DUP1 DUP3 GT ISZERO PUSH2 0x90A JUMPI PUSH2 0x90A PUSH2 0x29BC JUMP JUMPDEST PUSH1 0x0 PUSH1 0x1 DUP3 ADD PUSH2 0x2A0A JUMPI PUSH2 0x2A0A PUSH2 0x29BC JUMP JUMPDEST POP PUSH1 0x1 ADD SWAP1 JUMP JUMPDEST PUSH1 0x4 DUP2 LT PUSH2 0x248D JUMPI PUSH2 0x248D PUSH2 0x25DE JUMP JUMPDEST PUSH3 0xFFFFFF DUP7 AND DUP2 MSTORE PUSH1 0x1 PUSH1 0x1 PUSH1 0xA0 SHL SUB DUP6 AND PUSH1 0x20 DUP3 ADD MSTORE PUSH2 0x2A41 DUP5 PUSH2 0x2A11 JUMP JUMPDEST DUP4 PUSH1 0x40 DUP3 ADD MSTORE PUSH1 0xA0 PUSH1 0x60 DUP3 ADD MSTORE PUSH1 0x0 PUSH2 0x2A5D PUSH1 0xA0 DUP4 ADD DUP6 PUSH2 0x2528 JUMP JUMPDEST DUP3 DUP2 SUB PUSH1 0x80 DUP5 ADD MSTORE PUSH2 0x2A6F DUP2 DUP6 PUSH2 0x257A JUMP JUMPDEST SWAP9 SWAP8 POP POP POP POP POP POP POP POP JUMP JUMPDEST PUSH1 0x1 DUP2 DUP2 SHR SWAP1 DUP3 AND DUP1 PUSH2 0x2A8F JUMPI PUSH1 0x7F DUP3 AND SWAP2 POP JUMPDEST PUSH1 0x20 DUP3 LT DUP2 SUB PUSH2 0x2AAF JUMPI PUSH4 0x4E487B71 PUSH1 0xE0 SHL PUSH1 0x0 MSTORE PUSH1 0x22 PUSH1 0x4 MSTORE PUSH1 0x24 PUSH1 0x0 REVERT JUMPDEST POP SWAP2 SWAP1 POP JUMP JUMPDEST PUSH1 0x0 DUP3 CALLDATALOAD PUSH1 0x3E NOT DUP4 CALLDATASIZE SUB ADD DUP2 SLT PUSH2 0x2ACB JUMPI PUSH1 0x0 DUP1 REVERT JUMPDEST SWAP2 SWAP1 SWAP2 ADD SWAP3 SWAP2 POP POP JUMP JUMPDEST PUSH1 0x0 PUSH1 0x40 DUP3 CALLDATASIZE SUB SLT ISZERO PUSH2 0x2AE7 JUMPI PUSH1 0x0 DUP1 REVERT JUMPDEST PUSH2 0x2AEF PUSH2 0x2404 JUMP JUMPDEST DUP3 CALLDATALOAD PUSH2 0x2AFA DUP2 PUSH2 0x2490 JUMP JUMPDEST DUP2 MSTORE PUSH1 0x20 DUP4 DUP2 ADD CALLDATALOAD PUSH1 0x1 PUSH1 0x1 PUSH1 0x40 SHL SUB DUP1 DUP3 GT ISZERO PUSH2 0x2B17 JUMPI PUSH1 0x0 DUP1 REVERT JUMPDEST SWAP1 DUP6 ADD SWAP1 CALLDATASIZE PUSH1 0x1F DUP4 ADD SLT PUSH2 0x2B2A JUMPI PUSH1 0x0 DUP1 REVERT JUMPDEST DUP2 CALLDATALOAD DUP2 DUP2 GT ISZERO PUSH2 0x2B3C JUMPI PUSH2 0x2B3C PUSH2 0x23EE JUMP JUMPDEST PUSH2 0x2B4E PUSH1 0x1F DUP3 ADD PUSH1 0x1F NOT AND DUP6 ADD PUSH2 0x244E JUMP JUMPDEST SWAP2 POP DUP1 DUP3 MSTORE CALLDATASIZE DUP5 DUP3 DUP6 ADD ADD GT ISZERO PUSH2 0x2B64 JUMPI PUSH1 0x0 DUP1 REVERT JUMPDEST DUP1 DUP5 DUP5 ADD DUP6 DUP5 ADD CALLDATACOPY PUSH1 0x0 SWAP1 DUP3 ADD DUP5 ADD MSTORE SWAP2 DUP4 ADD SWAP2 SWAP1 SWAP2 MSTORE POP SWAP3 SWAP2 POP POP JUMP JUMPDEST PUSH1 0x1 PUSH1 0x1 PUSH1 0xA0 SHL SUB DUP4 AND DUP2 MSTORE PUSH1 0x40 PUSH1 0x20 DUP3 ADD DUP2 SWAP1 MSTORE PUSH1 0x0 SWAP1 PUSH2 0x1883 SWAP1 DUP4 ADD DUP5 PUSH2 0x262C JUMP JUMPDEST DUP1 MLOAD PUSH1 0x1 PUSH1 0x1 PUSH1 0x40 SHL SUB DUP2 AND DUP2 EQ PUSH2 0x23AE JUMPI PUSH1 0x0 DUP1 REVERT JUMPDEST DUP1 MLOAD PUSH4 0xFFFFFFFF DUP2 AND DUP2 EQ PUSH2 0x23AE JUMPI PUSH1 0x0 DUP1 REVERT JUMPDEST PUSH1 0x0 PUSH1 0xC0 DUP3 DUP5 SUB SLT ISZERO PUSH2 0x2BE3 JUMPI PUSH1 0x0 DUP1 REVERT JUMPDEST PUSH1 0x40 MLOAD PUSH1 0xC0 DUP2 ADD DUP2 DUP2 LT PUSH1 0x1 PUSH1 0x1 PUSH1 0x40 SHL SUB DUP3 GT OR ISZERO PUSH2 0x2C05 JUMPI PUSH2 0x2C05 PUSH2 0x23EE JUMP JUMPDEST PUSH1 0x40 MSTORE PUSH2 0x2C11 DUP4 PUSH2 0x2BA6 JUMP JUMPDEST DUP2 MSTORE PUSH2 0x2C1F PUSH1 0x20 DUP5 ADD PUSH2 0x2BA6 JUMP JUMPDEST PUSH1 0x20 DUP3 ADD MSTORE PUSH2 0x2C30 PUSH1 0x40 DUP5 ADD PUSH2 0x2BA6 JUMP JUMPDEST PUSH1 0x40 DUP3 ADD MSTORE PUSH2 0x2C41 PUSH1 0x60 DUP5 ADD PUSH2 0x2BBD JUMP JUMPDEST PUSH1 0x60 DUP3 ADD MSTORE PUSH2 0x2C52 PUSH1 0x80 DUP5 ADD PUSH2 0x2BBD JUMP JUMPDEST PUSH1 0x80 DUP3 ADD MSTORE PUSH1 0xA0 DUP4 ADD MLOAD PUSH2 0x2C65 DUP2 PUSH2 0x247E JUMP JUMPDEST PUSH1 0xA0 DUP3 ADD MSTORE SWAP4 SWAP3 POP POP POP JUMP JUMPDEST PUSH1 0x0 PUSH1 0x20 DUP3 DUP5 SUB SLT ISZERO PUSH2 0x2C83 JUMPI PUSH1 0x0 DUP1 REVERT JUMPDEST DUP2 CALLDATALOAD PUSH2 0x193C DUP2 PUSH2 0x2490 JUMP JUMPDEST PUSH1 0x0 DUP1 DUP4 CALLDATALOAD PUSH1 0x1E NOT DUP5 CALLDATASIZE SUB ADD DUP2 SLT PUSH2 0x2CA5 JUMPI PUSH1 0x0 DUP1 REVERT JUMPDEST DUP4 ADD DUP1 CALLDATALOAD SWAP2 POP PUSH1 0x1 PUSH1 0x1 PUSH1 0x40 SHL SUB DUP3 GT ISZERO PUSH2 0x2CBF JUMPI PUSH1 0x0 DUP1 REVERT JUMPDEST PUSH1 0x20 ADD SWAP2 POP CALLDATASIZE DUP2 SWAP1 SUB DUP3 SGT ISZERO PUSH2 0x1866 JUMPI PUSH1 0x0 DUP1 REVERT JUMPDEST DUP2 DUP4 MSTORE DUP2 DUP2 PUSH1 0x20 DUP6 ADD CALLDATACOPY POP PUSH1 0x0 DUP3 DUP3 ADD PUSH1 0x20 SWAP1 DUP2 ADD SWAP2 SWAP1 SWAP2 MSTORE PUSH1 0x1F SWAP1 SWAP2 ADD PUSH1 0x1F NOT AND SWAP1 SWAP2 ADD ADD SWAP1 JUMP JUMPDEST PUSH1 0x1 PUSH1 0x1 PUSH1 0xA0 SHL SUB DUP5 AND DUP2 MSTORE PUSH1 0x40 PUSH1 0x20 DUP3 ADD DUP2 SWAP1 MSTORE PUSH1 0x0 SWAP1 PUSH2 0x25C2 SWAP1 DUP4 ADD DUP5 DUP7 PUSH2 0x2CD4 JUMP JUMPDEST PUSH1 0x0 PUSH1 0x20 DUP3 DUP5 SUB SLT ISZERO PUSH2 0x2D34 JUMPI PUSH1 0x0 DUP1 REVERT JUMPDEST POP MLOAD SWAP2 SWAP1 POP JUMP JUMPDEST PUSH1 0x20 DUP2 MSTORE PUSH1 0x0 PUSH2 0x193C PUSH1 0x20 DUP4 ADD DUP5 PUSH2 0x262C JUMP JUMPDEST PUSH1 0x20 DUP2 MSTORE PUSH1 0x0 PUSH2 0x193C PUSH1 0x20 DUP4 ADD DUP5 PUSH2 0x2528 JUMP JUMPDEST PUSH1 0x1 PUSH1 0x1 PUSH1 0x40 SHL SUB DUP2 DUP2 AND DUP4 DUP3 AND ADD SWAP1 DUP1 DUP3 GT ISZERO PUSH2 0x1F3F JUMPI PUSH2 0x1F3F PUSH2 0x29BC JUMP JUMPDEST PUSH1 0x1F DUP3 GT ISZERO PUSH2 0x1DD8 JUMPI PUSH1 0x0 DUP2 DUP2 MSTORE PUSH1 0x20 DUP2 KECCAK256 PUSH1 0x1F DUP6 ADD PUSH1 0x5 SHR DUP2 ADD PUSH1 0x20 DUP7 LT ISZERO PUSH2 0x2DA8 JUMPI POP DUP1 JUMPDEST PUSH1 0x1F DUP6 ADD PUSH1 0x5 SHR DUP3 ADD SWAP2 POP JUMPDEST DUP2 DUP2 LT ISZERO PUSH2 0x2DC7 JUMPI DUP3 DUP2 SSTORE PUSH1 0x1 ADD PUSH2 0x2DB4 JUMP JUMPDEST POP POP POP POP POP POP JUMP JUMPDEST DUP2 CALLDATALOAD PUSH2 0x2DDA DUP2 PUSH2 0x2490 JUMP JUMPDEST DUP2 SLOAD PUSH1 0x1 PUSH1 0x1 PUSH1 0xA0 SHL SUB NOT AND PUSH1 0x1 PUSH1 0x1 PUSH1 0xA0 SHL SUB SWAP2 SWAP1 SWAP2 AND OR DUP2 SSTORE PUSH1 0x1 DUP2 DUP2 ADD PUSH1 0x20 DUP5 DUP2 ADD CALLDATALOAD CALLDATASIZE DUP7 SWAP1 SUB PUSH1 0x1E NOT ADD DUP2 SLT PUSH2 0x2E13 JUMPI PUSH1 0x0 DUP1 REVERT JUMPDEST DUP6 ADD DUP1 CALLDATALOAD PUSH1 0x1 PUSH1 0x1 PUSH1 0x40 SHL SUB DUP2 GT ISZERO PUSH2 0x2E2B JUMPI PUSH1 0x0 DUP1 REVERT JUMPDEST DUP1 CALLDATASIZE SUB DUP4 DUP4 ADD SGT ISZERO PUSH2 0x2E3C JUMPI PUSH1 0x0 DUP1 REVERT JUMPDEST PUSH2 0x2E50 DUP2 PUSH2 0x2E4A DUP7 SLOAD PUSH2 0x2A7B JUMP JUMPDEST DUP7 PUSH2 0x2D81 JUMP JUMPDEST PUSH1 0x0 PUSH1 0x1F DUP3 GT PUSH1 0x1 DUP2 EQ PUSH2 0x2E86 JUMPI PUSH1 0x0 DUP4 ISZERO PUSH2 0x2E6E JUMPI POP DUP4 DUP3 ADD DUP6 ADD CALLDATALOAD JUMPDEST PUSH1 0x0 NOT PUSH1 0x3 DUP6 SWAP1 SHL SHR NOT AND PUSH1 0x1 DUP5 SWAP1 SHL OR DUP7 SSTORE PUSH2 0x2EDF JUMP JUMPDEST PUSH1 0x0 DUP7 DUP2 MSTORE PUSH1 0x20 SWAP1 KECCAK256 PUSH1 0x1F NOT DUP5 AND SWAP1 DUP4 JUMPDEST DUP3 DUP2 LT ISZERO PUSH2 0x2EB6 JUMPI DUP7 DUP6 ADD DUP9 ADD CALLDATALOAD DUP3 SSTORE SWAP4 DUP8 ADD SWAP4 SWAP1 DUP10 ADD SWAP1 DUP8 ADD PUSH2 0x2E97 JUMP JUMPDEST POP DUP5 DUP3 LT ISZERO PUSH2 0x2ED5 JUMPI PUSH1 0x0 NOT PUSH1 0xF8 DUP7 PUSH1 0x3 SHL AND SHR NOT DUP8 DUP6 DUP9 ADD ADD CALLDATALOAD AND DUP2 SSTORE JUMPDEST POP POP DUP7 DUP4 DUP9 SHL ADD DUP7 SSTORE JUMPDEST POP POP POP POP POP POP POP POP POP JUMP JUMPDEST PUSH1 0x0 PUSH1 0x20 DUP1 DUP4 DUP6 SUB SLT ISZERO PUSH2 0x2EFD JUMPI PUSH1 0x0 DUP1 REVERT JUMPDEST DUP3 MLOAD PUSH1 0x1 PUSH1 0x1 PUSH1 0x40 SHL SUB DUP2 GT ISZERO PUSH2 0x2F13 JUMPI PUSH1 0x0 DUP1 REVERT JUMPDEST DUP4 ADD PUSH1 0x1F DUP2 ADD DUP6 SGT PUSH2 0x2F24 JUMPI PUSH1 0x0 DUP1 REVERT JUMPDEST DUP1 MLOAD PUSH2 0x2F32 PUSH2 0x2936 DUP3 PUSH2 0x28CB JUMP JUMPDEST DUP2 DUP2 MSTORE PUSH1 0x60 SWAP2 DUP3 MUL DUP4 ADD DUP5 ADD SWAP2 DUP5 DUP3 ADD SWAP2 SWAP1 DUP9 DUP5 GT ISZERO PUSH2 0x2F51 JUMPI PUSH1 0x0 DUP1 REVERT JUMPDEST SWAP4 DUP6 ADD SWAP4 JUMPDEST DUP4 DUP6 LT ISZERO PUSH2 0x2FA4 JUMPI DUP1 DUP6 DUP11 SUB SLT ISZERO PUSH2 0x2F6E JUMPI PUSH1 0x0 DUP1 DUP2 REVERT JUMPDEST PUSH2 0x2F76 PUSH2 0x242C JUMP JUMPDEST DUP6 MLOAD PUSH2 0x2F81 DUP2 PUSH2 0x2490 JUMP JUMPDEST DUP2 MSTORE DUP6 DUP8 ADD MLOAD DUP8 DUP3 ADD MSTORE PUSH1 0x40 DUP1 DUP8 ADD MLOAD SWAP1 DUP3 ADD MSTORE DUP4 MSTORE SWAP4 DUP5 ADD SWAP4 SWAP2 DUP6 ADD SWAP2 PUSH2 0x2F56 JUMP JUMPDEST POP SWAP8 SWAP7 POP POP POP POP POP POP POP JUMP JUMPDEST PUSH3 0xFFFFFF DUP2 DUP2 AND DUP4 DUP3 AND ADD SWAP1 DUP1 DUP3 GT ISZERO PUSH2 0x1F3F JUMPI PUSH2 0x1F3F PUSH2 0x29BC JUMP JUMPDEST PUSH1 0x0 PUSH1 0x60 DUP3 ADD PUSH3 0xFFFFFF DUP8 AND DUP4 MSTORE PUSH1 0x20 PUSH1 0x1 DUP1 PUSH1 0xA0 SHL SUB DUP1 DUP9 AND DUP3 DUP7 ADD MSTORE PUSH1 0x40 PUSH1 0x60 DUP2 DUP8 ADD MSTORE DUP4 DUP8 DUP6 MSTORE PUSH1 0x80 DUP8 ADD SWAP1 POP PUSH1 0x80 DUP9 PUSH1 0x5 SHL DUP9 ADD ADD SWAP5 POP DUP9 PUSH1 0x0 JUMPDEST DUP10 DUP2 LT ISZERO PUSH2 0x30A8 JUMPI DUP9 DUP8 SUB PUSH1 0x7F NOT ADD DUP4 MSTORE DUP2 CALLDATALOAD CALLDATASIZE DUP13 SWAP1 SUB PUSH1 0x3E NOT ADD DUP2 SLT PUSH2 0x3031 JUMPI PUSH1 0x0 DUP1 REVERT JUMPDEST DUP12 ADD DUP1 CALLDATALOAD PUSH2 0x303E DUP2 PUSH2 0x2490 JUMP JUMPDEST DUP7 AND DUP9 MSTORE DUP1 DUP8 ADD CALLDATALOAD CALLDATASIZE DUP3 SWAP1 SUB PUSH1 0x1E NOT ADD DUP2 SLT PUSH2 0x3059 JUMPI PUSH1 0x0 DUP1 REVERT JUMPDEST ADD DUP7 DUP2 ADD SWAP1 CALLDATALOAD PUSH1 0x1 PUSH1 0x1 PUSH1 0x40 SHL SUB DUP2 GT ISZERO PUSH2 0x3073 JUMPI PUSH1 0x0 DUP1 REVERT JUMPDEST DUP1 CALLDATASIZE SUB DUP3 SGT ISZERO PUSH2 0x3082 JUMPI PUSH1 0x0 DUP1 REVERT JUMPDEST DUP6 DUP9 DUP11 ADD MSTORE PUSH2 0x3094 DUP7 DUP11 ADD DUP3 DUP5 PUSH2 0x2CD4 JUMP JUMPDEST SWAP9 POP POP POP SWAP2 DUP6 ADD SWAP2 SWAP1 DUP6 ADD SWAP1 PUSH1 0x1 ADD PUSH2 0x300B JUMP JUMPDEST POP SWAP5 SWAP12 SWAP11 POP POP POP POP POP POP POP POP POP POP POP JUMP JUMPDEST PUSH3 0xFFFFFF DUP5 AND DUP2 MSTORE PUSH1 0x60 DUP2 ADD PUSH2 0x30D2 PUSH1 0x20 DUP4 ADD DUP6 PUSH2 0x25F4 JUMP JUMPDEST PUSH2 0x30DB DUP4 PUSH2 0x2A11 JUMP JUMPDEST DUP3 PUSH1 0x40 DUP4 ADD MSTORE SWAP5 SWAP4 POP POP POP POP JUMP JUMPDEST DUP1 DUP3 MUL DUP2 ISZERO DUP3 DUP3 DIV DUP5 EQ OR PUSH2 0x90A JUMPI PUSH2 0x90A PUSH2 0x29BC JUMP JUMPDEST PUSH1 0x0 DUP3 PUSH2 0x311D JUMPI PUSH4 0x4E487B71 PUSH1 0xE0 SHL PUSH1 0x0 MSTORE PUSH1 0x12 PUSH1 0x4 MSTORE PUSH1 0x24 PUSH1 0x0 REVERT JUMPDEST POP DIV SWAP1 JUMP JUMPDEST PUSH1 0x0 DUP3 MLOAD PUSH2 0x2ACB DUP2 DUP5 PUSH1 0x20 DUP8 ADD PUSH2 0x2608 JUMP JUMPDEST PUSH4 0x4E487B71 PUSH1 0xE0 SHL PUSH1 0x0 MSTORE PUSH1 0x31 PUSH1 0x4 MSTORE PUSH1 0x24 PUSH1 0x0 REVERT INVALID LOG2 PUSH5 0x6970667358 0x22 SLT KECCAK256 MOD 0x5F SELFDESTRUCT 0x4F REVERT CREATE 0x5D NUMBER JUMPDEST PUSH18 0xCC7612EE65FCB7CA6FFCAB38273229B0BF2E RETURN PUSH26 0x703864736F6C6343000811003300000000000000000000000000 ","sha1":"b3fc9e837a3c64ff67ccbf1118d4bf7769379998","source":"// SPDX-License-Identifier: Unlicensed\npragma solidity ^0.8.17;\n\nimport \"@openzeppelin/contracts/utils/Address.sol\";\nimport \"@openzeppelin/contracts/utils/structs/EnumerableSet.sol\";\nimport \"@openzeppelin/contracts/utils/structs/EnumerableMap.sol\";\nimport \"@openzeppelin/contracts/proxy/utils/Initializable.sol\";\n\nimport \"../libraries/DataTypes.sol\";\nimport \"../libraries/ScaledMath.sol\";\nimport \"../libraries/VaultsSnapshot.sol\";\n\nimport \"../interfaces/IVault.sol\";\nimport \"../interfaces/IVotingPowerAggregator.sol\";\nimport \"../interfaces/ITierer.sol\";\nimport \"../interfaces/ITierStrategy.sol\";\nimport \"../interfaces/IWrappedERC20WithEMA.sol\";\n\ncontract GovernanceManager is Initializable {\n    using Address for address;\n    using ScaledMath for uint256;\n    using EnumerableSet for EnumerableSet.Bytes32Set;\n    using EnumerableMap for EnumerableMap.AddressToUintMap;\n    using VaultsSnapshot for DataTypes.VaultSnapshot[];\n\n    IVotingPowerAggregator public immutable votingPowerAggregator;\n    ITierer public immutable tierer;\n    IWrappedERC20WithEMA public immutable wGYD;\n    DataTypes.LimitUpgradeabilityParameters public limitUpgradeabilityParams;\n\n    uint24 public proposalsCount;\n\n    EnumerableSet.Bytes32Set internal _activeProposals;\n    EnumerableSet.Bytes32Set internal _timelockedProposals;\n    mapping(uint24 => DataTypes.Proposal) internal _proposals;\n    mapping(uint24 => DataTypes.VaultSnapshot[]) internal _vaultSnapshots;\n\n    mapping(address => mapping(uint24 => DataTypes.Vote)) internal _votes;\n    mapping(uint24 => mapping(DataTypes.Ballot => EnumerableMap.AddressToUintMap))\n        internal _totals;\n\n    constructor(\n        IVotingPowerAggregator _votingPowerAggregator,\n        ITierer _tierer,\n        IWrappedERC20WithEMA _wGYD\n    ) {\n        votingPowerAggregator = _votingPowerAggregator;\n        tierer = _tierer;\n        wGYD = _wGYD;\n    }\n\n    function initialize(\n        DataTypes.LimitUpgradeabilityParameters memory _params\n    ) external initializer {\n        limitUpgradeabilityParams = _params;\n    }\n\n    event ProposalCreated(\n        uint24 id,\n        address proposer,\n        DataTypes.ProposalAction[] actions\n    );\n\n    function createProposal(\n        DataTypes.ProposalAction[] calldata actions\n    ) external {\n        require(actions.length > 0, \"cannot create a proposal with no actions\");\n\n        // Determine the tier associated with this proposal by taking the tier of the most impactful\n        // action, determined by the tier's actionLevel parameter.\n        DataTypes.ProposalAction memory action = actions[0];\n        DataTypes.Tier memory tier = tierer.getTier(action.target, action.data);\n        for (uint256 i = 1; i < actions.length; i++) {\n            DataTypes.Tier memory currentTier = tierer.getTier(\n                actions[i].target,\n                actions[i].data\n            );\n            if (currentTier.actionLevel > tier.actionLevel) {\n                action = actions[i];\n                tier = currentTier;\n            }\n        }\n\n        // If a sufficiently large amount of GYD is wrapped, this signifies that holders\n        // are happy with the system and are against further high-level upgrades.\n        // As a result, we should apply a higher tier if the proposed action has big impacts.\n        if (\n            wGYD.wrappedPctEMA() > limitUpgradeabilityParams.emaThreshold &&\n            tier.actionLevel > limitUpgradeabilityParams.actionLevelThreshold\n        ) {\n            tier = limitUpgradeabilityParams.tierStrategy.getTier(action.data);\n        }\n\n        DataTypes.VaultVotingPower[] memory rawPower = votingPowerAggregator\n            .getVotingPower(msg.sender, block.timestamp - 1);\n        uint256 votingPowerPct = votingPowerAggregator\n            .calculateWeightedPowerPct(rawPower);\n        require(\n            votingPowerPct > tier.proposalThreshold,\n            \"proposer doesn't have enough voting power to propose this action\"\n        );\n\n        uint64 createdAt = uint64(block.timestamp);\n        uint64 votingEndsAt = createdAt + tier.proposalLength;\n        uint64 executableAt = votingEndsAt + tier.timeLockDuration;\n\n        DataTypes.Proposal storage p = _proposals[proposalsCount];\n        p.id = proposalsCount;\n        p.proposer = msg.sender;\n        p.createdAt = createdAt;\n        p.votingEndsAt = votingEndsAt;\n        p.executableAt = executableAt;\n        p.status = DataTypes.Status.Active;\n        p.quorum = tier.quorum;\n        p.voteThreshold = tier.voteThreshold;\n\n        for (uint256 i = 0; i < actions.length; i++) {\n            p.actions.push(actions[i]);\n        }\n\n        votingPowerAggregator.createVaultsSnapshot().persist(\n            _vaultSnapshots[p.id]\n        );\n\n        proposalsCount = p.id + 1;\n        _activeProposals.add(bytes32(bytes3(p.id)));\n\n        emit ProposalCreated(p.id, p.proposer, actions);\n    }\n\n    event VoteCast(\n        uint24 proposalId,\n        address voter,\n        DataTypes.Ballot vote,\n        DataTypes.VaultVotingPower[] votingPower,\n        DataTypes.VoteTotals voteTotals\n    );\n\n    function vote(uint24 proposalId, DataTypes.Ballot ballot) external {\n        DataTypes.Proposal storage proposal = _proposals[proposalId];\n        require(proposal.createdAt != 0, \"proposal does not exist\");\n\n        require(\n            proposal.votingEndsAt > uint64(block.timestamp),\n            \"voting is closed on this proposal\"\n        );\n\n        require(\n            ballot != DataTypes.Ballot.UNDEFINED,\n            \"ballot must be cast FOR, AGAINST, or ABSTAIN\"\n        );\n\n        DataTypes.VaultSnapshot[] memory vaultSnapshots = _vaultSnapshots[\n            proposalId\n        ];\n\n        DataTypes.VaultVotingPower[] memory uvp = votingPowerAggregator\n            .getVotingPower(\n                msg.sender,\n                proposal.createdAt,\n                _vaultAddresses(vaultSnapshots)\n            );\n\n        DataTypes.Vote storage existingVote = _votes[msg.sender][proposalId];\n\n        bool isNewVote = existingVote.ballot == DataTypes.Ballot.UNDEFINED;\n        for (uint256 i = 0; i < uvp.length; i++) {\n            DataTypes.VaultVotingPower memory vvp = uvp[i];\n\n            // cancel out the previous vote if it was cast\n            if (!isNewVote) {\n                (, uint256 prevBallotTotal) = _totals[proposalId][\n                    existingVote.ballot\n                ].tryGet(vvp.vaultAddress);\n                _totals[proposalId][existingVote.ballot].set(\n                    vvp.vaultAddress,\n                    prevBallotTotal - vvp.votingPower\n                );\n            }\n\n            (, uint256 newBallotTotal) = _totals[proposalId][ballot].tryGet(\n                vvp.vaultAddress\n            );\n            _totals[proposalId][ballot].set(\n                vvp.vaultAddress,\n                newBallotTotal + vvp.votingPower\n            );\n        }\n\n        // Then update the record of this user's vote to the latest ballot and voting power\n        existingVote.ballot = ballot;\n\n        emit VoteCast(\n            proposalId,\n            msg.sender,\n            ballot,\n            uvp,\n            _toVoteTotals(_totals[proposalId])\n        );\n    }\n\n    function getVoteTotals(\n        uint24 proposalId\n    ) external view returns (DataTypes.VoteTotals memory) {\n        return _toVoteTotals(_totals[proposalId]);\n    }\n\n    function _toVoteTotals(\n        mapping(DataTypes.Ballot => EnumerableMap.AddressToUintMap)\n            storage totals\n    ) internal view returns (DataTypes.VoteTotals memory) {\n        EnumerableMap.AddressToUintMap storage forVotingPower = totals[\n            DataTypes.Ballot.FOR\n        ];\n        DataTypes.VaultVotingPower[] memory forTotals = _toVotingPowers(\n            forVotingPower\n        );\n\n        EnumerableMap.AddressToUintMap storage againstVotingPower = totals[\n            DataTypes.Ballot.AGAINST\n        ];\n        DataTypes.VaultVotingPower[] memory againstTotals = _toVotingPowers(\n            againstVotingPower\n        );\n\n        EnumerableMap.AddressToUintMap storage abstentionsVotingPower = totals[\n            DataTypes.Ballot.ABSTAIN\n        ];\n        DataTypes.VaultVotingPower[] memory abstentionsTotals = _toVotingPowers(\n            abstentionsVotingPower\n        );\n\n        return\n            DataTypes.VoteTotals({\n                _for: forTotals,\n                against: againstTotals,\n                abstentions: abstentionsTotals\n            });\n    }\n\n    event ProposalTallied(\n        uint24 proposalId,\n        DataTypes.Status status,\n        DataTypes.ProposalOutcome outcome\n    );\n\n    function tallyVote(uint24 proposalId) external {\n        DataTypes.Proposal storage proposal = _proposals[proposalId];\n        require(proposal.createdAt != 0, \"proposal does not exist\");\n\n        require(\n            _activeProposals.contains(bytes32(bytes3(proposalId))),\n            \"proposal is not currently active\"\n        );\n\n        require(\n            uint64(block.timestamp) > proposal.votingEndsAt,\n            \"voting is ongoing for this proposal\"\n        );\n\n        (\n            uint256 forTotalPct,\n            uint256 againstTotalPct,\n            uint256 abstentionsTotalPct\n        ) = _getCurrentPercentages(proposal);\n\n        uint256 combinedPct = forTotalPct +\n            againstTotalPct +\n            abstentionsTotalPct;\n        if (combinedPct < proposal.quorum) {\n            proposal.status = DataTypes.Status.Rejected;\n            _activeProposals.remove(bytes32(bytes3(proposalId)));\n            emit ProposalTallied(\n                proposalId,\n                proposal.status,\n                DataTypes.ProposalOutcome.QUORUM_NOT_MET\n            );\n            return;\n        }\n\n        uint256 result = 0;\n        if (forTotalPct + againstTotalPct > 0) {\n            result = forTotalPct.divDown(forTotalPct + againstTotalPct);\n        }\n        DataTypes.ProposalOutcome outcome = DataTypes.ProposalOutcome.UNDEFINED;\n        if (result > proposal.voteThreshold) {\n            proposal.status = DataTypes.Status.Queued;\n            outcome = DataTypes.ProposalOutcome.SUCCESSFUL;\n            _timelockedProposals.add(bytes32(bytes3(proposalId)));\n        } else {\n            proposal.status = DataTypes.Status.Rejected;\n            outcome = DataTypes.ProposalOutcome.THRESHOLD_NOT_MET;\n        }\n        _activeProposals.remove(bytes32(bytes3(proposalId)));\n        emit ProposalTallied(proposalId, proposal.status, outcome);\n    }\n\n    function getCurrentPercentages(\n        uint24 proposalId\n    ) external view returns (uint256 for_, uint256 against, uint256 abstain) {\n        DataTypes.Proposal storage proposal = _proposals[proposalId];\n        require(proposal.createdAt != 0, \"proposal does not exist\");\n        return _getCurrentPercentages(proposal);\n    }\n\n    function _getCurrentPercentages(\n        DataTypes.Proposal storage proposal\n    ) internal view returns (uint256 for_, uint256 against, uint256 abstain) {\n        DataTypes.VaultSnapshot[] memory snapshot = _vaultSnapshots[\n            proposal.id\n        ];\n        mapping(DataTypes.Ballot => EnumerableMap.AddressToUintMap)\n            storage propTotals = _totals[proposal.id];\n        for_ = snapshot.getBallotPercentage(propTotals[DataTypes.Ballot.FOR]);\n        against = snapshot.getBallotPercentage(\n            propTotals[DataTypes.Ballot.AGAINST]\n        );\n        abstain = snapshot.getBallotPercentage(\n            propTotals[DataTypes.Ballot.ABSTAIN]\n        );\n    }\n\n    function _toVotingPowers(\n        EnumerableMap.AddressToUintMap storage map\n    ) internal view returns (DataTypes.VaultVotingPower[] memory) {\n        DataTypes.VaultVotingPower[]\n            memory vvps = new DataTypes.VaultVotingPower[](map.length());\n        for (uint256 i = 0; i < map.length(); i++) {\n            (address key, uint256 value) = map.at(i);\n            vvps[i] = DataTypes.VaultVotingPower({\n                vaultAddress: key,\n                votingPower: value\n            });\n        }\n\n        return vvps;\n    }\n\n    event ProposalExecuted(uint24 proposalId);\n\n    function executeProposal(uint24 proposalId) external {\n        DataTypes.Proposal storage proposal = _proposals[proposalId];\n        if (proposal.createdAt == uint64(0)) {\n            revert(\"proposal does not exist\");\n        }\n\n        require(\n            _timelockedProposals.contains(bytes32(bytes3(proposalId))) &&\n                uint64(block.timestamp) > proposal.executableAt,\n            \"proposal must be queued and ready to execute\"\n        );\n\n        for (uint256 i = 0; i < proposal.actions.length; i++) {\n            proposal.actions[i].target.functionCall(\n                proposal.actions[i].data,\n                \"proposal execution failed\"\n            );\n        }\n        proposal.status = DataTypes.Status.Executed;\n        _timelockedProposals.remove(bytes32(bytes3(proposalId)));\n        emit ProposalExecuted(proposalId);\n    }\n\n    function listActiveProposals()\n        external\n        view\n        returns (DataTypes.Proposal[] memory)\n    {\n        return _listProposals(_activeProposals.values());\n    }\n\n    function listTimelockedProposals()\n        external\n        view\n        returns (DataTypes.Proposal[] memory)\n    {\n        return _listProposals(_timelockedProposals.values());\n    }\n\n    function _listProposals(\n        bytes32[] memory ids\n    ) internal view returns (DataTypes.Proposal[] memory) {\n        uint256 len = ids.length;\n        DataTypes.Proposal[] memory proposals = new DataTypes.Proposal[](len);\n        for (uint256 i = 0; i < len; i++) {\n            proposals[i] = _proposals[uint24(bytes3(ids[i]))];\n        }\n        return proposals;\n    }\n\n    function _vaultAddresses(\n        DataTypes.VaultSnapshot[] memory vaultSnapshots\n    ) internal pure returns (address[] memory) {\n        uint256 len = vaultSnapshots.length;\n        address[] memory vaultAddresses = new address[](len);\n        for (uint256 i = 0; i < len; i++) {\n            vaultAddresses[i] = vaultSnapshots[i].vaultAddress;\n        }\n        return vaultAddresses;\n    }\n}\n","sourcePath":"contracts/GovernanceManager.sol","type":"contract","deployment":{"address":"0xc844e96F1aaE0eFA8712530955E7e0fc473AeF70","chainid":"137","blockHeight":42310675}}