{"abi":[{"inputs":[{"internalType":"address","name":"_owner","type":"address"},{"internalType":"address","name":"_lpToken","type":"address"},{"internalType":"address","name":"_rewardsToken","type":"address"}],"stateMutability":"nonpayable","type":"constructor","name":"constructor"},{"inputs":[{"internalType":"address","name":"actual","type":"address"},{"internalType":"address","name":"expected","type":"address"}],"name":"NotAuthorized","type":"error"},{"inputs":[],"name":"ZeroDivision","type":"error"},{"anonymous":false,"inputs":[{"indexed":true,"internalType":"address","name":"beneficiary","type":"address"},{"indexed":false,"internalType":"uint256","name":"amount","type":"uint256"}],"name":"Claim","type":"event"},{"anonymous":false,"inputs":[{"indexed":true,"internalType":"address","name":"from","type":"address"},{"indexed":true,"internalType":"address","name":"delegate","type":"address"},{"indexed":false,"internalType":"uint256","name":"amount","type":"uint256"}],"name":"Deposit","type":"event"},{"anonymous":false,"inputs":[{"indexed":false,"internalType":"uint8","name":"version","type":"uint8"}],"name":"Initialized","type":"event"},{"anonymous":false,"inputs":[{"indexed":true,"internalType":"address","name":"account","type":"address"},{"indexed":false,"internalType":"uint256","name":"amount","type":"uint256"}],"name":"Stake","type":"event"},{"anonymous":false,"inputs":[{"indexed":false,"internalType":"uint256","name":"amount","type":"uint256"},{"indexed":false,"internalType":"uint256","name":"endTime","type":"uint256"}],"name":"StartMining","type":"event"},{"anonymous":false,"inputs":[],"name":"StopMining","type":"event"},{"anonymous":false,"inputs":[{"indexed":true,"internalType":"address","name":"account","type":"address"},{"indexed":false,"internalType":"uint256","name":"amount","type":"uint256"}],"name":"Unstake","type":"event"},{"anonymous":false,"inputs":[{"indexed":false,"internalType":"address","name":"delegator","type":"address"},{"indexed":false,"internalType":"address","name":"delegate","type":"address"},{"indexed":false,"internalType":"uint256","name":"amount","type":"uint256"}],"name":"VotesDelegated","type":"event"},{"anonymous":false,"inputs":[{"indexed":false,"internalType":"address","name":"delegator","type":"address"},{"indexed":false,"internalType":"address","name":"delegate","type":"address"},{"indexed":false,"internalType":"uint256","name":"amount","type":"uint256"}],"name":"VotesUndelegated","type":"event"},{"anonymous":false,"inputs":[{"indexed":true,"internalType":"uint256","name":"id","type":"uint256"},{"indexed":true,"internalType":"address","name":"to","type":"address"},{"indexed":false,"internalType":"uint256","name":"amount","type":"uint256"}],"name":"WithdrawalCompleted","type":"event"},{"anonymous":false,"inputs":[{"indexed":true,"internalType":"uint256","name":"id","type":"uint256"},{"indexed":true,"internalType":"address","name":"to","type":"address"},{"indexed":true,"internalType":"address","name":"delegate","type":"address"},{"indexed":false,"internalType":"uint256","name":"withdrawalAt","type":"uint256"},{"indexed":false,"internalType":"uint256","name":"amount","type":"uint256"}],"name":"WithdrawalQueued","type":"event"},{"inputs":[{"internalType":"address","name":"_oldDelegate","type":"address"},{"internalType":"address","name":"_newDelegate","type":"address"},{"internalType":"uint256","name":"_amount","type":"uint256"}],"name":"changeDelegate","outputs":[],"stateMutability":"nonpayable","type":"function"},{"inputs":[],"name":"claimRewards","outputs":[{"internalType":"uint256","name":"","type":"uint256"}],"stateMutability":"nonpayable","type":"function"},{"inputs":[{"internalType":"address","name":"beneficiary","type":"address"}],"name":"claimableRewards","outputs":[{"internalType":"uint256","name":"","type":"uint256"}],"stateMutability":"view","type":"function"},{"inputs":[{"internalType":"address","name":"_delegate","type":"address"},{"internalType":"uint256","name":"_amount","type":"uint256"}],"name":"delegateVote","outputs":[],"stateMutability":"nonpayable","type":"function"},{"inputs":[{"internalType":"uint256","name":"_amount","type":"uint256"},{"internalType":"address","name":"_delegate","type":"address"}],"name":"deposit","outputs":[],"stateMutability":"nonpayable","type":"function"},{"inputs":[{"internalType":"uint256","name":"_amount","type":"uint256"}],"name":"deposit","outputs":[],"stateMutability":"nonpayable","type":"function"},{"inputs":[{"internalType":"address","name":"account","type":"address"}],"name":"getCurrentRecord","outputs":[{"components":[{"internalType":"uint256","name":"at","type":"uint256"},{"internalType":"uint256","name":"baseVotingPower","type":"uint256"},{"internalType":"uint256","name":"multiplier","type":"uint256"},{"internalType":"int256","name":"netDelegatedVotes","type":"int256"}],"internalType":"struct VotingPowerHistory.Record","name":"","type":"tuple"}],"stateMutability":"view","type":"function"},{"inputs":[{"internalType":"address","name":"account","type":"address"}],"name":"getDelegations","outputs":[{"components":[{"internalType":"address","name":"delegate","type":"address"},{"internalType":"uint256","name":"amount","type":"uint256"}],"internalType":"struct DataTypes.Delegation[]","name":"delegations","type":"tuple[]"}],"stateMutability":"view","type":"function"},{"inputs":[{"internalType":"address","name":"account","type":"address"}],"name":"getRawVotingPower","outputs":[{"internalType":"uint256","name":"","type":"uint256"}],"stateMutability":"view","type":"function"},{"inputs":[{"internalType":"address","name":"_user","type":"address"},{"internalType":"uint256","name":"timestamp","type":"uint256"}],"name":"getRawVotingPower","outputs":[{"internalType":"uint256","name":"","type":"uint256"}],"stateMutability":"view","type":"function"},{"inputs":[],"name":"getTotalRawVotingPower","outputs":[{"internalType":"uint256","name":"","type":"uint256"}],"stateMutability":"view","type":"function"},{"inputs":[],"name":"globalCheckpoint","outputs":[],"stateMutability":"nonpayable","type":"function"},{"inputs":[{"internalType":"uint256","name":"_withdrawalWaitDuration","type":"uint256"}],"name":"initialize","outputs":[],"stateMutability":"nonpayable","type":"function"},{"inputs":[{"internalType":"uint256","name":"_amount","type":"uint256"},{"internalType":"address","name":"_delegate","type":"address"}],"name":"initiateWithdrawal","outputs":[{"internalType":"uint256","name":"","type":"uint256"}],"stateMutability":"nonpayable","type":"function"},{"inputs":[{"internalType":"address","name":"_user","type":"address"}],"name":"listPendingWithdrawals","outputs":[{"components":[{"internalType":"uint256","name":"id","type":"uint256"},{"internalType":"uint256","name":"withdrawableAt","type":"uint256"},{"internalType":"uint256","name":"amount","type":"uint256"},{"internalType":"address","name":"to","type":"address"},{"internalType":"address","name":"delegate","type":"address"}],"internalType":"struct DataTypes.PendingWithdrawal[]","name":"","type":"tuple[]"}],"stateMutability":"view","type":"function"},{"inputs":[],"name":"lpToken","outputs":[{"internalType":"contract IERC20","name":"","type":"address"}],"stateMutability":"view","type":"function"},{"inputs":[],"name":"owner","outputs":[{"internalType":"address","name":"","type":"address"}],"stateMutability":"view","type":"function"},{"inputs":[],"name":"rewardToken","outputs":[{"internalType":"contract IERC20","name":"","type":"address"}],"stateMutability":"view","type":"function"},{"inputs":[],"name":"rewardsEmissionEndTime","outputs":[{"internalType":"uint256","name":"","type":"uint256"}],"stateMutability":"view","type":"function"},{"inputs":[],"name":"rewardsEmissionRate","outputs":[{"internalType":"uint256","name":"","type":"uint256"}],"stateMutability":"view","type":"function"},{"inputs":[{"internalType":"uint256","name":"_duration","type":"uint256"}],"name":"setWithdrawalWaitDuration","outputs":[],"stateMutability":"nonpayable","type":"function"},{"inputs":[{"internalType":"address","name":"account","type":"address"}],"name":"stakedBalanceOf","outputs":[{"internalType":"uint256","name":"","type":"uint256"}],"stateMutability":"view","type":"function"},{"inputs":[{"internalType":"address","name":"rewardsFrom","type":"address"},{"internalType":"uint256","name":"amount","type":"uint256"},{"internalType":"uint256","name":"endTime","type":"uint256"}],"name":"startMining","outputs":[],"stateMutability":"nonpayable","type":"function"},{"inputs":[{"internalType":"address","name":"reimbursementTo","type":"address"}],"name":"stopMining","outputs":[],"stateMutability":"nonpayable","type":"function"},{"inputs":[],"name":"totalStaked","outputs":[{"internalType":"uint256","name":"","type":"uint256"}],"stateMutability":"view","type":"function"},{"inputs":[],"name":"totalSupply","outputs":[{"internalType":"uint256","name":"","type":"uint256"}],"stateMutability":"view","type":"function"},{"inputs":[{"internalType":"address","name":"_delegate","type":"address"},{"internalType":"uint256","name":"_amount","type":"uint256"}],"name":"undelegateVote","outputs":[],"stateMutability":"nonpayable","type":"function"},{"inputs":[{"internalType":"address","name":"account","type":"address"}],"name":"userCheckpoint","outputs":[],"stateMutability":"nonpayable","type":"function"},{"inputs":[{"internalType":"uint256","name":"withdrawalId","type":"uint256"}],"name":"withdraw","outputs":[],"stateMutability":"nonpayable","type":"function"}],"bytecode":"60e06040523480156200001157600080fd5b5060405162002c2b38038062002c2b833981016040819052620000349162000072565b6001600160a01b0392831660805242600855821660a0521660c052620000bc565b80516001600160a01b03811681146200006d57600080fd5b919050565b6000806000606084860312156200008857600080fd5b620000938462000055565b9250620000a36020850162000055565b9150620000b36040850162000055565b90509250925092565b60805160a05160c051612aeb62000140600039600081816102e00152818161065b0152610c90015260008181610448015281816114af015281816114f101528181611a090152611a8d01526000818161033b0152818161094001528181610982015281816110fd0152818161113f0152818161117c01526111be0152612aeb6000f3fe608060405234801561001057600080fd5b50600436106101cf5760003560e01c80638da5cb5b11610104578063cead0481116100a2578063e9314c7311610071578063e9314c731461041d578063f107089614610430578063f7c618c114610443578063fe4b84df1461046a57600080fd5b8063cead0481146103d1578063dc01f60d146103e4578063de1ec403146103f7578063e2fcf5501461040a57600080fd5b80639f1acf08116100de5780639f1acf0814610378578063b07b709b1461038b578063b6b55f251461039e578063c24ab3bb146103b157600080fd5b80638da5cb5b14610336578063926f73271461035d57806397a04d5a1461037057600080fd5b8063372500ab11610171578063544381271161014b57806354438127146102c85780635fcbd285146102db5780636e553f651461031a578063817b1cd21461032d57600080fd5b8063372500ab146102a45780634a62c9fb146102ac5780634ba9699e146102b557600080fd5b80631ac40e66116101ad5780631ac40e661461025f5780632e1a7d4d1461026957806331cc13ba1461027c578063344ff1d01461029c57600080fd5b806316765391146101d457806318160ddd1461021057806319ad0eba14610219575b600080fd5b6101fd6101e236600461270a565b6001600160a01b03166000908152600c602052604090205490565b6040519081526020015b60405180910390f35b6101fd60135481565b61022c61022736600461270a565b61047d565b60405161020791908151815260208083015190820152604080830151908201526060918201519181019190915260800190565b6102676104b9565b005b610267610277366004612725565b61052e565b61028f61028a36600461270a565b61079b565b604051610207919061273e565b6013546101fd565b6101fd610896565b6101fd600e5481565b6102676102c3366004612796565b610935565b6101fd6102d63660046127c9565b6109bf565b6103027f000000000000000000000000000000000000000000000000000000000000000081565b6040516001600160a01b039091168152602001610207565b6102676103283660046127c9565b610bde565b6101fd60065481565b6103027f000000000000000000000000000000000000000000000000000000000000000081565b61026761036b3660046127f5565b610dc9565b6101fd610dd8565b6101fd61038636600461270a565b610df1565b61026761039936600461270a565b610dfd565b6102676103ac366004612725565b610e98565b6103c46103bf36600461270a565b610ea5565b604051610207919061281f565b6102676103df36600461288f565b61100c565b6101fd6103f236600461270a565b611022565b6101fd6104053660046127f5565b6110d9565b6102676104183660046127f5565b6110e7565b61026761042b366004612725565b6110f2565b61026761043e36600461270a565b611171565b6103027f000000000000000000000000000000000000000000000000000000000000000081565b610267610478366004612725565b6111f4565b6104a86040518060800160405280600081526020016000815260200160008152602001600081525090565b6104b360018361130a565b92915050565b6006548015610527576000600854426104d291906128e1565b90506000816104df610dd8565b6104e991906128f4565b90506104f58184611418565b60076000828254610506919061290b565b92505081905550806009600082825461051f919061290b565b909155505050505b5042600855565b600081815260116020908152604091829020825160a0810184528154815260018201549281019290925260028101549282019290925260038201546001600160a01b03908116606083018190526004909301541660808201529033146105e65760405162461bcd60e51b815260206004820152602260248201527f6d61746368696e67207769746864726177616c20646f6573206e6f74206578696044820152611cdd60f21b60648201526084015b60405180910390fd5b428160200151111561063a5760405162461bcd60e51b815260206004820152601b60248201527f6e6f2076616c69642070656e64696e67207769746864726177616c000000000060448201526064016105dd565b6060810151604080830151905163a9059cbb60e01b81526001600160a01b037f0000000000000000000000000000000000000000000000000000000000000000169263a9059cbb926106a2926004016001600160a01b03929092168252602082015260400190565b6020604051808303816000875af11580156106c1573d6000803e3d6000fd5b505050506040513d601f19601f820116820180604052508101906106e5919061291e565b50600082815260116020908152604080832083815560018101849055600281018490556003810180546001600160a01b031990811690915560049091018054909116905560608401516001600160a01b031683526010909152902061074a908361146b565b5080606001516001600160a01b0316827f096793b0307a8bedd30923ee6c6a84d492646dd968c25a0c714296a68c74aceb836040015160405161078f91815260200190565b60405180910390a35050565b6001600160a01b03811660009081526005602052604081206060916107bf82611477565b90508067ffffffffffffffff8111156107da576107da612940565b60405190808252806020026020018201604052801561081f57816020015b60408051808201909152600080825260208201528152602001906001900390816107f85790505b50925060005b8181101561088e5760008061083a8584611482565b915091506040518060400160405280836001600160a01b031681526020018281525086848151811061086e5761086e612956565b6020026020010181905250505080806108869061296c565b915050610825565b505050919050565b60006108a133610dfd565b336000908152600b6020526040812054908190036108c157600091505090565b336000818152600b602052604080822091909155517f47cee97cb7acd717b3c0aa1435d004cd5b3c8c57d70dbceb4e4458bbd60e39d4906109059084815260200190565b60405180910390a2806009600082825461091f91906128e1565b9091555061092f905033826114a0565b91505090565b336001600160a01b037f000000000000000000000000000000000000000000000000000000000000000016146109af5760405163c55ddc9760e01b81523360048201526001600160a01b037f00000000000000000000000000000000000000000000000000000000000000001660248201526044016105dd565b6109ba8383836114dc565b505050565b6000806109cd60013361130a565b90508381602001511015610a235760405162461bcd60e51b815260206004820152601860248201527f6e6f7420656e6f75676820746f20756e64656c6567617465000000000000000060448201526064016105dd565b610a4c33858360200151610a3791906128e1565b60408401516060850151600193929190611573565b506001600160a01b03831615801590610a6e57506001600160a01b0383163314155b15610a7e57610a7e3384866116b7565b8360136000828254610a9091906128e1565b90915550610aa09050338561174c565b60006040518060a001604052806012548152602001600f5442610ac3919061290b565b815260208082018890523360408084018290526001600160a01b0389811660609586015285516000908152601185528281208751808255888701516001830155888501516002830155968801516003820180549185166001600160a01b031992831617905560808901516004909201805492909416911617909155918252601090925220919250610b5491906117de565b5060128054906000610b658361296c565b919050555080608001516001600160a01b031681606001516001600160a01b031682600001517f20849eb8a3d11461c2f45d1330d7cdfdcf0359148aaa26d84af32b9596e32b9484602001518560400151604051610bcd929190918252602082015260400190565b60405180910390a451949350505050565b6001600160a01b038116610c295760405162461bcd60e51b815260206004820152601260248201527106e6f2064656c65676174696f6e20746f20360741b60448201526064016105dd565b60008211610c795760405162461bcd60e51b815260206004820152601b60248201527f63616e6e6f74206465706f736974207a65726f205f616d6f756e74000000000060448201526064016105dd565b6040516323b872dd60e01b81526001600160a01b037f000000000000000000000000000000000000000000000000000000000000000016906323b872dd90610cc990339030908790600401612985565b6020604051808303816000875af1158015610ce8573d6000803e3d6000fd5b505050506040513d601f19601f82011682018060405250810190610d0c919061291e565b506000610d1a60013361130a565b9050610d3033848360200151610a37919061290b565b506001600160a01b03821615801590610d5257506001600160a01b0382163314155b15610d6257610d623383856117ea565b8260136000828254610d74919061290b565b90915550610d8490503384611865565b6040518381526001600160a01b0383169033907f5548c837ab068cf56a2c2479df0882a4922fd203edb7517321831d95078c5f629060200160405180910390a3505050565b610dd43383836117ea565b5050565b6000600e54421115610dea5750600090565b50600d5490565b60006104b382426110d9565b610e056104b9565b6007546001600160a01b0382166000908152600a6020526040902054610e4f90610e2f90836128e1565b6001600160a01b0384166000908152600c60205260409020545b906118ed565b6001600160a01b0383166000908152600b602052604081208054909190610e7790849061290b565b90915550506001600160a01b039091166000908152600a6020526040902055565b610ea28133610bde565b50565b6001600160a01b0381166000908152601060205260408120606091610ec982611916565b67ffffffffffffffff811115610ee157610ee1612940565b604051908082528060200260200182016040528015610f5657816020015b610f436040518060a0016040528060008152602001600081526020016000815260200160006001600160a01b0316815260200160006001600160a01b031681525090565b815260200190600190039081610eff5790505b50905060005b610f6583611916565b8110156110045760116000610f7a8584611920565b81526020808201929092526040908101600020815160a0810183528154815260018201549381019390935260028101549183019190915260038101546001600160a01b0390811660608401526004909101541660808201528251839083908110610fe657610fe6612956565b60200260200101819052508080610ffc9061296c565b915050610f5c565b509392505050565b6110173384836116b7565b6109ba3383836117ea565b600754600654600091901561106a5761105d6006546008544261104591906128e1565b61104d610dd8565b61105791906128f4565b90611418565b611067908261290b565b90505b6001600160a01b0383166000908152600a60205260409020546110af9061109190836128e1565b6001600160a01b0385166000908152600c6020526040902054610e49565b6001600160a01b0384166000908152600b60205260409020546110d2919061290b565b9392505050565b60006110d26001848461192c565b610dd43383836116b7565b336001600160a01b037f0000000000000000000000000000000000000000000000000000000000000000161461116c5760405163c55ddc9760e01b81523360048201526001600160a01b037f00000000000000000000000000000000000000000000000000000000000000001660248201526044016105dd565b600f55565b336001600160a01b037f000000000000000000000000000000000000000000000000000000000000000016146111eb5760405163c55ddc9760e01b81523360048201526001600160a01b037f00000000000000000000000000000000000000000000000000000000000000001660248201526044016105dd565b610ea2816119dd565b600054610100900460ff16158080156112145750600054600160ff909116105b8061122e5750303b15801561122e575060005460ff166001145b6112915760405162461bcd60e51b815260206004820152602e60248201527f496e697469616c697a61626c653a20636f6e747261637420697320616c72656160448201526d191e481a5b9a5d1a585b1a5e995960921b60648201526084016105dd565b6000805460ff1916600117905580156112b4576000805461ff0019166101001790555b600f8290556112c16104b9565b8015610dd4576000805461ff0019169055604051600181527f7f26b83ff96e1f2b6a682f133852f6798a09c465da95921460cefb38474024989060200160405180910390a15050565b6113356040518060800160405280600081526020016000815260200160008152602001600081525090565b6001600160a01b03821660009081526020848152604080832080548251818502810185019093528083529192909190849084015b828210156113c3578382906000526020600020906004020160405180608001604052908160008201548152602001600182015481526020016002820154815260200160038201548152505081526020019060010190611369565b50505050905080516000036113e2576113da611ae6565b9150506104b3565b80600182516113f191906128e1565b8151811061140157611401612956565b60200260200101519150506104b3565b5092915050565b60008160000361143b57604051630a0c22c760e01b815260040160405180910390fd5b8260000361144b575060006104b3565b600061145f670de0b6b3a7640000856128f4565b90506113da83826129a9565b60006110d28383611b42565b60006104b382611c35565b60008080806114918686611c40565b909450925050505b9250929050565b60006114d66001600160a01b037f0000000000000000000000000000000000000000000000000000000000000000168484611c6b565b50919050565b6114e46104b9565b6115196001600160a01b037f000000000000000000000000000000000000000000000000000000000000000016843085611cce565b61152342826128e1565b61152d90836129a9565b600d55600e81905560408051838152602081018390527f76554fac4477e8876b3de3af392cf374cf4e9de02ae78fbade2373107381fe50910160405180910390a1505050565b61159e6040518060800160405280600081526020016000815260200160008152602001600081525090565b6001600160a01b038516600090815260208781526040808320815160808101835242815292830188905290820186905260608201859052916115e0898961130a565b8051909150421480156115f35750825415155b156116585782548290849061160a906001906128e1565b8154811061161a5761161a612956565b9060005260206000209060040201600082015181600001556020820151816001015560408201518160020155606082015181600301559050506116ab565b6001600160a01b038816600090815260208a815260408083208054600181810183559185529383902086516004909502019384559185015191830191909155830151600282015560608301516003909101555b50979650505050505050565b6116c46001848484611cef565b6001600160a01b03831660009081526005602052604081206116e69084611ecc565b9050818103611717576001600160a01b03841660009081526005602052604090206117119084611ee1565b50611746565b6117448361172584846128e1565b6001600160a01b03871660009081526005602052604090209190611ef6565b505b50505050565b61175582610dfd565b6001600160a01b0382166000908152600c60205260408120805483929061177d9084906128e1565b92505081905550806006600082825461179691906128e1565b90915550506040518181526001600160a01b038316907f85082129d87b2fe11527cb1b3b7a520aeb5aa6913f88a3d8757fe40d1db02fdd906020015b60405180910390a25050565b60006110d28383611f0c565b6117f76001848484611f5b565b6001600160a01b0383166000908152600560205260408120819061181b908561212c565b9150915060008261182c5783611836565b611836848361290b565b6001600160a01b038716600090815260056020526040902090915061185c908683611ef6565b50505050505050565b61186e82610dfd565b8060066000828254611880919061290b565b90915550506001600160a01b0382166000908152600c6020526040812080548392906118ad90849061290b565b90915550506040518181526001600160a01b038316907febedb8b3c678666e7f36970bc8f57abf6d8fa2e828c0da91ea5b75bf68ed101a906020016117d2565b6000806118fa83856128f4565b905061190e670de0b6b3a7640000826129a9565b949350505050565b60006104b3825490565b60006110d28383612144565b6001600160a01b038216600090815260208481526040808320805482518185028101850190935280835284936119c893929190859084015b828210156119be578382906000526020600020906004020160405180608001604052908160008201548152602001600182015481526020016002820154815260200160038201548152505081526020019060010190611964565b505050508461216e565b9150506119d4816121b4565b95945050505050565b6119e56104b9565b6009546040516370a0823160e01b8152306004820152600091906001600160a01b037f000000000000000000000000000000000000000000000000000000000000000016906370a0823190602401602060405180830381865afa158015611a50573d6000803e3d6000fd5b505050506040513d601f19601f82011682018060405250810190611a7491906129cb565b611a7e91906128e1565b9050611ab46001600160a01b037f0000000000000000000000000000000000000000000000000000000000000000168383611c6b565b6000600e8190556040517fe5a0e15e63edb96a15ed99a9c2a3674e2e0bd1b10b65d0223cce19a6b54e7fb19190a15050565b611b116040518060800160405280600081526020016000815260200160008152602001600081525090565b60405180608001604052806000815260200160008152602001670de0b6b3a764000081526020016000815250905090565b60008181526001830160205260408120548015611c2b576000611b666001836128e1565b8554909150600090611b7a906001906128e1565b9050818114611bdf576000866000018281548110611b9a57611b9a612956565b9060005260206000200154905080876000018481548110611bbd57611bbd612956565b6000918252602080832090910192909255918252600188019052604090208390555b8554869080611bf057611bf06129e4565b6001900381819060005260206000200160009055905585600101600086815260200190815260200160002060009055600193505050506104b3565b60009150506104b3565b60006104b382611916565b60008080611c4e8585611920565b600081815260029690960160205260409095205494959350505050565b6040516001600160a01b0383166024820152604481018290526109ba90849063a9059cbb60e01b906064015b60408051601f198184030181529190526020810180516001600160e01b03166001600160e01b0319909316929092179091526121e0565b611746846323b872dd60e01b858585604051602401611c9793929190612985565b6001600160a01b038084166000908152600186016020908152604080832093861683529290522054811115611d785760405162461bcd60e51b815260206004820152602960248201527f7573657220686173206e6f742064656c65676174656420656e6f75676820746f6044820152682064656c656761746560b81b60648201526084016105dd565b6001600160a01b038216600090815260038501602052604081208054839290611da29084906128e1565b90915550506001600160a01b038316600090815260028501602052604081208054839290611dd19084906128e1565b90915550506001600160a01b038084166000908152600186016020908152604080832093861683529290529081208054839290611e0f9084906128e1565b9091555060009050611e21858561130a565b9050611e4e8482602001518360400151611e44888a6122b290919063ffffffff16565b8993929190611573565b506000611e5b868561130a565b9050611e888482602001518360400151611e7e888b6122b290919063ffffffff16565b8a93929190611573565b507fde5aa493a93d4351631c1991a0aeecfd52d6b51cf1b61f1a3c48f97e26808653858585604051611ebc93929190612985565b60405180910390a1505050505050565b60006110d2836001600160a01b0384166122e4565b60006110d2836001600160a01b038416612354565b600061190e846001600160a01b03851684612371565b6000818152600183016020526040812054611f53575081546001818101845560008481526020808220909301849055845484825282860190935260409020919091556104b3565b5060006104b3565b6000611f67858561130a565b6001600160a01b038516600090815260028701602090815260408083205490840151918401519394509192611f9b9161238e565b611fa591906128e1565b905082811015611ff75760405162461bcd60e51b815260206004820181905260248201527f696e73756666696369656e742062616c616e636520746f2064656c656761746560448201526064016105dd565b6001600160a01b03841660009081526003870160205260408120805485929061202190849061290b565b90915550506001600160a01b03851660009081526002870160205260408120805485929061205090849061290b565b90915550506001600160a01b03808616600090815260018801602090815260408083209388168352929052908120805485929061208e90849061290b565b9091555050602082015160408301516120ad918791611e7e8a846122b2565b5060006120ba878661130a565b90506120e785826020015183604001516120dd898c6122b290919063ffffffff16565b8b93929190611573565b507fff825f9424124effc5ce1d9f4803d58ede8a2bda4da2324810f74834715c4c5986868660405161211b93929190612985565b60405180910390a150505050505050565b6000808080611491866001600160a01b0387166123ad565b600082600001828154811061215b5761215b612956565b9060005260206000200154905092915050565b600061219b6040518060800160405280600081526020016000815260200160008152602001600081525090565b6121a98484600087516123e7565b915091509250929050565b600081606001516121d68360400151846020015161238e90919063ffffffff16565b6104b391906129fa565b6000612235826040518060400160405280602081526020017f5361666545524332303a206c6f772d6c6576656c2063616c6c206661696c6564815250856001600160a01b03166125429092919063ffffffff16565b8051909150156109ba5780806020019051810190612253919061291e565b6109ba5760405162461bcd60e51b815260206004820152602a60248201527f5361666545524332303a204552433230206f7065726174696f6e20646964206e6044820152691bdd081cdd58d8d9595960b21b60648201526084016105dd565b6001600160a01b0381166000908152600283016020908152604080832054600386019092528220546110d29190612a22565b60008181526002830160205260408120548015158061230857506123088484612551565b6110d25760405162461bcd60e51b815260206004820152601e60248201527f456e756d657261626c654d61703a206e6f6e6578697374656e74206b6579000060448201526064016105dd565b600081815260028301602052604081208190556110d2838361146b565b6000828152600284016020526040812082905561190e84846117de565b6000670de0b6b3a76400006123a383856128f4565b6110d291906129a9565b60008181526002830160205260408120548190806123dc576123cf8585612551565b9250600091506114999050565b600192509050611499565b60006124146040518060800160405280600081526020016000815260200160008152602001600081525090565b82841061242e576000612425611ae6565b91509150612539565b61243884846128e1565b60010361248657600086858151811061245357612453612956565b602002602001015190508581600001511115612478576000612473611ae6565b61247c565b6001815b9250925050612539565b60006002612494868661290b565b61249e91906129a9565b90506000876124ae6001846128e1565b815181106124be576124be612956565b6020026020010151905060008883815181106124dc576124dc612956565b60200260200101519050878260000151111580156124fa5750805188105b1561250d57506001935091506125399050565b8051881061252d57612521898985896123e7565b94509450505050612539565b612521898989866123e7565b94509492505050565b606061190e848460008561255d565b60006110d28383612638565b6060824710156125be5760405162461bcd60e51b815260206004820152602660248201527f416464726573733a20696e73756666696369656e742062616c616e636520666f6044820152651c8818d85b1b60d21b60648201526084016105dd565b600080866001600160a01b031685876040516125da9190612a66565b60006040518083038185875af1925050503d8060008114612617576040519150601f19603f3d011682016040523d82523d6000602084013e61261c565b606091505b509150915061262d87838387612650565b979650505050505050565b600081815260018301602052604081205415156110d2565b606083156126bf5782516000036126b8576001600160a01b0385163b6126b85760405162461bcd60e51b815260206004820152601d60248201527f416464726573733a2063616c6c20746f206e6f6e2d636f6e747261637400000060448201526064016105dd565b508161190e565b61190e83838151156126d45781518083602001fd5b8060405162461bcd60e51b81526004016105dd9190612a82565b80356001600160a01b038116811461270557600080fd5b919050565b60006020828403121561271c57600080fd5b6110d2826126ee565b60006020828403121561273757600080fd5b5035919050565b602080825282518282018190526000919060409081850190868401855b8281101561278957815180516001600160a01b0316855286015186850152928401929085019060010161275b565b5091979650505050505050565b6000806000606084860312156127ab57600080fd5b6127b4846126ee565b95602085013595506040909401359392505050565b600080604083850312156127dc57600080fd5b823591506127ec602084016126ee565b90509250929050565b6000806040838503121561280857600080fd5b612811836126ee565b946020939093013593505050565b602080825282518282018190526000919060409081850190868401855b8281101561278957815180518552868101518786015285810151868601526060808201516001600160a01b0390811691870191909152608091820151169085015260a0909301929085019060010161283c565b6000806000606084860312156128a457600080fd5b6128ad846126ee565b92506128bb602085016126ee565b9150604084013590509250925092565b634e487b7160e01b600052601160045260246000fd5b818103818111156104b3576104b36128cb565b80820281158282048414176104b3576104b36128cb565b808201808211156104b3576104b36128cb565b60006020828403121561293057600080fd5b815180151581146110d257600080fd5b634e487b7160e01b600052604160045260246000fd5b634e487b7160e01b600052603260045260246000fd5b60006001820161297e5761297e6128cb565b5060010190565b6001600160a01b039384168152919092166020820152604081019190915260600190565b6000826129c657634e487b7160e01b600052601260045260246000fd5b500490565b6000602082840312156129dd57600080fd5b5051919050565b634e487b7160e01b600052603160045260246000fd5b8082018281126000831280158216821582161715612a1a57612a1a6128cb565b505092915050565b8181036000831280158383131683831282161715611411576114116128cb565b60005b83811015612a5d578181015183820152602001612a45565b50506000910152565b60008251612a78818460208701612a42565b9190910192915050565b6020815260008251806020840152612aa1816040850160208701612a42565b601f01601f1916919091016040019291505056fea26469706673582212202bd430640ea3d820c9b948022dd8c0a325b008f88f2acb756885ae33736ce91d64736f6c63430008110033","bytecodeSha1":"272811b995d113f335a0e7a3f7cb6fa2431b1cf3","compiler":{"evm_version":"istanbul","optimizer":{"enabled":true,"runs":200},"version":"0.8.17+commit.8df45f5f"},"contractName":"LPVault","language":"Solidity","natspec":{"kind":"dev","methods":{"claimRewards()":{"notice":"claims rewards for caller"},"claimableRewards(address)":{"notice":"returns the amount of claimable rewards by `beneficiary`"},"globalCheckpoint()":{"details":"these functions will be called internally but can typically be called by anyone to update the internal tracking state of the contract"},"rewardsEmissionEndTime()":{"notice":"time when rewards emission ends"},"rewardsEmissionRate()":{"notice":"returns the number of rewards token that will be given per second for the contract This emission will be given to all stakers in the contract proportionally to their stake"},"stakedBalanceOf(address)":{"notice":"the amount of tokens staked by `account`"},"startMining(address,uint256,uint256)":{"notice":"Deposit `amount` of the reward token from `rewardsFrom` and enable rewards until `endTime`. Typically governanceOnly. `amount` is spread evenly over the time period."},"stopMining(address)":{"notice":"Stop liquidity mining early and reimburse leftover rewards to `reimbursementTo`. This may also be needed after the mining period has ended when we had `totalStaked() == 0` for a while, where no rewards accrue."},"totalStaked()":{"notice":"the total amount of tokens staked in the contract"}},"version":1},"opcodes":"PUSH1 0x80 PUSH1 0x40 MSTORE CALLVALUE DUP1 ISZERO PUSH2 0x10 JUMPI PUSH1 0x0 DUP1 REVERT JUMPDEST POP PUSH1 0x4 CALLDATASIZE LT PUSH2 0x1CF JUMPI PUSH1 0x0 CALLDATALOAD PUSH1 0xE0 SHR DUP1 PUSH4 0x8DA5CB5B GT PUSH2 0x104 JUMPI DUP1 PUSH4 0xCEAD0481 GT PUSH2 0xA2 JUMPI DUP1 PUSH4 0xE9314C73 GT PUSH2 0x71 JUMPI DUP1 PUSH4 0xE9314C73 EQ PUSH2 0x41D JUMPI DUP1 PUSH4 0xF1070896 EQ PUSH2 0x430 JUMPI DUP1 PUSH4 0xF7C618C1 EQ PUSH2 0x443 JUMPI DUP1 PUSH4 0xFE4B84DF EQ PUSH2 0x46A JUMPI PUSH1 0x0 DUP1 REVERT JUMPDEST DUP1 PUSH4 0xCEAD0481 EQ PUSH2 0x3D1 JUMPI DUP1 PUSH4 0xDC01F60D EQ PUSH2 0x3E4 JUMPI DUP1 PUSH4 0xDE1EC403 EQ PUSH2 0x3F7 JUMPI DUP1 PUSH4 0xE2FCF550 EQ PUSH2 0x40A JUMPI PUSH1 0x0 DUP1 REVERT JUMPDEST DUP1 PUSH4 0x9F1ACF08 GT PUSH2 0xDE JUMPI DUP1 PUSH4 0x9F1ACF08 EQ PUSH2 0x378 JUMPI DUP1 PUSH4 0xB07B709B EQ PUSH2 0x38B JUMPI DUP1 PUSH4 0xB6B55F25 EQ PUSH2 0x39E JUMPI DUP1 PUSH4 0xC24AB3BB EQ PUSH2 0x3B1 JUMPI PUSH1 0x0 DUP1 REVERT JUMPDEST DUP1 PUSH4 0x8DA5CB5B EQ PUSH2 0x336 JUMPI DUP1 PUSH4 0x926F7327 EQ PUSH2 0x35D JUMPI DUP1 PUSH4 0x97A04D5A EQ PUSH2 0x370 JUMPI PUSH1 0x0 DUP1 REVERT JUMPDEST DUP1 PUSH4 0x372500AB GT PUSH2 0x171 JUMPI DUP1 PUSH4 0x54438127 GT PUSH2 0x14B JUMPI DUP1 PUSH4 0x54438127 EQ PUSH2 0x2C8 JUMPI DUP1 PUSH4 0x5FCBD285 EQ PUSH2 0x2DB JUMPI DUP1 PUSH4 0x6E553F65 EQ PUSH2 0x31A JUMPI DUP1 PUSH4 0x817B1CD2 EQ PUSH2 0x32D JUMPI PUSH1 0x0 DUP1 REVERT JUMPDEST DUP1 PUSH4 0x372500AB EQ PUSH2 0x2A4 JUMPI DUP1 PUSH4 0x4A62C9FB EQ PUSH2 0x2AC JUMPI DUP1 PUSH4 0x4BA9699E EQ PUSH2 0x2B5 JUMPI PUSH1 0x0 DUP1 REVERT JUMPDEST DUP1 PUSH4 0x1AC40E66 GT PUSH2 0x1AD JUMPI DUP1 PUSH4 0x1AC40E66 EQ PUSH2 0x25F JUMPI DUP1 PUSH4 0x2E1A7D4D EQ PUSH2 0x269 JUMPI DUP1 PUSH4 0x31CC13BA EQ PUSH2 0x27C JUMPI DUP1 PUSH4 0x344FF1D0 EQ PUSH2 0x29C JUMPI PUSH1 0x0 DUP1 REVERT JUMPDEST DUP1 PUSH4 0x16765391 EQ PUSH2 0x1D4 JUMPI DUP1 PUSH4 0x18160DDD EQ PUSH2 0x210 JUMPI DUP1 PUSH4 0x19AD0EBA EQ PUSH2 0x219 JUMPI JUMPDEST PUSH1 0x0 DUP1 REVERT JUMPDEST PUSH2 0x1FD PUSH2 0x1E2 CALLDATASIZE PUSH1 0x4 PUSH2 0x270A JUMP JUMPDEST PUSH1 0x1 PUSH1 0x1 PUSH1 0xA0 SHL SUB AND PUSH1 0x0 SWAP1 DUP2 MSTORE PUSH1 0xC PUSH1 0x20 MSTORE PUSH1 0x40 SWAP1 KECCAK256 SLOAD SWAP1 JUMP JUMPDEST PUSH1 0x40 MLOAD SWAP1 DUP2 MSTORE PUSH1 0x20 ADD JUMPDEST PUSH1 0x40 MLOAD DUP1 SWAP2 SUB SWAP1 RETURN JUMPDEST PUSH2 0x1FD PUSH1 0x13 SLOAD DUP2 JUMP JUMPDEST PUSH2 0x22C PUSH2 0x227 CALLDATASIZE PUSH1 0x4 PUSH2 0x270A JUMP JUMPDEST PUSH2 0x47D JUMP JUMPDEST PUSH1 0x40 MLOAD PUSH2 0x207 SWAP2 SWAP1 DUP2 MLOAD DUP2 MSTORE PUSH1 0x20 DUP1 DUP4 ADD MLOAD SWAP1 DUP3 ADD MSTORE PUSH1 0x40 DUP1 DUP4 ADD MLOAD SWAP1 DUP3 ADD MSTORE PUSH1 0x60 SWAP2 DUP3 ADD MLOAD SWAP2 DUP2 ADD SWAP2 SWAP1 SWAP2 MSTORE PUSH1 0x80 ADD SWAP1 JUMP JUMPDEST PUSH2 0x267 PUSH2 0x4B9 JUMP JUMPDEST STOP JUMPDEST PUSH2 0x267 PUSH2 0x277 CALLDATASIZE PUSH1 0x4 PUSH2 0x2725 JUMP JUMPDEST PUSH2 0x52E JUMP JUMPDEST PUSH2 0x28F PUSH2 0x28A CALLDATASIZE PUSH1 0x4 PUSH2 0x270A JUMP JUMPDEST PUSH2 0x79B JUMP JUMPDEST PUSH1 0x40 MLOAD PUSH2 0x207 SWAP2 SWAP1 PUSH2 0x273E JUMP JUMPDEST PUSH1 0x13 SLOAD PUSH2 0x1FD JUMP JUMPDEST PUSH2 0x1FD PUSH2 0x896 JUMP JUMPDEST PUSH2 0x1FD PUSH1 0xE SLOAD DUP2 JUMP JUMPDEST PUSH2 0x267 PUSH2 0x2C3 CALLDATASIZE PUSH1 0x4 PUSH2 0x2796 JUMP JUMPDEST PUSH2 0x935 JUMP JUMPDEST PUSH2 0x1FD PUSH2 0x2D6 CALLDATASIZE PUSH1 0x4 PUSH2 0x27C9 JUMP JUMPDEST PUSH2 0x9BF JUMP JUMPDEST PUSH2 0x302 PUSH32 0x0 DUP2 JUMP JUMPDEST PUSH1 0x40 MLOAD PUSH1 0x1 PUSH1 0x1 PUSH1 0xA0 SHL SUB SWAP1 SWAP2 AND DUP2 MSTORE PUSH1 0x20 ADD PUSH2 0x207 JUMP JUMPDEST PUSH2 0x267 PUSH2 0x328 CALLDATASIZE PUSH1 0x4 PUSH2 0x27C9 JUMP JUMPDEST PUSH2 0xBDE JUMP JUMPDEST PUSH2 0x1FD PUSH1 0x6 SLOAD DUP2 JUMP JUMPDEST PUSH2 0x302 PUSH32 0x0 DUP2 JUMP JUMPDEST PUSH2 0x267 PUSH2 0x36B CALLDATASIZE PUSH1 0x4 PUSH2 0x27F5 JUMP JUMPDEST PUSH2 0xDC9 JUMP JUMPDEST PUSH2 0x1FD PUSH2 0xDD8 JUMP JUMPDEST PUSH2 0x1FD PUSH2 0x386 CALLDATASIZE PUSH1 0x4 PUSH2 0x270A JUMP JUMPDEST PUSH2 0xDF1 JUMP JUMPDEST PUSH2 0x267 PUSH2 0x399 CALLDATASIZE PUSH1 0x4 PUSH2 0x270A JUMP JUMPDEST PUSH2 0xDFD JUMP JUMPDEST PUSH2 0x267 PUSH2 0x3AC CALLDATASIZE PUSH1 0x4 PUSH2 0x2725 JUMP JUMPDEST PUSH2 0xE98 JUMP JUMPDEST PUSH2 0x3C4 PUSH2 0x3BF CALLDATASIZE PUSH1 0x4 PUSH2 0x270A JUMP JUMPDEST PUSH2 0xEA5 JUMP JUMPDEST PUSH1 0x40 MLOAD PUSH2 0x207 SWAP2 SWAP1 PUSH2 0x281F JUMP JUMPDEST PUSH2 0x267 PUSH2 0x3DF CALLDATASIZE PUSH1 0x4 PUSH2 0x288F JUMP JUMPDEST PUSH2 0x100C JUMP JUMPDEST PUSH2 0x1FD PUSH2 0x3F2 CALLDATASIZE PUSH1 0x4 PUSH2 0x270A JUMP JUMPDEST PUSH2 0x1022 JUMP JUMPDEST PUSH2 0x1FD PUSH2 0x405 CALLDATASIZE PUSH1 0x4 PUSH2 0x27F5 JUMP JUMPDEST PUSH2 0x10D9 JUMP JUMPDEST PUSH2 0x267 PUSH2 0x418 CALLDATASIZE PUSH1 0x4 PUSH2 0x27F5 JUMP JUMPDEST PUSH2 0x10E7 JUMP JUMPDEST PUSH2 0x267 PUSH2 0x42B CALLDATASIZE PUSH1 0x4 PUSH2 0x2725 JUMP JUMPDEST PUSH2 0x10F2 JUMP JUMPDEST PUSH2 0x267 PUSH2 0x43E CALLDATASIZE PUSH1 0x4 PUSH2 0x270A JUMP JUMPDEST PUSH2 0x1171 JUMP JUMPDEST PUSH2 0x302 PUSH32 0x0 DUP2 JUMP JUMPDEST PUSH2 0x267 PUSH2 0x478 CALLDATASIZE PUSH1 0x4 PUSH2 0x2725 JUMP JUMPDEST PUSH2 0x11F4 JUMP JUMPDEST PUSH2 0x4A8 PUSH1 0x40 MLOAD DUP1 PUSH1 0x80 ADD PUSH1 0x40 MSTORE DUP1 PUSH1 0x0 DUP2 MSTORE PUSH1 0x20 ADD PUSH1 0x0 DUP2 MSTORE PUSH1 0x20 ADD PUSH1 0x0 DUP2 MSTORE PUSH1 0x20 ADD PUSH1 0x0 DUP2 MSTORE POP SWAP1 JUMP JUMPDEST PUSH2 0x4B3 PUSH1 0x1 DUP4 PUSH2 0x130A JUMP JUMPDEST SWAP3 SWAP2 POP POP JUMP JUMPDEST PUSH1 0x6 SLOAD DUP1 ISZERO PUSH2 0x527 JUMPI PUSH1 0x0 PUSH1 0x8 SLOAD TIMESTAMP PUSH2 0x4D2 SWAP2 SWAP1 PUSH2 0x28E1 JUMP JUMPDEST SWAP1 POP PUSH1 0x0 DUP2 PUSH2 0x4DF PUSH2 0xDD8 JUMP JUMPDEST PUSH2 0x4E9 SWAP2 SWAP1 PUSH2 0x28F4 JUMP JUMPDEST SWAP1 POP PUSH2 0x4F5 DUP2 DUP5 PUSH2 0x1418 JUMP JUMPDEST PUSH1 0x7 PUSH1 0x0 DUP3 DUP3 SLOAD PUSH2 0x506 SWAP2 SWAP1 PUSH2 0x290B JUMP JUMPDEST SWAP3 POP POP DUP2 SWAP1 SSTORE POP DUP1 PUSH1 0x9 PUSH1 0x0 DUP3 DUP3 SLOAD PUSH2 0x51F SWAP2 SWAP1 PUSH2 0x290B JUMP JUMPDEST SWAP1 SWAP2 SSTORE POP POP POP POP JUMPDEST POP TIMESTAMP PUSH1 0x8 SSTORE JUMP JUMPDEST PUSH1 0x0 DUP2 DUP2 MSTORE PUSH1 0x11 PUSH1 0x20 SWAP1 DUP2 MSTORE PUSH1 0x40 SWAP2 DUP3 SWAP1 KECCAK256 DUP3 MLOAD PUSH1 0xA0 DUP2 ADD DUP5 MSTORE DUP2 SLOAD DUP2 MSTORE PUSH1 0x1 DUP3 ADD SLOAD SWAP3 DUP2 ADD SWAP3 SWAP1 SWAP3 MSTORE PUSH1 0x2 DUP2 ADD SLOAD SWAP3 DUP3 ADD SWAP3 SWAP1 SWAP3 MSTORE PUSH1 0x3 DUP3 ADD SLOAD PUSH1 0x1 PUSH1 0x1 PUSH1 0xA0 SHL SUB SWAP1 DUP2 AND PUSH1 0x60 DUP4 ADD DUP2 SWAP1 MSTORE PUSH1 0x4 SWAP1 SWAP4 ADD SLOAD AND PUSH1 0x80 DUP3 ADD MSTORE SWAP1 CALLER EQ PUSH2 0x5E6 JUMPI PUSH1 0x40 MLOAD PUSH3 0x461BCD PUSH1 0xE5 SHL DUP2 MSTORE PUSH1 0x20 PUSH1 0x4 DUP3 ADD MSTORE PUSH1 0x22 PUSH1 0x24 DUP3 ADD MSTORE PUSH32 0x6D61746368696E67207769746864726177616C20646F6573206E6F7420657869 PUSH1 0x44 DUP3 ADD MSTORE PUSH2 0x1CDD PUSH1 0xF2 SHL PUSH1 0x64 DUP3 ADD MSTORE PUSH1 0x84 ADD JUMPDEST PUSH1 0x40 MLOAD DUP1 SWAP2 SUB SWAP1 REVERT JUMPDEST TIMESTAMP DUP2 PUSH1 0x20 ADD MLOAD GT ISZERO PUSH2 0x63A JUMPI PUSH1 0x40 MLOAD PUSH3 0x461BCD PUSH1 0xE5 SHL DUP2 MSTORE PUSH1 0x20 PUSH1 0x4 DUP3 ADD MSTORE PUSH1 0x1B PUSH1 0x24 DUP3 ADD MSTORE PUSH32 0x6E6F2076616C69642070656E64696E67207769746864726177616C0000000000 PUSH1 0x44 DUP3 ADD MSTORE PUSH1 0x64 ADD PUSH2 0x5DD JUMP JUMPDEST PUSH1 0x60 DUP2 ADD MLOAD PUSH1 0x40 DUP1 DUP4 ADD MLOAD SWAP1 MLOAD PUSH4 0xA9059CBB PUSH1 0xE0 SHL DUP2 MSTORE PUSH1 0x1 PUSH1 0x1 PUSH1 0xA0 SHL SUB PUSH32 0x0 AND SWAP3 PUSH4 0xA9059CBB SWAP3 PUSH2 0x6A2 SWAP3 PUSH1 0x4 ADD PUSH1 0x1 PUSH1 0x1 PUSH1 0xA0 SHL SUB SWAP3 SWAP1 SWAP3 AND DUP3 MSTORE PUSH1 0x20 DUP3 ADD MSTORE PUSH1 0x40 ADD SWAP1 JUMP JUMPDEST PUSH1 0x20 PUSH1 0x40 MLOAD DUP1 DUP4 SUB DUP2 PUSH1 0x0 DUP8 GAS CALL ISZERO DUP1 ISZERO PUSH2 0x6C1 JUMPI RETURNDATASIZE PUSH1 0x0 DUP1 RETURNDATACOPY RETURNDATASIZE PUSH1 0x0 REVERT JUMPDEST POP POP POP POP PUSH1 0x40 MLOAD RETURNDATASIZE PUSH1 0x1F NOT PUSH1 0x1F DUP3 ADD AND DUP3 ADD DUP1 PUSH1 0x40 MSTORE POP DUP2 ADD SWAP1 PUSH2 0x6E5 SWAP2 SWAP1 PUSH2 0x291E JUMP JUMPDEST POP PUSH1 0x0 DUP3 DUP2 MSTORE PUSH1 0x11 PUSH1 0x20 SWAP1 DUP2 MSTORE PUSH1 0x40 DUP1 DUP4 KECCAK256 DUP4 DUP2 SSTORE PUSH1 0x1 DUP2 ADD DUP5 SWAP1 SSTORE PUSH1 0x2 DUP2 ADD DUP5 SWAP1 SSTORE PUSH1 0x3 DUP2 ADD DUP1 SLOAD PUSH1 0x1 PUSH1 0x1 PUSH1 0xA0 SHL SUB NOT SWAP1 DUP2 AND SWAP1 SWAP2 SSTORE PUSH1 0x4 SWAP1 SWAP2 ADD DUP1 SLOAD SWAP1 SWAP2 AND SWAP1 SSTORE PUSH1 0x60 DUP5 ADD MLOAD PUSH1 0x1 PUSH1 0x1 PUSH1 0xA0 SHL SUB AND DUP4 MSTORE PUSH1 0x10 SWAP1 SWAP2 MSTORE SWAP1 KECCAK256 PUSH2 0x74A SWAP1 DUP4 PUSH2 0x146B JUMP JUMPDEST POP DUP1 PUSH1 0x60 ADD MLOAD PUSH1 0x1 PUSH1 0x1 PUSH1 0xA0 SHL SUB AND DUP3 PUSH32 0x96793B0307A8BEDD30923EE6C6A84D492646DD968C25A0C714296A68C74ACEB DUP4 PUSH1 0x40 ADD MLOAD PUSH1 0x40 MLOAD PUSH2 0x78F SWAP2 DUP2 MSTORE PUSH1 0x20 ADD SWAP1 JUMP JUMPDEST PUSH1 0x40 MLOAD DUP1 SWAP2 SUB SWAP1 LOG3 POP POP JUMP JUMPDEST PUSH1 0x1 PUSH1 0x1 PUSH1 0xA0 SHL SUB DUP2 AND PUSH1 0x0 SWAP1 DUP2 MSTORE PUSH1 0x5 PUSH1 0x20 MSTORE PUSH1 0x40 DUP2 KECCAK256 PUSH1 0x60 SWAP2 PUSH2 0x7BF DUP3 PUSH2 0x1477 JUMP JUMPDEST SWAP1 POP DUP1 PUSH8 0xFFFFFFFFFFFFFFFF DUP2 GT ISZERO PUSH2 0x7DA JUMPI PUSH2 0x7DA PUSH2 0x2940 JUMP JUMPDEST PUSH1 0x40 MLOAD SWAP1 DUP1 DUP3 MSTORE DUP1 PUSH1 0x20 MUL PUSH1 0x20 ADD DUP3 ADD PUSH1 0x40 MSTORE DUP1 ISZERO PUSH2 0x81F JUMPI DUP2 PUSH1 0x20 ADD JUMPDEST PUSH1 0x40 DUP1 MLOAD DUP1 DUP3 ADD SWAP1 SWAP2 MSTORE PUSH1 0x0 DUP1 DUP3 MSTORE PUSH1 0x20 DUP3 ADD MSTORE DUP2 MSTORE PUSH1 0x20 ADD SWAP1 PUSH1 0x1 SWAP1 SUB SWAP1 DUP2 PUSH2 0x7F8 JUMPI SWAP1 POP JUMPDEST POP SWAP3 POP PUSH1 0x0 JUMPDEST DUP2 DUP2 LT ISZERO PUSH2 0x88E JUMPI PUSH1 0x0 DUP1 PUSH2 0x83A DUP6 DUP5 PUSH2 0x1482 JUMP JUMPDEST SWAP2 POP SWAP2 POP PUSH1 0x40 MLOAD DUP1 PUSH1 0x40 ADD PUSH1 0x40 MSTORE DUP1 DUP4 PUSH1 0x1 PUSH1 0x1 PUSH1 0xA0 SHL SUB AND DUP2 MSTORE PUSH1 0x20 ADD DUP3 DUP2 MSTORE POP DUP7 DUP5 DUP2 MLOAD DUP2 LT PUSH2 0x86E JUMPI PUSH2 0x86E PUSH2 0x2956 JUMP JUMPDEST PUSH1 0x20 MUL PUSH1 0x20 ADD ADD DUP2 SWAP1 MSTORE POP POP POP DUP1 DUP1 PUSH2 0x886 SWAP1 PUSH2 0x296C JUMP JUMPDEST SWAP2 POP POP PUSH2 0x825 JUMP JUMPDEST POP POP POP SWAP2 SWAP1 POP JUMP JUMPDEST PUSH1 0x0 PUSH2 0x8A1 CALLER PUSH2 0xDFD JUMP JUMPDEST CALLER PUSH1 0x0 SWAP1 DUP2 MSTORE PUSH1 0xB PUSH1 0x20 MSTORE PUSH1 0x40 DUP2 KECCAK256 SLOAD SWAP1 DUP2 SWAP1 SUB PUSH2 0x8C1 JUMPI PUSH1 0x0 SWAP2 POP POP SWAP1 JUMP JUMPDEST CALLER PUSH1 0x0 DUP2 DUP2 MSTORE PUSH1 0xB PUSH1 0x20 MSTORE PUSH1 0x40 DUP1 DUP3 KECCAK256 SWAP2 SWAP1 SWAP2 SSTORE MLOAD PUSH32 0x47CEE97CB7ACD717B3C0AA1435D004CD5B3C8C57D70DBCEB4E4458BBD60E39D4 SWAP1 PUSH2 0x905 SWAP1 DUP5 DUP2 MSTORE PUSH1 0x20 ADD SWAP1 JUMP JUMPDEST PUSH1 0x40 MLOAD DUP1 SWAP2 SUB SWAP1 LOG2 DUP1 PUSH1 0x9 PUSH1 0x0 DUP3 DUP3 SLOAD PUSH2 0x91F SWAP2 SWAP1 PUSH2 0x28E1 JUMP JUMPDEST SWAP1 SWAP2 SSTORE POP PUSH2 0x92F SWAP1 POP CALLER DUP3 PUSH2 0x14A0 JUMP JUMPDEST SWAP2 POP POP SWAP1 JUMP JUMPDEST CALLER PUSH1 0x1 PUSH1 0x1 PUSH1 0xA0 SHL SUB PUSH32 0x0 AND EQ PUSH2 0x9AF JUMPI PUSH1 0x40 MLOAD PUSH4 0xC55DDC97 PUSH1 0xE0 SHL DUP2 MSTORE CALLER PUSH1 0x4 DUP3 ADD MSTORE PUSH1 0x1 PUSH1 0x1 PUSH1 0xA0 SHL SUB PUSH32 0x0 AND PUSH1 0x24 DUP3 ADD MSTORE PUSH1 0x44 ADD PUSH2 0x5DD JUMP JUMPDEST PUSH2 0x9BA DUP4 DUP4 DUP4 PUSH2 0x14DC JUMP JUMPDEST POP POP POP JUMP JUMPDEST PUSH1 0x0 DUP1 PUSH2 0x9CD PUSH1 0x1 CALLER PUSH2 0x130A JUMP JUMPDEST SWAP1 POP DUP4 DUP2 PUSH1 0x20 ADD MLOAD LT ISZERO PUSH2 0xA23 JUMPI PUSH1 0x40 MLOAD PUSH3 0x461BCD PUSH1 0xE5 SHL DUP2 MSTORE PUSH1 0x20 PUSH1 0x4 DUP3 ADD MSTORE PUSH1 0x18 PUSH1 0x24 DUP3 ADD MSTORE PUSH32 0x6E6F7420656E6F75676820746F20756E64656C65676174650000000000000000 PUSH1 0x44 DUP3 ADD MSTORE PUSH1 0x64 ADD PUSH2 0x5DD JUMP JUMPDEST PUSH2 0xA4C CALLER DUP6 DUP4 PUSH1 0x20 ADD MLOAD PUSH2 0xA37 SWAP2 SWAP1 PUSH2 0x28E1 JUMP JUMPDEST PUSH1 0x40 DUP5 ADD MLOAD PUSH1 0x60 DUP6 ADD MLOAD PUSH1 0x1 SWAP4 SWAP3 SWAP2 SWAP1 PUSH2 0x1573 JUMP JUMPDEST POP PUSH1 0x1 PUSH1 0x1 PUSH1 0xA0 SHL SUB DUP4 AND ISZERO DUP1 ISZERO SWAP1 PUSH2 0xA6E JUMPI POP PUSH1 0x1 PUSH1 0x1 PUSH1 0xA0 SHL SUB DUP4 AND CALLER EQ ISZERO JUMPDEST ISZERO PUSH2 0xA7E JUMPI PUSH2 0xA7E CALLER DUP5 DUP7 PUSH2 0x16B7 JUMP JUMPDEST DUP4 PUSH1 0x13 PUSH1 0x0 DUP3 DUP3 SLOAD PUSH2 0xA90 SWAP2 SWAP1 PUSH2 0x28E1 JUMP JUMPDEST SWAP1 SWAP2 SSTORE POP PUSH2 0xAA0 SWAP1 POP CALLER DUP6 PUSH2 0x174C JUMP JUMPDEST PUSH1 0x0 PUSH1 0x40 MLOAD DUP1 PUSH1 0xA0 ADD PUSH1 0x40 MSTORE DUP1 PUSH1 0x12 SLOAD DUP2 MSTORE PUSH1 0x20 ADD PUSH1 0xF SLOAD TIMESTAMP PUSH2 0xAC3 SWAP2 SWAP1 PUSH2 0x290B JUMP JUMPDEST DUP2 MSTORE PUSH1 0x20 DUP1 DUP3 ADD DUP9 SWAP1 MSTORE CALLER PUSH1 0x40 DUP1 DUP5 ADD DUP3 SWAP1 MSTORE PUSH1 0x1 PUSH1 0x1 PUSH1 0xA0 SHL SUB DUP10 DUP2 AND PUSH1 0x60 SWAP6 DUP7 ADD MSTORE DUP6 MLOAD PUSH1 0x0 SWAP1 DUP2 MSTORE PUSH1 0x11 DUP6 MSTORE DUP3 DUP2 KECCAK256 DUP8 MLOAD DUP1 DUP3 SSTORE DUP9 DUP8 ADD MLOAD PUSH1 0x1 DUP4 ADD SSTORE DUP9 DUP6 ADD MLOAD PUSH1 0x2 DUP4 ADD SSTORE SWAP7 DUP9 ADD MLOAD PUSH1 0x3 DUP3 ADD DUP1 SLOAD SWAP2 DUP6 AND PUSH1 0x1 PUSH1 0x1 PUSH1 0xA0 SHL SUB NOT SWAP3 DUP4 AND OR SWAP1 SSTORE PUSH1 0x80 DUP10 ADD MLOAD PUSH1 0x4 SWAP1 SWAP3 ADD DUP1 SLOAD SWAP3 SWAP1 SWAP5 AND SWAP2 AND OR SWAP1 SWAP2 SSTORE SWAP2 DUP3 MSTORE PUSH1 0x10 SWAP1 SWAP3 MSTORE KECCAK256 SWAP2 SWAP3 POP PUSH2 0xB54 SWAP2 SWAP1 PUSH2 0x17DE JUMP JUMPDEST POP PUSH1 0x12 DUP1 SLOAD SWAP1 PUSH1 0x0 PUSH2 0xB65 DUP4 PUSH2 0x296C JUMP JUMPDEST SWAP2 SWAP1 POP SSTORE POP DUP1 PUSH1 0x80 ADD MLOAD PUSH1 0x1 PUSH1 0x1 PUSH1 0xA0 SHL SUB AND DUP2 PUSH1 0x60 ADD MLOAD PUSH1 0x1 PUSH1 0x1 PUSH1 0xA0 SHL SUB AND DUP3 PUSH1 0x0 ADD MLOAD PUSH32 0x20849EB8A3D11461C2F45D1330D7CDFDCF0359148AAA26D84AF32B9596E32B94 DUP5 PUSH1 0x20 ADD MLOAD DUP6 PUSH1 0x40 ADD MLOAD PUSH1 0x40 MLOAD PUSH2 0xBCD SWAP3 SWAP2 SWAP1 SWAP2 DUP3 MSTORE PUSH1 0x20 DUP3 ADD MSTORE PUSH1 0x40 ADD SWAP1 JUMP JUMPDEST PUSH1 0x40 MLOAD DUP1 SWAP2 SUB SWAP1 LOG4 MLOAD SWAP5 SWAP4 POP POP POP POP JUMP JUMPDEST PUSH1 0x1 PUSH1 0x1 PUSH1 0xA0 SHL SUB DUP2 AND PUSH2 0xC29 JUMPI PUSH1 0x40 MLOAD PUSH3 0x461BCD PUSH1 0xE5 SHL DUP2 MSTORE PUSH1 0x20 PUSH1 0x4 DUP3 ADD MSTORE PUSH1 0x12 PUSH1 0x24 DUP3 ADD MSTORE PUSH18 0x6E6F2064656C65676174696F6E20746F203 PUSH1 0x74 SHL PUSH1 0x44 DUP3 ADD MSTORE PUSH1 0x64 ADD PUSH2 0x5DD JUMP JUMPDEST PUSH1 0x0 DUP3 GT PUSH2 0xC79 JUMPI PUSH1 0x40 MLOAD PUSH3 0x461BCD PUSH1 0xE5 SHL DUP2 MSTORE PUSH1 0x20 PUSH1 0x4 DUP3 ADD MSTORE PUSH1 0x1B PUSH1 0x24 DUP3 ADD MSTORE PUSH32 0x63616E6E6F74206465706F736974207A65726F205F616D6F756E740000000000 PUSH1 0x44 DUP3 ADD MSTORE PUSH1 0x64 ADD PUSH2 0x5DD JUMP JUMPDEST PUSH1 0x40 MLOAD PUSH4 0x23B872DD PUSH1 0xE0 SHL DUP2 MSTORE PUSH1 0x1 PUSH1 0x1 PUSH1 0xA0 SHL SUB PUSH32 0x0 AND SWAP1 PUSH4 0x23B872DD SWAP1 PUSH2 0xCC9 SWAP1 CALLER SWAP1 ADDRESS SWAP1 DUP8 SWAP1 PUSH1 0x4 ADD PUSH2 0x2985 JUMP JUMPDEST PUSH1 0x20 PUSH1 0x40 MLOAD DUP1 DUP4 SUB DUP2 PUSH1 0x0 DUP8 GAS CALL ISZERO DUP1 ISZERO PUSH2 0xCE8 JUMPI RETURNDATASIZE PUSH1 0x0 DUP1 RETURNDATACOPY RETURNDATASIZE PUSH1 0x0 REVERT JUMPDEST POP POP POP POP PUSH1 0x40 MLOAD RETURNDATASIZE PUSH1 0x1F NOT PUSH1 0x1F DUP3 ADD AND DUP3 ADD DUP1 PUSH1 0x40 MSTORE POP DUP2 ADD SWAP1 PUSH2 0xD0C SWAP2 SWAP1 PUSH2 0x291E JUMP JUMPDEST POP PUSH1 0x0 PUSH2 0xD1A PUSH1 0x1 CALLER PUSH2 0x130A JUMP JUMPDEST SWAP1 POP PUSH2 0xD30 CALLER DUP5 DUP4 PUSH1 0x20 ADD MLOAD PUSH2 0xA37 SWAP2 SWAP1 PUSH2 0x290B JUMP JUMPDEST POP PUSH1 0x1 PUSH1 0x1 PUSH1 0xA0 SHL SUB DUP3 AND ISZERO DUP1 ISZERO SWAP1 PUSH2 0xD52 JUMPI POP PUSH1 0x1 PUSH1 0x1 PUSH1 0xA0 SHL SUB DUP3 AND CALLER EQ ISZERO JUMPDEST ISZERO PUSH2 0xD62 JUMPI PUSH2 0xD62 CALLER DUP4 DUP6 PUSH2 0x17EA JUMP JUMPDEST DUP3 PUSH1 0x13 PUSH1 0x0 DUP3 DUP3 SLOAD PUSH2 0xD74 SWAP2 SWAP1 PUSH2 0x290B JUMP JUMPDEST SWAP1 SWAP2 SSTORE POP PUSH2 0xD84 SWAP1 POP CALLER DUP5 PUSH2 0x1865 JUMP JUMPDEST PUSH1 0x40 MLOAD DUP4 DUP2 MSTORE PUSH1 0x1 PUSH1 0x1 PUSH1 0xA0 SHL SUB DUP4 AND SWAP1 CALLER SWAP1 PUSH32 0x5548C837AB068CF56A2C2479DF0882A4922FD203EDB7517321831D95078C5F62 SWAP1 PUSH1 0x20 ADD PUSH1 0x40 MLOAD DUP1 SWAP2 SUB SWAP1 LOG3 POP POP POP JUMP JUMPDEST PUSH2 0xDD4 CALLER DUP4 DUP4 PUSH2 0x17EA JUMP JUMPDEST POP POP JUMP JUMPDEST PUSH1 0x0 PUSH1 0xE SLOAD TIMESTAMP GT ISZERO PUSH2 0xDEA JUMPI POP PUSH1 0x0 SWAP1 JUMP JUMPDEST POP PUSH1 0xD SLOAD SWAP1 JUMP JUMPDEST PUSH1 0x0 PUSH2 0x4B3 DUP3 TIMESTAMP PUSH2 0x10D9 JUMP JUMPDEST PUSH2 0xE05 PUSH2 0x4B9 JUMP JUMPDEST PUSH1 0x7 SLOAD PUSH1 0x1 PUSH1 0x1 PUSH1 0xA0 SHL SUB DUP3 AND PUSH1 0x0 SWAP1 DUP2 MSTORE PUSH1 0xA PUSH1 0x20 MSTORE PUSH1 0x40 SWAP1 KECCAK256 SLOAD PUSH2 0xE4F SWAP1 PUSH2 0xE2F SWAP1 DUP4 PUSH2 0x28E1 JUMP JUMPDEST PUSH1 0x1 PUSH1 0x1 PUSH1 0xA0 SHL SUB DUP5 AND PUSH1 0x0 SWAP1 DUP2 MSTORE PUSH1 0xC PUSH1 0x20 MSTORE PUSH1 0x40 SWAP1 KECCAK256 SLOAD JUMPDEST SWAP1 PUSH2 0x18ED JUMP JUMPDEST PUSH1 0x1 PUSH1 0x1 PUSH1 0xA0 SHL SUB DUP4 AND PUSH1 0x0 SWAP1 DUP2 MSTORE PUSH1 0xB PUSH1 0x20 MSTORE PUSH1 0x40 DUP2 KECCAK256 DUP1 SLOAD SWAP1 SWAP2 SWAP1 PUSH2 0xE77 SWAP1 DUP5 SWAP1 PUSH2 0x290B JUMP JUMPDEST SWAP1 SWAP2 SSTORE POP POP PUSH1 0x1 PUSH1 0x1 PUSH1 0xA0 SHL SUB SWAP1 SWAP2 AND PUSH1 0x0 SWAP1 DUP2 MSTORE PUSH1 0xA PUSH1 0x20 MSTORE PUSH1 0x40 SWAP1 KECCAK256 SSTORE JUMP JUMPDEST PUSH2 0xEA2 DUP2 CALLER PUSH2 0xBDE JUMP JUMPDEST POP JUMP JUMPDEST PUSH1 0x1 PUSH1 0x1 PUSH1 0xA0 SHL SUB DUP2 AND PUSH1 0x0 SWAP1 DUP2 MSTORE PUSH1 0x10 PUSH1 0x20 MSTORE PUSH1 0x40 DUP2 KECCAK256 PUSH1 0x60 SWAP2 PUSH2 0xEC9 DUP3 PUSH2 0x1916 JUMP JUMPDEST PUSH8 0xFFFFFFFFFFFFFFFF DUP2 GT ISZERO PUSH2 0xEE1 JUMPI PUSH2 0xEE1 PUSH2 0x2940 JUMP JUMPDEST PUSH1 0x40 MLOAD SWAP1 DUP1 DUP3 MSTORE DUP1 PUSH1 0x20 MUL PUSH1 0x20 ADD DUP3 ADD PUSH1 0x40 MSTORE DUP1 ISZERO PUSH2 0xF56 JUMPI DUP2 PUSH1 0x20 ADD JUMPDEST PUSH2 0xF43 PUSH1 0x40 MLOAD DUP1 PUSH1 0xA0 ADD PUSH1 0x40 MSTORE DUP1 PUSH1 0x0 DUP2 MSTORE PUSH1 0x20 ADD PUSH1 0x0 DUP2 MSTORE PUSH1 0x20 ADD PUSH1 0x0 DUP2 MSTORE PUSH1 0x20 ADD PUSH1 0x0 PUSH1 0x1 PUSH1 0x1 PUSH1 0xA0 SHL SUB AND DUP2 MSTORE PUSH1 0x20 ADD PUSH1 0x0 PUSH1 0x1 PUSH1 0x1 PUSH1 0xA0 SHL SUB AND DUP2 MSTORE POP SWAP1 JUMP JUMPDEST DUP2 MSTORE PUSH1 0x20 ADD SWAP1 PUSH1 0x1 SWAP1 SUB SWAP1 DUP2 PUSH2 0xEFF JUMPI SWAP1 POP JUMPDEST POP SWAP1 POP PUSH1 0x0 JUMPDEST PUSH2 0xF65 DUP4 PUSH2 0x1916 JUMP JUMPDEST DUP2 LT ISZERO PUSH2 0x1004 JUMPI PUSH1 0x11 PUSH1 0x0 PUSH2 0xF7A DUP6 DUP5 PUSH2 0x1920 JUMP JUMPDEST DUP2 MSTORE PUSH1 0x20 DUP1 DUP3 ADD SWAP3 SWAP1 SWAP3 MSTORE PUSH1 0x40 SWAP1 DUP2 ADD PUSH1 0x0 KECCAK256 DUP2 MLOAD PUSH1 0xA0 DUP2 ADD DUP4 MSTORE DUP2 SLOAD DUP2 MSTORE PUSH1 0x1 DUP3 ADD SLOAD SWAP4 DUP2 ADD SWAP4 SWAP1 SWAP4 MSTORE PUSH1 0x2 DUP2 ADD SLOAD SWAP2 DUP4 ADD SWAP2 SWAP1 SWAP2 MSTORE PUSH1 0x3 DUP2 ADD SLOAD PUSH1 0x1 PUSH1 0x1 PUSH1 0xA0 SHL SUB SWAP1 DUP2 AND PUSH1 0x60 DUP5 ADD MSTORE PUSH1 0x4 SWAP1 SWAP2 ADD SLOAD AND PUSH1 0x80 DUP3 ADD MSTORE DUP3 MLOAD DUP4 SWAP1 DUP4 SWAP1 DUP2 LT PUSH2 0xFE6 JUMPI PUSH2 0xFE6 PUSH2 0x2956 JUMP JUMPDEST PUSH1 0x20 MUL PUSH1 0x20 ADD ADD DUP2 SWAP1 MSTORE POP DUP1 DUP1 PUSH2 0xFFC SWAP1 PUSH2 0x296C JUMP JUMPDEST SWAP2 POP POP PUSH2 0xF5C JUMP JUMPDEST POP SWAP4 SWAP3 POP POP POP JUMP JUMPDEST PUSH2 0x1017 CALLER DUP5 DUP4 PUSH2 0x16B7 JUMP JUMPDEST PUSH2 0x9BA CALLER DUP4 DUP4 PUSH2 0x17EA JUMP JUMPDEST PUSH1 0x7 SLOAD PUSH1 0x6 SLOAD PUSH1 0x0 SWAP2 SWAP1 ISZERO PUSH2 0x106A JUMPI PUSH2 0x105D PUSH1 0x6 SLOAD PUSH1 0x8 SLOAD TIMESTAMP PUSH2 0x1045 SWAP2 SWAP1 PUSH2 0x28E1 JUMP JUMPDEST PUSH2 0x104D PUSH2 0xDD8 JUMP JUMPDEST PUSH2 0x1057 SWAP2 SWAP1 PUSH2 0x28F4 JUMP JUMPDEST SWAP1 PUSH2 0x1418 JUMP JUMPDEST PUSH2 0x1067 SWAP1 DUP3 PUSH2 0x290B JUMP JUMPDEST SWAP1 POP JUMPDEST PUSH1 0x1 PUSH1 0x1 PUSH1 0xA0 SHL SUB DUP4 AND PUSH1 0x0 SWAP1 DUP2 MSTORE PUSH1 0xA PUSH1 0x20 MSTORE PUSH1 0x40 SWAP1 KECCAK256 SLOAD PUSH2 0x10AF SWAP1 PUSH2 0x1091 SWAP1 DUP4 PUSH2 0x28E1 JUMP JUMPDEST PUSH1 0x1 PUSH1 0x1 PUSH1 0xA0 SHL SUB DUP6 AND PUSH1 0x0 SWAP1 DUP2 MSTORE PUSH1 0xC PUSH1 0x20 MSTORE PUSH1 0x40 SWAP1 KECCAK256 SLOAD PUSH2 0xE49 JUMP JUMPDEST PUSH1 0x1 PUSH1 0x1 PUSH1 0xA0 SHL SUB DUP5 AND PUSH1 0x0 SWAP1 DUP2 MSTORE PUSH1 0xB PUSH1 0x20 MSTORE PUSH1 0x40 SWAP1 KECCAK256 SLOAD PUSH2 0x10D2 SWAP2 SWAP1 PUSH2 0x290B JUMP JUMPDEST SWAP4 SWAP3 POP POP POP JUMP JUMPDEST PUSH1 0x0 PUSH2 0x10D2 PUSH1 0x1 DUP5 DUP5 PUSH2 0x192C JUMP JUMPDEST PUSH2 0xDD4 CALLER DUP4 DUP4 PUSH2 0x16B7 JUMP JUMPDEST CALLER PUSH1 0x1 PUSH1 0x1 PUSH1 0xA0 SHL SUB PUSH32 0x0 AND EQ PUSH2 0x116C JUMPI PUSH1 0x40 MLOAD PUSH4 0xC55DDC97 PUSH1 0xE0 SHL DUP2 MSTORE CALLER PUSH1 0x4 DUP3 ADD MSTORE PUSH1 0x1 PUSH1 0x1 PUSH1 0xA0 SHL SUB PUSH32 0x0 AND PUSH1 0x24 DUP3 ADD MSTORE PUSH1 0x44 ADD PUSH2 0x5DD JUMP JUMPDEST PUSH1 0xF SSTORE JUMP JUMPDEST CALLER PUSH1 0x1 PUSH1 0x1 PUSH1 0xA0 SHL SUB PUSH32 0x0 AND EQ PUSH2 0x11EB JUMPI PUSH1 0x40 MLOAD PUSH4 0xC55DDC97 PUSH1 0xE0 SHL DUP2 MSTORE CALLER PUSH1 0x4 DUP3 ADD MSTORE PUSH1 0x1 PUSH1 0x1 PUSH1 0xA0 SHL SUB PUSH32 0x0 AND PUSH1 0x24 DUP3 ADD MSTORE PUSH1 0x44 ADD PUSH2 0x5DD JUMP JUMPDEST PUSH2 0xEA2 DUP2 PUSH2 0x19DD JUMP JUMPDEST PUSH1 0x0 SLOAD PUSH2 0x100 SWAP1 DIV PUSH1 0xFF AND ISZERO DUP1 DUP1 ISZERO PUSH2 0x1214 JUMPI POP PUSH1 0x0 SLOAD PUSH1 0x1 PUSH1 0xFF SWAP1 SWAP2 AND LT JUMPDEST DUP1 PUSH2 0x122E JUMPI POP ADDRESS EXTCODESIZE ISZERO DUP1 ISZERO PUSH2 0x122E JUMPI POP PUSH1 0x0 SLOAD PUSH1 0xFF AND PUSH1 0x1 EQ JUMPDEST PUSH2 0x1291 JUMPI PUSH1 0x40 MLOAD PUSH3 0x461BCD PUSH1 0xE5 SHL DUP2 MSTORE PUSH1 0x20 PUSH1 0x4 DUP3 ADD MSTORE PUSH1 0x2E PUSH1 0x24 DUP3 ADD MSTORE PUSH32 0x496E697469616C697A61626C653A20636F6E747261637420697320616C726561 PUSH1 0x44 DUP3 ADD MSTORE PUSH14 0x191E481A5B9A5D1A585B1A5E9959 PUSH1 0x92 SHL PUSH1 0x64 DUP3 ADD MSTORE PUSH1 0x84 ADD PUSH2 0x5DD JUMP JUMPDEST PUSH1 0x0 DUP1 SLOAD PUSH1 0xFF NOT AND PUSH1 0x1 OR SWAP1 SSTORE DUP1 ISZERO PUSH2 0x12B4 JUMPI PUSH1 0x0 DUP1 SLOAD PUSH2 0xFF00 NOT AND PUSH2 0x100 OR SWAP1 SSTORE JUMPDEST PUSH1 0xF DUP3 SWAP1 SSTORE PUSH2 0x12C1 PUSH2 0x4B9 JUMP JUMPDEST DUP1 ISZERO PUSH2 0xDD4 JUMPI PUSH1 0x0 DUP1 SLOAD PUSH2 0xFF00 NOT AND SWAP1 SSTORE PUSH1 0x40 MLOAD PUSH1 0x1 DUP2 MSTORE PUSH32 0x7F26B83FF96E1F2B6A682F133852F6798A09C465DA95921460CEFB3847402498 SWAP1 PUSH1 0x20 ADD PUSH1 0x40 MLOAD DUP1 SWAP2 SUB SWAP1 LOG1 POP POP JUMP JUMPDEST PUSH2 0x1335 PUSH1 0x40 MLOAD DUP1 PUSH1 0x80 ADD PUSH1 0x40 MSTORE DUP1 PUSH1 0x0 DUP2 MSTORE PUSH1 0x20 ADD PUSH1 0x0 DUP2 MSTORE PUSH1 0x20 ADD PUSH1 0x0 DUP2 MSTORE PUSH1 0x20 ADD PUSH1 0x0 DUP2 MSTORE POP SWAP1 JUMP JUMPDEST PUSH1 0x1 PUSH1 0x1 PUSH1 0xA0 SHL SUB DUP3 AND PUSH1 0x0 SWAP1 DUP2 MSTORE PUSH1 0x20 DUP5 DUP2 MSTORE PUSH1 0x40 DUP1 DUP4 KECCAK256 DUP1 SLOAD DUP3 MLOAD DUP2 DUP6 MUL DUP2 ADD DUP6 ADD SWAP1 SWAP4 MSTORE DUP1 DUP4 MSTORE SWAP2 SWAP3 SWAP1 SWAP2 SWAP1 DUP5 SWAP1 DUP5 ADD JUMPDEST DUP3 DUP3 LT ISZERO PUSH2 0x13C3 JUMPI DUP4 DUP3 SWAP1 PUSH1 0x0 MSTORE PUSH1 0x20 PUSH1 0x0 KECCAK256 SWAP1 PUSH1 0x4 MUL ADD PUSH1 0x40 MLOAD DUP1 PUSH1 0x80 ADD PUSH1 0x40 MSTORE SWAP1 DUP2 PUSH1 0x0 DUP3 ADD SLOAD DUP2 MSTORE PUSH1 0x20 ADD PUSH1 0x1 DUP3 ADD SLOAD DUP2 MSTORE PUSH1 0x20 ADD PUSH1 0x2 DUP3 ADD SLOAD DUP2 MSTORE PUSH1 0x20 ADD PUSH1 0x3 DUP3 ADD SLOAD DUP2 MSTORE POP POP DUP2 MSTORE PUSH1 0x20 ADD SWAP1 PUSH1 0x1 ADD SWAP1 PUSH2 0x1369 JUMP JUMPDEST POP POP POP POP SWAP1 POP DUP1 MLOAD PUSH1 0x0 SUB PUSH2 0x13E2 JUMPI PUSH2 0x13DA PUSH2 0x1AE6 JUMP JUMPDEST SWAP2 POP POP PUSH2 0x4B3 JUMP JUMPDEST DUP1 PUSH1 0x1 DUP3 MLOAD PUSH2 0x13F1 SWAP2 SWAP1 PUSH2 0x28E1 JUMP JUMPDEST DUP2 MLOAD DUP2 LT PUSH2 0x1401 JUMPI PUSH2 0x1401 PUSH2 0x2956 JUMP JUMPDEST PUSH1 0x20 MUL PUSH1 0x20 ADD ADD MLOAD SWAP2 POP POP PUSH2 0x4B3 JUMP JUMPDEST POP SWAP3 SWAP2 POP POP JUMP JUMPDEST PUSH1 0x0 DUP2 PUSH1 0x0 SUB PUSH2 0x143B JUMPI PUSH1 0x40 MLOAD PUSH4 0xA0C22C7 PUSH1 0xE0 SHL DUP2 MSTORE PUSH1 0x4 ADD PUSH1 0x40 MLOAD DUP1 SWAP2 SUB SWAP1 REVERT JUMPDEST DUP3 PUSH1 0x0 SUB PUSH2 0x144B JUMPI POP PUSH1 0x0 PUSH2 0x4B3 JUMP JUMPDEST PUSH1 0x0 PUSH2 0x145F PUSH8 0xDE0B6B3A7640000 DUP6 PUSH2 0x28F4 JUMP JUMPDEST SWAP1 POP PUSH2 0x13DA DUP4 DUP3 PUSH2 0x29A9 JUMP JUMPDEST PUSH1 0x0 PUSH2 0x10D2 DUP4 DUP4 PUSH2 0x1B42 JUMP JUMPDEST PUSH1 0x0 PUSH2 0x4B3 DUP3 PUSH2 0x1C35 JUMP JUMPDEST PUSH1 0x0 DUP1 DUP1 DUP1 PUSH2 0x1491 DUP7 DUP7 PUSH2 0x1C40 JUMP JUMPDEST SWAP1 SWAP5 POP SWAP3 POP POP POP JUMPDEST SWAP3 POP SWAP3 SWAP1 POP JUMP JUMPDEST PUSH1 0x0 PUSH2 0x14D6 PUSH1 0x1 PUSH1 0x1 PUSH1 0xA0 SHL SUB PUSH32 0x0 AND DUP5 DUP5 PUSH2 0x1C6B JUMP JUMPDEST POP SWAP2 SWAP1 POP JUMP JUMPDEST PUSH2 0x14E4 PUSH2 0x4B9 JUMP JUMPDEST PUSH2 0x1519 PUSH1 0x1 PUSH1 0x1 PUSH1 0xA0 SHL SUB PUSH32 0x0 AND DUP5 ADDRESS DUP6 PUSH2 0x1CCE JUMP JUMPDEST PUSH2 0x1523 TIMESTAMP DUP3 PUSH2 0x28E1 JUMP JUMPDEST PUSH2 0x152D SWAP1 DUP4 PUSH2 0x29A9 JUMP JUMPDEST PUSH1 0xD SSTORE PUSH1 0xE DUP2 SWAP1 SSTORE PUSH1 0x40 DUP1 MLOAD DUP4 DUP2 MSTORE PUSH1 0x20 DUP2 ADD DUP4 SWAP1 MSTORE PUSH32 0x76554FAC4477E8876B3DE3AF392CF374CF4E9DE02AE78FBADE2373107381FE50 SWAP2 ADD PUSH1 0x40 MLOAD DUP1 SWAP2 SUB SWAP1 LOG1 POP POP POP JUMP JUMPDEST PUSH2 0x159E PUSH1 0x40 MLOAD DUP1 PUSH1 0x80 ADD PUSH1 0x40 MSTORE DUP1 PUSH1 0x0 DUP2 MSTORE PUSH1 0x20 ADD PUSH1 0x0 DUP2 MSTORE PUSH1 0x20 ADD PUSH1 0x0 DUP2 MSTORE PUSH1 0x20 ADD PUSH1 0x0 DUP2 MSTORE POP SWAP1 JUMP JUMPDEST PUSH1 0x1 PUSH1 0x1 PUSH1 0xA0 SHL SUB DUP6 AND PUSH1 0x0 SWAP1 DUP2 MSTORE PUSH1 0x20 DUP8 DUP2 MSTORE PUSH1 0x40 DUP1 DUP4 KECCAK256 DUP2 MLOAD PUSH1 0x80 DUP2 ADD DUP4 MSTORE TIMESTAMP DUP2 MSTORE SWAP3 DUP4 ADD DUP9 SWAP1 MSTORE SWAP1 DUP3 ADD DUP7 SWAP1 MSTORE PUSH1 0x60 DUP3 ADD DUP6 SWAP1 MSTORE SWAP2 PUSH2 0x15E0 DUP10 DUP10 PUSH2 0x130A JUMP JUMPDEST DUP1 MLOAD SWAP1 SWAP2 POP TIMESTAMP EQ DUP1 ISZERO PUSH2 0x15F3 JUMPI POP DUP3 SLOAD ISZERO ISZERO JUMPDEST ISZERO PUSH2 0x1658 JUMPI DUP3 SLOAD DUP3 SWAP1 DUP5 SWAP1 PUSH2 0x160A SWAP1 PUSH1 0x1 SWAP1 PUSH2 0x28E1 JUMP JUMPDEST DUP2 SLOAD DUP2 LT PUSH2 0x161A JUMPI PUSH2 0x161A PUSH2 0x2956 JUMP JUMPDEST SWAP1 PUSH1 0x0 MSTORE PUSH1 0x20 PUSH1 0x0 KECCAK256 SWAP1 PUSH1 0x4 MUL ADD PUSH1 0x0 DUP3 ADD MLOAD DUP2 PUSH1 0x0 ADD SSTORE PUSH1 0x20 DUP3 ADD MLOAD DUP2 PUSH1 0x1 ADD SSTORE PUSH1 0x40 DUP3 ADD MLOAD DUP2 PUSH1 0x2 ADD SSTORE PUSH1 0x60 DUP3 ADD MLOAD DUP2 PUSH1 0x3 ADD SSTORE SWAP1 POP POP PUSH2 0x16AB JUMP JUMPDEST PUSH1 0x1 PUSH1 0x1 PUSH1 0xA0 SHL SUB DUP9 AND PUSH1 0x0 SWAP1 DUP2 MSTORE PUSH1 0x20 DUP11 DUP2 MSTORE PUSH1 0x40 DUP1 DUP4 KECCAK256 DUP1 SLOAD PUSH1 0x1 DUP2 DUP2 ADD DUP4 SSTORE SWAP2 DUP6 MSTORE SWAP4 DUP4 SWAP1 KECCAK256 DUP7 MLOAD PUSH1 0x4 SWAP1 SWAP6 MUL ADD SWAP4 DUP5 SSTORE SWAP2 DUP6 ADD MLOAD SWAP2 DUP4 ADD SWAP2 SWAP1 SWAP2 SSTORE DUP4 ADD MLOAD PUSH1 0x2 DUP3 ADD SSTORE PUSH1 0x60 DUP4 ADD MLOAD PUSH1 0x3 SWAP1 SWAP2 ADD SSTORE JUMPDEST POP SWAP8 SWAP7 POP POP POP POP POP POP POP JUMP JUMPDEST PUSH2 0x16C4 PUSH1 0x1 DUP5 DUP5 DUP5 PUSH2 0x1CEF JUMP JUMPDEST PUSH1 0x1 PUSH1 0x1 PUSH1 0xA0 SHL SUB DUP4 AND PUSH1 0x0 SWAP1 DUP2 MSTORE PUSH1 0x5 PUSH1 0x20 MSTORE PUSH1 0x40 DUP2 KECCAK256 PUSH2 0x16E6 SWAP1 DUP5 PUSH2 0x1ECC JUMP JUMPDEST SWAP1 POP DUP2 DUP2 SUB PUSH2 0x1717 JUMPI PUSH1 0x1 PUSH1 0x1 PUSH1 0xA0 SHL SUB DUP5 AND PUSH1 0x0 SWAP1 DUP2 MSTORE PUSH1 0x5 PUSH1 0x20 MSTORE PUSH1 0x40 SWAP1 KECCAK256 PUSH2 0x1711 SWAP1 DUP5 PUSH2 0x1EE1 JUMP JUMPDEST POP PUSH2 0x1746 JUMP JUMPDEST PUSH2 0x1744 DUP4 PUSH2 0x1725 DUP5 DUP5 PUSH2 0x28E1 JUMP JUMPDEST PUSH1 0x1 PUSH1 0x1 PUSH1 0xA0 SHL SUB DUP8 AND PUSH1 0x0 SWAP1 DUP2 MSTORE PUSH1 0x5 PUSH1 0x20 MSTORE PUSH1 0x40 SWAP1 KECCAK256 SWAP2 SWAP1 PUSH2 0x1EF6 JUMP JUMPDEST POP JUMPDEST POP POP POP POP JUMP JUMPDEST PUSH2 0x1755 DUP3 PUSH2 0xDFD JUMP JUMPDEST PUSH1 0x1 PUSH1 0x1 PUSH1 0xA0 SHL SUB DUP3 AND PUSH1 0x0 SWAP1 DUP2 MSTORE PUSH1 0xC PUSH1 0x20 MSTORE PUSH1 0x40 DUP2 KECCAK256 DUP1 SLOAD DUP4 SWAP3 SWAP1 PUSH2 0x177D SWAP1 DUP5 SWAP1 PUSH2 0x28E1 JUMP JUMPDEST SWAP3 POP POP DUP2 SWAP1 SSTORE POP DUP1 PUSH1 0x6 PUSH1 0x0 DUP3 DUP3 SLOAD PUSH2 0x1796 SWAP2 SWAP1 PUSH2 0x28E1 JUMP JUMPDEST SWAP1 SWAP2 SSTORE POP POP PUSH1 0x40 MLOAD DUP2 DUP2 MSTORE PUSH1 0x1 PUSH1 0x1 PUSH1 0xA0 SHL SUB DUP4 AND SWAP1 PUSH32 0x85082129D87B2FE11527CB1B3B7A520AEB5AA6913F88A3D8757FE40D1DB02FDD SWAP1 PUSH1 0x20 ADD JUMPDEST PUSH1 0x40 MLOAD DUP1 SWAP2 SUB SWAP1 LOG2 POP POP JUMP JUMPDEST PUSH1 0x0 PUSH2 0x10D2 DUP4 DUP4 PUSH2 0x1F0C JUMP JUMPDEST PUSH2 0x17F7 PUSH1 0x1 DUP5 DUP5 DUP5 PUSH2 0x1F5B JUMP JUMPDEST PUSH1 0x1 PUSH1 0x1 PUSH1 0xA0 SHL SUB DUP4 AND PUSH1 0x0 SWAP1 DUP2 MSTORE PUSH1 0x5 PUSH1 0x20 MSTORE PUSH1 0x40 DUP2 KECCAK256 DUP2 SWAP1 PUSH2 0x181B SWAP1 DUP6 PUSH2 0x212C JUMP JUMPDEST SWAP2 POP SWAP2 POP PUSH1 0x0 DUP3 PUSH2 0x182C JUMPI DUP4 PUSH2 0x1836 JUMP JUMPDEST PUSH2 0x1836 DUP5 DUP4 PUSH2 0x290B JUMP JUMPDEST PUSH1 0x1 PUSH1 0x1 PUSH1 0xA0 SHL SUB DUP8 AND PUSH1 0x0 SWAP1 DUP2 MSTORE PUSH1 0x5 PUSH1 0x20 MSTORE PUSH1 0x40 SWAP1 KECCAK256 SWAP1 SWAP2 POP PUSH2 0x185C SWAP1 DUP7 DUP4 PUSH2 0x1EF6 JUMP JUMPDEST POP POP POP POP POP POP POP JUMP JUMPDEST PUSH2 0x186E DUP3 PUSH2 0xDFD JUMP JUMPDEST DUP1 PUSH1 0x6 PUSH1 0x0 DUP3 DUP3 SLOAD PUSH2 0x1880 SWAP2 SWAP1 PUSH2 0x290B JUMP JUMPDEST SWAP1 SWAP2 SSTORE POP POP PUSH1 0x1 PUSH1 0x1 PUSH1 0xA0 SHL SUB DUP3 AND PUSH1 0x0 SWAP1 DUP2 MSTORE PUSH1 0xC PUSH1 0x20 MSTORE PUSH1 0x40 DUP2 KECCAK256 DUP1 SLOAD DUP4 SWAP3 SWAP1 PUSH2 0x18AD SWAP1 DUP5 SWAP1 PUSH2 0x290B JUMP JUMPDEST SWAP1 SWAP2 SSTORE POP POP PUSH1 0x40 MLOAD DUP2 DUP2 MSTORE PUSH1 0x1 PUSH1 0x1 PUSH1 0xA0 SHL SUB DUP4 AND SWAP1 PUSH32 0xEBEDB8B3C678666E7F36970BC8F57ABF6D8FA2E828C0DA91EA5B75BF68ED101A SWAP1 PUSH1 0x20 ADD PUSH2 0x17D2 JUMP JUMPDEST PUSH1 0x0 DUP1 PUSH2 0x18FA DUP4 DUP6 PUSH2 0x28F4 JUMP JUMPDEST SWAP1 POP PUSH2 0x190E PUSH8 0xDE0B6B3A7640000 DUP3 PUSH2 0x29A9 JUMP JUMPDEST SWAP5 SWAP4 POP POP POP POP JUMP JUMPDEST PUSH1 0x0 PUSH2 0x4B3 DUP3 SLOAD SWAP1 JUMP JUMPDEST PUSH1 0x0 PUSH2 0x10D2 DUP4 DUP4 PUSH2 0x2144 JUMP JUMPDEST PUSH1 0x1 PUSH1 0x1 PUSH1 0xA0 SHL SUB DUP3 AND PUSH1 0x0 SWAP1 DUP2 MSTORE PUSH1 0x20 DUP5 DUP2 MSTORE PUSH1 0x40 DUP1 DUP4 KECCAK256 DUP1 SLOAD DUP3 MLOAD DUP2 DUP6 MUL DUP2 ADD DUP6 ADD SWAP1 SWAP4 MSTORE DUP1 DUP4 MSTORE DUP5 SWAP4 PUSH2 0x19C8 SWAP4 SWAP3 SWAP2 SWAP1 DUP6 SWAP1 DUP5 ADD JUMPDEST DUP3 DUP3 LT ISZERO PUSH2 0x19BE JUMPI DUP4 DUP3 SWAP1 PUSH1 0x0 MSTORE PUSH1 0x20 PUSH1 0x0 KECCAK256 SWAP1 PUSH1 0x4 MUL ADD PUSH1 0x40 MLOAD DUP1 PUSH1 0x80 ADD PUSH1 0x40 MSTORE SWAP1 DUP2 PUSH1 0x0 DUP3 ADD SLOAD DUP2 MSTORE PUSH1 0x20 ADD PUSH1 0x1 DUP3 ADD SLOAD DUP2 MSTORE PUSH1 0x20 ADD PUSH1 0x2 DUP3 ADD SLOAD DUP2 MSTORE PUSH1 0x20 ADD PUSH1 0x3 DUP3 ADD SLOAD DUP2 MSTORE POP POP DUP2 MSTORE PUSH1 0x20 ADD SWAP1 PUSH1 0x1 ADD SWAP1 PUSH2 0x1964 JUMP JUMPDEST POP POP POP POP DUP5 PUSH2 0x216E JUMP JUMPDEST SWAP2 POP POP PUSH2 0x19D4 DUP2 PUSH2 0x21B4 JUMP JUMPDEST SWAP6 SWAP5 POP POP POP POP POP JUMP JUMPDEST PUSH2 0x19E5 PUSH2 0x4B9 JUMP JUMPDEST PUSH1 0x9 SLOAD PUSH1 0x40 MLOAD PUSH4 0x70A08231 PUSH1 0xE0 SHL DUP2 MSTORE ADDRESS PUSH1 0x4 DUP3 ADD MSTORE PUSH1 0x0 SWAP2 SWAP1 PUSH1 0x1 PUSH1 0x1 PUSH1 0xA0 SHL SUB PUSH32 0x0 AND SWAP1 PUSH4 0x70A08231 SWAP1 PUSH1 0x24 ADD PUSH1 0x20 PUSH1 0x40 MLOAD DUP1 DUP4 SUB DUP2 DUP7 GAS STATICCALL ISZERO DUP1 ISZERO PUSH2 0x1A50 JUMPI RETURNDATASIZE PUSH1 0x0 DUP1 RETURNDATACOPY RETURNDATASIZE PUSH1 0x0 REVERT JUMPDEST POP POP POP POP PUSH1 0x40 MLOAD RETURNDATASIZE PUSH1 0x1F NOT PUSH1 0x1F DUP3 ADD AND DUP3 ADD DUP1 PUSH1 0x40 MSTORE POP DUP2 ADD SWAP1 PUSH2 0x1A74 SWAP2 SWAP1 PUSH2 0x29CB JUMP JUMPDEST PUSH2 0x1A7E SWAP2 SWAP1 PUSH2 0x28E1 JUMP JUMPDEST SWAP1 POP PUSH2 0x1AB4 PUSH1 0x1 PUSH1 0x1 PUSH1 0xA0 SHL SUB PUSH32 0x0 AND DUP4 DUP4 PUSH2 0x1C6B JUMP JUMPDEST PUSH1 0x0 PUSH1 0xE DUP2 SWAP1 SSTORE PUSH1 0x40 MLOAD PUSH32 0xE5A0E15E63EDB96A15ED99A9C2A3674E2E0BD1B10B65D0223CCE19A6B54E7FB1 SWAP2 SWAP1 LOG1 POP POP JUMP JUMPDEST PUSH2 0x1B11 PUSH1 0x40 MLOAD DUP1 PUSH1 0x80 ADD PUSH1 0x40 MSTORE DUP1 PUSH1 0x0 DUP2 MSTORE PUSH1 0x20 ADD PUSH1 0x0 DUP2 MSTORE PUSH1 0x20 ADD PUSH1 0x0 DUP2 MSTORE PUSH1 0x20 ADD PUSH1 0x0 DUP2 MSTORE POP SWAP1 JUMP JUMPDEST PUSH1 0x40 MLOAD DUP1 PUSH1 0x80 ADD PUSH1 0x40 MSTORE DUP1 PUSH1 0x0 DUP2 MSTORE PUSH1 0x20 ADD PUSH1 0x0 DUP2 MSTORE PUSH1 0x20 ADD PUSH8 0xDE0B6B3A7640000 DUP2 MSTORE PUSH1 0x20 ADD PUSH1 0x0 DUP2 MSTORE POP SWAP1 POP SWAP1 JUMP JUMPDEST PUSH1 0x0 DUP2 DUP2 MSTORE PUSH1 0x1 DUP4 ADD PUSH1 0x20 MSTORE PUSH1 0x40 DUP2 KECCAK256 SLOAD DUP1 ISZERO PUSH2 0x1C2B JUMPI PUSH1 0x0 PUSH2 0x1B66 PUSH1 0x1 DUP4 PUSH2 0x28E1 JUMP JUMPDEST DUP6 SLOAD SWAP1 SWAP2 POP PUSH1 0x0 SWAP1 PUSH2 0x1B7A SWAP1 PUSH1 0x1 SWAP1 PUSH2 0x28E1 JUMP JUMPDEST SWAP1 POP DUP2 DUP2 EQ PUSH2 0x1BDF JUMPI PUSH1 0x0 DUP7 PUSH1 0x0 ADD DUP3 DUP2 SLOAD DUP2 LT PUSH2 0x1B9A JUMPI PUSH2 0x1B9A PUSH2 0x2956 JUMP JUMPDEST SWAP1 PUSH1 0x0 MSTORE PUSH1 0x20 PUSH1 0x0 KECCAK256 ADD SLOAD SWAP1 POP DUP1 DUP8 PUSH1 0x0 ADD DUP5 DUP2 SLOAD DUP2 LT PUSH2 0x1BBD JUMPI PUSH2 0x1BBD PUSH2 0x2956 JUMP JUMPDEST PUSH1 0x0 SWAP2 DUP3 MSTORE PUSH1 0x20 DUP1 DUP4 KECCAK256 SWAP1 SWAP2 ADD SWAP3 SWAP1 SWAP3 SSTORE SWAP2 DUP3 MSTORE PUSH1 0x1 DUP9 ADD SWAP1 MSTORE PUSH1 0x40 SWAP1 KECCAK256 DUP4 SWAP1 SSTORE JUMPDEST DUP6 SLOAD DUP7 SWAP1 DUP1 PUSH2 0x1BF0 JUMPI PUSH2 0x1BF0 PUSH2 0x29E4 JUMP JUMPDEST PUSH1 0x1 SWAP1 SUB DUP2 DUP2 SWAP1 PUSH1 0x0 MSTORE PUSH1 0x20 PUSH1 0x0 KECCAK256 ADD PUSH1 0x0 SWAP1 SSTORE SWAP1 SSTORE DUP6 PUSH1 0x1 ADD PUSH1 0x0 DUP7 DUP2 MSTORE PUSH1 0x20 ADD SWAP1 DUP2 MSTORE PUSH1 0x20 ADD PUSH1 0x0 KECCAK256 PUSH1 0x0 SWAP1 SSTORE PUSH1 0x1 SWAP4 POP POP POP POP PUSH2 0x4B3 JUMP JUMPDEST PUSH1 0x0 SWAP2 POP POP PUSH2 0x4B3 JUMP JUMPDEST PUSH1 0x0 PUSH2 0x4B3 DUP3 PUSH2 0x1916 JUMP JUMPDEST PUSH1 0x0 DUP1 DUP1 PUSH2 0x1C4E DUP6 DUP6 PUSH2 0x1920 JUMP JUMPDEST PUSH1 0x0 DUP2 DUP2 MSTORE PUSH1 0x2 SWAP7 SWAP1 SWAP7 ADD PUSH1 0x20 MSTORE PUSH1 0x40 SWAP1 SWAP6 KECCAK256 SLOAD SWAP5 SWAP6 SWAP4 POP POP POP POP JUMP JUMPDEST PUSH1 0x40 MLOAD PUSH1 0x1 PUSH1 0x1 PUSH1 0xA0 SHL SUB DUP4 AND PUSH1 0x24 DUP3 ADD MSTORE PUSH1 0x44 DUP2 ADD DUP3 SWAP1 MSTORE PUSH2 0x9BA SWAP1 DUP5 SWAP1 PUSH4 0xA9059CBB PUSH1 0xE0 SHL SWAP1 PUSH1 0x64 ADD JUMPDEST PUSH1 0x40 DUP1 MLOAD PUSH1 0x1F NOT DUP2 DUP5 SUB ADD DUP2 MSTORE SWAP2 SWAP1 MSTORE PUSH1 0x20 DUP2 ADD DUP1 MLOAD PUSH1 0x1 PUSH1 0x1 PUSH1 0xE0 SHL SUB AND PUSH1 0x1 PUSH1 0x1 PUSH1 0xE0 SHL SUB NOT SWAP1 SWAP4 AND SWAP3 SWAP1 SWAP3 OR SWAP1 SWAP2 MSTORE PUSH2 0x21E0 JUMP JUMPDEST PUSH2 0x1746 DUP5 PUSH4 0x23B872DD PUSH1 0xE0 SHL DUP6 DUP6 DUP6 PUSH1 0x40 MLOAD PUSH1 0x24 ADD PUSH2 0x1C97 SWAP4 SWAP3 SWAP2 SWAP1 PUSH2 0x2985 JUMP JUMPDEST PUSH1 0x1 PUSH1 0x1 PUSH1 0xA0 SHL SUB DUP1 DUP5 AND PUSH1 0x0 SWAP1 DUP2 MSTORE PUSH1 0x1 DUP7 ADD PUSH1 0x20 SWAP1 DUP2 MSTORE PUSH1 0x40 DUP1 DUP4 KECCAK256 SWAP4 DUP7 AND DUP4 MSTORE SWAP3 SWAP1 MSTORE KECCAK256 SLOAD DUP2 GT ISZERO PUSH2 0x1D78 JUMPI PUSH1 0x40 MLOAD PUSH3 0x461BCD PUSH1 0xE5 SHL DUP2 MSTORE PUSH1 0x20 PUSH1 0x4 DUP3 ADD MSTORE PUSH1 0x29 PUSH1 0x24 DUP3 ADD MSTORE PUSH32 0x7573657220686173206E6F742064656C65676174656420656E6F75676820746F PUSH1 0x44 DUP3 ADD MSTORE PUSH9 0x2064656C6567617465 PUSH1 0xB8 SHL PUSH1 0x64 DUP3 ADD MSTORE PUSH1 0x84 ADD PUSH2 0x5DD JUMP JUMPDEST PUSH1 0x1 PUSH1 0x1 PUSH1 0xA0 SHL SUB DUP3 AND PUSH1 0x0 SWAP1 DUP2 MSTORE PUSH1 0x3 DUP6 ADD PUSH1 0x20 MSTORE PUSH1 0x40 DUP2 KECCAK256 DUP1 SLOAD DUP4 SWAP3 SWAP1 PUSH2 0x1DA2 SWAP1 DUP5 SWAP1 PUSH2 0x28E1 JUMP JUMPDEST SWAP1 SWAP2 SSTORE POP POP PUSH1 0x1 PUSH1 0x1 PUSH1 0xA0 SHL SUB DUP4 AND PUSH1 0x0 SWAP1 DUP2 MSTORE PUSH1 0x2 DUP6 ADD PUSH1 0x20 MSTORE PUSH1 0x40 DUP2 KECCAK256 DUP1 SLOAD DUP4 SWAP3 SWAP1 PUSH2 0x1DD1 SWAP1 DUP5 SWAP1 PUSH2 0x28E1 JUMP JUMPDEST SWAP1 SWAP2 SSTORE POP POP PUSH1 0x1 PUSH1 0x1 PUSH1 0xA0 SHL SUB DUP1 DUP5 AND PUSH1 0x0 SWAP1 DUP2 MSTORE PUSH1 0x1 DUP7 ADD PUSH1 0x20 SWAP1 DUP2 MSTORE PUSH1 0x40 DUP1 DUP4 KECCAK256 SWAP4 DUP7 AND DUP4 MSTORE SWAP3 SWAP1 MSTORE SWAP1 DUP2 KECCAK256 DUP1 SLOAD DUP4 SWAP3 SWAP1 PUSH2 0x1E0F SWAP1 DUP5 SWAP1 PUSH2 0x28E1 JUMP JUMPDEST SWAP1 SWAP2 SSTORE POP PUSH1 0x0 SWAP1 POP PUSH2 0x1E21 DUP6 DUP6 PUSH2 0x130A JUMP JUMPDEST SWAP1 POP PUSH2 0x1E4E DUP5 DUP3 PUSH1 0x20 ADD MLOAD DUP4 PUSH1 0x40 ADD MLOAD PUSH2 0x1E44 DUP9 DUP11 PUSH2 0x22B2 SWAP1 SWAP2 SWAP1 PUSH4 0xFFFFFFFF AND JUMP JUMPDEST DUP10 SWAP4 SWAP3 SWAP2 SWAP1 PUSH2 0x1573 JUMP JUMPDEST POP PUSH1 0x0 PUSH2 0x1E5B DUP7 DUP6 PUSH2 0x130A JUMP JUMPDEST SWAP1 POP PUSH2 0x1E88 DUP5 DUP3 PUSH1 0x20 ADD MLOAD DUP4 PUSH1 0x40 ADD MLOAD PUSH2 0x1E7E DUP9 DUP12 PUSH2 0x22B2 SWAP1 SWAP2 SWAP1 PUSH4 0xFFFFFFFF AND JUMP JUMPDEST DUP11 SWAP4 SWAP3 SWAP2 SWAP1 PUSH2 0x1573 JUMP JUMPDEST POP PUSH32 0xDE5AA493A93D4351631C1991A0AEECFD52D6B51CF1B61F1A3C48F97E26808653 DUP6 DUP6 DUP6 PUSH1 0x40 MLOAD PUSH2 0x1EBC SWAP4 SWAP3 SWAP2 SWAP1 PUSH2 0x2985 JUMP JUMPDEST PUSH1 0x40 MLOAD DUP1 SWAP2 SUB SWAP1 LOG1 POP POP POP POP POP POP JUMP JUMPDEST PUSH1 0x0 PUSH2 0x10D2 DUP4 PUSH1 0x1 PUSH1 0x1 PUSH1 0xA0 SHL SUB DUP5 AND PUSH2 0x22E4 JUMP JUMPDEST PUSH1 0x0 PUSH2 0x10D2 DUP4 PUSH1 0x1 PUSH1 0x1 PUSH1 0xA0 SHL SUB DUP5 AND PUSH2 0x2354 JUMP JUMPDEST PUSH1 0x0 PUSH2 0x190E DUP5 PUSH1 0x1 PUSH1 0x1 PUSH1 0xA0 SHL SUB DUP6 AND DUP5 PUSH2 0x2371 JUMP JUMPDEST PUSH1 0x0 DUP2 DUP2 MSTORE PUSH1 0x1 DUP4 ADD PUSH1 0x20 MSTORE PUSH1 0x40 DUP2 KECCAK256 SLOAD PUSH2 0x1F53 JUMPI POP DUP2 SLOAD PUSH1 0x1 DUP2 DUP2 ADD DUP5 SSTORE PUSH1 0x0 DUP5 DUP2 MSTORE PUSH1 0x20 DUP1 DUP3 KECCAK256 SWAP1 SWAP4 ADD DUP5 SWAP1 SSTORE DUP5 SLOAD DUP5 DUP3 MSTORE DUP3 DUP7 ADD SWAP1 SWAP4 MSTORE PUSH1 0x40 SWAP1 KECCAK256 SWAP2 SWAP1 SWAP2 SSTORE PUSH2 0x4B3 JUMP JUMPDEST POP PUSH1 0x0 PUSH2 0x4B3 JUMP JUMPDEST PUSH1 0x0 PUSH2 0x1F67 DUP6 DUP6 PUSH2 0x130A JUMP JUMPDEST PUSH1 0x1 PUSH1 0x1 PUSH1 0xA0 SHL SUB DUP6 AND PUSH1 0x0 SWAP1 DUP2 MSTORE PUSH1 0x2 DUP8 ADD PUSH1 0x20 SWAP1 DUP2 MSTORE PUSH1 0x40 DUP1 DUP4 KECCAK256 SLOAD SWAP1 DUP5 ADD MLOAD SWAP2 DUP5 ADD MLOAD SWAP4 SWAP5 POP SWAP2 SWAP3 PUSH2 0x1F9B SWAP2 PUSH2 0x238E JUMP JUMPDEST PUSH2 0x1FA5 SWAP2 SWAP1 PUSH2 0x28E1 JUMP JUMPDEST SWAP1 POP DUP3 DUP2 LT ISZERO PUSH2 0x1FF7 JUMPI PUSH1 0x40 MLOAD PUSH3 0x461BCD PUSH1 0xE5 SHL DUP2 MSTORE PUSH1 0x20 PUSH1 0x4 DUP3 ADD DUP2 SWAP1 MSTORE PUSH1 0x24 DUP3 ADD MSTORE PUSH32 0x696E73756666696369656E742062616C616E636520746F2064656C6567617465 PUSH1 0x44 DUP3 ADD MSTORE PUSH1 0x64 ADD PUSH2 0x5DD JUMP JUMPDEST PUSH1 0x1 PUSH1 0x1 PUSH1 0xA0 SHL SUB DUP5 AND PUSH1 0x0 SWAP1 DUP2 MSTORE PUSH1 0x3 DUP8 ADD PUSH1 0x20 MSTORE PUSH1 0x40 DUP2 KECCAK256 DUP1 SLOAD DUP6 SWAP3 SWAP1 PUSH2 0x2021 SWAP1 DUP5 SWAP1 PUSH2 0x290B JUMP JUMPDEST SWAP1 SWAP2 SSTORE POP POP PUSH1 0x1 PUSH1 0x1 PUSH1 0xA0 SHL SUB DUP6 AND PUSH1 0x0 SWAP1 DUP2 MSTORE PUSH1 0x2 DUP8 ADD PUSH1 0x20 MSTORE PUSH1 0x40 DUP2 KECCAK256 DUP1 SLOAD DUP6 SWAP3 SWAP1 PUSH2 0x2050 SWAP1 DUP5 SWAP1 PUSH2 0x290B JUMP JUMPDEST SWAP1 SWAP2 SSTORE POP POP PUSH1 0x1 PUSH1 0x1 PUSH1 0xA0 SHL SUB DUP1 DUP7 AND PUSH1 0x0 SWAP1 DUP2 MSTORE PUSH1 0x1 DUP9 ADD PUSH1 0x20 SWAP1 DUP2 MSTORE PUSH1 0x40 DUP1 DUP4 KECCAK256 SWAP4 DUP9 AND DUP4 MSTORE SWAP3 SWAP1 MSTORE SWAP1 DUP2 KECCAK256 DUP1 SLOAD DUP6 SWAP3 SWAP1 PUSH2 0x208E SWAP1 DUP5 SWAP1 PUSH2 0x290B JUMP JUMPDEST SWAP1 SWAP2 SSTORE POP POP PUSH1 0x20 DUP3 ADD MLOAD PUSH1 0x40 DUP4 ADD MLOAD PUSH2 0x20AD SWAP2 DUP8 SWAP2 PUSH2 0x1E7E DUP11 DUP5 PUSH2 0x22B2 JUMP JUMPDEST POP PUSH1 0x0 PUSH2 0x20BA DUP8 DUP7 PUSH2 0x130A JUMP JUMPDEST SWAP1 POP PUSH2 0x20E7 DUP6 DUP3 PUSH1 0x20 ADD MLOAD DUP4 PUSH1 0x40 ADD MLOAD PUSH2 0x20DD DUP10 DUP13 PUSH2 0x22B2 SWAP1 SWAP2 SWAP1 PUSH4 0xFFFFFFFF AND JUMP JUMPDEST DUP12 SWAP4 SWAP3 SWAP2 SWAP1 PUSH2 0x1573 JUMP JUMPDEST POP PUSH32 0xFF825F9424124EFFC5CE1D9F4803D58EDE8A2BDA4DA2324810F74834715C4C59 DUP7 DUP7 DUP7 PUSH1 0x40 MLOAD PUSH2 0x211B SWAP4 SWAP3 SWAP2 SWAP1 PUSH2 0x2985 JUMP JUMPDEST PUSH1 0x40 MLOAD DUP1 SWAP2 SUB SWAP1 LOG1 POP POP POP POP POP POP POP JUMP JUMPDEST PUSH1 0x0 DUP1 DUP1 DUP1 PUSH2 0x1491 DUP7 PUSH1 0x1 PUSH1 0x1 PUSH1 0xA0 SHL SUB DUP8 AND PUSH2 0x23AD JUMP JUMPDEST PUSH1 0x0 DUP3 PUSH1 0x0 ADD DUP3 DUP2 SLOAD DUP2 LT PUSH2 0x215B JUMPI PUSH2 0x215B PUSH2 0x2956 JUMP JUMPDEST SWAP1 PUSH1 0x0 MSTORE PUSH1 0x20 PUSH1 0x0 KECCAK256 ADD SLOAD SWAP1 POP SWAP3 SWAP2 POP POP JUMP JUMPDEST PUSH1 0x0 PUSH2 0x219B PUSH1 0x40 MLOAD DUP1 PUSH1 0x80 ADD PUSH1 0x40 MSTORE DUP1 PUSH1 0x0 DUP2 MSTORE PUSH1 0x20 ADD PUSH1 0x0 DUP2 MSTORE PUSH1 0x20 ADD PUSH1 0x0 DUP2 MSTORE PUSH1 0x20 ADD PUSH1 0x0 DUP2 MSTORE POP SWAP1 JUMP JUMPDEST PUSH2 0x21A9 DUP5 DUP5 PUSH1 0x0 DUP8 MLOAD PUSH2 0x23E7 JUMP JUMPDEST SWAP2 POP SWAP2 POP SWAP3 POP SWAP3 SWAP1 POP JUMP JUMPDEST PUSH1 0x0 DUP2 PUSH1 0x60 ADD MLOAD PUSH2 0x21D6 DUP4 PUSH1 0x40 ADD MLOAD DUP5 PUSH1 0x20 ADD MLOAD PUSH2 0x238E SWAP1 SWAP2 SWAP1 PUSH4 0xFFFFFFFF AND JUMP JUMPDEST PUSH2 0x4B3 SWAP2 SWAP1 PUSH2 0x29FA JUMP JUMPDEST PUSH1 0x0 PUSH2 0x2235 DUP3 PUSH1 0x40 MLOAD DUP1 PUSH1 0x40 ADD PUSH1 0x40 MSTORE DUP1 PUSH1 0x20 DUP2 MSTORE PUSH1 0x20 ADD PUSH32 0x5361666545524332303A206C6F772D6C6576656C2063616C6C206661696C6564 DUP2 MSTORE POP DUP6 PUSH1 0x1 PUSH1 0x1 PUSH1 0xA0 SHL SUB AND PUSH2 0x2542 SWAP1 SWAP3 SWAP2 SWAP1 PUSH4 0xFFFFFFFF AND JUMP JUMPDEST DUP1 MLOAD SWAP1 SWAP2 POP ISZERO PUSH2 0x9BA JUMPI DUP1 DUP1 PUSH1 0x20 ADD SWAP1 MLOAD DUP2 ADD SWAP1 PUSH2 0x2253 SWAP2 SWAP1 PUSH2 0x291E JUMP JUMPDEST PUSH2 0x9BA JUMPI PUSH1 0x40 MLOAD PUSH3 0x461BCD PUSH1 0xE5 SHL DUP2 MSTORE PUSH1 0x20 PUSH1 0x4 DUP3 ADD MSTORE PUSH1 0x2A PUSH1 0x24 DUP3 ADD MSTORE PUSH32 0x5361666545524332303A204552433230206F7065726174696F6E20646964206E PUSH1 0x44 DUP3 ADD MSTORE PUSH10 0x1BDD081CDD58D8D95959 PUSH1 0xB2 SHL PUSH1 0x64 DUP3 ADD MSTORE PUSH1 0x84 ADD PUSH2 0x5DD JUMP JUMPDEST PUSH1 0x1 PUSH1 0x1 PUSH1 0xA0 SHL SUB DUP2 AND PUSH1 0x0 SWAP1 DUP2 MSTORE PUSH1 0x2 DUP4 ADD PUSH1 0x20 SWAP1 DUP2 MSTORE PUSH1 0x40 DUP1 DUP4 KECCAK256 SLOAD PUSH1 0x3 DUP7 ADD SWAP1 SWAP3 MSTORE DUP3 KECCAK256 SLOAD PUSH2 0x10D2 SWAP2 SWAP1 PUSH2 0x2A22 JUMP JUMPDEST PUSH1 0x0 DUP2 DUP2 MSTORE PUSH1 0x2 DUP4 ADD PUSH1 0x20 MSTORE PUSH1 0x40 DUP2 KECCAK256 SLOAD DUP1 ISZERO ISZERO DUP1 PUSH2 0x2308 JUMPI POP PUSH2 0x2308 DUP5 DUP5 PUSH2 0x2551 JUMP JUMPDEST PUSH2 0x10D2 JUMPI PUSH1 0x40 MLOAD PUSH3 0x461BCD PUSH1 0xE5 SHL DUP2 MSTORE PUSH1 0x20 PUSH1 0x4 DUP3 ADD MSTORE PUSH1 0x1E PUSH1 0x24 DUP3 ADD MSTORE PUSH32 0x456E756D657261626C654D61703A206E6F6E6578697374656E74206B65790000 PUSH1 0x44 DUP3 ADD MSTORE PUSH1 0x64 ADD PUSH2 0x5DD JUMP JUMPDEST PUSH1 0x0 DUP2 DUP2 MSTORE PUSH1 0x2 DUP4 ADD PUSH1 0x20 MSTORE PUSH1 0x40 DUP2 KECCAK256 DUP2 SWAP1 SSTORE PUSH2 0x10D2 DUP4 DUP4 PUSH2 0x146B JUMP JUMPDEST PUSH1 0x0 DUP3 DUP2 MSTORE PUSH1 0x2 DUP5 ADD PUSH1 0x20 MSTORE PUSH1 0x40 DUP2 KECCAK256 DUP3 SWAP1 SSTORE PUSH2 0x190E DUP5 DUP5 PUSH2 0x17DE JUMP JUMPDEST PUSH1 0x0 PUSH8 0xDE0B6B3A7640000 PUSH2 0x23A3 DUP4 DUP6 PUSH2 0x28F4 JUMP JUMPDEST PUSH2 0x10D2 SWAP2 SWAP1 PUSH2 0x29A9 JUMP JUMPDEST PUSH1 0x0 DUP2 DUP2 MSTORE PUSH1 0x2 DUP4 ADD PUSH1 0x20 MSTORE PUSH1 0x40 DUP2 KECCAK256 SLOAD DUP2 SWAP1 DUP1 PUSH2 0x23DC JUMPI PUSH2 0x23CF DUP6 DUP6 PUSH2 0x2551 JUMP JUMPDEST SWAP3 POP PUSH1 0x0 SWAP2 POP PUSH2 0x1499 SWAP1 POP JUMP JUMPDEST PUSH1 0x1 SWAP3 POP SWAP1 POP PUSH2 0x1499 JUMP JUMPDEST PUSH1 0x0 PUSH2 0x2414 PUSH1 0x40 MLOAD DUP1 PUSH1 0x80 ADD PUSH1 0x40 MSTORE DUP1 PUSH1 0x0 DUP2 MSTORE PUSH1 0x20 ADD PUSH1 0x0 DUP2 MSTORE PUSH1 0x20 ADD PUSH1 0x0 DUP2 MSTORE PUSH1 0x20 ADD PUSH1 0x0 DUP2 MSTORE POP SWAP1 JUMP JUMPDEST DUP3 DUP5 LT PUSH2 0x242E JUMPI PUSH1 0x0 PUSH2 0x2425 PUSH2 0x1AE6 JUMP JUMPDEST SWAP2 POP SWAP2 POP PUSH2 0x2539 JUMP JUMPDEST PUSH2 0x2438 DUP5 DUP5 PUSH2 0x28E1 JUMP JUMPDEST PUSH1 0x1 SUB PUSH2 0x2486 JUMPI PUSH1 0x0 DUP7 DUP6 DUP2 MLOAD DUP2 LT PUSH2 0x2453 JUMPI PUSH2 0x2453 PUSH2 0x2956 JUMP JUMPDEST PUSH1 0x20 MUL PUSH1 0x20 ADD ADD MLOAD SWAP1 POP DUP6 DUP2 PUSH1 0x0 ADD MLOAD GT ISZERO PUSH2 0x2478 JUMPI PUSH1 0x0 PUSH2 0x2473 PUSH2 0x1AE6 JUMP JUMPDEST PUSH2 0x247C JUMP JUMPDEST PUSH1 0x1 DUP2 JUMPDEST SWAP3 POP SWAP3 POP POP PUSH2 0x2539 JUMP JUMPDEST PUSH1 0x0 PUSH1 0x2 PUSH2 0x2494 DUP7 DUP7 PUSH2 0x290B JUMP JUMPDEST PUSH2 0x249E SWAP2 SWAP1 PUSH2 0x29A9 JUMP JUMPDEST SWAP1 POP PUSH1 0x0 DUP8 PUSH2 0x24AE PUSH1 0x1 DUP5 PUSH2 0x28E1 JUMP JUMPDEST DUP2 MLOAD DUP2 LT PUSH2 0x24BE JUMPI PUSH2 0x24BE PUSH2 0x2956 JUMP JUMPDEST PUSH1 0x20 MUL PUSH1 0x20 ADD ADD MLOAD SWAP1 POP PUSH1 0x0 DUP9 DUP4 DUP2 MLOAD DUP2 LT PUSH2 0x24DC JUMPI PUSH2 0x24DC PUSH2 0x2956 JUMP JUMPDEST PUSH1 0x20 MUL PUSH1 0x20 ADD ADD MLOAD SWAP1 POP DUP8 DUP3 PUSH1 0x0 ADD MLOAD GT ISZERO DUP1 ISZERO PUSH2 0x24FA JUMPI POP DUP1 MLOAD DUP9 LT JUMPDEST ISZERO PUSH2 0x250D JUMPI POP PUSH1 0x1 SWAP4 POP SWAP2 POP PUSH2 0x2539 SWAP1 POP JUMP JUMPDEST DUP1 MLOAD DUP9 LT PUSH2 0x252D JUMPI PUSH2 0x2521 DUP10 DUP10 DUP6 DUP10 PUSH2 0x23E7 JUMP JUMPDEST SWAP5 POP SWAP5 POP POP POP POP PUSH2 0x2539 JUMP JUMPDEST PUSH2 0x2521 DUP10 DUP10 DUP10 DUP7 PUSH2 0x23E7 JUMP JUMPDEST SWAP5 POP SWAP5 SWAP3 POP POP POP JUMP JUMPDEST PUSH1 0x60 PUSH2 0x190E DUP5 DUP5 PUSH1 0x0 DUP6 PUSH2 0x255D JUMP JUMPDEST PUSH1 0x0 PUSH2 0x10D2 DUP4 DUP4 PUSH2 0x2638 JUMP JUMPDEST PUSH1 0x60 DUP3 SELFBALANCE LT ISZERO PUSH2 0x25BE JUMPI PUSH1 0x40 MLOAD PUSH3 0x461BCD PUSH1 0xE5 SHL DUP2 MSTORE PUSH1 0x20 PUSH1 0x4 DUP3 ADD MSTORE PUSH1 0x26 PUSH1 0x24 DUP3 ADD MSTORE PUSH32 0x416464726573733A20696E73756666696369656E742062616C616E636520666F PUSH1 0x44 DUP3 ADD MSTORE PUSH6 0x1C8818D85B1B PUSH1 0xD2 SHL PUSH1 0x64 DUP3 ADD MSTORE PUSH1 0x84 ADD PUSH2 0x5DD JUMP JUMPDEST PUSH1 0x0 DUP1 DUP7 PUSH1 0x1 PUSH1 0x1 PUSH1 0xA0 SHL SUB AND DUP6 DUP8 PUSH1 0x40 MLOAD PUSH2 0x25DA SWAP2 SWAP1 PUSH2 0x2A66 JUMP JUMPDEST PUSH1 0x0 PUSH1 0x40 MLOAD DUP1 DUP4 SUB DUP2 DUP6 DUP8 GAS CALL SWAP3 POP POP POP RETURNDATASIZE DUP1 PUSH1 0x0 DUP2 EQ PUSH2 0x2617 JUMPI PUSH1 0x40 MLOAD SWAP2 POP PUSH1 0x1F NOT PUSH1 0x3F RETURNDATASIZE ADD AND DUP3 ADD PUSH1 0x40 MSTORE RETURNDATASIZE DUP3 MSTORE RETURNDATASIZE PUSH1 0x0 PUSH1 0x20 DUP5 ADD RETURNDATACOPY PUSH2 0x261C JUMP JUMPDEST PUSH1 0x60 SWAP2 POP JUMPDEST POP SWAP2 POP SWAP2 POP PUSH2 0x262D DUP8 DUP4 DUP4 DUP8 PUSH2 0x2650 JUMP JUMPDEST SWAP8 SWAP7 POP POP POP POP POP POP POP JUMP JUMPDEST PUSH1 0x0 DUP2 DUP2 MSTORE PUSH1 0x1 DUP4 ADD PUSH1 0x20 MSTORE PUSH1 0x40 DUP2 KECCAK256 SLOAD ISZERO ISZERO PUSH2 0x10D2 JUMP JUMPDEST PUSH1 0x60 DUP4 ISZERO PUSH2 0x26BF JUMPI DUP3 MLOAD PUSH1 0x0 SUB PUSH2 0x26B8 JUMPI PUSH1 0x1 PUSH1 0x1 PUSH1 0xA0 SHL SUB DUP6 AND EXTCODESIZE PUSH2 0x26B8 JUMPI PUSH1 0x40 MLOAD PUSH3 0x461BCD PUSH1 0xE5 SHL DUP2 MSTORE PUSH1 0x20 PUSH1 0x4 DUP3 ADD MSTORE PUSH1 0x1D PUSH1 0x24 DUP3 ADD MSTORE PUSH32 0x416464726573733A2063616C6C20746F206E6F6E2D636F6E7472616374000000 PUSH1 0x44 DUP3 ADD MSTORE PUSH1 0x64 ADD PUSH2 0x5DD JUMP JUMPDEST POP DUP2 PUSH2 0x190E JUMP JUMPDEST PUSH2 0x190E DUP4 DUP4 DUP2 MLOAD ISZERO PUSH2 0x26D4 JUMPI DUP2 MLOAD DUP1 DUP4 PUSH1 0x20 ADD REVERT JUMPDEST DUP1 PUSH1 0x40 MLOAD PUSH3 0x461BCD PUSH1 0xE5 SHL DUP2 MSTORE PUSH1 0x4 ADD PUSH2 0x5DD SWAP2 SWAP1 PUSH2 0x2A82 JUMP JUMPDEST DUP1 CALLDATALOAD PUSH1 0x1 PUSH1 0x1 PUSH1 0xA0 SHL SUB DUP2 AND DUP2 EQ PUSH2 0x2705 JUMPI PUSH1 0x0 DUP1 REVERT JUMPDEST SWAP2 SWAP1 POP JUMP JUMPDEST PUSH1 0x0 PUSH1 0x20 DUP3 DUP5 SUB SLT ISZERO PUSH2 0x271C JUMPI PUSH1 0x0 DUP1 REVERT JUMPDEST PUSH2 0x10D2 DUP3 PUSH2 0x26EE JUMP JUMPDEST PUSH1 0x0 PUSH1 0x20 DUP3 DUP5 SUB SLT ISZERO PUSH2 0x2737 JUMPI PUSH1 0x0 DUP1 REVERT JUMPDEST POP CALLDATALOAD SWAP2 SWAP1 POP JUMP JUMPDEST PUSH1 0x20 DUP1 DUP3 MSTORE DUP3 MLOAD DUP3 DUP3 ADD DUP2 SWAP1 MSTORE PUSH1 0x0 SWAP2 SWAP1 PUSH1 0x40 SWAP1 DUP2 DUP6 ADD SWAP1 DUP7 DUP5 ADD DUP6 JUMPDEST DUP3 DUP2 LT ISZERO PUSH2 0x2789 JUMPI DUP2 MLOAD DUP1 MLOAD PUSH1 0x1 PUSH1 0x1 PUSH1 0xA0 SHL SUB AND DUP6 MSTORE DUP7 ADD MLOAD DUP7 DUP6 ADD MSTORE SWAP3 DUP5 ADD SWAP3 SWAP1 DUP6 ADD SWAP1 PUSH1 0x1 ADD PUSH2 0x275B JUMP JUMPDEST POP SWAP2 SWAP8 SWAP7 POP POP POP POP POP POP POP JUMP JUMPDEST PUSH1 0x0 DUP1 PUSH1 0x0 PUSH1 0x60 DUP5 DUP7 SUB SLT ISZERO PUSH2 0x27AB JUMPI PUSH1 0x0 DUP1 REVERT JUMPDEST PUSH2 0x27B4 DUP5 PUSH2 0x26EE JUMP JUMPDEST SWAP6 PUSH1 0x20 DUP6 ADD CALLDATALOAD SWAP6 POP PUSH1 0x40 SWAP1 SWAP5 ADD CALLDATALOAD SWAP4 SWAP3 POP POP POP JUMP JUMPDEST PUSH1 0x0 DUP1 PUSH1 0x40 DUP4 DUP6 SUB SLT ISZERO PUSH2 0x27DC JUMPI PUSH1 0x0 DUP1 REVERT JUMPDEST DUP3 CALLDATALOAD SWAP2 POP PUSH2 0x27EC PUSH1 0x20 DUP5 ADD PUSH2 0x26EE JUMP JUMPDEST SWAP1 POP SWAP3 POP SWAP3 SWAP1 POP JUMP JUMPDEST PUSH1 0x0 DUP1 PUSH1 0x40 DUP4 DUP6 SUB SLT ISZERO PUSH2 0x2808 JUMPI PUSH1 0x0 DUP1 REVERT JUMPDEST PUSH2 0x2811 DUP4 PUSH2 0x26EE JUMP JUMPDEST SWAP5 PUSH1 0x20 SWAP4 SWAP1 SWAP4 ADD CALLDATALOAD SWAP4 POP POP POP JUMP JUMPDEST PUSH1 0x20 DUP1 DUP3 MSTORE DUP3 MLOAD DUP3 DUP3 ADD DUP2 SWAP1 MSTORE PUSH1 0x0 SWAP2 SWAP1 PUSH1 0x40 SWAP1 DUP2 DUP6 ADD SWAP1 DUP7 DUP5 ADD DUP6 JUMPDEST DUP3 DUP2 LT ISZERO PUSH2 0x2789 JUMPI DUP2 MLOAD DUP1 MLOAD DUP6 MSTORE DUP7 DUP2 ADD MLOAD DUP8 DUP7 ADD MSTORE DUP6 DUP2 ADD MLOAD DUP7 DUP7 ADD MSTORE PUSH1 0x60 DUP1 DUP3 ADD MLOAD PUSH1 0x1 PUSH1 0x1 PUSH1 0xA0 SHL SUB SWAP1 DUP2 AND SWAP2 DUP8 ADD SWAP2 SWAP1 SWAP2 MSTORE PUSH1 0x80 SWAP2 DUP3 ADD MLOAD AND SWAP1 DUP6 ADD MSTORE PUSH1 0xA0 SWAP1 SWAP4 ADD SWAP3 SWAP1 DUP6 ADD SWAP1 PUSH1 0x1 ADD PUSH2 0x283C JUMP JUMPDEST PUSH1 0x0 DUP1 PUSH1 0x0 PUSH1 0x60 DUP5 DUP7 SUB SLT ISZERO PUSH2 0x28A4 JUMPI PUSH1 0x0 DUP1 REVERT JUMPDEST PUSH2 0x28AD DUP5 PUSH2 0x26EE JUMP JUMPDEST SWAP3 POP PUSH2 0x28BB PUSH1 0x20 DUP6 ADD PUSH2 0x26EE JUMP JUMPDEST SWAP2 POP PUSH1 0x40 DUP5 ADD CALLDATALOAD SWAP1 POP SWAP3 POP SWAP3 POP SWAP3 JUMP JUMPDEST PUSH4 0x4E487B71 PUSH1 0xE0 SHL PUSH1 0x0 MSTORE PUSH1 0x11 PUSH1 0x4 MSTORE PUSH1 0x24 PUSH1 0x0 REVERT JUMPDEST DUP2 DUP2 SUB DUP2 DUP2 GT ISZERO PUSH2 0x4B3 JUMPI PUSH2 0x4B3 PUSH2 0x28CB JUMP JUMPDEST DUP1 DUP3 MUL DUP2 ISZERO DUP3 DUP3 DIV DUP5 EQ OR PUSH2 0x4B3 JUMPI PUSH2 0x4B3 PUSH2 0x28CB JUMP JUMPDEST DUP1 DUP3 ADD DUP1 DUP3 GT ISZERO PUSH2 0x4B3 JUMPI PUSH2 0x4B3 PUSH2 0x28CB JUMP JUMPDEST PUSH1 0x0 PUSH1 0x20 DUP3 DUP5 SUB SLT ISZERO PUSH2 0x2930 JUMPI PUSH1 0x0 DUP1 REVERT JUMPDEST DUP2 MLOAD DUP1 ISZERO ISZERO DUP2 EQ PUSH2 0x10D2 JUMPI PUSH1 0x0 DUP1 REVERT JUMPDEST PUSH4 0x4E487B71 PUSH1 0xE0 SHL PUSH1 0x0 MSTORE PUSH1 0x41 PUSH1 0x4 MSTORE PUSH1 0x24 PUSH1 0x0 REVERT JUMPDEST PUSH4 0x4E487B71 PUSH1 0xE0 SHL PUSH1 0x0 MSTORE PUSH1 0x32 PUSH1 0x4 MSTORE PUSH1 0x24 PUSH1 0x0 REVERT JUMPDEST PUSH1 0x0 PUSH1 0x1 DUP3 ADD PUSH2 0x297E JUMPI PUSH2 0x297E PUSH2 0x28CB JUMP JUMPDEST POP PUSH1 0x1 ADD SWAP1 JUMP JUMPDEST PUSH1 0x1 PUSH1 0x1 PUSH1 0xA0 SHL SUB SWAP4 DUP5 AND DUP2 MSTORE SWAP2 SWAP1 SWAP3 AND PUSH1 0x20 DUP3 ADD MSTORE PUSH1 0x40 DUP2 ADD SWAP2 SWAP1 SWAP2 MSTORE PUSH1 0x60 ADD SWAP1 JUMP JUMPDEST PUSH1 0x0 DUP3 PUSH2 0x29C6 JUMPI PUSH4 0x4E487B71 PUSH1 0xE0 SHL PUSH1 0x0 MSTORE PUSH1 0x12 PUSH1 0x4 MSTORE PUSH1 0x24 PUSH1 0x0 REVERT JUMPDEST POP DIV SWAP1 JUMP JUMPDEST PUSH1 0x0 PUSH1 0x20 DUP3 DUP5 SUB SLT ISZERO PUSH2 0x29DD JUMPI PUSH1 0x0 DUP1 REVERT JUMPDEST POP MLOAD SWAP2 SWAP1 POP JUMP JUMPDEST PUSH4 0x4E487B71 PUSH1 0xE0 SHL PUSH1 0x0 MSTORE PUSH1 0x31 PUSH1 0x4 MSTORE PUSH1 0x24 PUSH1 0x0 REVERT JUMPDEST DUP1 DUP3 ADD DUP3 DUP2 SLT PUSH1 0x0 DUP4 SLT DUP1 ISZERO DUP3 AND DUP3 ISZERO DUP3 AND OR ISZERO PUSH2 0x2A1A JUMPI PUSH2 0x2A1A PUSH2 0x28CB JUMP JUMPDEST POP POP SWAP3 SWAP2 POP POP JUMP JUMPDEST DUP2 DUP2 SUB PUSH1 0x0 DUP4 SLT DUP1 ISZERO DUP4 DUP4 SGT AND DUP4 DUP4 SLT DUP3 AND OR ISZERO PUSH2 0x1411 JUMPI PUSH2 0x1411 PUSH2 0x28CB JUMP JUMPDEST PUSH1 0x0 JUMPDEST DUP4 DUP2 LT ISZERO PUSH2 0x2A5D JUMPI DUP2 DUP2 ADD MLOAD DUP4 DUP3 ADD MSTORE PUSH1 0x20 ADD PUSH2 0x2A45 JUMP JUMPDEST POP POP PUSH1 0x0 SWAP2 ADD MSTORE JUMP JUMPDEST PUSH1 0x0 DUP3 MLOAD PUSH2 0x2A78 DUP2 DUP5 PUSH1 0x20 DUP8 ADD PUSH2 0x2A42 JUMP JUMPDEST SWAP2 SWAP1 SWAP2 ADD SWAP3 SWAP2 POP POP JUMP JUMPDEST PUSH1 0x20 DUP2 MSTORE PUSH1 0x0 DUP3 MLOAD DUP1 PUSH1 0x20 DUP5 ADD MSTORE PUSH2 0x2AA1 DUP2 PUSH1 0x40 DUP6 ADD PUSH1 0x20 DUP8 ADD PUSH2 0x2A42 JUMP JUMPDEST PUSH1 0x1F ADD PUSH1 0x1F NOT AND SWAP2 SWAP1 SWAP2 ADD PUSH1 0x40 ADD SWAP3 SWAP2 POP POP JUMP INVALID LOG2 PUSH5 0x6970667358 0x22 SLT KECCAK256 0x2B 0xD4 ADDRESS PUSH5 0xEA3D820C9 0xB9 BASEFEE MUL 0x2D 0xD8 0xC0 LOG3 0x25 0xB0 ADDMOD 0xF8 DUP16 0x2A 0xCB PUSH22 0x6885AE33736CE91D64736F6C63430008110033000000 ","sha1":"e42c533006297934b6e8bc527e3b307dca81b836","source":"// SPDX-License-Identifier: UNLICENSED\npragma solidity ^0.8.17;\n\nimport \"@openzeppelin/contracts/token/ERC20/IERC20.sol\";\nimport \"@openzeppelin/contracts/proxy/utils/Initializable.sol\";\nimport \"@openzeppelin/contracts/utils/structs/EnumerableSet.sol\";\n\nimport \"../../interfaces/ILockingVault.sol\";\nimport \"../../libraries/DataTypes.sol\";\nimport \"../../libraries/VotingPowerHistory.sol\";\nimport \"../access/ImmutableOwner.sol\";\nimport \"../LiquidityMining.sol\";\nimport \"./BaseDelegatingVault.sol\";\n\ncontract LPVault is\n    Initializable,\n    BaseDelegatingVault,\n    ILockingVault,\n    ImmutableOwner,\n    LiquidityMining\n{\n    using EnumerableSet for EnumerableSet.UintSet;\n    using VotingPowerHistory for VotingPowerHistory.History;\n\n    IERC20 public immutable lpToken;\n    uint256 internal withdrawalWaitDuration;\n\n    // Mapping of a user's address to their pending withdrawal ids.\n    mapping(address => EnumerableSet.UintSet) internal userPendingWithdrawalIds;\n\n    mapping(uint256 => DataTypes.PendingWithdrawal) internal pendingWithdrawals;\n\n    uint256 internal nextWithdrawalId;\n\n    // Total supply of shares locked in the vault that are not queued for withdrawal\n    uint256 public totalSupply;\n\n    constructor(\n        address _owner,\n        address _lpToken,\n        address _rewardsToken\n    ) ImmutableOwner(_owner) LiquidityMining(_rewardsToken) {\n        lpToken = IERC20(_lpToken);\n    }\n\n    function initialize(uint256 _withdrawalWaitDuration) external initializer {\n        withdrawalWaitDuration = _withdrawalWaitDuration;\n        globalCheckpoint();\n    }\n\n    function startMining(\n        address rewardsFrom,\n        uint256 amount,\n        uint256 endTime\n    ) external override onlyOwner {\n        _startMining(rewardsFrom, amount, endTime);\n    }\n\n    function stopMining(address reimbursementTo) external override onlyOwner {\n        _stopMining(reimbursementTo);\n    }\n\n    function setWithdrawalWaitDuration(uint256 _duration) external onlyOwner {\n        withdrawalWaitDuration = _duration;\n    }\n\n    function deposit(uint256 _amount) external {\n        deposit(_amount, msg.sender);\n    }\n\n    function deposit(uint256 _amount, address _delegate) public {\n        require(_delegate != address(0), \"no delegation to 0\");\n        require(_amount > 0, \"cannot deposit zero _amount\");\n\n        lpToken.transferFrom(msg.sender, address(this), _amount);\n        VotingPowerHistory.Record memory current = history.currentRecord(\n            msg.sender\n        );\n        history.updateVotingPower(\n            msg.sender,\n            current.baseVotingPower + _amount,\n            current.multiplier,\n            current.netDelegatedVotes\n        );\n        if (_delegate != address(0) && _delegate != msg.sender) {\n            _delegateVote(msg.sender, _delegate, _amount);\n        }\n        totalSupply += _amount;\n        _stake(msg.sender, _amount);\n\n        emit Deposit(msg.sender, _delegate, _amount);\n    }\n\n    function initiateWithdrawal(\n        uint256 _amount,\n        address _delegate\n    ) external returns (uint256) {\n        require(_amount >= 0, \"invalid withdrawal amount\");\n\n        VotingPowerHistory.Record memory currentVotingPower = history\n            .currentRecord(msg.sender);\n        require(\n            currentVotingPower.baseVotingPower >= _amount,\n            \"not enough to undelegate\"\n        );\n        history.updateVotingPower(\n            msg.sender,\n            currentVotingPower.baseVotingPower - _amount,\n            currentVotingPower.multiplier,\n            currentVotingPower.netDelegatedVotes\n        );\n        if (_delegate != address(0) && _delegate != msg.sender) {\n            _undelegateVote(msg.sender, _delegate, _amount);\n        }\n        totalSupply -= _amount;\n        _unstake(msg.sender, _amount);\n\n        DataTypes.PendingWithdrawal memory withdrawal = DataTypes\n            .PendingWithdrawal({\n                id: nextWithdrawalId,\n                withdrawableAt: block.timestamp + withdrawalWaitDuration,\n                amount: _amount,\n                to: msg.sender,\n                delegate: _delegate\n            });\n        pendingWithdrawals[withdrawal.id] = withdrawal;\n        userPendingWithdrawalIds[msg.sender].add(withdrawal.id);\n        nextWithdrawalId++;\n\n        emit WithdrawalQueued(\n            withdrawal.id,\n            withdrawal.to,\n            withdrawal.delegate,\n            withdrawal.withdrawableAt,\n            withdrawal.amount\n        );\n\n        return withdrawal.id;\n    }\n\n    function withdraw(uint256 withdrawalId) external {\n        DataTypes.PendingWithdrawal memory pending = pendingWithdrawals[\n            withdrawalId\n        ];\n        require(pending.to == msg.sender, \"matching withdrawal does not exist\");\n        require(\n            pending.withdrawableAt <= block.timestamp,\n            \"no valid pending withdrawal\"\n        );\n\n        lpToken.transfer(pending.to, pending.amount);\n\n        delete pendingWithdrawals[withdrawalId];\n        userPendingWithdrawalIds[pending.to].remove(withdrawalId);\n\n        emit WithdrawalCompleted(withdrawalId, pending.to, pending.amount);\n    }\n\n    function getRawVotingPower(\n        address _user,\n        uint256 timestamp\n    ) public view override returns (uint256) {\n        return history.getVotingPower(_user, timestamp);\n    }\n\n    function getTotalRawVotingPower() public view override returns (uint256) {\n        return totalSupply;\n    }\n\n    function listPendingWithdrawals(\n        address _user\n    ) external view returns (DataTypes.PendingWithdrawal[] memory) {\n        EnumerableSet.UintSet storage ids = userPendingWithdrawalIds[_user];\n        DataTypes.PendingWithdrawal[]\n            memory pending = new DataTypes.PendingWithdrawal[](ids.length());\n        for (uint256 i = 0; i < ids.length(); i++) {\n            pending[i] = pendingWithdrawals[ids.at(i)];\n        }\n        return pending;\n    }\n}\n","sourcePath":"contracts/vaults/LPVault.sol","type":"contract","deployment":{"address":"0xcDE293e7b3a47ccC1Fe1B22bdD670eaEF99fdbC5","chainid":"137","blockHeight":45202338}}