{"abi":[{"inputs":[{"internalType":"address","name":"_owner","type":"address"},{"internalType":"address","name":"_lpToken","type":"address"},{"internalType":"address","name":"_rewardsToken","type":"address"}],"stateMutability":"nonpayable","type":"constructor","name":"constructor"},{"inputs":[{"internalType":"address","name":"actual","type":"address"},{"internalType":"address","name":"expected","type":"address"}],"name":"NotAuthorized","type":"error"},{"inputs":[],"name":"ZeroDivision","type":"error"},{"anonymous":false,"inputs":[{"indexed":true,"internalType":"address","name":"beneficiary","type":"address"},{"indexed":false,"internalType":"uint256","name":"amount","type":"uint256"}],"name":"Claim","type":"event"},{"anonymous":false,"inputs":[{"indexed":false,"internalType":"address","name":"from","type":"address"},{"indexed":false,"internalType":"address","name":"delegate","type":"address"},{"indexed":false,"internalType":"uint256","name":"amount","type":"uint256"}],"name":"Deposit","type":"event"},{"anonymous":false,"inputs":[{"indexed":false,"internalType":"uint8","name":"version","type":"uint8"}],"name":"Initialized","type":"event"},{"anonymous":false,"inputs":[{"indexed":true,"internalType":"address","name":"account","type":"address"},{"indexed":false,"internalType":"uint256","name":"amount","type":"uint256"}],"name":"Stake","type":"event"},{"anonymous":false,"inputs":[{"indexed":false,"internalType":"uint256","name":"amount","type":"uint256"},{"indexed":false,"internalType":"uint256","name":"endTime","type":"uint256"}],"name":"StartMining","type":"event"},{"anonymous":false,"inputs":[],"name":"StopMining","type":"event"},{"anonymous":false,"inputs":[{"indexed":true,"internalType":"address","name":"account","type":"address"},{"indexed":false,"internalType":"uint256","name":"amount","type":"uint256"}],"name":"Unstake","type":"event"},{"anonymous":false,"inputs":[{"indexed":false,"internalType":"address","name":"delegator","type":"address"},{"indexed":false,"internalType":"address","name":"delegate","type":"address"},{"indexed":false,"internalType":"uint256","name":"amount","type":"uint256"}],"name":"VotesDelegated","type":"event"},{"anonymous":false,"inputs":[{"indexed":false,"internalType":"address","name":"delegator","type":"address"},{"indexed":false,"internalType":"address","name":"delegate","type":"address"},{"indexed":false,"internalType":"uint256","name":"amount","type":"uint256"}],"name":"VotesUndelegated","type":"event"},{"anonymous":false,"inputs":[{"indexed":false,"internalType":"address","name":"to","type":"address"},{"indexed":false,"internalType":"uint256","name":"amount","type":"uint256"}],"name":"WithdrawalCompleted","type":"event"},{"anonymous":false,"inputs":[{"indexed":false,"internalType":"uint256","name":"id","type":"uint256"},{"indexed":false,"internalType":"address","name":"to","type":"address"},{"indexed":false,"internalType":"address","name":"delegate","type":"address"},{"indexed":false,"internalType":"uint256","name":"withdrawalAt","type":"uint256"},{"indexed":false,"internalType":"uint256","name":"amount","type":"uint256"}],"name":"WithdrawalQueued","type":"event"},{"inputs":[{"internalType":"address","name":"_oldDelegate","type":"address"},{"internalType":"address","name":"_newDelegate","type":"address"},{"internalType":"uint256","name":"_amount","type":"uint256"}],"name":"changeDelegate","outputs":[],"stateMutability":"nonpayable","type":"function"},{"inputs":[],"name":"claimRewards","outputs":[{"internalType":"uint256","name":"","type":"uint256"}],"stateMutability":"nonpayable","type":"function"},{"inputs":[{"internalType":"address","name":"beneficiary","type":"address"}],"name":"claimableRewards","outputs":[{"internalType":"uint256","name":"","type":"uint256"}],"stateMutability":"view","type":"function"},{"inputs":[{"internalType":"address","name":"_delegate","type":"address"},{"internalType":"uint256","name":"_amount","type":"uint256"}],"name":"delegateVote","outputs":[],"stateMutability":"nonpayable","type":"function"},{"inputs":[{"internalType":"uint256","name":"_amount","type":"uint256"},{"internalType":"address","name":"_delegate","type":"address"}],"name":"deposit","outputs":[],"stateMutability":"nonpayable","type":"function"},{"inputs":[{"internalType":"uint256","name":"_amount","type":"uint256"}],"name":"deposit","outputs":[],"stateMutability":"nonpayable","type":"function"},{"inputs":[{"internalType":"address","name":"account","type":"address"}],"name":"getDelegations","outputs":[{"components":[{"internalType":"address","name":"delegate","type":"address"},{"internalType":"uint256","name":"amount","type":"uint256"}],"internalType":"struct DataTypes.Delegation[]","name":"delegations","type":"tuple[]"}],"stateMutability":"view","type":"function"},{"inputs":[{"internalType":"address","name":"account","type":"address"}],"name":"getRawVotingPower","outputs":[{"internalType":"uint256","name":"","type":"uint256"}],"stateMutability":"view","type":"function"},{"inputs":[{"internalType":"address","name":"_user","type":"address"},{"internalType":"uint256","name":"timestamp","type":"uint256"}],"name":"getRawVotingPower","outputs":[{"internalType":"uint256","name":"","type":"uint256"}],"stateMutability":"view","type":"function"},{"inputs":[],"name":"getTotalRawVotingPower","outputs":[{"internalType":"uint256","name":"","type":"uint256"}],"stateMutability":"view","type":"function"},{"inputs":[],"name":"globalCheckpoint","outputs":[],"stateMutability":"nonpayable","type":"function"},{"inputs":[{"internalType":"uint256","name":"_withdrawalWaitDuration","type":"uint256"}],"name":"initialize","outputs":[],"stateMutability":"nonpayable","type":"function"},{"inputs":[{"internalType":"uint256","name":"_amount","type":"uint256"},{"internalType":"address","name":"_delegate","type":"address"}],"name":"initiateWithdrawal","outputs":[{"internalType":"uint256","name":"","type":"uint256"}],"stateMutability":"nonpayable","type":"function"},{"inputs":[{"internalType":"address","name":"_user","type":"address"}],"name":"listPendingWithdrawals","outputs":[{"components":[{"internalType":"uint256","name":"id","type":"uint256"},{"internalType":"uint256","name":"withdrawableAt","type":"uint256"},{"internalType":"uint256","name":"amount","type":"uint256"},{"internalType":"address","name":"to","type":"address"},{"internalType":"address","name":"delegate","type":"address"}],"internalType":"struct DataTypes.PendingWithdrawal[]","name":"","type":"tuple[]"}],"stateMutability":"view","type":"function"},{"inputs":[],"name":"owner","outputs":[{"internalType":"address","name":"","type":"address"}],"stateMutability":"view","type":"function"},{"inputs":[],"name":"rewardToken","outputs":[{"internalType":"contract IERC20","name":"","type":"address"}],"stateMutability":"view","type":"function"},{"inputs":[],"name":"rewardsEmissionEndTime","outputs":[{"internalType":"uint256","name":"","type":"uint256"}],"stateMutability":"view","type":"function"},{"inputs":[],"name":"rewardsEmissionRate","outputs":[{"internalType":"uint256","name":"","type":"uint256"}],"stateMutability":"view","type":"function"},{"inputs":[{"internalType":"uint256","name":"_duration","type":"uint256"}],"name":"setWithdrawalWaitDuration","outputs":[],"stateMutability":"nonpayable","type":"function"},{"inputs":[{"internalType":"address","name":"account","type":"address"}],"name":"stakedBalanceOf","outputs":[{"internalType":"uint256","name":"","type":"uint256"}],"stateMutability":"view","type":"function"},{"inputs":[{"internalType":"address","name":"rewardsFrom","type":"address"},{"internalType":"uint256","name":"amount","type":"uint256"},{"internalType":"uint256","name":"endTime","type":"uint256"}],"name":"startMining","outputs":[],"stateMutability":"nonpayable","type":"function"},{"inputs":[{"internalType":"address","name":"reimbursementTo","type":"address"}],"name":"stopMining","outputs":[],"stateMutability":"nonpayable","type":"function"},{"inputs":[],"name":"totalStaked","outputs":[{"internalType":"uint256","name":"","type":"uint256"}],"stateMutability":"view","type":"function"},{"inputs":[],"name":"totalSupply","outputs":[{"internalType":"uint256","name":"","type":"uint256"}],"stateMutability":"view","type":"function"},{"inputs":[{"internalType":"address","name":"_delegate","type":"address"},{"internalType":"uint256","name":"_amount","type":"uint256"}],"name":"undelegateVote","outputs":[],"stateMutability":"nonpayable","type":"function"},{"inputs":[{"internalType":"address","name":"account","type":"address"}],"name":"userCheckpoint","outputs":[],"stateMutability":"nonpayable","type":"function"},{"inputs":[{"internalType":"uint256","name":"withdrawalId","type":"uint256"}],"name":"withdraw","outputs":[],"stateMutability":"nonpayable","type":"function"}],"bytecode":"60e06040523480156200001157600080fd5b5060405162002b5438038062002b54833981016040819052620000349162000072565b6001600160a01b0392831660805242600855821660a0521660c052620000bc565b80516001600160a01b03811681146200006d57600080fd5b919050565b6000806000606084860312156200008857600080fd5b620000938462000055565b9250620000a36020850162000055565b9150620000b36040850162000055565b90509250925092565b60805160a05160c051612a1b620001396000396000818161058c0152610bd40152600081816103b5015281816112e1015281816113230152818161193901526119bd01526000818161029001528181610870015281816108b20152818161103c0152818161107e015281816110bb01526110fd0152612a1b6000f3fe608060405234801561001057600080fd5b50600436106101a95760003560e01c8063926f7327116100f9578063dc01f60d11610097578063e9314c7311610071578063e9314c731461038a578063f10708961461039d578063f7c618c1146103b0578063fe4b84df146103d757600080fd5b8063dc01f60d14610351578063de1ec40314610364578063e2fcf5501461037757600080fd5b8063b07b709b116100d3578063b07b709b146102f8578063b6b55f251461030b578063c24ab3bb1461031e578063cead04811461033e57600080fd5b8063926f7327146102ca57806397a04d5a146102dd5780639f1acf08146102e557600080fd5b8063372500ab116101665780635443812711610140578063544381271461025c5780636e553f651461026f578063817b1cd2146102825780638da5cb5b1461028b57600080fd5b8063372500ab146102385780634a62c9fb146102405780634ba9699e1461024957600080fd5b806316765391146101ae57806318160ddd146101ea5780631ac40e66146101f35780632e1a7d4d146101fd57806331cc13ba14610210578063344ff1d014610230575b600080fd5b6101d76101bc36600461263a565b6001600160a01b03166000908152600c602052604090205490565b6040519081526020015b60405180910390f35b6101d760135481565b6101fb6103ea565b005b6101fb61020b366004612655565b61045f565b61022361021e36600461263a565b6106cb565b6040516101e1919061266e565b6013546101d7565b6101d76107c6565b6101d7600e5481565b6101fb6102573660046126c6565b610865565b6101d761026a3660046126f9565b6108ef565b6101fb61027d3660046126f9565b610b22565b6101d760065481565b6102b27f000000000000000000000000000000000000000000000000000000000000000081565b6040516001600160a01b0390911681526020016101e1565b6101fb6102d8366004612725565b610d08565b6101d7610d17565b6101d76102f336600461263a565b610d30565b6101fb61030636600461263a565b610d3c565b6101fb610319366004612655565b610dd7565b61033161032c36600461263a565b610de4565b6040516101e1919061274f565b6101fb61034c3660046127bf565b610f4b565b6101d761035f36600461263a565b610f61565b6101d7610372366004612725565b611018565b6101fb610385366004612725565b611026565b6101fb610398366004612655565b611031565b6101fb6103ab36600461263a565b6110b0565b6102b27f000000000000000000000000000000000000000000000000000000000000000081565b6101fb6103e5366004612655565b611133565b6006548015610458576000600854426104039190612811565b9050600081610410610d17565b61041a9190612824565b90506104268184611242565b60076000828254610437919061283b565b925050819055508060096000828254610450919061283b565b909155505050505b5042600855565b600081815260116020908152604091829020825160a0810184528154815260018201549281019290925260028101549282019290925260038201546001600160a01b03908116606083018190526004909301541660808201529033146105175760405162461bcd60e51b815260206004820152602260248201527f6d61746368696e67207769746864726177616c20646f6573206e6f74206578696044820152611cdd60f21b60648201526084015b60405180910390fd5b428160200151111561056b5760405162461bcd60e51b815260206004820152601b60248201527f6e6f2076616c69642070656e64696e67207769746864726177616c0000000000604482015260640161050e565b6060810151604080830151905163a9059cbb60e01b81526001600160a01b037f0000000000000000000000000000000000000000000000000000000000000000169263a9059cbb926105d3926004016001600160a01b03929092168252602082015260400190565b6020604051808303816000875af11580156105f2573d6000803e3d6000fd5b505050506040513d601f19601f82011682018060405250810190610616919061284e565b50600082815260116020908152604080832083815560018101849055600281018490556003810180546001600160a01b031990811690915560049091018054909116905560608401516001600160a01b031683526010909152902061067b908361129d565b50606081015160408083015181516001600160a01b03909316835260208301527f1a39b9c5044b9f0ff56c5951e30c1ebe24911353aafcceb9250e83a24fe158c491015b60405180910390a15050565b6001600160a01b03811660009081526005602052604081206060916106ef826112a9565b90508067ffffffffffffffff81111561070a5761070a612870565b60405190808252806020026020018201604052801561074f57816020015b60408051808201909152600080825260208201528152602001906001900390816107285790505b50925060005b818110156107be5760008061076a85846112b4565b915091506040518060400160405280836001600160a01b031681526020018281525086848151811061079e5761079e612886565b6020026020010181905250505080806107b69061289c565b915050610755565b505050919050565b60006107d133610d3c565b336000908152600b6020526040812054908190036107f157600091505090565b336000818152600b602052604080822091909155517f47cee97cb7acd717b3c0aa1435d004cd5b3c8c57d70dbceb4e4458bbd60e39d4906108359084815260200190565b60405180910390a2806009600082825461084f9190612811565b9091555061085f905033826112d2565b91505090565b336001600160a01b037f000000000000000000000000000000000000000000000000000000000000000016146108df5760405163c55ddc9760e01b81523360048201526001600160a01b037f000000000000000000000000000000000000000000000000000000000000000016602482015260440161050e565b6108ea83838361130e565b505050565b6000806108fd60013361139d565b905083816020015110156109535760405162461bcd60e51b815260206004820152601860248201527f6e6f7420656e6f75676820746f20756e64656c65676174650000000000000000604482015260640161050e565b61097c338583602001516109679190612811565b604084015160608501516001939291906114a3565b506001600160a01b0383161580159061099e57506001600160a01b0383163314155b156109ae576109ae3384866115e7565b83601360008282546109c09190612811565b909155506109d09050338561167c565b60006040518060a001604052806012548152602001600f54426109f3919061283b565b815260208082018890523360408084018290526001600160a01b0389811660609586015285516000908152601185528281208751808255888701516001830155888501516002830155968801516003820180549185166001600160a01b031992831617905560808901516004909201805492909416911617909155918252601090925220919250610a84919061170e565b5060128054906000610a958361289c565b91905055507f20849eb8a3d11461c2f45d1330d7cdfdcf0359148aaa26d84af32b9596e32b9481600001518260600151836080015184602001518560400151604051610b0f9594939291909485526001600160a01b0393841660208601529190921660408401526060830191909152608082015260a00190565b60405180910390a1519150505b92915050565b6001600160a01b038116610b6d5760405162461bcd60e51b815260206004820152601260248201527106e6f2064656c65676174696f6e20746f20360741b604482015260640161050e565b60008211610bbd5760405162461bcd60e51b815260206004820152601b60248201527f63616e6e6f74206465706f736974207a65726f205f616d6f756e740000000000604482015260640161050e565b6040516323b872dd60e01b81526001600160a01b037f000000000000000000000000000000000000000000000000000000000000000016906323b872dd90610c0d903390309087906004016128b5565b6020604051808303816000875af1158015610c2c573d6000803e3d6000fd5b505050506040513d601f19601f82011682018060405250810190610c50919061284e565b506000610c5e60013361139d565b9050610c7433848360200151610967919061283b565b506001600160a01b03821615801590610c9657506001600160a01b0382163314155b15610ca657610ca633838561171a565b8260136000828254610cb8919061283b565b90915550610cc890503384611795565b7f5548c837ab068cf56a2c2479df0882a4922fd203edb7517321831d95078c5f62338385604051610cfb939291906128b5565b60405180910390a1505050565b610d1333838361171a565b5050565b6000600e54421115610d295750600090565b50600d5490565b6000610b1c8242611018565b610d446103ea565b6007546001600160a01b0382166000908152600a6020526040902054610d8e90610d6e9083612811565b6001600160a01b0384166000908152600c60205260409020545b9061181d565b6001600160a01b0383166000908152600b602052604081208054909190610db690849061283b565b90915550506001600160a01b039091166000908152600a6020526040902055565b610de18133610b22565b50565b6001600160a01b0381166000908152601060205260408120606091610e0882611846565b67ffffffffffffffff811115610e2057610e20612870565b604051908082528060200260200182016040528015610e9557816020015b610e826040518060a0016040528060008152602001600081526020016000815260200160006001600160a01b0316815260200160006001600160a01b031681525090565b815260200190600190039081610e3e5790505b50905060005b610ea483611846565b811015610f435760116000610eb98584611850565b81526020808201929092526040908101600020815160a0810183528154815260018201549381019390935260028101549183019190915260038101546001600160a01b0390811660608401526004909101541660808201528251839083908110610f2557610f25612886565b60200260200101819052508080610f3b9061289c565b915050610e9b565b509392505050565b610f563384836115e7565b6108ea33838361171a565b6007546006546000919015610fa957610f9c60065460085442610f849190612811565b610f8c610d17565b610f969190612824565b90611242565b610fa6908261283b565b90505b6001600160a01b0383166000908152600a6020526040902054610fee90610fd09083612811565b6001600160a01b0385166000908152600c6020526040902054610d88565b6001600160a01b0384166000908152600b6020526040902054611011919061283b565b9392505050565b60006110116001848461185c565b610d133383836115e7565b336001600160a01b037f000000000000000000000000000000000000000000000000000000000000000016146110ab5760405163c55ddc9760e01b81523360048201526001600160a01b037f000000000000000000000000000000000000000000000000000000000000000016602482015260440161050e565b600f55565b336001600160a01b037f0000000000000000000000000000000000000000000000000000000000000000161461112a5760405163c55ddc9760e01b81523360048201526001600160a01b037f000000000000000000000000000000000000000000000000000000000000000016602482015260440161050e565b610de18161190d565b600054610100900460ff16158080156111535750600054600160ff909116105b8061116d5750303b15801561116d575060005460ff166001145b6111d05760405162461bcd60e51b815260206004820152602e60248201527f496e697469616c697a61626c653a20636f6e747261637420697320616c72656160448201526d191e481a5b9a5d1a585b1a5e995960921b606482015260840161050e565b6000805460ff1916600117905580156111f3576000805461ff0019166101001790555b600f8290556112006103ea565b8015610d13576000805461ff0019169055604051600181527f7f26b83ff96e1f2b6a682f133852f6798a09c465da95921460cefb3847402498906020016106bf565b60008160000361126557604051630a0c22c760e01b815260040160405180910390fd5b8260000361127557506000610b1c565b6000611289670de0b6b3a764000085612824565b905061129583826128d9565b915050610b1c565b60006110118383611a16565b6000610b1c82611b09565b60008080806112c38686611b14565b909450925050505b9250929050565b60006113086001600160a01b037f0000000000000000000000000000000000000000000000000000000000000000168484611b3f565b50919050565b6113166103ea565b61134b6001600160a01b037f000000000000000000000000000000000000000000000000000000000000000016843085611ba2565b6113554282612811565b61135f90836128d9565b600d55600e81905560408051838152602081018390527f76554fac4477e8876b3de3af392cf374cf4e9de02ae78fbade2373107381fe509101610cfb565b6113c86040518060800160405280600081526020016000815260200160008152602001600081525090565b6001600160a01b03821660009081526020848152604080832080548251818502810185019093528083529192909190849084015b828210156114565783829060005260206000209060040201604051806080016040529081600082015481526020016001820154815260200160028201548152602001600382015481525050815260200190600101906113fc565b505050509050805160000361146d57611295611bc3565b806001825161147c9190612811565b8151811061148c5761148c612886565b6020026020010151915050610b1c565b5092915050565b6114ce6040518060800160405280600081526020016000815260200160008152602001600081525090565b6001600160a01b03851660009081526020878152604080832081516080810183524281529283018890529082018690526060820185905291611510898961139d565b8051909150421480156115235750825415155b156115885782548290849061153a90600190612811565b8154811061154a5761154a612886565b9060005260206000209060040201600082015181600001556020820151816001015560408201518160020155606082015181600301559050506115db565b6001600160a01b038816600090815260208a815260408083208054600181810183559185529383902086516004909502019384559185015191830191909155830151600282015560608301516003909101555b50979650505050505050565b6115f46001848484611c1f565b6001600160a01b03831660009081526005602052604081206116169084611dfc565b9050818103611647576001600160a01b03841660009081526005602052604090206116419084611e11565b50611676565b611674836116558484612811565b6001600160a01b03871660009081526005602052604090209190611e26565b505b50505050565b61168582610d3c565b6001600160a01b0382166000908152600c6020526040812080548392906116ad908490612811565b9250508190555080600660008282546116c69190612811565b90915550506040518181526001600160a01b038316907f85082129d87b2fe11527cb1b3b7a520aeb5aa6913f88a3d8757fe40d1db02fdd906020015b60405180910390a25050565b60006110118383611e3c565b6117276001848484611e8b565b6001600160a01b0383166000908152600560205260408120819061174b908561205c565b9150915060008261175c5783611766565b611766848361283b565b6001600160a01b038716600090815260056020526040902090915061178c908683611e26565b50505050505050565b61179e82610d3c565b80600660008282546117b0919061283b565b90915550506001600160a01b0382166000908152600c6020526040812080548392906117dd90849061283b565b90915550506040518181526001600160a01b038316907febedb8b3c678666e7f36970bc8f57abf6d8fa2e828c0da91ea5b75bf68ed101a90602001611702565b60008061182a8385612824565b905061183e670de0b6b3a7640000826128d9565b949350505050565b6000610b1c825490565b60006110118383612074565b6001600160a01b038216600090815260208481526040808320805482518185028101850190935280835284936118f893929190859084015b828210156118ee578382906000526020600020906004020160405180608001604052908160008201548152602001600182015481526020016002820154815260200160038201548152505081526020019060010190611894565b505050508461209e565b915050611904816120e4565b95945050505050565b6119156103ea565b6009546040516370a0823160e01b8152306004820152600091906001600160a01b037f000000000000000000000000000000000000000000000000000000000000000016906370a0823190602401602060405180830381865afa158015611980573d6000803e3d6000fd5b505050506040513d601f19601f820116820180604052508101906119a491906128fb565b6119ae9190612811565b90506119e46001600160a01b037f0000000000000000000000000000000000000000000000000000000000000000168383611b3f565b6000600e8190556040517fe5a0e15e63edb96a15ed99a9c2a3674e2e0bd1b10b65d0223cce19a6b54e7fb19190a15050565b60008181526001830160205260408120548015611aff576000611a3a600183612811565b8554909150600090611a4e90600190612811565b9050818114611ab3576000866000018281548110611a6e57611a6e612886565b9060005260206000200154905080876000018481548110611a9157611a91612886565b6000918252602080832090910192909255918252600188019052604090208390555b8554869080611ac457611ac4612914565b600190038181906000526020600020016000905590558560010160008681526020019081526020016000206000905560019350505050610b1c565b6000915050610b1c565b6000610b1c82611846565b60008080611b228585611850565b600081815260029690960160205260409095205494959350505050565b6040516001600160a01b0383166024820152604481018290526108ea90849063a9059cbb60e01b906064015b60408051601f198184030181529190526020810180516001600160e01b03166001600160e01b031990931692909217909152612110565b611676846323b872dd60e01b858585604051602401611b6b939291906128b5565b611bee6040518060800160405280600081526020016000815260200160008152602001600081525090565b60405180608001604052806000815260200160008152602001670de0b6b3a764000081526020016000815250905090565b6001600160a01b038084166000908152600186016020908152604080832093861683529290522054811115611ca85760405162461bcd60e51b815260206004820152602960248201527f7573657220686173206e6f742064656c65676174656420656e6f75676820746f6044820152682064656c656761746560b81b606482015260840161050e565b6001600160a01b038216600090815260038501602052604081208054839290611cd2908490612811565b90915550506001600160a01b038316600090815260028501602052604081208054839290611d01908490612811565b90915550506001600160a01b038084166000908152600186016020908152604080832093861683529290529081208054839290611d3f908490612811565b9091555060009050611d51858561139d565b9050611d7e8482602001518360400151611d74888a6121e290919063ffffffff16565b89939291906114a3565b506000611d8b868561139d565b9050611db88482602001518360400151611dae888b6121e290919063ffffffff16565b8a939291906114a3565b507fde5aa493a93d4351631c1991a0aeecfd52d6b51cf1b61f1a3c48f97e26808653858585604051611dec939291906128b5565b60405180910390a1505050505050565b6000611011836001600160a01b038416612214565b6000611011836001600160a01b038416612284565b600061183e846001600160a01b038516846122a1565b6000818152600183016020526040812054611e8357508154600181810184556000848152602080822090930184905584548482528286019093526040902091909155610b1c565b506000610b1c565b6000611e97858561139d565b6001600160a01b038516600090815260028701602090815260408083205490840151918401519394509192611ecb916122be565b611ed59190612811565b905082811015611f275760405162461bcd60e51b815260206004820181905260248201527f696e73756666696369656e742062616c616e636520746f2064656c6567617465604482015260640161050e565b6001600160a01b038416600090815260038701602052604081208054859290611f5190849061283b565b90915550506001600160a01b038516600090815260028701602052604081208054859290611f8090849061283b565b90915550506001600160a01b038086166000908152600188016020908152604080832093881683529290529081208054859290611fbe90849061283b565b909155505060208201516040830151611fdd918791611dae8a846121e2565b506000611fea878661139d565b9050612017858260200151836040015161200d898c6121e290919063ffffffff16565b8b939291906114a3565b507fff825f9424124effc5ce1d9f4803d58ede8a2bda4da2324810f74834715c4c5986868660405161204b939291906128b5565b60405180910390a150505050505050565b60008080806112c3866001600160a01b0387166122dd565b600082600001828154811061208b5761208b612886565b9060005260206000200154905092915050565b60006120cb6040518060800160405280600081526020016000815260200160008152602001600081525090565b6120d9848460008751612317565b915091509250929050565b60008160600151612106836040015184602001516122be90919063ffffffff16565b610b1c919061292a565b6000612165826040518060400160405280602081526020017f5361666545524332303a206c6f772d6c6576656c2063616c6c206661696c6564815250856001600160a01b03166124729092919063ffffffff16565b8051909150156108ea5780806020019051810190612183919061284e565b6108ea5760405162461bcd60e51b815260206004820152602a60248201527f5361666545524332303a204552433230206f7065726174696f6e20646964206e6044820152691bdd081cdd58d8d9595960b21b606482015260840161050e565b6001600160a01b0381166000908152600283016020908152604080832054600386019092528220546110119190612952565b60008181526002830160205260408120548015158061223857506122388484612481565b6110115760405162461bcd60e51b815260206004820152601e60248201527f456e756d657261626c654d61703a206e6f6e6578697374656e74206b65790000604482015260640161050e565b60008181526002830160205260408120819055611011838361129d565b6000828152600284016020526040812082905561183e848461170e565b6000670de0b6b3a76400006122d38385612824565b61101191906128d9565b600081815260028301602052604081205481908061230c576122ff8585612481565b9250600091506112cb9050565b6001925090506112cb565b60006123446040518060800160405280600081526020016000815260200160008152602001600081525090565b82841061235e576000612355611bc3565b91509150612469565b6123688484612811565b6001036123b657600086858151811061238357612383612886565b6020026020010151905085816000015111156123a85760006123a3611bc3565b6123ac565b6001815b9250925050612469565b600060026123c4868661283b565b6123ce91906128d9565b90506000876123de600184612811565b815181106123ee576123ee612886565b60200260200101519050600088838151811061240c5761240c612886565b602002602001015190508782600001511115801561242a5750805188105b1561243d57506001935091506124699050565b8051881061245d5761245189898589612317565b94509450505050612469565b61245189898986612317565b94509492505050565b606061183e848460008561248d565b60006110118383612568565b6060824710156124ee5760405162461bcd60e51b815260206004820152602660248201527f416464726573733a20696e73756666696369656e742062616c616e636520666f6044820152651c8818d85b1b60d21b606482015260840161050e565b600080866001600160a01b0316858760405161250a9190612996565b60006040518083038185875af1925050503d8060008114612547576040519150601f19603f3d011682016040523d82523d6000602084013e61254c565b606091505b509150915061255d87838387612580565b979650505050505050565b60008181526001830160205260408120541515611011565b606083156125ef5782516000036125e8576001600160a01b0385163b6125e85760405162461bcd60e51b815260206004820152601d60248201527f416464726573733a2063616c6c20746f206e6f6e2d636f6e7472616374000000604482015260640161050e565b508161183e565b61183e83838151156126045781518083602001fd5b8060405162461bcd60e51b815260040161050e91906129b2565b80356001600160a01b038116811461263557600080fd5b919050565b60006020828403121561264c57600080fd5b6110118261261e565b60006020828403121561266757600080fd5b5035919050565b602080825282518282018190526000919060409081850190868401855b828110156126b957815180516001600160a01b0316855286015186850152928401929085019060010161268b565b5091979650505050505050565b6000806000606084860312156126db57600080fd5b6126e48461261e565b95602085013595506040909401359392505050565b6000806040838503121561270c57600080fd5b8235915061271c6020840161261e565b90509250929050565b6000806040838503121561273857600080fd5b6127418361261e565b946020939093013593505050565b602080825282518282018190526000919060409081850190868401855b828110156126b957815180518552868101518786015285810151868601526060808201516001600160a01b0390811691870191909152608091820151169085015260a0909301929085019060010161276c565b6000806000606084860312156127d457600080fd5b6127dd8461261e565b92506127eb6020850161261e565b9150604084013590509250925092565b634e487b7160e01b600052601160045260246000fd5b81810381811115610b1c57610b1c6127fb565b8082028115828204841417610b1c57610b1c6127fb565b80820180821115610b1c57610b1c6127fb565b60006020828403121561286057600080fd5b8151801515811461101157600080fd5b634e487b7160e01b600052604160045260246000fd5b634e487b7160e01b600052603260045260246000fd5b6000600182016128ae576128ae6127fb565b5060010190565b6001600160a01b039384168152919092166020820152604081019190915260600190565b6000826128f657634e487b7160e01b600052601260045260246000fd5b500490565b60006020828403121561290d57600080fd5b5051919050565b634e487b7160e01b600052603160045260246000fd5b808201828112600083128015821682158216171561294a5761294a6127fb565b505092915050565b818103600083128015838313168383128216171561149c5761149c6127fb565b60005b8381101561298d578181015183820152602001612975565b50506000910152565b600082516129a8818460208701612972565b9190910192915050565b60208152600082518060208401526129d1816040850160208701612972565b601f01601f1916919091016040019291505056fea2646970667358221220ed357675691cbb3beb12ba131d31ef222041dbd33ba7ffac1dd298f5ba8fa7e864736f6c63430008110033","bytecodeSha1":"c5697b8adbf314885514a013636c178b7f5a69ba","compiler":{"evm_version":"istanbul","optimizer":{"enabled":true,"runs":200},"version":"0.8.17+commit.8df45f5f"},"contractName":"LPVault","language":"Solidity","natspec":{"kind":"dev","methods":{"claimRewards()":{"notice":"claims rewards for caller"},"claimableRewards(address)":{"notice":"returns the amount of claimable rewards by `beneficiary`"},"globalCheckpoint()":{"details":"these functions will be called internally but can typically be called by anyone to update the internal tracking state of the contract"},"rewardsEmissionEndTime()":{"notice":"time when rewards emission ends"},"rewardsEmissionRate()":{"notice":"returns the number of rewards token that will be given per second for the contract This emission will be given to all stakers in the contract proportionally to their stake"},"stakedBalanceOf(address)":{"notice":"the amount of tokens staked by `account`"},"startMining(address,uint256,uint256)":{"notice":"Deposit `amount` of the reward token from `rewardsFrom` and enable rewards until `endTime`. Typically governanceOnly. `amount` is spread evenly over the time period."},"stopMining(address)":{"notice":"Stop liquidity mining early and reimburse leftover rewards to `reimbursementTo`. This may also be needed after the mining period has ended when we had `totalStaked() == 0` for a while, where no rewards accrue."},"totalStaked()":{"notice":"the total amount of tokens staked in the contract"}},"version":1},"opcodes":"PUSH1 0x80 PUSH1 0x40 MSTORE CALLVALUE DUP1 ISZERO PUSH2 0x10 JUMPI PUSH1 0x0 DUP1 REVERT JUMPDEST POP PUSH1 0x4 CALLDATASIZE LT PUSH2 0x1A9 JUMPI PUSH1 0x0 CALLDATALOAD PUSH1 0xE0 SHR DUP1 PUSH4 0x926F7327 GT PUSH2 0xF9 JUMPI DUP1 PUSH4 0xDC01F60D GT PUSH2 0x97 JUMPI DUP1 PUSH4 0xE9314C73 GT PUSH2 0x71 JUMPI DUP1 PUSH4 0xE9314C73 EQ PUSH2 0x38A JUMPI DUP1 PUSH4 0xF1070896 EQ PUSH2 0x39D JUMPI DUP1 PUSH4 0xF7C618C1 EQ PUSH2 0x3B0 JUMPI DUP1 PUSH4 0xFE4B84DF EQ PUSH2 0x3D7 JUMPI PUSH1 0x0 DUP1 REVERT JUMPDEST DUP1 PUSH4 0xDC01F60D EQ PUSH2 0x351 JUMPI DUP1 PUSH4 0xDE1EC403 EQ PUSH2 0x364 JUMPI DUP1 PUSH4 0xE2FCF550 EQ PUSH2 0x377 JUMPI PUSH1 0x0 DUP1 REVERT JUMPDEST DUP1 PUSH4 0xB07B709B GT PUSH2 0xD3 JUMPI DUP1 PUSH4 0xB07B709B EQ PUSH2 0x2F8 JUMPI DUP1 PUSH4 0xB6B55F25 EQ PUSH2 0x30B JUMPI DUP1 PUSH4 0xC24AB3BB EQ PUSH2 0x31E JUMPI DUP1 PUSH4 0xCEAD0481 EQ PUSH2 0x33E JUMPI PUSH1 0x0 DUP1 REVERT JUMPDEST DUP1 PUSH4 0x926F7327 EQ PUSH2 0x2CA JUMPI DUP1 PUSH4 0x97A04D5A EQ PUSH2 0x2DD JUMPI DUP1 PUSH4 0x9F1ACF08 EQ PUSH2 0x2E5 JUMPI PUSH1 0x0 DUP1 REVERT JUMPDEST DUP1 PUSH4 0x372500AB GT PUSH2 0x166 JUMPI DUP1 PUSH4 0x54438127 GT PUSH2 0x140 JUMPI DUP1 PUSH4 0x54438127 EQ PUSH2 0x25C JUMPI DUP1 PUSH4 0x6E553F65 EQ PUSH2 0x26F JUMPI DUP1 PUSH4 0x817B1CD2 EQ PUSH2 0x282 JUMPI DUP1 PUSH4 0x8DA5CB5B EQ PUSH2 0x28B JUMPI PUSH1 0x0 DUP1 REVERT JUMPDEST DUP1 PUSH4 0x372500AB EQ PUSH2 0x238 JUMPI DUP1 PUSH4 0x4A62C9FB EQ PUSH2 0x240 JUMPI DUP1 PUSH4 0x4BA9699E EQ PUSH2 0x249 JUMPI PUSH1 0x0 DUP1 REVERT JUMPDEST DUP1 PUSH4 0x16765391 EQ PUSH2 0x1AE JUMPI DUP1 PUSH4 0x18160DDD EQ PUSH2 0x1EA JUMPI DUP1 PUSH4 0x1AC40E66 EQ PUSH2 0x1F3 JUMPI DUP1 PUSH4 0x2E1A7D4D EQ PUSH2 0x1FD JUMPI DUP1 PUSH4 0x31CC13BA EQ PUSH2 0x210 JUMPI DUP1 PUSH4 0x344FF1D0 EQ PUSH2 0x230 JUMPI JUMPDEST PUSH1 0x0 DUP1 REVERT JUMPDEST PUSH2 0x1D7 PUSH2 0x1BC CALLDATASIZE PUSH1 0x4 PUSH2 0x263A JUMP JUMPDEST PUSH1 0x1 PUSH1 0x1 PUSH1 0xA0 SHL SUB AND PUSH1 0x0 SWAP1 DUP2 MSTORE PUSH1 0xC PUSH1 0x20 MSTORE PUSH1 0x40 SWAP1 KECCAK256 SLOAD SWAP1 JUMP JUMPDEST PUSH1 0x40 MLOAD SWAP1 DUP2 MSTORE PUSH1 0x20 ADD JUMPDEST PUSH1 0x40 MLOAD DUP1 SWAP2 SUB SWAP1 RETURN JUMPDEST PUSH2 0x1D7 PUSH1 0x13 SLOAD DUP2 JUMP JUMPDEST PUSH2 0x1FB PUSH2 0x3EA JUMP JUMPDEST STOP JUMPDEST PUSH2 0x1FB PUSH2 0x20B CALLDATASIZE PUSH1 0x4 PUSH2 0x2655 JUMP JUMPDEST PUSH2 0x45F JUMP JUMPDEST PUSH2 0x223 PUSH2 0x21E CALLDATASIZE PUSH1 0x4 PUSH2 0x263A JUMP JUMPDEST PUSH2 0x6CB JUMP JUMPDEST PUSH1 0x40 MLOAD PUSH2 0x1E1 SWAP2 SWAP1 PUSH2 0x266E JUMP JUMPDEST PUSH1 0x13 SLOAD PUSH2 0x1D7 JUMP JUMPDEST PUSH2 0x1D7 PUSH2 0x7C6 JUMP JUMPDEST PUSH2 0x1D7 PUSH1 0xE SLOAD DUP2 JUMP JUMPDEST PUSH2 0x1FB PUSH2 0x257 CALLDATASIZE PUSH1 0x4 PUSH2 0x26C6 JUMP JUMPDEST PUSH2 0x865 JUMP JUMPDEST PUSH2 0x1D7 PUSH2 0x26A CALLDATASIZE PUSH1 0x4 PUSH2 0x26F9 JUMP JUMPDEST PUSH2 0x8EF JUMP JUMPDEST PUSH2 0x1FB PUSH2 0x27D CALLDATASIZE PUSH1 0x4 PUSH2 0x26F9 JUMP JUMPDEST PUSH2 0xB22 JUMP JUMPDEST PUSH2 0x1D7 PUSH1 0x6 SLOAD DUP2 JUMP JUMPDEST PUSH2 0x2B2 PUSH32 0x0 DUP2 JUMP JUMPDEST PUSH1 0x40 MLOAD PUSH1 0x1 PUSH1 0x1 PUSH1 0xA0 SHL SUB SWAP1 SWAP2 AND DUP2 MSTORE PUSH1 0x20 ADD PUSH2 0x1E1 JUMP JUMPDEST PUSH2 0x1FB PUSH2 0x2D8 CALLDATASIZE PUSH1 0x4 PUSH2 0x2725 JUMP JUMPDEST PUSH2 0xD08 JUMP JUMPDEST PUSH2 0x1D7 PUSH2 0xD17 JUMP JUMPDEST PUSH2 0x1D7 PUSH2 0x2F3 CALLDATASIZE PUSH1 0x4 PUSH2 0x263A JUMP JUMPDEST PUSH2 0xD30 JUMP JUMPDEST PUSH2 0x1FB PUSH2 0x306 CALLDATASIZE PUSH1 0x4 PUSH2 0x263A JUMP JUMPDEST PUSH2 0xD3C JUMP JUMPDEST PUSH2 0x1FB PUSH2 0x319 CALLDATASIZE PUSH1 0x4 PUSH2 0x2655 JUMP JUMPDEST PUSH2 0xDD7 JUMP JUMPDEST PUSH2 0x331 PUSH2 0x32C CALLDATASIZE PUSH1 0x4 PUSH2 0x263A JUMP JUMPDEST PUSH2 0xDE4 JUMP JUMPDEST PUSH1 0x40 MLOAD PUSH2 0x1E1 SWAP2 SWAP1 PUSH2 0x274F JUMP JUMPDEST PUSH2 0x1FB PUSH2 0x34C CALLDATASIZE PUSH1 0x4 PUSH2 0x27BF JUMP JUMPDEST PUSH2 0xF4B JUMP JUMPDEST PUSH2 0x1D7 PUSH2 0x35F CALLDATASIZE PUSH1 0x4 PUSH2 0x263A JUMP JUMPDEST PUSH2 0xF61 JUMP JUMPDEST PUSH2 0x1D7 PUSH2 0x372 CALLDATASIZE PUSH1 0x4 PUSH2 0x2725 JUMP JUMPDEST PUSH2 0x1018 JUMP JUMPDEST PUSH2 0x1FB PUSH2 0x385 CALLDATASIZE PUSH1 0x4 PUSH2 0x2725 JUMP JUMPDEST PUSH2 0x1026 JUMP JUMPDEST PUSH2 0x1FB PUSH2 0x398 CALLDATASIZE PUSH1 0x4 PUSH2 0x2655 JUMP JUMPDEST PUSH2 0x1031 JUMP JUMPDEST PUSH2 0x1FB PUSH2 0x3AB CALLDATASIZE PUSH1 0x4 PUSH2 0x263A JUMP JUMPDEST PUSH2 0x10B0 JUMP JUMPDEST PUSH2 0x2B2 PUSH32 0x0 DUP2 JUMP JUMPDEST PUSH2 0x1FB PUSH2 0x3E5 CALLDATASIZE PUSH1 0x4 PUSH2 0x2655 JUMP JUMPDEST PUSH2 0x1133 JUMP JUMPDEST PUSH1 0x6 SLOAD DUP1 ISZERO PUSH2 0x458 JUMPI PUSH1 0x0 PUSH1 0x8 SLOAD TIMESTAMP PUSH2 0x403 SWAP2 SWAP1 PUSH2 0x2811 JUMP JUMPDEST SWAP1 POP PUSH1 0x0 DUP2 PUSH2 0x410 PUSH2 0xD17 JUMP JUMPDEST PUSH2 0x41A SWAP2 SWAP1 PUSH2 0x2824 JUMP JUMPDEST SWAP1 POP PUSH2 0x426 DUP2 DUP5 PUSH2 0x1242 JUMP JUMPDEST PUSH1 0x7 PUSH1 0x0 DUP3 DUP3 SLOAD PUSH2 0x437 SWAP2 SWAP1 PUSH2 0x283B JUMP JUMPDEST SWAP3 POP POP DUP2 SWAP1 SSTORE POP DUP1 PUSH1 0x9 PUSH1 0x0 DUP3 DUP3 SLOAD PUSH2 0x450 SWAP2 SWAP1 PUSH2 0x283B JUMP JUMPDEST SWAP1 SWAP2 SSTORE POP POP POP POP JUMPDEST POP TIMESTAMP PUSH1 0x8 SSTORE JUMP JUMPDEST PUSH1 0x0 DUP2 DUP2 MSTORE PUSH1 0x11 PUSH1 0x20 SWAP1 DUP2 MSTORE PUSH1 0x40 SWAP2 DUP3 SWAP1 KECCAK256 DUP3 MLOAD PUSH1 0xA0 DUP2 ADD DUP5 MSTORE DUP2 SLOAD DUP2 MSTORE PUSH1 0x1 DUP3 ADD SLOAD SWAP3 DUP2 ADD SWAP3 SWAP1 SWAP3 MSTORE PUSH1 0x2 DUP2 ADD SLOAD SWAP3 DUP3 ADD SWAP3 SWAP1 SWAP3 MSTORE PUSH1 0x3 DUP3 ADD SLOAD PUSH1 0x1 PUSH1 0x1 PUSH1 0xA0 SHL SUB SWAP1 DUP2 AND PUSH1 0x60 DUP4 ADD DUP2 SWAP1 MSTORE PUSH1 0x4 SWAP1 SWAP4 ADD SLOAD AND PUSH1 0x80 DUP3 ADD MSTORE SWAP1 CALLER EQ PUSH2 0x517 JUMPI PUSH1 0x40 MLOAD PUSH3 0x461BCD PUSH1 0xE5 SHL DUP2 MSTORE PUSH1 0x20 PUSH1 0x4 DUP3 ADD MSTORE PUSH1 0x22 PUSH1 0x24 DUP3 ADD MSTORE PUSH32 0x6D61746368696E67207769746864726177616C20646F6573206E6F7420657869 PUSH1 0x44 DUP3 ADD MSTORE PUSH2 0x1CDD PUSH1 0xF2 SHL PUSH1 0x64 DUP3 ADD MSTORE PUSH1 0x84 ADD JUMPDEST PUSH1 0x40 MLOAD DUP1 SWAP2 SUB SWAP1 REVERT JUMPDEST TIMESTAMP DUP2 PUSH1 0x20 ADD MLOAD GT ISZERO PUSH2 0x56B JUMPI PUSH1 0x40 MLOAD PUSH3 0x461BCD PUSH1 0xE5 SHL DUP2 MSTORE PUSH1 0x20 PUSH1 0x4 DUP3 ADD MSTORE PUSH1 0x1B PUSH1 0x24 DUP3 ADD MSTORE PUSH32 0x6E6F2076616C69642070656E64696E67207769746864726177616C0000000000 PUSH1 0x44 DUP3 ADD MSTORE PUSH1 0x64 ADD PUSH2 0x50E JUMP JUMPDEST PUSH1 0x60 DUP2 ADD MLOAD PUSH1 0x40 DUP1 DUP4 ADD MLOAD SWAP1 MLOAD PUSH4 0xA9059CBB PUSH1 0xE0 SHL DUP2 MSTORE PUSH1 0x1 PUSH1 0x1 PUSH1 0xA0 SHL SUB PUSH32 0x0 AND SWAP3 PUSH4 0xA9059CBB SWAP3 PUSH2 0x5D3 SWAP3 PUSH1 0x4 ADD PUSH1 0x1 PUSH1 0x1 PUSH1 0xA0 SHL SUB SWAP3 SWAP1 SWAP3 AND DUP3 MSTORE PUSH1 0x20 DUP3 ADD MSTORE PUSH1 0x40 ADD SWAP1 JUMP JUMPDEST PUSH1 0x20 PUSH1 0x40 MLOAD DUP1 DUP4 SUB DUP2 PUSH1 0x0 DUP8 GAS CALL ISZERO DUP1 ISZERO PUSH2 0x5F2 JUMPI RETURNDATASIZE PUSH1 0x0 DUP1 RETURNDATACOPY RETURNDATASIZE PUSH1 0x0 REVERT JUMPDEST POP POP POP POP PUSH1 0x40 MLOAD RETURNDATASIZE PUSH1 0x1F NOT PUSH1 0x1F DUP3 ADD AND DUP3 ADD DUP1 PUSH1 0x40 MSTORE POP DUP2 ADD SWAP1 PUSH2 0x616 SWAP2 SWAP1 PUSH2 0x284E JUMP JUMPDEST POP PUSH1 0x0 DUP3 DUP2 MSTORE PUSH1 0x11 PUSH1 0x20 SWAP1 DUP2 MSTORE PUSH1 0x40 DUP1 DUP4 KECCAK256 DUP4 DUP2 SSTORE PUSH1 0x1 DUP2 ADD DUP5 SWAP1 SSTORE PUSH1 0x2 DUP2 ADD DUP5 SWAP1 SSTORE PUSH1 0x3 DUP2 ADD DUP1 SLOAD PUSH1 0x1 PUSH1 0x1 PUSH1 0xA0 SHL SUB NOT SWAP1 DUP2 AND SWAP1 SWAP2 SSTORE PUSH1 0x4 SWAP1 SWAP2 ADD DUP1 SLOAD SWAP1 SWAP2 AND SWAP1 SSTORE PUSH1 0x60 DUP5 ADD MLOAD PUSH1 0x1 PUSH1 0x1 PUSH1 0xA0 SHL SUB AND DUP4 MSTORE PUSH1 0x10 SWAP1 SWAP2 MSTORE SWAP1 KECCAK256 PUSH2 0x67B SWAP1 DUP4 PUSH2 0x129D JUMP JUMPDEST POP PUSH1 0x60 DUP2 ADD MLOAD PUSH1 0x40 DUP1 DUP4 ADD MLOAD DUP2 MLOAD PUSH1 0x1 PUSH1 0x1 PUSH1 0xA0 SHL SUB SWAP1 SWAP4 AND DUP4 MSTORE PUSH1 0x20 DUP4 ADD MSTORE PUSH32 0x1A39B9C5044B9F0FF56C5951E30C1EBE24911353AAFCCEB9250E83A24FE158C4 SWAP2 ADD JUMPDEST PUSH1 0x40 MLOAD DUP1 SWAP2 SUB SWAP1 LOG1 POP POP JUMP JUMPDEST PUSH1 0x1 PUSH1 0x1 PUSH1 0xA0 SHL SUB DUP2 AND PUSH1 0x0 SWAP1 DUP2 MSTORE PUSH1 0x5 PUSH1 0x20 MSTORE PUSH1 0x40 DUP2 KECCAK256 PUSH1 0x60 SWAP2 PUSH2 0x6EF DUP3 PUSH2 0x12A9 JUMP JUMPDEST SWAP1 POP DUP1 PUSH8 0xFFFFFFFFFFFFFFFF DUP2 GT ISZERO PUSH2 0x70A JUMPI PUSH2 0x70A PUSH2 0x2870 JUMP JUMPDEST PUSH1 0x40 MLOAD SWAP1 DUP1 DUP3 MSTORE DUP1 PUSH1 0x20 MUL PUSH1 0x20 ADD DUP3 ADD PUSH1 0x40 MSTORE DUP1 ISZERO PUSH2 0x74F JUMPI DUP2 PUSH1 0x20 ADD JUMPDEST PUSH1 0x40 DUP1 MLOAD DUP1 DUP3 ADD SWAP1 SWAP2 MSTORE PUSH1 0x0 DUP1 DUP3 MSTORE PUSH1 0x20 DUP3 ADD MSTORE DUP2 MSTORE PUSH1 0x20 ADD SWAP1 PUSH1 0x1 SWAP1 SUB SWAP1 DUP2 PUSH2 0x728 JUMPI SWAP1 POP JUMPDEST POP SWAP3 POP PUSH1 0x0 JUMPDEST DUP2 DUP2 LT ISZERO PUSH2 0x7BE JUMPI PUSH1 0x0 DUP1 PUSH2 0x76A DUP6 DUP5 PUSH2 0x12B4 JUMP JUMPDEST SWAP2 POP SWAP2 POP PUSH1 0x40 MLOAD DUP1 PUSH1 0x40 ADD PUSH1 0x40 MSTORE DUP1 DUP4 PUSH1 0x1 PUSH1 0x1 PUSH1 0xA0 SHL SUB AND DUP2 MSTORE PUSH1 0x20 ADD DUP3 DUP2 MSTORE POP DUP7 DUP5 DUP2 MLOAD DUP2 LT PUSH2 0x79E JUMPI PUSH2 0x79E PUSH2 0x2886 JUMP JUMPDEST PUSH1 0x20 MUL PUSH1 0x20 ADD ADD DUP2 SWAP1 MSTORE POP POP POP DUP1 DUP1 PUSH2 0x7B6 SWAP1 PUSH2 0x289C JUMP JUMPDEST SWAP2 POP POP PUSH2 0x755 JUMP JUMPDEST POP POP POP SWAP2 SWAP1 POP JUMP JUMPDEST PUSH1 0x0 PUSH2 0x7D1 CALLER PUSH2 0xD3C JUMP JUMPDEST CALLER PUSH1 0x0 SWAP1 DUP2 MSTORE PUSH1 0xB PUSH1 0x20 MSTORE PUSH1 0x40 DUP2 KECCAK256 SLOAD SWAP1 DUP2 SWAP1 SUB PUSH2 0x7F1 JUMPI PUSH1 0x0 SWAP2 POP POP SWAP1 JUMP JUMPDEST CALLER PUSH1 0x0 DUP2 DUP2 MSTORE PUSH1 0xB PUSH1 0x20 MSTORE PUSH1 0x40 DUP1 DUP3 KECCAK256 SWAP2 SWAP1 SWAP2 SSTORE MLOAD PUSH32 0x47CEE97CB7ACD717B3C0AA1435D004CD5B3C8C57D70DBCEB4E4458BBD60E39D4 SWAP1 PUSH2 0x835 SWAP1 DUP5 DUP2 MSTORE PUSH1 0x20 ADD SWAP1 JUMP JUMPDEST PUSH1 0x40 MLOAD DUP1 SWAP2 SUB SWAP1 LOG2 DUP1 PUSH1 0x9 PUSH1 0x0 DUP3 DUP3 SLOAD PUSH2 0x84F SWAP2 SWAP1 PUSH2 0x2811 JUMP JUMPDEST SWAP1 SWAP2 SSTORE POP PUSH2 0x85F SWAP1 POP CALLER DUP3 PUSH2 0x12D2 JUMP JUMPDEST SWAP2 POP POP SWAP1 JUMP JUMPDEST CALLER PUSH1 0x1 PUSH1 0x1 PUSH1 0xA0 SHL SUB PUSH32 0x0 AND EQ PUSH2 0x8DF JUMPI PUSH1 0x40 MLOAD PUSH4 0xC55DDC97 PUSH1 0xE0 SHL DUP2 MSTORE CALLER PUSH1 0x4 DUP3 ADD MSTORE PUSH1 0x1 PUSH1 0x1 PUSH1 0xA0 SHL SUB PUSH32 0x0 AND PUSH1 0x24 DUP3 ADD MSTORE PUSH1 0x44 ADD PUSH2 0x50E JUMP JUMPDEST PUSH2 0x8EA DUP4 DUP4 DUP4 PUSH2 0x130E JUMP JUMPDEST POP POP POP JUMP JUMPDEST PUSH1 0x0 DUP1 PUSH2 0x8FD PUSH1 0x1 CALLER PUSH2 0x139D JUMP JUMPDEST SWAP1 POP DUP4 DUP2 PUSH1 0x20 ADD MLOAD LT ISZERO PUSH2 0x953 JUMPI PUSH1 0x40 MLOAD PUSH3 0x461BCD PUSH1 0xE5 SHL DUP2 MSTORE PUSH1 0x20 PUSH1 0x4 DUP3 ADD MSTORE PUSH1 0x18 PUSH1 0x24 DUP3 ADD MSTORE PUSH32 0x6E6F7420656E6F75676820746F20756E64656C65676174650000000000000000 PUSH1 0x44 DUP3 ADD MSTORE PUSH1 0x64 ADD PUSH2 0x50E JUMP JUMPDEST PUSH2 0x97C CALLER DUP6 DUP4 PUSH1 0x20 ADD MLOAD PUSH2 0x967 SWAP2 SWAP1 PUSH2 0x2811 JUMP JUMPDEST PUSH1 0x40 DUP5 ADD MLOAD PUSH1 0x60 DUP6 ADD MLOAD PUSH1 0x1 SWAP4 SWAP3 SWAP2 SWAP1 PUSH2 0x14A3 JUMP JUMPDEST POP PUSH1 0x1 PUSH1 0x1 PUSH1 0xA0 SHL SUB DUP4 AND ISZERO DUP1 ISZERO SWAP1 PUSH2 0x99E JUMPI POP PUSH1 0x1 PUSH1 0x1 PUSH1 0xA0 SHL SUB DUP4 AND CALLER EQ ISZERO JUMPDEST ISZERO PUSH2 0x9AE JUMPI PUSH2 0x9AE CALLER DUP5 DUP7 PUSH2 0x15E7 JUMP JUMPDEST DUP4 PUSH1 0x13 PUSH1 0x0 DUP3 DUP3 SLOAD PUSH2 0x9C0 SWAP2 SWAP1 PUSH2 0x2811 JUMP JUMPDEST SWAP1 SWAP2 SSTORE POP PUSH2 0x9D0 SWAP1 POP CALLER DUP6 PUSH2 0x167C JUMP JUMPDEST PUSH1 0x0 PUSH1 0x40 MLOAD DUP1 PUSH1 0xA0 ADD PUSH1 0x40 MSTORE DUP1 PUSH1 0x12 SLOAD DUP2 MSTORE PUSH1 0x20 ADD PUSH1 0xF SLOAD TIMESTAMP PUSH2 0x9F3 SWAP2 SWAP1 PUSH2 0x283B JUMP JUMPDEST DUP2 MSTORE PUSH1 0x20 DUP1 DUP3 ADD DUP9 SWAP1 MSTORE CALLER PUSH1 0x40 DUP1 DUP5 ADD DUP3 SWAP1 MSTORE PUSH1 0x1 PUSH1 0x1 PUSH1 0xA0 SHL SUB DUP10 DUP2 AND PUSH1 0x60 SWAP6 DUP7 ADD MSTORE DUP6 MLOAD PUSH1 0x0 SWAP1 DUP2 MSTORE PUSH1 0x11 DUP6 MSTORE DUP3 DUP2 KECCAK256 DUP8 MLOAD DUP1 DUP3 SSTORE DUP9 DUP8 ADD MLOAD PUSH1 0x1 DUP4 ADD SSTORE DUP9 DUP6 ADD MLOAD PUSH1 0x2 DUP4 ADD SSTORE SWAP7 DUP9 ADD MLOAD PUSH1 0x3 DUP3 ADD DUP1 SLOAD SWAP2 DUP6 AND PUSH1 0x1 PUSH1 0x1 PUSH1 0xA0 SHL SUB NOT SWAP3 DUP4 AND OR SWAP1 SSTORE PUSH1 0x80 DUP10 ADD MLOAD PUSH1 0x4 SWAP1 SWAP3 ADD DUP1 SLOAD SWAP3 SWAP1 SWAP5 AND SWAP2 AND OR SWAP1 SWAP2 SSTORE SWAP2 DUP3 MSTORE PUSH1 0x10 SWAP1 SWAP3 MSTORE KECCAK256 SWAP2 SWAP3 POP PUSH2 0xA84 SWAP2 SWAP1 PUSH2 0x170E JUMP JUMPDEST POP PUSH1 0x12 DUP1 SLOAD SWAP1 PUSH1 0x0 PUSH2 0xA95 DUP4 PUSH2 0x289C JUMP JUMPDEST SWAP2 SWAP1 POP SSTORE POP PUSH32 0x20849EB8A3D11461C2F45D1330D7CDFDCF0359148AAA26D84AF32B9596E32B94 DUP2 PUSH1 0x0 ADD MLOAD DUP3 PUSH1 0x60 ADD MLOAD DUP4 PUSH1 0x80 ADD MLOAD DUP5 PUSH1 0x20 ADD MLOAD DUP6 PUSH1 0x40 ADD MLOAD PUSH1 0x40 MLOAD PUSH2 0xB0F SWAP6 SWAP5 SWAP4 SWAP3 SWAP2 SWAP1 SWAP5 DUP6 MSTORE PUSH1 0x1 PUSH1 0x1 PUSH1 0xA0 SHL SUB SWAP4 DUP5 AND PUSH1 0x20 DUP7 ADD MSTORE SWAP2 SWAP1 SWAP3 AND PUSH1 0x40 DUP5 ADD MSTORE PUSH1 0x60 DUP4 ADD SWAP2 SWAP1 SWAP2 MSTORE PUSH1 0x80 DUP3 ADD MSTORE PUSH1 0xA0 ADD SWAP1 JUMP JUMPDEST PUSH1 0x40 MLOAD DUP1 SWAP2 SUB SWAP1 LOG1 MLOAD SWAP2 POP POP JUMPDEST SWAP3 SWAP2 POP POP JUMP JUMPDEST PUSH1 0x1 PUSH1 0x1 PUSH1 0xA0 SHL SUB DUP2 AND PUSH2 0xB6D JUMPI PUSH1 0x40 MLOAD PUSH3 0x461BCD PUSH1 0xE5 SHL DUP2 MSTORE PUSH1 0x20 PUSH1 0x4 DUP3 ADD MSTORE PUSH1 0x12 PUSH1 0x24 DUP3 ADD MSTORE PUSH18 0x6E6F2064656C65676174696F6E20746F203 PUSH1 0x74 SHL PUSH1 0x44 DUP3 ADD MSTORE PUSH1 0x64 ADD PUSH2 0x50E JUMP JUMPDEST PUSH1 0x0 DUP3 GT PUSH2 0xBBD JUMPI PUSH1 0x40 MLOAD PUSH3 0x461BCD PUSH1 0xE5 SHL DUP2 MSTORE PUSH1 0x20 PUSH1 0x4 DUP3 ADD MSTORE PUSH1 0x1B PUSH1 0x24 DUP3 ADD MSTORE PUSH32 0x63616E6E6F74206465706F736974207A65726F205F616D6F756E740000000000 PUSH1 0x44 DUP3 ADD MSTORE PUSH1 0x64 ADD PUSH2 0x50E JUMP JUMPDEST PUSH1 0x40 MLOAD PUSH4 0x23B872DD PUSH1 0xE0 SHL DUP2 MSTORE PUSH1 0x1 PUSH1 0x1 PUSH1 0xA0 SHL SUB PUSH32 0x0 AND SWAP1 PUSH4 0x23B872DD SWAP1 PUSH2 0xC0D SWAP1 CALLER SWAP1 ADDRESS SWAP1 DUP8 SWAP1 PUSH1 0x4 ADD PUSH2 0x28B5 JUMP JUMPDEST PUSH1 0x20 PUSH1 0x40 MLOAD DUP1 DUP4 SUB DUP2 PUSH1 0x0 DUP8 GAS CALL ISZERO DUP1 ISZERO PUSH2 0xC2C JUMPI RETURNDATASIZE PUSH1 0x0 DUP1 RETURNDATACOPY RETURNDATASIZE PUSH1 0x0 REVERT JUMPDEST POP POP POP POP PUSH1 0x40 MLOAD RETURNDATASIZE PUSH1 0x1F NOT PUSH1 0x1F DUP3 ADD AND DUP3 ADD DUP1 PUSH1 0x40 MSTORE POP DUP2 ADD SWAP1 PUSH2 0xC50 SWAP2 SWAP1 PUSH2 0x284E JUMP JUMPDEST POP PUSH1 0x0 PUSH2 0xC5E PUSH1 0x1 CALLER PUSH2 0x139D JUMP JUMPDEST SWAP1 POP PUSH2 0xC74 CALLER DUP5 DUP4 PUSH1 0x20 ADD MLOAD PUSH2 0x967 SWAP2 SWAP1 PUSH2 0x283B JUMP JUMPDEST POP PUSH1 0x1 PUSH1 0x1 PUSH1 0xA0 SHL SUB DUP3 AND ISZERO DUP1 ISZERO SWAP1 PUSH2 0xC96 JUMPI POP PUSH1 0x1 PUSH1 0x1 PUSH1 0xA0 SHL SUB DUP3 AND CALLER EQ ISZERO JUMPDEST ISZERO PUSH2 0xCA6 JUMPI PUSH2 0xCA6 CALLER DUP4 DUP6 PUSH2 0x171A JUMP JUMPDEST DUP3 PUSH1 0x13 PUSH1 0x0 DUP3 DUP3 SLOAD PUSH2 0xCB8 SWAP2 SWAP1 PUSH2 0x283B JUMP JUMPDEST SWAP1 SWAP2 SSTORE POP PUSH2 0xCC8 SWAP1 POP CALLER DUP5 PUSH2 0x1795 JUMP JUMPDEST PUSH32 0x5548C837AB068CF56A2C2479DF0882A4922FD203EDB7517321831D95078C5F62 CALLER DUP4 DUP6 PUSH1 0x40 MLOAD PUSH2 0xCFB SWAP4 SWAP3 SWAP2 SWAP1 PUSH2 0x28B5 JUMP JUMPDEST PUSH1 0x40 MLOAD DUP1 SWAP2 SUB SWAP1 LOG1 POP POP POP JUMP JUMPDEST PUSH2 0xD13 CALLER DUP4 DUP4 PUSH2 0x171A JUMP JUMPDEST POP POP JUMP JUMPDEST PUSH1 0x0 PUSH1 0xE SLOAD TIMESTAMP GT ISZERO PUSH2 0xD29 JUMPI POP PUSH1 0x0 SWAP1 JUMP JUMPDEST POP PUSH1 0xD SLOAD SWAP1 JUMP JUMPDEST PUSH1 0x0 PUSH2 0xB1C DUP3 TIMESTAMP PUSH2 0x1018 JUMP JUMPDEST PUSH2 0xD44 PUSH2 0x3EA JUMP JUMPDEST PUSH1 0x7 SLOAD PUSH1 0x1 PUSH1 0x1 PUSH1 0xA0 SHL SUB DUP3 AND PUSH1 0x0 SWAP1 DUP2 MSTORE PUSH1 0xA PUSH1 0x20 MSTORE PUSH1 0x40 SWAP1 KECCAK256 SLOAD PUSH2 0xD8E SWAP1 PUSH2 0xD6E SWAP1 DUP4 PUSH2 0x2811 JUMP JUMPDEST PUSH1 0x1 PUSH1 0x1 PUSH1 0xA0 SHL SUB DUP5 AND PUSH1 0x0 SWAP1 DUP2 MSTORE PUSH1 0xC PUSH1 0x20 MSTORE PUSH1 0x40 SWAP1 KECCAK256 SLOAD JUMPDEST SWAP1 PUSH2 0x181D JUMP JUMPDEST PUSH1 0x1 PUSH1 0x1 PUSH1 0xA0 SHL SUB DUP4 AND PUSH1 0x0 SWAP1 DUP2 MSTORE PUSH1 0xB PUSH1 0x20 MSTORE PUSH1 0x40 DUP2 KECCAK256 DUP1 SLOAD SWAP1 SWAP2 SWAP1 PUSH2 0xDB6 SWAP1 DUP5 SWAP1 PUSH2 0x283B JUMP JUMPDEST SWAP1 SWAP2 SSTORE POP POP PUSH1 0x1 PUSH1 0x1 PUSH1 0xA0 SHL SUB SWAP1 SWAP2 AND PUSH1 0x0 SWAP1 DUP2 MSTORE PUSH1 0xA PUSH1 0x20 MSTORE PUSH1 0x40 SWAP1 KECCAK256 SSTORE JUMP JUMPDEST PUSH2 0xDE1 DUP2 CALLER PUSH2 0xB22 JUMP JUMPDEST POP JUMP JUMPDEST PUSH1 0x1 PUSH1 0x1 PUSH1 0xA0 SHL SUB DUP2 AND PUSH1 0x0 SWAP1 DUP2 MSTORE PUSH1 0x10 PUSH1 0x20 MSTORE PUSH1 0x40 DUP2 KECCAK256 PUSH1 0x60 SWAP2 PUSH2 0xE08 DUP3 PUSH2 0x1846 JUMP JUMPDEST PUSH8 0xFFFFFFFFFFFFFFFF DUP2 GT ISZERO PUSH2 0xE20 JUMPI PUSH2 0xE20 PUSH2 0x2870 JUMP JUMPDEST PUSH1 0x40 MLOAD SWAP1 DUP1 DUP3 MSTORE DUP1 PUSH1 0x20 MUL PUSH1 0x20 ADD DUP3 ADD PUSH1 0x40 MSTORE DUP1 ISZERO PUSH2 0xE95 JUMPI DUP2 PUSH1 0x20 ADD JUMPDEST PUSH2 0xE82 PUSH1 0x40 MLOAD DUP1 PUSH1 0xA0 ADD PUSH1 0x40 MSTORE DUP1 PUSH1 0x0 DUP2 MSTORE PUSH1 0x20 ADD PUSH1 0x0 DUP2 MSTORE PUSH1 0x20 ADD PUSH1 0x0 DUP2 MSTORE PUSH1 0x20 ADD PUSH1 0x0 PUSH1 0x1 PUSH1 0x1 PUSH1 0xA0 SHL SUB AND DUP2 MSTORE PUSH1 0x20 ADD PUSH1 0x0 PUSH1 0x1 PUSH1 0x1 PUSH1 0xA0 SHL SUB AND DUP2 MSTORE POP SWAP1 JUMP JUMPDEST DUP2 MSTORE PUSH1 0x20 ADD SWAP1 PUSH1 0x1 SWAP1 SUB SWAP1 DUP2 PUSH2 0xE3E JUMPI SWAP1 POP JUMPDEST POP SWAP1 POP PUSH1 0x0 JUMPDEST PUSH2 0xEA4 DUP4 PUSH2 0x1846 JUMP JUMPDEST DUP2 LT ISZERO PUSH2 0xF43 JUMPI PUSH1 0x11 PUSH1 0x0 PUSH2 0xEB9 DUP6 DUP5 PUSH2 0x1850 JUMP JUMPDEST DUP2 MSTORE PUSH1 0x20 DUP1 DUP3 ADD SWAP3 SWAP1 SWAP3 MSTORE PUSH1 0x40 SWAP1 DUP2 ADD PUSH1 0x0 KECCAK256 DUP2 MLOAD PUSH1 0xA0 DUP2 ADD DUP4 MSTORE DUP2 SLOAD DUP2 MSTORE PUSH1 0x1 DUP3 ADD SLOAD SWAP4 DUP2 ADD SWAP4 SWAP1 SWAP4 MSTORE PUSH1 0x2 DUP2 ADD SLOAD SWAP2 DUP4 ADD SWAP2 SWAP1 SWAP2 MSTORE PUSH1 0x3 DUP2 ADD SLOAD PUSH1 0x1 PUSH1 0x1 PUSH1 0xA0 SHL SUB SWAP1 DUP2 AND PUSH1 0x60 DUP5 ADD MSTORE PUSH1 0x4 SWAP1 SWAP2 ADD SLOAD AND PUSH1 0x80 DUP3 ADD MSTORE DUP3 MLOAD DUP4 SWAP1 DUP4 SWAP1 DUP2 LT PUSH2 0xF25 JUMPI PUSH2 0xF25 PUSH2 0x2886 JUMP JUMPDEST PUSH1 0x20 MUL PUSH1 0x20 ADD ADD DUP2 SWAP1 MSTORE POP DUP1 DUP1 PUSH2 0xF3B SWAP1 PUSH2 0x289C JUMP JUMPDEST SWAP2 POP POP PUSH2 0xE9B JUMP JUMPDEST POP SWAP4 SWAP3 POP POP POP JUMP JUMPDEST PUSH2 0xF56 CALLER DUP5 DUP4 PUSH2 0x15E7 JUMP JUMPDEST PUSH2 0x8EA CALLER DUP4 DUP4 PUSH2 0x171A JUMP JUMPDEST PUSH1 0x7 SLOAD PUSH1 0x6 SLOAD PUSH1 0x0 SWAP2 SWAP1 ISZERO PUSH2 0xFA9 JUMPI PUSH2 0xF9C PUSH1 0x6 SLOAD PUSH1 0x8 SLOAD TIMESTAMP PUSH2 0xF84 SWAP2 SWAP1 PUSH2 0x2811 JUMP JUMPDEST PUSH2 0xF8C PUSH2 0xD17 JUMP JUMPDEST PUSH2 0xF96 SWAP2 SWAP1 PUSH2 0x2824 JUMP JUMPDEST SWAP1 PUSH2 0x1242 JUMP JUMPDEST PUSH2 0xFA6 SWAP1 DUP3 PUSH2 0x283B JUMP JUMPDEST SWAP1 POP JUMPDEST PUSH1 0x1 PUSH1 0x1 PUSH1 0xA0 SHL SUB DUP4 AND PUSH1 0x0 SWAP1 DUP2 MSTORE PUSH1 0xA PUSH1 0x20 MSTORE PUSH1 0x40 SWAP1 KECCAK256 SLOAD PUSH2 0xFEE SWAP1 PUSH2 0xFD0 SWAP1 DUP4 PUSH2 0x2811 JUMP JUMPDEST PUSH1 0x1 PUSH1 0x1 PUSH1 0xA0 SHL SUB DUP6 AND PUSH1 0x0 SWAP1 DUP2 MSTORE PUSH1 0xC PUSH1 0x20 MSTORE PUSH1 0x40 SWAP1 KECCAK256 SLOAD PUSH2 0xD88 JUMP JUMPDEST PUSH1 0x1 PUSH1 0x1 PUSH1 0xA0 SHL SUB DUP5 AND PUSH1 0x0 SWAP1 DUP2 MSTORE PUSH1 0xB PUSH1 0x20 MSTORE PUSH1 0x40 SWAP1 KECCAK256 SLOAD PUSH2 0x1011 SWAP2 SWAP1 PUSH2 0x283B JUMP JUMPDEST SWAP4 SWAP3 POP POP POP JUMP JUMPDEST PUSH1 0x0 PUSH2 0x1011 PUSH1 0x1 DUP5 DUP5 PUSH2 0x185C JUMP JUMPDEST PUSH2 0xD13 CALLER DUP4 DUP4 PUSH2 0x15E7 JUMP JUMPDEST CALLER PUSH1 0x1 PUSH1 0x1 PUSH1 0xA0 SHL SUB PUSH32 0x0 AND EQ PUSH2 0x10AB JUMPI PUSH1 0x40 MLOAD PUSH4 0xC55DDC97 PUSH1 0xE0 SHL DUP2 MSTORE CALLER PUSH1 0x4 DUP3 ADD MSTORE PUSH1 0x1 PUSH1 0x1 PUSH1 0xA0 SHL SUB PUSH32 0x0 AND PUSH1 0x24 DUP3 ADD MSTORE PUSH1 0x44 ADD PUSH2 0x50E JUMP JUMPDEST PUSH1 0xF SSTORE JUMP JUMPDEST CALLER PUSH1 0x1 PUSH1 0x1 PUSH1 0xA0 SHL SUB PUSH32 0x0 AND EQ PUSH2 0x112A JUMPI PUSH1 0x40 MLOAD PUSH4 0xC55DDC97 PUSH1 0xE0 SHL DUP2 MSTORE CALLER PUSH1 0x4 DUP3 ADD MSTORE PUSH1 0x1 PUSH1 0x1 PUSH1 0xA0 SHL SUB PUSH32 0x0 AND PUSH1 0x24 DUP3 ADD MSTORE PUSH1 0x44 ADD PUSH2 0x50E JUMP JUMPDEST PUSH2 0xDE1 DUP2 PUSH2 0x190D JUMP JUMPDEST PUSH1 0x0 SLOAD PUSH2 0x100 SWAP1 DIV PUSH1 0xFF AND ISZERO DUP1 DUP1 ISZERO PUSH2 0x1153 JUMPI POP PUSH1 0x0 SLOAD PUSH1 0x1 PUSH1 0xFF SWAP1 SWAP2 AND LT JUMPDEST DUP1 PUSH2 0x116D JUMPI POP ADDRESS EXTCODESIZE ISZERO DUP1 ISZERO PUSH2 0x116D JUMPI POP PUSH1 0x0 SLOAD PUSH1 0xFF AND PUSH1 0x1 EQ JUMPDEST PUSH2 0x11D0 JUMPI PUSH1 0x40 MLOAD PUSH3 0x461BCD PUSH1 0xE5 SHL DUP2 MSTORE PUSH1 0x20 PUSH1 0x4 DUP3 ADD MSTORE PUSH1 0x2E PUSH1 0x24 DUP3 ADD MSTORE PUSH32 0x496E697469616C697A61626C653A20636F6E747261637420697320616C726561 PUSH1 0x44 DUP3 ADD MSTORE PUSH14 0x191E481A5B9A5D1A585B1A5E9959 PUSH1 0x92 SHL PUSH1 0x64 DUP3 ADD MSTORE PUSH1 0x84 ADD PUSH2 0x50E JUMP JUMPDEST PUSH1 0x0 DUP1 SLOAD PUSH1 0xFF NOT AND PUSH1 0x1 OR SWAP1 SSTORE DUP1 ISZERO PUSH2 0x11F3 JUMPI PUSH1 0x0 DUP1 SLOAD PUSH2 0xFF00 NOT AND PUSH2 0x100 OR SWAP1 SSTORE JUMPDEST PUSH1 0xF DUP3 SWAP1 SSTORE PUSH2 0x1200 PUSH2 0x3EA JUMP JUMPDEST DUP1 ISZERO PUSH2 0xD13 JUMPI PUSH1 0x0 DUP1 SLOAD PUSH2 0xFF00 NOT AND SWAP1 SSTORE PUSH1 0x40 MLOAD PUSH1 0x1 DUP2 MSTORE PUSH32 0x7F26B83FF96E1F2B6A682F133852F6798A09C465DA95921460CEFB3847402498 SWAP1 PUSH1 0x20 ADD PUSH2 0x6BF JUMP JUMPDEST PUSH1 0x0 DUP2 PUSH1 0x0 SUB PUSH2 0x1265 JUMPI PUSH1 0x40 MLOAD PUSH4 0xA0C22C7 PUSH1 0xE0 SHL DUP2 MSTORE PUSH1 0x4 ADD PUSH1 0x40 MLOAD DUP1 SWAP2 SUB SWAP1 REVERT JUMPDEST DUP3 PUSH1 0x0 SUB PUSH2 0x1275 JUMPI POP PUSH1 0x0 PUSH2 0xB1C JUMP JUMPDEST PUSH1 0x0 PUSH2 0x1289 PUSH8 0xDE0B6B3A7640000 DUP6 PUSH2 0x2824 JUMP JUMPDEST SWAP1 POP PUSH2 0x1295 DUP4 DUP3 PUSH2 0x28D9 JUMP JUMPDEST SWAP2 POP POP PUSH2 0xB1C JUMP JUMPDEST PUSH1 0x0 PUSH2 0x1011 DUP4 DUP4 PUSH2 0x1A16 JUMP JUMPDEST PUSH1 0x0 PUSH2 0xB1C DUP3 PUSH2 0x1B09 JUMP JUMPDEST PUSH1 0x0 DUP1 DUP1 DUP1 PUSH2 0x12C3 DUP7 DUP7 PUSH2 0x1B14 JUMP JUMPDEST SWAP1 SWAP5 POP SWAP3 POP POP POP JUMPDEST SWAP3 POP SWAP3 SWAP1 POP JUMP JUMPDEST PUSH1 0x0 PUSH2 0x1308 PUSH1 0x1 PUSH1 0x1 PUSH1 0xA0 SHL SUB PUSH32 0x0 AND DUP5 DUP5 PUSH2 0x1B3F JUMP JUMPDEST POP SWAP2 SWAP1 POP JUMP JUMPDEST PUSH2 0x1316 PUSH2 0x3EA JUMP JUMPDEST PUSH2 0x134B PUSH1 0x1 PUSH1 0x1 PUSH1 0xA0 SHL SUB PUSH32 0x0 AND DUP5 ADDRESS DUP6 PUSH2 0x1BA2 JUMP JUMPDEST PUSH2 0x1355 TIMESTAMP DUP3 PUSH2 0x2811 JUMP JUMPDEST PUSH2 0x135F SWAP1 DUP4 PUSH2 0x28D9 JUMP JUMPDEST PUSH1 0xD SSTORE PUSH1 0xE DUP2 SWAP1 SSTORE PUSH1 0x40 DUP1 MLOAD DUP4 DUP2 MSTORE PUSH1 0x20 DUP2 ADD DUP4 SWAP1 MSTORE PUSH32 0x76554FAC4477E8876B3DE3AF392CF374CF4E9DE02AE78FBADE2373107381FE50 SWAP2 ADD PUSH2 0xCFB JUMP JUMPDEST PUSH2 0x13C8 PUSH1 0x40 MLOAD DUP1 PUSH1 0x80 ADD PUSH1 0x40 MSTORE DUP1 PUSH1 0x0 DUP2 MSTORE PUSH1 0x20 ADD PUSH1 0x0 DUP2 MSTORE PUSH1 0x20 ADD PUSH1 0x0 DUP2 MSTORE PUSH1 0x20 ADD PUSH1 0x0 DUP2 MSTORE POP SWAP1 JUMP JUMPDEST PUSH1 0x1 PUSH1 0x1 PUSH1 0xA0 SHL SUB DUP3 AND PUSH1 0x0 SWAP1 DUP2 MSTORE PUSH1 0x20 DUP5 DUP2 MSTORE PUSH1 0x40 DUP1 DUP4 KECCAK256 DUP1 SLOAD DUP3 MLOAD DUP2 DUP6 MUL DUP2 ADD DUP6 ADD SWAP1 SWAP4 MSTORE DUP1 DUP4 MSTORE SWAP2 SWAP3 SWAP1 SWAP2 SWAP1 DUP5 SWAP1 DUP5 ADD JUMPDEST DUP3 DUP3 LT ISZERO PUSH2 0x1456 JUMPI DUP4 DUP3 SWAP1 PUSH1 0x0 MSTORE PUSH1 0x20 PUSH1 0x0 KECCAK256 SWAP1 PUSH1 0x4 MUL ADD PUSH1 0x40 MLOAD DUP1 PUSH1 0x80 ADD PUSH1 0x40 MSTORE SWAP1 DUP2 PUSH1 0x0 DUP3 ADD SLOAD DUP2 MSTORE PUSH1 0x20 ADD PUSH1 0x1 DUP3 ADD SLOAD DUP2 MSTORE PUSH1 0x20 ADD PUSH1 0x2 DUP3 ADD SLOAD DUP2 MSTORE PUSH1 0x20 ADD PUSH1 0x3 DUP3 ADD SLOAD DUP2 MSTORE POP POP DUP2 MSTORE PUSH1 0x20 ADD SWAP1 PUSH1 0x1 ADD SWAP1 PUSH2 0x13FC JUMP JUMPDEST POP POP POP POP SWAP1 POP DUP1 MLOAD PUSH1 0x0 SUB PUSH2 0x146D JUMPI PUSH2 0x1295 PUSH2 0x1BC3 JUMP JUMPDEST DUP1 PUSH1 0x1 DUP3 MLOAD PUSH2 0x147C SWAP2 SWAP1 PUSH2 0x2811 JUMP JUMPDEST DUP2 MLOAD DUP2 LT PUSH2 0x148C JUMPI PUSH2 0x148C PUSH2 0x2886 JUMP JUMPDEST PUSH1 0x20 MUL PUSH1 0x20 ADD ADD MLOAD SWAP2 POP POP PUSH2 0xB1C JUMP JUMPDEST POP SWAP3 SWAP2 POP POP JUMP JUMPDEST PUSH2 0x14CE PUSH1 0x40 MLOAD DUP1 PUSH1 0x80 ADD PUSH1 0x40 MSTORE DUP1 PUSH1 0x0 DUP2 MSTORE PUSH1 0x20 ADD PUSH1 0x0 DUP2 MSTORE PUSH1 0x20 ADD PUSH1 0x0 DUP2 MSTORE PUSH1 0x20 ADD PUSH1 0x0 DUP2 MSTORE POP SWAP1 JUMP JUMPDEST PUSH1 0x1 PUSH1 0x1 PUSH1 0xA0 SHL SUB DUP6 AND PUSH1 0x0 SWAP1 DUP2 MSTORE PUSH1 0x20 DUP8 DUP2 MSTORE PUSH1 0x40 DUP1 DUP4 KECCAK256 DUP2 MLOAD PUSH1 0x80 DUP2 ADD DUP4 MSTORE TIMESTAMP DUP2 MSTORE SWAP3 DUP4 ADD DUP9 SWAP1 MSTORE SWAP1 DUP3 ADD DUP7 SWAP1 MSTORE PUSH1 0x60 DUP3 ADD DUP6 SWAP1 MSTORE SWAP2 PUSH2 0x1510 DUP10 DUP10 PUSH2 0x139D JUMP JUMPDEST DUP1 MLOAD SWAP1 SWAP2 POP TIMESTAMP EQ DUP1 ISZERO PUSH2 0x1523 JUMPI POP DUP3 SLOAD ISZERO ISZERO JUMPDEST ISZERO PUSH2 0x1588 JUMPI DUP3 SLOAD DUP3 SWAP1 DUP5 SWAP1 PUSH2 0x153A SWAP1 PUSH1 0x1 SWAP1 PUSH2 0x2811 JUMP JUMPDEST DUP2 SLOAD DUP2 LT PUSH2 0x154A JUMPI PUSH2 0x154A PUSH2 0x2886 JUMP JUMPDEST SWAP1 PUSH1 0x0 MSTORE PUSH1 0x20 PUSH1 0x0 KECCAK256 SWAP1 PUSH1 0x4 MUL ADD PUSH1 0x0 DUP3 ADD MLOAD DUP2 PUSH1 0x0 ADD SSTORE PUSH1 0x20 DUP3 ADD MLOAD DUP2 PUSH1 0x1 ADD SSTORE PUSH1 0x40 DUP3 ADD MLOAD DUP2 PUSH1 0x2 ADD SSTORE PUSH1 0x60 DUP3 ADD MLOAD DUP2 PUSH1 0x3 ADD SSTORE SWAP1 POP POP PUSH2 0x15DB JUMP JUMPDEST PUSH1 0x1 PUSH1 0x1 PUSH1 0xA0 SHL SUB DUP9 AND PUSH1 0x0 SWAP1 DUP2 MSTORE PUSH1 0x20 DUP11 DUP2 MSTORE PUSH1 0x40 DUP1 DUP4 KECCAK256 DUP1 SLOAD PUSH1 0x1 DUP2 DUP2 ADD DUP4 SSTORE SWAP2 DUP6 MSTORE SWAP4 DUP4 SWAP1 KECCAK256 DUP7 MLOAD PUSH1 0x4 SWAP1 SWAP6 MUL ADD SWAP4 DUP5 SSTORE SWAP2 DUP6 ADD MLOAD SWAP2 DUP4 ADD SWAP2 SWAP1 SWAP2 SSTORE DUP4 ADD MLOAD PUSH1 0x2 DUP3 ADD SSTORE PUSH1 0x60 DUP4 ADD MLOAD PUSH1 0x3 SWAP1 SWAP2 ADD SSTORE JUMPDEST POP SWAP8 SWAP7 POP POP POP POP POP POP POP JUMP JUMPDEST PUSH2 0x15F4 PUSH1 0x1 DUP5 DUP5 DUP5 PUSH2 0x1C1F JUMP JUMPDEST PUSH1 0x1 PUSH1 0x1 PUSH1 0xA0 SHL SUB DUP4 AND PUSH1 0x0 SWAP1 DUP2 MSTORE PUSH1 0x5 PUSH1 0x20 MSTORE PUSH1 0x40 DUP2 KECCAK256 PUSH2 0x1616 SWAP1 DUP5 PUSH2 0x1DFC JUMP JUMPDEST SWAP1 POP DUP2 DUP2 SUB PUSH2 0x1647 JUMPI PUSH1 0x1 PUSH1 0x1 PUSH1 0xA0 SHL SUB DUP5 AND PUSH1 0x0 SWAP1 DUP2 MSTORE PUSH1 0x5 PUSH1 0x20 MSTORE PUSH1 0x40 SWAP1 KECCAK256 PUSH2 0x1641 SWAP1 DUP5 PUSH2 0x1E11 JUMP JUMPDEST POP PUSH2 0x1676 JUMP JUMPDEST PUSH2 0x1674 DUP4 PUSH2 0x1655 DUP5 DUP5 PUSH2 0x2811 JUMP JUMPDEST PUSH1 0x1 PUSH1 0x1 PUSH1 0xA0 SHL SUB DUP8 AND PUSH1 0x0 SWAP1 DUP2 MSTORE PUSH1 0x5 PUSH1 0x20 MSTORE PUSH1 0x40 SWAP1 KECCAK256 SWAP2 SWAP1 PUSH2 0x1E26 JUMP JUMPDEST POP JUMPDEST POP POP POP POP JUMP JUMPDEST PUSH2 0x1685 DUP3 PUSH2 0xD3C JUMP JUMPDEST PUSH1 0x1 PUSH1 0x1 PUSH1 0xA0 SHL SUB DUP3 AND PUSH1 0x0 SWAP1 DUP2 MSTORE PUSH1 0xC PUSH1 0x20 MSTORE PUSH1 0x40 DUP2 KECCAK256 DUP1 SLOAD DUP4 SWAP3 SWAP1 PUSH2 0x16AD SWAP1 DUP5 SWAP1 PUSH2 0x2811 JUMP JUMPDEST SWAP3 POP POP DUP2 SWAP1 SSTORE POP DUP1 PUSH1 0x6 PUSH1 0x0 DUP3 DUP3 SLOAD PUSH2 0x16C6 SWAP2 SWAP1 PUSH2 0x2811 JUMP JUMPDEST SWAP1 SWAP2 SSTORE POP POP PUSH1 0x40 MLOAD DUP2 DUP2 MSTORE PUSH1 0x1 PUSH1 0x1 PUSH1 0xA0 SHL SUB DUP4 AND SWAP1 PUSH32 0x85082129D87B2FE11527CB1B3B7A520AEB5AA6913F88A3D8757FE40D1DB02FDD SWAP1 PUSH1 0x20 ADD JUMPDEST PUSH1 0x40 MLOAD DUP1 SWAP2 SUB SWAP1 LOG2 POP POP JUMP JUMPDEST PUSH1 0x0 PUSH2 0x1011 DUP4 DUP4 PUSH2 0x1E3C JUMP JUMPDEST PUSH2 0x1727 PUSH1 0x1 DUP5 DUP5 DUP5 PUSH2 0x1E8B JUMP JUMPDEST PUSH1 0x1 PUSH1 0x1 PUSH1 0xA0 SHL SUB DUP4 AND PUSH1 0x0 SWAP1 DUP2 MSTORE PUSH1 0x5 PUSH1 0x20 MSTORE PUSH1 0x40 DUP2 KECCAK256 DUP2 SWAP1 PUSH2 0x174B SWAP1 DUP6 PUSH2 0x205C JUMP JUMPDEST SWAP2 POP SWAP2 POP PUSH1 0x0 DUP3 PUSH2 0x175C JUMPI DUP4 PUSH2 0x1766 JUMP JUMPDEST PUSH2 0x1766 DUP5 DUP4 PUSH2 0x283B JUMP JUMPDEST PUSH1 0x1 PUSH1 0x1 PUSH1 0xA0 SHL SUB DUP8 AND PUSH1 0x0 SWAP1 DUP2 MSTORE PUSH1 0x5 PUSH1 0x20 MSTORE PUSH1 0x40 SWAP1 KECCAK256 SWAP1 SWAP2 POP PUSH2 0x178C SWAP1 DUP7 DUP4 PUSH2 0x1E26 JUMP JUMPDEST POP POP POP POP POP POP POP JUMP JUMPDEST PUSH2 0x179E DUP3 PUSH2 0xD3C JUMP JUMPDEST DUP1 PUSH1 0x6 PUSH1 0x0 DUP3 DUP3 SLOAD PUSH2 0x17B0 SWAP2 SWAP1 PUSH2 0x283B JUMP JUMPDEST SWAP1 SWAP2 SSTORE POP POP PUSH1 0x1 PUSH1 0x1 PUSH1 0xA0 SHL SUB DUP3 AND PUSH1 0x0 SWAP1 DUP2 MSTORE PUSH1 0xC PUSH1 0x20 MSTORE PUSH1 0x40 DUP2 KECCAK256 DUP1 SLOAD DUP4 SWAP3 SWAP1 PUSH2 0x17DD SWAP1 DUP5 SWAP1 PUSH2 0x283B JUMP JUMPDEST SWAP1 SWAP2 SSTORE POP POP PUSH1 0x40 MLOAD DUP2 DUP2 MSTORE PUSH1 0x1 PUSH1 0x1 PUSH1 0xA0 SHL SUB DUP4 AND SWAP1 PUSH32 0xEBEDB8B3C678666E7F36970BC8F57ABF6D8FA2E828C0DA91EA5B75BF68ED101A SWAP1 PUSH1 0x20 ADD PUSH2 0x1702 JUMP JUMPDEST PUSH1 0x0 DUP1 PUSH2 0x182A DUP4 DUP6 PUSH2 0x2824 JUMP JUMPDEST SWAP1 POP PUSH2 0x183E PUSH8 0xDE0B6B3A7640000 DUP3 PUSH2 0x28D9 JUMP JUMPDEST SWAP5 SWAP4 POP POP POP POP JUMP JUMPDEST PUSH1 0x0 PUSH2 0xB1C DUP3 SLOAD SWAP1 JUMP JUMPDEST PUSH1 0x0 PUSH2 0x1011 DUP4 DUP4 PUSH2 0x2074 JUMP JUMPDEST PUSH1 0x1 PUSH1 0x1 PUSH1 0xA0 SHL SUB DUP3 AND PUSH1 0x0 SWAP1 DUP2 MSTORE PUSH1 0x20 DUP5 DUP2 MSTORE PUSH1 0x40 DUP1 DUP4 KECCAK256 DUP1 SLOAD DUP3 MLOAD DUP2 DUP6 MUL DUP2 ADD DUP6 ADD SWAP1 SWAP4 MSTORE DUP1 DUP4 MSTORE DUP5 SWAP4 PUSH2 0x18F8 SWAP4 SWAP3 SWAP2 SWAP1 DUP6 SWAP1 DUP5 ADD JUMPDEST DUP3 DUP3 LT ISZERO PUSH2 0x18EE JUMPI DUP4 DUP3 SWAP1 PUSH1 0x0 MSTORE PUSH1 0x20 PUSH1 0x0 KECCAK256 SWAP1 PUSH1 0x4 MUL ADD PUSH1 0x40 MLOAD DUP1 PUSH1 0x80 ADD PUSH1 0x40 MSTORE SWAP1 DUP2 PUSH1 0x0 DUP3 ADD SLOAD DUP2 MSTORE PUSH1 0x20 ADD PUSH1 0x1 DUP3 ADD SLOAD DUP2 MSTORE PUSH1 0x20 ADD PUSH1 0x2 DUP3 ADD SLOAD DUP2 MSTORE PUSH1 0x20 ADD PUSH1 0x3 DUP3 ADD SLOAD DUP2 MSTORE POP POP DUP2 MSTORE PUSH1 0x20 ADD SWAP1 PUSH1 0x1 ADD SWAP1 PUSH2 0x1894 JUMP JUMPDEST POP POP POP POP DUP5 PUSH2 0x209E JUMP JUMPDEST SWAP2 POP POP PUSH2 0x1904 DUP2 PUSH2 0x20E4 JUMP JUMPDEST SWAP6 SWAP5 POP POP POP POP POP JUMP JUMPDEST PUSH2 0x1915 PUSH2 0x3EA JUMP JUMPDEST PUSH1 0x9 SLOAD PUSH1 0x40 MLOAD PUSH4 0x70A08231 PUSH1 0xE0 SHL DUP2 MSTORE ADDRESS PUSH1 0x4 DUP3 ADD MSTORE PUSH1 0x0 SWAP2 SWAP1 PUSH1 0x1 PUSH1 0x1 PUSH1 0xA0 SHL SUB PUSH32 0x0 AND SWAP1 PUSH4 0x70A08231 SWAP1 PUSH1 0x24 ADD PUSH1 0x20 PUSH1 0x40 MLOAD DUP1 DUP4 SUB DUP2 DUP7 GAS STATICCALL ISZERO DUP1 ISZERO PUSH2 0x1980 JUMPI RETURNDATASIZE PUSH1 0x0 DUP1 RETURNDATACOPY RETURNDATASIZE PUSH1 0x0 REVERT JUMPDEST POP POP POP POP PUSH1 0x40 MLOAD RETURNDATASIZE PUSH1 0x1F NOT PUSH1 0x1F DUP3 ADD AND DUP3 ADD DUP1 PUSH1 0x40 MSTORE POP DUP2 ADD SWAP1 PUSH2 0x19A4 SWAP2 SWAP1 PUSH2 0x28FB JUMP JUMPDEST PUSH2 0x19AE SWAP2 SWAP1 PUSH2 0x2811 JUMP JUMPDEST SWAP1 POP PUSH2 0x19E4 PUSH1 0x1 PUSH1 0x1 PUSH1 0xA0 SHL SUB PUSH32 0x0 AND DUP4 DUP4 PUSH2 0x1B3F JUMP JUMPDEST PUSH1 0x0 PUSH1 0xE DUP2 SWAP1 SSTORE PUSH1 0x40 MLOAD PUSH32 0xE5A0E15E63EDB96A15ED99A9C2A3674E2E0BD1B10B65D0223CCE19A6B54E7FB1 SWAP2 SWAP1 LOG1 POP POP JUMP JUMPDEST PUSH1 0x0 DUP2 DUP2 MSTORE PUSH1 0x1 DUP4 ADD PUSH1 0x20 MSTORE PUSH1 0x40 DUP2 KECCAK256 SLOAD DUP1 ISZERO PUSH2 0x1AFF JUMPI PUSH1 0x0 PUSH2 0x1A3A PUSH1 0x1 DUP4 PUSH2 0x2811 JUMP JUMPDEST DUP6 SLOAD SWAP1 SWAP2 POP PUSH1 0x0 SWAP1 PUSH2 0x1A4E SWAP1 PUSH1 0x1 SWAP1 PUSH2 0x2811 JUMP JUMPDEST SWAP1 POP DUP2 DUP2 EQ PUSH2 0x1AB3 JUMPI PUSH1 0x0 DUP7 PUSH1 0x0 ADD DUP3 DUP2 SLOAD DUP2 LT PUSH2 0x1A6E JUMPI PUSH2 0x1A6E PUSH2 0x2886 JUMP JUMPDEST SWAP1 PUSH1 0x0 MSTORE PUSH1 0x20 PUSH1 0x0 KECCAK256 ADD SLOAD SWAP1 POP DUP1 DUP8 PUSH1 0x0 ADD DUP5 DUP2 SLOAD DUP2 LT PUSH2 0x1A91 JUMPI PUSH2 0x1A91 PUSH2 0x2886 JUMP JUMPDEST PUSH1 0x0 SWAP2 DUP3 MSTORE PUSH1 0x20 DUP1 DUP4 KECCAK256 SWAP1 SWAP2 ADD SWAP3 SWAP1 SWAP3 SSTORE SWAP2 DUP3 MSTORE PUSH1 0x1 DUP9 ADD SWAP1 MSTORE PUSH1 0x40 SWAP1 KECCAK256 DUP4 SWAP1 SSTORE JUMPDEST DUP6 SLOAD DUP7 SWAP1 DUP1 PUSH2 0x1AC4 JUMPI PUSH2 0x1AC4 PUSH2 0x2914 JUMP JUMPDEST PUSH1 0x1 SWAP1 SUB DUP2 DUP2 SWAP1 PUSH1 0x0 MSTORE PUSH1 0x20 PUSH1 0x0 KECCAK256 ADD PUSH1 0x0 SWAP1 SSTORE SWAP1 SSTORE DUP6 PUSH1 0x1 ADD PUSH1 0x0 DUP7 DUP2 MSTORE PUSH1 0x20 ADD SWAP1 DUP2 MSTORE PUSH1 0x20 ADD PUSH1 0x0 KECCAK256 PUSH1 0x0 SWAP1 SSTORE PUSH1 0x1 SWAP4 POP POP POP POP PUSH2 0xB1C JUMP JUMPDEST PUSH1 0x0 SWAP2 POP POP PUSH2 0xB1C JUMP JUMPDEST PUSH1 0x0 PUSH2 0xB1C DUP3 PUSH2 0x1846 JUMP JUMPDEST PUSH1 0x0 DUP1 DUP1 PUSH2 0x1B22 DUP6 DUP6 PUSH2 0x1850 JUMP JUMPDEST PUSH1 0x0 DUP2 DUP2 MSTORE PUSH1 0x2 SWAP7 SWAP1 SWAP7 ADD PUSH1 0x20 MSTORE PUSH1 0x40 SWAP1 SWAP6 KECCAK256 SLOAD SWAP5 SWAP6 SWAP4 POP POP POP POP JUMP JUMPDEST PUSH1 0x40 MLOAD PUSH1 0x1 PUSH1 0x1 PUSH1 0xA0 SHL SUB DUP4 AND PUSH1 0x24 DUP3 ADD MSTORE PUSH1 0x44 DUP2 ADD DUP3 SWAP1 MSTORE PUSH2 0x8EA SWAP1 DUP5 SWAP1 PUSH4 0xA9059CBB PUSH1 0xE0 SHL SWAP1 PUSH1 0x64 ADD JUMPDEST PUSH1 0x40 DUP1 MLOAD PUSH1 0x1F NOT DUP2 DUP5 SUB ADD DUP2 MSTORE SWAP2 SWAP1 MSTORE PUSH1 0x20 DUP2 ADD DUP1 MLOAD PUSH1 0x1 PUSH1 0x1 PUSH1 0xE0 SHL SUB AND PUSH1 0x1 PUSH1 0x1 PUSH1 0xE0 SHL SUB NOT SWAP1 SWAP4 AND SWAP3 SWAP1 SWAP3 OR SWAP1 SWAP2 MSTORE PUSH2 0x2110 JUMP JUMPDEST PUSH2 0x1676 DUP5 PUSH4 0x23B872DD PUSH1 0xE0 SHL DUP6 DUP6 DUP6 PUSH1 0x40 MLOAD PUSH1 0x24 ADD PUSH2 0x1B6B SWAP4 SWAP3 SWAP2 SWAP1 PUSH2 0x28B5 JUMP JUMPDEST PUSH2 0x1BEE PUSH1 0x40 MLOAD DUP1 PUSH1 0x80 ADD PUSH1 0x40 MSTORE DUP1 PUSH1 0x0 DUP2 MSTORE PUSH1 0x20 ADD PUSH1 0x0 DUP2 MSTORE PUSH1 0x20 ADD PUSH1 0x0 DUP2 MSTORE PUSH1 0x20 ADD PUSH1 0x0 DUP2 MSTORE POP SWAP1 JUMP JUMPDEST PUSH1 0x40 MLOAD DUP1 PUSH1 0x80 ADD PUSH1 0x40 MSTORE DUP1 PUSH1 0x0 DUP2 MSTORE PUSH1 0x20 ADD PUSH1 0x0 DUP2 MSTORE PUSH1 0x20 ADD PUSH8 0xDE0B6B3A7640000 DUP2 MSTORE PUSH1 0x20 ADD PUSH1 0x0 DUP2 MSTORE POP SWAP1 POP SWAP1 JUMP JUMPDEST PUSH1 0x1 PUSH1 0x1 PUSH1 0xA0 SHL SUB DUP1 DUP5 AND PUSH1 0x0 SWAP1 DUP2 MSTORE PUSH1 0x1 DUP7 ADD PUSH1 0x20 SWAP1 DUP2 MSTORE PUSH1 0x40 DUP1 DUP4 KECCAK256 SWAP4 DUP7 AND DUP4 MSTORE SWAP3 SWAP1 MSTORE KECCAK256 SLOAD DUP2 GT ISZERO PUSH2 0x1CA8 JUMPI PUSH1 0x40 MLOAD PUSH3 0x461BCD PUSH1 0xE5 SHL DUP2 MSTORE PUSH1 0x20 PUSH1 0x4 DUP3 ADD MSTORE PUSH1 0x29 PUSH1 0x24 DUP3 ADD MSTORE PUSH32 0x7573657220686173206E6F742064656C65676174656420656E6F75676820746F PUSH1 0x44 DUP3 ADD MSTORE PUSH9 0x2064656C6567617465 PUSH1 0xB8 SHL PUSH1 0x64 DUP3 ADD MSTORE PUSH1 0x84 ADD PUSH2 0x50E JUMP JUMPDEST PUSH1 0x1 PUSH1 0x1 PUSH1 0xA0 SHL SUB DUP3 AND PUSH1 0x0 SWAP1 DUP2 MSTORE PUSH1 0x3 DUP6 ADD PUSH1 0x20 MSTORE PUSH1 0x40 DUP2 KECCAK256 DUP1 SLOAD DUP4 SWAP3 SWAP1 PUSH2 0x1CD2 SWAP1 DUP5 SWAP1 PUSH2 0x2811 JUMP JUMPDEST SWAP1 SWAP2 SSTORE POP POP PUSH1 0x1 PUSH1 0x1 PUSH1 0xA0 SHL SUB DUP4 AND PUSH1 0x0 SWAP1 DUP2 MSTORE PUSH1 0x2 DUP6 ADD PUSH1 0x20 MSTORE PUSH1 0x40 DUP2 KECCAK256 DUP1 SLOAD DUP4 SWAP3 SWAP1 PUSH2 0x1D01 SWAP1 DUP5 SWAP1 PUSH2 0x2811 JUMP JUMPDEST SWAP1 SWAP2 SSTORE POP POP PUSH1 0x1 PUSH1 0x1 PUSH1 0xA0 SHL SUB DUP1 DUP5 AND PUSH1 0x0 SWAP1 DUP2 MSTORE PUSH1 0x1 DUP7 ADD PUSH1 0x20 SWAP1 DUP2 MSTORE PUSH1 0x40 DUP1 DUP4 KECCAK256 SWAP4 DUP7 AND DUP4 MSTORE SWAP3 SWAP1 MSTORE SWAP1 DUP2 KECCAK256 DUP1 SLOAD DUP4 SWAP3 SWAP1 PUSH2 0x1D3F SWAP1 DUP5 SWAP1 PUSH2 0x2811 JUMP JUMPDEST SWAP1 SWAP2 SSTORE POP PUSH1 0x0 SWAP1 POP PUSH2 0x1D51 DUP6 DUP6 PUSH2 0x139D JUMP JUMPDEST SWAP1 POP PUSH2 0x1D7E DUP5 DUP3 PUSH1 0x20 ADD MLOAD DUP4 PUSH1 0x40 ADD MLOAD PUSH2 0x1D74 DUP9 DUP11 PUSH2 0x21E2 SWAP1 SWAP2 SWAP1 PUSH4 0xFFFFFFFF AND JUMP JUMPDEST DUP10 SWAP4 SWAP3 SWAP2 SWAP1 PUSH2 0x14A3 JUMP JUMPDEST POP PUSH1 0x0 PUSH2 0x1D8B DUP7 DUP6 PUSH2 0x139D JUMP JUMPDEST SWAP1 POP PUSH2 0x1DB8 DUP5 DUP3 PUSH1 0x20 ADD MLOAD DUP4 PUSH1 0x40 ADD MLOAD PUSH2 0x1DAE DUP9 DUP12 PUSH2 0x21E2 SWAP1 SWAP2 SWAP1 PUSH4 0xFFFFFFFF AND JUMP JUMPDEST DUP11 SWAP4 SWAP3 SWAP2 SWAP1 PUSH2 0x14A3 JUMP JUMPDEST POP PUSH32 0xDE5AA493A93D4351631C1991A0AEECFD52D6B51CF1B61F1A3C48F97E26808653 DUP6 DUP6 DUP6 PUSH1 0x40 MLOAD PUSH2 0x1DEC SWAP4 SWAP3 SWAP2 SWAP1 PUSH2 0x28B5 JUMP JUMPDEST PUSH1 0x40 MLOAD DUP1 SWAP2 SUB SWAP1 LOG1 POP POP POP POP POP POP JUMP JUMPDEST PUSH1 0x0 PUSH2 0x1011 DUP4 PUSH1 0x1 PUSH1 0x1 PUSH1 0xA0 SHL SUB DUP5 AND PUSH2 0x2214 JUMP JUMPDEST PUSH1 0x0 PUSH2 0x1011 DUP4 PUSH1 0x1 PUSH1 0x1 PUSH1 0xA0 SHL SUB DUP5 AND PUSH2 0x2284 JUMP JUMPDEST PUSH1 0x0 PUSH2 0x183E DUP5 PUSH1 0x1 PUSH1 0x1 PUSH1 0xA0 SHL SUB DUP6 AND DUP5 PUSH2 0x22A1 JUMP JUMPDEST PUSH1 0x0 DUP2 DUP2 MSTORE PUSH1 0x1 DUP4 ADD PUSH1 0x20 MSTORE PUSH1 0x40 DUP2 KECCAK256 SLOAD PUSH2 0x1E83 JUMPI POP DUP2 SLOAD PUSH1 0x1 DUP2 DUP2 ADD DUP5 SSTORE PUSH1 0x0 DUP5 DUP2 MSTORE PUSH1 0x20 DUP1 DUP3 KECCAK256 SWAP1 SWAP4 ADD DUP5 SWAP1 SSTORE DUP5 SLOAD DUP5 DUP3 MSTORE DUP3 DUP7 ADD SWAP1 SWAP4 MSTORE PUSH1 0x40 SWAP1 KECCAK256 SWAP2 SWAP1 SWAP2 SSTORE PUSH2 0xB1C JUMP JUMPDEST POP PUSH1 0x0 PUSH2 0xB1C JUMP JUMPDEST PUSH1 0x0 PUSH2 0x1E97 DUP6 DUP6 PUSH2 0x139D JUMP JUMPDEST PUSH1 0x1 PUSH1 0x1 PUSH1 0xA0 SHL SUB DUP6 AND PUSH1 0x0 SWAP1 DUP2 MSTORE PUSH1 0x2 DUP8 ADD PUSH1 0x20 SWAP1 DUP2 MSTORE PUSH1 0x40 DUP1 DUP4 KECCAK256 SLOAD SWAP1 DUP5 ADD MLOAD SWAP2 DUP5 ADD MLOAD SWAP4 SWAP5 POP SWAP2 SWAP3 PUSH2 0x1ECB SWAP2 PUSH2 0x22BE JUMP JUMPDEST PUSH2 0x1ED5 SWAP2 SWAP1 PUSH2 0x2811 JUMP JUMPDEST SWAP1 POP DUP3 DUP2 LT ISZERO PUSH2 0x1F27 JUMPI PUSH1 0x40 MLOAD PUSH3 0x461BCD PUSH1 0xE5 SHL DUP2 MSTORE PUSH1 0x20 PUSH1 0x4 DUP3 ADD DUP2 SWAP1 MSTORE PUSH1 0x24 DUP3 ADD MSTORE PUSH32 0x696E73756666696369656E742062616C616E636520746F2064656C6567617465 PUSH1 0x44 DUP3 ADD MSTORE PUSH1 0x64 ADD PUSH2 0x50E JUMP JUMPDEST PUSH1 0x1 PUSH1 0x1 PUSH1 0xA0 SHL SUB DUP5 AND PUSH1 0x0 SWAP1 DUP2 MSTORE PUSH1 0x3 DUP8 ADD PUSH1 0x20 MSTORE PUSH1 0x40 DUP2 KECCAK256 DUP1 SLOAD DUP6 SWAP3 SWAP1 PUSH2 0x1F51 SWAP1 DUP5 SWAP1 PUSH2 0x283B JUMP JUMPDEST SWAP1 SWAP2 SSTORE POP POP PUSH1 0x1 PUSH1 0x1 PUSH1 0xA0 SHL SUB DUP6 AND PUSH1 0x0 SWAP1 DUP2 MSTORE PUSH1 0x2 DUP8 ADD PUSH1 0x20 MSTORE PUSH1 0x40 DUP2 KECCAK256 DUP1 SLOAD DUP6 SWAP3 SWAP1 PUSH2 0x1F80 SWAP1 DUP5 SWAP1 PUSH2 0x283B JUMP JUMPDEST SWAP1 SWAP2 SSTORE POP POP PUSH1 0x1 PUSH1 0x1 PUSH1 0xA0 SHL SUB DUP1 DUP7 AND PUSH1 0x0 SWAP1 DUP2 MSTORE PUSH1 0x1 DUP9 ADD PUSH1 0x20 SWAP1 DUP2 MSTORE PUSH1 0x40 DUP1 DUP4 KECCAK256 SWAP4 DUP9 AND DUP4 MSTORE SWAP3 SWAP1 MSTORE SWAP1 DUP2 KECCAK256 DUP1 SLOAD DUP6 SWAP3 SWAP1 PUSH2 0x1FBE SWAP1 DUP5 SWAP1 PUSH2 0x283B JUMP JUMPDEST SWAP1 SWAP2 SSTORE POP POP PUSH1 0x20 DUP3 ADD MLOAD PUSH1 0x40 DUP4 ADD MLOAD PUSH2 0x1FDD SWAP2 DUP8 SWAP2 PUSH2 0x1DAE DUP11 DUP5 PUSH2 0x21E2 JUMP JUMPDEST POP PUSH1 0x0 PUSH2 0x1FEA DUP8 DUP7 PUSH2 0x139D JUMP JUMPDEST SWAP1 POP PUSH2 0x2017 DUP6 DUP3 PUSH1 0x20 ADD MLOAD DUP4 PUSH1 0x40 ADD MLOAD PUSH2 0x200D DUP10 DUP13 PUSH2 0x21E2 SWAP1 SWAP2 SWAP1 PUSH4 0xFFFFFFFF AND JUMP JUMPDEST DUP12 SWAP4 SWAP3 SWAP2 SWAP1 PUSH2 0x14A3 JUMP JUMPDEST POP PUSH32 0xFF825F9424124EFFC5CE1D9F4803D58EDE8A2BDA4DA2324810F74834715C4C59 DUP7 DUP7 DUP7 PUSH1 0x40 MLOAD PUSH2 0x204B SWAP4 SWAP3 SWAP2 SWAP1 PUSH2 0x28B5 JUMP JUMPDEST PUSH1 0x40 MLOAD DUP1 SWAP2 SUB SWAP1 LOG1 POP POP POP POP POP POP POP JUMP JUMPDEST PUSH1 0x0 DUP1 DUP1 DUP1 PUSH2 0x12C3 DUP7 PUSH1 0x1 PUSH1 0x1 PUSH1 0xA0 SHL SUB DUP8 AND PUSH2 0x22DD JUMP JUMPDEST PUSH1 0x0 DUP3 PUSH1 0x0 ADD DUP3 DUP2 SLOAD DUP2 LT PUSH2 0x208B JUMPI PUSH2 0x208B PUSH2 0x2886 JUMP JUMPDEST SWAP1 PUSH1 0x0 MSTORE PUSH1 0x20 PUSH1 0x0 KECCAK256 ADD SLOAD SWAP1 POP SWAP3 SWAP2 POP POP JUMP JUMPDEST PUSH1 0x0 PUSH2 0x20CB PUSH1 0x40 MLOAD DUP1 PUSH1 0x80 ADD PUSH1 0x40 MSTORE DUP1 PUSH1 0x0 DUP2 MSTORE PUSH1 0x20 ADD PUSH1 0x0 DUP2 MSTORE PUSH1 0x20 ADD PUSH1 0x0 DUP2 MSTORE PUSH1 0x20 ADD PUSH1 0x0 DUP2 MSTORE POP SWAP1 JUMP JUMPDEST PUSH2 0x20D9 DUP5 DUP5 PUSH1 0x0 DUP8 MLOAD PUSH2 0x2317 JUMP JUMPDEST SWAP2 POP SWAP2 POP SWAP3 POP SWAP3 SWAP1 POP JUMP JUMPDEST PUSH1 0x0 DUP2 PUSH1 0x60 ADD MLOAD PUSH2 0x2106 DUP4 PUSH1 0x40 ADD MLOAD DUP5 PUSH1 0x20 ADD MLOAD PUSH2 0x22BE SWAP1 SWAP2 SWAP1 PUSH4 0xFFFFFFFF AND JUMP JUMPDEST PUSH2 0xB1C SWAP2 SWAP1 PUSH2 0x292A JUMP JUMPDEST PUSH1 0x0 PUSH2 0x2165 DUP3 PUSH1 0x40 MLOAD DUP1 PUSH1 0x40 ADD PUSH1 0x40 MSTORE DUP1 PUSH1 0x20 DUP2 MSTORE PUSH1 0x20 ADD PUSH32 0x5361666545524332303A206C6F772D6C6576656C2063616C6C206661696C6564 DUP2 MSTORE POP DUP6 PUSH1 0x1 PUSH1 0x1 PUSH1 0xA0 SHL SUB AND PUSH2 0x2472 SWAP1 SWAP3 SWAP2 SWAP1 PUSH4 0xFFFFFFFF AND JUMP JUMPDEST DUP1 MLOAD SWAP1 SWAP2 POP ISZERO PUSH2 0x8EA JUMPI DUP1 DUP1 PUSH1 0x20 ADD SWAP1 MLOAD DUP2 ADD SWAP1 PUSH2 0x2183 SWAP2 SWAP1 PUSH2 0x284E JUMP JUMPDEST PUSH2 0x8EA JUMPI PUSH1 0x40 MLOAD PUSH3 0x461BCD PUSH1 0xE5 SHL DUP2 MSTORE PUSH1 0x20 PUSH1 0x4 DUP3 ADD MSTORE PUSH1 0x2A PUSH1 0x24 DUP3 ADD MSTORE PUSH32 0x5361666545524332303A204552433230206F7065726174696F6E20646964206E PUSH1 0x44 DUP3 ADD MSTORE PUSH10 0x1BDD081CDD58D8D95959 PUSH1 0xB2 SHL PUSH1 0x64 DUP3 ADD MSTORE PUSH1 0x84 ADD PUSH2 0x50E JUMP JUMPDEST PUSH1 0x1 PUSH1 0x1 PUSH1 0xA0 SHL SUB DUP2 AND PUSH1 0x0 SWAP1 DUP2 MSTORE PUSH1 0x2 DUP4 ADD PUSH1 0x20 SWAP1 DUP2 MSTORE PUSH1 0x40 DUP1 DUP4 KECCAK256 SLOAD PUSH1 0x3 DUP7 ADD SWAP1 SWAP3 MSTORE DUP3 KECCAK256 SLOAD PUSH2 0x1011 SWAP2 SWAP1 PUSH2 0x2952 JUMP JUMPDEST PUSH1 0x0 DUP2 DUP2 MSTORE PUSH1 0x2 DUP4 ADD PUSH1 0x20 MSTORE PUSH1 0x40 DUP2 KECCAK256 SLOAD DUP1 ISZERO ISZERO DUP1 PUSH2 0x2238 JUMPI POP PUSH2 0x2238 DUP5 DUP5 PUSH2 0x2481 JUMP JUMPDEST PUSH2 0x1011 JUMPI PUSH1 0x40 MLOAD PUSH3 0x461BCD PUSH1 0xE5 SHL DUP2 MSTORE PUSH1 0x20 PUSH1 0x4 DUP3 ADD MSTORE PUSH1 0x1E PUSH1 0x24 DUP3 ADD MSTORE PUSH32 0x456E756D657261626C654D61703A206E6F6E6578697374656E74206B65790000 PUSH1 0x44 DUP3 ADD MSTORE PUSH1 0x64 ADD PUSH2 0x50E JUMP JUMPDEST PUSH1 0x0 DUP2 DUP2 MSTORE PUSH1 0x2 DUP4 ADD PUSH1 0x20 MSTORE PUSH1 0x40 DUP2 KECCAK256 DUP2 SWAP1 SSTORE PUSH2 0x1011 DUP4 DUP4 PUSH2 0x129D JUMP JUMPDEST PUSH1 0x0 DUP3 DUP2 MSTORE PUSH1 0x2 DUP5 ADD PUSH1 0x20 MSTORE PUSH1 0x40 DUP2 KECCAK256 DUP3 SWAP1 SSTORE PUSH2 0x183E DUP5 DUP5 PUSH2 0x170E JUMP JUMPDEST PUSH1 0x0 PUSH8 0xDE0B6B3A7640000 PUSH2 0x22D3 DUP4 DUP6 PUSH2 0x2824 JUMP JUMPDEST PUSH2 0x1011 SWAP2 SWAP1 PUSH2 0x28D9 JUMP JUMPDEST PUSH1 0x0 DUP2 DUP2 MSTORE PUSH1 0x2 DUP4 ADD PUSH1 0x20 MSTORE PUSH1 0x40 DUP2 KECCAK256 SLOAD DUP2 SWAP1 DUP1 PUSH2 0x230C JUMPI PUSH2 0x22FF DUP6 DUP6 PUSH2 0x2481 JUMP JUMPDEST SWAP3 POP PUSH1 0x0 SWAP2 POP PUSH2 0x12CB SWAP1 POP JUMP JUMPDEST PUSH1 0x1 SWAP3 POP SWAP1 POP PUSH2 0x12CB JUMP JUMPDEST PUSH1 0x0 PUSH2 0x2344 PUSH1 0x40 MLOAD DUP1 PUSH1 0x80 ADD PUSH1 0x40 MSTORE DUP1 PUSH1 0x0 DUP2 MSTORE PUSH1 0x20 ADD PUSH1 0x0 DUP2 MSTORE PUSH1 0x20 ADD PUSH1 0x0 DUP2 MSTORE PUSH1 0x20 ADD PUSH1 0x0 DUP2 MSTORE POP SWAP1 JUMP JUMPDEST DUP3 DUP5 LT PUSH2 0x235E JUMPI PUSH1 0x0 PUSH2 0x2355 PUSH2 0x1BC3 JUMP JUMPDEST SWAP2 POP SWAP2 POP PUSH2 0x2469 JUMP JUMPDEST PUSH2 0x2368 DUP5 DUP5 PUSH2 0x2811 JUMP JUMPDEST PUSH1 0x1 SUB PUSH2 0x23B6 JUMPI PUSH1 0x0 DUP7 DUP6 DUP2 MLOAD DUP2 LT PUSH2 0x2383 JUMPI PUSH2 0x2383 PUSH2 0x2886 JUMP JUMPDEST PUSH1 0x20 MUL PUSH1 0x20 ADD ADD MLOAD SWAP1 POP DUP6 DUP2 PUSH1 0x0 ADD MLOAD GT ISZERO PUSH2 0x23A8 JUMPI PUSH1 0x0 PUSH2 0x23A3 PUSH2 0x1BC3 JUMP JUMPDEST PUSH2 0x23AC JUMP JUMPDEST PUSH1 0x1 DUP2 JUMPDEST SWAP3 POP SWAP3 POP POP PUSH2 0x2469 JUMP JUMPDEST PUSH1 0x0 PUSH1 0x2 PUSH2 0x23C4 DUP7 DUP7 PUSH2 0x283B JUMP JUMPDEST PUSH2 0x23CE SWAP2 SWAP1 PUSH2 0x28D9 JUMP JUMPDEST SWAP1 POP PUSH1 0x0 DUP8 PUSH2 0x23DE PUSH1 0x1 DUP5 PUSH2 0x2811 JUMP JUMPDEST DUP2 MLOAD DUP2 LT PUSH2 0x23EE JUMPI PUSH2 0x23EE PUSH2 0x2886 JUMP JUMPDEST PUSH1 0x20 MUL PUSH1 0x20 ADD ADD MLOAD SWAP1 POP PUSH1 0x0 DUP9 DUP4 DUP2 MLOAD DUP2 LT PUSH2 0x240C JUMPI PUSH2 0x240C PUSH2 0x2886 JUMP JUMPDEST PUSH1 0x20 MUL PUSH1 0x20 ADD ADD MLOAD SWAP1 POP DUP8 DUP3 PUSH1 0x0 ADD MLOAD GT ISZERO DUP1 ISZERO PUSH2 0x242A JUMPI POP DUP1 MLOAD DUP9 LT JUMPDEST ISZERO PUSH2 0x243D JUMPI POP PUSH1 0x1 SWAP4 POP SWAP2 POP PUSH2 0x2469 SWAP1 POP JUMP JUMPDEST DUP1 MLOAD DUP9 LT PUSH2 0x245D JUMPI PUSH2 0x2451 DUP10 DUP10 DUP6 DUP10 PUSH2 0x2317 JUMP JUMPDEST SWAP5 POP SWAP5 POP POP POP POP PUSH2 0x2469 JUMP JUMPDEST PUSH2 0x2451 DUP10 DUP10 DUP10 DUP7 PUSH2 0x2317 JUMP JUMPDEST SWAP5 POP SWAP5 SWAP3 POP POP POP JUMP JUMPDEST PUSH1 0x60 PUSH2 0x183E DUP5 DUP5 PUSH1 0x0 DUP6 PUSH2 0x248D JUMP JUMPDEST PUSH1 0x0 PUSH2 0x1011 DUP4 DUP4 PUSH2 0x2568 JUMP JUMPDEST PUSH1 0x60 DUP3 SELFBALANCE LT ISZERO PUSH2 0x24EE JUMPI PUSH1 0x40 MLOAD PUSH3 0x461BCD PUSH1 0xE5 SHL DUP2 MSTORE PUSH1 0x20 PUSH1 0x4 DUP3 ADD MSTORE PUSH1 0x26 PUSH1 0x24 DUP3 ADD MSTORE PUSH32 0x416464726573733A20696E73756666696369656E742062616C616E636520666F PUSH1 0x44 DUP3 ADD MSTORE PUSH6 0x1C8818D85B1B PUSH1 0xD2 SHL PUSH1 0x64 DUP3 ADD MSTORE PUSH1 0x84 ADD PUSH2 0x50E JUMP JUMPDEST PUSH1 0x0 DUP1 DUP7 PUSH1 0x1 PUSH1 0x1 PUSH1 0xA0 SHL SUB AND DUP6 DUP8 PUSH1 0x40 MLOAD PUSH2 0x250A SWAP2 SWAP1 PUSH2 0x2996 JUMP JUMPDEST PUSH1 0x0 PUSH1 0x40 MLOAD DUP1 DUP4 SUB DUP2 DUP6 DUP8 GAS CALL SWAP3 POP POP POP RETURNDATASIZE DUP1 PUSH1 0x0 DUP2 EQ PUSH2 0x2547 JUMPI PUSH1 0x40 MLOAD SWAP2 POP PUSH1 0x1F NOT PUSH1 0x3F RETURNDATASIZE ADD AND DUP3 ADD PUSH1 0x40 MSTORE RETURNDATASIZE DUP3 MSTORE RETURNDATASIZE PUSH1 0x0 PUSH1 0x20 DUP5 ADD RETURNDATACOPY PUSH2 0x254C JUMP JUMPDEST PUSH1 0x60 SWAP2 POP JUMPDEST POP SWAP2 POP SWAP2 POP PUSH2 0x255D DUP8 DUP4 DUP4 DUP8 PUSH2 0x2580 JUMP JUMPDEST SWAP8 SWAP7 POP POP POP POP POP POP POP JUMP JUMPDEST PUSH1 0x0 DUP2 DUP2 MSTORE PUSH1 0x1 DUP4 ADD PUSH1 0x20 MSTORE PUSH1 0x40 DUP2 KECCAK256 SLOAD ISZERO ISZERO PUSH2 0x1011 JUMP JUMPDEST PUSH1 0x60 DUP4 ISZERO PUSH2 0x25EF JUMPI DUP3 MLOAD PUSH1 0x0 SUB PUSH2 0x25E8 JUMPI PUSH1 0x1 PUSH1 0x1 PUSH1 0xA0 SHL SUB DUP6 AND EXTCODESIZE PUSH2 0x25E8 JUMPI PUSH1 0x40 MLOAD PUSH3 0x461BCD PUSH1 0xE5 SHL DUP2 MSTORE PUSH1 0x20 PUSH1 0x4 DUP3 ADD MSTORE PUSH1 0x1D PUSH1 0x24 DUP3 ADD MSTORE PUSH32 0x416464726573733A2063616C6C20746F206E6F6E2D636F6E7472616374000000 PUSH1 0x44 DUP3 ADD MSTORE PUSH1 0x64 ADD PUSH2 0x50E JUMP JUMPDEST POP DUP2 PUSH2 0x183E JUMP JUMPDEST PUSH2 0x183E DUP4 DUP4 DUP2 MLOAD ISZERO PUSH2 0x2604 JUMPI DUP2 MLOAD DUP1 DUP4 PUSH1 0x20 ADD REVERT JUMPDEST DUP1 PUSH1 0x40 MLOAD PUSH3 0x461BCD PUSH1 0xE5 SHL DUP2 MSTORE PUSH1 0x4 ADD PUSH2 0x50E SWAP2 SWAP1 PUSH2 0x29B2 JUMP JUMPDEST DUP1 CALLDATALOAD PUSH1 0x1 PUSH1 0x1 PUSH1 0xA0 SHL SUB DUP2 AND DUP2 EQ PUSH2 0x2635 JUMPI PUSH1 0x0 DUP1 REVERT JUMPDEST SWAP2 SWAP1 POP JUMP JUMPDEST PUSH1 0x0 PUSH1 0x20 DUP3 DUP5 SUB SLT ISZERO PUSH2 0x264C JUMPI PUSH1 0x0 DUP1 REVERT JUMPDEST PUSH2 0x1011 DUP3 PUSH2 0x261E JUMP JUMPDEST PUSH1 0x0 PUSH1 0x20 DUP3 DUP5 SUB SLT ISZERO PUSH2 0x2667 JUMPI PUSH1 0x0 DUP1 REVERT JUMPDEST POP CALLDATALOAD SWAP2 SWAP1 POP JUMP JUMPDEST PUSH1 0x20 DUP1 DUP3 MSTORE DUP3 MLOAD DUP3 DUP3 ADD DUP2 SWAP1 MSTORE PUSH1 0x0 SWAP2 SWAP1 PUSH1 0x40 SWAP1 DUP2 DUP6 ADD SWAP1 DUP7 DUP5 ADD DUP6 JUMPDEST DUP3 DUP2 LT ISZERO PUSH2 0x26B9 JUMPI DUP2 MLOAD DUP1 MLOAD PUSH1 0x1 PUSH1 0x1 PUSH1 0xA0 SHL SUB AND DUP6 MSTORE DUP7 ADD MLOAD DUP7 DUP6 ADD MSTORE SWAP3 DUP5 ADD SWAP3 SWAP1 DUP6 ADD SWAP1 PUSH1 0x1 ADD PUSH2 0x268B JUMP JUMPDEST POP SWAP2 SWAP8 SWAP7 POP POP POP POP POP POP POP JUMP JUMPDEST PUSH1 0x0 DUP1 PUSH1 0x0 PUSH1 0x60 DUP5 DUP7 SUB SLT ISZERO PUSH2 0x26DB JUMPI PUSH1 0x0 DUP1 REVERT JUMPDEST PUSH2 0x26E4 DUP5 PUSH2 0x261E JUMP JUMPDEST SWAP6 PUSH1 0x20 DUP6 ADD CALLDATALOAD SWAP6 POP PUSH1 0x40 SWAP1 SWAP5 ADD CALLDATALOAD SWAP4 SWAP3 POP POP POP JUMP JUMPDEST PUSH1 0x0 DUP1 PUSH1 0x40 DUP4 DUP6 SUB SLT ISZERO PUSH2 0x270C JUMPI PUSH1 0x0 DUP1 REVERT JUMPDEST DUP3 CALLDATALOAD SWAP2 POP PUSH2 0x271C PUSH1 0x20 DUP5 ADD PUSH2 0x261E JUMP JUMPDEST SWAP1 POP SWAP3 POP SWAP3 SWAP1 POP JUMP JUMPDEST PUSH1 0x0 DUP1 PUSH1 0x40 DUP4 DUP6 SUB SLT ISZERO PUSH2 0x2738 JUMPI PUSH1 0x0 DUP1 REVERT JUMPDEST PUSH2 0x2741 DUP4 PUSH2 0x261E JUMP JUMPDEST SWAP5 PUSH1 0x20 SWAP4 SWAP1 SWAP4 ADD CALLDATALOAD SWAP4 POP POP POP JUMP JUMPDEST PUSH1 0x20 DUP1 DUP3 MSTORE DUP3 MLOAD DUP3 DUP3 ADD DUP2 SWAP1 MSTORE PUSH1 0x0 SWAP2 SWAP1 PUSH1 0x40 SWAP1 DUP2 DUP6 ADD SWAP1 DUP7 DUP5 ADD DUP6 JUMPDEST DUP3 DUP2 LT ISZERO PUSH2 0x26B9 JUMPI DUP2 MLOAD DUP1 MLOAD DUP6 MSTORE DUP7 DUP2 ADD MLOAD DUP8 DUP7 ADD MSTORE DUP6 DUP2 ADD MLOAD DUP7 DUP7 ADD MSTORE PUSH1 0x60 DUP1 DUP3 ADD MLOAD PUSH1 0x1 PUSH1 0x1 PUSH1 0xA0 SHL SUB SWAP1 DUP2 AND SWAP2 DUP8 ADD SWAP2 SWAP1 SWAP2 MSTORE PUSH1 0x80 SWAP2 DUP3 ADD MLOAD AND SWAP1 DUP6 ADD MSTORE PUSH1 0xA0 SWAP1 SWAP4 ADD SWAP3 SWAP1 DUP6 ADD SWAP1 PUSH1 0x1 ADD PUSH2 0x276C JUMP JUMPDEST PUSH1 0x0 DUP1 PUSH1 0x0 PUSH1 0x60 DUP5 DUP7 SUB SLT ISZERO PUSH2 0x27D4 JUMPI PUSH1 0x0 DUP1 REVERT JUMPDEST PUSH2 0x27DD DUP5 PUSH2 0x261E JUMP JUMPDEST SWAP3 POP PUSH2 0x27EB PUSH1 0x20 DUP6 ADD PUSH2 0x261E JUMP JUMPDEST SWAP2 POP PUSH1 0x40 DUP5 ADD CALLDATALOAD SWAP1 POP SWAP3 POP SWAP3 POP SWAP3 JUMP JUMPDEST PUSH4 0x4E487B71 PUSH1 0xE0 SHL PUSH1 0x0 MSTORE PUSH1 0x11 PUSH1 0x4 MSTORE PUSH1 0x24 PUSH1 0x0 REVERT JUMPDEST DUP2 DUP2 SUB DUP2 DUP2 GT ISZERO PUSH2 0xB1C JUMPI PUSH2 0xB1C PUSH2 0x27FB JUMP JUMPDEST DUP1 DUP3 MUL DUP2 ISZERO DUP3 DUP3 DIV DUP5 EQ OR PUSH2 0xB1C JUMPI PUSH2 0xB1C PUSH2 0x27FB JUMP JUMPDEST DUP1 DUP3 ADD DUP1 DUP3 GT ISZERO PUSH2 0xB1C JUMPI PUSH2 0xB1C PUSH2 0x27FB JUMP JUMPDEST PUSH1 0x0 PUSH1 0x20 DUP3 DUP5 SUB SLT ISZERO PUSH2 0x2860 JUMPI PUSH1 0x0 DUP1 REVERT JUMPDEST DUP2 MLOAD DUP1 ISZERO ISZERO DUP2 EQ PUSH2 0x1011 JUMPI PUSH1 0x0 DUP1 REVERT JUMPDEST PUSH4 0x4E487B71 PUSH1 0xE0 SHL PUSH1 0x0 MSTORE PUSH1 0x41 PUSH1 0x4 MSTORE PUSH1 0x24 PUSH1 0x0 REVERT JUMPDEST PUSH4 0x4E487B71 PUSH1 0xE0 SHL PUSH1 0x0 MSTORE PUSH1 0x32 PUSH1 0x4 MSTORE PUSH1 0x24 PUSH1 0x0 REVERT JUMPDEST PUSH1 0x0 PUSH1 0x1 DUP3 ADD PUSH2 0x28AE JUMPI PUSH2 0x28AE PUSH2 0x27FB JUMP JUMPDEST POP PUSH1 0x1 ADD SWAP1 JUMP JUMPDEST PUSH1 0x1 PUSH1 0x1 PUSH1 0xA0 SHL SUB SWAP4 DUP5 AND DUP2 MSTORE SWAP2 SWAP1 SWAP3 AND PUSH1 0x20 DUP3 ADD MSTORE PUSH1 0x40 DUP2 ADD SWAP2 SWAP1 SWAP2 MSTORE PUSH1 0x60 ADD SWAP1 JUMP JUMPDEST PUSH1 0x0 DUP3 PUSH2 0x28F6 JUMPI PUSH4 0x4E487B71 PUSH1 0xE0 SHL PUSH1 0x0 MSTORE PUSH1 0x12 PUSH1 0x4 MSTORE PUSH1 0x24 PUSH1 0x0 REVERT JUMPDEST POP DIV SWAP1 JUMP JUMPDEST PUSH1 0x0 PUSH1 0x20 DUP3 DUP5 SUB SLT ISZERO PUSH2 0x290D JUMPI PUSH1 0x0 DUP1 REVERT JUMPDEST POP MLOAD SWAP2 SWAP1 POP JUMP JUMPDEST PUSH4 0x4E487B71 PUSH1 0xE0 SHL PUSH1 0x0 MSTORE PUSH1 0x31 PUSH1 0x4 MSTORE PUSH1 0x24 PUSH1 0x0 REVERT JUMPDEST DUP1 DUP3 ADD DUP3 DUP2 SLT PUSH1 0x0 DUP4 SLT DUP1 ISZERO DUP3 AND DUP3 ISZERO DUP3 AND OR ISZERO PUSH2 0x294A JUMPI PUSH2 0x294A PUSH2 0x27FB JUMP JUMPDEST POP POP SWAP3 SWAP2 POP POP JUMP JUMPDEST DUP2 DUP2 SUB PUSH1 0x0 DUP4 SLT DUP1 ISZERO DUP4 DUP4 SGT AND DUP4 DUP4 SLT DUP3 AND OR ISZERO PUSH2 0x149C JUMPI PUSH2 0x149C PUSH2 0x27FB JUMP JUMPDEST PUSH1 0x0 JUMPDEST DUP4 DUP2 LT ISZERO PUSH2 0x298D JUMPI DUP2 DUP2 ADD MLOAD DUP4 DUP3 ADD MSTORE PUSH1 0x20 ADD PUSH2 0x2975 JUMP JUMPDEST POP POP PUSH1 0x0 SWAP2 ADD MSTORE JUMP JUMPDEST PUSH1 0x0 DUP3 MLOAD PUSH2 0x29A8 DUP2 DUP5 PUSH1 0x20 DUP8 ADD PUSH2 0x2972 JUMP JUMPDEST SWAP2 SWAP1 SWAP2 ADD SWAP3 SWAP2 POP POP JUMP JUMPDEST PUSH1 0x20 DUP2 MSTORE PUSH1 0x0 DUP3 MLOAD DUP1 PUSH1 0x20 DUP5 ADD MSTORE PUSH2 0x29D1 DUP2 PUSH1 0x40 DUP6 ADD PUSH1 0x20 DUP8 ADD PUSH2 0x2972 JUMP JUMPDEST PUSH1 0x1F ADD PUSH1 0x1F NOT AND SWAP2 SWAP1 SWAP2 ADD PUSH1 0x40 ADD SWAP3 SWAP2 POP POP JUMP INVALID LOG2 PUSH5 0x6970667358 0x22 SLT KECCAK256 0xED CALLDATALOAD PUSH23 0x75691CBB3BEB12BA131D31EF222041DBD33BA7FFAC1DD2 SWAP9 CREATE2 0xBA DUP16 0xA7 0xE8 PUSH5 0x736F6C6343 STOP ADDMOD GT STOP CALLER ","sha1":"b89aec1412ee838db5b57c37a65d405328656daf","source":"// SPDX-License-Identifier: UNLICENSED\npragma solidity ^0.8.17;\n\nimport \"@openzeppelin/contracts/token/ERC20/IERC20.sol\";\nimport \"@openzeppelin/contracts/proxy/utils/Initializable.sol\";\nimport \"@openzeppelin/contracts/utils/structs/EnumerableSet.sol\";\n\nimport \"../../interfaces/ILockingVault.sol\";\nimport \"../../libraries/DataTypes.sol\";\nimport \"../../libraries/VotingPowerHistory.sol\";\nimport \"../access/ImmutableOwner.sol\";\nimport \"../LiquidityMining.sol\";\nimport \"./BaseDelegatingVault.sol\";\n\ncontract LPVault is\n    Initializable,\n    BaseDelegatingVault,\n    ILockingVault,\n    ImmutableOwner,\n    LiquidityMining\n{\n    using EnumerableSet for EnumerableSet.UintSet;\n    using VotingPowerHistory for VotingPowerHistory.History;\n\n    IERC20 internal immutable lpToken;\n    uint256 internal withdrawalWaitDuration;\n\n    // Mapping of a user's address to their pending withdrawal ids.\n    mapping(address => EnumerableSet.UintSet) internal userPendingWithdrawalIds;\n\n    mapping(uint256 => DataTypes.PendingWithdrawal) internal pendingWithdrawals;\n\n    uint256 internal nextWithdrawalId;\n\n    // Total supply of shares locked in the vault that are not queued for withdrawal\n    uint256 public totalSupply;\n\n    constructor(\n        address _owner,\n        address _lpToken,\n        address _rewardsToken\n    ) ImmutableOwner(_owner) LiquidityMining(_rewardsToken) {\n        lpToken = IERC20(_lpToken);\n    }\n\n    function initialize(uint256 _withdrawalWaitDuration) external initializer {\n        withdrawalWaitDuration = _withdrawalWaitDuration;\n        globalCheckpoint();\n    }\n\n    function startMining(\n        address rewardsFrom,\n        uint256 amount,\n        uint256 endTime\n    ) external override onlyOwner {\n        _startMining(rewardsFrom, amount, endTime);\n    }\n\n    function stopMining(address reimbursementTo) external override onlyOwner {\n        _stopMining(reimbursementTo);\n    }\n\n    function setWithdrawalWaitDuration(uint256 _duration) external onlyOwner {\n        withdrawalWaitDuration = _duration;\n    }\n\n    function deposit(uint256 _amount) external {\n        deposit(_amount, msg.sender);\n    }\n\n    function deposit(uint256 _amount, address _delegate) public {\n        require(_delegate != address(0), \"no delegation to 0\");\n        require(_amount > 0, \"cannot deposit zero _amount\");\n\n        lpToken.transferFrom(msg.sender, address(this), _amount);\n        VotingPowerHistory.Record memory current = history.currentRecord(\n            msg.sender\n        );\n        history.updateVotingPower(\n            msg.sender,\n            current.baseVotingPower + _amount,\n            current.multiplier,\n            current.netDelegatedVotes\n        );\n        if (_delegate != address(0) && _delegate != msg.sender) {\n            _delegateVote(msg.sender, _delegate, _amount);\n        }\n        totalSupply += _amount;\n        _stake(msg.sender, _amount);\n\n        emit Deposit(msg.sender, _delegate, _amount);\n    }\n\n    function initiateWithdrawal(\n        uint256 _amount,\n        address _delegate\n    ) external returns (uint256) {\n        require(_amount >= 0, \"invalid withdrawal amount\");\n\n        VotingPowerHistory.Record memory currentVotingPower = history\n            .currentRecord(msg.sender);\n        require(\n            currentVotingPower.baseVotingPower >= _amount,\n            \"not enough to undelegate\"\n        );\n        history.updateVotingPower(\n            msg.sender,\n            currentVotingPower.baseVotingPower - _amount,\n            currentVotingPower.multiplier,\n            currentVotingPower.netDelegatedVotes\n        );\n        if (_delegate != address(0) && _delegate != msg.sender) {\n            _undelegateVote(msg.sender, _delegate, _amount);\n        }\n        totalSupply -= _amount;\n        _unstake(msg.sender, _amount);\n\n        DataTypes.PendingWithdrawal memory withdrawal = DataTypes\n            .PendingWithdrawal({\n                id: nextWithdrawalId,\n                withdrawableAt: block.timestamp + withdrawalWaitDuration,\n                amount: _amount,\n                to: msg.sender,\n                delegate: _delegate\n            });\n        pendingWithdrawals[withdrawal.id] = withdrawal;\n        userPendingWithdrawalIds[msg.sender].add(withdrawal.id);\n        nextWithdrawalId++;\n\n        emit WithdrawalQueued(\n            withdrawal.id,\n            withdrawal.to,\n            withdrawal.delegate,\n            withdrawal.withdrawableAt,\n            withdrawal.amount\n        );\n\n        return withdrawal.id;\n    }\n\n    function withdraw(uint256 withdrawalId) external {\n        DataTypes.PendingWithdrawal memory pending = pendingWithdrawals[\n            withdrawalId\n        ];\n        require(pending.to == msg.sender, \"matching withdrawal does not exist\");\n        require(\n            pending.withdrawableAt <= block.timestamp,\n            \"no valid pending withdrawal\"\n        );\n\n        lpToken.transfer(pending.to, pending.amount);\n\n        delete pendingWithdrawals[withdrawalId];\n        userPendingWithdrawalIds[pending.to].remove(withdrawalId);\n\n        emit WithdrawalCompleted(pending.to, pending.amount);\n    }\n\n    function getRawVotingPower(\n        address _user,\n        uint256 timestamp\n    ) public view override returns (uint256) {\n        return history.getVotingPower(_user, timestamp);\n    }\n\n    function getTotalRawVotingPower() public view override returns (uint256) {\n        return totalSupply;\n    }\n\n    function listPendingWithdrawals(\n        address _user\n    ) external view returns (DataTypes.PendingWithdrawal[] memory) {\n        EnumerableSet.UintSet storage ids = userPendingWithdrawalIds[_user];\n        DataTypes.PendingWithdrawal[]\n            memory pending = new DataTypes.PendingWithdrawal[](ids.length());\n        for (uint256 i = 0; i < ids.length(); i++) {\n            pending[i] = pendingWithdrawals[ids.at(i)];\n        }\n        return pending;\n    }\n}\n","sourcePath":"contracts/vaults/LPVault.sol","type":"contract","deployment":{"address":"0xe0170dB5Dd22d05Ef63f10D7A154ad1dB3BcD2a5","chainid":"137","blockHeight":44718881}}