{"abi":[{"inputs":[{"internalType":"contract IVotingPowerAggregator","name":"_votingPowerAggregator","type":"address"},{"internalType":"contract ITierer","name":"_tierer","type":"address"},{"internalType":"contract IWrappedERC20WithEMA","name":"_wGYD","type":"address"}],"stateMutability":"nonpayable","type":"constructor","name":"constructor"},{"inputs":[{"internalType":"address","name":"actual","type":"address"},{"internalType":"address","name":"expected","type":"address"}],"name":"NotAuthorized","type":"error"},{"anonymous":false,"inputs":[{"indexed":false,"internalType":"uint8","name":"version","type":"uint8"}],"name":"Initialized","type":"event"},{"anonymous":false,"inputs":[{"indexed":true,"internalType":"uint24","name":"id","type":"uint24"},{"indexed":false,"internalType":"address","name":"proposer","type":"address"},{"components":[{"internalType":"address","name":"target","type":"address"},{"internalType":"bytes","name":"data","type":"bytes"}],"indexed":false,"internalType":"struct DataTypes.ProposalAction[]","name":"actions","type":"tuple[]"}],"name":"ProposalCreated","type":"event"},{"anonymous":false,"inputs":[{"indexed":true,"internalType":"uint24","name":"proposalId","type":"uint24"}],"name":"ProposalExecuted","type":"event"},{"anonymous":false,"inputs":[{"indexed":true,"internalType":"uint24","name":"proposalId","type":"uint24"},{"indexed":false,"internalType":"enum DataTypes.Status","name":"status","type":"uint8"},{"indexed":false,"internalType":"enum DataTypes.ProposalOutcome","name":"outcome","type":"uint8"}],"name":"ProposalTallied","type":"event"},{"anonymous":false,"inputs":[{"indexed":true,"internalType":"uint24","name":"proposalId","type":"uint24"},{"indexed":false,"internalType":"address","name":"voter","type":"address"},{"indexed":false,"internalType":"enum DataTypes.Ballot","name":"vote","type":"uint8"}],"name":"VoteCast","type":"event"},{"inputs":[{"components":[{"internalType":"address","name":"target","type":"address"},{"internalType":"bytes","name":"data","type":"bytes"}],"internalType":"struct DataTypes.ProposalAction[]","name":"actions","type":"tuple[]"}],"name":"createProposal","outputs":[],"stateMutability":"nonpayable","type":"function"},{"inputs":[{"internalType":"uint24","name":"proposalId","type":"uint24"}],"name":"executeProposal","outputs":[],"stateMutability":"nonpayable","type":"function"},{"inputs":[{"internalType":"address","name":"voter","type":"address"},{"internalType":"uint24","name":"proposalId","type":"uint24"}],"name":"getBallot","outputs":[{"internalType":"enum DataTypes.Ballot","name":"","type":"uint8"}],"stateMutability":"view","type":"function"},{"inputs":[{"internalType":"uint24","name":"proposalId","type":"uint24"}],"name":"getCurrentPercentages","outputs":[{"internalType":"uint256","name":"for_","type":"uint256"},{"internalType":"uint256","name":"against","type":"uint256"},{"internalType":"uint256","name":"abstain","type":"uint256"}],"stateMutability":"view","type":"function"},{"inputs":[{"internalType":"uint24","name":"proposalId","type":"uint24"}],"name":"getVoteTotals","outputs":[{"components":[{"components":[{"internalType":"address","name":"vaultAddress","type":"address"},{"internalType":"uint256","name":"votingPower","type":"uint256"}],"internalType":"struct DataTypes.VaultVotingPower[]","name":"_for","type":"tuple[]"},{"components":[{"internalType":"address","name":"vaultAddress","type":"address"},{"internalType":"uint256","name":"votingPower","type":"uint256"}],"internalType":"struct DataTypes.VaultVotingPower[]","name":"against","type":"tuple[]"},{"components":[{"internalType":"address","name":"vaultAddress","type":"address"},{"internalType":"uint256","name":"votingPower","type":"uint256"}],"internalType":"struct DataTypes.VaultVotingPower[]","name":"abstentions","type":"tuple[]"}],"internalType":"struct DataTypes.VoteTotals","name":"","type":"tuple"}],"stateMutability":"view","type":"function"},{"inputs":[{"components":[{"internalType":"uint8","name":"actionLevelThreshold","type":"uint8"},{"internalType":"uint256","name":"emaThreshold","type":"uint256"},{"internalType":"contract ITierStrategy","name":"tierStrategy","type":"address"}],"internalType":"struct DataTypes.LimitUpgradeabilityParameters","name":"_params","type":"tuple"}],"name":"initialize","outputs":[],"stateMutability":"nonpayable","type":"function"},{"inputs":[],"name":"limitUpgradeabilityParams","outputs":[{"internalType":"uint8","name":"actionLevelThreshold","type":"uint8"},{"internalType":"uint256","name":"emaThreshold","type":"uint256"},{"internalType":"contract ITierStrategy","name":"tierStrategy","type":"address"}],"stateMutability":"view","type":"function"},{"inputs":[],"name":"listActiveProposals","outputs":[{"components":[{"internalType":"uint64","name":"createdAt","type":"uint64"},{"internalType":"uint64","name":"executableAt","type":"uint64"},{"internalType":"uint64","name":"votingEndsAt","type":"uint64"},{"internalType":"uint64","name":"voteThreshold","type":"uint64"},{"internalType":"uint64","name":"quorum","type":"uint64"},{"internalType":"uint24","name":"id","type":"uint24"},{"internalType":"address","name":"proposer","type":"address"},{"internalType":"enum DataTypes.Status","name":"status","type":"uint8"},{"components":[{"internalType":"address","name":"target","type":"address"},{"internalType":"bytes","name":"data","type":"bytes"}],"internalType":"struct DataTypes.ProposalAction[]","name":"actions","type":"tuple[]"}],"internalType":"struct DataTypes.Proposal[]","name":"","type":"tuple[]"}],"stateMutability":"view","type":"function"},{"inputs":[],"name":"listTimelockedProposals","outputs":[{"components":[{"internalType":"uint64","name":"createdAt","type":"uint64"},{"internalType":"uint64","name":"executableAt","type":"uint64"},{"internalType":"uint64","name":"votingEndsAt","type":"uint64"},{"internalType":"uint64","name":"voteThreshold","type":"uint64"},{"internalType":"uint64","name":"quorum","type":"uint64"},{"internalType":"uint24","name":"id","type":"uint24"},{"internalType":"address","name":"proposer","type":"address"},{"internalType":"enum DataTypes.Status","name":"status","type":"uint8"},{"components":[{"internalType":"address","name":"target","type":"address"},{"internalType":"bytes","name":"data","type":"bytes"}],"internalType":"struct DataTypes.ProposalAction[]","name":"actions","type":"tuple[]"}],"internalType":"struct DataTypes.Proposal[]","name":"","type":"tuple[]"}],"stateMutability":"view","type":"function"},{"inputs":[],"name":"proposalsCount","outputs":[{"internalType":"uint24","name":"","type":"uint24"}],"stateMutability":"view","type":"function"},{"inputs":[{"internalType":"uint24","name":"proposalId","type":"uint24"}],"name":"tallyVote","outputs":[],"stateMutability":"nonpayable","type":"function"},{"inputs":[],"name":"tierer","outputs":[{"internalType":"contract ITierer","name":"","type":"address"}],"stateMutability":"view","type":"function"},{"inputs":[{"components":[{"internalType":"uint8","name":"actionLevelThreshold","type":"uint8"},{"internalType":"uint256","name":"emaThreshold","type":"uint256"},{"internalType":"contract ITierStrategy","name":"tierStrategy","type":"address"}],"internalType":"struct DataTypes.LimitUpgradeabilityParameters","name":"_params","type":"tuple"}],"name":"updateLimitUpgradeabilityParams","outputs":[],"stateMutability":"nonpayable","type":"function"},{"inputs":[{"internalType":"uint24","name":"proposalId","type":"uint24"},{"internalType":"enum DataTypes.Ballot","name":"ballot","type":"uint8"}],"name":"vote","outputs":[],"stateMutability":"nonpayable","type":"function"},{"inputs":[],"name":"votingPowerAggregator","outputs":[{"internalType":"contract IVotingPowerAggregator","name":"","type":"address"}],"stateMutability":"view","type":"function"},{"inputs":[],"name":"wGYD","outputs":[{"internalType":"contract IWrappedERC20WithEMA","name":"","type":"address"}],"stateMutability":"view","type":"function"}],"bytecode":"60e06040523480156200001157600080fd5b50604051620033973803806200339783398101604081905262000034916200006b565b6001600160a01b0392831660805290821660a0521660c052620000bf565b6001600160a01b03811681146200006857600080fd5b50565b6000806000606084860312156200008157600080fd5b83516200008e8162000052565b6020850151909350620000a18162000052565b6040850151909250620000b48162000052565b809150509250925092565b60805160a05160c05161327762000120600039600081816101cc0152610f3701526000818161018d01528181610d580152610ddf015260008181610234015281816104f4015281816110580152818161110001526113fb01526132776000f3fe608060405234801561001057600080fd5b50600436106101005760003560e01c8063b661f94711610097578063cc7d76ce11610066578063cc7d76ce146102b1578063ceab5253146102c4578063d2f5a21a14610311578063e14ff1081461032457600080fd5b8063b661f9471461021c578063c1ab52cd1461022f578063c36a4ad214610256578063c3955c7b1461029c57600080fd5b80634ba0dc04116100d35780634ba0dc0414610175578063595d53c3146101885780636ff3bb4d146101c75780638d6e004a146101ee57600080fd5b80630a9f46ad1461010557806321e4c3011461012d57806328f46f1414610142578063438599d614610155575b600080fd5b6004546101149062ffffff1681565b60405162ffffff90911681526020015b60405180910390f35b61014061013b366004612478565b61032c565b005b61014061015036600461256a565b6107cf565b6101686101633660046125d2565b61091a565b604051610124919061263f565b6101406101833660046125d2565b610961565b6101af7f000000000000000000000000000000000000000000000000000000000000000081565b6040516001600160a01b039091168152602001610124565b6101af7f000000000000000000000000000000000000000000000000000000000000000081565b6102016101fc3660046125d2565b610bcb565b60408051938452602084019290925290820152606001610124565b61014061022a36600461256a565b610c23565b6101af7f000000000000000000000000000000000000000000000000000000000000000081565b6001546002546003546102749260ff1691906001600160a01b031683565b6040805160ff909416845260208401929092526001600160a01b031690820152606001610124565b6102a4610c8d565b604051610124919061278c565b6101406102bf366004612878565b610ca6565b6103046102d23660046128ec565b6001600160a01b0382166000908152600b6020908152604080832062ffffff8516845290915290205460ff1692915050565b6040516101249190612931565b61014061031f3660046125d2565b61152e565b6102a46117fb565b62ffffff82166000908152600960205260408120805490916001600160401b0390911690036103765760405162461bcd60e51b815260040161036d90612944565b60405180910390fd5b80546001600160401b03428116600160801b90920416116103e35760405162461bcd60e51b815260206004820152602160248201527f766f74696e6720697320636c6f736564206f6e20746869732070726f706f73616044820152601b60fa1b606482015260840161036d565b60008260038111156103f7576103f76126a0565b036104595760405162461bcd60e51b815260206004820152602c60248201527f62616c6c6f74206d757374206265206361737420466f722c20416761696e737460448201526b161037b91020b139ba30b4b760a11b606482015260840161036d565b62ffffff83166000908152600a6020908152604080832080548251818502810185019093528083529192909190849084015b828210156104e0576000848152602090819020604080516060810182526003860290920180546001600160a01b031683526001808201548486015260029091015491830191909152908352909201910161048b565b505084549293506000926001600160a01b037f000000000000000000000000000000000000000000000000000000000000000016925063a10202fc915033906001600160401b03166105318661180a565b6040518463ffffffff1660e01b815260040161054f9392919061297b565b600060405180830381865afa15801561056c573d6000803e3d6000fd5b505050506040513d6000823e601f3d908101601f191682016040526105949190810190612a08565b336000908152600b6020908152604080832062ffffff8a168452909152812091925080825460ff1660038111156105cd576105cd6126a0565b14905060005b83518110156107635760008482815181106105f0576105f0612ac0565b60200260200101519050826106dc57805162ffffff8a166000908152600c602052604081208654919261066392909190849060ff166003811115610636576106366126a0565b6003811115610647576106476126a0565b81526020019081526020016000206118c290919063ffffffff16565b9150506106d9826000015183602001518361067e9190612aec565b62ffffff8d166000908152600c60205260408120895490919060ff1660038111156106ab576106ab6126a0565b60038111156106bc576106bc6126a0565b81526020019081526020016000206118e99092919063ffffffff16565b50505b805162ffffff8a166000908152600c60205260408120909161070b91838c6003811115610636576106366126a0565b91505061074d82600001518360200151836107269190612aff565b62ffffff8d166000908152600c60205260408120908d60038111156106ab576106ab6126a0565b505050808061075b90612b12565b9150506105d3565b5081548690839060ff19166001836003811115610782576107826126a0565b02179055508662ffffff167f150cd829623f1cc413133eccff464c8ef075c3d503c152eae1a38538585c29e033886040516107be929190612b2b565b60405180910390a250505050505050565b600054610100900460ff16158080156107ef5750600054600160ff909116105b806108095750303b158015610809575060005460ff166001145b61086c5760405162461bcd60e51b815260206004820152602e60248201527f496e697469616c697a61626c653a20636f6e747261637420697320616c72656160448201526d191e481a5b9a5d1a585b1a5e995960921b606482015260840161036d565b6000805460ff19166001179055801561088f576000805461ff0019166101001790555b81516001805460ff191660ff90921691909117905560208201516002556040820151600380546001600160a01b0319166001600160a01b039092169190911790558015610916576000805461ff0019169055604051600181527f7f26b83ff96e1f2b6a682f133852f6798a09c465da95921460cefb38474024989060200160405180910390a15b5050565b61093e60405180606001604052806060815260200160608152602001606081525090565b62ffffff82166000908152600c6020526040902061095b90611907565b92915050565b62ffffff8116600090815260096020526040902080546001600160401b031661099c5760405162461bcd60e51b815260040161036d90612944565b6109ac600762ffffff84166119a4565b80156109cd575080546001600160401b03600160401b909104811642909116115b610a2e5760405162461bcd60e51b815260206004820152602c60248201527f70726f706f73616c206d7573742062652071756575656420616e64207265616460448201526b7920746f206578656375746560a01b606482015260840161036d565b60005b6002820154811015610b6e57610b5b826002018281548110610a5557610a55612ac0565b90600052602060002090600202016001018054610a7190612b51565b80601f0160208091040260200160405190810160405280929190818152602001828054610a9d90612b51565b8015610aea5780601f10610abf57610100808354040283529160200191610aea565b820191906000526020600020905b815481529060010190602001808311610acd57829003601f168201915b50505050506040518060400160405280601981526020017f70726f706f73616c20657865637574696f6e206661696c656400000000000000815250846002018481548110610b3a57610b3a612ac0565b60009182526020909120600290910201546001600160a01b031691906119bf565b5080610b6681612b12565b915050610a31565b506001810180546001600160f81b0316600160fa1b179055610b96600762ffffff84166119ce565b5060405162ffffff8316907f934e084a11f01168de309f3226f7b0af3360b809c501b627ab68604371c5fd7c90600090a25050565b62ffffff811660009081526009602052604081208054829182916001600160401b03168203610c0c5760405162461bcd60e51b815260040161036d90612944565b610c15816119da565b935093509350509193909250565b333014610c4b5760405163c55ddc9760e01b815233600482015230602482015260440161036d565b80516001805460ff191660ff909216919091179055602081015160025560400151600380546001600160a01b0319166001600160a01b03909216919091179055565b6060610ca1610c9c6007611af6565b611b03565b905090565b80610d045760405162461bcd60e51b815260206004820152602860248201527f63616e6e6f742063726561746520612070726f706f73616c2077697468206e6f60448201526720616374696f6e7360c01b606482015260840161036d565b600082826000818110610d1957610d19612ac0565b9050602002810190610d2b9190612b8b565b610d3490612bab565b8051602082015160405163feb52af560e01b81529293506000926001600160a01b037f0000000000000000000000000000000000000000000000000000000000000000169263feb52af592610d8b92600401612c58565b60c0604051808303816000875af1158015610daa573d6000803e3d6000fd5b505050506040513d601f19601f82011682018060405250810190610dce9190612ca7565b905060015b83811015610f2f5760007f00000000000000000000000000000000000000000000000000000000000000006001600160a01b031663feb52af5878785818110610e1e57610e1e612ac0565b9050602002810190610e309190612b8b565b610e3e906020810190612d47565b888886818110610e5057610e50612ac0565b9050602002810190610e629190612b8b565b610e70906020810190612d64565b6040518463ffffffff1660e01b8152600401610e8e93929190612dd3565b60c0604051808303816000875af1158015610ead573d6000803e3d6000fd5b505050506040513d601f19601f82011682018060405250810190610ed19190612ca7565b90508260a0015160ff168160a0015160ff161115610f1c57858583818110610efb57610efb612ac0565b9050602002810190610f0d9190612b8b565b610f1690612bab565b93508092505b5080610f2781612b12565b915050610dd3565b5060018001547f00000000000000000000000000000000000000000000000000000000000000006001600160a01b03166355c31b3a6040518163ffffffff1660e01b8152600401602060405180830381865afa158015610f93573d6000803e3d6000fd5b505050506040513d601f19601f82011682018060405250810190610fb79190612df8565b118015610fd0575060015460a082015160ff9182169116115b1561104c576003546020830151604051630c87fa5360e21b81526001600160a01b039092169163321fe94c9161100891600401612e11565b60c060405180830381865afa158015611025573d6000803e3d6000fd5b505050506040513d601f19601f820116820180604052508101906110499190612ca7565b90505b60006001600160a01b037f000000000000000000000000000000000000000000000000000000000000000016638ff400f433611089600142612aec565b6040516001600160e01b031960e085901b1681526001600160a01b0390921660048301526024820152604401600060405180830381865afa1580156110d2573d6000803e3d6000fd5b505050506040513d6000823e601f3d908101601f191682016040526110fa9190810190612a08565b905060007f00000000000000000000000000000000000000000000000000000000000000006001600160a01b0316633bef7abb836040518263ffffffff1660e01b815260040161114a9190612e24565b602060405180830381865afa158015611167573d6000803e3d6000fd5b505050506040513d601f19601f8201168201806040525081019061118b9190612df8565b905082602001516001600160401b03168111611211576040805162461bcd60e51b81526020600482015260248101919091527f70726f706f73657220646f65736e2774206861766520656e6f75676820766f7460448201527f696e6720706f77657220746f2070726f706f7365207468697320616374696f6e606482015260840161036d565b6080830151429060009061122b9063ffffffff1683612e7f565b90506000856060015163ffffffff16826112459190612e7f565b60045462ffffff1660008181526009602052604090206001808201805468010000000000000000600160f81b031916600160401b9485027fff0000000000000000000000000000000000000000ffffffffffffffffffffff161733600160581b021780825583546001600160401b038a811677ffffffffffffffff0000000000000000ffffffffffffffff1990921691909117600160801b8a831602176fffffffffffffffff00000000000000001916908716909502949094178355939450909290916001600160f81b0316600160f81b830217905550865160018201805467ffffffffffffffff19166001600160401b03928316179055604088015182546001600160c01b0316600160c01b919092160217815560005b898110156113c457816002018b8b8381811061137b5761137b612ac0565b905060200281019061138d9190612b8b565b8154600181018355600092835260209092209091600202016113af8282612eed565b505080806113bc90612b12565b91505061135d565b506001810154600160401b900462ffffff166000908152600a6020526040808220815163151f92d360e01b815291516114779391927f00000000000000000000000000000000000000000000000000000000000000006001600160a01b03169263151f92d3926004808401938290030181865afa158015611449573d6000803e3d6000fd5b505050506040513d6000823e601f3d908101601f191682016040526114719190810190613008565b90611dcb565b8060010160089054906101000a900462ffffff16600161149791906130ce565b6004805462ffffff191662ffffff92831617905560018201546114c491600591600160401b900416611ea2565b506001810154604051600160401b820462ffffff16917fe396c3447c45c285122f4831aa414b32f050697412693874b3d76915cb32d5bd9161151a91600160581b90046001600160a01b0316908e908e906130ea565b60405180910390a250505050505050505050565b62ffffff81166000908152600960205260408120805490916001600160401b03909116900361156f5760405162461bcd60e51b815260040161036d90612944565b61157f600562ffffff84166119a4565b6115cb5760405162461bcd60e51b815260206004820181905260248201527f70726f706f73616c206973206e6f742063757272656e746c7920616374697665604482015260640161036d565b80546001600160401b03600160801b9091048116429091161161163c5760405162461bcd60e51b815260206004820152602360248201527f766f74696e67206973206f6e676f696e6720666f7220746869732070726f706f6044820152621cd85b60ea1b606482015260840161036d565b600080600061164a846119da565b9194509250905060008161165e8486612aff565b6116689190612aff565b60018601549091506001600160401b0316811015611701576001850180546001600160f81b0316600160f91b1790556116a7600562ffffff88166119ce565b508562ffffff167f2a493178b5a20a5f25ba24ff7ec6ef19ab4e15e87b2d33fd2e7c1ae3655bb52f86600101601f9054906101000a900460ff1660016040516116f19291906131c9565b60405180910390a2505050505050565b60008061170e8587612aff565b111561172b576117286117218587612aff565b8690611eae565b90505b8554600090600160c01b90046001600160401b0316821061177657506001860180546001600160f81b0316600360f81b1790556003611770600762ffffff8a16611ea2565b50611791565b506001860180546001600160f81b0316600160f91b17905560025b6117a1600562ffffff8a166119ce565b50600187015460405162ffffff8a16917f2a493178b5a20a5f25ba24ff7ec6ef19ab4e15e87b2d33fd2e7c1ae3655bb52f916117e991600160f81b900460ff169085906131c9565b60405180910390a25050505050505050565b6060610ca1610c9c6005611af6565b80516060906000816001600160401b03811115611829576118296124b3565b604051908082528060200260200182016040528015611852578160200160208202803683370190505b50905060005b828110156118ba5784818151811061187257611872612ac0565b60200260200101516000015182828151811061189057611890612ac0565b6001600160a01b0390921660209283029190910190910152806118b281612b12565b915050611858565b509392505050565b60008080806118da866001600160a01b038716611ecd565b909450925050505b9250929050565b60006118ff846001600160a01b03851684611f07565b949350505050565b61192b60405180606001604052806060815260200160608152602001606081525090565b600160009081526020839052604081209061194582611f24565b6002600090815260208690526040812091925061196182611f24565b6003600090815260208890526040812091925061197d82611f24565b60408051606081018252968752602087019490945292850192909252509195945050505050565b600081815260018301602052604081205415155b9392505050565b60606118ff848460008561200b565b60006119b883836120e6565b6001810154600160401b900462ffffff166000908152600a60209081526040808320805482518185028101850190935280835284938493849390929091849084015b82821015611a71576000848152602090819020604080516060810182526003860290920180546001600160a01b0316835260018082015484860152600290910154918301919091529083529092019101611a1c565b50505060018088015462ffffff600160401b909104166000908152600c60205260408120939450611ace925083915b6003811115611ab157611ab16126a0565b8152602001908152602001600020836121d990919063ffffffff16565b9450611add8160006002611aa0565b9350611aec8160006003611aa0565b9496939550505050565b606060006119b883612266565b80516060906000816001600160401b03811115611b2257611b226124b3565b604051908082528060200260200182016040528015611ba257816020015b611b8f6040805161012081018252600080825260208201819052918101829052606081018290526080810182905260a0810182905260c081018290529060e08201908152602001606081525090565b815260200190600190039081611b405790505b50905060005b828110156118ba5760096000868381518110611bc657611bc6612ac0565b60209081029190910181015162ffffff908116835282820193909352604091820160002082516101208101845281546001600160401b038082168352600160401b808304821695840195909552600160801b8204811695830195909552600160c01b9004841660608201526001820154938416608082015291830490931660a0820152600160581b82046001600160a01b031660c0820152919060e0830190600160f81b900460ff166004811115611c8057611c806126a0565b6004811115611c9157611c916126a0565b815260200160028201805480602002602001604051908101604052809291908181526020016000905b82821015611d93576000848152602090819020604080518082019091526002850290910180546001600160a01b031682526001810180549293919291840191611d0290612b51565b80601f0160208091040260200160405190810160405280929190818152602001828054611d2e90612b51565b8015611d7b5780601f10611d5057610100808354040283529160200191611d7b565b820191906000526020600020905b815481529060010190602001808311611d5e57829003601f168201915b50505050508152505081526020019060010190611cba565b5050505081525050828281518110611dad57611dad612ac0565b60200260200101819052508080611dc390612b12565b915050611ba8565b805415611e125760405162461bcd60e51b815260206004820152601560248201527439ba37b930b3b29036bab9ba1031329031b632b0b760591b604482015260640161036d565b60005b8251811015611e9d5781838281518110611e3157611e31612ac0565b602090810291909101810151825460018082018555600094855293839020825160039092020180546001600160a01b0319166001600160a01b03909216919091178155918101519282019290925560409091015160029091015580611e9581612b12565b915050611e15565b505050565b60006119b883836122c2565b600081611ec3670de0b6b3a7640000856131e0565b6119b891906131f7565b6000818152600283016020526040812054819080611efc57611eef8585612311565b9250600091506118e29050565b6001925090506118e2565b600082815260028401602052604081208290556118ff8484611ea2565b60606000611f318361231d565b6001600160401b03811115611f4857611f486124b3565b604051908082528060200260200182016040528015611f8d57816020015b6040805180820190915260008082526020820152815260200190600190039081611f665790505b50905060005b611f9c8461231d565b81101561200457600080611fb08684612328565b915091506040518060400160405280836001600160a01b0316815260200182815250848481518110611fe457611fe4612ac0565b602002602001018190525050508080611ffc90612b12565b915050611f93565b5092915050565b60608247101561206c5760405162461bcd60e51b815260206004820152602660248201527f416464726573733a20696e73756666696369656e742062616c616e636520666f6044820152651c8818d85b1b60d21b606482015260840161036d565b600080866001600160a01b031685876040516120889190613219565b60006040518083038185875af1925050503d80600081146120c5576040519150601f19603f3d011682016040523d82523d6000602084013e6120ca565b606091505b50915091506120db87838387612337565b979650505050505050565b600081815260018301602052604081205480156121cf57600061210a600183612aec565b855490915060009061211e90600190612aec565b905081811461218357600086600001828154811061213e5761213e612ac0565b906000526020600020015490508087600001848154811061216157612161612ac0565b6000918252602080832090910192909255918252600188019052604090208390555b85548690806121945761219461322b565b60019003818190600052602060002001600090559055856001016000868152602001908152602001600020600090556001935050505061095b565b600091505061095b565b6000805b83518110156120045760008482815181106121fa576121fa612ac0565b60200260200101519050600061221d8260000151866118c290919063ffffffff16565b915050612245826020015161223f846040015184611eae90919063ffffffff16565b906123b0565b61224f9085612aff565b93505050808061225e90612b12565b9150506121dd565b6060816000018054806020026020016040519081016040528092919081815260200182805480156122b657602002820191906000526020600020905b8154815260200190600101908083116122a2575b50505050509050919050565b60008181526001830160205260408120546123095750815460018181018455600084815260208082209093018490558454848252828601909352604090209190915561095b565b50600061095b565b60006119b883836119a4565b600061095b826123c5565b60008080806118da86866123d0565b606083156123a657825160000361239f576001600160a01b0385163b61239f5760405162461bcd60e51b815260206004820152601d60248201527f416464726573733a2063616c6c20746f206e6f6e2d636f6e7472616374000000604482015260640161036d565b50816118ff565b6118ff83836123fb565b6000670de0b6b3a7640000611ec383856131e0565b600061095b82612425565b600080806123de858561242f565b600081815260029690960160205260409095205494959350505050565b81511561240b5781518083602001fd5b8060405162461bcd60e51b815260040161036d9190612e11565b600061095b825490565b60006119b88383600082600001828154811061244d5761244d612ac0565b9060005260206000200154905092915050565b803562ffffff8116811461247357600080fd5b919050565b6000806040838503121561248b57600080fd5b61249483612460565b91506020830135600481106124a857600080fd5b809150509250929050565b634e487b7160e01b600052604160045260246000fd5b604080519081016001600160401b03811182821017156124eb576124eb6124b3565b60405290565b604051606081016001600160401b03811182821017156124eb576124eb6124b3565b604051601f8201601f191681016001600160401b038111828210171561253b5761253b6124b3565b604052919050565b60ff8116811461255257600080fd5b50565b6001600160a01b038116811461255257600080fd5b60006060828403121561257c57600080fd5b604051606081018181106001600160401b038211171561259e5761259e6124b3565b60405282356125ac81612543565b81526020838101359082015260408301356125c681612555565b60408201529392505050565b6000602082840312156125e457600080fd5b6119b882612460565b600081518084526020808501945080840160005b8381101561263457815180516001600160a01b031688526020908101519088015260408701965090820190600101612601565b509495945050505050565b60208152600082516060602084015261265b60808401826125ed565b90506020840151601f198085840301604086015261267983836125ed565b925060408601519150808584030160608601525061269782826125ed565b95945050505050565b634e487b7160e01b600052602160045260246000fd5b600581106126c6576126c66126a0565b9052565b60005b838110156126e55781810151838201526020016126cd565b50506000910152565b600081518084526127068160208601602086016126ca565b601f01601f19169290920160200192915050565b600081518084526020808501808196508360051b8101915082860160005b8581101561277f578284038952815180516001600160a01b03168552850151604086860181905261276b818701836126ee565b9a87019a9550505090840190600101612738565b5091979650505050505050565b60006020808301818452808551808352604092508286019150828160051b87010184880160005b8381101561286a57603f19898403018552815180516001600160401b03908116855288820151811689860152878201518116888601526060808301518216908601526080808301519091169085015260a08082015162ffffff169085015260c0808201516001600160a01b03169085015260e080820151610120919061283b828801826126b6565b5050610100918201519185018190526128568582018361271a565b9689019694505050908601906001016127b3565b509098975050505050505050565b6000806020838503121561288b57600080fd5b82356001600160401b03808211156128a257600080fd5b818501915085601f8301126128b657600080fd5b8135818111156128c557600080fd5b8660208260051b85010111156128da57600080fd5b60209290920196919550909350505050565b600080604083850312156128ff57600080fd5b823561290a81612555565b915061291860208401612460565b90509250929050565b60048110612552576125526126a0565b6020810161293e83612921565b91905290565b60208082526017908201527f70726f706f73616c20646f6573206e6f74206578697374000000000000000000604082015260600190565b60006060820160018060a01b03808716845260206001600160401b0387168186015260606040860152828651808552608087019150828801945060005b818110156129d65785518516835294830194918301916001016129b8565b50909998505050505050505050565b60006001600160401b038211156129fe576129fe6124b3565b5060051b60200190565b60006020808385031215612a1b57600080fd5b82516001600160401b03811115612a3157600080fd5b8301601f81018513612a4257600080fd5b8051612a55612a50826129e5565b612513565b81815260069190911b82018301908381019087831115612a7457600080fd5b928401925b828410156120db5760408489031215612a925760008081fd5b612a9a6124c9565b8451612aa581612555565b81528486015186820152825260409093019290840190612a79565b634e487b7160e01b600052603260045260246000fd5b634e487b7160e01b600052601160045260246000fd5b8181038181111561095b5761095b612ad6565b8082018082111561095b5761095b612ad6565b600060018201612b2457612b24612ad6565b5060010190565b6001600160a01b038316815260408101612b4483612921565b8260208301529392505050565b600181811c90821680612b6557607f821691505b602082108103612b8557634e487b7160e01b600052602260045260246000fd5b50919050565b60008235603e19833603018112612ba157600080fd5b9190910192915050565b600060408236031215612bbd57600080fd5b612bc56124c9565b8235612bd081612555565b81526020838101356001600160401b0380821115612bed57600080fd5b9085019036601f830112612c0057600080fd5b813581811115612c1257612c126124b3565b612c24601f8201601f19168501612513565b91508082523684828501011115612c3a57600080fd5b80848401858401376000908201840152918301919091525092915050565b6001600160a01b03831681526040602082018190526000906118ff908301846126ee565b80516001600160401b038116811461247357600080fd5b805163ffffffff8116811461247357600080fd5b600060c08284031215612cb957600080fd5b60405160c081018181106001600160401b0382111715612cdb57612cdb6124b3565b604052612ce783612c7c565b8152612cf560208401612c7c565b6020820152612d0660408401612c7c565b6040820152612d1760608401612c93565b6060820152612d2860808401612c93565b608082015260a0830151612d3b81612543565b60a08201529392505050565b600060208284031215612d5957600080fd5b81356119b881612555565b6000808335601e19843603018112612d7b57600080fd5b8301803591506001600160401b03821115612d9557600080fd5b6020019150368190038213156118e257600080fd5b81835281816020850137506000828201602090810191909152601f909101601f19169091010190565b6001600160a01b03841681526040602082018190526000906126979083018486612daa565b600060208284031215612e0a57600080fd5b5051919050565b6020815260006119b860208301846126ee565b6020808252825182820181905260009190848201906040850190845b81811015612e7357835180516001600160a01b031684526020908101519084015260408301938501939250600101612e40565b50909695505050505050565b6001600160401b0381811683821601908082111561200457612004612ad6565b601f821115611e9d57600081815260208120601f850160051c81016020861015612ec65750805b601f850160051c820191505b81811015612ee557828155600101612ed2565b505050505050565b8135612ef881612555565b81546001600160a01b0319166001600160a01b0391909116178155600181810160208481013536869003601e19018112612f3157600080fd5b850180356001600160401b03811115612f4957600080fd5b8036038383011315612f5a57600080fd5b612f6e81612f688654612b51565b86612e9f565b6000601f821160018114612fa45760008315612f8c57508382018501355b600019600385901b1c1916600184901b178655612ffd565b600086815260209020601f19841690835b82811015612fd457868501880135825593870193908901908701612fb5565b5084821015612ff35760001960f88660031b161c198785880101351681555b50508683881b0186555b505050505050505050565b6000602080838503121561301b57600080fd5b82516001600160401b0381111561303157600080fd5b8301601f8101851361304257600080fd5b8051613050612a50826129e5565b8181526060918202830184019184820191908884111561306f57600080fd5b938501935b838510156130c25780858a03121561308c5760008081fd5b6130946124f1565b855161309f81612555565b815285870151878201526040808701519082015283529384019391850191613074565b50979650505050505050565b62ffffff81811683821601908082111561200457612004612ad6565b6001600160a01b038481168252604060208084018290528184018590526000926060600587901b860181019290860188865b898110156131b957888603605f190183528135368c9003603e1901811261314257600080fd5b8b01803561314f81612555565b861687528085013536829003601e1901811261316a57600080fd5b0184810190356001600160401b0381111561318457600080fd5b80360382131561319357600080fd5b88868901526131a58989018284612daa565b97505050918301919083019060010161311c565b50939a9950505050505050505050565b604081016131d782856126b6565b612b4483612921565b808202811582820484141761095b5761095b612ad6565b60008261321457634e487b7160e01b600052601260045260246000fd5b500490565b60008251612ba18184602087016126ca565b634e487b7160e01b600052603160045260246000fdfea26469706673582212202a05aeae9db37d6230fb9c5d41a6caf27bd1673891a08f73c2cf7dc0247639e464736f6c63430008110033","bytecodeSha1":"435df30f6a1e00feb8015cd773258c9f9e3e7cf8","compiler":{"evm_version":"istanbul","optimizer":{"enabled":true,"runs":200},"version":"0.8.17+commit.8df45f5f"},"contractName":"GovernanceManager","language":"Solidity","natspec":{"kind":"dev","methods":{},"version":1},"opcodes":"PUSH1 0x80 PUSH1 0x40 MSTORE CALLVALUE DUP1 ISZERO PUSH2 0x10 JUMPI PUSH1 0x0 DUP1 REVERT JUMPDEST POP PUSH1 0x4 CALLDATASIZE LT PUSH2 0x100 JUMPI PUSH1 0x0 CALLDATALOAD PUSH1 0xE0 SHR DUP1 PUSH4 0xB661F947 GT PUSH2 0x97 JUMPI DUP1 PUSH4 0xCC7D76CE GT PUSH2 0x66 JUMPI DUP1 PUSH4 0xCC7D76CE EQ PUSH2 0x2B1 JUMPI DUP1 PUSH4 0xCEAB5253 EQ PUSH2 0x2C4 JUMPI DUP1 PUSH4 0xD2F5A21A EQ PUSH2 0x311 JUMPI DUP1 PUSH4 0xE14FF108 EQ PUSH2 0x324 JUMPI PUSH1 0x0 DUP1 REVERT JUMPDEST DUP1 PUSH4 0xB661F947 EQ PUSH2 0x21C JUMPI DUP1 PUSH4 0xC1AB52CD EQ PUSH2 0x22F JUMPI DUP1 PUSH4 0xC36A4AD2 EQ PUSH2 0x256 JUMPI DUP1 PUSH4 0xC3955C7B EQ PUSH2 0x29C JUMPI PUSH1 0x0 DUP1 REVERT JUMPDEST DUP1 PUSH4 0x4BA0DC04 GT PUSH2 0xD3 JUMPI DUP1 PUSH4 0x4BA0DC04 EQ PUSH2 0x175 JUMPI DUP1 PUSH4 0x595D53C3 EQ PUSH2 0x188 JUMPI DUP1 PUSH4 0x6FF3BB4D EQ PUSH2 0x1C7 JUMPI DUP1 PUSH4 0x8D6E004A EQ PUSH2 0x1EE JUMPI PUSH1 0x0 DUP1 REVERT JUMPDEST DUP1 PUSH4 0xA9F46AD EQ PUSH2 0x105 JUMPI DUP1 PUSH4 0x21E4C301 EQ PUSH2 0x12D JUMPI DUP1 PUSH4 0x28F46F14 EQ PUSH2 0x142 JUMPI DUP1 PUSH4 0x438599D6 EQ PUSH2 0x155 JUMPI JUMPDEST PUSH1 0x0 DUP1 REVERT JUMPDEST PUSH1 0x4 SLOAD PUSH2 0x114 SWAP1 PUSH3 0xFFFFFF AND DUP2 JUMP JUMPDEST PUSH1 0x40 MLOAD PUSH3 0xFFFFFF SWAP1 SWAP2 AND DUP2 MSTORE PUSH1 0x20 ADD JUMPDEST PUSH1 0x40 MLOAD DUP1 SWAP2 SUB SWAP1 RETURN JUMPDEST PUSH2 0x140 PUSH2 0x13B CALLDATASIZE PUSH1 0x4 PUSH2 0x2478 JUMP JUMPDEST PUSH2 0x32C JUMP JUMPDEST STOP JUMPDEST PUSH2 0x140 PUSH2 0x150 CALLDATASIZE PUSH1 0x4 PUSH2 0x256A JUMP JUMPDEST PUSH2 0x7CF JUMP JUMPDEST PUSH2 0x168 PUSH2 0x163 CALLDATASIZE PUSH1 0x4 PUSH2 0x25D2 JUMP JUMPDEST PUSH2 0x91A JUMP JUMPDEST PUSH1 0x40 MLOAD PUSH2 0x124 SWAP2 SWAP1 PUSH2 0x263F JUMP JUMPDEST PUSH2 0x140 PUSH2 0x183 CALLDATASIZE PUSH1 0x4 PUSH2 0x25D2 JUMP JUMPDEST PUSH2 0x961 JUMP JUMPDEST PUSH2 0x1AF PUSH32 0x0 DUP2 JUMP JUMPDEST PUSH1 0x40 MLOAD PUSH1 0x1 PUSH1 0x1 PUSH1 0xA0 SHL SUB SWAP1 SWAP2 AND DUP2 MSTORE PUSH1 0x20 ADD PUSH2 0x124 JUMP JUMPDEST PUSH2 0x1AF PUSH32 0x0 DUP2 JUMP JUMPDEST PUSH2 0x201 PUSH2 0x1FC CALLDATASIZE PUSH1 0x4 PUSH2 0x25D2 JUMP JUMPDEST PUSH2 0xBCB JUMP JUMPDEST PUSH1 0x40 DUP1 MLOAD SWAP4 DUP5 MSTORE PUSH1 0x20 DUP5 ADD SWAP3 SWAP1 SWAP3 MSTORE SWAP1 DUP3 ADD MSTORE PUSH1 0x60 ADD PUSH2 0x124 JUMP JUMPDEST PUSH2 0x140 PUSH2 0x22A CALLDATASIZE PUSH1 0x4 PUSH2 0x256A JUMP JUMPDEST PUSH2 0xC23 JUMP JUMPDEST PUSH2 0x1AF PUSH32 0x0 DUP2 JUMP JUMPDEST PUSH1 0x1 SLOAD PUSH1 0x2 SLOAD PUSH1 0x3 SLOAD PUSH2 0x274 SWAP3 PUSH1 0xFF AND SWAP2 SWAP1 PUSH1 0x1 PUSH1 0x1 PUSH1 0xA0 SHL SUB AND DUP4 JUMP JUMPDEST PUSH1 0x40 DUP1 MLOAD PUSH1 0xFF SWAP1 SWAP5 AND DUP5 MSTORE PUSH1 0x20 DUP5 ADD SWAP3 SWAP1 SWAP3 MSTORE PUSH1 0x1 PUSH1 0x1 PUSH1 0xA0 SHL SUB AND SWAP1 DUP3 ADD MSTORE PUSH1 0x60 ADD PUSH2 0x124 JUMP JUMPDEST PUSH2 0x2A4 PUSH2 0xC8D JUMP JUMPDEST PUSH1 0x40 MLOAD PUSH2 0x124 SWAP2 SWAP1 PUSH2 0x278C JUMP JUMPDEST PUSH2 0x140 PUSH2 0x2BF CALLDATASIZE PUSH1 0x4 PUSH2 0x2878 JUMP JUMPDEST PUSH2 0xCA6 JUMP JUMPDEST PUSH2 0x304 PUSH2 0x2D2 CALLDATASIZE PUSH1 0x4 PUSH2 0x28EC JUMP JUMPDEST PUSH1 0x1 PUSH1 0x1 PUSH1 0xA0 SHL SUB DUP3 AND PUSH1 0x0 SWAP1 DUP2 MSTORE PUSH1 0xB PUSH1 0x20 SWAP1 DUP2 MSTORE PUSH1 0x40 DUP1 DUP4 KECCAK256 PUSH3 0xFFFFFF DUP6 AND DUP5 MSTORE SWAP1 SWAP2 MSTORE SWAP1 KECCAK256 SLOAD PUSH1 0xFF AND SWAP3 SWAP2 POP POP JUMP JUMPDEST PUSH1 0x40 MLOAD PUSH2 0x124 SWAP2 SWAP1 PUSH2 0x2931 JUMP JUMPDEST PUSH2 0x140 PUSH2 0x31F CALLDATASIZE PUSH1 0x4 PUSH2 0x25D2 JUMP JUMPDEST PUSH2 0x152E JUMP JUMPDEST PUSH2 0x2A4 PUSH2 0x17FB JUMP JUMPDEST PUSH3 0xFFFFFF DUP3 AND PUSH1 0x0 SWAP1 DUP2 MSTORE PUSH1 0x9 PUSH1 0x20 MSTORE PUSH1 0x40 DUP2 KECCAK256 DUP1 SLOAD SWAP1 SWAP2 PUSH1 0x1 PUSH1 0x1 PUSH1 0x40 SHL SUB SWAP1 SWAP2 AND SWAP1 SUB PUSH2 0x376 JUMPI PUSH1 0x40 MLOAD PUSH3 0x461BCD PUSH1 0xE5 SHL DUP2 MSTORE PUSH1 0x4 ADD PUSH2 0x36D SWAP1 PUSH2 0x2944 JUMP JUMPDEST PUSH1 0x40 MLOAD DUP1 SWAP2 SUB SWAP1 REVERT JUMPDEST DUP1 SLOAD PUSH1 0x1 PUSH1 0x1 PUSH1 0x40 SHL SUB TIMESTAMP DUP2 AND PUSH1 0x1 PUSH1 0x80 SHL SWAP1 SWAP3 DIV AND GT PUSH2 0x3E3 JUMPI PUSH1 0x40 MLOAD PUSH3 0x461BCD PUSH1 0xE5 SHL DUP2 MSTORE PUSH1 0x20 PUSH1 0x4 DUP3 ADD MSTORE PUSH1 0x21 PUSH1 0x24 DUP3 ADD MSTORE PUSH32 0x766F74696E6720697320636C6F736564206F6E20746869732070726F706F7361 PUSH1 0x44 DUP3 ADD MSTORE PUSH1 0x1B PUSH1 0xFA SHL PUSH1 0x64 DUP3 ADD MSTORE PUSH1 0x84 ADD PUSH2 0x36D JUMP JUMPDEST PUSH1 0x0 DUP3 PUSH1 0x3 DUP2 GT ISZERO PUSH2 0x3F7 JUMPI PUSH2 0x3F7 PUSH2 0x26A0 JUMP JUMPDEST SUB PUSH2 0x459 JUMPI PUSH1 0x40 MLOAD PUSH3 0x461BCD PUSH1 0xE5 SHL DUP2 MSTORE PUSH1 0x20 PUSH1 0x4 DUP3 ADD MSTORE PUSH1 0x2C PUSH1 0x24 DUP3 ADD MSTORE PUSH32 0x62616C6C6F74206D757374206265206361737420466F722C20416761696E7374 PUSH1 0x44 DUP3 ADD MSTORE PUSH12 0x161037B91020B139BA30B4B7 PUSH1 0xA1 SHL PUSH1 0x64 DUP3 ADD MSTORE PUSH1 0x84 ADD PUSH2 0x36D JUMP JUMPDEST PUSH3 0xFFFFFF DUP4 AND PUSH1 0x0 SWAP1 DUP2 MSTORE PUSH1 0xA PUSH1 0x20 SWAP1 DUP2 MSTORE PUSH1 0x40 DUP1 DUP4 KECCAK256 DUP1 SLOAD DUP3 MLOAD DUP2 DUP6 MUL DUP2 ADD DUP6 ADD SWAP1 SWAP4 MSTORE DUP1 DUP4 MSTORE SWAP2 SWAP3 SWAP1 SWAP2 SWAP1 DUP5 SWAP1 DUP5 ADD JUMPDEST DUP3 DUP3 LT ISZERO PUSH2 0x4E0 JUMPI PUSH1 0x0 DUP5 DUP2 MSTORE PUSH1 0x20 SWAP1 DUP2 SWAP1 KECCAK256 PUSH1 0x40 DUP1 MLOAD PUSH1 0x60 DUP2 ADD DUP3 MSTORE PUSH1 0x3 DUP7 MUL SWAP1 SWAP3 ADD DUP1 SLOAD PUSH1 0x1 PUSH1 0x1 PUSH1 0xA0 SHL SUB AND DUP4 MSTORE PUSH1 0x1 DUP1 DUP3 ADD SLOAD DUP5 DUP7 ADD MSTORE PUSH1 0x2 SWAP1 SWAP2 ADD SLOAD SWAP2 DUP4 ADD SWAP2 SWAP1 SWAP2 MSTORE SWAP1 DUP4 MSTORE SWAP1 SWAP3 ADD SWAP2 ADD PUSH2 0x48B JUMP JUMPDEST POP POP DUP5 SLOAD SWAP3 SWAP4 POP PUSH1 0x0 SWAP3 PUSH1 0x1 PUSH1 0x1 PUSH1 0xA0 SHL SUB PUSH32 0x0 AND SWAP3 POP PUSH4 0xA10202FC SWAP2 POP CALLER SWAP1 PUSH1 0x1 PUSH1 0x1 PUSH1 0x40 SHL SUB AND PUSH2 0x531 DUP7 PUSH2 0x180A JUMP JUMPDEST PUSH1 0x40 MLOAD DUP5 PUSH4 0xFFFFFFFF AND PUSH1 0xE0 SHL DUP2 MSTORE PUSH1 0x4 ADD PUSH2 0x54F SWAP4 SWAP3 SWAP2 SWAP1 PUSH2 0x297B JUMP JUMPDEST PUSH1 0x0 PUSH1 0x40 MLOAD DUP1 DUP4 SUB DUP2 DUP7 GAS STATICCALL ISZERO DUP1 ISZERO PUSH2 0x56C JUMPI RETURNDATASIZE PUSH1 0x0 DUP1 RETURNDATACOPY RETURNDATASIZE PUSH1 0x0 REVERT JUMPDEST POP POP POP POP PUSH1 0x40 MLOAD RETURNDATASIZE PUSH1 0x0 DUP3 RETURNDATACOPY PUSH1 0x1F RETURNDATASIZE SWAP1 DUP2 ADD PUSH1 0x1F NOT AND DUP3 ADD PUSH1 0x40 MSTORE PUSH2 0x594 SWAP2 SWAP1 DUP2 ADD SWAP1 PUSH2 0x2A08 JUMP JUMPDEST CALLER PUSH1 0x0 SWAP1 DUP2 MSTORE PUSH1 0xB PUSH1 0x20 SWAP1 DUP2 MSTORE PUSH1 0x40 DUP1 DUP4 KECCAK256 PUSH3 0xFFFFFF DUP11 AND DUP5 MSTORE SWAP1 SWAP2 MSTORE DUP2 KECCAK256 SWAP2 SWAP3 POP DUP1 DUP3 SLOAD PUSH1 0xFF AND PUSH1 0x3 DUP2 GT ISZERO PUSH2 0x5CD JUMPI PUSH2 0x5CD PUSH2 0x26A0 JUMP JUMPDEST EQ SWAP1 POP PUSH1 0x0 JUMPDEST DUP4 MLOAD DUP2 LT ISZERO PUSH2 0x763 JUMPI PUSH1 0x0 DUP5 DUP3 DUP2 MLOAD DUP2 LT PUSH2 0x5F0 JUMPI PUSH2 0x5F0 PUSH2 0x2AC0 JUMP JUMPDEST PUSH1 0x20 MUL PUSH1 0x20 ADD ADD MLOAD SWAP1 POP DUP3 PUSH2 0x6DC JUMPI DUP1 MLOAD PUSH3 0xFFFFFF DUP11 AND PUSH1 0x0 SWAP1 DUP2 MSTORE PUSH1 0xC PUSH1 0x20 MSTORE PUSH1 0x40 DUP2 KECCAK256 DUP7 SLOAD SWAP2 SWAP3 PUSH2 0x663 SWAP3 SWAP1 SWAP2 SWAP1 DUP5 SWAP1 PUSH1 0xFF AND PUSH1 0x3 DUP2 GT ISZERO PUSH2 0x636 JUMPI PUSH2 0x636 PUSH2 0x26A0 JUMP JUMPDEST PUSH1 0x3 DUP2 GT ISZERO PUSH2 0x647 JUMPI PUSH2 0x647 PUSH2 0x26A0 JUMP JUMPDEST DUP2 MSTORE PUSH1 0x20 ADD SWAP1 DUP2 MSTORE PUSH1 0x20 ADD PUSH1 0x0 KECCAK256 PUSH2 0x18C2 SWAP1 SWAP2 SWAP1 PUSH4 0xFFFFFFFF AND JUMP JUMPDEST SWAP2 POP POP PUSH2 0x6D9 DUP3 PUSH1 0x0 ADD MLOAD DUP4 PUSH1 0x20 ADD MLOAD DUP4 PUSH2 0x67E SWAP2 SWAP1 PUSH2 0x2AEC JUMP JUMPDEST PUSH3 0xFFFFFF DUP14 AND PUSH1 0x0 SWAP1 DUP2 MSTORE PUSH1 0xC PUSH1 0x20 MSTORE PUSH1 0x40 DUP2 KECCAK256 DUP10 SLOAD SWAP1 SWAP2 SWAP1 PUSH1 0xFF AND PUSH1 0x3 DUP2 GT ISZERO PUSH2 0x6AB JUMPI PUSH2 0x6AB PUSH2 0x26A0 JUMP JUMPDEST PUSH1 0x3 DUP2 GT ISZERO PUSH2 0x6BC JUMPI PUSH2 0x6BC PUSH2 0x26A0 JUMP JUMPDEST DUP2 MSTORE PUSH1 0x20 ADD SWAP1 DUP2 MSTORE PUSH1 0x20 ADD PUSH1 0x0 KECCAK256 PUSH2 0x18E9 SWAP1 SWAP3 SWAP2 SWAP1 PUSH4 0xFFFFFFFF AND JUMP JUMPDEST POP POP JUMPDEST DUP1 MLOAD PUSH3 0xFFFFFF DUP11 AND PUSH1 0x0 SWAP1 DUP2 MSTORE PUSH1 0xC PUSH1 0x20 MSTORE PUSH1 0x40 DUP2 KECCAK256 SWAP1 SWAP2 PUSH2 0x70B SWAP2 DUP4 DUP13 PUSH1 0x3 DUP2 GT ISZERO PUSH2 0x636 JUMPI PUSH2 0x636 PUSH2 0x26A0 JUMP JUMPDEST SWAP2 POP POP PUSH2 0x74D DUP3 PUSH1 0x0 ADD MLOAD DUP4 PUSH1 0x20 ADD MLOAD DUP4 PUSH2 0x726 SWAP2 SWAP1 PUSH2 0x2AFF JUMP JUMPDEST PUSH3 0xFFFFFF DUP14 AND PUSH1 0x0 SWAP1 DUP2 MSTORE PUSH1 0xC PUSH1 0x20 MSTORE PUSH1 0x40 DUP2 KECCAK256 SWAP1 DUP14 PUSH1 0x3 DUP2 GT ISZERO PUSH2 0x6AB JUMPI PUSH2 0x6AB PUSH2 0x26A0 JUMP JUMPDEST POP POP POP DUP1 DUP1 PUSH2 0x75B SWAP1 PUSH2 0x2B12 JUMP JUMPDEST SWAP2 POP POP PUSH2 0x5D3 JUMP JUMPDEST POP DUP2 SLOAD DUP7 SWAP1 DUP4 SWAP1 PUSH1 0xFF NOT AND PUSH1 0x1 DUP4 PUSH1 0x3 DUP2 GT ISZERO PUSH2 0x782 JUMPI PUSH2 0x782 PUSH2 0x26A0 JUMP JUMPDEST MUL OR SWAP1 SSTORE POP DUP7 PUSH3 0xFFFFFF AND PUSH32 0x150CD829623F1CC413133ECCFF464C8EF075C3D503C152EAE1A38538585C29E0 CALLER DUP9 PUSH1 0x40 MLOAD PUSH2 0x7BE SWAP3 SWAP2 SWAP1 PUSH2 0x2B2B JUMP JUMPDEST PUSH1 0x40 MLOAD DUP1 SWAP2 SUB SWAP1 LOG2 POP POP POP POP POP POP POP JUMP JUMPDEST PUSH1 0x0 SLOAD PUSH2 0x100 SWAP1 DIV PUSH1 0xFF AND ISZERO DUP1 DUP1 ISZERO PUSH2 0x7EF JUMPI POP PUSH1 0x0 SLOAD PUSH1 0x1 PUSH1 0xFF SWAP1 SWAP2 AND LT JUMPDEST DUP1 PUSH2 0x809 JUMPI POP ADDRESS EXTCODESIZE ISZERO DUP1 ISZERO PUSH2 0x809 JUMPI POP PUSH1 0x0 SLOAD PUSH1 0xFF AND PUSH1 0x1 EQ JUMPDEST PUSH2 0x86C JUMPI PUSH1 0x40 MLOAD PUSH3 0x461BCD PUSH1 0xE5 SHL DUP2 MSTORE PUSH1 0x20 PUSH1 0x4 DUP3 ADD MSTORE PUSH1 0x2E PUSH1 0x24 DUP3 ADD MSTORE PUSH32 0x496E697469616C697A61626C653A20636F6E747261637420697320616C726561 PUSH1 0x44 DUP3 ADD MSTORE PUSH14 0x191E481A5B9A5D1A585B1A5E9959 PUSH1 0x92 SHL PUSH1 0x64 DUP3 ADD MSTORE PUSH1 0x84 ADD PUSH2 0x36D JUMP JUMPDEST PUSH1 0x0 DUP1 SLOAD PUSH1 0xFF NOT AND PUSH1 0x1 OR SWAP1 SSTORE DUP1 ISZERO PUSH2 0x88F JUMPI PUSH1 0x0 DUP1 SLOAD PUSH2 0xFF00 NOT AND PUSH2 0x100 OR SWAP1 SSTORE JUMPDEST DUP2 MLOAD PUSH1 0x1 DUP1 SLOAD PUSH1 0xFF NOT AND PUSH1 0xFF SWAP1 SWAP3 AND SWAP2 SWAP1 SWAP2 OR SWAP1 SSTORE PUSH1 0x20 DUP3 ADD MLOAD PUSH1 0x2 SSTORE PUSH1 0x40 DUP3 ADD MLOAD PUSH1 0x3 DUP1 SLOAD PUSH1 0x1 PUSH1 0x1 PUSH1 0xA0 SHL SUB NOT AND PUSH1 0x1 PUSH1 0x1 PUSH1 0xA0 SHL SUB SWAP1 SWAP3 AND SWAP2 SWAP1 SWAP2 OR SWAP1 SSTORE DUP1 ISZERO PUSH2 0x916 JUMPI PUSH1 0x0 DUP1 SLOAD PUSH2 0xFF00 NOT AND SWAP1 SSTORE PUSH1 0x40 MLOAD PUSH1 0x1 DUP2 MSTORE PUSH32 0x7F26B83FF96E1F2B6A682F133852F6798A09C465DA95921460CEFB3847402498 SWAP1 PUSH1 0x20 ADD PUSH1 0x40 MLOAD DUP1 SWAP2 SUB SWAP1 LOG1 JUMPDEST POP POP JUMP JUMPDEST PUSH2 0x93E PUSH1 0x40 MLOAD DUP1 PUSH1 0x60 ADD PUSH1 0x40 MSTORE DUP1 PUSH1 0x60 DUP2 MSTORE PUSH1 0x20 ADD PUSH1 0x60 DUP2 MSTORE PUSH1 0x20 ADD PUSH1 0x60 DUP2 MSTORE POP SWAP1 JUMP JUMPDEST PUSH3 0xFFFFFF DUP3 AND PUSH1 0x0 SWAP1 DUP2 MSTORE PUSH1 0xC PUSH1 0x20 MSTORE PUSH1 0x40 SWAP1 KECCAK256 PUSH2 0x95B SWAP1 PUSH2 0x1907 JUMP JUMPDEST SWAP3 SWAP2 POP POP JUMP JUMPDEST PUSH3 0xFFFFFF DUP2 AND PUSH1 0x0 SWAP1 DUP2 MSTORE PUSH1 0x9 PUSH1 0x20 MSTORE PUSH1 0x40 SWAP1 KECCAK256 DUP1 SLOAD PUSH1 0x1 PUSH1 0x1 PUSH1 0x40 SHL SUB AND PUSH2 0x99C JUMPI PUSH1 0x40 MLOAD PUSH3 0x461BCD PUSH1 0xE5 SHL DUP2 MSTORE PUSH1 0x4 ADD PUSH2 0x36D SWAP1 PUSH2 0x2944 JUMP JUMPDEST PUSH2 0x9AC PUSH1 0x7 PUSH3 0xFFFFFF DUP5 AND PUSH2 0x19A4 JUMP JUMPDEST DUP1 ISZERO PUSH2 0x9CD JUMPI POP DUP1 SLOAD PUSH1 0x1 PUSH1 0x1 PUSH1 0x40 SHL SUB PUSH1 0x1 PUSH1 0x40 SHL SWAP1 SWAP2 DIV DUP2 AND TIMESTAMP SWAP1 SWAP2 AND GT JUMPDEST PUSH2 0xA2E JUMPI PUSH1 0x40 MLOAD PUSH3 0x461BCD PUSH1 0xE5 SHL DUP2 MSTORE PUSH1 0x20 PUSH1 0x4 DUP3 ADD MSTORE PUSH1 0x2C PUSH1 0x24 DUP3 ADD MSTORE PUSH32 0x70726F706F73616C206D7573742062652071756575656420616E642072656164 PUSH1 0x44 DUP3 ADD MSTORE PUSH12 0x7920746F2065786563757465 PUSH1 0xA0 SHL PUSH1 0x64 DUP3 ADD MSTORE PUSH1 0x84 ADD PUSH2 0x36D JUMP JUMPDEST PUSH1 0x0 JUMPDEST PUSH1 0x2 DUP3 ADD SLOAD DUP2 LT ISZERO PUSH2 0xB6E JUMPI PUSH2 0xB5B DUP3 PUSH1 0x2 ADD DUP3 DUP2 SLOAD DUP2 LT PUSH2 0xA55 JUMPI PUSH2 0xA55 PUSH2 0x2AC0 JUMP JUMPDEST SWAP1 PUSH1 0x0 MSTORE PUSH1 0x20 PUSH1 0x0 KECCAK256 SWAP1 PUSH1 0x2 MUL ADD PUSH1 0x1 ADD DUP1 SLOAD PUSH2 0xA71 SWAP1 PUSH2 0x2B51 JUMP JUMPDEST DUP1 PUSH1 0x1F ADD PUSH1 0x20 DUP1 SWAP2 DIV MUL PUSH1 0x20 ADD PUSH1 0x40 MLOAD SWAP1 DUP2 ADD PUSH1 0x40 MSTORE DUP1 SWAP3 SWAP2 SWAP1 DUP2 DUP2 MSTORE PUSH1 0x20 ADD DUP3 DUP1 SLOAD PUSH2 0xA9D SWAP1 PUSH2 0x2B51 JUMP JUMPDEST DUP1 ISZERO PUSH2 0xAEA JUMPI DUP1 PUSH1 0x1F LT PUSH2 0xABF JUMPI PUSH2 0x100 DUP1 DUP4 SLOAD DIV MUL DUP4 MSTORE SWAP2 PUSH1 0x20 ADD SWAP2 PUSH2 0xAEA JUMP JUMPDEST DUP3 ADD SWAP2 SWAP1 PUSH1 0x0 MSTORE PUSH1 0x20 PUSH1 0x0 KECCAK256 SWAP1 JUMPDEST DUP2 SLOAD DUP2 MSTORE SWAP1 PUSH1 0x1 ADD SWAP1 PUSH1 0x20 ADD DUP1 DUP4 GT PUSH2 0xACD JUMPI DUP3 SWAP1 SUB PUSH1 0x1F AND DUP3 ADD SWAP2 JUMPDEST POP POP POP POP POP PUSH1 0x40 MLOAD DUP1 PUSH1 0x40 ADD PUSH1 0x40 MSTORE DUP1 PUSH1 0x19 DUP2 MSTORE PUSH1 0x20 ADD PUSH32 0x70726F706F73616C20657865637574696F6E206661696C656400000000000000 DUP2 MSTORE POP DUP5 PUSH1 0x2 ADD DUP5 DUP2 SLOAD DUP2 LT PUSH2 0xB3A JUMPI PUSH2 0xB3A PUSH2 0x2AC0 JUMP JUMPDEST PUSH1 0x0 SWAP2 DUP3 MSTORE PUSH1 0x20 SWAP1 SWAP2 KECCAK256 PUSH1 0x2 SWAP1 SWAP2 MUL ADD SLOAD PUSH1 0x1 PUSH1 0x1 PUSH1 0xA0 SHL SUB AND SWAP2 SWAP1 PUSH2 0x19BF JUMP JUMPDEST POP DUP1 PUSH2 0xB66 DUP2 PUSH2 0x2B12 JUMP JUMPDEST SWAP2 POP POP PUSH2 0xA31 JUMP JUMPDEST POP PUSH1 0x1 DUP2 ADD DUP1 SLOAD PUSH1 0x1 PUSH1 0x1 PUSH1 0xF8 SHL SUB AND PUSH1 0x1 PUSH1 0xFA SHL OR SWAP1 SSTORE PUSH2 0xB96 PUSH1 0x7 PUSH3 0xFFFFFF DUP5 AND PUSH2 0x19CE JUMP JUMPDEST POP PUSH1 0x40 MLOAD PUSH3 0xFFFFFF DUP4 AND SWAP1 PUSH32 0x934E084A11F01168DE309F3226F7B0AF3360B809C501B627AB68604371C5FD7C SWAP1 PUSH1 0x0 SWAP1 LOG2 POP POP JUMP JUMPDEST PUSH3 0xFFFFFF DUP2 AND PUSH1 0x0 SWAP1 DUP2 MSTORE PUSH1 0x9 PUSH1 0x20 MSTORE PUSH1 0x40 DUP2 KECCAK256 DUP1 SLOAD DUP3 SWAP2 DUP3 SWAP2 PUSH1 0x1 PUSH1 0x1 PUSH1 0x40 SHL SUB AND DUP3 SUB PUSH2 0xC0C JUMPI PUSH1 0x40 MLOAD PUSH3 0x461BCD PUSH1 0xE5 SHL DUP2 MSTORE PUSH1 0x4 ADD PUSH2 0x36D SWAP1 PUSH2 0x2944 JUMP JUMPDEST PUSH2 0xC15 DUP2 PUSH2 0x19DA JUMP JUMPDEST SWAP4 POP SWAP4 POP SWAP4 POP POP SWAP2 SWAP4 SWAP1 SWAP3 POP JUMP JUMPDEST CALLER ADDRESS EQ PUSH2 0xC4B JUMPI PUSH1 0x40 MLOAD PUSH4 0xC55DDC97 PUSH1 0xE0 SHL DUP2 MSTORE CALLER PUSH1 0x4 DUP3 ADD MSTORE ADDRESS PUSH1 0x24 DUP3 ADD MSTORE PUSH1 0x44 ADD PUSH2 0x36D JUMP JUMPDEST DUP1 MLOAD PUSH1 0x1 DUP1 SLOAD PUSH1 0xFF NOT AND PUSH1 0xFF SWAP1 SWAP3 AND SWAP2 SWAP1 SWAP2 OR SWAP1 SSTORE PUSH1 0x20 DUP2 ADD MLOAD PUSH1 0x2 SSTORE PUSH1 0x40 ADD MLOAD PUSH1 0x3 DUP1 SLOAD PUSH1 0x1 PUSH1 0x1 PUSH1 0xA0 SHL SUB NOT AND PUSH1 0x1 PUSH1 0x1 PUSH1 0xA0 SHL SUB SWAP1 SWAP3 AND SWAP2 SWAP1 SWAP2 OR SWAP1 SSTORE JUMP JUMPDEST PUSH1 0x60 PUSH2 0xCA1 PUSH2 0xC9C PUSH1 0x7 PUSH2 0x1AF6 JUMP JUMPDEST PUSH2 0x1B03 JUMP JUMPDEST SWAP1 POP SWAP1 JUMP JUMPDEST DUP1 PUSH2 0xD04 JUMPI PUSH1 0x40 MLOAD PUSH3 0x461BCD PUSH1 0xE5 SHL DUP2 MSTORE PUSH1 0x20 PUSH1 0x4 DUP3 ADD MSTORE PUSH1 0x28 PUSH1 0x24 DUP3 ADD MSTORE PUSH32 0x63616E6E6F742063726561746520612070726F706F73616C2077697468206E6F PUSH1 0x44 DUP3 ADD MSTORE PUSH8 0x20616374696F6E73 PUSH1 0xC0 SHL PUSH1 0x64 DUP3 ADD MSTORE PUSH1 0x84 ADD PUSH2 0x36D JUMP JUMPDEST PUSH1 0x0 DUP3 DUP3 PUSH1 0x0 DUP2 DUP2 LT PUSH2 0xD19 JUMPI PUSH2 0xD19 PUSH2 0x2AC0 JUMP JUMPDEST SWAP1 POP PUSH1 0x20 MUL DUP2 ADD SWAP1 PUSH2 0xD2B SWAP2 SWAP1 PUSH2 0x2B8B JUMP JUMPDEST PUSH2 0xD34 SWAP1 PUSH2 0x2BAB JUMP JUMPDEST DUP1 MLOAD PUSH1 0x20 DUP3 ADD MLOAD PUSH1 0x40 MLOAD PUSH4 0xFEB52AF5 PUSH1 0xE0 SHL DUP2 MSTORE SWAP3 SWAP4 POP PUSH1 0x0 SWAP3 PUSH1 0x1 PUSH1 0x1 PUSH1 0xA0 SHL SUB PUSH32 0x0 AND SWAP3 PUSH4 0xFEB52AF5 SWAP3 PUSH2 0xD8B SWAP3 PUSH1 0x4 ADD PUSH2 0x2C58 JUMP JUMPDEST PUSH1 0xC0 PUSH1 0x40 MLOAD DUP1 DUP4 SUB DUP2 PUSH1 0x0 DUP8 GAS CALL ISZERO DUP1 ISZERO PUSH2 0xDAA JUMPI RETURNDATASIZE PUSH1 0x0 DUP1 RETURNDATACOPY RETURNDATASIZE PUSH1 0x0 REVERT JUMPDEST POP POP POP POP PUSH1 0x40 MLOAD RETURNDATASIZE PUSH1 0x1F NOT PUSH1 0x1F DUP3 ADD AND DUP3 ADD DUP1 PUSH1 0x40 MSTORE POP DUP2 ADD SWAP1 PUSH2 0xDCE SWAP2 SWAP1 PUSH2 0x2CA7 JUMP JUMPDEST SWAP1 POP PUSH1 0x1 JUMPDEST DUP4 DUP2 LT ISZERO PUSH2 0xF2F JUMPI PUSH1 0x0 PUSH32 0x0 PUSH1 0x1 PUSH1 0x1 PUSH1 0xA0 SHL SUB AND PUSH4 0xFEB52AF5 DUP8 DUP8 DUP6 DUP2 DUP2 LT PUSH2 0xE1E JUMPI PUSH2 0xE1E PUSH2 0x2AC0 JUMP JUMPDEST SWAP1 POP PUSH1 0x20 MUL DUP2 ADD SWAP1 PUSH2 0xE30 SWAP2 SWAP1 PUSH2 0x2B8B JUMP JUMPDEST PUSH2 0xE3E SWAP1 PUSH1 0x20 DUP2 ADD SWAP1 PUSH2 0x2D47 JUMP JUMPDEST DUP9 DUP9 DUP7 DUP2 DUP2 LT PUSH2 0xE50 JUMPI PUSH2 0xE50 PUSH2 0x2AC0 JUMP JUMPDEST SWAP1 POP PUSH1 0x20 MUL DUP2 ADD SWAP1 PUSH2 0xE62 SWAP2 SWAP1 PUSH2 0x2B8B JUMP JUMPDEST PUSH2 0xE70 SWAP1 PUSH1 0x20 DUP2 ADD SWAP1 PUSH2 0x2D64 JUMP JUMPDEST PUSH1 0x40 MLOAD DUP5 PUSH4 0xFFFFFFFF AND PUSH1 0xE0 SHL DUP2 MSTORE PUSH1 0x4 ADD PUSH2 0xE8E SWAP4 SWAP3 SWAP2 SWAP1 PUSH2 0x2DD3 JUMP JUMPDEST PUSH1 0xC0 PUSH1 0x40 MLOAD DUP1 DUP4 SUB DUP2 PUSH1 0x0 DUP8 GAS CALL ISZERO DUP1 ISZERO PUSH2 0xEAD JUMPI RETURNDATASIZE PUSH1 0x0 DUP1 RETURNDATACOPY RETURNDATASIZE PUSH1 0x0 REVERT JUMPDEST POP POP POP POP PUSH1 0x40 MLOAD RETURNDATASIZE PUSH1 0x1F NOT PUSH1 0x1F DUP3 ADD AND DUP3 ADD DUP1 PUSH1 0x40 MSTORE POP DUP2 ADD SWAP1 PUSH2 0xED1 SWAP2 SWAP1 PUSH2 0x2CA7 JUMP JUMPDEST SWAP1 POP DUP3 PUSH1 0xA0 ADD MLOAD PUSH1 0xFF AND DUP2 PUSH1 0xA0 ADD MLOAD PUSH1 0xFF AND GT ISZERO PUSH2 0xF1C JUMPI DUP6 DUP6 DUP4 DUP2 DUP2 LT PUSH2 0xEFB JUMPI PUSH2 0xEFB PUSH2 0x2AC0 JUMP JUMPDEST SWAP1 POP PUSH1 0x20 MUL DUP2 ADD SWAP1 PUSH2 0xF0D SWAP2 SWAP1 PUSH2 0x2B8B JUMP JUMPDEST PUSH2 0xF16 SWAP1 PUSH2 0x2BAB JUMP JUMPDEST SWAP4 POP DUP1 SWAP3 POP JUMPDEST POP DUP1 PUSH2 0xF27 DUP2 PUSH2 0x2B12 JUMP JUMPDEST SWAP2 POP POP PUSH2 0xDD3 JUMP JUMPDEST POP PUSH1 0x1 DUP1 ADD SLOAD PUSH32 0x0 PUSH1 0x1 PUSH1 0x1 PUSH1 0xA0 SHL SUB AND PUSH4 0x55C31B3A PUSH1 0x40 MLOAD DUP2 PUSH4 0xFFFFFFFF AND PUSH1 0xE0 SHL DUP2 MSTORE PUSH1 0x4 ADD PUSH1 0x20 PUSH1 0x40 MLOAD DUP1 DUP4 SUB DUP2 DUP7 GAS STATICCALL ISZERO DUP1 ISZERO PUSH2 0xF93 JUMPI RETURNDATASIZE PUSH1 0x0 DUP1 RETURNDATACOPY RETURNDATASIZE PUSH1 0x0 REVERT JUMPDEST POP POP POP POP PUSH1 0x40 MLOAD RETURNDATASIZE PUSH1 0x1F NOT PUSH1 0x1F DUP3 ADD AND DUP3 ADD DUP1 PUSH1 0x40 MSTORE POP DUP2 ADD SWAP1 PUSH2 0xFB7 SWAP2 SWAP1 PUSH2 0x2DF8 JUMP JUMPDEST GT DUP1 ISZERO PUSH2 0xFD0 JUMPI POP PUSH1 0x1 SLOAD PUSH1 0xA0 DUP3 ADD MLOAD PUSH1 0xFF SWAP2 DUP3 AND SWAP2 AND GT JUMPDEST ISZERO PUSH2 0x104C JUMPI PUSH1 0x3 SLOAD PUSH1 0x20 DUP4 ADD MLOAD PUSH1 0x40 MLOAD PUSH4 0xC87FA53 PUSH1 0xE2 SHL DUP2 MSTORE PUSH1 0x1 PUSH1 0x1 PUSH1 0xA0 SHL SUB SWAP1 SWAP3 AND SWAP2 PUSH4 0x321FE94C SWAP2 PUSH2 0x1008 SWAP2 PUSH1 0x4 ADD PUSH2 0x2E11 JUMP JUMPDEST PUSH1 0xC0 PUSH1 0x40 MLOAD DUP1 DUP4 SUB DUP2 DUP7 GAS STATICCALL ISZERO DUP1 ISZERO PUSH2 0x1025 JUMPI RETURNDATASIZE PUSH1 0x0 DUP1 RETURNDATACOPY RETURNDATASIZE PUSH1 0x0 REVERT JUMPDEST POP POP POP POP PUSH1 0x40 MLOAD RETURNDATASIZE PUSH1 0x1F NOT PUSH1 0x1F DUP3 ADD AND DUP3 ADD DUP1 PUSH1 0x40 MSTORE POP DUP2 ADD SWAP1 PUSH2 0x1049 SWAP2 SWAP1 PUSH2 0x2CA7 JUMP JUMPDEST SWAP1 POP JUMPDEST PUSH1 0x0 PUSH1 0x1 PUSH1 0x1 PUSH1 0xA0 SHL SUB PUSH32 0x0 AND PUSH4 0x8FF400F4 CALLER PUSH2 0x1089 PUSH1 0x1 TIMESTAMP PUSH2 0x2AEC JUMP JUMPDEST PUSH1 0x40 MLOAD PUSH1 0x1 PUSH1 0x1 PUSH1 0xE0 SHL SUB NOT PUSH1 0xE0 DUP6 SWAP1 SHL AND DUP2 MSTORE PUSH1 0x1 PUSH1 0x1 PUSH1 0xA0 SHL SUB SWAP1 SWAP3 AND PUSH1 0x4 DUP4 ADD MSTORE PUSH1 0x24 DUP3 ADD MSTORE PUSH1 0x44 ADD PUSH1 0x0 PUSH1 0x40 MLOAD DUP1 DUP4 SUB DUP2 DUP7 GAS STATICCALL ISZERO DUP1 ISZERO PUSH2 0x10D2 JUMPI RETURNDATASIZE PUSH1 0x0 DUP1 RETURNDATACOPY RETURNDATASIZE PUSH1 0x0 REVERT JUMPDEST POP POP POP POP PUSH1 0x40 MLOAD RETURNDATASIZE PUSH1 0x0 DUP3 RETURNDATACOPY PUSH1 0x1F RETURNDATASIZE SWAP1 DUP2 ADD PUSH1 0x1F NOT AND DUP3 ADD PUSH1 0x40 MSTORE PUSH2 0x10FA SWAP2 SWAP1 DUP2 ADD SWAP1 PUSH2 0x2A08 JUMP JUMPDEST SWAP1 POP PUSH1 0x0 PUSH32 0x0 PUSH1 0x1 PUSH1 0x1 PUSH1 0xA0 SHL SUB AND PUSH4 0x3BEF7ABB DUP4 PUSH1 0x40 MLOAD DUP3 PUSH4 0xFFFFFFFF AND PUSH1 0xE0 SHL DUP2 MSTORE PUSH1 0x4 ADD PUSH2 0x114A SWAP2 SWAP1 PUSH2 0x2E24 JUMP JUMPDEST PUSH1 0x20 PUSH1 0x40 MLOAD DUP1 DUP4 SUB DUP2 DUP7 GAS STATICCALL ISZERO DUP1 ISZERO PUSH2 0x1167 JUMPI RETURNDATASIZE PUSH1 0x0 DUP1 RETURNDATACOPY RETURNDATASIZE PUSH1 0x0 REVERT JUMPDEST POP POP POP POP PUSH1 0x40 MLOAD RETURNDATASIZE PUSH1 0x1F NOT PUSH1 0x1F DUP3 ADD AND DUP3 ADD DUP1 PUSH1 0x40 MSTORE POP DUP2 ADD SWAP1 PUSH2 0x118B SWAP2 SWAP1 PUSH2 0x2DF8 JUMP JUMPDEST SWAP1 POP DUP3 PUSH1 0x20 ADD MLOAD PUSH1 0x1 PUSH1 0x1 PUSH1 0x40 SHL SUB AND DUP2 GT PUSH2 0x1211 JUMPI PUSH1 0x40 DUP1 MLOAD PUSH3 0x461BCD PUSH1 0xE5 SHL DUP2 MSTORE PUSH1 0x20 PUSH1 0x4 DUP3 ADD MSTORE PUSH1 0x24 DUP2 ADD SWAP2 SWAP1 SWAP2 MSTORE PUSH32 0x70726F706F73657220646F65736E2774206861766520656E6F75676820766F74 PUSH1 0x44 DUP3 ADD MSTORE PUSH32 0x696E6720706F77657220746F2070726F706F7365207468697320616374696F6E PUSH1 0x64 DUP3 ADD MSTORE PUSH1 0x84 ADD PUSH2 0x36D JUMP JUMPDEST PUSH1 0x80 DUP4 ADD MLOAD TIMESTAMP SWAP1 PUSH1 0x0 SWAP1 PUSH2 0x122B SWAP1 PUSH4 0xFFFFFFFF AND DUP4 PUSH2 0x2E7F JUMP JUMPDEST SWAP1 POP PUSH1 0x0 DUP6 PUSH1 0x60 ADD MLOAD PUSH4 0xFFFFFFFF AND DUP3 PUSH2 0x1245 SWAP2 SWAP1 PUSH2 0x2E7F JUMP JUMPDEST PUSH1 0x4 SLOAD PUSH3 0xFFFFFF AND PUSH1 0x0 DUP2 DUP2 MSTORE PUSH1 0x9 PUSH1 0x20 MSTORE PUSH1 0x40 SWAP1 KECCAK256 PUSH1 0x1 DUP1 DUP3 ADD DUP1 SLOAD PUSH9 0x10000000000000000 PUSH1 0x1 PUSH1 0xF8 SHL SUB NOT AND PUSH1 0x1 PUSH1 0x40 SHL SWAP5 DUP6 MUL PUSH32 0xFF0000000000000000000000000000000000000000FFFFFFFFFFFFFFFFFFFFFF AND OR CALLER PUSH1 0x1 PUSH1 0x58 SHL MUL OR DUP1 DUP3 SSTORE DUP4 SLOAD PUSH1 0x1 PUSH1 0x1 PUSH1 0x40 SHL SUB DUP11 DUP2 AND PUSH24 0xFFFFFFFFFFFFFFFF0000000000000000FFFFFFFFFFFFFFFF NOT SWAP1 SWAP3 AND SWAP2 SWAP1 SWAP2 OR PUSH1 0x1 PUSH1 0x80 SHL DUP11 DUP4 AND MUL OR PUSH16 0xFFFFFFFFFFFFFFFF0000000000000000 NOT AND SWAP1 DUP8 AND SWAP1 SWAP6 MUL SWAP5 SWAP1 SWAP5 OR DUP4 SSTORE SWAP4 SWAP5 POP SWAP1 SWAP3 SWAP1 SWAP2 PUSH1 0x1 PUSH1 0x1 PUSH1 0xF8 SHL SUB AND PUSH1 0x1 PUSH1 0xF8 SHL DUP4 MUL OR SWAP1 SSTORE POP DUP7 MLOAD PUSH1 0x1 DUP3 ADD DUP1 SLOAD PUSH8 0xFFFFFFFFFFFFFFFF NOT AND PUSH1 0x1 PUSH1 0x1 PUSH1 0x40 SHL SUB SWAP3 DUP4 AND OR SWAP1 SSTORE PUSH1 0x40 DUP9 ADD MLOAD DUP3 SLOAD PUSH1 0x1 PUSH1 0x1 PUSH1 0xC0 SHL SUB AND PUSH1 0x1 PUSH1 0xC0 SHL SWAP2 SWAP1 SWAP3 AND MUL OR DUP2 SSTORE PUSH1 0x0 JUMPDEST DUP10 DUP2 LT ISZERO PUSH2 0x13C4 JUMPI DUP2 PUSH1 0x2 ADD DUP12 DUP12 DUP4 DUP2 DUP2 LT PUSH2 0x137B JUMPI PUSH2 0x137B PUSH2 0x2AC0 JUMP JUMPDEST SWAP1 POP PUSH1 0x20 MUL DUP2 ADD SWAP1 PUSH2 0x138D SWAP2 SWAP1 PUSH2 0x2B8B JUMP JUMPDEST DUP2 SLOAD PUSH1 0x1 DUP2 ADD DUP4 SSTORE PUSH1 0x0 SWAP3 DUP4 MSTORE PUSH1 0x20 SWAP1 SWAP3 KECCAK256 SWAP1 SWAP2 PUSH1 0x2 MUL ADD PUSH2 0x13AF DUP3 DUP3 PUSH2 0x2EED JUMP JUMPDEST POP POP DUP1 DUP1 PUSH2 0x13BC SWAP1 PUSH2 0x2B12 JUMP JUMPDEST SWAP2 POP POP PUSH2 0x135D JUMP JUMPDEST POP PUSH1 0x1 DUP2 ADD SLOAD PUSH1 0x1 PUSH1 0x40 SHL SWAP1 DIV PUSH3 0xFFFFFF AND PUSH1 0x0 SWAP1 DUP2 MSTORE PUSH1 0xA PUSH1 0x20 MSTORE PUSH1 0x40 DUP1 DUP3 KECCAK256 DUP2 MLOAD PUSH4 0x151F92D3 PUSH1 0xE0 SHL DUP2 MSTORE SWAP2 MLOAD PUSH2 0x1477 SWAP4 SWAP2 SWAP3 PUSH32 0x0 PUSH1 0x1 PUSH1 0x1 PUSH1 0xA0 SHL SUB AND SWAP3 PUSH4 0x151F92D3 SWAP3 PUSH1 0x4 DUP1 DUP5 ADD SWAP4 DUP3 SWAP1 SUB ADD DUP2 DUP7 GAS STATICCALL ISZERO DUP1 ISZERO PUSH2 0x1449 JUMPI RETURNDATASIZE PUSH1 0x0 DUP1 RETURNDATACOPY RETURNDATASIZE PUSH1 0x0 REVERT JUMPDEST POP POP POP POP PUSH1 0x40 MLOAD RETURNDATASIZE PUSH1 0x0 DUP3 RETURNDATACOPY PUSH1 0x1F RETURNDATASIZE SWAP1 DUP2 ADD PUSH1 0x1F NOT AND DUP3 ADD PUSH1 0x40 MSTORE PUSH2 0x1471 SWAP2 SWAP1 DUP2 ADD SWAP1 PUSH2 0x3008 JUMP JUMPDEST SWAP1 PUSH2 0x1DCB JUMP JUMPDEST DUP1 PUSH1 0x1 ADD PUSH1 0x8 SWAP1 SLOAD SWAP1 PUSH2 0x100 EXP SWAP1 DIV PUSH3 0xFFFFFF AND PUSH1 0x1 PUSH2 0x1497 SWAP2 SWAP1 PUSH2 0x30CE JUMP JUMPDEST PUSH1 0x4 DUP1 SLOAD PUSH3 0xFFFFFF NOT AND PUSH3 0xFFFFFF SWAP3 DUP4 AND OR SWAP1 SSTORE PUSH1 0x1 DUP3 ADD SLOAD PUSH2 0x14C4 SWAP2 PUSH1 0x5 SWAP2 PUSH1 0x1 PUSH1 0x40 SHL SWAP1 DIV AND PUSH2 0x1EA2 JUMP JUMPDEST POP PUSH1 0x1 DUP2 ADD SLOAD PUSH1 0x40 MLOAD PUSH1 0x1 PUSH1 0x40 SHL DUP3 DIV PUSH3 0xFFFFFF AND SWAP2 PUSH32 0xE396C3447C45C285122F4831AA414B32F050697412693874B3D76915CB32D5BD SWAP2 PUSH2 0x151A SWAP2 PUSH1 0x1 PUSH1 0x58 SHL SWAP1 DIV PUSH1 0x1 PUSH1 0x1 PUSH1 0xA0 SHL SUB AND SWAP1 DUP15 SWAP1 DUP15 SWAP1 PUSH2 0x30EA JUMP JUMPDEST PUSH1 0x40 MLOAD DUP1 SWAP2 SUB SWAP1 LOG2 POP POP POP POP POP POP POP POP POP POP JUMP JUMPDEST PUSH3 0xFFFFFF DUP2 AND PUSH1 0x0 SWAP1 DUP2 MSTORE PUSH1 0x9 PUSH1 0x20 MSTORE PUSH1 0x40 DUP2 KECCAK256 DUP1 SLOAD SWAP1 SWAP2 PUSH1 0x1 PUSH1 0x1 PUSH1 0x40 SHL SUB SWAP1 SWAP2 AND SWAP1 SUB PUSH2 0x156F JUMPI PUSH1 0x40 MLOAD PUSH3 0x461BCD PUSH1 0xE5 SHL DUP2 MSTORE PUSH1 0x4 ADD PUSH2 0x36D SWAP1 PUSH2 0x2944 JUMP JUMPDEST PUSH2 0x157F PUSH1 0x5 PUSH3 0xFFFFFF DUP5 AND PUSH2 0x19A4 JUMP JUMPDEST PUSH2 0x15CB JUMPI PUSH1 0x40 MLOAD PUSH3 0x461BCD PUSH1 0xE5 SHL DUP2 MSTORE PUSH1 0x20 PUSH1 0x4 DUP3 ADD DUP2 SWAP1 MSTORE PUSH1 0x24 DUP3 ADD MSTORE PUSH32 0x70726F706F73616C206973206E6F742063757272656E746C7920616374697665 PUSH1 0x44 DUP3 ADD MSTORE PUSH1 0x64 ADD PUSH2 0x36D JUMP JUMPDEST DUP1 SLOAD PUSH1 0x1 PUSH1 0x1 PUSH1 0x40 SHL SUB PUSH1 0x1 PUSH1 0x80 SHL SWAP1 SWAP2 DIV DUP2 AND TIMESTAMP SWAP1 SWAP2 AND GT PUSH2 0x163C JUMPI PUSH1 0x40 MLOAD PUSH3 0x461BCD PUSH1 0xE5 SHL DUP2 MSTORE PUSH1 0x20 PUSH1 0x4 DUP3 ADD MSTORE PUSH1 0x23 PUSH1 0x24 DUP3 ADD MSTORE PUSH32 0x766F74696E67206973206F6E676F696E6720666F7220746869732070726F706F PUSH1 0x44 DUP3 ADD MSTORE PUSH3 0x1CD85B PUSH1 0xEA SHL PUSH1 0x64 DUP3 ADD MSTORE PUSH1 0x84 ADD PUSH2 0x36D JUMP JUMPDEST PUSH1 0x0 DUP1 PUSH1 0x0 PUSH2 0x164A DUP5 PUSH2 0x19DA JUMP JUMPDEST SWAP2 SWAP5 POP SWAP3 POP SWAP1 POP PUSH1 0x0 DUP2 PUSH2 0x165E DUP5 DUP7 PUSH2 0x2AFF JUMP JUMPDEST PUSH2 0x1668 SWAP2 SWAP1 PUSH2 0x2AFF JUMP JUMPDEST PUSH1 0x1 DUP7 ADD SLOAD SWAP1 SWAP2 POP PUSH1 0x1 PUSH1 0x1 PUSH1 0x40 SHL SUB AND DUP2 LT ISZERO PUSH2 0x1701 JUMPI PUSH1 0x1 DUP6 ADD DUP1 SLOAD PUSH1 0x1 PUSH1 0x1 PUSH1 0xF8 SHL SUB AND PUSH1 0x1 PUSH1 0xF9 SHL OR SWAP1 SSTORE PUSH2 0x16A7 PUSH1 0x5 PUSH3 0xFFFFFF DUP9 AND PUSH2 0x19CE JUMP JUMPDEST POP DUP6 PUSH3 0xFFFFFF AND PUSH32 0x2A493178B5A20A5F25BA24FF7EC6EF19AB4E15E87B2D33FD2E7C1AE3655BB52F DUP7 PUSH1 0x1 ADD PUSH1 0x1F SWAP1 SLOAD SWAP1 PUSH2 0x100 EXP SWAP1 DIV PUSH1 0xFF AND PUSH1 0x1 PUSH1 0x40 MLOAD PUSH2 0x16F1 SWAP3 SWAP2 SWAP1 PUSH2 0x31C9 JUMP JUMPDEST PUSH1 0x40 MLOAD DUP1 SWAP2 SUB SWAP1 LOG2 POP POP POP POP POP POP JUMP JUMPDEST PUSH1 0x0 DUP1 PUSH2 0x170E DUP6 DUP8 PUSH2 0x2AFF JUMP JUMPDEST GT ISZERO PUSH2 0x172B JUMPI PUSH2 0x1728 PUSH2 0x1721 DUP6 DUP8 PUSH2 0x2AFF JUMP JUMPDEST DUP7 SWAP1 PUSH2 0x1EAE JUMP JUMPDEST SWAP1 POP JUMPDEST DUP6 SLOAD PUSH1 0x0 SWAP1 PUSH1 0x1 PUSH1 0xC0 SHL SWAP1 DIV PUSH1 0x1 PUSH1 0x1 PUSH1 0x40 SHL SUB AND DUP3 LT PUSH2 0x1776 JUMPI POP PUSH1 0x1 DUP7 ADD DUP1 SLOAD PUSH1 0x1 PUSH1 0x1 PUSH1 0xF8 SHL SUB AND PUSH1 0x3 PUSH1 0xF8 SHL OR SWAP1 SSTORE PUSH1 0x3 PUSH2 0x1770 PUSH1 0x7 PUSH3 0xFFFFFF DUP11 AND PUSH2 0x1EA2 JUMP JUMPDEST POP PUSH2 0x1791 JUMP JUMPDEST POP PUSH1 0x1 DUP7 ADD DUP1 SLOAD PUSH1 0x1 PUSH1 0x1 PUSH1 0xF8 SHL SUB AND PUSH1 0x1 PUSH1 0xF9 SHL OR SWAP1 SSTORE PUSH1 0x2 JUMPDEST PUSH2 0x17A1 PUSH1 0x5 PUSH3 0xFFFFFF DUP11 AND PUSH2 0x19CE JUMP JUMPDEST POP PUSH1 0x1 DUP8 ADD SLOAD PUSH1 0x40 MLOAD PUSH3 0xFFFFFF DUP11 AND SWAP2 PUSH32 0x2A493178B5A20A5F25BA24FF7EC6EF19AB4E15E87B2D33FD2E7C1AE3655BB52F SWAP2 PUSH2 0x17E9 SWAP2 PUSH1 0x1 PUSH1 0xF8 SHL SWAP1 DIV PUSH1 0xFF AND SWAP1 DUP6 SWAP1 PUSH2 0x31C9 JUMP JUMPDEST PUSH1 0x40 MLOAD DUP1 SWAP2 SUB SWAP1 LOG2 POP POP POP POP POP POP POP POP JUMP JUMPDEST PUSH1 0x60 PUSH2 0xCA1 PUSH2 0xC9C PUSH1 0x5 PUSH2 0x1AF6 JUMP JUMPDEST DUP1 MLOAD PUSH1 0x60 SWAP1 PUSH1 0x0 DUP2 PUSH1 0x1 PUSH1 0x1 PUSH1 0x40 SHL SUB DUP2 GT ISZERO PUSH2 0x1829 JUMPI PUSH2 0x1829 PUSH2 0x24B3 JUMP JUMPDEST PUSH1 0x40 MLOAD SWAP1 DUP1 DUP3 MSTORE DUP1 PUSH1 0x20 MUL PUSH1 0x20 ADD DUP3 ADD PUSH1 0x40 MSTORE DUP1 ISZERO PUSH2 0x1852 JUMPI DUP2 PUSH1 0x20 ADD PUSH1 0x20 DUP3 MUL DUP1 CALLDATASIZE DUP4 CALLDATACOPY ADD SWAP1 POP JUMPDEST POP SWAP1 POP PUSH1 0x0 JUMPDEST DUP3 DUP2 LT ISZERO PUSH2 0x18BA JUMPI DUP5 DUP2 DUP2 MLOAD DUP2 LT PUSH2 0x1872 JUMPI PUSH2 0x1872 PUSH2 0x2AC0 JUMP JUMPDEST PUSH1 0x20 MUL PUSH1 0x20 ADD ADD MLOAD PUSH1 0x0 ADD MLOAD DUP3 DUP3 DUP2 MLOAD DUP2 LT PUSH2 0x1890 JUMPI PUSH2 0x1890 PUSH2 0x2AC0 JUMP JUMPDEST PUSH1 0x1 PUSH1 0x1 PUSH1 0xA0 SHL SUB SWAP1 SWAP3 AND PUSH1 0x20 SWAP3 DUP4 MUL SWAP2 SWAP1 SWAP2 ADD SWAP1 SWAP2 ADD MSTORE DUP1 PUSH2 0x18B2 DUP2 PUSH2 0x2B12 JUMP JUMPDEST SWAP2 POP POP PUSH2 0x1858 JUMP JUMPDEST POP SWAP4 SWAP3 POP POP POP JUMP JUMPDEST PUSH1 0x0 DUP1 DUP1 DUP1 PUSH2 0x18DA DUP7 PUSH1 0x1 PUSH1 0x1 PUSH1 0xA0 SHL SUB DUP8 AND PUSH2 0x1ECD JUMP JUMPDEST SWAP1 SWAP5 POP SWAP3 POP POP POP JUMPDEST SWAP3 POP SWAP3 SWAP1 POP JUMP JUMPDEST PUSH1 0x0 PUSH2 0x18FF DUP5 PUSH1 0x1 PUSH1 0x1 PUSH1 0xA0 SHL SUB DUP6 AND DUP5 PUSH2 0x1F07 JUMP JUMPDEST SWAP5 SWAP4 POP POP POP POP JUMP JUMPDEST PUSH2 0x192B PUSH1 0x40 MLOAD DUP1 PUSH1 0x60 ADD PUSH1 0x40 MSTORE DUP1 PUSH1 0x60 DUP2 MSTORE PUSH1 0x20 ADD PUSH1 0x60 DUP2 MSTORE PUSH1 0x20 ADD PUSH1 0x60 DUP2 MSTORE POP SWAP1 JUMP JUMPDEST PUSH1 0x1 PUSH1 0x0 SWAP1 DUP2 MSTORE PUSH1 0x20 DUP4 SWAP1 MSTORE PUSH1 0x40 DUP2 KECCAK256 SWAP1 PUSH2 0x1945 DUP3 PUSH2 0x1F24 JUMP JUMPDEST PUSH1 0x2 PUSH1 0x0 SWAP1 DUP2 MSTORE PUSH1 0x20 DUP7 SWAP1 MSTORE PUSH1 0x40 DUP2 KECCAK256 SWAP2 SWAP3 POP PUSH2 0x1961 DUP3 PUSH2 0x1F24 JUMP JUMPDEST PUSH1 0x3 PUSH1 0x0 SWAP1 DUP2 MSTORE PUSH1 0x20 DUP9 SWAP1 MSTORE PUSH1 0x40 DUP2 KECCAK256 SWAP2 SWAP3 POP PUSH2 0x197D DUP3 PUSH2 0x1F24 JUMP JUMPDEST PUSH1 0x40 DUP1 MLOAD PUSH1 0x60 DUP2 ADD DUP3 MSTORE SWAP7 DUP8 MSTORE PUSH1 0x20 DUP8 ADD SWAP5 SWAP1 SWAP5 MSTORE SWAP3 DUP6 ADD SWAP3 SWAP1 SWAP3 MSTORE POP SWAP2 SWAP6 SWAP5 POP POP POP POP POP JUMP JUMPDEST PUSH1 0x0 DUP2 DUP2 MSTORE PUSH1 0x1 DUP4 ADD PUSH1 0x20 MSTORE PUSH1 0x40 DUP2 KECCAK256 SLOAD ISZERO ISZERO JUMPDEST SWAP4 SWAP3 POP POP POP JUMP JUMPDEST PUSH1 0x60 PUSH2 0x18FF DUP5 DUP5 PUSH1 0x0 DUP6 PUSH2 0x200B JUMP JUMPDEST PUSH1 0x0 PUSH2 0x19B8 DUP4 DUP4 PUSH2 0x20E6 JUMP JUMPDEST PUSH1 0x1 DUP2 ADD SLOAD PUSH1 0x1 PUSH1 0x40 SHL SWAP1 DIV PUSH3 0xFFFFFF AND PUSH1 0x0 SWAP1 DUP2 MSTORE PUSH1 0xA PUSH1 0x20 SWAP1 DUP2 MSTORE PUSH1 0x40 DUP1 DUP4 KECCAK256 DUP1 SLOAD DUP3 MLOAD DUP2 DUP6 MUL DUP2 ADD DUP6 ADD SWAP1 SWAP4 MSTORE DUP1 DUP4 MSTORE DUP5 SWAP4 DUP5 SWAP4 DUP5 SWAP4 SWAP1 SWAP3 SWAP1 SWAP2 DUP5 SWAP1 DUP5 ADD JUMPDEST DUP3 DUP3 LT ISZERO PUSH2 0x1A71 JUMPI PUSH1 0x0 DUP5 DUP2 MSTORE PUSH1 0x20 SWAP1 DUP2 SWAP1 KECCAK256 PUSH1 0x40 DUP1 MLOAD PUSH1 0x60 DUP2 ADD DUP3 MSTORE PUSH1 0x3 DUP7 MUL SWAP1 SWAP3 ADD DUP1 SLOAD PUSH1 0x1 PUSH1 0x1 PUSH1 0xA0 SHL SUB AND DUP4 MSTORE PUSH1 0x1 DUP1 DUP3 ADD SLOAD DUP5 DUP7 ADD MSTORE PUSH1 0x2 SWAP1 SWAP2 ADD SLOAD SWAP2 DUP4 ADD SWAP2 SWAP1 SWAP2 MSTORE SWAP1 DUP4 MSTORE SWAP1 SWAP3 ADD SWAP2 ADD PUSH2 0x1A1C JUMP JUMPDEST POP POP POP PUSH1 0x1 DUP1 DUP9 ADD SLOAD PUSH3 0xFFFFFF PUSH1 0x1 PUSH1 0x40 SHL SWAP1 SWAP2 DIV AND PUSH1 0x0 SWAP1 DUP2 MSTORE PUSH1 0xC PUSH1 0x20 MSTORE PUSH1 0x40 DUP2 KECCAK256 SWAP4 SWAP5 POP PUSH2 0x1ACE SWAP3 POP DUP4 SWAP2 JUMPDEST PUSH1 0x3 DUP2 GT ISZERO PUSH2 0x1AB1 JUMPI PUSH2 0x1AB1 PUSH2 0x26A0 JUMP JUMPDEST DUP2 MSTORE PUSH1 0x20 ADD SWAP1 DUP2 MSTORE PUSH1 0x20 ADD PUSH1 0x0 KECCAK256 DUP4 PUSH2 0x21D9 SWAP1 SWAP2 SWAP1 PUSH4 0xFFFFFFFF AND JUMP JUMPDEST SWAP5 POP PUSH2 0x1ADD DUP2 PUSH1 0x0 PUSH1 0x2 PUSH2 0x1AA0 JUMP JUMPDEST SWAP4 POP PUSH2 0x1AEC DUP2 PUSH1 0x0 PUSH1 0x3 PUSH2 0x1AA0 JUMP JUMPDEST SWAP5 SWAP7 SWAP4 SWAP6 POP POP POP POP JUMP JUMPDEST PUSH1 0x60 PUSH1 0x0 PUSH2 0x19B8 DUP4 PUSH2 0x2266 JUMP JUMPDEST DUP1 MLOAD PUSH1 0x60 SWAP1 PUSH1 0x0 DUP2 PUSH1 0x1 PUSH1 0x1 PUSH1 0x40 SHL SUB DUP2 GT ISZERO PUSH2 0x1B22 JUMPI PUSH2 0x1B22 PUSH2 0x24B3 JUMP JUMPDEST PUSH1 0x40 MLOAD SWAP1 DUP1 DUP3 MSTORE DUP1 PUSH1 0x20 MUL PUSH1 0x20 ADD DUP3 ADD PUSH1 0x40 MSTORE DUP1 ISZERO PUSH2 0x1BA2 JUMPI DUP2 PUSH1 0x20 ADD JUMPDEST PUSH2 0x1B8F PUSH1 0x40 DUP1 MLOAD PUSH2 0x120 DUP2 ADD DUP3 MSTORE PUSH1 0x0 DUP1 DUP3 MSTORE PUSH1 0x20 DUP3 ADD DUP2 SWAP1 MSTORE SWAP2 DUP2 ADD DUP3 SWAP1 MSTORE PUSH1 0x60 DUP2 ADD DUP3 SWAP1 MSTORE PUSH1 0x80 DUP2 ADD DUP3 SWAP1 MSTORE PUSH1 0xA0 DUP2 ADD DUP3 SWAP1 MSTORE PUSH1 0xC0 DUP2 ADD DUP3 SWAP1 MSTORE SWAP1 PUSH1 0xE0 DUP3 ADD SWAP1 DUP2 MSTORE PUSH1 0x20 ADD PUSH1 0x60 DUP2 MSTORE POP SWAP1 JUMP JUMPDEST DUP2 MSTORE PUSH1 0x20 ADD SWAP1 PUSH1 0x1 SWAP1 SUB SWAP1 DUP2 PUSH2 0x1B40 JUMPI SWAP1 POP JUMPDEST POP SWAP1 POP PUSH1 0x0 JUMPDEST DUP3 DUP2 LT ISZERO PUSH2 0x18BA JUMPI PUSH1 0x9 PUSH1 0x0 DUP7 DUP4 DUP2 MLOAD DUP2 LT PUSH2 0x1BC6 JUMPI PUSH2 0x1BC6 PUSH2 0x2AC0 JUMP JUMPDEST PUSH1 0x20 SWAP1 DUP2 MUL SWAP2 SWAP1 SWAP2 ADD DUP2 ADD MLOAD PUSH3 0xFFFFFF SWAP1 DUP2 AND DUP4 MSTORE DUP3 DUP3 ADD SWAP4 SWAP1 SWAP4 MSTORE PUSH1 0x40 SWAP2 DUP3 ADD PUSH1 0x0 KECCAK256 DUP3 MLOAD PUSH2 0x120 DUP2 ADD DUP5 MSTORE DUP2 SLOAD PUSH1 0x1 PUSH1 0x1 PUSH1 0x40 SHL SUB DUP1 DUP3 AND DUP4 MSTORE PUSH1 0x1 PUSH1 0x40 SHL DUP1 DUP4 DIV DUP3 AND SWAP6 DUP5 ADD SWAP6 SWAP1 SWAP6 MSTORE PUSH1 0x1 PUSH1 0x80 SHL DUP3 DIV DUP2 AND SWAP6 DUP4 ADD SWAP6 SWAP1 SWAP6 MSTORE PUSH1 0x1 PUSH1 0xC0 SHL SWAP1 DIV DUP5 AND PUSH1 0x60 DUP3 ADD MSTORE PUSH1 0x1 DUP3 ADD SLOAD SWAP4 DUP5 AND PUSH1 0x80 DUP3 ADD MSTORE SWAP2 DUP4 DIV SWAP1 SWAP4 AND PUSH1 0xA0 DUP3 ADD MSTORE PUSH1 0x1 PUSH1 0x58 SHL DUP3 DIV PUSH1 0x1 PUSH1 0x1 PUSH1 0xA0 SHL SUB AND PUSH1 0xC0 DUP3 ADD MSTORE SWAP2 SWAP1 PUSH1 0xE0 DUP4 ADD SWAP1 PUSH1 0x1 PUSH1 0xF8 SHL SWAP1 DIV PUSH1 0xFF AND PUSH1 0x4 DUP2 GT ISZERO PUSH2 0x1C80 JUMPI PUSH2 0x1C80 PUSH2 0x26A0 JUMP JUMPDEST PUSH1 0x4 DUP2 GT ISZERO PUSH2 0x1C91 JUMPI PUSH2 0x1C91 PUSH2 0x26A0 JUMP JUMPDEST DUP2 MSTORE PUSH1 0x20 ADD PUSH1 0x2 DUP3 ADD DUP1 SLOAD DUP1 PUSH1 0x20 MUL PUSH1 0x20 ADD PUSH1 0x40 MLOAD SWAP1 DUP2 ADD PUSH1 0x40 MSTORE DUP1 SWAP3 SWAP2 SWAP1 DUP2 DUP2 MSTORE PUSH1 0x20 ADD PUSH1 0x0 SWAP1 JUMPDEST DUP3 DUP3 LT ISZERO PUSH2 0x1D93 JUMPI PUSH1 0x0 DUP5 DUP2 MSTORE PUSH1 0x20 SWAP1 DUP2 SWAP1 KECCAK256 PUSH1 0x40 DUP1 MLOAD DUP1 DUP3 ADD SWAP1 SWAP2 MSTORE PUSH1 0x2 DUP6 MUL SWAP1 SWAP2 ADD DUP1 SLOAD PUSH1 0x1 PUSH1 0x1 PUSH1 0xA0 SHL SUB AND DUP3 MSTORE PUSH1 0x1 DUP2 ADD DUP1 SLOAD SWAP3 SWAP4 SWAP2 SWAP3 SWAP2 DUP5 ADD SWAP2 PUSH2 0x1D02 SWAP1 PUSH2 0x2B51 JUMP JUMPDEST DUP1 PUSH1 0x1F ADD PUSH1 0x20 DUP1 SWAP2 DIV MUL PUSH1 0x20 ADD PUSH1 0x40 MLOAD SWAP1 DUP2 ADD PUSH1 0x40 MSTORE DUP1 SWAP3 SWAP2 SWAP1 DUP2 DUP2 MSTORE PUSH1 0x20 ADD DUP3 DUP1 SLOAD PUSH2 0x1D2E SWAP1 PUSH2 0x2B51 JUMP JUMPDEST DUP1 ISZERO PUSH2 0x1D7B JUMPI DUP1 PUSH1 0x1F LT PUSH2 0x1D50 JUMPI PUSH2 0x100 DUP1 DUP4 SLOAD DIV MUL DUP4 MSTORE SWAP2 PUSH1 0x20 ADD SWAP2 PUSH2 0x1D7B JUMP JUMPDEST DUP3 ADD SWAP2 SWAP1 PUSH1 0x0 MSTORE PUSH1 0x20 PUSH1 0x0 KECCAK256 SWAP1 JUMPDEST DUP2 SLOAD DUP2 MSTORE SWAP1 PUSH1 0x1 ADD SWAP1 PUSH1 0x20 ADD DUP1 DUP4 GT PUSH2 0x1D5E JUMPI DUP3 SWAP1 SUB PUSH1 0x1F AND DUP3 ADD SWAP2 JUMPDEST POP POP POP POP POP DUP2 MSTORE POP POP DUP2 MSTORE PUSH1 0x20 ADD SWAP1 PUSH1 0x1 ADD SWAP1 PUSH2 0x1CBA JUMP JUMPDEST POP POP POP POP DUP2 MSTORE POP POP DUP3 DUP3 DUP2 MLOAD DUP2 LT PUSH2 0x1DAD JUMPI PUSH2 0x1DAD PUSH2 0x2AC0 JUMP JUMPDEST PUSH1 0x20 MUL PUSH1 0x20 ADD ADD DUP2 SWAP1 MSTORE POP DUP1 DUP1 PUSH2 0x1DC3 SWAP1 PUSH2 0x2B12 JUMP JUMPDEST SWAP2 POP POP PUSH2 0x1BA8 JUMP JUMPDEST DUP1 SLOAD ISZERO PUSH2 0x1E12 JUMPI PUSH1 0x40 MLOAD PUSH3 0x461BCD PUSH1 0xE5 SHL DUP2 MSTORE PUSH1 0x20 PUSH1 0x4 DUP3 ADD MSTORE PUSH1 0x15 PUSH1 0x24 DUP3 ADD MSTORE PUSH21 0x39BA37B930B3B29036BAB9BA1031329031B632B0B7 PUSH1 0x59 SHL PUSH1 0x44 DUP3 ADD MSTORE PUSH1 0x64 ADD PUSH2 0x36D JUMP JUMPDEST PUSH1 0x0 JUMPDEST DUP3 MLOAD DUP2 LT ISZERO PUSH2 0x1E9D JUMPI DUP2 DUP4 DUP3 DUP2 MLOAD DUP2 LT PUSH2 0x1E31 JUMPI PUSH2 0x1E31 PUSH2 0x2AC0 JUMP JUMPDEST PUSH1 0x20 SWAP1 DUP2 MUL SWAP2 SWAP1 SWAP2 ADD DUP2 ADD MLOAD DUP3 SLOAD PUSH1 0x1 DUP1 DUP3 ADD DUP6 SSTORE PUSH1 0x0 SWAP5 DUP6 MSTORE SWAP4 DUP4 SWAP1 KECCAK256 DUP3 MLOAD PUSH1 0x3 SWAP1 SWAP3 MUL ADD DUP1 SLOAD PUSH1 0x1 PUSH1 0x1 PUSH1 0xA0 SHL SUB NOT AND PUSH1 0x1 PUSH1 0x1 PUSH1 0xA0 SHL SUB SWAP1 SWAP3 AND SWAP2 SWAP1 SWAP2 OR DUP2 SSTORE SWAP2 DUP2 ADD MLOAD SWAP3 DUP3 ADD SWAP3 SWAP1 SWAP3 SSTORE PUSH1 0x40 SWAP1 SWAP2 ADD MLOAD PUSH1 0x2 SWAP1 SWAP2 ADD SSTORE DUP1 PUSH2 0x1E95 DUP2 PUSH2 0x2B12 JUMP JUMPDEST SWAP2 POP POP PUSH2 0x1E15 JUMP JUMPDEST POP POP POP JUMP JUMPDEST PUSH1 0x0 PUSH2 0x19B8 DUP4 DUP4 PUSH2 0x22C2 JUMP JUMPDEST PUSH1 0x0 DUP2 PUSH2 0x1EC3 PUSH8 0xDE0B6B3A7640000 DUP6 PUSH2 0x31E0 JUMP JUMPDEST PUSH2 0x19B8 SWAP2 SWAP1 PUSH2 0x31F7 JUMP JUMPDEST PUSH1 0x0 DUP2 DUP2 MSTORE PUSH1 0x2 DUP4 ADD PUSH1 0x20 MSTORE PUSH1 0x40 DUP2 KECCAK256 SLOAD DUP2 SWAP1 DUP1 PUSH2 0x1EFC JUMPI PUSH2 0x1EEF DUP6 DUP6 PUSH2 0x2311 JUMP JUMPDEST SWAP3 POP PUSH1 0x0 SWAP2 POP PUSH2 0x18E2 SWAP1 POP JUMP JUMPDEST PUSH1 0x1 SWAP3 POP SWAP1 POP PUSH2 0x18E2 JUMP JUMPDEST PUSH1 0x0 DUP3 DUP2 MSTORE PUSH1 0x2 DUP5 ADD PUSH1 0x20 MSTORE PUSH1 0x40 DUP2 KECCAK256 DUP3 SWAP1 SSTORE PUSH2 0x18FF DUP5 DUP5 PUSH2 0x1EA2 JUMP JUMPDEST PUSH1 0x60 PUSH1 0x0 PUSH2 0x1F31 DUP4 PUSH2 0x231D JUMP JUMPDEST PUSH1 0x1 PUSH1 0x1 PUSH1 0x40 SHL SUB DUP2 GT ISZERO PUSH2 0x1F48 JUMPI PUSH2 0x1F48 PUSH2 0x24B3 JUMP JUMPDEST PUSH1 0x40 MLOAD SWAP1 DUP1 DUP3 MSTORE DUP1 PUSH1 0x20 MUL PUSH1 0x20 ADD DUP3 ADD PUSH1 0x40 MSTORE DUP1 ISZERO PUSH2 0x1F8D JUMPI DUP2 PUSH1 0x20 ADD JUMPDEST PUSH1 0x40 DUP1 MLOAD DUP1 DUP3 ADD SWAP1 SWAP2 MSTORE PUSH1 0x0 DUP1 DUP3 MSTORE PUSH1 0x20 DUP3 ADD MSTORE DUP2 MSTORE PUSH1 0x20 ADD SWAP1 PUSH1 0x1 SWAP1 SUB SWAP1 DUP2 PUSH2 0x1F66 JUMPI SWAP1 POP JUMPDEST POP SWAP1 POP PUSH1 0x0 JUMPDEST PUSH2 0x1F9C DUP5 PUSH2 0x231D JUMP JUMPDEST DUP2 LT ISZERO PUSH2 0x2004 JUMPI PUSH1 0x0 DUP1 PUSH2 0x1FB0 DUP7 DUP5 PUSH2 0x2328 JUMP JUMPDEST SWAP2 POP SWAP2 POP PUSH1 0x40 MLOAD DUP1 PUSH1 0x40 ADD PUSH1 0x40 MSTORE DUP1 DUP4 PUSH1 0x1 PUSH1 0x1 PUSH1 0xA0 SHL SUB AND DUP2 MSTORE PUSH1 0x20 ADD DUP3 DUP2 MSTORE POP DUP5 DUP5 DUP2 MLOAD DUP2 LT PUSH2 0x1FE4 JUMPI PUSH2 0x1FE4 PUSH2 0x2AC0 JUMP JUMPDEST PUSH1 0x20 MUL PUSH1 0x20 ADD ADD DUP2 SWAP1 MSTORE POP POP POP DUP1 DUP1 PUSH2 0x1FFC SWAP1 PUSH2 0x2B12 JUMP JUMPDEST SWAP2 POP POP PUSH2 0x1F93 JUMP JUMPDEST POP SWAP3 SWAP2 POP POP JUMP JUMPDEST PUSH1 0x60 DUP3 SELFBALANCE LT ISZERO PUSH2 0x206C JUMPI PUSH1 0x40 MLOAD PUSH3 0x461BCD PUSH1 0xE5 SHL DUP2 MSTORE PUSH1 0x20 PUSH1 0x4 DUP3 ADD MSTORE PUSH1 0x26 PUSH1 0x24 DUP3 ADD MSTORE PUSH32 0x416464726573733A20696E73756666696369656E742062616C616E636520666F PUSH1 0x44 DUP3 ADD MSTORE PUSH6 0x1C8818D85B1B PUSH1 0xD2 SHL PUSH1 0x64 DUP3 ADD MSTORE PUSH1 0x84 ADD PUSH2 0x36D JUMP JUMPDEST PUSH1 0x0 DUP1 DUP7 PUSH1 0x1 PUSH1 0x1 PUSH1 0xA0 SHL SUB AND DUP6 DUP8 PUSH1 0x40 MLOAD PUSH2 0x2088 SWAP2 SWAP1 PUSH2 0x3219 JUMP JUMPDEST PUSH1 0x0 PUSH1 0x40 MLOAD DUP1 DUP4 SUB DUP2 DUP6 DUP8 GAS CALL SWAP3 POP POP POP RETURNDATASIZE DUP1 PUSH1 0x0 DUP2 EQ PUSH2 0x20C5 JUMPI PUSH1 0x40 MLOAD SWAP2 POP PUSH1 0x1F NOT PUSH1 0x3F RETURNDATASIZE ADD AND DUP3 ADD PUSH1 0x40 MSTORE RETURNDATASIZE DUP3 MSTORE RETURNDATASIZE PUSH1 0x0 PUSH1 0x20 DUP5 ADD RETURNDATACOPY PUSH2 0x20CA JUMP JUMPDEST PUSH1 0x60 SWAP2 POP JUMPDEST POP SWAP2 POP SWAP2 POP PUSH2 0x20DB DUP8 DUP4 DUP4 DUP8 PUSH2 0x2337 JUMP JUMPDEST SWAP8 SWAP7 POP POP POP POP POP POP POP JUMP JUMPDEST PUSH1 0x0 DUP2 DUP2 MSTORE PUSH1 0x1 DUP4 ADD PUSH1 0x20 MSTORE PUSH1 0x40 DUP2 KECCAK256 SLOAD DUP1 ISZERO PUSH2 0x21CF JUMPI PUSH1 0x0 PUSH2 0x210A PUSH1 0x1 DUP4 PUSH2 0x2AEC JUMP JUMPDEST DUP6 SLOAD SWAP1 SWAP2 POP PUSH1 0x0 SWAP1 PUSH2 0x211E SWAP1 PUSH1 0x1 SWAP1 PUSH2 0x2AEC JUMP JUMPDEST SWAP1 POP DUP2 DUP2 EQ PUSH2 0x2183 JUMPI PUSH1 0x0 DUP7 PUSH1 0x0 ADD DUP3 DUP2 SLOAD DUP2 LT PUSH2 0x213E JUMPI PUSH2 0x213E PUSH2 0x2AC0 JUMP JUMPDEST SWAP1 PUSH1 0x0 MSTORE PUSH1 0x20 PUSH1 0x0 KECCAK256 ADD SLOAD SWAP1 POP DUP1 DUP8 PUSH1 0x0 ADD DUP5 DUP2 SLOAD DUP2 LT PUSH2 0x2161 JUMPI PUSH2 0x2161 PUSH2 0x2AC0 JUMP JUMPDEST PUSH1 0x0 SWAP2 DUP3 MSTORE PUSH1 0x20 DUP1 DUP4 KECCAK256 SWAP1 SWAP2 ADD SWAP3 SWAP1 SWAP3 SSTORE SWAP2 DUP3 MSTORE PUSH1 0x1 DUP9 ADD SWAP1 MSTORE PUSH1 0x40 SWAP1 KECCAK256 DUP4 SWAP1 SSTORE JUMPDEST DUP6 SLOAD DUP7 SWAP1 DUP1 PUSH2 0x2194 JUMPI PUSH2 0x2194 PUSH2 0x322B JUMP JUMPDEST PUSH1 0x1 SWAP1 SUB DUP2 DUP2 SWAP1 PUSH1 0x0 MSTORE PUSH1 0x20 PUSH1 0x0 KECCAK256 ADD PUSH1 0x0 SWAP1 SSTORE SWAP1 SSTORE DUP6 PUSH1 0x1 ADD PUSH1 0x0 DUP7 DUP2 MSTORE PUSH1 0x20 ADD SWAP1 DUP2 MSTORE PUSH1 0x20 ADD PUSH1 0x0 KECCAK256 PUSH1 0x0 SWAP1 SSTORE PUSH1 0x1 SWAP4 POP POP POP POP PUSH2 0x95B JUMP JUMPDEST PUSH1 0x0 SWAP2 POP POP PUSH2 0x95B JUMP JUMPDEST PUSH1 0x0 DUP1 JUMPDEST DUP4 MLOAD DUP2 LT ISZERO PUSH2 0x2004 JUMPI PUSH1 0x0 DUP5 DUP3 DUP2 MLOAD DUP2 LT PUSH2 0x21FA JUMPI PUSH2 0x21FA PUSH2 0x2AC0 JUMP JUMPDEST PUSH1 0x20 MUL PUSH1 0x20 ADD ADD MLOAD SWAP1 POP PUSH1 0x0 PUSH2 0x221D DUP3 PUSH1 0x0 ADD MLOAD DUP7 PUSH2 0x18C2 SWAP1 SWAP2 SWAP1 PUSH4 0xFFFFFFFF AND JUMP JUMPDEST SWAP2 POP POP PUSH2 0x2245 DUP3 PUSH1 0x20 ADD MLOAD PUSH2 0x223F DUP5 PUSH1 0x40 ADD MLOAD DUP5 PUSH2 0x1EAE SWAP1 SWAP2 SWAP1 PUSH4 0xFFFFFFFF AND JUMP JUMPDEST SWAP1 PUSH2 0x23B0 JUMP JUMPDEST PUSH2 0x224F SWAP1 DUP6 PUSH2 0x2AFF JUMP JUMPDEST SWAP4 POP POP POP DUP1 DUP1 PUSH2 0x225E SWAP1 PUSH2 0x2B12 JUMP JUMPDEST SWAP2 POP POP PUSH2 0x21DD JUMP JUMPDEST PUSH1 0x60 DUP2 PUSH1 0x0 ADD DUP1 SLOAD DUP1 PUSH1 0x20 MUL PUSH1 0x20 ADD PUSH1 0x40 MLOAD SWAP1 DUP2 ADD PUSH1 0x40 MSTORE DUP1 SWAP3 SWAP2 SWAP1 DUP2 DUP2 MSTORE PUSH1 0x20 ADD DUP3 DUP1 SLOAD DUP1 ISZERO PUSH2 0x22B6 JUMPI PUSH1 0x20 MUL DUP3 ADD SWAP2 SWAP1 PUSH1 0x0 MSTORE PUSH1 0x20 PUSH1 0x0 KECCAK256 SWAP1 JUMPDEST DUP2 SLOAD DUP2 MSTORE PUSH1 0x20 ADD SWAP1 PUSH1 0x1 ADD SWAP1 DUP1 DUP4 GT PUSH2 0x22A2 JUMPI JUMPDEST POP POP POP POP POP SWAP1 POP SWAP2 SWAP1 POP JUMP JUMPDEST PUSH1 0x0 DUP2 DUP2 MSTORE PUSH1 0x1 DUP4 ADD PUSH1 0x20 MSTORE PUSH1 0x40 DUP2 KECCAK256 SLOAD PUSH2 0x2309 JUMPI POP DUP2 SLOAD PUSH1 0x1 DUP2 DUP2 ADD DUP5 SSTORE PUSH1 0x0 DUP5 DUP2 MSTORE PUSH1 0x20 DUP1 DUP3 KECCAK256 SWAP1 SWAP4 ADD DUP5 SWAP1 SSTORE DUP5 SLOAD DUP5 DUP3 MSTORE DUP3 DUP7 ADD SWAP1 SWAP4 MSTORE PUSH1 0x40 SWAP1 KECCAK256 SWAP2 SWAP1 SWAP2 SSTORE PUSH2 0x95B JUMP JUMPDEST POP PUSH1 0x0 PUSH2 0x95B JUMP JUMPDEST PUSH1 0x0 PUSH2 0x19B8 DUP4 DUP4 PUSH2 0x19A4 JUMP JUMPDEST PUSH1 0x0 PUSH2 0x95B DUP3 PUSH2 0x23C5 JUMP JUMPDEST PUSH1 0x0 DUP1 DUP1 DUP1 PUSH2 0x18DA DUP7 DUP7 PUSH2 0x23D0 JUMP JUMPDEST PUSH1 0x60 DUP4 ISZERO PUSH2 0x23A6 JUMPI DUP3 MLOAD PUSH1 0x0 SUB PUSH2 0x239F JUMPI PUSH1 0x1 PUSH1 0x1 PUSH1 0xA0 SHL SUB DUP6 AND EXTCODESIZE PUSH2 0x239F JUMPI PUSH1 0x40 MLOAD PUSH3 0x461BCD PUSH1 0xE5 SHL DUP2 MSTORE PUSH1 0x20 PUSH1 0x4 DUP3 ADD MSTORE PUSH1 0x1D PUSH1 0x24 DUP3 ADD MSTORE PUSH32 0x416464726573733A2063616C6C20746F206E6F6E2D636F6E7472616374000000 PUSH1 0x44 DUP3 ADD MSTORE PUSH1 0x64 ADD PUSH2 0x36D JUMP JUMPDEST POP DUP2 PUSH2 0x18FF JUMP JUMPDEST PUSH2 0x18FF DUP4 DUP4 PUSH2 0x23FB JUMP JUMPDEST PUSH1 0x0 PUSH8 0xDE0B6B3A7640000 PUSH2 0x1EC3 DUP4 DUP6 PUSH2 0x31E0 JUMP JUMPDEST PUSH1 0x0 PUSH2 0x95B DUP3 PUSH2 0x2425 JUMP JUMPDEST PUSH1 0x0 DUP1 DUP1 PUSH2 0x23DE DUP6 DUP6 PUSH2 0x242F JUMP JUMPDEST PUSH1 0x0 DUP2 DUP2 MSTORE PUSH1 0x2 SWAP7 SWAP1 SWAP7 ADD PUSH1 0x20 MSTORE PUSH1 0x40 SWAP1 SWAP6 KECCAK256 SLOAD SWAP5 SWAP6 SWAP4 POP POP POP POP JUMP JUMPDEST DUP2 MLOAD ISZERO PUSH2 0x240B JUMPI DUP2 MLOAD DUP1 DUP4 PUSH1 0x20 ADD REVERT JUMPDEST DUP1 PUSH1 0x40 MLOAD PUSH3 0x461BCD PUSH1 0xE5 SHL DUP2 MSTORE PUSH1 0x4 ADD PUSH2 0x36D SWAP2 SWAP1 PUSH2 0x2E11 JUMP JUMPDEST PUSH1 0x0 PUSH2 0x95B DUP3 SLOAD SWAP1 JUMP JUMPDEST PUSH1 0x0 PUSH2 0x19B8 DUP4 DUP4 PUSH1 0x0 DUP3 PUSH1 0x0 ADD DUP3 DUP2 SLOAD DUP2 LT PUSH2 0x244D JUMPI PUSH2 0x244D PUSH2 0x2AC0 JUMP JUMPDEST SWAP1 PUSH1 0x0 MSTORE PUSH1 0x20 PUSH1 0x0 KECCAK256 ADD SLOAD SWAP1 POP SWAP3 SWAP2 POP POP JUMP JUMPDEST DUP1 CALLDATALOAD PUSH3 0xFFFFFF DUP2 AND DUP2 EQ PUSH2 0x2473 JUMPI PUSH1 0x0 DUP1 REVERT JUMPDEST SWAP2 SWAP1 POP JUMP JUMPDEST PUSH1 0x0 DUP1 PUSH1 0x40 DUP4 DUP6 SUB SLT ISZERO PUSH2 0x248B JUMPI PUSH1 0x0 DUP1 REVERT JUMPDEST PUSH2 0x2494 DUP4 PUSH2 0x2460 JUMP JUMPDEST SWAP2 POP PUSH1 0x20 DUP4 ADD CALLDATALOAD PUSH1 0x4 DUP2 LT PUSH2 0x24A8 JUMPI PUSH1 0x0 DUP1 REVERT JUMPDEST DUP1 SWAP2 POP POP SWAP3 POP SWAP3 SWAP1 POP JUMP JUMPDEST PUSH4 0x4E487B71 PUSH1 0xE0 SHL PUSH1 0x0 MSTORE PUSH1 0x41 PUSH1 0x4 MSTORE PUSH1 0x24 PUSH1 0x0 REVERT JUMPDEST PUSH1 0x40 DUP1 MLOAD SWAP1 DUP2 ADD PUSH1 0x1 PUSH1 0x1 PUSH1 0x40 SHL SUB DUP2 GT DUP3 DUP3 LT OR ISZERO PUSH2 0x24EB JUMPI PUSH2 0x24EB PUSH2 0x24B3 JUMP JUMPDEST PUSH1 0x40 MSTORE SWAP1 JUMP JUMPDEST PUSH1 0x40 MLOAD PUSH1 0x60 DUP2 ADD PUSH1 0x1 PUSH1 0x1 PUSH1 0x40 SHL SUB DUP2 GT DUP3 DUP3 LT OR ISZERO PUSH2 0x24EB JUMPI PUSH2 0x24EB PUSH2 0x24B3 JUMP JUMPDEST PUSH1 0x40 MLOAD PUSH1 0x1F DUP3 ADD PUSH1 0x1F NOT AND DUP2 ADD PUSH1 0x1 PUSH1 0x1 PUSH1 0x40 SHL SUB DUP2 GT DUP3 DUP3 LT OR ISZERO PUSH2 0x253B JUMPI PUSH2 0x253B PUSH2 0x24B3 JUMP JUMPDEST PUSH1 0x40 MSTORE SWAP2 SWAP1 POP JUMP JUMPDEST PUSH1 0xFF DUP2 AND DUP2 EQ PUSH2 0x2552 JUMPI PUSH1 0x0 DUP1 REVERT JUMPDEST POP JUMP JUMPDEST PUSH1 0x1 PUSH1 0x1 PUSH1 0xA0 SHL SUB DUP2 AND DUP2 EQ PUSH2 0x2552 JUMPI PUSH1 0x0 DUP1 REVERT JUMPDEST PUSH1 0x0 PUSH1 0x60 DUP3 DUP5 SUB SLT ISZERO PUSH2 0x257C JUMPI PUSH1 0x0 DUP1 REVERT JUMPDEST PUSH1 0x40 MLOAD PUSH1 0x60 DUP2 ADD DUP2 DUP2 LT PUSH1 0x1 PUSH1 0x1 PUSH1 0x40 SHL SUB DUP3 GT OR ISZERO PUSH2 0x259E JUMPI PUSH2 0x259E PUSH2 0x24B3 JUMP JUMPDEST PUSH1 0x40 MSTORE DUP3 CALLDATALOAD PUSH2 0x25AC DUP2 PUSH2 0x2543 JUMP JUMPDEST DUP2 MSTORE PUSH1 0x20 DUP4 DUP2 ADD CALLDATALOAD SWAP1 DUP3 ADD MSTORE PUSH1 0x40 DUP4 ADD CALLDATALOAD PUSH2 0x25C6 DUP2 PUSH2 0x2555 JUMP JUMPDEST PUSH1 0x40 DUP3 ADD MSTORE SWAP4 SWAP3 POP POP POP JUMP JUMPDEST PUSH1 0x0 PUSH1 0x20 DUP3 DUP5 SUB SLT ISZERO PUSH2 0x25E4 JUMPI PUSH1 0x0 DUP1 REVERT JUMPDEST PUSH2 0x19B8 DUP3 PUSH2 0x2460 JUMP JUMPDEST PUSH1 0x0 DUP2 MLOAD DUP1 DUP5 MSTORE PUSH1 0x20 DUP1 DUP6 ADD SWAP5 POP DUP1 DUP5 ADD PUSH1 0x0 JUMPDEST DUP4 DUP2 LT ISZERO PUSH2 0x2634 JUMPI DUP2 MLOAD DUP1 MLOAD PUSH1 0x1 PUSH1 0x1 PUSH1 0xA0 SHL SUB AND DUP9 MSTORE PUSH1 0x20 SWAP1 DUP2 ADD MLOAD SWAP1 DUP9 ADD MSTORE PUSH1 0x40 DUP8 ADD SWAP7 POP SWAP1 DUP3 ADD SWAP1 PUSH1 0x1 ADD PUSH2 0x2601 JUMP JUMPDEST POP SWAP5 SWAP6 SWAP5 POP POP POP POP POP JUMP JUMPDEST PUSH1 0x20 DUP2 MSTORE PUSH1 0x0 DUP3 MLOAD PUSH1 0x60 PUSH1 0x20 DUP5 ADD MSTORE PUSH2 0x265B PUSH1 0x80 DUP5 ADD DUP3 PUSH2 0x25ED JUMP JUMPDEST SWAP1 POP PUSH1 0x20 DUP5 ADD MLOAD PUSH1 0x1F NOT DUP1 DUP6 DUP5 SUB ADD PUSH1 0x40 DUP7 ADD MSTORE PUSH2 0x2679 DUP4 DUP4 PUSH2 0x25ED JUMP JUMPDEST SWAP3 POP PUSH1 0x40 DUP7 ADD MLOAD SWAP2 POP DUP1 DUP6 DUP5 SUB ADD PUSH1 0x60 DUP7 ADD MSTORE POP PUSH2 0x2697 DUP3 DUP3 PUSH2 0x25ED JUMP JUMPDEST SWAP6 SWAP5 POP POP POP POP POP JUMP JUMPDEST PUSH4 0x4E487B71 PUSH1 0xE0 SHL PUSH1 0x0 MSTORE PUSH1 0x21 PUSH1 0x4 MSTORE PUSH1 0x24 PUSH1 0x0 REVERT JUMPDEST PUSH1 0x5 DUP2 LT PUSH2 0x26C6 JUMPI PUSH2 0x26C6 PUSH2 0x26A0 JUMP JUMPDEST SWAP1 MSTORE JUMP JUMPDEST PUSH1 0x0 JUMPDEST DUP4 DUP2 LT ISZERO PUSH2 0x26E5 JUMPI DUP2 DUP2 ADD MLOAD DUP4 DUP3 ADD MSTORE PUSH1 0x20 ADD PUSH2 0x26CD JUMP JUMPDEST POP POP PUSH1 0x0 SWAP2 ADD MSTORE JUMP JUMPDEST PUSH1 0x0 DUP2 MLOAD DUP1 DUP5 MSTORE PUSH2 0x2706 DUP2 PUSH1 0x20 DUP7 ADD PUSH1 0x20 DUP7 ADD PUSH2 0x26CA JUMP JUMPDEST PUSH1 0x1F ADD PUSH1 0x1F NOT AND SWAP3 SWAP1 SWAP3 ADD PUSH1 0x20 ADD SWAP3 SWAP2 POP POP JUMP JUMPDEST PUSH1 0x0 DUP2 MLOAD DUP1 DUP5 MSTORE PUSH1 0x20 DUP1 DUP6 ADD DUP1 DUP2 SWAP7 POP DUP4 PUSH1 0x5 SHL DUP2 ADD SWAP2 POP DUP3 DUP7 ADD PUSH1 0x0 JUMPDEST DUP6 DUP2 LT ISZERO PUSH2 0x277F JUMPI DUP3 DUP5 SUB DUP10 MSTORE DUP2 MLOAD DUP1 MLOAD PUSH1 0x1 PUSH1 0x1 PUSH1 0xA0 SHL SUB AND DUP6 MSTORE DUP6 ADD MLOAD PUSH1 0x40 DUP7 DUP7 ADD DUP2 SWAP1 MSTORE PUSH2 0x276B DUP2 DUP8 ADD DUP4 PUSH2 0x26EE JUMP JUMPDEST SWAP11 DUP8 ADD SWAP11 SWAP6 POP POP POP SWAP1 DUP5 ADD SWAP1 PUSH1 0x1 ADD PUSH2 0x2738 JUMP JUMPDEST POP SWAP2 SWAP8 SWAP7 POP POP POP POP POP POP POP JUMP JUMPDEST PUSH1 0x0 PUSH1 0x20 DUP1 DUP4 ADD DUP2 DUP5 MSTORE DUP1 DUP6 MLOAD DUP1 DUP4 MSTORE PUSH1 0x40 SWAP3 POP DUP3 DUP7 ADD SWAP2 POP DUP3 DUP2 PUSH1 0x5 SHL DUP8 ADD ADD DUP5 DUP9 ADD PUSH1 0x0 JUMPDEST DUP4 DUP2 LT ISZERO PUSH2 0x286A JUMPI PUSH1 0x3F NOT DUP10 DUP5 SUB ADD DUP6 MSTORE DUP2 MLOAD DUP1 MLOAD PUSH1 0x1 PUSH1 0x1 PUSH1 0x40 SHL SUB SWAP1 DUP2 AND DUP6 MSTORE DUP9 DUP3 ADD MLOAD DUP2 AND DUP10 DUP7 ADD MSTORE DUP8 DUP3 ADD MLOAD DUP2 AND DUP9 DUP7 ADD MSTORE PUSH1 0x60 DUP1 DUP4 ADD MLOAD DUP3 AND SWAP1 DUP7 ADD MSTORE PUSH1 0x80 DUP1 DUP4 ADD MLOAD SWAP1 SWAP2 AND SWAP1 DUP6 ADD MSTORE PUSH1 0xA0 DUP1 DUP3 ADD MLOAD PUSH3 0xFFFFFF AND SWAP1 DUP6 ADD MSTORE PUSH1 0xC0 DUP1 DUP3 ADD MLOAD PUSH1 0x1 PUSH1 0x1 PUSH1 0xA0 SHL SUB AND SWAP1 DUP6 ADD MSTORE PUSH1 0xE0 DUP1 DUP3 ADD MLOAD PUSH2 0x120 SWAP2 SWAP1 PUSH2 0x283B DUP3 DUP9 ADD DUP3 PUSH2 0x26B6 JUMP JUMPDEST POP POP PUSH2 0x100 SWAP2 DUP3 ADD MLOAD SWAP2 DUP6 ADD DUP2 SWAP1 MSTORE PUSH2 0x2856 DUP6 DUP3 ADD DUP4 PUSH2 0x271A JUMP JUMPDEST SWAP7 DUP10 ADD SWAP7 SWAP5 POP POP POP SWAP1 DUP7 ADD SWAP1 PUSH1 0x1 ADD PUSH2 0x27B3 JUMP JUMPDEST POP SWAP1 SWAP9 SWAP8 POP POP POP POP POP POP POP POP JUMP JUMPDEST PUSH1 0x0 DUP1 PUSH1 0x20 DUP4 DUP6 SUB SLT ISZERO PUSH2 0x288B JUMPI PUSH1 0x0 DUP1 REVERT JUMPDEST DUP3 CALLDATALOAD PUSH1 0x1 PUSH1 0x1 PUSH1 0x40 SHL SUB DUP1 DUP3 GT ISZERO PUSH2 0x28A2 JUMPI PUSH1 0x0 DUP1 REVERT JUMPDEST DUP2 DUP6 ADD SWAP2 POP DUP6 PUSH1 0x1F DUP4 ADD SLT PUSH2 0x28B6 JUMPI PUSH1 0x0 DUP1 REVERT JUMPDEST DUP2 CALLDATALOAD DUP2 DUP2 GT ISZERO PUSH2 0x28C5 JUMPI PUSH1 0x0 DUP1 REVERT JUMPDEST DUP7 PUSH1 0x20 DUP3 PUSH1 0x5 SHL DUP6 ADD ADD GT ISZERO PUSH2 0x28DA JUMPI PUSH1 0x0 DUP1 REVERT JUMPDEST PUSH1 0x20 SWAP3 SWAP1 SWAP3 ADD SWAP7 SWAP2 SWAP6 POP SWAP1 SWAP4 POP POP POP POP JUMP JUMPDEST PUSH1 0x0 DUP1 PUSH1 0x40 DUP4 DUP6 SUB SLT ISZERO PUSH2 0x28FF JUMPI PUSH1 0x0 DUP1 REVERT JUMPDEST DUP3 CALLDATALOAD PUSH2 0x290A DUP2 PUSH2 0x2555 JUMP JUMPDEST SWAP2 POP PUSH2 0x2918 PUSH1 0x20 DUP5 ADD PUSH2 0x2460 JUMP JUMPDEST SWAP1 POP SWAP3 POP SWAP3 SWAP1 POP JUMP JUMPDEST PUSH1 0x4 DUP2 LT PUSH2 0x2552 JUMPI PUSH2 0x2552 PUSH2 0x26A0 JUMP JUMPDEST PUSH1 0x20 DUP2 ADD PUSH2 0x293E DUP4 PUSH2 0x2921 JUMP JUMPDEST SWAP2 SWAP1 MSTORE SWAP1 JUMP JUMPDEST PUSH1 0x20 DUP1 DUP3 MSTORE PUSH1 0x17 SWAP1 DUP3 ADD MSTORE PUSH32 0x70726F706F73616C20646F6573206E6F74206578697374000000000000000000 PUSH1 0x40 DUP3 ADD MSTORE PUSH1 0x60 ADD SWAP1 JUMP JUMPDEST PUSH1 0x0 PUSH1 0x60 DUP3 ADD PUSH1 0x1 DUP1 PUSH1 0xA0 SHL SUB DUP1 DUP8 AND DUP5 MSTORE PUSH1 0x20 PUSH1 0x1 PUSH1 0x1 PUSH1 0x40 SHL SUB DUP8 AND DUP2 DUP7 ADD MSTORE PUSH1 0x60 PUSH1 0x40 DUP7 ADD MSTORE DUP3 DUP7 MLOAD DUP1 DUP6 MSTORE PUSH1 0x80 DUP8 ADD SWAP2 POP DUP3 DUP9 ADD SWAP5 POP PUSH1 0x0 JUMPDEST DUP2 DUP2 LT ISZERO PUSH2 0x29D6 JUMPI DUP6 MLOAD DUP6 AND DUP4 MSTORE SWAP5 DUP4 ADD SWAP5 SWAP2 DUP4 ADD SWAP2 PUSH1 0x1 ADD PUSH2 0x29B8 JUMP JUMPDEST POP SWAP1 SWAP10 SWAP9 POP POP POP POP POP POP POP POP POP JUMP JUMPDEST PUSH1 0x0 PUSH1 0x1 PUSH1 0x1 PUSH1 0x40 SHL SUB DUP3 GT ISZERO PUSH2 0x29FE JUMPI PUSH2 0x29FE PUSH2 0x24B3 JUMP JUMPDEST POP PUSH1 0x5 SHL PUSH1 0x20 ADD SWAP1 JUMP JUMPDEST PUSH1 0x0 PUSH1 0x20 DUP1 DUP4 DUP6 SUB SLT ISZERO PUSH2 0x2A1B JUMPI PUSH1 0x0 DUP1 REVERT JUMPDEST DUP3 MLOAD PUSH1 0x1 PUSH1 0x1 PUSH1 0x40 SHL SUB DUP2 GT ISZERO PUSH2 0x2A31 JUMPI PUSH1 0x0 DUP1 REVERT JUMPDEST DUP4 ADD PUSH1 0x1F DUP2 ADD DUP6 SGT PUSH2 0x2A42 JUMPI PUSH1 0x0 DUP1 REVERT JUMPDEST DUP1 MLOAD PUSH2 0x2A55 PUSH2 0x2A50 DUP3 PUSH2 0x29E5 JUMP JUMPDEST PUSH2 0x2513 JUMP JUMPDEST DUP2 DUP2 MSTORE PUSH1 0x6 SWAP2 SWAP1 SWAP2 SHL DUP3 ADD DUP4 ADD SWAP1 DUP4 DUP2 ADD SWAP1 DUP8 DUP4 GT ISZERO PUSH2 0x2A74 JUMPI PUSH1 0x0 DUP1 REVERT JUMPDEST SWAP3 DUP5 ADD SWAP3 JUMPDEST DUP3 DUP5 LT ISZERO PUSH2 0x20DB JUMPI PUSH1 0x40 DUP5 DUP10 SUB SLT ISZERO PUSH2 0x2A92 JUMPI PUSH1 0x0 DUP1 DUP2 REVERT JUMPDEST PUSH2 0x2A9A PUSH2 0x24C9 JUMP JUMPDEST DUP5 MLOAD PUSH2 0x2AA5 DUP2 PUSH2 0x2555 JUMP JUMPDEST DUP2 MSTORE DUP5 DUP7 ADD MLOAD DUP7 DUP3 ADD MSTORE DUP3 MSTORE PUSH1 0x40 SWAP1 SWAP4 ADD SWAP3 SWAP1 DUP5 ADD SWAP1 PUSH2 0x2A79 JUMP JUMPDEST PUSH4 0x4E487B71 PUSH1 0xE0 SHL PUSH1 0x0 MSTORE PUSH1 0x32 PUSH1 0x4 MSTORE PUSH1 0x24 PUSH1 0x0 REVERT JUMPDEST PUSH4 0x4E487B71 PUSH1 0xE0 SHL PUSH1 0x0 MSTORE PUSH1 0x11 PUSH1 0x4 MSTORE PUSH1 0x24 PUSH1 0x0 REVERT JUMPDEST DUP2 DUP2 SUB DUP2 DUP2 GT ISZERO PUSH2 0x95B JUMPI PUSH2 0x95B PUSH2 0x2AD6 JUMP JUMPDEST DUP1 DUP3 ADD DUP1 DUP3 GT ISZERO PUSH2 0x95B JUMPI PUSH2 0x95B PUSH2 0x2AD6 JUMP JUMPDEST PUSH1 0x0 PUSH1 0x1 DUP3 ADD PUSH2 0x2B24 JUMPI PUSH2 0x2B24 PUSH2 0x2AD6 JUMP JUMPDEST POP PUSH1 0x1 ADD SWAP1 JUMP JUMPDEST PUSH1 0x1 PUSH1 0x1 PUSH1 0xA0 SHL SUB DUP4 AND DUP2 MSTORE PUSH1 0x40 DUP2 ADD PUSH2 0x2B44 DUP4 PUSH2 0x2921 JUMP JUMPDEST DUP3 PUSH1 0x20 DUP4 ADD MSTORE SWAP4 SWAP3 POP POP POP JUMP JUMPDEST PUSH1 0x1 DUP2 DUP2 SHR SWAP1 DUP3 AND DUP1 PUSH2 0x2B65 JUMPI PUSH1 0x7F DUP3 AND SWAP2 POP JUMPDEST PUSH1 0x20 DUP3 LT DUP2 SUB PUSH2 0x2B85 JUMPI PUSH4 0x4E487B71 PUSH1 0xE0 SHL PUSH1 0x0 MSTORE PUSH1 0x22 PUSH1 0x4 MSTORE PUSH1 0x24 PUSH1 0x0 REVERT JUMPDEST POP SWAP2 SWAP1 POP JUMP JUMPDEST PUSH1 0x0 DUP3 CALLDATALOAD PUSH1 0x3E NOT DUP4 CALLDATASIZE SUB ADD DUP2 SLT PUSH2 0x2BA1 JUMPI PUSH1 0x0 DUP1 REVERT JUMPDEST SWAP2 SWAP1 SWAP2 ADD SWAP3 SWAP2 POP POP JUMP JUMPDEST PUSH1 0x0 PUSH1 0x40 DUP3 CALLDATASIZE SUB SLT ISZERO PUSH2 0x2BBD JUMPI PUSH1 0x0 DUP1 REVERT JUMPDEST PUSH2 0x2BC5 PUSH2 0x24C9 JUMP JUMPDEST DUP3 CALLDATALOAD PUSH2 0x2BD0 DUP2 PUSH2 0x2555 JUMP JUMPDEST DUP2 MSTORE PUSH1 0x20 DUP4 DUP2 ADD CALLDATALOAD PUSH1 0x1 PUSH1 0x1 PUSH1 0x40 SHL SUB DUP1 DUP3 GT ISZERO PUSH2 0x2BED JUMPI PUSH1 0x0 DUP1 REVERT JUMPDEST SWAP1 DUP6 ADD SWAP1 CALLDATASIZE PUSH1 0x1F DUP4 ADD SLT PUSH2 0x2C00 JUMPI PUSH1 0x0 DUP1 REVERT JUMPDEST DUP2 CALLDATALOAD DUP2 DUP2 GT ISZERO PUSH2 0x2C12 JUMPI PUSH2 0x2C12 PUSH2 0x24B3 JUMP JUMPDEST PUSH2 0x2C24 PUSH1 0x1F DUP3 ADD PUSH1 0x1F NOT AND DUP6 ADD PUSH2 0x2513 JUMP JUMPDEST SWAP2 POP DUP1 DUP3 MSTORE CALLDATASIZE DUP5 DUP3 DUP6 ADD ADD GT ISZERO PUSH2 0x2C3A JUMPI PUSH1 0x0 DUP1 REVERT JUMPDEST DUP1 DUP5 DUP5 ADD DUP6 DUP5 ADD CALLDATACOPY PUSH1 0x0 SWAP1 DUP3 ADD DUP5 ADD MSTORE SWAP2 DUP4 ADD SWAP2 SWAP1 SWAP2 MSTORE POP SWAP3 SWAP2 POP POP JUMP JUMPDEST PUSH1 0x1 PUSH1 0x1 PUSH1 0xA0 SHL SUB DUP4 AND DUP2 MSTORE PUSH1 0x40 PUSH1 0x20 DUP3 ADD DUP2 SWAP1 MSTORE PUSH1 0x0 SWAP1 PUSH2 0x18FF SWAP1 DUP4 ADD DUP5 PUSH2 0x26EE JUMP JUMPDEST DUP1 MLOAD PUSH1 0x1 PUSH1 0x1 PUSH1 0x40 SHL SUB DUP2 AND DUP2 EQ PUSH2 0x2473 JUMPI PUSH1 0x0 DUP1 REVERT JUMPDEST DUP1 MLOAD PUSH4 0xFFFFFFFF DUP2 AND DUP2 EQ PUSH2 0x2473 JUMPI PUSH1 0x0 DUP1 REVERT JUMPDEST PUSH1 0x0 PUSH1 0xC0 DUP3 DUP5 SUB SLT ISZERO PUSH2 0x2CB9 JUMPI PUSH1 0x0 DUP1 REVERT JUMPDEST PUSH1 0x40 MLOAD PUSH1 0xC0 DUP2 ADD DUP2 DUP2 LT PUSH1 0x1 PUSH1 0x1 PUSH1 0x40 SHL SUB DUP3 GT OR ISZERO PUSH2 0x2CDB JUMPI PUSH2 0x2CDB PUSH2 0x24B3 JUMP JUMPDEST PUSH1 0x40 MSTORE PUSH2 0x2CE7 DUP4 PUSH2 0x2C7C JUMP JUMPDEST DUP2 MSTORE PUSH2 0x2CF5 PUSH1 0x20 DUP5 ADD PUSH2 0x2C7C JUMP JUMPDEST PUSH1 0x20 DUP3 ADD MSTORE PUSH2 0x2D06 PUSH1 0x40 DUP5 ADD PUSH2 0x2C7C JUMP JUMPDEST PUSH1 0x40 DUP3 ADD MSTORE PUSH2 0x2D17 PUSH1 0x60 DUP5 ADD PUSH2 0x2C93 JUMP JUMPDEST PUSH1 0x60 DUP3 ADD MSTORE PUSH2 0x2D28 PUSH1 0x80 DUP5 ADD PUSH2 0x2C93 JUMP JUMPDEST PUSH1 0x80 DUP3 ADD MSTORE PUSH1 0xA0 DUP4 ADD MLOAD PUSH2 0x2D3B DUP2 PUSH2 0x2543 JUMP JUMPDEST PUSH1 0xA0 DUP3 ADD MSTORE SWAP4 SWAP3 POP POP POP JUMP JUMPDEST PUSH1 0x0 PUSH1 0x20 DUP3 DUP5 SUB SLT ISZERO PUSH2 0x2D59 JUMPI PUSH1 0x0 DUP1 REVERT JUMPDEST DUP2 CALLDATALOAD PUSH2 0x19B8 DUP2 PUSH2 0x2555 JUMP JUMPDEST PUSH1 0x0 DUP1 DUP4 CALLDATALOAD PUSH1 0x1E NOT DUP5 CALLDATASIZE SUB ADD DUP2 SLT PUSH2 0x2D7B JUMPI PUSH1 0x0 DUP1 REVERT JUMPDEST DUP4 ADD DUP1 CALLDATALOAD SWAP2 POP PUSH1 0x1 PUSH1 0x1 PUSH1 0x40 SHL SUB DUP3 GT ISZERO PUSH2 0x2D95 JUMPI PUSH1 0x0 DUP1 REVERT JUMPDEST PUSH1 0x20 ADD SWAP2 POP CALLDATASIZE DUP2 SWAP1 SUB DUP3 SGT ISZERO PUSH2 0x18E2 JUMPI PUSH1 0x0 DUP1 REVERT JUMPDEST DUP2 DUP4 MSTORE DUP2 DUP2 PUSH1 0x20 DUP6 ADD CALLDATACOPY POP PUSH1 0x0 DUP3 DUP3 ADD PUSH1 0x20 SWAP1 DUP2 ADD SWAP2 SWAP1 SWAP2 MSTORE PUSH1 0x1F SWAP1 SWAP2 ADD PUSH1 0x1F NOT AND SWAP1 SWAP2 ADD ADD SWAP1 JUMP JUMPDEST PUSH1 0x1 PUSH1 0x1 PUSH1 0xA0 SHL SUB DUP5 AND DUP2 MSTORE PUSH1 0x40 PUSH1 0x20 DUP3 ADD DUP2 SWAP1 MSTORE PUSH1 0x0 SWAP1 PUSH2 0x2697 SWAP1 DUP4 ADD DUP5 DUP7 PUSH2 0x2DAA JUMP JUMPDEST PUSH1 0x0 PUSH1 0x20 DUP3 DUP5 SUB SLT ISZERO PUSH2 0x2E0A JUMPI PUSH1 0x0 DUP1 REVERT JUMPDEST POP MLOAD SWAP2 SWAP1 POP JUMP JUMPDEST PUSH1 0x20 DUP2 MSTORE PUSH1 0x0 PUSH2 0x19B8 PUSH1 0x20 DUP4 ADD DUP5 PUSH2 0x26EE JUMP JUMPDEST PUSH1 0x20 DUP1 DUP3 MSTORE DUP3 MLOAD DUP3 DUP3 ADD DUP2 SWAP1 MSTORE PUSH1 0x0 SWAP2 SWAP1 DUP5 DUP3 ADD SWAP1 PUSH1 0x40 DUP6 ADD SWAP1 DUP5 JUMPDEST DUP2 DUP2 LT ISZERO PUSH2 0x2E73 JUMPI DUP4 MLOAD DUP1 MLOAD PUSH1 0x1 PUSH1 0x1 PUSH1 0xA0 SHL SUB AND DUP5 MSTORE PUSH1 0x20 SWAP1 DUP2 ADD MLOAD SWAP1 DUP5 ADD MSTORE PUSH1 0x40 DUP4 ADD SWAP4 DUP6 ADD SWAP4 SWAP3 POP PUSH1 0x1 ADD PUSH2 0x2E40 JUMP JUMPDEST POP SWAP1 SWAP7 SWAP6 POP POP POP POP POP POP JUMP JUMPDEST PUSH1 0x1 PUSH1 0x1 PUSH1 0x40 SHL SUB DUP2 DUP2 AND DUP4 DUP3 AND ADD SWAP1 DUP1 DUP3 GT ISZERO PUSH2 0x2004 JUMPI PUSH2 0x2004 PUSH2 0x2AD6 JUMP JUMPDEST PUSH1 0x1F DUP3 GT ISZERO PUSH2 0x1E9D JUMPI PUSH1 0x0 DUP2 DUP2 MSTORE PUSH1 0x20 DUP2 KECCAK256 PUSH1 0x1F DUP6 ADD PUSH1 0x5 SHR DUP2 ADD PUSH1 0x20 DUP7 LT ISZERO PUSH2 0x2EC6 JUMPI POP DUP1 JUMPDEST PUSH1 0x1F DUP6 ADD PUSH1 0x5 SHR DUP3 ADD SWAP2 POP JUMPDEST DUP2 DUP2 LT ISZERO PUSH2 0x2EE5 JUMPI DUP3 DUP2 SSTORE PUSH1 0x1 ADD PUSH2 0x2ED2 JUMP JUMPDEST POP POP POP POP POP POP JUMP JUMPDEST DUP2 CALLDATALOAD PUSH2 0x2EF8 DUP2 PUSH2 0x2555 JUMP JUMPDEST DUP2 SLOAD PUSH1 0x1 PUSH1 0x1 PUSH1 0xA0 SHL SUB NOT AND PUSH1 0x1 PUSH1 0x1 PUSH1 0xA0 SHL SUB SWAP2 SWAP1 SWAP2 AND OR DUP2 SSTORE PUSH1 0x1 DUP2 DUP2 ADD PUSH1 0x20 DUP5 DUP2 ADD CALLDATALOAD CALLDATASIZE DUP7 SWAP1 SUB PUSH1 0x1E NOT ADD DUP2 SLT PUSH2 0x2F31 JUMPI PUSH1 0x0 DUP1 REVERT JUMPDEST DUP6 ADD DUP1 CALLDATALOAD PUSH1 0x1 PUSH1 0x1 PUSH1 0x40 SHL SUB DUP2 GT ISZERO PUSH2 0x2F49 JUMPI PUSH1 0x0 DUP1 REVERT JUMPDEST DUP1 CALLDATASIZE SUB DUP4 DUP4 ADD SGT ISZERO PUSH2 0x2F5A JUMPI PUSH1 0x0 DUP1 REVERT JUMPDEST PUSH2 0x2F6E DUP2 PUSH2 0x2F68 DUP7 SLOAD PUSH2 0x2B51 JUMP JUMPDEST DUP7 PUSH2 0x2E9F JUMP JUMPDEST PUSH1 0x0 PUSH1 0x1F DUP3 GT PUSH1 0x1 DUP2 EQ PUSH2 0x2FA4 JUMPI PUSH1 0x0 DUP4 ISZERO PUSH2 0x2F8C JUMPI POP DUP4 DUP3 ADD DUP6 ADD CALLDATALOAD JUMPDEST PUSH1 0x0 NOT PUSH1 0x3 DUP6 SWAP1 SHL SHR NOT AND PUSH1 0x1 DUP5 SWAP1 SHL OR DUP7 SSTORE PUSH2 0x2FFD JUMP JUMPDEST PUSH1 0x0 DUP7 DUP2 MSTORE PUSH1 0x20 SWAP1 KECCAK256 PUSH1 0x1F NOT DUP5 AND SWAP1 DUP4 JUMPDEST DUP3 DUP2 LT ISZERO PUSH2 0x2FD4 JUMPI DUP7 DUP6 ADD DUP9 ADD CALLDATALOAD DUP3 SSTORE SWAP4 DUP8 ADD SWAP4 SWAP1 DUP10 ADD SWAP1 DUP8 ADD PUSH2 0x2FB5 JUMP JUMPDEST POP DUP5 DUP3 LT ISZERO PUSH2 0x2FF3 JUMPI PUSH1 0x0 NOT PUSH1 0xF8 DUP7 PUSH1 0x3 SHL AND SHR NOT DUP8 DUP6 DUP9 ADD ADD CALLDATALOAD AND DUP2 SSTORE JUMPDEST POP POP DUP7 DUP4 DUP9 SHL ADD DUP7 SSTORE JUMPDEST POP POP POP POP POP POP POP POP POP JUMP JUMPDEST PUSH1 0x0 PUSH1 0x20 DUP1 DUP4 DUP6 SUB SLT ISZERO PUSH2 0x301B JUMPI PUSH1 0x0 DUP1 REVERT JUMPDEST DUP3 MLOAD PUSH1 0x1 PUSH1 0x1 PUSH1 0x40 SHL SUB DUP2 GT ISZERO PUSH2 0x3031 JUMPI PUSH1 0x0 DUP1 REVERT JUMPDEST DUP4 ADD PUSH1 0x1F DUP2 ADD DUP6 SGT PUSH2 0x3042 JUMPI PUSH1 0x0 DUP1 REVERT JUMPDEST DUP1 MLOAD PUSH2 0x3050 PUSH2 0x2A50 DUP3 PUSH2 0x29E5 JUMP JUMPDEST DUP2 DUP2 MSTORE PUSH1 0x60 SWAP2 DUP3 MUL DUP4 ADD DUP5 ADD SWAP2 DUP5 DUP3 ADD SWAP2 SWAP1 DUP9 DUP5 GT ISZERO PUSH2 0x306F JUMPI PUSH1 0x0 DUP1 REVERT JUMPDEST SWAP4 DUP6 ADD SWAP4 JUMPDEST DUP4 DUP6 LT ISZERO PUSH2 0x30C2 JUMPI DUP1 DUP6 DUP11 SUB SLT ISZERO PUSH2 0x308C JUMPI PUSH1 0x0 DUP1 DUP2 REVERT JUMPDEST PUSH2 0x3094 PUSH2 0x24F1 JUMP JUMPDEST DUP6 MLOAD PUSH2 0x309F DUP2 PUSH2 0x2555 JUMP JUMPDEST DUP2 MSTORE DUP6 DUP8 ADD MLOAD DUP8 DUP3 ADD MSTORE PUSH1 0x40 DUP1 DUP8 ADD MLOAD SWAP1 DUP3 ADD MSTORE DUP4 MSTORE SWAP4 DUP5 ADD SWAP4 SWAP2 DUP6 ADD SWAP2 PUSH2 0x3074 JUMP JUMPDEST POP SWAP8 SWAP7 POP POP POP POP POP POP POP JUMP JUMPDEST PUSH3 0xFFFFFF DUP2 DUP2 AND DUP4 DUP3 AND ADD SWAP1 DUP1 DUP3 GT ISZERO PUSH2 0x2004 JUMPI PUSH2 0x2004 PUSH2 0x2AD6 JUMP JUMPDEST PUSH1 0x1 PUSH1 0x1 PUSH1 0xA0 SHL SUB DUP5 DUP2 AND DUP3 MSTORE PUSH1 0x40 PUSH1 0x20 DUP1 DUP5 ADD DUP3 SWAP1 MSTORE DUP2 DUP5 ADD DUP6 SWAP1 MSTORE PUSH1 0x0 SWAP3 PUSH1 0x60 PUSH1 0x5 DUP8 SWAP1 SHL DUP7 ADD DUP2 ADD SWAP3 SWAP1 DUP7 ADD DUP9 DUP7 JUMPDEST DUP10 DUP2 LT ISZERO PUSH2 0x31B9 JUMPI DUP9 DUP7 SUB PUSH1 0x5F NOT ADD DUP4 MSTORE DUP2 CALLDATALOAD CALLDATASIZE DUP13 SWAP1 SUB PUSH1 0x3E NOT ADD DUP2 SLT PUSH2 0x3142 JUMPI PUSH1 0x0 DUP1 REVERT JUMPDEST DUP12 ADD DUP1 CALLDATALOAD PUSH2 0x314F DUP2 PUSH2 0x2555 JUMP JUMPDEST DUP7 AND DUP8 MSTORE DUP1 DUP6 ADD CALLDATALOAD CALLDATASIZE DUP3 SWAP1 SUB PUSH1 0x1E NOT ADD DUP2 SLT PUSH2 0x316A JUMPI PUSH1 0x0 DUP1 REVERT JUMPDEST ADD DUP5 DUP2 ADD SWAP1 CALLDATALOAD PUSH1 0x1 PUSH1 0x1 PUSH1 0x40 SHL SUB DUP2 GT ISZERO PUSH2 0x3184 JUMPI PUSH1 0x0 DUP1 REVERT JUMPDEST DUP1 CALLDATASIZE SUB DUP3 SGT ISZERO PUSH2 0x3193 JUMPI PUSH1 0x0 DUP1 REVERT JUMPDEST DUP9 DUP7 DUP10 ADD MSTORE PUSH2 0x31A5 DUP10 DUP10 ADD DUP3 DUP5 PUSH2 0x2DAA JUMP JUMPDEST SWAP8 POP POP POP SWAP2 DUP4 ADD SWAP2 SWAP1 DUP4 ADD SWAP1 PUSH1 0x1 ADD PUSH2 0x311C JUMP JUMPDEST POP SWAP4 SWAP11 SWAP10 POP POP POP POP POP POP POP POP POP POP JUMP JUMPDEST PUSH1 0x40 DUP2 ADD PUSH2 0x31D7 DUP3 DUP6 PUSH2 0x26B6 JUMP JUMPDEST PUSH2 0x2B44 DUP4 PUSH2 0x2921 JUMP JUMPDEST DUP1 DUP3 MUL DUP2 ISZERO DUP3 DUP3 DIV DUP5 EQ OR PUSH2 0x95B JUMPI PUSH2 0x95B PUSH2 0x2AD6 JUMP JUMPDEST PUSH1 0x0 DUP3 PUSH2 0x3214 JUMPI PUSH4 0x4E487B71 PUSH1 0xE0 SHL PUSH1 0x0 MSTORE PUSH1 0x12 PUSH1 0x4 MSTORE PUSH1 0x24 PUSH1 0x0 REVERT JUMPDEST POP DIV SWAP1 JUMP JUMPDEST PUSH1 0x0 DUP3 MLOAD PUSH2 0x2BA1 DUP2 DUP5 PUSH1 0x20 DUP8 ADD PUSH2 0x26CA JUMP JUMPDEST PUSH4 0x4E487B71 PUSH1 0xE0 SHL PUSH1 0x0 MSTORE PUSH1 0x31 PUSH1 0x4 MSTORE PUSH1 0x24 PUSH1 0x0 REVERT INVALID LOG2 PUSH5 0x6970667358 0x22 SLT KECCAK256 0x2A SDIV 0xAE 0xAE SWAP14 0xB3 PUSH30 0x6230FB9C5D41A6CAF27BD1673891A08F73C2CF7DC0247639E464736F6C63 NUMBER STOP ADDMOD GT STOP CALLER ","sha1":"a3bd0d6c50ac92072752e4bb76bab1353b4cff3c","source":"// SPDX-License-Identifier: Unlicensed\npragma solidity ^0.8.17;\n\nimport \"@openzeppelin/contracts/utils/Address.sol\";\nimport \"@openzeppelin/contracts/utils/structs/EnumerableSet.sol\";\nimport \"@openzeppelin/contracts/utils/structs/EnumerableMap.sol\";\nimport \"@openzeppelin/contracts/proxy/utils/Initializable.sol\";\n\nimport \"../libraries/DataTypes.sol\";\nimport \"../libraries/ScaledMath.sol\";\nimport \"../libraries/VaultsSnapshot.sol\";\nimport \"../libraries/Errors.sol\";\n\nimport \"../interfaces/IVault.sol\";\nimport \"../interfaces/IVotingPowerAggregator.sol\";\nimport \"../interfaces/ITierer.sol\";\nimport \"../interfaces/ITierStrategy.sol\";\nimport \"../interfaces/IWrappedERC20WithEMA.sol\";\n\ncontract GovernanceManager is Initializable {\n    using Address for address;\n    using ScaledMath for uint256;\n    using EnumerableSet for EnumerableSet.UintSet;\n    using EnumerableMap for EnumerableMap.AddressToUintMap;\n    using VaultsSnapshot for DataTypes.VaultSnapshot[];\n\n    IVotingPowerAggregator public immutable votingPowerAggregator;\n    ITierer public immutable tierer;\n    IWrappedERC20WithEMA public immutable wGYD;\n    DataTypes.LimitUpgradeabilityParameters public limitUpgradeabilityParams;\n\n    uint24 public proposalsCount;\n\n    EnumerableSet.UintSet internal _activeProposals;\n    EnumerableSet.UintSet internal _timelockedProposals;\n    mapping(uint24 => DataTypes.Proposal) internal _proposals;\n    mapping(uint24 => DataTypes.VaultSnapshot[]) internal _vaultSnapshots;\n\n    mapping(address => mapping(uint24 => DataTypes.Vote)) internal _votes;\n    mapping(uint24 => mapping(DataTypes.Ballot => EnumerableMap.AddressToUintMap))\n        internal _totals;\n\n    modifier onlySelf() {\n        if (msg.sender != address(this))\n            revert Errors.NotAuthorized(msg.sender, address(this));\n        _;\n    }\n\n    constructor(\n        IVotingPowerAggregator _votingPowerAggregator,\n        ITierer _tierer,\n        IWrappedERC20WithEMA _wGYD\n    ) {\n        votingPowerAggregator = _votingPowerAggregator;\n        tierer = _tierer;\n        wGYD = _wGYD;\n    }\n\n    function initialize(\n        DataTypes.LimitUpgradeabilityParameters memory _params\n    ) external initializer {\n        limitUpgradeabilityParams = _params;\n    }\n\n    event ProposalCreated(\n        uint24 indexed id,\n        address proposer,\n        DataTypes.ProposalAction[] actions\n    );\n\n    function createProposal(\n        DataTypes.ProposalAction[] calldata actions\n    ) external {\n        require(actions.length > 0, \"cannot create a proposal with no actions\");\n\n        // Determine the tier associated with this proposal by taking the tier of the most impactful\n        // action, determined by the tier's actionLevel parameter.\n        DataTypes.ProposalAction memory action = actions[0];\n        DataTypes.Tier memory tier = tierer.getTier(action.target, action.data);\n        for (uint256 i = 1; i < actions.length; i++) {\n            DataTypes.Tier memory currentTier = tierer.getTier(\n                actions[i].target,\n                actions[i].data\n            );\n            if (currentTier.actionLevel > tier.actionLevel) {\n                action = actions[i];\n                tier = currentTier;\n            }\n        }\n\n        // If a sufficiently large amount of GYD is wrapped, this signifies that holders\n        // are happy with the system and are against further high-level upgrades.\n        // As a result, we should apply a higher tier if the proposed action has big impacts.\n        if (\n            wGYD.wrappedPctEMA() > limitUpgradeabilityParams.emaThreshold &&\n            tier.actionLevel > limitUpgradeabilityParams.actionLevelThreshold\n        ) {\n            tier = limitUpgradeabilityParams.tierStrategy.getTier(action.data);\n        }\n\n        DataTypes.VaultVotingPower[] memory rawPower = votingPowerAggregator\n            .getVotingPower(msg.sender, block.timestamp - 1);\n        uint256 votingPowerPct = votingPowerAggregator\n            .calculateWeightedPowerPct(rawPower);\n        require(\n            votingPowerPct > tier.proposalThreshold,\n            \"proposer doesn't have enough voting power to propose this action\"\n        );\n\n        uint64 createdAt = uint64(block.timestamp);\n        uint64 votingEndsAt = createdAt + tier.proposalLength;\n        uint64 executableAt = votingEndsAt + tier.timeLockDuration;\n\n        DataTypes.Proposal storage p = _proposals[proposalsCount];\n        p.id = proposalsCount;\n        p.proposer = msg.sender;\n        p.createdAt = createdAt;\n        p.votingEndsAt = votingEndsAt;\n        p.executableAt = executableAt;\n        p.status = DataTypes.Status.Active;\n        p.quorum = tier.quorum;\n        p.voteThreshold = tier.voteThreshold;\n\n        for (uint256 i = 0; i < actions.length; i++) {\n            p.actions.push(actions[i]);\n        }\n\n        votingPowerAggregator.createVaultsSnapshot().persist(\n            _vaultSnapshots[p.id]\n        );\n\n        proposalsCount = p.id + 1;\n        _activeProposals.add(uint256(p.id));\n\n        emit ProposalCreated(p.id, p.proposer, actions);\n    }\n\n    event VoteCast(\n        uint24 indexed proposalId,\n        address voter,\n        DataTypes.Ballot vote\n    );\n\n    function vote(uint24 proposalId, DataTypes.Ballot ballot) external {\n        DataTypes.Proposal storage proposal = _proposals[proposalId];\n        require(proposal.createdAt != 0, \"proposal does not exist\");\n\n        require(\n            proposal.votingEndsAt > uint64(block.timestamp),\n            \"voting is closed on this proposal\"\n        );\n\n        require(\n            ballot != DataTypes.Ballot.Undefined,\n            \"ballot must be cast For, Against, or Abstain\"\n        );\n\n        DataTypes.VaultSnapshot[] memory vaultSnapshots = _vaultSnapshots[\n            proposalId\n        ];\n\n        DataTypes.VaultVotingPower[] memory uvp = votingPowerAggregator\n            .getVotingPower(\n                msg.sender,\n                proposal.createdAt,\n                _vaultAddresses(vaultSnapshots)\n            );\n\n        DataTypes.Vote storage existingVote = _votes[msg.sender][proposalId];\n\n        bool isNewVote = existingVote.ballot == DataTypes.Ballot.Undefined;\n        for (uint256 i = 0; i < uvp.length; i++) {\n            DataTypes.VaultVotingPower memory vvp = uvp[i];\n\n            // cancel out the previous vote if it was cast\n            if (!isNewVote) {\n                (, uint256 prevBallotTotal) = _totals[proposalId][\n                    existingVote.ballot\n                ].tryGet(vvp.vaultAddress);\n                _totals[proposalId][existingVote.ballot].set(\n                    vvp.vaultAddress,\n                    prevBallotTotal - vvp.votingPower\n                );\n            }\n\n            (, uint256 newBallotTotal) = _totals[proposalId][ballot].tryGet(\n                vvp.vaultAddress\n            );\n            _totals[proposalId][ballot].set(\n                vvp.vaultAddress,\n                newBallotTotal + vvp.votingPower\n            );\n        }\n\n        // Then update the record of this user's vote to the latest ballot and voting power\n        existingVote.ballot = ballot;\n\n        emit VoteCast(proposalId, msg.sender, ballot);\n    }\n\n    function getVoteTotals(\n        uint24 proposalId\n    ) external view returns (DataTypes.VoteTotals memory) {\n        return _toVoteTotals(_totals[proposalId]);\n    }\n\n    function _toVoteTotals(\n        mapping(DataTypes.Ballot => EnumerableMap.AddressToUintMap)\n            storage totals\n    ) internal view returns (DataTypes.VoteTotals memory) {\n        EnumerableMap.AddressToUintMap storage forVotingPower = totals[\n            DataTypes.Ballot.For\n        ];\n        DataTypes.VaultVotingPower[] memory forTotals = _toVotingPowers(\n            forVotingPower\n        );\n\n        EnumerableMap.AddressToUintMap storage againstVotingPower = totals[\n            DataTypes.Ballot.Against\n        ];\n        DataTypes.VaultVotingPower[] memory againstTotals = _toVotingPowers(\n            againstVotingPower\n        );\n\n        EnumerableMap.AddressToUintMap storage abstentionsVotingPower = totals[\n            DataTypes.Ballot.Abstain\n        ];\n        DataTypes.VaultVotingPower[] memory abstentionsTotals = _toVotingPowers(\n            abstentionsVotingPower\n        );\n\n        return\n            DataTypes.VoteTotals({\n                _for: forTotals,\n                against: againstTotals,\n                abstentions: abstentionsTotals\n            });\n    }\n\n    event ProposalTallied(\n        uint24 indexed proposalId,\n        DataTypes.Status status,\n        DataTypes.ProposalOutcome outcome\n    );\n\n    function tallyVote(uint24 proposalId) external {\n        DataTypes.Proposal storage proposal = _proposals[proposalId];\n        require(proposal.createdAt != 0, \"proposal does not exist\");\n\n        require(\n            _activeProposals.contains(uint256(proposalId)),\n            \"proposal is not currently active\"\n        );\n\n        require(\n            uint64(block.timestamp) > proposal.votingEndsAt,\n            \"voting is ongoing for this proposal\"\n        );\n\n        (\n            uint256 forTotalPct,\n            uint256 againstTotalPct,\n            uint256 abstentionsTotalPct\n        ) = _getCurrentPercentages(proposal);\n\n        uint256 combinedPct = forTotalPct +\n            againstTotalPct +\n            abstentionsTotalPct;\n        if (combinedPct < proposal.quorum) {\n            proposal.status = DataTypes.Status.Rejected;\n            _activeProposals.remove(uint256(proposalId));\n            emit ProposalTallied(\n                proposalId,\n                proposal.status,\n                DataTypes.ProposalOutcome.QuorumNotMet\n            );\n            return;\n        }\n\n        uint256 result = 0;\n        if (forTotalPct + againstTotalPct > 0) {\n            result = forTotalPct.divDown(forTotalPct + againstTotalPct);\n        }\n        DataTypes.ProposalOutcome outcome = DataTypes.ProposalOutcome.Undefined;\n        if (result >= proposal.voteThreshold) {\n            proposal.status = DataTypes.Status.Queued;\n            outcome = DataTypes.ProposalOutcome.Successful;\n            _timelockedProposals.add(uint256(proposalId));\n        } else {\n            proposal.status = DataTypes.Status.Rejected;\n            outcome = DataTypes.ProposalOutcome.ThresholdNotMet;\n        }\n        _activeProposals.remove(uint256(proposalId));\n        emit ProposalTallied(proposalId, proposal.status, outcome);\n    }\n\n    function getCurrentPercentages(\n        uint24 proposalId\n    ) external view returns (uint256 for_, uint256 against, uint256 abstain) {\n        DataTypes.Proposal storage proposal = _proposals[proposalId];\n        require(proposal.createdAt != 0, \"proposal does not exist\");\n        return _getCurrentPercentages(proposal);\n    }\n\n    function _getCurrentPercentages(\n        DataTypes.Proposal storage proposal\n    ) internal view returns (uint256 for_, uint256 against, uint256 abstain) {\n        DataTypes.VaultSnapshot[] memory snapshot = _vaultSnapshots[\n            proposal.id\n        ];\n        mapping(DataTypes.Ballot => EnumerableMap.AddressToUintMap)\n            storage propTotals = _totals[proposal.id];\n        for_ = snapshot.getBallotPercentage(propTotals[DataTypes.Ballot.For]);\n        against = snapshot.getBallotPercentage(\n            propTotals[DataTypes.Ballot.Against]\n        );\n        abstain = snapshot.getBallotPercentage(\n            propTotals[DataTypes.Ballot.Abstain]\n        );\n    }\n\n    function _toVotingPowers(\n        EnumerableMap.AddressToUintMap storage map\n    ) internal view returns (DataTypes.VaultVotingPower[] memory) {\n        DataTypes.VaultVotingPower[]\n            memory vvps = new DataTypes.VaultVotingPower[](map.length());\n        for (uint256 i = 0; i < map.length(); i++) {\n            (address key, uint256 value) = map.at(i);\n            vvps[i] = DataTypes.VaultVotingPower({\n                vaultAddress: key,\n                votingPower: value\n            });\n        }\n\n        return vvps;\n    }\n\n    event ProposalExecuted(uint24 indexed proposalId);\n\n    function executeProposal(uint24 proposalId) external {\n        DataTypes.Proposal storage proposal = _proposals[proposalId];\n        if (proposal.createdAt == uint64(0)) {\n            revert(\"proposal does not exist\");\n        }\n\n        require(\n            _timelockedProposals.contains(uint256(proposalId)) &&\n                uint64(block.timestamp) > proposal.executableAt,\n            \"proposal must be queued and ready to execute\"\n        );\n\n        for (uint256 i = 0; i < proposal.actions.length; i++) {\n            proposal.actions[i].target.functionCall(\n                proposal.actions[i].data,\n                \"proposal execution failed\"\n            );\n        }\n        proposal.status = DataTypes.Status.Executed;\n        _timelockedProposals.remove(uint256(proposalId));\n        emit ProposalExecuted(proposalId);\n    }\n\n    function getBallot(\n        address voter,\n        uint24 proposalId\n    ) external view returns (DataTypes.Ballot) {\n        return _votes[voter][proposalId].ballot;\n    }\n\n    function updateLimitUpgradeabilityParams(\n        DataTypes.LimitUpgradeabilityParameters memory _params\n    ) external onlySelf {\n        limitUpgradeabilityParams = _params;\n    }\n\n    function listActiveProposals()\n        external\n        view\n        returns (DataTypes.Proposal[] memory)\n    {\n        return _listProposals(_activeProposals.values());\n    }\n\n    function listTimelockedProposals()\n        external\n        view\n        returns (DataTypes.Proposal[] memory)\n    {\n        return _listProposals(_timelockedProposals.values());\n    }\n\n    function _listProposals(\n        uint256[] memory ids\n    ) internal view returns (DataTypes.Proposal[] memory) {\n        uint256 len = ids.length;\n        DataTypes.Proposal[] memory proposals = new DataTypes.Proposal[](len);\n        for (uint256 i = 0; i < len; i++) {\n            proposals[i] = _proposals[uint24(ids[i])];\n        }\n        return proposals;\n    }\n\n    function _vaultAddresses(\n        DataTypes.VaultSnapshot[] memory vaultSnapshots\n    ) internal pure returns (address[] memory) {\n        uint256 len = vaultSnapshots.length;\n        address[] memory vaultAddresses = new address[](len);\n        for (uint256 i = 0; i < len; i++) {\n            vaultAddresses[i] = vaultSnapshots[i].vaultAddress;\n        }\n        return vaultAddresses;\n    }\n}\n","sourcePath":"contracts/GovernanceManager.sol","type":"contract","deployment":{"address":"0xf2f932866117FBc4d160E125AB46FEAAa64735a6","chainid":"137","blockHeight":44244697}}