{"abi":[{"inputs":[{"internalType":"address","name":"_owner","type":"address"},{"internalType":"uint256","name":"_threshold","type":"uint256"},{"components":[{"internalType":"address","name":"vaultAddress","type":"address"},{"internalType":"uint256","name":"weight","type":"uint256"}],"internalType":"struct AggregateLPVault.VaultWeight[]","name":"vaultWeights","type":"tuple[]"}],"stateMutability":"nonpayable","type":"constructor","name":"constructor"},{"inputs":[{"internalType":"address","name":"actual","type":"address"},{"internalType":"address","name":"expected","type":"address"}],"name":"NotAuthorized","type":"error"},{"inputs":[{"internalType":"address","name":"account","type":"address"}],"name":"getCurrentRecord","outputs":[{"components":[{"internalType":"uint256","name":"at","type":"uint256"},{"internalType":"uint256","name":"baseVotingPower","type":"uint256"},{"internalType":"uint256","name":"multiplier","type":"uint256"},{"internalType":"int256","name":"netDelegatedVotes","type":"int256"}],"internalType":"struct VotingPowerHistory.Record","name":"","type":"tuple"}],"stateMutability":"view","type":"function"},{"inputs":[{"internalType":"address","name":"account","type":"address"}],"name":"getRawVotingPower","outputs":[{"internalType":"uint256","name":"","type":"uint256"}],"stateMutability":"view","type":"function"},{"inputs":[{"internalType":"address","name":"_user","type":"address"},{"internalType":"uint256","name":"timestamp","type":"uint256"}],"name":"getRawVotingPower","outputs":[{"internalType":"uint256","name":"","type":"uint256"}],"stateMutability":"view","type":"function"},{"inputs":[],"name":"getTotalRawVotingPower","outputs":[{"internalType":"uint256","name":"","type":"uint256"}],"stateMutability":"view","type":"function"},{"inputs":[],"name":"getVaultWeights","outputs":[{"components":[{"internalType":"address","name":"vaultAddress","type":"address"},{"internalType":"uint256","name":"weight","type":"uint256"}],"internalType":"struct AggregateLPVault.VaultWeight[]","name":"","type":"tuple[]"}],"stateMutability":"view","type":"function"},{"inputs":[],"name":"owner","outputs":[{"internalType":"address","name":"","type":"address"}],"stateMutability":"view","type":"function"},{"inputs":[{"internalType":"uint256","name":"_threshold","type":"uint256"}],"name":"setThreshold","outputs":[],"stateMutability":"nonpayable","type":"function"},{"inputs":[{"components":[{"internalType":"address","name":"vaultAddress","type":"address"},{"internalType":"uint256","name":"weight","type":"uint256"}],"internalType":"struct AggregateLPVault.VaultWeight[]","name":"vaultWeights","type":"tuple[]"}],"name":"setVaultWeights","outputs":[],"stateMutability":"nonpayable","type":"function"}],"bytecode":"60a06040523480156200001157600080fd5b506040516200110d3803806200110d833981016040819052620000349162000269565b6001600160a01b038316608052600782905562000051816200005a565b505050620003a6565b60005b81518110156200011e5760008282815181106200007e576200007e62000368565b602002602001015190506000816020015111620000e15760405162461bcd60e51b815260206004820152601660248201527f63616e6e6f742068617665206120302077656967687400000000000000000000604482015260640160405180910390fd5b620001068160000151826020015160046200012260201b62000594179092919060201c565b5050808062000115906200037e565b9150506200005d565b5050565b60006200013a846001600160a01b0385168462000142565b949350505050565b6000828152600284016020908152604082208390556200013a9085908590620005b26200016f821b17901c565b60006200017d838362000186565b90505b92915050565b6000818152600183016020526040812054620001cf5750815460018181018455600084815260208082209093018490558454848252828601909352604090209190915562000180565b50600062000180565b80516001600160a01b0381168114620001f057600080fd5b919050565b634e487b7160e01b600052604160045260246000fd5b604080519081016001600160401b0381118282101715620002305762000230620001f5565b60405290565b604051601f8201601f191681016001600160401b0381118282101715620002615762000261620001f5565b604052919050565b6000806000606084860312156200027f57600080fd5b6200028a84620001d8565b9250602080850151925060408086015160018060401b0380821115620002af57600080fd5b818801915088601f830112620002c457600080fd5b815181811115620002d957620002d9620001f5565b620002e9858260051b0162000236565b818152858101925060069190911b83018501908a8211156200030a57600080fd5b928501925b81841015620003585784848c031215620003295760008081fd5b620003336200020b565b6200033e85620001d8565b81528487015187820152835292840192918501916200030f565b8096505050505050509250925092565b634e487b7160e01b600052603260045260246000fd5b6000600182016200039f57634e487b7160e01b600052601160045260246000fd5b5060010190565b608051610d2f620003de6000396000818161010c015281816101db0152818161021d0152818161038a01526103cc0152610d2f6000f3fe608060405234801561001057600080fd5b50600436106100885760003560e01c8063960bfe041161005b578063960bfe04146101465780639f1acf0814610159578063de1ec4031461016c578063f7fc81b01461017f57600080fd5b806319ad0eba1461008d578063247e548c146100dc578063344ff1d0146100f15780638da5cb5b14610107575b600080fd5b6100a061009b366004610a80565b610194565b6040516100d391908151815260208083015190820152604080830151908201526060918201519181019190915260800190565b60405180910390f35b6100ef6100ea366004610a9b565b6101d0565b005b6100f96102b6565b6040519081526020016100d3565b61012e7f000000000000000000000000000000000000000000000000000000000000000081565b6040516001600160a01b0390911681526020016100d3565b6100ef610154366004610b10565b61037f565b6100f9610167366004610a80565b6103fe565b6100f961017a366004610b29565b610406565b6101876104ad565b6040516100d39190610b53565b6101bf6040518060800160405280600081526020016000815260200160008152602001600081525090565b6101ca6000836105c5565b92915050565b336001600160a01b037f0000000000000000000000000000000000000000000000000000000000000000161461024f5760405163c55ddc9760e01b81523360048201526001600160a01b037f00000000000000000000000000000000000000000000000000000000000000001660248201526044015b60405180910390fd5b6102576106cc565b6102b28282808060200260200160405190810160405280939291908181526020016000905b828210156102a85761029960408302860136819003810190610bc1565b8152602001906001019061027c565b5050505050610715565b5050565b600080805b6102c560046107b4565b81101561036b576000806102da6004846107bf565b9150915061034a81836001600160a01b031663344ff1d06040518163ffffffff1660e01b8152600401602060405180830381865afa158015610320573d6000803e3d6000fd5b505050506040513d601f19601f820116820180604052508101906103449190610c26565b906107db565b6103549085610c55565b93505050808061036390610c68565b9150506102bb565b50600754811161037a57506007545b919050565b336001600160a01b037f000000000000000000000000000000000000000000000000000000000000000016146103f95760405163c55ddc9760e01b81523360048201526001600160a01b037f0000000000000000000000000000000000000000000000000000000000000000166024820152604401610246565b600755565b60006101ca82425b600080805b61041560046107b4565b8110156104a55760008061042a6004846107bf565b60405163de1ec40360e01b81526001600160a01b038a81166004830152602482018a90529294509092506104849183919085169063de1ec40390604401602060405180830381865afa158015610320573d6000803e3d6000fd5b61048e9085610c55565b93505050808061049d90610c68565b91505061040b565b509392505050565b606060006104bb60046107b4565b905060008167ffffffffffffffff8111156104d8576104d8610bab565b60405190808252806020026020018201604052801561051d57816020015b60408051808201909152600080825260208201528152602001906001900390816104f65790505b50905060005b8281101561058d576000806105396004846107bf565b915091506040518060400160405280836001600160a01b031681526020018281525084848151811061056d5761056d610c81565b60200260200101819052505050808061058590610c68565b915050610523565b5092915050565b60006105aa846001600160a01b038516846107fa565b949350505050565b60006105be8383610817565b9392505050565b6105f06040518060800160405280600081526020016000815260200160008152602001600081525090565b6001600160a01b03821660009081526020848152604080832080548251818502810185019093528083529192909190849084015b8282101561067e578382906000526020600020906004020160405180608001604052908160008201548152602001600182015481526020016002820154815260200160038201548152505081526020019060010190610624565b505050509050805160000361069d57610695610866565b9150506101ca565b80600182516106ac9190610c97565b815181106106bc576106bc610c81565b60200260200101519150506101ca565b60006106d860046107b4565b905060005b818110156102b25760006106f26004826107bf565b5090506107006004826108c2565b5050808061070d90610c68565b9150506106dd565b60005b81518110156102b257600082828151811061073557610735610c81565b60200260200101519050600081602001511161078c5760405162461bcd60e51b815260206004820152601660248201527518d85b9b9bdd081a185d994818480c081dd95a59da1d60521b6044820152606401610246565b8051602082015161079f91600491610594565b505080806107ac90610c68565b915050610718565b60006101ca826108d7565b60008080806107ce86866108e2565b9097909650945050505050565b6000670de0b6b3a76400006107f08385610caa565b6105be9190610cc1565b600082815260028401602052604081208290556105aa84846105b2565b600081815260018301602052604081205461085e575081546001818101845560008481526020808220909301849055845484825282860190935260409020919091556101ca565b5060006101ca565b6108916040518060800160405280600081526020016000815260200160008152602001600081525090565b60405180608001604052806000815260200160008152602001670de0b6b3a764000081526020016000815250905090565b60006105be836001600160a01b03841661090d565b60006101ca8261092a565b600080806108f08585610934565b600081815260029690960160205260409095205494959350505050565b600081815260028301602052604081208190556105be8383610940565b60006101ca825490565b60006105be838361094c565b60006105be8383610976565b600082600001828154811061096357610963610c81565b9060005260206000200154905092915050565b60008181526001830160205260408120548015610a5f57600061099a600183610c97565b85549091506000906109ae90600190610c97565b9050818114610a135760008660000182815481106109ce576109ce610c81565b90600052602060002001549050808760000184815481106109f1576109f1610c81565b6000918252602080832090910192909255918252600188019052604090208390555b8554869080610a2457610a24610ce3565b6001900381819060005260206000200160009055905585600101600086815260200190815260200160002060009055600193505050506101ca565b60009150506101ca565b80356001600160a01b038116811461037a57600080fd5b600060208284031215610a9257600080fd5b6105be82610a69565b60008060208385031215610aae57600080fd5b823567ffffffffffffffff80821115610ac657600080fd5b818501915085601f830112610ada57600080fd5b813581811115610ae957600080fd5b8660208260061b8501011115610afe57600080fd5b60209290920196919550909350505050565b600060208284031215610b2257600080fd5b5035919050565b60008060408385031215610b3c57600080fd5b610b4583610a69565b946020939093013593505050565b602080825282518282018190526000919060409081850190868401855b82811015610b9e57815180516001600160a01b03168552860151868501529284019290850190600101610b70565b5091979650505050505050565b634e487b7160e01b600052604160045260246000fd5b600060408284031215610bd357600080fd5b6040516040810181811067ffffffffffffffff82111715610c0457634e487b7160e01b600052604160045260246000fd5b604052610c1083610a69565b8152602083013560208201528091505092915050565b600060208284031215610c3857600080fd5b5051919050565b634e487b7160e01b600052601160045260246000fd5b808201808211156101ca576101ca610c3f565b600060018201610c7a57610c7a610c3f565b5060010190565b634e487b7160e01b600052603260045260246000fd5b818103818111156101ca576101ca610c3f565b80820281158282048414176101ca576101ca610c3f565b600082610cde57634e487b7160e01b600052601260045260246000fd5b500490565b634e487b7160e01b600052603160045260246000fdfea264697066735822122057bd10693bdf1733e2a7d0208dcd902d75a0e5b4509e042b23984b41aea4d1b364736f6c63430008110033","bytecodeSha1":"a343e79bf434768222f30eed7738087dba19308e","compiler":{"evm_version":"istanbul","optimizer":{"enabled":true,"runs":200},"version":"0.8.17+commit.8df45f5f"},"contractName":"AggregateLPVault","language":"Solidity","natspec":{"kind":"dev","methods":{},"version":1},"opcodes":"PUSH1 0x80 PUSH1 0x40 MSTORE CALLVALUE DUP1 ISZERO PUSH2 0x10 JUMPI PUSH1 0x0 DUP1 REVERT JUMPDEST POP PUSH1 0x4 CALLDATASIZE LT PUSH2 0x88 JUMPI PUSH1 0x0 CALLDATALOAD PUSH1 0xE0 SHR DUP1 PUSH4 0x960BFE04 GT PUSH2 0x5B JUMPI DUP1 PUSH4 0x960BFE04 EQ PUSH2 0x146 JUMPI DUP1 PUSH4 0x9F1ACF08 EQ PUSH2 0x159 JUMPI DUP1 PUSH4 0xDE1EC403 EQ PUSH2 0x16C JUMPI DUP1 PUSH4 0xF7FC81B0 EQ PUSH2 0x17F JUMPI PUSH1 0x0 DUP1 REVERT JUMPDEST DUP1 PUSH4 0x19AD0EBA EQ PUSH2 0x8D JUMPI DUP1 PUSH4 0x247E548C EQ PUSH2 0xDC JUMPI DUP1 PUSH4 0x344FF1D0 EQ PUSH2 0xF1 JUMPI DUP1 PUSH4 0x8DA5CB5B EQ PUSH2 0x107 JUMPI JUMPDEST PUSH1 0x0 DUP1 REVERT JUMPDEST PUSH2 0xA0 PUSH2 0x9B CALLDATASIZE PUSH1 0x4 PUSH2 0xA80 JUMP JUMPDEST PUSH2 0x194 JUMP JUMPDEST PUSH1 0x40 MLOAD PUSH2 0xD3 SWAP2 SWAP1 DUP2 MLOAD DUP2 MSTORE PUSH1 0x20 DUP1 DUP4 ADD MLOAD SWAP1 DUP3 ADD MSTORE PUSH1 0x40 DUP1 DUP4 ADD MLOAD SWAP1 DUP3 ADD MSTORE PUSH1 0x60 SWAP2 DUP3 ADD MLOAD SWAP2 DUP2 ADD SWAP2 SWAP1 SWAP2 MSTORE PUSH1 0x80 ADD SWAP1 JUMP JUMPDEST PUSH1 0x40 MLOAD DUP1 SWAP2 SUB SWAP1 RETURN JUMPDEST PUSH2 0xEF PUSH2 0xEA CALLDATASIZE PUSH1 0x4 PUSH2 0xA9B JUMP JUMPDEST PUSH2 0x1D0 JUMP JUMPDEST STOP JUMPDEST PUSH2 0xF9 PUSH2 0x2B6 JUMP JUMPDEST PUSH1 0x40 MLOAD SWAP1 DUP2 MSTORE PUSH1 0x20 ADD PUSH2 0xD3 JUMP JUMPDEST PUSH2 0x12E PUSH32 0x0 DUP2 JUMP JUMPDEST PUSH1 0x40 MLOAD PUSH1 0x1 PUSH1 0x1 PUSH1 0xA0 SHL SUB SWAP1 SWAP2 AND DUP2 MSTORE PUSH1 0x20 ADD PUSH2 0xD3 JUMP JUMPDEST PUSH2 0xEF PUSH2 0x154 CALLDATASIZE PUSH1 0x4 PUSH2 0xB10 JUMP JUMPDEST PUSH2 0x37F JUMP JUMPDEST PUSH2 0xF9 PUSH2 0x167 CALLDATASIZE PUSH1 0x4 PUSH2 0xA80 JUMP JUMPDEST PUSH2 0x3FE JUMP JUMPDEST PUSH2 0xF9 PUSH2 0x17A CALLDATASIZE PUSH1 0x4 PUSH2 0xB29 JUMP JUMPDEST PUSH2 0x406 JUMP JUMPDEST PUSH2 0x187 PUSH2 0x4AD JUMP JUMPDEST PUSH1 0x40 MLOAD PUSH2 0xD3 SWAP2 SWAP1 PUSH2 0xB53 JUMP JUMPDEST PUSH2 0x1BF PUSH1 0x40 MLOAD DUP1 PUSH1 0x80 ADD PUSH1 0x40 MSTORE DUP1 PUSH1 0x0 DUP2 MSTORE PUSH1 0x20 ADD PUSH1 0x0 DUP2 MSTORE PUSH1 0x20 ADD PUSH1 0x0 DUP2 MSTORE PUSH1 0x20 ADD PUSH1 0x0 DUP2 MSTORE POP SWAP1 JUMP JUMPDEST PUSH2 0x1CA PUSH1 0x0 DUP4 PUSH2 0x5C5 JUMP JUMPDEST SWAP3 SWAP2 POP POP JUMP JUMPDEST CALLER PUSH1 0x1 PUSH1 0x1 PUSH1 0xA0 SHL SUB PUSH32 0x0 AND EQ PUSH2 0x24F JUMPI PUSH1 0x40 MLOAD PUSH4 0xC55DDC97 PUSH1 0xE0 SHL DUP2 MSTORE CALLER PUSH1 0x4 DUP3 ADD MSTORE PUSH1 0x1 PUSH1 0x1 PUSH1 0xA0 SHL SUB PUSH32 0x0 AND PUSH1 0x24 DUP3 ADD MSTORE PUSH1 0x44 ADD JUMPDEST PUSH1 0x40 MLOAD DUP1 SWAP2 SUB SWAP1 REVERT JUMPDEST PUSH2 0x257 PUSH2 0x6CC JUMP JUMPDEST PUSH2 0x2B2 DUP3 DUP3 DUP1 DUP1 PUSH1 0x20 MUL PUSH1 0x20 ADD PUSH1 0x40 MLOAD SWAP1 DUP2 ADD PUSH1 0x40 MSTORE DUP1 SWAP4 SWAP3 SWAP2 SWAP1 DUP2 DUP2 MSTORE PUSH1 0x20 ADD PUSH1 0x0 SWAP1 JUMPDEST DUP3 DUP3 LT ISZERO PUSH2 0x2A8 JUMPI PUSH2 0x299 PUSH1 0x40 DUP4 MUL DUP7 ADD CALLDATASIZE DUP2 SWAP1 SUB DUP2 ADD SWAP1 PUSH2 0xBC1 JUMP JUMPDEST DUP2 MSTORE PUSH1 0x20 ADD SWAP1 PUSH1 0x1 ADD SWAP1 PUSH2 0x27C JUMP JUMPDEST POP POP POP POP POP PUSH2 0x715 JUMP JUMPDEST POP POP JUMP JUMPDEST PUSH1 0x0 DUP1 DUP1 JUMPDEST PUSH2 0x2C5 PUSH1 0x4 PUSH2 0x7B4 JUMP JUMPDEST DUP2 LT ISZERO PUSH2 0x36B JUMPI PUSH1 0x0 DUP1 PUSH2 0x2DA PUSH1 0x4 DUP5 PUSH2 0x7BF JUMP JUMPDEST SWAP2 POP SWAP2 POP PUSH2 0x34A DUP2 DUP4 PUSH1 0x1 PUSH1 0x1 PUSH1 0xA0 SHL SUB AND PUSH4 0x344FF1D0 PUSH1 0x40 MLOAD DUP2 PUSH4 0xFFFFFFFF AND PUSH1 0xE0 SHL DUP2 MSTORE PUSH1 0x4 ADD PUSH1 0x20 PUSH1 0x40 MLOAD DUP1 DUP4 SUB DUP2 DUP7 GAS STATICCALL ISZERO DUP1 ISZERO PUSH2 0x320 JUMPI RETURNDATASIZE PUSH1 0x0 DUP1 RETURNDATACOPY RETURNDATASIZE PUSH1 0x0 REVERT JUMPDEST POP POP POP POP PUSH1 0x40 MLOAD RETURNDATASIZE PUSH1 0x1F NOT PUSH1 0x1F DUP3 ADD AND DUP3 ADD DUP1 PUSH1 0x40 MSTORE POP DUP2 ADD SWAP1 PUSH2 0x344 SWAP2 SWAP1 PUSH2 0xC26 JUMP JUMPDEST SWAP1 PUSH2 0x7DB JUMP JUMPDEST PUSH2 0x354 SWAP1 DUP6 PUSH2 0xC55 JUMP JUMPDEST SWAP4 POP POP POP DUP1 DUP1 PUSH2 0x363 SWAP1 PUSH2 0xC68 JUMP JUMPDEST SWAP2 POP POP PUSH2 0x2BB JUMP JUMPDEST POP PUSH1 0x7 SLOAD DUP2 GT PUSH2 0x37A JUMPI POP PUSH1 0x7 SLOAD JUMPDEST SWAP2 SWAP1 POP JUMP JUMPDEST CALLER PUSH1 0x1 PUSH1 0x1 PUSH1 0xA0 SHL SUB PUSH32 0x0 AND EQ PUSH2 0x3F9 JUMPI PUSH1 0x40 MLOAD PUSH4 0xC55DDC97 PUSH1 0xE0 SHL DUP2 MSTORE CALLER PUSH1 0x4 DUP3 ADD MSTORE PUSH1 0x1 PUSH1 0x1 PUSH1 0xA0 SHL SUB PUSH32 0x0 AND PUSH1 0x24 DUP3 ADD MSTORE PUSH1 0x44 ADD PUSH2 0x246 JUMP JUMPDEST PUSH1 0x7 SSTORE JUMP JUMPDEST PUSH1 0x0 PUSH2 0x1CA DUP3 TIMESTAMP JUMPDEST PUSH1 0x0 DUP1 DUP1 JUMPDEST PUSH2 0x415 PUSH1 0x4 PUSH2 0x7B4 JUMP JUMPDEST DUP2 LT ISZERO PUSH2 0x4A5 JUMPI PUSH1 0x0 DUP1 PUSH2 0x42A PUSH1 0x4 DUP5 PUSH2 0x7BF JUMP JUMPDEST PUSH1 0x40 MLOAD PUSH4 0xDE1EC403 PUSH1 0xE0 SHL DUP2 MSTORE PUSH1 0x1 PUSH1 0x1 PUSH1 0xA0 SHL SUB DUP11 DUP2 AND PUSH1 0x4 DUP4 ADD MSTORE PUSH1 0x24 DUP3 ADD DUP11 SWAP1 MSTORE SWAP3 SWAP5 POP SWAP1 SWAP3 POP PUSH2 0x484 SWAP2 DUP4 SWAP2 SWAP1 DUP6 AND SWAP1 PUSH4 0xDE1EC403 SWAP1 PUSH1 0x44 ADD PUSH1 0x20 PUSH1 0x40 MLOAD DUP1 DUP4 SUB DUP2 DUP7 GAS STATICCALL ISZERO DUP1 ISZERO PUSH2 0x320 JUMPI RETURNDATASIZE PUSH1 0x0 DUP1 RETURNDATACOPY RETURNDATASIZE PUSH1 0x0 REVERT JUMPDEST PUSH2 0x48E SWAP1 DUP6 PUSH2 0xC55 JUMP JUMPDEST SWAP4 POP POP POP DUP1 DUP1 PUSH2 0x49D SWAP1 PUSH2 0xC68 JUMP JUMPDEST SWAP2 POP POP PUSH2 0x40B JUMP JUMPDEST POP SWAP4 SWAP3 POP POP POP JUMP JUMPDEST PUSH1 0x60 PUSH1 0x0 PUSH2 0x4BB PUSH1 0x4 PUSH2 0x7B4 JUMP JUMPDEST SWAP1 POP PUSH1 0x0 DUP2 PUSH8 0xFFFFFFFFFFFFFFFF DUP2 GT ISZERO PUSH2 0x4D8 JUMPI PUSH2 0x4D8 PUSH2 0xBAB JUMP JUMPDEST PUSH1 0x40 MLOAD SWAP1 DUP1 DUP3 MSTORE DUP1 PUSH1 0x20 MUL PUSH1 0x20 ADD DUP3 ADD PUSH1 0x40 MSTORE DUP1 ISZERO PUSH2 0x51D JUMPI DUP2 PUSH1 0x20 ADD JUMPDEST PUSH1 0x40 DUP1 MLOAD DUP1 DUP3 ADD SWAP1 SWAP2 MSTORE PUSH1 0x0 DUP1 DUP3 MSTORE PUSH1 0x20 DUP3 ADD MSTORE DUP2 MSTORE PUSH1 0x20 ADD SWAP1 PUSH1 0x1 SWAP1 SUB SWAP1 DUP2 PUSH2 0x4F6 JUMPI SWAP1 POP JUMPDEST POP SWAP1 POP PUSH1 0x0 JUMPDEST DUP3 DUP2 LT ISZERO PUSH2 0x58D JUMPI PUSH1 0x0 DUP1 PUSH2 0x539 PUSH1 0x4 DUP5 PUSH2 0x7BF JUMP JUMPDEST SWAP2 POP SWAP2 POP PUSH1 0x40 MLOAD DUP1 PUSH1 0x40 ADD PUSH1 0x40 MSTORE DUP1 DUP4 PUSH1 0x1 PUSH1 0x1 PUSH1 0xA0 SHL SUB AND DUP2 MSTORE PUSH1 0x20 ADD DUP3 DUP2 MSTORE POP DUP5 DUP5 DUP2 MLOAD DUP2 LT PUSH2 0x56D JUMPI PUSH2 0x56D PUSH2 0xC81 JUMP JUMPDEST PUSH1 0x20 MUL PUSH1 0x20 ADD ADD DUP2 SWAP1 MSTORE POP POP POP DUP1 DUP1 PUSH2 0x585 SWAP1 PUSH2 0xC68 JUMP JUMPDEST SWAP2 POP POP PUSH2 0x523 JUMP JUMPDEST POP SWAP3 SWAP2 POP POP JUMP JUMPDEST PUSH1 0x0 PUSH2 0x5AA DUP5 PUSH1 0x1 PUSH1 0x1 PUSH1 0xA0 SHL SUB DUP6 AND DUP5 PUSH2 0x7FA JUMP JUMPDEST SWAP5 SWAP4 POP POP POP POP JUMP JUMPDEST PUSH1 0x0 PUSH2 0x5BE DUP4 DUP4 PUSH2 0x817 JUMP JUMPDEST SWAP4 SWAP3 POP POP POP JUMP JUMPDEST PUSH2 0x5F0 PUSH1 0x40 MLOAD DUP1 PUSH1 0x80 ADD PUSH1 0x40 MSTORE DUP1 PUSH1 0x0 DUP2 MSTORE PUSH1 0x20 ADD PUSH1 0x0 DUP2 MSTORE PUSH1 0x20 ADD PUSH1 0x0 DUP2 MSTORE PUSH1 0x20 ADD PUSH1 0x0 DUP2 MSTORE POP SWAP1 JUMP JUMPDEST PUSH1 0x1 PUSH1 0x1 PUSH1 0xA0 SHL SUB DUP3 AND PUSH1 0x0 SWAP1 DUP2 MSTORE PUSH1 0x20 DUP5 DUP2 MSTORE PUSH1 0x40 DUP1 DUP4 KECCAK256 DUP1 SLOAD DUP3 MLOAD DUP2 DUP6 MUL DUP2 ADD DUP6 ADD SWAP1 SWAP4 MSTORE DUP1 DUP4 MSTORE SWAP2 SWAP3 SWAP1 SWAP2 SWAP1 DUP5 SWAP1 DUP5 ADD JUMPDEST DUP3 DUP3 LT ISZERO PUSH2 0x67E JUMPI DUP4 DUP3 SWAP1 PUSH1 0x0 MSTORE PUSH1 0x20 PUSH1 0x0 KECCAK256 SWAP1 PUSH1 0x4 MUL ADD PUSH1 0x40 MLOAD DUP1 PUSH1 0x80 ADD PUSH1 0x40 MSTORE SWAP1 DUP2 PUSH1 0x0 DUP3 ADD SLOAD DUP2 MSTORE PUSH1 0x20 ADD PUSH1 0x1 DUP3 ADD SLOAD DUP2 MSTORE PUSH1 0x20 ADD PUSH1 0x2 DUP3 ADD SLOAD DUP2 MSTORE PUSH1 0x20 ADD PUSH1 0x3 DUP3 ADD SLOAD DUP2 MSTORE POP POP DUP2 MSTORE PUSH1 0x20 ADD SWAP1 PUSH1 0x1 ADD SWAP1 PUSH2 0x624 JUMP JUMPDEST POP POP POP POP SWAP1 POP DUP1 MLOAD PUSH1 0x0 SUB PUSH2 0x69D JUMPI PUSH2 0x695 PUSH2 0x866 JUMP JUMPDEST SWAP2 POP POP PUSH2 0x1CA JUMP JUMPDEST DUP1 PUSH1 0x1 DUP3 MLOAD PUSH2 0x6AC SWAP2 SWAP1 PUSH2 0xC97 JUMP JUMPDEST DUP2 MLOAD DUP2 LT PUSH2 0x6BC JUMPI PUSH2 0x6BC PUSH2 0xC81 JUMP JUMPDEST PUSH1 0x20 MUL PUSH1 0x20 ADD ADD MLOAD SWAP2 POP POP PUSH2 0x1CA JUMP JUMPDEST PUSH1 0x0 PUSH2 0x6D8 PUSH1 0x4 PUSH2 0x7B4 JUMP JUMPDEST SWAP1 POP PUSH1 0x0 JUMPDEST DUP2 DUP2 LT ISZERO PUSH2 0x2B2 JUMPI PUSH1 0x0 PUSH2 0x6F2 PUSH1 0x4 DUP3 PUSH2 0x7BF JUMP JUMPDEST POP SWAP1 POP PUSH2 0x700 PUSH1 0x4 DUP3 PUSH2 0x8C2 JUMP JUMPDEST POP POP DUP1 DUP1 PUSH2 0x70D SWAP1 PUSH2 0xC68 JUMP JUMPDEST SWAP2 POP POP PUSH2 0x6DD JUMP JUMPDEST PUSH1 0x0 JUMPDEST DUP2 MLOAD DUP2 LT ISZERO PUSH2 0x2B2 JUMPI PUSH1 0x0 DUP3 DUP3 DUP2 MLOAD DUP2 LT PUSH2 0x735 JUMPI PUSH2 0x735 PUSH2 0xC81 JUMP JUMPDEST PUSH1 0x20 MUL PUSH1 0x20 ADD ADD MLOAD SWAP1 POP PUSH1 0x0 DUP2 PUSH1 0x20 ADD MLOAD GT PUSH2 0x78C JUMPI PUSH1 0x40 MLOAD PUSH3 0x461BCD PUSH1 0xE5 SHL DUP2 MSTORE PUSH1 0x20 PUSH1 0x4 DUP3 ADD MSTORE PUSH1 0x16 PUSH1 0x24 DUP3 ADD MSTORE PUSH22 0x18D85B9B9BDD081A185D994818480C081DD95A59DA1D PUSH1 0x52 SHL PUSH1 0x44 DUP3 ADD MSTORE PUSH1 0x64 ADD PUSH2 0x246 JUMP JUMPDEST DUP1 MLOAD PUSH1 0x20 DUP3 ADD MLOAD PUSH2 0x79F SWAP2 PUSH1 0x4 SWAP2 PUSH2 0x594 JUMP JUMPDEST POP POP DUP1 DUP1 PUSH2 0x7AC SWAP1 PUSH2 0xC68 JUMP JUMPDEST SWAP2 POP POP PUSH2 0x718 JUMP JUMPDEST PUSH1 0x0 PUSH2 0x1CA DUP3 PUSH2 0x8D7 JUMP JUMPDEST PUSH1 0x0 DUP1 DUP1 DUP1 PUSH2 0x7CE DUP7 DUP7 PUSH2 0x8E2 JUMP JUMPDEST SWAP1 SWAP8 SWAP1 SWAP7 POP SWAP5 POP POP POP POP POP JUMP JUMPDEST PUSH1 0x0 PUSH8 0xDE0B6B3A7640000 PUSH2 0x7F0 DUP4 DUP6 PUSH2 0xCAA JUMP JUMPDEST PUSH2 0x5BE SWAP2 SWAP1 PUSH2 0xCC1 JUMP JUMPDEST PUSH1 0x0 DUP3 DUP2 MSTORE PUSH1 0x2 DUP5 ADD PUSH1 0x20 MSTORE PUSH1 0x40 DUP2 KECCAK256 DUP3 SWAP1 SSTORE PUSH2 0x5AA DUP5 DUP5 PUSH2 0x5B2 JUMP JUMPDEST PUSH1 0x0 DUP2 DUP2 MSTORE PUSH1 0x1 DUP4 ADD PUSH1 0x20 MSTORE PUSH1 0x40 DUP2 KECCAK256 SLOAD PUSH2 0x85E JUMPI POP DUP2 SLOAD PUSH1 0x1 DUP2 DUP2 ADD DUP5 SSTORE PUSH1 0x0 DUP5 DUP2 MSTORE PUSH1 0x20 DUP1 DUP3 KECCAK256 SWAP1 SWAP4 ADD DUP5 SWAP1 SSTORE DUP5 SLOAD DUP5 DUP3 MSTORE DUP3 DUP7 ADD SWAP1 SWAP4 MSTORE PUSH1 0x40 SWAP1 KECCAK256 SWAP2 SWAP1 SWAP2 SSTORE PUSH2 0x1CA JUMP JUMPDEST POP PUSH1 0x0 PUSH2 0x1CA JUMP JUMPDEST PUSH2 0x891 PUSH1 0x40 MLOAD DUP1 PUSH1 0x80 ADD PUSH1 0x40 MSTORE DUP1 PUSH1 0x0 DUP2 MSTORE PUSH1 0x20 ADD PUSH1 0x0 DUP2 MSTORE PUSH1 0x20 ADD PUSH1 0x0 DUP2 MSTORE PUSH1 0x20 ADD PUSH1 0x0 DUP2 MSTORE POP SWAP1 JUMP JUMPDEST PUSH1 0x40 MLOAD DUP1 PUSH1 0x80 ADD PUSH1 0x40 MSTORE DUP1 PUSH1 0x0 DUP2 MSTORE PUSH1 0x20 ADD PUSH1 0x0 DUP2 MSTORE PUSH1 0x20 ADD PUSH8 0xDE0B6B3A7640000 DUP2 MSTORE PUSH1 0x20 ADD PUSH1 0x0 DUP2 MSTORE POP SWAP1 POP SWAP1 JUMP JUMPDEST PUSH1 0x0 PUSH2 0x5BE DUP4 PUSH1 0x1 PUSH1 0x1 PUSH1 0xA0 SHL SUB DUP5 AND PUSH2 0x90D JUMP JUMPDEST PUSH1 0x0 PUSH2 0x1CA DUP3 PUSH2 0x92A JUMP JUMPDEST PUSH1 0x0 DUP1 DUP1 PUSH2 0x8F0 DUP6 DUP6 PUSH2 0x934 JUMP JUMPDEST PUSH1 0x0 DUP2 DUP2 MSTORE PUSH1 0x2 SWAP7 SWAP1 SWAP7 ADD PUSH1 0x20 MSTORE PUSH1 0x40 SWAP1 SWAP6 KECCAK256 SLOAD SWAP5 SWAP6 SWAP4 POP POP POP POP JUMP JUMPDEST PUSH1 0x0 DUP2 DUP2 MSTORE PUSH1 0x2 DUP4 ADD PUSH1 0x20 MSTORE PUSH1 0x40 DUP2 KECCAK256 DUP2 SWAP1 SSTORE PUSH2 0x5BE DUP4 DUP4 PUSH2 0x940 JUMP JUMPDEST PUSH1 0x0 PUSH2 0x1CA DUP3 SLOAD SWAP1 JUMP JUMPDEST PUSH1 0x0 PUSH2 0x5BE DUP4 DUP4 PUSH2 0x94C JUMP JUMPDEST PUSH1 0x0 PUSH2 0x5BE DUP4 DUP4 PUSH2 0x976 JUMP JUMPDEST PUSH1 0x0 DUP3 PUSH1 0x0 ADD DUP3 DUP2 SLOAD DUP2 LT PUSH2 0x963 JUMPI PUSH2 0x963 PUSH2 0xC81 JUMP JUMPDEST SWAP1 PUSH1 0x0 MSTORE PUSH1 0x20 PUSH1 0x0 KECCAK256 ADD SLOAD SWAP1 POP SWAP3 SWAP2 POP POP JUMP JUMPDEST PUSH1 0x0 DUP2 DUP2 MSTORE PUSH1 0x1 DUP4 ADD PUSH1 0x20 MSTORE PUSH1 0x40 DUP2 KECCAK256 SLOAD DUP1 ISZERO PUSH2 0xA5F JUMPI PUSH1 0x0 PUSH2 0x99A PUSH1 0x1 DUP4 PUSH2 0xC97 JUMP JUMPDEST DUP6 SLOAD SWAP1 SWAP2 POP PUSH1 0x0 SWAP1 PUSH2 0x9AE SWAP1 PUSH1 0x1 SWAP1 PUSH2 0xC97 JUMP JUMPDEST SWAP1 POP DUP2 DUP2 EQ PUSH2 0xA13 JUMPI PUSH1 0x0 DUP7 PUSH1 0x0 ADD DUP3 DUP2 SLOAD DUP2 LT PUSH2 0x9CE JUMPI PUSH2 0x9CE PUSH2 0xC81 JUMP JUMPDEST SWAP1 PUSH1 0x0 MSTORE PUSH1 0x20 PUSH1 0x0 KECCAK256 ADD SLOAD SWAP1 POP DUP1 DUP8 PUSH1 0x0 ADD DUP5 DUP2 SLOAD DUP2 LT PUSH2 0x9F1 JUMPI PUSH2 0x9F1 PUSH2 0xC81 JUMP JUMPDEST PUSH1 0x0 SWAP2 DUP3 MSTORE PUSH1 0x20 DUP1 DUP4 KECCAK256 SWAP1 SWAP2 ADD SWAP3 SWAP1 SWAP3 SSTORE SWAP2 DUP3 MSTORE PUSH1 0x1 DUP9 ADD SWAP1 MSTORE PUSH1 0x40 SWAP1 KECCAK256 DUP4 SWAP1 SSTORE JUMPDEST DUP6 SLOAD DUP7 SWAP1 DUP1 PUSH2 0xA24 JUMPI PUSH2 0xA24 PUSH2 0xCE3 JUMP JUMPDEST PUSH1 0x1 SWAP1 SUB DUP2 DUP2 SWAP1 PUSH1 0x0 MSTORE PUSH1 0x20 PUSH1 0x0 KECCAK256 ADD PUSH1 0x0 SWAP1 SSTORE SWAP1 SSTORE DUP6 PUSH1 0x1 ADD PUSH1 0x0 DUP7 DUP2 MSTORE PUSH1 0x20 ADD SWAP1 DUP2 MSTORE PUSH1 0x20 ADD PUSH1 0x0 KECCAK256 PUSH1 0x0 SWAP1 SSTORE PUSH1 0x1 SWAP4 POP POP POP POP PUSH2 0x1CA JUMP JUMPDEST PUSH1 0x0 SWAP2 POP POP PUSH2 0x1CA JUMP JUMPDEST DUP1 CALLDATALOAD PUSH1 0x1 PUSH1 0x1 PUSH1 0xA0 SHL SUB DUP2 AND DUP2 EQ PUSH2 0x37A JUMPI PUSH1 0x0 DUP1 REVERT JUMPDEST PUSH1 0x0 PUSH1 0x20 DUP3 DUP5 SUB SLT ISZERO PUSH2 0xA92 JUMPI PUSH1 0x0 DUP1 REVERT JUMPDEST PUSH2 0x5BE DUP3 PUSH2 0xA69 JUMP JUMPDEST PUSH1 0x0 DUP1 PUSH1 0x20 DUP4 DUP6 SUB SLT ISZERO PUSH2 0xAAE JUMPI PUSH1 0x0 DUP1 REVERT JUMPDEST DUP3 CALLDATALOAD PUSH8 0xFFFFFFFFFFFFFFFF DUP1 DUP3 GT ISZERO PUSH2 0xAC6 JUMPI PUSH1 0x0 DUP1 REVERT JUMPDEST DUP2 DUP6 ADD SWAP2 POP DUP6 PUSH1 0x1F DUP4 ADD SLT PUSH2 0xADA JUMPI PUSH1 0x0 DUP1 REVERT JUMPDEST DUP2 CALLDATALOAD DUP2 DUP2 GT ISZERO PUSH2 0xAE9 JUMPI PUSH1 0x0 DUP1 REVERT JUMPDEST DUP7 PUSH1 0x20 DUP3 PUSH1 0x6 SHL DUP6 ADD ADD GT ISZERO PUSH2 0xAFE JUMPI PUSH1 0x0 DUP1 REVERT JUMPDEST PUSH1 0x20 SWAP3 SWAP1 SWAP3 ADD SWAP7 SWAP2 SWAP6 POP SWAP1 SWAP4 POP POP POP POP JUMP JUMPDEST PUSH1 0x0 PUSH1 0x20 DUP3 DUP5 SUB SLT ISZERO PUSH2 0xB22 JUMPI PUSH1 0x0 DUP1 REVERT JUMPDEST POP CALLDATALOAD SWAP2 SWAP1 POP JUMP JUMPDEST PUSH1 0x0 DUP1 PUSH1 0x40 DUP4 DUP6 SUB SLT ISZERO PUSH2 0xB3C JUMPI PUSH1 0x0 DUP1 REVERT JUMPDEST PUSH2 0xB45 DUP4 PUSH2 0xA69 JUMP JUMPDEST SWAP5 PUSH1 0x20 SWAP4 SWAP1 SWAP4 ADD CALLDATALOAD SWAP4 POP POP POP JUMP JUMPDEST PUSH1 0x20 DUP1 DUP3 MSTORE DUP3 MLOAD DUP3 DUP3 ADD DUP2 SWAP1 MSTORE PUSH1 0x0 SWAP2 SWAP1 PUSH1 0x40 SWAP1 DUP2 DUP6 ADD SWAP1 DUP7 DUP5 ADD DUP6 JUMPDEST DUP3 DUP2 LT ISZERO PUSH2 0xB9E JUMPI DUP2 MLOAD DUP1 MLOAD PUSH1 0x1 PUSH1 0x1 PUSH1 0xA0 SHL SUB AND DUP6 MSTORE DUP7 ADD MLOAD DUP7 DUP6 ADD MSTORE SWAP3 DUP5 ADD SWAP3 SWAP1 DUP6 ADD SWAP1 PUSH1 0x1 ADD PUSH2 0xB70 JUMP JUMPDEST POP SWAP2 SWAP8 SWAP7 POP POP POP POP POP POP POP JUMP JUMPDEST PUSH4 0x4E487B71 PUSH1 0xE0 SHL PUSH1 0x0 MSTORE PUSH1 0x41 PUSH1 0x4 MSTORE PUSH1 0x24 PUSH1 0x0 REVERT JUMPDEST PUSH1 0x0 PUSH1 0x40 DUP3 DUP5 SUB SLT ISZERO PUSH2 0xBD3 JUMPI PUSH1 0x0 DUP1 REVERT JUMPDEST PUSH1 0x40 MLOAD PUSH1 0x40 DUP2 ADD DUP2 DUP2 LT PUSH8 0xFFFFFFFFFFFFFFFF DUP3 GT OR ISZERO PUSH2 0xC04 JUMPI PUSH4 0x4E487B71 PUSH1 0xE0 SHL PUSH1 0x0 MSTORE PUSH1 0x41 PUSH1 0x4 MSTORE PUSH1 0x24 PUSH1 0x0 REVERT JUMPDEST PUSH1 0x40 MSTORE PUSH2 0xC10 DUP4 PUSH2 0xA69 JUMP JUMPDEST DUP2 MSTORE PUSH1 0x20 DUP4 ADD CALLDATALOAD PUSH1 0x20 DUP3 ADD MSTORE DUP1 SWAP2 POP POP SWAP3 SWAP2 POP POP JUMP JUMPDEST PUSH1 0x0 PUSH1 0x20 DUP3 DUP5 SUB SLT ISZERO PUSH2 0xC38 JUMPI PUSH1 0x0 DUP1 REVERT JUMPDEST POP MLOAD SWAP2 SWAP1 POP JUMP JUMPDEST PUSH4 0x4E487B71 PUSH1 0xE0 SHL PUSH1 0x0 MSTORE PUSH1 0x11 PUSH1 0x4 MSTORE PUSH1 0x24 PUSH1 0x0 REVERT JUMPDEST DUP1 DUP3 ADD DUP1 DUP3 GT ISZERO PUSH2 0x1CA JUMPI PUSH2 0x1CA PUSH2 0xC3F JUMP JUMPDEST PUSH1 0x0 PUSH1 0x1 DUP3 ADD PUSH2 0xC7A JUMPI PUSH2 0xC7A PUSH2 0xC3F JUMP JUMPDEST POP PUSH1 0x1 ADD SWAP1 JUMP JUMPDEST PUSH4 0x4E487B71 PUSH1 0xE0 SHL PUSH1 0x0 MSTORE PUSH1 0x32 PUSH1 0x4 MSTORE PUSH1 0x24 PUSH1 0x0 REVERT JUMPDEST DUP2 DUP2 SUB DUP2 DUP2 GT ISZERO PUSH2 0x1CA JUMPI PUSH2 0x1CA PUSH2 0xC3F JUMP JUMPDEST DUP1 DUP3 MUL DUP2 ISZERO DUP3 DUP3 DIV DUP5 EQ OR PUSH2 0x1CA JUMPI PUSH2 0x1CA PUSH2 0xC3F JUMP JUMPDEST PUSH1 0x0 DUP3 PUSH2 0xCDE JUMPI PUSH4 0x4E487B71 PUSH1 0xE0 SHL PUSH1 0x0 MSTORE PUSH1 0x12 PUSH1 0x4 MSTORE PUSH1 0x24 PUSH1 0x0 REVERT JUMPDEST POP DIV SWAP1 JUMP JUMPDEST PUSH4 0x4E487B71 PUSH1 0xE0 SHL PUSH1 0x0 MSTORE PUSH1 0x31 PUSH1 0x4 MSTORE PUSH1 0x24 PUSH1 0x0 REVERT INVALID LOG2 PUSH5 0x6970667358 0x22 SLT KECCAK256 JUMPI 0xBD LT PUSH10 0x3BDF1733E2A7D0208DCD SWAP1 0x2D PUSH22 0xA0E5B4509E042B23984B41AEA4D1B364736F6C634300 ADDMOD GT STOP CALLER ","sha1":"6afd48099dbae73958b9622daeeb8179d50b3272","source":"// SPDX-License-Identifier: UNLICENSED\npragma solidity ^0.8.17;\n\nimport \"@openzeppelin/contracts/utils/structs/EnumerableMap.sol\";\n\nimport \"../../interfaces/IVault.sol\";\nimport \"../../libraries/ScaledMath.sol\";\nimport \"../access/ImmutableOwner.sol\";\nimport \"./BaseVault.sol\";\n\ncontract AggregateLPVault is BaseVault, ImmutableOwner {\n    using EnumerableMap for EnumerableMap.AddressToUintMap;\n    using ScaledMath for uint256;\n\n    struct VaultWeight {\n        address vaultAddress;\n        uint256 weight;\n    }\n\n    EnumerableMap.AddressToUintMap internal vaultsToWeights;\n\n    uint256 internal threshold;\n\n    constructor(\n        address _owner,\n        uint256 _threshold,\n        VaultWeight[] memory vaultWeights\n    ) ImmutableOwner(_owner) {\n        threshold = _threshold;\n        _setVaultWeights(vaultWeights);\n    }\n\n    function setVaultWeights(\n        VaultWeight[] calldata vaultWeights\n    ) external onlyOwner {\n        _removeAllVaultWeights();\n        _setVaultWeights(vaultWeights);\n    }\n\n    function getVaultWeights() external view returns (VaultWeight[] memory) {\n        uint256 length = vaultsToWeights.length();\n        VaultWeight[] memory vaultWeights = new VaultWeight[](length);\n\n        for (uint256 i = 0; i < length; i++) {\n            (address vault, uint256 weight) = vaultsToWeights.at(i);\n            vaultWeights[i] = VaultWeight(vault, weight);\n        }\n\n        return vaultWeights;\n    }\n\n    function _removeAllVaultWeights() internal {\n        uint256 length = vaultsToWeights.length();\n        for (uint256 i = 0; i < length; i++) {\n            (address key, ) = vaultsToWeights.at(0);\n            vaultsToWeights.remove(key);\n        }\n    }\n\n    function setThreshold(uint256 _threshold) external onlyOwner {\n        threshold = _threshold;\n    }\n\n    function getRawVotingPower(\n        address _user,\n        uint256 timestamp\n    ) public view override returns (uint256) {\n        uint256 rawVotingPower = 0;\n        for (uint256 i = 0; i < vaultsToWeights.length(); i++) {\n            (address vault, uint256 weight) = vaultsToWeights.at(i);\n            rawVotingPower += IVault(vault)\n                .getRawVotingPower(_user, timestamp)\n                .mulDown(weight);\n        }\n\n        return rawVotingPower;\n    }\n\n    function getTotalRawVotingPower() public view override returns (uint256) {\n        uint256 totalRawVotingPower = 0;\n        for (uint256 i = 0; i < vaultsToWeights.length(); i++) {\n            (address vault, uint256 weight) = vaultsToWeights.at(i);\n            totalRawVotingPower += IVault(vault)\n                .getTotalRawVotingPower()\n                .mulDown(weight);\n        }\n\n        if (totalRawVotingPower <= threshold) {\n            totalRawVotingPower = threshold;\n        }\n\n        return totalRawVotingPower;\n    }\n\n    function _setVaultWeights(VaultWeight[] memory vaultWeights) internal {\n        for (uint256 i; i < vaultWeights.length; i++) {\n            VaultWeight memory v = vaultWeights[i];\n            require(v.weight > 0, \"cannot have a 0 weight\");\n            vaultsToWeights.set(v.vaultAddress, v.weight);\n        }\n    }\n}\n","sourcePath":"contracts/vaults/AggregateLPVault.sol","type":"contract","deployment":{"address":"0xf957eDC629fa6315ce4936bdb670AD01B23b783f","chainid":"137","blockHeight":45233528}}